{
	"contracts/handlers/HandlerHelpers.sol": {
		"HandlerHelpers": {
			"abi": [
				{
					"inputs": [],
					"name": "_bridgeAddress",
					"outputs": [
						{
							"internalType": "address",
							"name": "",
							"type": "address"
						}
					],
					"stateMutability": "view",
					"type": "function"
				},
				{
					"inputs": [
						{
							"internalType": "address",
							"name": "",
							"type": "address"
						}
					],
					"name": "_burnList",
					"outputs": [
						{
							"internalType": "bool",
							"name": "",
							"type": "bool"
						}
					],
					"stateMutability": "view",
					"type": "function"
				},
				{
					"inputs": [
						{
							"internalType": "address",
							"name": "",
							"type": "address"
						}
					],
					"name": "_contractWhitelist",
					"outputs": [
						{
							"internalType": "bool",
							"name": "",
							"type": "bool"
						}
					],
					"stateMutability": "view",
					"type": "function"
				},
				{
					"inputs": [
						{
							"internalType": "bytes32",
							"name": "",
							"type": "bytes32"
						}
					],
					"name": "_resourceIDToTokenContractAddress",
					"outputs": [
						{
							"internalType": "address",
							"name": "",
							"type": "address"
						}
					],
					"stateMutability": "view",
					"type": "function"
				},
				{
					"inputs": [
						{
							"internalType": "address",
							"name": "",
							"type": "address"
						}
					],
					"name": "_tokenContractAddressToResourceID",
					"outputs": [
						{
							"internalType": "bytes32",
							"name": "",
							"type": "bytes32"
						}
					],
					"stateMutability": "view",
					"type": "function"
				},
				{
					"inputs": [
						{
							"internalType": "address",
							"name": "contractAddress",
							"type": "address"
						}
					],
					"name": "setBurnable",
					"outputs": [],
					"stateMutability": "nonpayable",
					"type": "function"
				},
				{
					"inputs": [
						{
							"internalType": "bytes32",
							"name": "resourceID",
							"type": "bytes32"
						},
						{
							"internalType": "address",
							"name": "contractAddress",
							"type": "address"
						}
					],
					"name": "setResource",
					"outputs": [],
					"stateMutability": "nonpayable",
					"type": "function"
				},
				{
					"inputs": [
						{
							"internalType": "address",
							"name": "tokenAddress",
							"type": "address"
						},
						{
							"internalType": "address",
							"name": "recipient",
							"type": "address"
						},
						{
							"internalType": "uint256",
							"name": "amountOrTokenID",
							"type": "uint256"
						}
					],
					"name": "withdraw",
					"outputs": [],
					"stateMutability": "nonpayable",
					"type": "function"
				}
			],
			"devdoc": {
				"methods": {
					"setBurnable(address)": {
						"params": {
							"contractAddress": "Address of contract to be used when making or executing deposits."
						}
					},
					"setResource(bytes32,address)": {
						"params": {
							"contractAddress": "Address of contract to be called when a deposit is made and a deposited is executed.",
							"resourceID": "ResourceID to be used when making deposits."
						}
					},
					"withdraw(address,address,uint256)": {
						"params": {
							"amountOrTokenID": "Either the amount of ERC20 tokens or the ERC721 token ID to release.",
							"recipient": "Address to release tokens to.",
							"tokenAddress": "Address of token contract to release."
						}
					}
				}
			},
			"evm": {
				"assembly": "    /* \"contracts/handlers/HandlerHelpers.sol\":65:2766  contract HandlerHelpers is IERCHandler {... */\n  mstore(0x40, 0x80)\n  callvalue\n    /* \"--CODEGEN--\":5:14   */\n  dup1\n    /* \"--CODEGEN--\":2:4   */\n  iszero\n  tag_1\n  jumpi\n    /* \"--CODEGEN--\":27:28   */\n  0x00\n    /* \"--CODEGEN--\":24:25   */\n  dup1\n    /* \"--CODEGEN--\":17:29   */\n  revert\n    /* \"--CODEGEN--\":2:4   */\ntag_1:\n    /* \"contracts/handlers/HandlerHelpers.sol\":65:2766  contract HandlerHelpers is IERCHandler {... */\n  pop\n  dataSize(sub_0)\n  dup1\n  dataOffset(sub_0)\n  0x00\n  codecopy\n  0x00\n  return\nstop\n\nsub_0: assembly {\n        /* \"contracts/handlers/HandlerHelpers.sol\":65:2766  contract HandlerHelpers is IERCHandler {... */\n      mstore(0x40, 0x80)\n      callvalue\n        /* \"--CODEGEN--\":5:14   */\n      dup1\n        /* \"--CODEGEN--\":2:4   */\n      iszero\n      tag_1\n      jumpi\n        /* \"--CODEGEN--\":27:28   */\n      0x00\n        /* \"--CODEGEN--\":24:25   */\n      dup1\n        /* \"--CODEGEN--\":17:29   */\n      revert\n        /* \"--CODEGEN--\":2:4   */\n    tag_1:\n        /* \"contracts/handlers/HandlerHelpers.sol\":65:2766  contract HandlerHelpers is IERCHandler {... */\n      pop\n      jumpi(tag_2, lt(calldatasize, 0x04))\n      shr(0xe0, calldataload(0x00))\n      dup1\n      0x7f79bea8\n      gt\n      tag_11\n      jumpi\n      dup1\n      0x7f79bea8\n      eq\n      tag_7\n      jumpi\n      dup1\n      0xb8fa3736\n      eq\n      tag_8\n      jumpi\n      dup1\n      0xc8ba6c87\n      eq\n      tag_9\n      jumpi\n      dup1\n      0xd9caed12\n      eq\n      tag_10\n      jumpi\n      jump(tag_2)\n    tag_11:\n      dup1\n      0x07b7ed99\n      eq\n      tag_3\n      jumpi\n      dup1\n      0x0a6d55d8\n      eq\n      tag_4\n      jumpi\n      dup1\n      0x318c136e\n      eq\n      tag_5\n      jumpi\n      dup1\n      0x6a70d081\n      eq\n      tag_6\n      jumpi\n    tag_2:\n        /* \"--CODEGEN--\":12:13   */\n      0x00\n        /* \"--CODEGEN--\":9:10   */\n      dup1\n        /* \"--CODEGEN--\":2:14   */\n      revert\n        /* \"contracts/handlers/HandlerHelpers.sol\":1732:1852  function setBurnable(address contractAddress) external override onlyBridge{... */\n    tag_3:\n      tag_12\n      0x04\n      dup1\n      calldatasize\n      sub\n        /* \"--CODEGEN--\":15:17   */\n      0x20\n        /* \"--CODEGEN--\":10:13   */\n      dup2\n        /* \"--CODEGEN--\":7:18   */\n      lt\n        /* \"--CODEGEN--\":4:6   */\n      iszero\n      tag_13\n      jumpi\n        /* \"--CODEGEN--\":31:32   */\n      0x00\n        /* \"--CODEGEN--\":28:29   */\n      dup1\n        /* \"--CODEGEN--\":21:33   */\n      revert\n        /* \"--CODEGEN--\":4:6   */\n    tag_13:\n        /* \"contracts/handlers/HandlerHelpers.sol\":1732:1852  function setBurnable(address contractAddress) external override onlyBridge{... */\n      dup2\n      add\n      swap1\n      dup1\n      dup1\n      calldataload\n      0xffffffffffffffffffffffffffffffffffffffff\n      and\n      swap1\n      0x20\n      add\n      swap1\n      swap3\n      swap2\n      swap1\n      pop\n      pop\n      pop\n      tag_14\n      jump\t// in\n    tag_12:\n      stop\n        /* \"contracts/handlers/HandlerHelpers.sol\":190:259  mapping (bytes32 => address) public _resourceIDToTokenContractAddress */\n    tag_4:\n      tag_15\n      0x04\n      dup1\n      calldatasize\n      sub\n        /* \"--CODEGEN--\":15:17   */\n      0x20\n        /* \"--CODEGEN--\":10:13   */\n      dup2\n        /* \"--CODEGEN--\":7:18   */\n      lt\n        /* \"--CODEGEN--\":4:6   */\n      iszero\n      tag_16\n      jumpi\n        /* \"--CODEGEN--\":31:32   */\n      0x00\n        /* \"--CODEGEN--\":28:29   */\n      dup1\n        /* \"--CODEGEN--\":21:33   */\n      revert\n        /* \"--CODEGEN--\":4:6   */\n    tag_16:\n        /* \"contracts/handlers/HandlerHelpers.sol\":190:259  mapping (bytes32 => address) public _resourceIDToTokenContractAddress */\n      dup2\n      add\n      swap1\n      dup1\n      dup1\n      calldataload\n      swap1\n      0x20\n      add\n      swap1\n      swap3\n      swap2\n      swap1\n      pop\n      pop\n      pop\n      tag_17\n      jump\t// in\n    tag_15:\n      mload(0x40)\n      dup1\n      dup3\n      0xffffffffffffffffffffffffffffffffffffffff\n      and\n      0xffffffffffffffffffffffffffffffffffffffff\n      and\n      dup2\n      mstore\n      0x20\n      add\n      swap2\n      pop\n      pop\n      mload(0x40)\n      dup1\n      swap2\n      sub\n      swap1\n      return\n        /* \"contracts/handlers/HandlerHelpers.sol\":110:139  address public _bridgeAddress */\n    tag_5:\n      tag_18\n      tag_19\n      jump\t// in\n    tag_18:\n      mload(0x40)\n      dup1\n      dup3\n      0xffffffffffffffffffffffffffffffffffffffff\n      and\n      0xffffffffffffffffffffffffffffffffffffffff\n      and\n      dup2\n      mstore\n      0x20\n      add\n      swap2\n      pop\n      pop\n      mload(0x40)\n      dup1\n      swap2\n      sub\n      swap1\n      return\n        /* \"contracts/handlers/HandlerHelpers.sol\":537:579  mapping (address => bool) public _burnList */\n    tag_6:\n      tag_20\n      0x04\n      dup1\n      calldatasize\n      sub\n        /* \"--CODEGEN--\":15:17   */\n      0x20\n        /* \"--CODEGEN--\":10:13   */\n      dup2\n        /* \"--CODEGEN--\":7:18   */\n      lt\n        /* \"--CODEGEN--\":4:6   */\n      iszero\n      tag_21\n      jumpi\n        /* \"--CODEGEN--\":31:32   */\n      0x00\n        /* \"--CODEGEN--\":28:29   */\n      dup1\n        /* \"--CODEGEN--\":21:33   */\n      revert\n        /* \"--CODEGEN--\":4:6   */\n    tag_21:\n        /* \"contracts/handlers/HandlerHelpers.sol\":537:579  mapping (address => bool) public _burnList */\n      dup2\n      add\n      swap1\n      dup1\n      dup1\n      calldataload\n      0xffffffffffffffffffffffffffffffffffffffff\n      and\n      swap1\n      0x20\n      add\n      swap1\n      swap3\n      swap2\n      swap1\n      pop\n      pop\n      pop\n      tag_22\n      jump\t// in\n    tag_20:\n      mload(0x40)\n      dup1\n      dup3\n      iszero\n      iszero\n      iszero\n      iszero\n      dup2\n      mstore\n      0x20\n      add\n      swap2\n      pop\n      pop\n      mload(0x40)\n      dup1\n      swap2\n      sub\n      swap1\n      return\n        /* \"contracts/handlers/HandlerHelpers.sol\":434:485  mapping (address => bool) public _contractWhitelist */\n    tag_7:\n      tag_23\n      0x04\n      dup1\n      calldatasize\n      sub\n        /* \"--CODEGEN--\":15:17   */\n      0x20\n        /* \"--CODEGEN--\":10:13   */\n      dup2\n        /* \"--CODEGEN--\":7:18   */\n      lt\n        /* \"--CODEGEN--\":4:6   */\n      iszero\n      tag_24\n      jumpi\n        /* \"--CODEGEN--\":31:32   */\n      0x00\n        /* \"--CODEGEN--\":28:29   */\n      dup1\n        /* \"--CODEGEN--\":21:33   */\n      revert\n        /* \"--CODEGEN--\":4:6   */\n    tag_24:\n        /* \"contracts/handlers/HandlerHelpers.sol\":434:485  mapping (address => bool) public _contractWhitelist */\n      dup2\n      add\n      swap1\n      dup1\n      dup1\n      calldataload\n      0xffffffffffffffffffffffffffffffffffffffff\n      and\n      swap1\n      0x20\n      add\n      swap1\n      swap3\n      swap2\n      swap1\n      pop\n      pop\n      pop\n      tag_25\n      jump\t// in\n    tag_23:\n      mload(0x40)\n      dup1\n      dup3\n      iszero\n      iszero\n      iszero\n      iszero\n      dup2\n      mstore\n      0x20\n      add\n      swap2\n      pop\n      pop\n      mload(0x40)\n      dup1\n      swap2\n      sub\n      swap1\n      return\n        /* \"contracts/handlers/HandlerHelpers.sol\":1336:1490  function setResource(bytes32 resourceID, address contractAddress) external override onlyBridge {... */\n    tag_8:\n      tag_26\n      0x04\n      dup1\n      calldatasize\n      sub\n        /* \"--CODEGEN--\":15:17   */\n      0x40\n        /* \"--CODEGEN--\":10:13   */\n      dup2\n        /* \"--CODEGEN--\":7:18   */\n      lt\n        /* \"--CODEGEN--\":4:6   */\n      iszero\n      tag_27\n      jumpi\n        /* \"--CODEGEN--\":31:32   */\n      0x00\n        /* \"--CODEGEN--\":28:29   */\n      dup1\n        /* \"--CODEGEN--\":21:33   */\n      revert\n        /* \"--CODEGEN--\":4:6   */\n    tag_27:\n        /* \"contracts/handlers/HandlerHelpers.sol\":1336:1490  function setResource(bytes32 resourceID, address contractAddress) external override onlyBridge {... */\n      dup2\n      add\n      swap1\n      dup1\n      dup1\n      calldataload\n      swap1\n      0x20\n      add\n      swap1\n      swap3\n      swap2\n      swap1\n      dup1\n      calldataload\n      0xffffffffffffffffffffffffffffffffffffffff\n      and\n      swap1\n      0x20\n      add\n      swap1\n      swap3\n      swap2\n      swap1\n      pop\n      pop\n      pop\n      tag_28\n      jump\t// in\n    tag_26:\n      stop\n        /* \"contracts/handlers/HandlerHelpers.sol\":310:379  mapping (address => bytes32) public _tokenContractAddressToResourceID */\n    tag_9:\n      tag_29\n      0x04\n      dup1\n      calldatasize\n      sub\n        /* \"--CODEGEN--\":15:17   */\n      0x20\n        /* \"--CODEGEN--\":10:13   */\n      dup2\n        /* \"--CODEGEN--\":7:18   */\n      lt\n        /* \"--CODEGEN--\":4:6   */\n      iszero\n      tag_30\n      jumpi\n        /* \"--CODEGEN--\":31:32   */\n      0x00\n        /* \"--CODEGEN--\":28:29   */\n      dup1\n        /* \"--CODEGEN--\":21:33   */\n      revert\n        /* \"--CODEGEN--\":4:6   */\n    tag_30:\n        /* \"contracts/handlers/HandlerHelpers.sol\":310:379  mapping (address => bytes32) public _tokenContractAddressToResourceID */\n      dup2\n      add\n      swap1\n      dup1\n      dup1\n      calldataload\n      0xffffffffffffffffffffffffffffffffffffffff\n      and\n      swap1\n      0x20\n      add\n      swap1\n      swap3\n      swap2\n      swap1\n      pop\n      pop\n      pop\n      tag_31\n      jump\t// in\n    tag_29:\n      mload(0x40)\n      dup1\n      dup3\n      dup2\n      mstore\n      0x20\n      add\n      swap2\n      pop\n      pop\n      mload(0x40)\n      dup1\n      swap2\n      sub\n      swap1\n      return\n        /* \"contracts/handlers/HandlerHelpers.sol\":2158:2270  function withdraw(address tokenAddress, address recipient, uint256 amountOrTokenID) external virtual override {} */\n    tag_10:\n      tag_32\n      0x04\n      dup1\n      calldatasize\n      sub\n        /* \"--CODEGEN--\":15:17   */\n      0x60\n        /* \"--CODEGEN--\":10:13   */\n      dup2\n        /* \"--CODEGEN--\":7:18   */\n      lt\n        /* \"--CODEGEN--\":4:6   */\n      iszero\n      tag_33\n      jumpi\n        /* \"--CODEGEN--\":31:32   */\n      0x00\n        /* \"--CODEGEN--\":28:29   */\n      dup1\n        /* \"--CODEGEN--\":21:33   */\n      revert\n        /* \"--CODEGEN--\":4:6   */\n    tag_33:\n        /* \"contracts/handlers/HandlerHelpers.sol\":2158:2270  function withdraw(address tokenAddress, address recipient, uint256 amountOrTokenID) external virtual override {} */\n      dup2\n      add\n      swap1\n      dup1\n      dup1\n      calldataload\n      0xffffffffffffffffffffffffffffffffffffffff\n      and\n      swap1\n      0x20\n      add\n      swap1\n      swap3\n      swap2\n      swap1\n      dup1\n      calldataload\n      0xffffffffffffffffffffffffffffffffffffffff\n      and\n      swap1\n      0x20\n      add\n      swap1\n      swap3\n      swap2\n      swap1\n      dup1\n      calldataload\n      swap1\n      0x20\n      add\n      swap1\n      swap3\n      swap2\n      swap1\n      pop\n      pop\n      pop\n      tag_34\n      jump\t// in\n    tag_32:\n      stop\n        /* \"contracts/handlers/HandlerHelpers.sol\":1732:1852  function setBurnable(address contractAddress) external override onlyBridge{... */\n    tag_14:\n        /* \"contracts/handlers/HandlerHelpers.sol\":618:631  _onlyBridge() */\n      tag_36\n        /* \"contracts/handlers/HandlerHelpers.sol\":618:629  _onlyBridge */\n      tag_37\n        /* \"contracts/handlers/HandlerHelpers.sol\":618:631  _onlyBridge() */\n      jump\t// in\n    tag_36:\n        /* \"contracts/handlers/HandlerHelpers.sol\":1816:1845  _setBurnable(contractAddress) */\n      tag_39\n        /* \"contracts/handlers/HandlerHelpers.sol\":1829:1844  contractAddress */\n      dup2\n        /* \"contracts/handlers/HandlerHelpers.sol\":1816:1828  _setBurnable */\n      tag_40\n        /* \"contracts/handlers/HandlerHelpers.sol\":1816:1845  _setBurnable(contractAddress) */\n      jump\t// in\n    tag_39:\n        /* \"contracts/handlers/HandlerHelpers.sol\":1732:1852  function setBurnable(address contractAddress) external override onlyBridge{... */\n      pop\n      jump\t// out\n        /* \"contracts/handlers/HandlerHelpers.sol\":190:259  mapping (bytes32 => address) public _resourceIDToTokenContractAddress */\n    tag_17:\n      mstore(0x20, 0x01)\n      dup1\n      0x00\n      mstore\n      keccak256(0x00, 0x40)\n      0x00\n      swap2\n      pop\n      sload\n      swap1\n      0x0100\n      exp\n      swap1\n      div\n      0xffffffffffffffffffffffffffffffffffffffff\n      and\n      dup2\n      jump\t// out\n        /* \"contracts/handlers/HandlerHelpers.sol\":110:139  address public _bridgeAddress */\n    tag_19:\n      0x00\n      dup1\n      swap1\n      sload\n      swap1\n      0x0100\n      exp\n      swap1\n      div\n      0xffffffffffffffffffffffffffffffffffffffff\n      and\n      dup2\n      jump\t// out\n        /* \"contracts/handlers/HandlerHelpers.sol\":537:579  mapping (address => bool) public _burnList */\n    tag_22:\n      mstore(0x20, 0x04)\n      dup1\n      0x00\n      mstore\n      keccak256(0x00, 0x40)\n      0x00\n      swap2\n      pop\n      sload\n      swap1\n      0x0100\n      exp\n      swap1\n      div\n      0xff\n      and\n      dup2\n      jump\t// out\n        /* \"contracts/handlers/HandlerHelpers.sol\":434:485  mapping (address => bool) public _contractWhitelist */\n    tag_25:\n      mstore(0x20, 0x03)\n      dup1\n      0x00\n      mstore\n      keccak256(0x00, 0x40)\n      0x00\n      swap2\n      pop\n      sload\n      swap1\n      0x0100\n      exp\n      swap1\n      div\n      0xff\n      and\n      dup2\n      jump\t// out\n        /* \"contracts/handlers/HandlerHelpers.sol\":1336:1490  function setResource(bytes32 resourceID, address contractAddress) external override onlyBridge {... */\n    tag_28:\n        /* \"contracts/handlers/HandlerHelpers.sol\":618:631  _onlyBridge() */\n      tag_42\n        /* \"contracts/handlers/HandlerHelpers.sol\":618:629  _onlyBridge */\n      tag_37\n        /* \"contracts/handlers/HandlerHelpers.sol\":618:631  _onlyBridge() */\n      jump\t// in\n    tag_42:\n        /* \"contracts/handlers/HandlerHelpers.sol\":1442:1483  _setResource(resourceID, contractAddress) */\n      tag_44\n        /* \"contracts/handlers/HandlerHelpers.sol\":1455:1465  resourceID */\n      dup3\n        /* \"contracts/handlers/HandlerHelpers.sol\":1467:1482  contractAddress */\n      dup3\n        /* \"contracts/handlers/HandlerHelpers.sol\":1442:1454  _setResource */\n      tag_45\n        /* \"contracts/handlers/HandlerHelpers.sol\":1442:1483  _setResource(resourceID, contractAddress) */\n      jump\t// in\n    tag_44:\n        /* \"contracts/handlers/HandlerHelpers.sol\":1336:1490  function setResource(bytes32 resourceID, address contractAddress) external override onlyBridge {... */\n      pop\n      pop\n      jump\t// out\n        /* \"contracts/handlers/HandlerHelpers.sol\":310:379  mapping (address => bytes32) public _tokenContractAddressToResourceID */\n    tag_31:\n      mstore(0x20, 0x02)\n      dup1\n      0x00\n      mstore\n      keccak256(0x00, 0x40)\n      0x00\n      swap2\n      pop\n      swap1\n      pop\n      sload\n      dup2\n      jump\t// out\n        /* \"contracts/handlers/HandlerHelpers.sol\":2158:2270  function withdraw(address tokenAddress, address recipient, uint256 amountOrTokenID) external virtual override {} */\n    tag_34:\n      pop\n      pop\n      pop\n      jump\t// out\n        /* \"contracts/handlers/HandlerHelpers.sol\":655:774  function _onlyBridge() private {... */\n    tag_37:\n        /* \"contracts/handlers/HandlerHelpers.sol\":718:732  _bridgeAddress */\n      0x00\n      dup1\n      swap1\n      sload\n      swap1\n      0x0100\n      exp\n      swap1\n      div\n      0xffffffffffffffffffffffffffffffffffffffff\n      and\n        /* \"contracts/handlers/HandlerHelpers.sol\":704:732  msg.sender == _bridgeAddress */\n      0xffffffffffffffffffffffffffffffffffffffff\n      and\n        /* \"contracts/handlers/HandlerHelpers.sol\":704:714  msg.sender */\n      caller\n        /* \"contracts/handlers/HandlerHelpers.sol\":704:732  msg.sender == _bridgeAddress */\n      0xffffffffffffffffffffffffffffffffffffffff\n      and\n      eq\n        /* \"contracts/handlers/HandlerHelpers.sol\":696:767  require(msg.sender == _bridgeAddress, \"sender must be bridge contract\") */\n      tag_48\n      jumpi\n      mload(0x40)\n      0x08c379a000000000000000000000000000000000000000000000000000000000\n      dup2\n      mstore\n      0x04\n      add\n      dup1\n      dup1\n      0x20\n      add\n      dup3\n      dup2\n      sub\n      dup3\n      mstore\n      0x1e\n      dup2\n      mstore\n      0x20\n      add\n      dup1\n      0x73656e646572206d7573742062652062726964676520636f6e74726163740000\n      dup2\n      mstore\n      pop\n      0x20\n      add\n      swap2\n      pop\n      pop\n      mload(0x40)\n      dup1\n      swap2\n      sub\n      swap1\n      revert\n    tag_48:\n        /* \"contracts/handlers/HandlerHelpers.sol\":655:774  function _onlyBridge() private {... */\n      jump\t// out\n        /* \"contracts/handlers/HandlerHelpers.sol\":2564:2764  function _setBurnable(address contractAddress) internal {... */\n    tag_40:\n        /* \"contracts/handlers/HandlerHelpers.sol\":2638:2656  _contractWhitelist */\n      0x03\n        /* \"contracts/handlers/HandlerHelpers.sol\":2638:2673  _contractWhitelist[contractAddress] */\n      0x00\n        /* \"contracts/handlers/HandlerHelpers.sol\":2657:2672  contractAddress */\n      dup3\n        /* \"contracts/handlers/HandlerHelpers.sol\":2638:2673  _contractWhitelist[contractAddress] */\n      0xffffffffffffffffffffffffffffffffffffffff\n      and\n      0xffffffffffffffffffffffffffffffffffffffff\n      and\n      dup2\n      mstore\n      0x20\n      add\n      swap1\n      dup2\n      mstore\n      0x20\n      add\n      0x00\n      keccak256\n      0x00\n      swap1\n      sload\n      swap1\n      0x0100\n      exp\n      swap1\n      div\n      0xff\n      and\n        /* \"contracts/handlers/HandlerHelpers.sol\":2630:2714  require(_contractWhitelist[contractAddress], \"provided contract is not whitelisted\") */\n      tag_50\n      jumpi\n      mload(0x40)\n      0x08c379a000000000000000000000000000000000000000000000000000000000\n      dup2\n      mstore\n      0x04\n      add\n      dup1\n      dup1\n      0x20\n      add\n      dup3\n      dup2\n      sub\n      dup3\n      mstore\n      0x24\n      dup2\n      mstore\n      0x20\n      add\n      dup1\n      data_2daab49254b4a5228983fbc316d7992ab0064c3e34fa43dd7fbf9d5c4fe8b0da\n      0x24\n      swap2\n      codecopy\n      0x40\n      add\n      swap2\n      pop\n      pop\n      mload(0x40)\n      dup1\n      swap2\n      sub\n      swap1\n      revert\n    tag_50:\n        /* \"contracts/handlers/HandlerHelpers.sol\":2753:2757  true */\n      0x01\n        /* \"contracts/handlers/HandlerHelpers.sol\":2724:2733  _burnList */\n      0x04\n        /* \"contracts/handlers/HandlerHelpers.sol\":2724:2750  _burnList[contractAddress] */\n      0x00\n        /* \"contracts/handlers/HandlerHelpers.sol\":2734:2749  contractAddress */\n      dup4\n        /* \"contracts/handlers/HandlerHelpers.sol\":2724:2750  _burnList[contractAddress] */\n      0xffffffffffffffffffffffffffffffffffffffff\n      and\n      0xffffffffffffffffffffffffffffffffffffffff\n      and\n      dup2\n      mstore\n      0x20\n      add\n      swap1\n      dup2\n      mstore\n      0x20\n      add\n      0x00\n      keccak256\n      0x00\n        /* \"contracts/handlers/HandlerHelpers.sol\":2724:2757  _burnList[contractAddress] = true */\n      0x0100\n      exp\n      dup2\n      sload\n      dup2\n      0xff\n      mul\n      not\n      and\n      swap1\n      dup4\n      iszero\n      iszero\n      mul\n      or\n      swap1\n      sstore\n      pop\n        /* \"contracts/handlers/HandlerHelpers.sol\":2564:2764  function _setBurnable(address contractAddress) internal {... */\n      pop\n      jump\t// out\n        /* \"contracts/handlers/HandlerHelpers.sol\":2276:2558  function _setResource(bytes32 resourceID, address contractAddress) internal {... */\n    tag_45:\n        /* \"contracts/handlers/HandlerHelpers.sol\":2410:2425  contractAddress */\n      dup1\n        /* \"contracts/handlers/HandlerHelpers.sol\":2362:2395  _resourceIDToTokenContractAddress */\n      0x01\n        /* \"contracts/handlers/HandlerHelpers.sol\":2362:2407  _resourceIDToTokenContractAddress[resourceID] */\n      0x00\n        /* \"contracts/handlers/HandlerHelpers.sol\":2396:2406  resourceID */\n      dup5\n        /* \"contracts/handlers/HandlerHelpers.sol\":2362:2407  _resourceIDToTokenContractAddress[resourceID] */\n      dup2\n      mstore\n      0x20\n      add\n      swap1\n      dup2\n      mstore\n      0x20\n      add\n      0x00\n      keccak256\n      0x00\n        /* \"contracts/handlers/HandlerHelpers.sol\":2362:2425  _resourceIDToTokenContractAddress[resourceID] = contractAddress */\n      0x0100\n      exp\n      dup2\n      sload\n      dup2\n      0xffffffffffffffffffffffffffffffffffffffff\n      mul\n      not\n      and\n      swap1\n      dup4\n      0xffffffffffffffffffffffffffffffffffffffff\n      and\n      mul\n      or\n      swap1\n      sstore\n      pop\n        /* \"contracts/handlers/HandlerHelpers.sol\":2488:2498  resourceID */\n      dup2\n        /* \"contracts/handlers/HandlerHelpers.sol\":2435:2468  _tokenContractAddressToResourceID */\n      0x02\n        /* \"contracts/handlers/HandlerHelpers.sol\":2435:2485  _tokenContractAddressToResourceID[contractAddress] */\n      0x00\n        /* \"contracts/handlers/HandlerHelpers.sol\":2469:2484  contractAddress */\n      dup4\n        /* \"contracts/handlers/HandlerHelpers.sol\":2435:2485  _tokenContractAddressToResourceID[contractAddress] */\n      0xffffffffffffffffffffffffffffffffffffffff\n      and\n      0xffffffffffffffffffffffffffffffffffffffff\n      and\n      dup2\n      mstore\n      0x20\n      add\n      swap1\n      dup2\n      mstore\n      0x20\n      add\n      0x00\n      keccak256\n        /* \"contracts/handlers/HandlerHelpers.sol\":2435:2498  _tokenContractAddressToResourceID[contractAddress] = resourceID */\n      dup2\n      swap1\n      sstore\n      pop\n        /* \"contracts/handlers/HandlerHelpers.sol\":2547:2551  true */\n      0x01\n        /* \"contracts/handlers/HandlerHelpers.sol\":2509:2527  _contractWhitelist */\n      0x03\n        /* \"contracts/handlers/HandlerHelpers.sol\":2509:2544  _contractWhitelist[contractAddress] */\n      0x00\n        /* \"contracts/handlers/HandlerHelpers.sol\":2528:2543  contractAddress */\n      dup4\n        /* \"contracts/handlers/HandlerHelpers.sol\":2509:2544  _contractWhitelist[contractAddress] */\n      0xffffffffffffffffffffffffffffffffffffffff\n      and\n      0xffffffffffffffffffffffffffffffffffffffff\n      and\n      dup2\n      mstore\n      0x20\n      add\n      swap1\n      dup2\n      mstore\n      0x20\n      add\n      0x00\n      keccak256\n      0x00\n        /* \"contracts/handlers/HandlerHelpers.sol\":2509:2551  _contractWhitelist[contractAddress] = true */\n      0x0100\n      exp\n      dup2\n      sload\n      dup2\n      0xff\n      mul\n      not\n      and\n      swap1\n      dup4\n      iszero\n      iszero\n      mul\n      or\n      swap1\n      sstore\n      pop\n        /* \"contracts/handlers/HandlerHelpers.sol\":2276:2558  function _setResource(bytes32 resourceID, address contractAddress) internal {... */\n      pop\n      pop\n      jump\t// out\n    stop\n    data_2daab49254b4a5228983fbc316d7992ab0064c3e34fa43dd7fbf9d5c4fe8b0da 70726f766964656420636f6e7472616374206973206e6f742077686974656c6973746564\n\n    auxdata: 0xa2646970667358221220c10456404bba2ecc63e8e6f846529498677e27aff156b5d41560e4dea198332564736f6c63430006040033\n}\n",
				"bytecode": {
					"linkReferences": {},
					"object": "608060405234801561001057600080fd5b50610741806100206000396000f3fe608060405234801561001057600080fd5b50600436106100885760003560e01c80637f79bea81161005b5780637f79bea8146101e5578063b8fa373614610241578063c8ba6c871461028f578063d9caed12146102e757610088565b806307b7ed991461008d5780630a6d55d8146100d1578063318c136e1461013f5780636a70d08114610189575b600080fd5b6100cf600480360360208110156100a357600080fd5b81019080803573ffffffffffffffffffffffffffffffffffffffff169060200190929190505050610355565b005b6100fd600480360360208110156100e757600080fd5b8101908080359060200190929190505050610369565b604051808273ffffffffffffffffffffffffffffffffffffffff1673ffffffffffffffffffffffffffffffffffffffff16815260200191505060405180910390f35b61014761039c565b604051808273ffffffffffffffffffffffffffffffffffffffff1673ffffffffffffffffffffffffffffffffffffffff16815260200191505060405180910390f35b6101cb6004803603602081101561019f57600080fd5b81019080803573ffffffffffffffffffffffffffffffffffffffff1690602001909291905050506103c1565b604051808215151515815260200191505060405180910390f35b610227600480360360208110156101fb57600080fd5b81019080803573ffffffffffffffffffffffffffffffffffffffff1690602001909291905050506103e1565b604051808215151515815260200191505060405180910390f35b61028d6004803603604081101561025757600080fd5b8101908080359060200190929190803573ffffffffffffffffffffffffffffffffffffffff169060200190929190505050610401565b005b6102d1600480360360208110156102a557600080fd5b81019080803573ffffffffffffffffffffffffffffffffffffffff169060200190929190505050610417565b6040518082815260200191505060405180910390f35b610353600480360360608110156102fd57600080fd5b81019080803573ffffffffffffffffffffffffffffffffffffffff169060200190929190803573ffffffffffffffffffffffffffffffffffffffff1690602001909291908035906020019092919050505061042f565b005b61035d610434565b610366816104f8565b50565b60016020528060005260406000206000915054906101000a900473ffffffffffffffffffffffffffffffffffffffff1681565b6000809054906101000a900473ffffffffffffffffffffffffffffffffffffffff1681565b60046020528060005260406000206000915054906101000a900460ff1681565b60036020528060005260406000206000915054906101000a900460ff1681565b610409610434565b61041382826105f5565b5050565b60026020528060005260406000206000915090505481565b505050565b6000809054906101000a900473ffffffffffffffffffffffffffffffffffffffff1673ffffffffffffffffffffffffffffffffffffffff163373ffffffffffffffffffffffffffffffffffffffff16146104f6576040517f08c379a000000000000000000000000000000000000000000000000000000000815260040180806020018281038252601e8152602001807f73656e646572206d7573742062652062726964676520636f6e7472616374000081525060200191505060405180910390fd5b565b600360008273ffffffffffffffffffffffffffffffffffffffff1673ffffffffffffffffffffffffffffffffffffffff16815260200190815260200160002060009054906101000a900460ff1661059a576040517f08c379a00000000000000000000000000000000000000000000000000000000081526004018080602001828103825260248152602001806106e86024913960400191505060405180910390fd5b6001600460008373ffffffffffffffffffffffffffffffffffffffff1673ffffffffffffffffffffffffffffffffffffffff16815260200190815260200160002060006101000a81548160ff02191690831515021790555050565b806001600084815260200190815260200160002060006101000a81548173ffffffffffffffffffffffffffffffffffffffff021916908373ffffffffffffffffffffffffffffffffffffffff16021790555081600260008373ffffffffffffffffffffffffffffffffffffffff1673ffffffffffffffffffffffffffffffffffffffff168152602001908152602001600020819055506001600360008373ffffffffffffffffffffffffffffffffffffffff1673ffffffffffffffffffffffffffffffffffffffff16815260200190815260200160002060006101000a81548160ff021916908315150217905550505056fe70726f766964656420636f6e7472616374206973206e6f742077686974656c6973746564a2646970667358221220c10456404bba2ecc63e8e6f846529498677e27aff156b5d41560e4dea198332564736f6c63430006040033",
					"opcodes": "PUSH1 0x80 PUSH1 0x40 MSTORE CALLVALUE DUP1 ISZERO PUSH2 0x10 JUMPI PUSH1 0x0 DUP1 REVERT JUMPDEST POP PUSH2 0x741 DUP1 PUSH2 0x20 PUSH1 0x0 CODECOPY PUSH1 0x0 RETURN INVALID PUSH1 0x80 PUSH1 0x40 MSTORE CALLVALUE DUP1 ISZERO PUSH2 0x10 JUMPI PUSH1 0x0 DUP1 REVERT JUMPDEST POP PUSH1 0x4 CALLDATASIZE LT PUSH2 0x88 JUMPI PUSH1 0x0 CALLDATALOAD PUSH1 0xE0 SHR DUP1 PUSH4 0x7F79BEA8 GT PUSH2 0x5B JUMPI DUP1 PUSH4 0x7F79BEA8 EQ PUSH2 0x1E5 JUMPI DUP1 PUSH4 0xB8FA3736 EQ PUSH2 0x241 JUMPI DUP1 PUSH4 0xC8BA6C87 EQ PUSH2 0x28F JUMPI DUP1 PUSH4 0xD9CAED12 EQ PUSH2 0x2E7 JUMPI PUSH2 0x88 JUMP JUMPDEST DUP1 PUSH4 0x7B7ED99 EQ PUSH2 0x8D JUMPI DUP1 PUSH4 0xA6D55D8 EQ PUSH2 0xD1 JUMPI DUP1 PUSH4 0x318C136E EQ PUSH2 0x13F JUMPI DUP1 PUSH4 0x6A70D081 EQ PUSH2 0x189 JUMPI JUMPDEST PUSH1 0x0 DUP1 REVERT JUMPDEST PUSH2 0xCF PUSH1 0x4 DUP1 CALLDATASIZE SUB PUSH1 0x20 DUP2 LT ISZERO PUSH2 0xA3 JUMPI PUSH1 0x0 DUP1 REVERT JUMPDEST DUP2 ADD SWAP1 DUP1 DUP1 CALLDATALOAD PUSH20 0xFFFFFFFFFFFFFFFFFFFFFFFFFFFFFFFFFFFFFFFF AND SWAP1 PUSH1 0x20 ADD SWAP1 SWAP3 SWAP2 SWAP1 POP POP POP PUSH2 0x355 JUMP JUMPDEST STOP JUMPDEST PUSH2 0xFD PUSH1 0x4 DUP1 CALLDATASIZE SUB PUSH1 0x20 DUP2 LT ISZERO PUSH2 0xE7 JUMPI PUSH1 0x0 DUP1 REVERT JUMPDEST DUP2 ADD SWAP1 DUP1 DUP1 CALLDATALOAD SWAP1 PUSH1 0x20 ADD SWAP1 SWAP3 SWAP2 SWAP1 POP POP POP PUSH2 0x369 JUMP JUMPDEST PUSH1 0x40 MLOAD DUP1 DUP3 PUSH20 0xFFFFFFFFFFFFFFFFFFFFFFFFFFFFFFFFFFFFFFFF AND PUSH20 0xFFFFFFFFFFFFFFFFFFFFFFFFFFFFFFFFFFFFFFFF AND DUP2 MSTORE PUSH1 0x20 ADD SWAP2 POP POP PUSH1 0x40 MLOAD DUP1 SWAP2 SUB SWAP1 RETURN JUMPDEST PUSH2 0x147 PUSH2 0x39C JUMP JUMPDEST PUSH1 0x40 MLOAD DUP1 DUP3 PUSH20 0xFFFFFFFFFFFFFFFFFFFFFFFFFFFFFFFFFFFFFFFF AND PUSH20 0xFFFFFFFFFFFFFFFFFFFFFFFFFFFFFFFFFFFFFFFF AND DUP2 MSTORE PUSH1 0x20 ADD SWAP2 POP POP PUSH1 0x40 MLOAD DUP1 SWAP2 SUB SWAP1 RETURN JUMPDEST PUSH2 0x1CB PUSH1 0x4 DUP1 CALLDATASIZE SUB PUSH1 0x20 DUP2 LT ISZERO PUSH2 0x19F JUMPI PUSH1 0x0 DUP1 REVERT JUMPDEST DUP2 ADD SWAP1 DUP1 DUP1 CALLDATALOAD PUSH20 0xFFFFFFFFFFFFFFFFFFFFFFFFFFFFFFFFFFFFFFFF AND SWAP1 PUSH1 0x20 ADD SWAP1 SWAP3 SWAP2 SWAP1 POP POP POP PUSH2 0x3C1 JUMP JUMPDEST PUSH1 0x40 MLOAD DUP1 DUP3 ISZERO ISZERO ISZERO ISZERO DUP2 MSTORE PUSH1 0x20 ADD SWAP2 POP POP PUSH1 0x40 MLOAD DUP1 SWAP2 SUB SWAP1 RETURN JUMPDEST PUSH2 0x227 PUSH1 0x4 DUP1 CALLDATASIZE SUB PUSH1 0x20 DUP2 LT ISZERO PUSH2 0x1FB JUMPI PUSH1 0x0 DUP1 REVERT JUMPDEST DUP2 ADD SWAP1 DUP1 DUP1 CALLDATALOAD PUSH20 0xFFFFFFFFFFFFFFFFFFFFFFFFFFFFFFFFFFFFFFFF AND SWAP1 PUSH1 0x20 ADD SWAP1 SWAP3 SWAP2 SWAP1 POP POP POP PUSH2 0x3E1 JUMP JUMPDEST PUSH1 0x40 MLOAD DUP1 DUP3 ISZERO ISZERO ISZERO ISZERO DUP2 MSTORE PUSH1 0x20 ADD SWAP2 POP POP PUSH1 0x40 MLOAD DUP1 SWAP2 SUB SWAP1 RETURN JUMPDEST PUSH2 0x28D PUSH1 0x4 DUP1 CALLDATASIZE SUB PUSH1 0x40 DUP2 LT ISZERO PUSH2 0x257 JUMPI PUSH1 0x0 DUP1 REVERT JUMPDEST DUP2 ADD SWAP1 DUP1 DUP1 CALLDATALOAD SWAP1 PUSH1 0x20 ADD SWAP1 SWAP3 SWAP2 SWAP1 DUP1 CALLDATALOAD PUSH20 0xFFFFFFFFFFFFFFFFFFFFFFFFFFFFFFFFFFFFFFFF AND SWAP1 PUSH1 0x20 ADD SWAP1 SWAP3 SWAP2 SWAP1 POP POP POP PUSH2 0x401 JUMP JUMPDEST STOP JUMPDEST PUSH2 0x2D1 PUSH1 0x4 DUP1 CALLDATASIZE SUB PUSH1 0x20 DUP2 LT ISZERO PUSH2 0x2A5 JUMPI PUSH1 0x0 DUP1 REVERT JUMPDEST DUP2 ADD SWAP1 DUP1 DUP1 CALLDATALOAD PUSH20 0xFFFFFFFFFFFFFFFFFFFFFFFFFFFFFFFFFFFFFFFF AND SWAP1 PUSH1 0x20 ADD SWAP1 SWAP3 SWAP2 SWAP1 POP POP POP PUSH2 0x417 JUMP JUMPDEST PUSH1 0x40 MLOAD DUP1 DUP3 DUP2 MSTORE PUSH1 0x20 ADD SWAP2 POP POP PUSH1 0x40 MLOAD DUP1 SWAP2 SUB SWAP1 RETURN JUMPDEST PUSH2 0x353 PUSH1 0x4 DUP1 CALLDATASIZE SUB PUSH1 0x60 DUP2 LT ISZERO PUSH2 0x2FD JUMPI PUSH1 0x0 DUP1 REVERT JUMPDEST DUP2 ADD SWAP1 DUP1 DUP1 CALLDATALOAD PUSH20 0xFFFFFFFFFFFFFFFFFFFFFFFFFFFFFFFFFFFFFFFF AND SWAP1 PUSH1 0x20 ADD SWAP1 SWAP3 SWAP2 SWAP1 DUP1 CALLDATALOAD PUSH20 0xFFFFFFFFFFFFFFFFFFFFFFFFFFFFFFFFFFFFFFFF AND SWAP1 PUSH1 0x20 ADD SWAP1 SWAP3 SWAP2 SWAP1 DUP1 CALLDATALOAD SWAP1 PUSH1 0x20 ADD SWAP1 SWAP3 SWAP2 SWAP1 POP POP POP PUSH2 0x42F JUMP JUMPDEST STOP JUMPDEST PUSH2 0x35D PUSH2 0x434 JUMP JUMPDEST PUSH2 0x366 DUP2 PUSH2 0x4F8 JUMP JUMPDEST POP JUMP JUMPDEST PUSH1 0x1 PUSH1 0x20 MSTORE DUP1 PUSH1 0x0 MSTORE PUSH1 0x40 PUSH1 0x0 KECCAK256 PUSH1 0x0 SWAP2 POP SLOAD SWAP1 PUSH2 0x100 EXP SWAP1 DIV PUSH20 0xFFFFFFFFFFFFFFFFFFFFFFFFFFFFFFFFFFFFFFFF AND DUP2 JUMP JUMPDEST PUSH1 0x0 DUP1 SWAP1 SLOAD SWAP1 PUSH2 0x100 EXP SWAP1 DIV PUSH20 0xFFFFFFFFFFFFFFFFFFFFFFFFFFFFFFFFFFFFFFFF AND DUP2 JUMP JUMPDEST PUSH1 0x4 PUSH1 0x20 MSTORE DUP1 PUSH1 0x0 MSTORE PUSH1 0x40 PUSH1 0x0 KECCAK256 PUSH1 0x0 SWAP2 POP SLOAD SWAP1 PUSH2 0x100 EXP SWAP1 DIV PUSH1 0xFF AND DUP2 JUMP JUMPDEST PUSH1 0x3 PUSH1 0x20 MSTORE DUP1 PUSH1 0x0 MSTORE PUSH1 0x40 PUSH1 0x0 KECCAK256 PUSH1 0x0 SWAP2 POP SLOAD SWAP1 PUSH2 0x100 EXP SWAP1 DIV PUSH1 0xFF AND DUP2 JUMP JUMPDEST PUSH2 0x409 PUSH2 0x434 JUMP JUMPDEST PUSH2 0x413 DUP3 DUP3 PUSH2 0x5F5 JUMP JUMPDEST POP POP JUMP JUMPDEST PUSH1 0x2 PUSH1 0x20 MSTORE DUP1 PUSH1 0x0 MSTORE PUSH1 0x40 PUSH1 0x0 KECCAK256 PUSH1 0x0 SWAP2 POP SWAP1 POP SLOAD DUP2 JUMP JUMPDEST POP POP POP JUMP JUMPDEST PUSH1 0x0 DUP1 SWAP1 SLOAD SWAP1 PUSH2 0x100 EXP SWAP1 DIV PUSH20 0xFFFFFFFFFFFFFFFFFFFFFFFFFFFFFFFFFFFFFFFF AND PUSH20 0xFFFFFFFFFFFFFFFFFFFFFFFFFFFFFFFFFFFFFFFF AND CALLER PUSH20 0xFFFFFFFFFFFFFFFFFFFFFFFFFFFFFFFFFFFFFFFF AND EQ PUSH2 0x4F6 JUMPI PUSH1 0x40 MLOAD PUSH32 0x8C379A000000000000000000000000000000000000000000000000000000000 DUP2 MSTORE PUSH1 0x4 ADD DUP1 DUP1 PUSH1 0x20 ADD DUP3 DUP2 SUB DUP3 MSTORE PUSH1 0x1E DUP2 MSTORE PUSH1 0x20 ADD DUP1 PUSH32 0x73656E646572206D7573742062652062726964676520636F6E74726163740000 DUP2 MSTORE POP PUSH1 0x20 ADD SWAP2 POP POP PUSH1 0x40 MLOAD DUP1 SWAP2 SUB SWAP1 REVERT JUMPDEST JUMP JUMPDEST PUSH1 0x3 PUSH1 0x0 DUP3 PUSH20 0xFFFFFFFFFFFFFFFFFFFFFFFFFFFFFFFFFFFFFFFF AND PUSH20 0xFFFFFFFFFFFFFFFFFFFFFFFFFFFFFFFFFFFFFFFF AND DUP2 MSTORE PUSH1 0x20 ADD SWAP1 DUP2 MSTORE PUSH1 0x20 ADD PUSH1 0x0 KECCAK256 PUSH1 0x0 SWAP1 SLOAD SWAP1 PUSH2 0x100 EXP SWAP1 DIV PUSH1 0xFF AND PUSH2 0x59A JUMPI PUSH1 0x40 MLOAD PUSH32 0x8C379A000000000000000000000000000000000000000000000000000000000 DUP2 MSTORE PUSH1 0x4 ADD DUP1 DUP1 PUSH1 0x20 ADD DUP3 DUP2 SUB DUP3 MSTORE PUSH1 0x24 DUP2 MSTORE PUSH1 0x20 ADD DUP1 PUSH2 0x6E8 PUSH1 0x24 SWAP2 CODECOPY PUSH1 0x40 ADD SWAP2 POP POP PUSH1 0x40 MLOAD DUP1 SWAP2 SUB SWAP1 REVERT JUMPDEST PUSH1 0x1 PUSH1 0x4 PUSH1 0x0 DUP4 PUSH20 0xFFFFFFFFFFFFFFFFFFFFFFFFFFFFFFFFFFFFFFFF AND PUSH20 0xFFFFFFFFFFFFFFFFFFFFFFFFFFFFFFFFFFFFFFFF AND DUP2 MSTORE PUSH1 0x20 ADD SWAP1 DUP2 MSTORE PUSH1 0x20 ADD PUSH1 0x0 KECCAK256 PUSH1 0x0 PUSH2 0x100 EXP DUP2 SLOAD DUP2 PUSH1 0xFF MUL NOT AND SWAP1 DUP4 ISZERO ISZERO MUL OR SWAP1 SSTORE POP POP JUMP JUMPDEST DUP1 PUSH1 0x1 PUSH1 0x0 DUP5 DUP2 MSTORE PUSH1 0x20 ADD SWAP1 DUP2 MSTORE PUSH1 0x20 ADD PUSH1 0x0 KECCAK256 PUSH1 0x0 PUSH2 0x100 EXP DUP2 SLOAD DUP2 PUSH20 0xFFFFFFFFFFFFFFFFFFFFFFFFFFFFFFFFFFFFFFFF MUL NOT AND SWAP1 DUP4 PUSH20 0xFFFFFFFFFFFFFFFFFFFFFFFFFFFFFFFFFFFFFFFF AND MUL OR SWAP1 SSTORE POP DUP2 PUSH1 0x2 PUSH1 0x0 DUP4 PUSH20 0xFFFFFFFFFFFFFFFFFFFFFFFFFFFFFFFFFFFFFFFF AND PUSH20 0xFFFFFFFFFFFFFFFFFFFFFFFFFFFFFFFFFFFFFFFF AND DUP2 MSTORE PUSH1 0x20 ADD SWAP1 DUP2 MSTORE PUSH1 0x20 ADD PUSH1 0x0 KECCAK256 DUP2 SWAP1 SSTORE POP PUSH1 0x1 PUSH1 0x3 PUSH1 0x0 DUP4 PUSH20 0xFFFFFFFFFFFFFFFFFFFFFFFFFFFFFFFFFFFFFFFF AND PUSH20 0xFFFFFFFFFFFFFFFFFFFFFFFFFFFFFFFFFFFFFFFF AND DUP2 MSTORE PUSH1 0x20 ADD SWAP1 DUP2 MSTORE PUSH1 0x20 ADD PUSH1 0x0 KECCAK256 PUSH1 0x0 PUSH2 0x100 EXP DUP2 SLOAD DUP2 PUSH1 0xFF MUL NOT AND SWAP1 DUP4 ISZERO ISZERO MUL OR SWAP1 SSTORE POP POP POP JUMP INVALID PUSH17 0x726F766964656420636F6E747261637420 PUSH10 0x73206E6F742077686974 PUSH6 0x6C6973746564 LOG2 PUSH5 0x6970667358 0x22 SLT KECCAK256 0xC1 DIV JUMP BLOCKHASH 0x4B 0xBA 0x2E 0xCC PUSH4 0xE8E6F846 MSTORE SWAP5 SWAP9 PUSH8 0x7E27AFF156B5D415 PUSH1 0xE4 0xDE LOG1 SWAP9 CALLER 0x25 PUSH5 0x736F6C6343 STOP MOD DIV STOP CALLER "
				},
				"gasEstimates": {
					"creation": {
						"codeDepositCost": "371400",
						"executionCost": "411",
						"totalCost": "371811"
					},
					"external": {
						"_bridgeAddress()": "1098",
						"_burnList(address)": "1273",
						"_contractWhitelist(address)": "1206",
						"_resourceIDToTokenContractAddress(bytes32)": "1223",
						"_tokenContractAddressToResourceID(address)": "1213",
						"setBurnable(address)": "infinite",
						"setResource(bytes32,address)": "63219",
						"withdraw(address,address,uint256)": "364"
					},
					"internal": {
						"_onlyBridge()": "infinite",
						"_setBurnable(address)": "infinite",
						"_setResource(bytes32,address)": "62025"
					}
				},
				"methodIdentifiers": {
					"_bridgeAddress()": "318c136e",
					"_burnList(address)": "6a70d081",
					"_contractWhitelist(address)": "7f79bea8",
					"_resourceIDToTokenContractAddress(bytes32)": "0a6d55d8",
					"_tokenContractAddressToResourceID(address)": "c8ba6c87",
					"setBurnable(address)": "07b7ed99",
					"setResource(bytes32,address)": "b8fa3736",
					"withdraw(address,address,uint256)": "d9caed12"
				}
			},
			"storageLayout": {
				"storage": [
					{
						"astId": 6,
						"contract": "contracts/handlers/HandlerHelpers.sol:HandlerHelpers",
						"label": "_bridgeAddress",
						"offset": 0,
						"slot": "0",
						"type": "t_address"
					},
					{
						"astId": 10,
						"contract": "contracts/handlers/HandlerHelpers.sol:HandlerHelpers",
						"label": "_resourceIDToTokenContractAddress",
						"offset": 0,
						"slot": "1",
						"type": "t_mapping(t_bytes32,t_address)"
					},
					{
						"astId": 14,
						"contract": "contracts/handlers/HandlerHelpers.sol:HandlerHelpers",
						"label": "_tokenContractAddressToResourceID",
						"offset": 0,
						"slot": "2",
						"type": "t_mapping(t_address,t_bytes32)"
					},
					{
						"astId": 18,
						"contract": "contracts/handlers/HandlerHelpers.sol:HandlerHelpers",
						"label": "_contractWhitelist",
						"offset": 0,
						"slot": "3",
						"type": "t_mapping(t_address,t_bool)"
					},
					{
						"astId": 22,
						"contract": "contracts/handlers/HandlerHelpers.sol:HandlerHelpers",
						"label": "_burnList",
						"offset": 0,
						"slot": "4",
						"type": "t_mapping(t_address,t_bool)"
					}
				],
				"types": {
					"t_address": {
						"encoding": "inplace",
						"label": "address",
						"numberOfBytes": "20"
					},
					"t_bool": {
						"encoding": "inplace",
						"label": "bool",
						"numberOfBytes": "1"
					},
					"t_bytes32": {
						"encoding": "inplace",
						"label": "bytes32",
						"numberOfBytes": "32"
					},
					"t_mapping(t_address,t_bool)": {
						"encoding": "mapping",
						"key": "t_address",
						"label": "mapping(address => bool)",
						"numberOfBytes": "32",
						"value": "t_bool"
					},
					"t_mapping(t_address,t_bytes32)": {
						"encoding": "mapping",
						"key": "t_address",
						"label": "mapping(address => bytes32)",
						"numberOfBytes": "32",
						"value": "t_bytes32"
					},
					"t_mapping(t_bytes32,t_address)": {
						"encoding": "mapping",
						"key": "t_bytes32",
						"label": "mapping(bytes32 => address)",
						"numberOfBytes": "32",
						"value": "t_address"
					}
				}
			},
			"userdoc": {
				"methods": {
					"setBurnable(address)": {
						"notice": "First verifies {contractAddress} is whitelisted, then sets {_burnList}[{contractAddress}] to true."
					},
					"setResource(bytes32,address)": {
						"notice": "First verifies {_resourceIDToContractAddress}[{resourceID}] and {_contractAddressToResourceID}[{contractAddress}] are not already set, then sets {_resourceIDToContractAddress} with {contractAddress}, {_contractAddressToResourceID} with {resourceID}, and {_contractWhitelist} to true for {contractAddress}."
					},
					"withdraw(address,address,uint256)": {
						"notice": "Used to manually release funds from ERC safes."
					}
				}
			}
		}
	}
}