{
	"contracts/handlers/GenericHandler.sol": {
		"GenericHandler": {
			"abi": [
				{
					"inputs": [
						{
							"internalType": "address",
							"name": "bridgeAddress",
							"type": "address"
						},
						{
							"internalType": "bytes32[]",
							"name": "initialResourceIDs",
							"type": "bytes32[]"
						},
						{
							"internalType": "address[]",
							"name": "initialContractAddresses",
							"type": "address[]"
						},
						{
							"internalType": "bytes4[]",
							"name": "initialDepositFunctionSignatures",
							"type": "bytes4[]"
						},
						{
							"internalType": "bytes4[]",
							"name": "initialExecuteFunctionSignatures",
							"type": "bytes4[]"
						}
					],
					"stateMutability": "nonpayable",
					"type": "constructor"
				},
				{
					"inputs": [],
					"name": "_bridgeAddress",
					"outputs": [
						{
							"internalType": "address",
							"name": "",
							"type": "address"
						}
					],
					"stateMutability": "view",
					"type": "function"
				},
				{
					"inputs": [
						{
							"internalType": "address",
							"name": "",
							"type": "address"
						}
					],
					"name": "_contractAddressToDepositFunctionSignature",
					"outputs": [
						{
							"internalType": "bytes4",
							"name": "",
							"type": "bytes4"
						}
					],
					"stateMutability": "view",
					"type": "function"
				},
				{
					"inputs": [
						{
							"internalType": "address",
							"name": "",
							"type": "address"
						}
					],
					"name": "_contractAddressToExecuteFunctionSignature",
					"outputs": [
						{
							"internalType": "bytes4",
							"name": "",
							"type": "bytes4"
						}
					],
					"stateMutability": "view",
					"type": "function"
				},
				{
					"inputs": [
						{
							"internalType": "address",
							"name": "",
							"type": "address"
						}
					],
					"name": "_contractAddressToResourceID",
					"outputs": [
						{
							"internalType": "bytes32",
							"name": "",
							"type": "bytes32"
						}
					],
					"stateMutability": "view",
					"type": "function"
				},
				{
					"inputs": [
						{
							"internalType": "address",
							"name": "",
							"type": "address"
						}
					],
					"name": "_contractWhitelist",
					"outputs": [
						{
							"internalType": "bool",
							"name": "",
							"type": "bool"
						}
					],
					"stateMutability": "view",
					"type": "function"
				},
				{
					"inputs": [
						{
							"internalType": "uint8",
							"name": "",
							"type": "uint8"
						},
						{
							"internalType": "uint64",
							"name": "",
							"type": "uint64"
						}
					],
					"name": "_depositRecords",
					"outputs": [
						{
							"internalType": "uint8",
							"name": "_destinationChainID",
							"type": "uint8"
						},
						{
							"internalType": "address",
							"name": "_depositer",
							"type": "address"
						},
						{
							"internalType": "bytes32",
							"name": "_resourceID",
							"type": "bytes32"
						},
						{
							"internalType": "bytes",
							"name": "_metaData",
							"type": "bytes"
						}
					],
					"stateMutability": "view",
					"type": "function"
				},
				{
					"inputs": [
						{
							"internalType": "bytes32",
							"name": "",
							"type": "bytes32"
						}
					],
					"name": "_resourceIDToContractAddress",
					"outputs": [
						{
							"internalType": "address",
							"name": "",
							"type": "address"
						}
					],
					"stateMutability": "view",
					"type": "function"
				},
				{
					"inputs": [
						{
							"internalType": "bytes32",
							"name": "resourceID",
							"type": "bytes32"
						},
						{
							"internalType": "uint8",
							"name": "destinationChainID",
							"type": "uint8"
						},
						{
							"internalType": "uint64",
							"name": "depositNonce",
							"type": "uint64"
						},
						{
							"internalType": "address",
							"name": "depositer",
							"type": "address"
						},
						{
							"internalType": "bytes",
							"name": "data",
							"type": "bytes"
						}
					],
					"name": "deposit",
					"outputs": [],
					"stateMutability": "nonpayable",
					"type": "function"
				},
				{
					"inputs": [
						{
							"internalType": "bytes32",
							"name": "resourceID",
							"type": "bytes32"
						},
						{
							"internalType": "bytes",
							"name": "data",
							"type": "bytes"
						}
					],
					"name": "executeProposal",
					"outputs": [],
					"stateMutability": "nonpayable",
					"type": "function"
				},
				{
					"inputs": [
						{
							"internalType": "uint64",
							"name": "depositNonce",
							"type": "uint64"
						},
						{
							"internalType": "uint8",
							"name": "destId",
							"type": "uint8"
						}
					],
					"name": "getDepositRecord",
					"outputs": [
						{
							"components": [
								{
									"internalType": "uint8",
									"name": "_destinationChainID",
									"type": "uint8"
								},
								{
									"internalType": "address",
									"name": "_depositer",
									"type": "address"
								},
								{
									"internalType": "bytes32",
									"name": "_resourceID",
									"type": "bytes32"
								},
								{
									"internalType": "bytes",
									"name": "_metaData",
									"type": "bytes"
								}
							],
							"internalType": "struct GenericHandler.DepositRecord",
							"name": "",
							"type": "tuple"
						}
					],
					"stateMutability": "view",
					"type": "function"
				},
				{
					"inputs": [
						{
							"internalType": "bytes32",
							"name": "resourceID",
							"type": "bytes32"
						},
						{
							"internalType": "address",
							"name": "contractAddress",
							"type": "address"
						},
						{
							"internalType": "bytes4",
							"name": "depositFunctionSig",
							"type": "bytes4"
						},
						{
							"internalType": "bytes4",
							"name": "executeFunctionSig",
							"type": "bytes4"
						}
					],
					"name": "setResource",
					"outputs": [],
					"stateMutability": "nonpayable",
					"type": "function"
				}
			],
			"devdoc": {
				"author": "ChainSafe Systems.",
				"methods": {
					"constructor": {
						"details": "{initialResourceIDs}, {initialContractAddresses}, {initialDepositFunctionSignatures}, and {initialExecuteFunctionSignatures} must all have the same length. Also, values must be ordered in the way that that index x of any mentioned array must be intended for value x of any other array, e.g. {initialContractAddresses}[0] is the intended address for {initialDepositFunctionSignatures}[0].",
						"params": {
							"bridgeAddress": "Contract address of previously deployed Bridge.",
							"initialContractAddresses": "These are the addresses the {initialResourceIDs} will point to, and are the contracts that will be called to perform deposit and execution calls.",
							"initialDepositFunctionSignatures": "These are the function signatures {initialContractAddresses} will point to, and are the function that will be called when executing {deposit}",
							"initialExecuteFunctionSignatures": "These are the function signatures {initialContractAddresses} will point to, and are the function that will be called when executing {executeProposal}",
							"initialResourceIDs": "Resource IDs used to identify a specific contract address. These are the Resource IDs this contract will initially support."
						}
					},
					"deposit(bytes32,uint8,uint64,address,bytes)": {
						"params": {
							"data": "Consists of: {resourceID}, {lenMetaData}, and {metaData} all padded to 32 bytes.",
							"depositNonce": "This value is generated as an ID by the Bridge contract.",
							"depositer": "Address of account making the deposit in the Bridge contract.",
							"destinationChainID": "Chain ID deposit is expected to be bridged to."
						}
					},
					"executeProposal(bytes32,bytes)": {
						"params": {
							"data": "Consists of {resourceID}, {lenMetaData}, and {metaData}."
						}
					},
					"getDepositRecord(uint64,uint8)": {
						"params": {
							"depositNonce": "This ID will have been generated by the Bridge contract.",
							"destId": "ID of chain deposit will be bridged to."
						},
						"returns": {
							"_0": "DepositRecord which consists of: - _destinationChainID ChainID deposited tokens are intended to end up on. - _resourceID ResourceID used when {deposit} was executed. - _depositer Address that initially called {deposit} in the Bridge contract. - _metaData Data to be passed to method executed in corresponding {resourceID} contract."
						}
					},
					"setResource(bytes32,address,bytes4,bytes4)": {
						"params": {
							"contractAddress": "Address of contract to be called when a deposit is made and a deposited is executed.",
							"depositFunctionSig": "Function signature of method to be called in {contractAddress} when a deposit is made.",
							"executeFunctionSig": "Function signature of method to be called in {contractAddress} when a deposit is executed.",
							"resourceID": "ResourceID to be used when making deposits."
						}
					}
				},
				"title": "Handles generic deposits and deposit executions."
			},
			"evm": {
				"assembly": "    /* \"contracts/handlers/GenericHandler.sol\":277:10993  contract GenericHandler is IGenericHandler {... */\n  mstore(0x40, 0x80)\n    /* \"contracts/handlers/GenericHandler.sol\":2731:3860  constructor(... */\n  callvalue\n    /* \"--CODEGEN--\":5:14   */\n  dup1\n    /* \"--CODEGEN--\":2:4   */\n  iszero\n  tag_1\n  jumpi\n    /* \"--CODEGEN--\":27:28   */\n  0x00\n    /* \"--CODEGEN--\":24:25   */\n  dup1\n    /* \"--CODEGEN--\":17:29   */\n  revert\n    /* \"--CODEGEN--\":2:4   */\ntag_1:\n    /* \"contracts/handlers/GenericHandler.sol\":2731:3860  constructor(... */\n  pop\n  mload(0x40)\n  sub(codesize, bytecodeSize)\n  dup1\n  bytecodeSize\n  dup4\n  codecopy\n  dup2\n  dup2\n  add\n  0x40\n  mstore\n  dup2\n  add\n  swap1\n  tag_2\n  swap2\n  swap1\n  jump(tag_3)\ntag_2:\n    /* \"contracts/handlers/GenericHandler.sol\":3057:3081  initialContractAddresses */\n  dup3\n    /* \"contracts/handlers/GenericHandler.sol\":3057:3088  initialContractAddresses.length */\n  mload\n    /* \"contracts/handlers/GenericHandler.sol\":3028:3046  initialResourceIDs */\n  dup5\n    /* \"contracts/handlers/GenericHandler.sol\":3028:3053  initialResourceIDs.length */\n  mload\n    /* \"contracts/handlers/GenericHandler.sol\":3028:3088  initialResourceIDs.length == initialContractAddresses.length */\n  eq\n    /* \"contracts/handlers/GenericHandler.sol\":3020:3165  require(initialResourceIDs.length == initialContractAddresses.length,... */\n  tag_6\n  jumpi\n  mload(0x40)\n  0x08c379a000000000000000000000000000000000000000000000000000000000\n  dup2\n  mstore\n  0x04\n  add\n  tag_7\n  swap1\n  jump(tag_8)\ntag_7:\n  mload(0x40)\n  dup1\n  swap2\n  sub\n  swap1\n  revert\ntag_6:\n    /* \"contracts/handlers/GenericHandler.sol\":3219:3251  initialDepositFunctionSignatures */\n  dup2\n    /* \"contracts/handlers/GenericHandler.sol\":3219:3258  initialDepositFunctionSignatures.length */\n  mload\n    /* \"contracts/handlers/GenericHandler.sol\":3184:3208  initialContractAddresses */\n  dup4\n    /* \"contracts/handlers/GenericHandler.sol\":3184:3215  initialContractAddresses.length */\n  mload\n    /* \"contracts/handlers/GenericHandler.sol\":3184:3258  initialContractAddresses.length == initialDepositFunctionSignatures.length */\n  eq\n    /* \"contracts/handlers/GenericHandler.sol\":3176:3339  require(initialContractAddresses.length == initialDepositFunctionSignatures.length,... */\n  tag_9\n  jumpi\n  mload(0x40)\n  0x08c379a000000000000000000000000000000000000000000000000000000000\n  dup2\n  mstore\n  0x04\n  add\n  tag_10\n  swap1\n  jump(tag_11)\ntag_10:\n  mload(0x40)\n  dup1\n  swap2\n  sub\n  swap1\n  revert\ntag_9:\n    /* \"contracts/handlers/GenericHandler.sol\":3401:3433  initialExecuteFunctionSignatures */\n  dup1\n    /* \"contracts/handlers/GenericHandler.sol\":3401:3440  initialExecuteFunctionSignatures.length */\n  mload\n    /* \"contracts/handlers/GenericHandler.sol\":3358:3390  initialDepositFunctionSignatures */\n  dup3\n    /* \"contracts/handlers/GenericHandler.sol\":3358:3397  initialDepositFunctionSignatures.length */\n  mload\n    /* \"contracts/handlers/GenericHandler.sol\":3358:3440  initialDepositFunctionSignatures.length == initialExecuteFunctionSignatures.length */\n  eq\n    /* \"contracts/handlers/GenericHandler.sol\":3350:3518  require(initialDepositFunctionSignatures.length == initialExecuteFunctionSignatures.length,... */\n  tag_12\n  jumpi\n  mload(0x40)\n  0x08c379a000000000000000000000000000000000000000000000000000000000\n  dup2\n  mstore\n  0x04\n  add\n  tag_13\n  swap1\n  jump(tag_14)\ntag_13:\n  mload(0x40)\n  dup1\n  swap2\n  sub\n  swap1\n  revert\ntag_12:\n    /* \"contracts/handlers/GenericHandler.sol\":3546:3559  bridgeAddress */\n  dup5\n    /* \"contracts/handlers/GenericHandler.sol\":3529:3543  _bridgeAddress */\n  0x00\n  dup1\n    /* \"contracts/handlers/GenericHandler.sol\":3529:3559  _bridgeAddress = bridgeAddress */\n  0x0100\n  exp\n  dup2\n  sload\n  dup2\n  0xffffffffffffffffffffffffffffffffffffffff\n  mul\n  not\n  and\n  swap1\n  dup4\n  0xffffffffffffffffffffffffffffffffffffffff\n  and\n  mul\n  or\n  swap1\n  sstore\n  pop\n    /* \"contracts/handlers/GenericHandler.sol\":3575:3584  uint256 i */\n  0x00\n    /* \"contracts/handlers/GenericHandler.sol\":3587:3588  0 */\n  dup1\n    /* \"contracts/handlers/GenericHandler.sol\":3575:3588  uint256 i = 0 */\n  swap1\n  pop\n    /* \"contracts/handlers/GenericHandler.sol\":3570:3854  for (uint256 i = 0; i < initialResourceIDs.length; i++) {... */\ntag_15:\n    /* \"contracts/handlers/GenericHandler.sol\":3594:3612  initialResourceIDs */\n  dup5\n    /* \"contracts/handlers/GenericHandler.sol\":3594:3619  initialResourceIDs.length */\n  mload\n    /* \"contracts/handlers/GenericHandler.sol\":3590:3591  i */\n  dup2\n    /* \"contracts/handlers/GenericHandler.sol\":3590:3619  i < initialResourceIDs.length */\n  lt\n    /* \"contracts/handlers/GenericHandler.sol\":3570:3854  for (uint256 i = 0; i < initialResourceIDs.length; i++) {... */\n  iszero\n  tag_16\n  jumpi\n    /* \"contracts/handlers/GenericHandler.sol\":3640:3843  _setResource(... */\n  tag_18\n    /* \"contracts/handlers/GenericHandler.sol\":3670:3688  initialResourceIDs */\n  dup6\n    /* \"contracts/handlers/GenericHandler.sol\":3689:3690  i */\n  dup3\n    /* \"contracts/handlers/GenericHandler.sol\":3670:3691  initialResourceIDs[i] */\n  dup2\n  mload\n  dup2\n  lt\n  tag_19\n  jumpi\n  invalid\ntag_19:\n  0x20\n  mul\n  0x20\n  add\n  add\n  mload\n    /* \"contracts/handlers/GenericHandler.sol\":3709:3733  initialContractAddresses */\n  dup6\n    /* \"contracts/handlers/GenericHandler.sol\":3734:3735  i */\n  dup4\n    /* \"contracts/handlers/GenericHandler.sol\":3709:3736  initialContractAddresses[i] */\n  dup2\n  mload\n  dup2\n  lt\n  tag_20\n  jumpi\n  invalid\ntag_20:\n  0x20\n  mul\n  0x20\n  add\n  add\n  mload\n    /* \"contracts/handlers/GenericHandler.sol\":3754:3786  initialDepositFunctionSignatures */\n  dup6\n    /* \"contracts/handlers/GenericHandler.sol\":3787:3788  i */\n  dup5\n    /* \"contracts/handlers/GenericHandler.sol\":3754:3789  initialDepositFunctionSignatures[i] */\n  dup2\n  mload\n  dup2\n  lt\n  tag_21\n  jumpi\n  invalid\ntag_21:\n  0x20\n  mul\n  0x20\n  add\n  add\n  mload\n    /* \"contracts/handlers/GenericHandler.sol\":3807:3839  initialExecuteFunctionSignatures */\n  dup6\n    /* \"contracts/handlers/GenericHandler.sol\":3840:3841  i */\n  dup6\n    /* \"contracts/handlers/GenericHandler.sol\":3807:3842  initialExecuteFunctionSignatures[i] */\n  dup2\n  mload\n  dup2\n  lt\n  tag_22\n  jumpi\n  invalid\ntag_22:\n  0x20\n  mul\n  0x20\n  add\n  add\n  mload\n    /* \"contracts/handlers/GenericHandler.sol\":3640:3652  _setResource */\n  shl(0x20, tag_23)\n    /* \"contracts/handlers/GenericHandler.sol\":3640:3843  _setResource(... */\n  0x20\n  shr\n  jump\t// in\ntag_18:\n    /* \"contracts/handlers/GenericHandler.sol\":3621:3624  i++ */\n  dup1\n  dup1\n  0x01\n  add\n  swap2\n  pop\n  pop\n    /* \"contracts/handlers/GenericHandler.sol\":3570:3854  for (uint256 i = 0; i < initialResourceIDs.length; i++) {... */\n  jump(tag_15)\ntag_16:\n  pop\n    /* \"contracts/handlers/GenericHandler.sol\":2731:3860  constructor(... */\n  pop\n  pop\n  pop\n  pop\n  pop\n    /* \"contracts/handlers/GenericHandler.sol\":277:10993  contract GenericHandler is IGenericHandler {... */\n  jump(tag_24)\n    /* \"contracts/handlers/GenericHandler.sol\":10447:10991  function _setResource(... */\ntag_23:\n    /* \"contracts/handlers/GenericHandler.sol\":10668:10683  contractAddress */\n  dup3\n    /* \"contracts/handlers/GenericHandler.sol\":10625:10653  _resourceIDToContractAddress */\n  0x02\n    /* \"contracts/handlers/GenericHandler.sol\":10625:10665  _resourceIDToContractAddress[resourceID] */\n  0x00\n    /* \"contracts/handlers/GenericHandler.sol\":10654:10664  resourceID */\n  dup7\n    /* \"contracts/handlers/GenericHandler.sol\":10625:10665  _resourceIDToContractAddress[resourceID] */\n  dup2\n  mstore\n  0x20\n  add\n  swap1\n  dup2\n  mstore\n  0x20\n  add\n  0x00\n  keccak256\n  0x00\n    /* \"contracts/handlers/GenericHandler.sol\":10625:10683  _resourceIDToContractAddress[resourceID] = contractAddress */\n  0x0100\n  exp\n  dup2\n  sload\n  dup2\n  0xffffffffffffffffffffffffffffffffffffffff\n  mul\n  not\n  and\n  swap1\n  dup4\n  0xffffffffffffffffffffffffffffffffffffffff\n  and\n  mul\n  or\n  swap1\n  sstore\n  pop\n    /* \"contracts/handlers/GenericHandler.sol\":10741:10751  resourceID */\n  dup4\n    /* \"contracts/handlers/GenericHandler.sol\":10693:10721  _contractAddressToResourceID */\n  0x03\n    /* \"contracts/handlers/GenericHandler.sol\":10693:10738  _contractAddressToResourceID[contractAddress] */\n  0x00\n    /* \"contracts/handlers/GenericHandler.sol\":10722:10737  contractAddress */\n  dup6\n    /* \"contracts/handlers/GenericHandler.sol\":10693:10738  _contractAddressToResourceID[contractAddress] */\n  0xffffffffffffffffffffffffffffffffffffffff\n  and\n  0xffffffffffffffffffffffffffffffffffffffff\n  and\n  dup2\n  mstore\n  0x20\n  add\n  swap1\n  dup2\n  mstore\n  0x20\n  add\n  0x00\n  keccak256\n    /* \"contracts/handlers/GenericHandler.sol\":10693:10751  _contractAddressToResourceID[contractAddress] = resourceID */\n  dup2\n  swap1\n  sstore\n  pop\n    /* \"contracts/handlers/GenericHandler.sol\":10823:10841  depositFunctionSig */\n  dup2\n    /* \"contracts/handlers/GenericHandler.sol\":10761:10803  _contractAddressToDepositFunctionSignature */\n  0x04\n    /* \"contracts/handlers/GenericHandler.sol\":10761:10820  _contractAddressToDepositFunctionSignature[contractAddress] */\n  0x00\n    /* \"contracts/handlers/GenericHandler.sol\":10804:10819  contractAddress */\n  dup6\n    /* \"contracts/handlers/GenericHandler.sol\":10761:10820  _contractAddressToDepositFunctionSignature[contractAddress] */\n  0xffffffffffffffffffffffffffffffffffffffff\n  and\n  0xffffffffffffffffffffffffffffffffffffffff\n  and\n  dup2\n  mstore\n  0x20\n  add\n  swap1\n  dup2\n  mstore\n  0x20\n  add\n  0x00\n  keccak256\n  0x00\n    /* \"contracts/handlers/GenericHandler.sol\":10761:10841  _contractAddressToDepositFunctionSignature[contractAddress] = depositFunctionSig */\n  0x0100\n  exp\n  dup2\n  sload\n  dup2\n  0xffffffff\n  mul\n  not\n  and\n  swap1\n  dup4\n  0xe0\n  shr\n  mul\n  or\n  swap1\n  sstore\n  pop\n    /* \"contracts/handlers/GenericHandler.sol\":10913:10931  executeFunctionSig */\n  dup1\n    /* \"contracts/handlers/GenericHandler.sol\":10851:10893  _contractAddressToExecuteFunctionSignature */\n  0x05\n    /* \"contracts/handlers/GenericHandler.sol\":10851:10910  _contractAddressToExecuteFunctionSignature[contractAddress] */\n  0x00\n    /* \"contracts/handlers/GenericHandler.sol\":10894:10909  contractAddress */\n  dup6\n    /* \"contracts/handlers/GenericHandler.sol\":10851:10910  _contractAddressToExecuteFunctionSignature[contractAddress] */\n  0xffffffffffffffffffffffffffffffffffffffff\n  and\n  0xffffffffffffffffffffffffffffffffffffffff\n  and\n  dup2\n  mstore\n  0x20\n  add\n  swap1\n  dup2\n  mstore\n  0x20\n  add\n  0x00\n  keccak256\n  0x00\n    /* \"contracts/handlers/GenericHandler.sol\":10851:10931  _contractAddressToExecuteFunctionSignature[contractAddress] = executeFunctionSig */\n  0x0100\n  exp\n  dup2\n  sload\n  dup2\n  0xffffffff\n  mul\n  not\n  and\n  swap1\n  dup4\n  0xe0\n  shr\n  mul\n  or\n  swap1\n  sstore\n  pop\n    /* \"contracts/handlers/GenericHandler.sol\":10980:10984  true */\n  0x01\n    /* \"contracts/handlers/GenericHandler.sol\":10942:10960  _contractWhitelist */\n  0x06\n    /* \"contracts/handlers/GenericHandler.sol\":10942:10977  _contractWhitelist[contractAddress] */\n  0x00\n    /* \"contracts/handlers/GenericHandler.sol\":10961:10976  contractAddress */\n  dup6\n    /* \"contracts/handlers/GenericHandler.sol\":10942:10977  _contractWhitelist[contractAddress] */\n  0xffffffffffffffffffffffffffffffffffffffff\n  and\n  0xffffffffffffffffffffffffffffffffffffffff\n  and\n  dup2\n  mstore\n  0x20\n  add\n  swap1\n  dup2\n  mstore\n  0x20\n  add\n  0x00\n  keccak256\n  0x00\n    /* \"contracts/handlers/GenericHandler.sol\":10942:10984  _contractWhitelist[contractAddress] = true */\n  0x0100\n  exp\n  dup2\n  sload\n  dup2\n  0xff\n  mul\n  not\n  and\n  swap1\n  dup4\n  iszero\n  iszero\n  mul\n  or\n  swap1\n  sstore\n  pop\n    /* \"contracts/handlers/GenericHandler.sol\":10447:10991  function _setResource(... */\n  pop\n  pop\n  pop\n  pop\n  jump\t// out\n    /* \"--CODEGEN--\":5:139   */\ntag_27:\n  0x00\n    /* \"--CODEGEN--\":89:95   */\n  dup2\n    /* \"--CODEGEN--\":83:96   */\n  mload\n    /* \"--CODEGEN--\":74:96   */\n  swap1\n  pop\n    /* \"--CODEGEN--\":101:134   */\n  tag_29\n    /* \"--CODEGEN--\":128:133   */\n  dup2\n    /* \"--CODEGEN--\":101:134   */\n  jump(tag_30)\ntag_29:\n    /* \"--CODEGEN--\":68:139   */\n  swap3\n  swap2\n  pop\n  pop\n  jump\n    /* \"--CODEGEN--\":164:886   */\ntag_31:\n  0x00\n    /* \"--CODEGEN--\":292:295   */\n  dup3\n    /* \"--CODEGEN--\":285:289   */\n  0x1f\n    /* \"--CODEGEN--\":277:283   */\n  dup4\n    /* \"--CODEGEN--\":273:290   */\n  add\n    /* \"--CODEGEN--\":269:296   */\n  slt\n    /* \"--CODEGEN--\":259:261   */\n  tag_33\n  jumpi\n    /* \"--CODEGEN--\":310:311   */\n  0x00\n    /* \"--CODEGEN--\":307:308   */\n  dup1\n    /* \"--CODEGEN--\":300:312   */\n  revert\n    /* \"--CODEGEN--\":259:261   */\ntag_33:\n    /* \"--CODEGEN--\":340:346   */\n  dup2\n    /* \"--CODEGEN--\":334:347   */\n  mload\n    /* \"--CODEGEN--\":362:442   */\n  tag_34\n    /* \"--CODEGEN--\":377:441   */\n  tag_35\n    /* \"--CODEGEN--\":434:440   */\n  dup3\n    /* \"--CODEGEN--\":377:441   */\n  jump(tag_36)\ntag_35:\n    /* \"--CODEGEN--\":362:442   */\n  jump(tag_37)\ntag_34:\n    /* \"--CODEGEN--\":353:442   */\n  swap2\n  pop\n    /* \"--CODEGEN--\":459:464   */\n  dup2\n    /* \"--CODEGEN--\":484:490   */\n  dup2\n    /* \"--CODEGEN--\":477:482   */\n  dup4\n    /* \"--CODEGEN--\":470:491   */\n  mstore\n    /* \"--CODEGEN--\":514:518   */\n  0x20\n    /* \"--CODEGEN--\":506:512   */\n  dup5\n    /* \"--CODEGEN--\":502:519   */\n  add\n    /* \"--CODEGEN--\":492:519   */\n  swap4\n  pop\n    /* \"--CODEGEN--\":536:540   */\n  0x20\n    /* \"--CODEGEN--\":531:534   */\n  dup2\n    /* \"--CODEGEN--\":527:541   */\n  add\n    /* \"--CODEGEN--\":520:541   */\n  swap1\n  pop\n    /* \"--CODEGEN--\":589:595   */\n  dup4\n    /* \"--CODEGEN--\":636:639   */\n  dup6\n    /* \"--CODEGEN--\":628:632   */\n  0x20\n    /* \"--CODEGEN--\":620:626   */\n  dup5\n    /* \"--CODEGEN--\":616:633   */\n  mul\n    /* \"--CODEGEN--\":611:614   */\n  dup3\n    /* \"--CODEGEN--\":607:634   */\n  add\n    /* \"--CODEGEN--\":604:640   */\n  gt\n    /* \"--CODEGEN--\":601:603   */\n  iszero\n  tag_38\n  jumpi\n    /* \"--CODEGEN--\":653:654   */\n  0x00\n    /* \"--CODEGEN--\":650:651   */\n  dup1\n    /* \"--CODEGEN--\":643:655   */\n  revert\n    /* \"--CODEGEN--\":601:603   */\ntag_38:\n    /* \"--CODEGEN--\":678:679   */\n  0x00\n    /* \"--CODEGEN--\":663:880   */\ntag_39:\n    /* \"--CODEGEN--\":688:694   */\n  dup4\n    /* \"--CODEGEN--\":685:686   */\n  dup2\n    /* \"--CODEGEN--\":682:695   */\n  lt\n    /* \"--CODEGEN--\":663:880   */\n  iszero\n  tag_41\n  jumpi\n    /* \"--CODEGEN--\":746:749   */\n  dup2\n    /* \"--CODEGEN--\":768:816   */\n  tag_42\n    /* \"--CODEGEN--\":812:815   */\n  dup9\n    /* \"--CODEGEN--\":800:810   */\n  dup3\n    /* \"--CODEGEN--\":768:816   */\n  jump(tag_27)\ntag_42:\n    /* \"--CODEGEN--\":763:766   */\n  dup5\n    /* \"--CODEGEN--\":756:817   */\n  mstore\n    /* \"--CODEGEN--\":840:844   */\n  0x20\n    /* \"--CODEGEN--\":835:838   */\n  dup5\n    /* \"--CODEGEN--\":831:845   */\n  add\n    /* \"--CODEGEN--\":824:845   */\n  swap4\n  pop\n    /* \"--CODEGEN--\":868:872   */\n  0x20\n    /* \"--CODEGEN--\":863:866   */\n  dup4\n    /* \"--CODEGEN--\":859:873   */\n  add\n    /* \"--CODEGEN--\":852:873   */\n  swap3\n  pop\n    /* \"--CODEGEN--\":720:880   */\n  pop\n    /* \"--CODEGEN--\":710:711   */\n  0x01\n    /* \"--CODEGEN--\":707:708   */\n  dup2\n    /* \"--CODEGEN--\":703:712   */\n  add\n    /* \"--CODEGEN--\":698:712   */\n  swap1\n  pop\n    /* \"--CODEGEN--\":663:880   */\n  jump(tag_39)\ntag_41:\n    /* \"--CODEGEN--\":667:681   */\n  pop\n    /* \"--CODEGEN--\":252:886   */\n  pop\n  pop\n  pop\n  swap3\n  swap2\n  pop\n  pop\n  jump\n    /* \"--CODEGEN--\":912:1634   */\ntag_43:\n  0x00\n    /* \"--CODEGEN--\":1040:1043   */\n  dup3\n    /* \"--CODEGEN--\":1033:1037   */\n  0x1f\n    /* \"--CODEGEN--\":1025:1031   */\n  dup4\n    /* \"--CODEGEN--\":1021:1038   */\n  add\n    /* \"--CODEGEN--\":1017:1044   */\n  slt\n    /* \"--CODEGEN--\":1007:1009   */\n  tag_45\n  jumpi\n    /* \"--CODEGEN--\":1058:1059   */\n  0x00\n    /* \"--CODEGEN--\":1055:1056   */\n  dup1\n    /* \"--CODEGEN--\":1048:1060   */\n  revert\n    /* \"--CODEGEN--\":1007:1009   */\ntag_45:\n    /* \"--CODEGEN--\":1088:1094   */\n  dup2\n    /* \"--CODEGEN--\":1082:1095   */\n  mload\n    /* \"--CODEGEN--\":1110:1190   */\n  tag_46\n    /* \"--CODEGEN--\":1125:1189   */\n  tag_47\n    /* \"--CODEGEN--\":1182:1188   */\n  dup3\n    /* \"--CODEGEN--\":1125:1189   */\n  jump(tag_48)\ntag_47:\n    /* \"--CODEGEN--\":1110:1190   */\n  jump(tag_37)\ntag_46:\n    /* \"--CODEGEN--\":1101:1190   */\n  swap2\n  pop\n    /* \"--CODEGEN--\":1207:1212   */\n  dup2\n    /* \"--CODEGEN--\":1232:1238   */\n  dup2\n    /* \"--CODEGEN--\":1225:1230   */\n  dup4\n    /* \"--CODEGEN--\":1218:1239   */\n  mstore\n    /* \"--CODEGEN--\":1262:1266   */\n  0x20\n    /* \"--CODEGEN--\":1254:1260   */\n  dup5\n    /* \"--CODEGEN--\":1250:1267   */\n  add\n    /* \"--CODEGEN--\":1240:1267   */\n  swap4\n  pop\n    /* \"--CODEGEN--\":1284:1288   */\n  0x20\n    /* \"--CODEGEN--\":1279:1282   */\n  dup2\n    /* \"--CODEGEN--\":1275:1289   */\n  add\n    /* \"--CODEGEN--\":1268:1289   */\n  swap1\n  pop\n    /* \"--CODEGEN--\":1337:1343   */\n  dup4\n    /* \"--CODEGEN--\":1384:1387   */\n  dup6\n    /* \"--CODEGEN--\":1376:1380   */\n  0x20\n    /* \"--CODEGEN--\":1368:1374   */\n  dup5\n    /* \"--CODEGEN--\":1364:1381   */\n  mul\n    /* \"--CODEGEN--\":1359:1362   */\n  dup3\n    /* \"--CODEGEN--\":1355:1382   */\n  add\n    /* \"--CODEGEN--\":1352:1388   */\n  gt\n    /* \"--CODEGEN--\":1349:1351   */\n  iszero\n  tag_49\n  jumpi\n    /* \"--CODEGEN--\":1401:1402   */\n  0x00\n    /* \"--CODEGEN--\":1398:1399   */\n  dup1\n    /* \"--CODEGEN--\":1391:1403   */\n  revert\n    /* \"--CODEGEN--\":1349:1351   */\ntag_49:\n    /* \"--CODEGEN--\":1426:1427   */\n  0x00\n    /* \"--CODEGEN--\":1411:1628   */\ntag_50:\n    /* \"--CODEGEN--\":1436:1442   */\n  dup4\n    /* \"--CODEGEN--\":1433:1434   */\n  dup2\n    /* \"--CODEGEN--\":1430:1443   */\n  lt\n    /* \"--CODEGEN--\":1411:1628   */\n  iszero\n  tag_52\n  jumpi\n    /* \"--CODEGEN--\":1494:1497   */\n  dup2\n    /* \"--CODEGEN--\":1516:1564   */\n  tag_53\n    /* \"--CODEGEN--\":1560:1563   */\n  dup9\n    /* \"--CODEGEN--\":1548:1558   */\n  dup3\n    /* \"--CODEGEN--\":1516:1564   */\n  jump(tag_54)\ntag_53:\n    /* \"--CODEGEN--\":1511:1514   */\n  dup5\n    /* \"--CODEGEN--\":1504:1565   */\n  mstore\n    /* \"--CODEGEN--\":1588:1592   */\n  0x20\n    /* \"--CODEGEN--\":1583:1586   */\n  dup5\n    /* \"--CODEGEN--\":1579:1593   */\n  add\n    /* \"--CODEGEN--\":1572:1593   */\n  swap4\n  pop\n    /* \"--CODEGEN--\":1616:1620   */\n  0x20\n    /* \"--CODEGEN--\":1611:1614   */\n  dup4\n    /* \"--CODEGEN--\":1607:1621   */\n  add\n    /* \"--CODEGEN--\":1600:1621   */\n  swap3\n  pop\n    /* \"--CODEGEN--\":1468:1628   */\n  pop\n    /* \"--CODEGEN--\":1458:1459   */\n  0x01\n    /* \"--CODEGEN--\":1455:1456   */\n  dup2\n    /* \"--CODEGEN--\":1451:1460   */\n  add\n    /* \"--CODEGEN--\":1446:1460   */\n  swap1\n  pop\n    /* \"--CODEGEN--\":1411:1628   */\n  jump(tag_50)\ntag_52:\n    /* \"--CODEGEN--\":1415:1429   */\n  pop\n    /* \"--CODEGEN--\":1000:1634   */\n  pop\n  pop\n  pop\n  swap3\n  swap2\n  pop\n  pop\n  jump\n    /* \"--CODEGEN--\":1659:2378   */\ntag_55:\n  0x00\n    /* \"--CODEGEN--\":1786:1789   */\n  dup3\n    /* \"--CODEGEN--\":1779:1783   */\n  0x1f\n    /* \"--CODEGEN--\":1771:1777   */\n  dup4\n    /* \"--CODEGEN--\":1767:1784   */\n  add\n    /* \"--CODEGEN--\":1763:1790   */\n  slt\n    /* \"--CODEGEN--\":1753:1755   */\n  tag_57\n  jumpi\n    /* \"--CODEGEN--\":1804:1805   */\n  0x00\n    /* \"--CODEGEN--\":1801:1802   */\n  dup1\n    /* \"--CODEGEN--\":1794:1806   */\n  revert\n    /* \"--CODEGEN--\":1753:1755   */\ntag_57:\n    /* \"--CODEGEN--\":1834:1840   */\n  dup2\n    /* \"--CODEGEN--\":1828:1841   */\n  mload\n    /* \"--CODEGEN--\":1856:1935   */\n  tag_58\n    /* \"--CODEGEN--\":1871:1934   */\n  tag_59\n    /* \"--CODEGEN--\":1927:1933   */\n  dup3\n    /* \"--CODEGEN--\":1871:1934   */\n  jump(tag_60)\ntag_59:\n    /* \"--CODEGEN--\":1856:1935   */\n  jump(tag_37)\ntag_58:\n    /* \"--CODEGEN--\":1847:1935   */\n  swap2\n  pop\n    /* \"--CODEGEN--\":1952:1957   */\n  dup2\n    /* \"--CODEGEN--\":1977:1983   */\n  dup2\n    /* \"--CODEGEN--\":1970:1975   */\n  dup4\n    /* \"--CODEGEN--\":1963:1984   */\n  mstore\n    /* \"--CODEGEN--\":2007:2011   */\n  0x20\n    /* \"--CODEGEN--\":1999:2005   */\n  dup5\n    /* \"--CODEGEN--\":1995:2012   */\n  add\n    /* \"--CODEGEN--\":1985:2012   */\n  swap4\n  pop\n    /* \"--CODEGEN--\":2029:2033   */\n  0x20\n    /* \"--CODEGEN--\":2024:2027   */\n  dup2\n    /* \"--CODEGEN--\":2020:2034   */\n  add\n    /* \"--CODEGEN--\":2013:2034   */\n  swap1\n  pop\n    /* \"--CODEGEN--\":2082:2088   */\n  dup4\n    /* \"--CODEGEN--\":2129:2132   */\n  dup6\n    /* \"--CODEGEN--\":2121:2125   */\n  0x20\n    /* \"--CODEGEN--\":2113:2119   */\n  dup5\n    /* \"--CODEGEN--\":2109:2126   */\n  mul\n    /* \"--CODEGEN--\":2104:2107   */\n  dup3\n    /* \"--CODEGEN--\":2100:2127   */\n  add\n    /* \"--CODEGEN--\":2097:2133   */\n  gt\n    /* \"--CODEGEN--\":2094:2096   */\n  iszero\n  tag_61\n  jumpi\n    /* \"--CODEGEN--\":2146:2147   */\n  0x00\n    /* \"--CODEGEN--\":2143:2144   */\n  dup1\n    /* \"--CODEGEN--\":2136:2148   */\n  revert\n    /* \"--CODEGEN--\":2094:2096   */\ntag_61:\n    /* \"--CODEGEN--\":2171:2172   */\n  0x00\n    /* \"--CODEGEN--\":2156:2372   */\ntag_62:\n    /* \"--CODEGEN--\":2181:2187   */\n  dup4\n    /* \"--CODEGEN--\":2178:2179   */\n  dup2\n    /* \"--CODEGEN--\":2175:2188   */\n  lt\n    /* \"--CODEGEN--\":2156:2372   */\n  iszero\n  tag_64\n  jumpi\n    /* \"--CODEGEN--\":2239:2242   */\n  dup2\n    /* \"--CODEGEN--\":2261:2308   */\n  tag_65\n    /* \"--CODEGEN--\":2304:2307   */\n  dup9\n    /* \"--CODEGEN--\":2292:2302   */\n  dup3\n    /* \"--CODEGEN--\":2261:2308   */\n  jump(tag_66)\ntag_65:\n    /* \"--CODEGEN--\":2256:2259   */\n  dup5\n    /* \"--CODEGEN--\":2249:2309   */\n  mstore\n    /* \"--CODEGEN--\":2332:2336   */\n  0x20\n    /* \"--CODEGEN--\":2327:2330   */\n  dup5\n    /* \"--CODEGEN--\":2323:2337   */\n  add\n    /* \"--CODEGEN--\":2316:2337   */\n  swap4\n  pop\n    /* \"--CODEGEN--\":2360:2364   */\n  0x20\n    /* \"--CODEGEN--\":2355:2358   */\n  dup4\n    /* \"--CODEGEN--\":2351:2365   */\n  add\n    /* \"--CODEGEN--\":2344:2365   */\n  swap3\n  pop\n    /* \"--CODEGEN--\":2213:2372   */\n  pop\n    /* \"--CODEGEN--\":2203:2204   */\n  0x01\n    /* \"--CODEGEN--\":2200:2201   */\n  dup2\n    /* \"--CODEGEN--\":2196:2205   */\n  add\n    /* \"--CODEGEN--\":2191:2205   */\n  swap1\n  pop\n    /* \"--CODEGEN--\":2156:2372   */\n  jump(tag_62)\ntag_64:\n    /* \"--CODEGEN--\":2160:2174   */\n  pop\n    /* \"--CODEGEN--\":1746:2378   */\n  pop\n  pop\n  pop\n  swap3\n  swap2\n  pop\n  pop\n  jump\n    /* \"--CODEGEN--\":2386:2520   */\ntag_54:\n  0x00\n    /* \"--CODEGEN--\":2470:2476   */\n  dup2\n    /* \"--CODEGEN--\":2464:2477   */\n  mload\n    /* \"--CODEGEN--\":2455:2477   */\n  swap1\n  pop\n    /* \"--CODEGEN--\":2482:2515   */\n  tag_68\n    /* \"--CODEGEN--\":2509:2514   */\n  dup2\n    /* \"--CODEGEN--\":2482:2515   */\n  jump(tag_69)\ntag_68:\n    /* \"--CODEGEN--\":2449:2520   */\n  swap3\n  swap2\n  pop\n  pop\n  jump\n    /* \"--CODEGEN--\":2527:2659   */\ntag_66:\n  0x00\n    /* \"--CODEGEN--\":2610:2616   */\n  dup2\n    /* \"--CODEGEN--\":2604:2617   */\n  mload\n    /* \"--CODEGEN--\":2595:2617   */\n  swap1\n  pop\n    /* \"--CODEGEN--\":2622:2654   */\n  tag_71\n    /* \"--CODEGEN--\":2648:2653   */\n  dup2\n    /* \"--CODEGEN--\":2622:2654   */\n  jump(tag_72)\ntag_71:\n    /* \"--CODEGEN--\":2589:2659   */\n  swap3\n  swap2\n  pop\n  pop\n  jump\n    /* \"--CODEGEN--\":2666:3987   */\ntag_3:\n  0x00\n  dup1\n  0x00\n  dup1\n  0x00\n    /* \"--CODEGEN--\":2947:2950   */\n  0xa0\n    /* \"--CODEGEN--\":2935:2944   */\n  dup7\n    /* \"--CODEGEN--\":2926:2933   */\n  dup9\n    /* \"--CODEGEN--\":2922:2945   */\n  sub\n    /* \"--CODEGEN--\":2918:2951   */\n  slt\n    /* \"--CODEGEN--\":2915:2917   */\n  iszero\n  tag_74\n  jumpi\n    /* \"--CODEGEN--\":2964:2965   */\n  0x00\n    /* \"--CODEGEN--\":2961:2962   */\n  dup1\n    /* \"--CODEGEN--\":2954:2966   */\n  revert\n    /* \"--CODEGEN--\":2915:2917   */\ntag_74:\n    /* \"--CODEGEN--\":2999:3000   */\n  0x00\n    /* \"--CODEGEN--\":3016:3080   */\n  tag_75\n    /* \"--CODEGEN--\":3072:3079   */\n  dup9\n    /* \"--CODEGEN--\":3063:3069   */\n  dup3\n    /* \"--CODEGEN--\":3052:3061   */\n  dup10\n    /* \"--CODEGEN--\":3048:3070   */\n  add\n    /* \"--CODEGEN--\":3016:3080   */\n  jump(tag_27)\ntag_75:\n    /* \"--CODEGEN--\":3006:3080   */\n  swap6\n  pop\n    /* \"--CODEGEN--\":2978:3086   */\n  pop\n    /* \"--CODEGEN--\":3138:3140   */\n  0x20\n    /* \"--CODEGEN--\":3127:3136   */\n  dup7\n    /* \"--CODEGEN--\":3123:3141   */\n  add\n    /* \"--CODEGEN--\":3117:3142   */\n  mload\n    /* \"--CODEGEN--\":3162:3180   */\n  0xffffffffffffffff\n    /* \"--CODEGEN--\":3154:3160   */\n  dup2\n    /* \"--CODEGEN--\":3151:3181   */\n  gt\n    /* \"--CODEGEN--\":3148:3150   */\n  iszero\n  tag_76\n  jumpi\n    /* \"--CODEGEN--\":3194:3195   */\n  0x00\n    /* \"--CODEGEN--\":3191:3192   */\n  dup1\n    /* \"--CODEGEN--\":3184:3196   */\n  revert\n    /* \"--CODEGEN--\":3148:3150   */\ntag_76:\n    /* \"--CODEGEN--\":3214:3303   */\n  tag_77\n    /* \"--CODEGEN--\":3295:3302   */\n  dup9\n    /* \"--CODEGEN--\":3286:3292   */\n  dup3\n    /* \"--CODEGEN--\":3275:3284   */\n  dup10\n    /* \"--CODEGEN--\":3271:3293   */\n  add\n    /* \"--CODEGEN--\":3214:3303   */\n  jump(tag_43)\ntag_77:\n    /* \"--CODEGEN--\":3204:3303   */\n  swap5\n  pop\n    /* \"--CODEGEN--\":3096:3309   */\n  pop\n    /* \"--CODEGEN--\":3361:3363   */\n  0x40\n    /* \"--CODEGEN--\":3350:3359   */\n  dup7\n    /* \"--CODEGEN--\":3346:3364   */\n  add\n    /* \"--CODEGEN--\":3340:3365   */\n  mload\n    /* \"--CODEGEN--\":3385:3403   */\n  0xffffffffffffffff\n    /* \"--CODEGEN--\":3377:3383   */\n  dup2\n    /* \"--CODEGEN--\":3374:3404   */\n  gt\n    /* \"--CODEGEN--\":3371:3373   */\n  iszero\n  tag_78\n  jumpi\n    /* \"--CODEGEN--\":3417:3418   */\n  0x00\n    /* \"--CODEGEN--\":3414:3415   */\n  dup1\n    /* \"--CODEGEN--\":3407:3419   */\n  revert\n    /* \"--CODEGEN--\":3371:3373   */\ntag_78:\n    /* \"--CODEGEN--\":3437:3526   */\n  tag_79\n    /* \"--CODEGEN--\":3518:3525   */\n  dup9\n    /* \"--CODEGEN--\":3509:3515   */\n  dup3\n    /* \"--CODEGEN--\":3498:3507   */\n  dup10\n    /* \"--CODEGEN--\":3494:3516   */\n  add\n    /* \"--CODEGEN--\":3437:3526   */\n  jump(tag_31)\ntag_79:\n    /* \"--CODEGEN--\":3427:3526   */\n  swap4\n  pop\n    /* \"--CODEGEN--\":3319:3532   */\n  pop\n    /* \"--CODEGEN--\":3584:3586   */\n  0x60\n    /* \"--CODEGEN--\":3573:3582   */\n  dup7\n    /* \"--CODEGEN--\":3569:3587   */\n  add\n    /* \"--CODEGEN--\":3563:3588   */\n  mload\n    /* \"--CODEGEN--\":3608:3626   */\n  0xffffffffffffffff\n    /* \"--CODEGEN--\":3600:3606   */\n  dup2\n    /* \"--CODEGEN--\":3597:3627   */\n  gt\n    /* \"--CODEGEN--\":3594:3596   */\n  iszero\n  tag_80\n  jumpi\n    /* \"--CODEGEN--\":3640:3641   */\n  0x00\n    /* \"--CODEGEN--\":3637:3638   */\n  dup1\n    /* \"--CODEGEN--\":3630:3642   */\n  revert\n    /* \"--CODEGEN--\":3594:3596   */\ntag_80:\n    /* \"--CODEGEN--\":3660:3748   */\n  tag_81\n    /* \"--CODEGEN--\":3740:3747   */\n  dup9\n    /* \"--CODEGEN--\":3731:3737   */\n  dup3\n    /* \"--CODEGEN--\":3720:3729   */\n  dup10\n    /* \"--CODEGEN--\":3716:3738   */\n  add\n    /* \"--CODEGEN--\":3660:3748   */\n  jump(tag_55)\ntag_81:\n    /* \"--CODEGEN--\":3650:3748   */\n  swap3\n  pop\n    /* \"--CODEGEN--\":3542:3754   */\n  pop\n    /* \"--CODEGEN--\":3806:3809   */\n  0x80\n    /* \"--CODEGEN--\":3795:3804   */\n  dup7\n    /* \"--CODEGEN--\":3791:3810   */\n  add\n    /* \"--CODEGEN--\":3785:3811   */\n  mload\n    /* \"--CODEGEN--\":3831:3849   */\n  0xffffffffffffffff\n    /* \"--CODEGEN--\":3823:3829   */\n  dup2\n    /* \"--CODEGEN--\":3820:3850   */\n  gt\n    /* \"--CODEGEN--\":3817:3819   */\n  iszero\n  tag_82\n  jumpi\n    /* \"--CODEGEN--\":3863:3864   */\n  0x00\n    /* \"--CODEGEN--\":3860:3861   */\n  dup1\n    /* \"--CODEGEN--\":3853:3865   */\n  revert\n    /* \"--CODEGEN--\":3817:3819   */\ntag_82:\n    /* \"--CODEGEN--\":3883:3971   */\n  tag_83\n    /* \"--CODEGEN--\":3963:3970   */\n  dup9\n    /* \"--CODEGEN--\":3954:3960   */\n  dup3\n    /* \"--CODEGEN--\":3943:3952   */\n  dup10\n    /* \"--CODEGEN--\":3939:3961   */\n  add\n    /* \"--CODEGEN--\":3883:3971   */\n  jump(tag_55)\ntag_83:\n    /* \"--CODEGEN--\":3873:3971   */\n  swap2\n  pop\n    /* \"--CODEGEN--\":3764:3977   */\n  pop\n    /* \"--CODEGEN--\":2909:3987   */\n  swap3\n  swap6\n  pop\n  swap3\n  swap6\n  swap1\n  swap4\n  pop\n  jump\n    /* \"--CODEGEN--\":3995:4392   */\ntag_84:\n  0x00\n    /* \"--CODEGEN--\":4155:4222   */\n  tag_86\n    /* \"--CODEGEN--\":4219:4221   */\n  0x3c\n    /* \"--CODEGEN--\":4214:4217   */\n  dup4\n    /* \"--CODEGEN--\":4155:4222   */\n  jump(tag_87)\ntag_86:\n    /* \"--CODEGEN--\":4148:4222   */\n  swap2\n  pop\n    /* \"--CODEGEN--\":4255:4289   */\n  0x696e697469616c5265736f7572636549447320616e6420696e697469616c436f\n    /* \"--CODEGEN--\":4251:4252   */\n  0x00\n    /* \"--CODEGEN--\":4246:4249   */\n  dup4\n    /* \"--CODEGEN--\":4242:4253   */\n  add\n    /* \"--CODEGEN--\":4235:4290   */\n  mstore\n    /* \"--CODEGEN--\":4324:4354   */\n  0x6e7472616374416464726573736573206c656e206d69736d6174636800000000\n    /* \"--CODEGEN--\":4319:4321   */\n  0x20\n    /* \"--CODEGEN--\":4314:4317   */\n  dup4\n    /* \"--CODEGEN--\":4310:4322   */\n  add\n    /* \"--CODEGEN--\":4303:4355   */\n  mstore\n    /* \"--CODEGEN--\":4383:4385   */\n  0x40\n    /* \"--CODEGEN--\":4378:4381   */\n  dup3\n    /* \"--CODEGEN--\":4374:4386   */\n  add\n    /* \"--CODEGEN--\":4367:4386   */\n  swap1\n  pop\n    /* \"--CODEGEN--\":4141:4392   */\n  swap2\n  swap1\n  pop\n  jump\n    /* \"--CODEGEN--\":4401:4799   */\ntag_88:\n  0x00\n    /* \"--CODEGEN--\":4561:4628   */\n  tag_90\n    /* \"--CODEGEN--\":4625:4627   */\n  0x3d\n    /* \"--CODEGEN--\":4620:4623   */\n  dup4\n    /* \"--CODEGEN--\":4561:4628   */\n  jump(tag_87)\ntag_90:\n    /* \"--CODEGEN--\":4554:4628   */\n  swap2\n  pop\n    /* \"--CODEGEN--\":4661:4695   */\n  0x70726f7669646564206465706f73697420616e6420657865637574652066756e\n    /* \"--CODEGEN--\":4657:4658   */\n  0x00\n    /* \"--CODEGEN--\":4652:4655   */\n  dup4\n    /* \"--CODEGEN--\":4648:4659   */\n  add\n    /* \"--CODEGEN--\":4641:4696   */\n  mstore\n    /* \"--CODEGEN--\":4730:4761   */\n  0x6374696f6e207369676e617475726573206c656e206d69736d61746368000000\n    /* \"--CODEGEN--\":4725:4727   */\n  0x20\n    /* \"--CODEGEN--\":4720:4723   */\n  dup4\n    /* \"--CODEGEN--\":4716:4728   */\n  add\n    /* \"--CODEGEN--\":4709:4762   */\n  mstore\n    /* \"--CODEGEN--\":4790:4792   */\n  0x40\n    /* \"--CODEGEN--\":4785:4788   */\n  dup3\n    /* \"--CODEGEN--\":4781:4793   */\n  add\n    /* \"--CODEGEN--\":4774:4793   */\n  swap1\n  pop\n    /* \"--CODEGEN--\":4547:4799   */\n  swap2\n  swap1\n  pop\n  jump\n    /* \"--CODEGEN--\":4808:5209   */\ntag_91:\n  0x00\n    /* \"--CODEGEN--\":4968:5035   */\n  tag_93\n    /* \"--CODEGEN--\":5032:5034   */\n  0x40\n    /* \"--CODEGEN--\":5027:5030   */\n  dup4\n    /* \"--CODEGEN--\":4968:5035   */\n  jump(tag_87)\ntag_93:\n    /* \"--CODEGEN--\":4961:5035   */\n  swap2\n  pop\n    /* \"--CODEGEN--\":5068:5102   */\n  0x70726f766964656420636f6e74726163742061646472657373657320616e6420\n    /* \"--CODEGEN--\":5064:5065   */\n  0x00\n    /* \"--CODEGEN--\":5059:5062   */\n  dup4\n    /* \"--CODEGEN--\":5055:5066   */\n  add\n    /* \"--CODEGEN--\":5048:5103   */\n  mstore\n    /* \"--CODEGEN--\":5137:5171   */\n  0x66756e6374696f6e207369676e617475726573206c656e206d69736d61746368\n    /* \"--CODEGEN--\":5132:5134   */\n  0x20\n    /* \"--CODEGEN--\":5127:5130   */\n  dup4\n    /* \"--CODEGEN--\":5123:5135   */\n  add\n    /* \"--CODEGEN--\":5116:5172   */\n  mstore\n    /* \"--CODEGEN--\":5200:5202   */\n  0x40\n    /* \"--CODEGEN--\":5195:5198   */\n  dup3\n    /* \"--CODEGEN--\":5191:5203   */\n  add\n    /* \"--CODEGEN--\":5184:5203   */\n  swap1\n  pop\n    /* \"--CODEGEN--\":4954:5209   */\n  swap2\n  swap1\n  pop\n  jump\n    /* \"--CODEGEN--\":5217:5624   */\ntag_8:\n  0x00\n    /* \"--CODEGEN--\":5408:5410   */\n  0x20\n    /* \"--CODEGEN--\":5397:5406   */\n  dup3\n    /* \"--CODEGEN--\":5393:5411   */\n  add\n    /* \"--CODEGEN--\":5385:5411   */\n  swap1\n  pop\n    /* \"--CODEGEN--\":5458:5467   */\n  dup2\n    /* \"--CODEGEN--\":5452:5456   */\n  dup2\n    /* \"--CODEGEN--\":5448:5468   */\n  sub\n    /* \"--CODEGEN--\":5444:5445   */\n  0x00\n    /* \"--CODEGEN--\":5433:5442   */\n  dup4\n    /* \"--CODEGEN--\":5429:5446   */\n  add\n    /* \"--CODEGEN--\":5422:5469   */\n  mstore\n    /* \"--CODEGEN--\":5483:5614   */\n  tag_95\n    /* \"--CODEGEN--\":5609:5613   */\n  dup2\n    /* \"--CODEGEN--\":5483:5614   */\n  jump(tag_84)\ntag_95:\n    /* \"--CODEGEN--\":5475:5614   */\n  swap1\n  pop\n    /* \"--CODEGEN--\":5379:5624   */\n  swap2\n  swap1\n  pop\n  jump\n    /* \"--CODEGEN--\":5631:6038   */\ntag_14:\n  0x00\n    /* \"--CODEGEN--\":5822:5824   */\n  0x20\n    /* \"--CODEGEN--\":5811:5820   */\n  dup3\n    /* \"--CODEGEN--\":5807:5825   */\n  add\n    /* \"--CODEGEN--\":5799:5825   */\n  swap1\n  pop\n    /* \"--CODEGEN--\":5872:5881   */\n  dup2\n    /* \"--CODEGEN--\":5866:5870   */\n  dup2\n    /* \"--CODEGEN--\":5862:5882   */\n  sub\n    /* \"--CODEGEN--\":5858:5859   */\n  0x00\n    /* \"--CODEGEN--\":5847:5856   */\n  dup4\n    /* \"--CODEGEN--\":5843:5860   */\n  add\n    /* \"--CODEGEN--\":5836:5883   */\n  mstore\n    /* \"--CODEGEN--\":5897:6028   */\n  tag_97\n    /* \"--CODEGEN--\":6023:6027   */\n  dup2\n    /* \"--CODEGEN--\":5897:6028   */\n  jump(tag_88)\ntag_97:\n    /* \"--CODEGEN--\":5889:6028   */\n  swap1\n  pop\n    /* \"--CODEGEN--\":5793:6038   */\n  swap2\n  swap1\n  pop\n  jump\n    /* \"--CODEGEN--\":6045:6452   */\ntag_11:\n  0x00\n    /* \"--CODEGEN--\":6236:6238   */\n  0x20\n    /* \"--CODEGEN--\":6225:6234   */\n  dup3\n    /* \"--CODEGEN--\":6221:6239   */\n  add\n    /* \"--CODEGEN--\":6213:6239   */\n  swap1\n  pop\n    /* \"--CODEGEN--\":6286:6295   */\n  dup2\n    /* \"--CODEGEN--\":6280:6284   */\n  dup2\n    /* \"--CODEGEN--\":6276:6296   */\n  sub\n    /* \"--CODEGEN--\":6272:6273   */\n  0x00\n    /* \"--CODEGEN--\":6261:6270   */\n  dup4\n    /* \"--CODEGEN--\":6257:6274   */\n  add\n    /* \"--CODEGEN--\":6250:6297   */\n  mstore\n    /* \"--CODEGEN--\":6311:6442   */\n  tag_99\n    /* \"--CODEGEN--\":6437:6441   */\n  dup2\n    /* \"--CODEGEN--\":6311:6442   */\n  jump(tag_91)\ntag_99:\n    /* \"--CODEGEN--\":6303:6442   */\n  swap1\n  pop\n    /* \"--CODEGEN--\":6207:6452   */\n  swap2\n  swap1\n  pop\n  jump\n    /* \"--CODEGEN--\":6459:6715   */\ntag_37:\n  0x00\n    /* \"--CODEGEN--\":6521:6523   */\n  0x40\n    /* \"--CODEGEN--\":6515:6524   */\n  mload\n    /* \"--CODEGEN--\":6505:6524   */\n  swap1\n  pop\n    /* \"--CODEGEN--\":6559:6563   */\n  dup2\n    /* \"--CODEGEN--\":6551:6557   */\n  dup2\n    /* \"--CODEGEN--\":6547:6564   */\n  add\n    /* \"--CODEGEN--\":6658:6664   */\n  dup2\n    /* \"--CODEGEN--\":6646:6656   */\n  dup2\n    /* \"--CODEGEN--\":6643:6665   */\n  lt\n    /* \"--CODEGEN--\":6622:6640   */\n  0xffffffffffffffff\n    /* \"--CODEGEN--\":6610:6620   */\n  dup3\n    /* \"--CODEGEN--\":6607:6641   */\n  gt\n    /* \"--CODEGEN--\":6604:6666   */\n  or\n    /* \"--CODEGEN--\":6601:6603   */\n  iszero\n  tag_101\n  jumpi\n    /* \"--CODEGEN--\":6679:6680   */\n  0x00\n    /* \"--CODEGEN--\":6676:6677   */\n  dup1\n    /* \"--CODEGEN--\":6669:6681   */\n  revert\n    /* \"--CODEGEN--\":6601:6603   */\ntag_101:\n    /* \"--CODEGEN--\":6699:6709   */\n  dup1\n    /* \"--CODEGEN--\":6695:6697   */\n  0x40\n    /* \"--CODEGEN--\":6688:6710   */\n  mstore\n    /* \"--CODEGEN--\":6499:6715   */\n  pop\n  swap2\n  swap1\n  pop\n  jump\n    /* \"--CODEGEN--\":6722:7026   */\ntag_36:\n  0x00\n    /* \"--CODEGEN--\":6881:6899   */\n  0xffffffffffffffff\n    /* \"--CODEGEN--\":6873:6879   */\n  dup3\n    /* \"--CODEGEN--\":6870:6900   */\n  gt\n    /* \"--CODEGEN--\":6867:6869   */\n  iszero\n  tag_103\n  jumpi\n    /* \"--CODEGEN--\":6913:6914   */\n  0x00\n    /* \"--CODEGEN--\":6910:6911   */\n  dup1\n    /* \"--CODEGEN--\":6903:6915   */\n  revert\n    /* \"--CODEGEN--\":6867:6869   */\ntag_103:\n    /* \"--CODEGEN--\":6948:6952   */\n  0x20\n    /* \"--CODEGEN--\":6940:6946   */\n  dup3\n    /* \"--CODEGEN--\":6936:6953   */\n  mul\n    /* \"--CODEGEN--\":6928:6953   */\n  swap1\n  pop\n    /* \"--CODEGEN--\":7011:7015   */\n  0x20\n    /* \"--CODEGEN--\":7005:7009   */\n  dup2\n    /* \"--CODEGEN--\":7001:7016   */\n  add\n    /* \"--CODEGEN--\":6993:7016   */\n  swap1\n  pop\n    /* \"--CODEGEN--\":6804:7026   */\n  swap2\n  swap1\n  pop\n  jump\n    /* \"--CODEGEN--\":7033:7337   */\ntag_48:\n  0x00\n    /* \"--CODEGEN--\":7192:7210   */\n  0xffffffffffffffff\n    /* \"--CODEGEN--\":7184:7190   */\n  dup3\n    /* \"--CODEGEN--\":7181:7211   */\n  gt\n    /* \"--CODEGEN--\":7178:7180   */\n  iszero\n  tag_105\n  jumpi\n    /* \"--CODEGEN--\":7224:7225   */\n  0x00\n    /* \"--CODEGEN--\":7221:7222   */\n  dup1\n    /* \"--CODEGEN--\":7214:7226   */\n  revert\n    /* \"--CODEGEN--\":7178:7180   */\ntag_105:\n    /* \"--CODEGEN--\":7259:7263   */\n  0x20\n    /* \"--CODEGEN--\":7251:7257   */\n  dup3\n    /* \"--CODEGEN--\":7247:7264   */\n  mul\n    /* \"--CODEGEN--\":7239:7264   */\n  swap1\n  pop\n    /* \"--CODEGEN--\":7322:7326   */\n  0x20\n    /* \"--CODEGEN--\":7316:7320   */\n  dup2\n    /* \"--CODEGEN--\":7312:7327   */\n  add\n    /* \"--CODEGEN--\":7304:7327   */\n  swap1\n  pop\n    /* \"--CODEGEN--\":7115:7337   */\n  swap2\n  swap1\n  pop\n  jump\n    /* \"--CODEGEN--\":7344:7647   */\ntag_60:\n  0x00\n    /* \"--CODEGEN--\":7502:7520   */\n  0xffffffffffffffff\n    /* \"--CODEGEN--\":7494:7500   */\n  dup3\n    /* \"--CODEGEN--\":7491:7521   */\n  gt\n    /* \"--CODEGEN--\":7488:7490   */\n  iszero\n  tag_107\n  jumpi\n    /* \"--CODEGEN--\":7534:7535   */\n  0x00\n    /* \"--CODEGEN--\":7531:7532   */\n  dup1\n    /* \"--CODEGEN--\":7524:7536   */\n  revert\n    /* \"--CODEGEN--\":7488:7490   */\ntag_107:\n    /* \"--CODEGEN--\":7569:7573   */\n  0x20\n    /* \"--CODEGEN--\":7561:7567   */\n  dup3\n    /* \"--CODEGEN--\":7557:7574   */\n  mul\n    /* \"--CODEGEN--\":7549:7574   */\n  swap1\n  pop\n    /* \"--CODEGEN--\":7632:7636   */\n  0x20\n    /* \"--CODEGEN--\":7626:7630   */\n  dup2\n    /* \"--CODEGEN--\":7622:7637   */\n  add\n    /* \"--CODEGEN--\":7614:7637   */\n  swap1\n  pop\n    /* \"--CODEGEN--\":7425:7647   */\n  swap2\n  swap1\n  pop\n  jump\n    /* \"--CODEGEN--\":7655:7818   */\ntag_87:\n  0x00\n    /* \"--CODEGEN--\":7770:7776   */\n  dup3\n    /* \"--CODEGEN--\":7765:7768   */\n  dup3\n    /* \"--CODEGEN--\":7758:7777   */\n  mstore\n    /* \"--CODEGEN--\":7807:7811   */\n  0x20\n    /* \"--CODEGEN--\":7802:7805   */\n  dup3\n    /* \"--CODEGEN--\":7798:7812   */\n  add\n    /* \"--CODEGEN--\":7783:7812   */\n  swap1\n  pop\n    /* \"--CODEGEN--\":7751:7818   */\n  swap3\n  swap2\n  pop\n  pop\n  jump\n    /* \"--CODEGEN--\":7826:7917   */\ntag_109:\n  0x00\n    /* \"--CODEGEN--\":7888:7912   */\n  tag_111\n    /* \"--CODEGEN--\":7906:7911   */\n  dup3\n    /* \"--CODEGEN--\":7888:7912   */\n  jump(tag_112)\ntag_111:\n    /* \"--CODEGEN--\":7877:7912   */\n  swap1\n  pop\n    /* \"--CODEGEN--\":7871:7917   */\n  swap2\n  swap1\n  pop\n  jump\n    /* \"--CODEGEN--\":7924:7996   */\ntag_113:\n  0x00\n    /* \"--CODEGEN--\":7986:7991   */\n  dup2\n    /* \"--CODEGEN--\":7975:7991   */\n  swap1\n  pop\n    /* \"--CODEGEN--\":7969:7996   */\n  swap2\n  swap1\n  pop\n  jump\n    /* \"--CODEGEN--\":8003:8147   */\ntag_115:\n  0x00\n    /* \"--CODEGEN--\":8075:8141   */\n  0xffffffff00000000000000000000000000000000000000000000000000000000\n    /* \"--CODEGEN--\":8068:8073   */\n  dup3\n    /* \"--CODEGEN--\":8064:8142   */\n  and\n    /* \"--CODEGEN--\":8053:8142   */\n  swap1\n  pop\n    /* \"--CODEGEN--\":8047:8147   */\n  swap2\n  swap1\n  pop\n  jump\n    /* \"--CODEGEN--\":8154:8275   */\ntag_112:\n  0x00\n    /* \"--CODEGEN--\":8227:8269   */\n  0xffffffffffffffffffffffffffffffffffffffff\n    /* \"--CODEGEN--\":8220:8225   */\n  dup3\n    /* \"--CODEGEN--\":8216:8270   */\n  and\n    /* \"--CODEGEN--\":8205:8270   */\n  swap1\n  pop\n    /* \"--CODEGEN--\":8199:8275   */\n  swap2\n  swap1\n  pop\n  jump\n    /* \"--CODEGEN--\":8282:8399   */\ntag_30:\n    /* \"--CODEGEN--\":8351:8375   */\n  tag_119\n    /* \"--CODEGEN--\":8369:8374   */\n  dup2\n    /* \"--CODEGEN--\":8351:8375   */\n  jump(tag_109)\ntag_119:\n    /* \"--CODEGEN--\":8344:8349   */\n  dup2\n    /* \"--CODEGEN--\":8341:8376   */\n  eq\n    /* \"--CODEGEN--\":8331:8333   */\n  tag_120\n  jumpi\n    /* \"--CODEGEN--\":8390:8391   */\n  0x00\n    /* \"--CODEGEN--\":8387:8388   */\n  dup1\n    /* \"--CODEGEN--\":8380:8392   */\n  revert\n    /* \"--CODEGEN--\":8331:8333   */\ntag_120:\n    /* \"--CODEGEN--\":8325:8399   */\n  pop\n  jump\n    /* \"--CODEGEN--\":8406:8523   */\ntag_69:\n    /* \"--CODEGEN--\":8475:8499   */\n  tag_122\n    /* \"--CODEGEN--\":8493:8498   */\n  dup2\n    /* \"--CODEGEN--\":8475:8499   */\n  jump(tag_113)\ntag_122:\n    /* \"--CODEGEN--\":8468:8473   */\n  dup2\n    /* \"--CODEGEN--\":8465:8500   */\n  eq\n    /* \"--CODEGEN--\":8455:8457   */\n  tag_123\n  jumpi\n    /* \"--CODEGEN--\":8514:8515   */\n  0x00\n    /* \"--CODEGEN--\":8511:8512   */\n  dup1\n    /* \"--CODEGEN--\":8504:8516   */\n  revert\n    /* \"--CODEGEN--\":8455:8457   */\ntag_123:\n    /* \"--CODEGEN--\":8449:8523   */\n  pop\n  jump\n    /* \"--CODEGEN--\":8530:8645   */\ntag_72:\n    /* \"--CODEGEN--\":8598:8621   */\n  tag_125\n    /* \"--CODEGEN--\":8615:8620   */\n  dup2\n    /* \"--CODEGEN--\":8598:8621   */\n  jump(tag_115)\ntag_125:\n    /* \"--CODEGEN--\":8591:8596   */\n  dup2\n    /* \"--CODEGEN--\":8588:8622   */\n  eq\n    /* \"--CODEGEN--\":8578:8580   */\n  tag_126\n  jumpi\n    /* \"--CODEGEN--\":8636:8637   */\n  0x00\n    /* \"--CODEGEN--\":8633:8634   */\n  dup1\n    /* \"--CODEGEN--\":8626:8638   */\n  revert\n    /* \"--CODEGEN--\":8578:8580   */\ntag_126:\n    /* \"--CODEGEN--\":8572:8645   */\n  pop\n  jump\n    /* \"contracts/handlers/GenericHandler.sol\":277:10993  contract GenericHandler is IGenericHandler {... */\ntag_24:\n  dataSize(sub_0)\n  dup1\n  dataOffset(sub_0)\n  0x00\n  codecopy\n  0x00\n  return\nstop\n\nsub_0: assembly {\n        /* \"contracts/handlers/GenericHandler.sol\":277:10993  contract GenericHandler is IGenericHandler {... */\n      mstore(0x40, 0x80)\n      callvalue\n        /* \"--CODEGEN--\":5:14   */\n      dup1\n        /* \"--CODEGEN--\":2:4   */\n      iszero\n      tag_1\n      jumpi\n        /* \"--CODEGEN--\":27:28   */\n      0x00\n        /* \"--CODEGEN--\":24:25   */\n      dup1\n        /* \"--CODEGEN--\":17:29   */\n      revert\n        /* \"--CODEGEN--\":2:4   */\n    tag_1:\n        /* \"contracts/handlers/GenericHandler.sol\":277:10993  contract GenericHandler is IGenericHandler {... */\n      pop\n      jumpi(tag_2, lt(calldatasize, 0x04))\n      shr(0xe0, calldataload(0x00))\n      dup1\n      0xba484c09\n      gt\n      tag_14\n      jumpi\n      dup1\n      0xba484c09\n      eq\n      tag_8\n      jumpi\n      dup1\n      0xbba8185a\n      eq\n      tag_9\n      jumpi\n      dup1\n      0xc54c2a11\n      eq\n      tag_10\n      jumpi\n      dup1\n      0xcb624463\n      eq\n      tag_11\n      jumpi\n      dup1\n      0xe248cff2\n      eq\n      tag_12\n      jumpi\n      dup1\n      0xec97d3b4\n      eq\n      tag_13\n      jumpi\n      jump(tag_2)\n    tag_14:\n      dup1\n      0x318c136e\n      eq\n      tag_3\n      jumpi\n      dup1\n      0x38995da9\n      eq\n      tag_4\n      jumpi\n      dup1\n      0x4402027f\n      eq\n      tag_5\n      jumpi\n      dup1\n      0x7f79bea8\n      eq\n      tag_6\n      jumpi\n      dup1\n      0xa5c3a985\n      eq\n      tag_7\n      jumpi\n    tag_2:\n        /* \"--CODEGEN--\":12:13   */\n      0x00\n        /* \"--CODEGEN--\":9:10   */\n      dup1\n        /* \"--CODEGEN--\":2:14   */\n      revert\n        /* \"contracts/handlers/GenericHandler.sol\":326:355  address public _bridgeAddress */\n    tag_3:\n      tag_15\n      tag_16\n      jump\t// in\n    tag_15:\n      mload(0x40)\n      tag_17\n      swap2\n      swap1\n      jump(tag_18)\n    tag_17:\n      mload(0x40)\n      dup1\n      swap2\n      sub\n      swap1\n      return\n        /* \"contracts/handlers/GenericHandler.sol\":6745:8387  function deposit(bytes32 resourceID, uint8 destinationChainID, uint64 depositNonce, address depositer, bytes calldata data) external onlyBridge {... */\n    tag_4:\n      tag_19\n      0x04\n      dup1\n      calldatasize\n      sub\n      dup2\n      add\n      swap1\n      tag_20\n      swap2\n      swap1\n      jump(tag_21)\n    tag_20:\n      tag_22\n      jump\t// in\n    tag_19:\n      stop\n        /* \"contracts/handlers/GenericHandler.sol\":555:629  mapping (uint8 => mapping(uint64 => DepositRecord)) public _depositRecords */\n    tag_5:\n      tag_23\n      0x04\n      dup1\n      calldatasize\n      sub\n      dup2\n      add\n      swap1\n      tag_24\n      swap2\n      swap1\n      jump(tag_25)\n    tag_24:\n      tag_26\n      jump\t// in\n    tag_23:\n      mload(0x40)\n      tag_27\n      swap5\n      swap4\n      swap3\n      swap2\n      swap1\n      jump(tag_28)\n    tag_27:\n      mload(0x40)\n      dup1\n      swap2\n      sub\n      swap1\n      return\n        /* \"contracts/handlers/GenericHandler.sol\":1187:1238  mapping (address => bool) public _contractWhitelist */\n    tag_6:\n      tag_29\n      0x04\n      dup1\n      calldatasize\n      sub\n      dup2\n      add\n      swap1\n      tag_30\n      swap2\n      swap1\n      jump(tag_31)\n    tag_30:\n      tag_32\n      jump\t// in\n    tag_29:\n      mload(0x40)\n      tag_33\n      swap2\n      swap1\n      jump(tag_34)\n    tag_33:\n      mload(0x40)\n      dup1\n      swap2\n      sub\n      swap1\n      return\n        /* \"contracts/handlers/GenericHandler.sol\":1055:1132  mapping (address => bytes4) public _contractAddressToExecuteFunctionSignature */\n    tag_7:\n      tag_35\n      0x04\n      dup1\n      calldatasize\n      sub\n      dup2\n      add\n      swap1\n      tag_36\n      swap2\n      swap1\n      jump(tag_31)\n    tag_36:\n      tag_37\n      jump\t// in\n    tag_35:\n      mload(0x40)\n      tag_38\n      swap2\n      swap1\n      jump(tag_39)\n    tag_38:\n      mload(0x40)\n      dup1\n      swap2\n      sub\n      swap1\n      return\n        /* \"contracts/handlers/GenericHandler.sol\":4408:4575  function getDepositRecord(uint64 depositNonce, uint8 destId) external view returns (DepositRecord memory) {... */\n    tag_8:\n      tag_40\n      0x04\n      dup1\n      calldatasize\n      sub\n      dup2\n      add\n      swap1\n      tag_41\n      swap2\n      swap1\n      jump(tag_42)\n    tag_41:\n      tag_43\n      jump\t// in\n    tag_40:\n      mload(0x40)\n      tag_44\n      swap2\n      swap1\n      jump(tag_45)\n    tag_44:\n      mload(0x40)\n      dup1\n      swap2\n      sub\n      swap1\n      return\n        /* \"contracts/handlers/GenericHandler.sol\":5543:5829  function setResource(... */\n    tag_9:\n      tag_46\n      0x04\n      dup1\n      calldatasize\n      sub\n      dup2\n      add\n      swap1\n      tag_47\n      swap2\n      swap1\n      jump(tag_48)\n    tag_47:\n      tag_49\n      jump\t// in\n    tag_46:\n      stop\n        /* \"contracts/handlers/GenericHandler.sol\":674:738  mapping (bytes32 => address) public _resourceIDToContractAddress */\n    tag_10:\n      tag_50\n      0x04\n      dup1\n      calldatasize\n      sub\n      dup2\n      add\n      swap1\n      tag_51\n      swap2\n      swap1\n      jump(tag_52)\n    tag_51:\n      tag_53\n      jump\t// in\n    tag_50:\n      mload(0x40)\n      tag_54\n      swap2\n      swap1\n      jump(tag_18)\n    tag_54:\n      mload(0x40)\n      dup1\n      swap2\n      sub\n      swap1\n      return\n        /* \"contracts/handlers/GenericHandler.sol\":908:985  mapping (address => bytes4) public _contractAddressToDepositFunctionSignature */\n    tag_11:\n      tag_55\n      0x04\n      dup1\n      calldatasize\n      sub\n      dup2\n      add\n      swap1\n      tag_56\n      swap2\n      swap1\n      jump(tag_31)\n    tag_56:\n      tag_57\n      jump\t// in\n    tag_55:\n      mload(0x40)\n      tag_58\n      swap2\n      swap1\n      jump(tag_39)\n    tag_58:\n      mload(0x40)\n      dup1\n      swap2\n      sub\n      swap1\n      return\n        /* \"contracts/handlers/GenericHandler.sol\":9050:10441  function executeProposal(bytes32 resourceID, bytes calldata data) external onlyBridge {... */\n    tag_12:\n      tag_59\n      0x04\n      dup1\n      calldatasize\n      sub\n      dup2\n      add\n      swap1\n      tag_60\n      swap2\n      swap1\n      jump(tag_61)\n    tag_60:\n      tag_62\n      jump\t// in\n    tag_59:\n      stop\n        /* \"contracts/handlers/GenericHandler.sol\":783:847  mapping (address => bytes32) public _contractAddressToResourceID */\n    tag_13:\n      tag_63\n      0x04\n      dup1\n      calldatasize\n      sub\n      dup2\n      add\n      swap1\n      tag_64\n      swap2\n      swap1\n      jump(tag_31)\n    tag_64:\n      tag_65\n      jump\t// in\n    tag_63:\n      mload(0x40)\n      tag_66\n      swap2\n      swap1\n      jump(tag_67)\n    tag_66:\n      mload(0x40)\n      dup1\n      swap2\n      sub\n      swap1\n      return\n        /* \"contracts/handlers/GenericHandler.sol\":326:355  address public _bridgeAddress */\n    tag_16:\n      0x00\n      dup1\n      swap1\n      sload\n      swap1\n      0x0100\n      exp\n      swap1\n      div\n      0xffffffffffffffffffffffffffffffffffffffff\n      and\n      dup2\n      jump\t// out\n        /* \"contracts/handlers/GenericHandler.sol\":6745:8387  function deposit(bytes32 resourceID, uint8 destinationChainID, uint64 depositNonce, address depositer, bytes calldata data) external onlyBridge {... */\n    tag_22:\n        /* \"contracts/handlers/GenericHandler.sol\":1277:1290  _onlyBridge() */\n      tag_69\n        /* \"contracts/handlers/GenericHandler.sol\":1277:1288  _onlyBridge */\n      tag_70\n        /* \"contracts/handlers/GenericHandler.sol\":1277:1290  _onlyBridge() */\n      jump\t// in\n    tag_69:\n        /* \"contracts/handlers/GenericHandler.sol\":6899:6923  bytes32      lenMetadata */\n      0x00\n        /* \"contracts/handlers/GenericHandler.sol\":6933:6954  bytes memory metadata */\n      0x60\n        /* \"contracts/handlers/GenericHandler.sol\":7071:7075  0xC4 */\n      0xc4\n        /* \"contracts/handlers/GenericHandler.sol\":7058:7076  calldataload(0xC4) */\n      calldataload\n        /* \"contracts/handlers/GenericHandler.sol\":7042:7076  lenMetadata  := calldataload(0xC4) */\n      swap2\n      pop\n        /* \"contracts/handlers/GenericHandler.sol\":7147:7151  0x40 */\n      0x40\n        /* \"contracts/handlers/GenericHandler.sol\":7141:7152  mload(0x40) */\n      mload\n        /* \"contracts/handlers/GenericHandler.sol\":7129:7152  metadata := mload(0x40) */\n      swap1\n      pop\n        /* \"contracts/handlers/GenericHandler.sol\":7203:7214  lenMetadata */\n      dup2\n        /* \"contracts/handlers/GenericHandler.sol\":7193:7201  metadata */\n      dup2\n        /* \"contracts/handlers/GenericHandler.sol\":7189:7215  add(metadata, lenMetadata) */\n      add\n        /* \"contracts/handlers/GenericHandler.sol\":7183:7187  0x20 */\n      0x20\n        /* \"contracts/handlers/GenericHandler.sol\":7179:7216  add(0x20, add(metadata, lenMetadata)) */\n      add\n        /* \"contracts/handlers/GenericHandler.sol\":7173:7177  0x40 */\n      0x40\n        /* \"contracts/handlers/GenericHandler.sol\":7166:7217  mstore(0x40, add(0x20, add(metadata, lenMetadata))) */\n      mstore\n        /* \"contracts/handlers/GenericHandler.sol\":7587:7591  0xC4 */\n      0xc4\n        /* \"contracts/handlers/GenericHandler.sol\":7571:7585  calldatasize() */\n      calldatasize\n        /* \"contracts/handlers/GenericHandler.sol\":7567:7592  sub(calldatasize(), 0xC4) */\n      sub\n        /* \"contracts/handlers/GenericHandler.sol\":7483:7487  0xC4 */\n      0xc4\n        /* \"contracts/handlers/GenericHandler.sol\":7437:7445  metadata */\n      dup3\n        /* \"contracts/handlers/GenericHandler.sol\":7407:7678  calldatacopy(... */\n      calldatacopy\n        /* \"contracts/handlers/GenericHandler.sol\":7698:7721  address contractAddress */\n      0x00\n        /* \"contracts/handlers/GenericHandler.sol\":7724:7752  _resourceIDToContractAddress */\n      0x02\n        /* \"contracts/handlers/GenericHandler.sol\":7724:7764  _resourceIDToContractAddress[resourceID] */\n      0x00\n        /* \"contracts/handlers/GenericHandler.sol\":7753:7763  resourceID */\n      dup11\n        /* \"contracts/handlers/GenericHandler.sol\":7724:7764  _resourceIDToContractAddress[resourceID] */\n      dup2\n      mstore\n      0x20\n      add\n      swap1\n      dup2\n      mstore\n      0x20\n      add\n      0x00\n      keccak256\n      0x00\n      swap1\n      sload\n      swap1\n      0x0100\n      exp\n      swap1\n      div\n      0xffffffffffffffffffffffffffffffffffffffff\n      and\n        /* \"contracts/handlers/GenericHandler.sol\":7698:7764  address contractAddress = _resourceIDToContractAddress[resourceID] */\n      swap1\n      pop\n        /* \"contracts/handlers/GenericHandler.sol\":7782:7800  _contractWhitelist */\n      0x06\n        /* \"contracts/handlers/GenericHandler.sol\":7782:7817  _contractWhitelist[contractAddress] */\n      0x00\n        /* \"contracts/handlers/GenericHandler.sol\":7801:7816  contractAddress */\n      dup3\n        /* \"contracts/handlers/GenericHandler.sol\":7782:7817  _contractWhitelist[contractAddress] */\n      0xffffffffffffffffffffffffffffffffffffffff\n      and\n      0xffffffffffffffffffffffffffffffffffffffff\n      and\n      dup2\n      mstore\n      0x20\n      add\n      swap1\n      dup2\n      mstore\n      0x20\n      add\n      0x00\n      keccak256\n      0x00\n      swap1\n      sload\n      swap1\n      0x0100\n      exp\n      swap1\n      div\n      0xff\n      and\n        /* \"contracts/handlers/GenericHandler.sol\":7774:7865  require(_contractWhitelist[contractAddress], \"provided contractAddress is not whitelisted\") */\n      tag_72\n      jumpi\n      mload(0x40)\n      0x08c379a000000000000000000000000000000000000000000000000000000000\n      dup2\n      mstore\n      0x04\n      add\n      tag_73\n      swap1\n      jump(tag_74)\n    tag_73:\n      mload(0x40)\n      dup1\n      swap2\n      sub\n      swap1\n      revert\n    tag_72:\n        /* \"contracts/handlers/GenericHandler.sol\":7876:7886  bytes4 sig */\n      0x00\n        /* \"contracts/handlers/GenericHandler.sol\":7889:7931  _contractAddressToDepositFunctionSignature */\n      0x04\n        /* \"contracts/handlers/GenericHandler.sol\":7889:7948  _contractAddressToDepositFunctionSignature[contractAddress] */\n      0x00\n        /* \"contracts/handlers/GenericHandler.sol\":7932:7947  contractAddress */\n      dup4\n        /* \"contracts/handlers/GenericHandler.sol\":7889:7948  _contractAddressToDepositFunctionSignature[contractAddress] */\n      0xffffffffffffffffffffffffffffffffffffffff\n      and\n      0xffffffffffffffffffffffffffffffffffffffff\n      and\n      dup2\n      mstore\n      0x20\n      add\n      swap1\n      dup2\n      mstore\n      0x20\n      add\n      0x00\n      keccak256\n      0x00\n      swap1\n      sload\n      swap1\n      0x0100\n      exp\n      swap1\n      div\n      0xe0\n      shl\n        /* \"contracts/handlers/GenericHandler.sol\":7876:7948  bytes4 sig = _contractAddressToDepositFunctionSignature[contractAddress] */\n      swap1\n      pop\n        /* \"contracts/handlers/GenericHandler.sol\":7976:7977  0 */\n      0x00\n        /* \"contracts/handlers/GenericHandler.sol\":7969:7978  bytes4(0) */\n      0xe0\n      shl\n        /* \"contracts/handlers/GenericHandler.sol\":7962:7978  sig != bytes4(0) */\n      not(0xffffffffffffffffffffffffffffffffffffffffffffffffffffffff)\n      and\n        /* \"contracts/handlers/GenericHandler.sol\":7962:7965  sig */\n      dup2\n        /* \"contracts/handlers/GenericHandler.sol\":7962:7978  sig != bytes4(0) */\n      not(0xffffffffffffffffffffffffffffffffffffffffffffffffffffffff)\n      and\n      eq\n        /* \"contracts/handlers/GenericHandler.sol\":7958:8194  if (sig != bytes4(0)) {... */\n      tag_75\n      jumpi\n        /* \"contracts/handlers/GenericHandler.sol\":7994:8015  bytes memory callData */\n      0x60\n        /* \"contracts/handlers/GenericHandler.sol\":8035:8038  sig */\n      dup2\n        /* \"contracts/handlers/GenericHandler.sol\":8040:8048  metadata */\n      dup5\n        /* \"contracts/handlers/GenericHandler.sol\":8018:8049  abi.encodePacked(sig, metadata) */\n      add(0x20, mload(0x40))\n      tag_76\n      swap3\n      swap2\n      swap1\n      jump(tag_77)\n    tag_76:\n      mload(0x40)\n        /* \"--CODEGEN--\":49:53   */\n      0x20\n        /* \"--CODEGEN--\":39:46   */\n      dup2\n        /* \"--CODEGEN--\":30:37   */\n      dup4\n        /* \"--CODEGEN--\":26:47   */\n      sub\n        /* \"--CODEGEN--\":22:54   */\n      sub\n        /* \"--CODEGEN--\":13:20   */\n      dup2\n        /* \"--CODEGEN--\":6:55   */\n      mstore\n        /* \"contracts/handlers/GenericHandler.sol\":8018:8049  abi.encodePacked(sig, metadata) */\n      swap1\n      0x40\n      mstore\n        /* \"contracts/handlers/GenericHandler.sol\":7994:8049  bytes memory callData = abi.encodePacked(sig, metadata) */\n      swap1\n      pop\n        /* \"contracts/handlers/GenericHandler.sol\":8064:8076  bool success */\n      0x00\n        /* \"contracts/handlers/GenericHandler.sol\":8081:8096  contractAddress */\n      dup4\n        /* \"contracts/handlers/GenericHandler.sol\":8081:8101  contractAddress.call */\n      0xffffffffffffffffffffffffffffffffffffffff\n      and\n        /* \"contracts/handlers/GenericHandler.sol\":8102:8110  callData */\n      dup3\n        /* \"contracts/handlers/GenericHandler.sol\":8081:8111  contractAddress.call(callData) */\n      mload(0x40)\n      tag_78\n      swap2\n      swap1\n      jump(tag_79)\n    tag_78:\n      0x00\n      mload(0x40)\n      dup1\n      dup4\n      sub\n      dup2\n      0x00\n      dup7\n      gas\n      call\n      swap2\n      pop\n      pop\n      returndatasize\n        /* \"--CODEGEN--\":12:13   */\n      dup1\n        /* \"--CODEGEN--\":19:20   */\n      0x00\n        /* \"--CODEGEN--\":14:41   */\n      dup2\n      eq\n      tag_82\n      jumpi\n        /* \"--CODEGEN--\":67:71   */\n      0x40\n        /* \"--CODEGEN--\":61:72   */\n      mload\n        /* \"--CODEGEN--\":56:72   */\n      swap2\n      pop\n        /* \"--CODEGEN--\":134:138   */\n      0x1f\n        /* \"--CODEGEN--\":130:139   */\n      not\n        /* \"--CODEGEN--\":123:127   */\n      0x3f\n        /* \"--CODEGEN--\":105:121   */\n      returndatasize\n        /* \"--CODEGEN--\":101:128   */\n      add\n        /* \"--CODEGEN--\":97:140   */\n      and\n        /* \"--CODEGEN--\":94:95   */\n      dup3\n        /* \"--CODEGEN--\":90:141   */\n      add\n        /* \"--CODEGEN--\":84:88   */\n      0x40\n        /* \"--CODEGEN--\":77:142   */\n      mstore\n        /* \"--CODEGEN--\":157:173   */\n      returndatasize\n        /* \"--CODEGEN--\":154:155   */\n      dup3\n        /* \"--CODEGEN--\":147:174   */\n      mstore\n        /* \"--CODEGEN--\":211:227   */\n      returndatasize\n        /* \"--CODEGEN--\":208:209   */\n      0x00\n        /* \"--CODEGEN--\":201:205   */\n      0x20\n        /* \"--CODEGEN--\":198:199   */\n      dup5\n        /* \"--CODEGEN--\":194:206   */\n      add\n        /* \"--CODEGEN--\":179:228   */\n      returndatacopy\n        /* \"--CODEGEN--\":5:233   */\n      jump(tag_81)\n        /* \"--CODEGEN--\":14:41   */\n    tag_82:\n        /* \"--CODEGEN--\":32:36   */\n      0x60\n        /* \"--CODEGEN--\":27:36   */\n      swap2\n      pop\n        /* \"--CODEGEN--\":5:233   */\n    tag_81:\n      pop\n        /* \"contracts/handlers/GenericHandler.sol\":8063:8111  (bool success,) = contractAddress.call(callData) */\n      pop\n      swap1\n      pop\n        /* \"contracts/handlers/GenericHandler.sol\":8133:8140  success */\n      dup1\n        /* \"contracts/handlers/GenericHandler.sol\":8125:8183  require(success, \"delegatecall to contractAddress failed\") */\n      tag_83\n      jumpi\n      mload(0x40)\n      0x08c379a000000000000000000000000000000000000000000000000000000000\n      dup2\n      mstore\n      0x04\n      add\n      tag_84\n      swap1\n      jump(tag_85)\n    tag_84:\n      mload(0x40)\n      dup1\n      swap2\n      sub\n      swap1\n      revert\n    tag_83:\n        /* \"contracts/handlers/GenericHandler.sol\":7958:8194  if (sig != bytes4(0)) {... */\n      pop\n      pop\n    tag_75:\n        /* \"contracts/handlers/GenericHandler.sol\":8256:8380  DepositRecord(... */\n      mload(0x40)\n      dup1\n      0x80\n      add\n      0x40\n      mstore\n      dup1\n        /* \"contracts/handlers/GenericHandler.sol\":8283:8301  destinationChainID */\n      dup11\n        /* \"contracts/handlers/GenericHandler.sol\":8256:8380  DepositRecord(... */\n      0xff\n      and\n      dup2\n      mstore\n      0x20\n      add\n        /* \"contracts/handlers/GenericHandler.sol\":8315:8324  depositer */\n      dup9\n        /* \"contracts/handlers/GenericHandler.sol\":8256:8380  DepositRecord(... */\n      0xffffffffffffffffffffffffffffffffffffffff\n      and\n      dup2\n      mstore\n      0x20\n      add\n        /* \"contracts/handlers/GenericHandler.sol\":8338:8348  resourceID */\n      dup12\n        /* \"contracts/handlers/GenericHandler.sol\":8256:8380  DepositRecord(... */\n      dup2\n      mstore\n      0x20\n      add\n        /* \"contracts/handlers/GenericHandler.sol\":8362:8370  metadata */\n      dup5\n        /* \"contracts/handlers/GenericHandler.sol\":8256:8380  DepositRecord(... */\n      dup2\n      mstore\n      pop\n        /* \"contracts/handlers/GenericHandler.sol\":8204:8219  _depositRecords */\n      0x01\n        /* \"contracts/handlers/GenericHandler.sol\":8204:8239  _depositRecords[destinationChainID] */\n      0x00\n        /* \"contracts/handlers/GenericHandler.sol\":8220:8238  destinationChainID */\n      dup12\n        /* \"contracts/handlers/GenericHandler.sol\":8204:8239  _depositRecords[destinationChainID] */\n      0xff\n      and\n      0xff\n      and\n      dup2\n      mstore\n      0x20\n      add\n      swap1\n      dup2\n      mstore\n      0x20\n      add\n      0x00\n      keccak256\n        /* \"contracts/handlers/GenericHandler.sol\":8204:8253  _depositRecords[destinationChainID][depositNonce] */\n      0x00\n        /* \"contracts/handlers/GenericHandler.sol\":8240:8252  depositNonce */\n      dup11\n        /* \"contracts/handlers/GenericHandler.sol\":8204:8253  _depositRecords[destinationChainID][depositNonce] */\n      0xffffffffffffffff\n      and\n      0xffffffffffffffff\n      and\n      dup2\n      mstore\n      0x20\n      add\n      swap1\n      dup2\n      mstore\n      0x20\n      add\n      0x00\n      keccak256\n        /* \"contracts/handlers/GenericHandler.sol\":8204:8380  _depositRecords[destinationChainID][depositNonce] = DepositRecord(... */\n      0x00\n      dup3\n      add\n      mload\n      dup2\n      0x00\n      add\n      exp(0x0100, 0x00)\n      dup2\n      sload\n      dup2\n      0xff\n      mul\n      not\n      and\n      swap1\n      dup4\n      0xff\n      and\n      mul\n      or\n      swap1\n      sstore\n      pop\n      0x20\n      dup3\n      add\n      mload\n      dup2\n      0x00\n      add\n      exp(0x0100, 0x01)\n      dup2\n      sload\n      dup2\n      0xffffffffffffffffffffffffffffffffffffffff\n      mul\n      not\n      and\n      swap1\n      dup4\n      0xffffffffffffffffffffffffffffffffffffffff\n      and\n      mul\n      or\n      swap1\n      sstore\n      pop\n      0x40\n      dup3\n      add\n      mload\n      dup2\n      0x01\n      add\n      sstore\n      0x60\n      dup3\n      add\n      mload\n      dup2\n      0x02\n      add\n      swap1\n      dup1\n      mload\n      swap1\n      0x20\n      add\n      swap1\n      tag_86\n      swap3\n      swap2\n      swap1\n      tag_87\n      jump\t// in\n    tag_86:\n      pop\n      swap1\n      pop\n      pop\n        /* \"contracts/handlers/GenericHandler.sol\":1300:1301  _ */\n      pop\n      pop\n      pop\n      pop\n        /* \"contracts/handlers/GenericHandler.sol\":6745:8387  function deposit(bytes32 resourceID, uint8 destinationChainID, uint64 depositNonce, address depositer, bytes calldata data) external onlyBridge {... */\n      pop\n      pop\n      pop\n      pop\n      pop\n      pop\n      jump\t// out\n        /* \"contracts/handlers/GenericHandler.sol\":555:629  mapping (uint8 => mapping(uint64 => DepositRecord)) public _depositRecords */\n    tag_26:\n      mstore(0x20, 0x01)\n      dup2\n      0x00\n      mstore\n      mstore(0x20, keccak256(0x00, 0x40))\n      dup1\n      0x00\n      mstore\n      keccak256(0x00, 0x40)\n      0x00\n      swap2\n      pop\n      swap2\n      pop\n      pop\n      dup1\n      0x00\n      add\n      0x00\n      swap1\n      sload\n      swap1\n      0x0100\n      exp\n      swap1\n      div\n      0xff\n      and\n      swap1\n      dup1\n      0x00\n      add\n      0x01\n      swap1\n      sload\n      swap1\n      0x0100\n      exp\n      swap1\n      div\n      0xffffffffffffffffffffffffffffffffffffffff\n      and\n      swap1\n      dup1\n      0x01\n      add\n      sload\n      swap1\n      dup1\n      0x02\n      add\n      dup1\n      sload\n      0x01\n      dup2\n      0x01\n      and\n      iszero\n      0x0100\n      mul\n      sub\n      and\n      0x02\n      swap1\n      div\n      dup1\n      0x1f\n      add\n      0x20\n      dup1\n      swap2\n      div\n      mul\n      0x20\n      add\n      mload(0x40)\n      swap1\n      dup2\n      add\n      0x40\n      mstore\n      dup1\n      swap3\n      swap2\n      swap1\n      dup2\n      dup2\n      mstore\n      0x20\n      add\n      dup3\n      dup1\n      sload\n      0x01\n      dup2\n      0x01\n      and\n      iszero\n      0x0100\n      mul\n      sub\n      and\n      0x02\n      swap1\n      div\n      dup1\n      iszero\n      tag_88\n      jumpi\n      dup1\n      0x1f\n      lt\n      tag_89\n      jumpi\n      0x0100\n      dup1\n      dup4\n      sload\n      div\n      mul\n      dup4\n      mstore\n      swap2\n      0x20\n      add\n      swap2\n      jump(tag_88)\n    tag_89:\n      dup3\n      add\n      swap2\n      swap1\n      0x00\n      mstore\n      keccak256(0x00, 0x20)\n      swap1\n    tag_90:\n      dup2\n      sload\n      dup2\n      mstore\n      swap1\n      0x01\n      add\n      swap1\n      0x20\n      add\n      dup1\n      dup4\n      gt\n      tag_90\n      jumpi\n      dup3\n      swap1\n      sub\n      0x1f\n      and\n      dup3\n      add\n      swap2\n    tag_88:\n      pop\n      pop\n      pop\n      pop\n      pop\n      swap1\n      pop\n      dup5\n      jump\t// out\n        /* \"contracts/handlers/GenericHandler.sol\":1187:1238  mapping (address => bool) public _contractWhitelist */\n    tag_32:\n      mstore(0x20, 0x06)\n      dup1\n      0x00\n      mstore\n      keccak256(0x00, 0x40)\n      0x00\n      swap2\n      pop\n      sload\n      swap1\n      0x0100\n      exp\n      swap1\n      div\n      0xff\n      and\n      dup2\n      jump\t// out\n        /* \"contracts/handlers/GenericHandler.sol\":1055:1132  mapping (address => bytes4) public _contractAddressToExecuteFunctionSignature */\n    tag_37:\n      mstore(0x20, 0x05)\n      dup1\n      0x00\n      mstore\n      keccak256(0x00, 0x40)\n      0x00\n      swap2\n      pop\n      sload\n      swap1\n      0x0100\n      exp\n      swap1\n      div\n      0xe0\n      shl\n      dup2\n      jump\t// out\n        /* \"contracts/handlers/GenericHandler.sol\":4408:4575  function getDepositRecord(uint64 depositNonce, uint8 destId) external view returns (DepositRecord memory) {... */\n    tag_43:\n        /* \"contracts/handlers/GenericHandler.sol\":4492:4512  DepositRecord memory */\n      tag_91\n      tag_92\n      jump\t// in\n    tag_91:\n        /* \"contracts/handlers/GenericHandler.sol\":4531:4546  _depositRecords */\n      0x01\n        /* \"contracts/handlers/GenericHandler.sol\":4531:4554  _depositRecords[destId] */\n      0x00\n        /* \"contracts/handlers/GenericHandler.sol\":4547:4553  destId */\n      dup4\n        /* \"contracts/handlers/GenericHandler.sol\":4531:4554  _depositRecords[destId] */\n      0xff\n      and\n      0xff\n      and\n      dup2\n      mstore\n      0x20\n      add\n      swap1\n      dup2\n      mstore\n      0x20\n      add\n      0x00\n      keccak256\n        /* \"contracts/handlers/GenericHandler.sol\":4531:4568  _depositRecords[destId][depositNonce] */\n      0x00\n        /* \"contracts/handlers/GenericHandler.sol\":4555:4567  depositNonce */\n      dup5\n        /* \"contracts/handlers/GenericHandler.sol\":4531:4568  _depositRecords[destId][depositNonce] */\n      0xffffffffffffffff\n      and\n      0xffffffffffffffff\n      and\n      dup2\n      mstore\n      0x20\n      add\n      swap1\n      dup2\n      mstore\n      0x20\n      add\n      0x00\n      keccak256\n        /* \"contracts/handlers/GenericHandler.sol\":4524:4568  return _depositRecords[destId][depositNonce] */\n      mload(0x40)\n      dup1\n      0x80\n      add\n      0x40\n      mstore\n      swap1\n      dup2\n      0x00\n      dup3\n      add\n      0x00\n      swap1\n      sload\n      swap1\n      0x0100\n      exp\n      swap1\n      div\n      0xff\n      and\n      0xff\n      and\n      0xff\n      and\n      dup2\n      mstore\n      0x20\n      add\n      0x00\n      dup3\n      add\n      0x01\n      swap1\n      sload\n      swap1\n      0x0100\n      exp\n      swap1\n      div\n      0xffffffffffffffffffffffffffffffffffffffff\n      and\n      0xffffffffffffffffffffffffffffffffffffffff\n      and\n      0xffffffffffffffffffffffffffffffffffffffff\n      and\n      dup2\n      mstore\n      0x20\n      add\n      0x01\n      dup3\n      add\n      sload\n      dup2\n      mstore\n      0x20\n      add\n      0x02\n      dup3\n      add\n      dup1\n      sload\n      0x01\n      dup2\n      0x01\n      and\n      iszero\n      0x0100\n      mul\n      sub\n      and\n      0x02\n      swap1\n      div\n      dup1\n      0x1f\n      add\n      0x20\n      dup1\n      swap2\n      div\n      mul\n      0x20\n      add\n      mload(0x40)\n      swap1\n      dup2\n      add\n      0x40\n      mstore\n      dup1\n      swap3\n      swap2\n      swap1\n      dup2\n      dup2\n      mstore\n      0x20\n      add\n      dup3\n      dup1\n      sload\n      0x01\n      dup2\n      0x01\n      and\n      iszero\n      0x0100\n      mul\n      sub\n      and\n      0x02\n      swap1\n      div\n      dup1\n      iszero\n      tag_94\n      jumpi\n      dup1\n      0x1f\n      lt\n      tag_95\n      jumpi\n      0x0100\n      dup1\n      dup4\n      sload\n      div\n      mul\n      dup4\n      mstore\n      swap2\n      0x20\n      add\n      swap2\n      jump(tag_94)\n    tag_95:\n      dup3\n      add\n      swap2\n      swap1\n      0x00\n      mstore\n      keccak256(0x00, 0x20)\n      swap1\n    tag_96:\n      dup2\n      sload\n      dup2\n      mstore\n      swap1\n      0x01\n      add\n      swap1\n      0x20\n      add\n      dup1\n      dup4\n      gt\n      tag_96\n      jumpi\n      dup3\n      swap1\n      sub\n      0x1f\n      and\n      dup3\n      add\n      swap2\n    tag_94:\n      pop\n      pop\n      pop\n      pop\n      pop\n      dup2\n      mstore\n      pop\n      pop\n      swap1\n      pop\n        /* \"contracts/handlers/GenericHandler.sol\":4408:4575  function getDepositRecord(uint64 depositNonce, uint8 destId) external view returns (DepositRecord memory) {... */\n      swap3\n      swap2\n      pop\n      pop\n      jump\t// out\n        /* \"contracts/handlers/GenericHandler.sol\":5543:5829  function setResource(... */\n    tag_49:\n        /* \"contracts/handlers/GenericHandler.sol\":1277:1290  _onlyBridge() */\n      tag_98\n        /* \"contracts/handlers/GenericHandler.sol\":1277:1288  _onlyBridge */\n      tag_70\n        /* \"contracts/handlers/GenericHandler.sol\":1277:1290  _onlyBridge() */\n      jump\t// in\n    tag_98:\n        /* \"contracts/handlers/GenericHandler.sol\":5741:5822  _setResource(resourceID, contractAddress, depositFunctionSig, executeFunctionSig) */\n      tag_100\n        /* \"contracts/handlers/GenericHandler.sol\":5754:5764  resourceID */\n      dup5\n        /* \"contracts/handlers/GenericHandler.sol\":5766:5781  contractAddress */\n      dup5\n        /* \"contracts/handlers/GenericHandler.sol\":5783:5801  depositFunctionSig */\n      dup5\n        /* \"contracts/handlers/GenericHandler.sol\":5803:5821  executeFunctionSig */\n      dup5\n        /* \"contracts/handlers/GenericHandler.sol\":5741:5753  _setResource */\n      tag_101\n        /* \"contracts/handlers/GenericHandler.sol\":5741:5822  _setResource(resourceID, contractAddress, depositFunctionSig, executeFunctionSig) */\n      jump\t// in\n    tag_100:\n        /* \"contracts/handlers/GenericHandler.sol\":5543:5829  function setResource(... */\n      pop\n      pop\n      pop\n      pop\n      jump\t// out\n        /* \"contracts/handlers/GenericHandler.sol\":674:738  mapping (bytes32 => address) public _resourceIDToContractAddress */\n    tag_53:\n      mstore(0x20, 0x02)\n      dup1\n      0x00\n      mstore\n      keccak256(0x00, 0x40)\n      0x00\n      swap2\n      pop\n      sload\n      swap1\n      0x0100\n      exp\n      swap1\n      div\n      0xffffffffffffffffffffffffffffffffffffffff\n      and\n      dup2\n      jump\t// out\n        /* \"contracts/handlers/GenericHandler.sol\":908:985  mapping (address => bytes4) public _contractAddressToDepositFunctionSignature */\n    tag_57:\n      mstore(0x20, 0x04)\n      dup1\n      0x00\n      mstore\n      keccak256(0x00, 0x40)\n      0x00\n      swap2\n      pop\n      sload\n      swap1\n      0x0100\n      exp\n      swap1\n      div\n      0xe0\n      shl\n      dup2\n      jump\t// out\n        /* \"contracts/handlers/GenericHandler.sol\":9050:10441  function executeProposal(bytes32 resourceID, bytes calldata data) external onlyBridge {... */\n    tag_62:\n        /* \"contracts/handlers/GenericHandler.sol\":1277:1290  _onlyBridge() */\n      tag_103\n        /* \"contracts/handlers/GenericHandler.sol\":1277:1288  _onlyBridge */\n      tag_70\n        /* \"contracts/handlers/GenericHandler.sol\":1277:1290  _onlyBridge() */\n      jump\t// in\n    tag_103:\n        /* \"contracts/handlers/GenericHandler.sol\":9146:9167  bytes memory metaData */\n      0x60\n        /* \"contracts/handlers/GenericHandler.sol\":9321:9325  0x40 */\n      0x40\n        /* \"contracts/handlers/GenericHandler.sol\":9315:9326  mload(0x40) */\n      mload\n        /* \"contracts/handlers/GenericHandler.sol\":9303:9326  metaData := mload(0x40) */\n      swap1\n      pop\n        /* \"contracts/handlers/GenericHandler.sol\":9443:9447  0x64 */\n      0x64\n        /* \"contracts/handlers/GenericHandler.sol\":9430:9448  calldataload(0x64) */\n      calldataload\n        /* \"contracts/handlers/GenericHandler.sol\":9498:9505  lenMeta */\n      dup1\n        /* \"contracts/handlers/GenericHandler.sol\":9488:9496  metaData */\n      dup3\n        /* \"contracts/handlers/GenericHandler.sol\":9484:9506  add(metaData, lenMeta) */\n      add\n        /* \"contracts/handlers/GenericHandler.sol\":9478:9482  0x60 */\n      0x60\n        /* \"contracts/handlers/GenericHandler.sol\":9474:9507  add(0x60, add(metaData, lenMeta)) */\n      add\n        /* \"contracts/handlers/GenericHandler.sol\":9468:9472  0x40 */\n      0x40\n        /* \"contracts/handlers/GenericHandler.sol\":9461:9508  mstore(0x40, add(0x60, add(metaData, lenMeta))) */\n      mstore\n        /* \"contracts/handlers/GenericHandler.sol\":9863:9867  0x64 */\n      0x64\n        /* \"contracts/handlers/GenericHandler.sol\":9847:9861  calldatasize() */\n      calldatasize\n        /* \"contracts/handlers/GenericHandler.sol\":9843:9868  sub(calldatasize(), 0x64) */\n      sub\n        /* \"contracts/handlers/GenericHandler.sol\":9738:9742  0x64 */\n      0x64\n        /* \"contracts/handlers/GenericHandler.sol\":9672:9680  metaData */\n      dup4\n        /* \"contracts/handlers/GenericHandler.sol\":9642:9919  calldatacopy(... */\n      calldatacopy\n        /* \"contracts/handlers/GenericHandler.sol\":9186:9929  {... */\n      pop\n        /* \"contracts/handlers/GenericHandler.sol\":9939:9962  address contractAddress */\n      0x00\n        /* \"contracts/handlers/GenericHandler.sol\":9965:9993  _resourceIDToContractAddress */\n      0x02\n        /* \"contracts/handlers/GenericHandler.sol\":9965:10005  _resourceIDToContractAddress[resourceID] */\n      0x00\n        /* \"contracts/handlers/GenericHandler.sol\":9994:10004  resourceID */\n      dup7\n        /* \"contracts/handlers/GenericHandler.sol\":9965:10005  _resourceIDToContractAddress[resourceID] */\n      dup2\n      mstore\n      0x20\n      add\n      swap1\n      dup2\n      mstore\n      0x20\n      add\n      0x00\n      keccak256\n      0x00\n      swap1\n      sload\n      swap1\n      0x0100\n      exp\n      swap1\n      div\n      0xffffffffffffffffffffffffffffffffffffffff\n      and\n        /* \"contracts/handlers/GenericHandler.sol\":9939:10005  address contractAddress = _resourceIDToContractAddress[resourceID] */\n      swap1\n      pop\n        /* \"contracts/handlers/GenericHandler.sol\":10023:10041  _contractWhitelist */\n      0x06\n        /* \"contracts/handlers/GenericHandler.sol\":10023:10058  _contractWhitelist[contractAddress] */\n      0x00\n        /* \"contracts/handlers/GenericHandler.sol\":10042:10057  contractAddress */\n      dup3\n        /* \"contracts/handlers/GenericHandler.sol\":10023:10058  _contractWhitelist[contractAddress] */\n      0xffffffffffffffffffffffffffffffffffffffff\n      and\n      0xffffffffffffffffffffffffffffffffffffffff\n      and\n      dup2\n      mstore\n      0x20\n      add\n      swap1\n      dup2\n      mstore\n      0x20\n      add\n      0x00\n      keccak256\n      0x00\n      swap1\n      sload\n      swap1\n      0x0100\n      exp\n      swap1\n      div\n      0xff\n      and\n        /* \"contracts/handlers/GenericHandler.sol\":10015:10106  require(_contractWhitelist[contractAddress], \"provided contractAddress is not whitelisted\") */\n      tag_105\n      jumpi\n      mload(0x40)\n      0x08c379a000000000000000000000000000000000000000000000000000000000\n      dup2\n      mstore\n      0x04\n      add\n      tag_106\n      swap1\n      jump(tag_74)\n    tag_106:\n      mload(0x40)\n      dup1\n      swap2\n      sub\n      swap1\n      revert\n    tag_105:\n        /* \"contracts/handlers/GenericHandler.sol\":10117:10127  bytes4 sig */\n      0x00\n        /* \"contracts/handlers/GenericHandler.sol\":10130:10172  _contractAddressToExecuteFunctionSignature */\n      0x05\n        /* \"contracts/handlers/GenericHandler.sol\":10130:10189  _contractAddressToExecuteFunctionSignature[contractAddress] */\n      0x00\n        /* \"contracts/handlers/GenericHandler.sol\":10173:10188  contractAddress */\n      dup4\n        /* \"contracts/handlers/GenericHandler.sol\":10130:10189  _contractAddressToExecuteFunctionSignature[contractAddress] */\n      0xffffffffffffffffffffffffffffffffffffffff\n      and\n      0xffffffffffffffffffffffffffffffffffffffff\n      and\n      dup2\n      mstore\n      0x20\n      add\n      swap1\n      dup2\n      mstore\n      0x20\n      add\n      0x00\n      keccak256\n      0x00\n      swap1\n      sload\n      swap1\n      0x0100\n      exp\n      swap1\n      div\n      0xe0\n      shl\n        /* \"contracts/handlers/GenericHandler.sol\":10117:10189  bytes4 sig = _contractAddressToExecuteFunctionSignature[contractAddress] */\n      swap1\n      pop\n        /* \"contracts/handlers/GenericHandler.sol\":10217:10218  0 */\n      0x00\n        /* \"contracts/handlers/GenericHandler.sol\":10210:10219  bytes4(0) */\n      0xe0\n      shl\n        /* \"contracts/handlers/GenericHandler.sol\":10203:10219  sig != bytes4(0) */\n      not(0xffffffffffffffffffffffffffffffffffffffffffffffffffffffff)\n      and\n        /* \"contracts/handlers/GenericHandler.sol\":10203:10206  sig */\n      dup2\n        /* \"contracts/handlers/GenericHandler.sol\":10203:10219  sig != bytes4(0) */\n      not(0xffffffffffffffffffffffffffffffffffffffffffffffffffffffff)\n      and\n      eq\n        /* \"contracts/handlers/GenericHandler.sol\":10199:10435  if (sig != bytes4(0)) {... */\n      tag_107\n      jumpi\n        /* \"contracts/handlers/GenericHandler.sol\":10235:10256  bytes memory callData */\n      0x60\n        /* \"contracts/handlers/GenericHandler.sol\":10276:10279  sig */\n      dup2\n        /* \"contracts/handlers/GenericHandler.sol\":10281:10289  metaData */\n      dup5\n        /* \"contracts/handlers/GenericHandler.sol\":10259:10290  abi.encodePacked(sig, metaData) */\n      add(0x20, mload(0x40))\n      tag_108\n      swap3\n      swap2\n      swap1\n      jump(tag_77)\n    tag_108:\n      mload(0x40)\n        /* \"--CODEGEN--\":49:53   */\n      0x20\n        /* \"--CODEGEN--\":39:46   */\n      dup2\n        /* \"--CODEGEN--\":30:37   */\n      dup4\n        /* \"--CODEGEN--\":26:47   */\n      sub\n        /* \"--CODEGEN--\":22:54   */\n      sub\n        /* \"--CODEGEN--\":13:20   */\n      dup2\n        /* \"--CODEGEN--\":6:55   */\n      mstore\n        /* \"contracts/handlers/GenericHandler.sol\":10259:10290  abi.encodePacked(sig, metaData) */\n      swap1\n      0x40\n      mstore\n        /* \"contracts/handlers/GenericHandler.sol\":10235:10290  bytes memory callData = abi.encodePacked(sig, metaData) */\n      swap1\n      pop\n        /* \"contracts/handlers/GenericHandler.sol\":10305:10317  bool success */\n      0x00\n        /* \"contracts/handlers/GenericHandler.sol\":10322:10337  contractAddress */\n      dup4\n        /* \"contracts/handlers/GenericHandler.sol\":10322:10342  contractAddress.call */\n      0xffffffffffffffffffffffffffffffffffffffff\n      and\n        /* \"contracts/handlers/GenericHandler.sol\":10343:10351  callData */\n      dup3\n        /* \"contracts/handlers/GenericHandler.sol\":10322:10352  contractAddress.call(callData) */\n      mload(0x40)\n      tag_109\n      swap2\n      swap1\n      jump(tag_79)\n    tag_109:\n      0x00\n      mload(0x40)\n      dup1\n      dup4\n      sub\n      dup2\n      0x00\n      dup7\n      gas\n      call\n      swap2\n      pop\n      pop\n      returndatasize\n        /* \"--CODEGEN--\":12:13   */\n      dup1\n        /* \"--CODEGEN--\":19:20   */\n      0x00\n        /* \"--CODEGEN--\":14:41   */\n      dup2\n      eq\n      tag_112\n      jumpi\n        /* \"--CODEGEN--\":67:71   */\n      0x40\n        /* \"--CODEGEN--\":61:72   */\n      mload\n        /* \"--CODEGEN--\":56:72   */\n      swap2\n      pop\n        /* \"--CODEGEN--\":134:138   */\n      0x1f\n        /* \"--CODEGEN--\":130:139   */\n      not\n        /* \"--CODEGEN--\":123:127   */\n      0x3f\n        /* \"--CODEGEN--\":105:121   */\n      returndatasize\n        /* \"--CODEGEN--\":101:128   */\n      add\n        /* \"--CODEGEN--\":97:140   */\n      and\n        /* \"--CODEGEN--\":94:95   */\n      dup3\n        /* \"--CODEGEN--\":90:141   */\n      add\n        /* \"--CODEGEN--\":84:88   */\n      0x40\n        /* \"--CODEGEN--\":77:142   */\n      mstore\n        /* \"--CODEGEN--\":157:173   */\n      returndatasize\n        /* \"--CODEGEN--\":154:155   */\n      dup3\n        /* \"--CODEGEN--\":147:174   */\n      mstore\n        /* \"--CODEGEN--\":211:227   */\n      returndatasize\n        /* \"--CODEGEN--\":208:209   */\n      0x00\n        /* \"--CODEGEN--\":201:205   */\n      0x20\n        /* \"--CODEGEN--\":198:199   */\n      dup5\n        /* \"--CODEGEN--\":194:206   */\n      add\n        /* \"--CODEGEN--\":179:228   */\n      returndatacopy\n        /* \"--CODEGEN--\":5:233   */\n      jump(tag_111)\n        /* \"--CODEGEN--\":14:41   */\n    tag_112:\n        /* \"--CODEGEN--\":32:36   */\n      0x60\n        /* \"--CODEGEN--\":27:36   */\n      swap2\n      pop\n        /* \"--CODEGEN--\":5:233   */\n    tag_111:\n      pop\n        /* \"contracts/handlers/GenericHandler.sol\":10304:10352  (bool success,) = contractAddress.call(callData) */\n      pop\n      swap1\n      pop\n        /* \"contracts/handlers/GenericHandler.sol\":10374:10381  success */\n      dup1\n        /* \"contracts/handlers/GenericHandler.sol\":10366:10424  require(success, \"delegatecall to contractAddress failed\") */\n      tag_113\n      jumpi\n      mload(0x40)\n      0x08c379a000000000000000000000000000000000000000000000000000000000\n      dup2\n      mstore\n      0x04\n      add\n      tag_114\n      swap1\n      jump(tag_85)\n    tag_114:\n      mload(0x40)\n      dup1\n      swap2\n      sub\n      swap1\n      revert\n    tag_113:\n        /* \"contracts/handlers/GenericHandler.sol\":10199:10435  if (sig != bytes4(0)) {... */\n      pop\n      pop\n    tag_107:\n        /* \"contracts/handlers/GenericHandler.sol\":1300:1301  _ */\n      pop\n      pop\n      pop\n        /* \"contracts/handlers/GenericHandler.sol\":9050:10441  function executeProposal(bytes32 resourceID, bytes calldata data) external onlyBridge {... */\n      pop\n      pop\n      pop\n      jump\t// out\n        /* \"contracts/handlers/GenericHandler.sol\":783:847  mapping (address => bytes32) public _contractAddressToResourceID */\n    tag_65:\n      mstore(0x20, 0x03)\n      dup1\n      0x00\n      mstore\n      keccak256(0x00, 0x40)\n      0x00\n      swap2\n      pop\n      swap1\n      pop\n      sload\n      dup2\n      jump\t// out\n        /* \"contracts/handlers/GenericHandler.sol\":1314:1434  function _onlyBridge() private {... */\n    tag_70:\n        /* \"contracts/handlers/GenericHandler.sol\":1378:1392  _bridgeAddress */\n      0x00\n      dup1\n      swap1\n      sload\n      swap1\n      0x0100\n      exp\n      swap1\n      div\n      0xffffffffffffffffffffffffffffffffffffffff\n      and\n        /* \"contracts/handlers/GenericHandler.sol\":1364:1392  msg.sender == _bridgeAddress */\n      0xffffffffffffffffffffffffffffffffffffffff\n      and\n        /* \"contracts/handlers/GenericHandler.sol\":1364:1374  msg.sender */\n      caller\n        /* \"contracts/handlers/GenericHandler.sol\":1364:1392  msg.sender == _bridgeAddress */\n      0xffffffffffffffffffffffffffffffffffffffff\n      and\n      eq\n        /* \"contracts/handlers/GenericHandler.sol\":1356:1427  require(msg.sender == _bridgeAddress, \"sender must be bridge contract\") */\n      tag_116\n      jumpi\n      mload(0x40)\n      0x08c379a000000000000000000000000000000000000000000000000000000000\n      dup2\n      mstore\n      0x04\n      add\n      tag_117\n      swap1\n      jump(tag_118)\n    tag_117:\n      mload(0x40)\n      dup1\n      swap2\n      sub\n      swap1\n      revert\n    tag_116:\n        /* \"contracts/handlers/GenericHandler.sol\":1314:1434  function _onlyBridge() private {... */\n      jump\t// out\n        /* \"contracts/handlers/GenericHandler.sol\":10447:10991  function _setResource(... */\n    tag_101:\n        /* \"contracts/handlers/GenericHandler.sol\":10668:10683  contractAddress */\n      dup3\n        /* \"contracts/handlers/GenericHandler.sol\":10625:10653  _resourceIDToContractAddress */\n      0x02\n        /* \"contracts/handlers/GenericHandler.sol\":10625:10665  _resourceIDToContractAddress[resourceID] */\n      0x00\n        /* \"contracts/handlers/GenericHandler.sol\":10654:10664  resourceID */\n      dup7\n        /* \"contracts/handlers/GenericHandler.sol\":10625:10665  _resourceIDToContractAddress[resourceID] */\n      dup2\n      mstore\n      0x20\n      add\n      swap1\n      dup2\n      mstore\n      0x20\n      add\n      0x00\n      keccak256\n      0x00\n        /* \"contracts/handlers/GenericHandler.sol\":10625:10683  _resourceIDToContractAddress[resourceID] = contractAddress */\n      0x0100\n      exp\n      dup2\n      sload\n      dup2\n      0xffffffffffffffffffffffffffffffffffffffff\n      mul\n      not\n      and\n      swap1\n      dup4\n      0xffffffffffffffffffffffffffffffffffffffff\n      and\n      mul\n      or\n      swap1\n      sstore\n      pop\n        /* \"contracts/handlers/GenericHandler.sol\":10741:10751  resourceID */\n      dup4\n        /* \"contracts/handlers/GenericHandler.sol\":10693:10721  _contractAddressToResourceID */\n      0x03\n        /* \"contracts/handlers/GenericHandler.sol\":10693:10738  _contractAddressToResourceID[contractAddress] */\n      0x00\n        /* \"contracts/handlers/GenericHandler.sol\":10722:10737  contractAddress */\n      dup6\n        /* \"contracts/handlers/GenericHandler.sol\":10693:10738  _contractAddressToResourceID[contractAddress] */\n      0xffffffffffffffffffffffffffffffffffffffff\n      and\n      0xffffffffffffffffffffffffffffffffffffffff\n      and\n      dup2\n      mstore\n      0x20\n      add\n      swap1\n      dup2\n      mstore\n      0x20\n      add\n      0x00\n      keccak256\n        /* \"contracts/handlers/GenericHandler.sol\":10693:10751  _contractAddressToResourceID[contractAddress] = resourceID */\n      dup2\n      swap1\n      sstore\n      pop\n        /* \"contracts/handlers/GenericHandler.sol\":10823:10841  depositFunctionSig */\n      dup2\n        /* \"contracts/handlers/GenericHandler.sol\":10761:10803  _contractAddressToDepositFunctionSignature */\n      0x04\n        /* \"contracts/handlers/GenericHandler.sol\":10761:10820  _contractAddressToDepositFunctionSignature[contractAddress] */\n      0x00\n        /* \"contracts/handlers/GenericHandler.sol\":10804:10819  contractAddress */\n      dup6\n        /* \"contracts/handlers/GenericHandler.sol\":10761:10820  _contractAddressToDepositFunctionSignature[contractAddress] */\n      0xffffffffffffffffffffffffffffffffffffffff\n      and\n      0xffffffffffffffffffffffffffffffffffffffff\n      and\n      dup2\n      mstore\n      0x20\n      add\n      swap1\n      dup2\n      mstore\n      0x20\n      add\n      0x00\n      keccak256\n      0x00\n        /* \"contracts/handlers/GenericHandler.sol\":10761:10841  _contractAddressToDepositFunctionSignature[contractAddress] = depositFunctionSig */\n      0x0100\n      exp\n      dup2\n      sload\n      dup2\n      0xffffffff\n      mul\n      not\n      and\n      swap1\n      dup4\n      0xe0\n      shr\n      mul\n      or\n      swap1\n      sstore\n      pop\n        /* \"contracts/handlers/GenericHandler.sol\":10913:10931  executeFunctionSig */\n      dup1\n        /* \"contracts/handlers/GenericHandler.sol\":10851:10893  _contractAddressToExecuteFunctionSignature */\n      0x05\n        /* \"contracts/handlers/GenericHandler.sol\":10851:10910  _contractAddressToExecuteFunctionSignature[contractAddress] */\n      0x00\n        /* \"contracts/handlers/GenericHandler.sol\":10894:10909  contractAddress */\n      dup6\n        /* \"contracts/handlers/GenericHandler.sol\":10851:10910  _contractAddressToExecuteFunctionSignature[contractAddress] */\n      0xffffffffffffffffffffffffffffffffffffffff\n      and\n      0xffffffffffffffffffffffffffffffffffffffff\n      and\n      dup2\n      mstore\n      0x20\n      add\n      swap1\n      dup2\n      mstore\n      0x20\n      add\n      0x00\n      keccak256\n      0x00\n        /* \"contracts/handlers/GenericHandler.sol\":10851:10931  _contractAddressToExecuteFunctionSignature[contractAddress] = executeFunctionSig */\n      0x0100\n      exp\n      dup2\n      sload\n      dup2\n      0xffffffff\n      mul\n      not\n      and\n      swap1\n      dup4\n      0xe0\n      shr\n      mul\n      or\n      swap1\n      sstore\n      pop\n        /* \"contracts/handlers/GenericHandler.sol\":10980:10984  true */\n      0x01\n        /* \"contracts/handlers/GenericHandler.sol\":10942:10960  _contractWhitelist */\n      0x06\n        /* \"contracts/handlers/GenericHandler.sol\":10942:10977  _contractWhitelist[contractAddress] */\n      0x00\n        /* \"contracts/handlers/GenericHandler.sol\":10961:10976  contractAddress */\n      dup6\n        /* \"contracts/handlers/GenericHandler.sol\":10942:10977  _contractWhitelist[contractAddress] */\n      0xffffffffffffffffffffffffffffffffffffffff\n      and\n      0xffffffffffffffffffffffffffffffffffffffff\n      and\n      dup2\n      mstore\n      0x20\n      add\n      swap1\n      dup2\n      mstore\n      0x20\n      add\n      0x00\n      keccak256\n      0x00\n        /* \"contracts/handlers/GenericHandler.sol\":10942:10984  _contractWhitelist[contractAddress] = true */\n      0x0100\n      exp\n      dup2\n      sload\n      dup2\n      0xff\n      mul\n      not\n      and\n      swap1\n      dup4\n      iszero\n      iszero\n      mul\n      or\n      swap1\n      sstore\n      pop\n        /* \"contracts/handlers/GenericHandler.sol\":10447:10991  function _setResource(... */\n      pop\n      pop\n      pop\n      pop\n      jump\t// out\n        /* \"contracts/handlers/GenericHandler.sol\":277:10993  contract GenericHandler is IGenericHandler {... */\n    tag_87:\n      dup3\n      dup1\n      sload\n      0x01\n      dup2\n      0x01\n      and\n      iszero\n      0x0100\n      mul\n      sub\n      and\n      0x02\n      swap1\n      div\n      swap1\n      0x00\n      mstore\n      keccak256(0x00, 0x20)\n      swap1\n      0x1f\n      add\n      0x20\n      swap1\n      div\n      dup2\n      add\n      swap3\n      dup3\n      0x1f\n      lt\n      tag_121\n      jumpi\n      dup1\n      mload\n      not(0xff)\n      and\n      dup4\n      dup1\n      add\n      or\n      dup6\n      sstore\n      jump(tag_120)\n    tag_121:\n      dup3\n      dup1\n      add\n      0x01\n      add\n      dup6\n      sstore\n      dup3\n      iszero\n      tag_120\n      jumpi\n      swap2\n      dup3\n      add\n    tag_122:\n      dup3\n      dup2\n      gt\n      iszero\n      tag_123\n      jumpi\n      dup3\n      mload\n      dup3\n      sstore\n      swap2\n      0x20\n      add\n      swap2\n      swap1\n      0x01\n      add\n      swap1\n      jump(tag_122)\n    tag_123:\n    tag_120:\n      pop\n      swap1\n      pop\n      tag_124\n      swap2\n      swap1\n      tag_125\n      jump\t// in\n    tag_124:\n      pop\n      swap1\n      jump\t// out\n    tag_92:\n      mload(0x40)\n      dup1\n      0x80\n      add\n      0x40\n      mstore\n      dup1\n      and(0xff, 0x00)\n      dup2\n      mstore\n      0x20\n      add\n      and(0xffffffffffffffffffffffffffffffffffffffff, 0x00)\n      dup2\n      mstore\n      0x20\n      add\n      0x00\n      dup1\n      not\n      and\n      dup2\n      mstore\n      0x20\n      add\n      0x60\n      dup2\n      mstore\n      pop\n      swap1\n      jump\t// out\n    tag_125:\n      tag_126\n      swap2\n      swap1\n    tag_127:\n      dup1\n      dup3\n      gt\n      iszero\n      tag_128\n      jumpi\n      0x00\n      dup2\n      0x00\n      swap1\n      sstore\n      pop\n      0x01\n      add\n      jump(tag_127)\n    tag_128:\n      pop\n      swap1\n      jump\n    tag_126:\n      swap1\n      jump\t// out\n        /* \"--CODEGEN--\":5:135   */\n    tag_130:\n      0x00\n        /* \"--CODEGEN--\":85:91   */\n      dup2\n        /* \"--CODEGEN--\":72:92   */\n      calldataload\n        /* \"--CODEGEN--\":63:92   */\n      swap1\n      pop\n        /* \"--CODEGEN--\":97:130   */\n      tag_132\n        /* \"--CODEGEN--\":124:129   */\n      dup2\n        /* \"--CODEGEN--\":97:130   */\n      jump(tag_133)\n    tag_132:\n        /* \"--CODEGEN--\":57:135   */\n      swap3\n      swap2\n      pop\n      pop\n      jump\n        /* \"--CODEGEN--\":142:272   */\n    tag_134:\n      0x00\n        /* \"--CODEGEN--\":222:228   */\n      dup2\n        /* \"--CODEGEN--\":209:229   */\n      calldataload\n        /* \"--CODEGEN--\":200:229   */\n      swap1\n      pop\n        /* \"--CODEGEN--\":234:267   */\n      tag_136\n        /* \"--CODEGEN--\":261:266   */\n      dup2\n        /* \"--CODEGEN--\":234:267   */\n      jump(tag_137)\n    tag_136:\n        /* \"--CODEGEN--\":194:272   */\n      swap3\n      swap2\n      pop\n      pop\n      jump\n        /* \"--CODEGEN--\":279:407   */\n    tag_138:\n      0x00\n        /* \"--CODEGEN--\":358:364   */\n      dup2\n        /* \"--CODEGEN--\":345:365   */\n      calldataload\n        /* \"--CODEGEN--\":336:365   */\n      swap1\n      pop\n        /* \"--CODEGEN--\":370:402   */\n      tag_140\n        /* \"--CODEGEN--\":396:401   */\n      dup2\n        /* \"--CODEGEN--\":370:402   */\n      jump(tag_141)\n    tag_140:\n        /* \"--CODEGEN--\":330:407   */\n      swap3\n      swap2\n      pop\n      pop\n      jump\n        /* \"--CODEGEN--\":428:764   */\n    tag_142:\n      0x00\n      dup1\n        /* \"--CODEGEN--\":542:545   */\n      dup4\n        /* \"--CODEGEN--\":535:539   */\n      0x1f\n        /* \"--CODEGEN--\":527:533   */\n      dup5\n        /* \"--CODEGEN--\":523:540   */\n      add\n        /* \"--CODEGEN--\":519:546   */\n      slt\n        /* \"--CODEGEN--\":509:511   */\n      tag_144\n      jumpi\n        /* \"--CODEGEN--\":560:561   */\n      0x00\n        /* \"--CODEGEN--\":557:558   */\n      dup1\n        /* \"--CODEGEN--\":550:562   */\n      revert\n        /* \"--CODEGEN--\":509:511   */\n    tag_144:\n        /* \"--CODEGEN--\":593:599   */\n      dup3\n        /* \"--CODEGEN--\":580:600   */\n      calldataload\n        /* \"--CODEGEN--\":570:600   */\n      swap1\n      pop\n        /* \"--CODEGEN--\":620:638   */\n      0xffffffffffffffff\n        /* \"--CODEGEN--\":612:618   */\n      dup2\n        /* \"--CODEGEN--\":609:639   */\n      gt\n        /* \"--CODEGEN--\":606:608   */\n      iszero\n      tag_145\n      jumpi\n        /* \"--CODEGEN--\":652:653   */\n      0x00\n        /* \"--CODEGEN--\":649:650   */\n      dup1\n        /* \"--CODEGEN--\":642:654   */\n      revert\n        /* \"--CODEGEN--\":606:608   */\n    tag_145:\n        /* \"--CODEGEN--\":686:690   */\n      0x20\n        /* \"--CODEGEN--\":678:684   */\n      dup4\n        /* \"--CODEGEN--\":674:691   */\n      add\n        /* \"--CODEGEN--\":662:691   */\n      swap2\n      pop\n        /* \"--CODEGEN--\":737:740   */\n      dup4\n        /* \"--CODEGEN--\":729:733   */\n      0x01\n        /* \"--CODEGEN--\":721:727   */\n      dup3\n        /* \"--CODEGEN--\":717:734   */\n      mul\n        /* \"--CODEGEN--\":707:715   */\n      dup4\n        /* \"--CODEGEN--\":703:735   */\n      add\n        /* \"--CODEGEN--\":700:741   */\n      gt\n        /* \"--CODEGEN--\":697:699   */\n      iszero\n      tag_146\n      jumpi\n        /* \"--CODEGEN--\":754:755   */\n      0x00\n        /* \"--CODEGEN--\":751:752   */\n      dup1\n        /* \"--CODEGEN--\":744:756   */\n      revert\n        /* \"--CODEGEN--\":697:699   */\n    tag_146:\n        /* \"--CODEGEN--\":502:764   */\n      swap3\n      pop\n      swap3\n      swap1\n      pop\n      jump\n        /* \"--CODEGEN--\":772:900   */\n    tag_147:\n      0x00\n        /* \"--CODEGEN--\":851:857   */\n      dup2\n        /* \"--CODEGEN--\":838:858   */\n      calldataload\n        /* \"--CODEGEN--\":829:858   */\n      swap1\n      pop\n        /* \"--CODEGEN--\":863:895   */\n      tag_149\n        /* \"--CODEGEN--\":889:894   */\n      dup2\n        /* \"--CODEGEN--\":863:895   */\n      jump(tag_150)\n    tag_149:\n        /* \"--CODEGEN--\":823:900   */\n      swap3\n      swap2\n      pop\n      pop\n      jump\n        /* \"--CODEGEN--\":907:1033   */\n    tag_151:\n      0x00\n        /* \"--CODEGEN--\":985:991   */\n      dup2\n        /* \"--CODEGEN--\":972:992   */\n      calldataload\n        /* \"--CODEGEN--\":963:992   */\n      swap1\n      pop\n        /* \"--CODEGEN--\":997:1028   */\n      tag_153\n        /* \"--CODEGEN--\":1022:1027   */\n      dup2\n        /* \"--CODEGEN--\":997:1028   */\n      jump(tag_154)\n    tag_153:\n        /* \"--CODEGEN--\":957:1033   */\n      swap3\n      swap2\n      pop\n      pop\n      jump\n        /* \"--CODEGEN--\":1040:1281   */\n    tag_31:\n      0x00\n        /* \"--CODEGEN--\":1144:1146   */\n      0x20\n        /* \"--CODEGEN--\":1132:1141   */\n      dup3\n        /* \"--CODEGEN--\":1123:1130   */\n      dup5\n        /* \"--CODEGEN--\":1119:1142   */\n      sub\n        /* \"--CODEGEN--\":1115:1147   */\n      slt\n        /* \"--CODEGEN--\":1112:1114   */\n      iszero\n      tag_156\n      jumpi\n        /* \"--CODEGEN--\":1160:1161   */\n      0x00\n        /* \"--CODEGEN--\":1157:1158   */\n      dup1\n        /* \"--CODEGEN--\":1150:1162   */\n      revert\n        /* \"--CODEGEN--\":1112:1114   */\n    tag_156:\n        /* \"--CODEGEN--\":1195:1196   */\n      0x00\n        /* \"--CODEGEN--\":1212:1265   */\n      tag_157\n        /* \"--CODEGEN--\":1257:1264   */\n      dup5\n        /* \"--CODEGEN--\":1248:1254   */\n      dup3\n        /* \"--CODEGEN--\":1237:1246   */\n      dup6\n        /* \"--CODEGEN--\":1233:1255   */\n      add\n        /* \"--CODEGEN--\":1212:1265   */\n      jump(tag_130)\n    tag_157:\n        /* \"--CODEGEN--\":1202:1265   */\n      swap2\n      pop\n        /* \"--CODEGEN--\":1174:1271   */\n      pop\n        /* \"--CODEGEN--\":1106:1281   */\n      swap3\n      swap2\n      pop\n      pop\n      jump\n        /* \"--CODEGEN--\":1288:1529   */\n    tag_52:\n      0x00\n        /* \"--CODEGEN--\":1392:1394   */\n      0x20\n        /* \"--CODEGEN--\":1380:1389   */\n      dup3\n        /* \"--CODEGEN--\":1371:1378   */\n      dup5\n        /* \"--CODEGEN--\":1367:1390   */\n      sub\n        /* \"--CODEGEN--\":1363:1395   */\n      slt\n        /* \"--CODEGEN--\":1360:1362   */\n      iszero\n      tag_159\n      jumpi\n        /* \"--CODEGEN--\":1408:1409   */\n      0x00\n        /* \"--CODEGEN--\":1405:1406   */\n      dup1\n        /* \"--CODEGEN--\":1398:1410   */\n      revert\n        /* \"--CODEGEN--\":1360:1362   */\n    tag_159:\n        /* \"--CODEGEN--\":1443:1444   */\n      0x00\n        /* \"--CODEGEN--\":1460:1513   */\n      tag_160\n        /* \"--CODEGEN--\":1505:1512   */\n      dup5\n        /* \"--CODEGEN--\":1496:1502   */\n      dup3\n        /* \"--CODEGEN--\":1485:1494   */\n      dup6\n        /* \"--CODEGEN--\":1481:1503   */\n      add\n        /* \"--CODEGEN--\":1460:1513   */\n      jump(tag_134)\n    tag_160:\n        /* \"--CODEGEN--\":1450:1513   */\n      swap2\n      pop\n        /* \"--CODEGEN--\":1422:1519   */\n      pop\n        /* \"--CODEGEN--\":1354:1529   */\n      swap3\n      swap2\n      pop\n      pop\n      jump\n        /* \"--CODEGEN--\":1536:2149   */\n    tag_48:\n      0x00\n      dup1\n      0x00\n      dup1\n        /* \"--CODEGEN--\":1689:1692   */\n      0x80\n        /* \"--CODEGEN--\":1677:1686   */\n      dup6\n        /* \"--CODEGEN--\":1668:1675   */\n      dup8\n        /* \"--CODEGEN--\":1664:1687   */\n      sub\n        /* \"--CODEGEN--\":1660:1693   */\n      slt\n        /* \"--CODEGEN--\":1657:1659   */\n      iszero\n      tag_162\n      jumpi\n        /* \"--CODEGEN--\":1706:1707   */\n      0x00\n        /* \"--CODEGEN--\":1703:1704   */\n      dup1\n        /* \"--CODEGEN--\":1696:1708   */\n      revert\n        /* \"--CODEGEN--\":1657:1659   */\n    tag_162:\n        /* \"--CODEGEN--\":1741:1742   */\n      0x00\n        /* \"--CODEGEN--\":1758:1811   */\n      tag_163\n        /* \"--CODEGEN--\":1803:1810   */\n      dup8\n        /* \"--CODEGEN--\":1794:1800   */\n      dup3\n        /* \"--CODEGEN--\":1783:1792   */\n      dup9\n        /* \"--CODEGEN--\":1779:1801   */\n      add\n        /* \"--CODEGEN--\":1758:1811   */\n      jump(tag_134)\n    tag_163:\n        /* \"--CODEGEN--\":1748:1811   */\n      swap5\n      pop\n        /* \"--CODEGEN--\":1720:1817   */\n      pop\n        /* \"--CODEGEN--\":1848:1850   */\n      0x20\n        /* \"--CODEGEN--\":1866:1919   */\n      tag_164\n        /* \"--CODEGEN--\":1911:1918   */\n      dup8\n        /* \"--CODEGEN--\":1902:1908   */\n      dup3\n        /* \"--CODEGEN--\":1891:1900   */\n      dup9\n        /* \"--CODEGEN--\":1887:1909   */\n      add\n        /* \"--CODEGEN--\":1866:1919   */\n      jump(tag_130)\n    tag_164:\n        /* \"--CODEGEN--\":1856:1919   */\n      swap4\n      pop\n        /* \"--CODEGEN--\":1827:1925   */\n      pop\n        /* \"--CODEGEN--\":1956:1958   */\n      0x40\n        /* \"--CODEGEN--\":1974:2026   */\n      tag_165\n        /* \"--CODEGEN--\":2018:2025   */\n      dup8\n        /* \"--CODEGEN--\":2009:2015   */\n      dup3\n        /* \"--CODEGEN--\":1998:2007   */\n      dup9\n        /* \"--CODEGEN--\":1994:2016   */\n      add\n        /* \"--CODEGEN--\":1974:2026   */\n      jump(tag_138)\n    tag_165:\n        /* \"--CODEGEN--\":1964:2026   */\n      swap3\n      pop\n        /* \"--CODEGEN--\":1935:2032   */\n      pop\n        /* \"--CODEGEN--\":2063:2065   */\n      0x60\n        /* \"--CODEGEN--\":2081:2133   */\n      tag_166\n        /* \"--CODEGEN--\":2125:2132   */\n      dup8\n        /* \"--CODEGEN--\":2116:2122   */\n      dup3\n        /* \"--CODEGEN--\":2105:2114   */\n      dup9\n        /* \"--CODEGEN--\":2101:2123   */\n      add\n        /* \"--CODEGEN--\":2081:2133   */\n      jump(tag_138)\n    tag_166:\n        /* \"--CODEGEN--\":2071:2133   */\n      swap2\n      pop\n        /* \"--CODEGEN--\":2042:2139   */\n      pop\n        /* \"--CODEGEN--\":1651:2149   */\n      swap3\n      swap6\n      swap2\n      swap5\n      pop\n      swap3\n      pop\n      jump\n        /* \"--CODEGEN--\":2156:2646   */\n    tag_61:\n      0x00\n      dup1\n      0x00\n        /* \"--CODEGEN--\":2296:2298   */\n      0x40\n        /* \"--CODEGEN--\":2284:2293   */\n      dup5\n        /* \"--CODEGEN--\":2275:2282   */\n      dup7\n        /* \"--CODEGEN--\":2271:2294   */\n      sub\n        /* \"--CODEGEN--\":2267:2299   */\n      slt\n        /* \"--CODEGEN--\":2264:2266   */\n      iszero\n      tag_168\n      jumpi\n        /* \"--CODEGEN--\":2312:2313   */\n      0x00\n        /* \"--CODEGEN--\":2309:2310   */\n      dup1\n        /* \"--CODEGEN--\":2302:2314   */\n      revert\n        /* \"--CODEGEN--\":2264:2266   */\n    tag_168:\n        /* \"--CODEGEN--\":2347:2348   */\n      0x00\n        /* \"--CODEGEN--\":2364:2417   */\n      tag_169\n        /* \"--CODEGEN--\":2409:2416   */\n      dup7\n        /* \"--CODEGEN--\":2400:2406   */\n      dup3\n        /* \"--CODEGEN--\":2389:2398   */\n      dup8\n        /* \"--CODEGEN--\":2385:2407   */\n      add\n        /* \"--CODEGEN--\":2364:2417   */\n      jump(tag_134)\n    tag_169:\n        /* \"--CODEGEN--\":2354:2417   */\n      swap4\n      pop\n        /* \"--CODEGEN--\":2326:2423   */\n      pop\n        /* \"--CODEGEN--\":2482:2484   */\n      0x20\n        /* \"--CODEGEN--\":2471:2480   */\n      dup5\n        /* \"--CODEGEN--\":2467:2485   */\n      add\n        /* \"--CODEGEN--\":2454:2486   */\n      calldataload\n        /* \"--CODEGEN--\":2506:2524   */\n      0xffffffffffffffff\n        /* \"--CODEGEN--\":2498:2504   */\n      dup2\n        /* \"--CODEGEN--\":2495:2525   */\n      gt\n        /* \"--CODEGEN--\":2492:2494   */\n      iszero\n      tag_170\n      jumpi\n        /* \"--CODEGEN--\":2538:2539   */\n      0x00\n        /* \"--CODEGEN--\":2535:2536   */\n      dup1\n        /* \"--CODEGEN--\":2528:2540   */\n      revert\n        /* \"--CODEGEN--\":2492:2494   */\n    tag_170:\n        /* \"--CODEGEN--\":2566:2630   */\n      tag_171\n        /* \"--CODEGEN--\":2622:2629   */\n      dup7\n        /* \"--CODEGEN--\":2613:2619   */\n      dup3\n        /* \"--CODEGEN--\":2602:2611   */\n      dup8\n        /* \"--CODEGEN--\":2598:2620   */\n      add\n        /* \"--CODEGEN--\":2566:2630   */\n      jump(tag_142)\n    tag_171:\n        /* \"--CODEGEN--\":2556:2630   */\n      swap3\n      pop\n      swap3\n      pop\n        /* \"--CODEGEN--\":2433:2636   */\n      pop\n        /* \"--CODEGEN--\":2258:2646   */\n      swap3\n      pop\n      swap3\n      pop\n      swap3\n      jump\n        /* \"--CODEGEN--\":2653:3514   */\n    tag_21:\n      0x00\n      dup1\n      0x00\n      dup1\n      0x00\n      dup1\n        /* \"--CODEGEN--\":2841:2844   */\n      0xa0\n        /* \"--CODEGEN--\":2829:2838   */\n      dup8\n        /* \"--CODEGEN--\":2820:2827   */\n      dup10\n        /* \"--CODEGEN--\":2816:2839   */\n      sub\n        /* \"--CODEGEN--\":2812:2845   */\n      slt\n        /* \"--CODEGEN--\":2809:2811   */\n      iszero\n      tag_173\n      jumpi\n        /* \"--CODEGEN--\":2858:2859   */\n      0x00\n        /* \"--CODEGEN--\":2855:2856   */\n      dup1\n        /* \"--CODEGEN--\":2848:2860   */\n      revert\n        /* \"--CODEGEN--\":2809:2811   */\n    tag_173:\n        /* \"--CODEGEN--\":2893:2894   */\n      0x00\n        /* \"--CODEGEN--\":2910:2963   */\n      tag_174\n        /* \"--CODEGEN--\":2955:2962   */\n      dup10\n        /* \"--CODEGEN--\":2946:2952   */\n      dup3\n        /* \"--CODEGEN--\":2935:2944   */\n      dup11\n        /* \"--CODEGEN--\":2931:2953   */\n      add\n        /* \"--CODEGEN--\":2910:2963   */\n      jump(tag_134)\n    tag_174:\n        /* \"--CODEGEN--\":2900:2963   */\n      swap7\n      pop\n        /* \"--CODEGEN--\":2872:2969   */\n      pop\n        /* \"--CODEGEN--\":3000:3002   */\n      0x20\n        /* \"--CODEGEN--\":3018:3069   */\n      tag_175\n        /* \"--CODEGEN--\":3061:3068   */\n      dup10\n        /* \"--CODEGEN--\":3052:3058   */\n      dup3\n        /* \"--CODEGEN--\":3041:3050   */\n      dup11\n        /* \"--CODEGEN--\":3037:3059   */\n      add\n        /* \"--CODEGEN--\":3018:3069   */\n      jump(tag_151)\n    tag_175:\n        /* \"--CODEGEN--\":3008:3069   */\n      swap6\n      pop\n        /* \"--CODEGEN--\":2979:3075   */\n      pop\n        /* \"--CODEGEN--\":3106:3108   */\n      0x40\n        /* \"--CODEGEN--\":3124:3176   */\n      tag_176\n        /* \"--CODEGEN--\":3168:3175   */\n      dup10\n        /* \"--CODEGEN--\":3159:3165   */\n      dup3\n        /* \"--CODEGEN--\":3148:3157   */\n      dup11\n        /* \"--CODEGEN--\":3144:3166   */\n      add\n        /* \"--CODEGEN--\":3124:3176   */\n      jump(tag_147)\n    tag_176:\n        /* \"--CODEGEN--\":3114:3176   */\n      swap5\n      pop\n        /* \"--CODEGEN--\":3085:3182   */\n      pop\n        /* \"--CODEGEN--\":3213:3215   */\n      0x60\n        /* \"--CODEGEN--\":3231:3284   */\n      tag_177\n        /* \"--CODEGEN--\":3276:3283   */\n      dup10\n        /* \"--CODEGEN--\":3267:3273   */\n      dup3\n        /* \"--CODEGEN--\":3256:3265   */\n      dup11\n        /* \"--CODEGEN--\":3252:3274   */\n      add\n        /* \"--CODEGEN--\":3231:3284   */\n      jump(tag_130)\n    tag_177:\n        /* \"--CODEGEN--\":3221:3284   */\n      swap4\n      pop\n        /* \"--CODEGEN--\":3192:3290   */\n      pop\n        /* \"--CODEGEN--\":3349:3352   */\n      0x80\n        /* \"--CODEGEN--\":3338:3347   */\n      dup8\n        /* \"--CODEGEN--\":3334:3353   */\n      add\n        /* \"--CODEGEN--\":3321:3354   */\n      calldataload\n        /* \"--CODEGEN--\":3374:3392   */\n      0xffffffffffffffff\n        /* \"--CODEGEN--\":3366:3372   */\n      dup2\n        /* \"--CODEGEN--\":3363:3393   */\n      gt\n        /* \"--CODEGEN--\":3360:3362   */\n      iszero\n      tag_178\n      jumpi\n        /* \"--CODEGEN--\":3406:3407   */\n      0x00\n        /* \"--CODEGEN--\":3403:3404   */\n      dup1\n        /* \"--CODEGEN--\":3396:3408   */\n      revert\n        /* \"--CODEGEN--\":3360:3362   */\n    tag_178:\n        /* \"--CODEGEN--\":3434:3498   */\n      tag_179\n        /* \"--CODEGEN--\":3490:3497   */\n      dup10\n        /* \"--CODEGEN--\":3481:3487   */\n      dup3\n        /* \"--CODEGEN--\":3470:3479   */\n      dup11\n        /* \"--CODEGEN--\":3466:3488   */\n      add\n        /* \"--CODEGEN--\":3434:3498   */\n      jump(tag_142)\n    tag_179:\n        /* \"--CODEGEN--\":3424:3498   */\n      swap3\n      pop\n      swap3\n      pop\n        /* \"--CODEGEN--\":3300:3504   */\n      pop\n        /* \"--CODEGEN--\":2803:3514   */\n      swap3\n      swap6\n      pop\n      swap3\n      swap6\n      pop\n      swap3\n      swap6\n      jump\n        /* \"--CODEGEN--\":3521:3881   */\n    tag_42:\n      0x00\n      dup1\n        /* \"--CODEGEN--\":3639:3641   */\n      0x40\n        /* \"--CODEGEN--\":3627:3636   */\n      dup4\n        /* \"--CODEGEN--\":3618:3625   */\n      dup6\n        /* \"--CODEGEN--\":3614:3637   */\n      sub\n        /* \"--CODEGEN--\":3610:3642   */\n      slt\n        /* \"--CODEGEN--\":3607:3609   */\n      iszero\n      tag_181\n      jumpi\n        /* \"--CODEGEN--\":3655:3656   */\n      0x00\n        /* \"--CODEGEN--\":3652:3653   */\n      dup1\n        /* \"--CODEGEN--\":3645:3657   */\n      revert\n        /* \"--CODEGEN--\":3607:3609   */\n    tag_181:\n        /* \"--CODEGEN--\":3690:3691   */\n      0x00\n        /* \"--CODEGEN--\":3707:3759   */\n      tag_182\n        /* \"--CODEGEN--\":3751:3758   */\n      dup6\n        /* \"--CODEGEN--\":3742:3748   */\n      dup3\n        /* \"--CODEGEN--\":3731:3740   */\n      dup7\n        /* \"--CODEGEN--\":3727:3749   */\n      add\n        /* \"--CODEGEN--\":3707:3759   */\n      jump(tag_147)\n    tag_182:\n        /* \"--CODEGEN--\":3697:3759   */\n      swap3\n      pop\n        /* \"--CODEGEN--\":3669:3765   */\n      pop\n        /* \"--CODEGEN--\":3796:3798   */\n      0x20\n        /* \"--CODEGEN--\":3814:3865   */\n      tag_183\n        /* \"--CODEGEN--\":3857:3864   */\n      dup6\n        /* \"--CODEGEN--\":3848:3854   */\n      dup3\n        /* \"--CODEGEN--\":3837:3846   */\n      dup7\n        /* \"--CODEGEN--\":3833:3855   */\n      add\n        /* \"--CODEGEN--\":3814:3865   */\n      jump(tag_151)\n    tag_183:\n        /* \"--CODEGEN--\":3804:3865   */\n      swap2\n      pop\n        /* \"--CODEGEN--\":3775:3871   */\n      pop\n        /* \"--CODEGEN--\":3601:3881   */\n      swap3\n      pop\n      swap3\n      swap1\n      pop\n      jump\n        /* \"--CODEGEN--\":3888:4248   */\n    tag_25:\n      0x00\n      dup1\n        /* \"--CODEGEN--\":4006:4008   */\n      0x40\n        /* \"--CODEGEN--\":3994:4003   */\n      dup4\n        /* \"--CODEGEN--\":3985:3992   */\n      dup6\n        /* \"--CODEGEN--\":3981:4004   */\n      sub\n        /* \"--CODEGEN--\":3977:4009   */\n      slt\n        /* \"--CODEGEN--\":3974:3976   */\n      iszero\n      tag_185\n      jumpi\n        /* \"--CODEGEN--\":4022:4023   */\n      0x00\n        /* \"--CODEGEN--\":4019:4020   */\n      dup1\n        /* \"--CODEGEN--\":4012:4024   */\n      revert\n        /* \"--CODEGEN--\":3974:3976   */\n    tag_185:\n        /* \"--CODEGEN--\":4057:4058   */\n      0x00\n        /* \"--CODEGEN--\":4074:4125   */\n      tag_186\n        /* \"--CODEGEN--\":4117:4124   */\n      dup6\n        /* \"--CODEGEN--\":4108:4114   */\n      dup3\n        /* \"--CODEGEN--\":4097:4106   */\n      dup7\n        /* \"--CODEGEN--\":4093:4115   */\n      add\n        /* \"--CODEGEN--\":4074:4125   */\n      jump(tag_151)\n    tag_186:\n        /* \"--CODEGEN--\":4064:4125   */\n      swap3\n      pop\n        /* \"--CODEGEN--\":4036:4131   */\n      pop\n        /* \"--CODEGEN--\":4162:4164   */\n      0x20\n        /* \"--CODEGEN--\":4180:4232   */\n      tag_187\n        /* \"--CODEGEN--\":4224:4231   */\n      dup6\n        /* \"--CODEGEN--\":4215:4221   */\n      dup3\n        /* \"--CODEGEN--\":4204:4213   */\n      dup7\n        /* \"--CODEGEN--\":4200:4222   */\n      add\n        /* \"--CODEGEN--\":4180:4232   */\n      jump(tag_147)\n    tag_187:\n        /* \"--CODEGEN--\":4170:4232   */\n      swap2\n      pop\n        /* \"--CODEGEN--\":4141:4238   */\n      pop\n        /* \"--CODEGEN--\":3968:4248   */\n      swap3\n      pop\n      swap3\n      swap1\n      pop\n      jump\n        /* \"--CODEGEN--\":4255:4358   */\n    tag_188:\n        /* \"--CODEGEN--\":4328:4352   */\n      tag_190\n        /* \"--CODEGEN--\":4346:4351   */\n      dup2\n        /* \"--CODEGEN--\":4328:4352   */\n      jump(tag_191)\n    tag_190:\n        /* \"--CODEGEN--\":4323:4326   */\n      dup3\n        /* \"--CODEGEN--\":4316:4353   */\n      mstore\n        /* \"--CODEGEN--\":4310:4358   */\n      pop\n      pop\n      jump\n        /* \"--CODEGEN--\":4365:4478   */\n    tag_192:\n        /* \"--CODEGEN--\":4448:4472   */\n      tag_194\n        /* \"--CODEGEN--\":4466:4471   */\n      dup2\n        /* \"--CODEGEN--\":4448:4472   */\n      jump(tag_191)\n    tag_194:\n        /* \"--CODEGEN--\":4443:4446   */\n      dup3\n        /* \"--CODEGEN--\":4436:4473   */\n      mstore\n        /* \"--CODEGEN--\":4430:4478   */\n      pop\n      pop\n      jump\n        /* \"--CODEGEN--\":4485:4589   */\n    tag_195:\n        /* \"--CODEGEN--\":4562:4583   */\n      tag_197\n        /* \"--CODEGEN--\":4577:4582   */\n      dup2\n        /* \"--CODEGEN--\":4562:4583   */\n      jump(tag_198)\n    tag_197:\n        /* \"--CODEGEN--\":4557:4560   */\n      dup3\n        /* \"--CODEGEN--\":4550:4584   */\n      mstore\n        /* \"--CODEGEN--\":4544:4589   */\n      pop\n      pop\n      jump\n        /* \"--CODEGEN--\":4596:4699   */\n    tag_199:\n        /* \"--CODEGEN--\":4669:4693   */\n      tag_201\n        /* \"--CODEGEN--\":4687:4692   */\n      dup2\n        /* \"--CODEGEN--\":4669:4693   */\n      jump(tag_202)\n    tag_201:\n        /* \"--CODEGEN--\":4664:4667   */\n      dup3\n        /* \"--CODEGEN--\":4657:4694   */\n      mstore\n        /* \"--CODEGEN--\":4651:4699   */\n      pop\n      pop\n      jump\n        /* \"--CODEGEN--\":4706:4819   */\n    tag_203:\n        /* \"--CODEGEN--\":4789:4813   */\n      tag_205\n        /* \"--CODEGEN--\":4807:4812   */\n      dup2\n        /* \"--CODEGEN--\":4789:4813   */\n      jump(tag_202)\n    tag_205:\n        /* \"--CODEGEN--\":4784:4787   */\n      dup3\n        /* \"--CODEGEN--\":4777:4814   */\n      mstore\n        /* \"--CODEGEN--\":4771:4819   */\n      pop\n      pop\n      jump\n        /* \"--CODEGEN--\":4826:4936   */\n    tag_206:\n        /* \"--CODEGEN--\":4907:4930   */\n      tag_208\n        /* \"--CODEGEN--\":4924:4929   */\n      dup2\n        /* \"--CODEGEN--\":4907:4930   */\n      jump(tag_209)\n    tag_208:\n        /* \"--CODEGEN--\":4902:4905   */\n      dup3\n        /* \"--CODEGEN--\":4895:4931   */\n      mstore\n        /* \"--CODEGEN--\":4889:4936   */\n      pop\n      pop\n      jump\n        /* \"--CODEGEN--\":4943:5091   */\n    tag_210:\n        /* \"--CODEGEN--\":5042:5085   */\n      tag_212\n        /* \"--CODEGEN--\":5061:5084   */\n      tag_213\n        /* \"--CODEGEN--\":5078:5083   */\n      dup3\n        /* \"--CODEGEN--\":5061:5084   */\n      jump(tag_209)\n    tag_213:\n        /* \"--CODEGEN--\":5042:5085   */\n      jump(tag_214)\n    tag_212:\n        /* \"--CODEGEN--\":5037:5040   */\n      dup3\n        /* \"--CODEGEN--\":5030:5086   */\n      mstore\n        /* \"--CODEGEN--\":5024:5091   */\n      pop\n      pop\n      jump\n        /* \"--CODEGEN--\":5098:5454   */\n    tag_215:\n      0x00\n        /* \"--CODEGEN--\":5226:5264   */\n      tag_217\n        /* \"--CODEGEN--\":5258:5263   */\n      dup3\n        /* \"--CODEGEN--\":5226:5264   */\n      jump(tag_218)\n    tag_217:\n        /* \"--CODEGEN--\":5276:5364   */\n      tag_219\n        /* \"--CODEGEN--\":5357:5363   */\n      dup2\n        /* \"--CODEGEN--\":5352:5355   */\n      dup6\n        /* \"--CODEGEN--\":5276:5364   */\n      jump(tag_220)\n    tag_219:\n        /* \"--CODEGEN--\":5269:5364   */\n      swap4\n      pop\n        /* \"--CODEGEN--\":5369:5421   */\n      tag_221\n        /* \"--CODEGEN--\":5414:5420   */\n      dup2\n        /* \"--CODEGEN--\":5409:5412   */\n      dup6\n        /* \"--CODEGEN--\":5402:5406   */\n      0x20\n        /* \"--CODEGEN--\":5395:5400   */\n      dup7\n        /* \"--CODEGEN--\":5391:5407   */\n      add\n        /* \"--CODEGEN--\":5369:5421   */\n      jump(tag_222)\n    tag_221:\n        /* \"--CODEGEN--\":5442:5448   */\n      dup1\n        /* \"--CODEGEN--\":5437:5440   */\n      dup5\n        /* \"--CODEGEN--\":5433:5449   */\n      add\n        /* \"--CODEGEN--\":5426:5449   */\n      swap2\n      pop\n        /* \"--CODEGEN--\":5206:5454   */\n      pop\n      swap3\n      swap2\n      pop\n      pop\n      jump\n        /* \"--CODEGEN--\":5461:5776   */\n    tag_223:\n      0x00\n        /* \"--CODEGEN--\":5557:5591   */\n      tag_225\n        /* \"--CODEGEN--\":5585:5590   */\n      dup3\n        /* \"--CODEGEN--\":5557:5591   */\n      jump(tag_226)\n    tag_225:\n        /* \"--CODEGEN--\":5603:5663   */\n      tag_227\n        /* \"--CODEGEN--\":5656:5662   */\n      dup2\n        /* \"--CODEGEN--\":5651:5654   */\n      dup6\n        /* \"--CODEGEN--\":5603:5663   */\n      jump(tag_228)\n    tag_227:\n        /* \"--CODEGEN--\":5596:5663   */\n      swap4\n      pop\n        /* \"--CODEGEN--\":5668:5720   */\n      tag_229\n        /* \"--CODEGEN--\":5713:5719   */\n      dup2\n        /* \"--CODEGEN--\":5708:5711   */\n      dup6\n        /* \"--CODEGEN--\":5701:5705   */\n      0x20\n        /* \"--CODEGEN--\":5694:5699   */\n      dup7\n        /* \"--CODEGEN--\":5690:5706   */\n      add\n        /* \"--CODEGEN--\":5668:5720   */\n      jump(tag_222)\n    tag_229:\n        /* \"--CODEGEN--\":5741:5770   */\n      tag_230\n        /* \"--CODEGEN--\":5763:5769   */\n      dup2\n        /* \"--CODEGEN--\":5741:5770   */\n      jump(tag_231)\n    tag_230:\n        /* \"--CODEGEN--\":5736:5739   */\n      dup5\n        /* \"--CODEGEN--\":5732:5771   */\n      add\n        /* \"--CODEGEN--\":5725:5771   */\n      swap2\n      pop\n        /* \"--CODEGEN--\":5537:5776   */\n      pop\n      swap3\n      swap2\n      pop\n      pop\n      jump\n        /* \"--CODEGEN--\":5783:6118   */\n    tag_232:\n      0x00\n        /* \"--CODEGEN--\":5889:5923   */\n      tag_234\n        /* \"--CODEGEN--\":5917:5922   */\n      dup3\n        /* \"--CODEGEN--\":5889:5923   */\n      jump(tag_226)\n    tag_234:\n        /* \"--CODEGEN--\":5935:6005   */\n      tag_235\n        /* \"--CODEGEN--\":5998:6004   */\n      dup2\n        /* \"--CODEGEN--\":5993:5996   */\n      dup6\n        /* \"--CODEGEN--\":5935:6005   */\n      jump(tag_236)\n    tag_235:\n        /* \"--CODEGEN--\":5928:6005   */\n      swap4\n      pop\n        /* \"--CODEGEN--\":6010:6062   */\n      tag_237\n        /* \"--CODEGEN--\":6055:6061   */\n      dup2\n        /* \"--CODEGEN--\":6050:6053   */\n      dup6\n        /* \"--CODEGEN--\":6043:6047   */\n      0x20\n        /* \"--CODEGEN--\":6036:6041   */\n      dup7\n        /* \"--CODEGEN--\":6032:6048   */\n      add\n        /* \"--CODEGEN--\":6010:6062   */\n      jump(tag_222)\n    tag_237:\n        /* \"--CODEGEN--\":6083:6112   */\n      tag_238\n        /* \"--CODEGEN--\":6105:6111   */\n      dup2\n        /* \"--CODEGEN--\":6083:6112   */\n      jump(tag_231)\n    tag_238:\n        /* \"--CODEGEN--\":6078:6081   */\n      dup5\n        /* \"--CODEGEN--\":6074:6113   */\n      add\n        /* \"--CODEGEN--\":6067:6113   */\n      swap2\n      pop\n        /* \"--CODEGEN--\":5869:6118   */\n      pop\n      swap3\n      swap2\n      pop\n      pop\n      jump\n        /* \"--CODEGEN--\":6126:6456   */\n    tag_239:\n      0x00\n        /* \"--CODEGEN--\":6286:6353   */\n      tag_241\n        /* \"--CODEGEN--\":6350:6352   */\n      0x1e\n        /* \"--CODEGEN--\":6345:6348   */\n      dup4\n        /* \"--CODEGEN--\":6286:6353   */\n      jump(tag_242)\n    tag_241:\n        /* \"--CODEGEN--\":6279:6353   */\n      swap2\n      pop\n        /* \"--CODEGEN--\":6386:6418   */\n      0x73656e646572206d7573742062652062726964676520636f6e74726163740000\n        /* \"--CODEGEN--\":6382:6383   */\n      0x00\n        /* \"--CODEGEN--\":6377:6380   */\n      dup4\n        /* \"--CODEGEN--\":6373:6384   */\n      add\n        /* \"--CODEGEN--\":6366:6419   */\n      mstore\n        /* \"--CODEGEN--\":6447:6449   */\n      0x20\n        /* \"--CODEGEN--\":6442:6445   */\n      dup3\n        /* \"--CODEGEN--\":6438:6450   */\n      add\n        /* \"--CODEGEN--\":6431:6450   */\n      swap1\n      pop\n        /* \"--CODEGEN--\":6272:6456   */\n      swap2\n      swap1\n      pop\n      jump\n        /* \"--CODEGEN--\":6465:6840   */\n    tag_243:\n      0x00\n        /* \"--CODEGEN--\":6625:6692   */\n      tag_245\n        /* \"--CODEGEN--\":6689:6691   */\n      0x26\n        /* \"--CODEGEN--\":6684:6687   */\n      dup4\n        /* \"--CODEGEN--\":6625:6692   */\n      jump(tag_242)\n    tag_245:\n        /* \"--CODEGEN--\":6618:6692   */\n      swap2\n      pop\n        /* \"--CODEGEN--\":6725:6759   */\n      0x64656c656761746563616c6c20746f20636f6e74726163744164647265737320\n        /* \"--CODEGEN--\":6721:6722   */\n      0x00\n        /* \"--CODEGEN--\":6716:6719   */\n      dup4\n        /* \"--CODEGEN--\":6712:6723   */\n      add\n        /* \"--CODEGEN--\":6705:6760   */\n      mstore\n        /* \"--CODEGEN--\":6794:6802   */\n      0x6661696c65640000000000000000000000000000000000000000000000000000\n        /* \"--CODEGEN--\":6789:6791   */\n      0x20\n        /* \"--CODEGEN--\":6784:6787   */\n      dup4\n        /* \"--CODEGEN--\":6780:6792   */\n      add\n        /* \"--CODEGEN--\":6773:6803   */\n      mstore\n        /* \"--CODEGEN--\":6831:6833   */\n      0x40\n        /* \"--CODEGEN--\":6826:6829   */\n      dup3\n        /* \"--CODEGEN--\":6822:6834   */\n      add\n        /* \"--CODEGEN--\":6815:6834   */\n      swap1\n      pop\n        /* \"--CODEGEN--\":6611:6840   */\n      swap2\n      swap1\n      pop\n      jump\n        /* \"--CODEGEN--\":6849:7229   */\n    tag_246:\n      0x00\n        /* \"--CODEGEN--\":7009:7076   */\n      tag_248\n        /* \"--CODEGEN--\":7073:7075   */\n      0x2b\n        /* \"--CODEGEN--\":7068:7071   */\n      dup4\n        /* \"--CODEGEN--\":7009:7076   */\n      jump(tag_242)\n    tag_248:\n        /* \"--CODEGEN--\":7002:7076   */\n      swap2\n      pop\n        /* \"--CODEGEN--\":7109:7143   */\n      0x70726f766964656420636f6e747261637441646472657373206973206e6f7420\n        /* \"--CODEGEN--\":7105:7106   */\n      0x00\n        /* \"--CODEGEN--\":7100:7103   */\n      dup4\n        /* \"--CODEGEN--\":7096:7107   */\n      add\n        /* \"--CODEGEN--\":7089:7144   */\n      mstore\n        /* \"--CODEGEN--\":7178:7191   */\n      0x77686974656c6973746564000000000000000000000000000000000000000000\n        /* \"--CODEGEN--\":7173:7175   */\n      0x20\n        /* \"--CODEGEN--\":7168:7171   */\n      dup4\n        /* \"--CODEGEN--\":7164:7176   */\n      add\n        /* \"--CODEGEN--\":7157:7192   */\n      mstore\n        /* \"--CODEGEN--\":7220:7222   */\n      0x40\n        /* \"--CODEGEN--\":7215:7218   */\n      dup3\n        /* \"--CODEGEN--\":7211:7223   */\n      add\n        /* \"--CODEGEN--\":7204:7223   */\n      swap1\n      pop\n        /* \"--CODEGEN--\":6995:7229   */\n      swap2\n      swap1\n      pop\n      jump\n        /* \"--CODEGEN--\":7318:8228   */\n    tag_249:\n      0x00\n        /* \"--CODEGEN--\":7477:7481   */\n      0x80\n        /* \"--CODEGEN--\":7472:7475   */\n      dup4\n        /* \"--CODEGEN--\":7468:7482   */\n      add\n        /* \"--CODEGEN--\":7575:7579   */\n      0x00\n        /* \"--CODEGEN--\":7568:7573   */\n      dup4\n        /* \"--CODEGEN--\":7564:7580   */\n      add\n        /* \"--CODEGEN--\":7558:7581   */\n      mload\n        /* \"--CODEGEN--\":7587:7646   */\n      tag_251\n        /* \"--CODEGEN--\":7640:7644   */\n      0x00\n        /* \"--CODEGEN--\":7635:7638   */\n      dup7\n        /* \"--CODEGEN--\":7631:7645   */\n      add\n        /* \"--CODEGEN--\":7617:7629   */\n      dup3\n        /* \"--CODEGEN--\":7587:7646   */\n      jump(tag_252)\n    tag_251:\n        /* \"--CODEGEN--\":7497:7652   */\n      pop\n        /* \"--CODEGEN--\":7731:7735   */\n      0x20\n        /* \"--CODEGEN--\":7724:7729   */\n      dup4\n        /* \"--CODEGEN--\":7720:7736   */\n      add\n        /* \"--CODEGEN--\":7714:7737   */\n      mload\n        /* \"--CODEGEN--\":7743:7806   */\n      tag_253\n        /* \"--CODEGEN--\":7800:7804   */\n      0x20\n        /* \"--CODEGEN--\":7795:7798   */\n      dup7\n        /* \"--CODEGEN--\":7791:7805   */\n      add\n        /* \"--CODEGEN--\":7777:7789   */\n      dup3\n        /* \"--CODEGEN--\":7743:7806   */\n      jump(tag_188)\n    tag_253:\n        /* \"--CODEGEN--\":7662:7812   */\n      pop\n        /* \"--CODEGEN--\":7892:7896   */\n      0x40\n        /* \"--CODEGEN--\":7885:7890   */\n      dup4\n        /* \"--CODEGEN--\":7881:7897   */\n      add\n        /* \"--CODEGEN--\":7875:7898   */\n      mload\n        /* \"--CODEGEN--\":7904:7967   */\n      tag_254\n        /* \"--CODEGEN--\":7961:7965   */\n      0x40\n        /* \"--CODEGEN--\":7956:7959   */\n      dup7\n        /* \"--CODEGEN--\":7952:7966   */\n      add\n        /* \"--CODEGEN--\":7938:7950   */\n      dup3\n        /* \"--CODEGEN--\":7904:7967   */\n      jump(tag_199)\n    tag_254:\n        /* \"--CODEGEN--\":7822:7973   */\n      pop\n        /* \"--CODEGEN--\":8051:8055   */\n      0x60\n        /* \"--CODEGEN--\":8044:8049   */\n      dup4\n        /* \"--CODEGEN--\":8040:8056   */\n      add\n        /* \"--CODEGEN--\":8034:8057   */\n      mload\n        /* \"--CODEGEN--\":8103:8106   */\n      dup5\n        /* \"--CODEGEN--\":8097:8101   */\n      dup3\n        /* \"--CODEGEN--\":8093:8107   */\n      sub\n        /* \"--CODEGEN--\":8086:8090   */\n      0x60\n        /* \"--CODEGEN--\":8081:8084   */\n      dup7\n        /* \"--CODEGEN--\":8077:8091   */\n      add\n        /* \"--CODEGEN--\":8070:8108   */\n      mstore\n        /* \"--CODEGEN--\":8123:8190   */\n      tag_255\n        /* \"--CODEGEN--\":8185:8189   */\n      dup3\n        /* \"--CODEGEN--\":8171:8183   */\n      dup3\n        /* \"--CODEGEN--\":8123:8190   */\n      jump(tag_223)\n    tag_255:\n        /* \"--CODEGEN--\":8115:8190   */\n      swap2\n      pop\n        /* \"--CODEGEN--\":7983:8202   */\n      pop\n        /* \"--CODEGEN--\":8219:8223   */\n      dup1\n        /* \"--CODEGEN--\":8212:8223   */\n      swap2\n      pop\n        /* \"--CODEGEN--\":7450:8228   */\n      pop\n      swap3\n      swap2\n      pop\n      pop\n      jump\n        /* \"--CODEGEN--\":8235:8332   */\n    tag_252:\n        /* \"--CODEGEN--\":8304:8326   */\n      tag_257\n        /* \"--CODEGEN--\":8320:8325   */\n      dup2\n        /* \"--CODEGEN--\":8304:8326   */\n      jump(tag_258)\n    tag_257:\n        /* \"--CODEGEN--\":8299:8302   */\n      dup3\n        /* \"--CODEGEN--\":8292:8327   */\n      mstore\n        /* \"--CODEGEN--\":8286:8332   */\n      pop\n      pop\n      jump\n        /* \"--CODEGEN--\":8339:8446   */\n    tag_259:\n        /* \"--CODEGEN--\":8418:8440   */\n      tag_261\n        /* \"--CODEGEN--\":8434:8439   */\n      dup2\n        /* \"--CODEGEN--\":8418:8440   */\n      jump(tag_258)\n    tag_261:\n        /* \"--CODEGEN--\":8413:8416   */\n      dup3\n        /* \"--CODEGEN--\":8406:8441   */\n      mstore\n        /* \"--CODEGEN--\":8400:8446   */\n      pop\n      pop\n      jump\n        /* \"--CODEGEN--\":8453:8849   */\n    tag_77:\n      0x00\n        /* \"--CODEGEN--\":8616:8689   */\n      tag_263\n        /* \"--CODEGEN--\":8685:8688   */\n      dup3\n        /* \"--CODEGEN--\":8676:8682   */\n      dup6\n        /* \"--CODEGEN--\":8616:8689   */\n      jump(tag_210)\n    tag_263:\n        /* \"--CODEGEN--\":8711:8712   */\n      0x04\n        /* \"--CODEGEN--\":8706:8709   */\n      dup3\n        /* \"--CODEGEN--\":8702:8713   */\n      add\n        /* \"--CODEGEN--\":8695:8713   */\n      swap2\n      pop\n        /* \"--CODEGEN--\":8731:8824   */\n      tag_264\n        /* \"--CODEGEN--\":8820:8823   */\n      dup3\n        /* \"--CODEGEN--\":8811:8817   */\n      dup5\n        /* \"--CODEGEN--\":8731:8824   */\n      jump(tag_215)\n    tag_264:\n        /* \"--CODEGEN--\":8724:8824   */\n      swap2\n      pop\n        /* \"--CODEGEN--\":8841:8844   */\n      dup2\n        /* \"--CODEGEN--\":8834:8844   */\n      swap1\n      pop\n        /* \"--CODEGEN--\":8604:8849   */\n      swap4\n      swap3\n      pop\n      pop\n      pop\n      jump\n        /* \"--CODEGEN--\":8856:9118   */\n    tag_79:\n      0x00\n        /* \"--CODEGEN--\":9000:9093   */\n      tag_266\n        /* \"--CODEGEN--\":9089:9092   */\n      dup3\n        /* \"--CODEGEN--\":9080:9086   */\n      dup5\n        /* \"--CODEGEN--\":9000:9093   */\n      jump(tag_215)\n    tag_266:\n        /* \"--CODEGEN--\":8993:9093   */\n      swap2\n      pop\n        /* \"--CODEGEN--\":9110:9113   */\n      dup2\n        /* \"--CODEGEN--\":9103:9113   */\n      swap1\n      pop\n        /* \"--CODEGEN--\":8981:9118   */\n      swap3\n      swap2\n      pop\n      pop\n      jump\n        /* \"--CODEGEN--\":9125:9338   */\n    tag_18:\n      0x00\n        /* \"--CODEGEN--\":9243:9245   */\n      0x20\n        /* \"--CODEGEN--\":9232:9241   */\n      dup3\n        /* \"--CODEGEN--\":9228:9246   */\n      add\n        /* \"--CODEGEN--\":9220:9246   */\n      swap1\n      pop\n        /* \"--CODEGEN--\":9257:9328   */\n      tag_268\n        /* \"--CODEGEN--\":9325:9326   */\n      0x00\n        /* \"--CODEGEN--\":9314:9323   */\n      dup4\n        /* \"--CODEGEN--\":9310:9327   */\n      add\n        /* \"--CODEGEN--\":9301:9307   */\n      dup5\n        /* \"--CODEGEN--\":9257:9328   */\n      jump(tag_192)\n    tag_268:\n        /* \"--CODEGEN--\":9214:9338   */\n      swap3\n      swap2\n      pop\n      pop\n      jump\n        /* \"--CODEGEN--\":9345:9546   */\n    tag_34:\n      0x00\n        /* \"--CODEGEN--\":9457:9459   */\n      0x20\n        /* \"--CODEGEN--\":9446:9455   */\n      dup3\n        /* \"--CODEGEN--\":9442:9460   */\n      add\n        /* \"--CODEGEN--\":9434:9460   */\n      swap1\n      pop\n        /* \"--CODEGEN--\":9471:9536   */\n      tag_270\n        /* \"--CODEGEN--\":9533:9534   */\n      0x00\n        /* \"--CODEGEN--\":9522:9531   */\n      dup4\n        /* \"--CODEGEN--\":9518:9535   */\n      add\n        /* \"--CODEGEN--\":9509:9515   */\n      dup5\n        /* \"--CODEGEN--\":9471:9536   */\n      jump(tag_195)\n    tag_270:\n        /* \"--CODEGEN--\":9428:9546   */\n      swap3\n      swap2\n      pop\n      pop\n      jump\n        /* \"--CODEGEN--\":9553:9766   */\n    tag_67:\n      0x00\n        /* \"--CODEGEN--\":9671:9673   */\n      0x20\n        /* \"--CODEGEN--\":9660:9669   */\n      dup3\n        /* \"--CODEGEN--\":9656:9674   */\n      add\n        /* \"--CODEGEN--\":9648:9674   */\n      swap1\n      pop\n        /* \"--CODEGEN--\":9685:9756   */\n      tag_272\n        /* \"--CODEGEN--\":9753:9754   */\n      0x00\n        /* \"--CODEGEN--\":9742:9751   */\n      dup4\n        /* \"--CODEGEN--\":9738:9755   */\n      add\n        /* \"--CODEGEN--\":9729:9735   */\n      dup5\n        /* \"--CODEGEN--\":9685:9756   */\n      jump(tag_203)\n    tag_272:\n        /* \"--CODEGEN--\":9642:9766   */\n      swap3\n      swap2\n      pop\n      pop\n      jump\n        /* \"--CODEGEN--\":9773:9982   */\n    tag_39:\n      0x00\n        /* \"--CODEGEN--\":9889:9891   */\n      0x20\n        /* \"--CODEGEN--\":9878:9887   */\n      dup3\n        /* \"--CODEGEN--\":9874:9892   */\n      add\n        /* \"--CODEGEN--\":9866:9892   */\n      swap1\n      pop\n        /* \"--CODEGEN--\":9903:9972   */\n      tag_274\n        /* \"--CODEGEN--\":9969:9970   */\n      0x00\n        /* \"--CODEGEN--\":9958:9967   */\n      dup4\n        /* \"--CODEGEN--\":9954:9971   */\n      add\n        /* \"--CODEGEN--\":9945:9951   */\n      dup5\n        /* \"--CODEGEN--\":9903:9972   */\n      jump(tag_206)\n    tag_274:\n        /* \"--CODEGEN--\":9860:9982   */\n      swap3\n      swap2\n      pop\n      pop\n      jump\n        /* \"--CODEGEN--\":9989:10396   */\n    tag_118:\n      0x00\n        /* \"--CODEGEN--\":10180:10182   */\n      0x20\n        /* \"--CODEGEN--\":10169:10178   */\n      dup3\n        /* \"--CODEGEN--\":10165:10183   */\n      add\n        /* \"--CODEGEN--\":10157:10183   */\n      swap1\n      pop\n        /* \"--CODEGEN--\":10230:10239   */\n      dup2\n        /* \"--CODEGEN--\":10224:10228   */\n      dup2\n        /* \"--CODEGEN--\":10220:10240   */\n      sub\n        /* \"--CODEGEN--\":10216:10217   */\n      0x00\n        /* \"--CODEGEN--\":10205:10214   */\n      dup4\n        /* \"--CODEGEN--\":10201:10218   */\n      add\n        /* \"--CODEGEN--\":10194:10241   */\n      mstore\n        /* \"--CODEGEN--\":10255:10386   */\n      tag_276\n        /* \"--CODEGEN--\":10381:10385   */\n      dup2\n        /* \"--CODEGEN--\":10255:10386   */\n      jump(tag_239)\n    tag_276:\n        /* \"--CODEGEN--\":10247:10386   */\n      swap1\n      pop\n        /* \"--CODEGEN--\":10151:10396   */\n      swap2\n      swap1\n      pop\n      jump\n        /* \"--CODEGEN--\":10403:10810   */\n    tag_85:\n      0x00\n        /* \"--CODEGEN--\":10594:10596   */\n      0x20\n        /* \"--CODEGEN--\":10583:10592   */\n      dup3\n        /* \"--CODEGEN--\":10579:10597   */\n      add\n        /* \"--CODEGEN--\":10571:10597   */\n      swap1\n      pop\n        /* \"--CODEGEN--\":10644:10653   */\n      dup2\n        /* \"--CODEGEN--\":10638:10642   */\n      dup2\n        /* \"--CODEGEN--\":10634:10654   */\n      sub\n        /* \"--CODEGEN--\":10630:10631   */\n      0x00\n        /* \"--CODEGEN--\":10619:10628   */\n      dup4\n        /* \"--CODEGEN--\":10615:10632   */\n      add\n        /* \"--CODEGEN--\":10608:10655   */\n      mstore\n        /* \"--CODEGEN--\":10669:10800   */\n      tag_278\n        /* \"--CODEGEN--\":10795:10799   */\n      dup2\n        /* \"--CODEGEN--\":10669:10800   */\n      jump(tag_243)\n    tag_278:\n        /* \"--CODEGEN--\":10661:10800   */\n      swap1\n      pop\n        /* \"--CODEGEN--\":10565:10810   */\n      swap2\n      swap1\n      pop\n      jump\n        /* \"--CODEGEN--\":10817:11224   */\n    tag_74:\n      0x00\n        /* \"--CODEGEN--\":11008:11010   */\n      0x20\n        /* \"--CODEGEN--\":10997:11006   */\n      dup3\n        /* \"--CODEGEN--\":10993:11011   */\n      add\n        /* \"--CODEGEN--\":10985:11011   */\n      swap1\n      pop\n        /* \"--CODEGEN--\":11058:11067   */\n      dup2\n        /* \"--CODEGEN--\":11052:11056   */\n      dup2\n        /* \"--CODEGEN--\":11048:11068   */\n      sub\n        /* \"--CODEGEN--\":11044:11045   */\n      0x00\n        /* \"--CODEGEN--\":11033:11042   */\n      dup4\n        /* \"--CODEGEN--\":11029:11046   */\n      add\n        /* \"--CODEGEN--\":11022:11069   */\n      mstore\n        /* \"--CODEGEN--\":11083:11214   */\n      tag_280\n        /* \"--CODEGEN--\":11209:11213   */\n      dup2\n        /* \"--CODEGEN--\":11083:11214   */\n      jump(tag_246)\n    tag_280:\n        /* \"--CODEGEN--\":11075:11214   */\n      swap1\n      pop\n        /* \"--CODEGEN--\":10979:11224   */\n      swap2\n      swap1\n      pop\n      jump\n        /* \"--CODEGEN--\":11231:11608   */\n    tag_45:\n      0x00\n        /* \"--CODEGEN--\":11407:11409   */\n      0x20\n        /* \"--CODEGEN--\":11396:11405   */\n      dup3\n        /* \"--CODEGEN--\":11392:11410   */\n      add\n        /* \"--CODEGEN--\":11384:11410   */\n      swap1\n      pop\n        /* \"--CODEGEN--\":11457:11466   */\n      dup2\n        /* \"--CODEGEN--\":11451:11455   */\n      dup2\n        /* \"--CODEGEN--\":11447:11467   */\n      sub\n        /* \"--CODEGEN--\":11443:11444   */\n      0x00\n        /* \"--CODEGEN--\":11432:11441   */\n      dup4\n        /* \"--CODEGEN--\":11428:11445   */\n      add\n        /* \"--CODEGEN--\":11421:11468   */\n      mstore\n        /* \"--CODEGEN--\":11482:11598   */\n      tag_282\n        /* \"--CODEGEN--\":11593:11597   */\n      dup2\n        /* \"--CODEGEN--\":11584:11590   */\n      dup5\n        /* \"--CODEGEN--\":11482:11598   */\n      jump(tag_249)\n    tag_282:\n        /* \"--CODEGEN--\":11474:11598   */\n      swap1\n      pop\n        /* \"--CODEGEN--\":11378:11608   */\n      swap3\n      swap2\n      pop\n      pop\n      jump\n        /* \"--CODEGEN--\":11615:12230   */\n    tag_28:\n      0x00\n        /* \"--CODEGEN--\":11827:11830   */\n      0x80\n        /* \"--CODEGEN--\":11816:11825   */\n      dup3\n        /* \"--CODEGEN--\":11812:11831   */\n      add\n        /* \"--CODEGEN--\":11804:11831   */\n      swap1\n      pop\n        /* \"--CODEGEN--\":11842:11909   */\n      tag_284\n        /* \"--CODEGEN--\":11906:11907   */\n      0x00\n        /* \"--CODEGEN--\":11895:11904   */\n      dup4\n        /* \"--CODEGEN--\":11891:11908   */\n      add\n        /* \"--CODEGEN--\":11882:11888   */\n      dup8\n        /* \"--CODEGEN--\":11842:11909   */\n      jump(tag_259)\n    tag_284:\n        /* \"--CODEGEN--\":11920:11992   */\n      tag_285\n        /* \"--CODEGEN--\":11988:11990   */\n      0x20\n        /* \"--CODEGEN--\":11977:11986   */\n      dup4\n        /* \"--CODEGEN--\":11973:11991   */\n      add\n        /* \"--CODEGEN--\":11964:11970   */\n      dup7\n        /* \"--CODEGEN--\":11920:11992   */\n      jump(tag_192)\n    tag_285:\n        /* \"--CODEGEN--\":12003:12075   */\n      tag_286\n        /* \"--CODEGEN--\":12071:12073   */\n      0x40\n        /* \"--CODEGEN--\":12060:12069   */\n      dup4\n        /* \"--CODEGEN--\":12056:12074   */\n      add\n        /* \"--CODEGEN--\":12047:12053   */\n      dup6\n        /* \"--CODEGEN--\":12003:12075   */\n      jump(tag_203)\n    tag_286:\n        /* \"--CODEGEN--\":12123:12132   */\n      dup2\n        /* \"--CODEGEN--\":12117:12121   */\n      dup2\n        /* \"--CODEGEN--\":12113:12133   */\n      sub\n        /* \"--CODEGEN--\":12108:12110   */\n      0x60\n        /* \"--CODEGEN--\":12097:12106   */\n      dup4\n        /* \"--CODEGEN--\":12093:12111   */\n      add\n        /* \"--CODEGEN--\":12086:12134   */\n      mstore\n        /* \"--CODEGEN--\":12148:12220   */\n      tag_287\n        /* \"--CODEGEN--\":12215:12219   */\n      dup2\n        /* \"--CODEGEN--\":12206:12212   */\n      dup5\n        /* \"--CODEGEN--\":12148:12220   */\n      jump(tag_232)\n    tag_287:\n        /* \"--CODEGEN--\":12140:12220   */\n      swap1\n      pop\n        /* \"--CODEGEN--\":11798:12230   */\n      swap6\n      swap5\n      pop\n      pop\n      pop\n      pop\n      pop\n      jump\n        /* \"--CODEGEN--\":12237:12354   */\n    tag_226:\n      0x00\n        /* \"--CODEGEN--\":12326:12331   */\n      dup2\n        /* \"--CODEGEN--\":12320:12332   */\n      mload\n        /* \"--CODEGEN--\":12310:12332   */\n      swap1\n      pop\n        /* \"--CODEGEN--\":12291:12354   */\n      swap2\n      swap1\n      pop\n      jump\n        /* \"--CODEGEN--\":12361:12482   */\n    tag_218:\n      0x00\n        /* \"--CODEGEN--\":12454:12459   */\n      dup2\n        /* \"--CODEGEN--\":12448:12460   */\n      mload\n        /* \"--CODEGEN--\":12438:12460   */\n      swap1\n      pop\n        /* \"--CODEGEN--\":12419:12482   */\n      swap2\n      swap1\n      pop\n      jump\n        /* \"--CODEGEN--\":12490:12642   */\n    tag_228:\n      0x00\n        /* \"--CODEGEN--\":12594:12600   */\n      dup3\n        /* \"--CODEGEN--\":12589:12592   */\n      dup3\n        /* \"--CODEGEN--\":12582:12601   */\n      mstore\n        /* \"--CODEGEN--\":12631:12635   */\n      0x20\n        /* \"--CODEGEN--\":12626:12629   */\n      dup3\n        /* \"--CODEGEN--\":12622:12636   */\n      add\n        /* \"--CODEGEN--\":12607:12636   */\n      swap1\n      pop\n        /* \"--CODEGEN--\":12575:12642   */\n      swap3\n      swap2\n      pop\n      pop\n      jump\n        /* \"--CODEGEN--\":12651:12813   */\n    tag_236:\n      0x00\n        /* \"--CODEGEN--\":12765:12771   */\n      dup3\n        /* \"--CODEGEN--\":12760:12763   */\n      dup3\n        /* \"--CODEGEN--\":12753:12772   */\n      mstore\n        /* \"--CODEGEN--\":12802:12806   */\n      0x20\n        /* \"--CODEGEN--\":12797:12800   */\n      dup3\n        /* \"--CODEGEN--\":12793:12807   */\n      add\n        /* \"--CODEGEN--\":12778:12807   */\n      swap1\n      pop\n        /* \"--CODEGEN--\":12746:12813   */\n      swap3\n      swap2\n      pop\n      pop\n      jump\n        /* \"--CODEGEN--\":12822:12966   */\n    tag_220:\n      0x00\n        /* \"--CODEGEN--\":12957:12960   */\n      dup2\n        /* \"--CODEGEN--\":12942:12960   */\n      swap1\n      pop\n        /* \"--CODEGEN--\":12935:12966   */\n      swap3\n      swap2\n      pop\n      pop\n      jump\n        /* \"--CODEGEN--\":12975:13138   */\n    tag_242:\n      0x00\n        /* \"--CODEGEN--\":13090:13096   */\n      dup3\n        /* \"--CODEGEN--\":13085:13088   */\n      dup3\n        /* \"--CODEGEN--\":13078:13097   */\n      mstore\n        /* \"--CODEGEN--\":13127:13131   */\n      0x20\n        /* \"--CODEGEN--\":13122:13125   */\n      dup3\n        /* \"--CODEGEN--\":13118:13132   */\n      add\n        /* \"--CODEGEN--\":13103:13132   */\n      swap1\n      pop\n        /* \"--CODEGEN--\":13071:13138   */\n      swap3\n      swap2\n      pop\n      pop\n      jump\n        /* \"--CODEGEN--\":13146:13237   */\n    tag_191:\n      0x00\n        /* \"--CODEGEN--\":13208:13232   */\n      tag_295\n        /* \"--CODEGEN--\":13226:13231   */\n      dup3\n        /* \"--CODEGEN--\":13208:13232   */\n      jump(tag_296)\n    tag_295:\n        /* \"--CODEGEN--\":13197:13232   */\n      swap1\n      pop\n        /* \"--CODEGEN--\":13191:13237   */\n      swap2\n      swap1\n      pop\n      jump\n        /* \"--CODEGEN--\":13244:13329   */\n    tag_198:\n      0x00\n        /* \"--CODEGEN--\":13317:13322   */\n      dup2\n        /* \"--CODEGEN--\":13310:13323   */\n      iszero\n        /* \"--CODEGEN--\":13303:13324   */\n      iszero\n        /* \"--CODEGEN--\":13292:13324   */\n      swap1\n      pop\n        /* \"--CODEGEN--\":13286:13329   */\n      swap2\n      swap1\n      pop\n      jump\n        /* \"--CODEGEN--\":13336:13408   */\n    tag_202:\n      0x00\n        /* \"--CODEGEN--\":13398:13403   */\n      dup2\n        /* \"--CODEGEN--\":13387:13403   */\n      swap1\n      pop\n        /* \"--CODEGEN--\":13381:13408   */\n      swap2\n      swap1\n      pop\n      jump\n        /* \"--CODEGEN--\":13415:13559   */\n    tag_209:\n      0x00\n        /* \"--CODEGEN--\":13487:13553   */\n      0xffffffff00000000000000000000000000000000000000000000000000000000\n        /* \"--CODEGEN--\":13480:13485   */\n      dup3\n        /* \"--CODEGEN--\":13476:13554   */\n      and\n        /* \"--CODEGEN--\":13465:13554   */\n      swap1\n      pop\n        /* \"--CODEGEN--\":13459:13559   */\n      swap2\n      swap1\n      pop\n      jump\n        /* \"--CODEGEN--\":13566:13687   */\n    tag_296:\n      0x00\n        /* \"--CODEGEN--\":13639:13681   */\n      0xffffffffffffffffffffffffffffffffffffffff\n        /* \"--CODEGEN--\":13632:13637   */\n      dup3\n        /* \"--CODEGEN--\":13628:13682   */\n      and\n        /* \"--CODEGEN--\":13617:13682   */\n      swap1\n      pop\n        /* \"--CODEGEN--\":13611:13687   */\n      swap2\n      swap1\n      pop\n      jump\n        /* \"--CODEGEN--\":13694:13790   */\n    tag_301:\n      0x00\n        /* \"--CODEGEN--\":13766:13784   */\n      0xffffffffffffffff\n        /* \"--CODEGEN--\":13759:13764   */\n      dup3\n        /* \"--CODEGEN--\":13755:13785   */\n      and\n        /* \"--CODEGEN--\":13744:13785   */\n      swap1\n      pop\n        /* \"--CODEGEN--\":13738:13790   */\n      swap2\n      swap1\n      pop\n      jump\n        /* \"--CODEGEN--\":13797:13878   */\n    tag_258:\n      0x00\n        /* \"--CODEGEN--\":13868:13872   */\n      0xff\n        /* \"--CODEGEN--\":13861:13866   */\n      dup3\n        /* \"--CODEGEN--\":13857:13873   */\n      and\n        /* \"--CODEGEN--\":13846:13873   */\n      swap1\n      pop\n        /* \"--CODEGEN--\":13840:13878   */\n      swap2\n      swap1\n      pop\n      jump\n        /* \"--CODEGEN--\":13886:14154   */\n    tag_222:\n        /* \"--CODEGEN--\":13951:13952   */\n      0x00\n        /* \"--CODEGEN--\":13958:14059   */\n    tag_305:\n        /* \"--CODEGEN--\":13972:13978   */\n      dup4\n        /* \"--CODEGEN--\":13969:13970   */\n      dup2\n        /* \"--CODEGEN--\":13966:13979   */\n      lt\n        /* \"--CODEGEN--\":13958:14059   */\n      iszero\n      tag_307\n      jumpi\n        /* \"--CODEGEN--\":14048:14049   */\n      dup1\n        /* \"--CODEGEN--\":14043:14046   */\n      dup3\n        /* \"--CODEGEN--\":14039:14050   */\n      add\n        /* \"--CODEGEN--\":14033:14051   */\n      mload\n        /* \"--CODEGEN--\":14029:14030   */\n      dup2\n        /* \"--CODEGEN--\":14024:14027   */\n      dup5\n        /* \"--CODEGEN--\":14020:14031   */\n      add\n        /* \"--CODEGEN--\":14013:14052   */\n      mstore\n        /* \"--CODEGEN--\":13994:13996   */\n      0x20\n        /* \"--CODEGEN--\":13991:13992   */\n      dup2\n        /* \"--CODEGEN--\":13987:13997   */\n      add\n        /* \"--CODEGEN--\":13982:13997   */\n      swap1\n      pop\n        /* \"--CODEGEN--\":13958:14059   */\n      jump(tag_305)\n    tag_307:\n        /* \"--CODEGEN--\":14074:14080   */\n      dup4\n        /* \"--CODEGEN--\":14071:14072   */\n      dup2\n        /* \"--CODEGEN--\":14068:14081   */\n      gt\n        /* \"--CODEGEN--\":14065:14067   */\n      iszero\n      tag_308\n      jumpi\n        /* \"--CODEGEN--\":14139:14140   */\n      0x00\n        /* \"--CODEGEN--\":14130:14136   */\n      dup5\n        /* \"--CODEGEN--\":14125:14128   */\n      dup5\n        /* \"--CODEGEN--\":14121:14137   */\n      add\n        /* \"--CODEGEN--\":14114:14141   */\n      mstore\n        /* \"--CODEGEN--\":14065:14067   */\n    tag_308:\n        /* \"--CODEGEN--\":13935:14154   */\n      pop\n      pop\n      pop\n      pop\n      jump\n        /* \"--CODEGEN--\":14162:14235   */\n    tag_214:\n      0x00\n        /* \"--CODEGEN--\":14225:14230   */\n      dup2\n        /* \"--CODEGEN--\":14214:14230   */\n      swap1\n      pop\n        /* \"--CODEGEN--\":14208:14235   */\n      swap2\n      swap1\n      pop\n      jump\n        /* \"--CODEGEN--\":14242:14339   */\n    tag_231:\n      0x00\n        /* \"--CODEGEN--\":14330:14332   */\n      0x1f\n        /* \"--CODEGEN--\":14326:14333   */\n      not\n        /* \"--CODEGEN--\":14321:14323   */\n      0x1f\n        /* \"--CODEGEN--\":14314:14319   */\n      dup4\n        /* \"--CODEGEN--\":14310:14324   */\n      add\n        /* \"--CODEGEN--\":14306:14334   */\n      and\n        /* \"--CODEGEN--\":14296:14334   */\n      swap1\n      pop\n        /* \"--CODEGEN--\":14290:14339   */\n      swap2\n      swap1\n      pop\n      jump\n        /* \"--CODEGEN--\":14347:14464   */\n    tag_133:\n        /* \"--CODEGEN--\":14416:14440   */\n      tag_312\n        /* \"--CODEGEN--\":14434:14439   */\n      dup2\n        /* \"--CODEGEN--\":14416:14440   */\n      jump(tag_191)\n    tag_312:\n        /* \"--CODEGEN--\":14409:14414   */\n      dup2\n        /* \"--CODEGEN--\":14406:14441   */\n      eq\n        /* \"--CODEGEN--\":14396:14398   */\n      tag_313\n      jumpi\n        /* \"--CODEGEN--\":14455:14456   */\n      0x00\n        /* \"--CODEGEN--\":14452:14453   */\n      dup1\n        /* \"--CODEGEN--\":14445:14457   */\n      revert\n        /* \"--CODEGEN--\":14396:14398   */\n    tag_313:\n        /* \"--CODEGEN--\":14390:14464   */\n      pop\n      jump\n        /* \"--CODEGEN--\":14471:14588   */\n    tag_137:\n        /* \"--CODEGEN--\":14540:14564   */\n      tag_315\n        /* \"--CODEGEN--\":14558:14563   */\n      dup2\n        /* \"--CODEGEN--\":14540:14564   */\n      jump(tag_202)\n    tag_315:\n        /* \"--CODEGEN--\":14533:14538   */\n      dup2\n        /* \"--CODEGEN--\":14530:14565   */\n      eq\n        /* \"--CODEGEN--\":14520:14522   */\n      tag_316\n      jumpi\n        /* \"--CODEGEN--\":14579:14580   */\n      0x00\n        /* \"--CODEGEN--\":14576:14577   */\n      dup1\n        /* \"--CODEGEN--\":14569:14581   */\n      revert\n        /* \"--CODEGEN--\":14520:14522   */\n    tag_316:\n        /* \"--CODEGEN--\":14514:14588   */\n      pop\n      jump\n        /* \"--CODEGEN--\":14595:14710   */\n    tag_141:\n        /* \"--CODEGEN--\":14663:14686   */\n      tag_318\n        /* \"--CODEGEN--\":14680:14685   */\n      dup2\n        /* \"--CODEGEN--\":14663:14686   */\n      jump(tag_209)\n    tag_318:\n        /* \"--CODEGEN--\":14656:14661   */\n      dup2\n        /* \"--CODEGEN--\":14653:14687   */\n      eq\n        /* \"--CODEGEN--\":14643:14645   */\n      tag_319\n      jumpi\n        /* \"--CODEGEN--\":14701:14702   */\n      0x00\n        /* \"--CODEGEN--\":14698:14699   */\n      dup1\n        /* \"--CODEGEN--\":14691:14703   */\n      revert\n        /* \"--CODEGEN--\":14643:14645   */\n    tag_319:\n        /* \"--CODEGEN--\":14637:14710   */\n      pop\n      jump\n        /* \"--CODEGEN--\":14717:14832   */\n    tag_150:\n        /* \"--CODEGEN--\":14785:14808   */\n      tag_321\n        /* \"--CODEGEN--\":14802:14807   */\n      dup2\n        /* \"--CODEGEN--\":14785:14808   */\n      jump(tag_301)\n    tag_321:\n        /* \"--CODEGEN--\":14778:14783   */\n      dup2\n        /* \"--CODEGEN--\":14775:14809   */\n      eq\n        /* \"--CODEGEN--\":14765:14767   */\n      tag_322\n      jumpi\n        /* \"--CODEGEN--\":14823:14824   */\n      0x00\n        /* \"--CODEGEN--\":14820:14821   */\n      dup1\n        /* \"--CODEGEN--\":14813:14825   */\n      revert\n        /* \"--CODEGEN--\":14765:14767   */\n    tag_322:\n        /* \"--CODEGEN--\":14759:14832   */\n      pop\n      jump\n        /* \"--CODEGEN--\":14839:14952   */\n    tag_154:\n        /* \"--CODEGEN--\":14906:14928   */\n      tag_324\n        /* \"--CODEGEN--\":14922:14927   */\n      dup2\n        /* \"--CODEGEN--\":14906:14928   */\n      jump(tag_258)\n    tag_324:\n        /* \"--CODEGEN--\":14899:14904   */\n      dup2\n        /* \"--CODEGEN--\":14896:14929   */\n      eq\n        /* \"--CODEGEN--\":14886:14888   */\n      tag_325\n      jumpi\n        /* \"--CODEGEN--\":14943:14944   */\n      0x00\n        /* \"--CODEGEN--\":14940:14941   */\n      dup1\n        /* \"--CODEGEN--\":14933:14945   */\n      revert\n        /* \"--CODEGEN--\":14886:14888   */\n    tag_325:\n        /* \"--CODEGEN--\":14880:14952   */\n      pop\n      jump\n\n    auxdata: 0xa2646970667358221220dbeda0b320adef45f6d5bdbbb6f86a0a5557c2d3a738175dbfb10bf8a6e7fc4c64736f6c63430006040033\n}\n",
				"bytecode": {
					"linkReferences": {},
					"object": "60806040523480156200001157600080fd5b506040516200210638038062002106833981810160405281019062000037919062000570565b82518451146200007e576040517f08c379a000000000000000000000000000000000000000000000000000000000815260040162000075906200078e565b60405180910390fd5b8151835114620000c5576040517f08c379a0000000000000000000000000000000000000000000000000000000008152600401620000bc90620007d2565b60405180910390fd5b80518251146200010c576040517f08c379a00000000000000000000000000000000000000000000000000000000081526004016200010390620007b0565b60405180910390fd5b846000806101000a81548173ffffffffffffffffffffffffffffffffffffffff021916908373ffffffffffffffffffffffffffffffffffffffff16021790555060008090505b8451811015620001ce57620001c08582815181106200016d57fe5b60200260200101518583815181106200018257fe5b60200260200101518584815181106200019757fe5b6020026020010151858581518110620001ac57fe5b6020026020010151620001da60201b60201c565b808060010191505062000152565b50505050505062000966565b826002600086815260200190815260200160002060006101000a81548173ffffffffffffffffffffffffffffffffffffffff021916908373ffffffffffffffffffffffffffffffffffffffff16021790555083600360008573ffffffffffffffffffffffffffffffffffffffff1673ffffffffffffffffffffffffffffffffffffffff1681526020019081526020016000208190555081600460008573ffffffffffffffffffffffffffffffffffffffff1673ffffffffffffffffffffffffffffffffffffffff16815260200190815260200160002060006101000a81548163ffffffff021916908360e01c021790555080600560008573ffffffffffffffffffffffffffffffffffffffff1673ffffffffffffffffffffffffffffffffffffffff16815260200190815260200160002060006101000a81548163ffffffff021916908360e01c02179055506001600660008573ffffffffffffffffffffffffffffffffffffffff1673ffffffffffffffffffffffffffffffffffffffff16815260200190815260200160002060006101000a81548160ff02191690831515021790555050505050565b600081519050620003958162000918565b92915050565b600082601f830112620003ad57600080fd5b8151620003c4620003be8262000822565b620007f4565b91508181835260208401935060208101905083856020840282011115620003ea57600080fd5b60005b838110156200041e578162000403888262000384565b845260208401935060208301925050600181019050620003ed565b5050505092915050565b600082601f8301126200043a57600080fd5b8151620004516200044b826200084b565b620007f4565b915081818352602084019350602081019050838560208402820111156200047757600080fd5b60005b83811015620004ab578162000490888262000542565b8452602084019350602083019250506001810190506200047a565b5050505092915050565b600082601f830112620004c757600080fd5b8151620004de620004d88262000874565b620007f4565b915081818352602084019350602081019050838560208402820111156200050457600080fd5b60005b838110156200053857816200051d888262000559565b84526020840193506020830192505060018101905062000507565b5050505092915050565b600081519050620005538162000932565b92915050565b6000815190506200056a816200094c565b92915050565b600080600080600060a086880312156200058957600080fd5b6000620005998882890162000384565b955050602086015167ffffffffffffffff811115620005b757600080fd5b620005c58882890162000428565b945050604086015167ffffffffffffffff811115620005e357600080fd5b620005f1888289016200039b565b935050606086015167ffffffffffffffff8111156200060f57600080fd5b6200061d88828901620004b5565b925050608086015167ffffffffffffffff8111156200063b57600080fd5b6200064988828901620004b5565b9150509295509295909350565b600062000665603c836200089d565b91507f696e697469616c5265736f7572636549447320616e6420696e697469616c436f60008301527f6e7472616374416464726573736573206c656e206d69736d61746368000000006020830152604082019050919050565b6000620006cd603d836200089d565b91507f70726f7669646564206465706f73697420616e6420657865637574652066756e60008301527f6374696f6e207369676e617475726573206c656e206d69736d617463680000006020830152604082019050919050565b6000620007356040836200089d565b91507f70726f766964656420636f6e74726163742061646472657373657320616e642060008301527f66756e6374696f6e207369676e617475726573206c656e206d69736d617463686020830152604082019050919050565b60006020820190508181036000830152620007a98162000656565b9050919050565b60006020820190508181036000830152620007cb81620006be565b9050919050565b60006020820190508181036000830152620007ed8162000726565b9050919050565b6000604051905081810181811067ffffffffffffffff821117156200081857600080fd5b8060405250919050565b600067ffffffffffffffff8211156200083a57600080fd5b602082029050602081019050919050565b600067ffffffffffffffff8211156200086357600080fd5b602082029050602081019050919050565b600067ffffffffffffffff8211156200088c57600080fd5b602082029050602081019050919050565b600082825260208201905092915050565b6000620008bb82620008f8565b9050919050565b6000819050919050565b60007fffffffff0000000000000000000000000000000000000000000000000000000082169050919050565b600073ffffffffffffffffffffffffffffffffffffffff82169050919050565b6200092381620008ae565b81146200092f57600080fd5b50565b6200093d81620008c2565b81146200094957600080fd5b50565b6200095781620008cc565b81146200096357600080fd5b50565b61179080620009766000396000f3fe608060405234801561001057600080fd5b50600436106100a95760003560e01c8063ba484c0911610071578063ba484c091461017b578063bba8185a146101ab578063c54c2a11146101c7578063cb624463146101f7578063e248cff214610227578063ec97d3b414610243576100a9565b8063318c136e146100ae57806338995da9146100cc5780634402027f146100e85780637f79bea81461011b578063a5c3a9851461014b575b600080fd5b6100b6610273565b6040516100c39190611476565b60405180910390f35b6100e660048036038101906100e1919061108c565b610298565b005b61010260048036038101906100fd919061115a565b610609565b6040516101129493929190611564565b60405180910390f35b61013560048036038101906101309190610f7f565b61070b565b6040516101429190611491565b60405180910390f35b61016560048036038101906101609190610f7f565b61072b565b60405161017291906114c7565b60405180910390f35b6101956004803603810190610190919061111e565b61074b565b6040516101a29190611542565b60405180910390f35b6101c560048036038101906101c09190610fd1565b6108c3565b005b6101e160048036038101906101dc9190610fa8565b6108dd565b6040516101ee9190611476565b60405180910390f35b610211600480360381019061020c9190610f7f565b610910565b60405161021e91906114c7565b60405180910390f35b610241600480360381019061023c9190611034565b610930565b005b61025d60048036038101906102589190610f7f565b610b90565b60405161026a91906114ac565b60405180910390f35b6000809054906101000a900473ffffffffffffffffffffffffffffffffffffffff1681565b6102a0610ba8565b6000606060c4359150604051905081810160200160405260c4360360c482376000600260008a815260200190815260200160002060009054906101000a900473ffffffffffffffffffffffffffffffffffffffff169050600660008273ffffffffffffffffffffffffffffffffffffffff1673ffffffffffffffffffffffffffffffffffffffff16815260200190815260200160002060009054906101000a900460ff16610383576040517f08c379a000000000000000000000000000000000000000000000000000000000815260040161037a90611522565b60405180910390fd5b6000600460008373ffffffffffffffffffffffffffffffffffffffff1673ffffffffffffffffffffffffffffffffffffffff16815260200190815260200160002060009054906101000a900460e01b9050600060e01b7bffffffffffffffffffffffffffffffffffffffffffffffffffffffff1916817bffffffffffffffffffffffffffffffffffffffffffffffffffffffff1916146104f35760608184604051602001610432929190611437565b604051602081830303815290604052905060008373ffffffffffffffffffffffffffffffffffffffff168260405161046a919061145f565b6000604051808303816000865af19150503d80600081146104a7576040519150601f19603f3d011682016040523d82523d6000602084013e6104ac565b606091505b50509050806104f0576040517f08c379a00000000000000000000000000000000000000000000000000000000081526004016104e790611502565b60405180910390fd5b50505b60405180608001604052808a60ff1681526020018873ffffffffffffffffffffffffffffffffffffffff1681526020018b815260200184815250600160008b60ff1660ff16815260200190815260200160002060008a67ffffffffffffffff1667ffffffffffffffff16815260200190815260200160002060008201518160000160006101000a81548160ff021916908360ff16021790555060208201518160000160016101000a81548173ffffffffffffffffffffffffffffffffffffffff021916908373ffffffffffffffffffffffffffffffffffffffff1602179055506040820151816001015560608201518160020190805190602001906105f9929190610de3565b5090505050505050505050505050565b6001602052816000526040600020602052806000526040600020600091509150508060000160009054906101000a900460ff16908060000160019054906101000a900473ffffffffffffffffffffffffffffffffffffffff1690806001015490806002018054600181600116156101000203166002900480601f0160208091040260200160405190810160405280929190818152602001828054600181600116156101000203166002900480156107015780601f106106d657610100808354040283529160200191610701565b820191906000526020600020905b8154815290600101906020018083116106e457829003601f168201915b5050505050905084565b60066020528060005260406000206000915054906101000a900460ff1681565b60056020528060005260406000206000915054906101000a900460e01b81565b610753610e63565b600160008360ff1660ff16815260200190815260200160002060008467ffffffffffffffff1667ffffffffffffffff1681526020019081526020016000206040518060800160405290816000820160009054906101000a900460ff1660ff1660ff1681526020016000820160019054906101000a900473ffffffffffffffffffffffffffffffffffffffff1673ffffffffffffffffffffffffffffffffffffffff1673ffffffffffffffffffffffffffffffffffffffff16815260200160018201548152602001600282018054600181600116156101000203166002900480601f0160208091040260200160405190810160405280929190818152602001828054600181600116156101000203166002900480156108b25780601f10610887576101008083540402835291602001916108b2565b820191906000526020600020905b81548152906001019060200180831161089557829003601f168201915b505050505081525050905092915050565b6108cb610ba8565b6108d784848484610c39565b50505050565b60026020528060005260406000206000915054906101000a900473ffffffffffffffffffffffffffffffffffffffff1681565b60046020528060005260406000206000915054906101000a900460e01b81565b610938610ba8565b6060604051905060643580820160600160405260643603606483375060006002600086815260200190815260200160002060009054906101000a900473ffffffffffffffffffffffffffffffffffffffff169050600660008273ffffffffffffffffffffffffffffffffffffffff1673ffffffffffffffffffffffffffffffffffffffff16815260200190815260200160002060009054906101000a900460ff16610a18576040517f08c379a0000000000000000000000000000000000000000000000000000000008152600401610a0f90611522565b60405180910390fd5b6000600560008373ffffffffffffffffffffffffffffffffffffffff1673ffffffffffffffffffffffffffffffffffffffff16815260200190815260200160002060009054906101000a900460e01b9050600060e01b7bffffffffffffffffffffffffffffffffffffffffffffffffffffffff1916817bffffffffffffffffffffffffffffffffffffffffffffffffffffffff191614610b885760608184604051602001610ac7929190611437565b604051602081830303815290604052905060008373ffffffffffffffffffffffffffffffffffffffff1682604051610aff919061145f565b6000604051808303816000865af19150503d8060008114610b3c576040519150601f19603f3d011682016040523d82523d6000602084013e610b41565b606091505b5050905080610b85576040517f08c379a0000000000000000000000000000000000000000000000000000000008152600401610b7c90611502565b60405180910390fd5b50505b505050505050565b60036020528060005260406000206000915090505481565b6000809054906101000a900473ffffffffffffffffffffffffffffffffffffffff1673ffffffffffffffffffffffffffffffffffffffff163373ffffffffffffffffffffffffffffffffffffffff1614610c37576040517f08c379a0000000000000000000000000000000000000000000000000000000008152600401610c2e906114e2565b60405180910390fd5b565b826002600086815260200190815260200160002060006101000a81548173ffffffffffffffffffffffffffffffffffffffff021916908373ffffffffffffffffffffffffffffffffffffffff16021790555083600360008573ffffffffffffffffffffffffffffffffffffffff1673ffffffffffffffffffffffffffffffffffffffff1681526020019081526020016000208190555081600460008573ffffffffffffffffffffffffffffffffffffffff1673ffffffffffffffffffffffffffffffffffffffff16815260200190815260200160002060006101000a81548163ffffffff021916908360e01c021790555080600560008573ffffffffffffffffffffffffffffffffffffffff1673ffffffffffffffffffffffffffffffffffffffff16815260200190815260200160002060006101000a81548163ffffffff021916908360e01c02179055506001600660008573ffffffffffffffffffffffffffffffffffffffff1673ffffffffffffffffffffffffffffffffffffffff16815260200190815260200160002060006101000a81548160ff02191690831515021790555050505050565b828054600181600116156101000203166002900490600052602060002090601f016020900481019282601f10610e2457805160ff1916838001178555610e52565b82800160010185558215610e52579182015b82811115610e51578251825591602001919060010190610e36565b5b509050610e5f9190610ea7565b5090565b6040518060800160405280600060ff168152602001600073ffffffffffffffffffffffffffffffffffffffff16815260200160008019168152602001606081525090565b610ec991905b80821115610ec5576000816000905550600101610ead565b5090565b90565b600081359050610edb816116e7565b92915050565b600081359050610ef0816116fe565b92915050565b600081359050610f0581611715565b92915050565b60008083601f840112610f1d57600080fd5b8235905067ffffffffffffffff811115610f3657600080fd5b602083019150836001820283011115610f4e57600080fd5b9250929050565b600081359050610f648161172c565b92915050565b600081359050610f7981611743565b92915050565b600060208284031215610f9157600080fd5b6000610f9f84828501610ecc565b91505092915050565b600060208284031215610fba57600080fd5b6000610fc884828501610ee1565b91505092915050565b60008060008060808587031215610fe757600080fd5b6000610ff587828801610ee1565b945050602061100687828801610ecc565b935050604061101787828801610ef6565b925050606061102887828801610ef6565b91505092959194509250565b60008060006040848603121561104957600080fd5b600061105786828701610ee1565b935050602084013567ffffffffffffffff81111561107457600080fd5b61108086828701610f0b565b92509250509250925092565b60008060008060008060a087890312156110a557600080fd5b60006110b389828a01610ee1565b96505060206110c489828a01610f6a565b95505060406110d589828a01610f55565b94505060606110e689828a01610ecc565b935050608087013567ffffffffffffffff81111561110357600080fd5b61110f89828a01610f0b565b92509250509295509295509295565b6000806040838503121561113157600080fd5b600061113f85828601610f55565b925050602061115085828601610f6a565b9150509250929050565b6000806040838503121561116d57600080fd5b600061117b85828601610f6a565b925050602061118c85828601610f55565b9150509250929050565b61119f81611604565b82525050565b6111ae81611604565b82525050565b6111bd81611616565b82525050565b6111cc81611622565b82525050565b6111db81611622565b82525050565b6111ea8161162c565b82525050565b6112016111fc8261162c565b6116cc565b82525050565b6000611212826115bb565b61121c81856115e8565b935061122c818560208601611699565b80840191505092915050565b6000611243826115b0565b61124d81856115c6565b935061125d818560208601611699565b611266816116d6565b840191505092915050565b600061127c826115b0565b61128681856115d7565b9350611296818560208601611699565b61129f816116d6565b840191505092915050565b60006112b7601e836115f3565b91507f73656e646572206d7573742062652062726964676520636f6e747261637400006000830152602082019050919050565b60006112f76026836115f3565b91507f64656c656761746563616c6c20746f20636f6e7472616374416464726573732060008301527f6661696c656400000000000000000000000000000000000000000000000000006020830152604082019050919050565b600061135d602b836115f3565b91507f70726f766964656420636f6e747261637441646472657373206973206e6f742060008301527f77686974656c69737465640000000000000000000000000000000000000000006020830152604082019050919050565b60006080830160008301516113ce6000860182611419565b5060208301516113e16020860182611196565b5060408301516113f460408601826111c3565b506060830151848203606086015261140c8282611238565b9150508091505092915050565b6114228161168c565b82525050565b6114318161168c565b82525050565b600061144382856111f0565b6004820191506114538284611207565b91508190509392505050565b600061146b8284611207565b915081905092915050565b600060208201905061148b60008301846111a5565b92915050565b60006020820190506114a660008301846111b4565b92915050565b60006020820190506114c160008301846111d2565b92915050565b60006020820190506114dc60008301846111e1565b92915050565b600060208201905081810360008301526114fb816112aa565b9050919050565b6000602082019050818103600083015261151b816112ea565b9050919050565b6000602082019050818103600083015261153b81611350565b9050919050565b6000602082019050818103600083015261155c81846113b6565b905092915050565b60006080820190506115796000830187611428565b61158660208301866111a5565b61159360408301856111d2565b81810360608301526115a58184611271565b905095945050505050565b600081519050919050565b600081519050919050565b600082825260208201905092915050565b600082825260208201905092915050565b600081905092915050565b600082825260208201905092915050565b600061160f82611658565b9050919050565b60008115159050919050565b6000819050919050565b60007fffffffff0000000000000000000000000000000000000000000000000000000082169050919050565b600073ffffffffffffffffffffffffffffffffffffffff82169050919050565b600067ffffffffffffffff82169050919050565b600060ff82169050919050565b60005b838110156116b757808201518184015260208101905061169c565b838111156116c6576000848401525b50505050565b6000819050919050565b6000601f19601f8301169050919050565b6116f081611604565b81146116fb57600080fd5b50565b61170781611622565b811461171257600080fd5b50565b61171e8161162c565b811461172957600080fd5b50565b61173581611678565b811461174057600080fd5b50565b61174c8161168c565b811461175757600080fd5b5056fea2646970667358221220dbeda0b320adef45f6d5bdbbb6f86a0a5557c2d3a738175dbfb10bf8a6e7fc4c64736f6c63430006040033",
					"opcodes": "PUSH1 0x80 PUSH1 0x40 MSTORE CALLVALUE DUP1 ISZERO PUSH3 0x11 JUMPI PUSH1 0x0 DUP1 REVERT JUMPDEST POP PUSH1 0x40 MLOAD PUSH3 0x2106 CODESIZE SUB DUP1 PUSH3 0x2106 DUP4 CODECOPY DUP2 DUP2 ADD PUSH1 0x40 MSTORE DUP2 ADD SWAP1 PUSH3 0x37 SWAP2 SWAP1 PUSH3 0x570 JUMP JUMPDEST DUP3 MLOAD DUP5 MLOAD EQ PUSH3 0x7E JUMPI PUSH1 0x40 MLOAD PUSH32 0x8C379A000000000000000000000000000000000000000000000000000000000 DUP2 MSTORE PUSH1 0x4 ADD PUSH3 0x75 SWAP1 PUSH3 0x78E JUMP JUMPDEST PUSH1 0x40 MLOAD DUP1 SWAP2 SUB SWAP1 REVERT JUMPDEST DUP2 MLOAD DUP4 MLOAD EQ PUSH3 0xC5 JUMPI PUSH1 0x40 MLOAD PUSH32 0x8C379A000000000000000000000000000000000000000000000000000000000 DUP2 MSTORE PUSH1 0x4 ADD PUSH3 0xBC SWAP1 PUSH3 0x7D2 JUMP JUMPDEST PUSH1 0x40 MLOAD DUP1 SWAP2 SUB SWAP1 REVERT JUMPDEST DUP1 MLOAD DUP3 MLOAD EQ PUSH3 0x10C JUMPI PUSH1 0x40 MLOAD PUSH32 0x8C379A000000000000000000000000000000000000000000000000000000000 DUP2 MSTORE PUSH1 0x4 ADD PUSH3 0x103 SWAP1 PUSH3 0x7B0 JUMP JUMPDEST PUSH1 0x40 MLOAD DUP1 SWAP2 SUB SWAP1 REVERT JUMPDEST DUP5 PUSH1 0x0 DUP1 PUSH2 0x100 EXP DUP2 SLOAD DUP2 PUSH20 0xFFFFFFFFFFFFFFFFFFFFFFFFFFFFFFFFFFFFFFFF MUL NOT AND SWAP1 DUP4 PUSH20 0xFFFFFFFFFFFFFFFFFFFFFFFFFFFFFFFFFFFFFFFF AND MUL OR SWAP1 SSTORE POP PUSH1 0x0 DUP1 SWAP1 POP JUMPDEST DUP5 MLOAD DUP2 LT ISZERO PUSH3 0x1CE JUMPI PUSH3 0x1C0 DUP6 DUP3 DUP2 MLOAD DUP2 LT PUSH3 0x16D JUMPI INVALID JUMPDEST PUSH1 0x20 MUL PUSH1 0x20 ADD ADD MLOAD DUP6 DUP4 DUP2 MLOAD DUP2 LT PUSH3 0x182 JUMPI INVALID JUMPDEST PUSH1 0x20 MUL PUSH1 0x20 ADD ADD MLOAD DUP6 DUP5 DUP2 MLOAD DUP2 LT PUSH3 0x197 JUMPI INVALID JUMPDEST PUSH1 0x20 MUL PUSH1 0x20 ADD ADD MLOAD DUP6 DUP6 DUP2 MLOAD DUP2 LT PUSH3 0x1AC JUMPI INVALID JUMPDEST PUSH1 0x20 MUL PUSH1 0x20 ADD ADD MLOAD PUSH3 0x1DA PUSH1 0x20 SHL PUSH1 0x20 SHR JUMP JUMPDEST DUP1 DUP1 PUSH1 0x1 ADD SWAP2 POP POP PUSH3 0x152 JUMP JUMPDEST POP POP POP POP POP POP PUSH3 0x966 JUMP JUMPDEST DUP3 PUSH1 0x2 PUSH1 0x0 DUP7 DUP2 MSTORE PUSH1 0x20 ADD SWAP1 DUP2 MSTORE PUSH1 0x20 ADD PUSH1 0x0 KECCAK256 PUSH1 0x0 PUSH2 0x100 EXP DUP2 SLOAD DUP2 PUSH20 0xFFFFFFFFFFFFFFFFFFFFFFFFFFFFFFFFFFFFFFFF MUL NOT AND SWAP1 DUP4 PUSH20 0xFFFFFFFFFFFFFFFFFFFFFFFFFFFFFFFFFFFFFFFF AND MUL OR SWAP1 SSTORE POP DUP4 PUSH1 0x3 PUSH1 0x0 DUP6 PUSH20 0xFFFFFFFFFFFFFFFFFFFFFFFFFFFFFFFFFFFFFFFF AND PUSH20 0xFFFFFFFFFFFFFFFFFFFFFFFFFFFFFFFFFFFFFFFF AND DUP2 MSTORE PUSH1 0x20 ADD SWAP1 DUP2 MSTORE PUSH1 0x20 ADD PUSH1 0x0 KECCAK256 DUP2 SWAP1 SSTORE POP DUP2 PUSH1 0x4 PUSH1 0x0 DUP6 PUSH20 0xFFFFFFFFFFFFFFFFFFFFFFFFFFFFFFFFFFFFFFFF AND PUSH20 0xFFFFFFFFFFFFFFFFFFFFFFFFFFFFFFFFFFFFFFFF AND DUP2 MSTORE PUSH1 0x20 ADD SWAP1 DUP2 MSTORE PUSH1 0x20 ADD PUSH1 0x0 KECCAK256 PUSH1 0x0 PUSH2 0x100 EXP DUP2 SLOAD DUP2 PUSH4 0xFFFFFFFF MUL NOT AND SWAP1 DUP4 PUSH1 0xE0 SHR MUL OR SWAP1 SSTORE POP DUP1 PUSH1 0x5 PUSH1 0x0 DUP6 PUSH20 0xFFFFFFFFFFFFFFFFFFFFFFFFFFFFFFFFFFFFFFFF AND PUSH20 0xFFFFFFFFFFFFFFFFFFFFFFFFFFFFFFFFFFFFFFFF AND DUP2 MSTORE PUSH1 0x20 ADD SWAP1 DUP2 MSTORE PUSH1 0x20 ADD PUSH1 0x0 KECCAK256 PUSH1 0x0 PUSH2 0x100 EXP DUP2 SLOAD DUP2 PUSH4 0xFFFFFFFF MUL NOT AND SWAP1 DUP4 PUSH1 0xE0 SHR MUL OR SWAP1 SSTORE POP PUSH1 0x1 PUSH1 0x6 PUSH1 0x0 DUP6 PUSH20 0xFFFFFFFFFFFFFFFFFFFFFFFFFFFFFFFFFFFFFFFF AND PUSH20 0xFFFFFFFFFFFFFFFFFFFFFFFFFFFFFFFFFFFFFFFF AND DUP2 MSTORE PUSH1 0x20 ADD SWAP1 DUP2 MSTORE PUSH1 0x20 ADD PUSH1 0x0 KECCAK256 PUSH1 0x0 PUSH2 0x100 EXP DUP2 SLOAD DUP2 PUSH1 0xFF MUL NOT AND SWAP1 DUP4 ISZERO ISZERO MUL OR SWAP1 SSTORE POP POP POP POP POP JUMP JUMPDEST PUSH1 0x0 DUP2 MLOAD SWAP1 POP PUSH3 0x395 DUP2 PUSH3 0x918 JUMP JUMPDEST SWAP3 SWAP2 POP POP JUMP JUMPDEST PUSH1 0x0 DUP3 PUSH1 0x1F DUP4 ADD SLT PUSH3 0x3AD JUMPI PUSH1 0x0 DUP1 REVERT JUMPDEST DUP2 MLOAD PUSH3 0x3C4 PUSH3 0x3BE DUP3 PUSH3 0x822 JUMP JUMPDEST PUSH3 0x7F4 JUMP JUMPDEST SWAP2 POP DUP2 DUP2 DUP4 MSTORE PUSH1 0x20 DUP5 ADD SWAP4 POP PUSH1 0x20 DUP2 ADD SWAP1 POP DUP4 DUP6 PUSH1 0x20 DUP5 MUL DUP3 ADD GT ISZERO PUSH3 0x3EA JUMPI PUSH1 0x0 DUP1 REVERT JUMPDEST PUSH1 0x0 JUMPDEST DUP4 DUP2 LT ISZERO PUSH3 0x41E JUMPI DUP2 PUSH3 0x403 DUP9 DUP3 PUSH3 0x384 JUMP JUMPDEST DUP5 MSTORE PUSH1 0x20 DUP5 ADD SWAP4 POP PUSH1 0x20 DUP4 ADD SWAP3 POP POP PUSH1 0x1 DUP2 ADD SWAP1 POP PUSH3 0x3ED JUMP JUMPDEST POP POP POP POP SWAP3 SWAP2 POP POP JUMP JUMPDEST PUSH1 0x0 DUP3 PUSH1 0x1F DUP4 ADD SLT PUSH3 0x43A JUMPI PUSH1 0x0 DUP1 REVERT JUMPDEST DUP2 MLOAD PUSH3 0x451 PUSH3 0x44B DUP3 PUSH3 0x84B JUMP JUMPDEST PUSH3 0x7F4 JUMP JUMPDEST SWAP2 POP DUP2 DUP2 DUP4 MSTORE PUSH1 0x20 DUP5 ADD SWAP4 POP PUSH1 0x20 DUP2 ADD SWAP1 POP DUP4 DUP6 PUSH1 0x20 DUP5 MUL DUP3 ADD GT ISZERO PUSH3 0x477 JUMPI PUSH1 0x0 DUP1 REVERT JUMPDEST PUSH1 0x0 JUMPDEST DUP4 DUP2 LT ISZERO PUSH3 0x4AB JUMPI DUP2 PUSH3 0x490 DUP9 DUP3 PUSH3 0x542 JUMP JUMPDEST DUP5 MSTORE PUSH1 0x20 DUP5 ADD SWAP4 POP PUSH1 0x20 DUP4 ADD SWAP3 POP POP PUSH1 0x1 DUP2 ADD SWAP1 POP PUSH3 0x47A JUMP JUMPDEST POP POP POP POP SWAP3 SWAP2 POP POP JUMP JUMPDEST PUSH1 0x0 DUP3 PUSH1 0x1F DUP4 ADD SLT PUSH3 0x4C7 JUMPI PUSH1 0x0 DUP1 REVERT JUMPDEST DUP2 MLOAD PUSH3 0x4DE PUSH3 0x4D8 DUP3 PUSH3 0x874 JUMP JUMPDEST PUSH3 0x7F4 JUMP JUMPDEST SWAP2 POP DUP2 DUP2 DUP4 MSTORE PUSH1 0x20 DUP5 ADD SWAP4 POP PUSH1 0x20 DUP2 ADD SWAP1 POP DUP4 DUP6 PUSH1 0x20 DUP5 MUL DUP3 ADD GT ISZERO PUSH3 0x504 JUMPI PUSH1 0x0 DUP1 REVERT JUMPDEST PUSH1 0x0 JUMPDEST DUP4 DUP2 LT ISZERO PUSH3 0x538 JUMPI DUP2 PUSH3 0x51D DUP9 DUP3 PUSH3 0x559 JUMP JUMPDEST DUP5 MSTORE PUSH1 0x20 DUP5 ADD SWAP4 POP PUSH1 0x20 DUP4 ADD SWAP3 POP POP PUSH1 0x1 DUP2 ADD SWAP1 POP PUSH3 0x507 JUMP JUMPDEST POP POP POP POP SWAP3 SWAP2 POP POP JUMP JUMPDEST PUSH1 0x0 DUP2 MLOAD SWAP1 POP PUSH3 0x553 DUP2 PUSH3 0x932 JUMP JUMPDEST SWAP3 SWAP2 POP POP JUMP JUMPDEST PUSH1 0x0 DUP2 MLOAD SWAP1 POP PUSH3 0x56A DUP2 PUSH3 0x94C JUMP JUMPDEST SWAP3 SWAP2 POP POP JUMP JUMPDEST PUSH1 0x0 DUP1 PUSH1 0x0 DUP1 PUSH1 0x0 PUSH1 0xA0 DUP7 DUP9 SUB SLT ISZERO PUSH3 0x589 JUMPI PUSH1 0x0 DUP1 REVERT JUMPDEST PUSH1 0x0 PUSH3 0x599 DUP9 DUP3 DUP10 ADD PUSH3 0x384 JUMP JUMPDEST SWAP6 POP POP PUSH1 0x20 DUP7 ADD MLOAD PUSH8 0xFFFFFFFFFFFFFFFF DUP2 GT ISZERO PUSH3 0x5B7 JUMPI PUSH1 0x0 DUP1 REVERT JUMPDEST PUSH3 0x5C5 DUP9 DUP3 DUP10 ADD PUSH3 0x428 JUMP JUMPDEST SWAP5 POP POP PUSH1 0x40 DUP7 ADD MLOAD PUSH8 0xFFFFFFFFFFFFFFFF DUP2 GT ISZERO PUSH3 0x5E3 JUMPI PUSH1 0x0 DUP1 REVERT JUMPDEST PUSH3 0x5F1 DUP9 DUP3 DUP10 ADD PUSH3 0x39B JUMP JUMPDEST SWAP4 POP POP PUSH1 0x60 DUP7 ADD MLOAD PUSH8 0xFFFFFFFFFFFFFFFF DUP2 GT ISZERO PUSH3 0x60F JUMPI PUSH1 0x0 DUP1 REVERT JUMPDEST PUSH3 0x61D DUP9 DUP3 DUP10 ADD PUSH3 0x4B5 JUMP JUMPDEST SWAP3 POP POP PUSH1 0x80 DUP7 ADD MLOAD PUSH8 0xFFFFFFFFFFFFFFFF DUP2 GT ISZERO PUSH3 0x63B JUMPI PUSH1 0x0 DUP1 REVERT JUMPDEST PUSH3 0x649 DUP9 DUP3 DUP10 ADD PUSH3 0x4B5 JUMP JUMPDEST SWAP2 POP POP SWAP3 SWAP6 POP SWAP3 SWAP6 SWAP1 SWAP4 POP JUMP JUMPDEST PUSH1 0x0 PUSH3 0x665 PUSH1 0x3C DUP4 PUSH3 0x89D JUMP JUMPDEST SWAP2 POP PUSH32 0x696E697469616C5265736F7572636549447320616E6420696E697469616C436F PUSH1 0x0 DUP4 ADD MSTORE PUSH32 0x6E7472616374416464726573736573206C656E206D69736D6174636800000000 PUSH1 0x20 DUP4 ADD MSTORE PUSH1 0x40 DUP3 ADD SWAP1 POP SWAP2 SWAP1 POP JUMP JUMPDEST PUSH1 0x0 PUSH3 0x6CD PUSH1 0x3D DUP4 PUSH3 0x89D JUMP JUMPDEST SWAP2 POP PUSH32 0x70726F7669646564206465706F73697420616E6420657865637574652066756E PUSH1 0x0 DUP4 ADD MSTORE PUSH32 0x6374696F6E207369676E617475726573206C656E206D69736D61746368000000 PUSH1 0x20 DUP4 ADD MSTORE PUSH1 0x40 DUP3 ADD SWAP1 POP SWAP2 SWAP1 POP JUMP JUMPDEST PUSH1 0x0 PUSH3 0x735 PUSH1 0x40 DUP4 PUSH3 0x89D JUMP JUMPDEST SWAP2 POP PUSH32 0x70726F766964656420636F6E74726163742061646472657373657320616E6420 PUSH1 0x0 DUP4 ADD MSTORE PUSH32 0x66756E6374696F6E207369676E617475726573206C656E206D69736D61746368 PUSH1 0x20 DUP4 ADD MSTORE PUSH1 0x40 DUP3 ADD SWAP1 POP SWAP2 SWAP1 POP JUMP JUMPDEST PUSH1 0x0 PUSH1 0x20 DUP3 ADD SWAP1 POP DUP2 DUP2 SUB PUSH1 0x0 DUP4 ADD MSTORE PUSH3 0x7A9 DUP2 PUSH3 0x656 JUMP JUMPDEST SWAP1 POP SWAP2 SWAP1 POP JUMP JUMPDEST PUSH1 0x0 PUSH1 0x20 DUP3 ADD SWAP1 POP DUP2 DUP2 SUB PUSH1 0x0 DUP4 ADD MSTORE PUSH3 0x7CB DUP2 PUSH3 0x6BE JUMP JUMPDEST SWAP1 POP SWAP2 SWAP1 POP JUMP JUMPDEST PUSH1 0x0 PUSH1 0x20 DUP3 ADD SWAP1 POP DUP2 DUP2 SUB PUSH1 0x0 DUP4 ADD MSTORE PUSH3 0x7ED DUP2 PUSH3 0x726 JUMP JUMPDEST SWAP1 POP SWAP2 SWAP1 POP JUMP JUMPDEST PUSH1 0x0 PUSH1 0x40 MLOAD SWAP1 POP DUP2 DUP2 ADD DUP2 DUP2 LT PUSH8 0xFFFFFFFFFFFFFFFF DUP3 GT OR ISZERO PUSH3 0x818 JUMPI PUSH1 0x0 DUP1 REVERT JUMPDEST DUP1 PUSH1 0x40 MSTORE POP SWAP2 SWAP1 POP JUMP JUMPDEST PUSH1 0x0 PUSH8 0xFFFFFFFFFFFFFFFF DUP3 GT ISZERO PUSH3 0x83A JUMPI PUSH1 0x0 DUP1 REVERT JUMPDEST PUSH1 0x20 DUP3 MUL SWAP1 POP PUSH1 0x20 DUP2 ADD SWAP1 POP SWAP2 SWAP1 POP JUMP JUMPDEST PUSH1 0x0 PUSH8 0xFFFFFFFFFFFFFFFF DUP3 GT ISZERO PUSH3 0x863 JUMPI PUSH1 0x0 DUP1 REVERT JUMPDEST PUSH1 0x20 DUP3 MUL SWAP1 POP PUSH1 0x20 DUP2 ADD SWAP1 POP SWAP2 SWAP1 POP JUMP JUMPDEST PUSH1 0x0 PUSH8 0xFFFFFFFFFFFFFFFF DUP3 GT ISZERO PUSH3 0x88C JUMPI PUSH1 0x0 DUP1 REVERT JUMPDEST PUSH1 0x20 DUP3 MUL SWAP1 POP PUSH1 0x20 DUP2 ADD SWAP1 POP SWAP2 SWAP1 POP JUMP JUMPDEST PUSH1 0x0 DUP3 DUP3 MSTORE PUSH1 0x20 DUP3 ADD SWAP1 POP SWAP3 SWAP2 POP POP JUMP JUMPDEST PUSH1 0x0 PUSH3 0x8BB DUP3 PUSH3 0x8F8 JUMP JUMPDEST SWAP1 POP SWAP2 SWAP1 POP JUMP JUMPDEST PUSH1 0x0 DUP2 SWAP1 POP SWAP2 SWAP1 POP JUMP JUMPDEST PUSH1 0x0 PUSH32 0xFFFFFFFF00000000000000000000000000000000000000000000000000000000 DUP3 AND SWAP1 POP SWAP2 SWAP1 POP JUMP JUMPDEST PUSH1 0x0 PUSH20 0xFFFFFFFFFFFFFFFFFFFFFFFFFFFFFFFFFFFFFFFF DUP3 AND SWAP1 POP SWAP2 SWAP1 POP JUMP JUMPDEST PUSH3 0x923 DUP2 PUSH3 0x8AE JUMP JUMPDEST DUP2 EQ PUSH3 0x92F JUMPI PUSH1 0x0 DUP1 REVERT JUMPDEST POP JUMP JUMPDEST PUSH3 0x93D DUP2 PUSH3 0x8C2 JUMP JUMPDEST DUP2 EQ PUSH3 0x949 JUMPI PUSH1 0x0 DUP1 REVERT JUMPDEST POP JUMP JUMPDEST PUSH3 0x957 DUP2 PUSH3 0x8CC JUMP JUMPDEST DUP2 EQ PUSH3 0x963 JUMPI PUSH1 0x0 DUP1 REVERT JUMPDEST POP JUMP JUMPDEST PUSH2 0x1790 DUP1 PUSH3 0x976 PUSH1 0x0 CODECOPY PUSH1 0x0 RETURN INVALID PUSH1 0x80 PUSH1 0x40 MSTORE CALLVALUE DUP1 ISZERO PUSH2 0x10 JUMPI PUSH1 0x0 DUP1 REVERT JUMPDEST POP PUSH1 0x4 CALLDATASIZE LT PUSH2 0xA9 JUMPI PUSH1 0x0 CALLDATALOAD PUSH1 0xE0 SHR DUP1 PUSH4 0xBA484C09 GT PUSH2 0x71 JUMPI DUP1 PUSH4 0xBA484C09 EQ PUSH2 0x17B JUMPI DUP1 PUSH4 0xBBA8185A EQ PUSH2 0x1AB JUMPI DUP1 PUSH4 0xC54C2A11 EQ PUSH2 0x1C7 JUMPI DUP1 PUSH4 0xCB624463 EQ PUSH2 0x1F7 JUMPI DUP1 PUSH4 0xE248CFF2 EQ PUSH2 0x227 JUMPI DUP1 PUSH4 0xEC97D3B4 EQ PUSH2 0x243 JUMPI PUSH2 0xA9 JUMP JUMPDEST DUP1 PUSH4 0x318C136E EQ PUSH2 0xAE JUMPI DUP1 PUSH4 0x38995DA9 EQ PUSH2 0xCC JUMPI DUP1 PUSH4 0x4402027F EQ PUSH2 0xE8 JUMPI DUP1 PUSH4 0x7F79BEA8 EQ PUSH2 0x11B JUMPI DUP1 PUSH4 0xA5C3A985 EQ PUSH2 0x14B JUMPI JUMPDEST PUSH1 0x0 DUP1 REVERT JUMPDEST PUSH2 0xB6 PUSH2 0x273 JUMP JUMPDEST PUSH1 0x40 MLOAD PUSH2 0xC3 SWAP2 SWAP1 PUSH2 0x1476 JUMP JUMPDEST PUSH1 0x40 MLOAD DUP1 SWAP2 SUB SWAP1 RETURN JUMPDEST PUSH2 0xE6 PUSH1 0x4 DUP1 CALLDATASIZE SUB DUP2 ADD SWAP1 PUSH2 0xE1 SWAP2 SWAP1 PUSH2 0x108C JUMP JUMPDEST PUSH2 0x298 JUMP JUMPDEST STOP JUMPDEST PUSH2 0x102 PUSH1 0x4 DUP1 CALLDATASIZE SUB DUP2 ADD SWAP1 PUSH2 0xFD SWAP2 SWAP1 PUSH2 0x115A JUMP JUMPDEST PUSH2 0x609 JUMP JUMPDEST PUSH1 0x40 MLOAD PUSH2 0x112 SWAP5 SWAP4 SWAP3 SWAP2 SWAP1 PUSH2 0x1564 JUMP JUMPDEST PUSH1 0x40 MLOAD DUP1 SWAP2 SUB SWAP1 RETURN JUMPDEST PUSH2 0x135 PUSH1 0x4 DUP1 CALLDATASIZE SUB DUP2 ADD SWAP1 PUSH2 0x130 SWAP2 SWAP1 PUSH2 0xF7F JUMP JUMPDEST PUSH2 0x70B JUMP JUMPDEST PUSH1 0x40 MLOAD PUSH2 0x142 SWAP2 SWAP1 PUSH2 0x1491 JUMP JUMPDEST PUSH1 0x40 MLOAD DUP1 SWAP2 SUB SWAP1 RETURN JUMPDEST PUSH2 0x165 PUSH1 0x4 DUP1 CALLDATASIZE SUB DUP2 ADD SWAP1 PUSH2 0x160 SWAP2 SWAP1 PUSH2 0xF7F JUMP JUMPDEST PUSH2 0x72B JUMP JUMPDEST PUSH1 0x40 MLOAD PUSH2 0x172 SWAP2 SWAP1 PUSH2 0x14C7 JUMP JUMPDEST PUSH1 0x40 MLOAD DUP1 SWAP2 SUB SWAP1 RETURN JUMPDEST PUSH2 0x195 PUSH1 0x4 DUP1 CALLDATASIZE SUB DUP2 ADD SWAP1 PUSH2 0x190 SWAP2 SWAP1 PUSH2 0x111E JUMP JUMPDEST PUSH2 0x74B JUMP JUMPDEST PUSH1 0x40 MLOAD PUSH2 0x1A2 SWAP2 SWAP1 PUSH2 0x1542 JUMP JUMPDEST PUSH1 0x40 MLOAD DUP1 SWAP2 SUB SWAP1 RETURN JUMPDEST PUSH2 0x1C5 PUSH1 0x4 DUP1 CALLDATASIZE SUB DUP2 ADD SWAP1 PUSH2 0x1C0 SWAP2 SWAP1 PUSH2 0xFD1 JUMP JUMPDEST PUSH2 0x8C3 JUMP JUMPDEST STOP JUMPDEST PUSH2 0x1E1 PUSH1 0x4 DUP1 CALLDATASIZE SUB DUP2 ADD SWAP1 PUSH2 0x1DC SWAP2 SWAP1 PUSH2 0xFA8 JUMP JUMPDEST PUSH2 0x8DD JUMP JUMPDEST PUSH1 0x40 MLOAD PUSH2 0x1EE SWAP2 SWAP1 PUSH2 0x1476 JUMP JUMPDEST PUSH1 0x40 MLOAD DUP1 SWAP2 SUB SWAP1 RETURN JUMPDEST PUSH2 0x211 PUSH1 0x4 DUP1 CALLDATASIZE SUB DUP2 ADD SWAP1 PUSH2 0x20C SWAP2 SWAP1 PUSH2 0xF7F JUMP JUMPDEST PUSH2 0x910 JUMP JUMPDEST PUSH1 0x40 MLOAD PUSH2 0x21E SWAP2 SWAP1 PUSH2 0x14C7 JUMP JUMPDEST PUSH1 0x40 MLOAD DUP1 SWAP2 SUB SWAP1 RETURN JUMPDEST PUSH2 0x241 PUSH1 0x4 DUP1 CALLDATASIZE SUB DUP2 ADD SWAP1 PUSH2 0x23C SWAP2 SWAP1 PUSH2 0x1034 JUMP JUMPDEST PUSH2 0x930 JUMP JUMPDEST STOP JUMPDEST PUSH2 0x25D PUSH1 0x4 DUP1 CALLDATASIZE SUB DUP2 ADD SWAP1 PUSH2 0x258 SWAP2 SWAP1 PUSH2 0xF7F JUMP JUMPDEST PUSH2 0xB90 JUMP JUMPDEST PUSH1 0x40 MLOAD PUSH2 0x26A SWAP2 SWAP1 PUSH2 0x14AC JUMP JUMPDEST PUSH1 0x40 MLOAD DUP1 SWAP2 SUB SWAP1 RETURN JUMPDEST PUSH1 0x0 DUP1 SWAP1 SLOAD SWAP1 PUSH2 0x100 EXP SWAP1 DIV PUSH20 0xFFFFFFFFFFFFFFFFFFFFFFFFFFFFFFFFFFFFFFFF AND DUP2 JUMP JUMPDEST PUSH2 0x2A0 PUSH2 0xBA8 JUMP JUMPDEST PUSH1 0x0 PUSH1 0x60 PUSH1 0xC4 CALLDATALOAD SWAP2 POP PUSH1 0x40 MLOAD SWAP1 POP DUP2 DUP2 ADD PUSH1 0x20 ADD PUSH1 0x40 MSTORE PUSH1 0xC4 CALLDATASIZE SUB PUSH1 0xC4 DUP3 CALLDATACOPY PUSH1 0x0 PUSH1 0x2 PUSH1 0x0 DUP11 DUP2 MSTORE PUSH1 0x20 ADD SWAP1 DUP2 MSTORE PUSH1 0x20 ADD PUSH1 0x0 KECCAK256 PUSH1 0x0 SWAP1 SLOAD SWAP1 PUSH2 0x100 EXP SWAP1 DIV PUSH20 0xFFFFFFFFFFFFFFFFFFFFFFFFFFFFFFFFFFFFFFFF AND SWAP1 POP PUSH1 0x6 PUSH1 0x0 DUP3 PUSH20 0xFFFFFFFFFFFFFFFFFFFFFFFFFFFFFFFFFFFFFFFF AND PUSH20 0xFFFFFFFFFFFFFFFFFFFFFFFFFFFFFFFFFFFFFFFF AND DUP2 MSTORE PUSH1 0x20 ADD SWAP1 DUP2 MSTORE PUSH1 0x20 ADD PUSH1 0x0 KECCAK256 PUSH1 0x0 SWAP1 SLOAD SWAP1 PUSH2 0x100 EXP SWAP1 DIV PUSH1 0xFF AND PUSH2 0x383 JUMPI PUSH1 0x40 MLOAD PUSH32 0x8C379A000000000000000000000000000000000000000000000000000000000 DUP2 MSTORE PUSH1 0x4 ADD PUSH2 0x37A SWAP1 PUSH2 0x1522 JUMP JUMPDEST PUSH1 0x40 MLOAD DUP1 SWAP2 SUB SWAP1 REVERT JUMPDEST PUSH1 0x0 PUSH1 0x4 PUSH1 0x0 DUP4 PUSH20 0xFFFFFFFFFFFFFFFFFFFFFFFFFFFFFFFFFFFFFFFF AND PUSH20 0xFFFFFFFFFFFFFFFFFFFFFFFFFFFFFFFFFFFFFFFF AND DUP2 MSTORE PUSH1 0x20 ADD SWAP1 DUP2 MSTORE PUSH1 0x20 ADD PUSH1 0x0 KECCAK256 PUSH1 0x0 SWAP1 SLOAD SWAP1 PUSH2 0x100 EXP SWAP1 DIV PUSH1 0xE0 SHL SWAP1 POP PUSH1 0x0 PUSH1 0xE0 SHL PUSH28 0xFFFFFFFFFFFFFFFFFFFFFFFFFFFFFFFFFFFFFFFFFFFFFFFFFFFFFFFF NOT AND DUP2 PUSH28 0xFFFFFFFFFFFFFFFFFFFFFFFFFFFFFFFFFFFFFFFFFFFFFFFFFFFFFFFF NOT AND EQ PUSH2 0x4F3 JUMPI PUSH1 0x60 DUP2 DUP5 PUSH1 0x40 MLOAD PUSH1 0x20 ADD PUSH2 0x432 SWAP3 SWAP2 SWAP1 PUSH2 0x1437 JUMP JUMPDEST PUSH1 0x40 MLOAD PUSH1 0x20 DUP2 DUP4 SUB SUB DUP2 MSTORE SWAP1 PUSH1 0x40 MSTORE SWAP1 POP PUSH1 0x0 DUP4 PUSH20 0xFFFFFFFFFFFFFFFFFFFFFFFFFFFFFFFFFFFFFFFF AND DUP3 PUSH1 0x40 MLOAD PUSH2 0x46A SWAP2 SWAP1 PUSH2 0x145F JUMP JUMPDEST PUSH1 0x0 PUSH1 0x40 MLOAD DUP1 DUP4 SUB DUP2 PUSH1 0x0 DUP7 GAS CALL SWAP2 POP POP RETURNDATASIZE DUP1 PUSH1 0x0 DUP2 EQ PUSH2 0x4A7 JUMPI PUSH1 0x40 MLOAD SWAP2 POP PUSH1 0x1F NOT PUSH1 0x3F RETURNDATASIZE ADD AND DUP3 ADD PUSH1 0x40 MSTORE RETURNDATASIZE DUP3 MSTORE RETURNDATASIZE PUSH1 0x0 PUSH1 0x20 DUP5 ADD RETURNDATACOPY PUSH2 0x4AC JUMP JUMPDEST PUSH1 0x60 SWAP2 POP JUMPDEST POP POP SWAP1 POP DUP1 PUSH2 0x4F0 JUMPI PUSH1 0x40 MLOAD PUSH32 0x8C379A000000000000000000000000000000000000000000000000000000000 DUP2 MSTORE PUSH1 0x4 ADD PUSH2 0x4E7 SWAP1 PUSH2 0x1502 JUMP JUMPDEST PUSH1 0x40 MLOAD DUP1 SWAP2 SUB SWAP1 REVERT JUMPDEST POP POP JUMPDEST PUSH1 0x40 MLOAD DUP1 PUSH1 0x80 ADD PUSH1 0x40 MSTORE DUP1 DUP11 PUSH1 0xFF AND DUP2 MSTORE PUSH1 0x20 ADD DUP9 PUSH20 0xFFFFFFFFFFFFFFFFFFFFFFFFFFFFFFFFFFFFFFFF AND DUP2 MSTORE PUSH1 0x20 ADD DUP12 DUP2 MSTORE PUSH1 0x20 ADD DUP5 DUP2 MSTORE POP PUSH1 0x1 PUSH1 0x0 DUP12 PUSH1 0xFF AND PUSH1 0xFF AND DUP2 MSTORE PUSH1 0x20 ADD SWAP1 DUP2 MSTORE PUSH1 0x20 ADD PUSH1 0x0 KECCAK256 PUSH1 0x0 DUP11 PUSH8 0xFFFFFFFFFFFFFFFF AND PUSH8 0xFFFFFFFFFFFFFFFF AND DUP2 MSTORE PUSH1 0x20 ADD SWAP1 DUP2 MSTORE PUSH1 0x20 ADD PUSH1 0x0 KECCAK256 PUSH1 0x0 DUP3 ADD MLOAD DUP2 PUSH1 0x0 ADD PUSH1 0x0 PUSH2 0x100 EXP DUP2 SLOAD DUP2 PUSH1 0xFF MUL NOT AND SWAP1 DUP4 PUSH1 0xFF AND MUL OR SWAP1 SSTORE POP PUSH1 0x20 DUP3 ADD MLOAD DUP2 PUSH1 0x0 ADD PUSH1 0x1 PUSH2 0x100 EXP DUP2 SLOAD DUP2 PUSH20 0xFFFFFFFFFFFFFFFFFFFFFFFFFFFFFFFFFFFFFFFF MUL NOT AND SWAP1 DUP4 PUSH20 0xFFFFFFFFFFFFFFFFFFFFFFFFFFFFFFFFFFFFFFFF AND MUL OR SWAP1 SSTORE POP PUSH1 0x40 DUP3 ADD MLOAD DUP2 PUSH1 0x1 ADD SSTORE PUSH1 0x60 DUP3 ADD MLOAD DUP2 PUSH1 0x2 ADD SWAP1 DUP1 MLOAD SWAP1 PUSH1 0x20 ADD SWAP1 PUSH2 0x5F9 SWAP3 SWAP2 SWAP1 PUSH2 0xDE3 JUMP JUMPDEST POP SWAP1 POP POP POP POP POP POP POP POP POP POP POP POP JUMP JUMPDEST PUSH1 0x1 PUSH1 0x20 MSTORE DUP2 PUSH1 0x0 MSTORE PUSH1 0x40 PUSH1 0x0 KECCAK256 PUSH1 0x20 MSTORE DUP1 PUSH1 0x0 MSTORE PUSH1 0x40 PUSH1 0x0 KECCAK256 PUSH1 0x0 SWAP2 POP SWAP2 POP POP DUP1 PUSH1 0x0 ADD PUSH1 0x0 SWAP1 SLOAD SWAP1 PUSH2 0x100 EXP SWAP1 DIV PUSH1 0xFF AND SWAP1 DUP1 PUSH1 0x0 ADD PUSH1 0x1 SWAP1 SLOAD SWAP1 PUSH2 0x100 EXP SWAP1 DIV PUSH20 0xFFFFFFFFFFFFFFFFFFFFFFFFFFFFFFFFFFFFFFFF AND SWAP1 DUP1 PUSH1 0x1 ADD SLOAD SWAP1 DUP1 PUSH1 0x2 ADD DUP1 SLOAD PUSH1 0x1 DUP2 PUSH1 0x1 AND ISZERO PUSH2 0x100 MUL SUB AND PUSH1 0x2 SWAP1 DIV DUP1 PUSH1 0x1F ADD PUSH1 0x20 DUP1 SWAP2 DIV MUL PUSH1 0x20 ADD PUSH1 0x40 MLOAD SWAP1 DUP2 ADD PUSH1 0x40 MSTORE DUP1 SWAP3 SWAP2 SWAP1 DUP2 DUP2 MSTORE PUSH1 0x20 ADD DUP3 DUP1 SLOAD PUSH1 0x1 DUP2 PUSH1 0x1 AND ISZERO PUSH2 0x100 MUL SUB AND PUSH1 0x2 SWAP1 DIV DUP1 ISZERO PUSH2 0x701 JUMPI DUP1 PUSH1 0x1F LT PUSH2 0x6D6 JUMPI PUSH2 0x100 DUP1 DUP4 SLOAD DIV MUL DUP4 MSTORE SWAP2 PUSH1 0x20 ADD SWAP2 PUSH2 0x701 JUMP JUMPDEST DUP3 ADD SWAP2 SWAP1 PUSH1 0x0 MSTORE PUSH1 0x20 PUSH1 0x0 KECCAK256 SWAP1 JUMPDEST DUP2 SLOAD DUP2 MSTORE SWAP1 PUSH1 0x1 ADD SWAP1 PUSH1 0x20 ADD DUP1 DUP4 GT PUSH2 0x6E4 JUMPI DUP3 SWAP1 SUB PUSH1 0x1F AND DUP3 ADD SWAP2 JUMPDEST POP POP POP POP POP SWAP1 POP DUP5 JUMP JUMPDEST PUSH1 0x6 PUSH1 0x20 MSTORE DUP1 PUSH1 0x0 MSTORE PUSH1 0x40 PUSH1 0x0 KECCAK256 PUSH1 0x0 SWAP2 POP SLOAD SWAP1 PUSH2 0x100 EXP SWAP1 DIV PUSH1 0xFF AND DUP2 JUMP JUMPDEST PUSH1 0x5 PUSH1 0x20 MSTORE DUP1 PUSH1 0x0 MSTORE PUSH1 0x40 PUSH1 0x0 KECCAK256 PUSH1 0x0 SWAP2 POP SLOAD SWAP1 PUSH2 0x100 EXP SWAP1 DIV PUSH1 0xE0 SHL DUP2 JUMP JUMPDEST PUSH2 0x753 PUSH2 0xE63 JUMP JUMPDEST PUSH1 0x1 PUSH1 0x0 DUP4 PUSH1 0xFF AND PUSH1 0xFF AND DUP2 MSTORE PUSH1 0x20 ADD SWAP1 DUP2 MSTORE PUSH1 0x20 ADD PUSH1 0x0 KECCAK256 PUSH1 0x0 DUP5 PUSH8 0xFFFFFFFFFFFFFFFF AND PUSH8 0xFFFFFFFFFFFFFFFF AND DUP2 MSTORE PUSH1 0x20 ADD SWAP1 DUP2 MSTORE PUSH1 0x20 ADD PUSH1 0x0 KECCAK256 PUSH1 0x40 MLOAD DUP1 PUSH1 0x80 ADD PUSH1 0x40 MSTORE SWAP1 DUP2 PUSH1 0x0 DUP3 ADD PUSH1 0x0 SWAP1 SLOAD SWAP1 PUSH2 0x100 EXP SWAP1 DIV PUSH1 0xFF AND PUSH1 0xFF AND PUSH1 0xFF AND DUP2 MSTORE PUSH1 0x20 ADD PUSH1 0x0 DUP3 ADD PUSH1 0x1 SWAP1 SLOAD SWAP1 PUSH2 0x100 EXP SWAP1 DIV PUSH20 0xFFFFFFFFFFFFFFFFFFFFFFFFFFFFFFFFFFFFFFFF AND PUSH20 0xFFFFFFFFFFFFFFFFFFFFFFFFFFFFFFFFFFFFFFFF AND PUSH20 0xFFFFFFFFFFFFFFFFFFFFFFFFFFFFFFFFFFFFFFFF AND DUP2 MSTORE PUSH1 0x20 ADD PUSH1 0x1 DUP3 ADD SLOAD DUP2 MSTORE PUSH1 0x20 ADD PUSH1 0x2 DUP3 ADD DUP1 SLOAD PUSH1 0x1 DUP2 PUSH1 0x1 AND ISZERO PUSH2 0x100 MUL SUB AND PUSH1 0x2 SWAP1 DIV DUP1 PUSH1 0x1F ADD PUSH1 0x20 DUP1 SWAP2 DIV MUL PUSH1 0x20 ADD PUSH1 0x40 MLOAD SWAP1 DUP2 ADD PUSH1 0x40 MSTORE DUP1 SWAP3 SWAP2 SWAP1 DUP2 DUP2 MSTORE PUSH1 0x20 ADD DUP3 DUP1 SLOAD PUSH1 0x1 DUP2 PUSH1 0x1 AND ISZERO PUSH2 0x100 MUL SUB AND PUSH1 0x2 SWAP1 DIV DUP1 ISZERO PUSH2 0x8B2 JUMPI DUP1 PUSH1 0x1F LT PUSH2 0x887 JUMPI PUSH2 0x100 DUP1 DUP4 SLOAD DIV MUL DUP4 MSTORE SWAP2 PUSH1 0x20 ADD SWAP2 PUSH2 0x8B2 JUMP JUMPDEST DUP3 ADD SWAP2 SWAP1 PUSH1 0x0 MSTORE PUSH1 0x20 PUSH1 0x0 KECCAK256 SWAP1 JUMPDEST DUP2 SLOAD DUP2 MSTORE SWAP1 PUSH1 0x1 ADD SWAP1 PUSH1 0x20 ADD DUP1 DUP4 GT PUSH2 0x895 JUMPI DUP3 SWAP1 SUB PUSH1 0x1F AND DUP3 ADD SWAP2 JUMPDEST POP POP POP POP POP DUP2 MSTORE POP POP SWAP1 POP SWAP3 SWAP2 POP POP JUMP JUMPDEST PUSH2 0x8CB PUSH2 0xBA8 JUMP JUMPDEST PUSH2 0x8D7 DUP5 DUP5 DUP5 DUP5 PUSH2 0xC39 JUMP JUMPDEST POP POP POP POP JUMP JUMPDEST PUSH1 0x2 PUSH1 0x20 MSTORE DUP1 PUSH1 0x0 MSTORE PUSH1 0x40 PUSH1 0x0 KECCAK256 PUSH1 0x0 SWAP2 POP SLOAD SWAP1 PUSH2 0x100 EXP SWAP1 DIV PUSH20 0xFFFFFFFFFFFFFFFFFFFFFFFFFFFFFFFFFFFFFFFF AND DUP2 JUMP JUMPDEST PUSH1 0x4 PUSH1 0x20 MSTORE DUP1 PUSH1 0x0 MSTORE PUSH1 0x40 PUSH1 0x0 KECCAK256 PUSH1 0x0 SWAP2 POP SLOAD SWAP1 PUSH2 0x100 EXP SWAP1 DIV PUSH1 0xE0 SHL DUP2 JUMP JUMPDEST PUSH2 0x938 PUSH2 0xBA8 JUMP JUMPDEST PUSH1 0x60 PUSH1 0x40 MLOAD SWAP1 POP PUSH1 0x64 CALLDATALOAD DUP1 DUP3 ADD PUSH1 0x60 ADD PUSH1 0x40 MSTORE PUSH1 0x64 CALLDATASIZE SUB PUSH1 0x64 DUP4 CALLDATACOPY POP PUSH1 0x0 PUSH1 0x2 PUSH1 0x0 DUP7 DUP2 MSTORE PUSH1 0x20 ADD SWAP1 DUP2 MSTORE PUSH1 0x20 ADD PUSH1 0x0 KECCAK256 PUSH1 0x0 SWAP1 SLOAD SWAP1 PUSH2 0x100 EXP SWAP1 DIV PUSH20 0xFFFFFFFFFFFFFFFFFFFFFFFFFFFFFFFFFFFFFFFF AND SWAP1 POP PUSH1 0x6 PUSH1 0x0 DUP3 PUSH20 0xFFFFFFFFFFFFFFFFFFFFFFFFFFFFFFFFFFFFFFFF AND PUSH20 0xFFFFFFFFFFFFFFFFFFFFFFFFFFFFFFFFFFFFFFFF AND DUP2 MSTORE PUSH1 0x20 ADD SWAP1 DUP2 MSTORE PUSH1 0x20 ADD PUSH1 0x0 KECCAK256 PUSH1 0x0 SWAP1 SLOAD SWAP1 PUSH2 0x100 EXP SWAP1 DIV PUSH1 0xFF AND PUSH2 0xA18 JUMPI PUSH1 0x40 MLOAD PUSH32 0x8C379A000000000000000000000000000000000000000000000000000000000 DUP2 MSTORE PUSH1 0x4 ADD PUSH2 0xA0F SWAP1 PUSH2 0x1522 JUMP JUMPDEST PUSH1 0x40 MLOAD DUP1 SWAP2 SUB SWAP1 REVERT JUMPDEST PUSH1 0x0 PUSH1 0x5 PUSH1 0x0 DUP4 PUSH20 0xFFFFFFFFFFFFFFFFFFFFFFFFFFFFFFFFFFFFFFFF AND PUSH20 0xFFFFFFFFFFFFFFFFFFFFFFFFFFFFFFFFFFFFFFFF AND DUP2 MSTORE PUSH1 0x20 ADD SWAP1 DUP2 MSTORE PUSH1 0x20 ADD PUSH1 0x0 KECCAK256 PUSH1 0x0 SWAP1 SLOAD SWAP1 PUSH2 0x100 EXP SWAP1 DIV PUSH1 0xE0 SHL SWAP1 POP PUSH1 0x0 PUSH1 0xE0 SHL PUSH28 0xFFFFFFFFFFFFFFFFFFFFFFFFFFFFFFFFFFFFFFFFFFFFFFFFFFFFFFFF NOT AND DUP2 PUSH28 0xFFFFFFFFFFFFFFFFFFFFFFFFFFFFFFFFFFFFFFFFFFFFFFFFFFFFFFFF NOT AND EQ PUSH2 0xB88 JUMPI PUSH1 0x60 DUP2 DUP5 PUSH1 0x40 MLOAD PUSH1 0x20 ADD PUSH2 0xAC7 SWAP3 SWAP2 SWAP1 PUSH2 0x1437 JUMP JUMPDEST PUSH1 0x40 MLOAD PUSH1 0x20 DUP2 DUP4 SUB SUB DUP2 MSTORE SWAP1 PUSH1 0x40 MSTORE SWAP1 POP PUSH1 0x0 DUP4 PUSH20 0xFFFFFFFFFFFFFFFFFFFFFFFFFFFFFFFFFFFFFFFF AND DUP3 PUSH1 0x40 MLOAD PUSH2 0xAFF SWAP2 SWAP1 PUSH2 0x145F JUMP JUMPDEST PUSH1 0x0 PUSH1 0x40 MLOAD DUP1 DUP4 SUB DUP2 PUSH1 0x0 DUP7 GAS CALL SWAP2 POP POP RETURNDATASIZE DUP1 PUSH1 0x0 DUP2 EQ PUSH2 0xB3C JUMPI PUSH1 0x40 MLOAD SWAP2 POP PUSH1 0x1F NOT PUSH1 0x3F RETURNDATASIZE ADD AND DUP3 ADD PUSH1 0x40 MSTORE RETURNDATASIZE DUP3 MSTORE RETURNDATASIZE PUSH1 0x0 PUSH1 0x20 DUP5 ADD RETURNDATACOPY PUSH2 0xB41 JUMP JUMPDEST PUSH1 0x60 SWAP2 POP JUMPDEST POP POP SWAP1 POP DUP1 PUSH2 0xB85 JUMPI PUSH1 0x40 MLOAD PUSH32 0x8C379A000000000000000000000000000000000000000000000000000000000 DUP2 MSTORE PUSH1 0x4 ADD PUSH2 0xB7C SWAP1 PUSH2 0x1502 JUMP JUMPDEST PUSH1 0x40 MLOAD DUP1 SWAP2 SUB SWAP1 REVERT JUMPDEST POP POP JUMPDEST POP POP POP POP POP POP JUMP JUMPDEST PUSH1 0x3 PUSH1 0x20 MSTORE DUP1 PUSH1 0x0 MSTORE PUSH1 0x40 PUSH1 0x0 KECCAK256 PUSH1 0x0 SWAP2 POP SWAP1 POP SLOAD DUP2 JUMP JUMPDEST PUSH1 0x0 DUP1 SWAP1 SLOAD SWAP1 PUSH2 0x100 EXP SWAP1 DIV PUSH20 0xFFFFFFFFFFFFFFFFFFFFFFFFFFFFFFFFFFFFFFFF AND PUSH20 0xFFFFFFFFFFFFFFFFFFFFFFFFFFFFFFFFFFFFFFFF AND CALLER PUSH20 0xFFFFFFFFFFFFFFFFFFFFFFFFFFFFFFFFFFFFFFFF AND EQ PUSH2 0xC37 JUMPI PUSH1 0x40 MLOAD PUSH32 0x8C379A000000000000000000000000000000000000000000000000000000000 DUP2 MSTORE PUSH1 0x4 ADD PUSH2 0xC2E SWAP1 PUSH2 0x14E2 JUMP JUMPDEST PUSH1 0x40 MLOAD DUP1 SWAP2 SUB SWAP1 REVERT JUMPDEST JUMP JUMPDEST DUP3 PUSH1 0x2 PUSH1 0x0 DUP7 DUP2 MSTORE PUSH1 0x20 ADD SWAP1 DUP2 MSTORE PUSH1 0x20 ADD PUSH1 0x0 KECCAK256 PUSH1 0x0 PUSH2 0x100 EXP DUP2 SLOAD DUP2 PUSH20 0xFFFFFFFFFFFFFFFFFFFFFFFFFFFFFFFFFFFFFFFF MUL NOT AND SWAP1 DUP4 PUSH20 0xFFFFFFFFFFFFFFFFFFFFFFFFFFFFFFFFFFFFFFFF AND MUL OR SWAP1 SSTORE POP DUP4 PUSH1 0x3 PUSH1 0x0 DUP6 PUSH20 0xFFFFFFFFFFFFFFFFFFFFFFFFFFFFFFFFFFFFFFFF AND PUSH20 0xFFFFFFFFFFFFFFFFFFFFFFFFFFFFFFFFFFFFFFFF AND DUP2 MSTORE PUSH1 0x20 ADD SWAP1 DUP2 MSTORE PUSH1 0x20 ADD PUSH1 0x0 KECCAK256 DUP2 SWAP1 SSTORE POP DUP2 PUSH1 0x4 PUSH1 0x0 DUP6 PUSH20 0xFFFFFFFFFFFFFFFFFFFFFFFFFFFFFFFFFFFFFFFF AND PUSH20 0xFFFFFFFFFFFFFFFFFFFFFFFFFFFFFFFFFFFFFFFF AND DUP2 MSTORE PUSH1 0x20 ADD SWAP1 DUP2 MSTORE PUSH1 0x20 ADD PUSH1 0x0 KECCAK256 PUSH1 0x0 PUSH2 0x100 EXP DUP2 SLOAD DUP2 PUSH4 0xFFFFFFFF MUL NOT AND SWAP1 DUP4 PUSH1 0xE0 SHR MUL OR SWAP1 SSTORE POP DUP1 PUSH1 0x5 PUSH1 0x0 DUP6 PUSH20 0xFFFFFFFFFFFFFFFFFFFFFFFFFFFFFFFFFFFFFFFF AND PUSH20 0xFFFFFFFFFFFFFFFFFFFFFFFFFFFFFFFFFFFFFFFF AND DUP2 MSTORE PUSH1 0x20 ADD SWAP1 DUP2 MSTORE PUSH1 0x20 ADD PUSH1 0x0 KECCAK256 PUSH1 0x0 PUSH2 0x100 EXP DUP2 SLOAD DUP2 PUSH4 0xFFFFFFFF MUL NOT AND SWAP1 DUP4 PUSH1 0xE0 SHR MUL OR SWAP1 SSTORE POP PUSH1 0x1 PUSH1 0x6 PUSH1 0x0 DUP6 PUSH20 0xFFFFFFFFFFFFFFFFFFFFFFFFFFFFFFFFFFFFFFFF AND PUSH20 0xFFFFFFFFFFFFFFFFFFFFFFFFFFFFFFFFFFFFFFFF AND DUP2 MSTORE PUSH1 0x20 ADD SWAP1 DUP2 MSTORE PUSH1 0x20 ADD PUSH1 0x0 KECCAK256 PUSH1 0x0 PUSH2 0x100 EXP DUP2 SLOAD DUP2 PUSH1 0xFF MUL NOT AND SWAP1 DUP4 ISZERO ISZERO MUL OR SWAP1 SSTORE POP POP POP POP POP JUMP JUMPDEST DUP3 DUP1 SLOAD PUSH1 0x1 DUP2 PUSH1 0x1 AND ISZERO PUSH2 0x100 MUL SUB AND PUSH1 0x2 SWAP1 DIV SWAP1 PUSH1 0x0 MSTORE PUSH1 0x20 PUSH1 0x0 KECCAK256 SWAP1 PUSH1 0x1F ADD PUSH1 0x20 SWAP1 DIV DUP2 ADD SWAP3 DUP3 PUSH1 0x1F LT PUSH2 0xE24 JUMPI DUP1 MLOAD PUSH1 0xFF NOT AND DUP4 DUP1 ADD OR DUP6 SSTORE PUSH2 0xE52 JUMP JUMPDEST DUP3 DUP1 ADD PUSH1 0x1 ADD DUP6 SSTORE DUP3 ISZERO PUSH2 0xE52 JUMPI SWAP2 DUP3 ADD JUMPDEST DUP3 DUP2 GT ISZERO PUSH2 0xE51 JUMPI DUP3 MLOAD DUP3 SSTORE SWAP2 PUSH1 0x20 ADD SWAP2 SWAP1 PUSH1 0x1 ADD SWAP1 PUSH2 0xE36 JUMP JUMPDEST JUMPDEST POP SWAP1 POP PUSH2 0xE5F SWAP2 SWAP1 PUSH2 0xEA7 JUMP JUMPDEST POP SWAP1 JUMP JUMPDEST PUSH1 0x40 MLOAD DUP1 PUSH1 0x80 ADD PUSH1 0x40 MSTORE DUP1 PUSH1 0x0 PUSH1 0xFF AND DUP2 MSTORE PUSH1 0x20 ADD PUSH1 0x0 PUSH20 0xFFFFFFFFFFFFFFFFFFFFFFFFFFFFFFFFFFFFFFFF AND DUP2 MSTORE PUSH1 0x20 ADD PUSH1 0x0 DUP1 NOT AND DUP2 MSTORE PUSH1 0x20 ADD PUSH1 0x60 DUP2 MSTORE POP SWAP1 JUMP JUMPDEST PUSH2 0xEC9 SWAP2 SWAP1 JUMPDEST DUP1 DUP3 GT ISZERO PUSH2 0xEC5 JUMPI PUSH1 0x0 DUP2 PUSH1 0x0 SWAP1 SSTORE POP PUSH1 0x1 ADD PUSH2 0xEAD JUMP JUMPDEST POP SWAP1 JUMP JUMPDEST SWAP1 JUMP JUMPDEST PUSH1 0x0 DUP2 CALLDATALOAD SWAP1 POP PUSH2 0xEDB DUP2 PUSH2 0x16E7 JUMP JUMPDEST SWAP3 SWAP2 POP POP JUMP JUMPDEST PUSH1 0x0 DUP2 CALLDATALOAD SWAP1 POP PUSH2 0xEF0 DUP2 PUSH2 0x16FE JUMP JUMPDEST SWAP3 SWAP2 POP POP JUMP JUMPDEST PUSH1 0x0 DUP2 CALLDATALOAD SWAP1 POP PUSH2 0xF05 DUP2 PUSH2 0x1715 JUMP JUMPDEST SWAP3 SWAP2 POP POP JUMP JUMPDEST PUSH1 0x0 DUP1 DUP4 PUSH1 0x1F DUP5 ADD SLT PUSH2 0xF1D JUMPI PUSH1 0x0 DUP1 REVERT JUMPDEST DUP3 CALLDATALOAD SWAP1 POP PUSH8 0xFFFFFFFFFFFFFFFF DUP2 GT ISZERO PUSH2 0xF36 JUMPI PUSH1 0x0 DUP1 REVERT JUMPDEST PUSH1 0x20 DUP4 ADD SWAP2 POP DUP4 PUSH1 0x1 DUP3 MUL DUP4 ADD GT ISZERO PUSH2 0xF4E JUMPI PUSH1 0x0 DUP1 REVERT JUMPDEST SWAP3 POP SWAP3 SWAP1 POP JUMP JUMPDEST PUSH1 0x0 DUP2 CALLDATALOAD SWAP1 POP PUSH2 0xF64 DUP2 PUSH2 0x172C JUMP JUMPDEST SWAP3 SWAP2 POP POP JUMP JUMPDEST PUSH1 0x0 DUP2 CALLDATALOAD SWAP1 POP PUSH2 0xF79 DUP2 PUSH2 0x1743 JUMP JUMPDEST SWAP3 SWAP2 POP POP JUMP JUMPDEST PUSH1 0x0 PUSH1 0x20 DUP3 DUP5 SUB SLT ISZERO PUSH2 0xF91 JUMPI PUSH1 0x0 DUP1 REVERT JUMPDEST PUSH1 0x0 PUSH2 0xF9F DUP5 DUP3 DUP6 ADD PUSH2 0xECC JUMP JUMPDEST SWAP2 POP POP SWAP3 SWAP2 POP POP JUMP JUMPDEST PUSH1 0x0 PUSH1 0x20 DUP3 DUP5 SUB SLT ISZERO PUSH2 0xFBA JUMPI PUSH1 0x0 DUP1 REVERT JUMPDEST PUSH1 0x0 PUSH2 0xFC8 DUP5 DUP3 DUP6 ADD PUSH2 0xEE1 JUMP JUMPDEST SWAP2 POP POP SWAP3 SWAP2 POP POP JUMP JUMPDEST PUSH1 0x0 DUP1 PUSH1 0x0 DUP1 PUSH1 0x80 DUP6 DUP8 SUB SLT ISZERO PUSH2 0xFE7 JUMPI PUSH1 0x0 DUP1 REVERT JUMPDEST PUSH1 0x0 PUSH2 0xFF5 DUP8 DUP3 DUP9 ADD PUSH2 0xEE1 JUMP JUMPDEST SWAP5 POP POP PUSH1 0x20 PUSH2 0x1006 DUP8 DUP3 DUP9 ADD PUSH2 0xECC JUMP JUMPDEST SWAP4 POP POP PUSH1 0x40 PUSH2 0x1017 DUP8 DUP3 DUP9 ADD PUSH2 0xEF6 JUMP JUMPDEST SWAP3 POP POP PUSH1 0x60 PUSH2 0x1028 DUP8 DUP3 DUP9 ADD PUSH2 0xEF6 JUMP JUMPDEST SWAP2 POP POP SWAP3 SWAP6 SWAP2 SWAP5 POP SWAP3 POP JUMP JUMPDEST PUSH1 0x0 DUP1 PUSH1 0x0 PUSH1 0x40 DUP5 DUP7 SUB SLT ISZERO PUSH2 0x1049 JUMPI PUSH1 0x0 DUP1 REVERT JUMPDEST PUSH1 0x0 PUSH2 0x1057 DUP7 DUP3 DUP8 ADD PUSH2 0xEE1 JUMP JUMPDEST SWAP4 POP POP PUSH1 0x20 DUP5 ADD CALLDATALOAD PUSH8 0xFFFFFFFFFFFFFFFF DUP2 GT ISZERO PUSH2 0x1074 JUMPI PUSH1 0x0 DUP1 REVERT JUMPDEST PUSH2 0x1080 DUP7 DUP3 DUP8 ADD PUSH2 0xF0B JUMP JUMPDEST SWAP3 POP SWAP3 POP POP SWAP3 POP SWAP3 POP SWAP3 JUMP JUMPDEST PUSH1 0x0 DUP1 PUSH1 0x0 DUP1 PUSH1 0x0 DUP1 PUSH1 0xA0 DUP8 DUP10 SUB SLT ISZERO PUSH2 0x10A5 JUMPI PUSH1 0x0 DUP1 REVERT JUMPDEST PUSH1 0x0 PUSH2 0x10B3 DUP10 DUP3 DUP11 ADD PUSH2 0xEE1 JUMP JUMPDEST SWAP7 POP POP PUSH1 0x20 PUSH2 0x10C4 DUP10 DUP3 DUP11 ADD PUSH2 0xF6A JUMP JUMPDEST SWAP6 POP POP PUSH1 0x40 PUSH2 0x10D5 DUP10 DUP3 DUP11 ADD PUSH2 0xF55 JUMP JUMPDEST SWAP5 POP POP PUSH1 0x60 PUSH2 0x10E6 DUP10 DUP3 DUP11 ADD PUSH2 0xECC JUMP JUMPDEST SWAP4 POP POP PUSH1 0x80 DUP8 ADD CALLDATALOAD PUSH8 0xFFFFFFFFFFFFFFFF DUP2 GT ISZERO PUSH2 0x1103 JUMPI PUSH1 0x0 DUP1 REVERT JUMPDEST PUSH2 0x110F DUP10 DUP3 DUP11 ADD PUSH2 0xF0B JUMP JUMPDEST SWAP3 POP SWAP3 POP POP SWAP3 SWAP6 POP SWAP3 SWAP6 POP SWAP3 SWAP6 JUMP JUMPDEST PUSH1 0x0 DUP1 PUSH1 0x40 DUP4 DUP6 SUB SLT ISZERO PUSH2 0x1131 JUMPI PUSH1 0x0 DUP1 REVERT JUMPDEST PUSH1 0x0 PUSH2 0x113F DUP6 DUP3 DUP7 ADD PUSH2 0xF55 JUMP JUMPDEST SWAP3 POP POP PUSH1 0x20 PUSH2 0x1150 DUP6 DUP3 DUP7 ADD PUSH2 0xF6A JUMP JUMPDEST SWAP2 POP POP SWAP3 POP SWAP3 SWAP1 POP JUMP JUMPDEST PUSH1 0x0 DUP1 PUSH1 0x40 DUP4 DUP6 SUB SLT ISZERO PUSH2 0x116D JUMPI PUSH1 0x0 DUP1 REVERT JUMPDEST PUSH1 0x0 PUSH2 0x117B DUP6 DUP3 DUP7 ADD PUSH2 0xF6A JUMP JUMPDEST SWAP3 POP POP PUSH1 0x20 PUSH2 0x118C DUP6 DUP3 DUP7 ADD PUSH2 0xF55 JUMP JUMPDEST SWAP2 POP POP SWAP3 POP SWAP3 SWAP1 POP JUMP JUMPDEST PUSH2 0x119F DUP2 PUSH2 0x1604 JUMP JUMPDEST DUP3 MSTORE POP POP JUMP JUMPDEST PUSH2 0x11AE DUP2 PUSH2 0x1604 JUMP JUMPDEST DUP3 MSTORE POP POP JUMP JUMPDEST PUSH2 0x11BD DUP2 PUSH2 0x1616 JUMP JUMPDEST DUP3 MSTORE POP POP JUMP JUMPDEST PUSH2 0x11CC DUP2 PUSH2 0x1622 JUMP JUMPDEST DUP3 MSTORE POP POP JUMP JUMPDEST PUSH2 0x11DB DUP2 PUSH2 0x1622 JUMP JUMPDEST DUP3 MSTORE POP POP JUMP JUMPDEST PUSH2 0x11EA DUP2 PUSH2 0x162C JUMP JUMPDEST DUP3 MSTORE POP POP JUMP JUMPDEST PUSH2 0x1201 PUSH2 0x11FC DUP3 PUSH2 0x162C JUMP JUMPDEST PUSH2 0x16CC JUMP JUMPDEST DUP3 MSTORE POP POP JUMP JUMPDEST PUSH1 0x0 PUSH2 0x1212 DUP3 PUSH2 0x15BB JUMP JUMPDEST PUSH2 0x121C DUP2 DUP6 PUSH2 0x15E8 JUMP JUMPDEST SWAP4 POP PUSH2 0x122C DUP2 DUP6 PUSH1 0x20 DUP7 ADD PUSH2 0x1699 JUMP JUMPDEST DUP1 DUP5 ADD SWAP2 POP POP SWAP3 SWAP2 POP POP JUMP JUMPDEST PUSH1 0x0 PUSH2 0x1243 DUP3 PUSH2 0x15B0 JUMP JUMPDEST PUSH2 0x124D DUP2 DUP6 PUSH2 0x15C6 JUMP JUMPDEST SWAP4 POP PUSH2 0x125D DUP2 DUP6 PUSH1 0x20 DUP7 ADD PUSH2 0x1699 JUMP JUMPDEST PUSH2 0x1266 DUP2 PUSH2 0x16D6 JUMP JUMPDEST DUP5 ADD SWAP2 POP POP SWAP3 SWAP2 POP POP JUMP JUMPDEST PUSH1 0x0 PUSH2 0x127C DUP3 PUSH2 0x15B0 JUMP JUMPDEST PUSH2 0x1286 DUP2 DUP6 PUSH2 0x15D7 JUMP JUMPDEST SWAP4 POP PUSH2 0x1296 DUP2 DUP6 PUSH1 0x20 DUP7 ADD PUSH2 0x1699 JUMP JUMPDEST PUSH2 0x129F DUP2 PUSH2 0x16D6 JUMP JUMPDEST DUP5 ADD SWAP2 POP POP SWAP3 SWAP2 POP POP JUMP JUMPDEST PUSH1 0x0 PUSH2 0x12B7 PUSH1 0x1E DUP4 PUSH2 0x15F3 JUMP JUMPDEST SWAP2 POP PUSH32 0x73656E646572206D7573742062652062726964676520636F6E74726163740000 PUSH1 0x0 DUP4 ADD MSTORE PUSH1 0x20 DUP3 ADD SWAP1 POP SWAP2 SWAP1 POP JUMP JUMPDEST PUSH1 0x0 PUSH2 0x12F7 PUSH1 0x26 DUP4 PUSH2 0x15F3 JUMP JUMPDEST SWAP2 POP PUSH32 0x64656C656761746563616C6C20746F20636F6E74726163744164647265737320 PUSH1 0x0 DUP4 ADD MSTORE PUSH32 0x6661696C65640000000000000000000000000000000000000000000000000000 PUSH1 0x20 DUP4 ADD MSTORE PUSH1 0x40 DUP3 ADD SWAP1 POP SWAP2 SWAP1 POP JUMP JUMPDEST PUSH1 0x0 PUSH2 0x135D PUSH1 0x2B DUP4 PUSH2 0x15F3 JUMP JUMPDEST SWAP2 POP PUSH32 0x70726F766964656420636F6E747261637441646472657373206973206E6F7420 PUSH1 0x0 DUP4 ADD MSTORE PUSH32 0x77686974656C6973746564000000000000000000000000000000000000000000 PUSH1 0x20 DUP4 ADD MSTORE PUSH1 0x40 DUP3 ADD SWAP1 POP SWAP2 SWAP1 POP JUMP JUMPDEST PUSH1 0x0 PUSH1 0x80 DUP4 ADD PUSH1 0x0 DUP4 ADD MLOAD PUSH2 0x13CE PUSH1 0x0 DUP7 ADD DUP3 PUSH2 0x1419 JUMP JUMPDEST POP PUSH1 0x20 DUP4 ADD MLOAD PUSH2 0x13E1 PUSH1 0x20 DUP7 ADD DUP3 PUSH2 0x1196 JUMP JUMPDEST POP PUSH1 0x40 DUP4 ADD MLOAD PUSH2 0x13F4 PUSH1 0x40 DUP7 ADD DUP3 PUSH2 0x11C3 JUMP JUMPDEST POP PUSH1 0x60 DUP4 ADD MLOAD DUP5 DUP3 SUB PUSH1 0x60 DUP7 ADD MSTORE PUSH2 0x140C DUP3 DUP3 PUSH2 0x1238 JUMP JUMPDEST SWAP2 POP POP DUP1 SWAP2 POP POP SWAP3 SWAP2 POP POP JUMP JUMPDEST PUSH2 0x1422 DUP2 PUSH2 0x168C JUMP JUMPDEST DUP3 MSTORE POP POP JUMP JUMPDEST PUSH2 0x1431 DUP2 PUSH2 0x168C JUMP JUMPDEST DUP3 MSTORE POP POP JUMP JUMPDEST PUSH1 0x0 PUSH2 0x1443 DUP3 DUP6 PUSH2 0x11F0 JUMP JUMPDEST PUSH1 0x4 DUP3 ADD SWAP2 POP PUSH2 0x1453 DUP3 DUP5 PUSH2 0x1207 JUMP JUMPDEST SWAP2 POP DUP2 SWAP1 POP SWAP4 SWAP3 POP POP POP JUMP JUMPDEST PUSH1 0x0 PUSH2 0x146B DUP3 DUP5 PUSH2 0x1207 JUMP JUMPDEST SWAP2 POP DUP2 SWAP1 POP SWAP3 SWAP2 POP POP JUMP JUMPDEST PUSH1 0x0 PUSH1 0x20 DUP3 ADD SWAP1 POP PUSH2 0x148B PUSH1 0x0 DUP4 ADD DUP5 PUSH2 0x11A5 JUMP JUMPDEST SWAP3 SWAP2 POP POP JUMP JUMPDEST PUSH1 0x0 PUSH1 0x20 DUP3 ADD SWAP1 POP PUSH2 0x14A6 PUSH1 0x0 DUP4 ADD DUP5 PUSH2 0x11B4 JUMP JUMPDEST SWAP3 SWAP2 POP POP JUMP JUMPDEST PUSH1 0x0 PUSH1 0x20 DUP3 ADD SWAP1 POP PUSH2 0x14C1 PUSH1 0x0 DUP4 ADD DUP5 PUSH2 0x11D2 JUMP JUMPDEST SWAP3 SWAP2 POP POP JUMP JUMPDEST PUSH1 0x0 PUSH1 0x20 DUP3 ADD SWAP1 POP PUSH2 0x14DC PUSH1 0x0 DUP4 ADD DUP5 PUSH2 0x11E1 JUMP JUMPDEST SWAP3 SWAP2 POP POP JUMP JUMPDEST PUSH1 0x0 PUSH1 0x20 DUP3 ADD SWAP1 POP DUP2 DUP2 SUB PUSH1 0x0 DUP4 ADD MSTORE PUSH2 0x14FB DUP2 PUSH2 0x12AA JUMP JUMPDEST SWAP1 POP SWAP2 SWAP1 POP JUMP JUMPDEST PUSH1 0x0 PUSH1 0x20 DUP3 ADD SWAP1 POP DUP2 DUP2 SUB PUSH1 0x0 DUP4 ADD MSTORE PUSH2 0x151B DUP2 PUSH2 0x12EA JUMP JUMPDEST SWAP1 POP SWAP2 SWAP1 POP JUMP JUMPDEST PUSH1 0x0 PUSH1 0x20 DUP3 ADD SWAP1 POP DUP2 DUP2 SUB PUSH1 0x0 DUP4 ADD MSTORE PUSH2 0x153B DUP2 PUSH2 0x1350 JUMP JUMPDEST SWAP1 POP SWAP2 SWAP1 POP JUMP JUMPDEST PUSH1 0x0 PUSH1 0x20 DUP3 ADD SWAP1 POP DUP2 DUP2 SUB PUSH1 0x0 DUP4 ADD MSTORE PUSH2 0x155C DUP2 DUP5 PUSH2 0x13B6 JUMP JUMPDEST SWAP1 POP SWAP3 SWAP2 POP POP JUMP JUMPDEST PUSH1 0x0 PUSH1 0x80 DUP3 ADD SWAP1 POP PUSH2 0x1579 PUSH1 0x0 DUP4 ADD DUP8 PUSH2 0x1428 JUMP JUMPDEST PUSH2 0x1586 PUSH1 0x20 DUP4 ADD DUP7 PUSH2 0x11A5 JUMP JUMPDEST PUSH2 0x1593 PUSH1 0x40 DUP4 ADD DUP6 PUSH2 0x11D2 JUMP JUMPDEST DUP2 DUP2 SUB PUSH1 0x60 DUP4 ADD MSTORE PUSH2 0x15A5 DUP2 DUP5 PUSH2 0x1271 JUMP JUMPDEST SWAP1 POP SWAP6 SWAP5 POP POP POP POP POP JUMP JUMPDEST PUSH1 0x0 DUP2 MLOAD SWAP1 POP SWAP2 SWAP1 POP JUMP JUMPDEST PUSH1 0x0 DUP2 MLOAD SWAP1 POP SWAP2 SWAP1 POP JUMP JUMPDEST PUSH1 0x0 DUP3 DUP3 MSTORE PUSH1 0x20 DUP3 ADD SWAP1 POP SWAP3 SWAP2 POP POP JUMP JUMPDEST PUSH1 0x0 DUP3 DUP3 MSTORE PUSH1 0x20 DUP3 ADD SWAP1 POP SWAP3 SWAP2 POP POP JUMP JUMPDEST PUSH1 0x0 DUP2 SWAP1 POP SWAP3 SWAP2 POP POP JUMP JUMPDEST PUSH1 0x0 DUP3 DUP3 MSTORE PUSH1 0x20 DUP3 ADD SWAP1 POP SWAP3 SWAP2 POP POP JUMP JUMPDEST PUSH1 0x0 PUSH2 0x160F DUP3 PUSH2 0x1658 JUMP JUMPDEST SWAP1 POP SWAP2 SWAP1 POP JUMP JUMPDEST PUSH1 0x0 DUP2 ISZERO ISZERO SWAP1 POP SWAP2 SWAP1 POP JUMP JUMPDEST PUSH1 0x0 DUP2 SWAP1 POP SWAP2 SWAP1 POP JUMP JUMPDEST PUSH1 0x0 PUSH32 0xFFFFFFFF00000000000000000000000000000000000000000000000000000000 DUP3 AND SWAP1 POP SWAP2 SWAP1 POP JUMP JUMPDEST PUSH1 0x0 PUSH20 0xFFFFFFFFFFFFFFFFFFFFFFFFFFFFFFFFFFFFFFFF DUP3 AND SWAP1 POP SWAP2 SWAP1 POP JUMP JUMPDEST PUSH1 0x0 PUSH8 0xFFFFFFFFFFFFFFFF DUP3 AND SWAP1 POP SWAP2 SWAP1 POP JUMP JUMPDEST PUSH1 0x0 PUSH1 0xFF DUP3 AND SWAP1 POP SWAP2 SWAP1 POP JUMP JUMPDEST PUSH1 0x0 JUMPDEST DUP4 DUP2 LT ISZERO PUSH2 0x16B7 JUMPI DUP1 DUP3 ADD MLOAD DUP2 DUP5 ADD MSTORE PUSH1 0x20 DUP2 ADD SWAP1 POP PUSH2 0x169C JUMP JUMPDEST DUP4 DUP2 GT ISZERO PUSH2 0x16C6 JUMPI PUSH1 0x0 DUP5 DUP5 ADD MSTORE JUMPDEST POP POP POP POP JUMP JUMPDEST PUSH1 0x0 DUP2 SWAP1 POP SWAP2 SWAP1 POP JUMP JUMPDEST PUSH1 0x0 PUSH1 0x1F NOT PUSH1 0x1F DUP4 ADD AND SWAP1 POP SWAP2 SWAP1 POP JUMP JUMPDEST PUSH2 0x16F0 DUP2 PUSH2 0x1604 JUMP JUMPDEST DUP2 EQ PUSH2 0x16FB JUMPI PUSH1 0x0 DUP1 REVERT JUMPDEST POP JUMP JUMPDEST PUSH2 0x1707 DUP2 PUSH2 0x1622 JUMP JUMPDEST DUP2 EQ PUSH2 0x1712 JUMPI PUSH1 0x0 DUP1 REVERT JUMPDEST POP JUMP JUMPDEST PUSH2 0x171E DUP2 PUSH2 0x162C JUMP JUMPDEST DUP2 EQ PUSH2 0x1729 JUMPI PUSH1 0x0 DUP1 REVERT JUMPDEST POP JUMP JUMPDEST PUSH2 0x1735 DUP2 PUSH2 0x1678 JUMP JUMPDEST DUP2 EQ PUSH2 0x1740 JUMPI PUSH1 0x0 DUP1 REVERT JUMPDEST POP JUMP JUMPDEST PUSH2 0x174C DUP2 PUSH2 0x168C JUMP JUMPDEST DUP2 EQ PUSH2 0x1757 JUMPI PUSH1 0x0 DUP1 REVERT JUMPDEST POP JUMP INVALID LOG2 PUSH5 0x6970667358 0x22 SLT KECCAK256 0xDB 0xED LOG0 0xB3 KECCAK256 0xAD 0xEF GASLIMIT 0xF6 0xD5 0xBD 0xBB 0xB6 0xF8 PUSH11 0xA5557C2D3A738175DBFB1 SIGNEXTEND 0xF8 0xA6 0xE7 0xFC 0x4C PUSH5 0x736F6C6343 STOP MOD DIV STOP CALLER "
				},
				"gasEstimates": {
					"creation": {
						"codeDepositCost": "1206400",
						"executionCost": "infinite",
						"totalCost": "infinite"
					},
					"external": {
						"_bridgeAddress()": "1215",
						"_contractAddressToDepositFunctionSignature(address)": "1611",
						"_contractAddressToExecuteFunctionSignature(address)": "1634",
						"_contractAddressToResourceID(address)": "1624",
						"_contractWhitelist(address)": "1612",
						"_depositRecords(uint8,uint64)": "infinite",
						"_resourceIDToContractAddress(bytes32)": "1583",
						"deposit(bytes32,uint8,uint64,address,bytes)": "infinite",
						"executeProposal(bytes32,bytes)": "infinite",
						"getDepositRecord(uint64,uint8)": "infinite",
						"setResource(bytes32,address,bytes4,bytes4)": "infinite"
					},
					"internal": {
						"_onlyBridge()": "infinite",
						"_setResource(bytes32,address,bytes4,bytes4)": "103943"
					}
				},
				"methodIdentifiers": {
					"_bridgeAddress()": "318c136e",
					"_contractAddressToDepositFunctionSignature(address)": "cb624463",
					"_contractAddressToExecuteFunctionSignature(address)": "a5c3a985",
					"_contractAddressToResourceID(address)": "ec97d3b4",
					"_contractWhitelist(address)": "7f79bea8",
					"_depositRecords(uint8,uint64)": "4402027f",
					"_resourceIDToContractAddress(bytes32)": "c54c2a11",
					"deposit(bytes32,uint8,uint64,address,bytes)": "38995da9",
					"executeProposal(bytes32,bytes)": "e248cff2",
					"getDepositRecord(uint64,uint8)": "ba484c09",
					"setResource(bytes32,address,bytes4,bytes4)": "bba8185a"
				}
			},
			"storageLayout": {
				"storage": [
					{
						"astId": 8,
						"contract": "contracts/handlers/GenericHandler.sol:GenericHandler",
						"label": "_bridgeAddress",
						"offset": 0,
						"slot": "0",
						"type": "t_address"
					},
					{
						"astId": 23,
						"contract": "contracts/handlers/GenericHandler.sol:GenericHandler",
						"label": "_depositRecords",
						"offset": 0,
						"slot": "1",
						"type": "t_mapping(t_uint8,t_mapping(t_uint64,t_struct(DepositRecord)17_storage))"
					},
					{
						"astId": 27,
						"contract": "contracts/handlers/GenericHandler.sol:GenericHandler",
						"label": "_resourceIDToContractAddress",
						"offset": 0,
						"slot": "2",
						"type": "t_mapping(t_bytes32,t_address)"
					},
					{
						"astId": 31,
						"contract": "contracts/handlers/GenericHandler.sol:GenericHandler",
						"label": "_contractAddressToResourceID",
						"offset": 0,
						"slot": "3",
						"type": "t_mapping(t_address,t_bytes32)"
					},
					{
						"astId": 35,
						"contract": "contracts/handlers/GenericHandler.sol:GenericHandler",
						"label": "_contractAddressToDepositFunctionSignature",
						"offset": 0,
						"slot": "4",
						"type": "t_mapping(t_address,t_bytes4)"
					},
					{
						"astId": 39,
						"contract": "contracts/handlers/GenericHandler.sol:GenericHandler",
						"label": "_contractAddressToExecuteFunctionSignature",
						"offset": 0,
						"slot": "5",
						"type": "t_mapping(t_address,t_bytes4)"
					},
					{
						"astId": 43,
						"contract": "contracts/handlers/GenericHandler.sol:GenericHandler",
						"label": "_contractWhitelist",
						"offset": 0,
						"slot": "6",
						"type": "t_mapping(t_address,t_bool)"
					}
				],
				"types": {
					"t_address": {
						"encoding": "inplace",
						"label": "address",
						"numberOfBytes": "20"
					},
					"t_bool": {
						"encoding": "inplace",
						"label": "bool",
						"numberOfBytes": "1"
					},
					"t_bytes32": {
						"encoding": "inplace",
						"label": "bytes32",
						"numberOfBytes": "32"
					},
					"t_bytes4": {
						"encoding": "inplace",
						"label": "bytes4",
						"numberOfBytes": "4"
					},
					"t_bytes_storage": {
						"encoding": "bytes",
						"label": "bytes",
						"numberOfBytes": "32"
					},
					"t_mapping(t_address,t_bool)": {
						"encoding": "mapping",
						"key": "t_address",
						"label": "mapping(address => bool)",
						"numberOfBytes": "32",
						"value": "t_bool"
					},
					"t_mapping(t_address,t_bytes32)": {
						"encoding": "mapping",
						"key": "t_address",
						"label": "mapping(address => bytes32)",
						"numberOfBytes": "32",
						"value": "t_bytes32"
					},
					"t_mapping(t_address,t_bytes4)": {
						"encoding": "mapping",
						"key": "t_address",
						"label": "mapping(address => bytes4)",
						"numberOfBytes": "32",
						"value": "t_bytes4"
					},
					"t_mapping(t_bytes32,t_address)": {
						"encoding": "mapping",
						"key": "t_bytes32",
						"label": "mapping(bytes32 => address)",
						"numberOfBytes": "32",
						"value": "t_address"
					},
					"t_mapping(t_uint64,t_struct(DepositRecord)17_storage)": {
						"encoding": "mapping",
						"key": "t_uint64",
						"label": "mapping(uint64 => struct GenericHandler.DepositRecord)",
						"numberOfBytes": "32",
						"value": "t_struct(DepositRecord)17_storage"
					},
					"t_mapping(t_uint8,t_mapping(t_uint64,t_struct(DepositRecord)17_storage))": {
						"encoding": "mapping",
						"key": "t_uint8",
						"label": "mapping(uint8 => mapping(uint64 => struct GenericHandler.DepositRecord))",
						"numberOfBytes": "32",
						"value": "t_mapping(t_uint64,t_struct(DepositRecord)17_storage)"
					},
					"t_struct(DepositRecord)17_storage": {
						"encoding": "inplace",
						"label": "struct GenericHandler.DepositRecord",
						"members": [
							{
								"astId": 10,
								"contract": "contracts/handlers/GenericHandler.sol:GenericHandler",
								"label": "_destinationChainID",
								"offset": 0,
								"slot": "0",
								"type": "t_uint8"
							},
							{
								"astId": 12,
								"contract": "contracts/handlers/GenericHandler.sol:GenericHandler",
								"label": "_depositer",
								"offset": 1,
								"slot": "0",
								"type": "t_address"
							},
							{
								"astId": 14,
								"contract": "contracts/handlers/GenericHandler.sol:GenericHandler",
								"label": "_resourceID",
								"offset": 0,
								"slot": "1",
								"type": "t_bytes32"
							},
							{
								"astId": 16,
								"contract": "contracts/handlers/GenericHandler.sol:GenericHandler",
								"label": "_metaData",
								"offset": 0,
								"slot": "2",
								"type": "t_bytes_storage"
							}
						],
						"numberOfBytes": "96"
					},
					"t_uint64": {
						"encoding": "inplace",
						"label": "uint64",
						"numberOfBytes": "8"
					},
					"t_uint8": {
						"encoding": "inplace",
						"label": "uint8",
						"numberOfBytes": "1"
					}
				}
			},
			"userdoc": {
				"methods": {
					"deposit(bytes32,uint8,uint64,address,bytes)": {
						"notice": "A deposit is initiatied by making a deposit in the Bridge contract.Data passed into the function should be constructed as follows: len(data)                              uint256     bytes  0  - 32 data                                   bytes       bytes  64 - END{contractAddress} is required to be whitelistedIf {_contractAddressToDepositFunctionSignature}[{contractAddress}] is set, {metaData} is expected to consist of needed function arguments."
					},
					"executeProposal(bytes32,bytes)": {
						"notice": "Proposal execution should be initiated when a proposal is finalized in the Bridge contract.Data passed into the function should be constructed as follows: len(data)                              uint256     bytes  0  - 32 data                                   bytes       bytes  32 - END{contractAddress} is required to be whitelistedIf {_contractAddressToExecuteFunctionSignature}[{contractAddress}] is set, {metaData} is expected to consist of needed function arguments."
					},
					"setResource(bytes32,address,bytes4,bytes4)": {
						"notice": "First verifies {_resourceIDToContractAddress}[{resourceID}] and {_contractAddressToResourceID}[{contractAddress}] are not already set, then sets {_resourceIDToContractAddress} with {contractAddress}, {_contractAddressToResourceID} with {resourceID}, {_contractAddressToDepositFunctionSignature} with {depositFunctionSig}, {_contractAddressToExecuteFunctionSignature} with {executeFunctionSig}, and {_contractWhitelist} to true for {contractAddress}."
					}
				},
				"notice": "This contract is intended to be used with the Bridge contract."
			}
		}
	}
}