{
	"contracts/MonkeyNft.sol": {
		"WrappedRar": {
			"abi": [
				{
					"inputs": [
						{
							"internalType": "string",
							"name": "name",
							"type": "string"
						},
						{
							"internalType": "string",
							"name": "symbol",
							"type": "string"
						}
					],
					"stateMutability": "nonpayable",
					"type": "constructor"
				},
				{
					"anonymous": false,
					"inputs": [
						{
							"indexed": true,
							"internalType": "address",
							"name": "owner",
							"type": "address"
						},
						{
							"indexed": true,
							"internalType": "address",
							"name": "approved",
							"type": "address"
						},
						{
							"indexed": true,
							"internalType": "uint256",
							"name": "tokenId",
							"type": "uint256"
						}
					],
					"name": "Approval",
					"type": "event"
				},
				{
					"anonymous": false,
					"inputs": [
						{
							"indexed": true,
							"internalType": "address",
							"name": "owner",
							"type": "address"
						},
						{
							"indexed": true,
							"internalType": "address",
							"name": "operator",
							"type": "address"
						},
						{
							"indexed": false,
							"internalType": "bool",
							"name": "approved",
							"type": "bool"
						}
					],
					"name": "ApprovalForAll",
					"type": "event"
				},
				{
					"anonymous": false,
					"inputs": [
						{
							"indexed": true,
							"internalType": "address",
							"name": "from",
							"type": "address"
						},
						{
							"indexed": true,
							"internalType": "address",
							"name": "to",
							"type": "address"
						},
						{
							"indexed": true,
							"internalType": "uint256",
							"name": "tokenId",
							"type": "uint256"
						}
					],
					"name": "Transfer",
					"type": "event"
				},
				{
					"inputs": [
						{
							"internalType": "address",
							"name": "to",
							"type": "address"
						},
						{
							"internalType": "uint256",
							"name": "tokenId",
							"type": "uint256"
						}
					],
					"name": "approve",
					"outputs": [],
					"stateMutability": "nonpayable",
					"type": "function"
				},
				{
					"inputs": [
						{
							"internalType": "address",
							"name": "owner",
							"type": "address"
						}
					],
					"name": "balanceOf",
					"outputs": [
						{
							"internalType": "uint256",
							"name": "",
							"type": "uint256"
						}
					],
					"stateMutability": "view",
					"type": "function"
				},
				{
					"inputs": [],
					"name": "baseURI",
					"outputs": [
						{
							"internalType": "string",
							"name": "",
							"type": "string"
						}
					],
					"stateMutability": "view",
					"type": "function"
				},
				{
					"inputs": [
						{
							"internalType": "uint256",
							"name": "tokenId",
							"type": "uint256"
						}
					],
					"name": "burn",
					"outputs": [],
					"stateMutability": "nonpayable",
					"type": "function"
				},
				{
					"inputs": [
						{
							"internalType": "uint256",
							"name": "tokenId",
							"type": "uint256"
						}
					],
					"name": "getApproved",
					"outputs": [
						{
							"internalType": "address",
							"name": "",
							"type": "address"
						}
					],
					"stateMutability": "view",
					"type": "function"
				},
				{
					"inputs": [
						{
							"internalType": "address",
							"name": "owner",
							"type": "address"
						},
						{
							"internalType": "address",
							"name": "operator",
							"type": "address"
						}
					],
					"name": "isApprovedForAll",
					"outputs": [
						{
							"internalType": "bool",
							"name": "",
							"type": "bool"
						}
					],
					"stateMutability": "view",
					"type": "function"
				},
				{
					"inputs": [
						{
							"internalType": "address",
							"name": "to",
							"type": "address"
						},
						{
							"internalType": "uint256",
							"name": "tokenId",
							"type": "uint256"
						},
						{
							"internalType": "string",
							"name": "_tokenURI",
							"type": "string"
						}
					],
					"name": "mint",
					"outputs": [],
					"stateMutability": "nonpayable",
					"type": "function"
				},
				{
					"inputs": [],
					"name": "name",
					"outputs": [
						{
							"internalType": "string",
							"name": "",
							"type": "string"
						}
					],
					"stateMutability": "view",
					"type": "function"
				},
				{
					"inputs": [
						{
							"internalType": "uint256",
							"name": "tokenId",
							"type": "uint256"
						}
					],
					"name": "ownerOf",
					"outputs": [
						{
							"internalType": "address",
							"name": "",
							"type": "address"
						}
					],
					"stateMutability": "view",
					"type": "function"
				},
				{
					"inputs": [
						{
							"internalType": "address",
							"name": "from",
							"type": "address"
						},
						{
							"internalType": "address",
							"name": "to",
							"type": "address"
						},
						{
							"internalType": "uint256",
							"name": "tokenId",
							"type": "uint256"
						}
					],
					"name": "safeTransferFrom",
					"outputs": [],
					"stateMutability": "nonpayable",
					"type": "function"
				},
				{
					"inputs": [
						{
							"internalType": "address",
							"name": "from",
							"type": "address"
						},
						{
							"internalType": "address",
							"name": "to",
							"type": "address"
						},
						{
							"internalType": "uint256",
							"name": "tokenId",
							"type": "uint256"
						},
						{
							"internalType": "bytes",
							"name": "_data",
							"type": "bytes"
						}
					],
					"name": "safeTransferFrom",
					"outputs": [],
					"stateMutability": "nonpayable",
					"type": "function"
				},
				{
					"inputs": [
						{
							"internalType": "address",
							"name": "operator",
							"type": "address"
						},
						{
							"internalType": "bool",
							"name": "approved",
							"type": "bool"
						}
					],
					"name": "setApprovalForAll",
					"outputs": [],
					"stateMutability": "nonpayable",
					"type": "function"
				},
				{
					"inputs": [
						{
							"internalType": "bytes4",
							"name": "interfaceId",
							"type": "bytes4"
						}
					],
					"name": "supportsInterface",
					"outputs": [
						{
							"internalType": "bool",
							"name": "",
							"type": "bool"
						}
					],
					"stateMutability": "view",
					"type": "function"
				},
				{
					"inputs": [],
					"name": "symbol",
					"outputs": [
						{
							"internalType": "string",
							"name": "",
							"type": "string"
						}
					],
					"stateMutability": "view",
					"type": "function"
				},
				{
					"inputs": [
						{
							"internalType": "uint256",
							"name": "index",
							"type": "uint256"
						}
					],
					"name": "tokenByIndex",
					"outputs": [
						{
							"internalType": "uint256",
							"name": "",
							"type": "uint256"
						}
					],
					"stateMutability": "view",
					"type": "function"
				},
				{
					"inputs": [
						{
							"internalType": "address",
							"name": "owner",
							"type": "address"
						},
						{
							"internalType": "uint256",
							"name": "index",
							"type": "uint256"
						}
					],
					"name": "tokenOfOwnerByIndex",
					"outputs": [
						{
							"internalType": "uint256",
							"name": "",
							"type": "uint256"
						}
					],
					"stateMutability": "view",
					"type": "function"
				},
				{
					"inputs": [
						{
							"internalType": "uint256",
							"name": "tokenId",
							"type": "uint256"
						}
					],
					"name": "tokenURI",
					"outputs": [
						{
							"internalType": "string",
							"name": "",
							"type": "string"
						}
					],
					"stateMutability": "view",
					"type": "function"
				},
				{
					"inputs": [],
					"name": "totalSupply",
					"outputs": [
						{
							"internalType": "uint256",
							"name": "",
							"type": "uint256"
						}
					],
					"stateMutability": "view",
					"type": "function"
				},
				{
					"inputs": [
						{
							"internalType": "address",
							"name": "from",
							"type": "address"
						},
						{
							"internalType": "address",
							"name": "to",
							"type": "address"
						},
						{
							"internalType": "uint256",
							"name": "tokenId",
							"type": "uint256"
						}
					],
					"name": "transferFrom",
					"outputs": [],
					"stateMutability": "nonpayable",
					"type": "function"
				}
			],
			"devdoc": {
				"author": "ChainSafe Systems.",
				"methods": {
					"approve(address,uint256)": {
						"details": "Approves another address to transfer the given token ID The zero address indicates there is no approved address. There can only be one approved address per token at a given time. Can only be called by the token owner or an approved operator.",
						"params": {
							"to": "address to be approved for the given token ID",
							"tokenId": "uint256 ID of the token to be approved"
						}
					},
					"balanceOf(address)": {
						"details": "Gets the balance of the specified address.",
						"params": {
							"owner": "address to query the balance of"
						},
						"returns": {
							"_0": "uint256 representing the amount owned by the passed address"
						}
					},
					"baseURI()": {
						"details": "Returns the base URI set via {_setBaseURI}. This will be automatically added as a prefix in {tokenURI} to each token's URI, or to the token ID if no specific URI is set for that token ID."
					},
					"burn(uint256)": {
						"details": "Burns a specific ERC721 token.",
						"params": {
							"tokenId": "uint256 id of the ERC721 token to be burned."
						}
					},
					"getApproved(uint256)": {
						"details": "Gets the approved address for a token ID, or zero if no address set Reverts if the token ID does not exist.",
						"params": {
							"tokenId": "uint256 ID of the token to query the approval of"
						},
						"returns": {
							"_0": "address currently approved for the given token ID"
						}
					},
					"isApprovedForAll(address,address)": {
						"details": "Tells whether an operator is approved by a given owner.",
						"params": {
							"operator": "operator address which you want to query the approval of",
							"owner": "owner address which you want to query the approval of"
						},
						"returns": {
							"_0": "bool whether the given operator is approved by the given owner"
						}
					},
					"name()": {
						"details": "Gets the token name.",
						"returns": {
							"_0": "string representing the token name"
						}
					},
					"ownerOf(uint256)": {
						"details": "Gets the owner of the specified token ID.",
						"params": {
							"tokenId": "uint256 ID of the token to query the owner of"
						},
						"returns": {
							"_0": "address currently marked as the owner of the given token ID"
						}
					},
					"safeTransferFrom(address,address,uint256)": {
						"details": "Safely transfers the ownership of a given token ID to another address If the target address is a contract, it must implement {IERC721Receiver-onERC721Received}, which is called upon a safe transfer, and return the magic value `bytes4(keccak256(\"onERC721Received(address,address,uint256,bytes)\"))`; otherwise, the transfer is reverted. Requires the msg.sender to be the owner, approved, or operator",
						"params": {
							"from": "current owner of the token",
							"to": "address to receive the ownership of the given token ID",
							"tokenId": "uint256 ID of the token to be transferred"
						}
					},
					"safeTransferFrom(address,address,uint256,bytes)": {
						"details": "Safely transfers the ownership of a given token ID to another address If the target address is a contract, it must implement {IERC721Receiver-onERC721Received}, which is called upon a safe transfer, and return the magic value `bytes4(keccak256(\"onERC721Received(address,address,uint256,bytes)\"))`; otherwise, the transfer is reverted. Requires the _msgSender() to be the owner, approved, or operator",
						"params": {
							"_data": "bytes data to send along with a safe transfer check",
							"from": "current owner of the token",
							"to": "address to receive the ownership of the given token ID",
							"tokenId": "uint256 ID of the token to be transferred"
						}
					},
					"setApprovalForAll(address,bool)": {
						"details": "Sets or unsets the approval of a given operator An operator is allowed to transfer all tokens of the sender on their behalf.",
						"params": {
							"approved": "representing the status of the approval to be set",
							"operator": "operator address to set the approval"
						}
					},
					"supportsInterface(bytes4)": {
						"details": "See {IERC165-supportsInterface}.     * Time complexity O(1), guaranteed to always use less than 30 000 gas."
					},
					"symbol()": {
						"details": "Gets the token symbol.",
						"returns": {
							"_0": "string representing the token symbol"
						}
					},
					"tokenByIndex(uint256)": {
						"details": "Gets the token ID at a given index of all the tokens in this contract Reverts if the index is greater or equal to the total number of tokens.",
						"params": {
							"index": "uint256 representing the index to be accessed of the tokens list"
						},
						"returns": {
							"_0": "uint256 token ID at the given index of the tokens list"
						}
					},
					"tokenOfOwnerByIndex(address,uint256)": {
						"details": "Gets the token ID at a given index of the tokens list of the requested owner.",
						"params": {
							"index": "uint256 representing the index to be accessed of the requested tokens list",
							"owner": "address owning the tokens list to be accessed"
						},
						"returns": {
							"_0": "uint256 token ID at the given index of the tokens list owned by the requested address"
						}
					},
					"tokenURI(uint256)": {
						"details": "Returns the URI for a given token ID. May return an empty string.     * If a base URI is set (via {_setBaseURI}), it is added as a prefix to the token's own URI (via {_setTokenURI}).     * If there is a base URI but no token URI, the token's ID will be used as its URI when appending it to the base URI. This pattern for autogenerated token URIs can lead to large gas savings.     * .Examples |=== |`_setBaseURI()` |`_setTokenURI()` |`tokenURI()` | \"\" | \"\" | \"\" | \"\" | \"token.uri/123\" | \"token.uri/123\" | \"token.uri/\" | \"123\" | \"token.uri/123\" | \"token.uri/\" | \"\" | \"token.uri/<tokenId>\" |===     * Requirements:     * - `tokenId` must exist."
					},
					"totalSupply()": {
						"details": "Gets the total amount of tokens stored by the contract.",
						"returns": {
							"_0": "uint256 representing the total amount of tokens"
						}
					},
					"transferFrom(address,address,uint256)": {
						"details": "Transfers the ownership of a given token ID to another address. Usage of this method is discouraged, use {safeTransferFrom} whenever possible. Requires the msg.sender to be the owner, approved, or operator.",
						"params": {
							"from": "current owner of the token",
							"to": "address to receive the ownership of the given token ID",
							"tokenId": "uint256 ID of the token to be transferred"
						}
					}
				},
				"title": "Facilitates deposits, creation and votiing of deposit proposals, and deposit executions."
			},
			"evm": {
				"assembly": "    /* \"contracts/MonkeyNft.sol\":278:580  contract WrappedRar is ERC721, ERC721Burnable {... */\n  mstore(0x40, 0x80)\n    /* \"contracts/MonkeyNft.sol\":330:419  constructor(string memory name, string memory symbol) public ERC721(name, symbol) {... */\n  callvalue\n    /* \"--CODEGEN--\":5:14   */\n  dup1\n    /* \"--CODEGEN--\":2:4   */\n  iszero\n  tag_1\n  jumpi\n    /* \"--CODEGEN--\":27:28   */\n  0x00\n    /* \"--CODEGEN--\":24:25   */\n  dup1\n    /* \"--CODEGEN--\":17:29   */\n  revert\n    /* \"--CODEGEN--\":2:4   */\ntag_1:\n    /* \"contracts/MonkeyNft.sol\":330:419  constructor(string memory name, string memory symbol) public ERC721(name, symbol) {... */\n  pop\n  mload(0x40)\n  sub(codesize, bytecodeSize)\n  dup1\n  bytecodeSize\n  dup4\n  codecopy\n  dup2\n  dup2\n  add\n  0x40\n  mstore\n  dup2\n  add\n  swap1\n  tag_2\n  swap2\n  swap1\n  jump(tag_3)\ntag_2:\n    /* \"contracts/MonkeyNft.sol\":398:402  name */\n  dup2\n    /* \"contracts/MonkeyNft.sol\":404:410  symbol */\n  dup2\n    /* \"contracts/introspection/ERC165.sol\":718:758  _registerInterface(_INTERFACE_ID_ERC165) */\n  tag_10\n    /* \"contracts/introspection/ERC165.sol\":385:395  0x01ffc9a7 */\n  0x01ffc9a7\n    /* \"contracts/introspection/ERC165.sol\":737:757  _INTERFACE_ID_ERC165 */\n  0xe0\n  shl\n    /* \"contracts/introspection/ERC165.sol\":718:736  _registerInterface */\n  shl(0x20, tag_11)\n    /* \"contracts/introspection/ERC165.sol\":718:758  _registerInterface(_INTERFACE_ID_ERC165) */\n  0x20\n  shr\n  jump\t// in\ntag_10:\n    /* \"contracts/token/ERC721/ERC721.sol\":3499:3503  name */\n  dup2\n    /* \"contracts/token/ERC721/ERC721.sol\":3491:3496  _name */\n  0x06\n    /* \"contracts/token/ERC721/ERC721.sol\":3491:3503  _name = name */\n  swap1\n  dup1\n  mload\n  swap1\n  0x20\n  add\n  swap1\n  tag_13\n  swap3\n  swap2\n  swap1\n  tag_14\n  jump\t// in\ntag_13:\n  pop\n    /* \"contracts/token/ERC721/ERC721.sol\":3523:3529  symbol */\n  dup1\n    /* \"contracts/token/ERC721/ERC721.sol\":3513:3520  _symbol */\n  0x07\n    /* \"contracts/token/ERC721/ERC721.sol\":3513:3529  _symbol = symbol */\n  swap1\n  dup1\n  mload\n  swap1\n  0x20\n  add\n  swap1\n  tag_15\n  swap3\n  swap2\n  swap1\n  tag_14\n  jump\t// in\ntag_15:\n  pop\n    /* \"contracts/token/ERC721/ERC721.sol\":3617:3657  _registerInterface(_INTERFACE_ID_ERC721) */\n  tag_16\n    /* \"contracts/token/ERC721/ERC721.sol\":2697:2707  0x80ac58cd */\n  0x80ac58cd\n    /* \"contracts/token/ERC721/ERC721.sol\":3636:3656  _INTERFACE_ID_ERC721 */\n  0xe0\n  shl\n    /* \"contracts/token/ERC721/ERC721.sol\":3617:3635  _registerInterface */\n  shl(0x20, tag_11)\n    /* \"contracts/token/ERC721/ERC721.sol\":3617:3657  _registerInterface(_INTERFACE_ID_ERC721) */\n  0x20\n  shr\n  jump\t// in\ntag_16:\n    /* \"contracts/token/ERC721/ERC721.sol\":3667:3716  _registerInterface(_INTERFACE_ID_ERC721_METADATA) */\n  tag_17\n    /* \"contracts/token/ERC721/ERC721.sol\":3029:3039  0x5b5e139f */\n  0x5b5e139f\n    /* \"contracts/token/ERC721/ERC721.sol\":3686:3715  _INTERFACE_ID_ERC721_METADATA */\n  0xe0\n  shl\n    /* \"contracts/token/ERC721/ERC721.sol\":3667:3685  _registerInterface */\n  shl(0x20, tag_11)\n    /* \"contracts/token/ERC721/ERC721.sol\":3667:3716  _registerInterface(_INTERFACE_ID_ERC721_METADATA) */\n  0x20\n  shr\n  jump\t// in\ntag_17:\n    /* \"contracts/token/ERC721/ERC721.sol\":3726:3777  _registerInterface(_INTERFACE_ID_ERC721_ENUMERABLE) */\n  tag_18\n    /* \"contracts/token/ERC721/ERC721.sol\":3402:3412  0x780e9d63 */\n  0x780e9d63\n    /* \"contracts/token/ERC721/ERC721.sol\":3745:3776  _INTERFACE_ID_ERC721_ENUMERABLE */\n  0xe0\n  shl\n    /* \"contracts/token/ERC721/ERC721.sol\":3726:3744  _registerInterface */\n  shl(0x20, tag_11)\n    /* \"contracts/token/ERC721/ERC721.sol\":3726:3777  _registerInterface(_INTERFACE_ID_ERC721_ENUMERABLE) */\n  0x20\n  shr\n  jump\t// in\ntag_18:\n    /* \"contracts/token/ERC721/ERC721.sol\":3419:3784  constructor (string memory name, string memory symbol) public {... */\n  pop\n  pop\n    /* \"contracts/MonkeyNft.sol\":330:419  constructor(string memory name, string memory symbol) public ERC721(name, symbol) {... */\n  pop\n  pop\n    /* \"contracts/MonkeyNft.sol\":278:580  contract WrappedRar is ERC721, ERC721Burnable {... */\n  jump(tag_20)\n    /* \"contracts/introspection/ERC165.sol\":1449:1647  function _registerInterface(bytes4 interfaceId) internal virtual {... */\ntag_11:\n    /* \"contracts/introspection/ERC165.sol\":1547:1557  0xffffffff */\n  0xffffffff\n    /* \"contracts/introspection/ERC165.sol\":1532:1557  interfaceId != 0xffffffff */\n  0xe0\n  shl\n    /* \"contracts/introspection/ERC165.sol\":1532:1543  interfaceId */\n  dup2\n    /* \"contracts/introspection/ERC165.sol\":1532:1557  interfaceId != 0xffffffff */\n  not(0xffffffffffffffffffffffffffffffffffffffffffffffffffffffff)\n  and\n  eq\n  iszero\n    /* \"contracts/introspection/ERC165.sol\":1524:1590  require(interfaceId != 0xffffffff, \"ERC165: invalid interface id\") */\n  tag_22\n  jumpi\n  mload(0x40)\n  0x08c379a000000000000000000000000000000000000000000000000000000000\n  dup2\n  mstore\n  0x04\n  add\n  tag_23\n  swap1\n  jump(tag_24)\ntag_23:\n  mload(0x40)\n  dup1\n  swap2\n  sub\n  swap1\n  revert\ntag_22:\n    /* \"contracts/introspection/ERC165.sol\":1636:1640  true */\n  0x01\n    /* \"contracts/introspection/ERC165.sol\":1600:1620  _supportedInterfaces */\n  0x00\n    /* \"contracts/introspection/ERC165.sol\":1600:1633  _supportedInterfaces[interfaceId] */\n  dup1\n    /* \"contracts/introspection/ERC165.sol\":1621:1632  interfaceId */\n  dup4\n    /* \"contracts/introspection/ERC165.sol\":1600:1633  _supportedInterfaces[interfaceId] */\n  not(0xffffffffffffffffffffffffffffffffffffffffffffffffffffffff)\n  and\n  not(0xffffffffffffffffffffffffffffffffffffffffffffffffffffffff)\n  and\n  dup2\n  mstore\n  0x20\n  add\n  swap1\n  dup2\n  mstore\n  0x20\n  add\n  0x00\n  keccak256\n  0x00\n    /* \"contracts/introspection/ERC165.sol\":1600:1640  _supportedInterfaces[interfaceId] = true */\n  0x0100\n  exp\n  dup2\n  sload\n  dup2\n  0xff\n  mul\n  not\n  and\n  swap1\n  dup4\n  iszero\n  iszero\n  mul\n  or\n  swap1\n  sstore\n  pop\n    /* \"contracts/introspection/ERC165.sol\":1449:1647  function _registerInterface(bytes4 interfaceId) internal virtual {... */\n  pop\n  jump\t// out\n    /* \"contracts/MonkeyNft.sol\":278:580  contract WrappedRar is ERC721, ERC721Burnable {... */\ntag_14:\n  dup3\n  dup1\n  sload\n  0x01\n  dup2\n  0x01\n  and\n  iszero\n  0x0100\n  mul\n  sub\n  and\n  0x02\n  swap1\n  div\n  swap1\n  0x00\n  mstore\n  keccak256(0x00, 0x20)\n  swap1\n  0x1f\n  add\n  0x20\n  swap1\n  div\n  dup2\n  add\n  swap3\n  dup3\n  0x1f\n  lt\n  tag_26\n  jumpi\n  dup1\n  mload\n  not(0xff)\n  and\n  dup4\n  dup1\n  add\n  or\n  dup6\n  sstore\n  jump(tag_25)\ntag_26:\n  dup3\n  dup1\n  add\n  0x01\n  add\n  dup6\n  sstore\n  dup3\n  iszero\n  tag_25\n  jumpi\n  swap2\n  dup3\n  add\ntag_27:\n  dup3\n  dup2\n  gt\n  iszero\n  tag_28\n  jumpi\n  dup3\n  mload\n  dup3\n  sstore\n  swap2\n  0x20\n  add\n  swap2\n  swap1\n  0x01\n  add\n  swap1\n  jump(tag_27)\ntag_28:\ntag_25:\n  pop\n  swap1\n  pop\n  tag_29\n  swap2\n  swap1\n  tag_30\n  jump\t// in\ntag_29:\n  pop\n  swap1\n  jump\t// out\ntag_30:\n  tag_31\n  swap2\n  swap1\ntag_32:\n  dup1\n  dup3\n  gt\n  iszero\n  tag_33\n  jumpi\n  0x00\n  dup2\n  0x00\n  swap1\n  sstore\n  pop\n  0x01\n  add\n  jump(tag_32)\ntag_33:\n  pop\n  swap1\n  jump\ntag_31:\n  swap1\n  jump\t// out\n    /* \"--CODEGEN--\":6:450   */\ntag_35:\n  0x00\n    /* \"--CODEGEN--\":119:122   */\n  dup3\n    /* \"--CODEGEN--\":112:116   */\n  0x1f\n    /* \"--CODEGEN--\":104:110   */\n  dup4\n    /* \"--CODEGEN--\":100:117   */\n  add\n    /* \"--CODEGEN--\":96:123   */\n  slt\n    /* \"--CODEGEN--\":86:88   */\n  tag_37\n  jumpi\n    /* \"--CODEGEN--\":137:138   */\n  0x00\n    /* \"--CODEGEN--\":134:135   */\n  dup1\n    /* \"--CODEGEN--\":127:139   */\n  revert\n    /* \"--CODEGEN--\":86:88   */\ntag_37:\n    /* \"--CODEGEN--\":167:173   */\n  dup2\n    /* \"--CODEGEN--\":161:174   */\n  mload\n    /* \"--CODEGEN--\":189:254   */\n  tag_38\n    /* \"--CODEGEN--\":204:253   */\n  tag_39\n    /* \"--CODEGEN--\":246:252   */\n  dup3\n    /* \"--CODEGEN--\":204:253   */\n  jump(tag_40)\ntag_39:\n    /* \"--CODEGEN--\":189:254   */\n  jump(tag_41)\ntag_38:\n    /* \"--CODEGEN--\":180:254   */\n  swap2\n  pop\n    /* \"--CODEGEN--\":274:280   */\n  dup1\n    /* \"--CODEGEN--\":267:272   */\n  dup3\n    /* \"--CODEGEN--\":260:281   */\n  mstore\n    /* \"--CODEGEN--\":310:314   */\n  0x20\n    /* \"--CODEGEN--\":302:308   */\n  dup4\n    /* \"--CODEGEN--\":298:315   */\n  add\n    /* \"--CODEGEN--\":343:347   */\n  0x20\n    /* \"--CODEGEN--\":336:341   */\n  dup4\n    /* \"--CODEGEN--\":332:348   */\n  add\n    /* \"--CODEGEN--\":378:381   */\n  dup6\n    /* \"--CODEGEN--\":369:375   */\n  dup4\n    /* \"--CODEGEN--\":364:367   */\n  dup4\n    /* \"--CODEGEN--\":360:376   */\n  add\n    /* \"--CODEGEN--\":357:382   */\n  gt\n    /* \"--CODEGEN--\":354:356   */\n  iszero\n  tag_42\n  jumpi\n    /* \"--CODEGEN--\":395:396   */\n  0x00\n    /* \"--CODEGEN--\":392:393   */\n  dup1\n    /* \"--CODEGEN--\":385:397   */\n  revert\n    /* \"--CODEGEN--\":354:356   */\ntag_42:\n    /* \"--CODEGEN--\":405:444   */\n  tag_43\n    /* \"--CODEGEN--\":437:443   */\n  dup4\n    /* \"--CODEGEN--\":432:435   */\n  dup3\n    /* \"--CODEGEN--\":427:430   */\n  dup5\n    /* \"--CODEGEN--\":405:444   */\n  jump(tag_44)\ntag_43:\n    /* \"--CODEGEN--\":79:450   */\n  pop\n  pop\n  pop\n  swap3\n  swap2\n  pop\n  pop\n  jump\n    /* \"--CODEGEN--\":458:1055   */\ntag_3:\n  0x00\n  dup1\n    /* \"--CODEGEN--\":610:612   */\n  0x40\n    /* \"--CODEGEN--\":598:607   */\n  dup4\n    /* \"--CODEGEN--\":589:596   */\n  dup6\n    /* \"--CODEGEN--\":585:608   */\n  sub\n    /* \"--CODEGEN--\":581:613   */\n  slt\n    /* \"--CODEGEN--\":578:580   */\n  iszero\n  tag_46\n  jumpi\n    /* \"--CODEGEN--\":626:627   */\n  0x00\n    /* \"--CODEGEN--\":623:624   */\n  dup1\n    /* \"--CODEGEN--\":616:628   */\n  revert\n    /* \"--CODEGEN--\":578:580   */\ntag_46:\n    /* \"--CODEGEN--\":682:683   */\n  0x00\n    /* \"--CODEGEN--\":671:680   */\n  dup4\n    /* \"--CODEGEN--\":667:684   */\n  add\n    /* \"--CODEGEN--\":661:685   */\n  mload\n    /* \"--CODEGEN--\":705:723   */\n  0xffffffffffffffff\n    /* \"--CODEGEN--\":697:703   */\n  dup2\n    /* \"--CODEGEN--\":694:724   */\n  gt\n    /* \"--CODEGEN--\":691:693   */\n  iszero\n  tag_47\n  jumpi\n    /* \"--CODEGEN--\":737:738   */\n  0x00\n    /* \"--CODEGEN--\":734:735   */\n  dup1\n    /* \"--CODEGEN--\":727:739   */\n  revert\n    /* \"--CODEGEN--\":691:693   */\ntag_47:\n    /* \"--CODEGEN--\":757:831   */\n  tag_48\n    /* \"--CODEGEN--\":823:830   */\n  dup6\n    /* \"--CODEGEN--\":814:820   */\n  dup3\n    /* \"--CODEGEN--\":803:812   */\n  dup7\n    /* \"--CODEGEN--\":799:821   */\n  add\n    /* \"--CODEGEN--\":757:831   */\n  jump(tag_35)\ntag_48:\n    /* \"--CODEGEN--\":747:831   */\n  swap3\n  pop\n    /* \"--CODEGEN--\":640:837   */\n  pop\n    /* \"--CODEGEN--\":889:891   */\n  0x20\n    /* \"--CODEGEN--\":878:887   */\n  dup4\n    /* \"--CODEGEN--\":874:892   */\n  add\n    /* \"--CODEGEN--\":868:893   */\n  mload\n    /* \"--CODEGEN--\":913:931   */\n  0xffffffffffffffff\n    /* \"--CODEGEN--\":905:911   */\n  dup2\n    /* \"--CODEGEN--\":902:932   */\n  gt\n    /* \"--CODEGEN--\":899:901   */\n  iszero\n  tag_49\n  jumpi\n    /* \"--CODEGEN--\":945:946   */\n  0x00\n    /* \"--CODEGEN--\":942:943   */\n  dup1\n    /* \"--CODEGEN--\":935:947   */\n  revert\n    /* \"--CODEGEN--\":899:901   */\ntag_49:\n    /* \"--CODEGEN--\":965:1039   */\n  tag_50\n    /* \"--CODEGEN--\":1031:1038   */\n  dup6\n    /* \"--CODEGEN--\":1022:1028   */\n  dup3\n    /* \"--CODEGEN--\":1011:1020   */\n  dup7\n    /* \"--CODEGEN--\":1007:1029   */\n  add\n    /* \"--CODEGEN--\":965:1039   */\n  jump(tag_35)\ntag_50:\n    /* \"--CODEGEN--\":955:1039   */\n  swap2\n  pop\n    /* \"--CODEGEN--\":847:1045   */\n  pop\n    /* \"--CODEGEN--\":572:1055   */\n  swap3\n  pop\n  swap3\n  swap1\n  pop\n  jump\n    /* \"--CODEGEN--\":1063:1391   */\ntag_51:\n  0x00\n    /* \"--CODEGEN--\":1223:1290   */\n  tag_53\n    /* \"--CODEGEN--\":1287:1289   */\n  0x1c\n    /* \"--CODEGEN--\":1282:1285   */\n  dup4\n    /* \"--CODEGEN--\":1223:1290   */\n  jump(tag_54)\ntag_53:\n    /* \"--CODEGEN--\":1216:1290   */\n  swap2\n  pop\n    /* \"--CODEGEN--\":1323:1353   */\n  0x4552433136353a20696e76616c696420696e7465726661636520696400000000\n    /* \"--CODEGEN--\":1319:1320   */\n  0x00\n    /* \"--CODEGEN--\":1314:1317   */\n  dup4\n    /* \"--CODEGEN--\":1310:1321   */\n  add\n    /* \"--CODEGEN--\":1303:1354   */\n  mstore\n    /* \"--CODEGEN--\":1382:1384   */\n  0x20\n    /* \"--CODEGEN--\":1377:1380   */\n  dup3\n    /* \"--CODEGEN--\":1373:1385   */\n  add\n    /* \"--CODEGEN--\":1366:1385   */\n  swap1\n  pop\n    /* \"--CODEGEN--\":1209:1391   */\n  swap2\n  swap1\n  pop\n  jump\n    /* \"--CODEGEN--\":1399:1806   */\ntag_24:\n  0x00\n    /* \"--CODEGEN--\":1590:1592   */\n  0x20\n    /* \"--CODEGEN--\":1579:1588   */\n  dup3\n    /* \"--CODEGEN--\":1575:1593   */\n  add\n    /* \"--CODEGEN--\":1567:1593   */\n  swap1\n  pop\n    /* \"--CODEGEN--\":1640:1649   */\n  dup2\n    /* \"--CODEGEN--\":1634:1638   */\n  dup2\n    /* \"--CODEGEN--\":1630:1650   */\n  sub\n    /* \"--CODEGEN--\":1626:1627   */\n  0x00\n    /* \"--CODEGEN--\":1615:1624   */\n  dup4\n    /* \"--CODEGEN--\":1611:1628   */\n  add\n    /* \"--CODEGEN--\":1604:1651   */\n  mstore\n    /* \"--CODEGEN--\":1665:1796   */\n  tag_56\n    /* \"--CODEGEN--\":1791:1795   */\n  dup2\n    /* \"--CODEGEN--\":1665:1796   */\n  jump(tag_51)\ntag_56:\n    /* \"--CODEGEN--\":1657:1796   */\n  swap1\n  pop\n    /* \"--CODEGEN--\":1561:1806   */\n  swap2\n  swap1\n  pop\n  jump\n    /* \"--CODEGEN--\":1813:2069   */\ntag_41:\n  0x00\n    /* \"--CODEGEN--\":1875:1877   */\n  0x40\n    /* \"--CODEGEN--\":1869:1878   */\n  mload\n    /* \"--CODEGEN--\":1859:1878   */\n  swap1\n  pop\n    /* \"--CODEGEN--\":1913:1917   */\n  dup2\n    /* \"--CODEGEN--\":1905:1911   */\n  dup2\n    /* \"--CODEGEN--\":1901:1918   */\n  add\n    /* \"--CODEGEN--\":2012:2018   */\n  dup2\n    /* \"--CODEGEN--\":2000:2010   */\n  dup2\n    /* \"--CODEGEN--\":1997:2019   */\n  lt\n    /* \"--CODEGEN--\":1976:1994   */\n  0xffffffffffffffff\n    /* \"--CODEGEN--\":1964:1974   */\n  dup3\n    /* \"--CODEGEN--\":1961:1995   */\n  gt\n    /* \"--CODEGEN--\":1958:2020   */\n  or\n    /* \"--CODEGEN--\":1955:1957   */\n  iszero\n  tag_58\n  jumpi\n    /* \"--CODEGEN--\":2033:2034   */\n  0x00\n    /* \"--CODEGEN--\":2030:2031   */\n  dup1\n    /* \"--CODEGEN--\":2023:2035   */\n  revert\n    /* \"--CODEGEN--\":1955:1957   */\ntag_58:\n    /* \"--CODEGEN--\":2053:2063   */\n  dup1\n    /* \"--CODEGEN--\":2049:2051   */\n  0x40\n    /* \"--CODEGEN--\":2042:2064   */\n  mstore\n    /* \"--CODEGEN--\":1853:2069   */\n  pop\n  swap2\n  swap1\n  pop\n  jump\n    /* \"--CODEGEN--\":2076:2398   */\ntag_40:\n  0x00\n    /* \"--CODEGEN--\":2220:2238   */\n  0xffffffffffffffff\n    /* \"--CODEGEN--\":2212:2218   */\n  dup3\n    /* \"--CODEGEN--\":2209:2239   */\n  gt\n    /* \"--CODEGEN--\":2206:2208   */\n  iszero\n  tag_60\n  jumpi\n    /* \"--CODEGEN--\":2252:2253   */\n  0x00\n    /* \"--CODEGEN--\":2249:2250   */\n  dup1\n    /* \"--CODEGEN--\":2242:2254   */\n  revert\n    /* \"--CODEGEN--\":2206:2208   */\ntag_60:\n    /* \"--CODEGEN--\":2319:2323   */\n  0x1f\n    /* \"--CODEGEN--\":2315:2324   */\n  not\n    /* \"--CODEGEN--\":2308:2312   */\n  0x1f\n    /* \"--CODEGEN--\":2300:2306   */\n  dup4\n    /* \"--CODEGEN--\":2296:2313   */\n  add\n    /* \"--CODEGEN--\":2292:2325   */\n  and\n    /* \"--CODEGEN--\":2284:2325   */\n  swap1\n  pop\n    /* \"--CODEGEN--\":2383:2387   */\n  0x20\n    /* \"--CODEGEN--\":2377:2381   */\n  dup2\n    /* \"--CODEGEN--\":2373:2388   */\n  add\n    /* \"--CODEGEN--\":2365:2388   */\n  swap1\n  pop\n    /* \"--CODEGEN--\":2143:2398   */\n  swap2\n  swap1\n  pop\n  jump\n    /* \"--CODEGEN--\":2406:2569   */\ntag_54:\n  0x00\n    /* \"--CODEGEN--\":2521:2527   */\n  dup3\n    /* \"--CODEGEN--\":2516:2519   */\n  dup3\n    /* \"--CODEGEN--\":2509:2528   */\n  mstore\n    /* \"--CODEGEN--\":2558:2562   */\n  0x20\n    /* \"--CODEGEN--\":2553:2556   */\n  dup3\n    /* \"--CODEGEN--\":2549:2563   */\n  add\n    /* \"--CODEGEN--\":2534:2563   */\n  swap1\n  pop\n    /* \"--CODEGEN--\":2502:2569   */\n  swap3\n  swap2\n  pop\n  pop\n  jump\n    /* \"--CODEGEN--\":2578:2846   */\ntag_44:\n    /* \"--CODEGEN--\":2643:2644   */\n  0x00\n    /* \"--CODEGEN--\":2650:2751   */\ntag_63:\n    /* \"--CODEGEN--\":2664:2670   */\n  dup4\n    /* \"--CODEGEN--\":2661:2662   */\n  dup2\n    /* \"--CODEGEN--\":2658:2671   */\n  lt\n    /* \"--CODEGEN--\":2650:2751   */\n  iszero\n  tag_65\n  jumpi\n    /* \"--CODEGEN--\":2740:2741   */\n  dup1\n    /* \"--CODEGEN--\":2735:2738   */\n  dup3\n    /* \"--CODEGEN--\":2731:2742   */\n  add\n    /* \"--CODEGEN--\":2725:2743   */\n  mload\n    /* \"--CODEGEN--\":2721:2722   */\n  dup2\n    /* \"--CODEGEN--\":2716:2719   */\n  dup5\n    /* \"--CODEGEN--\":2712:2723   */\n  add\n    /* \"--CODEGEN--\":2705:2744   */\n  mstore\n    /* \"--CODEGEN--\":2686:2688   */\n  0x20\n    /* \"--CODEGEN--\":2683:2684   */\n  dup2\n    /* \"--CODEGEN--\":2679:2689   */\n  add\n    /* \"--CODEGEN--\":2674:2689   */\n  swap1\n  pop\n    /* \"--CODEGEN--\":2650:2751   */\n  jump(tag_63)\ntag_65:\n    /* \"--CODEGEN--\":2766:2772   */\n  dup4\n    /* \"--CODEGEN--\":2763:2764   */\n  dup2\n    /* \"--CODEGEN--\":2760:2773   */\n  gt\n    /* \"--CODEGEN--\":2757:2759   */\n  iszero\n  tag_66\n  jumpi\n    /* \"--CODEGEN--\":2831:2832   */\n  0x00\n    /* \"--CODEGEN--\":2822:2828   */\n  dup5\n    /* \"--CODEGEN--\":2817:2820   */\n  dup5\n    /* \"--CODEGEN--\":2813:2829   */\n  add\n    /* \"--CODEGEN--\":2806:2833   */\n  mstore\n    /* \"--CODEGEN--\":2757:2759   */\ntag_66:\n    /* \"--CODEGEN--\":2627:2846   */\n  pop\n  pop\n  pop\n  pop\n  jump\n    /* \"contracts/MonkeyNft.sol\":278:580  contract WrappedRar is ERC721, ERC721Burnable {... */\ntag_20:\n  dataSize(sub_0)\n  dup1\n  dataOffset(sub_0)\n  0x00\n  codecopy\n  0x00\n  return\nstop\n\nsub_0: assembly {\n        /* \"contracts/MonkeyNft.sol\":278:580  contract WrappedRar is ERC721, ERC721Burnable {... */\n      mstore(0x40, 0x80)\n      callvalue\n        /* \"--CODEGEN--\":5:14   */\n      dup1\n        /* \"--CODEGEN--\":2:4   */\n      iszero\n      tag_1\n      jumpi\n        /* \"--CODEGEN--\":27:28   */\n      0x00\n        /* \"--CODEGEN--\":24:25   */\n      dup1\n        /* \"--CODEGEN--\":17:29   */\n      revert\n        /* \"--CODEGEN--\":2:4   */\n    tag_1:\n        /* \"contracts/MonkeyNft.sol\":278:580  contract WrappedRar is ERC721, ERC721Burnable {... */\n      pop\n      jumpi(tag_2, lt(calldatasize, 0x04))\n      shr(0xe0, calldataload(0x00))\n      dup1\n      0x4f6ccce7\n      gt\n      tag_22\n      jumpi\n      dup1\n      0xa22cb465\n      gt\n      tag_23\n      jumpi\n      dup1\n      0xa22cb465\n      eq\n      tag_17\n      jumpi\n      dup1\n      0xb88d4fde\n      eq\n      tag_18\n      jumpi\n      dup1\n      0xc87b56dd\n      eq\n      tag_19\n      jumpi\n      dup1\n      0xd3fc9864\n      eq\n      tag_20\n      jumpi\n      dup1\n      0xe985e9c5\n      eq\n      tag_21\n      jumpi\n      jump(tag_2)\n    tag_23:\n      dup1\n      0x4f6ccce7\n      eq\n      tag_12\n      jumpi\n      dup1\n      0x6352211e\n      eq\n      tag_13\n      jumpi\n      dup1\n      0x6c0360eb\n      eq\n      tag_14\n      jumpi\n      dup1\n      0x70a08231\n      eq\n      tag_15\n      jumpi\n      dup1\n      0x95d89b41\n      eq\n      tag_16\n      jumpi\n      jump(tag_2)\n    tag_22:\n      dup1\n      0x18160ddd\n      gt\n      tag_24\n      jumpi\n      dup1\n      0x18160ddd\n      eq\n      tag_7\n      jumpi\n      dup1\n      0x23b872dd\n      eq\n      tag_8\n      jumpi\n      dup1\n      0x2f745c59\n      eq\n      tag_9\n      jumpi\n      dup1\n      0x42842e0e\n      eq\n      tag_10\n      jumpi\n      dup1\n      0x42966c68\n      eq\n      tag_11\n      jumpi\n      jump(tag_2)\n    tag_24:\n      dup1\n      0x01ffc9a7\n      eq\n      tag_3\n      jumpi\n      dup1\n      0x06fdde03\n      eq\n      tag_4\n      jumpi\n      dup1\n      0x081812fc\n      eq\n      tag_5\n      jumpi\n      dup1\n      0x095ea7b3\n      eq\n      tag_6\n      jumpi\n    tag_2:\n        /* \"--CODEGEN--\":12:13   */\n      0x00\n        /* \"--CODEGEN--\":9:10   */\n      dup1\n        /* \"--CODEGEN--\":2:14   */\n      revert\n        /* \"contracts/introspection/ERC165.sol\":915:1055  function supportsInterface(bytes4 interfaceId) public view override returns (bool) {... */\n    tag_3:\n      tag_25\n      0x04\n      dup1\n      calldatasize\n      sub\n      dup2\n      add\n      swap1\n      tag_26\n      swap2\n      swap1\n      jump(tag_27)\n    tag_26:\n      tag_28\n      jump\t// in\n    tag_25:\n      mload(0x40)\n      tag_29\n      swap2\n      swap1\n      jump(tag_30)\n    tag_29:\n      mload(0x40)\n      dup1\n      swap2\n      sub\n      swap1\n      return\n        /* \"contracts/token/ERC721/ERC721.sol\":4690:4780  function name() public view override returns (string memory) {... */\n    tag_4:\n      tag_31\n      tag_32\n      jump\t// in\n    tag_31:\n      mload(0x40)\n      tag_33\n      swap2\n      swap1\n      jump(tag_34)\n    tag_33:\n      mload(0x40)\n      dup1\n      swap2\n      sub\n      swap1\n      return\n        /* \"contracts/token/ERC721/ERC721.sol\":9350:9559  function getApproved(uint256 tokenId) public view override returns (address) {... */\n    tag_5:\n      tag_35\n      0x04\n      dup1\n      calldatasize\n      sub\n      dup2\n      add\n      swap1\n      tag_36\n      swap2\n      swap1\n      jump(tag_37)\n    tag_36:\n      tag_38\n      jump\t// in\n    tag_35:\n      mload(0x40)\n      tag_39\n      swap2\n      swap1\n      jump(tag_40)\n    tag_39:\n      mload(0x40)\n      dup1\n      swap2\n      sub\n      swap1\n      return\n        /* \"contracts/token/ERC721/ERC721.sol\":8684:9065  function approve(address to, uint256 tokenId) public virtual override {... */\n    tag_6:\n      tag_41\n      0x04\n      dup1\n      calldatasize\n      sub\n      dup2\n      add\n      swap1\n      tag_42\n      swap2\n      swap1\n      jump(tag_43)\n    tag_42:\n      tag_44\n      jump\t// in\n    tag_41:\n      stop\n        /* \"contracts/token/ERC721/ERC721.sol\":7564:7764  function totalSupply() public view override returns (uint256) {... */\n    tag_7:\n      tag_45\n      tag_46\n      jump\t// in\n    tag_45:\n      mload(0x40)\n      tag_47\n      swap2\n      swap1\n      jump(tag_48)\n    tag_47:\n      mload(0x40)\n      dup1\n      swap2\n      sub\n      swap1\n      return\n        /* \"contracts/token/ERC721/ERC721.sol\":11061:11361  function transferFrom(address from, address to, uint256 tokenId) public virtual override {... */\n    tag_8:\n      tag_49\n      0x04\n      dup1\n      calldatasize\n      sub\n      dup2\n      add\n      swap1\n      tag_50\n      swap2\n      swap1\n      jump(tag_51)\n    tag_50:\n      tag_52\n      jump\t// in\n    tag_49:\n      stop\n        /* \"contracts/token/ERC721/ERC721.sol\":7259:7411  function tokenOfOwnerByIndex(address owner, uint256 index) public view override returns (uint256) {... */\n    tag_9:\n      tag_53\n      0x04\n      dup1\n      calldatasize\n      sub\n      dup2\n      add\n      swap1\n      tag_54\n      swap2\n      swap1\n      jump(tag_43)\n    tag_54:\n      tag_55\n      jump\t// in\n    tag_53:\n      mload(0x40)\n      tag_56\n      swap2\n      swap1\n      jump(tag_48)\n    tag_56:\n      mload(0x40)\n      dup1\n      swap2\n      sub\n      swap1\n      return\n        /* \"contracts/token/ERC721/ERC721.sol\":12010:12159  function safeTransferFrom(address from, address to, uint256 tokenId) public virtual override {... */\n    tag_10:\n      tag_57\n      0x04\n      dup1\n      calldatasize\n      sub\n      dup2\n      add\n      swap1\n      tag_58\n      swap2\n      swap1\n      jump(tag_51)\n    tag_58:\n      tag_59\n      jump\t// in\n    tag_57:\n      stop\n        /* \"contracts/token/ERC721/ERC721Burnable.sol\":371:612  function burn(uint256 tokenId) public virtual {... */\n    tag_11:\n      tag_60\n      0x04\n      dup1\n      calldatasize\n      sub\n      dup2\n      add\n      swap1\n      tag_61\n      swap2\n      swap1\n      jump(tag_37)\n    tag_61:\n      tag_62\n      jump\t// in\n    tag_60:\n      stop\n        /* \"contracts/token/ERC721/ERC721.sol\":8102:8263  function tokenByIndex(uint256 index) public view override returns (uint256) {... */\n    tag_12:\n      tag_63\n      0x04\n      dup1\n      calldatasize\n      sub\n      dup2\n      add\n      swap1\n      tag_64\n      swap2\n      swap1\n      jump(tag_37)\n    tag_64:\n      tag_65\n      jump\t// in\n    tag_63:\n      mload(0x40)\n      tag_66\n      swap2\n      swap1\n      jump(tag_48)\n    tag_66:\n      mload(0x40)\n      dup1\n      swap2\n      sub\n      swap1\n      return\n        /* \"contracts/token/ERC721/ERC721.sol\":4418:4585  function ownerOf(uint256 tokenId) public view override returns (address) {... */\n    tag_13:\n      tag_67\n      0x04\n      dup1\n      calldatasize\n      sub\n      dup2\n      add\n      swap1\n      tag_68\n      swap2\n      swap1\n      jump(tag_37)\n    tag_68:\n      tag_69\n      jump\t// in\n    tag_67:\n      mload(0x40)\n      tag_70\n      swap2\n      swap1\n      jump(tag_40)\n    tag_70:\n      mload(0x40)\n      dup1\n      swap2\n      sub\n      swap1\n      return\n        /* \"contracts/token/ERC721/ERC721.sol\":6798:6885  function baseURI() public view returns (string memory) {... */\n    tag_14:\n      tag_71\n      tag_72\n      jump\t// in\n    tag_71:\n      mload(0x40)\n      tag_73\n      swap2\n      swap1\n      jump(tag_34)\n    tag_73:\n      mload(0x40)\n      dup1\n      swap2\n      sub\n      swap1\n      return\n        /* \"contracts/token/ERC721/ERC721.sol\":3988:4199  function balanceOf(address owner) public view override returns (uint256) {... */\n    tag_15:\n      tag_74\n      0x04\n      dup1\n      calldatasize\n      sub\n      dup2\n      add\n      swap1\n      tag_75\n      swap2\n      swap1\n      jump(tag_76)\n    tag_75:\n      tag_77\n      jump\t// in\n    tag_74:\n      mload(0x40)\n      tag_78\n      swap2\n      swap1\n      jump(tag_48)\n    tag_78:\n      mload(0x40)\n      dup1\n      swap2\n      sub\n      swap1\n      return\n        /* \"contracts/token/ERC721/ERC721.sol\":4889:4983  function symbol() public view override returns (string memory) {... */\n    tag_16:\n      tag_79\n      tag_80\n      jump\t// in\n    tag_79:\n      mload(0x40)\n      tag_81\n      swap2\n      swap1\n      jump(tag_34)\n    tag_81:\n      mload(0x40)\n      dup1\n      swap2\n      sub\n      swap1\n      return\n        /* \"contracts/token/ERC721/ERC721.sol\":9858:10148  function setApprovalForAll(address operator, bool approved) public virtual override {... */\n    tag_17:\n      tag_82\n      0x04\n      dup1\n      calldatasize\n      sub\n      dup2\n      add\n      swap1\n      tag_83\n      swap2\n      swap1\n      jump(tag_84)\n    tag_83:\n      tag_85\n      jump\t// in\n    tag_82:\n      stop\n        /* \"contracts/token/ERC721/ERC721.sol\":12882:13164  function safeTransferFrom(address from, address to, uint256 tokenId, bytes memory _data) public virtual override {... */\n    tag_18:\n      tag_86\n      0x04\n      dup1\n      calldatasize\n      sub\n      dup2\n      add\n      swap1\n      tag_87\n      swap2\n      swap1\n      jump(tag_88)\n    tag_87:\n      tag_89\n      jump\t// in\n    tag_86:\n      stop\n        /* \"contracts/token/ERC721/ERC721.sol\":5826:6566  function tokenURI(uint256 tokenId) public view override returns (string memory) {... */\n    tag_19:\n      tag_90\n      0x04\n      dup1\n      calldatasize\n      sub\n      dup2\n      add\n      swap1\n      tag_91\n      swap2\n      swap1\n      jump(tag_37)\n    tag_91:\n      tag_92\n      jump\t// in\n    tag_90:\n      mload(0x40)\n      tag_93\n      swap2\n      swap1\n      jump(tag_34)\n    tag_93:\n      mload(0x40)\n      dup1\n      swap2\n      sub\n      swap1\n      return\n        /* \"contracts/MonkeyNft.sol\":425:578  function mint(address to, uint256 tokenId, string memory _tokenURI) public  {... */\n    tag_20:\n      tag_94\n      0x04\n      dup1\n      calldatasize\n      sub\n      dup2\n      add\n      swap1\n      tag_95\n      swap2\n      swap1\n      jump(tag_96)\n    tag_95:\n      tag_97\n      jump\t// in\n    tag_94:\n      stop\n        /* \"contracts/token/ERC721/ERC721.sol\":10470:10624  function isApprovedForAll(address owner, address operator) public view override returns (bool) {... */\n    tag_21:\n      tag_98\n      0x04\n      dup1\n      calldatasize\n      sub\n      dup2\n      add\n      swap1\n      tag_99\n      swap2\n      swap1\n      jump(tag_100)\n    tag_99:\n      tag_101\n      jump\t// in\n    tag_98:\n      mload(0x40)\n      tag_102\n      swap2\n      swap1\n      jump(tag_30)\n    tag_102:\n      mload(0x40)\n      dup1\n      swap2\n      sub\n      swap1\n      return\n        /* \"contracts/introspection/ERC165.sol\":915:1055  function supportsInterface(bytes4 interfaceId) public view override returns (bool) {... */\n    tag_28:\n        /* \"contracts/introspection/ERC165.sol\":992:996  bool */\n      0x00\n        /* \"contracts/introspection/ERC165.sol\":1015:1035  _supportedInterfaces */\n      dup1\n        /* \"contracts/introspection/ERC165.sol\":1015:1048  _supportedInterfaces[interfaceId] */\n      0x00\n        /* \"contracts/introspection/ERC165.sol\":1036:1047  interfaceId */\n      dup4\n        /* \"contracts/introspection/ERC165.sol\":1015:1048  _supportedInterfaces[interfaceId] */\n      not(0xffffffffffffffffffffffffffffffffffffffffffffffffffffffff)\n      and\n      not(0xffffffffffffffffffffffffffffffffffffffffffffffffffffffff)\n      and\n      dup2\n      mstore\n      0x20\n      add\n      swap1\n      dup2\n      mstore\n      0x20\n      add\n      0x00\n      keccak256\n      0x00\n      swap1\n      sload\n      swap1\n      0x0100\n      exp\n      swap1\n      div\n      0xff\n      and\n        /* \"contracts/introspection/ERC165.sol\":1008:1048  return _supportedInterfaces[interfaceId] */\n      swap1\n      pop\n        /* \"contracts/introspection/ERC165.sol\":915:1055  function supportsInterface(bytes4 interfaceId) public view override returns (bool) {... */\n      swap2\n      swap1\n      pop\n      jump\t// out\n        /* \"contracts/token/ERC721/ERC721.sol\":4690:4780  function name() public view override returns (string memory) {... */\n    tag_32:\n        /* \"contracts/token/ERC721/ERC721.sol\":4736:4749  string memory */\n      0x60\n        /* \"contracts/token/ERC721/ERC721.sol\":4768:4773  _name */\n      0x06\n        /* \"contracts/token/ERC721/ERC721.sol\":4761:4773  return _name */\n      dup1\n      sload\n      0x01\n      dup2\n      0x01\n      and\n      iszero\n      0x0100\n      mul\n      sub\n      and\n      0x02\n      swap1\n      div\n      dup1\n      0x1f\n      add\n      0x20\n      dup1\n      swap2\n      div\n      mul\n      0x20\n      add\n      mload(0x40)\n      swap1\n      dup2\n      add\n      0x40\n      mstore\n      dup1\n      swap3\n      swap2\n      swap1\n      dup2\n      dup2\n      mstore\n      0x20\n      add\n      dup3\n      dup1\n      sload\n      0x01\n      dup2\n      0x01\n      and\n      iszero\n      0x0100\n      mul\n      sub\n      and\n      0x02\n      swap1\n      div\n      dup1\n      iszero\n      tag_105\n      jumpi\n      dup1\n      0x1f\n      lt\n      tag_106\n      jumpi\n      0x0100\n      dup1\n      dup4\n      sload\n      div\n      mul\n      dup4\n      mstore\n      swap2\n      0x20\n      add\n      swap2\n      jump(tag_105)\n    tag_106:\n      dup3\n      add\n      swap2\n      swap1\n      0x00\n      mstore\n      keccak256(0x00, 0x20)\n      swap1\n    tag_107:\n      dup2\n      sload\n      dup2\n      mstore\n      swap1\n      0x01\n      add\n      swap1\n      0x20\n      add\n      dup1\n      dup4\n      gt\n      tag_107\n      jumpi\n      dup3\n      swap1\n      sub\n      0x1f\n      and\n      dup3\n      add\n      swap2\n    tag_105:\n      pop\n      pop\n      pop\n      pop\n      pop\n      swap1\n      pop\n        /* \"contracts/token/ERC721/ERC721.sol\":4690:4780  function name() public view override returns (string memory) {... */\n      swap1\n      jump\t// out\n        /* \"contracts/token/ERC721/ERC721.sol\":9350:9559  function getApproved(uint256 tokenId) public view override returns (address) {... */\n    tag_38:\n        /* \"contracts/token/ERC721/ERC721.sol\":9418:9425  address */\n      0x00\n        /* \"contracts/token/ERC721/ERC721.sol\":9445:9461  _exists(tokenId) */\n      tag_109\n        /* \"contracts/token/ERC721/ERC721.sol\":9453:9460  tokenId */\n      dup3\n        /* \"contracts/token/ERC721/ERC721.sol\":9445:9452  _exists */\n      tag_110\n        /* \"contracts/token/ERC721/ERC721.sol\":9445:9461  _exists(tokenId) */\n      jump\t// in\n    tag_109:\n        /* \"contracts/token/ERC721/ERC721.sol\":9437:9510  require(_exists(tokenId), \"ERC721: approved query for nonexistent token\") */\n      tag_111\n      jumpi\n      mload(0x40)\n      0x08c379a000000000000000000000000000000000000000000000000000000000\n      dup2\n      mstore\n      0x04\n      add\n      tag_112\n      swap1\n      jump(tag_113)\n    tag_112:\n      mload(0x40)\n      dup1\n      swap2\n      sub\n      swap1\n      revert\n    tag_111:\n        /* \"contracts/token/ERC721/ERC721.sol\":9528:9543  _tokenApprovals */\n      0x04\n        /* \"contracts/token/ERC721/ERC721.sol\":9528:9552  _tokenApprovals[tokenId] */\n      0x00\n        /* \"contracts/token/ERC721/ERC721.sol\":9544:9551  tokenId */\n      dup4\n        /* \"contracts/token/ERC721/ERC721.sol\":9528:9552  _tokenApprovals[tokenId] */\n      dup2\n      mstore\n      0x20\n      add\n      swap1\n      dup2\n      mstore\n      0x20\n      add\n      0x00\n      keccak256\n      0x00\n      swap1\n      sload\n      swap1\n      0x0100\n      exp\n      swap1\n      div\n      0xffffffffffffffffffffffffffffffffffffffff\n      and\n        /* \"contracts/token/ERC721/ERC721.sol\":9521:9552  return _tokenApprovals[tokenId] */\n      swap1\n      pop\n        /* \"contracts/token/ERC721/ERC721.sol\":9350:9559  function getApproved(uint256 tokenId) public view override returns (address) {... */\n      swap2\n      swap1\n      pop\n      jump\t// out\n        /* \"contracts/token/ERC721/ERC721.sol\":8684:9065  function approve(address to, uint256 tokenId) public virtual override {... */\n    tag_44:\n        /* \"contracts/token/ERC721/ERC721.sol\":8764:8777  address owner */\n      0x00\n        /* \"contracts/token/ERC721/ERC721.sol\":8780:8796  ownerOf(tokenId) */\n      tag_115\n        /* \"contracts/token/ERC721/ERC721.sol\":8788:8795  tokenId */\n      dup3\n        /* \"contracts/token/ERC721/ERC721.sol\":8780:8787  ownerOf */\n      tag_69\n        /* \"contracts/token/ERC721/ERC721.sol\":8780:8796  ownerOf(tokenId) */\n      jump\t// in\n    tag_115:\n        /* \"contracts/token/ERC721/ERC721.sol\":8764:8796  address owner = ownerOf(tokenId) */\n      swap1\n      pop\n        /* \"contracts/token/ERC721/ERC721.sol\":8820:8825  owner */\n      dup1\n        /* \"contracts/token/ERC721/ERC721.sol\":8814:8825  to != owner */\n      0xffffffffffffffffffffffffffffffffffffffff\n      and\n        /* \"contracts/token/ERC721/ERC721.sol\":8814:8816  to */\n      dup4\n        /* \"contracts/token/ERC721/ERC721.sol\":8814:8825  to != owner */\n      0xffffffffffffffffffffffffffffffffffffffff\n      and\n      eq\n      iszero\n        /* \"contracts/token/ERC721/ERC721.sol\":8806:8863  require(to != owner, \"ERC721: approval to current owner\") */\n      tag_116\n      jumpi\n      mload(0x40)\n      0x08c379a000000000000000000000000000000000000000000000000000000000\n      dup2\n      mstore\n      0x04\n      add\n      tag_117\n      swap1\n      jump(tag_118)\n    tag_117:\n      mload(0x40)\n      dup1\n      swap2\n      sub\n      swap1\n      revert\n    tag_116:\n        /* \"contracts/token/ERC721/ERC721.sol\":8898:8903  owner */\n      dup1\n        /* \"contracts/token/ERC721/ERC721.sol\":8882:8903  _msgSender() == owner */\n      0xffffffffffffffffffffffffffffffffffffffff\n      and\n        /* \"contracts/token/ERC721/ERC721.sol\":8882:8894  _msgSender() */\n      tag_119\n        /* \"contracts/token/ERC721/ERC721.sol\":8882:8892  _msgSender */\n      tag_120\n        /* \"contracts/token/ERC721/ERC721.sol\":8882:8894  _msgSender() */\n      jump\t// in\n    tag_119:\n        /* \"contracts/token/ERC721/ERC721.sol\":8882:8903  _msgSender() == owner */\n      0xffffffffffffffffffffffffffffffffffffffff\n      and\n      eq\n        /* \"contracts/token/ERC721/ERC721.sol\":8882:8944  _msgSender() == owner || isApprovedForAll(owner, _msgSender()) */\n      dup1\n      tag_121\n      jumpi\n      pop\n        /* \"contracts/token/ERC721/ERC721.sol\":8907:8944  isApprovedForAll(owner, _msgSender()) */\n      tag_122\n        /* \"contracts/token/ERC721/ERC721.sol\":8924:8929  owner */\n      dup2\n        /* \"contracts/token/ERC721/ERC721.sol\":8931:8943  _msgSender() */\n      tag_123\n        /* \"contracts/token/ERC721/ERC721.sol\":8931:8941  _msgSender */\n      tag_120\n        /* \"contracts/token/ERC721/ERC721.sol\":8931:8943  _msgSender() */\n      jump\t// in\n    tag_123:\n        /* \"contracts/token/ERC721/ERC721.sol\":8907:8923  isApprovedForAll */\n      tag_101\n        /* \"contracts/token/ERC721/ERC721.sol\":8907:8944  isApprovedForAll(owner, _msgSender()) */\n      jump\t// in\n    tag_122:\n        /* \"contracts/token/ERC721/ERC721.sol\":8882:8944  _msgSender() == owner || isApprovedForAll(owner, _msgSender()) */\n    tag_121:\n        /* \"contracts/token/ERC721/ERC721.sol\":8874:9026  require(_msgSender() == owner || isApprovedForAll(owner, _msgSender()),... */\n      tag_124\n      jumpi\n      mload(0x40)\n      0x08c379a000000000000000000000000000000000000000000000000000000000\n      dup2\n      mstore\n      0x04\n      add\n      tag_125\n      swap1\n      jump(tag_126)\n    tag_125:\n      mload(0x40)\n      dup1\n      swap2\n      sub\n      swap1\n      revert\n    tag_124:\n        /* \"contracts/token/ERC721/ERC721.sol\":9037:9058  _approve(to, tokenId) */\n      tag_127\n        /* \"contracts/token/ERC721/ERC721.sol\":9046:9048  to */\n      dup4\n        /* \"contracts/token/ERC721/ERC721.sol\":9050:9057  tokenId */\n      dup4\n        /* \"contracts/token/ERC721/ERC721.sol\":9037:9045  _approve */\n      tag_128\n        /* \"contracts/token/ERC721/ERC721.sol\":9037:9058  _approve(to, tokenId) */\n      jump\t// in\n    tag_127:\n        /* \"contracts/token/ERC721/ERC721.sol\":8684:9065  function approve(address to, uint256 tokenId) public virtual override {... */\n      pop\n      pop\n      pop\n      jump\t// out\n        /* \"contracts/token/ERC721/ERC721.sol\":7564:7764  function totalSupply() public view override returns (uint256) {... */\n    tag_46:\n        /* \"contracts/token/ERC721/ERC721.sol\":7617:7624  uint256 */\n      0x00\n        /* \"contracts/token/ERC721/ERC721.sol\":7736:7757  _tokenOwners.length() */\n      tag_130\n        /* \"contracts/token/ERC721/ERC721.sol\":7736:7748  _tokenOwners */\n      0x02\n        /* \"contracts/token/ERC721/ERC721.sol\":7736:7755  _tokenOwners.length */\n      tag_131\n        /* \"contracts/token/ERC721/ERC721.sol\":7736:7757  _tokenOwners.length() */\n      jump\t// in\n    tag_130:\n        /* \"contracts/token/ERC721/ERC721.sol\":7729:7757  return _tokenOwners.length() */\n      swap1\n      pop\n        /* \"contracts/token/ERC721/ERC721.sol\":7564:7764  function totalSupply() public view override returns (uint256) {... */\n      swap1\n      jump\t// out\n        /* \"contracts/token/ERC721/ERC721.sol\":11061:11361  function transferFrom(address from, address to, uint256 tokenId) public virtual override {... */\n    tag_52:\n        /* \"contracts/token/ERC721/ERC721.sol\":11220:11261  _isApprovedOrOwner(_msgSender(), tokenId) */\n      tag_133\n        /* \"contracts/token/ERC721/ERC721.sol\":11239:11251  _msgSender() */\n      tag_134\n        /* \"contracts/token/ERC721/ERC721.sol\":11239:11249  _msgSender */\n      tag_120\n        /* \"contracts/token/ERC721/ERC721.sol\":11239:11251  _msgSender() */\n      jump\t// in\n    tag_134:\n        /* \"contracts/token/ERC721/ERC721.sol\":11253:11260  tokenId */\n      dup3\n        /* \"contracts/token/ERC721/ERC721.sol\":11220:11238  _isApprovedOrOwner */\n      tag_135\n        /* \"contracts/token/ERC721/ERC721.sol\":11220:11261  _isApprovedOrOwner(_msgSender(), tokenId) */\n      jump\t// in\n    tag_133:\n        /* \"contracts/token/ERC721/ERC721.sol\":11212:11315  require(_isApprovedOrOwner(_msgSender(), tokenId), \"ERC721: transfer caller is not owner nor approved\") */\n      tag_136\n      jumpi\n      mload(0x40)\n      0x08c379a000000000000000000000000000000000000000000000000000000000\n      dup2\n      mstore\n      0x04\n      add\n      tag_137\n      swap1\n      jump(tag_138)\n    tag_137:\n      mload(0x40)\n      dup1\n      swap2\n      sub\n      swap1\n      revert\n    tag_136:\n        /* \"contracts/token/ERC721/ERC721.sol\":11326:11354  _transfer(from, to, tokenId) */\n      tag_139\n        /* \"contracts/token/ERC721/ERC721.sol\":11336:11340  from */\n      dup4\n        /* \"contracts/token/ERC721/ERC721.sol\":11342:11344  to */\n      dup4\n        /* \"contracts/token/ERC721/ERC721.sol\":11346:11353  tokenId */\n      dup4\n        /* \"contracts/token/ERC721/ERC721.sol\":11326:11335  _transfer */\n      tag_140\n        /* \"contracts/token/ERC721/ERC721.sol\":11326:11354  _transfer(from, to, tokenId) */\n      jump\t// in\n    tag_139:\n        /* \"contracts/token/ERC721/ERC721.sol\":11061:11361  function transferFrom(address from, address to, uint256 tokenId) public virtual override {... */\n      pop\n      pop\n      pop\n      jump\t// out\n        /* \"contracts/token/ERC721/ERC721.sol\":7259:7411  function tokenOfOwnerByIndex(address owner, uint256 index) public view override returns (uint256) {... */\n    tag_55:\n        /* \"contracts/token/ERC721/ERC721.sol\":7348:7355  uint256 */\n      0x00\n        /* \"contracts/token/ERC721/ERC721.sol\":7374:7404  _holderTokens[owner].at(index) */\n      tag_142\n        /* \"contracts/token/ERC721/ERC721.sol\":7398:7403  index */\n      dup3\n        /* \"contracts/token/ERC721/ERC721.sol\":7374:7387  _holderTokens */\n      0x01\n        /* \"contracts/token/ERC721/ERC721.sol\":7374:7394  _holderTokens[owner] */\n      0x00\n        /* \"contracts/token/ERC721/ERC721.sol\":7388:7393  owner */\n      dup7\n        /* \"contracts/token/ERC721/ERC721.sol\":7374:7394  _holderTokens[owner] */\n      0xffffffffffffffffffffffffffffffffffffffff\n      and\n      0xffffffffffffffffffffffffffffffffffffffff\n      and\n      dup2\n      mstore\n      0x20\n      add\n      swap1\n      dup2\n      mstore\n      0x20\n      add\n      0x00\n      keccak256\n        /* \"contracts/token/ERC721/ERC721.sol\":7374:7397  _holderTokens[owner].at */\n      tag_143\n      swap1\n        /* \"contracts/token/ERC721/ERC721.sol\":7374:7404  _holderTokens[owner].at(index) */\n      swap2\n      swap1\n      0xffffffff\n      and\n      jump\t// in\n    tag_142:\n        /* \"contracts/token/ERC721/ERC721.sol\":7367:7404  return _holderTokens[owner].at(index) */\n      swap1\n      pop\n        /* \"contracts/token/ERC721/ERC721.sol\":7259:7411  function tokenOfOwnerByIndex(address owner, uint256 index) public view override returns (uint256) {... */\n      swap3\n      swap2\n      pop\n      pop\n      jump\t// out\n        /* \"contracts/token/ERC721/ERC721.sol\":12010:12159  function safeTransferFrom(address from, address to, uint256 tokenId) public virtual override {... */\n    tag_59:\n        /* \"contracts/token/ERC721/ERC721.sol\":12113:12152  safeTransferFrom(from, to, tokenId, \"\") */\n      tag_145\n        /* \"contracts/token/ERC721/ERC721.sol\":12130:12134  from */\n      dup4\n        /* \"contracts/token/ERC721/ERC721.sol\":12136:12138  to */\n      dup4\n        /* \"contracts/token/ERC721/ERC721.sol\":12140:12147  tokenId */\n      dup4\n        /* \"contracts/token/ERC721/ERC721.sol\":12113:12152  safeTransferFrom(from, to, tokenId, \"\") */\n      mload(0x40)\n      dup1\n      0x20\n      add\n      0x40\n      mstore\n      dup1\n      0x00\n      dup2\n      mstore\n      pop\n        /* \"contracts/token/ERC721/ERC721.sol\":12113:12129  safeTransferFrom */\n      tag_89\n        /* \"contracts/token/ERC721/ERC721.sol\":12113:12152  safeTransferFrom(from, to, tokenId, \"\") */\n      jump\t// in\n    tag_145:\n        /* \"contracts/token/ERC721/ERC721.sol\":12010:12159  function safeTransferFrom(address from, address to, uint256 tokenId) public virtual override {... */\n      pop\n      pop\n      pop\n      jump\t// out\n        /* \"contracts/token/ERC721/ERC721Burnable.sol\":371:612  function burn(uint256 tokenId) public virtual {... */\n    tag_62:\n        /* \"contracts/token/ERC721/ERC721Burnable.sol\":487:528  _isApprovedOrOwner(_msgSender(), tokenId) */\n      tag_147\n        /* \"contracts/token/ERC721/ERC721Burnable.sol\":506:518  _msgSender() */\n      tag_148\n        /* \"contracts/token/ERC721/ERC721Burnable.sol\":506:516  _msgSender */\n      tag_120\n        /* \"contracts/token/ERC721/ERC721Burnable.sol\":506:518  _msgSender() */\n      jump\t// in\n    tag_148:\n        /* \"contracts/token/ERC721/ERC721Burnable.sol\":520:527  tokenId */\n      dup3\n        /* \"contracts/token/ERC721/ERC721Burnable.sol\":487:505  _isApprovedOrOwner */\n      tag_135\n        /* \"contracts/token/ERC721/ERC721Burnable.sol\":487:528  _isApprovedOrOwner(_msgSender(), tokenId) */\n      jump\t// in\n    tag_147:\n        /* \"contracts/token/ERC721/ERC721Burnable.sol\":479:581  require(_isApprovedOrOwner(_msgSender(), tokenId), \"ERC721Burnable: caller is not owner nor approved\") */\n      tag_149\n      jumpi\n      mload(0x40)\n      0x08c379a000000000000000000000000000000000000000000000000000000000\n      dup2\n      mstore\n      0x04\n      add\n      tag_150\n      swap1\n      jump(tag_151)\n    tag_150:\n      mload(0x40)\n      dup1\n      swap2\n      sub\n      swap1\n      revert\n    tag_149:\n        /* \"contracts/token/ERC721/ERC721Burnable.sol\":591:605  _burn(tokenId) */\n      tag_152\n        /* \"contracts/token/ERC721/ERC721Burnable.sol\":597:604  tokenId */\n      dup2\n        /* \"contracts/token/ERC721/ERC721Burnable.sol\":591:596  _burn */\n      tag_153\n        /* \"contracts/token/ERC721/ERC721Burnable.sol\":591:605  _burn(tokenId) */\n      jump\t// in\n    tag_152:\n        /* \"contracts/token/ERC721/ERC721Burnable.sol\":371:612  function burn(uint256 tokenId) public virtual {... */\n      pop\n      jump\t// out\n        /* \"contracts/token/ERC721/ERC721.sol\":8102:8263  function tokenByIndex(uint256 index) public view override returns (uint256) {... */\n    tag_65:\n        /* \"contracts/token/ERC721/ERC721.sol\":8169:8176  uint256 */\n      0x00\n        /* \"contracts/token/ERC721/ERC721.sol\":8189:8204  uint256 tokenId */\n      dup1\n        /* \"contracts/token/ERC721/ERC721.sol\":8210:8232  _tokenOwners.at(index) */\n      tag_155\n        /* \"contracts/token/ERC721/ERC721.sol\":8226:8231  index */\n      dup4\n        /* \"contracts/token/ERC721/ERC721.sol\":8210:8222  _tokenOwners */\n      0x02\n        /* \"contracts/token/ERC721/ERC721.sol\":8210:8225  _tokenOwners.at */\n      tag_156\n      swap1\n        /* \"contracts/token/ERC721/ERC721.sol\":8210:8232  _tokenOwners.at(index) */\n      swap2\n      swap1\n      0xffffffff\n      and\n      jump\t// in\n    tag_155:\n        /* \"contracts/token/ERC721/ERC721.sol\":8188:8232  (uint256 tokenId, ) = _tokenOwners.at(index) */\n      pop\n      swap1\n      pop\n        /* \"contracts/token/ERC721/ERC721.sol\":8249:8256  tokenId */\n      dup1\n        /* \"contracts/token/ERC721/ERC721.sol\":8242:8256  return tokenId */\n      swap2\n      pop\n      pop\n        /* \"contracts/token/ERC721/ERC721.sol\":8102:8263  function tokenByIndex(uint256 index) public view override returns (uint256) {... */\n      swap2\n      swap1\n      pop\n      jump\t// out\n        /* \"contracts/token/ERC721/ERC721.sol\":4418:4585  function ownerOf(uint256 tokenId) public view override returns (address) {... */\n    tag_69:\n        /* \"contracts/token/ERC721/ERC721.sol\":4482:4489  address */\n      0x00\n        /* \"contracts/token/ERC721/ERC721.sol\":4508:4578  _tokenOwners.get(tokenId, \"ERC721: owner query for nonexistent token\") */\n      tag_158\n        /* \"contracts/token/ERC721/ERC721.sol\":4525:4532  tokenId */\n      dup3\n        /* \"contracts/token/ERC721/ERC721.sol\":4508:4578  _tokenOwners.get(tokenId, \"ERC721: owner query for nonexistent token\") */\n      mload(0x40)\n      dup1\n      0x60\n      add\n      0x40\n      mstore\n      dup1\n      0x29\n      dup2\n      mstore\n      0x20\n      add\n      data_7481f3df2a424c0755a1ad2356614e9a5a358d461ea2eae1f89cb21cbad00397\n      0x29\n      swap2\n      codecopy\n        /* \"contracts/token/ERC721/ERC721.sol\":4508:4520  _tokenOwners */\n      0x02\n        /* \"contracts/token/ERC721/ERC721.sol\":4508:4524  _tokenOwners.get */\n      tag_159\n      swap1\n        /* \"contracts/token/ERC721/ERC721.sol\":4508:4578  _tokenOwners.get(tokenId, \"ERC721: owner query for nonexistent token\") */\n      swap3\n      swap2\n      swap1\n      0xffffffff\n      and\n      jump\t// in\n    tag_158:\n        /* \"contracts/token/ERC721/ERC721.sol\":4501:4578  return _tokenOwners.get(tokenId, \"ERC721: owner query for nonexistent token\") */\n      swap1\n      pop\n        /* \"contracts/token/ERC721/ERC721.sol\":4418:4585  function ownerOf(uint256 tokenId) public view override returns (address) {... */\n      swap2\n      swap1\n      pop\n      jump\t// out\n        /* \"contracts/token/ERC721/ERC721.sol\":6798:6885  function baseURI() public view returns (string memory) {... */\n    tag_72:\n        /* \"contracts/token/ERC721/ERC721.sol\":6838:6851  string memory */\n      0x60\n        /* \"contracts/token/ERC721/ERC721.sol\":6870:6878  _baseURI */\n      0x09\n        /* \"contracts/token/ERC721/ERC721.sol\":6863:6878  return _baseURI */\n      dup1\n      sload\n      0x01\n      dup2\n      0x01\n      and\n      iszero\n      0x0100\n      mul\n      sub\n      and\n      0x02\n      swap1\n      div\n      dup1\n      0x1f\n      add\n      0x20\n      dup1\n      swap2\n      div\n      mul\n      0x20\n      add\n      mload(0x40)\n      swap1\n      dup2\n      add\n      0x40\n      mstore\n      dup1\n      swap3\n      swap2\n      swap1\n      dup2\n      dup2\n      mstore\n      0x20\n      add\n      dup3\n      dup1\n      sload\n      0x01\n      dup2\n      0x01\n      and\n      iszero\n      0x0100\n      mul\n      sub\n      and\n      0x02\n      swap1\n      div\n      dup1\n      iszero\n      tag_161\n      jumpi\n      dup1\n      0x1f\n      lt\n      tag_162\n      jumpi\n      0x0100\n      dup1\n      dup4\n      sload\n      div\n      mul\n      dup4\n      mstore\n      swap2\n      0x20\n      add\n      swap2\n      jump(tag_161)\n    tag_162:\n      dup3\n      add\n      swap2\n      swap1\n      0x00\n      mstore\n      keccak256(0x00, 0x20)\n      swap1\n    tag_163:\n      dup2\n      sload\n      dup2\n      mstore\n      swap1\n      0x01\n      add\n      swap1\n      0x20\n      add\n      dup1\n      dup4\n      gt\n      tag_163\n      jumpi\n      dup3\n      swap1\n      sub\n      0x1f\n      and\n      dup3\n      add\n      swap2\n    tag_161:\n      pop\n      pop\n      pop\n      pop\n      pop\n      swap1\n      pop\n        /* \"contracts/token/ERC721/ERC721.sol\":6798:6885  function baseURI() public view returns (string memory) {... */\n      swap1\n      jump\t// out\n        /* \"contracts/token/ERC721/ERC721.sol\":3988:4199  function balanceOf(address owner) public view override returns (uint256) {... */\n    tag_77:\n        /* \"contracts/token/ERC721/ERC721.sol\":4052:4059  uint256 */\n      0x00\n        /* \"contracts/token/ERC721/ERC721.sol\":4096:4097  0 */\n      dup1\n        /* \"contracts/token/ERC721/ERC721.sol\":4079:4098  owner != address(0) */\n      0xffffffffffffffffffffffffffffffffffffffff\n      and\n        /* \"contracts/token/ERC721/ERC721.sol\":4079:4084  owner */\n      dup3\n        /* \"contracts/token/ERC721/ERC721.sol\":4079:4098  owner != address(0) */\n      0xffffffffffffffffffffffffffffffffffffffff\n      and\n      eq\n      iszero\n        /* \"contracts/token/ERC721/ERC721.sol\":4071:4145  require(owner != address(0), \"ERC721: balance query for the zero address\") */\n      tag_165\n      jumpi\n      mload(0x40)\n      0x08c379a000000000000000000000000000000000000000000000000000000000\n      dup2\n      mstore\n      0x04\n      add\n      tag_166\n      swap1\n      jump(tag_167)\n    tag_166:\n      mload(0x40)\n      dup1\n      swap2\n      sub\n      swap1\n      revert\n    tag_165:\n        /* \"contracts/token/ERC721/ERC721.sol\":4163:4192  _holderTokens[owner].length() */\n      tag_168\n        /* \"contracts/token/ERC721/ERC721.sol\":4163:4176  _holderTokens */\n      0x01\n        /* \"contracts/token/ERC721/ERC721.sol\":4163:4183  _holderTokens[owner] */\n      0x00\n        /* \"contracts/token/ERC721/ERC721.sol\":4177:4182  owner */\n      dup5\n        /* \"contracts/token/ERC721/ERC721.sol\":4163:4183  _holderTokens[owner] */\n      0xffffffffffffffffffffffffffffffffffffffff\n      and\n      0xffffffffffffffffffffffffffffffffffffffff\n      and\n      dup2\n      mstore\n      0x20\n      add\n      swap1\n      dup2\n      mstore\n      0x20\n      add\n      0x00\n      keccak256\n        /* \"contracts/token/ERC721/ERC721.sol\":4163:4190  _holderTokens[owner].length */\n      tag_169\n        /* \"contracts/token/ERC721/ERC721.sol\":4163:4192  _holderTokens[owner].length() */\n      jump\t// in\n    tag_168:\n        /* \"contracts/token/ERC721/ERC721.sol\":4156:4192  return _holderTokens[owner].length() */\n      swap1\n      pop\n        /* \"contracts/token/ERC721/ERC721.sol\":3988:4199  function balanceOf(address owner) public view override returns (uint256) {... */\n      swap2\n      swap1\n      pop\n      jump\t// out\n        /* \"contracts/token/ERC721/ERC721.sol\":4889:4983  function symbol() public view override returns (string memory) {... */\n    tag_80:\n        /* \"contracts/token/ERC721/ERC721.sol\":4937:4950  string memory */\n      0x60\n        /* \"contracts/token/ERC721/ERC721.sol\":4969:4976  _symbol */\n      0x07\n        /* \"contracts/token/ERC721/ERC721.sol\":4962:4976  return _symbol */\n      dup1\n      sload\n      0x01\n      dup2\n      0x01\n      and\n      iszero\n      0x0100\n      mul\n      sub\n      and\n      0x02\n      swap1\n      div\n      dup1\n      0x1f\n      add\n      0x20\n      dup1\n      swap2\n      div\n      mul\n      0x20\n      add\n      mload(0x40)\n      swap1\n      dup2\n      add\n      0x40\n      mstore\n      dup1\n      swap3\n      swap2\n      swap1\n      dup2\n      dup2\n      mstore\n      0x20\n      add\n      dup3\n      dup1\n      sload\n      0x01\n      dup2\n      0x01\n      and\n      iszero\n      0x0100\n      mul\n      sub\n      and\n      0x02\n      swap1\n      div\n      dup1\n      iszero\n      tag_171\n      jumpi\n      dup1\n      0x1f\n      lt\n      tag_172\n      jumpi\n      0x0100\n      dup1\n      dup4\n      sload\n      div\n      mul\n      dup4\n      mstore\n      swap2\n      0x20\n      add\n      swap2\n      jump(tag_171)\n    tag_172:\n      dup3\n      add\n      swap2\n      swap1\n      0x00\n      mstore\n      keccak256(0x00, 0x20)\n      swap1\n    tag_173:\n      dup2\n      sload\n      dup2\n      mstore\n      swap1\n      0x01\n      add\n      swap1\n      0x20\n      add\n      dup1\n      dup4\n      gt\n      tag_173\n      jumpi\n      dup3\n      swap1\n      sub\n      0x1f\n      and\n      dup3\n      add\n      swap2\n    tag_171:\n      pop\n      pop\n      pop\n      pop\n      pop\n      swap1\n      pop\n        /* \"contracts/token/ERC721/ERC721.sol\":4889:4983  function symbol() public view override returns (string memory) {... */\n      swap1\n      jump\t// out\n        /* \"contracts/token/ERC721/ERC721.sol\":9858:10148  function setApprovalForAll(address operator, bool approved) public virtual override {... */\n    tag_85:\n        /* \"contracts/token/ERC721/ERC721.sol\":9972:9984  _msgSender() */\n      tag_175\n        /* \"contracts/token/ERC721/ERC721.sol\":9972:9982  _msgSender */\n      tag_120\n        /* \"contracts/token/ERC721/ERC721.sol\":9972:9984  _msgSender() */\n      jump\t// in\n    tag_175:\n        /* \"contracts/token/ERC721/ERC721.sol\":9960:9984  operator != _msgSender() */\n      0xffffffffffffffffffffffffffffffffffffffff\n      and\n        /* \"contracts/token/ERC721/ERC721.sol\":9960:9968  operator */\n      dup3\n        /* \"contracts/token/ERC721/ERC721.sol\":9960:9984  operator != _msgSender() */\n      0xffffffffffffffffffffffffffffffffffffffff\n      and\n      eq\n      iszero\n        /* \"contracts/token/ERC721/ERC721.sol\":9952:10014  require(operator != _msgSender(), \"ERC721: approve to caller\") */\n      tag_176\n      jumpi\n      mload(0x40)\n      0x08c379a000000000000000000000000000000000000000000000000000000000\n      dup2\n      mstore\n      0x04\n      add\n      tag_177\n      swap1\n      jump(tag_178)\n    tag_177:\n      mload(0x40)\n      dup1\n      swap2\n      sub\n      swap1\n      revert\n    tag_176:\n        /* \"contracts/token/ERC721/ERC721.sol\":10070:10078  approved */\n      dup1\n        /* \"contracts/token/ERC721/ERC721.sol\":10025:10043  _operatorApprovals */\n      0x05\n        /* \"contracts/token/ERC721/ERC721.sol\":10025:10057  _operatorApprovals[_msgSender()] */\n      0x00\n        /* \"contracts/token/ERC721/ERC721.sol\":10044:10056  _msgSender() */\n      tag_179\n        /* \"contracts/token/ERC721/ERC721.sol\":10044:10054  _msgSender */\n      tag_120\n        /* \"contracts/token/ERC721/ERC721.sol\":10044:10056  _msgSender() */\n      jump\t// in\n    tag_179:\n        /* \"contracts/token/ERC721/ERC721.sol\":10025:10057  _operatorApprovals[_msgSender()] */\n      0xffffffffffffffffffffffffffffffffffffffff\n      and\n      0xffffffffffffffffffffffffffffffffffffffff\n      and\n      dup2\n      mstore\n      0x20\n      add\n      swap1\n      dup2\n      mstore\n      0x20\n      add\n      0x00\n      keccak256\n        /* \"contracts/token/ERC721/ERC721.sol\":10025:10067  _operatorApprovals[_msgSender()][operator] */\n      0x00\n        /* \"contracts/token/ERC721/ERC721.sol\":10058:10066  operator */\n      dup5\n        /* \"contracts/token/ERC721/ERC721.sol\":10025:10067  _operatorApprovals[_msgSender()][operator] */\n      0xffffffffffffffffffffffffffffffffffffffff\n      and\n      0xffffffffffffffffffffffffffffffffffffffff\n      and\n      dup2\n      mstore\n      0x20\n      add\n      swap1\n      dup2\n      mstore\n      0x20\n      add\n      0x00\n      keccak256\n      0x00\n        /* \"contracts/token/ERC721/ERC721.sol\":10025:10078  _operatorApprovals[_msgSender()][operator] = approved */\n      0x0100\n      exp\n      dup2\n      sload\n      dup2\n      0xff\n      mul\n      not\n      and\n      swap1\n      dup4\n      iszero\n      iszero\n      mul\n      or\n      swap1\n      sstore\n      pop\n        /* \"contracts/token/ERC721/ERC721.sol\":10122:10130  operator */\n      dup2\n        /* \"contracts/token/ERC721/ERC721.sol\":10093:10141  ApprovalForAll(_msgSender(), operator, approved) */\n      0xffffffffffffffffffffffffffffffffffffffff\n      and\n        /* \"contracts/token/ERC721/ERC721.sol\":10108:10120  _msgSender() */\n      tag_180\n        /* \"contracts/token/ERC721/ERC721.sol\":10108:10118  _msgSender */\n      tag_120\n        /* \"contracts/token/ERC721/ERC721.sol\":10108:10120  _msgSender() */\n      jump\t// in\n    tag_180:\n        /* \"contracts/token/ERC721/ERC721.sol\":10093:10141  ApprovalForAll(_msgSender(), operator, approved) */\n      0xffffffffffffffffffffffffffffffffffffffff\n      and\n      0x17307eab39ab6107e8899845ad3d59bd9653f200f220920489ca2b5937696c31\n        /* \"contracts/token/ERC721/ERC721.sol\":10132:10140  approved */\n      dup4\n        /* \"contracts/token/ERC721/ERC721.sol\":10093:10141  ApprovalForAll(_msgSender(), operator, approved) */\n      mload(0x40)\n      tag_181\n      swap2\n      swap1\n      jump(tag_30)\n    tag_181:\n      mload(0x40)\n      dup1\n      swap2\n      sub\n      swap1\n      log3\n        /* \"contracts/token/ERC721/ERC721.sol\":9858:10148  function setApprovalForAll(address operator, bool approved) public virtual override {... */\n      pop\n      pop\n      jump\t// out\n        /* \"contracts/token/ERC721/ERC721.sol\":12882:13164  function safeTransferFrom(address from, address to, uint256 tokenId, bytes memory _data) public virtual override {... */\n    tag_89:\n        /* \"contracts/token/ERC721/ERC721.sol\":13013:13054  _isApprovedOrOwner(_msgSender(), tokenId) */\n      tag_183\n        /* \"contracts/token/ERC721/ERC721.sol\":13032:13044  _msgSender() */\n      tag_184\n        /* \"contracts/token/ERC721/ERC721.sol\":13032:13042  _msgSender */\n      tag_120\n        /* \"contracts/token/ERC721/ERC721.sol\":13032:13044  _msgSender() */\n      jump\t// in\n    tag_184:\n        /* \"contracts/token/ERC721/ERC721.sol\":13046:13053  tokenId */\n      dup4\n        /* \"contracts/token/ERC721/ERC721.sol\":13013:13031  _isApprovedOrOwner */\n      tag_135\n        /* \"contracts/token/ERC721/ERC721.sol\":13013:13054  _isApprovedOrOwner(_msgSender(), tokenId) */\n      jump\t// in\n    tag_183:\n        /* \"contracts/token/ERC721/ERC721.sol\":13005:13108  require(_isApprovedOrOwner(_msgSender(), tokenId), \"ERC721: transfer caller is not owner nor approved\") */\n      tag_185\n      jumpi\n      mload(0x40)\n      0x08c379a000000000000000000000000000000000000000000000000000000000\n      dup2\n      mstore\n      0x04\n      add\n      tag_186\n      swap1\n      jump(tag_138)\n    tag_186:\n      mload(0x40)\n      dup1\n      swap2\n      sub\n      swap1\n      revert\n    tag_185:\n        /* \"contracts/token/ERC721/ERC721.sol\":13118:13157  _safeTransfer(from, to, tokenId, _data) */\n      tag_187\n        /* \"contracts/token/ERC721/ERC721.sol\":13132:13136  from */\n      dup5\n        /* \"contracts/token/ERC721/ERC721.sol\":13138:13140  to */\n      dup5\n        /* \"contracts/token/ERC721/ERC721.sol\":13142:13149  tokenId */\n      dup5\n        /* \"contracts/token/ERC721/ERC721.sol\":13151:13156  _data */\n      dup5\n        /* \"contracts/token/ERC721/ERC721.sol\":13118:13131  _safeTransfer */\n      tag_188\n        /* \"contracts/token/ERC721/ERC721.sol\":13118:13157  _safeTransfer(from, to, tokenId, _data) */\n      jump\t// in\n    tag_187:\n        /* \"contracts/token/ERC721/ERC721.sol\":12882:13164  function safeTransferFrom(address from, address to, uint256 tokenId, bytes memory _data) public virtual override {... */\n      pop\n      pop\n      pop\n      pop\n      jump\t// out\n        /* \"contracts/token/ERC721/ERC721.sol\":5826:6566  function tokenURI(uint256 tokenId) public view override returns (string memory) {... */\n    tag_92:\n        /* \"contracts/token/ERC721/ERC721.sol\":5891:5904  string memory */\n      0x60\n        /* \"contracts/token/ERC721/ERC721.sol\":5924:5940  _exists(tokenId) */\n      tag_190\n        /* \"contracts/token/ERC721/ERC721.sol\":5932:5939  tokenId */\n      dup3\n        /* \"contracts/token/ERC721/ERC721.sol\":5924:5931  _exists */\n      tag_110\n        /* \"contracts/token/ERC721/ERC721.sol\":5924:5940  _exists(tokenId) */\n      jump\t// in\n    tag_190:\n        /* \"contracts/token/ERC721/ERC721.sol\":5916:5992  require(_exists(tokenId), \"ERC721Metadata: URI query for nonexistent token\") */\n      tag_191\n      jumpi\n      mload(0x40)\n      0x08c379a000000000000000000000000000000000000000000000000000000000\n      dup2\n      mstore\n      0x04\n      add\n      tag_192\n      swap1\n      jump(tag_193)\n    tag_192:\n      mload(0x40)\n      dup1\n      swap2\n      sub\n      swap1\n      revert\n    tag_191:\n        /* \"contracts/token/ERC721/ERC721.sol\":6003:6026  string memory _tokenURI */\n      0x60\n        /* \"contracts/token/ERC721/ERC721.sol\":6029:6039  _tokenURIs */\n      0x08\n        /* \"contracts/token/ERC721/ERC721.sol\":6029:6048  _tokenURIs[tokenId] */\n      0x00\n        /* \"contracts/token/ERC721/ERC721.sol\":6040:6047  tokenId */\n      dup5\n        /* \"contracts/token/ERC721/ERC721.sol\":6029:6048  _tokenURIs[tokenId] */\n      dup2\n      mstore\n      0x20\n      add\n      swap1\n      dup2\n      mstore\n      0x20\n      add\n      0x00\n      keccak256\n        /* \"contracts/token/ERC721/ERC721.sol\":6003:6048  string memory _tokenURI = _tokenURIs[tokenId] */\n      dup1\n      sload\n      0x01\n      dup2\n      0x01\n      and\n      iszero\n      0x0100\n      mul\n      sub\n      and\n      0x02\n      swap1\n      div\n      dup1\n      0x1f\n      add\n      0x20\n      dup1\n      swap2\n      div\n      mul\n      0x20\n      add\n      mload(0x40)\n      swap1\n      dup2\n      add\n      0x40\n      mstore\n      dup1\n      swap3\n      swap2\n      swap1\n      dup2\n      dup2\n      mstore\n      0x20\n      add\n      dup3\n      dup1\n      sload\n      0x01\n      dup2\n      0x01\n      and\n      iszero\n      0x0100\n      mul\n      sub\n      and\n      0x02\n      swap1\n      div\n      dup1\n      iszero\n      tag_194\n      jumpi\n      dup1\n      0x1f\n      lt\n      tag_195\n      jumpi\n      0x0100\n      dup1\n      dup4\n      sload\n      div\n      mul\n      dup4\n      mstore\n      swap2\n      0x20\n      add\n      swap2\n      jump(tag_194)\n    tag_195:\n      dup3\n      add\n      swap2\n      swap1\n      0x00\n      mstore\n      keccak256(0x00, 0x20)\n      swap1\n    tag_196:\n      dup2\n      sload\n      dup2\n      mstore\n      swap1\n      0x01\n      add\n      swap1\n      0x20\n      add\n      dup1\n      dup4\n      gt\n      tag_196\n      jumpi\n      dup3\n      swap1\n      sub\n      0x1f\n      and\n      dup3\n      add\n      swap2\n    tag_194:\n      pop\n      pop\n      pop\n      pop\n      pop\n      swap1\n      pop\n        /* \"contracts/token/ERC721/ERC721.sol\":6147:6148  0 */\n      0x00\n        /* \"contracts/token/ERC721/ERC721.sol\":6127:6135  _baseURI */\n      0x09\n        /* \"contracts/token/ERC721/ERC721.sol\":6121:6143  bytes(_baseURI).length */\n      dup1\n      sload\n      0x01\n      dup2\n      0x01\n      and\n      iszero\n      0x0100\n      mul\n      sub\n      and\n      0x02\n      swap1\n      div\n      swap1\n      pop\n        /* \"contracts/token/ERC721/ERC721.sol\":6121:6148  bytes(_baseURI).length == 0 */\n      eq\n        /* \"contracts/token/ERC721/ERC721.sol\":6117:6191  if (bytes(_baseURI).length == 0) {... */\n      iszero\n      tag_197\n      jumpi\n        /* \"contracts/token/ERC721/ERC721.sol\":6171:6180  _tokenURI */\n      dup1\n        /* \"contracts/token/ERC721/ERC721.sol\":6164:6180  return _tokenURI */\n      swap2\n      pop\n      pop\n      jump(tag_189)\n        /* \"contracts/token/ERC721/ERC721.sol\":6117:6191  if (bytes(_baseURI).length == 0) {... */\n    tag_197:\n        /* \"contracts/token/ERC721/ERC721.sol\":6319:6320  0 */\n      0x00\n        /* \"contracts/token/ERC721/ERC721.sol\":6299:6308  _tokenURI */\n      dup2\n        /* \"contracts/token/ERC721/ERC721.sol\":6293:6316  bytes(_tokenURI).length */\n      mload\n        /* \"contracts/token/ERC721/ERC721.sol\":6293:6320  bytes(_tokenURI).length > 0 */\n      gt\n        /* \"contracts/token/ERC721/ERC721.sol\":6289:6399  if (bytes(_tokenURI).length > 0) {... */\n      iszero\n      tag_198\n      jumpi\n        /* \"contracts/token/ERC721/ERC721.sol\":6367:6375  _baseURI */\n      0x09\n        /* \"contracts/token/ERC721/ERC721.sol\":6377:6386  _tokenURI */\n      dup2\n        /* \"contracts/token/ERC721/ERC721.sol\":6350:6387  abi.encodePacked(_baseURI, _tokenURI) */\n      add(0x20, mload(0x40))\n      tag_199\n      swap3\n      swap2\n      swap1\n      jump(tag_200)\n    tag_199:\n      mload(0x40)\n        /* \"--CODEGEN--\":49:53   */\n      0x20\n        /* \"--CODEGEN--\":39:46   */\n      dup2\n        /* \"--CODEGEN--\":30:37   */\n      dup4\n        /* \"--CODEGEN--\":26:47   */\n      sub\n        /* \"--CODEGEN--\":22:54   */\n      sub\n        /* \"--CODEGEN--\":13:20   */\n      dup2\n        /* \"--CODEGEN--\":6:55   */\n      mstore\n        /* \"contracts/token/ERC721/ERC721.sol\":6350:6387  abi.encodePacked(_baseURI, _tokenURI) */\n      swap1\n      0x40\n      mstore\n        /* \"contracts/token/ERC721/ERC721.sol\":6336:6388  return string(abi.encodePacked(_baseURI, _tokenURI)) */\n      swap2\n      pop\n      pop\n      jump(tag_189)\n        /* \"contracts/token/ERC721/ERC721.sol\":6289:6399  if (bytes(_tokenURI).length > 0) {... */\n    tag_198:\n        /* \"contracts/token/ERC721/ERC721.sol\":6529:6537  _baseURI */\n      0x09\n        /* \"contracts/token/ERC721/ERC721.sol\":6539:6557  tokenId.toString() */\n      tag_201\n        /* \"contracts/token/ERC721/ERC721.sol\":6539:6546  tokenId */\n      dup5\n        /* \"contracts/token/ERC721/ERC721.sol\":6539:6555  tokenId.toString */\n      tag_202\n        /* \"contracts/token/ERC721/ERC721.sol\":6539:6557  tokenId.toString() */\n      jump\t// in\n    tag_201:\n        /* \"contracts/token/ERC721/ERC721.sol\":6512:6558  abi.encodePacked(_baseURI, tokenId.toString()) */\n      add(0x20, mload(0x40))\n      tag_203\n      swap3\n      swap2\n      swap1\n      jump(tag_200)\n    tag_203:\n      mload(0x40)\n        /* \"--CODEGEN--\":49:53   */\n      0x20\n        /* \"--CODEGEN--\":39:46   */\n      dup2\n        /* \"--CODEGEN--\":30:37   */\n      dup4\n        /* \"--CODEGEN--\":26:47   */\n      sub\n        /* \"--CODEGEN--\":22:54   */\n      sub\n        /* \"--CODEGEN--\":13:20   */\n      dup2\n        /* \"--CODEGEN--\":6:55   */\n      mstore\n        /* \"contracts/token/ERC721/ERC721.sol\":6512:6558  abi.encodePacked(_baseURI, tokenId.toString()) */\n      swap1\n      0x40\n      mstore\n        /* \"contracts/token/ERC721/ERC721.sol\":6498:6559  return string(abi.encodePacked(_baseURI, tokenId.toString())) */\n      swap2\n      pop\n      pop\n        /* \"contracts/token/ERC721/ERC721.sol\":5826:6566  function tokenURI(uint256 tokenId) public view override returns (string memory) {... */\n    tag_189:\n      swap2\n      swap1\n      pop\n      jump\t// out\n        /* \"contracts/MonkeyNft.sol\":425:578  function mint(address to, uint256 tokenId, string memory _tokenURI) public  {... */\n    tag_97:\n        /* \"contracts/MonkeyNft.sol\":511:529  _mint(to, tokenId) */\n      tag_205\n        /* \"contracts/MonkeyNft.sol\":517:519  to */\n      dup4\n        /* \"contracts/MonkeyNft.sol\":521:528  tokenId */\n      dup4\n        /* \"contracts/MonkeyNft.sol\":511:516  _mint */\n      tag_206\n        /* \"contracts/MonkeyNft.sol\":511:529  _mint(to, tokenId) */\n      jump\t// in\n    tag_205:\n        /* \"contracts/MonkeyNft.sol\":539:571  _setTokenURI(tokenId, _tokenURI) */\n      tag_207\n        /* \"contracts/MonkeyNft.sol\":552:559  tokenId */\n      dup3\n        /* \"contracts/MonkeyNft.sol\":561:570  _tokenURI */\n      dup3\n        /* \"contracts/MonkeyNft.sol\":539:551  _setTokenURI */\n      tag_208\n        /* \"contracts/MonkeyNft.sol\":539:571  _setTokenURI(tokenId, _tokenURI) */\n      jump\t// in\n    tag_207:\n        /* \"contracts/MonkeyNft.sol\":425:578  function mint(address to, uint256 tokenId, string memory _tokenURI) public  {... */\n      pop\n      pop\n      pop\n      jump\t// out\n        /* \"contracts/token/ERC721/ERC721.sol\":10470:10624  function isApprovedForAll(address owner, address operator) public view override returns (bool) {... */\n    tag_101:\n        /* \"contracts/token/ERC721/ERC721.sol\":10559:10563  bool */\n      0x00\n        /* \"contracts/token/ERC721/ERC721.sol\":10582:10600  _operatorApprovals */\n      0x05\n        /* \"contracts/token/ERC721/ERC721.sol\":10582:10607  _operatorApprovals[owner] */\n      0x00\n        /* \"contracts/token/ERC721/ERC721.sol\":10601:10606  owner */\n      dup5\n        /* \"contracts/token/ERC721/ERC721.sol\":10582:10607  _operatorApprovals[owner] */\n      0xffffffffffffffffffffffffffffffffffffffff\n      and\n      0xffffffffffffffffffffffffffffffffffffffff\n      and\n      dup2\n      mstore\n      0x20\n      add\n      swap1\n      dup2\n      mstore\n      0x20\n      add\n      0x00\n      keccak256\n        /* \"contracts/token/ERC721/ERC721.sol\":10582:10617  _operatorApprovals[owner][operator] */\n      0x00\n        /* \"contracts/token/ERC721/ERC721.sol\":10608:10616  operator */\n      dup4\n        /* \"contracts/token/ERC721/ERC721.sol\":10582:10617  _operatorApprovals[owner][operator] */\n      0xffffffffffffffffffffffffffffffffffffffff\n      and\n      0xffffffffffffffffffffffffffffffffffffffff\n      and\n      dup2\n      mstore\n      0x20\n      add\n      swap1\n      dup2\n      mstore\n      0x20\n      add\n      0x00\n      keccak256\n      0x00\n      swap1\n      sload\n      swap1\n      0x0100\n      exp\n      swap1\n      div\n      0xff\n      and\n        /* \"contracts/token/ERC721/ERC721.sol\":10575:10617  return _operatorApprovals[owner][operator] */\n      swap1\n      pop\n        /* \"contracts/token/ERC721/ERC721.sol\":10470:10624  function isApprovedForAll(address owner, address operator) public view override returns (bool) {... */\n      swap3\n      swap2\n      pop\n      pop\n      jump\t// out\n        /* \"contracts/token/ERC721/ERC721.sol\":14333:14450  function _exists(uint256 tokenId) internal view returns (bool) {... */\n    tag_110:\n        /* \"contracts/token/ERC721/ERC721.sol\":14390:14394  bool */\n      0x00\n        /* \"contracts/token/ERC721/ERC721.sol\":14413:14443  _tokenOwners.contains(tokenId) */\n      tag_211\n        /* \"contracts/token/ERC721/ERC721.sol\":14435:14442  tokenId */\n      dup3\n        /* \"contracts/token/ERC721/ERC721.sol\":14413:14425  _tokenOwners */\n      0x02\n        /* \"contracts/token/ERC721/ERC721.sol\":14413:14434  _tokenOwners.contains */\n      tag_212\n      swap1\n        /* \"contracts/token/ERC721/ERC721.sol\":14413:14443  _tokenOwners.contains(tokenId) */\n      swap2\n      swap1\n      0xffffffff\n      and\n      jump\t// in\n    tag_211:\n        /* \"contracts/token/ERC721/ERC721.sol\":14406:14443  return _tokenOwners.contains(tokenId) */\n      swap1\n      pop\n        /* \"contracts/token/ERC721/ERC721.sol\":14333:14450  function _exists(uint256 tokenId) internal view returns (bool) {... */\n      swap2\n      swap1\n      pop\n      jump\t// out\n        /* \"contracts/GSN/Context.sol\":735:839  function _msgSender() internal view virtual returns (address payable) {... */\n    tag_120:\n        /* \"contracts/GSN/Context.sol\":788:803  address payable */\n      0x00\n        /* \"contracts/GSN/Context.sol\":822:832  msg.sender */\n      caller\n        /* \"contracts/GSN/Context.sol\":815:832  return msg.sender */\n      swap1\n      pop\n        /* \"contracts/GSN/Context.sol\":735:839  function _msgSender() internal view virtual returns (address payable) {... */\n      swap1\n      jump\t// out\n        /* \"contracts/token/ERC721/ERC721.sol\":21357:21512  function _approve(address to, uint256 tokenId) private {... */\n    tag_128:\n        /* \"contracts/token/ERC721/ERC721.sol\":21449:21451  to */\n      dup2\n        /* \"contracts/token/ERC721/ERC721.sol\":21422:21437  _tokenApprovals */\n      0x04\n        /* \"contracts/token/ERC721/ERC721.sol\":21422:21446  _tokenApprovals[tokenId] */\n      0x00\n        /* \"contracts/token/ERC721/ERC721.sol\":21438:21445  tokenId */\n      dup4\n        /* \"contracts/token/ERC721/ERC721.sol\":21422:21446  _tokenApprovals[tokenId] */\n      dup2\n      mstore\n      0x20\n      add\n      swap1\n      dup2\n      mstore\n      0x20\n      add\n      0x00\n      keccak256\n      0x00\n        /* \"contracts/token/ERC721/ERC721.sol\":21422:21451  _tokenApprovals[tokenId] = to */\n      0x0100\n      exp\n      dup2\n      sload\n      dup2\n      0xffffffffffffffffffffffffffffffffffffffff\n      mul\n      not\n      and\n      swap1\n      dup4\n      0xffffffffffffffffffffffffffffffffffffffff\n      and\n      mul\n      or\n      swap1\n      sstore\n      pop\n        /* \"contracts/token/ERC721/ERC721.sol\":21497:21504  tokenId */\n      dup1\n        /* \"contracts/token/ERC721/ERC721.sol\":21493:21495  to */\n      dup3\n        /* \"contracts/token/ERC721/ERC721.sol\":21466:21505  Approval(ownerOf(tokenId), to, tokenId) */\n      0xffffffffffffffffffffffffffffffffffffffff\n      and\n        /* \"contracts/token/ERC721/ERC721.sol\":21475:21491  ownerOf(tokenId) */\n      tag_215\n        /* \"contracts/token/ERC721/ERC721.sol\":21483:21490  tokenId */\n      dup4\n        /* \"contracts/token/ERC721/ERC721.sol\":21475:21482  ownerOf */\n      tag_69\n        /* \"contracts/token/ERC721/ERC721.sol\":21475:21491  ownerOf(tokenId) */\n      jump\t// in\n    tag_215:\n        /* \"contracts/token/ERC721/ERC721.sol\":21466:21505  Approval(ownerOf(tokenId), to, tokenId) */\n      0xffffffffffffffffffffffffffffffffffffffff\n      and\n      0x8c5be1e5ebec7d5bd14f71427d1e84f3dd0314c0f7b2291e5b200ac8c7c3b925\n      mload(0x40)\n      mload(0x40)\n      dup1\n      swap2\n      sub\n      swap1\n      log4\n        /* \"contracts/token/ERC721/ERC721.sol\":21357:21512  function _approve(address to, uint256 tokenId) private {... */\n      pop\n      pop\n      jump\t// out\n        /* \"contracts/utils/EnumerableMap.sol\":6990:7111  function length(UintToAddressMap storage map) internal view returns (uint256) {... */\n    tag_131:\n        /* \"contracts/utils/EnumerableMap.sol\":7059:7066  uint256 */\n      0x00\n        /* \"contracts/utils/EnumerableMap.sol\":7085:7104  _length(map._inner) */\n      tag_217\n        /* \"contracts/utils/EnumerableMap.sol\":7093:7096  map */\n      dup3\n        /* \"contracts/utils/EnumerableMap.sol\":7093:7103  map._inner */\n      0x00\n      add\n        /* \"contracts/utils/EnumerableMap.sol\":7085:7092  _length */\n      tag_218\n        /* \"contracts/utils/EnumerableMap.sol\":7085:7104  _length(map._inner) */\n      jump\t// in\n    tag_217:\n        /* \"contracts/utils/EnumerableMap.sol\":7078:7104  return _length(map._inner) */\n      swap1\n      pop\n        /* \"contracts/utils/EnumerableMap.sol\":6990:7111  function length(UintToAddressMap storage map) internal view returns (uint256) {... */\n      swap2\n      swap1\n      pop\n      jump\t// out\n        /* \"contracts/token/ERC721/ERC721.sol\":14811:15140  function _isApprovedOrOwner(address spender, uint256 tokenId) internal view returns (bool) {... */\n    tag_135:\n        /* \"contracts/token/ERC721/ERC721.sol\":14896:14900  bool */\n      0x00\n        /* \"contracts/token/ERC721/ERC721.sol\":14920:14936  _exists(tokenId) */\n      tag_220\n        /* \"contracts/token/ERC721/ERC721.sol\":14928:14935  tokenId */\n      dup3\n        /* \"contracts/token/ERC721/ERC721.sol\":14920:14927  _exists */\n      tag_110\n        /* \"contracts/token/ERC721/ERC721.sol\":14920:14936  _exists(tokenId) */\n      jump\t// in\n    tag_220:\n        /* \"contracts/token/ERC721/ERC721.sol\":14912:14985  require(_exists(tokenId), \"ERC721: operator query for nonexistent token\") */\n      tag_221\n      jumpi\n      mload(0x40)\n      0x08c379a000000000000000000000000000000000000000000000000000000000\n      dup2\n      mstore\n      0x04\n      add\n      tag_222\n      swap1\n      jump(tag_223)\n    tag_222:\n      mload(0x40)\n      dup1\n      swap2\n      sub\n      swap1\n      revert\n    tag_221:\n        /* \"contracts/token/ERC721/ERC721.sol\":14995:15008  address owner */\n      0x00\n        /* \"contracts/token/ERC721/ERC721.sol\":15011:15027  ownerOf(tokenId) */\n      tag_224\n        /* \"contracts/token/ERC721/ERC721.sol\":15019:15026  tokenId */\n      dup4\n        /* \"contracts/token/ERC721/ERC721.sol\":15011:15018  ownerOf */\n      tag_69\n        /* \"contracts/token/ERC721/ERC721.sol\":15011:15027  ownerOf(tokenId) */\n      jump\t// in\n    tag_224:\n        /* \"contracts/token/ERC721/ERC721.sol\":14995:15027  address owner = ownerOf(tokenId) */\n      swap1\n      pop\n        /* \"contracts/token/ERC721/ERC721.sol\":15056:15061  owner */\n      dup1\n        /* \"contracts/token/ERC721/ERC721.sol\":15045:15061  spender == owner */\n      0xffffffffffffffffffffffffffffffffffffffff\n      and\n        /* \"contracts/token/ERC721/ERC721.sol\":15045:15052  spender */\n      dup5\n        /* \"contracts/token/ERC721/ERC721.sol\":15045:15061  spender == owner */\n      0xffffffffffffffffffffffffffffffffffffffff\n      and\n      eq\n        /* \"contracts/token/ERC721/ERC721.sol\":15045:15096  spender == owner || getApproved(tokenId) == spender */\n      dup1\n      tag_225\n      jumpi\n      pop\n        /* \"contracts/token/ERC721/ERC721.sol\":15089:15096  spender */\n      dup4\n        /* \"contracts/token/ERC721/ERC721.sol\":15065:15096  getApproved(tokenId) == spender */\n      0xffffffffffffffffffffffffffffffffffffffff\n      and\n        /* \"contracts/token/ERC721/ERC721.sol\":15065:15085  getApproved(tokenId) */\n      tag_226\n        /* \"contracts/token/ERC721/ERC721.sol\":15077:15084  tokenId */\n      dup5\n        /* \"contracts/token/ERC721/ERC721.sol\":15065:15076  getApproved */\n      tag_38\n        /* \"contracts/token/ERC721/ERC721.sol\":15065:15085  getApproved(tokenId) */\n      jump\t// in\n    tag_226:\n        /* \"contracts/token/ERC721/ERC721.sol\":15065:15096  getApproved(tokenId) == spender */\n      0xffffffffffffffffffffffffffffffffffffffff\n      and\n      eq\n        /* \"contracts/token/ERC721/ERC721.sol\":15045:15096  spender == owner || getApproved(tokenId) == spender */\n    tag_225:\n        /* \"contracts/token/ERC721/ERC721.sol\":15045:15132  spender == owner || getApproved(tokenId) == spender || isApprovedForAll(owner, spender) */\n      dup1\n      tag_227\n      jumpi\n      pop\n        /* \"contracts/token/ERC721/ERC721.sol\":15100:15132  isApprovedForAll(owner, spender) */\n      tag_228\n        /* \"contracts/token/ERC721/ERC721.sol\":15117:15122  owner */\n      dup2\n        /* \"contracts/token/ERC721/ERC721.sol\":15124:15131  spender */\n      dup6\n        /* \"contracts/token/ERC721/ERC721.sol\":15100:15116  isApprovedForAll */\n      tag_101\n        /* \"contracts/token/ERC721/ERC721.sol\":15100:15132  isApprovedForAll(owner, spender) */\n      jump\t// in\n    tag_228:\n        /* \"contracts/token/ERC721/ERC721.sol\":15045:15132  spender == owner || getApproved(tokenId) == spender || isApprovedForAll(owner, spender) */\n    tag_227:\n        /* \"contracts/token/ERC721/ERC721.sol\":15037:15133  return (spender == owner || getApproved(tokenId) == spender || isApprovedForAll(owner, spender)) */\n      swap2\n      pop\n      pop\n        /* \"contracts/token/ERC721/ERC721.sol\":14811:15140  function _isApprovedOrOwner(address spender, uint256 tokenId) internal view returns (bool) {... */\n      swap3\n      swap2\n      pop\n      pop\n      jump\t// out\n        /* \"contracts/token/ERC721/ERC721.sol\":18323:18882  function _transfer(address from, address to, uint256 tokenId) internal virtual {... */\n    tag_140:\n        /* \"contracts/token/ERC721/ERC721.sol\":18440:18444  from */\n      dup3\n        /* \"contracts/token/ERC721/ERC721.sol\":18420:18444  ownerOf(tokenId) == from */\n      0xffffffffffffffffffffffffffffffffffffffff\n      and\n        /* \"contracts/token/ERC721/ERC721.sol\":18420:18436  ownerOf(tokenId) */\n      tag_230\n        /* \"contracts/token/ERC721/ERC721.sol\":18428:18435  tokenId */\n      dup3\n        /* \"contracts/token/ERC721/ERC721.sol\":18420:18427  ownerOf */\n      tag_69\n        /* \"contracts/token/ERC721/ERC721.sol\":18420:18436  ownerOf(tokenId) */\n      jump\t// in\n    tag_230:\n        /* \"contracts/token/ERC721/ERC721.sol\":18420:18444  ownerOf(tokenId) == from */\n      0xffffffffffffffffffffffffffffffffffffffff\n      and\n      eq\n        /* \"contracts/token/ERC721/ERC721.sol\":18412:18490  require(ownerOf(tokenId) == from, \"ERC721: transfer of token that is not own\") */\n      tag_231\n      jumpi\n      mload(0x40)\n      0x08c379a000000000000000000000000000000000000000000000000000000000\n      dup2\n      mstore\n      0x04\n      add\n      tag_232\n      swap1\n      jump(tag_233)\n    tag_232:\n      mload(0x40)\n      dup1\n      swap2\n      sub\n      swap1\n      revert\n    tag_231:\n        /* \"contracts/token/ERC721/ERC721.sol\":18522:18523  0 */\n      0x00\n        /* \"contracts/token/ERC721/ERC721.sol\":18508:18524  to != address(0) */\n      0xffffffffffffffffffffffffffffffffffffffff\n      and\n        /* \"contracts/token/ERC721/ERC721.sol\":18508:18510  to */\n      dup3\n        /* \"contracts/token/ERC721/ERC721.sol\":18508:18524  to != address(0) */\n      0xffffffffffffffffffffffffffffffffffffffff\n      and\n      eq\n      iszero\n        /* \"contracts/token/ERC721/ERC721.sol\":18500:18565  require(to != address(0), \"ERC721: transfer to the zero address\") */\n      tag_234\n      jumpi\n      mload(0x40)\n      0x08c379a000000000000000000000000000000000000000000000000000000000\n      dup2\n      mstore\n      0x04\n      add\n      tag_235\n      swap1\n      jump(tag_236)\n    tag_235:\n      mload(0x40)\n      dup1\n      swap2\n      sub\n      swap1\n      revert\n    tag_234:\n        /* \"contracts/token/ERC721/ERC721.sol\":18576:18615  _beforeTokenTransfer(from, to, tokenId) */\n      tag_237\n        /* \"contracts/token/ERC721/ERC721.sol\":18597:18601  from */\n      dup4\n        /* \"contracts/token/ERC721/ERC721.sol\":18603:18605  to */\n      dup4\n        /* \"contracts/token/ERC721/ERC721.sol\":18607:18614  tokenId */\n      dup4\n        /* \"contracts/token/ERC721/ERC721.sol\":18576:18596  _beforeTokenTransfer */\n      tag_238\n        /* \"contracts/token/ERC721/ERC721.sol\":18576:18615  _beforeTokenTransfer(from, to, tokenId) */\n      jump\t// in\n    tag_237:\n        /* \"contracts/token/ERC721/ERC721.sol\":18677:18706  _approve(address(0), tokenId) */\n      tag_239\n        /* \"contracts/token/ERC721/ERC721.sol\":18694:18695  0 */\n      0x00\n        /* \"contracts/token/ERC721/ERC721.sol\":18698:18705  tokenId */\n      dup3\n        /* \"contracts/token/ERC721/ERC721.sol\":18677:18685  _approve */\n      tag_128\n        /* \"contracts/token/ERC721/ERC721.sol\":18677:18706  _approve(address(0), tokenId) */\n      jump\t// in\n    tag_239:\n        /* \"contracts/token/ERC721/ERC721.sol\":18717:18752  _holderTokens[from].remove(tokenId) */\n      tag_240\n        /* \"contracts/token/ERC721/ERC721.sol\":18744:18751  tokenId */\n      dup2\n        /* \"contracts/token/ERC721/ERC721.sol\":18717:18730  _holderTokens */\n      0x01\n        /* \"contracts/token/ERC721/ERC721.sol\":18717:18736  _holderTokens[from] */\n      0x00\n        /* \"contracts/token/ERC721/ERC721.sol\":18731:18735  from */\n      dup7\n        /* \"contracts/token/ERC721/ERC721.sol\":18717:18736  _holderTokens[from] */\n      0xffffffffffffffffffffffffffffffffffffffff\n      and\n      0xffffffffffffffffffffffffffffffffffffffff\n      and\n      dup2\n      mstore\n      0x20\n      add\n      swap1\n      dup2\n      mstore\n      0x20\n      add\n      0x00\n      keccak256\n        /* \"contracts/token/ERC721/ERC721.sol\":18717:18743  _holderTokens[from].remove */\n      tag_241\n      swap1\n        /* \"contracts/token/ERC721/ERC721.sol\":18717:18752  _holderTokens[from].remove(tokenId) */\n      swap2\n      swap1\n      0xffffffff\n      and\n      jump\t// in\n    tag_240:\n      pop\n        /* \"contracts/token/ERC721/ERC721.sol\":18762:18792  _holderTokens[to].add(tokenId) */\n      tag_242\n        /* \"contracts/token/ERC721/ERC721.sol\":18784:18791  tokenId */\n      dup2\n        /* \"contracts/token/ERC721/ERC721.sol\":18762:18775  _holderTokens */\n      0x01\n        /* \"contracts/token/ERC721/ERC721.sol\":18762:18779  _holderTokens[to] */\n      0x00\n        /* \"contracts/token/ERC721/ERC721.sol\":18776:18778  to */\n      dup6\n        /* \"contracts/token/ERC721/ERC721.sol\":18762:18779  _holderTokens[to] */\n      0xffffffffffffffffffffffffffffffffffffffff\n      and\n      0xffffffffffffffffffffffffffffffffffffffff\n      and\n      dup2\n      mstore\n      0x20\n      add\n      swap1\n      dup2\n      mstore\n      0x20\n      add\n      0x00\n      keccak256\n        /* \"contracts/token/ERC721/ERC721.sol\":18762:18783  _holderTokens[to].add */\n      tag_243\n      swap1\n        /* \"contracts/token/ERC721/ERC721.sol\":18762:18792  _holderTokens[to].add(tokenId) */\n      swap2\n      swap1\n      0xffffffff\n      and\n      jump\t// in\n    tag_242:\n      pop\n        /* \"contracts/token/ERC721/ERC721.sol\":18803:18832  _tokenOwners.set(tokenId, to) */\n      tag_244\n        /* \"contracts/token/ERC721/ERC721.sol\":18820:18827  tokenId */\n      dup2\n        /* \"contracts/token/ERC721/ERC721.sol\":18829:18831  to */\n      dup4\n        /* \"contracts/token/ERC721/ERC721.sol\":18803:18815  _tokenOwners */\n      0x02\n        /* \"contracts/token/ERC721/ERC721.sol\":18803:18819  _tokenOwners.set */\n      tag_245\n      swap1\n        /* \"contracts/token/ERC721/ERC721.sol\":18803:18832  _tokenOwners.set(tokenId, to) */\n      swap3\n      swap2\n      swap1\n      0xffffffff\n      and\n      jump\t// in\n    tag_244:\n      pop\n        /* \"contracts/token/ERC721/ERC721.sol\":18867:18874  tokenId */\n      dup1\n        /* \"contracts/token/ERC721/ERC721.sol\":18863:18865  to */\n      dup3\n        /* \"contracts/token/ERC721/ERC721.sol\":18848:18875  Transfer(from, to, tokenId) */\n      0xffffffffffffffffffffffffffffffffffffffff\n      and\n        /* \"contracts/token/ERC721/ERC721.sol\":18857:18861  from */\n      dup5\n        /* \"contracts/token/ERC721/ERC721.sol\":18848:18875  Transfer(from, to, tokenId) */\n      0xffffffffffffffffffffffffffffffffffffffff\n      and\n      0xddf252ad1be2c89b69c2b068fc378daa952ba7f163c4a11628f55a4df523b3ef\n      mload(0x40)\n      mload(0x40)\n      dup1\n      swap2\n      sub\n      swap1\n      log4\n        /* \"contracts/token/ERC721/ERC721.sol\":18323:18882  function _transfer(address from, address to, uint256 tokenId) internal virtual {... */\n      pop\n      pop\n      pop\n      jump\t// out\n        /* \"contracts/utils/EnumerableSet.sol\":7616:7751  function at(UintSet storage set, uint256 index) internal view returns (uint256) {... */\n    tag_143:\n        /* \"contracts/utils/EnumerableSet.sol\":7687:7694  uint256 */\n      0x00\n        /* \"contracts/utils/EnumerableSet.sol\":7721:7743  _at(set._inner, index) */\n      tag_247\n        /* \"contracts/utils/EnumerableSet.sol\":7725:7728  set */\n      dup4\n        /* \"contracts/utils/EnumerableSet.sol\":7725:7735  set._inner */\n      0x00\n      add\n        /* \"contracts/utils/EnumerableSet.sol\":7737:7742  index */\n      dup4\n        /* \"contracts/utils/EnumerableSet.sol\":7721:7724  _at */\n      tag_248\n        /* \"contracts/utils/EnumerableSet.sol\":7721:7743  _at(set._inner, index) */\n      jump\t// in\n    tag_247:\n        /* \"contracts/utils/EnumerableSet.sol\":7713:7744  uint256(_at(set._inner, index)) */\n      0x00\n      shr\n        /* \"contracts/utils/EnumerableSet.sol\":7706:7744  return uint256(_at(set._inner, index)) */\n      swap1\n      pop\n        /* \"contracts/utils/EnumerableSet.sol\":7616:7751  function at(UintSet storage set, uint256 index) internal view returns (uint256) {... */\n      swap3\n      swap2\n      pop\n      pop\n      jump\t// out\n        /* \"contracts/token/ERC721/ERC721.sol\":17444:17946  function _burn(uint256 tokenId) internal virtual {... */\n    tag_153:\n        /* \"contracts/token/ERC721/ERC721.sol\":17503:17516  address owner */\n      0x00\n        /* \"contracts/token/ERC721/ERC721.sol\":17519:17535  ownerOf(tokenId) */\n      tag_250\n        /* \"contracts/token/ERC721/ERC721.sol\":17527:17534  tokenId */\n      dup3\n        /* \"contracts/token/ERC721/ERC721.sol\":17519:17526  ownerOf */\n      tag_69\n        /* \"contracts/token/ERC721/ERC721.sol\":17519:17535  ownerOf(tokenId) */\n      jump\t// in\n    tag_250:\n        /* \"contracts/token/ERC721/ERC721.sol\":17503:17535  address owner = ownerOf(tokenId) */\n      swap1\n      pop\n        /* \"contracts/token/ERC721/ERC721.sol\":17546:17594  _beforeTokenTransfer(owner, address(0), tokenId) */\n      tag_251\n        /* \"contracts/token/ERC721/ERC721.sol\":17567:17572  owner */\n      dup2\n        /* \"contracts/token/ERC721/ERC721.sol\":17582:17583  0 */\n      0x00\n        /* \"contracts/token/ERC721/ERC721.sol\":17586:17593  tokenId */\n      dup5\n        /* \"contracts/token/ERC721/ERC721.sol\":17546:17566  _beforeTokenTransfer */\n      tag_238\n        /* \"contracts/token/ERC721/ERC721.sol\":17546:17594  _beforeTokenTransfer(owner, address(0), tokenId) */\n      jump\t// in\n    tag_251:\n        /* \"contracts/token/ERC721/ERC721.sol\":17632:17661  _approve(address(0), tokenId) */\n      tag_252\n        /* \"contracts/token/ERC721/ERC721.sol\":17649:17650  0 */\n      0x00\n        /* \"contracts/token/ERC721/ERC721.sol\":17653:17660  tokenId */\n      dup4\n        /* \"contracts/token/ERC721/ERC721.sol\":17632:17640  _approve */\n      tag_128\n        /* \"contracts/token/ERC721/ERC721.sol\":17632:17661  _approve(address(0), tokenId) */\n      jump\t// in\n    tag_252:\n        /* \"contracts/token/ERC721/ERC721.sol\":17748:17749  0 */\n      0x00\n        /* \"contracts/token/ERC721/ERC721.sol\":17717:17727  _tokenURIs */\n      0x08\n        /* \"contracts/token/ERC721/ERC721.sol\":17717:17736  _tokenURIs[tokenId] */\n      0x00\n        /* \"contracts/token/ERC721/ERC721.sol\":17728:17735  tokenId */\n      dup5\n        /* \"contracts/token/ERC721/ERC721.sol\":17717:17736  _tokenURIs[tokenId] */\n      dup2\n      mstore\n      0x20\n      add\n      swap1\n      dup2\n      mstore\n      0x20\n      add\n      0x00\n      keccak256\n        /* \"contracts/token/ERC721/ERC721.sol\":17711:17744  bytes(_tokenURIs[tokenId]).length */\n      dup1\n      sload\n      0x01\n      dup2\n      0x01\n      and\n      iszero\n      0x0100\n      mul\n      sub\n      and\n      0x02\n      swap1\n      div\n      swap1\n      pop\n        /* \"contracts/token/ERC721/ERC721.sol\":17711:17749  bytes(_tokenURIs[tokenId]).length != 0 */\n      eq\n        /* \"contracts/token/ERC721/ERC721.sol\":17707:17802  if (bytes(_tokenURIs[tokenId]).length != 0) {... */\n      tag_253\n      jumpi\n        /* \"contracts/token/ERC721/ERC721.sol\":17772:17782  _tokenURIs */\n      0x08\n        /* \"contracts/token/ERC721/ERC721.sol\":17772:17791  _tokenURIs[tokenId] */\n      0x00\n        /* \"contracts/token/ERC721/ERC721.sol\":17783:17790  tokenId */\n      dup4\n        /* \"contracts/token/ERC721/ERC721.sol\":17772:17791  _tokenURIs[tokenId] */\n      dup2\n      mstore\n      0x20\n      add\n      swap1\n      dup2\n      mstore\n      0x20\n      add\n      0x00\n      keccak256\n      0x00\n        /* \"contracts/token/ERC721/ERC721.sol\":17765:17791  delete _tokenURIs[tokenId] */\n      tag_254\n      swap2\n      swap1\n      tag_255\n      jump\t// in\n    tag_254:\n        /* \"contracts/token/ERC721/ERC721.sol\":17707:17802  if (bytes(_tokenURIs[tokenId]).length != 0) {... */\n    tag_253:\n        /* \"contracts/token/ERC721/ERC721.sol\":17812:17848  _holderTokens[owner].remove(tokenId) */\n      tag_256\n        /* \"contracts/token/ERC721/ERC721.sol\":17840:17847  tokenId */\n      dup3\n        /* \"contracts/token/ERC721/ERC721.sol\":17812:17825  _holderTokens */\n      0x01\n        /* \"contracts/token/ERC721/ERC721.sol\":17812:17832  _holderTokens[owner] */\n      0x00\n        /* \"contracts/token/ERC721/ERC721.sol\":17826:17831  owner */\n      dup5\n        /* \"contracts/token/ERC721/ERC721.sol\":17812:17832  _holderTokens[owner] */\n      0xffffffffffffffffffffffffffffffffffffffff\n      and\n      0xffffffffffffffffffffffffffffffffffffffff\n      and\n      dup2\n      mstore\n      0x20\n      add\n      swap1\n      dup2\n      mstore\n      0x20\n      add\n      0x00\n      keccak256\n        /* \"contracts/token/ERC721/ERC721.sol\":17812:17839  _holderTokens[owner].remove */\n      tag_241\n      swap1\n        /* \"contracts/token/ERC721/ERC721.sol\":17812:17848  _holderTokens[owner].remove(tokenId) */\n      swap2\n      swap1\n      0xffffffff\n      and\n      jump\t// in\n    tag_256:\n      pop\n        /* \"contracts/token/ERC721/ERC721.sol\":17859:17887  _tokenOwners.remove(tokenId) */\n      tag_257\n        /* \"contracts/token/ERC721/ERC721.sol\":17879:17886  tokenId */\n      dup3\n        /* \"contracts/token/ERC721/ERC721.sol\":17859:17871  _tokenOwners */\n      0x02\n        /* \"contracts/token/ERC721/ERC721.sol\":17859:17878  _tokenOwners.remove */\n      tag_258\n      swap1\n        /* \"contracts/token/ERC721/ERC721.sol\":17859:17887  _tokenOwners.remove(tokenId) */\n      swap2\n      swap1\n      0xffffffff\n      and\n      jump\t// in\n    tag_257:\n      pop\n        /* \"contracts/token/ERC721/ERC721.sol\":17931:17938  tokenId */\n      dup2\n        /* \"contracts/token/ERC721/ERC721.sol\":17927:17928  0 */\n      0x00\n        /* \"contracts/token/ERC721/ERC721.sol\":17903:17939  Transfer(owner, address(0), tokenId) */\n      0xffffffffffffffffffffffffffffffffffffffff\n      and\n        /* \"contracts/token/ERC721/ERC721.sol\":17912:17917  owner */\n      dup3\n        /* \"contracts/token/ERC721/ERC721.sol\":17903:17939  Transfer(owner, address(0), tokenId) */\n      0xffffffffffffffffffffffffffffffffffffffff\n      and\n      0xddf252ad1be2c89b69c2b068fc378daa952ba7f163c4a11628f55a4df523b3ef\n      mload(0x40)\n      mload(0x40)\n      dup1\n      swap2\n      sub\n      swap1\n      log4\n        /* \"contracts/token/ERC721/ERC721.sol\":17444:17946  function _burn(uint256 tokenId) internal virtual {... */\n      pop\n      pop\n      jump\t// out\n        /* \"contracts/utils/EnumerableMap.sol\":7439:7663  function at(UintToAddressMap storage map, uint256 index) internal view returns (uint256, address) {... */\n    tag_156:\n        /* \"contracts/utils/EnumerableMap.sol\":7519:7526  uint256 */\n      0x00\n        /* \"contracts/utils/EnumerableMap.sol\":7528:7535  address */\n      dup1\n        /* \"contracts/utils/EnumerableMap.sol\":7548:7559  bytes32 key */\n      0x00\n        /* \"contracts/utils/EnumerableMap.sol\":7561:7574  bytes32 value */\n      dup1\n        /* \"contracts/utils/EnumerableMap.sol\":7578:7600  _at(map._inner, index) */\n      tag_260\n        /* \"contracts/utils/EnumerableMap.sol\":7582:7585  map */\n      dup7\n        /* \"contracts/utils/EnumerableMap.sol\":7582:7592  map._inner */\n      0x00\n      add\n        /* \"contracts/utils/EnumerableMap.sol\":7594:7599  index */\n      dup7\n        /* \"contracts/utils/EnumerableMap.sol\":7578:7581  _at */\n      tag_261\n        /* \"contracts/utils/EnumerableMap.sol\":7578:7600  _at(map._inner, index) */\n      jump\t// in\n    tag_260:\n        /* \"contracts/utils/EnumerableMap.sol\":7547:7600  (bytes32 key, bytes32 value) = _at(map._inner, index) */\n      swap2\n      pop\n      swap2\n      pop\n        /* \"contracts/utils/EnumerableMap.sol\":7626:7629  key */\n      dup2\n        /* \"contracts/utils/EnumerableMap.sol\":7618:7630  uint256(key) */\n      0x00\n      shr\n        /* \"contracts/utils/EnumerableMap.sol\":7648:7653  value */\n      dup2\n        /* \"contracts/utils/EnumerableMap.sol\":7640:7654  uint256(value) */\n      0x00\n      shr\n        /* \"contracts/utils/EnumerableMap.sol\":7610:7656  return (uint256(key), address(uint256(value))) */\n      dup1\n      swap1\n      pop\n      swap4\n      pop\n      swap4\n      pop\n      pop\n      pop\n        /* \"contracts/utils/EnumerableMap.sol\":7439:7663  function at(UintToAddressMap storage map, uint256 index) internal view returns (uint256, address) {... */\n      swap3\n      pop\n      swap3\n      swap1\n      pop\n      jump\t// out\n        /* \"contracts/utils/EnumerableMap.sol\":8082:8284  function get(UintToAddressMap storage map, uint256 key, string memory errorMessage) internal view returns (address) {... */\n    tag_159:\n        /* \"contracts/utils/EnumerableMap.sol\":8189:8196  address */\n      0x00\n        /* \"contracts/utils/EnumerableMap.sol\":8231:8275  _get(map._inner, bytes32(key), errorMessage) */\n      tag_263\n        /* \"contracts/utils/EnumerableMap.sol\":8236:8239  map */\n      dup5\n        /* \"contracts/utils/EnumerableMap.sol\":8236:8246  map._inner */\n      0x00\n      add\n        /* \"contracts/utils/EnumerableMap.sol\":8256:8259  key */\n      dup5\n        /* \"contracts/utils/EnumerableMap.sol\":8248:8260  bytes32(key) */\n      0x00\n      shl\n        /* \"contracts/utils/EnumerableMap.sol\":8262:8274  errorMessage */\n      dup5\n        /* \"contracts/utils/EnumerableMap.sol\":8231:8235  _get */\n      tag_264\n        /* \"contracts/utils/EnumerableMap.sol\":8231:8275  _get(map._inner, bytes32(key), errorMessage) */\n      jump\t// in\n    tag_263:\n        /* \"contracts/utils/EnumerableMap.sol\":8223:8276  uint256(_get(map._inner, bytes32(key), errorMessage)) */\n      0x00\n      shr\n        /* \"contracts/utils/EnumerableMap.sol\":8208:8277  return address(uint256(_get(map._inner, bytes32(key), errorMessage))) */\n      swap1\n      pop\n        /* \"contracts/utils/EnumerableMap.sol\":8082:8284  function get(UintToAddressMap storage map, uint256 key, string memory errorMessage) internal view returns (address) {... */\n      swap4\n      swap3\n      pop\n      pop\n      pop\n      jump\t// out\n        /* \"contracts/utils/EnumerableSet.sol\":7172:7284  function length(UintSet storage set) internal view returns (uint256) {... */\n    tag_169:\n        /* \"contracts/utils/EnumerableSet.sol\":7232:7239  uint256 */\n      0x00\n        /* \"contracts/utils/EnumerableSet.sol\":7258:7277  _length(set._inner) */\n      tag_266\n        /* \"contracts/utils/EnumerableSet.sol\":7266:7269  set */\n      dup3\n        /* \"contracts/utils/EnumerableSet.sol\":7266:7276  set._inner */\n      0x00\n      add\n        /* \"contracts/utils/EnumerableSet.sol\":7258:7265  _length */\n      tag_267\n        /* \"contracts/utils/EnumerableSet.sol\":7258:7277  _length(set._inner) */\n      jump\t// in\n    tag_266:\n        /* \"contracts/utils/EnumerableSet.sol\":7251:7277  return _length(set._inner) */\n      swap1\n      pop\n        /* \"contracts/utils/EnumerableSet.sol\":7172:7284  function length(UintSet storage set) internal view returns (uint256) {... */\n      swap2\n      swap1\n      pop\n      jump\t// out\n        /* \"contracts/token/ERC721/ERC721.sol\":13869:14138  function _safeTransfer(address from, address to, uint256 tokenId, bytes memory _data) internal virtual {... */\n    tag_188:\n        /* \"contracts/token/ERC721/ERC721.sol\":13982:14010  _transfer(from, to, tokenId) */\n      tag_269\n        /* \"contracts/token/ERC721/ERC721.sol\":13992:13996  from */\n      dup5\n        /* \"contracts/token/ERC721/ERC721.sol\":13998:14000  to */\n      dup5\n        /* \"contracts/token/ERC721/ERC721.sol\":14002:14009  tokenId */\n      dup5\n        /* \"contracts/token/ERC721/ERC721.sol\":13982:13991  _transfer */\n      tag_140\n        /* \"contracts/token/ERC721/ERC721.sol\":13982:14010  _transfer(from, to, tokenId) */\n      jump\t// in\n    tag_269:\n        /* \"contracts/token/ERC721/ERC721.sol\":14028:14076  _checkOnERC721Received(from, to, tokenId, _data) */\n      tag_270\n        /* \"contracts/token/ERC721/ERC721.sol\":14051:14055  from */\n      dup5\n        /* \"contracts/token/ERC721/ERC721.sol\":14057:14059  to */\n      dup5\n        /* \"contracts/token/ERC721/ERC721.sol\":14061:14068  tokenId */\n      dup5\n        /* \"contracts/token/ERC721/ERC721.sol\":14070:14075  _data */\n      dup5\n        /* \"contracts/token/ERC721/ERC721.sol\":14028:14050  _checkOnERC721Received */\n      tag_271\n        /* \"contracts/token/ERC721/ERC721.sol\":14028:14076  _checkOnERC721Received(from, to, tokenId, _data) */\n      jump\t// in\n    tag_270:\n        /* \"contracts/token/ERC721/ERC721.sol\":14020:14131  require(_checkOnERC721Received(from, to, tokenId, _data), \"ERC721: transfer to non ERC721Receiver implementer\") */\n      tag_272\n      jumpi\n      mload(0x40)\n      0x08c379a000000000000000000000000000000000000000000000000000000000\n      dup2\n      mstore\n      0x04\n      add\n      tag_273\n      swap1\n      jump(tag_274)\n    tag_273:\n      mload(0x40)\n      dup1\n      swap2\n      sub\n      swap1\n      revert\n    tag_272:\n        /* \"contracts/token/ERC721/ERC721.sol\":13869:14138  function _safeTransfer(address from, address to, uint256 tokenId, bytes memory _data) internal virtual {... */\n      pop\n      pop\n      pop\n      pop\n      jump\t// out\n        /* \"contracts/utils/Strings.sol\":169:892  function toString(uint256 value) internal pure returns (string memory) {... */\n    tag_202:\n        /* \"contracts/utils/Strings.sol\":225:238  string memory */\n      0x60\n        /* \"contracts/utils/Strings.sol\":451:452  0 */\n      0x00\n        /* \"contracts/utils/Strings.sol\":442:447  value */\n      dup3\n        /* \"contracts/utils/Strings.sol\":442:452  value == 0 */\n      eq\n        /* \"contracts/utils/Strings.sol\":438:489  if (value == 0) {... */\n      iszero\n      tag_276\n      jumpi\n        /* \"contracts/utils/Strings.sol\":468:478  return \"0\" */\n      mload(0x40)\n      dup1\n      0x40\n      add\n      0x40\n      mstore\n      dup1\n      0x01\n      dup2\n      mstore\n      0x20\n      add\n      0x3000000000000000000000000000000000000000000000000000000000000000\n      dup2\n      mstore\n      pop\n      swap1\n      pop\n      jump(tag_275)\n        /* \"contracts/utils/Strings.sol\":438:489  if (value == 0) {... */\n    tag_276:\n        /* \"contracts/utils/Strings.sol\":498:510  uint256 temp */\n      0x00\n        /* \"contracts/utils/Strings.sol\":513:518  value */\n      dup3\n        /* \"contracts/utils/Strings.sol\":498:518  uint256 temp = value */\n      swap1\n      pop\n        /* \"contracts/utils/Strings.sol\":528:542  uint256 digits */\n      0x00\n        /* \"contracts/utils/Strings.sol\":552:627  while (temp != 0) {... */\n    tag_277:\n        /* \"contracts/utils/Strings.sol\":567:568  0 */\n      0x00\n        /* \"contracts/utils/Strings.sol\":559:563  temp */\n      dup3\n        /* \"contracts/utils/Strings.sol\":559:568  temp != 0 */\n      eq\n        /* \"contracts/utils/Strings.sol\":552:627  while (temp != 0) {... */\n      tag_278\n      jumpi\n        /* \"contracts/utils/Strings.sol\":584:592  digits++ */\n      dup1\n      dup1\n      0x01\n      add\n      swap2\n      pop\n      pop\n        /* \"contracts/utils/Strings.sol\":614:616  10 */\n      0x0a\n        /* \"contracts/utils/Strings.sol\":606:616  temp /= 10 */\n      dup3\n      dup2\n      tag_279\n      jumpi\n      invalid\n    tag_279:\n      div\n      swap2\n      pop\n        /* \"contracts/utils/Strings.sol\":552:627  while (temp != 0) {... */\n      jump(tag_277)\n    tag_278:\n        /* \"contracts/utils/Strings.sol\":636:655  bytes memory buffer */\n      0x60\n        /* \"contracts/utils/Strings.sol\":668:674  digits */\n      dup2\n        /* \"contracts/utils/Strings.sol\":658:675  new bytes(digits) */\n      mload(0x40)\n      swap1\n      dup1\n      dup3\n      mstore\n      dup1\n      0x1f\n      add\n      not(0x1f)\n      and\n      0x20\n      add\n      dup3\n      add\n      0x40\n      mstore\n      dup1\n      iszero\n      tag_280\n      jumpi\n      dup2\n      0x20\n      add\n        /* \"--CODEGEN--\":29:30   */\n      0x01\n        /* \"--CODEGEN--\":21:27   */\n      dup3\n        /* \"--CODEGEN--\":17:31   */\n      mul\n        /* \"--CODEGEN--\":124:128   */\n      dup1\n        /* \"--CODEGEN--\":108:122   */\n      calldatasize\n        /* \"--CODEGEN--\":100:106   */\n      dup4\n        /* \"--CODEGEN--\":87:129   */\n      calldatacopy\n        /* \"--CODEGEN--\":155:159   */\n      dup1\n        /* \"--CODEGEN--\":147:153   */\n      dup3\n        /* \"--CODEGEN--\":143:160   */\n      add\n        /* \"--CODEGEN--\":133:160   */\n      swap2\n      pop\n        /* \"--CODEGEN--\":0:164   */\n      pop\n        /* \"contracts/utils/Strings.sol\":658:675  new bytes(digits) */\n      swap1\n      pop\n    tag_280:\n      pop\n        /* \"contracts/utils/Strings.sol\":636:675  bytes memory buffer = new bytes(digits) */\n      swap1\n      pop\n        /* \"contracts/utils/Strings.sol\":685:698  uint256 index */\n      0x00\n        /* \"contracts/utils/Strings.sol\":710:711  1 */\n      0x01\n        /* \"contracts/utils/Strings.sol\":701:707  digits */\n      dup4\n        /* \"contracts/utils/Strings.sol\":701:711  digits - 1 */\n      sub\n        /* \"contracts/utils/Strings.sol\":685:711  uint256 index = digits - 1 */\n      swap1\n      pop\n        /* \"contracts/utils/Strings.sol\":728:733  value */\n      dup6\n        /* \"contracts/utils/Strings.sol\":721:733  temp = value */\n      swap4\n      pop\n        /* \"contracts/utils/Strings.sol\":743:855  while (temp != 0) {... */\n    tag_281:\n        /* \"contracts/utils/Strings.sol\":758:759  0 */\n      0x00\n        /* \"contracts/utils/Strings.sol\":750:754  temp */\n      dup5\n        /* \"contracts/utils/Strings.sol\":750:759  temp != 0 */\n      eq\n        /* \"contracts/utils/Strings.sol\":743:855  while (temp != 0) {... */\n      tag_282\n      jumpi\n        /* \"contracts/utils/Strings.sol\":816:818  10 */\n      0x0a\n        /* \"contracts/utils/Strings.sol\":809:813  temp */\n      dup5\n        /* \"contracts/utils/Strings.sol\":809:818  temp % 10 */\n      dup2\n      tag_283\n      jumpi\n      invalid\n    tag_283:\n      mod\n        /* \"contracts/utils/Strings.sol\":804:806  48 */\n      0x30\n        /* \"contracts/utils/Strings.sol\":804:818  48 + temp % 10 */\n      add\n        /* \"contracts/utils/Strings.sol\":793:820  byte(uint8(48 + temp % 10)) */\n      0xf8\n      shl\n        /* \"contracts/utils/Strings.sol\":775:781  buffer */\n      dup3\n        /* \"contracts/utils/Strings.sol\":782:789  index-- */\n      dup3\n      dup1\n      0x01\n      swap1\n      sub\n      swap4\n      pop\n        /* \"contracts/utils/Strings.sol\":775:790  buffer[index--] */\n      dup2\n      mload\n      dup2\n      lt\n      tag_284\n      jumpi\n      invalid\n    tag_284:\n      0x20\n      add\n      add\n        /* \"contracts/utils/Strings.sol\":775:820  buffer[index--] = byte(uint8(48 + temp % 10)) */\n      swap1\n      not(0xffffffffffffffffffffffffffffffffffffffffffffffffffffffffffffff)\n      and\n      swap1\n      dup2\n      0x00\n      byte\n      swap1\n      mstore8\n      pop\n        /* \"contracts/utils/Strings.sol\":842:844  10 */\n      0x0a\n        /* \"contracts/utils/Strings.sol\":834:844  temp /= 10 */\n      dup5\n      dup2\n      tag_285\n      jumpi\n      invalid\n    tag_285:\n      div\n      swap4\n      pop\n        /* \"contracts/utils/Strings.sol\":743:855  while (temp != 0) {... */\n      jump(tag_281)\n    tag_282:\n        /* \"contracts/utils/Strings.sol\":878:884  buffer */\n      dup2\n        /* \"contracts/utils/Strings.sol\":864:885  return string(buffer) */\n      swap5\n      pop\n      pop\n      pop\n      pop\n      pop\n        /* \"contracts/utils/Strings.sol\":169:892  function toString(uint256 value) internal pure returns (string memory) {... */\n    tag_275:\n      swap2\n      swap1\n      pop\n      jump\t// out\n        /* \"contracts/token/ERC721/ERC721.sol\":16870:17263  function _mint(address to, uint256 tokenId) internal virtual {... */\n    tag_206:\n        /* \"contracts/token/ERC721/ERC721.sol\":16963:16964  0 */\n      0x00\n        /* \"contracts/token/ERC721/ERC721.sol\":16949:16965  to != address(0) */\n      0xffffffffffffffffffffffffffffffffffffffff\n      and\n        /* \"contracts/token/ERC721/ERC721.sol\":16949:16951  to */\n      dup3\n        /* \"contracts/token/ERC721/ERC721.sol\":16949:16965  to != address(0) */\n      0xffffffffffffffffffffffffffffffffffffffff\n      and\n      eq\n      iszero\n        /* \"contracts/token/ERC721/ERC721.sol\":16941:17002  require(to != address(0), \"ERC721: mint to the zero address\") */\n      tag_287\n      jumpi\n      mload(0x40)\n      0x08c379a000000000000000000000000000000000000000000000000000000000\n      dup2\n      mstore\n      0x04\n      add\n      tag_288\n      swap1\n      jump(tag_289)\n    tag_288:\n      mload(0x40)\n      dup1\n      swap2\n      sub\n      swap1\n      revert\n    tag_287:\n        /* \"contracts/token/ERC721/ERC721.sol\":17021:17037  _exists(tokenId) */\n      tag_290\n        /* \"contracts/token/ERC721/ERC721.sol\":17029:17036  tokenId */\n      dup2\n        /* \"contracts/token/ERC721/ERC721.sol\":17021:17028  _exists */\n      tag_110\n        /* \"contracts/token/ERC721/ERC721.sol\":17021:17037  _exists(tokenId) */\n      jump\t// in\n    tag_290:\n        /* \"contracts/token/ERC721/ERC721.sol\":17020:17037  !_exists(tokenId) */\n      iszero\n        /* \"contracts/token/ERC721/ERC721.sol\":17012:17070  require(!_exists(tokenId), \"ERC721: token already minted\") */\n      tag_291\n      jumpi\n      mload(0x40)\n      0x08c379a000000000000000000000000000000000000000000000000000000000\n      dup2\n      mstore\n      0x04\n      add\n      tag_292\n      swap1\n      jump(tag_293)\n    tag_292:\n      mload(0x40)\n      dup1\n      swap2\n      sub\n      swap1\n      revert\n    tag_291:\n        /* \"contracts/token/ERC721/ERC721.sol\":17081:17126  _beforeTokenTransfer(address(0), to, tokenId) */\n      tag_294\n        /* \"contracts/token/ERC721/ERC721.sol\":17110:17111  0 */\n      0x00\n        /* \"contracts/token/ERC721/ERC721.sol\":17114:17116  to */\n      dup4\n        /* \"contracts/token/ERC721/ERC721.sol\":17118:17125  tokenId */\n      dup4\n        /* \"contracts/token/ERC721/ERC721.sol\":17081:17101  _beforeTokenTransfer */\n      tag_238\n        /* \"contracts/token/ERC721/ERC721.sol\":17081:17126  _beforeTokenTransfer(address(0), to, tokenId) */\n      jump\t// in\n    tag_294:\n        /* \"contracts/token/ERC721/ERC721.sol\":17137:17167  _holderTokens[to].add(tokenId) */\n      tag_295\n        /* \"contracts/token/ERC721/ERC721.sol\":17159:17166  tokenId */\n      dup2\n        /* \"contracts/token/ERC721/ERC721.sol\":17137:17150  _holderTokens */\n      0x01\n        /* \"contracts/token/ERC721/ERC721.sol\":17137:17154  _holderTokens[to] */\n      0x00\n        /* \"contracts/token/ERC721/ERC721.sol\":17151:17153  to */\n      dup6\n        /* \"contracts/token/ERC721/ERC721.sol\":17137:17154  _holderTokens[to] */\n      0xffffffffffffffffffffffffffffffffffffffff\n      and\n      0xffffffffffffffffffffffffffffffffffffffff\n      and\n      dup2\n      mstore\n      0x20\n      add\n      swap1\n      dup2\n      mstore\n      0x20\n      add\n      0x00\n      keccak256\n        /* \"contracts/token/ERC721/ERC721.sol\":17137:17158  _holderTokens[to].add */\n      tag_243\n      swap1\n        /* \"contracts/token/ERC721/ERC721.sol\":17137:17167  _holderTokens[to].add(tokenId) */\n      swap2\n      swap1\n      0xffffffff\n      and\n      jump\t// in\n    tag_295:\n      pop\n        /* \"contracts/token/ERC721/ERC721.sol\":17178:17207  _tokenOwners.set(tokenId, to) */\n      tag_296\n        /* \"contracts/token/ERC721/ERC721.sol\":17195:17202  tokenId */\n      dup2\n        /* \"contracts/token/ERC721/ERC721.sol\":17204:17206  to */\n      dup4\n        /* \"contracts/token/ERC721/ERC721.sol\":17178:17190  _tokenOwners */\n      0x02\n        /* \"contracts/token/ERC721/ERC721.sol\":17178:17194  _tokenOwners.set */\n      tag_245\n      swap1\n        /* \"contracts/token/ERC721/ERC721.sol\":17178:17207  _tokenOwners.set(tokenId, to) */\n      swap3\n      swap2\n      swap1\n      0xffffffff\n      and\n      jump\t// in\n    tag_296:\n      pop\n        /* \"contracts/token/ERC721/ERC721.sol\":17248:17255  tokenId */\n      dup1\n        /* \"contracts/token/ERC721/ERC721.sol\":17244:17246  to */\n      dup3\n        /* \"contracts/token/ERC721/ERC721.sol\":17223:17256  Transfer(address(0), to, tokenId) */\n      0xffffffffffffffffffffffffffffffffffffffff\n      and\n        /* \"contracts/token/ERC721/ERC721.sol\":17240:17241  0 */\n      0x00\n        /* \"contracts/token/ERC721/ERC721.sol\":17223:17256  Transfer(address(0), to, tokenId) */\n      0xffffffffffffffffffffffffffffffffffffffff\n      and\n      0xddf252ad1be2c89b69c2b068fc378daa952ba7f163c4a11628f55a4df523b3ef\n      mload(0x40)\n      mload(0x40)\n      dup1\n      swap2\n      sub\n      swap1\n      log4\n        /* \"contracts/token/ERC721/ERC721.sol\":16870:17263  function _mint(address to, uint256 tokenId) internal virtual {... */\n      pop\n      pop\n      jump\t// out\n        /* \"contracts/token/ERC721/ERC721.sol\":19215:19427  function _setTokenURI(uint256 tokenId, string memory _tokenURI) internal virtual {... */\n    tag_208:\n        /* \"contracts/token/ERC721/ERC721.sol\":19314:19330  _exists(tokenId) */\n      tag_298\n        /* \"contracts/token/ERC721/ERC721.sol\":19322:19329  tokenId */\n      dup3\n        /* \"contracts/token/ERC721/ERC721.sol\":19314:19321  _exists */\n      tag_110\n        /* \"contracts/token/ERC721/ERC721.sol\":19314:19330  _exists(tokenId) */\n      jump\t// in\n    tag_298:\n        /* \"contracts/token/ERC721/ERC721.sol\":19306:19379  require(_exists(tokenId), \"ERC721Metadata: URI set of nonexistent token\") */\n      tag_299\n      jumpi\n      mload(0x40)\n      0x08c379a000000000000000000000000000000000000000000000000000000000\n      dup2\n      mstore\n      0x04\n      add\n      tag_300\n      swap1\n      jump(tag_301)\n    tag_300:\n      mload(0x40)\n      dup1\n      swap2\n      sub\n      swap1\n      revert\n    tag_299:\n        /* \"contracts/token/ERC721/ERC721.sol\":19411:19420  _tokenURI */\n      dup1\n        /* \"contracts/token/ERC721/ERC721.sol\":19389:19399  _tokenURIs */\n      0x08\n        /* \"contracts/token/ERC721/ERC721.sol\":19389:19408  _tokenURIs[tokenId] */\n      0x00\n        /* \"contracts/token/ERC721/ERC721.sol\":19400:19407  tokenId */\n      dup5\n        /* \"contracts/token/ERC721/ERC721.sol\":19389:19408  _tokenURIs[tokenId] */\n      dup2\n      mstore\n      0x20\n      add\n      swap1\n      dup2\n      mstore\n      0x20\n      add\n      0x00\n      keccak256\n        /* \"contracts/token/ERC721/ERC721.sol\":19389:19420  _tokenURIs[tokenId] = _tokenURI */\n      swap1\n      dup1\n      mload\n      swap1\n      0x20\n      add\n      swap1\n      tag_302\n      swap3\n      swap2\n      swap1\n      tag_303\n      jump\t// in\n    tag_302:\n      pop\n        /* \"contracts/token/ERC721/ERC721.sol\":19215:19427  function _setTokenURI(uint256 tokenId, string memory _tokenURI) internal virtual {... */\n      pop\n      pop\n      jump\t// out\n        /* \"contracts/utils/EnumerableMap.sol\":6758:6907  function contains(UintToAddressMap storage map, uint256 key) internal view returns (bool) {... */\n    tag_212:\n        /* \"contracts/utils/EnumerableMap.sol\":6842:6846  bool */\n      0x00\n        /* \"contracts/utils/EnumerableMap.sol\":6865:6900  _contains(map._inner, bytes32(key)) */\n      tag_305\n        /* \"contracts/utils/EnumerableMap.sol\":6875:6878  map */\n      dup4\n        /* \"contracts/utils/EnumerableMap.sol\":6875:6885  map._inner */\n      0x00\n      add\n        /* \"contracts/utils/EnumerableMap.sol\":6895:6898  key */\n      dup4\n        /* \"contracts/utils/EnumerableMap.sol\":6887:6899  bytes32(key) */\n      0x00\n      shl\n        /* \"contracts/utils/EnumerableMap.sol\":6865:6874  _contains */\n      tag_306\n        /* \"contracts/utils/EnumerableMap.sol\":6865:6900  _contains(map._inner, bytes32(key)) */\n      jump\t// in\n    tag_305:\n        /* \"contracts/utils/EnumerableMap.sol\":6858:6900  return _contains(map._inner, bytes32(key)) */\n      swap1\n      pop\n        /* \"contracts/utils/EnumerableMap.sol\":6758:6907  function contains(UintToAddressMap storage map, uint256 key) internal view returns (bool) {... */\n      swap3\n      swap2\n      pop\n      pop\n      jump\t// out\n        /* \"contracts/utils/EnumerableMap.sol\":4450:4558  function _length(Map storage map) private view returns (uint256) {... */\n    tag_218:\n        /* \"contracts/utils/EnumerableMap.sol\":4506:4513  uint256 */\n      0x00\n        /* \"contracts/utils/EnumerableMap.sol\":4532:4535  map */\n      dup2\n        /* \"contracts/utils/EnumerableMap.sol\":4532:4544  map._entries */\n      0x00\n      add\n        /* \"contracts/utils/EnumerableMap.sol\":4532:4551  map._entries.length */\n      dup1\n      sload\n      swap1\n      pop\n        /* \"contracts/utils/EnumerableMap.sol\":4525:4551  return map._entries.length */\n      swap1\n      pop\n        /* \"contracts/utils/EnumerableMap.sol\":4450:4558  function _length(Map storage map) private view returns (uint256) {... */\n      swap2\n      swap1\n      pop\n      jump\t// out\n        /* \"contracts/token/ERC721/ERC721.sol\":22068:22161  function _beforeTokenTransfer(address from, address to, uint256 tokenId) internal virtual { } */\n    tag_238:\n      pop\n      pop\n      pop\n      jump\t// out\n        /* \"contracts/utils/EnumerableSet.sol\":6731:6866  function remove(UintSet storage set, uint256 value) internal returns (bool) {... */\n    tag_241:\n        /* \"contracts/utils/EnumerableSet.sol\":6801:6805  bool */\n      0x00\n        /* \"contracts/utils/EnumerableSet.sol\":6824:6859  _remove(set._inner, bytes32(value)) */\n      tag_310\n        /* \"contracts/utils/EnumerableSet.sol\":6832:6835  set */\n      dup4\n        /* \"contracts/utils/EnumerableSet.sol\":6832:6842  set._inner */\n      0x00\n      add\n        /* \"contracts/utils/EnumerableSet.sol\":6852:6857  value */\n      dup4\n        /* \"contracts/utils/EnumerableSet.sol\":6844:6858  bytes32(value) */\n      0x00\n      shl\n        /* \"contracts/utils/EnumerableSet.sol\":6824:6831  _remove */\n      tag_311\n        /* \"contracts/utils/EnumerableSet.sol\":6824:6859  _remove(set._inner, bytes32(value)) */\n      jump\t// in\n    tag_310:\n        /* \"contracts/utils/EnumerableSet.sol\":6817:6859  return _remove(set._inner, bytes32(value)) */\n      swap1\n      pop\n        /* \"contracts/utils/EnumerableSet.sol\":6731:6866  function remove(UintSet storage set, uint256 value) internal returns (bool) {... */\n      swap3\n      swap2\n      pop\n      pop\n      jump\t// out\n        /* \"contracts/utils/EnumerableSet.sol\":6434:6563  function add(UintSet storage set, uint256 value) internal returns (bool) {... */\n    tag_243:\n        /* \"contracts/utils/EnumerableSet.sol\":6501:6505  bool */\n      0x00\n        /* \"contracts/utils/EnumerableSet.sol\":6524:6556  _add(set._inner, bytes32(value)) */\n      tag_313\n        /* \"contracts/utils/EnumerableSet.sol\":6529:6532  set */\n      dup4\n        /* \"contracts/utils/EnumerableSet.sol\":6529:6539  set._inner */\n      0x00\n      add\n        /* \"contracts/utils/EnumerableSet.sol\":6549:6554  value */\n      dup4\n        /* \"contracts/utils/EnumerableSet.sol\":6541:6555  bytes32(value) */\n      0x00\n      shl\n        /* \"contracts/utils/EnumerableSet.sol\":6524:6528  _add */\n      tag_314\n        /* \"contracts/utils/EnumerableSet.sol\":6524:6556  _add(set._inner, bytes32(value)) */\n      jump\t// in\n    tag_313:\n        /* \"contracts/utils/EnumerableSet.sol\":6517:6556  return _add(set._inner, bytes32(value)) */\n      swap1\n      pop\n        /* \"contracts/utils/EnumerableSet.sol\":6434:6563  function add(UintSet storage set, uint256 value) internal returns (bool) {... */\n      swap3\n      swap2\n      pop\n      pop\n      jump\t// out\n        /* \"contracts/utils/EnumerableMap.sol\":6206:6380  function set(UintToAddressMap storage map, uint256 key, address value) internal returns (bool) {... */\n    tag_245:\n        /* \"contracts/utils/EnumerableMap.sol\":6295:6299  bool */\n      0x00\n        /* \"contracts/utils/EnumerableMap.sol\":6318:6373  _set(map._inner, bytes32(key), bytes32(uint256(value))) */\n      tag_316\n        /* \"contracts/utils/EnumerableMap.sol\":6323:6326  map */\n      dup5\n        /* \"contracts/utils/EnumerableMap.sol\":6323:6333  map._inner */\n      0x00\n      add\n        /* \"contracts/utils/EnumerableMap.sol\":6343:6346  key */\n      dup5\n        /* \"contracts/utils/EnumerableMap.sol\":6335:6347  bytes32(key) */\n      0x00\n      shl\n        /* \"contracts/utils/EnumerableMap.sol\":6365:6370  value */\n      dup5\n        /* \"contracts/utils/EnumerableMap.sol\":6357:6371  uint256(value) */\n      0xffffffffffffffffffffffffffffffffffffffff\n      and\n        /* \"contracts/utils/EnumerableMap.sol\":6349:6372  bytes32(uint256(value)) */\n      0x00\n      shl\n        /* \"contracts/utils/EnumerableMap.sol\":6318:6322  _set */\n      tag_317\n        /* \"contracts/utils/EnumerableMap.sol\":6318:6373  _set(map._inner, bytes32(key), bytes32(uint256(value))) */\n      jump\t// in\n    tag_316:\n        /* \"contracts/utils/EnumerableMap.sol\":6311:6373  return _set(map._inner, bytes32(key), bytes32(uint256(value))) */\n      swap1\n      pop\n        /* \"contracts/utils/EnumerableMap.sol\":6206:6380  function set(UintToAddressMap storage map, uint256 key, address value) internal returns (bool) {... */\n      swap4\n      swap3\n      pop\n      pop\n      pop\n      jump\t// out\n        /* \"contracts/utils/EnumerableSet.sol\":4390:4591  function _at(Set storage set, uint256 index) private view returns (bytes32) {... */\n    tag_248:\n        /* \"contracts/utils/EnumerableSet.sol\":4457:4464  bytes32 */\n      0x00\n        /* \"contracts/utils/EnumerableSet.sol\":4505:4510  index */\n      dup2\n        /* \"contracts/utils/EnumerableSet.sol\":4484:4487  set */\n      dup4\n        /* \"contracts/utils/EnumerableSet.sol\":4484:4495  set._values */\n      0x00\n      add\n        /* \"contracts/utils/EnumerableSet.sol\":4484:4502  set._values.length */\n      dup1\n      sload\n      swap1\n      pop\n        /* \"contracts/utils/EnumerableSet.sol\":4484:4510  set._values.length > index */\n      gt\n        /* \"contracts/utils/EnumerableSet.sol\":4476:4549  require(set._values.length > index, \"EnumerableSet: index out of bounds\") */\n      tag_319\n      jumpi\n      mload(0x40)\n      0x08c379a000000000000000000000000000000000000000000000000000000000\n      dup2\n      mstore\n      0x04\n      add\n      tag_320\n      swap1\n      jump(tag_321)\n    tag_320:\n      mload(0x40)\n      dup1\n      swap2\n      sub\n      swap1\n      revert\n    tag_319:\n        /* \"contracts/utils/EnumerableSet.sol\":4566:4569  set */\n      dup3\n        /* \"contracts/utils/EnumerableSet.sol\":4566:4577  set._values */\n      0x00\n      add\n        /* \"contracts/utils/EnumerableSet.sol\":4578:4583  index */\n      dup3\n        /* \"contracts/utils/EnumerableSet.sol\":4566:4584  set._values[index] */\n      dup2\n      sload\n      dup2\n      lt\n      tag_322\n      jumpi\n      invalid\n    tag_322:\n      swap1\n      0x00\n      mstore\n      keccak256(0x00, 0x20)\n      add\n      sload\n        /* \"contracts/utils/EnumerableSet.sol\":4559:4584  return set._values[index] */\n      swap1\n      pop\n        /* \"contracts/utils/EnumerableSet.sol\":4390:4591  function _at(Set storage set, uint256 index) private view returns (bytes32) {... */\n      swap3\n      swap2\n      pop\n      pop\n      jump\t// out\n        /* \"contracts/utils/EnumerableMap.sol\":6539:6679  function remove(UintToAddressMap storage map, uint256 key) internal returns (bool) {... */\n    tag_258:\n        /* \"contracts/utils/EnumerableMap.sol\":6616:6620  bool */\n      0x00\n        /* \"contracts/utils/EnumerableMap.sol\":6639:6672  _remove(map._inner, bytes32(key)) */\n      tag_325\n        /* \"contracts/utils/EnumerableMap.sol\":6647:6650  map */\n      dup4\n        /* \"contracts/utils/EnumerableMap.sol\":6647:6657  map._inner */\n      0x00\n      add\n        /* \"contracts/utils/EnumerableMap.sol\":6667:6670  key */\n      dup4\n        /* \"contracts/utils/EnumerableMap.sol\":6659:6671  bytes32(key) */\n      0x00\n      shl\n        /* \"contracts/utils/EnumerableMap.sol\":6639:6646  _remove */\n      tag_326\n        /* \"contracts/utils/EnumerableMap.sol\":6639:6672  _remove(map._inner, bytes32(key)) */\n      jump\t// in\n    tag_325:\n        /* \"contracts/utils/EnumerableMap.sol\":6632:6672  return _remove(map._inner, bytes32(key)) */\n      swap1\n      pop\n        /* \"contracts/utils/EnumerableMap.sol\":6539:6679  function remove(UintToAddressMap storage map, uint256 key) internal returns (bool) {... */\n      swap3\n      swap2\n      pop\n      pop\n      jump\t// out\n        /* \"contracts/utils/EnumerableMap.sol\":4901:5175  function _at(Map storage map, uint256 index) private view returns (bytes32, bytes32) {... */\n    tag_261:\n        /* \"contracts/utils/EnumerableMap.sol\":4968:4975  bytes32 */\n      0x00\n        /* \"contracts/utils/EnumerableMap.sol\":4977:4984  bytes32 */\n      dup1\n        /* \"contracts/utils/EnumerableMap.sol\":5026:5031  index */\n      dup3\n        /* \"contracts/utils/EnumerableMap.sol\":5004:5007  map */\n      dup5\n        /* \"contracts/utils/EnumerableMap.sol\":5004:5016  map._entries */\n      0x00\n      add\n        /* \"contracts/utils/EnumerableMap.sol\":5004:5023  map._entries.length */\n      dup1\n      sload\n      swap1\n      pop\n        /* \"contracts/utils/EnumerableMap.sol\":5004:5031  map._entries.length > index */\n      gt\n        /* \"contracts/utils/EnumerableMap.sol\":4996:5070  require(map._entries.length > index, \"EnumerableMap: index out of bounds\") */\n      tag_328\n      jumpi\n      mload(0x40)\n      0x08c379a000000000000000000000000000000000000000000000000000000000\n      dup2\n      mstore\n      0x04\n      add\n      tag_329\n      swap1\n      jump(tag_330)\n    tag_329:\n      mload(0x40)\n      dup1\n      swap2\n      sub\n      swap1\n      revert\n    tag_328:\n        /* \"contracts/utils/EnumerableMap.sol\":5081:5103  MapEntry storage entry */\n      0x00\n        /* \"contracts/utils/EnumerableMap.sol\":5106:5109  map */\n      dup5\n        /* \"contracts/utils/EnumerableMap.sol\":5106:5118  map._entries */\n      0x00\n      add\n        /* \"contracts/utils/EnumerableMap.sol\":5119:5124  index */\n      dup5\n        /* \"contracts/utils/EnumerableMap.sol\":5106:5125  map._entries[index] */\n      dup2\n      sload\n      dup2\n      lt\n      tag_331\n      jumpi\n      invalid\n    tag_331:\n      swap1\n      0x00\n      mstore\n      keccak256(0x00, 0x20)\n      swap1\n      0x02\n      mul\n      add\n        /* \"contracts/utils/EnumerableMap.sol\":5081:5125  MapEntry storage entry = map._entries[index] */\n      swap1\n      pop\n        /* \"contracts/utils/EnumerableMap.sol\":5143:5148  entry */\n      dup1\n        /* \"contracts/utils/EnumerableMap.sol\":5143:5153  entry._key */\n      0x00\n      add\n      sload\n        /* \"contracts/utils/EnumerableMap.sol\":5155:5160  entry */\n      dup2\n        /* \"contracts/utils/EnumerableMap.sol\":5155:5167  entry._value */\n      0x01\n      add\n      sload\n        /* \"contracts/utils/EnumerableMap.sol\":5135:5168  return (entry._key, entry._value) */\n      swap3\n      pop\n      swap3\n      pop\n      pop\n        /* \"contracts/utils/EnumerableMap.sol\":4901:5175  function _at(Map storage map, uint256 index) private view returns (bytes32, bytes32) {... */\n      swap3\n      pop\n      swap3\n      swap1\n      pop\n      jump\t// out\n        /* \"contracts/utils/EnumerableMap.sol\":5582:5897  function _get(Map storage map, bytes32 key, string memory errorMessage) private view returns (bytes32) {... */\n    tag_264:\n        /* \"contracts/utils/EnumerableMap.sol\":5676:5683  bytes32 */\n      0x00\n        /* \"contracts/utils/EnumerableMap.sol\":5695:5711  uint256 keyIndex */\n      dup1\n        /* \"contracts/utils/EnumerableMap.sol\":5714:5717  map */\n      dup5\n        /* \"contracts/utils/EnumerableMap.sol\":5714:5726  map._indexes */\n      0x01\n      add\n        /* \"contracts/utils/EnumerableMap.sol\":5714:5731  map._indexes[key] */\n      0x00\n        /* \"contracts/utils/EnumerableMap.sol\":5727:5730  key */\n      dup6\n        /* \"contracts/utils/EnumerableMap.sol\":5714:5731  map._indexes[key] */\n      dup2\n      mstore\n      0x20\n      add\n      swap1\n      dup2\n      mstore\n      0x20\n      add\n      0x00\n      keccak256\n      sload\n        /* \"contracts/utils/EnumerableMap.sol\":5695:5731  uint256 keyIndex = map._indexes[key] */\n      swap1\n      pop\n        /* \"contracts/utils/EnumerableMap.sol\":5761:5762  0 */\n      0x00\n        /* \"contracts/utils/EnumerableMap.sol\":5749:5757  keyIndex */\n      dup2\n        /* \"contracts/utils/EnumerableMap.sol\":5749:5762  keyIndex != 0 */\n      eq\n      iszero\n        /* \"contracts/utils/EnumerableMap.sol\":5764:5776  errorMessage */\n      dup4\n        /* \"contracts/utils/EnumerableMap.sol\":5741:5777  require(keyIndex != 0, errorMessage) */\n      swap1\n      tag_334\n      jumpi\n      mload(0x40)\n      0x08c379a000000000000000000000000000000000000000000000000000000000\n      dup2\n      mstore\n      0x04\n      add\n      tag_335\n      swap2\n      swap1\n      jump(tag_34)\n    tag_335:\n      mload(0x40)\n      dup1\n      swap2\n      sub\n      swap1\n      revert\n    tag_334:\n      pop\n        /* \"contracts/utils/EnumerableMap.sol\":5830:5833  map */\n      dup5\n        /* \"contracts/utils/EnumerableMap.sol\":5830:5842  map._entries */\n      0x00\n      add\n        /* \"contracts/utils/EnumerableMap.sol\":5854:5855  1 */\n      0x01\n        /* \"contracts/utils/EnumerableMap.sol\":5843:5851  keyIndex */\n      dup3\n        /* \"contracts/utils/EnumerableMap.sol\":5843:5855  keyIndex - 1 */\n      sub\n        /* \"contracts/utils/EnumerableMap.sol\":5830:5856  map._entries[keyIndex - 1] */\n      dup2\n      sload\n      dup2\n      lt\n      tag_336\n      jumpi\n      invalid\n    tag_336:\n      swap1\n      0x00\n      mstore\n      keccak256(0x00, 0x20)\n      swap1\n      0x02\n      mul\n      add\n        /* \"contracts/utils/EnumerableMap.sol\":5830:5863  map._entries[keyIndex - 1]._value */\n      0x01\n      add\n      sload\n        /* \"contracts/utils/EnumerableMap.sol\":5823:5863  return map._entries[keyIndex - 1]._value */\n      swap2\n      pop\n      pop\n        /* \"contracts/utils/EnumerableMap.sol\":5582:5897  function _get(Map storage map, bytes32 key, string memory errorMessage) private view returns (bytes32) {... */\n      swap4\n      swap3\n      pop\n      pop\n      pop\n      jump\t// out\n        /* \"contracts/utils/EnumerableSet.sol\":3951:4058  function _length(Set storage set) private view returns (uint256) {... */\n    tag_267:\n        /* \"contracts/utils/EnumerableSet.sol\":4007:4014  uint256 */\n      0x00\n        /* \"contracts/utils/EnumerableSet.sol\":4033:4036  set */\n      dup2\n        /* \"contracts/utils/EnumerableSet.sol\":4033:4044  set._values */\n      0x00\n      add\n        /* \"contracts/utils/EnumerableSet.sol\":4033:4051  set._values.length */\n      dup1\n      sload\n      swap1\n      pop\n        /* \"contracts/utils/EnumerableSet.sol\":4026:4051  return set._values.length */\n      swap1\n      pop\n        /* \"contracts/utils/EnumerableSet.sol\":3951:4058  function _length(Set storage set) private view returns (uint256) {... */\n      swap2\n      swap1\n      pop\n      jump\t// out\n        /* \"contracts/token/ERC721/ERC721.sol\":20301:21351  function _checkOnERC721Received(address from, address to, uint256 tokenId, bytes memory _data)... */\n    tag_271:\n        /* \"contracts/token/ERC721/ERC721.sol\":20421:20425  bool */\n      0x00\n        /* \"contracts/token/ERC721/ERC721.sol\":20446:20461  to.isContract() */\n      tag_340\n        /* \"contracts/token/ERC721/ERC721.sol\":20446:20448  to */\n      dup5\n        /* \"contracts/token/ERC721/ERC721.sol\":20446:20459  to.isContract */\n      0xffffffffffffffffffffffffffffffffffffffff\n      and\n      tag_341\n        /* \"contracts/token/ERC721/ERC721.sol\":20446:20461  to.isContract() */\n      jump\t// in\n    tag_340:\n        /* \"contracts/token/ERC721/ERC721.sol\":20441:20499  if (!to.isContract()) {... */\n      tag_342\n      jumpi\n        /* \"contracts/token/ERC721/ERC721.sol\":20484:20488  true */\n      0x01\n        /* \"contracts/token/ERC721/ERC721.sol\":20477:20488  return true */\n      swap1\n      pop\n      jump(tag_339)\n        /* \"contracts/token/ERC721/ERC721.sol\":20441:20499  if (!to.isContract()) {... */\n    tag_342:\n        /* \"contracts/token/ERC721/ERC721.sol\":20568:20580  bool success */\n      0x00\n        /* \"contracts/token/ERC721/ERC721.sol\":20582:20605  bytes memory returndata */\n      0x60\n        /* \"contracts/token/ERC721/ERC721.sol\":20609:20611  to */\n      dup6\n        /* \"contracts/token/ERC721/ERC721.sol\":20609:20616  to.call */\n      0xffffffffffffffffffffffffffffffffffffffff\n      and\n        /* \"contracts/token/ERC721/ERC721.sol\":20653:20698  IERC721Receiver(to).onERC721Received.selector */\n      shl(0xe0, 0x150b7a02)\n        /* \"contracts/token/ERC721/ERC721.sol\":20712:20724  _msgSender() */\n      tag_343\n        /* \"contracts/token/ERC721/ERC721.sol\":20712:20722  _msgSender */\n      tag_120\n        /* \"contracts/token/ERC721/ERC721.sol\":20712:20724  _msgSender() */\n      jump\t// in\n    tag_343:\n        /* \"contracts/token/ERC721/ERC721.sol\":20738:20742  from */\n      dup10\n        /* \"contracts/token/ERC721/ERC721.sol\":20756:20763  tokenId */\n      dup9\n        /* \"contracts/token/ERC721/ERC721.sol\":20777:20782  _data */\n      dup9\n        /* \"contracts/token/ERC721/ERC721.sol\":20617:20792  abi.encodeWithSelector(... */\n      add(0x24, mload(0x40))\n      tag_344\n      swap5\n      swap4\n      swap3\n      swap2\n      swap1\n      jump(tag_345)\n    tag_344:\n      mload(0x40)\n        /* \"--CODEGEN--\":49:53   */\n      0x20\n        /* \"--CODEGEN--\":39:46   */\n      dup2\n        /* \"--CODEGEN--\":30:37   */\n      dup4\n        /* \"--CODEGEN--\":26:47   */\n      sub\n        /* \"--CODEGEN--\":22:54   */\n      sub\n        /* \"--CODEGEN--\":13:20   */\n      dup2\n        /* \"--CODEGEN--\":6:55   */\n      mstore\n        /* \"contracts/token/ERC721/ERC721.sol\":20617:20792  abi.encodeWithSelector(... */\n      swap1\n      0x40\n      mstore\n      swap1\n      not(0xffffffffffffffffffffffffffffffffffffffffffffffffffffffff)\n      and\n        /* \"--CODEGEN--\":38:42   */\n      0x20\n        /* \"--CODEGEN--\":29:36   */\n      dup3\n        /* \"--CODEGEN--\":25:43   */\n      add\n        /* \"--CODEGEN--\":67:77   */\n      dup1\n        /* \"--CODEGEN--\":61:78   */\n      mload\n        /* \"--CODEGEN--\":96:154   */\n      0xffffffffffffffffffffffffffffffffffffffffffffffffffffffff\n        /* \"--CODEGEN--\":199:207   */\n      dup4\n        /* \"--CODEGEN--\":192:196   */\n      dup2\n        /* \"--CODEGEN--\":186:190   */\n      dup4\n        /* \"--CODEGEN--\":182:197   */\n      and\n        /* \"--CODEGEN--\":179:208   */\n      or\n        /* \"--CODEGEN--\":167:177   */\n      dup4\n        /* \"--CODEGEN--\":160:209   */\n      mstore\n        /* \"--CODEGEN--\":0:215   */\n      pop\n      pop\n      pop\n        /* \"contracts/token/ERC721/ERC721.sol\":20617:20792  abi.encodeWithSelector(... */\n      pop\n        /* \"contracts/token/ERC721/ERC721.sol\":20609:20793  to.call(abi.encodeWithSelector(... */\n      mload(0x40)\n      tag_346\n      swap2\n      swap1\n      jump(tag_347)\n    tag_346:\n      0x00\n      mload(0x40)\n      dup1\n      dup4\n      sub\n      dup2\n      0x00\n      dup7\n      gas\n      call\n      swap2\n      pop\n      pop\n      returndatasize\n        /* \"--CODEGEN--\":12:13   */\n      dup1\n        /* \"--CODEGEN--\":19:20   */\n      0x00\n        /* \"--CODEGEN--\":14:41   */\n      dup2\n      eq\n      tag_350\n      jumpi\n        /* \"--CODEGEN--\":67:71   */\n      0x40\n        /* \"--CODEGEN--\":61:72   */\n      mload\n        /* \"--CODEGEN--\":56:72   */\n      swap2\n      pop\n        /* \"--CODEGEN--\":134:138   */\n      0x1f\n        /* \"--CODEGEN--\":130:139   */\n      not\n        /* \"--CODEGEN--\":123:127   */\n      0x3f\n        /* \"--CODEGEN--\":105:121   */\n      returndatasize\n        /* \"--CODEGEN--\":101:128   */\n      add\n        /* \"--CODEGEN--\":97:140   */\n      and\n        /* \"--CODEGEN--\":94:95   */\n      dup3\n        /* \"--CODEGEN--\":90:141   */\n      add\n        /* \"--CODEGEN--\":84:88   */\n      0x40\n        /* \"--CODEGEN--\":77:142   */\n      mstore\n        /* \"--CODEGEN--\":157:173   */\n      returndatasize\n        /* \"--CODEGEN--\":154:155   */\n      dup3\n        /* \"--CODEGEN--\":147:174   */\n      mstore\n        /* \"--CODEGEN--\":211:227   */\n      returndatasize\n        /* \"--CODEGEN--\":208:209   */\n      0x00\n        /* \"--CODEGEN--\":201:205   */\n      0x20\n        /* \"--CODEGEN--\":198:199   */\n      dup5\n        /* \"--CODEGEN--\":194:206   */\n      add\n        /* \"--CODEGEN--\":179:228   */\n      returndatacopy\n        /* \"--CODEGEN--\":5:233   */\n      jump(tag_349)\n        /* \"--CODEGEN--\":14:41   */\n    tag_350:\n        /* \"--CODEGEN--\":32:36   */\n      0x60\n        /* \"--CODEGEN--\":27:36   */\n      swap2\n      pop\n        /* \"--CODEGEN--\":5:233   */\n    tag_349:\n      pop\n        /* \"contracts/token/ERC721/ERC721.sol\":20567:20793  (bool success, bytes memory returndata) = to.call(abi.encodeWithSelector(... */\n      swap2\n      pop\n      swap2\n      pop\n        /* \"contracts/token/ERC721/ERC721.sol\":20808:20815  success */\n      dup2\n        /* \"contracts/token/ERC721/ERC721.sol\":20803:21345  if (!success) {... */\n      tag_351\n      jumpi\n        /* \"contracts/token/ERC721/ERC721.sol\":20855:20856  0 */\n      0x00\n        /* \"contracts/token/ERC721/ERC721.sol\":20835:20845  returndata */\n      dup2\n        /* \"contracts/token/ERC721/ERC721.sol\":20835:20852  returndata.length */\n      mload\n        /* \"contracts/token/ERC721/ERC721.sol\":20835:20856  returndata.length > 0 */\n      gt\n        /* \"contracts/token/ERC721/ERC721.sol\":20831:21207  if (returndata.length > 0) {... */\n      iszero\n      tag_352\n      jumpi\n        /* \"contracts/token/ERC721/ERC721.sol\":21000:21010  returndata */\n      dup1\n        /* \"contracts/token/ERC721/ERC721.sol\":20994:21011  mload(returndata) */\n      mload\n        /* \"contracts/token/ERC721/ERC721.sol\":21060:21075  returndata_size */\n      dup1\n        /* \"contracts/token/ERC721/ERC721.sol\":21047:21057  returndata */\n      dup3\n        /* \"contracts/token/ERC721/ERC721.sol\":21043:21045  32 */\n      0x20\n        /* \"contracts/token/ERC721/ERC721.sol\":21039:21058  add(32, returndata) */\n      add\n        /* \"contracts/token/ERC721/ERC721.sol\":21032:21076  revert(add(32, returndata), returndata_size) */\n      revert\n        /* \"contracts/token/ERC721/ERC721.sol\":20949:21094  {... */\n    tag_352:\n        /* \"contracts/token/ERC721/ERC721.sol\":21132:21192  revert(\"ERC721: transfer to non ERC721Receiver implementer\") */\n      mload(0x40)\n      0x08c379a000000000000000000000000000000000000000000000000000000000\n      dup2\n      mstore\n      0x04\n      add\n      tag_354\n      swap1\n      jump(tag_274)\n    tag_354:\n      mload(0x40)\n      dup1\n      swap2\n      sub\n      swap1\n      revert\n        /* \"contracts/token/ERC721/ERC721.sol\":20803:21345  if (!success) {... */\n    tag_351:\n        /* \"contracts/token/ERC721/ERC721.sol\":21237:21250  bytes4 retval */\n      0x00\n        /* \"contracts/token/ERC721/ERC721.sol\":21264:21274  returndata */\n      dup2\n        /* \"contracts/token/ERC721/ERC721.sol\":21253:21285  abi.decode(returndata, (bytes4)) */\n      dup1\n      0x20\n      add\n      swap1\n      mload\n      dup2\n      add\n      swap1\n      tag_356\n      swap2\n      swap1\n      jump(tag_357)\n    tag_356:\n        /* \"contracts/token/ERC721/ERC721.sol\":21237:21285  bytes4 retval = abi.decode(returndata, (bytes4)) */\n      swap1\n      pop\n        /* \"contracts/token/ERC721/ERC721.sol\":1035:1045  0x150b7a02 */\n      0x150b7a02\n        /* \"contracts/token/ERC721/ERC721.sol\":21317:21333  _ERC721_RECEIVED */\n      0xe0\n      shl\n        /* \"contracts/token/ERC721/ERC721.sol\":21307:21333  retval == _ERC721_RECEIVED */\n      not(0xffffffffffffffffffffffffffffffffffffffffffffffffffffffff)\n      and\n        /* \"contracts/token/ERC721/ERC721.sol\":21307:21313  retval */\n      dup2\n        /* \"contracts/token/ERC721/ERC721.sol\":21307:21333  retval == _ERC721_RECEIVED */\n      not(0xffffffffffffffffffffffffffffffffffffffffffffffffffffffff)\n      and\n      eq\n        /* \"contracts/token/ERC721/ERC721.sol\":21299:21334  return (retval == _ERC721_RECEIVED) */\n      swap4\n      pop\n      pop\n      pop\n      pop\n        /* \"contracts/token/ERC721/ERC721.sol\":20301:21351  function _checkOnERC721Received(address from, address to, uint256 tokenId, bytes memory _data)... */\n    tag_339:\n      swap5\n      swap4\n      pop\n      pop\n      pop\n      pop\n      jump\t// out\n        /* \"contracts/utils/EnumerableMap.sol\":4237:4360  function _contains(Map storage map, bytes32 key) private view returns (bool) {... */\n    tag_306:\n        /* \"contracts/utils/EnumerableMap.sol\":4308:4312  bool */\n      0x00\n        /* \"contracts/utils/EnumerableMap.sol\":4352:4353  0 */\n      dup1\n        /* \"contracts/utils/EnumerableMap.sol\":4331:4334  map */\n      dup4\n        /* \"contracts/utils/EnumerableMap.sol\":4331:4343  map._indexes */\n      0x01\n      add\n        /* \"contracts/utils/EnumerableMap.sol\":4331:4348  map._indexes[key] */\n      0x00\n        /* \"contracts/utils/EnumerableMap.sol\":4344:4347  key */\n      dup5\n        /* \"contracts/utils/EnumerableMap.sol\":4331:4348  map._indexes[key] */\n      dup2\n      mstore\n      0x20\n      add\n      swap1\n      dup2\n      mstore\n      0x20\n      add\n      0x00\n      keccak256\n      sload\n        /* \"contracts/utils/EnumerableMap.sol\":4331:4353  map._indexes[key] != 0 */\n      eq\n      iszero\n        /* \"contracts/utils/EnumerableMap.sol\":4324:4353  return map._indexes[key] != 0 */\n      swap1\n      pop\n        /* \"contracts/utils/EnumerableMap.sol\":4237:4360  function _contains(Map storage map, bytes32 key) private view returns (bool) {... */\n      swap3\n      swap2\n      pop\n      pop\n      jump\t// out\n        /* \"contracts/utils/EnumerableSet.sol\":2150:3662  function _remove(Set storage set, bytes32 value) private returns (bool) {... */\n    tag_311:\n        /* \"contracts/utils/EnumerableSet.sol\":2216:2220  bool */\n      0x00\n        /* \"contracts/utils/EnumerableSet.sol\":2332:2350  uint256 valueIndex */\n      dup1\n        /* \"contracts/utils/EnumerableSet.sol\":2353:2356  set */\n      dup4\n        /* \"contracts/utils/EnumerableSet.sol\":2353:2365  set._indexes */\n      0x01\n      add\n        /* \"contracts/utils/EnumerableSet.sol\":2353:2372  set._indexes[value] */\n      0x00\n        /* \"contracts/utils/EnumerableSet.sol\":2366:2371  value */\n      dup5\n        /* \"contracts/utils/EnumerableSet.sol\":2353:2372  set._indexes[value] */\n      dup2\n      mstore\n      0x20\n      add\n      swap1\n      dup2\n      mstore\n      0x20\n      add\n      0x00\n      keccak256\n      sload\n        /* \"contracts/utils/EnumerableSet.sol\":2332:2372  uint256 valueIndex = set._indexes[value] */\n      swap1\n      pop\n        /* \"contracts/utils/EnumerableSet.sol\":2401:2402  0 */\n      0x00\n        /* \"contracts/utils/EnumerableSet.sol\":2387:2397  valueIndex */\n      dup2\n        /* \"contracts/utils/EnumerableSet.sol\":2387:2402  valueIndex != 0 */\n      eq\n        /* \"contracts/utils/EnumerableSet.sol\":2383:3656  if (valueIndex != 0) { // Equivalent to contains(set, value)... */\n      tag_360\n      jumpi\n        /* \"contracts/utils/EnumerableSet.sol\":2744:2765  uint256 toDeleteIndex */\n      0x00\n        /* \"contracts/utils/EnumerableSet.sol\":2781:2782  1 */\n      0x01\n        /* \"contracts/utils/EnumerableSet.sol\":2768:2778  valueIndex */\n      dup3\n        /* \"contracts/utils/EnumerableSet.sol\":2768:2782  valueIndex - 1 */\n      sub\n        /* \"contracts/utils/EnumerableSet.sol\":2744:2782  uint256 toDeleteIndex = valueIndex - 1 */\n      swap1\n      pop\n        /* \"contracts/utils/EnumerableSet.sol\":2796:2813  uint256 lastIndex */\n      0x00\n        /* \"contracts/utils/EnumerableSet.sol\":2837:2838  1 */\n      0x01\n        /* \"contracts/utils/EnumerableSet.sol\":2816:2819  set */\n      dup7\n        /* \"contracts/utils/EnumerableSet.sol\":2816:2827  set._values */\n      0x00\n      add\n        /* \"contracts/utils/EnumerableSet.sol\":2816:2834  set._values.length */\n      dup1\n      sload\n      swap1\n      pop\n        /* \"contracts/utils/EnumerableSet.sol\":2816:2838  set._values.length - 1 */\n      sub\n        /* \"contracts/utils/EnumerableSet.sol\":2796:2838  uint256 lastIndex = set._values.length - 1 */\n      swap1\n      pop\n        /* \"contracts/utils/EnumerableSet.sol\":3078:3095  bytes32 lastvalue */\n      0x00\n        /* \"contracts/utils/EnumerableSet.sol\":3098:3101  set */\n      dup7\n        /* \"contracts/utils/EnumerableSet.sol\":3098:3109  set._values */\n      0x00\n      add\n        /* \"contracts/utils/EnumerableSet.sol\":3110:3119  lastIndex */\n      dup3\n        /* \"contracts/utils/EnumerableSet.sol\":3098:3120  set._values[lastIndex] */\n      dup2\n      sload\n      dup2\n      lt\n      tag_361\n      jumpi\n      invalid\n    tag_361:\n      swap1\n      0x00\n      mstore\n      keccak256(0x00, 0x20)\n      add\n      sload\n        /* \"contracts/utils/EnumerableSet.sol\":3078:3120  bytes32 lastvalue = set._values[lastIndex] */\n      swap1\n      pop\n        /* \"contracts/utils/EnumerableSet.sol\":3241:3250  lastvalue */\n      dup1\n        /* \"contracts/utils/EnumerableSet.sol\":3212:3215  set */\n      dup8\n        /* \"contracts/utils/EnumerableSet.sol\":3212:3223  set._values */\n      0x00\n      add\n        /* \"contracts/utils/EnumerableSet.sol\":3224:3237  toDeleteIndex */\n      dup5\n        /* \"contracts/utils/EnumerableSet.sol\":3212:3238  set._values[toDeleteIndex] */\n      dup2\n      sload\n      dup2\n      lt\n      tag_363\n      jumpi\n      invalid\n    tag_363:\n      swap1\n      0x00\n      mstore\n      keccak256(0x00, 0x20)\n      add\n        /* \"contracts/utils/EnumerableSet.sol\":3212:3250  set._values[toDeleteIndex] = lastvalue */\n      dup2\n      swap1\n      sstore\n      pop\n        /* \"contracts/utils/EnumerableSet.sol\":3358:3359  1 */\n      0x01\n        /* \"contracts/utils/EnumerableSet.sol\":3342:3355  toDeleteIndex */\n      dup4\n        /* \"contracts/utils/EnumerableSet.sol\":3342:3359  toDeleteIndex + 1 */\n      add\n        /* \"contracts/utils/EnumerableSet.sol\":3316:3319  set */\n      dup8\n        /* \"contracts/utils/EnumerableSet.sol\":3316:3328  set._indexes */\n      0x01\n      add\n        /* \"contracts/utils/EnumerableSet.sol\":3316:3339  set._indexes[lastvalue] */\n      0x00\n        /* \"contracts/utils/EnumerableSet.sol\":3329:3338  lastvalue */\n      dup4\n        /* \"contracts/utils/EnumerableSet.sol\":3316:3339  set._indexes[lastvalue] */\n      dup2\n      mstore\n      0x20\n      add\n      swap1\n      dup2\n      mstore\n      0x20\n      add\n      0x00\n      keccak256\n        /* \"contracts/utils/EnumerableSet.sol\":3316:3359  set._indexes[lastvalue] = toDeleteIndex + 1 */\n      dup2\n      swap1\n      sstore\n      pop\n        /* \"contracts/utils/EnumerableSet.sol\":3465:3468  set */\n      dup7\n        /* \"contracts/utils/EnumerableSet.sol\":3465:3476  set._values */\n      0x00\n      add\n        /* \"contracts/utils/EnumerableSet.sol\":3465:3482  set._values.pop() */\n      dup1\n      sload\n      dup1\n      tag_365\n      jumpi\n      invalid\n    tag_365:\n      0x01\n      swap1\n      sub\n      dup2\n      dup2\n      swap1\n      0x00\n      mstore\n      keccak256(0x00, 0x20)\n      add\n      0x00\n      swap1\n      sstore\n      swap1\n      sstore\n        /* \"contracts/utils/EnumerableSet.sol\":3557:3560  set */\n      dup7\n        /* \"contracts/utils/EnumerableSet.sol\":3557:3569  set._indexes */\n      0x01\n      add\n        /* \"contracts/utils/EnumerableSet.sol\":3557:3576  set._indexes[value] */\n      0x00\n        /* \"contracts/utils/EnumerableSet.sol\":3570:3575  value */\n      dup8\n        /* \"contracts/utils/EnumerableSet.sol\":3557:3576  set._indexes[value] */\n      dup2\n      mstore\n      0x20\n      add\n      swap1\n      dup2\n      mstore\n      0x20\n      add\n      0x00\n      keccak256\n        /* \"contracts/utils/EnumerableSet.sol\":3550:3576  delete set._indexes[value] */\n      0x00\n      swap1\n      sstore\n        /* \"contracts/utils/EnumerableSet.sol\":3598:3602  true */\n      0x01\n        /* \"contracts/utils/EnumerableSet.sol\":3591:3602  return true */\n      swap5\n      pop\n      pop\n      pop\n      pop\n      pop\n      jump(tag_359)\n        /* \"contracts/utils/EnumerableSet.sol\":2383:3656  if (valueIndex != 0) { // Equivalent to contains(set, value)... */\n    tag_360:\n        /* \"contracts/utils/EnumerableSet.sol\":3640:3645  false */\n      0x00\n        /* \"contracts/utils/EnumerableSet.sol\":3633:3645  return false */\n      swap2\n      pop\n      pop\n        /* \"contracts/utils/EnumerableSet.sol\":2150:3662  function _remove(Set storage set, bytes32 value) private returns (bool) {... */\n    tag_359:\n      swap3\n      swap2\n      pop\n      pop\n      jump\t// out\n        /* \"contracts/utils/EnumerableSet.sol\":1578:1982  function _add(Set storage set, bytes32 value) private returns (bool) {... */\n    tag_314:\n        /* \"contracts/utils/EnumerableSet.sol\":1641:1645  bool */\n      0x00\n        /* \"contracts/utils/EnumerableSet.sol\":1662:1683  _contains(set, value) */\n      tag_369\n        /* \"contracts/utils/EnumerableSet.sol\":1672:1675  set */\n      dup4\n        /* \"contracts/utils/EnumerableSet.sol\":1677:1682  value */\n      dup4\n        /* \"contracts/utils/EnumerableSet.sol\":1662:1671  _contains */\n      tag_370\n        /* \"contracts/utils/EnumerableSet.sol\":1662:1683  _contains(set, value) */\n      jump\t// in\n    tag_369:\n        /* \"contracts/utils/EnumerableSet.sol\":1657:1976  if (!_contains(set, value)) {... */\n      tag_371\n      jumpi\n        /* \"contracts/utils/EnumerableSet.sol\":1699:1702  set */\n      dup3\n        /* \"contracts/utils/EnumerableSet.sol\":1699:1710  set._values */\n      0x00\n      add\n        /* \"contracts/utils/EnumerableSet.sol\":1716:1721  value */\n      dup3\n        /* \"contracts/utils/EnumerableSet.sol\":1699:1722  set._values.push(value) */\n      swap1\n      dup1\n        /* \"--CODEGEN--\":39:40   */\n      0x01\n        /* \"--CODEGEN--\":33:36   */\n      dup2\n        /* \"--CODEGEN--\":27:37   */\n      sload\n        /* \"--CODEGEN--\":23:41   */\n      add\n        /* \"--CODEGEN--\":57:67   */\n      dup1\n        /* \"--CODEGEN--\":52:55   */\n      dup3\n        /* \"--CODEGEN--\":45:68   */\n      sstore\n        /* \"--CODEGEN--\":79:89   */\n      dup1\n        /* \"--CODEGEN--\":72:89   */\n      swap2\n      pop\n        /* \"--CODEGEN--\":0:93   */\n      pop\n        /* \"contracts/utils/EnumerableSet.sol\":1699:1722  set._values.push(value) */\n      0x01\n      swap1\n      sub\n      swap1\n      0x00\n      mstore\n      keccak256(0x00, 0x20)\n      add\n      0x00\n      swap1\n      swap2\n      swap1\n      swap2\n      swap1\n      swap2\n      pop\n      sstore\n        /* \"contracts/utils/EnumerableSet.sol\":1879:1882  set */\n      dup3\n        /* \"contracts/utils/EnumerableSet.sol\":1879:1890  set._values */\n      0x00\n      add\n        /* \"contracts/utils/EnumerableSet.sol\":1879:1897  set._values.length */\n      dup1\n      sload\n      swap1\n      pop\n        /* \"contracts/utils/EnumerableSet.sol\":1857:1860  set */\n      dup4\n        /* \"contracts/utils/EnumerableSet.sol\":1857:1869  set._indexes */\n      0x01\n      add\n        /* \"contracts/utils/EnumerableSet.sol\":1857:1876  set._indexes[value] */\n      0x00\n        /* \"contracts/utils/EnumerableSet.sol\":1870:1875  value */\n      dup5\n        /* \"contracts/utils/EnumerableSet.sol\":1857:1876  set._indexes[value] */\n      dup2\n      mstore\n      0x20\n      add\n      swap1\n      dup2\n      mstore\n      0x20\n      add\n      0x00\n      keccak256\n        /* \"contracts/utils/EnumerableSet.sol\":1857:1897  set._indexes[value] = set._values.length */\n      dup2\n      swap1\n      sstore\n      pop\n        /* \"contracts/utils/EnumerableSet.sol\":1918:1922  true */\n      0x01\n        /* \"contracts/utils/EnumerableSet.sol\":1911:1922  return true */\n      swap1\n      pop\n      jump(tag_368)\n        /* \"contracts/utils/EnumerableSet.sol\":1657:1976  if (!_contains(set, value)) {... */\n    tag_371:\n        /* \"contracts/utils/EnumerableSet.sol\":1960:1965  false */\n      0x00\n        /* \"contracts/utils/EnumerableSet.sol\":1953:1965  return false */\n      swap1\n      pop\n        /* \"contracts/utils/EnumerableSet.sol\":1578:1982  function _add(Set storage set, bytes32 value) private returns (bool) {... */\n    tag_368:\n      swap3\n      swap2\n      pop\n      pop\n      jump\t// out\n        /* \"contracts/utils/EnumerableMap.sol\":1795:2473  function _set(Map storage map, bytes32 key, bytes32 value) private returns (bool) {... */\n    tag_317:\n        /* \"contracts/utils/EnumerableMap.sol\":1871:1875  bool */\n      0x00\n        /* \"contracts/utils/EnumerableMap.sol\":1985:2001  uint256 keyIndex */\n      dup1\n        /* \"contracts/utils/EnumerableMap.sol\":2004:2007  map */\n      dup5\n        /* \"contracts/utils/EnumerableMap.sol\":2004:2016  map._indexes */\n      0x01\n      add\n        /* \"contracts/utils/EnumerableMap.sol\":2004:2021  map._indexes[key] */\n      0x00\n        /* \"contracts/utils/EnumerableMap.sol\":2017:2020  key */\n      dup6\n        /* \"contracts/utils/EnumerableMap.sol\":2004:2021  map._indexes[key] */\n      dup2\n      mstore\n      0x20\n      add\n      swap1\n      dup2\n      mstore\n      0x20\n      add\n      0x00\n      keccak256\n      sload\n        /* \"contracts/utils/EnumerableMap.sol\":1985:2021  uint256 keyIndex = map._indexes[key] */\n      swap1\n      pop\n        /* \"contracts/utils/EnumerableMap.sol\":2048:2049  0 */\n      0x00\n        /* \"contracts/utils/EnumerableMap.sol\":2036:2044  keyIndex */\n      dup2\n        /* \"contracts/utils/EnumerableMap.sol\":2036:2049  keyIndex == 0 */\n      eq\n        /* \"contracts/utils/EnumerableMap.sol\":2032:2467  if (keyIndex == 0) { // Equivalent to !contains(map, key)... */\n      iszero\n      tag_375\n      jumpi\n        /* \"contracts/utils/EnumerableMap.sol\":2102:2105  map */\n      dup5\n        /* \"contracts/utils/EnumerableMap.sol\":2102:2114  map._entries */\n      0x00\n      add\n        /* \"contracts/utils/EnumerableMap.sol\":2120:2158  MapEntry({ _key: key, _value: value }) */\n      mload(0x40)\n      dup1\n      0x40\n      add\n      0x40\n      mstore\n      dup1\n        /* \"contracts/utils/EnumerableMap.sol\":2137:2140  key */\n      dup7\n        /* \"contracts/utils/EnumerableMap.sol\":2120:2158  MapEntry({ _key: key, _value: value }) */\n      dup2\n      mstore\n      0x20\n      add\n        /* \"contracts/utils/EnumerableMap.sol\":2150:2155  value */\n      dup6\n        /* \"contracts/utils/EnumerableMap.sol\":2120:2158  MapEntry({ _key: key, _value: value }) */\n      dup2\n      mstore\n      pop\n        /* \"contracts/utils/EnumerableMap.sol\":2102:2159  map._entries.push(MapEntry({ _key: key, _value: value })) */\n      swap1\n      dup1\n        /* \"--CODEGEN--\":39:40   */\n      0x01\n        /* \"--CODEGEN--\":33:36   */\n      dup2\n        /* \"--CODEGEN--\":27:37   */\n      sload\n        /* \"--CODEGEN--\":23:41   */\n      add\n        /* \"--CODEGEN--\":57:67   */\n      dup1\n        /* \"--CODEGEN--\":52:55   */\n      dup3\n        /* \"--CODEGEN--\":45:68   */\n      sstore\n        /* \"--CODEGEN--\":79:89   */\n      dup1\n        /* \"--CODEGEN--\":72:89   */\n      swap2\n      pop\n        /* \"--CODEGEN--\":0:93   */\n      pop\n        /* \"contracts/utils/EnumerableMap.sol\":2102:2159  map._entries.push(MapEntry({ _key: key, _value: value })) */\n      0x01\n      swap1\n      sub\n      swap1\n      0x00\n      mstore\n      keccak256(0x00, 0x20)\n      swap1\n      0x02\n      mul\n      add\n      0x00\n      swap1\n      swap2\n      swap1\n      swap2\n      swap1\n      swap2\n      pop\n      0x00\n      dup3\n      add\n      mload\n      dup2\n      0x00\n      add\n      sstore\n      0x20\n      dup3\n      add\n      mload\n      dup2\n      0x01\n      add\n      sstore\n      pop\n      pop\n        /* \"contracts/utils/EnumerableMap.sol\":2314:2317  map */\n      dup5\n        /* \"contracts/utils/EnumerableMap.sol\":2314:2326  map._entries */\n      0x00\n      add\n        /* \"contracts/utils/EnumerableMap.sol\":2314:2333  map._entries.length */\n      dup1\n      sload\n      swap1\n      pop\n        /* \"contracts/utils/EnumerableMap.sol\":2294:2297  map */\n      dup6\n        /* \"contracts/utils/EnumerableMap.sol\":2294:2306  map._indexes */\n      0x01\n      add\n        /* \"contracts/utils/EnumerableMap.sol\":2294:2311  map._indexes[key] */\n      0x00\n        /* \"contracts/utils/EnumerableMap.sol\":2307:2310  key */\n      dup7\n        /* \"contracts/utils/EnumerableMap.sol\":2294:2311  map._indexes[key] */\n      dup2\n      mstore\n      0x20\n      add\n      swap1\n      dup2\n      mstore\n      0x20\n      add\n      0x00\n      keccak256\n        /* \"contracts/utils/EnumerableMap.sol\":2294:2333  map._indexes[key] = map._entries.length */\n      dup2\n      swap1\n      sstore\n      pop\n        /* \"contracts/utils/EnumerableMap.sol\":2354:2358  true */\n      0x01\n        /* \"contracts/utils/EnumerableMap.sol\":2347:2358  return true */\n      swap2\n      pop\n      pop\n      jump(tag_374)\n        /* \"contracts/utils/EnumerableMap.sol\":2032:2467  if (keyIndex == 0) { // Equivalent to !contains(map, key)... */\n    tag_375:\n        /* \"contracts/utils/EnumerableMap.sol\":2425:2430  value */\n      dup3\n        /* \"contracts/utils/EnumerableMap.sol\":2389:2392  map */\n      dup6\n        /* \"contracts/utils/EnumerableMap.sol\":2389:2401  map._entries */\n      0x00\n      add\n        /* \"contracts/utils/EnumerableMap.sol\":2413:2414  1 */\n      0x01\n        /* \"contracts/utils/EnumerableMap.sol\":2402:2410  keyIndex */\n      dup4\n        /* \"contracts/utils/EnumerableMap.sol\":2402:2414  keyIndex - 1 */\n      sub\n        /* \"contracts/utils/EnumerableMap.sol\":2389:2415  map._entries[keyIndex - 1] */\n      dup2\n      sload\n      dup2\n      lt\n      tag_378\n      jumpi\n      invalid\n    tag_378:\n      swap1\n      0x00\n      mstore\n      keccak256(0x00, 0x20)\n      swap1\n      0x02\n      mul\n      add\n        /* \"contracts/utils/EnumerableMap.sol\":2389:2422  map._entries[keyIndex - 1]._value */\n      0x01\n      add\n        /* \"contracts/utils/EnumerableMap.sol\":2389:2430  map._entries[keyIndex - 1]._value = value */\n      dup2\n      swap1\n      sstore\n      pop\n        /* \"contracts/utils/EnumerableMap.sol\":2451:2456  false */\n      0x00\n        /* \"contracts/utils/EnumerableMap.sol\":2444:2456  return false */\n      swap2\n      pop\n      pop\n        /* \"contracts/utils/EnumerableMap.sol\":1795:2473  function _set(Map storage map, bytes32 key, bytes32 value) private returns (bool) {... */\n    tag_374:\n      swap4\n      swap3\n      pop\n      pop\n      pop\n      jump\t// out\n        /* \"contracts/utils/EnumerableMap.sol\":2641:4158  function _remove(Map storage map, bytes32 key) private returns (bool) {... */\n    tag_326:\n        /* \"contracts/utils/EnumerableMap.sol\":2705:2709  bool */\n      0x00\n        /* \"contracts/utils/EnumerableMap.sol\":2819:2835  uint256 keyIndex */\n      dup1\n        /* \"contracts/utils/EnumerableMap.sol\":2838:2841  map */\n      dup4\n        /* \"contracts/utils/EnumerableMap.sol\":2838:2850  map._indexes */\n      0x01\n      add\n        /* \"contracts/utils/EnumerableMap.sol\":2838:2855  map._indexes[key] */\n      0x00\n        /* \"contracts/utils/EnumerableMap.sol\":2851:2854  key */\n      dup5\n        /* \"contracts/utils/EnumerableMap.sol\":2838:2855  map._indexes[key] */\n      dup2\n      mstore\n      0x20\n      add\n      swap1\n      dup2\n      mstore\n      0x20\n      add\n      0x00\n      keccak256\n      sload\n        /* \"contracts/utils/EnumerableMap.sol\":2819:2855  uint256 keyIndex = map._indexes[key] */\n      swap1\n      pop\n        /* \"contracts/utils/EnumerableMap.sol\":2882:2883  0 */\n      0x00\n        /* \"contracts/utils/EnumerableMap.sol\":2870:2878  keyIndex */\n      dup2\n        /* \"contracts/utils/EnumerableMap.sol\":2870:2883  keyIndex != 0 */\n      eq\n        /* \"contracts/utils/EnumerableMap.sol\":2866:4152  if (keyIndex != 0) { // Equivalent to contains(map, key)... */\n      tag_381\n      jumpi\n        /* \"contracts/utils/EnumerableMap.sol\":3226:3247  uint256 toDeleteIndex */\n      0x00\n        /* \"contracts/utils/EnumerableMap.sol\":3261:3262  1 */\n      0x01\n        /* \"contracts/utils/EnumerableMap.sol\":3250:3258  keyIndex */\n      dup3\n        /* \"contracts/utils/EnumerableMap.sol\":3250:3262  keyIndex - 1 */\n      sub\n        /* \"contracts/utils/EnumerableMap.sol\":3226:3262  uint256 toDeleteIndex = keyIndex - 1 */\n      swap1\n      pop\n        /* \"contracts/utils/EnumerableMap.sol\":3276:3293  uint256 lastIndex */\n      0x00\n        /* \"contracts/utils/EnumerableMap.sol\":3318:3319  1 */\n      0x01\n        /* \"contracts/utils/EnumerableMap.sol\":3296:3299  map */\n      dup7\n        /* \"contracts/utils/EnumerableMap.sol\":3296:3308  map._entries */\n      0x00\n      add\n        /* \"contracts/utils/EnumerableMap.sol\":3296:3315  map._entries.length */\n      dup1\n      sload\n      swap1\n      pop\n        /* \"contracts/utils/EnumerableMap.sol\":3296:3319  map._entries.length - 1 */\n      sub\n        /* \"contracts/utils/EnumerableMap.sol\":3276:3319  uint256 lastIndex = map._entries.length - 1 */\n      swap1\n      pop\n        /* \"contracts/utils/EnumerableMap.sol\":3559:3585  MapEntry storage lastEntry */\n      0x00\n        /* \"contracts/utils/EnumerableMap.sol\":3588:3591  map */\n      dup7\n        /* \"contracts/utils/EnumerableMap.sol\":3588:3600  map._entries */\n      0x00\n      add\n        /* \"contracts/utils/EnumerableMap.sol\":3601:3610  lastIndex */\n      dup3\n        /* \"contracts/utils/EnumerableMap.sol\":3588:3611  map._entries[lastIndex] */\n      dup2\n      sload\n      dup2\n      lt\n      tag_382\n      jumpi\n      invalid\n    tag_382:\n      swap1\n      0x00\n      mstore\n      keccak256(0x00, 0x20)\n      swap1\n      0x02\n      mul\n      add\n        /* \"contracts/utils/EnumerableMap.sol\":3559:3611  MapEntry storage lastEntry = map._entries[lastIndex] */\n      swap1\n      pop\n        /* \"contracts/utils/EnumerableMap.sol\":3733:3742  lastEntry */\n      dup1\n        /* \"contracts/utils/EnumerableMap.sol\":3703:3706  map */\n      dup8\n        /* \"contracts/utils/EnumerableMap.sol\":3703:3715  map._entries */\n      0x00\n      add\n        /* \"contracts/utils/EnumerableMap.sol\":3716:3729  toDeleteIndex */\n      dup5\n        /* \"contracts/utils/EnumerableMap.sol\":3703:3730  map._entries[toDeleteIndex] */\n      dup2\n      sload\n      dup2\n      lt\n      tag_384\n      jumpi\n      invalid\n    tag_384:\n      swap1\n      0x00\n      mstore\n      keccak256(0x00, 0x20)\n      swap1\n      0x02\n      mul\n      add\n        /* \"contracts/utils/EnumerableMap.sol\":3703:3742  map._entries[toDeleteIndex] = lastEntry */\n      0x00\n      dup3\n      add\n      sload\n      dup2\n      0x00\n      add\n      sstore\n      0x01\n      dup3\n      add\n      sload\n      dup2\n      0x01\n      add\n      sstore\n      swap1\n      pop\n      pop\n        /* \"contracts/utils/EnumerableMap.sol\":3855:3856  1 */\n      0x01\n        /* \"contracts/utils/EnumerableMap.sol\":3839:3852  toDeleteIndex */\n      dup4\n        /* \"contracts/utils/EnumerableMap.sol\":3839:3856  toDeleteIndex + 1 */\n      add\n        /* \"contracts/utils/EnumerableMap.sol\":3808:3811  map */\n      dup8\n        /* \"contracts/utils/EnumerableMap.sol\":3808:3820  map._indexes */\n      0x01\n      add\n        /* \"contracts/utils/EnumerableMap.sol\":3808:3836  map._indexes[lastEntry._key] */\n      0x00\n        /* \"contracts/utils/EnumerableMap.sol\":3821:3830  lastEntry */\n      dup4\n        /* \"contracts/utils/EnumerableMap.sol\":3821:3835  lastEntry._key */\n      0x00\n      add\n      sload\n        /* \"contracts/utils/EnumerableMap.sol\":3808:3836  map._indexes[lastEntry._key] */\n      dup2\n      mstore\n      0x20\n      add\n      swap1\n      dup2\n      mstore\n      0x20\n      add\n      0x00\n      keccak256\n        /* \"contracts/utils/EnumerableMap.sol\":3808:3856  map._indexes[lastEntry._key] = toDeleteIndex + 1 */\n      dup2\n      swap1\n      sstore\n      pop\n        /* \"contracts/utils/EnumerableMap.sol\":3962:3965  map */\n      dup7\n        /* \"contracts/utils/EnumerableMap.sol\":3962:3974  map._entries */\n      0x00\n      add\n        /* \"contracts/utils/EnumerableMap.sol\":3962:3980  map._entries.pop() */\n      dup1\n      sload\n      dup1\n      tag_386\n      jumpi\n      invalid\n    tag_386:\n      0x01\n      swap1\n      sub\n      dup2\n      dup2\n      swap1\n      0x00\n      mstore\n      keccak256(0x00, 0x20)\n      swap1\n      0x02\n      mul\n      add\n      0x00\n      dup1\n      dup3\n      add\n      0x00\n      swap1\n      sstore\n      0x01\n      dup3\n      add\n      0x00\n      swap1\n      sstore\n      pop\n      pop\n      swap1\n      sstore\n        /* \"contracts/utils/EnumerableMap.sol\":4055:4058  map */\n      dup7\n        /* \"contracts/utils/EnumerableMap.sol\":4055:4067  map._indexes */\n      0x01\n      add\n        /* \"contracts/utils/EnumerableMap.sol\":4055:4072  map._indexes[key] */\n      0x00\n        /* \"contracts/utils/EnumerableMap.sol\":4068:4071  key */\n      dup8\n        /* \"contracts/utils/EnumerableMap.sol\":4055:4072  map._indexes[key] */\n      dup2\n      mstore\n      0x20\n      add\n      swap1\n      dup2\n      mstore\n      0x20\n      add\n      0x00\n      keccak256\n        /* \"contracts/utils/EnumerableMap.sol\":4048:4072  delete map._indexes[key] */\n      0x00\n      swap1\n      sstore\n        /* \"contracts/utils/EnumerableMap.sol\":4094:4098  true */\n      0x01\n        /* \"contracts/utils/EnumerableMap.sol\":4087:4098  return true */\n      swap5\n      pop\n      pop\n      pop\n      pop\n      pop\n      jump(tag_380)\n        /* \"contracts/utils/EnumerableMap.sol\":2866:4152  if (keyIndex != 0) { // Equivalent to contains(map, key)... */\n    tag_381:\n        /* \"contracts/utils/EnumerableMap.sol\":4136:4141  false */\n      0x00\n        /* \"contracts/utils/EnumerableMap.sol\":4129:4141  return false */\n      swap2\n      pop\n      pop\n        /* \"contracts/utils/EnumerableMap.sol\":2641:4158  function _remove(Map storage map, bytes32 key) private returns (bool) {... */\n    tag_380:\n      swap3\n      swap2\n      pop\n      pop\n      jump\t// out\n        /* \"contracts/utils/Address.sol\":685:1295  function isContract(address account) internal view returns (bool) {... */\n    tag_341:\n        /* \"contracts/utils/Address.sol\":745:749  bool */\n      0x00\n        /* \"contracts/utils/Address.sol\":1003:1019  bytes32 codehash */\n      dup1\n        /* \"contracts/utils/Address.sol\":1029:1048  bytes32 accountHash */\n      0x00\n        /* \"contracts/utils/Address.sol\":1051:1117  0xc5d2460186f7233c927e7db2dcc703c0e500b653ca82273b7bfad8045d85a470 */\n      0xc5d2460186f7233c927e7db2dcc703c0e500b653ca82273b7bfad8045d85a470\n        /* \"contracts/utils/Address.sol\":1029:1117  bytes32 accountHash = 0xc5d2460186f7233c927e7db2dcc703c0e500b653ca82273b7bfad8045d85a470 */\n      0x00\n      shl\n      swap1\n      pop\n        /* \"contracts/utils/Address.sol\":1218:1225  account */\n      dup4\n        /* \"contracts/utils/Address.sol\":1206:1226  extcodehash(account) */\n      extcodehash\n        /* \"contracts/utils/Address.sol\":1194:1226  codehash := extcodehash(account) */\n      swap2\n      pop\n        /* \"contracts/utils/Address.sol\":1257:1268  accountHash */\n      dup1\n        /* \"contracts/utils/Address.sol\":1245:1253  codehash */\n      dup3\n        /* \"contracts/utils/Address.sol\":1245:1268  codehash != accountHash */\n      eq\n      iszero\n        /* \"contracts/utils/Address.sol\":1245:1287  codehash != accountHash && codehash != 0x0 */\n      dup1\n      iszero\n      tag_390\n      jumpi\n      pop\n        /* \"contracts/utils/Address.sol\":1284:1287  0x0 */\n      0x00\n        /* \"contracts/utils/Address.sol\":1272:1287  codehash != 0x0 */\n      dup1\n      shl\n        /* \"contracts/utils/Address.sol\":1272:1280  codehash */\n      dup3\n        /* \"contracts/utils/Address.sol\":1272:1287  codehash != 0x0 */\n      eq\n      iszero\n        /* \"contracts/utils/Address.sol\":1245:1287  codehash != accountHash && codehash != 0x0 */\n    tag_390:\n        /* \"contracts/utils/Address.sol\":1237:1288  return (codehash != accountHash && codehash != 0x0) */\n      swap3\n      pop\n      pop\n      pop\n        /* \"contracts/utils/Address.sol\":685:1295  function isContract(address account) internal view returns (bool) {... */\n      swap2\n      swap1\n      pop\n      jump\t// out\n        /* \"contracts/utils/EnumerableSet.sol\":3743:3870  function _contains(Set storage set, bytes32 value) private view returns (bool) {... */\n    tag_370:\n        /* \"contracts/utils/EnumerableSet.sol\":3816:3820  bool */\n      0x00\n        /* \"contracts/utils/EnumerableSet.sol\":3862:3863  0 */\n      dup1\n        /* \"contracts/utils/EnumerableSet.sol\":3839:3842  set */\n      dup4\n        /* \"contracts/utils/EnumerableSet.sol\":3839:3851  set._indexes */\n      0x01\n      add\n        /* \"contracts/utils/EnumerableSet.sol\":3839:3858  set._indexes[value] */\n      0x00\n        /* \"contracts/utils/EnumerableSet.sol\":3852:3857  value */\n      dup5\n        /* \"contracts/utils/EnumerableSet.sol\":3839:3858  set._indexes[value] */\n      dup2\n      mstore\n      0x20\n      add\n      swap1\n      dup2\n      mstore\n      0x20\n      add\n      0x00\n      keccak256\n      sload\n        /* \"contracts/utils/EnumerableSet.sol\":3839:3863  set._indexes[value] != 0 */\n      eq\n      iszero\n        /* \"contracts/utils/EnumerableSet.sol\":3832:3863  return set._indexes[value] != 0 */\n      swap1\n      pop\n        /* \"contracts/utils/EnumerableSet.sol\":3743:3870  function _contains(Set storage set, bytes32 value) private view returns (bool) {... */\n      swap3\n      swap2\n      pop\n      pop\n      jump\t// out\n        /* \"contracts/MonkeyNft.sol\":278:580  contract WrappedRar is ERC721, ERC721Burnable {... */\n    tag_255:\n      pop\n      dup1\n      sload\n      0x01\n      dup2\n      0x01\n      and\n      iszero\n      0x0100\n      mul\n      sub\n      and\n      0x02\n      swap1\n      div\n      0x00\n      dup3\n      sstore\n      dup1\n      0x1f\n      lt\n      tag_393\n      jumpi\n      pop\n      jump(tag_392)\n    tag_393:\n      0x1f\n      add\n      0x20\n      swap1\n      div\n      swap1\n      0x00\n      mstore\n      keccak256(0x00, 0x20)\n      swap1\n      dup2\n      add\n      swap1\n      tag_394\n      swap2\n      swap1\n      tag_395\n      jump\t// in\n    tag_394:\n    tag_392:\n      pop\n      jump\t// out\n    tag_303:\n      dup3\n      dup1\n      sload\n      0x01\n      dup2\n      0x01\n      and\n      iszero\n      0x0100\n      mul\n      sub\n      and\n      0x02\n      swap1\n      div\n      swap1\n      0x00\n      mstore\n      keccak256(0x00, 0x20)\n      swap1\n      0x1f\n      add\n      0x20\n      swap1\n      div\n      dup2\n      add\n      swap3\n      dup3\n      0x1f\n      lt\n      tag_397\n      jumpi\n      dup1\n      mload\n      not(0xff)\n      and\n      dup4\n      dup1\n      add\n      or\n      dup6\n      sstore\n      jump(tag_396)\n    tag_397:\n      dup3\n      dup1\n      add\n      0x01\n      add\n      dup6\n      sstore\n      dup3\n      iszero\n      tag_396\n      jumpi\n      swap2\n      dup3\n      add\n    tag_398:\n      dup3\n      dup2\n      gt\n      iszero\n      tag_399\n      jumpi\n      dup3\n      mload\n      dup3\n      sstore\n      swap2\n      0x20\n      add\n      swap2\n      swap1\n      0x01\n      add\n      swap1\n      jump(tag_398)\n    tag_399:\n    tag_396:\n      pop\n      swap1\n      pop\n      tag_400\n      swap2\n      swap1\n      tag_395\n      jump\t// in\n    tag_400:\n      pop\n      swap1\n      jump\t// out\n    tag_395:\n      tag_401\n      swap2\n      swap1\n    tag_402:\n      dup1\n      dup3\n      gt\n      iszero\n      tag_403\n      jumpi\n      0x00\n      dup2\n      0x00\n      swap1\n      sstore\n      pop\n      0x01\n      add\n      jump(tag_402)\n    tag_403:\n      pop\n      swap1\n      jump\n    tag_401:\n      swap1\n      jump\t// out\n        /* \"--CODEGEN--\":5:135   */\n    tag_405:\n      0x00\n        /* \"--CODEGEN--\":85:91   */\n      dup2\n        /* \"--CODEGEN--\":72:92   */\n      calldataload\n        /* \"--CODEGEN--\":63:92   */\n      swap1\n      pop\n        /* \"--CODEGEN--\":97:130   */\n      tag_407\n        /* \"--CODEGEN--\":124:129   */\n      dup2\n        /* \"--CODEGEN--\":97:130   */\n      jump(tag_408)\n    tag_407:\n        /* \"--CODEGEN--\":57:135   */\n      swap3\n      swap2\n      pop\n      pop\n      jump\n        /* \"--CODEGEN--\":142:266   */\n    tag_409:\n      0x00\n        /* \"--CODEGEN--\":219:225   */\n      dup2\n        /* \"--CODEGEN--\":206:226   */\n      calldataload\n        /* \"--CODEGEN--\":197:226   */\n      swap1\n      pop\n        /* \"--CODEGEN--\":231:261   */\n      tag_411\n        /* \"--CODEGEN--\":255:260   */\n      dup2\n        /* \"--CODEGEN--\":231:261   */\n      jump(tag_412)\n    tag_411:\n        /* \"--CODEGEN--\":191:266   */\n      swap3\n      swap2\n      pop\n      pop\n      jump\n        /* \"--CODEGEN--\":273:401   */\n    tag_413:\n      0x00\n        /* \"--CODEGEN--\":352:358   */\n      dup2\n        /* \"--CODEGEN--\":339:359   */\n      calldataload\n        /* \"--CODEGEN--\":330:359   */\n      swap1\n      pop\n        /* \"--CODEGEN--\":364:396   */\n      tag_415\n        /* \"--CODEGEN--\":390:395   */\n      dup2\n        /* \"--CODEGEN--\":364:396   */\n      jump(tag_416)\n    tag_415:\n        /* \"--CODEGEN--\":324:401   */\n      swap3\n      swap2\n      pop\n      pop\n      jump\n        /* \"--CODEGEN--\":408:540   */\n    tag_417:\n      0x00\n        /* \"--CODEGEN--\":491:497   */\n      dup2\n        /* \"--CODEGEN--\":485:498   */\n      mload\n        /* \"--CODEGEN--\":476:498   */\n      swap1\n      pop\n        /* \"--CODEGEN--\":503:535   */\n      tag_419\n        /* \"--CODEGEN--\":529:534   */\n      dup2\n        /* \"--CODEGEN--\":503:535   */\n      jump(tag_416)\n    tag_419:\n        /* \"--CODEGEN--\":470:540   */\n      swap3\n      swap2\n      pop\n      pop\n      jump\n        /* \"--CODEGEN--\":548:988   */\n    tag_420:\n      0x00\n        /* \"--CODEGEN--\":649:652   */\n      dup3\n        /* \"--CODEGEN--\":642:646   */\n      0x1f\n        /* \"--CODEGEN--\":634:640   */\n      dup4\n        /* \"--CODEGEN--\":630:647   */\n      add\n        /* \"--CODEGEN--\":626:653   */\n      slt\n        /* \"--CODEGEN--\":616:618   */\n      tag_422\n      jumpi\n        /* \"--CODEGEN--\":667:668   */\n      0x00\n        /* \"--CODEGEN--\":664:665   */\n      dup1\n        /* \"--CODEGEN--\":657:669   */\n      revert\n        /* \"--CODEGEN--\":616:618   */\n    tag_422:\n        /* \"--CODEGEN--\":704:710   */\n      dup2\n        /* \"--CODEGEN--\":691:711   */\n      calldataload\n        /* \"--CODEGEN--\":726:790   */\n      tag_423\n        /* \"--CODEGEN--\":741:789   */\n      tag_424\n        /* \"--CODEGEN--\":782:788   */\n      dup3\n        /* \"--CODEGEN--\":741:789   */\n      jump(tag_425)\n    tag_424:\n        /* \"--CODEGEN--\":726:790   */\n      jump(tag_426)\n    tag_423:\n        /* \"--CODEGEN--\":717:790   */\n      swap2\n      pop\n        /* \"--CODEGEN--\":810:816   */\n      dup1\n        /* \"--CODEGEN--\":803:808   */\n      dup3\n        /* \"--CODEGEN--\":796:817   */\n      mstore\n        /* \"--CODEGEN--\":846:850   */\n      0x20\n        /* \"--CODEGEN--\":838:844   */\n      dup4\n        /* \"--CODEGEN--\":834:851   */\n      add\n        /* \"--CODEGEN--\":879:883   */\n      0x20\n        /* \"--CODEGEN--\":872:877   */\n      dup4\n        /* \"--CODEGEN--\":868:884   */\n      add\n        /* \"--CODEGEN--\":914:917   */\n      dup6\n        /* \"--CODEGEN--\":905:911   */\n      dup4\n        /* \"--CODEGEN--\":900:903   */\n      dup4\n        /* \"--CODEGEN--\":896:912   */\n      add\n        /* \"--CODEGEN--\":893:918   */\n      gt\n        /* \"--CODEGEN--\":890:892   */\n      iszero\n      tag_427\n      jumpi\n        /* \"--CODEGEN--\":931:932   */\n      0x00\n        /* \"--CODEGEN--\":928:929   */\n      dup1\n        /* \"--CODEGEN--\":921:933   */\n      revert\n        /* \"--CODEGEN--\":890:892   */\n    tag_427:\n        /* \"--CODEGEN--\":941:982   */\n      tag_428\n        /* \"--CODEGEN--\":975:981   */\n      dup4\n        /* \"--CODEGEN--\":970:973   */\n      dup3\n        /* \"--CODEGEN--\":965:968   */\n      dup5\n        /* \"--CODEGEN--\":941:982   */\n      jump(tag_429)\n    tag_428:\n        /* \"--CODEGEN--\":609:988   */\n      pop\n      pop\n      pop\n      swap3\n      swap2\n      pop\n      pop\n      jump\n        /* \"--CODEGEN--\":997:1439   */\n    tag_430:\n      0x00\n        /* \"--CODEGEN--\":1099:1102   */\n      dup3\n        /* \"--CODEGEN--\":1092:1096   */\n      0x1f\n        /* \"--CODEGEN--\":1084:1090   */\n      dup4\n        /* \"--CODEGEN--\":1080:1097   */\n      add\n        /* \"--CODEGEN--\":1076:1103   */\n      slt\n        /* \"--CODEGEN--\":1066:1068   */\n      tag_432\n      jumpi\n        /* \"--CODEGEN--\":1117:1118   */\n      0x00\n        /* \"--CODEGEN--\":1114:1115   */\n      dup1\n        /* \"--CODEGEN--\":1107:1119   */\n      revert\n        /* \"--CODEGEN--\":1066:1068   */\n    tag_432:\n        /* \"--CODEGEN--\":1154:1160   */\n      dup2\n        /* \"--CODEGEN--\":1141:1161   */\n      calldataload\n        /* \"--CODEGEN--\":1176:1241   */\n      tag_433\n        /* \"--CODEGEN--\":1191:1240   */\n      tag_434\n        /* \"--CODEGEN--\":1233:1239   */\n      dup3\n        /* \"--CODEGEN--\":1191:1240   */\n      jump(tag_435)\n    tag_434:\n        /* \"--CODEGEN--\":1176:1241   */\n      jump(tag_426)\n    tag_433:\n        /* \"--CODEGEN--\":1167:1241   */\n      swap2\n      pop\n        /* \"--CODEGEN--\":1261:1267   */\n      dup1\n        /* \"--CODEGEN--\":1254:1259   */\n      dup3\n        /* \"--CODEGEN--\":1247:1268   */\n      mstore\n        /* \"--CODEGEN--\":1297:1301   */\n      0x20\n        /* \"--CODEGEN--\":1289:1295   */\n      dup4\n        /* \"--CODEGEN--\":1285:1302   */\n      add\n        /* \"--CODEGEN--\":1330:1334   */\n      0x20\n        /* \"--CODEGEN--\":1323:1328   */\n      dup4\n        /* \"--CODEGEN--\":1319:1335   */\n      add\n        /* \"--CODEGEN--\":1365:1368   */\n      dup6\n        /* \"--CODEGEN--\":1356:1362   */\n      dup4\n        /* \"--CODEGEN--\":1351:1354   */\n      dup4\n        /* \"--CODEGEN--\":1347:1363   */\n      add\n        /* \"--CODEGEN--\":1344:1369   */\n      gt\n        /* \"--CODEGEN--\":1341:1343   */\n      iszero\n      tag_436\n      jumpi\n        /* \"--CODEGEN--\":1382:1383   */\n      0x00\n        /* \"--CODEGEN--\":1379:1380   */\n      dup1\n        /* \"--CODEGEN--\":1372:1384   */\n      revert\n        /* \"--CODEGEN--\":1341:1343   */\n    tag_436:\n        /* \"--CODEGEN--\":1392:1433   */\n      tag_437\n        /* \"--CODEGEN--\":1426:1432   */\n      dup4\n        /* \"--CODEGEN--\":1421:1424   */\n      dup3\n        /* \"--CODEGEN--\":1416:1419   */\n      dup5\n        /* \"--CODEGEN--\":1392:1433   */\n      jump(tag_429)\n    tag_437:\n        /* \"--CODEGEN--\":1059:1439   */\n      pop\n      pop\n      pop\n      swap3\n      swap2\n      pop\n      pop\n      jump\n        /* \"--CODEGEN--\":1447:1577   */\n    tag_438:\n      0x00\n        /* \"--CODEGEN--\":1527:1533   */\n      dup2\n        /* \"--CODEGEN--\":1514:1534   */\n      calldataload\n        /* \"--CODEGEN--\":1505:1534   */\n      swap1\n      pop\n        /* \"--CODEGEN--\":1539:1572   */\n      tag_440\n        /* \"--CODEGEN--\":1566:1571   */\n      dup2\n        /* \"--CODEGEN--\":1539:1572   */\n      jump(tag_441)\n    tag_440:\n        /* \"--CODEGEN--\":1499:1577   */\n      swap3\n      swap2\n      pop\n      pop\n      jump\n        /* \"--CODEGEN--\":1584:1825   */\n    tag_76:\n      0x00\n        /* \"--CODEGEN--\":1688:1690   */\n      0x20\n        /* \"--CODEGEN--\":1676:1685   */\n      dup3\n        /* \"--CODEGEN--\":1667:1674   */\n      dup5\n        /* \"--CODEGEN--\":1663:1686   */\n      sub\n        /* \"--CODEGEN--\":1659:1691   */\n      slt\n        /* \"--CODEGEN--\":1656:1658   */\n      iszero\n      tag_443\n      jumpi\n        /* \"--CODEGEN--\":1704:1705   */\n      0x00\n        /* \"--CODEGEN--\":1701:1702   */\n      dup1\n        /* \"--CODEGEN--\":1694:1706   */\n      revert\n        /* \"--CODEGEN--\":1656:1658   */\n    tag_443:\n        /* \"--CODEGEN--\":1739:1740   */\n      0x00\n        /* \"--CODEGEN--\":1756:1809   */\n      tag_444\n        /* \"--CODEGEN--\":1801:1808   */\n      dup5\n        /* \"--CODEGEN--\":1792:1798   */\n      dup3\n        /* \"--CODEGEN--\":1781:1790   */\n      dup6\n        /* \"--CODEGEN--\":1777:1799   */\n      add\n        /* \"--CODEGEN--\":1756:1809   */\n      jump(tag_405)\n    tag_444:\n        /* \"--CODEGEN--\":1746:1809   */\n      swap2\n      pop\n        /* \"--CODEGEN--\":1718:1815   */\n      pop\n        /* \"--CODEGEN--\":1650:1825   */\n      swap3\n      swap2\n      pop\n      pop\n      jump\n        /* \"--CODEGEN--\":1832:2198   */\n    tag_100:\n      0x00\n      dup1\n        /* \"--CODEGEN--\":1953:1955   */\n      0x40\n        /* \"--CODEGEN--\":1941:1950   */\n      dup4\n        /* \"--CODEGEN--\":1932:1939   */\n      dup6\n        /* \"--CODEGEN--\":1928:1951   */\n      sub\n        /* \"--CODEGEN--\":1924:1956   */\n      slt\n        /* \"--CODEGEN--\":1921:1923   */\n      iszero\n      tag_446\n      jumpi\n        /* \"--CODEGEN--\":1969:1970   */\n      0x00\n        /* \"--CODEGEN--\":1966:1967   */\n      dup1\n        /* \"--CODEGEN--\":1959:1971   */\n      revert\n        /* \"--CODEGEN--\":1921:1923   */\n    tag_446:\n        /* \"--CODEGEN--\":2004:2005   */\n      0x00\n        /* \"--CODEGEN--\":2021:2074   */\n      tag_447\n        /* \"--CODEGEN--\":2066:2073   */\n      dup6\n        /* \"--CODEGEN--\":2057:2063   */\n      dup3\n        /* \"--CODEGEN--\":2046:2055   */\n      dup7\n        /* \"--CODEGEN--\":2042:2064   */\n      add\n        /* \"--CODEGEN--\":2021:2074   */\n      jump(tag_405)\n    tag_447:\n        /* \"--CODEGEN--\":2011:2074   */\n      swap3\n      pop\n        /* \"--CODEGEN--\":1983:2080   */\n      pop\n        /* \"--CODEGEN--\":2111:2113   */\n      0x20\n        /* \"--CODEGEN--\":2129:2182   */\n      tag_448\n        /* \"--CODEGEN--\":2174:2181   */\n      dup6\n        /* \"--CODEGEN--\":2165:2171   */\n      dup3\n        /* \"--CODEGEN--\":2154:2163   */\n      dup7\n        /* \"--CODEGEN--\":2150:2172   */\n      add\n        /* \"--CODEGEN--\":2129:2182   */\n      jump(tag_405)\n    tag_448:\n        /* \"--CODEGEN--\":2119:2182   */\n      swap2\n      pop\n        /* \"--CODEGEN--\":2090:2188   */\n      pop\n        /* \"--CODEGEN--\":1915:2198   */\n      swap3\n      pop\n      swap3\n      swap1\n      pop\n      jump\n        /* \"--CODEGEN--\":2205:2696   */\n    tag_51:\n      0x00\n      dup1\n      0x00\n        /* \"--CODEGEN--\":2343:2345   */\n      0x60\n        /* \"--CODEGEN--\":2331:2340   */\n      dup5\n        /* \"--CODEGEN--\":2322:2329   */\n      dup7\n        /* \"--CODEGEN--\":2318:2341   */\n      sub\n        /* \"--CODEGEN--\":2314:2346   */\n      slt\n        /* \"--CODEGEN--\":2311:2313   */\n      iszero\n      tag_450\n      jumpi\n        /* \"--CODEGEN--\":2359:2360   */\n      0x00\n        /* \"--CODEGEN--\":2356:2357   */\n      dup1\n        /* \"--CODEGEN--\":2349:2361   */\n      revert\n        /* \"--CODEGEN--\":2311:2313   */\n    tag_450:\n        /* \"--CODEGEN--\":2394:2395   */\n      0x00\n        /* \"--CODEGEN--\":2411:2464   */\n      tag_451\n        /* \"--CODEGEN--\":2456:2463   */\n      dup7\n        /* \"--CODEGEN--\":2447:2453   */\n      dup3\n        /* \"--CODEGEN--\":2436:2445   */\n      dup8\n        /* \"--CODEGEN--\":2432:2454   */\n      add\n        /* \"--CODEGEN--\":2411:2464   */\n      jump(tag_405)\n    tag_451:\n        /* \"--CODEGEN--\":2401:2464   */\n      swap4\n      pop\n        /* \"--CODEGEN--\":2373:2470   */\n      pop\n        /* \"--CODEGEN--\":2501:2503   */\n      0x20\n        /* \"--CODEGEN--\":2519:2572   */\n      tag_452\n        /* \"--CODEGEN--\":2564:2571   */\n      dup7\n        /* \"--CODEGEN--\":2555:2561   */\n      dup3\n        /* \"--CODEGEN--\":2544:2553   */\n      dup8\n        /* \"--CODEGEN--\":2540:2562   */\n      add\n        /* \"--CODEGEN--\":2519:2572   */\n      jump(tag_405)\n    tag_452:\n        /* \"--CODEGEN--\":2509:2572   */\n      swap3\n      pop\n        /* \"--CODEGEN--\":2480:2578   */\n      pop\n        /* \"--CODEGEN--\":2609:2611   */\n      0x40\n        /* \"--CODEGEN--\":2627:2680   */\n      tag_453\n        /* \"--CODEGEN--\":2672:2679   */\n      dup7\n        /* \"--CODEGEN--\":2663:2669   */\n      dup3\n        /* \"--CODEGEN--\":2652:2661   */\n      dup8\n        /* \"--CODEGEN--\":2648:2670   */\n      add\n        /* \"--CODEGEN--\":2627:2680   */\n      jump(tag_438)\n    tag_453:\n        /* \"--CODEGEN--\":2617:2680   */\n      swap2\n      pop\n        /* \"--CODEGEN--\":2588:2686   */\n      pop\n        /* \"--CODEGEN--\":2305:2696   */\n      swap3\n      pop\n      swap3\n      pop\n      swap3\n      jump\n        /* \"--CODEGEN--\":2703:3424   */\n    tag_88:\n      0x00\n      dup1\n      0x00\n      dup1\n        /* \"--CODEGEN--\":2867:2870   */\n      0x80\n        /* \"--CODEGEN--\":2855:2864   */\n      dup6\n        /* \"--CODEGEN--\":2846:2853   */\n      dup8\n        /* \"--CODEGEN--\":2842:2865   */\n      sub\n        /* \"--CODEGEN--\":2838:2871   */\n      slt\n        /* \"--CODEGEN--\":2835:2837   */\n      iszero\n      tag_455\n      jumpi\n        /* \"--CODEGEN--\":2884:2885   */\n      0x00\n        /* \"--CODEGEN--\":2881:2882   */\n      dup1\n        /* \"--CODEGEN--\":2874:2886   */\n      revert\n        /* \"--CODEGEN--\":2835:2837   */\n    tag_455:\n        /* \"--CODEGEN--\":2919:2920   */\n      0x00\n        /* \"--CODEGEN--\":2936:2989   */\n      tag_456\n        /* \"--CODEGEN--\":2981:2988   */\n      dup8\n        /* \"--CODEGEN--\":2972:2978   */\n      dup3\n        /* \"--CODEGEN--\":2961:2970   */\n      dup9\n        /* \"--CODEGEN--\":2957:2979   */\n      add\n        /* \"--CODEGEN--\":2936:2989   */\n      jump(tag_405)\n    tag_456:\n        /* \"--CODEGEN--\":2926:2989   */\n      swap5\n      pop\n        /* \"--CODEGEN--\":2898:2995   */\n      pop\n        /* \"--CODEGEN--\":3026:3028   */\n      0x20\n        /* \"--CODEGEN--\":3044:3097   */\n      tag_457\n        /* \"--CODEGEN--\":3089:3096   */\n      dup8\n        /* \"--CODEGEN--\":3080:3086   */\n      dup3\n        /* \"--CODEGEN--\":3069:3078   */\n      dup9\n        /* \"--CODEGEN--\":3065:3087   */\n      add\n        /* \"--CODEGEN--\":3044:3097   */\n      jump(tag_405)\n    tag_457:\n        /* \"--CODEGEN--\":3034:3097   */\n      swap4\n      pop\n        /* \"--CODEGEN--\":3005:3103   */\n      pop\n        /* \"--CODEGEN--\":3134:3136   */\n      0x40\n        /* \"--CODEGEN--\":3152:3205   */\n      tag_458\n        /* \"--CODEGEN--\":3197:3204   */\n      dup8\n        /* \"--CODEGEN--\":3188:3194   */\n      dup3\n        /* \"--CODEGEN--\":3177:3186   */\n      dup9\n        /* \"--CODEGEN--\":3173:3195   */\n      add\n        /* \"--CODEGEN--\":3152:3205   */\n      jump(tag_438)\n    tag_458:\n        /* \"--CODEGEN--\":3142:3205   */\n      swap3\n      pop\n        /* \"--CODEGEN--\":3113:3211   */\n      pop\n        /* \"--CODEGEN--\":3270:3272   */\n      0x60\n        /* \"--CODEGEN--\":3259:3268   */\n      dup6\n        /* \"--CODEGEN--\":3255:3273   */\n      add\n        /* \"--CODEGEN--\":3242:3274   */\n      calldataload\n        /* \"--CODEGEN--\":3294:3312   */\n      0xffffffffffffffff\n        /* \"--CODEGEN--\":3286:3292   */\n      dup2\n        /* \"--CODEGEN--\":3283:3313   */\n      gt\n        /* \"--CODEGEN--\":3280:3282   */\n      iszero\n      tag_459\n      jumpi\n        /* \"--CODEGEN--\":3326:3327   */\n      0x00\n        /* \"--CODEGEN--\":3323:3324   */\n      dup1\n        /* \"--CODEGEN--\":3316:3328   */\n      revert\n        /* \"--CODEGEN--\":3280:3282   */\n    tag_459:\n        /* \"--CODEGEN--\":3346:3408   */\n      tag_460\n        /* \"--CODEGEN--\":3400:3407   */\n      dup8\n        /* \"--CODEGEN--\":3391:3397   */\n      dup3\n        /* \"--CODEGEN--\":3380:3389   */\n      dup9\n        /* \"--CODEGEN--\":3376:3398   */\n      add\n        /* \"--CODEGEN--\":3346:3408   */\n      jump(tag_420)\n    tag_460:\n        /* \"--CODEGEN--\":3336:3408   */\n      swap2\n      pop\n        /* \"--CODEGEN--\":3221:3414   */\n      pop\n        /* \"--CODEGEN--\":2829:3424   */\n      swap3\n      swap6\n      swap2\n      swap5\n      pop\n      swap3\n      pop\n      jump\n        /* \"--CODEGEN--\":3431:3791   */\n    tag_84:\n      0x00\n      dup1\n        /* \"--CODEGEN--\":3549:3551   */\n      0x40\n        /* \"--CODEGEN--\":3537:3546   */\n      dup4\n        /* \"--CODEGEN--\":3528:3535   */\n      dup6\n        /* \"--CODEGEN--\":3524:3547   */\n      sub\n        /* \"--CODEGEN--\":3520:3552   */\n      slt\n        /* \"--CODEGEN--\":3517:3519   */\n      iszero\n      tag_462\n      jumpi\n        /* \"--CODEGEN--\":3565:3566   */\n      0x00\n        /* \"--CODEGEN--\":3562:3563   */\n      dup1\n        /* \"--CODEGEN--\":3555:3567   */\n      revert\n        /* \"--CODEGEN--\":3517:3519   */\n    tag_462:\n        /* \"--CODEGEN--\":3600:3601   */\n      0x00\n        /* \"--CODEGEN--\":3617:3670   */\n      tag_463\n        /* \"--CODEGEN--\":3662:3669   */\n      dup6\n        /* \"--CODEGEN--\":3653:3659   */\n      dup3\n        /* \"--CODEGEN--\":3642:3651   */\n      dup7\n        /* \"--CODEGEN--\":3638:3660   */\n      add\n        /* \"--CODEGEN--\":3617:3670   */\n      jump(tag_405)\n    tag_463:\n        /* \"--CODEGEN--\":3607:3670   */\n      swap3\n      pop\n        /* \"--CODEGEN--\":3579:3676   */\n      pop\n        /* \"--CODEGEN--\":3707:3709   */\n      0x20\n        /* \"--CODEGEN--\":3725:3775   */\n      tag_464\n        /* \"--CODEGEN--\":3767:3774   */\n      dup6\n        /* \"--CODEGEN--\":3758:3764   */\n      dup3\n        /* \"--CODEGEN--\":3747:3756   */\n      dup7\n        /* \"--CODEGEN--\":3743:3765   */\n      add\n        /* \"--CODEGEN--\":3725:3775   */\n      jump(tag_409)\n    tag_464:\n        /* \"--CODEGEN--\":3715:3775   */\n      swap2\n      pop\n        /* \"--CODEGEN--\":3686:3781   */\n      pop\n        /* \"--CODEGEN--\":3511:3791   */\n      swap3\n      pop\n      swap3\n      swap1\n      pop\n      jump\n        /* \"--CODEGEN--\":3798:4164   */\n    tag_43:\n      0x00\n      dup1\n        /* \"--CODEGEN--\":3919:3921   */\n      0x40\n        /* \"--CODEGEN--\":3907:3916   */\n      dup4\n        /* \"--CODEGEN--\":3898:3905   */\n      dup6\n        /* \"--CODEGEN--\":3894:3917   */\n      sub\n        /* \"--CODEGEN--\":3890:3922   */\n      slt\n        /* \"--CODEGEN--\":3887:3889   */\n      iszero\n      tag_466\n      jumpi\n        /* \"--CODEGEN--\":3935:3936   */\n      0x00\n        /* \"--CODEGEN--\":3932:3933   */\n      dup1\n        /* \"--CODEGEN--\":3925:3937   */\n      revert\n        /* \"--CODEGEN--\":3887:3889   */\n    tag_466:\n        /* \"--CODEGEN--\":3970:3971   */\n      0x00\n        /* \"--CODEGEN--\":3987:4040   */\n      tag_467\n        /* \"--CODEGEN--\":4032:4039   */\n      dup6\n        /* \"--CODEGEN--\":4023:4029   */\n      dup3\n        /* \"--CODEGEN--\":4012:4021   */\n      dup7\n        /* \"--CODEGEN--\":4008:4030   */\n      add\n        /* \"--CODEGEN--\":3987:4040   */\n      jump(tag_405)\n    tag_467:\n        /* \"--CODEGEN--\":3977:4040   */\n      swap3\n      pop\n        /* \"--CODEGEN--\":3949:4046   */\n      pop\n        /* \"--CODEGEN--\":4077:4079   */\n      0x20\n        /* \"--CODEGEN--\":4095:4148   */\n      tag_468\n        /* \"--CODEGEN--\":4140:4147   */\n      dup6\n        /* \"--CODEGEN--\":4131:4137   */\n      dup3\n        /* \"--CODEGEN--\":4120:4129   */\n      dup7\n        /* \"--CODEGEN--\":4116:4138   */\n      add\n        /* \"--CODEGEN--\":4095:4148   */\n      jump(tag_438)\n    tag_468:\n        /* \"--CODEGEN--\":4085:4148   */\n      swap2\n      pop\n        /* \"--CODEGEN--\":4056:4154   */\n      pop\n        /* \"--CODEGEN--\":3881:4164   */\n      swap3\n      pop\n      swap3\n      swap1\n      pop\n      jump\n        /* \"--CODEGEN--\":4171:4768   */\n    tag_96:\n      0x00\n      dup1\n      0x00\n        /* \"--CODEGEN--\":4319:4321   */\n      0x60\n        /* \"--CODEGEN--\":4307:4316   */\n      dup5\n        /* \"--CODEGEN--\":4298:4305   */\n      dup7\n        /* \"--CODEGEN--\":4294:4317   */\n      sub\n        /* \"--CODEGEN--\":4290:4322   */\n      slt\n        /* \"--CODEGEN--\":4287:4289   */\n      iszero\n      tag_470\n      jumpi\n        /* \"--CODEGEN--\":4335:4336   */\n      0x00\n        /* \"--CODEGEN--\":4332:4333   */\n      dup1\n        /* \"--CODEGEN--\":4325:4337   */\n      revert\n        /* \"--CODEGEN--\":4287:4289   */\n    tag_470:\n        /* \"--CODEGEN--\":4370:4371   */\n      0x00\n        /* \"--CODEGEN--\":4387:4440   */\n      tag_471\n        /* \"--CODEGEN--\":4432:4439   */\n      dup7\n        /* \"--CODEGEN--\":4423:4429   */\n      dup3\n        /* \"--CODEGEN--\":4412:4421   */\n      dup8\n        /* \"--CODEGEN--\":4408:4430   */\n      add\n        /* \"--CODEGEN--\":4387:4440   */\n      jump(tag_405)\n    tag_471:\n        /* \"--CODEGEN--\":4377:4440   */\n      swap4\n      pop\n        /* \"--CODEGEN--\":4349:4446   */\n      pop\n        /* \"--CODEGEN--\":4477:4479   */\n      0x20\n        /* \"--CODEGEN--\":4495:4548   */\n      tag_472\n        /* \"--CODEGEN--\":4540:4547   */\n      dup7\n        /* \"--CODEGEN--\":4531:4537   */\n      dup3\n        /* \"--CODEGEN--\":4520:4529   */\n      dup8\n        /* \"--CODEGEN--\":4516:4538   */\n      add\n        /* \"--CODEGEN--\":4495:4548   */\n      jump(tag_438)\n    tag_472:\n        /* \"--CODEGEN--\":4485:4548   */\n      swap3\n      pop\n        /* \"--CODEGEN--\":4456:4554   */\n      pop\n        /* \"--CODEGEN--\":4613:4615   */\n      0x40\n        /* \"--CODEGEN--\":4602:4611   */\n      dup5\n        /* \"--CODEGEN--\":4598:4616   */\n      add\n        /* \"--CODEGEN--\":4585:4617   */\n      calldataload\n        /* \"--CODEGEN--\":4637:4655   */\n      0xffffffffffffffff\n        /* \"--CODEGEN--\":4629:4635   */\n      dup2\n        /* \"--CODEGEN--\":4626:4656   */\n      gt\n        /* \"--CODEGEN--\":4623:4625   */\n      iszero\n      tag_473\n      jumpi\n        /* \"--CODEGEN--\":4669:4670   */\n      0x00\n        /* \"--CODEGEN--\":4666:4667   */\n      dup1\n        /* \"--CODEGEN--\":4659:4671   */\n      revert\n        /* \"--CODEGEN--\":4623:4625   */\n    tag_473:\n        /* \"--CODEGEN--\":4689:4752   */\n      tag_474\n        /* \"--CODEGEN--\":4744:4751   */\n      dup7\n        /* \"--CODEGEN--\":4735:4741   */\n      dup3\n        /* \"--CODEGEN--\":4724:4733   */\n      dup8\n        /* \"--CODEGEN--\":4720:4742   */\n      add\n        /* \"--CODEGEN--\":4689:4752   */\n      jump(tag_430)\n    tag_474:\n        /* \"--CODEGEN--\":4679:4752   */\n      swap2\n      pop\n        /* \"--CODEGEN--\":4564:4758   */\n      pop\n        /* \"--CODEGEN--\":4281:4768   */\n      swap3\n      pop\n      swap3\n      pop\n      swap3\n      jump\n        /* \"--CODEGEN--\":4775:5014   */\n    tag_27:\n      0x00\n        /* \"--CODEGEN--\":4878:4880   */\n      0x20\n        /* \"--CODEGEN--\":4866:4875   */\n      dup3\n        /* \"--CODEGEN--\":4857:4864   */\n      dup5\n        /* \"--CODEGEN--\":4853:4876   */\n      sub\n        /* \"--CODEGEN--\":4849:4881   */\n      slt\n        /* \"--CODEGEN--\":4846:4848   */\n      iszero\n      tag_476\n      jumpi\n        /* \"--CODEGEN--\":4894:4895   */\n      0x00\n        /* \"--CODEGEN--\":4891:4892   */\n      dup1\n        /* \"--CODEGEN--\":4884:4896   */\n      revert\n        /* \"--CODEGEN--\":4846:4848   */\n    tag_476:\n        /* \"--CODEGEN--\":4929:4930   */\n      0x00\n        /* \"--CODEGEN--\":4946:4998   */\n      tag_477\n        /* \"--CODEGEN--\":4990:4997   */\n      dup5\n        /* \"--CODEGEN--\":4981:4987   */\n      dup3\n        /* \"--CODEGEN--\":4970:4979   */\n      dup6\n        /* \"--CODEGEN--\":4966:4988   */\n      add\n        /* \"--CODEGEN--\":4946:4998   */\n      jump(tag_413)\n    tag_477:\n        /* \"--CODEGEN--\":4936:4998   */\n      swap2\n      pop\n        /* \"--CODEGEN--\":4908:5004   */\n      pop\n        /* \"--CODEGEN--\":4840:5014   */\n      swap3\n      swap2\n      pop\n      pop\n      jump\n        /* \"--CODEGEN--\":5021:5282   */\n    tag_357:\n      0x00\n        /* \"--CODEGEN--\":5135:5137   */\n      0x20\n        /* \"--CODEGEN--\":5123:5132   */\n      dup3\n        /* \"--CODEGEN--\":5114:5121   */\n      dup5\n        /* \"--CODEGEN--\":5110:5133   */\n      sub\n        /* \"--CODEGEN--\":5106:5138   */\n      slt\n        /* \"--CODEGEN--\":5103:5105   */\n      iszero\n      tag_479\n      jumpi\n        /* \"--CODEGEN--\":5151:5152   */\n      0x00\n        /* \"--CODEGEN--\":5148:5149   */\n      dup1\n        /* \"--CODEGEN--\":5141:5153   */\n      revert\n        /* \"--CODEGEN--\":5103:5105   */\n    tag_479:\n        /* \"--CODEGEN--\":5186:5187   */\n      0x00\n        /* \"--CODEGEN--\":5203:5266   */\n      tag_480\n        /* \"--CODEGEN--\":5258:5265   */\n      dup5\n        /* \"--CODEGEN--\":5249:5255   */\n      dup3\n        /* \"--CODEGEN--\":5238:5247   */\n      dup6\n        /* \"--CODEGEN--\":5234:5256   */\n      add\n        /* \"--CODEGEN--\":5203:5266   */\n      jump(tag_417)\n    tag_480:\n        /* \"--CODEGEN--\":5193:5266   */\n      swap2\n      pop\n        /* \"--CODEGEN--\":5165:5272   */\n      pop\n        /* \"--CODEGEN--\":5097:5282   */\n      swap3\n      swap2\n      pop\n      pop\n      jump\n        /* \"--CODEGEN--\":5289:5530   */\n    tag_37:\n      0x00\n        /* \"--CODEGEN--\":5393:5395   */\n      0x20\n        /* \"--CODEGEN--\":5381:5390   */\n      dup3\n        /* \"--CODEGEN--\":5372:5379   */\n      dup5\n        /* \"--CODEGEN--\":5368:5391   */\n      sub\n        /* \"--CODEGEN--\":5364:5396   */\n      slt\n        /* \"--CODEGEN--\":5361:5363   */\n      iszero\n      tag_482\n      jumpi\n        /* \"--CODEGEN--\":5409:5410   */\n      0x00\n        /* \"--CODEGEN--\":5406:5407   */\n      dup1\n        /* \"--CODEGEN--\":5399:5411   */\n      revert\n        /* \"--CODEGEN--\":5361:5363   */\n    tag_482:\n        /* \"--CODEGEN--\":5444:5445   */\n      0x00\n        /* \"--CODEGEN--\":5461:5514   */\n      tag_483\n        /* \"--CODEGEN--\":5506:5513   */\n      dup5\n        /* \"--CODEGEN--\":5497:5503   */\n      dup3\n        /* \"--CODEGEN--\":5486:5495   */\n      dup6\n        /* \"--CODEGEN--\":5482:5504   */\n      add\n        /* \"--CODEGEN--\":5461:5514   */\n      jump(tag_438)\n    tag_483:\n        /* \"--CODEGEN--\":5451:5514   */\n      swap2\n      pop\n        /* \"--CODEGEN--\":5423:5520   */\n      pop\n        /* \"--CODEGEN--\":5355:5530   */\n      swap3\n      swap2\n      pop\n      pop\n      jump\n        /* \"--CODEGEN--\":5537:5674   */\n    tag_484:\n        /* \"--CODEGEN--\":5636:5668   */\n      tag_486\n        /* \"--CODEGEN--\":5662:5667   */\n      dup2\n        /* \"--CODEGEN--\":5636:5668   */\n      jump(tag_487)\n    tag_486:\n        /* \"--CODEGEN--\":5631:5634   */\n      dup3\n        /* \"--CODEGEN--\":5624:5669   */\n      mstore\n        /* \"--CODEGEN--\":5618:5674   */\n      pop\n      pop\n      jump\n        /* \"--CODEGEN--\":5681:5794   */\n    tag_488:\n        /* \"--CODEGEN--\":5764:5788   */\n      tag_490\n        /* \"--CODEGEN--\":5782:5787   */\n      dup2\n        /* \"--CODEGEN--\":5764:5788   */\n      jump(tag_491)\n    tag_490:\n        /* \"--CODEGEN--\":5759:5762   */\n      dup3\n        /* \"--CODEGEN--\":5752:5789   */\n      mstore\n        /* \"--CODEGEN--\":5746:5794   */\n      pop\n      pop\n      jump\n        /* \"--CODEGEN--\":5801:5905   */\n    tag_492:\n        /* \"--CODEGEN--\":5878:5899   */\n      tag_494\n        /* \"--CODEGEN--\":5893:5898   */\n      dup2\n        /* \"--CODEGEN--\":5878:5899   */\n      jump(tag_495)\n    tag_494:\n        /* \"--CODEGEN--\":5873:5876   */\n      dup3\n        /* \"--CODEGEN--\":5866:5900   */\n      mstore\n        /* \"--CODEGEN--\":5860:5905   */\n      pop\n      pop\n      jump\n        /* \"--CODEGEN--\":5912:6255   */\n    tag_496:\n      0x00\n        /* \"--CODEGEN--\":6022:6060   */\n      tag_498\n        /* \"--CODEGEN--\":6054:6059   */\n      dup3\n        /* \"--CODEGEN--\":6022:6060   */\n      jump(tag_499)\n    tag_498:\n        /* \"--CODEGEN--\":6072:6142   */\n      tag_500\n        /* \"--CODEGEN--\":6135:6141   */\n      dup2\n        /* \"--CODEGEN--\":6130:6133   */\n      dup6\n        /* \"--CODEGEN--\":6072:6142   */\n      jump(tag_501)\n    tag_500:\n        /* \"--CODEGEN--\":6065:6142   */\n      swap4\n      pop\n        /* \"--CODEGEN--\":6147:6199   */\n      tag_502\n        /* \"--CODEGEN--\":6192:6198   */\n      dup2\n        /* \"--CODEGEN--\":6187:6190   */\n      dup6\n        /* \"--CODEGEN--\":6180:6184   */\n      0x20\n        /* \"--CODEGEN--\":6173:6178   */\n      dup7\n        /* \"--CODEGEN--\":6169:6185   */\n      add\n        /* \"--CODEGEN--\":6147:6199   */\n      jump(tag_503)\n    tag_502:\n        /* \"--CODEGEN--\":6220:6249   */\n      tag_504\n        /* \"--CODEGEN--\":6242:6248   */\n      dup2\n        /* \"--CODEGEN--\":6220:6249   */\n      jump(tag_505)\n    tag_504:\n        /* \"--CODEGEN--\":6215:6218   */\n      dup5\n        /* \"--CODEGEN--\":6211:6250   */\n      add\n        /* \"--CODEGEN--\":6204:6250   */\n      swap2\n      pop\n        /* \"--CODEGEN--\":6002:6255   */\n      pop\n      swap3\n      swap2\n      pop\n      pop\n      jump\n        /* \"--CODEGEN--\":6262:6618   */\n    tag_506:\n      0x00\n        /* \"--CODEGEN--\":6390:6428   */\n      tag_508\n        /* \"--CODEGEN--\":6422:6427   */\n      dup3\n        /* \"--CODEGEN--\":6390:6428   */\n      jump(tag_499)\n    tag_508:\n        /* \"--CODEGEN--\":6440:6528   */\n      tag_509\n        /* \"--CODEGEN--\":6521:6527   */\n      dup2\n        /* \"--CODEGEN--\":6516:6519   */\n      dup6\n        /* \"--CODEGEN--\":6440:6528   */\n      jump(tag_510)\n    tag_509:\n        /* \"--CODEGEN--\":6433:6528   */\n      swap4\n      pop\n        /* \"--CODEGEN--\":6533:6585   */\n      tag_511\n        /* \"--CODEGEN--\":6578:6584   */\n      dup2\n        /* \"--CODEGEN--\":6573:6576   */\n      dup6\n        /* \"--CODEGEN--\":6566:6570   */\n      0x20\n        /* \"--CODEGEN--\":6559:6564   */\n      dup7\n        /* \"--CODEGEN--\":6555:6571   */\n      add\n        /* \"--CODEGEN--\":6533:6585   */\n      jump(tag_503)\n    tag_511:\n        /* \"--CODEGEN--\":6606:6612   */\n      dup1\n        /* \"--CODEGEN--\":6601:6604   */\n      dup5\n        /* \"--CODEGEN--\":6597:6613   */\n      add\n        /* \"--CODEGEN--\":6590:6613   */\n      swap2\n      pop\n        /* \"--CODEGEN--\":6370:6618   */\n      pop\n      swap3\n      swap2\n      pop\n      pop\n      jump\n        /* \"--CODEGEN--\":6625:6972   */\n    tag_512:\n      0x00\n        /* \"--CODEGEN--\":6737:6776   */\n      tag_514\n        /* \"--CODEGEN--\":6770:6775   */\n      dup3\n        /* \"--CODEGEN--\":6737:6776   */\n      jump(tag_515)\n    tag_514:\n        /* \"--CODEGEN--\":6788:6859   */\n      tag_516\n        /* \"--CODEGEN--\":6852:6858   */\n      dup2\n        /* \"--CODEGEN--\":6847:6850   */\n      dup6\n        /* \"--CODEGEN--\":6788:6859   */\n      jump(tag_517)\n    tag_516:\n        /* \"--CODEGEN--\":6781:6859   */\n      swap4\n      pop\n        /* \"--CODEGEN--\":6864:6916   */\n      tag_518\n        /* \"--CODEGEN--\":6909:6915   */\n      dup2\n        /* \"--CODEGEN--\":6904:6907   */\n      dup6\n        /* \"--CODEGEN--\":6897:6901   */\n      0x20\n        /* \"--CODEGEN--\":6890:6895   */\n      dup7\n        /* \"--CODEGEN--\":6886:6902   */\n      add\n        /* \"--CODEGEN--\":6864:6916   */\n      jump(tag_503)\n    tag_518:\n        /* \"--CODEGEN--\":6937:6966   */\n      tag_519\n        /* \"--CODEGEN--\":6959:6965   */\n      dup2\n        /* \"--CODEGEN--\":6937:6966   */\n      jump(tag_505)\n    tag_519:\n        /* \"--CODEGEN--\":6932:6935   */\n      dup5\n        /* \"--CODEGEN--\":6928:6967   */\n      add\n        /* \"--CODEGEN--\":6921:6967   */\n      swap2\n      pop\n        /* \"--CODEGEN--\":6717:6972   */\n      pop\n      swap3\n      swap2\n      pop\n      pop\n      jump\n        /* \"--CODEGEN--\":6979:7339   */\n    tag_520:\n      0x00\n        /* \"--CODEGEN--\":7109:7148   */\n      tag_522\n        /* \"--CODEGEN--\":7142:7147   */\n      dup3\n        /* \"--CODEGEN--\":7109:7148   */\n      jump(tag_515)\n    tag_522:\n        /* \"--CODEGEN--\":7160:7249   */\n      tag_523\n        /* \"--CODEGEN--\":7242:7248   */\n      dup2\n        /* \"--CODEGEN--\":7237:7240   */\n      dup6\n        /* \"--CODEGEN--\":7160:7249   */\n      jump(tag_524)\n    tag_523:\n        /* \"--CODEGEN--\":7153:7249   */\n      swap4\n      pop\n        /* \"--CODEGEN--\":7254:7306   */\n      tag_525\n        /* \"--CODEGEN--\":7299:7305   */\n      dup2\n        /* \"--CODEGEN--\":7294:7297   */\n      dup6\n        /* \"--CODEGEN--\":7287:7291   */\n      0x20\n        /* \"--CODEGEN--\":7280:7285   */\n      dup7\n        /* \"--CODEGEN--\":7276:7292   */\n      add\n        /* \"--CODEGEN--\":7254:7306   */\n      jump(tag_503)\n    tag_525:\n        /* \"--CODEGEN--\":7327:7333   */\n      dup1\n        /* \"--CODEGEN--\":7322:7325   */\n      dup5\n        /* \"--CODEGEN--\":7318:7334   */\n      add\n        /* \"--CODEGEN--\":7311:7334   */\n      swap2\n      pop\n        /* \"--CODEGEN--\":7089:7339   */\n      pop\n      swap3\n      swap2\n      pop\n      pop\n      jump\n        /* \"--CODEGEN--\":7371:8255   */\n    tag_526:\n      0x00\n        /* \"--CODEGEN--\":7508:7513   */\n      dup2\n        /* \"--CODEGEN--\":7502:7514   */\n      sload\n        /* \"--CODEGEN--\":7542:7543   */\n      0x01\n        /* \"--CODEGEN--\":7531:7540   */\n      dup2\n        /* \"--CODEGEN--\":7527:7544   */\n      and\n        /* \"--CODEGEN--\":7555:7556   */\n      0x00\n        /* \"--CODEGEN--\":7550:7818   */\n      dup2\n      eq\n      tag_529\n      jumpi\n        /* \"--CODEGEN--\":7829:7830   */\n      0x01\n        /* \"--CODEGEN--\":7824:8249   */\n      dup2\n      eq\n      tag_530\n      jumpi\n        /* \"--CODEGEN--\":7520:8249   */\n      jump(tag_528)\n        /* \"--CODEGEN--\":7550:7818   */\n    tag_529:\n        /* \"--CODEGEN--\":7628:7632   */\n      0x7f\n        /* \"--CODEGEN--\":7624:7625   */\n      0x02\n        /* \"--CODEGEN--\":7613:7622   */\n      dup4\n        /* \"--CODEGEN--\":7609:7626   */\n      div\n        /* \"--CODEGEN--\":7605:7633   */\n      and\n        /* \"--CODEGEN--\":7647:7736   */\n      tag_531\n        /* \"--CODEGEN--\":7729:7735   */\n      dup2\n        /* \"--CODEGEN--\":7724:7727   */\n      dup8\n        /* \"--CODEGEN--\":7647:7736   */\n      jump(tag_524)\n    tag_531:\n        /* \"--CODEGEN--\":7640:7736   */\n      swap6\n      pop\n        /* \"--CODEGEN--\":7774:7778   */\n      0xff\n        /* \"--CODEGEN--\":7770:7779   */\n      not\n        /* \"--CODEGEN--\":7759:7768   */\n      dup4\n        /* \"--CODEGEN--\":7755:7780   */\n      and\n        /* \"--CODEGEN--\":7750:7753   */\n      dup7\n        /* \"--CODEGEN--\":7743:7781   */\n      mstore\n        /* \"--CODEGEN--\":7804:7810   */\n      dup1\n        /* \"--CODEGEN--\":7799:7802   */\n      dup7\n        /* \"--CODEGEN--\":7795:7811   */\n      add\n        /* \"--CODEGEN--\":7788:7811   */\n      swap4\n      pop\n        /* \"--CODEGEN--\":7557:7818   */\n      pop\n        /* \"--CODEGEN--\":7550:7818   */\n      jump(tag_528)\n        /* \"--CODEGEN--\":7824:8249   */\n    tag_530:\n        /* \"--CODEGEN--\":7893:7894   */\n      0x02\n        /* \"--CODEGEN--\":7882:7891   */\n      dup3\n        /* \"--CODEGEN--\":7878:7895   */\n      div\n        /* \"--CODEGEN--\":7909:7998   */\n      tag_532\n        /* \"--CODEGEN--\":7991:7997   */\n      dup2\n        /* \"--CODEGEN--\":7986:7989   */\n      dup8\n        /* \"--CODEGEN--\":7909:7998   */\n      jump(tag_524)\n    tag_532:\n        /* \"--CODEGEN--\":7902:7998   */\n      swap6\n      pop\n        /* \"--CODEGEN--\":8020:8058   */\n      tag_533\n        /* \"--CODEGEN--\":8052:8057   */\n      dup6\n        /* \"--CODEGEN--\":8020:8058   */\n      jump(tag_534)\n    tag_533:\n        /* \"--CODEGEN--\":8074:8075   */\n      0x00\n        /* \"--CODEGEN--\":8082:8212   */\n    tag_535:\n        /* \"--CODEGEN--\":8096:8102   */\n      dup3\n        /* \"--CODEGEN--\":8093:8094   */\n      dup2\n        /* \"--CODEGEN--\":8090:8103   */\n      lt\n        /* \"--CODEGEN--\":8082:8212   */\n      iszero\n      tag_537\n      jumpi\n        /* \"--CODEGEN--\":8161:8168   */\n      dup2\n        /* \"--CODEGEN--\":8155:8169   */\n      sload\n        /* \"--CODEGEN--\":8151:8152   */\n      dup2\n        /* \"--CODEGEN--\":8146:8149   */\n      dup10\n        /* \"--CODEGEN--\":8142:8153   */\n      add\n        /* \"--CODEGEN--\":8135:8170   */\n      mstore\n        /* \"--CODEGEN--\":8202:8203   */\n      0x01\n        /* \"--CODEGEN--\":8193:8200   */\n      dup3\n        /* \"--CODEGEN--\":8189:8204   */\n      add\n        /* \"--CODEGEN--\":8178:8204   */\n      swap2\n      pop\n        /* \"--CODEGEN--\":8118:8122   */\n      0x20\n        /* \"--CODEGEN--\":8115:8116   */\n      dup2\n        /* \"--CODEGEN--\":8111:8123   */\n      add\n        /* \"--CODEGEN--\":8106:8123   */\n      swap1\n      pop\n        /* \"--CODEGEN--\":8082:8212   */\n      jump(tag_535)\n    tag_537:\n        /* \"--CODEGEN--\":8235:8241   */\n      dup3\n        /* \"--CODEGEN--\":8230:8233   */\n      dup9\n        /* \"--CODEGEN--\":8226:8242   */\n      add\n        /* \"--CODEGEN--\":8219:8242   */\n      swap6\n      pop\n        /* \"--CODEGEN--\":7831:8249   */\n      pop\n      pop\n      pop\n        /* \"--CODEGEN--\":7520:8249   */\n    tag_528:\n      pop\n        /* \"--CODEGEN--\":7478:8255   */\n      pop\n      swap3\n      swap2\n      pop\n      pop\n      jump\n        /* \"--CODEGEN--\":8264:8635   */\n    tag_538:\n      0x00\n        /* \"--CODEGEN--\":8424:8491   */\n      tag_540\n        /* \"--CODEGEN--\":8488:8490   */\n      0x22\n        /* \"--CODEGEN--\":8483:8486   */\n      dup4\n        /* \"--CODEGEN--\":8424:8491   */\n      jump(tag_517)\n    tag_540:\n        /* \"--CODEGEN--\":8417:8491   */\n      swap2\n      pop\n        /* \"--CODEGEN--\":8524:8558   */\n      0x456e756d657261626c655365743a20696e646578206f7574206f6620626f756e\n        /* \"--CODEGEN--\":8520:8521   */\n      0x00\n        /* \"--CODEGEN--\":8515:8518   */\n      dup4\n        /* \"--CODEGEN--\":8511:8522   */\n      add\n        /* \"--CODEGEN--\":8504:8559   */\n      mstore\n        /* \"--CODEGEN--\":8593:8597   */\n      0x6473000000000000000000000000000000000000000000000000000000000000\n        /* \"--CODEGEN--\":8588:8590   */\n      0x20\n        /* \"--CODEGEN--\":8583:8586   */\n      dup4\n        /* \"--CODEGEN--\":8579:8591   */\n      add\n        /* \"--CODEGEN--\":8572:8598   */\n      mstore\n        /* \"--CODEGEN--\":8626:8628   */\n      0x40\n        /* \"--CODEGEN--\":8621:8624   */\n      dup3\n        /* \"--CODEGEN--\":8617:8629   */\n      add\n        /* \"--CODEGEN--\":8610:8629   */\n      swap1\n      pop\n        /* \"--CODEGEN--\":8410:8635   */\n      swap2\n      swap1\n      pop\n      jump\n        /* \"--CODEGEN--\":8644:9031   */\n    tag_541:\n      0x00\n        /* \"--CODEGEN--\":8804:8871   */\n      tag_543\n        /* \"--CODEGEN--\":8868:8870   */\n      0x32\n        /* \"--CODEGEN--\":8863:8866   */\n      dup4\n        /* \"--CODEGEN--\":8804:8871   */\n      jump(tag_517)\n    tag_543:\n        /* \"--CODEGEN--\":8797:8871   */\n      swap2\n      pop\n        /* \"--CODEGEN--\":8904:8938   */\n      0x4552433732313a207472616e7366657220746f206e6f6e204552433732315265\n        /* \"--CODEGEN--\":8900:8901   */\n      0x00\n        /* \"--CODEGEN--\":8895:8898   */\n      dup4\n        /* \"--CODEGEN--\":8891:8902   */\n      add\n        /* \"--CODEGEN--\":8884:8939   */\n      mstore\n        /* \"--CODEGEN--\":8973:8993   */\n      0x63656976657220696d706c656d656e7465720000000000000000000000000000\n        /* \"--CODEGEN--\":8968:8970   */\n      0x20\n        /* \"--CODEGEN--\":8963:8966   */\n      dup4\n        /* \"--CODEGEN--\":8959:8971   */\n      add\n        /* \"--CODEGEN--\":8952:8994   */\n      mstore\n        /* \"--CODEGEN--\":9022:9024   */\n      0x40\n        /* \"--CODEGEN--\":9017:9020   */\n      dup3\n        /* \"--CODEGEN--\":9013:9025   */\n      add\n        /* \"--CODEGEN--\":9006:9025   */\n      swap1\n      pop\n        /* \"--CODEGEN--\":8790:9031   */\n      swap2\n      swap1\n      pop\n      jump\n        /* \"--CODEGEN--\":9040:9368   */\n    tag_544:\n      0x00\n        /* \"--CODEGEN--\":9200:9267   */\n      tag_546\n        /* \"--CODEGEN--\":9264:9266   */\n      0x1c\n        /* \"--CODEGEN--\":9259:9262   */\n      dup4\n        /* \"--CODEGEN--\":9200:9267   */\n      jump(tag_517)\n    tag_546:\n        /* \"--CODEGEN--\":9193:9267   */\n      swap2\n      pop\n        /* \"--CODEGEN--\":9300:9330   */\n      0x4552433732313a20746f6b656e20616c7265616479206d696e74656400000000\n        /* \"--CODEGEN--\":9296:9297   */\n      0x00\n        /* \"--CODEGEN--\":9291:9294   */\n      dup4\n        /* \"--CODEGEN--\":9287:9298   */\n      add\n        /* \"--CODEGEN--\":9280:9331   */\n      mstore\n        /* \"--CODEGEN--\":9359:9361   */\n      0x20\n        /* \"--CODEGEN--\":9354:9357   */\n      dup3\n        /* \"--CODEGEN--\":9350:9362   */\n      add\n        /* \"--CODEGEN--\":9343:9362   */\n      swap1\n      pop\n        /* \"--CODEGEN--\":9186:9368   */\n      swap2\n      swap1\n      pop\n      jump\n        /* \"--CODEGEN--\":9377:9750   */\n    tag_547:\n      0x00\n        /* \"--CODEGEN--\":9537:9604   */\n      tag_549\n        /* \"--CODEGEN--\":9601:9603   */\n      0x24\n        /* \"--CODEGEN--\":9596:9599   */\n      dup4\n        /* \"--CODEGEN--\":9537:9604   */\n      jump(tag_517)\n    tag_549:\n        /* \"--CODEGEN--\":9530:9604   */\n      swap2\n      pop\n        /* \"--CODEGEN--\":9637:9671   */\n      0x4552433732313a207472616e7366657220746f20746865207a65726f20616464\n        /* \"--CODEGEN--\":9633:9634   */\n      0x00\n        /* \"--CODEGEN--\":9628:9631   */\n      dup4\n        /* \"--CODEGEN--\":9624:9635   */\n      add\n        /* \"--CODEGEN--\":9617:9672   */\n      mstore\n        /* \"--CODEGEN--\":9706:9712   */\n      0x7265737300000000000000000000000000000000000000000000000000000000\n        /* \"--CODEGEN--\":9701:9703   */\n      0x20\n        /* \"--CODEGEN--\":9696:9699   */\n      dup4\n        /* \"--CODEGEN--\":9692:9704   */\n      add\n        /* \"--CODEGEN--\":9685:9713   */\n      mstore\n        /* \"--CODEGEN--\":9741:9743   */\n      0x40\n        /* \"--CODEGEN--\":9736:9739   */\n      dup3\n        /* \"--CODEGEN--\":9732:9744   */\n      add\n        /* \"--CODEGEN--\":9725:9744   */\n      swap1\n      pop\n        /* \"--CODEGEN--\":9523:9750   */\n      swap2\n      swap1\n      pop\n      jump\n        /* \"--CODEGEN--\":9759:10084   */\n    tag_550:\n      0x00\n        /* \"--CODEGEN--\":9919:9986   */\n      tag_552\n        /* \"--CODEGEN--\":9983:9985   */\n      0x19\n        /* \"--CODEGEN--\":9978:9981   */\n      dup4\n        /* \"--CODEGEN--\":9919:9986   */\n      jump(tag_517)\n    tag_552:\n        /* \"--CODEGEN--\":9912:9986   */\n      swap2\n      pop\n        /* \"--CODEGEN--\":10019:10046   */\n      0x4552433732313a20617070726f766520746f2063616c6c657200000000000000\n        /* \"--CODEGEN--\":10015:10016   */\n      0x00\n        /* \"--CODEGEN--\":10010:10013   */\n      dup4\n        /* \"--CODEGEN--\":10006:10017   */\n      add\n        /* \"--CODEGEN--\":9999:10047   */\n      mstore\n        /* \"--CODEGEN--\":10075:10077   */\n      0x20\n        /* \"--CODEGEN--\":10070:10073   */\n      dup3\n        /* \"--CODEGEN--\":10066:10078   */\n      add\n        /* \"--CODEGEN--\":10059:10078   */\n      swap1\n      pop\n        /* \"--CODEGEN--\":9905:10084   */\n      swap2\n      swap1\n      pop\n      jump\n        /* \"--CODEGEN--\":10093:10474   */\n    tag_553:\n      0x00\n        /* \"--CODEGEN--\":10253:10320   */\n      tag_555\n        /* \"--CODEGEN--\":10317:10319   */\n      0x2c\n        /* \"--CODEGEN--\":10312:10315   */\n      dup4\n        /* \"--CODEGEN--\":10253:10320   */\n      jump(tag_517)\n    tag_555:\n        /* \"--CODEGEN--\":10246:10320   */\n      swap2\n      pop\n        /* \"--CODEGEN--\":10353:10387   */\n      0x4552433732313a206f70657261746f7220717565727920666f72206e6f6e6578\n        /* \"--CODEGEN--\":10349:10350   */\n      0x00\n        /* \"--CODEGEN--\":10344:10347   */\n      dup4\n        /* \"--CODEGEN--\":10340:10351   */\n      add\n        /* \"--CODEGEN--\":10333:10388   */\n      mstore\n        /* \"--CODEGEN--\":10422:10436   */\n      0x697374656e7420746f6b656e0000000000000000000000000000000000000000\n        /* \"--CODEGEN--\":10417:10419   */\n      0x20\n        /* \"--CODEGEN--\":10412:10415   */\n      dup4\n        /* \"--CODEGEN--\":10408:10420   */\n      add\n        /* \"--CODEGEN--\":10401:10437   */\n      mstore\n        /* \"--CODEGEN--\":10465:10467   */\n      0x40\n        /* \"--CODEGEN--\":10460:10463   */\n      dup3\n        /* \"--CODEGEN--\":10456:10468   */\n      add\n        /* \"--CODEGEN--\":10449:10468   */\n      swap1\n      pop\n        /* \"--CODEGEN--\":10239:10474   */\n      swap2\n      swap1\n      pop\n      jump\n        /* \"--CODEGEN--\":10483:10876   */\n    tag_556:\n      0x00\n        /* \"--CODEGEN--\":10643:10710   */\n      tag_558\n        /* \"--CODEGEN--\":10707:10709   */\n      0x38\n        /* \"--CODEGEN--\":10702:10705   */\n      dup4\n        /* \"--CODEGEN--\":10643:10710   */\n      jump(tag_517)\n    tag_558:\n        /* \"--CODEGEN--\":10636:10710   */\n      swap2\n      pop\n        /* \"--CODEGEN--\":10743:10777   */\n      0x4552433732313a20617070726f76652063616c6c6572206973206e6f74206f77\n        /* \"--CODEGEN--\":10739:10740   */\n      0x00\n        /* \"--CODEGEN--\":10734:10737   */\n      dup4\n        /* \"--CODEGEN--\":10730:10741   */\n      add\n        /* \"--CODEGEN--\":10723:10778   */\n      mstore\n        /* \"--CODEGEN--\":10812:10838   */\n      0x6e6572206e6f7220617070726f76656420666f7220616c6c0000000000000000\n        /* \"--CODEGEN--\":10807:10809   */\n      0x20\n        /* \"--CODEGEN--\":10802:10805   */\n      dup4\n        /* \"--CODEGEN--\":10798:10810   */\n      add\n        /* \"--CODEGEN--\":10791:10839   */\n      mstore\n        /* \"--CODEGEN--\":10867:10869   */\n      0x40\n        /* \"--CODEGEN--\":10862:10865   */\n      dup3\n        /* \"--CODEGEN--\":10858:10870   */\n      add\n        /* \"--CODEGEN--\":10851:10870   */\n      swap1\n      pop\n        /* \"--CODEGEN--\":10629:10876   */\n      swap2\n      swap1\n      pop\n      jump\n        /* \"--CODEGEN--\":10885:11264   */\n    tag_559:\n      0x00\n        /* \"--CODEGEN--\":11045:11112   */\n      tag_561\n        /* \"--CODEGEN--\":11109:11111   */\n      0x2a\n        /* \"--CODEGEN--\":11104:11107   */\n      dup4\n        /* \"--CODEGEN--\":11045:11112   */\n      jump(tag_517)\n    tag_561:\n        /* \"--CODEGEN--\":11038:11112   */\n      swap2\n      pop\n        /* \"--CODEGEN--\":11145:11179   */\n      0x4552433732313a2062616c616e636520717565727920666f7220746865207a65\n        /* \"--CODEGEN--\":11141:11142   */\n      0x00\n        /* \"--CODEGEN--\":11136:11139   */\n      dup4\n        /* \"--CODEGEN--\":11132:11143   */\n      add\n        /* \"--CODEGEN--\":11125:11180   */\n      mstore\n        /* \"--CODEGEN--\":11214:11226   */\n      0x726f206164647265737300000000000000000000000000000000000000000000\n        /* \"--CODEGEN--\":11209:11211   */\n      0x20\n        /* \"--CODEGEN--\":11204:11207   */\n      dup4\n        /* \"--CODEGEN--\":11200:11212   */\n      add\n        /* \"--CODEGEN--\":11193:11227   */\n      mstore\n        /* \"--CODEGEN--\":11255:11257   */\n      0x40\n        /* \"--CODEGEN--\":11250:11253   */\n      dup3\n        /* \"--CODEGEN--\":11246:11258   */\n      add\n        /* \"--CODEGEN--\":11239:11258   */\n      swap1\n      pop\n        /* \"--CODEGEN--\":11031:11264   */\n      swap2\n      swap1\n      pop\n      jump\n        /* \"--CODEGEN--\":11273:11644   */\n    tag_562:\n      0x00\n        /* \"--CODEGEN--\":11433:11500   */\n      tag_564\n        /* \"--CODEGEN--\":11497:11499   */\n      0x22\n        /* \"--CODEGEN--\":11492:11495   */\n      dup4\n        /* \"--CODEGEN--\":11433:11500   */\n      jump(tag_517)\n    tag_564:\n        /* \"--CODEGEN--\":11426:11500   */\n      swap2\n      pop\n        /* \"--CODEGEN--\":11533:11567   */\n      0x456e756d657261626c654d61703a20696e646578206f7574206f6620626f756e\n        /* \"--CODEGEN--\":11529:11530   */\n      0x00\n        /* \"--CODEGEN--\":11524:11527   */\n      dup4\n        /* \"--CODEGEN--\":11520:11531   */\n      add\n        /* \"--CODEGEN--\":11513:11568   */\n      mstore\n        /* \"--CODEGEN--\":11602:11606   */\n      0x6473000000000000000000000000000000000000000000000000000000000000\n        /* \"--CODEGEN--\":11597:11599   */\n      0x20\n        /* \"--CODEGEN--\":11592:11595   */\n      dup4\n        /* \"--CODEGEN--\":11588:11600   */\n      add\n        /* \"--CODEGEN--\":11581:11607   */\n      mstore\n        /* \"--CODEGEN--\":11635:11637   */\n      0x40\n        /* \"--CODEGEN--\":11630:11633   */\n      dup3\n        /* \"--CODEGEN--\":11626:11638   */\n      add\n        /* \"--CODEGEN--\":11619:11638   */\n      swap1\n      pop\n        /* \"--CODEGEN--\":11419:11644   */\n      swap2\n      swap1\n      pop\n      jump\n        /* \"--CODEGEN--\":11653:11985   */\n    tag_565:\n      0x00\n        /* \"--CODEGEN--\":11813:11880   */\n      tag_567\n        /* \"--CODEGEN--\":11877:11879   */\n      0x20\n        /* \"--CODEGEN--\":11872:11875   */\n      dup4\n        /* \"--CODEGEN--\":11813:11880   */\n      jump(tag_517)\n    tag_567:\n        /* \"--CODEGEN--\":11806:11880   */\n      swap2\n      pop\n        /* \"--CODEGEN--\":11913:11947   */\n      0x4552433732313a206d696e7420746f20746865207a65726f2061646472657373\n        /* \"--CODEGEN--\":11909:11910   */\n      0x00\n        /* \"--CODEGEN--\":11904:11907   */\n      dup4\n        /* \"--CODEGEN--\":11900:11911   */\n      add\n        /* \"--CODEGEN--\":11893:11948   */\n      mstore\n        /* \"--CODEGEN--\":11976:11978   */\n      0x20\n        /* \"--CODEGEN--\":11971:11974   */\n      dup3\n        /* \"--CODEGEN--\":11967:11979   */\n      add\n        /* \"--CODEGEN--\":11960:11979   */\n      swap1\n      pop\n        /* \"--CODEGEN--\":11799:11985   */\n      swap2\n      swap1\n      pop\n      jump\n        /* \"--CODEGEN--\":11994:12375   */\n    tag_568:\n      0x00\n        /* \"--CODEGEN--\":12154:12221   */\n      tag_570\n        /* \"--CODEGEN--\":12218:12220   */\n      0x2c\n        /* \"--CODEGEN--\":12213:12216   */\n      dup4\n        /* \"--CODEGEN--\":12154:12221   */\n      jump(tag_517)\n    tag_570:\n        /* \"--CODEGEN--\":12147:12221   */\n      swap2\n      pop\n        /* \"--CODEGEN--\":12254:12288   */\n      0x4552433732313a20617070726f76656420717565727920666f72206e6f6e6578\n        /* \"--CODEGEN--\":12250:12251   */\n      0x00\n        /* \"--CODEGEN--\":12245:12248   */\n      dup4\n        /* \"--CODEGEN--\":12241:12252   */\n      add\n        /* \"--CODEGEN--\":12234:12289   */\n      mstore\n        /* \"--CODEGEN--\":12323:12337   */\n      0x697374656e7420746f6b656e0000000000000000000000000000000000000000\n        /* \"--CODEGEN--\":12318:12320   */\n      0x20\n        /* \"--CODEGEN--\":12313:12316   */\n      dup4\n        /* \"--CODEGEN--\":12309:12321   */\n      add\n        /* \"--CODEGEN--\":12302:12338   */\n      mstore\n        /* \"--CODEGEN--\":12366:12368   */\n      0x40\n        /* \"--CODEGEN--\":12361:12364   */\n      dup3\n        /* \"--CODEGEN--\":12357:12369   */\n      add\n        /* \"--CODEGEN--\":12350:12369   */\n      swap1\n      pop\n        /* \"--CODEGEN--\":12140:12375   */\n      swap2\n      swap1\n      pop\n      jump\n        /* \"--CODEGEN--\":12384:12765   */\n    tag_571:\n      0x00\n        /* \"--CODEGEN--\":12544:12611   */\n      tag_573\n        /* \"--CODEGEN--\":12608:12610   */\n      0x2c\n        /* \"--CODEGEN--\":12603:12606   */\n      dup4\n        /* \"--CODEGEN--\":12544:12611   */\n      jump(tag_517)\n    tag_573:\n        /* \"--CODEGEN--\":12537:12611   */\n      swap2\n      pop\n        /* \"--CODEGEN--\":12644:12678   */\n      0x4552433732314d657461646174613a2055524920736574206f66206e6f6e6578\n        /* \"--CODEGEN--\":12640:12641   */\n      0x00\n        /* \"--CODEGEN--\":12635:12638   */\n      dup4\n        /* \"--CODEGEN--\":12631:12642   */\n      add\n        /* \"--CODEGEN--\":12624:12679   */\n      mstore\n        /* \"--CODEGEN--\":12713:12727   */\n      0x697374656e7420746f6b656e0000000000000000000000000000000000000000\n        /* \"--CODEGEN--\":12708:12710   */\n      0x20\n        /* \"--CODEGEN--\":12703:12706   */\n      dup4\n        /* \"--CODEGEN--\":12699:12711   */\n      add\n        /* \"--CODEGEN--\":12692:12728   */\n      mstore\n        /* \"--CODEGEN--\":12756:12758   */\n      0x40\n        /* \"--CODEGEN--\":12751:12754   */\n      dup3\n        /* \"--CODEGEN--\":12747:12759   */\n      add\n        /* \"--CODEGEN--\":12740:12759   */\n      swap1\n      pop\n        /* \"--CODEGEN--\":12530:12765   */\n      swap2\n      swap1\n      pop\n      jump\n        /* \"--CODEGEN--\":12774:13152   */\n    tag_574:\n      0x00\n        /* \"--CODEGEN--\":12934:13001   */\n      tag_576\n        /* \"--CODEGEN--\":12998:13000   */\n      0x29\n        /* \"--CODEGEN--\":12993:12996   */\n      dup4\n        /* \"--CODEGEN--\":12934:13001   */\n      jump(tag_517)\n    tag_576:\n        /* \"--CODEGEN--\":12927:13001   */\n      swap2\n      pop\n        /* \"--CODEGEN--\":13034:13068   */\n      0x4552433732313a207472616e73666572206f6620746f6b656e20746861742069\n        /* \"--CODEGEN--\":13030:13031   */\n      0x00\n        /* \"--CODEGEN--\":13025:13028   */\n      dup4\n        /* \"--CODEGEN--\":13021:13032   */\n      add\n        /* \"--CODEGEN--\":13014:13069   */\n      mstore\n        /* \"--CODEGEN--\":13103:13114   */\n      0x73206e6f74206f776e0000000000000000000000000000000000000000000000\n        /* \"--CODEGEN--\":13098:13100   */\n      0x20\n        /* \"--CODEGEN--\":13093:13096   */\n      dup4\n        /* \"--CODEGEN--\":13089:13101   */\n      add\n        /* \"--CODEGEN--\":13082:13115   */\n      mstore\n        /* \"--CODEGEN--\":13143:13145   */\n      0x40\n        /* \"--CODEGEN--\":13138:13141   */\n      dup3\n        /* \"--CODEGEN--\":13134:13146   */\n      add\n        /* \"--CODEGEN--\":13127:13146   */\n      swap1\n      pop\n        /* \"--CODEGEN--\":12920:13152   */\n      swap2\n      swap1\n      pop\n      jump\n        /* \"--CODEGEN--\":13161:13545   */\n    tag_577:\n      0x00\n        /* \"--CODEGEN--\":13321:13388   */\n      tag_579\n        /* \"--CODEGEN--\":13385:13387   */\n      0x2f\n        /* \"--CODEGEN--\":13380:13383   */\n      dup4\n        /* \"--CODEGEN--\":13321:13388   */\n      jump(tag_517)\n    tag_579:\n        /* \"--CODEGEN--\":13314:13388   */\n      swap2\n      pop\n        /* \"--CODEGEN--\":13421:13455   */\n      0x4552433732314d657461646174613a2055524920717565727920666f72206e6f\n        /* \"--CODEGEN--\":13417:13418   */\n      0x00\n        /* \"--CODEGEN--\":13412:13415   */\n      dup4\n        /* \"--CODEGEN--\":13408:13419   */\n      add\n        /* \"--CODEGEN--\":13401:13456   */\n      mstore\n        /* \"--CODEGEN--\":13490:13507   */\n      0x6e6578697374656e7420746f6b656e0000000000000000000000000000000000\n        /* \"--CODEGEN--\":13485:13487   */\n      0x20\n        /* \"--CODEGEN--\":13480:13483   */\n      dup4\n        /* \"--CODEGEN--\":13476:13488   */\n      add\n        /* \"--CODEGEN--\":13469:13508   */\n      mstore\n        /* \"--CODEGEN--\":13536:13538   */\n      0x40\n        /* \"--CODEGEN--\":13531:13534   */\n      dup3\n        /* \"--CODEGEN--\":13527:13539   */\n      add\n        /* \"--CODEGEN--\":13520:13539   */\n      swap1\n      pop\n        /* \"--CODEGEN--\":13307:13545   */\n      swap2\n      swap1\n      pop\n      jump\n        /* \"--CODEGEN--\":13554:13924   */\n    tag_580:\n      0x00\n        /* \"--CODEGEN--\":13714:13781   */\n      tag_582\n        /* \"--CODEGEN--\":13778:13780   */\n      0x21\n        /* \"--CODEGEN--\":13773:13776   */\n      dup4\n        /* \"--CODEGEN--\":13714:13781   */\n      jump(tag_517)\n    tag_582:\n        /* \"--CODEGEN--\":13707:13781   */\n      swap2\n      pop\n        /* \"--CODEGEN--\":13814:13848   */\n      0x4552433732313a20617070726f76616c20746f2063757272656e74206f776e65\n        /* \"--CODEGEN--\":13810:13811   */\n      0x00\n        /* \"--CODEGEN--\":13805:13808   */\n      dup4\n        /* \"--CODEGEN--\":13801:13812   */\n      add\n        /* \"--CODEGEN--\":13794:13849   */\n      mstore\n        /* \"--CODEGEN--\":13883:13886   */\n      0x7200000000000000000000000000000000000000000000000000000000000000\n        /* \"--CODEGEN--\":13878:13880   */\n      0x20\n        /* \"--CODEGEN--\":13873:13876   */\n      dup4\n        /* \"--CODEGEN--\":13869:13881   */\n      add\n        /* \"--CODEGEN--\":13862:13887   */\n      mstore\n        /* \"--CODEGEN--\":13915:13917   */\n      0x40\n        /* \"--CODEGEN--\":13910:13913   */\n      dup3\n        /* \"--CODEGEN--\":13906:13918   */\n      add\n        /* \"--CODEGEN--\":13899:13918   */\n      swap1\n      pop\n        /* \"--CODEGEN--\":13700:13924   */\n      swap2\n      swap1\n      pop\n      jump\n        /* \"--CODEGEN--\":13933:14319   */\n    tag_583:\n      0x00\n        /* \"--CODEGEN--\":14093:14160   */\n      tag_585\n        /* \"--CODEGEN--\":14157:14159   */\n      0x31\n        /* \"--CODEGEN--\":14152:14155   */\n      dup4\n        /* \"--CODEGEN--\":14093:14160   */\n      jump(tag_517)\n    tag_585:\n        /* \"--CODEGEN--\":14086:14160   */\n      swap2\n      pop\n        /* \"--CODEGEN--\":14193:14227   */\n      0x4552433732313a207472616e736665722063616c6c6572206973206e6f74206f\n        /* \"--CODEGEN--\":14189:14190   */\n      0x00\n        /* \"--CODEGEN--\":14184:14187   */\n      dup4\n        /* \"--CODEGEN--\":14180:14191   */\n      add\n        /* \"--CODEGEN--\":14173:14228   */\n      mstore\n        /* \"--CODEGEN--\":14262:14281   */\n      0x776e6572206e6f7220617070726f766564000000000000000000000000000000\n        /* \"--CODEGEN--\":14257:14259   */\n      0x20\n        /* \"--CODEGEN--\":14252:14255   */\n      dup4\n        /* \"--CODEGEN--\":14248:14260   */\n      add\n        /* \"--CODEGEN--\":14241:14282   */\n      mstore\n        /* \"--CODEGEN--\":14310:14312   */\n      0x40\n        /* \"--CODEGEN--\":14305:14308   */\n      dup3\n        /* \"--CODEGEN--\":14301:14313   */\n      add\n        /* \"--CODEGEN--\":14294:14313   */\n      swap1\n      pop\n        /* \"--CODEGEN--\":14079:14319   */\n      swap2\n      swap1\n      pop\n      jump\n        /* \"--CODEGEN--\":14328:14713   */\n    tag_586:\n      0x00\n        /* \"--CODEGEN--\":14488:14555   */\n      tag_588\n        /* \"--CODEGEN--\":14552:14554   */\n      0x30\n        /* \"--CODEGEN--\":14547:14550   */\n      dup4\n        /* \"--CODEGEN--\":14488:14555   */\n      jump(tag_517)\n    tag_588:\n        /* \"--CODEGEN--\":14481:14555   */\n      swap2\n      pop\n        /* \"--CODEGEN--\":14588:14622   */\n      0x4552433732314275726e61626c653a2063616c6c6572206973206e6f74206f77\n        /* \"--CODEGEN--\":14584:14585   */\n      0x00\n        /* \"--CODEGEN--\":14579:14582   */\n      dup4\n        /* \"--CODEGEN--\":14575:14586   */\n      add\n        /* \"--CODEGEN--\":14568:14623   */\n      mstore\n        /* \"--CODEGEN--\":14657:14675   */\n      0x6e6572206e6f7220617070726f76656400000000000000000000000000000000\n        /* \"--CODEGEN--\":14652:14654   */\n      0x20\n        /* \"--CODEGEN--\":14647:14650   */\n      dup4\n        /* \"--CODEGEN--\":14643:14655   */\n      add\n        /* \"--CODEGEN--\":14636:14676   */\n      mstore\n        /* \"--CODEGEN--\":14704:14706   */\n      0x40\n        /* \"--CODEGEN--\":14699:14702   */\n      dup3\n        /* \"--CODEGEN--\":14695:14707   */\n      add\n        /* \"--CODEGEN--\":14688:14707   */\n      swap1\n      pop\n        /* \"--CODEGEN--\":14474:14713   */\n      swap2\n      swap1\n      pop\n      jump\n        /* \"--CODEGEN--\":14721:14834   */\n    tag_589:\n        /* \"--CODEGEN--\":14804:14828   */\n      tag_591\n        /* \"--CODEGEN--\":14822:14827   */\n      dup2\n        /* \"--CODEGEN--\":14804:14828   */\n      jump(tag_592)\n    tag_591:\n        /* \"--CODEGEN--\":14799:14802   */\n      dup3\n        /* \"--CODEGEN--\":14792:14829   */\n      mstore\n        /* \"--CODEGEN--\":14786:14834   */\n      pop\n      pop\n      jump\n        /* \"--CODEGEN--\":14841:15103   */\n    tag_347:\n      0x00\n        /* \"--CODEGEN--\":14985:15078   */\n      tag_594\n        /* \"--CODEGEN--\":15074:15077   */\n      dup3\n        /* \"--CODEGEN--\":15065:15071   */\n      dup5\n        /* \"--CODEGEN--\":14985:15078   */\n      jump(tag_506)\n    tag_594:\n        /* \"--CODEGEN--\":14978:15078   */\n      swap2\n      pop\n        /* \"--CODEGEN--\":15095:15098   */\n      dup2\n        /* \"--CODEGEN--\":15088:15098   */\n      swap1\n      pop\n        /* \"--CODEGEN--\":14966:15103   */\n      swap3\n      swap2\n      pop\n      pop\n      jump\n        /* \"--CODEGEN--\":15110:15531   */\n    tag_200:\n      0x00\n        /* \"--CODEGEN--\":15301:15393   */\n      tag_596\n        /* \"--CODEGEN--\":15389:15392   */\n      dup3\n        /* \"--CODEGEN--\":15380:15386   */\n      dup6\n        /* \"--CODEGEN--\":15301:15393   */\n      jump(tag_526)\n    tag_596:\n        /* \"--CODEGEN--\":15294:15393   */\n      swap2\n      pop\n        /* \"--CODEGEN--\":15411:15506   */\n      tag_597\n        /* \"--CODEGEN--\":15502:15505   */\n      dup3\n        /* \"--CODEGEN--\":15493:15499   */\n      dup5\n        /* \"--CODEGEN--\":15411:15506   */\n      jump(tag_520)\n    tag_597:\n        /* \"--CODEGEN--\":15404:15506   */\n      swap2\n      pop\n        /* \"--CODEGEN--\":15523:15526   */\n      dup2\n        /* \"--CODEGEN--\":15516:15526   */\n      swap1\n      pop\n        /* \"--CODEGEN--\":15282:15531   */\n      swap4\n      swap3\n      pop\n      pop\n      pop\n      jump\n        /* \"--CODEGEN--\":15538:15751   */\n    tag_40:\n      0x00\n        /* \"--CODEGEN--\":15656:15658   */\n      0x20\n        /* \"--CODEGEN--\":15645:15654   */\n      dup3\n        /* \"--CODEGEN--\":15641:15659   */\n      add\n        /* \"--CODEGEN--\":15633:15659   */\n      swap1\n      pop\n        /* \"--CODEGEN--\":15670:15741   */\n      tag_599\n        /* \"--CODEGEN--\":15738:15739   */\n      0x00\n        /* \"--CODEGEN--\":15727:15736   */\n      dup4\n        /* \"--CODEGEN--\":15723:15740   */\n      add\n        /* \"--CODEGEN--\":15714:15720   */\n      dup5\n        /* \"--CODEGEN--\":15670:15741   */\n      jump(tag_488)\n    tag_599:\n        /* \"--CODEGEN--\":15627:15751   */\n      swap3\n      swap2\n      pop\n      pop\n      jump\n        /* \"--CODEGEN--\":15758:16421   */\n    tag_345:\n      0x00\n        /* \"--CODEGEN--\":15994:15997   */\n      0x80\n        /* \"--CODEGEN--\":15983:15992   */\n      dup3\n        /* \"--CODEGEN--\":15979:15998   */\n      add\n        /* \"--CODEGEN--\":15971:15998   */\n      swap1\n      pop\n        /* \"--CODEGEN--\":16009:16096   */\n      tag_601\n        /* \"--CODEGEN--\":16093:16094   */\n      0x00\n        /* \"--CODEGEN--\":16082:16091   */\n      dup4\n        /* \"--CODEGEN--\":16078:16095   */\n      add\n        /* \"--CODEGEN--\":16069:16075   */\n      dup8\n        /* \"--CODEGEN--\":16009:16096   */\n      jump(tag_484)\n    tag_601:\n        /* \"--CODEGEN--\":16107:16179   */\n      tag_602\n        /* \"--CODEGEN--\":16175:16177   */\n      0x20\n        /* \"--CODEGEN--\":16164:16173   */\n      dup4\n        /* \"--CODEGEN--\":16160:16178   */\n      add\n        /* \"--CODEGEN--\":16151:16157   */\n      dup7\n        /* \"--CODEGEN--\":16107:16179   */\n      jump(tag_488)\n    tag_602:\n        /* \"--CODEGEN--\":16190:16262   */\n      tag_603\n        /* \"--CODEGEN--\":16258:16260   */\n      0x40\n        /* \"--CODEGEN--\":16247:16256   */\n      dup4\n        /* \"--CODEGEN--\":16243:16261   */\n      add\n        /* \"--CODEGEN--\":16234:16240   */\n      dup6\n        /* \"--CODEGEN--\":16190:16262   */\n      jump(tag_589)\n    tag_603:\n        /* \"--CODEGEN--\":16310:16319   */\n      dup2\n        /* \"--CODEGEN--\":16304:16308   */\n      dup2\n        /* \"--CODEGEN--\":16300:16320   */\n      sub\n        /* \"--CODEGEN--\":16295:16297   */\n      0x60\n        /* \"--CODEGEN--\":16284:16293   */\n      dup4\n        /* \"--CODEGEN--\":16280:16298   */\n      add\n        /* \"--CODEGEN--\":16273:16321   */\n      mstore\n        /* \"--CODEGEN--\":16335:16411   */\n      tag_604\n        /* \"--CODEGEN--\":16406:16410   */\n      dup2\n        /* \"--CODEGEN--\":16397:16403   */\n      dup5\n        /* \"--CODEGEN--\":16335:16411   */\n      jump(tag_496)\n    tag_604:\n        /* \"--CODEGEN--\":16327:16411   */\n      swap1\n      pop\n        /* \"--CODEGEN--\":15965:16421   */\n      swap6\n      swap5\n      pop\n      pop\n      pop\n      pop\n      pop\n      jump\n        /* \"--CODEGEN--\":16428:16629   */\n    tag_30:\n      0x00\n        /* \"--CODEGEN--\":16540:16542   */\n      0x20\n        /* \"--CODEGEN--\":16529:16538   */\n      dup3\n        /* \"--CODEGEN--\":16525:16543   */\n      add\n        /* \"--CODEGEN--\":16517:16543   */\n      swap1\n      pop\n        /* \"--CODEGEN--\":16554:16619   */\n      tag_606\n        /* \"--CODEGEN--\":16616:16617   */\n      0x00\n        /* \"--CODEGEN--\":16605:16614   */\n      dup4\n        /* \"--CODEGEN--\":16601:16618   */\n      add\n        /* \"--CODEGEN--\":16592:16598   */\n      dup5\n        /* \"--CODEGEN--\":16554:16619   */\n      jump(tag_492)\n    tag_606:\n        /* \"--CODEGEN--\":16511:16629   */\n      swap3\n      swap2\n      pop\n      pop\n      jump\n        /* \"--CODEGEN--\":16636:16937   */\n    tag_34:\n      0x00\n        /* \"--CODEGEN--\":16774:16776   */\n      0x20\n        /* \"--CODEGEN--\":16763:16772   */\n      dup3\n        /* \"--CODEGEN--\":16759:16777   */\n      add\n        /* \"--CODEGEN--\":16751:16777   */\n      swap1\n      pop\n        /* \"--CODEGEN--\":16824:16833   */\n      dup2\n        /* \"--CODEGEN--\":16818:16822   */\n      dup2\n        /* \"--CODEGEN--\":16814:16834   */\n      sub\n        /* \"--CODEGEN--\":16810:16811   */\n      0x00\n        /* \"--CODEGEN--\":16799:16808   */\n      dup4\n        /* \"--CODEGEN--\":16795:16812   */\n      add\n        /* \"--CODEGEN--\":16788:16835   */\n      mstore\n        /* \"--CODEGEN--\":16849:16927   */\n      tag_608\n        /* \"--CODEGEN--\":16922:16926   */\n      dup2\n        /* \"--CODEGEN--\":16913:16919   */\n      dup5\n        /* \"--CODEGEN--\":16849:16927   */\n      jump(tag_512)\n    tag_608:\n        /* \"--CODEGEN--\":16841:16927   */\n      swap1\n      pop\n        /* \"--CODEGEN--\":16745:16937   */\n      swap3\n      swap2\n      pop\n      pop\n      jump\n        /* \"--CODEGEN--\":16944:17351   */\n    tag_321:\n      0x00\n        /* \"--CODEGEN--\":17135:17137   */\n      0x20\n        /* \"--CODEGEN--\":17124:17133   */\n      dup3\n        /* \"--CODEGEN--\":17120:17138   */\n      add\n        /* \"--CODEGEN--\":17112:17138   */\n      swap1\n      pop\n        /* \"--CODEGEN--\":17185:17194   */\n      dup2\n        /* \"--CODEGEN--\":17179:17183   */\n      dup2\n        /* \"--CODEGEN--\":17175:17195   */\n      sub\n        /* \"--CODEGEN--\":17171:17172   */\n      0x00\n        /* \"--CODEGEN--\":17160:17169   */\n      dup4\n        /* \"--CODEGEN--\":17156:17173   */\n      add\n        /* \"--CODEGEN--\":17149:17196   */\n      mstore\n        /* \"--CODEGEN--\":17210:17341   */\n      tag_610\n        /* \"--CODEGEN--\":17336:17340   */\n      dup2\n        /* \"--CODEGEN--\":17210:17341   */\n      jump(tag_538)\n    tag_610:\n        /* \"--CODEGEN--\":17202:17341   */\n      swap1\n      pop\n        /* \"--CODEGEN--\":17106:17351   */\n      swap2\n      swap1\n      pop\n      jump\n        /* \"--CODEGEN--\":17358:17765   */\n    tag_274:\n      0x00\n        /* \"--CODEGEN--\":17549:17551   */\n      0x20\n        /* \"--CODEGEN--\":17538:17547   */\n      dup3\n        /* \"--CODEGEN--\":17534:17552   */\n      add\n        /* \"--CODEGEN--\":17526:17552   */\n      swap1\n      pop\n        /* \"--CODEGEN--\":17599:17608   */\n      dup2\n        /* \"--CODEGEN--\":17593:17597   */\n      dup2\n        /* \"--CODEGEN--\":17589:17609   */\n      sub\n        /* \"--CODEGEN--\":17585:17586   */\n      0x00\n        /* \"--CODEGEN--\":17574:17583   */\n      dup4\n        /* \"--CODEGEN--\":17570:17587   */\n      add\n        /* \"--CODEGEN--\":17563:17610   */\n      mstore\n        /* \"--CODEGEN--\":17624:17755   */\n      tag_612\n        /* \"--CODEGEN--\":17750:17754   */\n      dup2\n        /* \"--CODEGEN--\":17624:17755   */\n      jump(tag_541)\n    tag_612:\n        /* \"--CODEGEN--\":17616:17755   */\n      swap1\n      pop\n        /* \"--CODEGEN--\":17520:17765   */\n      swap2\n      swap1\n      pop\n      jump\n        /* \"--CODEGEN--\":17772:18179   */\n    tag_293:\n      0x00\n        /* \"--CODEGEN--\":17963:17965   */\n      0x20\n        /* \"--CODEGEN--\":17952:17961   */\n      dup3\n        /* \"--CODEGEN--\":17948:17966   */\n      add\n        /* \"--CODEGEN--\":17940:17966   */\n      swap1\n      pop\n        /* \"--CODEGEN--\":18013:18022   */\n      dup2\n        /* \"--CODEGEN--\":18007:18011   */\n      dup2\n        /* \"--CODEGEN--\":18003:18023   */\n      sub\n        /* \"--CODEGEN--\":17999:18000   */\n      0x00\n        /* \"--CODEGEN--\":17988:17997   */\n      dup4\n        /* \"--CODEGEN--\":17984:18001   */\n      add\n        /* \"--CODEGEN--\":17977:18024   */\n      mstore\n        /* \"--CODEGEN--\":18038:18169   */\n      tag_614\n        /* \"--CODEGEN--\":18164:18168   */\n      dup2\n        /* \"--CODEGEN--\":18038:18169   */\n      jump(tag_544)\n    tag_614:\n        /* \"--CODEGEN--\":18030:18169   */\n      swap1\n      pop\n        /* \"--CODEGEN--\":17934:18179   */\n      swap2\n      swap1\n      pop\n      jump\n        /* \"--CODEGEN--\":18186:18593   */\n    tag_236:\n      0x00\n        /* \"--CODEGEN--\":18377:18379   */\n      0x20\n        /* \"--CODEGEN--\":18366:18375   */\n      dup3\n        /* \"--CODEGEN--\":18362:18380   */\n      add\n        /* \"--CODEGEN--\":18354:18380   */\n      swap1\n      pop\n        /* \"--CODEGEN--\":18427:18436   */\n      dup2\n        /* \"--CODEGEN--\":18421:18425   */\n      dup2\n        /* \"--CODEGEN--\":18417:18437   */\n      sub\n        /* \"--CODEGEN--\":18413:18414   */\n      0x00\n        /* \"--CODEGEN--\":18402:18411   */\n      dup4\n        /* \"--CODEGEN--\":18398:18415   */\n      add\n        /* \"--CODEGEN--\":18391:18438   */\n      mstore\n        /* \"--CODEGEN--\":18452:18583   */\n      tag_616\n        /* \"--CODEGEN--\":18578:18582   */\n      dup2\n        /* \"--CODEGEN--\":18452:18583   */\n      jump(tag_547)\n    tag_616:\n        /* \"--CODEGEN--\":18444:18583   */\n      swap1\n      pop\n        /* \"--CODEGEN--\":18348:18593   */\n      swap2\n      swap1\n      pop\n      jump\n        /* \"--CODEGEN--\":18600:19007   */\n    tag_178:\n      0x00\n        /* \"--CODEGEN--\":18791:18793   */\n      0x20\n        /* \"--CODEGEN--\":18780:18789   */\n      dup3\n        /* \"--CODEGEN--\":18776:18794   */\n      add\n        /* \"--CODEGEN--\":18768:18794   */\n      swap1\n      pop\n        /* \"--CODEGEN--\":18841:18850   */\n      dup2\n        /* \"--CODEGEN--\":18835:18839   */\n      dup2\n        /* \"--CODEGEN--\":18831:18851   */\n      sub\n        /* \"--CODEGEN--\":18827:18828   */\n      0x00\n        /* \"--CODEGEN--\":18816:18825   */\n      dup4\n        /* \"--CODEGEN--\":18812:18829   */\n      add\n        /* \"--CODEGEN--\":18805:18852   */\n      mstore\n        /* \"--CODEGEN--\":18866:18997   */\n      tag_618\n        /* \"--CODEGEN--\":18992:18996   */\n      dup2\n        /* \"--CODEGEN--\":18866:18997   */\n      jump(tag_550)\n    tag_618:\n        /* \"--CODEGEN--\":18858:18997   */\n      swap1\n      pop\n        /* \"--CODEGEN--\":18762:19007   */\n      swap2\n      swap1\n      pop\n      jump\n        /* \"--CODEGEN--\":19014:19421   */\n    tag_223:\n      0x00\n        /* \"--CODEGEN--\":19205:19207   */\n      0x20\n        /* \"--CODEGEN--\":19194:19203   */\n      dup3\n        /* \"--CODEGEN--\":19190:19208   */\n      add\n        /* \"--CODEGEN--\":19182:19208   */\n      swap1\n      pop\n        /* \"--CODEGEN--\":19255:19264   */\n      dup2\n        /* \"--CODEGEN--\":19249:19253   */\n      dup2\n        /* \"--CODEGEN--\":19245:19265   */\n      sub\n        /* \"--CODEGEN--\":19241:19242   */\n      0x00\n        /* \"--CODEGEN--\":19230:19239   */\n      dup4\n        /* \"--CODEGEN--\":19226:19243   */\n      add\n        /* \"--CODEGEN--\":19219:19266   */\n      mstore\n        /* \"--CODEGEN--\":19280:19411   */\n      tag_620\n        /* \"--CODEGEN--\":19406:19410   */\n      dup2\n        /* \"--CODEGEN--\":19280:19411   */\n      jump(tag_553)\n    tag_620:\n        /* \"--CODEGEN--\":19272:19411   */\n      swap1\n      pop\n        /* \"--CODEGEN--\":19176:19421   */\n      swap2\n      swap1\n      pop\n      jump\n        /* \"--CODEGEN--\":19428:19835   */\n    tag_126:\n      0x00\n        /* \"--CODEGEN--\":19619:19621   */\n      0x20\n        /* \"--CODEGEN--\":19608:19617   */\n      dup3\n        /* \"--CODEGEN--\":19604:19622   */\n      add\n        /* \"--CODEGEN--\":19596:19622   */\n      swap1\n      pop\n        /* \"--CODEGEN--\":19669:19678   */\n      dup2\n        /* \"--CODEGEN--\":19663:19667   */\n      dup2\n        /* \"--CODEGEN--\":19659:19679   */\n      sub\n        /* \"--CODEGEN--\":19655:19656   */\n      0x00\n        /* \"--CODEGEN--\":19644:19653   */\n      dup4\n        /* \"--CODEGEN--\":19640:19657   */\n      add\n        /* \"--CODEGEN--\":19633:19680   */\n      mstore\n        /* \"--CODEGEN--\":19694:19825   */\n      tag_622\n        /* \"--CODEGEN--\":19820:19824   */\n      dup2\n        /* \"--CODEGEN--\":19694:19825   */\n      jump(tag_556)\n    tag_622:\n        /* \"--CODEGEN--\":19686:19825   */\n      swap1\n      pop\n        /* \"--CODEGEN--\":19590:19835   */\n      swap2\n      swap1\n      pop\n      jump\n        /* \"--CODEGEN--\":19842:20249   */\n    tag_167:\n      0x00\n        /* \"--CODEGEN--\":20033:20035   */\n      0x20\n        /* \"--CODEGEN--\":20022:20031   */\n      dup3\n        /* \"--CODEGEN--\":20018:20036   */\n      add\n        /* \"--CODEGEN--\":20010:20036   */\n      swap1\n      pop\n        /* \"--CODEGEN--\":20083:20092   */\n      dup2\n        /* \"--CODEGEN--\":20077:20081   */\n      dup2\n        /* \"--CODEGEN--\":20073:20093   */\n      sub\n        /* \"--CODEGEN--\":20069:20070   */\n      0x00\n        /* \"--CODEGEN--\":20058:20067   */\n      dup4\n        /* \"--CODEGEN--\":20054:20071   */\n      add\n        /* \"--CODEGEN--\":20047:20094   */\n      mstore\n        /* \"--CODEGEN--\":20108:20239   */\n      tag_624\n        /* \"--CODEGEN--\":20234:20238   */\n      dup2\n        /* \"--CODEGEN--\":20108:20239   */\n      jump(tag_559)\n    tag_624:\n        /* \"--CODEGEN--\":20100:20239   */\n      swap1\n      pop\n        /* \"--CODEGEN--\":20004:20249   */\n      swap2\n      swap1\n      pop\n      jump\n        /* \"--CODEGEN--\":20256:20663   */\n    tag_330:\n      0x00\n        /* \"--CODEGEN--\":20447:20449   */\n      0x20\n        /* \"--CODEGEN--\":20436:20445   */\n      dup3\n        /* \"--CODEGEN--\":20432:20450   */\n      add\n        /* \"--CODEGEN--\":20424:20450   */\n      swap1\n      pop\n        /* \"--CODEGEN--\":20497:20506   */\n      dup2\n        /* \"--CODEGEN--\":20491:20495   */\n      dup2\n        /* \"--CODEGEN--\":20487:20507   */\n      sub\n        /* \"--CODEGEN--\":20483:20484   */\n      0x00\n        /* \"--CODEGEN--\":20472:20481   */\n      dup4\n        /* \"--CODEGEN--\":20468:20485   */\n      add\n        /* \"--CODEGEN--\":20461:20508   */\n      mstore\n        /* \"--CODEGEN--\":20522:20653   */\n      tag_626\n        /* \"--CODEGEN--\":20648:20652   */\n      dup2\n        /* \"--CODEGEN--\":20522:20653   */\n      jump(tag_562)\n    tag_626:\n        /* \"--CODEGEN--\":20514:20653   */\n      swap1\n      pop\n        /* \"--CODEGEN--\":20418:20663   */\n      swap2\n      swap1\n      pop\n      jump\n        /* \"--CODEGEN--\":20670:21077   */\n    tag_289:\n      0x00\n        /* \"--CODEGEN--\":20861:20863   */\n      0x20\n        /* \"--CODEGEN--\":20850:20859   */\n      dup3\n        /* \"--CODEGEN--\":20846:20864   */\n      add\n        /* \"--CODEGEN--\":20838:20864   */\n      swap1\n      pop\n        /* \"--CODEGEN--\":20911:20920   */\n      dup2\n        /* \"--CODEGEN--\":20905:20909   */\n      dup2\n        /* \"--CODEGEN--\":20901:20921   */\n      sub\n        /* \"--CODEGEN--\":20897:20898   */\n      0x00\n        /* \"--CODEGEN--\":20886:20895   */\n      dup4\n        /* \"--CODEGEN--\":20882:20899   */\n      add\n        /* \"--CODEGEN--\":20875:20922   */\n      mstore\n        /* \"--CODEGEN--\":20936:21067   */\n      tag_628\n        /* \"--CODEGEN--\":21062:21066   */\n      dup2\n        /* \"--CODEGEN--\":20936:21067   */\n      jump(tag_565)\n    tag_628:\n        /* \"--CODEGEN--\":20928:21067   */\n      swap1\n      pop\n        /* \"--CODEGEN--\":20832:21077   */\n      swap2\n      swap1\n      pop\n      jump\n        /* \"--CODEGEN--\":21084:21491   */\n    tag_113:\n      0x00\n        /* \"--CODEGEN--\":21275:21277   */\n      0x20\n        /* \"--CODEGEN--\":21264:21273   */\n      dup3\n        /* \"--CODEGEN--\":21260:21278   */\n      add\n        /* \"--CODEGEN--\":21252:21278   */\n      swap1\n      pop\n        /* \"--CODEGEN--\":21325:21334   */\n      dup2\n        /* \"--CODEGEN--\":21319:21323   */\n      dup2\n        /* \"--CODEGEN--\":21315:21335   */\n      sub\n        /* \"--CODEGEN--\":21311:21312   */\n      0x00\n        /* \"--CODEGEN--\":21300:21309   */\n      dup4\n        /* \"--CODEGEN--\":21296:21313   */\n      add\n        /* \"--CODEGEN--\":21289:21336   */\n      mstore\n        /* \"--CODEGEN--\":21350:21481   */\n      tag_630\n        /* \"--CODEGEN--\":21476:21480   */\n      dup2\n        /* \"--CODEGEN--\":21350:21481   */\n      jump(tag_568)\n    tag_630:\n        /* \"--CODEGEN--\":21342:21481   */\n      swap1\n      pop\n        /* \"--CODEGEN--\":21246:21491   */\n      swap2\n      swap1\n      pop\n      jump\n        /* \"--CODEGEN--\":21498:21905   */\n    tag_301:\n      0x00\n        /* \"--CODEGEN--\":21689:21691   */\n      0x20\n        /* \"--CODEGEN--\":21678:21687   */\n      dup3\n        /* \"--CODEGEN--\":21674:21692   */\n      add\n        /* \"--CODEGEN--\":21666:21692   */\n      swap1\n      pop\n        /* \"--CODEGEN--\":21739:21748   */\n      dup2\n        /* \"--CODEGEN--\":21733:21737   */\n      dup2\n        /* \"--CODEGEN--\":21729:21749   */\n      sub\n        /* \"--CODEGEN--\":21725:21726   */\n      0x00\n        /* \"--CODEGEN--\":21714:21723   */\n      dup4\n        /* \"--CODEGEN--\":21710:21727   */\n      add\n        /* \"--CODEGEN--\":21703:21750   */\n      mstore\n        /* \"--CODEGEN--\":21764:21895   */\n      tag_632\n        /* \"--CODEGEN--\":21890:21894   */\n      dup2\n        /* \"--CODEGEN--\":21764:21895   */\n      jump(tag_571)\n    tag_632:\n        /* \"--CODEGEN--\":21756:21895   */\n      swap1\n      pop\n        /* \"--CODEGEN--\":21660:21905   */\n      swap2\n      swap1\n      pop\n      jump\n        /* \"--CODEGEN--\":21912:22319   */\n    tag_233:\n      0x00\n        /* \"--CODEGEN--\":22103:22105   */\n      0x20\n        /* \"--CODEGEN--\":22092:22101   */\n      dup3\n        /* \"--CODEGEN--\":22088:22106   */\n      add\n        /* \"--CODEGEN--\":22080:22106   */\n      swap1\n      pop\n        /* \"--CODEGEN--\":22153:22162   */\n      dup2\n        /* \"--CODEGEN--\":22147:22151   */\n      dup2\n        /* \"--CODEGEN--\":22143:22163   */\n      sub\n        /* \"--CODEGEN--\":22139:22140   */\n      0x00\n        /* \"--CODEGEN--\":22128:22137   */\n      dup4\n        /* \"--CODEGEN--\":22124:22141   */\n      add\n        /* \"--CODEGEN--\":22117:22164   */\n      mstore\n        /* \"--CODEGEN--\":22178:22309   */\n      tag_634\n        /* \"--CODEGEN--\":22304:22308   */\n      dup2\n        /* \"--CODEGEN--\":22178:22309   */\n      jump(tag_574)\n    tag_634:\n        /* \"--CODEGEN--\":22170:22309   */\n      swap1\n      pop\n        /* \"--CODEGEN--\":22074:22319   */\n      swap2\n      swap1\n      pop\n      jump\n        /* \"--CODEGEN--\":22326:22733   */\n    tag_193:\n      0x00\n        /* \"--CODEGEN--\":22517:22519   */\n      0x20\n        /* \"--CODEGEN--\":22506:22515   */\n      dup3\n        /* \"--CODEGEN--\":22502:22520   */\n      add\n        /* \"--CODEGEN--\":22494:22520   */\n      swap1\n      pop\n        /* \"--CODEGEN--\":22567:22576   */\n      dup2\n        /* \"--CODEGEN--\":22561:22565   */\n      dup2\n        /* \"--CODEGEN--\":22557:22577   */\n      sub\n        /* \"--CODEGEN--\":22553:22554   */\n      0x00\n        /* \"--CODEGEN--\":22542:22551   */\n      dup4\n        /* \"--CODEGEN--\":22538:22555   */\n      add\n        /* \"--CODEGEN--\":22531:22578   */\n      mstore\n        /* \"--CODEGEN--\":22592:22723   */\n      tag_636\n        /* \"--CODEGEN--\":22718:22722   */\n      dup2\n        /* \"--CODEGEN--\":22592:22723   */\n      jump(tag_577)\n    tag_636:\n        /* \"--CODEGEN--\":22584:22723   */\n      swap1\n      pop\n        /* \"--CODEGEN--\":22488:22733   */\n      swap2\n      swap1\n      pop\n      jump\n        /* \"--CODEGEN--\":22740:23147   */\n    tag_118:\n      0x00\n        /* \"--CODEGEN--\":22931:22933   */\n      0x20\n        /* \"--CODEGEN--\":22920:22929   */\n      dup3\n        /* \"--CODEGEN--\":22916:22934   */\n      add\n        /* \"--CODEGEN--\":22908:22934   */\n      swap1\n      pop\n        /* \"--CODEGEN--\":22981:22990   */\n      dup2\n        /* \"--CODEGEN--\":22975:22979   */\n      dup2\n        /* \"--CODEGEN--\":22971:22991   */\n      sub\n        /* \"--CODEGEN--\":22967:22968   */\n      0x00\n        /* \"--CODEGEN--\":22956:22965   */\n      dup4\n        /* \"--CODEGEN--\":22952:22969   */\n      add\n        /* \"--CODEGEN--\":22945:22992   */\n      mstore\n        /* \"--CODEGEN--\":23006:23137   */\n      tag_638\n        /* \"--CODEGEN--\":23132:23136   */\n      dup2\n        /* \"--CODEGEN--\":23006:23137   */\n      jump(tag_580)\n    tag_638:\n        /* \"--CODEGEN--\":22998:23137   */\n      swap1\n      pop\n        /* \"--CODEGEN--\":22902:23147   */\n      swap2\n      swap1\n      pop\n      jump\n        /* \"--CODEGEN--\":23154:23561   */\n    tag_138:\n      0x00\n        /* \"--CODEGEN--\":23345:23347   */\n      0x20\n        /* \"--CODEGEN--\":23334:23343   */\n      dup3\n        /* \"--CODEGEN--\":23330:23348   */\n      add\n        /* \"--CODEGEN--\":23322:23348   */\n      swap1\n      pop\n        /* \"--CODEGEN--\":23395:23404   */\n      dup2\n        /* \"--CODEGEN--\":23389:23393   */\n      dup2\n        /* \"--CODEGEN--\":23385:23405   */\n      sub\n        /* \"--CODEGEN--\":23381:23382   */\n      0x00\n        /* \"--CODEGEN--\":23370:23379   */\n      dup4\n        /* \"--CODEGEN--\":23366:23383   */\n      add\n        /* \"--CODEGEN--\":23359:23406   */\n      mstore\n        /* \"--CODEGEN--\":23420:23551   */\n      tag_640\n        /* \"--CODEGEN--\":23546:23550   */\n      dup2\n        /* \"--CODEGEN--\":23420:23551   */\n      jump(tag_583)\n    tag_640:\n        /* \"--CODEGEN--\":23412:23551   */\n      swap1\n      pop\n        /* \"--CODEGEN--\":23316:23561   */\n      swap2\n      swap1\n      pop\n      jump\n        /* \"--CODEGEN--\":23568:23975   */\n    tag_151:\n      0x00\n        /* \"--CODEGEN--\":23759:23761   */\n      0x20\n        /* \"--CODEGEN--\":23748:23757   */\n      dup3\n        /* \"--CODEGEN--\":23744:23762   */\n      add\n        /* \"--CODEGEN--\":23736:23762   */\n      swap1\n      pop\n        /* \"--CODEGEN--\":23809:23818   */\n      dup2\n        /* \"--CODEGEN--\":23803:23807   */\n      dup2\n        /* \"--CODEGEN--\":23799:23819   */\n      sub\n        /* \"--CODEGEN--\":23795:23796   */\n      0x00\n        /* \"--CODEGEN--\":23784:23793   */\n      dup4\n        /* \"--CODEGEN--\":23780:23797   */\n      add\n        /* \"--CODEGEN--\":23773:23820   */\n      mstore\n        /* \"--CODEGEN--\":23834:23965   */\n      tag_642\n        /* \"--CODEGEN--\":23960:23964   */\n      dup2\n        /* \"--CODEGEN--\":23834:23965   */\n      jump(tag_586)\n    tag_642:\n        /* \"--CODEGEN--\":23826:23965   */\n      swap1\n      pop\n        /* \"--CODEGEN--\":23730:23975   */\n      swap2\n      swap1\n      pop\n      jump\n        /* \"--CODEGEN--\":23982:24195   */\n    tag_48:\n      0x00\n        /* \"--CODEGEN--\":24100:24102   */\n      0x20\n        /* \"--CODEGEN--\":24089:24098   */\n      dup3\n        /* \"--CODEGEN--\":24085:24103   */\n      add\n        /* \"--CODEGEN--\":24077:24103   */\n      swap1\n      pop\n        /* \"--CODEGEN--\":24114:24185   */\n      tag_644\n        /* \"--CODEGEN--\":24182:24183   */\n      0x00\n        /* \"--CODEGEN--\":24171:24180   */\n      dup4\n        /* \"--CODEGEN--\":24167:24184   */\n      add\n        /* \"--CODEGEN--\":24158:24164   */\n      dup5\n        /* \"--CODEGEN--\":24114:24185   */\n      jump(tag_589)\n    tag_644:\n        /* \"--CODEGEN--\":24071:24195   */\n      swap3\n      swap2\n      pop\n      pop\n      jump\n        /* \"--CODEGEN--\":24202:24458   */\n    tag_426:\n      0x00\n        /* \"--CODEGEN--\":24264:24266   */\n      0x40\n        /* \"--CODEGEN--\":24258:24267   */\n      mload\n        /* \"--CODEGEN--\":24248:24267   */\n      swap1\n      pop\n        /* \"--CODEGEN--\":24302:24306   */\n      dup2\n        /* \"--CODEGEN--\":24294:24300   */\n      dup2\n        /* \"--CODEGEN--\":24290:24307   */\n      add\n        /* \"--CODEGEN--\":24401:24407   */\n      dup2\n        /* \"--CODEGEN--\":24389:24399   */\n      dup2\n        /* \"--CODEGEN--\":24386:24408   */\n      lt\n        /* \"--CODEGEN--\":24365:24383   */\n      0xffffffffffffffff\n        /* \"--CODEGEN--\":24353:24363   */\n      dup3\n        /* \"--CODEGEN--\":24350:24384   */\n      gt\n        /* \"--CODEGEN--\":24347:24409   */\n      or\n        /* \"--CODEGEN--\":24344:24346   */\n      iszero\n      tag_646\n      jumpi\n        /* \"--CODEGEN--\":24422:24423   */\n      0x00\n        /* \"--CODEGEN--\":24419:24420   */\n      dup1\n        /* \"--CODEGEN--\":24412:24424   */\n      revert\n        /* \"--CODEGEN--\":24344:24346   */\n    tag_646:\n        /* \"--CODEGEN--\":24442:24452   */\n      dup1\n        /* \"--CODEGEN--\":24438:24440   */\n      0x40\n        /* \"--CODEGEN--\":24431:24453   */\n      mstore\n        /* \"--CODEGEN--\":24242:24458   */\n      pop\n      swap2\n      swap1\n      pop\n      jump\n        /* \"--CODEGEN--\":24465:24786   */\n    tag_425:\n      0x00\n        /* \"--CODEGEN--\":24608:24626   */\n      0xffffffffffffffff\n        /* \"--CODEGEN--\":24600:24606   */\n      dup3\n        /* \"--CODEGEN--\":24597:24627   */\n      gt\n        /* \"--CODEGEN--\":24594:24596   */\n      iszero\n      tag_648\n      jumpi\n        /* \"--CODEGEN--\":24640:24641   */\n      0x00\n        /* \"--CODEGEN--\":24637:24638   */\n      dup1\n        /* \"--CODEGEN--\":24630:24642   */\n      revert\n        /* \"--CODEGEN--\":24594:24596   */\n    tag_648:\n        /* \"--CODEGEN--\":24707:24711   */\n      0x1f\n        /* \"--CODEGEN--\":24703:24712   */\n      not\n        /* \"--CODEGEN--\":24696:24700   */\n      0x1f\n        /* \"--CODEGEN--\":24688:24694   */\n      dup4\n        /* \"--CODEGEN--\":24684:24701   */\n      add\n        /* \"--CODEGEN--\":24680:24713   */\n      and\n        /* \"--CODEGEN--\":24672:24713   */\n      swap1\n      pop\n        /* \"--CODEGEN--\":24771:24775   */\n      0x20\n        /* \"--CODEGEN--\":24765:24769   */\n      dup2\n        /* \"--CODEGEN--\":24761:24776   */\n      add\n        /* \"--CODEGEN--\":24753:24776   */\n      swap1\n      pop\n        /* \"--CODEGEN--\":24531:24786   */\n      swap2\n      swap1\n      pop\n      jump\n        /* \"--CODEGEN--\":24793:25115   */\n    tag_435:\n      0x00\n        /* \"--CODEGEN--\":24937:24955   */\n      0xffffffffffffffff\n        /* \"--CODEGEN--\":24929:24935   */\n      dup3\n        /* \"--CODEGEN--\":24926:24956   */\n      gt\n        /* \"--CODEGEN--\":24923:24925   */\n      iszero\n      tag_650\n      jumpi\n        /* \"--CODEGEN--\":24969:24970   */\n      0x00\n        /* \"--CODEGEN--\":24966:24967   */\n      dup1\n        /* \"--CODEGEN--\":24959:24971   */\n      revert\n        /* \"--CODEGEN--\":24923:24925   */\n    tag_650:\n        /* \"--CODEGEN--\":25036:25040   */\n      0x1f\n        /* \"--CODEGEN--\":25032:25041   */\n      not\n        /* \"--CODEGEN--\":25025:25029   */\n      0x1f\n        /* \"--CODEGEN--\":25017:25023   */\n      dup4\n        /* \"--CODEGEN--\":25013:25030   */\n      add\n        /* \"--CODEGEN--\":25009:25042   */\n      and\n        /* \"--CODEGEN--\":25001:25042   */\n      swap1\n      pop\n        /* \"--CODEGEN--\":25100:25104   */\n      0x20\n        /* \"--CODEGEN--\":25094:25098   */\n      dup2\n        /* \"--CODEGEN--\":25090:25105   */\n      add\n        /* \"--CODEGEN--\":25082:25105   */\n      swap1\n      pop\n        /* \"--CODEGEN--\":24860:25115   */\n      swap2\n      swap1\n      pop\n      jump\n        /* \"--CODEGEN--\":25122:25280   */\n    tag_534:\n      0x00\n        /* \"--CODEGEN--\":25190:25193   */\n      dup2\n        /* \"--CODEGEN--\":25182:25193   */\n      swap1\n      pop\n        /* \"--CODEGEN--\":25227:25230   */\n      dup2\n        /* \"--CODEGEN--\":25224:25225   */\n      0x00\n        /* \"--CODEGEN--\":25217:25231   */\n      mstore\n        /* \"--CODEGEN--\":25259:25263   */\n      0x20\n        /* \"--CODEGEN--\":25256:25257   */\n      0x00\n        /* \"--CODEGEN--\":25246:25264   */\n      keccak256\n        /* \"--CODEGEN--\":25238:25264   */\n      swap1\n      pop\n        /* \"--CODEGEN--\":25176:25280   */\n      swap2\n      swap1\n      pop\n      jump\n        /* \"--CODEGEN--\":25287:25408   */\n    tag_499:\n      0x00\n        /* \"--CODEGEN--\":25380:25385   */\n      dup2\n        /* \"--CODEGEN--\":25374:25386   */\n      mload\n        /* \"--CODEGEN--\":25364:25386   */\n      swap1\n      pop\n        /* \"--CODEGEN--\":25345:25408   */\n      swap2\n      swap1\n      pop\n      jump\n        /* \"--CODEGEN--\":25415:25537   */\n    tag_515:\n      0x00\n        /* \"--CODEGEN--\":25509:25514   */\n      dup2\n        /* \"--CODEGEN--\":25503:25515   */\n      mload\n        /* \"--CODEGEN--\":25493:25515   */\n      swap1\n      pop\n        /* \"--CODEGEN--\":25474:25537   */\n      swap2\n      swap1\n      pop\n      jump\n        /* \"--CODEGEN--\":25545:25707   */\n    tag_501:\n      0x00\n        /* \"--CODEGEN--\":25659:25665   */\n      dup3\n        /* \"--CODEGEN--\":25654:25657   */\n      dup3\n        /* \"--CODEGEN--\":25647:25666   */\n      mstore\n        /* \"--CODEGEN--\":25696:25700   */\n      0x20\n        /* \"--CODEGEN--\":25691:25694   */\n      dup3\n        /* \"--CODEGEN--\":25687:25701   */\n      add\n        /* \"--CODEGEN--\":25672:25701   */\n      swap1\n      pop\n        /* \"--CODEGEN--\":25640:25707   */\n      swap3\n      swap2\n      pop\n      pop\n      jump\n        /* \"--CODEGEN--\":25716:25860   */\n    tag_510:\n      0x00\n        /* \"--CODEGEN--\":25851:25854   */\n      dup2\n        /* \"--CODEGEN--\":25836:25854   */\n      swap1\n      pop\n        /* \"--CODEGEN--\":25829:25860   */\n      swap3\n      swap2\n      pop\n      pop\n      jump\n        /* \"--CODEGEN--\":25869:26032   */\n    tag_517:\n      0x00\n        /* \"--CODEGEN--\":25984:25990   */\n      dup3\n        /* \"--CODEGEN--\":25979:25982   */\n      dup3\n        /* \"--CODEGEN--\":25972:25991   */\n      mstore\n        /* \"--CODEGEN--\":26021:26025   */\n      0x20\n        /* \"--CODEGEN--\":26016:26019   */\n      dup3\n        /* \"--CODEGEN--\":26012:26026   */\n      add\n        /* \"--CODEGEN--\":25997:26026   */\n      swap1\n      pop\n        /* \"--CODEGEN--\":25965:26032   */\n      swap3\n      swap2\n      pop\n      pop\n      jump\n        /* \"--CODEGEN--\":26041:26186   */\n    tag_524:\n      0x00\n        /* \"--CODEGEN--\":26177:26180   */\n      dup2\n        /* \"--CODEGEN--\":26162:26180   */\n      swap1\n      pop\n        /* \"--CODEGEN--\":26155:26186   */\n      swap3\n      swap2\n      pop\n      pop\n      jump\n        /* \"--CODEGEN--\":26194:26285   */\n    tag_491:\n      0x00\n        /* \"--CODEGEN--\":26256:26280   */\n      tag_659\n        /* \"--CODEGEN--\":26274:26279   */\n      dup3\n        /* \"--CODEGEN--\":26256:26280   */\n      jump(tag_660)\n    tag_659:\n        /* \"--CODEGEN--\":26245:26280   */\n      swap1\n      pop\n        /* \"--CODEGEN--\":26239:26285   */\n      swap2\n      swap1\n      pop\n      jump\n        /* \"--CODEGEN--\":26292:26391   */\n    tag_487:\n      0x00\n        /* \"--CODEGEN--\":26362:26386   */\n      tag_662\n        /* \"--CODEGEN--\":26380:26385   */\n      dup3\n        /* \"--CODEGEN--\":26362:26386   */\n      jump(tag_660)\n    tag_662:\n        /* \"--CODEGEN--\":26351:26386   */\n      swap1\n      pop\n        /* \"--CODEGEN--\":26345:26391   */\n      swap2\n      swap1\n      pop\n      jump\n        /* \"--CODEGEN--\":26398:26483   */\n    tag_495:\n      0x00\n        /* \"--CODEGEN--\":26471:26476   */\n      dup2\n        /* \"--CODEGEN--\":26464:26477   */\n      iszero\n        /* \"--CODEGEN--\":26457:26478   */\n      iszero\n        /* \"--CODEGEN--\":26446:26478   */\n      swap1\n      pop\n        /* \"--CODEGEN--\":26440:26483   */\n      swap2\n      swap1\n      pop\n      jump\n        /* \"--CODEGEN--\":26490:26634   */\n    tag_664:\n      0x00\n        /* \"--CODEGEN--\":26562:26628   */\n      0xffffffff00000000000000000000000000000000000000000000000000000000\n        /* \"--CODEGEN--\":26555:26560   */\n      dup3\n        /* \"--CODEGEN--\":26551:26629   */\n      and\n        /* \"--CODEGEN--\":26540:26629   */\n      swap1\n      pop\n        /* \"--CODEGEN--\":26534:26634   */\n      swap2\n      swap1\n      pop\n      jump\n        /* \"--CODEGEN--\":26641:26762   */\n    tag_660:\n      0x00\n        /* \"--CODEGEN--\":26714:26756   */\n      0xffffffffffffffffffffffffffffffffffffffff\n        /* \"--CODEGEN--\":26707:26712   */\n      dup3\n        /* \"--CODEGEN--\":26703:26757   */\n      and\n        /* \"--CODEGEN--\":26692:26757   */\n      swap1\n      pop\n        /* \"--CODEGEN--\":26686:26762   */\n      swap2\n      swap1\n      pop\n      jump\n        /* \"--CODEGEN--\":26769:26841   */\n    tag_592:\n      0x00\n        /* \"--CODEGEN--\":26831:26836   */\n      dup2\n        /* \"--CODEGEN--\":26820:26836   */\n      swap1\n      pop\n        /* \"--CODEGEN--\":26814:26841   */\n      swap2\n      swap1\n      pop\n      jump\n        /* \"--CODEGEN--\":26849:26994   */\n    tag_429:\n        /* \"--CODEGEN--\":26930:26936   */\n      dup3\n        /* \"--CODEGEN--\":26925:26928   */\n      dup2\n        /* \"--CODEGEN--\":26920:26923   */\n      dup4\n        /* \"--CODEGEN--\":26907:26937   */\n      calldatacopy\n        /* \"--CODEGEN--\":26986:26987   */\n      0x00\n        /* \"--CODEGEN--\":26977:26983   */\n      dup4\n        /* \"--CODEGEN--\":26972:26975   */\n      dup4\n        /* \"--CODEGEN--\":26968:26984   */\n      add\n        /* \"--CODEGEN--\":26961:26988   */\n      mstore\n        /* \"--CODEGEN--\":26900:26994   */\n      pop\n      pop\n      pop\n      jump\n        /* \"--CODEGEN--\":27003:27271   */\n    tag_503:\n        /* \"--CODEGEN--\":27068:27069   */\n      0x00\n        /* \"--CODEGEN--\":27075:27176   */\n    tag_670:\n        /* \"--CODEGEN--\":27089:27095   */\n      dup4\n        /* \"--CODEGEN--\":27086:27087   */\n      dup2\n        /* \"--CODEGEN--\":27083:27096   */\n      lt\n        /* \"--CODEGEN--\":27075:27176   */\n      iszero\n      tag_672\n      jumpi\n        /* \"--CODEGEN--\":27165:27166   */\n      dup1\n        /* \"--CODEGEN--\":27160:27163   */\n      dup3\n        /* \"--CODEGEN--\":27156:27167   */\n      add\n        /* \"--CODEGEN--\":27150:27168   */\n      mload\n        /* \"--CODEGEN--\":27146:27147   */\n      dup2\n        /* \"--CODEGEN--\":27141:27144   */\n      dup5\n        /* \"--CODEGEN--\":27137:27148   */\n      add\n        /* \"--CODEGEN--\":27130:27169   */\n      mstore\n        /* \"--CODEGEN--\":27111:27113   */\n      0x20\n        /* \"--CODEGEN--\":27108:27109   */\n      dup2\n        /* \"--CODEGEN--\":27104:27114   */\n      add\n        /* \"--CODEGEN--\":27099:27114   */\n      swap1\n      pop\n        /* \"--CODEGEN--\":27075:27176   */\n      jump(tag_670)\n    tag_672:\n        /* \"--CODEGEN--\":27191:27197   */\n      dup4\n        /* \"--CODEGEN--\":27188:27189   */\n      dup2\n        /* \"--CODEGEN--\":27185:27198   */\n      gt\n        /* \"--CODEGEN--\":27182:27184   */\n      iszero\n      tag_673\n      jumpi\n        /* \"--CODEGEN--\":27256:27257   */\n      0x00\n        /* \"--CODEGEN--\":27247:27253   */\n      dup5\n        /* \"--CODEGEN--\":27242:27245   */\n      dup5\n        /* \"--CODEGEN--\":27238:27254   */\n      add\n        /* \"--CODEGEN--\":27231:27258   */\n      mstore\n        /* \"--CODEGEN--\":27182:27184   */\n    tag_673:\n        /* \"--CODEGEN--\":27052:27271   */\n      pop\n      pop\n      pop\n      pop\n      jump\n        /* \"--CODEGEN--\":27279:27376   */\n    tag_505:\n      0x00\n        /* \"--CODEGEN--\":27367:27369   */\n      0x1f\n        /* \"--CODEGEN--\":27363:27370   */\n      not\n        /* \"--CODEGEN--\":27358:27360   */\n      0x1f\n        /* \"--CODEGEN--\":27351:27356   */\n      dup4\n        /* \"--CODEGEN--\":27347:27361   */\n      add\n        /* \"--CODEGEN--\":27343:27371   */\n      and\n        /* \"--CODEGEN--\":27333:27371   */\n      swap1\n      pop\n        /* \"--CODEGEN--\":27327:27376   */\n      swap2\n      swap1\n      pop\n      jump\n        /* \"--CODEGEN--\":27384:27501   */\n    tag_408:\n        /* \"--CODEGEN--\":27453:27477   */\n      tag_676\n        /* \"--CODEGEN--\":27471:27476   */\n      dup2\n        /* \"--CODEGEN--\":27453:27477   */\n      jump(tag_491)\n    tag_676:\n        /* \"--CODEGEN--\":27446:27451   */\n      dup2\n        /* \"--CODEGEN--\":27443:27478   */\n      eq\n        /* \"--CODEGEN--\":27433:27435   */\n      tag_677\n      jumpi\n        /* \"--CODEGEN--\":27492:27493   */\n      0x00\n        /* \"--CODEGEN--\":27489:27490   */\n      dup1\n        /* \"--CODEGEN--\":27482:27494   */\n      revert\n        /* \"--CODEGEN--\":27433:27435   */\n    tag_677:\n        /* \"--CODEGEN--\":27427:27501   */\n      pop\n      jump\n        /* \"--CODEGEN--\":27508:27619   */\n    tag_412:\n        /* \"--CODEGEN--\":27574:27595   */\n      tag_679\n        /* \"--CODEGEN--\":27589:27594   */\n      dup2\n        /* \"--CODEGEN--\":27574:27595   */\n      jump(tag_495)\n    tag_679:\n        /* \"--CODEGEN--\":27567:27572   */\n      dup2\n        /* \"--CODEGEN--\":27564:27596   */\n      eq\n        /* \"--CODEGEN--\":27554:27556   */\n      tag_680\n      jumpi\n        /* \"--CODEGEN--\":27610:27611   */\n      0x00\n        /* \"--CODEGEN--\":27607:27608   */\n      dup1\n        /* \"--CODEGEN--\":27600:27612   */\n      revert\n        /* \"--CODEGEN--\":27554:27556   */\n    tag_680:\n        /* \"--CODEGEN--\":27548:27619   */\n      pop\n      jump\n        /* \"--CODEGEN--\":27626:27741   */\n    tag_416:\n        /* \"--CODEGEN--\":27694:27717   */\n      tag_682\n        /* \"--CODEGEN--\":27711:27716   */\n      dup2\n        /* \"--CODEGEN--\":27694:27717   */\n      jump(tag_664)\n    tag_682:\n        /* \"--CODEGEN--\":27687:27692   */\n      dup2\n        /* \"--CODEGEN--\":27684:27718   */\n      eq\n        /* \"--CODEGEN--\":27674:27676   */\n      tag_683\n      jumpi\n        /* \"--CODEGEN--\":27732:27733   */\n      0x00\n        /* \"--CODEGEN--\":27729:27730   */\n      dup1\n        /* \"--CODEGEN--\":27722:27734   */\n      revert\n        /* \"--CODEGEN--\":27674:27676   */\n    tag_683:\n        /* \"--CODEGEN--\":27668:27741   */\n      pop\n      jump\n        /* \"--CODEGEN--\":27748:27865   */\n    tag_441:\n        /* \"--CODEGEN--\":27817:27841   */\n      tag_685\n        /* \"--CODEGEN--\":27835:27840   */\n      dup2\n        /* \"--CODEGEN--\":27817:27841   */\n      jump(tag_592)\n    tag_685:\n        /* \"--CODEGEN--\":27810:27815   */\n      dup2\n        /* \"--CODEGEN--\":27807:27842   */\n      eq\n        /* \"--CODEGEN--\":27797:27799   */\n      tag_686\n      jumpi\n        /* \"--CODEGEN--\":27856:27857   */\n      0x00\n        /* \"--CODEGEN--\":27853:27854   */\n      dup1\n        /* \"--CODEGEN--\":27846:27858   */\n      revert\n        /* \"--CODEGEN--\":27797:27799   */\n    tag_686:\n        /* \"--CODEGEN--\":27791:27865   */\n      pop\n      jump\n    stop\n    data_7481f3df2a424c0755a1ad2356614e9a5a358d461ea2eae1f89cb21cbad00397 4552433732313a206f776e657220717565727920666f72206e6f6e6578697374656e7420746f6b656e\n\n    auxdata: 0xa2646970667358221220ac38933f717bdb3ab8d24f7597c7df9d3ba76104c77b7e569f367e91a5782ee064736f6c63430006040033\n}\n",
				"bytecode": {
					"linkReferences": {},
					"object": "60806040523480156200001157600080fd5b50604051620035c9380380620035c98339818101604052810190620000379190620002b8565b8181620000516301ffc9a760e01b620000d560201b60201c565b816006908051906020019062000069929190620001ad565b50806007908051906020019062000082929190620001ad565b506200009b6380ac58cd60e01b620000d560201b60201c565b620000b3635b5e139f60e01b620000d560201b60201c565b620000cb63780e9d6360e01b620000d560201b60201c565b5050505062000431565b63ffffffff60e01b817bffffffffffffffffffffffffffffffffffffffffffffffffffffffff1916141562000141576040517f08c379a000000000000000000000000000000000000000000000000000000000815260040162000138906200036d565b60405180910390fd5b6001600080837bffffffffffffffffffffffffffffffffffffffffffffffffffffffff19167bffffffffffffffffffffffffffffffffffffffffffffffffffffffff1916815260200190815260200160002060006101000a81548160ff02191690831515021790555050565b828054600181600116156101000203166002900490600052602060002090601f016020900481019282601f10620001f057805160ff191683800117855562000221565b8280016001018555821562000221579182015b828111156200022057825182559160200191906001019062000203565b5b50905062000230919062000234565b5090565b6200025991905b80821115620002555760008160009055506001016200023b565b5090565b90565b600082601f8301126200026e57600080fd5b8151620002856200027f82620003bd565b6200038f565b91508082526020830160208301858383011115620002a257600080fd5b620002af838284620003fb565b50505092915050565b60008060408385031215620002cc57600080fd5b600083015167ffffffffffffffff811115620002e757600080fd5b620002f5858286016200025c565b925050602083015167ffffffffffffffff8111156200031357600080fd5b62000321858286016200025c565b9150509250929050565b60006200033a601c83620003ea565b91507f4552433136353a20696e76616c696420696e74657266616365206964000000006000830152602082019050919050565b6000602082019050818103600083015262000388816200032b565b9050919050565b6000604051905081810181811067ffffffffffffffff82111715620003b357600080fd5b8060405250919050565b600067ffffffffffffffff821115620003d557600080fd5b601f19601f8301169050602081019050919050565b600082825260208201905092915050565b60005b838110156200041b578082015181840152602081019050620003fe565b838111156200042b576000848401525b50505050565b61318880620004416000396000f3fe608060405234801561001057600080fd5b50600436106101215760003560e01c80634f6ccce7116100ad578063a22cb46511610071578063a22cb4651461032e578063b88d4fde1461034a578063c87b56dd14610366578063d3fc986414610396578063e985e9c5146103b257610121565b80634f6ccce7146102625780636352211e146102925780636c0360eb146102c257806370a08231146102e057806395d89b411461031057610121565b806318160ddd116100f457806318160ddd146101c057806323b872dd146101de5780632f745c59146101fa57806342842e0e1461022a57806342966c681461024657610121565b806301ffc9a71461012657806306fdde0314610156578063081812fc14610174578063095ea7b3146101a4575b600080fd5b610140600480360381019061013b9190612385565b6103e2565b60405161014d9190612c94565b60405180910390f35b61015e610449565b60405161016b9190612caf565b60405180910390f35b61018e600480360381019061018991906123d7565b6104eb565b60405161019b9190612c2d565b60405180910390f35b6101be60048036038101906101b991906122e2565b610570565b005b6101c8610688565b6040516101d59190612ef1565b60405180910390f35b6101f860048036038101906101f391906121dc565b610699565b005b610214600480360381019061020f91906122e2565b6106f9565b6040516102219190612ef1565b60405180910390f35b610244600480360381019061023f91906121dc565b610754565b005b610260600480360381019061025b91906123d7565b610774565b005b61027c600480360381019061027791906123d7565b6107d0565b6040516102899190612ef1565b60405180910390f35b6102ac60048036038101906102a791906123d7565b6107f3565b6040516102b99190612c2d565b60405180910390f35b6102ca61082a565b6040516102d79190612caf565b60405180910390f35b6102fa60048036038101906102f59190612177565b6108cc565b6040516103079190612ef1565b60405180910390f35b61031861098b565b6040516103259190612caf565b60405180910390f35b610348600480360381019061034391906122a6565b610a2d565b005b610364600480360381019061035f919061222b565b610bae565b005b610380600480360381019061037b91906123d7565b610c10565b60405161038d9190612caf565b60405180910390f35b6103b060048036038101906103ab919061231e565b610d9b565b005b6103cc60048036038101906103c791906121a0565b610db4565b6040516103d99190612c94565b60405180910390f35b6000806000837bffffffffffffffffffffffffffffffffffffffffffffffffffffffff19167bffffffffffffffffffffffffffffffffffffffffffffffffffffffff1916815260200190815260200160002060009054906101000a900460ff169050919050565b606060068054600181600116156101000203166002900480601f0160208091040260200160405190810160405280929190818152602001828054600181600116156101000203166002900480156104e15780601f106104b6576101008083540402835291602001916104e1565b820191906000526020600020905b8154815290600101906020018083116104c457829003601f168201915b5050505050905090565b60006104f682610e48565b610535576040517f08c379a000000000000000000000000000000000000000000000000000000000815260040161052c90612e11565b60405180910390fd5b6004600083815260200190815260200160002060009054906101000a900473ffffffffffffffffffffffffffffffffffffffff169050919050565b600061057b826107f3565b90508073ffffffffffffffffffffffffffffffffffffffff168373ffffffffffffffffffffffffffffffffffffffff1614156105ec576040517f08c379a00000000000000000000000000000000000000000000000000000000081526004016105e390612e91565b60405180910390fd5b8073ffffffffffffffffffffffffffffffffffffffff1661060b610e65565b73ffffffffffffffffffffffffffffffffffffffff16148061063a575061063981610634610e65565b610db4565b5b610679576040517f08c379a000000000000000000000000000000000000000000000000000000000815260040161067090612d91565b60405180910390fd5b6106838383610e6d565b505050565b60006106946002610f26565b905090565b6106aa6106a4610e65565b82610f3b565b6106e9576040517f08c379a00000000000000000000000000000000000000000000000000000000081526004016106e090612eb1565b60405180910390fd5b6106f4838383611019565b505050565b600061074c82600160008673ffffffffffffffffffffffffffffffffffffffff1673ffffffffffffffffffffffffffffffffffffffff16815260200190815260200160002061123090919063ffffffff16565b905092915050565b61076f83838360405180602001604052806000815250610bae565b505050565b61078561077f610e65565b82610f3b565b6107c4576040517f08c379a00000000000000000000000000000000000000000000000000000000081526004016107bb90612ed1565b60405180910390fd5b6107cd8161124a565b50565b6000806107e783600261138490919063ffffffff16565b50905080915050919050565b60006108238260405180606001604052806029815260200161312a6029913960026113b39092919063ffffffff16565b9050919050565b606060098054600181600116156101000203166002900480601f0160208091040260200160405190810160405280929190818152602001828054600181600116156101000203166002900480156108c25780601f10610897576101008083540402835291602001916108c2565b820191906000526020600020905b8154815290600101906020018083116108a557829003601f168201915b5050505050905090565b60008073ffffffffffffffffffffffffffffffffffffffff168273ffffffffffffffffffffffffffffffffffffffff16141561093d576040517f08c379a000000000000000000000000000000000000000000000000000000000815260040161093490612db1565b60405180910390fd5b610984600160008473ffffffffffffffffffffffffffffffffffffffff1673ffffffffffffffffffffffffffffffffffffffff1681526020019081526020016000206113d2565b9050919050565b606060078054600181600116156101000203166002900480601f016020809104026020016040519081016040528092919081815260200182805460018160011615610100020316600290048015610a235780601f106109f857610100808354040283529160200191610a23565b820191906000526020600020905b815481529060010190602001808311610a0657829003601f168201915b5050505050905090565b610a35610e65565b73ffffffffffffffffffffffffffffffffffffffff168273ffffffffffffffffffffffffffffffffffffffff161415610aa3576040517f08c379a0000000000000000000000000000000000000000000000000000000008152600401610a9a90612d51565b60405180910390fd5b8060056000610ab0610e65565b73ffffffffffffffffffffffffffffffffffffffff1673ffffffffffffffffffffffffffffffffffffffff16815260200190815260200160002060008473ffffffffffffffffffffffffffffffffffffffff1673ffffffffffffffffffffffffffffffffffffffff16815260200190815260200160002060006101000a81548160ff0219169083151502179055508173ffffffffffffffffffffffffffffffffffffffff16610b5d610e65565b73ffffffffffffffffffffffffffffffffffffffff167f17307eab39ab6107e8899845ad3d59bd9653f200f220920489ca2b5937696c3183604051610ba29190612c94565b60405180910390a35050565b610bbf610bb9610e65565b83610f3b565b610bfe576040517f08c379a0000000000000000000000000000000000000000000000000000000008152600401610bf590612eb1565b60405180910390fd5b610c0a848484846113e7565b50505050565b6060610c1b82610e48565b610c5a576040517f08c379a0000000000000000000000000000000000000000000000000000000008152600401610c5190612e71565b60405180910390fd5b6060600860008481526020019081526020016000208054600181600116156101000203166002900480601f016020809104026020016040519081016040528092919081815260200182805460018160011615610100020316600290048015610d035780601f10610cd857610100808354040283529160200191610d03565b820191906000526020600020905b815481529060010190602001808311610ce657829003601f168201915b50505050509050600060098054600181600116156101000203166002900490501415610d325780915050610d96565b600081511115610d6757600981604051602001610d50929190612c09565b604051602081830303815290604052915050610d96565b6009610d7284611443565b604051602001610d83929190612c09565b6040516020818303038152906040529150505b919050565b610da58383611573565b610daf8282611701565b505050565b6000600560008473ffffffffffffffffffffffffffffffffffffffff1673ffffffffffffffffffffffffffffffffffffffff16815260200190815260200160002060008373ffffffffffffffffffffffffffffffffffffffff1673ffffffffffffffffffffffffffffffffffffffff16815260200190815260200160002060009054906101000a900460ff16905092915050565b6000610e5e82600261177590919063ffffffff16565b9050919050565b600033905090565b816004600083815260200190815260200160002060006101000a81548173ffffffffffffffffffffffffffffffffffffffff021916908373ffffffffffffffffffffffffffffffffffffffff160217905550808273ffffffffffffffffffffffffffffffffffffffff16610ee0836107f3565b73ffffffffffffffffffffffffffffffffffffffff167f8c5be1e5ebec7d5bd14f71427d1e84f3dd0314c0f7b2291e5b200ac8c7c3b92560405160405180910390a45050565b6000610f348260000161178f565b9050919050565b6000610f4682610e48565b610f85576040517f08c379a0000000000000000000000000000000000000000000000000000000008152600401610f7c90612d71565b60405180910390fd5b6000610f90836107f3565b90508073ffffffffffffffffffffffffffffffffffffffff168473ffffffffffffffffffffffffffffffffffffffff161480610fff57508373ffffffffffffffffffffffffffffffffffffffff16610fe7846104eb565b73ffffffffffffffffffffffffffffffffffffffff16145b80611010575061100f8185610db4565b5b91505092915050565b8273ffffffffffffffffffffffffffffffffffffffff16611039826107f3565b73ffffffffffffffffffffffffffffffffffffffff161461108f576040517f08c379a000000000000000000000000000000000000000000000000000000000815260040161108690612e51565b60405180910390fd5b600073ffffffffffffffffffffffffffffffffffffffff168273ffffffffffffffffffffffffffffffffffffffff1614156110ff576040517f08c379a00000000000000000000000000000000000000000000000000000000081526004016110f690612d31565b60405180910390fd5b61110a8383836117a0565b611115600082610e6d565b61116681600160008673ffffffffffffffffffffffffffffffffffffffff1673ffffffffffffffffffffffffffffffffffffffff1681526020019081526020016000206117a590919063ffffffff16565b506111b881600160008573ffffffffffffffffffffffffffffffffffffffff1673ffffffffffffffffffffffffffffffffffffffff1681526020019081526020016000206117bf90919063ffffffff16565b506111cf818360026117d99092919063ffffffff16565b50808273ffffffffffffffffffffffffffffffffffffffff168473ffffffffffffffffffffffffffffffffffffffff167fddf252ad1be2c89b69c2b068fc378daa952ba7f163c4a11628f55a4df523b3ef60405160405180910390a4505050565b600061123f836000018361180e565b60001c905092915050565b6000611255826107f3565b9050611263816000846117a0565b61126e600083610e6d565b600060086000848152602001908152602001600020805460018160011615610100020316600290049050146112bd576008600083815260200190815260200160002060006112bc9190611f79565b5b61130e82600160008473ffffffffffffffffffffffffffffffffffffffff1673ffffffffffffffffffffffffffffffffffffffff1681526020019081526020016000206117a590919063ffffffff16565b5061132382600261187b90919063ffffffff16565b5081600073ffffffffffffffffffffffffffffffffffffffff168273ffffffffffffffffffffffffffffffffffffffff167fddf252ad1be2c89b69c2b068fc378daa952ba7f163c4a11628f55a4df523b3ef60405160405180910390a45050565b6000806000806113978660000186611895565b915091508160001c8160001c8090509350935050509250929050565b60006113c6846000018460001b84611918565b60001c90509392505050565b60006113e0826000016119a9565b9050919050565b6113f2848484611019565b6113fe848484846119ba565b61143d576040517f08c379a000000000000000000000000000000000000000000000000000000000815260040161143490612cf1565b60405180910390fd5b50505050565b6060600082141561148b576040518060400160405280600181526020017f3000000000000000000000000000000000000000000000000000000000000000815250905061156e565b600082905060005b600082146114b5578080600101915050600a82816114ad57fe5b049150611493565b6060816040519080825280601f01601f1916602001820160405280156114ea5781602001600182028036833780820191505090505b50905060006001830390508593505b6000841461156657600a848161150b57fe5b0660300160f81b8282806001900393508151811061152557fe5b60200101907effffffffffffffffffffffffffffffffffffffffffffffffffffffffffffff1916908160001a905350600a848161155e57fe5b0493506114f9565b819450505050505b919050565b600073ffffffffffffffffffffffffffffffffffffffff168273ffffffffffffffffffffffffffffffffffffffff1614156115e3576040517f08c379a00000000000000000000000000000000000000000000000000000000081526004016115da90612df1565b60405180910390fd5b6115ec81610e48565b1561162c576040517f08c379a000000000000000000000000000000000000000000000000000000000815260040161162390612d11565b60405180910390fd5b611638600083836117a0565b61168981600160008573ffffffffffffffffffffffffffffffffffffffff1673ffffffffffffffffffffffffffffffffffffffff1681526020019081526020016000206117bf90919063ffffffff16565b506116a0818360026117d99092919063ffffffff16565b50808273ffffffffffffffffffffffffffffffffffffffff16600073ffffffffffffffffffffffffffffffffffffffff167fddf252ad1be2c89b69c2b068fc378daa952ba7f163c4a11628f55a4df523b3ef60405160405180910390a45050565b61170a82610e48565b611749576040517f08c379a000000000000000000000000000000000000000000000000000000000815260040161174090612e31565b60405180910390fd5b80600860008481526020019081526020016000209080519060200190611770929190611fc1565b505050565b6000611787836000018360001b611b9b565b905092915050565b600081600001805490509050919050565b505050565b60006117b7836000018360001b611bbe565b905092915050565b60006117d1836000018360001b611ca6565b905092915050565b6000611805846000018460001b8473ffffffffffffffffffffffffffffffffffffffff1660001b611d16565b90509392505050565b600081836000018054905011611859576040517f08c379a000000000000000000000000000000000000000000000000000000000815260040161185090612cd1565b60405180910390fd5b82600001828154811061186857fe5b9060005260206000200154905092915050565b600061188d836000018360001b611df2565b905092915050565b600080828460000180549050116118e1576040517f08c379a00000000000000000000000000000000000000000000000000000000081526004016118d890612dd1565b60405180910390fd5b60008460000184815481106118f257fe5b906000526020600020906002020190508060000154816001015492509250509250929050565b6000808460010160008581526020019081526020016000205490506000811415839061197a576040517f08c379a00000000000000000000000000000000000000000000000000000000081526004016119719190612caf565b60405180910390fd5b5084600001600182038154811061198d57fe5b9060005260206000209060020201600101549150509392505050565b600081600001805490509050919050565b60006119db8473ffffffffffffffffffffffffffffffffffffffff16611f0b565b6119e85760019050611b93565b600060608573ffffffffffffffffffffffffffffffffffffffff1663150b7a0260e01b611a13610e65565b898888604051602401611a299493929190612c48565b604051602081830303815290604052907bffffffffffffffffffffffffffffffffffffffffffffffffffffffff19166020820180517bffffffffffffffffffffffffffffffffffffffffffffffffffffffff8381831617835250505050604051611a939190612bf2565b6000604051808303816000865af19150503d8060008114611ad0576040519150601f19603f3d011682016040523d82523d6000602084013e611ad5565b606091505b509150915081611b2d57600081511115611af25780518082602001fd5b6040517f08c379a0000000000000000000000000000000000000000000000000000000008152600401611b2490612cf1565b60405180910390fd5b600081806020019051810190611b4391906123ae565b905063150b7a0260e01b7bffffffffffffffffffffffffffffffffffffffffffffffffffffffff1916817bffffffffffffffffffffffffffffffffffffffffffffffffffffffff19161493505050505b949350505050565b600080836001016000848152602001908152602001600020541415905092915050565b60008083600101600084815260200190815260200160002054905060008114611c9a5760006001820390506000600186600001805490500390506000866000018281548110611c0957fe5b9060005260206000200154905080876000018481548110611c2657fe5b9060005260206000200181905550600183018760010160008381526020019081526020016000208190555086600001805480611c5e57fe5b60019003818190600052602060002001600090559055866001016000878152602001908152602001600020600090556001945050505050611ca0565b60009150505b92915050565b6000611cb28383611f56565b611d0b578260000182908060018154018082558091505060019003906000526020600020016000909190919091505582600001805490508360010160008481526020019081526020016000208190555060019050611d10565b600090505b92915050565b6000808460010160008581526020019081526020016000205490506000811415611dbd57846000016040518060400160405280868152602001858152509080600181540180825580915050600190039060005260206000209060020201600090919091909150600082015181600001556020820151816001015550508460000180549050856001016000868152602001908152602001600020819055506001915050611deb565b82856000016001830381548110611dd057fe5b90600052602060002090600202016001018190555060009150505b9392505050565b60008083600101600084815260200190815260200160002054905060008114611eff5760006001820390506000600186600001805490500390506000866000018281548110611e3d57fe5b9060005260206000209060020201905080876000018481548110611e5d57fe5b9060005260206000209060020201600082015481600001556001820154816001015590505060018301876001016000836000015481526020019081526020016000208190555086600001805480611eb057fe5b6001900381819060005260206000209060020201600080820160009055600182016000905550509055866001016000878152602001908152602001600020600090556001945050505050611f05565b60009150505b92915050565b60008060007fc5d2460186f7233c927e7db2dcc703c0e500b653ca82273b7bfad8045d85a47060001b9050833f9150808214158015611f4d57506000801b8214155b92505050919050565b600080836001016000848152602001908152602001600020541415905092915050565b50805460018160011615610100020316600290046000825580601f10611f9f5750611fbe565b601f016020900490600052602060002090810190611fbd9190612041565b5b50565b828054600181600116156101000203166002900490600052602060002090601f016020900481019282601f1061200257805160ff1916838001178555612030565b82800160010185558215612030579182015b8281111561202f578251825591602001919060010190612014565b5b50905061203d9190612041565b5090565b61206391905b8082111561205f576000816000905550600101612047565b5090565b90565b600081359050612075816130cd565b92915050565b60008135905061208a816130e4565b92915050565b60008135905061209f816130fb565b92915050565b6000815190506120b4816130fb565b92915050565b600082601f8301126120cb57600080fd5b81356120de6120d982612f39565b612f0c565b915080825260208301602083018583830111156120fa57600080fd5b61210583828461307a565b50505092915050565b600082601f83011261211f57600080fd5b813561213261212d82612f65565b612f0c565b9150808252602083016020830185838301111561214e57600080fd5b61215983828461307a565b50505092915050565b60008135905061217181613112565b92915050565b60006020828403121561218957600080fd5b600061219784828501612066565b91505092915050565b600080604083850312156121b357600080fd5b60006121c185828601612066565b92505060206121d285828601612066565b9150509250929050565b6000806000606084860312156121f157600080fd5b60006121ff86828701612066565b935050602061221086828701612066565b925050604061222186828701612162565b9150509250925092565b6000806000806080858703121561224157600080fd5b600061224f87828801612066565b945050602061226087828801612066565b935050604061227187828801612162565b925050606085013567ffffffffffffffff81111561228e57600080fd5b61229a878288016120ba565b91505092959194509250565b600080604083850312156122b957600080fd5b60006122c785828601612066565b92505060206122d88582860161207b565b9150509250929050565b600080604083850312156122f557600080fd5b600061230385828601612066565b925050602061231485828601612162565b9150509250929050565b60008060006060848603121561233357600080fd5b600061234186828701612066565b935050602061235286828701612162565b925050604084013567ffffffffffffffff81111561236f57600080fd5b61237b8682870161210e565b9150509250925092565b60006020828403121561239757600080fd5b60006123a584828501612090565b91505092915050565b6000602082840312156123c057600080fd5b60006123ce848285016120a5565b91505092915050565b6000602082840312156123e957600080fd5b60006123f784828501612162565b91505092915050565b61240981613006565b82525050565b61241881612ff4565b82525050565b61242781613018565b82525050565b600061243882612fa6565b6124428185612fbc565b9350612452818560208601613089565b61245b816130bc565b840191505092915050565b600061247182612fa6565b61247b8185612fcd565b935061248b818560208601613089565b80840191505092915050565b60006124a282612fb1565b6124ac8185612fd8565b93506124bc818560208601613089565b6124c5816130bc565b840191505092915050565b60006124db82612fb1565b6124e58185612fe9565b93506124f5818560208601613089565b80840191505092915050565b60008154600181166000811461251e576001811461254357612587565b607f600283041661252f8187612fe9565b955060ff1983168652808601935050612587565b600282046125518187612fe9565b955061255c85612f91565b60005b8281101561257e5781548189015260018201915060208101905061255f565b82880195505050505b505092915050565b600061259c602283612fd8565b91507f456e756d657261626c655365743a20696e646578206f7574206f6620626f756e60008301527f64730000000000000000000000000000000000000000000000000000000000006020830152604082019050919050565b6000612602603283612fd8565b91507f4552433732313a207472616e7366657220746f206e6f6e20455243373231526560008301527f63656976657220696d706c656d656e74657200000000000000000000000000006020830152604082019050919050565b6000612668601c83612fd8565b91507f4552433732313a20746f6b656e20616c7265616479206d696e746564000000006000830152602082019050919050565b60006126a8602483612fd8565b91507f4552433732313a207472616e7366657220746f20746865207a65726f2061646460008301527f72657373000000000000000000000000000000000000000000000000000000006020830152604082019050919050565b600061270e601983612fd8565b91507f4552433732313a20617070726f766520746f2063616c6c6572000000000000006000830152602082019050919050565b600061274e602c83612fd8565b91507f4552433732313a206f70657261746f7220717565727920666f72206e6f6e657860008301527f697374656e7420746f6b656e00000000000000000000000000000000000000006020830152604082019050919050565b60006127b4603883612fd8565b91507f4552433732313a20617070726f76652063616c6c6572206973206e6f74206f7760008301527f6e6572206e6f7220617070726f76656420666f7220616c6c00000000000000006020830152604082019050919050565b600061281a602a83612fd8565b91507f4552433732313a2062616c616e636520717565727920666f7220746865207a6560008301527f726f2061646472657373000000000000000000000000000000000000000000006020830152604082019050919050565b6000612880602283612fd8565b91507f456e756d657261626c654d61703a20696e646578206f7574206f6620626f756e60008301527f64730000000000000000000000000000000000000000000000000000000000006020830152604082019050919050565b60006128e6602083612fd8565b91507f4552433732313a206d696e7420746f20746865207a65726f20616464726573736000830152602082019050919050565b6000612926602c83612fd8565b91507f4552433732313a20617070726f76656420717565727920666f72206e6f6e657860008301527f697374656e7420746f6b656e00000000000000000000000000000000000000006020830152604082019050919050565b600061298c602c83612fd8565b91507f4552433732314d657461646174613a2055524920736574206f66206e6f6e657860008301527f697374656e7420746f6b656e00000000000000000000000000000000000000006020830152604082019050919050565b60006129f2602983612fd8565b91507f4552433732313a207472616e73666572206f6620746f6b656e2074686174206960008301527f73206e6f74206f776e00000000000000000000000000000000000000000000006020830152604082019050919050565b6000612a58602f83612fd8565b91507f4552433732314d657461646174613a2055524920717565727920666f72206e6f60008301527f6e6578697374656e7420746f6b656e00000000000000000000000000000000006020830152604082019050919050565b6000612abe602183612fd8565b91507f4552433732313a20617070726f76616c20746f2063757272656e74206f776e6560008301527f72000000000000000000000000000000000000000000000000000000000000006020830152604082019050919050565b6000612b24603183612fd8565b91507f4552433732313a207472616e736665722063616c6c6572206973206e6f74206f60008301527f776e6572206e6f7220617070726f7665640000000000000000000000000000006020830152604082019050919050565b6000612b8a603083612fd8565b91507f4552433732314275726e61626c653a2063616c6c6572206973206e6f74206f7760008301527f6e6572206e6f7220617070726f766564000000000000000000000000000000006020830152604082019050919050565b612bec81613070565b82525050565b6000612bfe8284612466565b915081905092915050565b6000612c158285612501565b9150612c2182846124d0565b91508190509392505050565b6000602082019050612c42600083018461240f565b92915050565b6000608082019050612c5d6000830187612400565b612c6a602083018661240f565b612c776040830185612be3565b8181036060830152612c89818461242d565b905095945050505050565b6000602082019050612ca9600083018461241e565b92915050565b60006020820190508181036000830152612cc98184612497565b905092915050565b60006020820190508181036000830152612cea8161258f565b9050919050565b60006020820190508181036000830152612d0a816125f5565b9050919050565b60006020820190508181036000830152612d2a8161265b565b9050919050565b60006020820190508181036000830152612d4a8161269b565b9050919050565b60006020820190508181036000830152612d6a81612701565b9050919050565b60006020820190508181036000830152612d8a81612741565b9050919050565b60006020820190508181036000830152612daa816127a7565b9050919050565b60006020820190508181036000830152612dca8161280d565b9050919050565b60006020820190508181036000830152612dea81612873565b9050919050565b60006020820190508181036000830152612e0a816128d9565b9050919050565b60006020820190508181036000830152612e2a81612919565b9050919050565b60006020820190508181036000830152612e4a8161297f565b9050919050565b60006020820190508181036000830152612e6a816129e5565b9050919050565b60006020820190508181036000830152612e8a81612a4b565b9050919050565b60006020820190508181036000830152612eaa81612ab1565b9050919050565b60006020820190508181036000830152612eca81612b17565b9050919050565b60006020820190508181036000830152612eea81612b7d565b9050919050565b6000602082019050612f066000830184612be3565b92915050565b6000604051905081810181811067ffffffffffffffff82111715612f2f57600080fd5b8060405250919050565b600067ffffffffffffffff821115612f5057600080fd5b601f19601f8301169050602081019050919050565b600067ffffffffffffffff821115612f7c57600080fd5b601f19601f8301169050602081019050919050565b60008190508160005260206000209050919050565b600081519050919050565b600081519050919050565b600082825260208201905092915050565b600081905092915050565b600082825260208201905092915050565b600081905092915050565b6000612fff82613050565b9050919050565b600061301182613050565b9050919050565b60008115159050919050565b60007fffffffff0000000000000000000000000000000000000000000000000000000082169050919050565b600073ffffffffffffffffffffffffffffffffffffffff82169050919050565b6000819050919050565b82818337600083830152505050565b60005b838110156130a757808201518184015260208101905061308c565b838111156130b6576000848401525b50505050565b6000601f19601f8301169050919050565b6130d681612ff4565b81146130e157600080fd5b50565b6130ed81613018565b81146130f857600080fd5b50565b61310481613024565b811461310f57600080fd5b50565b61311b81613070565b811461312657600080fd5b5056fe4552433732313a206f776e657220717565727920666f72206e6f6e6578697374656e7420746f6b656ea2646970667358221220ac38933f717bdb3ab8d24f7597c7df9d3ba76104c77b7e569f367e91a5782ee064736f6c63430006040033",
					"opcodes": "PUSH1 0x80 PUSH1 0x40 MSTORE CALLVALUE DUP1 ISZERO PUSH3 0x11 JUMPI PUSH1 0x0 DUP1 REVERT JUMPDEST POP PUSH1 0x40 MLOAD PUSH3 0x35C9 CODESIZE SUB DUP1 PUSH3 0x35C9 DUP4 CODECOPY DUP2 DUP2 ADD PUSH1 0x40 MSTORE DUP2 ADD SWAP1 PUSH3 0x37 SWAP2 SWAP1 PUSH3 0x2B8 JUMP JUMPDEST DUP2 DUP2 PUSH3 0x51 PUSH4 0x1FFC9A7 PUSH1 0xE0 SHL PUSH3 0xD5 PUSH1 0x20 SHL PUSH1 0x20 SHR JUMP JUMPDEST DUP2 PUSH1 0x6 SWAP1 DUP1 MLOAD SWAP1 PUSH1 0x20 ADD SWAP1 PUSH3 0x69 SWAP3 SWAP2 SWAP1 PUSH3 0x1AD JUMP JUMPDEST POP DUP1 PUSH1 0x7 SWAP1 DUP1 MLOAD SWAP1 PUSH1 0x20 ADD SWAP1 PUSH3 0x82 SWAP3 SWAP2 SWAP1 PUSH3 0x1AD JUMP JUMPDEST POP PUSH3 0x9B PUSH4 0x80AC58CD PUSH1 0xE0 SHL PUSH3 0xD5 PUSH1 0x20 SHL PUSH1 0x20 SHR JUMP JUMPDEST PUSH3 0xB3 PUSH4 0x5B5E139F PUSH1 0xE0 SHL PUSH3 0xD5 PUSH1 0x20 SHL PUSH1 0x20 SHR JUMP JUMPDEST PUSH3 0xCB PUSH4 0x780E9D63 PUSH1 0xE0 SHL PUSH3 0xD5 PUSH1 0x20 SHL PUSH1 0x20 SHR JUMP JUMPDEST POP POP POP POP PUSH3 0x431 JUMP JUMPDEST PUSH4 0xFFFFFFFF PUSH1 0xE0 SHL DUP2 PUSH28 0xFFFFFFFFFFFFFFFFFFFFFFFFFFFFFFFFFFFFFFFFFFFFFFFFFFFFFFFF NOT AND EQ ISZERO PUSH3 0x141 JUMPI PUSH1 0x40 MLOAD PUSH32 0x8C379A000000000000000000000000000000000000000000000000000000000 DUP2 MSTORE PUSH1 0x4 ADD PUSH3 0x138 SWAP1 PUSH3 0x36D JUMP JUMPDEST PUSH1 0x40 MLOAD DUP1 SWAP2 SUB SWAP1 REVERT JUMPDEST PUSH1 0x1 PUSH1 0x0 DUP1 DUP4 PUSH28 0xFFFFFFFFFFFFFFFFFFFFFFFFFFFFFFFFFFFFFFFFFFFFFFFFFFFFFFFF NOT AND PUSH28 0xFFFFFFFFFFFFFFFFFFFFFFFFFFFFFFFFFFFFFFFFFFFFFFFFFFFFFFFF NOT AND DUP2 MSTORE PUSH1 0x20 ADD SWAP1 DUP2 MSTORE PUSH1 0x20 ADD PUSH1 0x0 KECCAK256 PUSH1 0x0 PUSH2 0x100 EXP DUP2 SLOAD DUP2 PUSH1 0xFF MUL NOT AND SWAP1 DUP4 ISZERO ISZERO MUL OR SWAP1 SSTORE POP POP JUMP JUMPDEST DUP3 DUP1 SLOAD PUSH1 0x1 DUP2 PUSH1 0x1 AND ISZERO PUSH2 0x100 MUL SUB AND PUSH1 0x2 SWAP1 DIV SWAP1 PUSH1 0x0 MSTORE PUSH1 0x20 PUSH1 0x0 KECCAK256 SWAP1 PUSH1 0x1F ADD PUSH1 0x20 SWAP1 DIV DUP2 ADD SWAP3 DUP3 PUSH1 0x1F LT PUSH3 0x1F0 JUMPI DUP1 MLOAD PUSH1 0xFF NOT AND DUP4 DUP1 ADD OR DUP6 SSTORE PUSH3 0x221 JUMP JUMPDEST DUP3 DUP1 ADD PUSH1 0x1 ADD DUP6 SSTORE DUP3 ISZERO PUSH3 0x221 JUMPI SWAP2 DUP3 ADD JUMPDEST DUP3 DUP2 GT ISZERO PUSH3 0x220 JUMPI DUP3 MLOAD DUP3 SSTORE SWAP2 PUSH1 0x20 ADD SWAP2 SWAP1 PUSH1 0x1 ADD SWAP1 PUSH3 0x203 JUMP JUMPDEST JUMPDEST POP SWAP1 POP PUSH3 0x230 SWAP2 SWAP1 PUSH3 0x234 JUMP JUMPDEST POP SWAP1 JUMP JUMPDEST PUSH3 0x259 SWAP2 SWAP1 JUMPDEST DUP1 DUP3 GT ISZERO PUSH3 0x255 JUMPI PUSH1 0x0 DUP2 PUSH1 0x0 SWAP1 SSTORE POP PUSH1 0x1 ADD PUSH3 0x23B JUMP JUMPDEST POP SWAP1 JUMP JUMPDEST SWAP1 JUMP JUMPDEST PUSH1 0x0 DUP3 PUSH1 0x1F DUP4 ADD SLT PUSH3 0x26E JUMPI PUSH1 0x0 DUP1 REVERT JUMPDEST DUP2 MLOAD PUSH3 0x285 PUSH3 0x27F DUP3 PUSH3 0x3BD JUMP JUMPDEST PUSH3 0x38F JUMP JUMPDEST SWAP2 POP DUP1 DUP3 MSTORE PUSH1 0x20 DUP4 ADD PUSH1 0x20 DUP4 ADD DUP6 DUP4 DUP4 ADD GT ISZERO PUSH3 0x2A2 JUMPI PUSH1 0x0 DUP1 REVERT JUMPDEST PUSH3 0x2AF DUP4 DUP3 DUP5 PUSH3 0x3FB JUMP JUMPDEST POP POP POP SWAP3 SWAP2 POP POP JUMP JUMPDEST PUSH1 0x0 DUP1 PUSH1 0x40 DUP4 DUP6 SUB SLT ISZERO PUSH3 0x2CC JUMPI PUSH1 0x0 DUP1 REVERT JUMPDEST PUSH1 0x0 DUP4 ADD MLOAD PUSH8 0xFFFFFFFFFFFFFFFF DUP2 GT ISZERO PUSH3 0x2E7 JUMPI PUSH1 0x0 DUP1 REVERT JUMPDEST PUSH3 0x2F5 DUP6 DUP3 DUP7 ADD PUSH3 0x25C JUMP JUMPDEST SWAP3 POP POP PUSH1 0x20 DUP4 ADD MLOAD PUSH8 0xFFFFFFFFFFFFFFFF DUP2 GT ISZERO PUSH3 0x313 JUMPI PUSH1 0x0 DUP1 REVERT JUMPDEST PUSH3 0x321 DUP6 DUP3 DUP7 ADD PUSH3 0x25C JUMP JUMPDEST SWAP2 POP POP SWAP3 POP SWAP3 SWAP1 POP JUMP JUMPDEST PUSH1 0x0 PUSH3 0x33A PUSH1 0x1C DUP4 PUSH3 0x3EA JUMP JUMPDEST SWAP2 POP PUSH32 0x4552433136353A20696E76616C696420696E7465726661636520696400000000 PUSH1 0x0 DUP4 ADD MSTORE PUSH1 0x20 DUP3 ADD SWAP1 POP SWAP2 SWAP1 POP JUMP JUMPDEST PUSH1 0x0 PUSH1 0x20 DUP3 ADD SWAP1 POP DUP2 DUP2 SUB PUSH1 0x0 DUP4 ADD MSTORE PUSH3 0x388 DUP2 PUSH3 0x32B JUMP JUMPDEST SWAP1 POP SWAP2 SWAP1 POP JUMP JUMPDEST PUSH1 0x0 PUSH1 0x40 MLOAD SWAP1 POP DUP2 DUP2 ADD DUP2 DUP2 LT PUSH8 0xFFFFFFFFFFFFFFFF DUP3 GT OR ISZERO PUSH3 0x3B3 JUMPI PUSH1 0x0 DUP1 REVERT JUMPDEST DUP1 PUSH1 0x40 MSTORE POP SWAP2 SWAP1 POP JUMP JUMPDEST PUSH1 0x0 PUSH8 0xFFFFFFFFFFFFFFFF DUP3 GT ISZERO PUSH3 0x3D5 JUMPI PUSH1 0x0 DUP1 REVERT JUMPDEST PUSH1 0x1F NOT PUSH1 0x1F DUP4 ADD AND SWAP1 POP PUSH1 0x20 DUP2 ADD SWAP1 POP SWAP2 SWAP1 POP JUMP JUMPDEST PUSH1 0x0 DUP3 DUP3 MSTORE PUSH1 0x20 DUP3 ADD SWAP1 POP SWAP3 SWAP2 POP POP JUMP JUMPDEST PUSH1 0x0 JUMPDEST DUP4 DUP2 LT ISZERO PUSH3 0x41B JUMPI DUP1 DUP3 ADD MLOAD DUP2 DUP5 ADD MSTORE PUSH1 0x20 DUP2 ADD SWAP1 POP PUSH3 0x3FE JUMP JUMPDEST DUP4 DUP2 GT ISZERO PUSH3 0x42B JUMPI PUSH1 0x0 DUP5 DUP5 ADD MSTORE JUMPDEST POP POP POP POP JUMP JUMPDEST PUSH2 0x3188 DUP1 PUSH3 0x441 PUSH1 0x0 CODECOPY PUSH1 0x0 RETURN INVALID PUSH1 0x80 PUSH1 0x40 MSTORE CALLVALUE DUP1 ISZERO PUSH2 0x10 JUMPI PUSH1 0x0 DUP1 REVERT JUMPDEST POP PUSH1 0x4 CALLDATASIZE LT PUSH2 0x121 JUMPI PUSH1 0x0 CALLDATALOAD PUSH1 0xE0 SHR DUP1 PUSH4 0x4F6CCCE7 GT PUSH2 0xAD JUMPI DUP1 PUSH4 0xA22CB465 GT PUSH2 0x71 JUMPI DUP1 PUSH4 0xA22CB465 EQ PUSH2 0x32E JUMPI DUP1 PUSH4 0xB88D4FDE EQ PUSH2 0x34A JUMPI DUP1 PUSH4 0xC87B56DD EQ PUSH2 0x366 JUMPI DUP1 PUSH4 0xD3FC9864 EQ PUSH2 0x396 JUMPI DUP1 PUSH4 0xE985E9C5 EQ PUSH2 0x3B2 JUMPI PUSH2 0x121 JUMP JUMPDEST DUP1 PUSH4 0x4F6CCCE7 EQ PUSH2 0x262 JUMPI DUP1 PUSH4 0x6352211E EQ PUSH2 0x292 JUMPI DUP1 PUSH4 0x6C0360EB EQ PUSH2 0x2C2 JUMPI DUP1 PUSH4 0x70A08231 EQ PUSH2 0x2E0 JUMPI DUP1 PUSH4 0x95D89B41 EQ PUSH2 0x310 JUMPI PUSH2 0x121 JUMP JUMPDEST DUP1 PUSH4 0x18160DDD GT PUSH2 0xF4 JUMPI DUP1 PUSH4 0x18160DDD EQ PUSH2 0x1C0 JUMPI DUP1 PUSH4 0x23B872DD EQ PUSH2 0x1DE JUMPI DUP1 PUSH4 0x2F745C59 EQ PUSH2 0x1FA JUMPI DUP1 PUSH4 0x42842E0E EQ PUSH2 0x22A JUMPI DUP1 PUSH4 0x42966C68 EQ PUSH2 0x246 JUMPI PUSH2 0x121 JUMP JUMPDEST DUP1 PUSH4 0x1FFC9A7 EQ PUSH2 0x126 JUMPI DUP1 PUSH4 0x6FDDE03 EQ PUSH2 0x156 JUMPI DUP1 PUSH4 0x81812FC EQ PUSH2 0x174 JUMPI DUP1 PUSH4 0x95EA7B3 EQ PUSH2 0x1A4 JUMPI JUMPDEST PUSH1 0x0 DUP1 REVERT JUMPDEST PUSH2 0x140 PUSH1 0x4 DUP1 CALLDATASIZE SUB DUP2 ADD SWAP1 PUSH2 0x13B SWAP2 SWAP1 PUSH2 0x2385 JUMP JUMPDEST PUSH2 0x3E2 JUMP JUMPDEST PUSH1 0x40 MLOAD PUSH2 0x14D SWAP2 SWAP1 PUSH2 0x2C94 JUMP JUMPDEST PUSH1 0x40 MLOAD DUP1 SWAP2 SUB SWAP1 RETURN JUMPDEST PUSH2 0x15E PUSH2 0x449 JUMP JUMPDEST PUSH1 0x40 MLOAD PUSH2 0x16B SWAP2 SWAP1 PUSH2 0x2CAF JUMP JUMPDEST PUSH1 0x40 MLOAD DUP1 SWAP2 SUB SWAP1 RETURN JUMPDEST PUSH2 0x18E PUSH1 0x4 DUP1 CALLDATASIZE SUB DUP2 ADD SWAP1 PUSH2 0x189 SWAP2 SWAP1 PUSH2 0x23D7 JUMP JUMPDEST PUSH2 0x4EB JUMP JUMPDEST PUSH1 0x40 MLOAD PUSH2 0x19B SWAP2 SWAP1 PUSH2 0x2C2D JUMP JUMPDEST PUSH1 0x40 MLOAD DUP1 SWAP2 SUB SWAP1 RETURN JUMPDEST PUSH2 0x1BE PUSH1 0x4 DUP1 CALLDATASIZE SUB DUP2 ADD SWAP1 PUSH2 0x1B9 SWAP2 SWAP1 PUSH2 0x22E2 JUMP JUMPDEST PUSH2 0x570 JUMP JUMPDEST STOP JUMPDEST PUSH2 0x1C8 PUSH2 0x688 JUMP JUMPDEST PUSH1 0x40 MLOAD PUSH2 0x1D5 SWAP2 SWAP1 PUSH2 0x2EF1 JUMP JUMPDEST PUSH1 0x40 MLOAD DUP1 SWAP2 SUB SWAP1 RETURN JUMPDEST PUSH2 0x1F8 PUSH1 0x4 DUP1 CALLDATASIZE SUB DUP2 ADD SWAP1 PUSH2 0x1F3 SWAP2 SWAP1 PUSH2 0x21DC JUMP JUMPDEST PUSH2 0x699 JUMP JUMPDEST STOP JUMPDEST PUSH2 0x214 PUSH1 0x4 DUP1 CALLDATASIZE SUB DUP2 ADD SWAP1 PUSH2 0x20F SWAP2 SWAP1 PUSH2 0x22E2 JUMP JUMPDEST PUSH2 0x6F9 JUMP JUMPDEST PUSH1 0x40 MLOAD PUSH2 0x221 SWAP2 SWAP1 PUSH2 0x2EF1 JUMP JUMPDEST PUSH1 0x40 MLOAD DUP1 SWAP2 SUB SWAP1 RETURN JUMPDEST PUSH2 0x244 PUSH1 0x4 DUP1 CALLDATASIZE SUB DUP2 ADD SWAP1 PUSH2 0x23F SWAP2 SWAP1 PUSH2 0x21DC JUMP JUMPDEST PUSH2 0x754 JUMP JUMPDEST STOP JUMPDEST PUSH2 0x260 PUSH1 0x4 DUP1 CALLDATASIZE SUB DUP2 ADD SWAP1 PUSH2 0x25B SWAP2 SWAP1 PUSH2 0x23D7 JUMP JUMPDEST PUSH2 0x774 JUMP JUMPDEST STOP JUMPDEST PUSH2 0x27C PUSH1 0x4 DUP1 CALLDATASIZE SUB DUP2 ADD SWAP1 PUSH2 0x277 SWAP2 SWAP1 PUSH2 0x23D7 JUMP JUMPDEST PUSH2 0x7D0 JUMP JUMPDEST PUSH1 0x40 MLOAD PUSH2 0x289 SWAP2 SWAP1 PUSH2 0x2EF1 JUMP JUMPDEST PUSH1 0x40 MLOAD DUP1 SWAP2 SUB SWAP1 RETURN JUMPDEST PUSH2 0x2AC PUSH1 0x4 DUP1 CALLDATASIZE SUB DUP2 ADD SWAP1 PUSH2 0x2A7 SWAP2 SWAP1 PUSH2 0x23D7 JUMP JUMPDEST PUSH2 0x7F3 JUMP JUMPDEST PUSH1 0x40 MLOAD PUSH2 0x2B9 SWAP2 SWAP1 PUSH2 0x2C2D JUMP JUMPDEST PUSH1 0x40 MLOAD DUP1 SWAP2 SUB SWAP1 RETURN JUMPDEST PUSH2 0x2CA PUSH2 0x82A JUMP JUMPDEST PUSH1 0x40 MLOAD PUSH2 0x2D7 SWAP2 SWAP1 PUSH2 0x2CAF JUMP JUMPDEST PUSH1 0x40 MLOAD DUP1 SWAP2 SUB SWAP1 RETURN JUMPDEST PUSH2 0x2FA PUSH1 0x4 DUP1 CALLDATASIZE SUB DUP2 ADD SWAP1 PUSH2 0x2F5 SWAP2 SWAP1 PUSH2 0x2177 JUMP JUMPDEST PUSH2 0x8CC JUMP JUMPDEST PUSH1 0x40 MLOAD PUSH2 0x307 SWAP2 SWAP1 PUSH2 0x2EF1 JUMP JUMPDEST PUSH1 0x40 MLOAD DUP1 SWAP2 SUB SWAP1 RETURN JUMPDEST PUSH2 0x318 PUSH2 0x98B JUMP JUMPDEST PUSH1 0x40 MLOAD PUSH2 0x325 SWAP2 SWAP1 PUSH2 0x2CAF JUMP JUMPDEST PUSH1 0x40 MLOAD DUP1 SWAP2 SUB SWAP1 RETURN JUMPDEST PUSH2 0x348 PUSH1 0x4 DUP1 CALLDATASIZE SUB DUP2 ADD SWAP1 PUSH2 0x343 SWAP2 SWAP1 PUSH2 0x22A6 JUMP JUMPDEST PUSH2 0xA2D JUMP JUMPDEST STOP JUMPDEST PUSH2 0x364 PUSH1 0x4 DUP1 CALLDATASIZE SUB DUP2 ADD SWAP1 PUSH2 0x35F SWAP2 SWAP1 PUSH2 0x222B JUMP JUMPDEST PUSH2 0xBAE JUMP JUMPDEST STOP JUMPDEST PUSH2 0x380 PUSH1 0x4 DUP1 CALLDATASIZE SUB DUP2 ADD SWAP1 PUSH2 0x37B SWAP2 SWAP1 PUSH2 0x23D7 JUMP JUMPDEST PUSH2 0xC10 JUMP JUMPDEST PUSH1 0x40 MLOAD PUSH2 0x38D SWAP2 SWAP1 PUSH2 0x2CAF JUMP JUMPDEST PUSH1 0x40 MLOAD DUP1 SWAP2 SUB SWAP1 RETURN JUMPDEST PUSH2 0x3B0 PUSH1 0x4 DUP1 CALLDATASIZE SUB DUP2 ADD SWAP1 PUSH2 0x3AB SWAP2 SWAP1 PUSH2 0x231E JUMP JUMPDEST PUSH2 0xD9B JUMP JUMPDEST STOP JUMPDEST PUSH2 0x3CC PUSH1 0x4 DUP1 CALLDATASIZE SUB DUP2 ADD SWAP1 PUSH2 0x3C7 SWAP2 SWAP1 PUSH2 0x21A0 JUMP JUMPDEST PUSH2 0xDB4 JUMP JUMPDEST PUSH1 0x40 MLOAD PUSH2 0x3D9 SWAP2 SWAP1 PUSH2 0x2C94 JUMP JUMPDEST PUSH1 0x40 MLOAD DUP1 SWAP2 SUB SWAP1 RETURN JUMPDEST PUSH1 0x0 DUP1 PUSH1 0x0 DUP4 PUSH28 0xFFFFFFFFFFFFFFFFFFFFFFFFFFFFFFFFFFFFFFFFFFFFFFFFFFFFFFFF NOT AND PUSH28 0xFFFFFFFFFFFFFFFFFFFFFFFFFFFFFFFFFFFFFFFFFFFFFFFFFFFFFFFF NOT AND DUP2 MSTORE PUSH1 0x20 ADD SWAP1 DUP2 MSTORE PUSH1 0x20 ADD PUSH1 0x0 KECCAK256 PUSH1 0x0 SWAP1 SLOAD SWAP1 PUSH2 0x100 EXP SWAP1 DIV PUSH1 0xFF AND SWAP1 POP SWAP2 SWAP1 POP JUMP JUMPDEST PUSH1 0x60 PUSH1 0x6 DUP1 SLOAD PUSH1 0x1 DUP2 PUSH1 0x1 AND ISZERO PUSH2 0x100 MUL SUB AND PUSH1 0x2 SWAP1 DIV DUP1 PUSH1 0x1F ADD PUSH1 0x20 DUP1 SWAP2 DIV MUL PUSH1 0x20 ADD PUSH1 0x40 MLOAD SWAP1 DUP2 ADD PUSH1 0x40 MSTORE DUP1 SWAP3 SWAP2 SWAP1 DUP2 DUP2 MSTORE PUSH1 0x20 ADD DUP3 DUP1 SLOAD PUSH1 0x1 DUP2 PUSH1 0x1 AND ISZERO PUSH2 0x100 MUL SUB AND PUSH1 0x2 SWAP1 DIV DUP1 ISZERO PUSH2 0x4E1 JUMPI DUP1 PUSH1 0x1F LT PUSH2 0x4B6 JUMPI PUSH2 0x100 DUP1 DUP4 SLOAD DIV MUL DUP4 MSTORE SWAP2 PUSH1 0x20 ADD SWAP2 PUSH2 0x4E1 JUMP JUMPDEST DUP3 ADD SWAP2 SWAP1 PUSH1 0x0 MSTORE PUSH1 0x20 PUSH1 0x0 KECCAK256 SWAP1 JUMPDEST DUP2 SLOAD DUP2 MSTORE SWAP1 PUSH1 0x1 ADD SWAP1 PUSH1 0x20 ADD DUP1 DUP4 GT PUSH2 0x4C4 JUMPI DUP3 SWAP1 SUB PUSH1 0x1F AND DUP3 ADD SWAP2 JUMPDEST POP POP POP POP POP SWAP1 POP SWAP1 JUMP JUMPDEST PUSH1 0x0 PUSH2 0x4F6 DUP3 PUSH2 0xE48 JUMP JUMPDEST PUSH2 0x535 JUMPI PUSH1 0x40 MLOAD PUSH32 0x8C379A000000000000000000000000000000000000000000000000000000000 DUP2 MSTORE PUSH1 0x4 ADD PUSH2 0x52C SWAP1 PUSH2 0x2E11 JUMP JUMPDEST PUSH1 0x40 MLOAD DUP1 SWAP2 SUB SWAP1 REVERT JUMPDEST PUSH1 0x4 PUSH1 0x0 DUP4 DUP2 MSTORE PUSH1 0x20 ADD SWAP1 DUP2 MSTORE PUSH1 0x20 ADD PUSH1 0x0 KECCAK256 PUSH1 0x0 SWAP1 SLOAD SWAP1 PUSH2 0x100 EXP SWAP1 DIV PUSH20 0xFFFFFFFFFFFFFFFFFFFFFFFFFFFFFFFFFFFFFFFF AND SWAP1 POP SWAP2 SWAP1 POP JUMP JUMPDEST PUSH1 0x0 PUSH2 0x57B DUP3 PUSH2 0x7F3 JUMP JUMPDEST SWAP1 POP DUP1 PUSH20 0xFFFFFFFFFFFFFFFFFFFFFFFFFFFFFFFFFFFFFFFF AND DUP4 PUSH20 0xFFFFFFFFFFFFFFFFFFFFFFFFFFFFFFFFFFFFFFFF AND EQ ISZERO PUSH2 0x5EC JUMPI PUSH1 0x40 MLOAD PUSH32 0x8C379A000000000000000000000000000000000000000000000000000000000 DUP2 MSTORE PUSH1 0x4 ADD PUSH2 0x5E3 SWAP1 PUSH2 0x2E91 JUMP JUMPDEST PUSH1 0x40 MLOAD DUP1 SWAP2 SUB SWAP1 REVERT JUMPDEST DUP1 PUSH20 0xFFFFFFFFFFFFFFFFFFFFFFFFFFFFFFFFFFFFFFFF AND PUSH2 0x60B PUSH2 0xE65 JUMP JUMPDEST PUSH20 0xFFFFFFFFFFFFFFFFFFFFFFFFFFFFFFFFFFFFFFFF AND EQ DUP1 PUSH2 0x63A JUMPI POP PUSH2 0x639 DUP2 PUSH2 0x634 PUSH2 0xE65 JUMP JUMPDEST PUSH2 0xDB4 JUMP JUMPDEST JUMPDEST PUSH2 0x679 JUMPI PUSH1 0x40 MLOAD PUSH32 0x8C379A000000000000000000000000000000000000000000000000000000000 DUP2 MSTORE PUSH1 0x4 ADD PUSH2 0x670 SWAP1 PUSH2 0x2D91 JUMP JUMPDEST PUSH1 0x40 MLOAD DUP1 SWAP2 SUB SWAP1 REVERT JUMPDEST PUSH2 0x683 DUP4 DUP4 PUSH2 0xE6D JUMP JUMPDEST POP POP POP JUMP JUMPDEST PUSH1 0x0 PUSH2 0x694 PUSH1 0x2 PUSH2 0xF26 JUMP JUMPDEST SWAP1 POP SWAP1 JUMP JUMPDEST PUSH2 0x6AA PUSH2 0x6A4 PUSH2 0xE65 JUMP JUMPDEST DUP3 PUSH2 0xF3B JUMP JUMPDEST PUSH2 0x6E9 JUMPI PUSH1 0x40 MLOAD PUSH32 0x8C379A000000000000000000000000000000000000000000000000000000000 DUP2 MSTORE PUSH1 0x4 ADD PUSH2 0x6E0 SWAP1 PUSH2 0x2EB1 JUMP JUMPDEST PUSH1 0x40 MLOAD DUP1 SWAP2 SUB SWAP1 REVERT JUMPDEST PUSH2 0x6F4 DUP4 DUP4 DUP4 PUSH2 0x1019 JUMP JUMPDEST POP POP POP JUMP JUMPDEST PUSH1 0x0 PUSH2 0x74C DUP3 PUSH1 0x1 PUSH1 0x0 DUP7 PUSH20 0xFFFFFFFFFFFFFFFFFFFFFFFFFFFFFFFFFFFFFFFF AND PUSH20 0xFFFFFFFFFFFFFFFFFFFFFFFFFFFFFFFFFFFFFFFF AND DUP2 MSTORE PUSH1 0x20 ADD SWAP1 DUP2 MSTORE PUSH1 0x20 ADD PUSH1 0x0 KECCAK256 PUSH2 0x1230 SWAP1 SWAP2 SWAP1 PUSH4 0xFFFFFFFF AND JUMP JUMPDEST SWAP1 POP SWAP3 SWAP2 POP POP JUMP JUMPDEST PUSH2 0x76F DUP4 DUP4 DUP4 PUSH1 0x40 MLOAD DUP1 PUSH1 0x20 ADD PUSH1 0x40 MSTORE DUP1 PUSH1 0x0 DUP2 MSTORE POP PUSH2 0xBAE JUMP JUMPDEST POP POP POP JUMP JUMPDEST PUSH2 0x785 PUSH2 0x77F PUSH2 0xE65 JUMP JUMPDEST DUP3 PUSH2 0xF3B JUMP JUMPDEST PUSH2 0x7C4 JUMPI PUSH1 0x40 MLOAD PUSH32 0x8C379A000000000000000000000000000000000000000000000000000000000 DUP2 MSTORE PUSH1 0x4 ADD PUSH2 0x7BB SWAP1 PUSH2 0x2ED1 JUMP JUMPDEST PUSH1 0x40 MLOAD DUP1 SWAP2 SUB SWAP1 REVERT JUMPDEST PUSH2 0x7CD DUP2 PUSH2 0x124A JUMP JUMPDEST POP JUMP JUMPDEST PUSH1 0x0 DUP1 PUSH2 0x7E7 DUP4 PUSH1 0x2 PUSH2 0x1384 SWAP1 SWAP2 SWAP1 PUSH4 0xFFFFFFFF AND JUMP JUMPDEST POP SWAP1 POP DUP1 SWAP2 POP POP SWAP2 SWAP1 POP JUMP JUMPDEST PUSH1 0x0 PUSH2 0x823 DUP3 PUSH1 0x40 MLOAD DUP1 PUSH1 0x60 ADD PUSH1 0x40 MSTORE DUP1 PUSH1 0x29 DUP2 MSTORE PUSH1 0x20 ADD PUSH2 0x312A PUSH1 0x29 SWAP2 CODECOPY PUSH1 0x2 PUSH2 0x13B3 SWAP1 SWAP3 SWAP2 SWAP1 PUSH4 0xFFFFFFFF AND JUMP JUMPDEST SWAP1 POP SWAP2 SWAP1 POP JUMP JUMPDEST PUSH1 0x60 PUSH1 0x9 DUP1 SLOAD PUSH1 0x1 DUP2 PUSH1 0x1 AND ISZERO PUSH2 0x100 MUL SUB AND PUSH1 0x2 SWAP1 DIV DUP1 PUSH1 0x1F ADD PUSH1 0x20 DUP1 SWAP2 DIV MUL PUSH1 0x20 ADD PUSH1 0x40 MLOAD SWAP1 DUP2 ADD PUSH1 0x40 MSTORE DUP1 SWAP3 SWAP2 SWAP1 DUP2 DUP2 MSTORE PUSH1 0x20 ADD DUP3 DUP1 SLOAD PUSH1 0x1 DUP2 PUSH1 0x1 AND ISZERO PUSH2 0x100 MUL SUB AND PUSH1 0x2 SWAP1 DIV DUP1 ISZERO PUSH2 0x8C2 JUMPI DUP1 PUSH1 0x1F LT PUSH2 0x897 JUMPI PUSH2 0x100 DUP1 DUP4 SLOAD DIV MUL DUP4 MSTORE SWAP2 PUSH1 0x20 ADD SWAP2 PUSH2 0x8C2 JUMP JUMPDEST DUP3 ADD SWAP2 SWAP1 PUSH1 0x0 MSTORE PUSH1 0x20 PUSH1 0x0 KECCAK256 SWAP1 JUMPDEST DUP2 SLOAD DUP2 MSTORE SWAP1 PUSH1 0x1 ADD SWAP1 PUSH1 0x20 ADD DUP1 DUP4 GT PUSH2 0x8A5 JUMPI DUP3 SWAP1 SUB PUSH1 0x1F AND DUP3 ADD SWAP2 JUMPDEST POP POP POP POP POP SWAP1 POP SWAP1 JUMP JUMPDEST PUSH1 0x0 DUP1 PUSH20 0xFFFFFFFFFFFFFFFFFFFFFFFFFFFFFFFFFFFFFFFF AND DUP3 PUSH20 0xFFFFFFFFFFFFFFFFFFFFFFFFFFFFFFFFFFFFFFFF AND EQ ISZERO PUSH2 0x93D JUMPI PUSH1 0x40 MLOAD PUSH32 0x8C379A000000000000000000000000000000000000000000000000000000000 DUP2 MSTORE PUSH1 0x4 ADD PUSH2 0x934 SWAP1 PUSH2 0x2DB1 JUMP JUMPDEST PUSH1 0x40 MLOAD DUP1 SWAP2 SUB SWAP1 REVERT JUMPDEST PUSH2 0x984 PUSH1 0x1 PUSH1 0x0 DUP5 PUSH20 0xFFFFFFFFFFFFFFFFFFFFFFFFFFFFFFFFFFFFFFFF AND PUSH20 0xFFFFFFFFFFFFFFFFFFFFFFFFFFFFFFFFFFFFFFFF AND DUP2 MSTORE PUSH1 0x20 ADD SWAP1 DUP2 MSTORE PUSH1 0x20 ADD PUSH1 0x0 KECCAK256 PUSH2 0x13D2 JUMP JUMPDEST SWAP1 POP SWAP2 SWAP1 POP JUMP JUMPDEST PUSH1 0x60 PUSH1 0x7 DUP1 SLOAD PUSH1 0x1 DUP2 PUSH1 0x1 AND ISZERO PUSH2 0x100 MUL SUB AND PUSH1 0x2 SWAP1 DIV DUP1 PUSH1 0x1F ADD PUSH1 0x20 DUP1 SWAP2 DIV MUL PUSH1 0x20 ADD PUSH1 0x40 MLOAD SWAP1 DUP2 ADD PUSH1 0x40 MSTORE DUP1 SWAP3 SWAP2 SWAP1 DUP2 DUP2 MSTORE PUSH1 0x20 ADD DUP3 DUP1 SLOAD PUSH1 0x1 DUP2 PUSH1 0x1 AND ISZERO PUSH2 0x100 MUL SUB AND PUSH1 0x2 SWAP1 DIV DUP1 ISZERO PUSH2 0xA23 JUMPI DUP1 PUSH1 0x1F LT PUSH2 0x9F8 JUMPI PUSH2 0x100 DUP1 DUP4 SLOAD DIV MUL DUP4 MSTORE SWAP2 PUSH1 0x20 ADD SWAP2 PUSH2 0xA23 JUMP JUMPDEST DUP3 ADD SWAP2 SWAP1 PUSH1 0x0 MSTORE PUSH1 0x20 PUSH1 0x0 KECCAK256 SWAP1 JUMPDEST DUP2 SLOAD DUP2 MSTORE SWAP1 PUSH1 0x1 ADD SWAP1 PUSH1 0x20 ADD DUP1 DUP4 GT PUSH2 0xA06 JUMPI DUP3 SWAP1 SUB PUSH1 0x1F AND DUP3 ADD SWAP2 JUMPDEST POP POP POP POP POP SWAP1 POP SWAP1 JUMP JUMPDEST PUSH2 0xA35 PUSH2 0xE65 JUMP JUMPDEST PUSH20 0xFFFFFFFFFFFFFFFFFFFFFFFFFFFFFFFFFFFFFFFF AND DUP3 PUSH20 0xFFFFFFFFFFFFFFFFFFFFFFFFFFFFFFFFFFFFFFFF AND EQ ISZERO PUSH2 0xAA3 JUMPI PUSH1 0x40 MLOAD PUSH32 0x8C379A000000000000000000000000000000000000000000000000000000000 DUP2 MSTORE PUSH1 0x4 ADD PUSH2 0xA9A SWAP1 PUSH2 0x2D51 JUMP JUMPDEST PUSH1 0x40 MLOAD DUP1 SWAP2 SUB SWAP1 REVERT JUMPDEST DUP1 PUSH1 0x5 PUSH1 0x0 PUSH2 0xAB0 PUSH2 0xE65 JUMP JUMPDEST PUSH20 0xFFFFFFFFFFFFFFFFFFFFFFFFFFFFFFFFFFFFFFFF AND PUSH20 0xFFFFFFFFFFFFFFFFFFFFFFFFFFFFFFFFFFFFFFFF AND DUP2 MSTORE PUSH1 0x20 ADD SWAP1 DUP2 MSTORE PUSH1 0x20 ADD PUSH1 0x0 KECCAK256 PUSH1 0x0 DUP5 PUSH20 0xFFFFFFFFFFFFFFFFFFFFFFFFFFFFFFFFFFFFFFFF AND PUSH20 0xFFFFFFFFFFFFFFFFFFFFFFFFFFFFFFFFFFFFFFFF AND DUP2 MSTORE PUSH1 0x20 ADD SWAP1 DUP2 MSTORE PUSH1 0x20 ADD PUSH1 0x0 KECCAK256 PUSH1 0x0 PUSH2 0x100 EXP DUP2 SLOAD DUP2 PUSH1 0xFF MUL NOT AND SWAP1 DUP4 ISZERO ISZERO MUL OR SWAP1 SSTORE POP DUP2 PUSH20 0xFFFFFFFFFFFFFFFFFFFFFFFFFFFFFFFFFFFFFFFF AND PUSH2 0xB5D PUSH2 0xE65 JUMP JUMPDEST PUSH20 0xFFFFFFFFFFFFFFFFFFFFFFFFFFFFFFFFFFFFFFFF AND PUSH32 0x17307EAB39AB6107E8899845AD3D59BD9653F200F220920489CA2B5937696C31 DUP4 PUSH1 0x40 MLOAD PUSH2 0xBA2 SWAP2 SWAP1 PUSH2 0x2C94 JUMP JUMPDEST PUSH1 0x40 MLOAD DUP1 SWAP2 SUB SWAP1 LOG3 POP POP JUMP JUMPDEST PUSH2 0xBBF PUSH2 0xBB9 PUSH2 0xE65 JUMP JUMPDEST DUP4 PUSH2 0xF3B JUMP JUMPDEST PUSH2 0xBFE JUMPI PUSH1 0x40 MLOAD PUSH32 0x8C379A000000000000000000000000000000000000000000000000000000000 DUP2 MSTORE PUSH1 0x4 ADD PUSH2 0xBF5 SWAP1 PUSH2 0x2EB1 JUMP JUMPDEST PUSH1 0x40 MLOAD DUP1 SWAP2 SUB SWAP1 REVERT JUMPDEST PUSH2 0xC0A DUP5 DUP5 DUP5 DUP5 PUSH2 0x13E7 JUMP JUMPDEST POP POP POP POP JUMP JUMPDEST PUSH1 0x60 PUSH2 0xC1B DUP3 PUSH2 0xE48 JUMP JUMPDEST PUSH2 0xC5A JUMPI PUSH1 0x40 MLOAD PUSH32 0x8C379A000000000000000000000000000000000000000000000000000000000 DUP2 MSTORE PUSH1 0x4 ADD PUSH2 0xC51 SWAP1 PUSH2 0x2E71 JUMP JUMPDEST PUSH1 0x40 MLOAD DUP1 SWAP2 SUB SWAP1 REVERT JUMPDEST PUSH1 0x60 PUSH1 0x8 PUSH1 0x0 DUP5 DUP2 MSTORE PUSH1 0x20 ADD SWAP1 DUP2 MSTORE PUSH1 0x20 ADD PUSH1 0x0 KECCAK256 DUP1 SLOAD PUSH1 0x1 DUP2 PUSH1 0x1 AND ISZERO PUSH2 0x100 MUL SUB AND PUSH1 0x2 SWAP1 DIV DUP1 PUSH1 0x1F ADD PUSH1 0x20 DUP1 SWAP2 DIV MUL PUSH1 0x20 ADD PUSH1 0x40 MLOAD SWAP1 DUP2 ADD PUSH1 0x40 MSTORE DUP1 SWAP3 SWAP2 SWAP1 DUP2 DUP2 MSTORE PUSH1 0x20 ADD DUP3 DUP1 SLOAD PUSH1 0x1 DUP2 PUSH1 0x1 AND ISZERO PUSH2 0x100 MUL SUB AND PUSH1 0x2 SWAP1 DIV DUP1 ISZERO PUSH2 0xD03 JUMPI DUP1 PUSH1 0x1F LT PUSH2 0xCD8 JUMPI PUSH2 0x100 DUP1 DUP4 SLOAD DIV MUL DUP4 MSTORE SWAP2 PUSH1 0x20 ADD SWAP2 PUSH2 0xD03 JUMP JUMPDEST DUP3 ADD SWAP2 SWAP1 PUSH1 0x0 MSTORE PUSH1 0x20 PUSH1 0x0 KECCAK256 SWAP1 JUMPDEST DUP2 SLOAD DUP2 MSTORE SWAP1 PUSH1 0x1 ADD SWAP1 PUSH1 0x20 ADD DUP1 DUP4 GT PUSH2 0xCE6 JUMPI DUP3 SWAP1 SUB PUSH1 0x1F AND DUP3 ADD SWAP2 JUMPDEST POP POP POP POP POP SWAP1 POP PUSH1 0x0 PUSH1 0x9 DUP1 SLOAD PUSH1 0x1 DUP2 PUSH1 0x1 AND ISZERO PUSH2 0x100 MUL SUB AND PUSH1 0x2 SWAP1 DIV SWAP1 POP EQ ISZERO PUSH2 0xD32 JUMPI DUP1 SWAP2 POP POP PUSH2 0xD96 JUMP JUMPDEST PUSH1 0x0 DUP2 MLOAD GT ISZERO PUSH2 0xD67 JUMPI PUSH1 0x9 DUP2 PUSH1 0x40 MLOAD PUSH1 0x20 ADD PUSH2 0xD50 SWAP3 SWAP2 SWAP1 PUSH2 0x2C09 JUMP JUMPDEST PUSH1 0x40 MLOAD PUSH1 0x20 DUP2 DUP4 SUB SUB DUP2 MSTORE SWAP1 PUSH1 0x40 MSTORE SWAP2 POP POP PUSH2 0xD96 JUMP JUMPDEST PUSH1 0x9 PUSH2 0xD72 DUP5 PUSH2 0x1443 JUMP JUMPDEST PUSH1 0x40 MLOAD PUSH1 0x20 ADD PUSH2 0xD83 SWAP3 SWAP2 SWAP1 PUSH2 0x2C09 JUMP JUMPDEST PUSH1 0x40 MLOAD PUSH1 0x20 DUP2 DUP4 SUB SUB DUP2 MSTORE SWAP1 PUSH1 0x40 MSTORE SWAP2 POP POP JUMPDEST SWAP2 SWAP1 POP JUMP JUMPDEST PUSH2 0xDA5 DUP4 DUP4 PUSH2 0x1573 JUMP JUMPDEST PUSH2 0xDAF DUP3 DUP3 PUSH2 0x1701 JUMP JUMPDEST POP POP POP JUMP JUMPDEST PUSH1 0x0 PUSH1 0x5 PUSH1 0x0 DUP5 PUSH20 0xFFFFFFFFFFFFFFFFFFFFFFFFFFFFFFFFFFFFFFFF AND PUSH20 0xFFFFFFFFFFFFFFFFFFFFFFFFFFFFFFFFFFFFFFFF AND DUP2 MSTORE PUSH1 0x20 ADD SWAP1 DUP2 MSTORE PUSH1 0x20 ADD PUSH1 0x0 KECCAK256 PUSH1 0x0 DUP4 PUSH20 0xFFFFFFFFFFFFFFFFFFFFFFFFFFFFFFFFFFFFFFFF AND PUSH20 0xFFFFFFFFFFFFFFFFFFFFFFFFFFFFFFFFFFFFFFFF AND DUP2 MSTORE PUSH1 0x20 ADD SWAP1 DUP2 MSTORE PUSH1 0x20 ADD PUSH1 0x0 KECCAK256 PUSH1 0x0 SWAP1 SLOAD SWAP1 PUSH2 0x100 EXP SWAP1 DIV PUSH1 0xFF AND SWAP1 POP SWAP3 SWAP2 POP POP JUMP JUMPDEST PUSH1 0x0 PUSH2 0xE5E DUP3 PUSH1 0x2 PUSH2 0x1775 SWAP1 SWAP2 SWAP1 PUSH4 0xFFFFFFFF AND JUMP JUMPDEST SWAP1 POP SWAP2 SWAP1 POP JUMP JUMPDEST PUSH1 0x0 CALLER SWAP1 POP SWAP1 JUMP JUMPDEST DUP2 PUSH1 0x4 PUSH1 0x0 DUP4 DUP2 MSTORE PUSH1 0x20 ADD SWAP1 DUP2 MSTORE PUSH1 0x20 ADD PUSH1 0x0 KECCAK256 PUSH1 0x0 PUSH2 0x100 EXP DUP2 SLOAD DUP2 PUSH20 0xFFFFFFFFFFFFFFFFFFFFFFFFFFFFFFFFFFFFFFFF MUL NOT AND SWAP1 DUP4 PUSH20 0xFFFFFFFFFFFFFFFFFFFFFFFFFFFFFFFFFFFFFFFF AND MUL OR SWAP1 SSTORE POP DUP1 DUP3 PUSH20 0xFFFFFFFFFFFFFFFFFFFFFFFFFFFFFFFFFFFFFFFF AND PUSH2 0xEE0 DUP4 PUSH2 0x7F3 JUMP JUMPDEST PUSH20 0xFFFFFFFFFFFFFFFFFFFFFFFFFFFFFFFFFFFFFFFF AND PUSH32 0x8C5BE1E5EBEC7D5BD14F71427D1E84F3DD0314C0F7B2291E5B200AC8C7C3B925 PUSH1 0x40 MLOAD PUSH1 0x40 MLOAD DUP1 SWAP2 SUB SWAP1 LOG4 POP POP JUMP JUMPDEST PUSH1 0x0 PUSH2 0xF34 DUP3 PUSH1 0x0 ADD PUSH2 0x178F JUMP JUMPDEST SWAP1 POP SWAP2 SWAP1 POP JUMP JUMPDEST PUSH1 0x0 PUSH2 0xF46 DUP3 PUSH2 0xE48 JUMP JUMPDEST PUSH2 0xF85 JUMPI PUSH1 0x40 MLOAD PUSH32 0x8C379A000000000000000000000000000000000000000000000000000000000 DUP2 MSTORE PUSH1 0x4 ADD PUSH2 0xF7C SWAP1 PUSH2 0x2D71 JUMP JUMPDEST PUSH1 0x40 MLOAD DUP1 SWAP2 SUB SWAP1 REVERT JUMPDEST PUSH1 0x0 PUSH2 0xF90 DUP4 PUSH2 0x7F3 JUMP JUMPDEST SWAP1 POP DUP1 PUSH20 0xFFFFFFFFFFFFFFFFFFFFFFFFFFFFFFFFFFFFFFFF AND DUP5 PUSH20 0xFFFFFFFFFFFFFFFFFFFFFFFFFFFFFFFFFFFFFFFF AND EQ DUP1 PUSH2 0xFFF JUMPI POP DUP4 PUSH20 0xFFFFFFFFFFFFFFFFFFFFFFFFFFFFFFFFFFFFFFFF AND PUSH2 0xFE7 DUP5 PUSH2 0x4EB JUMP JUMPDEST PUSH20 0xFFFFFFFFFFFFFFFFFFFFFFFFFFFFFFFFFFFFFFFF AND EQ JUMPDEST DUP1 PUSH2 0x1010 JUMPI POP PUSH2 0x100F DUP2 DUP6 PUSH2 0xDB4 JUMP JUMPDEST JUMPDEST SWAP2 POP POP SWAP3 SWAP2 POP POP JUMP JUMPDEST DUP3 PUSH20 0xFFFFFFFFFFFFFFFFFFFFFFFFFFFFFFFFFFFFFFFF AND PUSH2 0x1039 DUP3 PUSH2 0x7F3 JUMP JUMPDEST PUSH20 0xFFFFFFFFFFFFFFFFFFFFFFFFFFFFFFFFFFFFFFFF AND EQ PUSH2 0x108F JUMPI PUSH1 0x40 MLOAD PUSH32 0x8C379A000000000000000000000000000000000000000000000000000000000 DUP2 MSTORE PUSH1 0x4 ADD PUSH2 0x1086 SWAP1 PUSH2 0x2E51 JUMP JUMPDEST PUSH1 0x40 MLOAD DUP1 SWAP2 SUB SWAP1 REVERT JUMPDEST PUSH1 0x0 PUSH20 0xFFFFFFFFFFFFFFFFFFFFFFFFFFFFFFFFFFFFFFFF AND DUP3 PUSH20 0xFFFFFFFFFFFFFFFFFFFFFFFFFFFFFFFFFFFFFFFF AND EQ ISZERO PUSH2 0x10FF JUMPI PUSH1 0x40 MLOAD PUSH32 0x8C379A000000000000000000000000000000000000000000000000000000000 DUP2 MSTORE PUSH1 0x4 ADD PUSH2 0x10F6 SWAP1 PUSH2 0x2D31 JUMP JUMPDEST PUSH1 0x40 MLOAD DUP1 SWAP2 SUB SWAP1 REVERT JUMPDEST PUSH2 0x110A DUP4 DUP4 DUP4 PUSH2 0x17A0 JUMP JUMPDEST PUSH2 0x1115 PUSH1 0x0 DUP3 PUSH2 0xE6D JUMP JUMPDEST PUSH2 0x1166 DUP2 PUSH1 0x1 PUSH1 0x0 DUP7 PUSH20 0xFFFFFFFFFFFFFFFFFFFFFFFFFFFFFFFFFFFFFFFF AND PUSH20 0xFFFFFFFFFFFFFFFFFFFFFFFFFFFFFFFFFFFFFFFF AND DUP2 MSTORE PUSH1 0x20 ADD SWAP1 DUP2 MSTORE PUSH1 0x20 ADD PUSH1 0x0 KECCAK256 PUSH2 0x17A5 SWAP1 SWAP2 SWAP1 PUSH4 0xFFFFFFFF AND JUMP JUMPDEST POP PUSH2 0x11B8 DUP2 PUSH1 0x1 PUSH1 0x0 DUP6 PUSH20 0xFFFFFFFFFFFFFFFFFFFFFFFFFFFFFFFFFFFFFFFF AND PUSH20 0xFFFFFFFFFFFFFFFFFFFFFFFFFFFFFFFFFFFFFFFF AND DUP2 MSTORE PUSH1 0x20 ADD SWAP1 DUP2 MSTORE PUSH1 0x20 ADD PUSH1 0x0 KECCAK256 PUSH2 0x17BF SWAP1 SWAP2 SWAP1 PUSH4 0xFFFFFFFF AND JUMP JUMPDEST POP PUSH2 0x11CF DUP2 DUP4 PUSH1 0x2 PUSH2 0x17D9 SWAP1 SWAP3 SWAP2 SWAP1 PUSH4 0xFFFFFFFF AND JUMP JUMPDEST POP DUP1 DUP3 PUSH20 0xFFFFFFFFFFFFFFFFFFFFFFFFFFFFFFFFFFFFFFFF AND DUP5 PUSH20 0xFFFFFFFFFFFFFFFFFFFFFFFFFFFFFFFFFFFFFFFF AND PUSH32 0xDDF252AD1BE2C89B69C2B068FC378DAA952BA7F163C4A11628F55A4DF523B3EF PUSH1 0x40 MLOAD PUSH1 0x40 MLOAD DUP1 SWAP2 SUB SWAP1 LOG4 POP POP POP JUMP JUMPDEST PUSH1 0x0 PUSH2 0x123F DUP4 PUSH1 0x0 ADD DUP4 PUSH2 0x180E JUMP JUMPDEST PUSH1 0x0 SHR SWAP1 POP SWAP3 SWAP2 POP POP JUMP JUMPDEST PUSH1 0x0 PUSH2 0x1255 DUP3 PUSH2 0x7F3 JUMP JUMPDEST SWAP1 POP PUSH2 0x1263 DUP2 PUSH1 0x0 DUP5 PUSH2 0x17A0 JUMP JUMPDEST PUSH2 0x126E PUSH1 0x0 DUP4 PUSH2 0xE6D JUMP JUMPDEST PUSH1 0x0 PUSH1 0x8 PUSH1 0x0 DUP5 DUP2 MSTORE PUSH1 0x20 ADD SWAP1 DUP2 MSTORE PUSH1 0x20 ADD PUSH1 0x0 KECCAK256 DUP1 SLOAD PUSH1 0x1 DUP2 PUSH1 0x1 AND ISZERO PUSH2 0x100 MUL SUB AND PUSH1 0x2 SWAP1 DIV SWAP1 POP EQ PUSH2 0x12BD JUMPI PUSH1 0x8 PUSH1 0x0 DUP4 DUP2 MSTORE PUSH1 0x20 ADD SWAP1 DUP2 MSTORE PUSH1 0x20 ADD PUSH1 0x0 KECCAK256 PUSH1 0x0 PUSH2 0x12BC SWAP2 SWAP1 PUSH2 0x1F79 JUMP JUMPDEST JUMPDEST PUSH2 0x130E DUP3 PUSH1 0x1 PUSH1 0x0 DUP5 PUSH20 0xFFFFFFFFFFFFFFFFFFFFFFFFFFFFFFFFFFFFFFFF AND PUSH20 0xFFFFFFFFFFFFFFFFFFFFFFFFFFFFFFFFFFFFFFFF AND DUP2 MSTORE PUSH1 0x20 ADD SWAP1 DUP2 MSTORE PUSH1 0x20 ADD PUSH1 0x0 KECCAK256 PUSH2 0x17A5 SWAP1 SWAP2 SWAP1 PUSH4 0xFFFFFFFF AND JUMP JUMPDEST POP PUSH2 0x1323 DUP3 PUSH1 0x2 PUSH2 0x187B SWAP1 SWAP2 SWAP1 PUSH4 0xFFFFFFFF AND JUMP JUMPDEST POP DUP2 PUSH1 0x0 PUSH20 0xFFFFFFFFFFFFFFFFFFFFFFFFFFFFFFFFFFFFFFFF AND DUP3 PUSH20 0xFFFFFFFFFFFFFFFFFFFFFFFFFFFFFFFFFFFFFFFF AND PUSH32 0xDDF252AD1BE2C89B69C2B068FC378DAA952BA7F163C4A11628F55A4DF523B3EF PUSH1 0x40 MLOAD PUSH1 0x40 MLOAD DUP1 SWAP2 SUB SWAP1 LOG4 POP POP JUMP JUMPDEST PUSH1 0x0 DUP1 PUSH1 0x0 DUP1 PUSH2 0x1397 DUP7 PUSH1 0x0 ADD DUP7 PUSH2 0x1895 JUMP JUMPDEST SWAP2 POP SWAP2 POP DUP2 PUSH1 0x0 SHR DUP2 PUSH1 0x0 SHR DUP1 SWAP1 POP SWAP4 POP SWAP4 POP POP POP SWAP3 POP SWAP3 SWAP1 POP JUMP JUMPDEST PUSH1 0x0 PUSH2 0x13C6 DUP5 PUSH1 0x0 ADD DUP5 PUSH1 0x0 SHL DUP5 PUSH2 0x1918 JUMP JUMPDEST PUSH1 0x0 SHR SWAP1 POP SWAP4 SWAP3 POP POP POP JUMP JUMPDEST PUSH1 0x0 PUSH2 0x13E0 DUP3 PUSH1 0x0 ADD PUSH2 0x19A9 JUMP JUMPDEST SWAP1 POP SWAP2 SWAP1 POP JUMP JUMPDEST PUSH2 0x13F2 DUP5 DUP5 DUP5 PUSH2 0x1019 JUMP JUMPDEST PUSH2 0x13FE DUP5 DUP5 DUP5 DUP5 PUSH2 0x19BA JUMP JUMPDEST PUSH2 0x143D JUMPI PUSH1 0x40 MLOAD PUSH32 0x8C379A000000000000000000000000000000000000000000000000000000000 DUP2 MSTORE PUSH1 0x4 ADD PUSH2 0x1434 SWAP1 PUSH2 0x2CF1 JUMP JUMPDEST PUSH1 0x40 MLOAD DUP1 SWAP2 SUB SWAP1 REVERT JUMPDEST POP POP POP POP JUMP JUMPDEST PUSH1 0x60 PUSH1 0x0 DUP3 EQ ISZERO PUSH2 0x148B JUMPI PUSH1 0x40 MLOAD DUP1 PUSH1 0x40 ADD PUSH1 0x40 MSTORE DUP1 PUSH1 0x1 DUP2 MSTORE PUSH1 0x20 ADD PUSH32 0x3000000000000000000000000000000000000000000000000000000000000000 DUP2 MSTORE POP SWAP1 POP PUSH2 0x156E JUMP JUMPDEST PUSH1 0x0 DUP3 SWAP1 POP PUSH1 0x0 JUMPDEST PUSH1 0x0 DUP3 EQ PUSH2 0x14B5 JUMPI DUP1 DUP1 PUSH1 0x1 ADD SWAP2 POP POP PUSH1 0xA DUP3 DUP2 PUSH2 0x14AD JUMPI INVALID JUMPDEST DIV SWAP2 POP PUSH2 0x1493 JUMP JUMPDEST PUSH1 0x60 DUP2 PUSH1 0x40 MLOAD SWAP1 DUP1 DUP3 MSTORE DUP1 PUSH1 0x1F ADD PUSH1 0x1F NOT AND PUSH1 0x20 ADD DUP3 ADD PUSH1 0x40 MSTORE DUP1 ISZERO PUSH2 0x14EA JUMPI DUP2 PUSH1 0x20 ADD PUSH1 0x1 DUP3 MUL DUP1 CALLDATASIZE DUP4 CALLDATACOPY DUP1 DUP3 ADD SWAP2 POP POP SWAP1 POP JUMPDEST POP SWAP1 POP PUSH1 0x0 PUSH1 0x1 DUP4 SUB SWAP1 POP DUP6 SWAP4 POP JUMPDEST PUSH1 0x0 DUP5 EQ PUSH2 0x1566 JUMPI PUSH1 0xA DUP5 DUP2 PUSH2 0x150B JUMPI INVALID JUMPDEST MOD PUSH1 0x30 ADD PUSH1 0xF8 SHL DUP3 DUP3 DUP1 PUSH1 0x1 SWAP1 SUB SWAP4 POP DUP2 MLOAD DUP2 LT PUSH2 0x1525 JUMPI INVALID JUMPDEST PUSH1 0x20 ADD ADD SWAP1 PUSH31 0xFFFFFFFFFFFFFFFFFFFFFFFFFFFFFFFFFFFFFFFFFFFFFFFFFFFFFFFFFFFFFF NOT AND SWAP1 DUP2 PUSH1 0x0 BYTE SWAP1 MSTORE8 POP PUSH1 0xA DUP5 DUP2 PUSH2 0x155E JUMPI INVALID JUMPDEST DIV SWAP4 POP PUSH2 0x14F9 JUMP JUMPDEST DUP2 SWAP5 POP POP POP POP POP JUMPDEST SWAP2 SWAP1 POP JUMP JUMPDEST PUSH1 0x0 PUSH20 0xFFFFFFFFFFFFFFFFFFFFFFFFFFFFFFFFFFFFFFFF AND DUP3 PUSH20 0xFFFFFFFFFFFFFFFFFFFFFFFFFFFFFFFFFFFFFFFF AND EQ ISZERO PUSH2 0x15E3 JUMPI PUSH1 0x40 MLOAD PUSH32 0x8C379A000000000000000000000000000000000000000000000000000000000 DUP2 MSTORE PUSH1 0x4 ADD PUSH2 0x15DA SWAP1 PUSH2 0x2DF1 JUMP JUMPDEST PUSH1 0x40 MLOAD DUP1 SWAP2 SUB SWAP1 REVERT JUMPDEST PUSH2 0x15EC DUP2 PUSH2 0xE48 JUMP JUMPDEST ISZERO PUSH2 0x162C JUMPI PUSH1 0x40 MLOAD PUSH32 0x8C379A000000000000000000000000000000000000000000000000000000000 DUP2 MSTORE PUSH1 0x4 ADD PUSH2 0x1623 SWAP1 PUSH2 0x2D11 JUMP JUMPDEST PUSH1 0x40 MLOAD DUP1 SWAP2 SUB SWAP1 REVERT JUMPDEST PUSH2 0x1638 PUSH1 0x0 DUP4 DUP4 PUSH2 0x17A0 JUMP JUMPDEST PUSH2 0x1689 DUP2 PUSH1 0x1 PUSH1 0x0 DUP6 PUSH20 0xFFFFFFFFFFFFFFFFFFFFFFFFFFFFFFFFFFFFFFFF AND PUSH20 0xFFFFFFFFFFFFFFFFFFFFFFFFFFFFFFFFFFFFFFFF AND DUP2 MSTORE PUSH1 0x20 ADD SWAP1 DUP2 MSTORE PUSH1 0x20 ADD PUSH1 0x0 KECCAK256 PUSH2 0x17BF SWAP1 SWAP2 SWAP1 PUSH4 0xFFFFFFFF AND JUMP JUMPDEST POP PUSH2 0x16A0 DUP2 DUP4 PUSH1 0x2 PUSH2 0x17D9 SWAP1 SWAP3 SWAP2 SWAP1 PUSH4 0xFFFFFFFF AND JUMP JUMPDEST POP DUP1 DUP3 PUSH20 0xFFFFFFFFFFFFFFFFFFFFFFFFFFFFFFFFFFFFFFFF AND PUSH1 0x0 PUSH20 0xFFFFFFFFFFFFFFFFFFFFFFFFFFFFFFFFFFFFFFFF AND PUSH32 0xDDF252AD1BE2C89B69C2B068FC378DAA952BA7F163C4A11628F55A4DF523B3EF PUSH1 0x40 MLOAD PUSH1 0x40 MLOAD DUP1 SWAP2 SUB SWAP1 LOG4 POP POP JUMP JUMPDEST PUSH2 0x170A DUP3 PUSH2 0xE48 JUMP JUMPDEST PUSH2 0x1749 JUMPI PUSH1 0x40 MLOAD PUSH32 0x8C379A000000000000000000000000000000000000000000000000000000000 DUP2 MSTORE PUSH1 0x4 ADD PUSH2 0x1740 SWAP1 PUSH2 0x2E31 JUMP JUMPDEST PUSH1 0x40 MLOAD DUP1 SWAP2 SUB SWAP1 REVERT JUMPDEST DUP1 PUSH1 0x8 PUSH1 0x0 DUP5 DUP2 MSTORE PUSH1 0x20 ADD SWAP1 DUP2 MSTORE PUSH1 0x20 ADD PUSH1 0x0 KECCAK256 SWAP1 DUP1 MLOAD SWAP1 PUSH1 0x20 ADD SWAP1 PUSH2 0x1770 SWAP3 SWAP2 SWAP1 PUSH2 0x1FC1 JUMP JUMPDEST POP POP POP JUMP JUMPDEST PUSH1 0x0 PUSH2 0x1787 DUP4 PUSH1 0x0 ADD DUP4 PUSH1 0x0 SHL PUSH2 0x1B9B JUMP JUMPDEST SWAP1 POP SWAP3 SWAP2 POP POP JUMP JUMPDEST PUSH1 0x0 DUP2 PUSH1 0x0 ADD DUP1 SLOAD SWAP1 POP SWAP1 POP SWAP2 SWAP1 POP JUMP JUMPDEST POP POP POP JUMP JUMPDEST PUSH1 0x0 PUSH2 0x17B7 DUP4 PUSH1 0x0 ADD DUP4 PUSH1 0x0 SHL PUSH2 0x1BBE JUMP JUMPDEST SWAP1 POP SWAP3 SWAP2 POP POP JUMP JUMPDEST PUSH1 0x0 PUSH2 0x17D1 DUP4 PUSH1 0x0 ADD DUP4 PUSH1 0x0 SHL PUSH2 0x1CA6 JUMP JUMPDEST SWAP1 POP SWAP3 SWAP2 POP POP JUMP JUMPDEST PUSH1 0x0 PUSH2 0x1805 DUP5 PUSH1 0x0 ADD DUP5 PUSH1 0x0 SHL DUP5 PUSH20 0xFFFFFFFFFFFFFFFFFFFFFFFFFFFFFFFFFFFFFFFF AND PUSH1 0x0 SHL PUSH2 0x1D16 JUMP JUMPDEST SWAP1 POP SWAP4 SWAP3 POP POP POP JUMP JUMPDEST PUSH1 0x0 DUP2 DUP4 PUSH1 0x0 ADD DUP1 SLOAD SWAP1 POP GT PUSH2 0x1859 JUMPI PUSH1 0x40 MLOAD PUSH32 0x8C379A000000000000000000000000000000000000000000000000000000000 DUP2 MSTORE PUSH1 0x4 ADD PUSH2 0x1850 SWAP1 PUSH2 0x2CD1 JUMP JUMPDEST PUSH1 0x40 MLOAD DUP1 SWAP2 SUB SWAP1 REVERT JUMPDEST DUP3 PUSH1 0x0 ADD DUP3 DUP2 SLOAD DUP2 LT PUSH2 0x1868 JUMPI INVALID JUMPDEST SWAP1 PUSH1 0x0 MSTORE PUSH1 0x20 PUSH1 0x0 KECCAK256 ADD SLOAD SWAP1 POP SWAP3 SWAP2 POP POP JUMP JUMPDEST PUSH1 0x0 PUSH2 0x188D DUP4 PUSH1 0x0 ADD DUP4 PUSH1 0x0 SHL PUSH2 0x1DF2 JUMP JUMPDEST SWAP1 POP SWAP3 SWAP2 POP POP JUMP JUMPDEST PUSH1 0x0 DUP1 DUP3 DUP5 PUSH1 0x0 ADD DUP1 SLOAD SWAP1 POP GT PUSH2 0x18E1 JUMPI PUSH1 0x40 MLOAD PUSH32 0x8C379A000000000000000000000000000000000000000000000000000000000 DUP2 MSTORE PUSH1 0x4 ADD PUSH2 0x18D8 SWAP1 PUSH2 0x2DD1 JUMP JUMPDEST PUSH1 0x40 MLOAD DUP1 SWAP2 SUB SWAP1 REVERT JUMPDEST PUSH1 0x0 DUP5 PUSH1 0x0 ADD DUP5 DUP2 SLOAD DUP2 LT PUSH2 0x18F2 JUMPI INVALID JUMPDEST SWAP1 PUSH1 0x0 MSTORE PUSH1 0x20 PUSH1 0x0 KECCAK256 SWAP1 PUSH1 0x2 MUL ADD SWAP1 POP DUP1 PUSH1 0x0 ADD SLOAD DUP2 PUSH1 0x1 ADD SLOAD SWAP3 POP SWAP3 POP POP SWAP3 POP SWAP3 SWAP1 POP JUMP JUMPDEST PUSH1 0x0 DUP1 DUP5 PUSH1 0x1 ADD PUSH1 0x0 DUP6 DUP2 MSTORE PUSH1 0x20 ADD SWAP1 DUP2 MSTORE PUSH1 0x20 ADD PUSH1 0x0 KECCAK256 SLOAD SWAP1 POP PUSH1 0x0 DUP2 EQ ISZERO DUP4 SWAP1 PUSH2 0x197A JUMPI PUSH1 0x40 MLOAD PUSH32 0x8C379A000000000000000000000000000000000000000000000000000000000 DUP2 MSTORE PUSH1 0x4 ADD PUSH2 0x1971 SWAP2 SWAP1 PUSH2 0x2CAF JUMP JUMPDEST PUSH1 0x40 MLOAD DUP1 SWAP2 SUB SWAP1 REVERT JUMPDEST POP DUP5 PUSH1 0x0 ADD PUSH1 0x1 DUP3 SUB DUP2 SLOAD DUP2 LT PUSH2 0x198D JUMPI INVALID JUMPDEST SWAP1 PUSH1 0x0 MSTORE PUSH1 0x20 PUSH1 0x0 KECCAK256 SWAP1 PUSH1 0x2 MUL ADD PUSH1 0x1 ADD SLOAD SWAP2 POP POP SWAP4 SWAP3 POP POP POP JUMP JUMPDEST PUSH1 0x0 DUP2 PUSH1 0x0 ADD DUP1 SLOAD SWAP1 POP SWAP1 POP SWAP2 SWAP1 POP JUMP JUMPDEST PUSH1 0x0 PUSH2 0x19DB DUP5 PUSH20 0xFFFFFFFFFFFFFFFFFFFFFFFFFFFFFFFFFFFFFFFF AND PUSH2 0x1F0B JUMP JUMPDEST PUSH2 0x19E8 JUMPI PUSH1 0x1 SWAP1 POP PUSH2 0x1B93 JUMP JUMPDEST PUSH1 0x0 PUSH1 0x60 DUP6 PUSH20 0xFFFFFFFFFFFFFFFFFFFFFFFFFFFFFFFFFFFFFFFF AND PUSH4 0x150B7A02 PUSH1 0xE0 SHL PUSH2 0x1A13 PUSH2 0xE65 JUMP JUMPDEST DUP10 DUP9 DUP9 PUSH1 0x40 MLOAD PUSH1 0x24 ADD PUSH2 0x1A29 SWAP5 SWAP4 SWAP3 SWAP2 SWAP1 PUSH2 0x2C48 JUMP JUMPDEST PUSH1 0x40 MLOAD PUSH1 0x20 DUP2 DUP4 SUB SUB DUP2 MSTORE SWAP1 PUSH1 0x40 MSTORE SWAP1 PUSH28 0xFFFFFFFFFFFFFFFFFFFFFFFFFFFFFFFFFFFFFFFFFFFFFFFFFFFFFFFF NOT AND PUSH1 0x20 DUP3 ADD DUP1 MLOAD PUSH28 0xFFFFFFFFFFFFFFFFFFFFFFFFFFFFFFFFFFFFFFFFFFFFFFFFFFFFFFFF DUP4 DUP2 DUP4 AND OR DUP4 MSTORE POP POP POP POP PUSH1 0x40 MLOAD PUSH2 0x1A93 SWAP2 SWAP1 PUSH2 0x2BF2 JUMP JUMPDEST PUSH1 0x0 PUSH1 0x40 MLOAD DUP1 DUP4 SUB DUP2 PUSH1 0x0 DUP7 GAS CALL SWAP2 POP POP RETURNDATASIZE DUP1 PUSH1 0x0 DUP2 EQ PUSH2 0x1AD0 JUMPI PUSH1 0x40 MLOAD SWAP2 POP PUSH1 0x1F NOT PUSH1 0x3F RETURNDATASIZE ADD AND DUP3 ADD PUSH1 0x40 MSTORE RETURNDATASIZE DUP3 MSTORE RETURNDATASIZE PUSH1 0x0 PUSH1 0x20 DUP5 ADD RETURNDATACOPY PUSH2 0x1AD5 JUMP JUMPDEST PUSH1 0x60 SWAP2 POP JUMPDEST POP SWAP2 POP SWAP2 POP DUP2 PUSH2 0x1B2D JUMPI PUSH1 0x0 DUP2 MLOAD GT ISZERO PUSH2 0x1AF2 JUMPI DUP1 MLOAD DUP1 DUP3 PUSH1 0x20 ADD REVERT JUMPDEST PUSH1 0x40 MLOAD PUSH32 0x8C379A000000000000000000000000000000000000000000000000000000000 DUP2 MSTORE PUSH1 0x4 ADD PUSH2 0x1B24 SWAP1 PUSH2 0x2CF1 JUMP JUMPDEST PUSH1 0x40 MLOAD DUP1 SWAP2 SUB SWAP1 REVERT JUMPDEST PUSH1 0x0 DUP2 DUP1 PUSH1 0x20 ADD SWAP1 MLOAD DUP2 ADD SWAP1 PUSH2 0x1B43 SWAP2 SWAP1 PUSH2 0x23AE JUMP JUMPDEST SWAP1 POP PUSH4 0x150B7A02 PUSH1 0xE0 SHL PUSH28 0xFFFFFFFFFFFFFFFFFFFFFFFFFFFFFFFFFFFFFFFFFFFFFFFFFFFFFFFF NOT AND DUP2 PUSH28 0xFFFFFFFFFFFFFFFFFFFFFFFFFFFFFFFFFFFFFFFFFFFFFFFFFFFFFFFF NOT AND EQ SWAP4 POP POP POP POP JUMPDEST SWAP5 SWAP4 POP POP POP POP JUMP JUMPDEST PUSH1 0x0 DUP1 DUP4 PUSH1 0x1 ADD PUSH1 0x0 DUP5 DUP2 MSTORE PUSH1 0x20 ADD SWAP1 DUP2 MSTORE PUSH1 0x20 ADD PUSH1 0x0 KECCAK256 SLOAD EQ ISZERO SWAP1 POP SWAP3 SWAP2 POP POP JUMP JUMPDEST PUSH1 0x0 DUP1 DUP4 PUSH1 0x1 ADD PUSH1 0x0 DUP5 DUP2 MSTORE PUSH1 0x20 ADD SWAP1 DUP2 MSTORE PUSH1 0x20 ADD PUSH1 0x0 KECCAK256 SLOAD SWAP1 POP PUSH1 0x0 DUP2 EQ PUSH2 0x1C9A JUMPI PUSH1 0x0 PUSH1 0x1 DUP3 SUB SWAP1 POP PUSH1 0x0 PUSH1 0x1 DUP7 PUSH1 0x0 ADD DUP1 SLOAD SWAP1 POP SUB SWAP1 POP PUSH1 0x0 DUP7 PUSH1 0x0 ADD DUP3 DUP2 SLOAD DUP2 LT PUSH2 0x1C09 JUMPI INVALID JUMPDEST SWAP1 PUSH1 0x0 MSTORE PUSH1 0x20 PUSH1 0x0 KECCAK256 ADD SLOAD SWAP1 POP DUP1 DUP8 PUSH1 0x0 ADD DUP5 DUP2 SLOAD DUP2 LT PUSH2 0x1C26 JUMPI INVALID JUMPDEST SWAP1 PUSH1 0x0 MSTORE PUSH1 0x20 PUSH1 0x0 KECCAK256 ADD DUP2 SWAP1 SSTORE POP PUSH1 0x1 DUP4 ADD DUP8 PUSH1 0x1 ADD PUSH1 0x0 DUP4 DUP2 MSTORE PUSH1 0x20 ADD SWAP1 DUP2 MSTORE PUSH1 0x20 ADD PUSH1 0x0 KECCAK256 DUP2 SWAP1 SSTORE POP DUP7 PUSH1 0x0 ADD DUP1 SLOAD DUP1 PUSH2 0x1C5E JUMPI INVALID JUMPDEST PUSH1 0x1 SWAP1 SUB DUP2 DUP2 SWAP1 PUSH1 0x0 MSTORE PUSH1 0x20 PUSH1 0x0 KECCAK256 ADD PUSH1 0x0 SWAP1 SSTORE SWAP1 SSTORE DUP7 PUSH1 0x1 ADD PUSH1 0x0 DUP8 DUP2 MSTORE PUSH1 0x20 ADD SWAP1 DUP2 MSTORE PUSH1 0x20 ADD PUSH1 0x0 KECCAK256 PUSH1 0x0 SWAP1 SSTORE PUSH1 0x1 SWAP5 POP POP POP POP POP PUSH2 0x1CA0 JUMP JUMPDEST PUSH1 0x0 SWAP2 POP POP JUMPDEST SWAP3 SWAP2 POP POP JUMP JUMPDEST PUSH1 0x0 PUSH2 0x1CB2 DUP4 DUP4 PUSH2 0x1F56 JUMP JUMPDEST PUSH2 0x1D0B JUMPI DUP3 PUSH1 0x0 ADD DUP3 SWAP1 DUP1 PUSH1 0x1 DUP2 SLOAD ADD DUP1 DUP3 SSTORE DUP1 SWAP2 POP POP PUSH1 0x1 SWAP1 SUB SWAP1 PUSH1 0x0 MSTORE PUSH1 0x20 PUSH1 0x0 KECCAK256 ADD PUSH1 0x0 SWAP1 SWAP2 SWAP1 SWAP2 SWAP1 SWAP2 POP SSTORE DUP3 PUSH1 0x0 ADD DUP1 SLOAD SWAP1 POP DUP4 PUSH1 0x1 ADD PUSH1 0x0 DUP5 DUP2 MSTORE PUSH1 0x20 ADD SWAP1 DUP2 MSTORE PUSH1 0x20 ADD PUSH1 0x0 KECCAK256 DUP2 SWAP1 SSTORE POP PUSH1 0x1 SWAP1 POP PUSH2 0x1D10 JUMP JUMPDEST PUSH1 0x0 SWAP1 POP JUMPDEST SWAP3 SWAP2 POP POP JUMP JUMPDEST PUSH1 0x0 DUP1 DUP5 PUSH1 0x1 ADD PUSH1 0x0 DUP6 DUP2 MSTORE PUSH1 0x20 ADD SWAP1 DUP2 MSTORE PUSH1 0x20 ADD PUSH1 0x0 KECCAK256 SLOAD SWAP1 POP PUSH1 0x0 DUP2 EQ ISZERO PUSH2 0x1DBD JUMPI DUP5 PUSH1 0x0 ADD PUSH1 0x40 MLOAD DUP1 PUSH1 0x40 ADD PUSH1 0x40 MSTORE DUP1 DUP7 DUP2 MSTORE PUSH1 0x20 ADD DUP6 DUP2 MSTORE POP SWAP1 DUP1 PUSH1 0x1 DUP2 SLOAD ADD DUP1 DUP3 SSTORE DUP1 SWAP2 POP POP PUSH1 0x1 SWAP1 SUB SWAP1 PUSH1 0x0 MSTORE PUSH1 0x20 PUSH1 0x0 KECCAK256 SWAP1 PUSH1 0x2 MUL ADD PUSH1 0x0 SWAP1 SWAP2 SWAP1 SWAP2 SWAP1 SWAP2 POP PUSH1 0x0 DUP3 ADD MLOAD DUP2 PUSH1 0x0 ADD SSTORE PUSH1 0x20 DUP3 ADD MLOAD DUP2 PUSH1 0x1 ADD SSTORE POP POP DUP5 PUSH1 0x0 ADD DUP1 SLOAD SWAP1 POP DUP6 PUSH1 0x1 ADD PUSH1 0x0 DUP7 DUP2 MSTORE PUSH1 0x20 ADD SWAP1 DUP2 MSTORE PUSH1 0x20 ADD PUSH1 0x0 KECCAK256 DUP2 SWAP1 SSTORE POP PUSH1 0x1 SWAP2 POP POP PUSH2 0x1DEB JUMP JUMPDEST DUP3 DUP6 PUSH1 0x0 ADD PUSH1 0x1 DUP4 SUB DUP2 SLOAD DUP2 LT PUSH2 0x1DD0 JUMPI INVALID JUMPDEST SWAP1 PUSH1 0x0 MSTORE PUSH1 0x20 PUSH1 0x0 KECCAK256 SWAP1 PUSH1 0x2 MUL ADD PUSH1 0x1 ADD DUP2 SWAP1 SSTORE POP PUSH1 0x0 SWAP2 POP POP JUMPDEST SWAP4 SWAP3 POP POP POP JUMP JUMPDEST PUSH1 0x0 DUP1 DUP4 PUSH1 0x1 ADD PUSH1 0x0 DUP5 DUP2 MSTORE PUSH1 0x20 ADD SWAP1 DUP2 MSTORE PUSH1 0x20 ADD PUSH1 0x0 KECCAK256 SLOAD SWAP1 POP PUSH1 0x0 DUP2 EQ PUSH2 0x1EFF JUMPI PUSH1 0x0 PUSH1 0x1 DUP3 SUB SWAP1 POP PUSH1 0x0 PUSH1 0x1 DUP7 PUSH1 0x0 ADD DUP1 SLOAD SWAP1 POP SUB SWAP1 POP PUSH1 0x0 DUP7 PUSH1 0x0 ADD DUP3 DUP2 SLOAD DUP2 LT PUSH2 0x1E3D JUMPI INVALID JUMPDEST SWAP1 PUSH1 0x0 MSTORE PUSH1 0x20 PUSH1 0x0 KECCAK256 SWAP1 PUSH1 0x2 MUL ADD SWAP1 POP DUP1 DUP8 PUSH1 0x0 ADD DUP5 DUP2 SLOAD DUP2 LT PUSH2 0x1E5D JUMPI INVALID JUMPDEST SWAP1 PUSH1 0x0 MSTORE PUSH1 0x20 PUSH1 0x0 KECCAK256 SWAP1 PUSH1 0x2 MUL ADD PUSH1 0x0 DUP3 ADD SLOAD DUP2 PUSH1 0x0 ADD SSTORE PUSH1 0x1 DUP3 ADD SLOAD DUP2 PUSH1 0x1 ADD SSTORE SWAP1 POP POP PUSH1 0x1 DUP4 ADD DUP8 PUSH1 0x1 ADD PUSH1 0x0 DUP4 PUSH1 0x0 ADD SLOAD DUP2 MSTORE PUSH1 0x20 ADD SWAP1 DUP2 MSTORE PUSH1 0x20 ADD PUSH1 0x0 KECCAK256 DUP2 SWAP1 SSTORE POP DUP7 PUSH1 0x0 ADD DUP1 SLOAD DUP1 PUSH2 0x1EB0 JUMPI INVALID JUMPDEST PUSH1 0x1 SWAP1 SUB DUP2 DUP2 SWAP1 PUSH1 0x0 MSTORE PUSH1 0x20 PUSH1 0x0 KECCAK256 SWAP1 PUSH1 0x2 MUL ADD PUSH1 0x0 DUP1 DUP3 ADD PUSH1 0x0 SWAP1 SSTORE PUSH1 0x1 DUP3 ADD PUSH1 0x0 SWAP1 SSTORE POP POP SWAP1 SSTORE DUP7 PUSH1 0x1 ADD PUSH1 0x0 DUP8 DUP2 MSTORE PUSH1 0x20 ADD SWAP1 DUP2 MSTORE PUSH1 0x20 ADD PUSH1 0x0 KECCAK256 PUSH1 0x0 SWAP1 SSTORE PUSH1 0x1 SWAP5 POP POP POP POP POP PUSH2 0x1F05 JUMP JUMPDEST PUSH1 0x0 SWAP2 POP POP JUMPDEST SWAP3 SWAP2 POP POP JUMP JUMPDEST PUSH1 0x0 DUP1 PUSH1 0x0 PUSH32 0xC5D2460186F7233C927E7DB2DCC703C0E500B653CA82273B7BFAD8045D85A470 PUSH1 0x0 SHL SWAP1 POP DUP4 EXTCODEHASH SWAP2 POP DUP1 DUP3 EQ ISZERO DUP1 ISZERO PUSH2 0x1F4D JUMPI POP PUSH1 0x0 DUP1 SHL DUP3 EQ ISZERO JUMPDEST SWAP3 POP POP POP SWAP2 SWAP1 POP JUMP JUMPDEST PUSH1 0x0 DUP1 DUP4 PUSH1 0x1 ADD PUSH1 0x0 DUP5 DUP2 MSTORE PUSH1 0x20 ADD SWAP1 DUP2 MSTORE PUSH1 0x20 ADD PUSH1 0x0 KECCAK256 SLOAD EQ ISZERO SWAP1 POP SWAP3 SWAP2 POP POP JUMP JUMPDEST POP DUP1 SLOAD PUSH1 0x1 DUP2 PUSH1 0x1 AND ISZERO PUSH2 0x100 MUL SUB AND PUSH1 0x2 SWAP1 DIV PUSH1 0x0 DUP3 SSTORE DUP1 PUSH1 0x1F LT PUSH2 0x1F9F JUMPI POP PUSH2 0x1FBE JUMP JUMPDEST PUSH1 0x1F ADD PUSH1 0x20 SWAP1 DIV SWAP1 PUSH1 0x0 MSTORE PUSH1 0x20 PUSH1 0x0 KECCAK256 SWAP1 DUP2 ADD SWAP1 PUSH2 0x1FBD SWAP2 SWAP1 PUSH2 0x2041 JUMP JUMPDEST JUMPDEST POP JUMP JUMPDEST DUP3 DUP1 SLOAD PUSH1 0x1 DUP2 PUSH1 0x1 AND ISZERO PUSH2 0x100 MUL SUB AND PUSH1 0x2 SWAP1 DIV SWAP1 PUSH1 0x0 MSTORE PUSH1 0x20 PUSH1 0x0 KECCAK256 SWAP1 PUSH1 0x1F ADD PUSH1 0x20 SWAP1 DIV DUP2 ADD SWAP3 DUP3 PUSH1 0x1F LT PUSH2 0x2002 JUMPI DUP1 MLOAD PUSH1 0xFF NOT AND DUP4 DUP1 ADD OR DUP6 SSTORE PUSH2 0x2030 JUMP JUMPDEST DUP3 DUP1 ADD PUSH1 0x1 ADD DUP6 SSTORE DUP3 ISZERO PUSH2 0x2030 JUMPI SWAP2 DUP3 ADD JUMPDEST DUP3 DUP2 GT ISZERO PUSH2 0x202F JUMPI DUP3 MLOAD DUP3 SSTORE SWAP2 PUSH1 0x20 ADD SWAP2 SWAP1 PUSH1 0x1 ADD SWAP1 PUSH2 0x2014 JUMP JUMPDEST JUMPDEST POP SWAP1 POP PUSH2 0x203D SWAP2 SWAP1 PUSH2 0x2041 JUMP JUMPDEST POP SWAP1 JUMP JUMPDEST PUSH2 0x2063 SWAP2 SWAP1 JUMPDEST DUP1 DUP3 GT ISZERO PUSH2 0x205F JUMPI PUSH1 0x0 DUP2 PUSH1 0x0 SWAP1 SSTORE POP PUSH1 0x1 ADD PUSH2 0x2047 JUMP JUMPDEST POP SWAP1 JUMP JUMPDEST SWAP1 JUMP JUMPDEST PUSH1 0x0 DUP2 CALLDATALOAD SWAP1 POP PUSH2 0x2075 DUP2 PUSH2 0x30CD JUMP JUMPDEST SWAP3 SWAP2 POP POP JUMP JUMPDEST PUSH1 0x0 DUP2 CALLDATALOAD SWAP1 POP PUSH2 0x208A DUP2 PUSH2 0x30E4 JUMP JUMPDEST SWAP3 SWAP2 POP POP JUMP JUMPDEST PUSH1 0x0 DUP2 CALLDATALOAD SWAP1 POP PUSH2 0x209F DUP2 PUSH2 0x30FB JUMP JUMPDEST SWAP3 SWAP2 POP POP JUMP JUMPDEST PUSH1 0x0 DUP2 MLOAD SWAP1 POP PUSH2 0x20B4 DUP2 PUSH2 0x30FB JUMP JUMPDEST SWAP3 SWAP2 POP POP JUMP JUMPDEST PUSH1 0x0 DUP3 PUSH1 0x1F DUP4 ADD SLT PUSH2 0x20CB JUMPI PUSH1 0x0 DUP1 REVERT JUMPDEST DUP2 CALLDATALOAD PUSH2 0x20DE PUSH2 0x20D9 DUP3 PUSH2 0x2F39 JUMP JUMPDEST PUSH2 0x2F0C JUMP JUMPDEST SWAP2 POP DUP1 DUP3 MSTORE PUSH1 0x20 DUP4 ADD PUSH1 0x20 DUP4 ADD DUP6 DUP4 DUP4 ADD GT ISZERO PUSH2 0x20FA JUMPI PUSH1 0x0 DUP1 REVERT JUMPDEST PUSH2 0x2105 DUP4 DUP3 DUP5 PUSH2 0x307A JUMP JUMPDEST POP POP POP SWAP3 SWAP2 POP POP JUMP JUMPDEST PUSH1 0x0 DUP3 PUSH1 0x1F DUP4 ADD SLT PUSH2 0x211F JUMPI PUSH1 0x0 DUP1 REVERT JUMPDEST DUP2 CALLDATALOAD PUSH2 0x2132 PUSH2 0x212D DUP3 PUSH2 0x2F65 JUMP JUMPDEST PUSH2 0x2F0C JUMP JUMPDEST SWAP2 POP DUP1 DUP3 MSTORE PUSH1 0x20 DUP4 ADD PUSH1 0x20 DUP4 ADD DUP6 DUP4 DUP4 ADD GT ISZERO PUSH2 0x214E JUMPI PUSH1 0x0 DUP1 REVERT JUMPDEST PUSH2 0x2159 DUP4 DUP3 DUP5 PUSH2 0x307A JUMP JUMPDEST POP POP POP SWAP3 SWAP2 POP POP JUMP JUMPDEST PUSH1 0x0 DUP2 CALLDATALOAD SWAP1 POP PUSH2 0x2171 DUP2 PUSH2 0x3112 JUMP JUMPDEST SWAP3 SWAP2 POP POP JUMP JUMPDEST PUSH1 0x0 PUSH1 0x20 DUP3 DUP5 SUB SLT ISZERO PUSH2 0x2189 JUMPI PUSH1 0x0 DUP1 REVERT JUMPDEST PUSH1 0x0 PUSH2 0x2197 DUP5 DUP3 DUP6 ADD PUSH2 0x2066 JUMP JUMPDEST SWAP2 POP POP SWAP3 SWAP2 POP POP JUMP JUMPDEST PUSH1 0x0 DUP1 PUSH1 0x40 DUP4 DUP6 SUB SLT ISZERO PUSH2 0x21B3 JUMPI PUSH1 0x0 DUP1 REVERT JUMPDEST PUSH1 0x0 PUSH2 0x21C1 DUP6 DUP3 DUP7 ADD PUSH2 0x2066 JUMP JUMPDEST SWAP3 POP POP PUSH1 0x20 PUSH2 0x21D2 DUP6 DUP3 DUP7 ADD PUSH2 0x2066 JUMP JUMPDEST SWAP2 POP POP SWAP3 POP SWAP3 SWAP1 POP JUMP JUMPDEST PUSH1 0x0 DUP1 PUSH1 0x0 PUSH1 0x60 DUP5 DUP7 SUB SLT ISZERO PUSH2 0x21F1 JUMPI PUSH1 0x0 DUP1 REVERT JUMPDEST PUSH1 0x0 PUSH2 0x21FF DUP7 DUP3 DUP8 ADD PUSH2 0x2066 JUMP JUMPDEST SWAP4 POP POP PUSH1 0x20 PUSH2 0x2210 DUP7 DUP3 DUP8 ADD PUSH2 0x2066 JUMP JUMPDEST SWAP3 POP POP PUSH1 0x40 PUSH2 0x2221 DUP7 DUP3 DUP8 ADD PUSH2 0x2162 JUMP JUMPDEST SWAP2 POP POP SWAP3 POP SWAP3 POP SWAP3 JUMP JUMPDEST PUSH1 0x0 DUP1 PUSH1 0x0 DUP1 PUSH1 0x80 DUP6 DUP8 SUB SLT ISZERO PUSH2 0x2241 JUMPI PUSH1 0x0 DUP1 REVERT JUMPDEST PUSH1 0x0 PUSH2 0x224F DUP8 DUP3 DUP9 ADD PUSH2 0x2066 JUMP JUMPDEST SWAP5 POP POP PUSH1 0x20 PUSH2 0x2260 DUP8 DUP3 DUP9 ADD PUSH2 0x2066 JUMP JUMPDEST SWAP4 POP POP PUSH1 0x40 PUSH2 0x2271 DUP8 DUP3 DUP9 ADD PUSH2 0x2162 JUMP JUMPDEST SWAP3 POP POP PUSH1 0x60 DUP6 ADD CALLDATALOAD PUSH8 0xFFFFFFFFFFFFFFFF DUP2 GT ISZERO PUSH2 0x228E JUMPI PUSH1 0x0 DUP1 REVERT JUMPDEST PUSH2 0x229A DUP8 DUP3 DUP9 ADD PUSH2 0x20BA JUMP JUMPDEST SWAP2 POP POP SWAP3 SWAP6 SWAP2 SWAP5 POP SWAP3 POP JUMP JUMPDEST PUSH1 0x0 DUP1 PUSH1 0x40 DUP4 DUP6 SUB SLT ISZERO PUSH2 0x22B9 JUMPI PUSH1 0x0 DUP1 REVERT JUMPDEST PUSH1 0x0 PUSH2 0x22C7 DUP6 DUP3 DUP7 ADD PUSH2 0x2066 JUMP JUMPDEST SWAP3 POP POP PUSH1 0x20 PUSH2 0x22D8 DUP6 DUP3 DUP7 ADD PUSH2 0x207B JUMP JUMPDEST SWAP2 POP POP SWAP3 POP SWAP3 SWAP1 POP JUMP JUMPDEST PUSH1 0x0 DUP1 PUSH1 0x40 DUP4 DUP6 SUB SLT ISZERO PUSH2 0x22F5 JUMPI PUSH1 0x0 DUP1 REVERT JUMPDEST PUSH1 0x0 PUSH2 0x2303 DUP6 DUP3 DUP7 ADD PUSH2 0x2066 JUMP JUMPDEST SWAP3 POP POP PUSH1 0x20 PUSH2 0x2314 DUP6 DUP3 DUP7 ADD PUSH2 0x2162 JUMP JUMPDEST SWAP2 POP POP SWAP3 POP SWAP3 SWAP1 POP JUMP JUMPDEST PUSH1 0x0 DUP1 PUSH1 0x0 PUSH1 0x60 DUP5 DUP7 SUB SLT ISZERO PUSH2 0x2333 JUMPI PUSH1 0x0 DUP1 REVERT JUMPDEST PUSH1 0x0 PUSH2 0x2341 DUP7 DUP3 DUP8 ADD PUSH2 0x2066 JUMP JUMPDEST SWAP4 POP POP PUSH1 0x20 PUSH2 0x2352 DUP7 DUP3 DUP8 ADD PUSH2 0x2162 JUMP JUMPDEST SWAP3 POP POP PUSH1 0x40 DUP5 ADD CALLDATALOAD PUSH8 0xFFFFFFFFFFFFFFFF DUP2 GT ISZERO PUSH2 0x236F JUMPI PUSH1 0x0 DUP1 REVERT JUMPDEST PUSH2 0x237B DUP7 DUP3 DUP8 ADD PUSH2 0x210E JUMP JUMPDEST SWAP2 POP POP SWAP3 POP SWAP3 POP SWAP3 JUMP JUMPDEST PUSH1 0x0 PUSH1 0x20 DUP3 DUP5 SUB SLT ISZERO PUSH2 0x2397 JUMPI PUSH1 0x0 DUP1 REVERT JUMPDEST PUSH1 0x0 PUSH2 0x23A5 DUP5 DUP3 DUP6 ADD PUSH2 0x2090 JUMP JUMPDEST SWAP2 POP POP SWAP3 SWAP2 POP POP JUMP JUMPDEST PUSH1 0x0 PUSH1 0x20 DUP3 DUP5 SUB SLT ISZERO PUSH2 0x23C0 JUMPI PUSH1 0x0 DUP1 REVERT JUMPDEST PUSH1 0x0 PUSH2 0x23CE DUP5 DUP3 DUP6 ADD PUSH2 0x20A5 JUMP JUMPDEST SWAP2 POP POP SWAP3 SWAP2 POP POP JUMP JUMPDEST PUSH1 0x0 PUSH1 0x20 DUP3 DUP5 SUB SLT ISZERO PUSH2 0x23E9 JUMPI PUSH1 0x0 DUP1 REVERT JUMPDEST PUSH1 0x0 PUSH2 0x23F7 DUP5 DUP3 DUP6 ADD PUSH2 0x2162 JUMP JUMPDEST SWAP2 POP POP SWAP3 SWAP2 POP POP JUMP JUMPDEST PUSH2 0x2409 DUP2 PUSH2 0x3006 JUMP JUMPDEST DUP3 MSTORE POP POP JUMP JUMPDEST PUSH2 0x2418 DUP2 PUSH2 0x2FF4 JUMP JUMPDEST DUP3 MSTORE POP POP JUMP JUMPDEST PUSH2 0x2427 DUP2 PUSH2 0x3018 JUMP JUMPDEST DUP3 MSTORE POP POP JUMP JUMPDEST PUSH1 0x0 PUSH2 0x2438 DUP3 PUSH2 0x2FA6 JUMP JUMPDEST PUSH2 0x2442 DUP2 DUP6 PUSH2 0x2FBC JUMP JUMPDEST SWAP4 POP PUSH2 0x2452 DUP2 DUP6 PUSH1 0x20 DUP7 ADD PUSH2 0x3089 JUMP JUMPDEST PUSH2 0x245B DUP2 PUSH2 0x30BC JUMP JUMPDEST DUP5 ADD SWAP2 POP POP SWAP3 SWAP2 POP POP JUMP JUMPDEST PUSH1 0x0 PUSH2 0x2471 DUP3 PUSH2 0x2FA6 JUMP JUMPDEST PUSH2 0x247B DUP2 DUP6 PUSH2 0x2FCD JUMP JUMPDEST SWAP4 POP PUSH2 0x248B DUP2 DUP6 PUSH1 0x20 DUP7 ADD PUSH2 0x3089 JUMP JUMPDEST DUP1 DUP5 ADD SWAP2 POP POP SWAP3 SWAP2 POP POP JUMP JUMPDEST PUSH1 0x0 PUSH2 0x24A2 DUP3 PUSH2 0x2FB1 JUMP JUMPDEST PUSH2 0x24AC DUP2 DUP6 PUSH2 0x2FD8 JUMP JUMPDEST SWAP4 POP PUSH2 0x24BC DUP2 DUP6 PUSH1 0x20 DUP7 ADD PUSH2 0x3089 JUMP JUMPDEST PUSH2 0x24C5 DUP2 PUSH2 0x30BC JUMP JUMPDEST DUP5 ADD SWAP2 POP POP SWAP3 SWAP2 POP POP JUMP JUMPDEST PUSH1 0x0 PUSH2 0x24DB DUP3 PUSH2 0x2FB1 JUMP JUMPDEST PUSH2 0x24E5 DUP2 DUP6 PUSH2 0x2FE9 JUMP JUMPDEST SWAP4 POP PUSH2 0x24F5 DUP2 DUP6 PUSH1 0x20 DUP7 ADD PUSH2 0x3089 JUMP JUMPDEST DUP1 DUP5 ADD SWAP2 POP POP SWAP3 SWAP2 POP POP JUMP JUMPDEST PUSH1 0x0 DUP2 SLOAD PUSH1 0x1 DUP2 AND PUSH1 0x0 DUP2 EQ PUSH2 0x251E JUMPI PUSH1 0x1 DUP2 EQ PUSH2 0x2543 JUMPI PUSH2 0x2587 JUMP JUMPDEST PUSH1 0x7F PUSH1 0x2 DUP4 DIV AND PUSH2 0x252F DUP2 DUP8 PUSH2 0x2FE9 JUMP JUMPDEST SWAP6 POP PUSH1 0xFF NOT DUP4 AND DUP7 MSTORE DUP1 DUP7 ADD SWAP4 POP POP PUSH2 0x2587 JUMP JUMPDEST PUSH1 0x2 DUP3 DIV PUSH2 0x2551 DUP2 DUP8 PUSH2 0x2FE9 JUMP JUMPDEST SWAP6 POP PUSH2 0x255C DUP6 PUSH2 0x2F91 JUMP JUMPDEST PUSH1 0x0 JUMPDEST DUP3 DUP2 LT ISZERO PUSH2 0x257E JUMPI DUP2 SLOAD DUP2 DUP10 ADD MSTORE PUSH1 0x1 DUP3 ADD SWAP2 POP PUSH1 0x20 DUP2 ADD SWAP1 POP PUSH2 0x255F JUMP JUMPDEST DUP3 DUP9 ADD SWAP6 POP POP POP POP JUMPDEST POP POP SWAP3 SWAP2 POP POP JUMP JUMPDEST PUSH1 0x0 PUSH2 0x259C PUSH1 0x22 DUP4 PUSH2 0x2FD8 JUMP JUMPDEST SWAP2 POP PUSH32 0x456E756D657261626C655365743A20696E646578206F7574206F6620626F756E PUSH1 0x0 DUP4 ADD MSTORE PUSH32 0x6473000000000000000000000000000000000000000000000000000000000000 PUSH1 0x20 DUP4 ADD MSTORE PUSH1 0x40 DUP3 ADD SWAP1 POP SWAP2 SWAP1 POP JUMP JUMPDEST PUSH1 0x0 PUSH2 0x2602 PUSH1 0x32 DUP4 PUSH2 0x2FD8 JUMP JUMPDEST SWAP2 POP PUSH32 0x4552433732313A207472616E7366657220746F206E6F6E204552433732315265 PUSH1 0x0 DUP4 ADD MSTORE PUSH32 0x63656976657220696D706C656D656E7465720000000000000000000000000000 PUSH1 0x20 DUP4 ADD MSTORE PUSH1 0x40 DUP3 ADD SWAP1 POP SWAP2 SWAP1 POP JUMP JUMPDEST PUSH1 0x0 PUSH2 0x2668 PUSH1 0x1C DUP4 PUSH2 0x2FD8 JUMP JUMPDEST SWAP2 POP PUSH32 0x4552433732313A20746F6B656E20616C7265616479206D696E74656400000000 PUSH1 0x0 DUP4 ADD MSTORE PUSH1 0x20 DUP3 ADD SWAP1 POP SWAP2 SWAP1 POP JUMP JUMPDEST PUSH1 0x0 PUSH2 0x26A8 PUSH1 0x24 DUP4 PUSH2 0x2FD8 JUMP JUMPDEST SWAP2 POP PUSH32 0x4552433732313A207472616E7366657220746F20746865207A65726F20616464 PUSH1 0x0 DUP4 ADD MSTORE PUSH32 0x7265737300000000000000000000000000000000000000000000000000000000 PUSH1 0x20 DUP4 ADD MSTORE PUSH1 0x40 DUP3 ADD SWAP1 POP SWAP2 SWAP1 POP JUMP JUMPDEST PUSH1 0x0 PUSH2 0x270E PUSH1 0x19 DUP4 PUSH2 0x2FD8 JUMP JUMPDEST SWAP2 POP PUSH32 0x4552433732313A20617070726F766520746F2063616C6C657200000000000000 PUSH1 0x0 DUP4 ADD MSTORE PUSH1 0x20 DUP3 ADD SWAP1 POP SWAP2 SWAP1 POP JUMP JUMPDEST PUSH1 0x0 PUSH2 0x274E PUSH1 0x2C DUP4 PUSH2 0x2FD8 JUMP JUMPDEST SWAP2 POP PUSH32 0x4552433732313A206F70657261746F7220717565727920666F72206E6F6E6578 PUSH1 0x0 DUP4 ADD MSTORE PUSH32 0x697374656E7420746F6B656E0000000000000000000000000000000000000000 PUSH1 0x20 DUP4 ADD MSTORE PUSH1 0x40 DUP3 ADD SWAP1 POP SWAP2 SWAP1 POP JUMP JUMPDEST PUSH1 0x0 PUSH2 0x27B4 PUSH1 0x38 DUP4 PUSH2 0x2FD8 JUMP JUMPDEST SWAP2 POP PUSH32 0x4552433732313A20617070726F76652063616C6C6572206973206E6F74206F77 PUSH1 0x0 DUP4 ADD MSTORE PUSH32 0x6E6572206E6F7220617070726F76656420666F7220616C6C0000000000000000 PUSH1 0x20 DUP4 ADD MSTORE PUSH1 0x40 DUP3 ADD SWAP1 POP SWAP2 SWAP1 POP JUMP JUMPDEST PUSH1 0x0 PUSH2 0x281A PUSH1 0x2A DUP4 PUSH2 0x2FD8 JUMP JUMPDEST SWAP2 POP PUSH32 0x4552433732313A2062616C616E636520717565727920666F7220746865207A65 PUSH1 0x0 DUP4 ADD MSTORE PUSH32 0x726F206164647265737300000000000000000000000000000000000000000000 PUSH1 0x20 DUP4 ADD MSTORE PUSH1 0x40 DUP3 ADD SWAP1 POP SWAP2 SWAP1 POP JUMP JUMPDEST PUSH1 0x0 PUSH2 0x2880 PUSH1 0x22 DUP4 PUSH2 0x2FD8 JUMP JUMPDEST SWAP2 POP PUSH32 0x456E756D657261626C654D61703A20696E646578206F7574206F6620626F756E PUSH1 0x0 DUP4 ADD MSTORE PUSH32 0x6473000000000000000000000000000000000000000000000000000000000000 PUSH1 0x20 DUP4 ADD MSTORE PUSH1 0x40 DUP3 ADD SWAP1 POP SWAP2 SWAP1 POP JUMP JUMPDEST PUSH1 0x0 PUSH2 0x28E6 PUSH1 0x20 DUP4 PUSH2 0x2FD8 JUMP JUMPDEST SWAP2 POP PUSH32 0x4552433732313A206D696E7420746F20746865207A65726F2061646472657373 PUSH1 0x0 DUP4 ADD MSTORE PUSH1 0x20 DUP3 ADD SWAP1 POP SWAP2 SWAP1 POP JUMP JUMPDEST PUSH1 0x0 PUSH2 0x2926 PUSH1 0x2C DUP4 PUSH2 0x2FD8 JUMP JUMPDEST SWAP2 POP PUSH32 0x4552433732313A20617070726F76656420717565727920666F72206E6F6E6578 PUSH1 0x0 DUP4 ADD MSTORE PUSH32 0x697374656E7420746F6B656E0000000000000000000000000000000000000000 PUSH1 0x20 DUP4 ADD MSTORE PUSH1 0x40 DUP3 ADD SWAP1 POP SWAP2 SWAP1 POP JUMP JUMPDEST PUSH1 0x0 PUSH2 0x298C PUSH1 0x2C DUP4 PUSH2 0x2FD8 JUMP JUMPDEST SWAP2 POP PUSH32 0x4552433732314D657461646174613A2055524920736574206F66206E6F6E6578 PUSH1 0x0 DUP4 ADD MSTORE PUSH32 0x697374656E7420746F6B656E0000000000000000000000000000000000000000 PUSH1 0x20 DUP4 ADD MSTORE PUSH1 0x40 DUP3 ADD SWAP1 POP SWAP2 SWAP1 POP JUMP JUMPDEST PUSH1 0x0 PUSH2 0x29F2 PUSH1 0x29 DUP4 PUSH2 0x2FD8 JUMP JUMPDEST SWAP2 POP PUSH32 0x4552433732313A207472616E73666572206F6620746F6B656E20746861742069 PUSH1 0x0 DUP4 ADD MSTORE PUSH32 0x73206E6F74206F776E0000000000000000000000000000000000000000000000 PUSH1 0x20 DUP4 ADD MSTORE PUSH1 0x40 DUP3 ADD SWAP1 POP SWAP2 SWAP1 POP JUMP JUMPDEST PUSH1 0x0 PUSH2 0x2A58 PUSH1 0x2F DUP4 PUSH2 0x2FD8 JUMP JUMPDEST SWAP2 POP PUSH32 0x4552433732314D657461646174613A2055524920717565727920666F72206E6F PUSH1 0x0 DUP4 ADD MSTORE PUSH32 0x6E6578697374656E7420746F6B656E0000000000000000000000000000000000 PUSH1 0x20 DUP4 ADD MSTORE PUSH1 0x40 DUP3 ADD SWAP1 POP SWAP2 SWAP1 POP JUMP JUMPDEST PUSH1 0x0 PUSH2 0x2ABE PUSH1 0x21 DUP4 PUSH2 0x2FD8 JUMP JUMPDEST SWAP2 POP PUSH32 0x4552433732313A20617070726F76616C20746F2063757272656E74206F776E65 PUSH1 0x0 DUP4 ADD MSTORE PUSH32 0x7200000000000000000000000000000000000000000000000000000000000000 PUSH1 0x20 DUP4 ADD MSTORE PUSH1 0x40 DUP3 ADD SWAP1 POP SWAP2 SWAP1 POP JUMP JUMPDEST PUSH1 0x0 PUSH2 0x2B24 PUSH1 0x31 DUP4 PUSH2 0x2FD8 JUMP JUMPDEST SWAP2 POP PUSH32 0x4552433732313A207472616E736665722063616C6C6572206973206E6F74206F PUSH1 0x0 DUP4 ADD MSTORE PUSH32 0x776E6572206E6F7220617070726F766564000000000000000000000000000000 PUSH1 0x20 DUP4 ADD MSTORE PUSH1 0x40 DUP3 ADD SWAP1 POP SWAP2 SWAP1 POP JUMP JUMPDEST PUSH1 0x0 PUSH2 0x2B8A PUSH1 0x30 DUP4 PUSH2 0x2FD8 JUMP JUMPDEST SWAP2 POP PUSH32 0x4552433732314275726E61626C653A2063616C6C6572206973206E6F74206F77 PUSH1 0x0 DUP4 ADD MSTORE PUSH32 0x6E6572206E6F7220617070726F76656400000000000000000000000000000000 PUSH1 0x20 DUP4 ADD MSTORE PUSH1 0x40 DUP3 ADD SWAP1 POP SWAP2 SWAP1 POP JUMP JUMPDEST PUSH2 0x2BEC DUP2 PUSH2 0x3070 JUMP JUMPDEST DUP3 MSTORE POP POP JUMP JUMPDEST PUSH1 0x0 PUSH2 0x2BFE DUP3 DUP5 PUSH2 0x2466 JUMP JUMPDEST SWAP2 POP DUP2 SWAP1 POP SWAP3 SWAP2 POP POP JUMP JUMPDEST PUSH1 0x0 PUSH2 0x2C15 DUP3 DUP6 PUSH2 0x2501 JUMP JUMPDEST SWAP2 POP PUSH2 0x2C21 DUP3 DUP5 PUSH2 0x24D0 JUMP JUMPDEST SWAP2 POP DUP2 SWAP1 POP SWAP4 SWAP3 POP POP POP JUMP JUMPDEST PUSH1 0x0 PUSH1 0x20 DUP3 ADD SWAP1 POP PUSH2 0x2C42 PUSH1 0x0 DUP4 ADD DUP5 PUSH2 0x240F JUMP JUMPDEST SWAP3 SWAP2 POP POP JUMP JUMPDEST PUSH1 0x0 PUSH1 0x80 DUP3 ADD SWAP1 POP PUSH2 0x2C5D PUSH1 0x0 DUP4 ADD DUP8 PUSH2 0x2400 JUMP JUMPDEST PUSH2 0x2C6A PUSH1 0x20 DUP4 ADD DUP7 PUSH2 0x240F JUMP JUMPDEST PUSH2 0x2C77 PUSH1 0x40 DUP4 ADD DUP6 PUSH2 0x2BE3 JUMP JUMPDEST DUP2 DUP2 SUB PUSH1 0x60 DUP4 ADD MSTORE PUSH2 0x2C89 DUP2 DUP5 PUSH2 0x242D JUMP JUMPDEST SWAP1 POP SWAP6 SWAP5 POP POP POP POP POP JUMP JUMPDEST PUSH1 0x0 PUSH1 0x20 DUP3 ADD SWAP1 POP PUSH2 0x2CA9 PUSH1 0x0 DUP4 ADD DUP5 PUSH2 0x241E JUMP JUMPDEST SWAP3 SWAP2 POP POP JUMP JUMPDEST PUSH1 0x0 PUSH1 0x20 DUP3 ADD SWAP1 POP DUP2 DUP2 SUB PUSH1 0x0 DUP4 ADD MSTORE PUSH2 0x2CC9 DUP2 DUP5 PUSH2 0x2497 JUMP JUMPDEST SWAP1 POP SWAP3 SWAP2 POP POP JUMP JUMPDEST PUSH1 0x0 PUSH1 0x20 DUP3 ADD SWAP1 POP DUP2 DUP2 SUB PUSH1 0x0 DUP4 ADD MSTORE PUSH2 0x2CEA DUP2 PUSH2 0x258F JUMP JUMPDEST SWAP1 POP SWAP2 SWAP1 POP JUMP JUMPDEST PUSH1 0x0 PUSH1 0x20 DUP3 ADD SWAP1 POP DUP2 DUP2 SUB PUSH1 0x0 DUP4 ADD MSTORE PUSH2 0x2D0A DUP2 PUSH2 0x25F5 JUMP JUMPDEST SWAP1 POP SWAP2 SWAP1 POP JUMP JUMPDEST PUSH1 0x0 PUSH1 0x20 DUP3 ADD SWAP1 POP DUP2 DUP2 SUB PUSH1 0x0 DUP4 ADD MSTORE PUSH2 0x2D2A DUP2 PUSH2 0x265B JUMP JUMPDEST SWAP1 POP SWAP2 SWAP1 POP JUMP JUMPDEST PUSH1 0x0 PUSH1 0x20 DUP3 ADD SWAP1 POP DUP2 DUP2 SUB PUSH1 0x0 DUP4 ADD MSTORE PUSH2 0x2D4A DUP2 PUSH2 0x269B JUMP JUMPDEST SWAP1 POP SWAP2 SWAP1 POP JUMP JUMPDEST PUSH1 0x0 PUSH1 0x20 DUP3 ADD SWAP1 POP DUP2 DUP2 SUB PUSH1 0x0 DUP4 ADD MSTORE PUSH2 0x2D6A DUP2 PUSH2 0x2701 JUMP JUMPDEST SWAP1 POP SWAP2 SWAP1 POP JUMP JUMPDEST PUSH1 0x0 PUSH1 0x20 DUP3 ADD SWAP1 POP DUP2 DUP2 SUB PUSH1 0x0 DUP4 ADD MSTORE PUSH2 0x2D8A DUP2 PUSH2 0x2741 JUMP JUMPDEST SWAP1 POP SWAP2 SWAP1 POP JUMP JUMPDEST PUSH1 0x0 PUSH1 0x20 DUP3 ADD SWAP1 POP DUP2 DUP2 SUB PUSH1 0x0 DUP4 ADD MSTORE PUSH2 0x2DAA DUP2 PUSH2 0x27A7 JUMP JUMPDEST SWAP1 POP SWAP2 SWAP1 POP JUMP JUMPDEST PUSH1 0x0 PUSH1 0x20 DUP3 ADD SWAP1 POP DUP2 DUP2 SUB PUSH1 0x0 DUP4 ADD MSTORE PUSH2 0x2DCA DUP2 PUSH2 0x280D JUMP JUMPDEST SWAP1 POP SWAP2 SWAP1 POP JUMP JUMPDEST PUSH1 0x0 PUSH1 0x20 DUP3 ADD SWAP1 POP DUP2 DUP2 SUB PUSH1 0x0 DUP4 ADD MSTORE PUSH2 0x2DEA DUP2 PUSH2 0x2873 JUMP JUMPDEST SWAP1 POP SWAP2 SWAP1 POP JUMP JUMPDEST PUSH1 0x0 PUSH1 0x20 DUP3 ADD SWAP1 POP DUP2 DUP2 SUB PUSH1 0x0 DUP4 ADD MSTORE PUSH2 0x2E0A DUP2 PUSH2 0x28D9 JUMP JUMPDEST SWAP1 POP SWAP2 SWAP1 POP JUMP JUMPDEST PUSH1 0x0 PUSH1 0x20 DUP3 ADD SWAP1 POP DUP2 DUP2 SUB PUSH1 0x0 DUP4 ADD MSTORE PUSH2 0x2E2A DUP2 PUSH2 0x2919 JUMP JUMPDEST SWAP1 POP SWAP2 SWAP1 POP JUMP JUMPDEST PUSH1 0x0 PUSH1 0x20 DUP3 ADD SWAP1 POP DUP2 DUP2 SUB PUSH1 0x0 DUP4 ADD MSTORE PUSH2 0x2E4A DUP2 PUSH2 0x297F JUMP JUMPDEST SWAP1 POP SWAP2 SWAP1 POP JUMP JUMPDEST PUSH1 0x0 PUSH1 0x20 DUP3 ADD SWAP1 POP DUP2 DUP2 SUB PUSH1 0x0 DUP4 ADD MSTORE PUSH2 0x2E6A DUP2 PUSH2 0x29E5 JUMP JUMPDEST SWAP1 POP SWAP2 SWAP1 POP JUMP JUMPDEST PUSH1 0x0 PUSH1 0x20 DUP3 ADD SWAP1 POP DUP2 DUP2 SUB PUSH1 0x0 DUP4 ADD MSTORE PUSH2 0x2E8A DUP2 PUSH2 0x2A4B JUMP JUMPDEST SWAP1 POP SWAP2 SWAP1 POP JUMP JUMPDEST PUSH1 0x0 PUSH1 0x20 DUP3 ADD SWAP1 POP DUP2 DUP2 SUB PUSH1 0x0 DUP4 ADD MSTORE PUSH2 0x2EAA DUP2 PUSH2 0x2AB1 JUMP JUMPDEST SWAP1 POP SWAP2 SWAP1 POP JUMP JUMPDEST PUSH1 0x0 PUSH1 0x20 DUP3 ADD SWAP1 POP DUP2 DUP2 SUB PUSH1 0x0 DUP4 ADD MSTORE PUSH2 0x2ECA DUP2 PUSH2 0x2B17 JUMP JUMPDEST SWAP1 POP SWAP2 SWAP1 POP JUMP JUMPDEST PUSH1 0x0 PUSH1 0x20 DUP3 ADD SWAP1 POP DUP2 DUP2 SUB PUSH1 0x0 DUP4 ADD MSTORE PUSH2 0x2EEA DUP2 PUSH2 0x2B7D JUMP JUMPDEST SWAP1 POP SWAP2 SWAP1 POP JUMP JUMPDEST PUSH1 0x0 PUSH1 0x20 DUP3 ADD SWAP1 POP PUSH2 0x2F06 PUSH1 0x0 DUP4 ADD DUP5 PUSH2 0x2BE3 JUMP JUMPDEST SWAP3 SWAP2 POP POP JUMP JUMPDEST PUSH1 0x0 PUSH1 0x40 MLOAD SWAP1 POP DUP2 DUP2 ADD DUP2 DUP2 LT PUSH8 0xFFFFFFFFFFFFFFFF DUP3 GT OR ISZERO PUSH2 0x2F2F JUMPI PUSH1 0x0 DUP1 REVERT JUMPDEST DUP1 PUSH1 0x40 MSTORE POP SWAP2 SWAP1 POP JUMP JUMPDEST PUSH1 0x0 PUSH8 0xFFFFFFFFFFFFFFFF DUP3 GT ISZERO PUSH2 0x2F50 JUMPI PUSH1 0x0 DUP1 REVERT JUMPDEST PUSH1 0x1F NOT PUSH1 0x1F DUP4 ADD AND SWAP1 POP PUSH1 0x20 DUP2 ADD SWAP1 POP SWAP2 SWAP1 POP JUMP JUMPDEST PUSH1 0x0 PUSH8 0xFFFFFFFFFFFFFFFF DUP3 GT ISZERO PUSH2 0x2F7C JUMPI PUSH1 0x0 DUP1 REVERT JUMPDEST PUSH1 0x1F NOT PUSH1 0x1F DUP4 ADD AND SWAP1 POP PUSH1 0x20 DUP2 ADD SWAP1 POP SWAP2 SWAP1 POP JUMP JUMPDEST PUSH1 0x0 DUP2 SWAP1 POP DUP2 PUSH1 0x0 MSTORE PUSH1 0x20 PUSH1 0x0 KECCAK256 SWAP1 POP SWAP2 SWAP1 POP JUMP JUMPDEST PUSH1 0x0 DUP2 MLOAD SWAP1 POP SWAP2 SWAP1 POP JUMP JUMPDEST PUSH1 0x0 DUP2 MLOAD SWAP1 POP SWAP2 SWAP1 POP JUMP JUMPDEST PUSH1 0x0 DUP3 DUP3 MSTORE PUSH1 0x20 DUP3 ADD SWAP1 POP SWAP3 SWAP2 POP POP JUMP JUMPDEST PUSH1 0x0 DUP2 SWAP1 POP SWAP3 SWAP2 POP POP JUMP JUMPDEST PUSH1 0x0 DUP3 DUP3 MSTORE PUSH1 0x20 DUP3 ADD SWAP1 POP SWAP3 SWAP2 POP POP JUMP JUMPDEST PUSH1 0x0 DUP2 SWAP1 POP SWAP3 SWAP2 POP POP JUMP JUMPDEST PUSH1 0x0 PUSH2 0x2FFF DUP3 PUSH2 0x3050 JUMP JUMPDEST SWAP1 POP SWAP2 SWAP1 POP JUMP JUMPDEST PUSH1 0x0 PUSH2 0x3011 DUP3 PUSH2 0x3050 JUMP JUMPDEST SWAP1 POP SWAP2 SWAP1 POP JUMP JUMPDEST PUSH1 0x0 DUP2 ISZERO ISZERO SWAP1 POP SWAP2 SWAP1 POP JUMP JUMPDEST PUSH1 0x0 PUSH32 0xFFFFFFFF00000000000000000000000000000000000000000000000000000000 DUP3 AND SWAP1 POP SWAP2 SWAP1 POP JUMP JUMPDEST PUSH1 0x0 PUSH20 0xFFFFFFFFFFFFFFFFFFFFFFFFFFFFFFFFFFFFFFFF DUP3 AND SWAP1 POP SWAP2 SWAP1 POP JUMP JUMPDEST PUSH1 0x0 DUP2 SWAP1 POP SWAP2 SWAP1 POP JUMP JUMPDEST DUP3 DUP2 DUP4 CALLDATACOPY PUSH1 0x0 DUP4 DUP4 ADD MSTORE POP POP POP JUMP JUMPDEST PUSH1 0x0 JUMPDEST DUP4 DUP2 LT ISZERO PUSH2 0x30A7 JUMPI DUP1 DUP3 ADD MLOAD DUP2 DUP5 ADD MSTORE PUSH1 0x20 DUP2 ADD SWAP1 POP PUSH2 0x308C JUMP JUMPDEST DUP4 DUP2 GT ISZERO PUSH2 0x30B6 JUMPI PUSH1 0x0 DUP5 DUP5 ADD MSTORE JUMPDEST POP POP POP POP JUMP JUMPDEST PUSH1 0x0 PUSH1 0x1F NOT PUSH1 0x1F DUP4 ADD AND SWAP1 POP SWAP2 SWAP1 POP JUMP JUMPDEST PUSH2 0x30D6 DUP2 PUSH2 0x2FF4 JUMP JUMPDEST DUP2 EQ PUSH2 0x30E1 JUMPI PUSH1 0x0 DUP1 REVERT JUMPDEST POP JUMP JUMPDEST PUSH2 0x30ED DUP2 PUSH2 0x3018 JUMP JUMPDEST DUP2 EQ PUSH2 0x30F8 JUMPI PUSH1 0x0 DUP1 REVERT JUMPDEST POP JUMP JUMPDEST PUSH2 0x3104 DUP2 PUSH2 0x3024 JUMP JUMPDEST DUP2 EQ PUSH2 0x310F JUMPI PUSH1 0x0 DUP1 REVERT JUMPDEST POP JUMP JUMPDEST PUSH2 0x311B DUP2 PUSH2 0x3070 JUMP JUMPDEST DUP2 EQ PUSH2 0x3126 JUMPI PUSH1 0x0 DUP1 REVERT JUMPDEST POP JUMP INVALID GASLIMIT MSTORE NUMBER CALLDATACOPY ORIGIN BALANCE GASPRICE KECCAK256 PUSH16 0x776E657220717565727920666F72206E PUSH16 0x6E6578697374656E7420746F6B656EA2 PUSH5 0x6970667358 0x22 SLT KECCAK256 0xAC CODESIZE SWAP4 EXTCODEHASH PUSH18 0x7BDB3AB8D24F7597C7DF9D3BA76104C77B7E JUMP SWAP16 CALLDATASIZE PUSH31 0x91A5782EE064736F6C63430006040033000000000000000000000000000000 "
				},
				"gasEstimates": {
					"creation": {
						"codeDepositCost": "2536000",
						"executionCost": "infinite",
						"totalCost": "infinite"
					},
					"external": {
						"approve(address,uint256)": "infinite",
						"balanceOf(address)": "1774",
						"baseURI()": "infinite",
						"burn(uint256)": "infinite",
						"getApproved(uint256)": "infinite",
						"isApprovedForAll(address,address)": "infinite",
						"mint(address,uint256,string)": "infinite",
						"name()": "infinite",
						"ownerOf(uint256)": "infinite",
						"safeTransferFrom(address,address,uint256)": "infinite",
						"safeTransferFrom(address,address,uint256,bytes)": "infinite",
						"setApprovalForAll(address,bool)": "infinite",
						"supportsInterface(bytes4)": "1570",
						"symbol()": "infinite",
						"tokenByIndex(uint256)": "infinite",
						"tokenOfOwnerByIndex(address,uint256)": "infinite",
						"tokenURI(uint256)": "infinite",
						"totalSupply()": "1266",
						"transferFrom(address,address,uint256)": "infinite"
					}
				},
				"methodIdentifiers": {
					"approve(address,uint256)": "095ea7b3",
					"balanceOf(address)": "70a08231",
					"baseURI()": "6c0360eb",
					"burn(uint256)": "42966c68",
					"getApproved(uint256)": "081812fc",
					"isApprovedForAll(address,address)": "e985e9c5",
					"mint(address,uint256,string)": "d3fc9864",
					"name()": "06fdde03",
					"ownerOf(uint256)": "6352211e",
					"safeTransferFrom(address,address,uint256)": "42842e0e",
					"safeTransferFrom(address,address,uint256,bytes)": "b88d4fde",
					"setApprovalForAll(address,bool)": "a22cb465",
					"supportsInterface(bytes4)": "01ffc9a7",
					"symbol()": "95d89b41",
					"tokenByIndex(uint256)": "4f6ccce7",
					"tokenOfOwnerByIndex(address,uint256)": "2f745c59",
					"tokenURI(uint256)": "c87b56dd",
					"totalSupply()": "18160ddd",
					"transferFrom(address,address,uint256)": "23b872dd"
				}
			},
			"storageLayout": {
				"storage": [
					{
						"astId": 82,
						"contract": "contracts/MonkeyNft.sol:WrappedRar",
						"label": "_supportedInterfaces",
						"offset": 0,
						"slot": "0",
						"type": "t_mapping(t_bytes4,t_bool)"
					},
					{
						"astId": 379,
						"contract": "contracts/MonkeyNft.sol:WrappedRar",
						"label": "_holderTokens",
						"offset": 0,
						"slot": "1",
						"type": "t_mapping(t_address,t_struct(UintSet)2322_storage)"
					},
					{
						"astId": 381,
						"contract": "contracts/MonkeyNft.sol:WrappedRar",
						"label": "_tokenOwners",
						"offset": 0,
						"slot": "2",
						"type": "t_struct(UintToAddressMap)1847_storage"
					},
					{
						"astId": 385,
						"contract": "contracts/MonkeyNft.sol:WrappedRar",
						"label": "_tokenApprovals",
						"offset": 0,
						"slot": "4",
						"type": "t_mapping(t_uint256,t_address)"
					},
					{
						"astId": 391,
						"contract": "contracts/MonkeyNft.sol:WrappedRar",
						"label": "_operatorApprovals",
						"offset": 0,
						"slot": "5",
						"type": "t_mapping(t_address,t_mapping(t_address,t_bool))"
					},
					{
						"astId": 393,
						"contract": "contracts/MonkeyNft.sol:WrappedRar",
						"label": "_name",
						"offset": 0,
						"slot": "6",
						"type": "t_string_storage"
					},
					{
						"astId": 395,
						"contract": "contracts/MonkeyNft.sol:WrappedRar",
						"label": "_symbol",
						"offset": 0,
						"slot": "7",
						"type": "t_string_storage"
					},
					{
						"astId": 399,
						"contract": "contracts/MonkeyNft.sol:WrappedRar",
						"label": "_tokenURIs",
						"offset": 0,
						"slot": "8",
						"type": "t_mapping(t_uint256,t_string_storage)"
					},
					{
						"astId": 401,
						"contract": "contracts/MonkeyNft.sol:WrappedRar",
						"label": "_baseURI",
						"offset": 0,
						"slot": "9",
						"type": "t_string_storage"
					}
				],
				"types": {
					"t_address": {
						"encoding": "inplace",
						"label": "address",
						"numberOfBytes": "20"
					},
					"t_array(t_bytes32)dyn_storage": {
						"base": "t_bytes32",
						"encoding": "dynamic_array",
						"label": "bytes32[]",
						"numberOfBytes": "32"
					},
					"t_array(t_struct(MapEntry)1575_storage)dyn_storage": {
						"base": "t_struct(MapEntry)1575_storage",
						"encoding": "dynamic_array",
						"label": "struct EnumerableMap.MapEntry[]",
						"numberOfBytes": "32"
					},
					"t_bool": {
						"encoding": "inplace",
						"label": "bool",
						"numberOfBytes": "1"
					},
					"t_bytes32": {
						"encoding": "inplace",
						"label": "bytes32",
						"numberOfBytes": "32"
					},
					"t_bytes4": {
						"encoding": "inplace",
						"label": "bytes4",
						"numberOfBytes": "4"
					},
					"t_mapping(t_address,t_bool)": {
						"encoding": "mapping",
						"key": "t_address",
						"label": "mapping(address => bool)",
						"numberOfBytes": "32",
						"value": "t_bool"
					},
					"t_mapping(t_address,t_mapping(t_address,t_bool))": {
						"encoding": "mapping",
						"key": "t_address",
						"label": "mapping(address => mapping(address => bool))",
						"numberOfBytes": "32",
						"value": "t_mapping(t_address,t_bool)"
					},
					"t_mapping(t_address,t_struct(UintSet)2322_storage)": {
						"encoding": "mapping",
						"key": "t_address",
						"label": "mapping(address => struct EnumerableSet.UintSet)",
						"numberOfBytes": "32",
						"value": "t_struct(UintSet)2322_storage"
					},
					"t_mapping(t_bytes32,t_uint256)": {
						"encoding": "mapping",
						"key": "t_bytes32",
						"label": "mapping(bytes32 => uint256)",
						"numberOfBytes": "32",
						"value": "t_uint256"
					},
					"t_mapping(t_bytes4,t_bool)": {
						"encoding": "mapping",
						"key": "t_bytes4",
						"label": "mapping(bytes4 => bool)",
						"numberOfBytes": "32",
						"value": "t_bool"
					},
					"t_mapping(t_uint256,t_address)": {
						"encoding": "mapping",
						"key": "t_uint256",
						"label": "mapping(uint256 => address)",
						"numberOfBytes": "32",
						"value": "t_address"
					},
					"t_mapping(t_uint256,t_string_storage)": {
						"encoding": "mapping",
						"key": "t_uint256",
						"label": "mapping(uint256 => string)",
						"numberOfBytes": "32",
						"value": "t_string_storage"
					},
					"t_string_storage": {
						"encoding": "bytes",
						"label": "string",
						"numberOfBytes": "32"
					},
					"t_struct(Map)1583_storage": {
						"encoding": "inplace",
						"label": "struct EnumerableMap.Map",
						"members": [
							{
								"astId": 1578,
								"contract": "contracts/MonkeyNft.sol:WrappedRar",
								"label": "_entries",
								"offset": 0,
								"slot": "0",
								"type": "t_array(t_struct(MapEntry)1575_storage)dyn_storage"
							},
							{
								"astId": 1582,
								"contract": "contracts/MonkeyNft.sol:WrappedRar",
								"label": "_indexes",
								"offset": 0,
								"slot": "1",
								"type": "t_mapping(t_bytes32,t_uint256)"
							}
						],
						"numberOfBytes": "64"
					},
					"t_struct(MapEntry)1575_storage": {
						"encoding": "inplace",
						"label": "struct EnumerableMap.MapEntry",
						"members": [
							{
								"astId": 1572,
								"contract": "contracts/MonkeyNft.sol:WrappedRar",
								"label": "_key",
								"offset": 0,
								"slot": "0",
								"type": "t_bytes32"
							},
							{
								"astId": 1574,
								"contract": "contracts/MonkeyNft.sol:WrappedRar",
								"label": "_value",
								"offset": 0,
								"slot": "1",
								"type": "t_bytes32"
							}
						],
						"numberOfBytes": "64"
					},
					"t_struct(Set)2033_storage": {
						"encoding": "inplace",
						"label": "struct EnumerableSet.Set",
						"members": [
							{
								"astId": 2028,
								"contract": "contracts/MonkeyNft.sol:WrappedRar",
								"label": "_values",
								"offset": 0,
								"slot": "0",
								"type": "t_array(t_bytes32)dyn_storage"
							},
							{
								"astId": 2032,
								"contract": "contracts/MonkeyNft.sol:WrappedRar",
								"label": "_indexes",
								"offset": 0,
								"slot": "1",
								"type": "t_mapping(t_bytes32,t_uint256)"
							}
						],
						"numberOfBytes": "64"
					},
					"t_struct(UintSet)2322_storage": {
						"encoding": "inplace",
						"label": "struct EnumerableSet.UintSet",
						"members": [
							{
								"astId": 2321,
								"contract": "contracts/MonkeyNft.sol:WrappedRar",
								"label": "_inner",
								"offset": 0,
								"slot": "0",
								"type": "t_struct(Set)2033_storage"
							}
						],
						"numberOfBytes": "64"
					},
					"t_struct(UintToAddressMap)1847_storage": {
						"encoding": "inplace",
						"label": "struct EnumerableMap.UintToAddressMap",
						"members": [
							{
								"astId": 1846,
								"contract": "contracts/MonkeyNft.sol:WrappedRar",
								"label": "_inner",
								"offset": 0,
								"slot": "0",
								"type": "t_struct(Map)1583_storage"
							}
						],
						"numberOfBytes": "64"
					},
					"t_uint256": {
						"encoding": "inplace",
						"label": "uint256",
						"numberOfBytes": "32"
					}
				}
			},
			"userdoc": {
				"methods": {}
			}
		}
	}
}