{
	"contracts/MonkeyNft.sol": {
		"MonkeyNft": {
			"abi": [
				{
					"inputs": [
						{
							"internalType": "string",
							"name": "name",
							"type": "string"
						},
						{
							"internalType": "string",
							"name": "symbol",
							"type": "string"
						}
					],
					"stateMutability": "nonpayable",
					"type": "constructor"
				},
				{
					"anonymous": false,
					"inputs": [
						{
							"indexed": true,
							"internalType": "address",
							"name": "owner",
							"type": "address"
						},
						{
							"indexed": true,
							"internalType": "address",
							"name": "approved",
							"type": "address"
						},
						{
							"indexed": true,
							"internalType": "uint256",
							"name": "tokenId",
							"type": "uint256"
						}
					],
					"name": "Approval",
					"type": "event"
				},
				{
					"anonymous": false,
					"inputs": [
						{
							"indexed": true,
							"internalType": "address",
							"name": "owner",
							"type": "address"
						},
						{
							"indexed": true,
							"internalType": "address",
							"name": "operator",
							"type": "address"
						},
						{
							"indexed": false,
							"internalType": "bool",
							"name": "approved",
							"type": "bool"
						}
					],
					"name": "ApprovalForAll",
					"type": "event"
				},
				{
					"anonymous": false,
					"inputs": [
						{
							"indexed": true,
							"internalType": "address",
							"name": "from",
							"type": "address"
						},
						{
							"indexed": true,
							"internalType": "address",
							"name": "to",
							"type": "address"
						},
						{
							"indexed": true,
							"internalType": "uint256",
							"name": "tokenId",
							"type": "uint256"
						}
					],
					"name": "Transfer",
					"type": "event"
				},
				{
					"inputs": [
						{
							"internalType": "address",
							"name": "to",
							"type": "address"
						},
						{
							"internalType": "uint256",
							"name": "tokenId",
							"type": "uint256"
						}
					],
					"name": "approve",
					"outputs": [],
					"stateMutability": "nonpayable",
					"type": "function"
				},
				{
					"inputs": [
						{
							"internalType": "address",
							"name": "owner",
							"type": "address"
						}
					],
					"name": "balanceOf",
					"outputs": [
						{
							"internalType": "uint256",
							"name": "",
							"type": "uint256"
						}
					],
					"stateMutability": "view",
					"type": "function"
				},
				{
					"inputs": [],
					"name": "baseURI",
					"outputs": [
						{
							"internalType": "string",
							"name": "",
							"type": "string"
						}
					],
					"stateMutability": "view",
					"type": "function"
				},
				{
					"inputs": [
						{
							"internalType": "uint256",
							"name": "tokenId",
							"type": "uint256"
						}
					],
					"name": "getApproved",
					"outputs": [
						{
							"internalType": "address",
							"name": "",
							"type": "address"
						}
					],
					"stateMutability": "view",
					"type": "function"
				},
				{
					"inputs": [
						{
							"internalType": "address",
							"name": "owner",
							"type": "address"
						},
						{
							"internalType": "address",
							"name": "operator",
							"type": "address"
						}
					],
					"name": "isApprovedForAll",
					"outputs": [
						{
							"internalType": "bool",
							"name": "",
							"type": "bool"
						}
					],
					"stateMutability": "view",
					"type": "function"
				},
				{
					"inputs": [
						{
							"internalType": "address",
							"name": "to",
							"type": "address"
						},
						{
							"internalType": "uint256",
							"name": "tokenId",
							"type": "uint256"
						}
					],
					"name": "mint",
					"outputs": [],
					"stateMutability": "nonpayable",
					"type": "function"
				},
				{
					"inputs": [],
					"name": "name",
					"outputs": [
						{
							"internalType": "string",
							"name": "",
							"type": "string"
						}
					],
					"stateMutability": "view",
					"type": "function"
				},
				{
					"inputs": [
						{
							"internalType": "uint256",
							"name": "tokenId",
							"type": "uint256"
						}
					],
					"name": "ownerOf",
					"outputs": [
						{
							"internalType": "address",
							"name": "",
							"type": "address"
						}
					],
					"stateMutability": "view",
					"type": "function"
				},
				{
					"inputs": [
						{
							"internalType": "address",
							"name": "from",
							"type": "address"
						},
						{
							"internalType": "address",
							"name": "to",
							"type": "address"
						},
						{
							"internalType": "uint256",
							"name": "tokenId",
							"type": "uint256"
						}
					],
					"name": "safeTransferFrom",
					"outputs": [],
					"stateMutability": "nonpayable",
					"type": "function"
				},
				{
					"inputs": [
						{
							"internalType": "address",
							"name": "from",
							"type": "address"
						},
						{
							"internalType": "address",
							"name": "to",
							"type": "address"
						},
						{
							"internalType": "uint256",
							"name": "tokenId",
							"type": "uint256"
						},
						{
							"internalType": "bytes",
							"name": "_data",
							"type": "bytes"
						}
					],
					"name": "safeTransferFrom",
					"outputs": [],
					"stateMutability": "nonpayable",
					"type": "function"
				},
				{
					"inputs": [
						{
							"internalType": "address",
							"name": "operator",
							"type": "address"
						},
						{
							"internalType": "bool",
							"name": "approved",
							"type": "bool"
						}
					],
					"name": "setApprovalForAll",
					"outputs": [],
					"stateMutability": "nonpayable",
					"type": "function"
				},
				{
					"inputs": [
						{
							"internalType": "bytes4",
							"name": "interfaceId",
							"type": "bytes4"
						}
					],
					"name": "supportsInterface",
					"outputs": [
						{
							"internalType": "bool",
							"name": "",
							"type": "bool"
						}
					],
					"stateMutability": "view",
					"type": "function"
				},
				{
					"inputs": [],
					"name": "symbol",
					"outputs": [
						{
							"internalType": "string",
							"name": "",
							"type": "string"
						}
					],
					"stateMutability": "view",
					"type": "function"
				},
				{
					"inputs": [
						{
							"internalType": "uint256",
							"name": "index",
							"type": "uint256"
						}
					],
					"name": "tokenByIndex",
					"outputs": [
						{
							"internalType": "uint256",
							"name": "",
							"type": "uint256"
						}
					],
					"stateMutability": "view",
					"type": "function"
				},
				{
					"inputs": [
						{
							"internalType": "address",
							"name": "owner",
							"type": "address"
						},
						{
							"internalType": "uint256",
							"name": "index",
							"type": "uint256"
						}
					],
					"name": "tokenOfOwnerByIndex",
					"outputs": [
						{
							"internalType": "uint256",
							"name": "",
							"type": "uint256"
						}
					],
					"stateMutability": "view",
					"type": "function"
				},
				{
					"inputs": [
						{
							"internalType": "uint256",
							"name": "tokenId",
							"type": "uint256"
						}
					],
					"name": "tokenURI",
					"outputs": [
						{
							"internalType": "string",
							"name": "",
							"type": "string"
						}
					],
					"stateMutability": "view",
					"type": "function"
				},
				{
					"inputs": [],
					"name": "totalSupply",
					"outputs": [
						{
							"internalType": "uint256",
							"name": "",
							"type": "uint256"
						}
					],
					"stateMutability": "view",
					"type": "function"
				},
				{
					"inputs": [
						{
							"internalType": "address",
							"name": "from",
							"type": "address"
						},
						{
							"internalType": "address",
							"name": "to",
							"type": "address"
						},
						{
							"internalType": "uint256",
							"name": "tokenId",
							"type": "uint256"
						}
					],
					"name": "transferFrom",
					"outputs": [],
					"stateMutability": "nonpayable",
					"type": "function"
				}
			],
			"devdoc": {
				"author": "ChainSafe Systems.",
				"methods": {
					"approve(address,uint256)": {
						"details": "Approves another address to transfer the given token ID The zero address indicates there is no approved address. There can only be one approved address per token at a given time. Can only be called by the token owner or an approved operator.",
						"params": {
							"to": "address to be approved for the given token ID",
							"tokenId": "uint256 ID of the token to be approved"
						}
					},
					"balanceOf(address)": {
						"details": "Gets the balance of the specified address.",
						"params": {
							"owner": "address to query the balance of"
						},
						"returns": {
							"_0": "uint256 representing the amount owned by the passed address"
						}
					},
					"baseURI()": {
						"details": "Returns the base URI set via {_setBaseURI}. This will be automatically added as a prefix in {tokenURI} to each token's URI, or to the token ID if no specific URI is set for that token ID."
					},
					"getApproved(uint256)": {
						"details": "Gets the approved address for a token ID, or zero if no address set Reverts if the token ID does not exist.",
						"params": {
							"tokenId": "uint256 ID of the token to query the approval of"
						},
						"returns": {
							"_0": "address currently approved for the given token ID"
						}
					},
					"isApprovedForAll(address,address)": {
						"details": "Tells whether an operator is approved by a given owner.",
						"params": {
							"operator": "operator address which you want to query the approval of",
							"owner": "owner address which you want to query the approval of"
						},
						"returns": {
							"_0": "bool whether the given operator is approved by the given owner"
						}
					},
					"name()": {
						"details": "Gets the token name.",
						"returns": {
							"_0": "string representing the token name"
						}
					},
					"ownerOf(uint256)": {
						"details": "Gets the owner of the specified token ID.",
						"params": {
							"tokenId": "uint256 ID of the token to query the owner of"
						},
						"returns": {
							"_0": "address currently marked as the owner of the given token ID"
						}
					},
					"safeTransferFrom(address,address,uint256)": {
						"details": "Safely transfers the ownership of a given token ID to another address If the target address is a contract, it must implement {IERC721Receiver-onERC721Received}, which is called upon a safe transfer, and return the magic value `bytes4(keccak256(\"onERC721Received(address,address,uint256,bytes)\"))`; otherwise, the transfer is reverted. Requires the msg.sender to be the owner, approved, or operator",
						"params": {
							"from": "current owner of the token",
							"to": "address to receive the ownership of the given token ID",
							"tokenId": "uint256 ID of the token to be transferred"
						}
					},
					"safeTransferFrom(address,address,uint256,bytes)": {
						"details": "Safely transfers the ownership of a given token ID to another address If the target address is a contract, it must implement {IERC721Receiver-onERC721Received}, which is called upon a safe transfer, and return the magic value `bytes4(keccak256(\"onERC721Received(address,address,uint256,bytes)\"))`; otherwise, the transfer is reverted. Requires the _msgSender() to be the owner, approved, or operator",
						"params": {
							"_data": "bytes data to send along with a safe transfer check",
							"from": "current owner of the token",
							"to": "address to receive the ownership of the given token ID",
							"tokenId": "uint256 ID of the token to be transferred"
						}
					},
					"setApprovalForAll(address,bool)": {
						"details": "Sets or unsets the approval of a given operator An operator is allowed to transfer all tokens of the sender on their behalf.",
						"params": {
							"approved": "representing the status of the approval to be set",
							"operator": "operator address to set the approval"
						}
					},
					"supportsInterface(bytes4)": {
						"details": "See {IERC165-supportsInterface}.     * Time complexity O(1), guaranteed to always use less than 30 000 gas."
					},
					"symbol()": {
						"details": "Gets the token symbol.",
						"returns": {
							"_0": "string representing the token symbol"
						}
					},
					"tokenByIndex(uint256)": {
						"details": "Gets the token ID at a given index of all the tokens in this contract Reverts if the index is greater or equal to the total number of tokens.",
						"params": {
							"index": "uint256 representing the index to be accessed of the tokens list"
						},
						"returns": {
							"_0": "uint256 token ID at the given index of the tokens list"
						}
					},
					"tokenOfOwnerByIndex(address,uint256)": {
						"details": "Gets the token ID at a given index of the tokens list of the requested owner.",
						"params": {
							"index": "uint256 representing the index to be accessed of the requested tokens list",
							"owner": "address owning the tokens list to be accessed"
						},
						"returns": {
							"_0": "uint256 token ID at the given index of the tokens list owned by the requested address"
						}
					},
					"tokenURI(uint256)": {
						"details": "Returns the URI for a given token ID. May return an empty string.     * If a base URI is set (via {_setBaseURI}), it is added as a prefix to the token's own URI (via {_setTokenURI}).     * If there is a base URI but no token URI, the token's ID will be used as its URI when appending it to the base URI. This pattern for autogenerated token URIs can lead to large gas savings.     * .Examples |=== |`_setBaseURI()` |`_setTokenURI()` |`tokenURI()` | \"\" | \"\" | \"\" | \"\" | \"token.uri/123\" | \"token.uri/123\" | \"token.uri/\" | \"123\" | \"token.uri/123\" | \"token.uri/\" | \"\" | \"token.uri/<tokenId>\" |===     * Requirements:     * - `tokenId` must exist."
					},
					"totalSupply()": {
						"details": "Gets the total amount of tokens stored by the contract.",
						"returns": {
							"_0": "uint256 representing the total amount of tokens"
						}
					},
					"transferFrom(address,address,uint256)": {
						"details": "Transfers the ownership of a given token ID to another address. Usage of this method is discouraged, use {safeTransferFrom} whenever possible. Requires the msg.sender to be the owner, approved, or operator.",
						"params": {
							"from": "current owner of the token",
							"to": "address to receive the ownership of the given token ID",
							"tokenId": "uint256 ID of the token to be transferred"
						}
					}
				},
				"title": "Facilitates deposits, creation and votiing of deposit proposals, and deposit executions."
			},
			"evm": {
				"assembly": "    /* \"contracts/MonkeyNft.sol\":234:452  contract MonkeyNft is ERC721 {... */\n  mstore(0x40, 0x80)\n    /* \"contracts/MonkeyNft.sol\":269:358  constructor(string memory name, string memory symbol) public ERC721(name, symbol) {... */\n  callvalue\n    /* \"--CODEGEN--\":5:14   */\n  dup1\n    /* \"--CODEGEN--\":2:4   */\n  iszero\n  tag_1\n  jumpi\n    /* \"--CODEGEN--\":27:28   */\n  0x00\n    /* \"--CODEGEN--\":24:25   */\n  dup1\n    /* \"--CODEGEN--\":17:29   */\n  revert\n    /* \"--CODEGEN--\":2:4   */\ntag_1:\n    /* \"contracts/MonkeyNft.sol\":269:358  constructor(string memory name, string memory symbol) public ERC721(name, symbol) {... */\n  pop\n  mload(0x40)\n  sub(codesize, bytecodeSize)\n  dup1\n  bytecodeSize\n  dup4\n  codecopy\n  dup2\n  dup2\n  add\n  0x40\n  mstore\n  dup2\n  add\n  swap1\n  tag_2\n  swap2\n  swap1\n  jump(tag_3)\ntag_2:\n    /* \"contracts/MonkeyNft.sol\":337:341  name */\n  dup2\n    /* \"contracts/MonkeyNft.sol\":343:349  symbol */\n  dup2\n    /* \"contracts/introspection/ERC165.sol\":718:758  _registerInterface(_INTERFACE_ID_ERC165) */\n  tag_10\n    /* \"contracts/introspection/ERC165.sol\":385:395  0x01ffc9a7 */\n  0x01ffc9a7\n    /* \"contracts/introspection/ERC165.sol\":737:757  _INTERFACE_ID_ERC165 */\n  0xe0\n  shl\n    /* \"contracts/introspection/ERC165.sol\":718:736  _registerInterface */\n  shl(0x20, tag_11)\n    /* \"contracts/introspection/ERC165.sol\":718:758  _registerInterface(_INTERFACE_ID_ERC165) */\n  0x20\n  shr\n  jump\t// in\ntag_10:\n    /* \"contracts/token/ERC721/ERC721.sol\":3499:3503  name */\n  dup2\n    /* \"contracts/token/ERC721/ERC721.sol\":3491:3496  _name */\n  0x06\n    /* \"contracts/token/ERC721/ERC721.sol\":3491:3503  _name = name */\n  swap1\n  dup1\n  mload\n  swap1\n  0x20\n  add\n  swap1\n  tag_13\n  swap3\n  swap2\n  swap1\n  tag_14\n  jump\t// in\ntag_13:\n  pop\n    /* \"contracts/token/ERC721/ERC721.sol\":3523:3529  symbol */\n  dup1\n    /* \"contracts/token/ERC721/ERC721.sol\":3513:3520  _symbol */\n  0x07\n    /* \"contracts/token/ERC721/ERC721.sol\":3513:3529  _symbol = symbol */\n  swap1\n  dup1\n  mload\n  swap1\n  0x20\n  add\n  swap1\n  tag_15\n  swap3\n  swap2\n  swap1\n  tag_14\n  jump\t// in\ntag_15:\n  pop\n    /* \"contracts/token/ERC721/ERC721.sol\":3617:3657  _registerInterface(_INTERFACE_ID_ERC721) */\n  tag_16\n    /* \"contracts/token/ERC721/ERC721.sol\":2697:2707  0x80ac58cd */\n  0x80ac58cd\n    /* \"contracts/token/ERC721/ERC721.sol\":3636:3656  _INTERFACE_ID_ERC721 */\n  0xe0\n  shl\n    /* \"contracts/token/ERC721/ERC721.sol\":3617:3635  _registerInterface */\n  shl(0x20, tag_11)\n    /* \"contracts/token/ERC721/ERC721.sol\":3617:3657  _registerInterface(_INTERFACE_ID_ERC721) */\n  0x20\n  shr\n  jump\t// in\ntag_16:\n    /* \"contracts/token/ERC721/ERC721.sol\":3667:3716  _registerInterface(_INTERFACE_ID_ERC721_METADATA) */\n  tag_17\n    /* \"contracts/token/ERC721/ERC721.sol\":3029:3039  0x5b5e139f */\n  0x5b5e139f\n    /* \"contracts/token/ERC721/ERC721.sol\":3686:3715  _INTERFACE_ID_ERC721_METADATA */\n  0xe0\n  shl\n    /* \"contracts/token/ERC721/ERC721.sol\":3667:3685  _registerInterface */\n  shl(0x20, tag_11)\n    /* \"contracts/token/ERC721/ERC721.sol\":3667:3716  _registerInterface(_INTERFACE_ID_ERC721_METADATA) */\n  0x20\n  shr\n  jump\t// in\ntag_17:\n    /* \"contracts/token/ERC721/ERC721.sol\":3726:3777  _registerInterface(_INTERFACE_ID_ERC721_ENUMERABLE) */\n  tag_18\n    /* \"contracts/token/ERC721/ERC721.sol\":3402:3412  0x780e9d63 */\n  0x780e9d63\n    /* \"contracts/token/ERC721/ERC721.sol\":3745:3776  _INTERFACE_ID_ERC721_ENUMERABLE */\n  0xe0\n  shl\n    /* \"contracts/token/ERC721/ERC721.sol\":3726:3744  _registerInterface */\n  shl(0x20, tag_11)\n    /* \"contracts/token/ERC721/ERC721.sol\":3726:3777  _registerInterface(_INTERFACE_ID_ERC721_ENUMERABLE) */\n  0x20\n  shr\n  jump\t// in\ntag_18:\n    /* \"contracts/token/ERC721/ERC721.sol\":3419:3784  constructor (string memory name, string memory symbol) public {... */\n  pop\n  pop\n    /* \"contracts/MonkeyNft.sol\":269:358  constructor(string memory name, string memory symbol) public ERC721(name, symbol) {... */\n  pop\n  pop\n    /* \"contracts/MonkeyNft.sol\":234:452  contract MonkeyNft is ERC721 {... */\n  jump(tag_20)\n    /* \"contracts/introspection/ERC165.sol\":1449:1647  function _registerInterface(bytes4 interfaceId) internal virtual {... */\ntag_11:\n    /* \"contracts/introspection/ERC165.sol\":1547:1557  0xffffffff */\n  0xffffffff\n    /* \"contracts/introspection/ERC165.sol\":1532:1557  interfaceId != 0xffffffff */\n  0xe0\n  shl\n    /* \"contracts/introspection/ERC165.sol\":1532:1543  interfaceId */\n  dup2\n    /* \"contracts/introspection/ERC165.sol\":1532:1557  interfaceId != 0xffffffff */\n  not(0xffffffffffffffffffffffffffffffffffffffffffffffffffffffff)\n  and\n  eq\n  iszero\n    /* \"contracts/introspection/ERC165.sol\":1524:1590  require(interfaceId != 0xffffffff, \"ERC165: invalid interface id\") */\n  tag_22\n  jumpi\n  mload(0x40)\n  0x08c379a000000000000000000000000000000000000000000000000000000000\n  dup2\n  mstore\n  0x04\n  add\n  tag_23\n  swap1\n  jump(tag_24)\ntag_23:\n  mload(0x40)\n  dup1\n  swap2\n  sub\n  swap1\n  revert\ntag_22:\n    /* \"contracts/introspection/ERC165.sol\":1636:1640  true */\n  0x01\n    /* \"contracts/introspection/ERC165.sol\":1600:1620  _supportedInterfaces */\n  0x00\n    /* \"contracts/introspection/ERC165.sol\":1600:1633  _supportedInterfaces[interfaceId] */\n  dup1\n    /* \"contracts/introspection/ERC165.sol\":1621:1632  interfaceId */\n  dup4\n    /* \"contracts/introspection/ERC165.sol\":1600:1633  _supportedInterfaces[interfaceId] */\n  not(0xffffffffffffffffffffffffffffffffffffffffffffffffffffffff)\n  and\n  not(0xffffffffffffffffffffffffffffffffffffffffffffffffffffffff)\n  and\n  dup2\n  mstore\n  0x20\n  add\n  swap1\n  dup2\n  mstore\n  0x20\n  add\n  0x00\n  keccak256\n  0x00\n    /* \"contracts/introspection/ERC165.sol\":1600:1640  _supportedInterfaces[interfaceId] = true */\n  0x0100\n  exp\n  dup2\n  sload\n  dup2\n  0xff\n  mul\n  not\n  and\n  swap1\n  dup4\n  iszero\n  iszero\n  mul\n  or\n  swap1\n  sstore\n  pop\n    /* \"contracts/introspection/ERC165.sol\":1449:1647  function _registerInterface(bytes4 interfaceId) internal virtual {... */\n  pop\n  jump\t// out\n    /* \"contracts/MonkeyNft.sol\":234:452  contract MonkeyNft is ERC721 {... */\ntag_14:\n  dup3\n  dup1\n  sload\n  0x01\n  dup2\n  0x01\n  and\n  iszero\n  0x0100\n  mul\n  sub\n  and\n  0x02\n  swap1\n  div\n  swap1\n  0x00\n  mstore\n  keccak256(0x00, 0x20)\n  swap1\n  0x1f\n  add\n  0x20\n  swap1\n  div\n  dup2\n  add\n  swap3\n  dup3\n  0x1f\n  lt\n  tag_26\n  jumpi\n  dup1\n  mload\n  not(0xff)\n  and\n  dup4\n  dup1\n  add\n  or\n  dup6\n  sstore\n  jump(tag_25)\ntag_26:\n  dup3\n  dup1\n  add\n  0x01\n  add\n  dup6\n  sstore\n  dup3\n  iszero\n  tag_25\n  jumpi\n  swap2\n  dup3\n  add\ntag_27:\n  dup3\n  dup2\n  gt\n  iszero\n  tag_28\n  jumpi\n  dup3\n  mload\n  dup3\n  sstore\n  swap2\n  0x20\n  add\n  swap2\n  swap1\n  0x01\n  add\n  swap1\n  jump(tag_27)\ntag_28:\ntag_25:\n  pop\n  swap1\n  pop\n  tag_29\n  swap2\n  swap1\n  tag_30\n  jump\t// in\ntag_29:\n  pop\n  swap1\n  jump\t// out\ntag_30:\n  tag_31\n  swap2\n  swap1\ntag_32:\n  dup1\n  dup3\n  gt\n  iszero\n  tag_33\n  jumpi\n  0x00\n  dup2\n  0x00\n  swap1\n  sstore\n  pop\n  0x01\n  add\n  jump(tag_32)\ntag_33:\n  pop\n  swap1\n  jump\ntag_31:\n  swap1\n  jump\t// out\n    /* \"--CODEGEN--\":6:450   */\ntag_35:\n  0x00\n    /* \"--CODEGEN--\":119:122   */\n  dup3\n    /* \"--CODEGEN--\":112:116   */\n  0x1f\n    /* \"--CODEGEN--\":104:110   */\n  dup4\n    /* \"--CODEGEN--\":100:117   */\n  add\n    /* \"--CODEGEN--\":96:123   */\n  slt\n    /* \"--CODEGEN--\":86:88   */\n  tag_37\n  jumpi\n    /* \"--CODEGEN--\":137:138   */\n  0x00\n    /* \"--CODEGEN--\":134:135   */\n  dup1\n    /* \"--CODEGEN--\":127:139   */\n  revert\n    /* \"--CODEGEN--\":86:88   */\ntag_37:\n    /* \"--CODEGEN--\":167:173   */\n  dup2\n    /* \"--CODEGEN--\":161:174   */\n  mload\n    /* \"--CODEGEN--\":189:254   */\n  tag_38\n    /* \"--CODEGEN--\":204:253   */\n  tag_39\n    /* \"--CODEGEN--\":246:252   */\n  dup3\n    /* \"--CODEGEN--\":204:253   */\n  jump(tag_40)\ntag_39:\n    /* \"--CODEGEN--\":189:254   */\n  jump(tag_41)\ntag_38:\n    /* \"--CODEGEN--\":180:254   */\n  swap2\n  pop\n    /* \"--CODEGEN--\":274:280   */\n  dup1\n    /* \"--CODEGEN--\":267:272   */\n  dup3\n    /* \"--CODEGEN--\":260:281   */\n  mstore\n    /* \"--CODEGEN--\":310:314   */\n  0x20\n    /* \"--CODEGEN--\":302:308   */\n  dup4\n    /* \"--CODEGEN--\":298:315   */\n  add\n    /* \"--CODEGEN--\":343:347   */\n  0x20\n    /* \"--CODEGEN--\":336:341   */\n  dup4\n    /* \"--CODEGEN--\":332:348   */\n  add\n    /* \"--CODEGEN--\":378:381   */\n  dup6\n    /* \"--CODEGEN--\":369:375   */\n  dup4\n    /* \"--CODEGEN--\":364:367   */\n  dup4\n    /* \"--CODEGEN--\":360:376   */\n  add\n    /* \"--CODEGEN--\":357:382   */\n  gt\n    /* \"--CODEGEN--\":354:356   */\n  iszero\n  tag_42\n  jumpi\n    /* \"--CODEGEN--\":395:396   */\n  0x00\n    /* \"--CODEGEN--\":392:393   */\n  dup1\n    /* \"--CODEGEN--\":385:397   */\n  revert\n    /* \"--CODEGEN--\":354:356   */\ntag_42:\n    /* \"--CODEGEN--\":405:444   */\n  tag_43\n    /* \"--CODEGEN--\":437:443   */\n  dup4\n    /* \"--CODEGEN--\":432:435   */\n  dup3\n    /* \"--CODEGEN--\":427:430   */\n  dup5\n    /* \"--CODEGEN--\":405:444   */\n  jump(tag_44)\ntag_43:\n    /* \"--CODEGEN--\":79:450   */\n  pop\n  pop\n  pop\n  swap3\n  swap2\n  pop\n  pop\n  jump\n    /* \"--CODEGEN--\":458:1055   */\ntag_3:\n  0x00\n  dup1\n    /* \"--CODEGEN--\":610:612   */\n  0x40\n    /* \"--CODEGEN--\":598:607   */\n  dup4\n    /* \"--CODEGEN--\":589:596   */\n  dup6\n    /* \"--CODEGEN--\":585:608   */\n  sub\n    /* \"--CODEGEN--\":581:613   */\n  slt\n    /* \"--CODEGEN--\":578:580   */\n  iszero\n  tag_46\n  jumpi\n    /* \"--CODEGEN--\":626:627   */\n  0x00\n    /* \"--CODEGEN--\":623:624   */\n  dup1\n    /* \"--CODEGEN--\":616:628   */\n  revert\n    /* \"--CODEGEN--\":578:580   */\ntag_46:\n    /* \"--CODEGEN--\":682:683   */\n  0x00\n    /* \"--CODEGEN--\":671:680   */\n  dup4\n    /* \"--CODEGEN--\":667:684   */\n  add\n    /* \"--CODEGEN--\":661:685   */\n  mload\n    /* \"--CODEGEN--\":705:723   */\n  0xffffffffffffffff\n    /* \"--CODEGEN--\":697:703   */\n  dup2\n    /* \"--CODEGEN--\":694:724   */\n  gt\n    /* \"--CODEGEN--\":691:693   */\n  iszero\n  tag_47\n  jumpi\n    /* \"--CODEGEN--\":737:738   */\n  0x00\n    /* \"--CODEGEN--\":734:735   */\n  dup1\n    /* \"--CODEGEN--\":727:739   */\n  revert\n    /* \"--CODEGEN--\":691:693   */\ntag_47:\n    /* \"--CODEGEN--\":757:831   */\n  tag_48\n    /* \"--CODEGEN--\":823:830   */\n  dup6\n    /* \"--CODEGEN--\":814:820   */\n  dup3\n    /* \"--CODEGEN--\":803:812   */\n  dup7\n    /* \"--CODEGEN--\":799:821   */\n  add\n    /* \"--CODEGEN--\":757:831   */\n  jump(tag_35)\ntag_48:\n    /* \"--CODEGEN--\":747:831   */\n  swap3\n  pop\n    /* \"--CODEGEN--\":640:837   */\n  pop\n    /* \"--CODEGEN--\":889:891   */\n  0x20\n    /* \"--CODEGEN--\":878:887   */\n  dup4\n    /* \"--CODEGEN--\":874:892   */\n  add\n    /* \"--CODEGEN--\":868:893   */\n  mload\n    /* \"--CODEGEN--\":913:931   */\n  0xffffffffffffffff\n    /* \"--CODEGEN--\":905:911   */\n  dup2\n    /* \"--CODEGEN--\":902:932   */\n  gt\n    /* \"--CODEGEN--\":899:901   */\n  iszero\n  tag_49\n  jumpi\n    /* \"--CODEGEN--\":945:946   */\n  0x00\n    /* \"--CODEGEN--\":942:943   */\n  dup1\n    /* \"--CODEGEN--\":935:947   */\n  revert\n    /* \"--CODEGEN--\":899:901   */\ntag_49:\n    /* \"--CODEGEN--\":965:1039   */\n  tag_50\n    /* \"--CODEGEN--\":1031:1038   */\n  dup6\n    /* \"--CODEGEN--\":1022:1028   */\n  dup3\n    /* \"--CODEGEN--\":1011:1020   */\n  dup7\n    /* \"--CODEGEN--\":1007:1029   */\n  add\n    /* \"--CODEGEN--\":965:1039   */\n  jump(tag_35)\ntag_50:\n    /* \"--CODEGEN--\":955:1039   */\n  swap2\n  pop\n    /* \"--CODEGEN--\":847:1045   */\n  pop\n    /* \"--CODEGEN--\":572:1055   */\n  swap3\n  pop\n  swap3\n  swap1\n  pop\n  jump\n    /* \"--CODEGEN--\":1063:1391   */\ntag_51:\n  0x00\n    /* \"--CODEGEN--\":1223:1290   */\n  tag_53\n    /* \"--CODEGEN--\":1287:1289   */\n  0x1c\n    /* \"--CODEGEN--\":1282:1285   */\n  dup4\n    /* \"--CODEGEN--\":1223:1290   */\n  jump(tag_54)\ntag_53:\n    /* \"--CODEGEN--\":1216:1290   */\n  swap2\n  pop\n    /* \"--CODEGEN--\":1323:1353   */\n  0x4552433136353a20696e76616c696420696e7465726661636520696400000000\n    /* \"--CODEGEN--\":1319:1320   */\n  0x00\n    /* \"--CODEGEN--\":1314:1317   */\n  dup4\n    /* \"--CODEGEN--\":1310:1321   */\n  add\n    /* \"--CODEGEN--\":1303:1354   */\n  mstore\n    /* \"--CODEGEN--\":1382:1384   */\n  0x20\n    /* \"--CODEGEN--\":1377:1380   */\n  dup3\n    /* \"--CODEGEN--\":1373:1385   */\n  add\n    /* \"--CODEGEN--\":1366:1385   */\n  swap1\n  pop\n    /* \"--CODEGEN--\":1209:1391   */\n  swap2\n  swap1\n  pop\n  jump\n    /* \"--CODEGEN--\":1399:1806   */\ntag_24:\n  0x00\n    /* \"--CODEGEN--\":1590:1592   */\n  0x20\n    /* \"--CODEGEN--\":1579:1588   */\n  dup3\n    /* \"--CODEGEN--\":1575:1593   */\n  add\n    /* \"--CODEGEN--\":1567:1593   */\n  swap1\n  pop\n    /* \"--CODEGEN--\":1640:1649   */\n  dup2\n    /* \"--CODEGEN--\":1634:1638   */\n  dup2\n    /* \"--CODEGEN--\":1630:1650   */\n  sub\n    /* \"--CODEGEN--\":1626:1627   */\n  0x00\n    /* \"--CODEGEN--\":1615:1624   */\n  dup4\n    /* \"--CODEGEN--\":1611:1628   */\n  add\n    /* \"--CODEGEN--\":1604:1651   */\n  mstore\n    /* \"--CODEGEN--\":1665:1796   */\n  tag_56\n    /* \"--CODEGEN--\":1791:1795   */\n  dup2\n    /* \"--CODEGEN--\":1665:1796   */\n  jump(tag_51)\ntag_56:\n    /* \"--CODEGEN--\":1657:1796   */\n  swap1\n  pop\n    /* \"--CODEGEN--\":1561:1806   */\n  swap2\n  swap1\n  pop\n  jump\n    /* \"--CODEGEN--\":1813:2069   */\ntag_41:\n  0x00\n    /* \"--CODEGEN--\":1875:1877   */\n  0x40\n    /* \"--CODEGEN--\":1869:1878   */\n  mload\n    /* \"--CODEGEN--\":1859:1878   */\n  swap1\n  pop\n    /* \"--CODEGEN--\":1913:1917   */\n  dup2\n    /* \"--CODEGEN--\":1905:1911   */\n  dup2\n    /* \"--CODEGEN--\":1901:1918   */\n  add\n    /* \"--CODEGEN--\":2012:2018   */\n  dup2\n    /* \"--CODEGEN--\":2000:2010   */\n  dup2\n    /* \"--CODEGEN--\":1997:2019   */\n  lt\n    /* \"--CODEGEN--\":1976:1994   */\n  0xffffffffffffffff\n    /* \"--CODEGEN--\":1964:1974   */\n  dup3\n    /* \"--CODEGEN--\":1961:1995   */\n  gt\n    /* \"--CODEGEN--\":1958:2020   */\n  or\n    /* \"--CODEGEN--\":1955:1957   */\n  iszero\n  tag_58\n  jumpi\n    /* \"--CODEGEN--\":2033:2034   */\n  0x00\n    /* \"--CODEGEN--\":2030:2031   */\n  dup1\n    /* \"--CODEGEN--\":2023:2035   */\n  revert\n    /* \"--CODEGEN--\":1955:1957   */\ntag_58:\n    /* \"--CODEGEN--\":2053:2063   */\n  dup1\n    /* \"--CODEGEN--\":2049:2051   */\n  0x40\n    /* \"--CODEGEN--\":2042:2064   */\n  mstore\n    /* \"--CODEGEN--\":1853:2069   */\n  pop\n  swap2\n  swap1\n  pop\n  jump\n    /* \"--CODEGEN--\":2076:2398   */\ntag_40:\n  0x00\n    /* \"--CODEGEN--\":2220:2238   */\n  0xffffffffffffffff\n    /* \"--CODEGEN--\":2212:2218   */\n  dup3\n    /* \"--CODEGEN--\":2209:2239   */\n  gt\n    /* \"--CODEGEN--\":2206:2208   */\n  iszero\n  tag_60\n  jumpi\n    /* \"--CODEGEN--\":2252:2253   */\n  0x00\n    /* \"--CODEGEN--\":2249:2250   */\n  dup1\n    /* \"--CODEGEN--\":2242:2254   */\n  revert\n    /* \"--CODEGEN--\":2206:2208   */\ntag_60:\n    /* \"--CODEGEN--\":2319:2323   */\n  0x1f\n    /* \"--CODEGEN--\":2315:2324   */\n  not\n    /* \"--CODEGEN--\":2308:2312   */\n  0x1f\n    /* \"--CODEGEN--\":2300:2306   */\n  dup4\n    /* \"--CODEGEN--\":2296:2313   */\n  add\n    /* \"--CODEGEN--\":2292:2325   */\n  and\n    /* \"--CODEGEN--\":2284:2325   */\n  swap1\n  pop\n    /* \"--CODEGEN--\":2383:2387   */\n  0x20\n    /* \"--CODEGEN--\":2377:2381   */\n  dup2\n    /* \"--CODEGEN--\":2373:2388   */\n  add\n    /* \"--CODEGEN--\":2365:2388   */\n  swap1\n  pop\n    /* \"--CODEGEN--\":2143:2398   */\n  swap2\n  swap1\n  pop\n  jump\n    /* \"--CODEGEN--\":2406:2569   */\ntag_54:\n  0x00\n    /* \"--CODEGEN--\":2521:2527   */\n  dup3\n    /* \"--CODEGEN--\":2516:2519   */\n  dup3\n    /* \"--CODEGEN--\":2509:2528   */\n  mstore\n    /* \"--CODEGEN--\":2558:2562   */\n  0x20\n    /* \"--CODEGEN--\":2553:2556   */\n  dup3\n    /* \"--CODEGEN--\":2549:2563   */\n  add\n    /* \"--CODEGEN--\":2534:2563   */\n  swap1\n  pop\n    /* \"--CODEGEN--\":2502:2569   */\n  swap3\n  swap2\n  pop\n  pop\n  jump\n    /* \"--CODEGEN--\":2578:2846   */\ntag_44:\n    /* \"--CODEGEN--\":2643:2644   */\n  0x00\n    /* \"--CODEGEN--\":2650:2751   */\ntag_63:\n    /* \"--CODEGEN--\":2664:2670   */\n  dup4\n    /* \"--CODEGEN--\":2661:2662   */\n  dup2\n    /* \"--CODEGEN--\":2658:2671   */\n  lt\n    /* \"--CODEGEN--\":2650:2751   */\n  iszero\n  tag_65\n  jumpi\n    /* \"--CODEGEN--\":2740:2741   */\n  dup1\n    /* \"--CODEGEN--\":2735:2738   */\n  dup3\n    /* \"--CODEGEN--\":2731:2742   */\n  add\n    /* \"--CODEGEN--\":2725:2743   */\n  mload\n    /* \"--CODEGEN--\":2721:2722   */\n  dup2\n    /* \"--CODEGEN--\":2716:2719   */\n  dup5\n    /* \"--CODEGEN--\":2712:2723   */\n  add\n    /* \"--CODEGEN--\":2705:2744   */\n  mstore\n    /* \"--CODEGEN--\":2686:2688   */\n  0x20\n    /* \"--CODEGEN--\":2683:2684   */\n  dup2\n    /* \"--CODEGEN--\":2679:2689   */\n  add\n    /* \"--CODEGEN--\":2674:2689   */\n  swap1\n  pop\n    /* \"--CODEGEN--\":2650:2751   */\n  jump(tag_63)\ntag_65:\n    /* \"--CODEGEN--\":2766:2772   */\n  dup4\n    /* \"--CODEGEN--\":2763:2764   */\n  dup2\n    /* \"--CODEGEN--\":2760:2773   */\n  gt\n    /* \"--CODEGEN--\":2757:2759   */\n  iszero\n  tag_66\n  jumpi\n    /* \"--CODEGEN--\":2831:2832   */\n  0x00\n    /* \"--CODEGEN--\":2822:2828   */\n  dup5\n    /* \"--CODEGEN--\":2817:2820   */\n  dup5\n    /* \"--CODEGEN--\":2813:2829   */\n  add\n    /* \"--CODEGEN--\":2806:2833   */\n  mstore\n    /* \"--CODEGEN--\":2757:2759   */\ntag_66:\n    /* \"--CODEGEN--\":2627:2846   */\n  pop\n  pop\n  pop\n  pop\n  jump\n    /* \"contracts/MonkeyNft.sol\":234:452  contract MonkeyNft is ERC721 {... */\ntag_20:\n  dataSize(sub_0)\n  dup1\n  dataOffset(sub_0)\n  0x00\n  codecopy\n  0x00\n  return\nstop\n\nsub_0: assembly {\n        /* \"contracts/MonkeyNft.sol\":234:452  contract MonkeyNft is ERC721 {... */\n      mstore(0x40, 0x80)\n      callvalue\n        /* \"--CODEGEN--\":5:14   */\n      dup1\n        /* \"--CODEGEN--\":2:4   */\n      iszero\n      tag_1\n      jumpi\n        /* \"--CODEGEN--\":27:28   */\n      0x00\n        /* \"--CODEGEN--\":24:25   */\n      dup1\n        /* \"--CODEGEN--\":17:29   */\n      revert\n        /* \"--CODEGEN--\":2:4   */\n    tag_1:\n        /* \"contracts/MonkeyNft.sol\":234:452  contract MonkeyNft is ERC721 {... */\n      pop\n      jumpi(tag_2, lt(calldatasize, 0x04))\n      shr(0xe0, calldataload(0x00))\n      dup1\n      0x4f6ccce7\n      gt\n      tag_21\n      jumpi\n      dup1\n      0x95d89b41\n      gt\n      tag_22\n      jumpi\n      dup1\n      0x95d89b41\n      eq\n      tag_16\n      jumpi\n      dup1\n      0xa22cb465\n      eq\n      tag_17\n      jumpi\n      dup1\n      0xb88d4fde\n      eq\n      tag_18\n      jumpi\n      dup1\n      0xc87b56dd\n      eq\n      tag_19\n      jumpi\n      dup1\n      0xe985e9c5\n      eq\n      tag_20\n      jumpi\n      jump(tag_2)\n    tag_22:\n      dup1\n      0x4f6ccce7\n      eq\n      tag_12\n      jumpi\n      dup1\n      0x6352211e\n      eq\n      tag_13\n      jumpi\n      dup1\n      0x6c0360eb\n      eq\n      tag_14\n      jumpi\n      dup1\n      0x70a08231\n      eq\n      tag_15\n      jumpi\n      jump(tag_2)\n    tag_21:\n      dup1\n      0x18160ddd\n      gt\n      tag_23\n      jumpi\n      dup1\n      0x18160ddd\n      eq\n      tag_7\n      jumpi\n      dup1\n      0x23b872dd\n      eq\n      tag_8\n      jumpi\n      dup1\n      0x2f745c59\n      eq\n      tag_9\n      jumpi\n      dup1\n      0x40c10f19\n      eq\n      tag_10\n      jumpi\n      dup1\n      0x42842e0e\n      eq\n      tag_11\n      jumpi\n      jump(tag_2)\n    tag_23:\n      dup1\n      0x01ffc9a7\n      eq\n      tag_3\n      jumpi\n      dup1\n      0x06fdde03\n      eq\n      tag_4\n      jumpi\n      dup1\n      0x081812fc\n      eq\n      tag_5\n      jumpi\n      dup1\n      0x095ea7b3\n      eq\n      tag_6\n      jumpi\n    tag_2:\n        /* \"--CODEGEN--\":12:13   */\n      0x00\n        /* \"--CODEGEN--\":9:10   */\n      dup1\n        /* \"--CODEGEN--\":2:14   */\n      revert\n        /* \"contracts/introspection/ERC165.sol\":915:1055  function supportsInterface(bytes4 interfaceId) public view override returns (bool) {... */\n    tag_3:\n      tag_24\n      0x04\n      dup1\n      calldatasize\n      sub\n      dup2\n      add\n      swap1\n      tag_25\n      swap2\n      swap1\n      jump(tag_26)\n    tag_25:\n      tag_27\n      jump\t// in\n    tag_24:\n      mload(0x40)\n      tag_28\n      swap2\n      swap1\n      jump(tag_29)\n    tag_28:\n      mload(0x40)\n      dup1\n      swap2\n      sub\n      swap1\n      return\n        /* \"contracts/token/ERC721/ERC721.sol\":4690:4780  function name() public view override returns (string memory) {... */\n    tag_4:\n      tag_30\n      tag_31\n      jump\t// in\n    tag_30:\n      mload(0x40)\n      tag_32\n      swap2\n      swap1\n      jump(tag_33)\n    tag_32:\n      mload(0x40)\n      dup1\n      swap2\n      sub\n      swap1\n      return\n        /* \"contracts/token/ERC721/ERC721.sol\":9350:9559  function getApproved(uint256 tokenId) public view override returns (address) {... */\n    tag_5:\n      tag_34\n      0x04\n      dup1\n      calldatasize\n      sub\n      dup2\n      add\n      swap1\n      tag_35\n      swap2\n      swap1\n      jump(tag_36)\n    tag_35:\n      tag_37\n      jump\t// in\n    tag_34:\n      mload(0x40)\n      tag_38\n      swap2\n      swap1\n      jump(tag_39)\n    tag_38:\n      mload(0x40)\n      dup1\n      swap2\n      sub\n      swap1\n      return\n        /* \"contracts/token/ERC721/ERC721.sol\":8684:9065  function approve(address to, uint256 tokenId) public virtual override {... */\n    tag_6:\n      tag_40\n      0x04\n      dup1\n      calldatasize\n      sub\n      dup2\n      add\n      swap1\n      tag_41\n      swap2\n      swap1\n      jump(tag_42)\n    tag_41:\n      tag_43\n      jump\t// in\n    tag_40:\n      stop\n        /* \"contracts/token/ERC721/ERC721.sol\":7564:7764  function totalSupply() public view override returns (uint256) {... */\n    tag_7:\n      tag_44\n      tag_45\n      jump\t// in\n    tag_44:\n      mload(0x40)\n      tag_46\n      swap2\n      swap1\n      jump(tag_47)\n    tag_46:\n      mload(0x40)\n      dup1\n      swap2\n      sub\n      swap1\n      return\n        /* \"contracts/token/ERC721/ERC721.sol\":11061:11361  function transferFrom(address from, address to, uint256 tokenId) public virtual override {... */\n    tag_8:\n      tag_48\n      0x04\n      dup1\n      calldatasize\n      sub\n      dup2\n      add\n      swap1\n      tag_49\n      swap2\n      swap1\n      jump(tag_50)\n    tag_49:\n      tag_51\n      jump\t// in\n    tag_48:\n      stop\n        /* \"contracts/token/ERC721/ERC721.sol\":7259:7411  function tokenOfOwnerByIndex(address owner, uint256 index) public view override returns (uint256) {... */\n    tag_9:\n      tag_52\n      0x04\n      dup1\n      calldatasize\n      sub\n      dup2\n      add\n      swap1\n      tag_53\n      swap2\n      swap1\n      jump(tag_42)\n    tag_53:\n      tag_54\n      jump\t// in\n    tag_52:\n      mload(0x40)\n      tag_55\n      swap2\n      swap1\n      jump(tag_47)\n    tag_55:\n      mload(0x40)\n      dup1\n      swap2\n      sub\n      swap1\n      return\n        /* \"contracts/MonkeyNft.sol\":364:450  function mint(address to, uint256 tokenId) public  {... */\n    tag_10:\n      tag_56\n      0x04\n      dup1\n      calldatasize\n      sub\n      dup2\n      add\n      swap1\n      tag_57\n      swap2\n      swap1\n      jump(tag_42)\n    tag_57:\n      tag_58\n      jump\t// in\n    tag_56:\n      stop\n        /* \"contracts/token/ERC721/ERC721.sol\":12010:12159  function safeTransferFrom(address from, address to, uint256 tokenId) public virtual override {... */\n    tag_11:\n      tag_59\n      0x04\n      dup1\n      calldatasize\n      sub\n      dup2\n      add\n      swap1\n      tag_60\n      swap2\n      swap1\n      jump(tag_50)\n    tag_60:\n      tag_61\n      jump\t// in\n    tag_59:\n      stop\n        /* \"contracts/token/ERC721/ERC721.sol\":8102:8263  function tokenByIndex(uint256 index) public view override returns (uint256) {... */\n    tag_12:\n      tag_62\n      0x04\n      dup1\n      calldatasize\n      sub\n      dup2\n      add\n      swap1\n      tag_63\n      swap2\n      swap1\n      jump(tag_36)\n    tag_63:\n      tag_64\n      jump\t// in\n    tag_62:\n      mload(0x40)\n      tag_65\n      swap2\n      swap1\n      jump(tag_47)\n    tag_65:\n      mload(0x40)\n      dup1\n      swap2\n      sub\n      swap1\n      return\n        /* \"contracts/token/ERC721/ERC721.sol\":4418:4585  function ownerOf(uint256 tokenId) public view override returns (address) {... */\n    tag_13:\n      tag_66\n      0x04\n      dup1\n      calldatasize\n      sub\n      dup2\n      add\n      swap1\n      tag_67\n      swap2\n      swap1\n      jump(tag_36)\n    tag_67:\n      tag_68\n      jump\t// in\n    tag_66:\n      mload(0x40)\n      tag_69\n      swap2\n      swap1\n      jump(tag_39)\n    tag_69:\n      mload(0x40)\n      dup1\n      swap2\n      sub\n      swap1\n      return\n        /* \"contracts/token/ERC721/ERC721.sol\":6798:6885  function baseURI() public view returns (string memory) {... */\n    tag_14:\n      tag_70\n      tag_71\n      jump\t// in\n    tag_70:\n      mload(0x40)\n      tag_72\n      swap2\n      swap1\n      jump(tag_33)\n    tag_72:\n      mload(0x40)\n      dup1\n      swap2\n      sub\n      swap1\n      return\n        /* \"contracts/token/ERC721/ERC721.sol\":3988:4199  function balanceOf(address owner) public view override returns (uint256) {... */\n    tag_15:\n      tag_73\n      0x04\n      dup1\n      calldatasize\n      sub\n      dup2\n      add\n      swap1\n      tag_74\n      swap2\n      swap1\n      jump(tag_75)\n    tag_74:\n      tag_76\n      jump\t// in\n    tag_73:\n      mload(0x40)\n      tag_77\n      swap2\n      swap1\n      jump(tag_47)\n    tag_77:\n      mload(0x40)\n      dup1\n      swap2\n      sub\n      swap1\n      return\n        /* \"contracts/token/ERC721/ERC721.sol\":4889:4983  function symbol() public view override returns (string memory) {... */\n    tag_16:\n      tag_78\n      tag_79\n      jump\t// in\n    tag_78:\n      mload(0x40)\n      tag_80\n      swap2\n      swap1\n      jump(tag_33)\n    tag_80:\n      mload(0x40)\n      dup1\n      swap2\n      sub\n      swap1\n      return\n        /* \"contracts/token/ERC721/ERC721.sol\":9858:10148  function setApprovalForAll(address operator, bool approved) public virtual override {... */\n    tag_17:\n      tag_81\n      0x04\n      dup1\n      calldatasize\n      sub\n      dup2\n      add\n      swap1\n      tag_82\n      swap2\n      swap1\n      jump(tag_83)\n    tag_82:\n      tag_84\n      jump\t// in\n    tag_81:\n      stop\n        /* \"contracts/token/ERC721/ERC721.sol\":12882:13164  function safeTransferFrom(address from, address to, uint256 tokenId, bytes memory _data) public virtual override {... */\n    tag_18:\n      tag_85\n      0x04\n      dup1\n      calldatasize\n      sub\n      dup2\n      add\n      swap1\n      tag_86\n      swap2\n      swap1\n      jump(tag_87)\n    tag_86:\n      tag_88\n      jump\t// in\n    tag_85:\n      stop\n        /* \"contracts/token/ERC721/ERC721.sol\":5826:6566  function tokenURI(uint256 tokenId) public view override returns (string memory) {... */\n    tag_19:\n      tag_89\n      0x04\n      dup1\n      calldatasize\n      sub\n      dup2\n      add\n      swap1\n      tag_90\n      swap2\n      swap1\n      jump(tag_36)\n    tag_90:\n      tag_91\n      jump\t// in\n    tag_89:\n      mload(0x40)\n      tag_92\n      swap2\n      swap1\n      jump(tag_33)\n    tag_92:\n      mload(0x40)\n      dup1\n      swap2\n      sub\n      swap1\n      return\n        /* \"contracts/token/ERC721/ERC721.sol\":10470:10624  function isApprovedForAll(address owner, address operator) public view override returns (bool) {... */\n    tag_20:\n      tag_93\n      0x04\n      dup1\n      calldatasize\n      sub\n      dup2\n      add\n      swap1\n      tag_94\n      swap2\n      swap1\n      jump(tag_95)\n    tag_94:\n      tag_96\n      jump\t// in\n    tag_93:\n      mload(0x40)\n      tag_97\n      swap2\n      swap1\n      jump(tag_29)\n    tag_97:\n      mload(0x40)\n      dup1\n      swap2\n      sub\n      swap1\n      return\n        /* \"contracts/introspection/ERC165.sol\":915:1055  function supportsInterface(bytes4 interfaceId) public view override returns (bool) {... */\n    tag_27:\n        /* \"contracts/introspection/ERC165.sol\":992:996  bool */\n      0x00\n        /* \"contracts/introspection/ERC165.sol\":1015:1035  _supportedInterfaces */\n      dup1\n        /* \"contracts/introspection/ERC165.sol\":1015:1048  _supportedInterfaces[interfaceId] */\n      0x00\n        /* \"contracts/introspection/ERC165.sol\":1036:1047  interfaceId */\n      dup4\n        /* \"contracts/introspection/ERC165.sol\":1015:1048  _supportedInterfaces[interfaceId] */\n      not(0xffffffffffffffffffffffffffffffffffffffffffffffffffffffff)\n      and\n      not(0xffffffffffffffffffffffffffffffffffffffffffffffffffffffff)\n      and\n      dup2\n      mstore\n      0x20\n      add\n      swap1\n      dup2\n      mstore\n      0x20\n      add\n      0x00\n      keccak256\n      0x00\n      swap1\n      sload\n      swap1\n      0x0100\n      exp\n      swap1\n      div\n      0xff\n      and\n        /* \"contracts/introspection/ERC165.sol\":1008:1048  return _supportedInterfaces[interfaceId] */\n      swap1\n      pop\n        /* \"contracts/introspection/ERC165.sol\":915:1055  function supportsInterface(bytes4 interfaceId) public view override returns (bool) {... */\n      swap2\n      swap1\n      pop\n      jump\t// out\n        /* \"contracts/token/ERC721/ERC721.sol\":4690:4780  function name() public view override returns (string memory) {... */\n    tag_31:\n        /* \"contracts/token/ERC721/ERC721.sol\":4736:4749  string memory */\n      0x60\n        /* \"contracts/token/ERC721/ERC721.sol\":4768:4773  _name */\n      0x06\n        /* \"contracts/token/ERC721/ERC721.sol\":4761:4773  return _name */\n      dup1\n      sload\n      0x01\n      dup2\n      0x01\n      and\n      iszero\n      0x0100\n      mul\n      sub\n      and\n      0x02\n      swap1\n      div\n      dup1\n      0x1f\n      add\n      0x20\n      dup1\n      swap2\n      div\n      mul\n      0x20\n      add\n      mload(0x40)\n      swap1\n      dup2\n      add\n      0x40\n      mstore\n      dup1\n      swap3\n      swap2\n      swap1\n      dup2\n      dup2\n      mstore\n      0x20\n      add\n      dup3\n      dup1\n      sload\n      0x01\n      dup2\n      0x01\n      and\n      iszero\n      0x0100\n      mul\n      sub\n      and\n      0x02\n      swap1\n      div\n      dup1\n      iszero\n      tag_100\n      jumpi\n      dup1\n      0x1f\n      lt\n      tag_101\n      jumpi\n      0x0100\n      dup1\n      dup4\n      sload\n      div\n      mul\n      dup4\n      mstore\n      swap2\n      0x20\n      add\n      swap2\n      jump(tag_100)\n    tag_101:\n      dup3\n      add\n      swap2\n      swap1\n      0x00\n      mstore\n      keccak256(0x00, 0x20)\n      swap1\n    tag_102:\n      dup2\n      sload\n      dup2\n      mstore\n      swap1\n      0x01\n      add\n      swap1\n      0x20\n      add\n      dup1\n      dup4\n      gt\n      tag_102\n      jumpi\n      dup3\n      swap1\n      sub\n      0x1f\n      and\n      dup3\n      add\n      swap2\n    tag_100:\n      pop\n      pop\n      pop\n      pop\n      pop\n      swap1\n      pop\n        /* \"contracts/token/ERC721/ERC721.sol\":4690:4780  function name() public view override returns (string memory) {... */\n      swap1\n      jump\t// out\n        /* \"contracts/token/ERC721/ERC721.sol\":9350:9559  function getApproved(uint256 tokenId) public view override returns (address) {... */\n    tag_37:\n        /* \"contracts/token/ERC721/ERC721.sol\":9418:9425  address */\n      0x00\n        /* \"contracts/token/ERC721/ERC721.sol\":9445:9461  _exists(tokenId) */\n      tag_104\n        /* \"contracts/token/ERC721/ERC721.sol\":9453:9460  tokenId */\n      dup3\n        /* \"contracts/token/ERC721/ERC721.sol\":9445:9452  _exists */\n      tag_105\n        /* \"contracts/token/ERC721/ERC721.sol\":9445:9461  _exists(tokenId) */\n      jump\t// in\n    tag_104:\n        /* \"contracts/token/ERC721/ERC721.sol\":9437:9510  require(_exists(tokenId), \"ERC721: approved query for nonexistent token\") */\n      tag_106\n      jumpi\n      mload(0x40)\n      0x08c379a000000000000000000000000000000000000000000000000000000000\n      dup2\n      mstore\n      0x04\n      add\n      tag_107\n      swap1\n      jump(tag_108)\n    tag_107:\n      mload(0x40)\n      dup1\n      swap2\n      sub\n      swap1\n      revert\n    tag_106:\n        /* \"contracts/token/ERC721/ERC721.sol\":9528:9543  _tokenApprovals */\n      0x04\n        /* \"contracts/token/ERC721/ERC721.sol\":9528:9552  _tokenApprovals[tokenId] */\n      0x00\n        /* \"contracts/token/ERC721/ERC721.sol\":9544:9551  tokenId */\n      dup4\n        /* \"contracts/token/ERC721/ERC721.sol\":9528:9552  _tokenApprovals[tokenId] */\n      dup2\n      mstore\n      0x20\n      add\n      swap1\n      dup2\n      mstore\n      0x20\n      add\n      0x00\n      keccak256\n      0x00\n      swap1\n      sload\n      swap1\n      0x0100\n      exp\n      swap1\n      div\n      0xffffffffffffffffffffffffffffffffffffffff\n      and\n        /* \"contracts/token/ERC721/ERC721.sol\":9521:9552  return _tokenApprovals[tokenId] */\n      swap1\n      pop\n        /* \"contracts/token/ERC721/ERC721.sol\":9350:9559  function getApproved(uint256 tokenId) public view override returns (address) {... */\n      swap2\n      swap1\n      pop\n      jump\t// out\n        /* \"contracts/token/ERC721/ERC721.sol\":8684:9065  function approve(address to, uint256 tokenId) public virtual override {... */\n    tag_43:\n        /* \"contracts/token/ERC721/ERC721.sol\":8764:8777  address owner */\n      0x00\n        /* \"contracts/token/ERC721/ERC721.sol\":8780:8796  ownerOf(tokenId) */\n      tag_110\n        /* \"contracts/token/ERC721/ERC721.sol\":8788:8795  tokenId */\n      dup3\n        /* \"contracts/token/ERC721/ERC721.sol\":8780:8787  ownerOf */\n      tag_68\n        /* \"contracts/token/ERC721/ERC721.sol\":8780:8796  ownerOf(tokenId) */\n      jump\t// in\n    tag_110:\n        /* \"contracts/token/ERC721/ERC721.sol\":8764:8796  address owner = ownerOf(tokenId) */\n      swap1\n      pop\n        /* \"contracts/token/ERC721/ERC721.sol\":8820:8825  owner */\n      dup1\n        /* \"contracts/token/ERC721/ERC721.sol\":8814:8825  to != owner */\n      0xffffffffffffffffffffffffffffffffffffffff\n      and\n        /* \"contracts/token/ERC721/ERC721.sol\":8814:8816  to */\n      dup4\n        /* \"contracts/token/ERC721/ERC721.sol\":8814:8825  to != owner */\n      0xffffffffffffffffffffffffffffffffffffffff\n      and\n      eq\n      iszero\n        /* \"contracts/token/ERC721/ERC721.sol\":8806:8863  require(to != owner, \"ERC721: approval to current owner\") */\n      tag_111\n      jumpi\n      mload(0x40)\n      0x08c379a000000000000000000000000000000000000000000000000000000000\n      dup2\n      mstore\n      0x04\n      add\n      tag_112\n      swap1\n      jump(tag_113)\n    tag_112:\n      mload(0x40)\n      dup1\n      swap2\n      sub\n      swap1\n      revert\n    tag_111:\n        /* \"contracts/token/ERC721/ERC721.sol\":8898:8903  owner */\n      dup1\n        /* \"contracts/token/ERC721/ERC721.sol\":8882:8903  _msgSender() == owner */\n      0xffffffffffffffffffffffffffffffffffffffff\n      and\n        /* \"contracts/token/ERC721/ERC721.sol\":8882:8894  _msgSender() */\n      tag_114\n        /* \"contracts/token/ERC721/ERC721.sol\":8882:8892  _msgSender */\n      tag_115\n        /* \"contracts/token/ERC721/ERC721.sol\":8882:8894  _msgSender() */\n      jump\t// in\n    tag_114:\n        /* \"contracts/token/ERC721/ERC721.sol\":8882:8903  _msgSender() == owner */\n      0xffffffffffffffffffffffffffffffffffffffff\n      and\n      eq\n        /* \"contracts/token/ERC721/ERC721.sol\":8882:8944  _msgSender() == owner || isApprovedForAll(owner, _msgSender()) */\n      dup1\n      tag_116\n      jumpi\n      pop\n        /* \"contracts/token/ERC721/ERC721.sol\":8907:8944  isApprovedForAll(owner, _msgSender()) */\n      tag_117\n        /* \"contracts/token/ERC721/ERC721.sol\":8924:8929  owner */\n      dup2\n        /* \"contracts/token/ERC721/ERC721.sol\":8931:8943  _msgSender() */\n      tag_118\n        /* \"contracts/token/ERC721/ERC721.sol\":8931:8941  _msgSender */\n      tag_115\n        /* \"contracts/token/ERC721/ERC721.sol\":8931:8943  _msgSender() */\n      jump\t// in\n    tag_118:\n        /* \"contracts/token/ERC721/ERC721.sol\":8907:8923  isApprovedForAll */\n      tag_96\n        /* \"contracts/token/ERC721/ERC721.sol\":8907:8944  isApprovedForAll(owner, _msgSender()) */\n      jump\t// in\n    tag_117:\n        /* \"contracts/token/ERC721/ERC721.sol\":8882:8944  _msgSender() == owner || isApprovedForAll(owner, _msgSender()) */\n    tag_116:\n        /* \"contracts/token/ERC721/ERC721.sol\":8874:9026  require(_msgSender() == owner || isApprovedForAll(owner, _msgSender()),... */\n      tag_119\n      jumpi\n      mload(0x40)\n      0x08c379a000000000000000000000000000000000000000000000000000000000\n      dup2\n      mstore\n      0x04\n      add\n      tag_120\n      swap1\n      jump(tag_121)\n    tag_120:\n      mload(0x40)\n      dup1\n      swap2\n      sub\n      swap1\n      revert\n    tag_119:\n        /* \"contracts/token/ERC721/ERC721.sol\":9037:9058  _approve(to, tokenId) */\n      tag_122\n        /* \"contracts/token/ERC721/ERC721.sol\":9046:9048  to */\n      dup4\n        /* \"contracts/token/ERC721/ERC721.sol\":9050:9057  tokenId */\n      dup4\n        /* \"contracts/token/ERC721/ERC721.sol\":9037:9045  _approve */\n      tag_123\n        /* \"contracts/token/ERC721/ERC721.sol\":9037:9058  _approve(to, tokenId) */\n      jump\t// in\n    tag_122:\n        /* \"contracts/token/ERC721/ERC721.sol\":8684:9065  function approve(address to, uint256 tokenId) public virtual override {... */\n      pop\n      pop\n      pop\n      jump\t// out\n        /* \"contracts/token/ERC721/ERC721.sol\":7564:7764  function totalSupply() public view override returns (uint256) {... */\n    tag_45:\n        /* \"contracts/token/ERC721/ERC721.sol\":7617:7624  uint256 */\n      0x00\n        /* \"contracts/token/ERC721/ERC721.sol\":7736:7757  _tokenOwners.length() */\n      tag_125\n        /* \"contracts/token/ERC721/ERC721.sol\":7736:7748  _tokenOwners */\n      0x02\n        /* \"contracts/token/ERC721/ERC721.sol\":7736:7755  _tokenOwners.length */\n      tag_126\n        /* \"contracts/token/ERC721/ERC721.sol\":7736:7757  _tokenOwners.length() */\n      jump\t// in\n    tag_125:\n        /* \"contracts/token/ERC721/ERC721.sol\":7729:7757  return _tokenOwners.length() */\n      swap1\n      pop\n        /* \"contracts/token/ERC721/ERC721.sol\":7564:7764  function totalSupply() public view override returns (uint256) {... */\n      swap1\n      jump\t// out\n        /* \"contracts/token/ERC721/ERC721.sol\":11061:11361  function transferFrom(address from, address to, uint256 tokenId) public virtual override {... */\n    tag_51:\n        /* \"contracts/token/ERC721/ERC721.sol\":11220:11261  _isApprovedOrOwner(_msgSender(), tokenId) */\n      tag_128\n        /* \"contracts/token/ERC721/ERC721.sol\":11239:11251  _msgSender() */\n      tag_129\n        /* \"contracts/token/ERC721/ERC721.sol\":11239:11249  _msgSender */\n      tag_115\n        /* \"contracts/token/ERC721/ERC721.sol\":11239:11251  _msgSender() */\n      jump\t// in\n    tag_129:\n        /* \"contracts/token/ERC721/ERC721.sol\":11253:11260  tokenId */\n      dup3\n        /* \"contracts/token/ERC721/ERC721.sol\":11220:11238  _isApprovedOrOwner */\n      tag_130\n        /* \"contracts/token/ERC721/ERC721.sol\":11220:11261  _isApprovedOrOwner(_msgSender(), tokenId) */\n      jump\t// in\n    tag_128:\n        /* \"contracts/token/ERC721/ERC721.sol\":11212:11315  require(_isApprovedOrOwner(_msgSender(), tokenId), \"ERC721: transfer caller is not owner nor approved\") */\n      tag_131\n      jumpi\n      mload(0x40)\n      0x08c379a000000000000000000000000000000000000000000000000000000000\n      dup2\n      mstore\n      0x04\n      add\n      tag_132\n      swap1\n      jump(tag_133)\n    tag_132:\n      mload(0x40)\n      dup1\n      swap2\n      sub\n      swap1\n      revert\n    tag_131:\n        /* \"contracts/token/ERC721/ERC721.sol\":11326:11354  _transfer(from, to, tokenId) */\n      tag_134\n        /* \"contracts/token/ERC721/ERC721.sol\":11336:11340  from */\n      dup4\n        /* \"contracts/token/ERC721/ERC721.sol\":11342:11344  to */\n      dup4\n        /* \"contracts/token/ERC721/ERC721.sol\":11346:11353  tokenId */\n      dup4\n        /* \"contracts/token/ERC721/ERC721.sol\":11326:11335  _transfer */\n      tag_135\n        /* \"contracts/token/ERC721/ERC721.sol\":11326:11354  _transfer(from, to, tokenId) */\n      jump\t// in\n    tag_134:\n        /* \"contracts/token/ERC721/ERC721.sol\":11061:11361  function transferFrom(address from, address to, uint256 tokenId) public virtual override {... */\n      pop\n      pop\n      pop\n      jump\t// out\n        /* \"contracts/token/ERC721/ERC721.sol\":7259:7411  function tokenOfOwnerByIndex(address owner, uint256 index) public view override returns (uint256) {... */\n    tag_54:\n        /* \"contracts/token/ERC721/ERC721.sol\":7348:7355  uint256 */\n      0x00\n        /* \"contracts/token/ERC721/ERC721.sol\":7374:7404  _holderTokens[owner].at(index) */\n      tag_137\n        /* \"contracts/token/ERC721/ERC721.sol\":7398:7403  index */\n      dup3\n        /* \"contracts/token/ERC721/ERC721.sol\":7374:7387  _holderTokens */\n      0x01\n        /* \"contracts/token/ERC721/ERC721.sol\":7374:7394  _holderTokens[owner] */\n      0x00\n        /* \"contracts/token/ERC721/ERC721.sol\":7388:7393  owner */\n      dup7\n        /* \"contracts/token/ERC721/ERC721.sol\":7374:7394  _holderTokens[owner] */\n      0xffffffffffffffffffffffffffffffffffffffff\n      and\n      0xffffffffffffffffffffffffffffffffffffffff\n      and\n      dup2\n      mstore\n      0x20\n      add\n      swap1\n      dup2\n      mstore\n      0x20\n      add\n      0x00\n      keccak256\n        /* \"contracts/token/ERC721/ERC721.sol\":7374:7397  _holderTokens[owner].at */\n      tag_138\n      swap1\n        /* \"contracts/token/ERC721/ERC721.sol\":7374:7404  _holderTokens[owner].at(index) */\n      swap2\n      swap1\n      0xffffffff\n      and\n      jump\t// in\n    tag_137:\n        /* \"contracts/token/ERC721/ERC721.sol\":7367:7404  return _holderTokens[owner].at(index) */\n      swap1\n      pop\n        /* \"contracts/token/ERC721/ERC721.sol\":7259:7411  function tokenOfOwnerByIndex(address owner, uint256 index) public view override returns (uint256) {... */\n      swap3\n      swap2\n      pop\n      pop\n      jump\t// out\n        /* \"contracts/MonkeyNft.sol\":364:450  function mint(address to, uint256 tokenId) public  {... */\n    tag_58:\n        /* \"contracts/MonkeyNft.sol\":425:443  _mint(to, tokenId) */\n      tag_140\n        /* \"contracts/MonkeyNft.sol\":431:433  to */\n      dup3\n        /* \"contracts/MonkeyNft.sol\":435:442  tokenId */\n      dup3\n        /* \"contracts/MonkeyNft.sol\":425:430  _mint */\n      tag_141\n        /* \"contracts/MonkeyNft.sol\":425:443  _mint(to, tokenId) */\n      jump\t// in\n    tag_140:\n        /* \"contracts/MonkeyNft.sol\":364:450  function mint(address to, uint256 tokenId) public  {... */\n      pop\n      pop\n      jump\t// out\n        /* \"contracts/token/ERC721/ERC721.sol\":12010:12159  function safeTransferFrom(address from, address to, uint256 tokenId) public virtual override {... */\n    tag_61:\n        /* \"contracts/token/ERC721/ERC721.sol\":12113:12152  safeTransferFrom(from, to, tokenId, \"\") */\n      tag_143\n        /* \"contracts/token/ERC721/ERC721.sol\":12130:12134  from */\n      dup4\n        /* \"contracts/token/ERC721/ERC721.sol\":12136:12138  to */\n      dup4\n        /* \"contracts/token/ERC721/ERC721.sol\":12140:12147  tokenId */\n      dup4\n        /* \"contracts/token/ERC721/ERC721.sol\":12113:12152  safeTransferFrom(from, to, tokenId, \"\") */\n      mload(0x40)\n      dup1\n      0x20\n      add\n      0x40\n      mstore\n      dup1\n      0x00\n      dup2\n      mstore\n      pop\n        /* \"contracts/token/ERC721/ERC721.sol\":12113:12129  safeTransferFrom */\n      tag_88\n        /* \"contracts/token/ERC721/ERC721.sol\":12113:12152  safeTransferFrom(from, to, tokenId, \"\") */\n      jump\t// in\n    tag_143:\n        /* \"contracts/token/ERC721/ERC721.sol\":12010:12159  function safeTransferFrom(address from, address to, uint256 tokenId) public virtual override {... */\n      pop\n      pop\n      pop\n      jump\t// out\n        /* \"contracts/token/ERC721/ERC721.sol\":8102:8263  function tokenByIndex(uint256 index) public view override returns (uint256) {... */\n    tag_64:\n        /* \"contracts/token/ERC721/ERC721.sol\":8169:8176  uint256 */\n      0x00\n        /* \"contracts/token/ERC721/ERC721.sol\":8189:8204  uint256 tokenId */\n      dup1\n        /* \"contracts/token/ERC721/ERC721.sol\":8210:8232  _tokenOwners.at(index) */\n      tag_145\n        /* \"contracts/token/ERC721/ERC721.sol\":8226:8231  index */\n      dup4\n        /* \"contracts/token/ERC721/ERC721.sol\":8210:8222  _tokenOwners */\n      0x02\n        /* \"contracts/token/ERC721/ERC721.sol\":8210:8225  _tokenOwners.at */\n      tag_146\n      swap1\n        /* \"contracts/token/ERC721/ERC721.sol\":8210:8232  _tokenOwners.at(index) */\n      swap2\n      swap1\n      0xffffffff\n      and\n      jump\t// in\n    tag_145:\n        /* \"contracts/token/ERC721/ERC721.sol\":8188:8232  (uint256 tokenId, ) = _tokenOwners.at(index) */\n      pop\n      swap1\n      pop\n        /* \"contracts/token/ERC721/ERC721.sol\":8249:8256  tokenId */\n      dup1\n        /* \"contracts/token/ERC721/ERC721.sol\":8242:8256  return tokenId */\n      swap2\n      pop\n      pop\n        /* \"contracts/token/ERC721/ERC721.sol\":8102:8263  function tokenByIndex(uint256 index) public view override returns (uint256) {... */\n      swap2\n      swap1\n      pop\n      jump\t// out\n        /* \"contracts/token/ERC721/ERC721.sol\":4418:4585  function ownerOf(uint256 tokenId) public view override returns (address) {... */\n    tag_68:\n        /* \"contracts/token/ERC721/ERC721.sol\":4482:4489  address */\n      0x00\n        /* \"contracts/token/ERC721/ERC721.sol\":4508:4578  _tokenOwners.get(tokenId, \"ERC721: owner query for nonexistent token\") */\n      tag_148\n        /* \"contracts/token/ERC721/ERC721.sol\":4525:4532  tokenId */\n      dup3\n        /* \"contracts/token/ERC721/ERC721.sol\":4508:4578  _tokenOwners.get(tokenId, \"ERC721: owner query for nonexistent token\") */\n      mload(0x40)\n      dup1\n      0x60\n      add\n      0x40\n      mstore\n      dup1\n      0x29\n      dup2\n      mstore\n      0x20\n      add\n      data_7481f3df2a424c0755a1ad2356614e9a5a358d461ea2eae1f89cb21cbad00397\n      0x29\n      swap2\n      codecopy\n        /* \"contracts/token/ERC721/ERC721.sol\":4508:4520  _tokenOwners */\n      0x02\n        /* \"contracts/token/ERC721/ERC721.sol\":4508:4524  _tokenOwners.get */\n      tag_149\n      swap1\n        /* \"contracts/token/ERC721/ERC721.sol\":4508:4578  _tokenOwners.get(tokenId, \"ERC721: owner query for nonexistent token\") */\n      swap3\n      swap2\n      swap1\n      0xffffffff\n      and\n      jump\t// in\n    tag_148:\n        /* \"contracts/token/ERC721/ERC721.sol\":4501:4578  return _tokenOwners.get(tokenId, \"ERC721: owner query for nonexistent token\") */\n      swap1\n      pop\n        /* \"contracts/token/ERC721/ERC721.sol\":4418:4585  function ownerOf(uint256 tokenId) public view override returns (address) {... */\n      swap2\n      swap1\n      pop\n      jump\t// out\n        /* \"contracts/token/ERC721/ERC721.sol\":6798:6885  function baseURI() public view returns (string memory) {... */\n    tag_71:\n        /* \"contracts/token/ERC721/ERC721.sol\":6838:6851  string memory */\n      0x60\n        /* \"contracts/token/ERC721/ERC721.sol\":6870:6878  _baseURI */\n      0x09\n        /* \"contracts/token/ERC721/ERC721.sol\":6863:6878  return _baseURI */\n      dup1\n      sload\n      0x01\n      dup2\n      0x01\n      and\n      iszero\n      0x0100\n      mul\n      sub\n      and\n      0x02\n      swap1\n      div\n      dup1\n      0x1f\n      add\n      0x20\n      dup1\n      swap2\n      div\n      mul\n      0x20\n      add\n      mload(0x40)\n      swap1\n      dup2\n      add\n      0x40\n      mstore\n      dup1\n      swap3\n      swap2\n      swap1\n      dup2\n      dup2\n      mstore\n      0x20\n      add\n      dup3\n      dup1\n      sload\n      0x01\n      dup2\n      0x01\n      and\n      iszero\n      0x0100\n      mul\n      sub\n      and\n      0x02\n      swap1\n      div\n      dup1\n      iszero\n      tag_151\n      jumpi\n      dup1\n      0x1f\n      lt\n      tag_152\n      jumpi\n      0x0100\n      dup1\n      dup4\n      sload\n      div\n      mul\n      dup4\n      mstore\n      swap2\n      0x20\n      add\n      swap2\n      jump(tag_151)\n    tag_152:\n      dup3\n      add\n      swap2\n      swap1\n      0x00\n      mstore\n      keccak256(0x00, 0x20)\n      swap1\n    tag_153:\n      dup2\n      sload\n      dup2\n      mstore\n      swap1\n      0x01\n      add\n      swap1\n      0x20\n      add\n      dup1\n      dup4\n      gt\n      tag_153\n      jumpi\n      dup3\n      swap1\n      sub\n      0x1f\n      and\n      dup3\n      add\n      swap2\n    tag_151:\n      pop\n      pop\n      pop\n      pop\n      pop\n      swap1\n      pop\n        /* \"contracts/token/ERC721/ERC721.sol\":6798:6885  function baseURI() public view returns (string memory) {... */\n      swap1\n      jump\t// out\n        /* \"contracts/token/ERC721/ERC721.sol\":3988:4199  function balanceOf(address owner) public view override returns (uint256) {... */\n    tag_76:\n        /* \"contracts/token/ERC721/ERC721.sol\":4052:4059  uint256 */\n      0x00\n        /* \"contracts/token/ERC721/ERC721.sol\":4096:4097  0 */\n      dup1\n        /* \"contracts/token/ERC721/ERC721.sol\":4079:4098  owner != address(0) */\n      0xffffffffffffffffffffffffffffffffffffffff\n      and\n        /* \"contracts/token/ERC721/ERC721.sol\":4079:4084  owner */\n      dup3\n        /* \"contracts/token/ERC721/ERC721.sol\":4079:4098  owner != address(0) */\n      0xffffffffffffffffffffffffffffffffffffffff\n      and\n      eq\n      iszero\n        /* \"contracts/token/ERC721/ERC721.sol\":4071:4145  require(owner != address(0), \"ERC721: balance query for the zero address\") */\n      tag_155\n      jumpi\n      mload(0x40)\n      0x08c379a000000000000000000000000000000000000000000000000000000000\n      dup2\n      mstore\n      0x04\n      add\n      tag_156\n      swap1\n      jump(tag_157)\n    tag_156:\n      mload(0x40)\n      dup1\n      swap2\n      sub\n      swap1\n      revert\n    tag_155:\n        /* \"contracts/token/ERC721/ERC721.sol\":4163:4192  _holderTokens[owner].length() */\n      tag_158\n        /* \"contracts/token/ERC721/ERC721.sol\":4163:4176  _holderTokens */\n      0x01\n        /* \"contracts/token/ERC721/ERC721.sol\":4163:4183  _holderTokens[owner] */\n      0x00\n        /* \"contracts/token/ERC721/ERC721.sol\":4177:4182  owner */\n      dup5\n        /* \"contracts/token/ERC721/ERC721.sol\":4163:4183  _holderTokens[owner] */\n      0xffffffffffffffffffffffffffffffffffffffff\n      and\n      0xffffffffffffffffffffffffffffffffffffffff\n      and\n      dup2\n      mstore\n      0x20\n      add\n      swap1\n      dup2\n      mstore\n      0x20\n      add\n      0x00\n      keccak256\n        /* \"contracts/token/ERC721/ERC721.sol\":4163:4190  _holderTokens[owner].length */\n      tag_159\n        /* \"contracts/token/ERC721/ERC721.sol\":4163:4192  _holderTokens[owner].length() */\n      jump\t// in\n    tag_158:\n        /* \"contracts/token/ERC721/ERC721.sol\":4156:4192  return _holderTokens[owner].length() */\n      swap1\n      pop\n        /* \"contracts/token/ERC721/ERC721.sol\":3988:4199  function balanceOf(address owner) public view override returns (uint256) {... */\n      swap2\n      swap1\n      pop\n      jump\t// out\n        /* \"contracts/token/ERC721/ERC721.sol\":4889:4983  function symbol() public view override returns (string memory) {... */\n    tag_79:\n        /* \"contracts/token/ERC721/ERC721.sol\":4937:4950  string memory */\n      0x60\n        /* \"contracts/token/ERC721/ERC721.sol\":4969:4976  _symbol */\n      0x07\n        /* \"contracts/token/ERC721/ERC721.sol\":4962:4976  return _symbol */\n      dup1\n      sload\n      0x01\n      dup2\n      0x01\n      and\n      iszero\n      0x0100\n      mul\n      sub\n      and\n      0x02\n      swap1\n      div\n      dup1\n      0x1f\n      add\n      0x20\n      dup1\n      swap2\n      div\n      mul\n      0x20\n      add\n      mload(0x40)\n      swap1\n      dup2\n      add\n      0x40\n      mstore\n      dup1\n      swap3\n      swap2\n      swap1\n      dup2\n      dup2\n      mstore\n      0x20\n      add\n      dup3\n      dup1\n      sload\n      0x01\n      dup2\n      0x01\n      and\n      iszero\n      0x0100\n      mul\n      sub\n      and\n      0x02\n      swap1\n      div\n      dup1\n      iszero\n      tag_161\n      jumpi\n      dup1\n      0x1f\n      lt\n      tag_162\n      jumpi\n      0x0100\n      dup1\n      dup4\n      sload\n      div\n      mul\n      dup4\n      mstore\n      swap2\n      0x20\n      add\n      swap2\n      jump(tag_161)\n    tag_162:\n      dup3\n      add\n      swap2\n      swap1\n      0x00\n      mstore\n      keccak256(0x00, 0x20)\n      swap1\n    tag_163:\n      dup2\n      sload\n      dup2\n      mstore\n      swap1\n      0x01\n      add\n      swap1\n      0x20\n      add\n      dup1\n      dup4\n      gt\n      tag_163\n      jumpi\n      dup3\n      swap1\n      sub\n      0x1f\n      and\n      dup3\n      add\n      swap2\n    tag_161:\n      pop\n      pop\n      pop\n      pop\n      pop\n      swap1\n      pop\n        /* \"contracts/token/ERC721/ERC721.sol\":4889:4983  function symbol() public view override returns (string memory) {... */\n      swap1\n      jump\t// out\n        /* \"contracts/token/ERC721/ERC721.sol\":9858:10148  function setApprovalForAll(address operator, bool approved) public virtual override {... */\n    tag_84:\n        /* \"contracts/token/ERC721/ERC721.sol\":9972:9984  _msgSender() */\n      tag_165\n        /* \"contracts/token/ERC721/ERC721.sol\":9972:9982  _msgSender */\n      tag_115\n        /* \"contracts/token/ERC721/ERC721.sol\":9972:9984  _msgSender() */\n      jump\t// in\n    tag_165:\n        /* \"contracts/token/ERC721/ERC721.sol\":9960:9984  operator != _msgSender() */\n      0xffffffffffffffffffffffffffffffffffffffff\n      and\n        /* \"contracts/token/ERC721/ERC721.sol\":9960:9968  operator */\n      dup3\n        /* \"contracts/token/ERC721/ERC721.sol\":9960:9984  operator != _msgSender() */\n      0xffffffffffffffffffffffffffffffffffffffff\n      and\n      eq\n      iszero\n        /* \"contracts/token/ERC721/ERC721.sol\":9952:10014  require(operator != _msgSender(), \"ERC721: approve to caller\") */\n      tag_166\n      jumpi\n      mload(0x40)\n      0x08c379a000000000000000000000000000000000000000000000000000000000\n      dup2\n      mstore\n      0x04\n      add\n      tag_167\n      swap1\n      jump(tag_168)\n    tag_167:\n      mload(0x40)\n      dup1\n      swap2\n      sub\n      swap1\n      revert\n    tag_166:\n        /* \"contracts/token/ERC721/ERC721.sol\":10070:10078  approved */\n      dup1\n        /* \"contracts/token/ERC721/ERC721.sol\":10025:10043  _operatorApprovals */\n      0x05\n        /* \"contracts/token/ERC721/ERC721.sol\":10025:10057  _operatorApprovals[_msgSender()] */\n      0x00\n        /* \"contracts/token/ERC721/ERC721.sol\":10044:10056  _msgSender() */\n      tag_169\n        /* \"contracts/token/ERC721/ERC721.sol\":10044:10054  _msgSender */\n      tag_115\n        /* \"contracts/token/ERC721/ERC721.sol\":10044:10056  _msgSender() */\n      jump\t// in\n    tag_169:\n        /* \"contracts/token/ERC721/ERC721.sol\":10025:10057  _operatorApprovals[_msgSender()] */\n      0xffffffffffffffffffffffffffffffffffffffff\n      and\n      0xffffffffffffffffffffffffffffffffffffffff\n      and\n      dup2\n      mstore\n      0x20\n      add\n      swap1\n      dup2\n      mstore\n      0x20\n      add\n      0x00\n      keccak256\n        /* \"contracts/token/ERC721/ERC721.sol\":10025:10067  _operatorApprovals[_msgSender()][operator] */\n      0x00\n        /* \"contracts/token/ERC721/ERC721.sol\":10058:10066  operator */\n      dup5\n        /* \"contracts/token/ERC721/ERC721.sol\":10025:10067  _operatorApprovals[_msgSender()][operator] */\n      0xffffffffffffffffffffffffffffffffffffffff\n      and\n      0xffffffffffffffffffffffffffffffffffffffff\n      and\n      dup2\n      mstore\n      0x20\n      add\n      swap1\n      dup2\n      mstore\n      0x20\n      add\n      0x00\n      keccak256\n      0x00\n        /* \"contracts/token/ERC721/ERC721.sol\":10025:10078  _operatorApprovals[_msgSender()][operator] = approved */\n      0x0100\n      exp\n      dup2\n      sload\n      dup2\n      0xff\n      mul\n      not\n      and\n      swap1\n      dup4\n      iszero\n      iszero\n      mul\n      or\n      swap1\n      sstore\n      pop\n        /* \"contracts/token/ERC721/ERC721.sol\":10122:10130  operator */\n      dup2\n        /* \"contracts/token/ERC721/ERC721.sol\":10093:10141  ApprovalForAll(_msgSender(), operator, approved) */\n      0xffffffffffffffffffffffffffffffffffffffff\n      and\n        /* \"contracts/token/ERC721/ERC721.sol\":10108:10120  _msgSender() */\n      tag_170\n        /* \"contracts/token/ERC721/ERC721.sol\":10108:10118  _msgSender */\n      tag_115\n        /* \"contracts/token/ERC721/ERC721.sol\":10108:10120  _msgSender() */\n      jump\t// in\n    tag_170:\n        /* \"contracts/token/ERC721/ERC721.sol\":10093:10141  ApprovalForAll(_msgSender(), operator, approved) */\n      0xffffffffffffffffffffffffffffffffffffffff\n      and\n      0x17307eab39ab6107e8899845ad3d59bd9653f200f220920489ca2b5937696c31\n        /* \"contracts/token/ERC721/ERC721.sol\":10132:10140  approved */\n      dup4\n        /* \"contracts/token/ERC721/ERC721.sol\":10093:10141  ApprovalForAll(_msgSender(), operator, approved) */\n      mload(0x40)\n      tag_171\n      swap2\n      swap1\n      jump(tag_29)\n    tag_171:\n      mload(0x40)\n      dup1\n      swap2\n      sub\n      swap1\n      log3\n        /* \"contracts/token/ERC721/ERC721.sol\":9858:10148  function setApprovalForAll(address operator, bool approved) public virtual override {... */\n      pop\n      pop\n      jump\t// out\n        /* \"contracts/token/ERC721/ERC721.sol\":12882:13164  function safeTransferFrom(address from, address to, uint256 tokenId, bytes memory _data) public virtual override {... */\n    tag_88:\n        /* \"contracts/token/ERC721/ERC721.sol\":13013:13054  _isApprovedOrOwner(_msgSender(), tokenId) */\n      tag_173\n        /* \"contracts/token/ERC721/ERC721.sol\":13032:13044  _msgSender() */\n      tag_174\n        /* \"contracts/token/ERC721/ERC721.sol\":13032:13042  _msgSender */\n      tag_115\n        /* \"contracts/token/ERC721/ERC721.sol\":13032:13044  _msgSender() */\n      jump\t// in\n    tag_174:\n        /* \"contracts/token/ERC721/ERC721.sol\":13046:13053  tokenId */\n      dup4\n        /* \"contracts/token/ERC721/ERC721.sol\":13013:13031  _isApprovedOrOwner */\n      tag_130\n        /* \"contracts/token/ERC721/ERC721.sol\":13013:13054  _isApprovedOrOwner(_msgSender(), tokenId) */\n      jump\t// in\n    tag_173:\n        /* \"contracts/token/ERC721/ERC721.sol\":13005:13108  require(_isApprovedOrOwner(_msgSender(), tokenId), \"ERC721: transfer caller is not owner nor approved\") */\n      tag_175\n      jumpi\n      mload(0x40)\n      0x08c379a000000000000000000000000000000000000000000000000000000000\n      dup2\n      mstore\n      0x04\n      add\n      tag_176\n      swap1\n      jump(tag_133)\n    tag_176:\n      mload(0x40)\n      dup1\n      swap2\n      sub\n      swap1\n      revert\n    tag_175:\n        /* \"contracts/token/ERC721/ERC721.sol\":13118:13157  _safeTransfer(from, to, tokenId, _data) */\n      tag_177\n        /* \"contracts/token/ERC721/ERC721.sol\":13132:13136  from */\n      dup5\n        /* \"contracts/token/ERC721/ERC721.sol\":13138:13140  to */\n      dup5\n        /* \"contracts/token/ERC721/ERC721.sol\":13142:13149  tokenId */\n      dup5\n        /* \"contracts/token/ERC721/ERC721.sol\":13151:13156  _data */\n      dup5\n        /* \"contracts/token/ERC721/ERC721.sol\":13118:13131  _safeTransfer */\n      tag_178\n        /* \"contracts/token/ERC721/ERC721.sol\":13118:13157  _safeTransfer(from, to, tokenId, _data) */\n      jump\t// in\n    tag_177:\n        /* \"contracts/token/ERC721/ERC721.sol\":12882:13164  function safeTransferFrom(address from, address to, uint256 tokenId, bytes memory _data) public virtual override {... */\n      pop\n      pop\n      pop\n      pop\n      jump\t// out\n        /* \"contracts/token/ERC721/ERC721.sol\":5826:6566  function tokenURI(uint256 tokenId) public view override returns (string memory) {... */\n    tag_91:\n        /* \"contracts/token/ERC721/ERC721.sol\":5891:5904  string memory */\n      0x60\n        /* \"contracts/token/ERC721/ERC721.sol\":5924:5940  _exists(tokenId) */\n      tag_180\n        /* \"contracts/token/ERC721/ERC721.sol\":5932:5939  tokenId */\n      dup3\n        /* \"contracts/token/ERC721/ERC721.sol\":5924:5931  _exists */\n      tag_105\n        /* \"contracts/token/ERC721/ERC721.sol\":5924:5940  _exists(tokenId) */\n      jump\t// in\n    tag_180:\n        /* \"contracts/token/ERC721/ERC721.sol\":5916:5992  require(_exists(tokenId), \"ERC721Metadata: URI query for nonexistent token\") */\n      tag_181\n      jumpi\n      mload(0x40)\n      0x08c379a000000000000000000000000000000000000000000000000000000000\n      dup2\n      mstore\n      0x04\n      add\n      tag_182\n      swap1\n      jump(tag_183)\n    tag_182:\n      mload(0x40)\n      dup1\n      swap2\n      sub\n      swap1\n      revert\n    tag_181:\n        /* \"contracts/token/ERC721/ERC721.sol\":6003:6026  string memory _tokenURI */\n      0x60\n        /* \"contracts/token/ERC721/ERC721.sol\":6029:6039  _tokenURIs */\n      0x08\n        /* \"contracts/token/ERC721/ERC721.sol\":6029:6048  _tokenURIs[tokenId] */\n      0x00\n        /* \"contracts/token/ERC721/ERC721.sol\":6040:6047  tokenId */\n      dup5\n        /* \"contracts/token/ERC721/ERC721.sol\":6029:6048  _tokenURIs[tokenId] */\n      dup2\n      mstore\n      0x20\n      add\n      swap1\n      dup2\n      mstore\n      0x20\n      add\n      0x00\n      keccak256\n        /* \"contracts/token/ERC721/ERC721.sol\":6003:6048  string memory _tokenURI = _tokenURIs[tokenId] */\n      dup1\n      sload\n      0x01\n      dup2\n      0x01\n      and\n      iszero\n      0x0100\n      mul\n      sub\n      and\n      0x02\n      swap1\n      div\n      dup1\n      0x1f\n      add\n      0x20\n      dup1\n      swap2\n      div\n      mul\n      0x20\n      add\n      mload(0x40)\n      swap1\n      dup2\n      add\n      0x40\n      mstore\n      dup1\n      swap3\n      swap2\n      swap1\n      dup2\n      dup2\n      mstore\n      0x20\n      add\n      dup3\n      dup1\n      sload\n      0x01\n      dup2\n      0x01\n      and\n      iszero\n      0x0100\n      mul\n      sub\n      and\n      0x02\n      swap1\n      div\n      dup1\n      iszero\n      tag_184\n      jumpi\n      dup1\n      0x1f\n      lt\n      tag_185\n      jumpi\n      0x0100\n      dup1\n      dup4\n      sload\n      div\n      mul\n      dup4\n      mstore\n      swap2\n      0x20\n      add\n      swap2\n      jump(tag_184)\n    tag_185:\n      dup3\n      add\n      swap2\n      swap1\n      0x00\n      mstore\n      keccak256(0x00, 0x20)\n      swap1\n    tag_186:\n      dup2\n      sload\n      dup2\n      mstore\n      swap1\n      0x01\n      add\n      swap1\n      0x20\n      add\n      dup1\n      dup4\n      gt\n      tag_186\n      jumpi\n      dup3\n      swap1\n      sub\n      0x1f\n      and\n      dup3\n      add\n      swap2\n    tag_184:\n      pop\n      pop\n      pop\n      pop\n      pop\n      swap1\n      pop\n        /* \"contracts/token/ERC721/ERC721.sol\":6147:6148  0 */\n      0x00\n        /* \"contracts/token/ERC721/ERC721.sol\":6127:6135  _baseURI */\n      0x09\n        /* \"contracts/token/ERC721/ERC721.sol\":6121:6143  bytes(_baseURI).length */\n      dup1\n      sload\n      0x01\n      dup2\n      0x01\n      and\n      iszero\n      0x0100\n      mul\n      sub\n      and\n      0x02\n      swap1\n      div\n      swap1\n      pop\n        /* \"contracts/token/ERC721/ERC721.sol\":6121:6148  bytes(_baseURI).length == 0 */\n      eq\n        /* \"contracts/token/ERC721/ERC721.sol\":6117:6191  if (bytes(_baseURI).length == 0) {... */\n      iszero\n      tag_187\n      jumpi\n        /* \"contracts/token/ERC721/ERC721.sol\":6171:6180  _tokenURI */\n      dup1\n        /* \"contracts/token/ERC721/ERC721.sol\":6164:6180  return _tokenURI */\n      swap2\n      pop\n      pop\n      jump(tag_179)\n        /* \"contracts/token/ERC721/ERC721.sol\":6117:6191  if (bytes(_baseURI).length == 0) {... */\n    tag_187:\n        /* \"contracts/token/ERC721/ERC721.sol\":6319:6320  0 */\n      0x00\n        /* \"contracts/token/ERC721/ERC721.sol\":6299:6308  _tokenURI */\n      dup2\n        /* \"contracts/token/ERC721/ERC721.sol\":6293:6316  bytes(_tokenURI).length */\n      mload\n        /* \"contracts/token/ERC721/ERC721.sol\":6293:6320  bytes(_tokenURI).length > 0 */\n      gt\n        /* \"contracts/token/ERC721/ERC721.sol\":6289:6399  if (bytes(_tokenURI).length > 0) {... */\n      iszero\n      tag_188\n      jumpi\n        /* \"contracts/token/ERC721/ERC721.sol\":6367:6375  _baseURI */\n      0x09\n        /* \"contracts/token/ERC721/ERC721.sol\":6377:6386  _tokenURI */\n      dup2\n        /* \"contracts/token/ERC721/ERC721.sol\":6350:6387  abi.encodePacked(_baseURI, _tokenURI) */\n      add(0x20, mload(0x40))\n      tag_189\n      swap3\n      swap2\n      swap1\n      jump(tag_190)\n    tag_189:\n      mload(0x40)\n        /* \"--CODEGEN--\":49:53   */\n      0x20\n        /* \"--CODEGEN--\":39:46   */\n      dup2\n        /* \"--CODEGEN--\":30:37   */\n      dup4\n        /* \"--CODEGEN--\":26:47   */\n      sub\n        /* \"--CODEGEN--\":22:54   */\n      sub\n        /* \"--CODEGEN--\":13:20   */\n      dup2\n        /* \"--CODEGEN--\":6:55   */\n      mstore\n        /* \"contracts/token/ERC721/ERC721.sol\":6350:6387  abi.encodePacked(_baseURI, _tokenURI) */\n      swap1\n      0x40\n      mstore\n        /* \"contracts/token/ERC721/ERC721.sol\":6336:6388  return string(abi.encodePacked(_baseURI, _tokenURI)) */\n      swap2\n      pop\n      pop\n      jump(tag_179)\n        /* \"contracts/token/ERC721/ERC721.sol\":6289:6399  if (bytes(_tokenURI).length > 0) {... */\n    tag_188:\n        /* \"contracts/token/ERC721/ERC721.sol\":6529:6537  _baseURI */\n      0x09\n        /* \"contracts/token/ERC721/ERC721.sol\":6539:6557  tokenId.toString() */\n      tag_191\n        /* \"contracts/token/ERC721/ERC721.sol\":6539:6546  tokenId */\n      dup5\n        /* \"contracts/token/ERC721/ERC721.sol\":6539:6555  tokenId.toString */\n      tag_192\n        /* \"contracts/token/ERC721/ERC721.sol\":6539:6557  tokenId.toString() */\n      jump\t// in\n    tag_191:\n        /* \"contracts/token/ERC721/ERC721.sol\":6512:6558  abi.encodePacked(_baseURI, tokenId.toString()) */\n      add(0x20, mload(0x40))\n      tag_193\n      swap3\n      swap2\n      swap1\n      jump(tag_190)\n    tag_193:\n      mload(0x40)\n        /* \"--CODEGEN--\":49:53   */\n      0x20\n        /* \"--CODEGEN--\":39:46   */\n      dup2\n        /* \"--CODEGEN--\":30:37   */\n      dup4\n        /* \"--CODEGEN--\":26:47   */\n      sub\n        /* \"--CODEGEN--\":22:54   */\n      sub\n        /* \"--CODEGEN--\":13:20   */\n      dup2\n        /* \"--CODEGEN--\":6:55   */\n      mstore\n        /* \"contracts/token/ERC721/ERC721.sol\":6512:6558  abi.encodePacked(_baseURI, tokenId.toString()) */\n      swap1\n      0x40\n      mstore\n        /* \"contracts/token/ERC721/ERC721.sol\":6498:6559  return string(abi.encodePacked(_baseURI, tokenId.toString())) */\n      swap2\n      pop\n      pop\n        /* \"contracts/token/ERC721/ERC721.sol\":5826:6566  function tokenURI(uint256 tokenId) public view override returns (string memory) {... */\n    tag_179:\n      swap2\n      swap1\n      pop\n      jump\t// out\n        /* \"contracts/token/ERC721/ERC721.sol\":10470:10624  function isApprovedForAll(address owner, address operator) public view override returns (bool) {... */\n    tag_96:\n        /* \"contracts/token/ERC721/ERC721.sol\":10559:10563  bool */\n      0x00\n        /* \"contracts/token/ERC721/ERC721.sol\":10582:10600  _operatorApprovals */\n      0x05\n        /* \"contracts/token/ERC721/ERC721.sol\":10582:10607  _operatorApprovals[owner] */\n      0x00\n        /* \"contracts/token/ERC721/ERC721.sol\":10601:10606  owner */\n      dup5\n        /* \"contracts/token/ERC721/ERC721.sol\":10582:10607  _operatorApprovals[owner] */\n      0xffffffffffffffffffffffffffffffffffffffff\n      and\n      0xffffffffffffffffffffffffffffffffffffffff\n      and\n      dup2\n      mstore\n      0x20\n      add\n      swap1\n      dup2\n      mstore\n      0x20\n      add\n      0x00\n      keccak256\n        /* \"contracts/token/ERC721/ERC721.sol\":10582:10617  _operatorApprovals[owner][operator] */\n      0x00\n        /* \"contracts/token/ERC721/ERC721.sol\":10608:10616  operator */\n      dup4\n        /* \"contracts/token/ERC721/ERC721.sol\":10582:10617  _operatorApprovals[owner][operator] */\n      0xffffffffffffffffffffffffffffffffffffffff\n      and\n      0xffffffffffffffffffffffffffffffffffffffff\n      and\n      dup2\n      mstore\n      0x20\n      add\n      swap1\n      dup2\n      mstore\n      0x20\n      add\n      0x00\n      keccak256\n      0x00\n      swap1\n      sload\n      swap1\n      0x0100\n      exp\n      swap1\n      div\n      0xff\n      and\n        /* \"contracts/token/ERC721/ERC721.sol\":10575:10617  return _operatorApprovals[owner][operator] */\n      swap1\n      pop\n        /* \"contracts/token/ERC721/ERC721.sol\":10470:10624  function isApprovedForAll(address owner, address operator) public view override returns (bool) {... */\n      swap3\n      swap2\n      pop\n      pop\n      jump\t// out\n        /* \"contracts/token/ERC721/ERC721.sol\":14333:14450  function _exists(uint256 tokenId) internal view returns (bool) {... */\n    tag_105:\n        /* \"contracts/token/ERC721/ERC721.sol\":14390:14394  bool */\n      0x00\n        /* \"contracts/token/ERC721/ERC721.sol\":14413:14443  _tokenOwners.contains(tokenId) */\n      tag_196\n        /* \"contracts/token/ERC721/ERC721.sol\":14435:14442  tokenId */\n      dup3\n        /* \"contracts/token/ERC721/ERC721.sol\":14413:14425  _tokenOwners */\n      0x02\n        /* \"contracts/token/ERC721/ERC721.sol\":14413:14434  _tokenOwners.contains */\n      tag_197\n      swap1\n        /* \"contracts/token/ERC721/ERC721.sol\":14413:14443  _tokenOwners.contains(tokenId) */\n      swap2\n      swap1\n      0xffffffff\n      and\n      jump\t// in\n    tag_196:\n        /* \"contracts/token/ERC721/ERC721.sol\":14406:14443  return _tokenOwners.contains(tokenId) */\n      swap1\n      pop\n        /* \"contracts/token/ERC721/ERC721.sol\":14333:14450  function _exists(uint256 tokenId) internal view returns (bool) {... */\n      swap2\n      swap1\n      pop\n      jump\t// out\n        /* \"contracts/GSN/Context.sol\":735:839  function _msgSender() internal view virtual returns (address payable) {... */\n    tag_115:\n        /* \"contracts/GSN/Context.sol\":788:803  address payable */\n      0x00\n        /* \"contracts/GSN/Context.sol\":822:832  msg.sender */\n      caller\n        /* \"contracts/GSN/Context.sol\":815:832  return msg.sender */\n      swap1\n      pop\n        /* \"contracts/GSN/Context.sol\":735:839  function _msgSender() internal view virtual returns (address payable) {... */\n      swap1\n      jump\t// out\n        /* \"contracts/token/ERC721/ERC721.sol\":21357:21512  function _approve(address to, uint256 tokenId) private {... */\n    tag_123:\n        /* \"contracts/token/ERC721/ERC721.sol\":21449:21451  to */\n      dup2\n        /* \"contracts/token/ERC721/ERC721.sol\":21422:21437  _tokenApprovals */\n      0x04\n        /* \"contracts/token/ERC721/ERC721.sol\":21422:21446  _tokenApprovals[tokenId] */\n      0x00\n        /* \"contracts/token/ERC721/ERC721.sol\":21438:21445  tokenId */\n      dup4\n        /* \"contracts/token/ERC721/ERC721.sol\":21422:21446  _tokenApprovals[tokenId] */\n      dup2\n      mstore\n      0x20\n      add\n      swap1\n      dup2\n      mstore\n      0x20\n      add\n      0x00\n      keccak256\n      0x00\n        /* \"contracts/token/ERC721/ERC721.sol\":21422:21451  _tokenApprovals[tokenId] = to */\n      0x0100\n      exp\n      dup2\n      sload\n      dup2\n      0xffffffffffffffffffffffffffffffffffffffff\n      mul\n      not\n      and\n      swap1\n      dup4\n      0xffffffffffffffffffffffffffffffffffffffff\n      and\n      mul\n      or\n      swap1\n      sstore\n      pop\n        /* \"contracts/token/ERC721/ERC721.sol\":21497:21504  tokenId */\n      dup1\n        /* \"contracts/token/ERC721/ERC721.sol\":21493:21495  to */\n      dup3\n        /* \"contracts/token/ERC721/ERC721.sol\":21466:21505  Approval(ownerOf(tokenId), to, tokenId) */\n      0xffffffffffffffffffffffffffffffffffffffff\n      and\n        /* \"contracts/token/ERC721/ERC721.sol\":21475:21491  ownerOf(tokenId) */\n      tag_200\n        /* \"contracts/token/ERC721/ERC721.sol\":21483:21490  tokenId */\n      dup4\n        /* \"contracts/token/ERC721/ERC721.sol\":21475:21482  ownerOf */\n      tag_68\n        /* \"contracts/token/ERC721/ERC721.sol\":21475:21491  ownerOf(tokenId) */\n      jump\t// in\n    tag_200:\n        /* \"contracts/token/ERC721/ERC721.sol\":21466:21505  Approval(ownerOf(tokenId), to, tokenId) */\n      0xffffffffffffffffffffffffffffffffffffffff\n      and\n      0x8c5be1e5ebec7d5bd14f71427d1e84f3dd0314c0f7b2291e5b200ac8c7c3b925\n      mload(0x40)\n      mload(0x40)\n      dup1\n      swap2\n      sub\n      swap1\n      log4\n        /* \"contracts/token/ERC721/ERC721.sol\":21357:21512  function _approve(address to, uint256 tokenId) private {... */\n      pop\n      pop\n      jump\t// out\n        /* \"contracts/utils/EnumerableMap.sol\":6990:7111  function length(UintToAddressMap storage map) internal view returns (uint256) {... */\n    tag_126:\n        /* \"contracts/utils/EnumerableMap.sol\":7059:7066  uint256 */\n      0x00\n        /* \"contracts/utils/EnumerableMap.sol\":7085:7104  _length(map._inner) */\n      tag_202\n        /* \"contracts/utils/EnumerableMap.sol\":7093:7096  map */\n      dup3\n        /* \"contracts/utils/EnumerableMap.sol\":7093:7103  map._inner */\n      0x00\n      add\n        /* \"contracts/utils/EnumerableMap.sol\":7085:7092  _length */\n      tag_203\n        /* \"contracts/utils/EnumerableMap.sol\":7085:7104  _length(map._inner) */\n      jump\t// in\n    tag_202:\n        /* \"contracts/utils/EnumerableMap.sol\":7078:7104  return _length(map._inner) */\n      swap1\n      pop\n        /* \"contracts/utils/EnumerableMap.sol\":6990:7111  function length(UintToAddressMap storage map) internal view returns (uint256) {... */\n      swap2\n      swap1\n      pop\n      jump\t// out\n        /* \"contracts/token/ERC721/ERC721.sol\":14811:15140  function _isApprovedOrOwner(address spender, uint256 tokenId) internal view returns (bool) {... */\n    tag_130:\n        /* \"contracts/token/ERC721/ERC721.sol\":14896:14900  bool */\n      0x00\n        /* \"contracts/token/ERC721/ERC721.sol\":14920:14936  _exists(tokenId) */\n      tag_205\n        /* \"contracts/token/ERC721/ERC721.sol\":14928:14935  tokenId */\n      dup3\n        /* \"contracts/token/ERC721/ERC721.sol\":14920:14927  _exists */\n      tag_105\n        /* \"contracts/token/ERC721/ERC721.sol\":14920:14936  _exists(tokenId) */\n      jump\t// in\n    tag_205:\n        /* \"contracts/token/ERC721/ERC721.sol\":14912:14985  require(_exists(tokenId), \"ERC721: operator query for nonexistent token\") */\n      tag_206\n      jumpi\n      mload(0x40)\n      0x08c379a000000000000000000000000000000000000000000000000000000000\n      dup2\n      mstore\n      0x04\n      add\n      tag_207\n      swap1\n      jump(tag_208)\n    tag_207:\n      mload(0x40)\n      dup1\n      swap2\n      sub\n      swap1\n      revert\n    tag_206:\n        /* \"contracts/token/ERC721/ERC721.sol\":14995:15008  address owner */\n      0x00\n        /* \"contracts/token/ERC721/ERC721.sol\":15011:15027  ownerOf(tokenId) */\n      tag_209\n        /* \"contracts/token/ERC721/ERC721.sol\":15019:15026  tokenId */\n      dup4\n        /* \"contracts/token/ERC721/ERC721.sol\":15011:15018  ownerOf */\n      tag_68\n        /* \"contracts/token/ERC721/ERC721.sol\":15011:15027  ownerOf(tokenId) */\n      jump\t// in\n    tag_209:\n        /* \"contracts/token/ERC721/ERC721.sol\":14995:15027  address owner = ownerOf(tokenId) */\n      swap1\n      pop\n        /* \"contracts/token/ERC721/ERC721.sol\":15056:15061  owner */\n      dup1\n        /* \"contracts/token/ERC721/ERC721.sol\":15045:15061  spender == owner */\n      0xffffffffffffffffffffffffffffffffffffffff\n      and\n        /* \"contracts/token/ERC721/ERC721.sol\":15045:15052  spender */\n      dup5\n        /* \"contracts/token/ERC721/ERC721.sol\":15045:15061  spender == owner */\n      0xffffffffffffffffffffffffffffffffffffffff\n      and\n      eq\n        /* \"contracts/token/ERC721/ERC721.sol\":15045:15096  spender == owner || getApproved(tokenId) == spender */\n      dup1\n      tag_210\n      jumpi\n      pop\n        /* \"contracts/token/ERC721/ERC721.sol\":15089:15096  spender */\n      dup4\n        /* \"contracts/token/ERC721/ERC721.sol\":15065:15096  getApproved(tokenId) == spender */\n      0xffffffffffffffffffffffffffffffffffffffff\n      and\n        /* \"contracts/token/ERC721/ERC721.sol\":15065:15085  getApproved(tokenId) */\n      tag_211\n        /* \"contracts/token/ERC721/ERC721.sol\":15077:15084  tokenId */\n      dup5\n        /* \"contracts/token/ERC721/ERC721.sol\":15065:15076  getApproved */\n      tag_37\n        /* \"contracts/token/ERC721/ERC721.sol\":15065:15085  getApproved(tokenId) */\n      jump\t// in\n    tag_211:\n        /* \"contracts/token/ERC721/ERC721.sol\":15065:15096  getApproved(tokenId) == spender */\n      0xffffffffffffffffffffffffffffffffffffffff\n      and\n      eq\n        /* \"contracts/token/ERC721/ERC721.sol\":15045:15096  spender == owner || getApproved(tokenId) == spender */\n    tag_210:\n        /* \"contracts/token/ERC721/ERC721.sol\":15045:15132  spender == owner || getApproved(tokenId) == spender || isApprovedForAll(owner, spender) */\n      dup1\n      tag_212\n      jumpi\n      pop\n        /* \"contracts/token/ERC721/ERC721.sol\":15100:15132  isApprovedForAll(owner, spender) */\n      tag_213\n        /* \"contracts/token/ERC721/ERC721.sol\":15117:15122  owner */\n      dup2\n        /* \"contracts/token/ERC721/ERC721.sol\":15124:15131  spender */\n      dup6\n        /* \"contracts/token/ERC721/ERC721.sol\":15100:15116  isApprovedForAll */\n      tag_96\n        /* \"contracts/token/ERC721/ERC721.sol\":15100:15132  isApprovedForAll(owner, spender) */\n      jump\t// in\n    tag_213:\n        /* \"contracts/token/ERC721/ERC721.sol\":15045:15132  spender == owner || getApproved(tokenId) == spender || isApprovedForAll(owner, spender) */\n    tag_212:\n        /* \"contracts/token/ERC721/ERC721.sol\":15037:15133  return (spender == owner || getApproved(tokenId) == spender || isApprovedForAll(owner, spender)) */\n      swap2\n      pop\n      pop\n        /* \"contracts/token/ERC721/ERC721.sol\":14811:15140  function _isApprovedOrOwner(address spender, uint256 tokenId) internal view returns (bool) {... */\n      swap3\n      swap2\n      pop\n      pop\n      jump\t// out\n        /* \"contracts/token/ERC721/ERC721.sol\":18323:18882  function _transfer(address from, address to, uint256 tokenId) internal virtual {... */\n    tag_135:\n        /* \"contracts/token/ERC721/ERC721.sol\":18440:18444  from */\n      dup3\n        /* \"contracts/token/ERC721/ERC721.sol\":18420:18444  ownerOf(tokenId) == from */\n      0xffffffffffffffffffffffffffffffffffffffff\n      and\n        /* \"contracts/token/ERC721/ERC721.sol\":18420:18436  ownerOf(tokenId) */\n      tag_215\n        /* \"contracts/token/ERC721/ERC721.sol\":18428:18435  tokenId */\n      dup3\n        /* \"contracts/token/ERC721/ERC721.sol\":18420:18427  ownerOf */\n      tag_68\n        /* \"contracts/token/ERC721/ERC721.sol\":18420:18436  ownerOf(tokenId) */\n      jump\t// in\n    tag_215:\n        /* \"contracts/token/ERC721/ERC721.sol\":18420:18444  ownerOf(tokenId) == from */\n      0xffffffffffffffffffffffffffffffffffffffff\n      and\n      eq\n        /* \"contracts/token/ERC721/ERC721.sol\":18412:18490  require(ownerOf(tokenId) == from, \"ERC721: transfer of token that is not own\") */\n      tag_216\n      jumpi\n      mload(0x40)\n      0x08c379a000000000000000000000000000000000000000000000000000000000\n      dup2\n      mstore\n      0x04\n      add\n      tag_217\n      swap1\n      jump(tag_218)\n    tag_217:\n      mload(0x40)\n      dup1\n      swap2\n      sub\n      swap1\n      revert\n    tag_216:\n        /* \"contracts/token/ERC721/ERC721.sol\":18522:18523  0 */\n      0x00\n        /* \"contracts/token/ERC721/ERC721.sol\":18508:18524  to != address(0) */\n      0xffffffffffffffffffffffffffffffffffffffff\n      and\n        /* \"contracts/token/ERC721/ERC721.sol\":18508:18510  to */\n      dup3\n        /* \"contracts/token/ERC721/ERC721.sol\":18508:18524  to != address(0) */\n      0xffffffffffffffffffffffffffffffffffffffff\n      and\n      eq\n      iszero\n        /* \"contracts/token/ERC721/ERC721.sol\":18500:18565  require(to != address(0), \"ERC721: transfer to the zero address\") */\n      tag_219\n      jumpi\n      mload(0x40)\n      0x08c379a000000000000000000000000000000000000000000000000000000000\n      dup2\n      mstore\n      0x04\n      add\n      tag_220\n      swap1\n      jump(tag_221)\n    tag_220:\n      mload(0x40)\n      dup1\n      swap2\n      sub\n      swap1\n      revert\n    tag_219:\n        /* \"contracts/token/ERC721/ERC721.sol\":18576:18615  _beforeTokenTransfer(from, to, tokenId) */\n      tag_222\n        /* \"contracts/token/ERC721/ERC721.sol\":18597:18601  from */\n      dup4\n        /* \"contracts/token/ERC721/ERC721.sol\":18603:18605  to */\n      dup4\n        /* \"contracts/token/ERC721/ERC721.sol\":18607:18614  tokenId */\n      dup4\n        /* \"contracts/token/ERC721/ERC721.sol\":18576:18596  _beforeTokenTransfer */\n      tag_223\n        /* \"contracts/token/ERC721/ERC721.sol\":18576:18615  _beforeTokenTransfer(from, to, tokenId) */\n      jump\t// in\n    tag_222:\n        /* \"contracts/token/ERC721/ERC721.sol\":18677:18706  _approve(address(0), tokenId) */\n      tag_224\n        /* \"contracts/token/ERC721/ERC721.sol\":18694:18695  0 */\n      0x00\n        /* \"contracts/token/ERC721/ERC721.sol\":18698:18705  tokenId */\n      dup3\n        /* \"contracts/token/ERC721/ERC721.sol\":18677:18685  _approve */\n      tag_123\n        /* \"contracts/token/ERC721/ERC721.sol\":18677:18706  _approve(address(0), tokenId) */\n      jump\t// in\n    tag_224:\n        /* \"contracts/token/ERC721/ERC721.sol\":18717:18752  _holderTokens[from].remove(tokenId) */\n      tag_225\n        /* \"contracts/token/ERC721/ERC721.sol\":18744:18751  tokenId */\n      dup2\n        /* \"contracts/token/ERC721/ERC721.sol\":18717:18730  _holderTokens */\n      0x01\n        /* \"contracts/token/ERC721/ERC721.sol\":18717:18736  _holderTokens[from] */\n      0x00\n        /* \"contracts/token/ERC721/ERC721.sol\":18731:18735  from */\n      dup7\n        /* \"contracts/token/ERC721/ERC721.sol\":18717:18736  _holderTokens[from] */\n      0xffffffffffffffffffffffffffffffffffffffff\n      and\n      0xffffffffffffffffffffffffffffffffffffffff\n      and\n      dup2\n      mstore\n      0x20\n      add\n      swap1\n      dup2\n      mstore\n      0x20\n      add\n      0x00\n      keccak256\n        /* \"contracts/token/ERC721/ERC721.sol\":18717:18743  _holderTokens[from].remove */\n      tag_226\n      swap1\n        /* \"contracts/token/ERC721/ERC721.sol\":18717:18752  _holderTokens[from].remove(tokenId) */\n      swap2\n      swap1\n      0xffffffff\n      and\n      jump\t// in\n    tag_225:\n      pop\n        /* \"contracts/token/ERC721/ERC721.sol\":18762:18792  _holderTokens[to].add(tokenId) */\n      tag_227\n        /* \"contracts/token/ERC721/ERC721.sol\":18784:18791  tokenId */\n      dup2\n        /* \"contracts/token/ERC721/ERC721.sol\":18762:18775  _holderTokens */\n      0x01\n        /* \"contracts/token/ERC721/ERC721.sol\":18762:18779  _holderTokens[to] */\n      0x00\n        /* \"contracts/token/ERC721/ERC721.sol\":18776:18778  to */\n      dup6\n        /* \"contracts/token/ERC721/ERC721.sol\":18762:18779  _holderTokens[to] */\n      0xffffffffffffffffffffffffffffffffffffffff\n      and\n      0xffffffffffffffffffffffffffffffffffffffff\n      and\n      dup2\n      mstore\n      0x20\n      add\n      swap1\n      dup2\n      mstore\n      0x20\n      add\n      0x00\n      keccak256\n        /* \"contracts/token/ERC721/ERC721.sol\":18762:18783  _holderTokens[to].add */\n      tag_228\n      swap1\n        /* \"contracts/token/ERC721/ERC721.sol\":18762:18792  _holderTokens[to].add(tokenId) */\n      swap2\n      swap1\n      0xffffffff\n      and\n      jump\t// in\n    tag_227:\n      pop\n        /* \"contracts/token/ERC721/ERC721.sol\":18803:18832  _tokenOwners.set(tokenId, to) */\n      tag_229\n        /* \"contracts/token/ERC721/ERC721.sol\":18820:18827  tokenId */\n      dup2\n        /* \"contracts/token/ERC721/ERC721.sol\":18829:18831  to */\n      dup4\n        /* \"contracts/token/ERC721/ERC721.sol\":18803:18815  _tokenOwners */\n      0x02\n        /* \"contracts/token/ERC721/ERC721.sol\":18803:18819  _tokenOwners.set */\n      tag_230\n      swap1\n        /* \"contracts/token/ERC721/ERC721.sol\":18803:18832  _tokenOwners.set(tokenId, to) */\n      swap3\n      swap2\n      swap1\n      0xffffffff\n      and\n      jump\t// in\n    tag_229:\n      pop\n        /* \"contracts/token/ERC721/ERC721.sol\":18867:18874  tokenId */\n      dup1\n        /* \"contracts/token/ERC721/ERC721.sol\":18863:18865  to */\n      dup3\n        /* \"contracts/token/ERC721/ERC721.sol\":18848:18875  Transfer(from, to, tokenId) */\n      0xffffffffffffffffffffffffffffffffffffffff\n      and\n        /* \"contracts/token/ERC721/ERC721.sol\":18857:18861  from */\n      dup5\n        /* \"contracts/token/ERC721/ERC721.sol\":18848:18875  Transfer(from, to, tokenId) */\n      0xffffffffffffffffffffffffffffffffffffffff\n      and\n      0xddf252ad1be2c89b69c2b068fc378daa952ba7f163c4a11628f55a4df523b3ef\n      mload(0x40)\n      mload(0x40)\n      dup1\n      swap2\n      sub\n      swap1\n      log4\n        /* \"contracts/token/ERC721/ERC721.sol\":18323:18882  function _transfer(address from, address to, uint256 tokenId) internal virtual {... */\n      pop\n      pop\n      pop\n      jump\t// out\n        /* \"contracts/utils/EnumerableSet.sol\":7616:7751  function at(UintSet storage set, uint256 index) internal view returns (uint256) {... */\n    tag_138:\n        /* \"contracts/utils/EnumerableSet.sol\":7687:7694  uint256 */\n      0x00\n        /* \"contracts/utils/EnumerableSet.sol\":7721:7743  _at(set._inner, index) */\n      tag_232\n        /* \"contracts/utils/EnumerableSet.sol\":7725:7728  set */\n      dup4\n        /* \"contracts/utils/EnumerableSet.sol\":7725:7735  set._inner */\n      0x00\n      add\n        /* \"contracts/utils/EnumerableSet.sol\":7737:7742  index */\n      dup4\n        /* \"contracts/utils/EnumerableSet.sol\":7721:7724  _at */\n      tag_233\n        /* \"contracts/utils/EnumerableSet.sol\":7721:7743  _at(set._inner, index) */\n      jump\t// in\n    tag_232:\n        /* \"contracts/utils/EnumerableSet.sol\":7713:7744  uint256(_at(set._inner, index)) */\n      0x00\n      shr\n        /* \"contracts/utils/EnumerableSet.sol\":7706:7744  return uint256(_at(set._inner, index)) */\n      swap1\n      pop\n        /* \"contracts/utils/EnumerableSet.sol\":7616:7751  function at(UintSet storage set, uint256 index) internal view returns (uint256) {... */\n      swap3\n      swap2\n      pop\n      pop\n      jump\t// out\n        /* \"contracts/token/ERC721/ERC721.sol\":16870:17263  function _mint(address to, uint256 tokenId) internal virtual {... */\n    tag_141:\n        /* \"contracts/token/ERC721/ERC721.sol\":16963:16964  0 */\n      0x00\n        /* \"contracts/token/ERC721/ERC721.sol\":16949:16965  to != address(0) */\n      0xffffffffffffffffffffffffffffffffffffffff\n      and\n        /* \"contracts/token/ERC721/ERC721.sol\":16949:16951  to */\n      dup3\n        /* \"contracts/token/ERC721/ERC721.sol\":16949:16965  to != address(0) */\n      0xffffffffffffffffffffffffffffffffffffffff\n      and\n      eq\n      iszero\n        /* \"contracts/token/ERC721/ERC721.sol\":16941:17002  require(to != address(0), \"ERC721: mint to the zero address\") */\n      tag_235\n      jumpi\n      mload(0x40)\n      0x08c379a000000000000000000000000000000000000000000000000000000000\n      dup2\n      mstore\n      0x04\n      add\n      tag_236\n      swap1\n      jump(tag_237)\n    tag_236:\n      mload(0x40)\n      dup1\n      swap2\n      sub\n      swap1\n      revert\n    tag_235:\n        /* \"contracts/token/ERC721/ERC721.sol\":17021:17037  _exists(tokenId) */\n      tag_238\n        /* \"contracts/token/ERC721/ERC721.sol\":17029:17036  tokenId */\n      dup2\n        /* \"contracts/token/ERC721/ERC721.sol\":17021:17028  _exists */\n      tag_105\n        /* \"contracts/token/ERC721/ERC721.sol\":17021:17037  _exists(tokenId) */\n      jump\t// in\n    tag_238:\n        /* \"contracts/token/ERC721/ERC721.sol\":17020:17037  !_exists(tokenId) */\n      iszero\n        /* \"contracts/token/ERC721/ERC721.sol\":17012:17070  require(!_exists(tokenId), \"ERC721: token already minted\") */\n      tag_239\n      jumpi\n      mload(0x40)\n      0x08c379a000000000000000000000000000000000000000000000000000000000\n      dup2\n      mstore\n      0x04\n      add\n      tag_240\n      swap1\n      jump(tag_241)\n    tag_240:\n      mload(0x40)\n      dup1\n      swap2\n      sub\n      swap1\n      revert\n    tag_239:\n        /* \"contracts/token/ERC721/ERC721.sol\":17081:17126  _beforeTokenTransfer(address(0), to, tokenId) */\n      tag_242\n        /* \"contracts/token/ERC721/ERC721.sol\":17110:17111  0 */\n      0x00\n        /* \"contracts/token/ERC721/ERC721.sol\":17114:17116  to */\n      dup4\n        /* \"contracts/token/ERC721/ERC721.sol\":17118:17125  tokenId */\n      dup4\n        /* \"contracts/token/ERC721/ERC721.sol\":17081:17101  _beforeTokenTransfer */\n      tag_223\n        /* \"contracts/token/ERC721/ERC721.sol\":17081:17126  _beforeTokenTransfer(address(0), to, tokenId) */\n      jump\t// in\n    tag_242:\n        /* \"contracts/token/ERC721/ERC721.sol\":17137:17167  _holderTokens[to].add(tokenId) */\n      tag_243\n        /* \"contracts/token/ERC721/ERC721.sol\":17159:17166  tokenId */\n      dup2\n        /* \"contracts/token/ERC721/ERC721.sol\":17137:17150  _holderTokens */\n      0x01\n        /* \"contracts/token/ERC721/ERC721.sol\":17137:17154  _holderTokens[to] */\n      0x00\n        /* \"contracts/token/ERC721/ERC721.sol\":17151:17153  to */\n      dup6\n        /* \"contracts/token/ERC721/ERC721.sol\":17137:17154  _holderTokens[to] */\n      0xffffffffffffffffffffffffffffffffffffffff\n      and\n      0xffffffffffffffffffffffffffffffffffffffff\n      and\n      dup2\n      mstore\n      0x20\n      add\n      swap1\n      dup2\n      mstore\n      0x20\n      add\n      0x00\n      keccak256\n        /* \"contracts/token/ERC721/ERC721.sol\":17137:17158  _holderTokens[to].add */\n      tag_228\n      swap1\n        /* \"contracts/token/ERC721/ERC721.sol\":17137:17167  _holderTokens[to].add(tokenId) */\n      swap2\n      swap1\n      0xffffffff\n      and\n      jump\t// in\n    tag_243:\n      pop\n        /* \"contracts/token/ERC721/ERC721.sol\":17178:17207  _tokenOwners.set(tokenId, to) */\n      tag_244\n        /* \"contracts/token/ERC721/ERC721.sol\":17195:17202  tokenId */\n      dup2\n        /* \"contracts/token/ERC721/ERC721.sol\":17204:17206  to */\n      dup4\n        /* \"contracts/token/ERC721/ERC721.sol\":17178:17190  _tokenOwners */\n      0x02\n        /* \"contracts/token/ERC721/ERC721.sol\":17178:17194  _tokenOwners.set */\n      tag_230\n      swap1\n        /* \"contracts/token/ERC721/ERC721.sol\":17178:17207  _tokenOwners.set(tokenId, to) */\n      swap3\n      swap2\n      swap1\n      0xffffffff\n      and\n      jump\t// in\n    tag_244:\n      pop\n        /* \"contracts/token/ERC721/ERC721.sol\":17248:17255  tokenId */\n      dup1\n        /* \"contracts/token/ERC721/ERC721.sol\":17244:17246  to */\n      dup3\n        /* \"contracts/token/ERC721/ERC721.sol\":17223:17256  Transfer(address(0), to, tokenId) */\n      0xffffffffffffffffffffffffffffffffffffffff\n      and\n        /* \"contracts/token/ERC721/ERC721.sol\":17240:17241  0 */\n      0x00\n        /* \"contracts/token/ERC721/ERC721.sol\":17223:17256  Transfer(address(0), to, tokenId) */\n      0xffffffffffffffffffffffffffffffffffffffff\n      and\n      0xddf252ad1be2c89b69c2b068fc378daa952ba7f163c4a11628f55a4df523b3ef\n      mload(0x40)\n      mload(0x40)\n      dup1\n      swap2\n      sub\n      swap1\n      log4\n        /* \"contracts/token/ERC721/ERC721.sol\":16870:17263  function _mint(address to, uint256 tokenId) internal virtual {... */\n      pop\n      pop\n      jump\t// out\n        /* \"contracts/utils/EnumerableMap.sol\":7439:7663  function at(UintToAddressMap storage map, uint256 index) internal view returns (uint256, address) {... */\n    tag_146:\n        /* \"contracts/utils/EnumerableMap.sol\":7519:7526  uint256 */\n      0x00\n        /* \"contracts/utils/EnumerableMap.sol\":7528:7535  address */\n      dup1\n        /* \"contracts/utils/EnumerableMap.sol\":7548:7559  bytes32 key */\n      0x00\n        /* \"contracts/utils/EnumerableMap.sol\":7561:7574  bytes32 value */\n      dup1\n        /* \"contracts/utils/EnumerableMap.sol\":7578:7600  _at(map._inner, index) */\n      tag_246\n        /* \"contracts/utils/EnumerableMap.sol\":7582:7585  map */\n      dup7\n        /* \"contracts/utils/EnumerableMap.sol\":7582:7592  map._inner */\n      0x00\n      add\n        /* \"contracts/utils/EnumerableMap.sol\":7594:7599  index */\n      dup7\n        /* \"contracts/utils/EnumerableMap.sol\":7578:7581  _at */\n      tag_247\n        /* \"contracts/utils/EnumerableMap.sol\":7578:7600  _at(map._inner, index) */\n      jump\t// in\n    tag_246:\n        /* \"contracts/utils/EnumerableMap.sol\":7547:7600  (bytes32 key, bytes32 value) = _at(map._inner, index) */\n      swap2\n      pop\n      swap2\n      pop\n        /* \"contracts/utils/EnumerableMap.sol\":7626:7629  key */\n      dup2\n        /* \"contracts/utils/EnumerableMap.sol\":7618:7630  uint256(key) */\n      0x00\n      shr\n        /* \"contracts/utils/EnumerableMap.sol\":7648:7653  value */\n      dup2\n        /* \"contracts/utils/EnumerableMap.sol\":7640:7654  uint256(value) */\n      0x00\n      shr\n        /* \"contracts/utils/EnumerableMap.sol\":7610:7656  return (uint256(key), address(uint256(value))) */\n      dup1\n      swap1\n      pop\n      swap4\n      pop\n      swap4\n      pop\n      pop\n      pop\n        /* \"contracts/utils/EnumerableMap.sol\":7439:7663  function at(UintToAddressMap storage map, uint256 index) internal view returns (uint256, address) {... */\n      swap3\n      pop\n      swap3\n      swap1\n      pop\n      jump\t// out\n        /* \"contracts/utils/EnumerableMap.sol\":8082:8284  function get(UintToAddressMap storage map, uint256 key, string memory errorMessage) internal view returns (address) {... */\n    tag_149:\n        /* \"contracts/utils/EnumerableMap.sol\":8189:8196  address */\n      0x00\n        /* \"contracts/utils/EnumerableMap.sol\":8231:8275  _get(map._inner, bytes32(key), errorMessage) */\n      tag_249\n        /* \"contracts/utils/EnumerableMap.sol\":8236:8239  map */\n      dup5\n        /* \"contracts/utils/EnumerableMap.sol\":8236:8246  map._inner */\n      0x00\n      add\n        /* \"contracts/utils/EnumerableMap.sol\":8256:8259  key */\n      dup5\n        /* \"contracts/utils/EnumerableMap.sol\":8248:8260  bytes32(key) */\n      0x00\n      shl\n        /* \"contracts/utils/EnumerableMap.sol\":8262:8274  errorMessage */\n      dup5\n        /* \"contracts/utils/EnumerableMap.sol\":8231:8235  _get */\n      tag_250\n        /* \"contracts/utils/EnumerableMap.sol\":8231:8275  _get(map._inner, bytes32(key), errorMessage) */\n      jump\t// in\n    tag_249:\n        /* \"contracts/utils/EnumerableMap.sol\":8223:8276  uint256(_get(map._inner, bytes32(key), errorMessage)) */\n      0x00\n      shr\n        /* \"contracts/utils/EnumerableMap.sol\":8208:8277  return address(uint256(_get(map._inner, bytes32(key), errorMessage))) */\n      swap1\n      pop\n        /* \"contracts/utils/EnumerableMap.sol\":8082:8284  function get(UintToAddressMap storage map, uint256 key, string memory errorMessage) internal view returns (address) {... */\n      swap4\n      swap3\n      pop\n      pop\n      pop\n      jump\t// out\n        /* \"contracts/utils/EnumerableSet.sol\":7172:7284  function length(UintSet storage set) internal view returns (uint256) {... */\n    tag_159:\n        /* \"contracts/utils/EnumerableSet.sol\":7232:7239  uint256 */\n      0x00\n        /* \"contracts/utils/EnumerableSet.sol\":7258:7277  _length(set._inner) */\n      tag_252\n        /* \"contracts/utils/EnumerableSet.sol\":7266:7269  set */\n      dup3\n        /* \"contracts/utils/EnumerableSet.sol\":7266:7276  set._inner */\n      0x00\n      add\n        /* \"contracts/utils/EnumerableSet.sol\":7258:7265  _length */\n      tag_253\n        /* \"contracts/utils/EnumerableSet.sol\":7258:7277  _length(set._inner) */\n      jump\t// in\n    tag_252:\n        /* \"contracts/utils/EnumerableSet.sol\":7251:7277  return _length(set._inner) */\n      swap1\n      pop\n        /* \"contracts/utils/EnumerableSet.sol\":7172:7284  function length(UintSet storage set) internal view returns (uint256) {... */\n      swap2\n      swap1\n      pop\n      jump\t// out\n        /* \"contracts/token/ERC721/ERC721.sol\":13869:14138  function _safeTransfer(address from, address to, uint256 tokenId, bytes memory _data) internal virtual {... */\n    tag_178:\n        /* \"contracts/token/ERC721/ERC721.sol\":13982:14010  _transfer(from, to, tokenId) */\n      tag_255\n        /* \"contracts/token/ERC721/ERC721.sol\":13992:13996  from */\n      dup5\n        /* \"contracts/token/ERC721/ERC721.sol\":13998:14000  to */\n      dup5\n        /* \"contracts/token/ERC721/ERC721.sol\":14002:14009  tokenId */\n      dup5\n        /* \"contracts/token/ERC721/ERC721.sol\":13982:13991  _transfer */\n      tag_135\n        /* \"contracts/token/ERC721/ERC721.sol\":13982:14010  _transfer(from, to, tokenId) */\n      jump\t// in\n    tag_255:\n        /* \"contracts/token/ERC721/ERC721.sol\":14028:14076  _checkOnERC721Received(from, to, tokenId, _data) */\n      tag_256\n        /* \"contracts/token/ERC721/ERC721.sol\":14051:14055  from */\n      dup5\n        /* \"contracts/token/ERC721/ERC721.sol\":14057:14059  to */\n      dup5\n        /* \"contracts/token/ERC721/ERC721.sol\":14061:14068  tokenId */\n      dup5\n        /* \"contracts/token/ERC721/ERC721.sol\":14070:14075  _data */\n      dup5\n        /* \"contracts/token/ERC721/ERC721.sol\":14028:14050  _checkOnERC721Received */\n      tag_257\n        /* \"contracts/token/ERC721/ERC721.sol\":14028:14076  _checkOnERC721Received(from, to, tokenId, _data) */\n      jump\t// in\n    tag_256:\n        /* \"contracts/token/ERC721/ERC721.sol\":14020:14131  require(_checkOnERC721Received(from, to, tokenId, _data), \"ERC721: transfer to non ERC721Receiver implementer\") */\n      tag_258\n      jumpi\n      mload(0x40)\n      0x08c379a000000000000000000000000000000000000000000000000000000000\n      dup2\n      mstore\n      0x04\n      add\n      tag_259\n      swap1\n      jump(tag_260)\n    tag_259:\n      mload(0x40)\n      dup1\n      swap2\n      sub\n      swap1\n      revert\n    tag_258:\n        /* \"contracts/token/ERC721/ERC721.sol\":13869:14138  function _safeTransfer(address from, address to, uint256 tokenId, bytes memory _data) internal virtual {... */\n      pop\n      pop\n      pop\n      pop\n      jump\t// out\n        /* \"contracts/utils/Strings.sol\":169:892  function toString(uint256 value) internal pure returns (string memory) {... */\n    tag_192:\n        /* \"contracts/utils/Strings.sol\":225:238  string memory */\n      0x60\n        /* \"contracts/utils/Strings.sol\":451:452  0 */\n      0x00\n        /* \"contracts/utils/Strings.sol\":442:447  value */\n      dup3\n        /* \"contracts/utils/Strings.sol\":442:452  value == 0 */\n      eq\n        /* \"contracts/utils/Strings.sol\":438:489  if (value == 0) {... */\n      iszero\n      tag_262\n      jumpi\n        /* \"contracts/utils/Strings.sol\":468:478  return \"0\" */\n      mload(0x40)\n      dup1\n      0x40\n      add\n      0x40\n      mstore\n      dup1\n      0x01\n      dup2\n      mstore\n      0x20\n      add\n      0x3000000000000000000000000000000000000000000000000000000000000000\n      dup2\n      mstore\n      pop\n      swap1\n      pop\n      jump(tag_261)\n        /* \"contracts/utils/Strings.sol\":438:489  if (value == 0) {... */\n    tag_262:\n        /* \"contracts/utils/Strings.sol\":498:510  uint256 temp */\n      0x00\n        /* \"contracts/utils/Strings.sol\":513:518  value */\n      dup3\n        /* \"contracts/utils/Strings.sol\":498:518  uint256 temp = value */\n      swap1\n      pop\n        /* \"contracts/utils/Strings.sol\":528:542  uint256 digits */\n      0x00\n        /* \"contracts/utils/Strings.sol\":552:627  while (temp != 0) {... */\n    tag_263:\n        /* \"contracts/utils/Strings.sol\":567:568  0 */\n      0x00\n        /* \"contracts/utils/Strings.sol\":559:563  temp */\n      dup3\n        /* \"contracts/utils/Strings.sol\":559:568  temp != 0 */\n      eq\n        /* \"contracts/utils/Strings.sol\":552:627  while (temp != 0) {... */\n      tag_264\n      jumpi\n        /* \"contracts/utils/Strings.sol\":584:592  digits++ */\n      dup1\n      dup1\n      0x01\n      add\n      swap2\n      pop\n      pop\n        /* \"contracts/utils/Strings.sol\":614:616  10 */\n      0x0a\n        /* \"contracts/utils/Strings.sol\":606:616  temp /= 10 */\n      dup3\n      dup2\n      tag_265\n      jumpi\n      invalid\n    tag_265:\n      div\n      swap2\n      pop\n        /* \"contracts/utils/Strings.sol\":552:627  while (temp != 0) {... */\n      jump(tag_263)\n    tag_264:\n        /* \"contracts/utils/Strings.sol\":636:655  bytes memory buffer */\n      0x60\n        /* \"contracts/utils/Strings.sol\":668:674  digits */\n      dup2\n        /* \"contracts/utils/Strings.sol\":658:675  new bytes(digits) */\n      mload(0x40)\n      swap1\n      dup1\n      dup3\n      mstore\n      dup1\n      0x1f\n      add\n      not(0x1f)\n      and\n      0x20\n      add\n      dup3\n      add\n      0x40\n      mstore\n      dup1\n      iszero\n      tag_266\n      jumpi\n      dup2\n      0x20\n      add\n        /* \"--CODEGEN--\":29:30   */\n      0x01\n        /* \"--CODEGEN--\":21:27   */\n      dup3\n        /* \"--CODEGEN--\":17:31   */\n      mul\n        /* \"--CODEGEN--\":124:128   */\n      dup1\n        /* \"--CODEGEN--\":108:122   */\n      calldatasize\n        /* \"--CODEGEN--\":100:106   */\n      dup4\n        /* \"--CODEGEN--\":87:129   */\n      calldatacopy\n        /* \"--CODEGEN--\":155:159   */\n      dup1\n        /* \"--CODEGEN--\":147:153   */\n      dup3\n        /* \"--CODEGEN--\":143:160   */\n      add\n        /* \"--CODEGEN--\":133:160   */\n      swap2\n      pop\n        /* \"--CODEGEN--\":0:164   */\n      pop\n        /* \"contracts/utils/Strings.sol\":658:675  new bytes(digits) */\n      swap1\n      pop\n    tag_266:\n      pop\n        /* \"contracts/utils/Strings.sol\":636:675  bytes memory buffer = new bytes(digits) */\n      swap1\n      pop\n        /* \"contracts/utils/Strings.sol\":685:698  uint256 index */\n      0x00\n        /* \"contracts/utils/Strings.sol\":710:711  1 */\n      0x01\n        /* \"contracts/utils/Strings.sol\":701:707  digits */\n      dup4\n        /* \"contracts/utils/Strings.sol\":701:711  digits - 1 */\n      sub\n        /* \"contracts/utils/Strings.sol\":685:711  uint256 index = digits - 1 */\n      swap1\n      pop\n        /* \"contracts/utils/Strings.sol\":728:733  value */\n      dup6\n        /* \"contracts/utils/Strings.sol\":721:733  temp = value */\n      swap4\n      pop\n        /* \"contracts/utils/Strings.sol\":743:855  while (temp != 0) {... */\n    tag_267:\n        /* \"contracts/utils/Strings.sol\":758:759  0 */\n      0x00\n        /* \"contracts/utils/Strings.sol\":750:754  temp */\n      dup5\n        /* \"contracts/utils/Strings.sol\":750:759  temp != 0 */\n      eq\n        /* \"contracts/utils/Strings.sol\":743:855  while (temp != 0) {... */\n      tag_268\n      jumpi\n        /* \"contracts/utils/Strings.sol\":816:818  10 */\n      0x0a\n        /* \"contracts/utils/Strings.sol\":809:813  temp */\n      dup5\n        /* \"contracts/utils/Strings.sol\":809:818  temp % 10 */\n      dup2\n      tag_269\n      jumpi\n      invalid\n    tag_269:\n      mod\n        /* \"contracts/utils/Strings.sol\":804:806  48 */\n      0x30\n        /* \"contracts/utils/Strings.sol\":804:818  48 + temp % 10 */\n      add\n        /* \"contracts/utils/Strings.sol\":793:820  byte(uint8(48 + temp % 10)) */\n      0xf8\n      shl\n        /* \"contracts/utils/Strings.sol\":775:781  buffer */\n      dup3\n        /* \"contracts/utils/Strings.sol\":782:789  index-- */\n      dup3\n      dup1\n      0x01\n      swap1\n      sub\n      swap4\n      pop\n        /* \"contracts/utils/Strings.sol\":775:790  buffer[index--] */\n      dup2\n      mload\n      dup2\n      lt\n      tag_270\n      jumpi\n      invalid\n    tag_270:\n      0x20\n      add\n      add\n        /* \"contracts/utils/Strings.sol\":775:820  buffer[index--] = byte(uint8(48 + temp % 10)) */\n      swap1\n      not(0xffffffffffffffffffffffffffffffffffffffffffffffffffffffffffffff)\n      and\n      swap1\n      dup2\n      0x00\n      byte\n      swap1\n      mstore8\n      pop\n        /* \"contracts/utils/Strings.sol\":842:844  10 */\n      0x0a\n        /* \"contracts/utils/Strings.sol\":834:844  temp /= 10 */\n      dup5\n      dup2\n      tag_271\n      jumpi\n      invalid\n    tag_271:\n      div\n      swap4\n      pop\n        /* \"contracts/utils/Strings.sol\":743:855  while (temp != 0) {... */\n      jump(tag_267)\n    tag_268:\n        /* \"contracts/utils/Strings.sol\":878:884  buffer */\n      dup2\n        /* \"contracts/utils/Strings.sol\":864:885  return string(buffer) */\n      swap5\n      pop\n      pop\n      pop\n      pop\n      pop\n        /* \"contracts/utils/Strings.sol\":169:892  function toString(uint256 value) internal pure returns (string memory) {... */\n    tag_261:\n      swap2\n      swap1\n      pop\n      jump\t// out\n        /* \"contracts/utils/EnumerableMap.sol\":6758:6907  function contains(UintToAddressMap storage map, uint256 key) internal view returns (bool) {... */\n    tag_197:\n        /* \"contracts/utils/EnumerableMap.sol\":6842:6846  bool */\n      0x00\n        /* \"contracts/utils/EnumerableMap.sol\":6865:6900  _contains(map._inner, bytes32(key)) */\n      tag_273\n        /* \"contracts/utils/EnumerableMap.sol\":6875:6878  map */\n      dup4\n        /* \"contracts/utils/EnumerableMap.sol\":6875:6885  map._inner */\n      0x00\n      add\n        /* \"contracts/utils/EnumerableMap.sol\":6895:6898  key */\n      dup4\n        /* \"contracts/utils/EnumerableMap.sol\":6887:6899  bytes32(key) */\n      0x00\n      shl\n        /* \"contracts/utils/EnumerableMap.sol\":6865:6874  _contains */\n      tag_274\n        /* \"contracts/utils/EnumerableMap.sol\":6865:6900  _contains(map._inner, bytes32(key)) */\n      jump\t// in\n    tag_273:\n        /* \"contracts/utils/EnumerableMap.sol\":6858:6900  return _contains(map._inner, bytes32(key)) */\n      swap1\n      pop\n        /* \"contracts/utils/EnumerableMap.sol\":6758:6907  function contains(UintToAddressMap storage map, uint256 key) internal view returns (bool) {... */\n      swap3\n      swap2\n      pop\n      pop\n      jump\t// out\n        /* \"contracts/utils/EnumerableMap.sol\":4450:4558  function _length(Map storage map) private view returns (uint256) {... */\n    tag_203:\n        /* \"contracts/utils/EnumerableMap.sol\":4506:4513  uint256 */\n      0x00\n        /* \"contracts/utils/EnumerableMap.sol\":4532:4535  map */\n      dup2\n        /* \"contracts/utils/EnumerableMap.sol\":4532:4544  map._entries */\n      0x00\n      add\n        /* \"contracts/utils/EnumerableMap.sol\":4532:4551  map._entries.length */\n      dup1\n      sload\n      swap1\n      pop\n        /* \"contracts/utils/EnumerableMap.sol\":4525:4551  return map._entries.length */\n      swap1\n      pop\n        /* \"contracts/utils/EnumerableMap.sol\":4450:4558  function _length(Map storage map) private view returns (uint256) {... */\n      swap2\n      swap1\n      pop\n      jump\t// out\n        /* \"contracts/token/ERC721/ERC721.sol\":22068:22161  function _beforeTokenTransfer(address from, address to, uint256 tokenId) internal virtual { } */\n    tag_223:\n      pop\n      pop\n      pop\n      jump\t// out\n        /* \"contracts/utils/EnumerableSet.sol\":6731:6866  function remove(UintSet storage set, uint256 value) internal returns (bool) {... */\n    tag_226:\n        /* \"contracts/utils/EnumerableSet.sol\":6801:6805  bool */\n      0x00\n        /* \"contracts/utils/EnumerableSet.sol\":6824:6859  _remove(set._inner, bytes32(value)) */\n      tag_278\n        /* \"contracts/utils/EnumerableSet.sol\":6832:6835  set */\n      dup4\n        /* \"contracts/utils/EnumerableSet.sol\":6832:6842  set._inner */\n      0x00\n      add\n        /* \"contracts/utils/EnumerableSet.sol\":6852:6857  value */\n      dup4\n        /* \"contracts/utils/EnumerableSet.sol\":6844:6858  bytes32(value) */\n      0x00\n      shl\n        /* \"contracts/utils/EnumerableSet.sol\":6824:6831  _remove */\n      tag_279\n        /* \"contracts/utils/EnumerableSet.sol\":6824:6859  _remove(set._inner, bytes32(value)) */\n      jump\t// in\n    tag_278:\n        /* \"contracts/utils/EnumerableSet.sol\":6817:6859  return _remove(set._inner, bytes32(value)) */\n      swap1\n      pop\n        /* \"contracts/utils/EnumerableSet.sol\":6731:6866  function remove(UintSet storage set, uint256 value) internal returns (bool) {... */\n      swap3\n      swap2\n      pop\n      pop\n      jump\t// out\n        /* \"contracts/utils/EnumerableSet.sol\":6434:6563  function add(UintSet storage set, uint256 value) internal returns (bool) {... */\n    tag_228:\n        /* \"contracts/utils/EnumerableSet.sol\":6501:6505  bool */\n      0x00\n        /* \"contracts/utils/EnumerableSet.sol\":6524:6556  _add(set._inner, bytes32(value)) */\n      tag_281\n        /* \"contracts/utils/EnumerableSet.sol\":6529:6532  set */\n      dup4\n        /* \"contracts/utils/EnumerableSet.sol\":6529:6539  set._inner */\n      0x00\n      add\n        /* \"contracts/utils/EnumerableSet.sol\":6549:6554  value */\n      dup4\n        /* \"contracts/utils/EnumerableSet.sol\":6541:6555  bytes32(value) */\n      0x00\n      shl\n        /* \"contracts/utils/EnumerableSet.sol\":6524:6528  _add */\n      tag_282\n        /* \"contracts/utils/EnumerableSet.sol\":6524:6556  _add(set._inner, bytes32(value)) */\n      jump\t// in\n    tag_281:\n        /* \"contracts/utils/EnumerableSet.sol\":6517:6556  return _add(set._inner, bytes32(value)) */\n      swap1\n      pop\n        /* \"contracts/utils/EnumerableSet.sol\":6434:6563  function add(UintSet storage set, uint256 value) internal returns (bool) {... */\n      swap3\n      swap2\n      pop\n      pop\n      jump\t// out\n        /* \"contracts/utils/EnumerableMap.sol\":6206:6380  function set(UintToAddressMap storage map, uint256 key, address value) internal returns (bool) {... */\n    tag_230:\n        /* \"contracts/utils/EnumerableMap.sol\":6295:6299  bool */\n      0x00\n        /* \"contracts/utils/EnumerableMap.sol\":6318:6373  _set(map._inner, bytes32(key), bytes32(uint256(value))) */\n      tag_284\n        /* \"contracts/utils/EnumerableMap.sol\":6323:6326  map */\n      dup5\n        /* \"contracts/utils/EnumerableMap.sol\":6323:6333  map._inner */\n      0x00\n      add\n        /* \"contracts/utils/EnumerableMap.sol\":6343:6346  key */\n      dup5\n        /* \"contracts/utils/EnumerableMap.sol\":6335:6347  bytes32(key) */\n      0x00\n      shl\n        /* \"contracts/utils/EnumerableMap.sol\":6365:6370  value */\n      dup5\n        /* \"contracts/utils/EnumerableMap.sol\":6357:6371  uint256(value) */\n      0xffffffffffffffffffffffffffffffffffffffff\n      and\n        /* \"contracts/utils/EnumerableMap.sol\":6349:6372  bytes32(uint256(value)) */\n      0x00\n      shl\n        /* \"contracts/utils/EnumerableMap.sol\":6318:6322  _set */\n      tag_285\n        /* \"contracts/utils/EnumerableMap.sol\":6318:6373  _set(map._inner, bytes32(key), bytes32(uint256(value))) */\n      jump\t// in\n    tag_284:\n        /* \"contracts/utils/EnumerableMap.sol\":6311:6373  return _set(map._inner, bytes32(key), bytes32(uint256(value))) */\n      swap1\n      pop\n        /* \"contracts/utils/EnumerableMap.sol\":6206:6380  function set(UintToAddressMap storage map, uint256 key, address value) internal returns (bool) {... */\n      swap4\n      swap3\n      pop\n      pop\n      pop\n      jump\t// out\n        /* \"contracts/utils/EnumerableSet.sol\":4390:4591  function _at(Set storage set, uint256 index) private view returns (bytes32) {... */\n    tag_233:\n        /* \"contracts/utils/EnumerableSet.sol\":4457:4464  bytes32 */\n      0x00\n        /* \"contracts/utils/EnumerableSet.sol\":4505:4510  index */\n      dup2\n        /* \"contracts/utils/EnumerableSet.sol\":4484:4487  set */\n      dup4\n        /* \"contracts/utils/EnumerableSet.sol\":4484:4495  set._values */\n      0x00\n      add\n        /* \"contracts/utils/EnumerableSet.sol\":4484:4502  set._values.length */\n      dup1\n      sload\n      swap1\n      pop\n        /* \"contracts/utils/EnumerableSet.sol\":4484:4510  set._values.length > index */\n      gt\n        /* \"contracts/utils/EnumerableSet.sol\":4476:4549  require(set._values.length > index, \"EnumerableSet: index out of bounds\") */\n      tag_287\n      jumpi\n      mload(0x40)\n      0x08c379a000000000000000000000000000000000000000000000000000000000\n      dup2\n      mstore\n      0x04\n      add\n      tag_288\n      swap1\n      jump(tag_289)\n    tag_288:\n      mload(0x40)\n      dup1\n      swap2\n      sub\n      swap1\n      revert\n    tag_287:\n        /* \"contracts/utils/EnumerableSet.sol\":4566:4569  set */\n      dup3\n        /* \"contracts/utils/EnumerableSet.sol\":4566:4577  set._values */\n      0x00\n      add\n        /* \"contracts/utils/EnumerableSet.sol\":4578:4583  index */\n      dup3\n        /* \"contracts/utils/EnumerableSet.sol\":4566:4584  set._values[index] */\n      dup2\n      sload\n      dup2\n      lt\n      tag_290\n      jumpi\n      invalid\n    tag_290:\n      swap1\n      0x00\n      mstore\n      keccak256(0x00, 0x20)\n      add\n      sload\n        /* \"contracts/utils/EnumerableSet.sol\":4559:4584  return set._values[index] */\n      swap1\n      pop\n        /* \"contracts/utils/EnumerableSet.sol\":4390:4591  function _at(Set storage set, uint256 index) private view returns (bytes32) {... */\n      swap3\n      swap2\n      pop\n      pop\n      jump\t// out\n        /* \"contracts/utils/EnumerableMap.sol\":4901:5175  function _at(Map storage map, uint256 index) private view returns (bytes32, bytes32) {... */\n    tag_247:\n        /* \"contracts/utils/EnumerableMap.sol\":4968:4975  bytes32 */\n      0x00\n        /* \"contracts/utils/EnumerableMap.sol\":4977:4984  bytes32 */\n      dup1\n        /* \"contracts/utils/EnumerableMap.sol\":5026:5031  index */\n      dup3\n        /* \"contracts/utils/EnumerableMap.sol\":5004:5007  map */\n      dup5\n        /* \"contracts/utils/EnumerableMap.sol\":5004:5016  map._entries */\n      0x00\n      add\n        /* \"contracts/utils/EnumerableMap.sol\":5004:5023  map._entries.length */\n      dup1\n      sload\n      swap1\n      pop\n        /* \"contracts/utils/EnumerableMap.sol\":5004:5031  map._entries.length > index */\n      gt\n        /* \"contracts/utils/EnumerableMap.sol\":4996:5070  require(map._entries.length > index, \"EnumerableMap: index out of bounds\") */\n      tag_293\n      jumpi\n      mload(0x40)\n      0x08c379a000000000000000000000000000000000000000000000000000000000\n      dup2\n      mstore\n      0x04\n      add\n      tag_294\n      swap1\n      jump(tag_295)\n    tag_294:\n      mload(0x40)\n      dup1\n      swap2\n      sub\n      swap1\n      revert\n    tag_293:\n        /* \"contracts/utils/EnumerableMap.sol\":5081:5103  MapEntry storage entry */\n      0x00\n        /* \"contracts/utils/EnumerableMap.sol\":5106:5109  map */\n      dup5\n        /* \"contracts/utils/EnumerableMap.sol\":5106:5118  map._entries */\n      0x00\n      add\n        /* \"contracts/utils/EnumerableMap.sol\":5119:5124  index */\n      dup5\n        /* \"contracts/utils/EnumerableMap.sol\":5106:5125  map._entries[index] */\n      dup2\n      sload\n      dup2\n      lt\n      tag_296\n      jumpi\n      invalid\n    tag_296:\n      swap1\n      0x00\n      mstore\n      keccak256(0x00, 0x20)\n      swap1\n      0x02\n      mul\n      add\n        /* \"contracts/utils/EnumerableMap.sol\":5081:5125  MapEntry storage entry = map._entries[index] */\n      swap1\n      pop\n        /* \"contracts/utils/EnumerableMap.sol\":5143:5148  entry */\n      dup1\n        /* \"contracts/utils/EnumerableMap.sol\":5143:5153  entry._key */\n      0x00\n      add\n      sload\n        /* \"contracts/utils/EnumerableMap.sol\":5155:5160  entry */\n      dup2\n        /* \"contracts/utils/EnumerableMap.sol\":5155:5167  entry._value */\n      0x01\n      add\n      sload\n        /* \"contracts/utils/EnumerableMap.sol\":5135:5168  return (entry._key, entry._value) */\n      swap3\n      pop\n      swap3\n      pop\n      pop\n        /* \"contracts/utils/EnumerableMap.sol\":4901:5175  function _at(Map storage map, uint256 index) private view returns (bytes32, bytes32) {... */\n      swap3\n      pop\n      swap3\n      swap1\n      pop\n      jump\t// out\n        /* \"contracts/utils/EnumerableMap.sol\":5582:5897  function _get(Map storage map, bytes32 key, string memory errorMessage) private view returns (bytes32) {... */\n    tag_250:\n        /* \"contracts/utils/EnumerableMap.sol\":5676:5683  bytes32 */\n      0x00\n        /* \"contracts/utils/EnumerableMap.sol\":5695:5711  uint256 keyIndex */\n      dup1\n        /* \"contracts/utils/EnumerableMap.sol\":5714:5717  map */\n      dup5\n        /* \"contracts/utils/EnumerableMap.sol\":5714:5726  map._indexes */\n      0x01\n      add\n        /* \"contracts/utils/EnumerableMap.sol\":5714:5731  map._indexes[key] */\n      0x00\n        /* \"contracts/utils/EnumerableMap.sol\":5727:5730  key */\n      dup6\n        /* \"contracts/utils/EnumerableMap.sol\":5714:5731  map._indexes[key] */\n      dup2\n      mstore\n      0x20\n      add\n      swap1\n      dup2\n      mstore\n      0x20\n      add\n      0x00\n      keccak256\n      sload\n        /* \"contracts/utils/EnumerableMap.sol\":5695:5731  uint256 keyIndex = map._indexes[key] */\n      swap1\n      pop\n        /* \"contracts/utils/EnumerableMap.sol\":5761:5762  0 */\n      0x00\n        /* \"contracts/utils/EnumerableMap.sol\":5749:5757  keyIndex */\n      dup2\n        /* \"contracts/utils/EnumerableMap.sol\":5749:5762  keyIndex != 0 */\n      eq\n      iszero\n        /* \"contracts/utils/EnumerableMap.sol\":5764:5776  errorMessage */\n      dup4\n        /* \"contracts/utils/EnumerableMap.sol\":5741:5777  require(keyIndex != 0, errorMessage) */\n      swap1\n      tag_299\n      jumpi\n      mload(0x40)\n      0x08c379a000000000000000000000000000000000000000000000000000000000\n      dup2\n      mstore\n      0x04\n      add\n      tag_300\n      swap2\n      swap1\n      jump(tag_33)\n    tag_300:\n      mload(0x40)\n      dup1\n      swap2\n      sub\n      swap1\n      revert\n    tag_299:\n      pop\n        /* \"contracts/utils/EnumerableMap.sol\":5830:5833  map */\n      dup5\n        /* \"contracts/utils/EnumerableMap.sol\":5830:5842  map._entries */\n      0x00\n      add\n        /* \"contracts/utils/EnumerableMap.sol\":5854:5855  1 */\n      0x01\n        /* \"contracts/utils/EnumerableMap.sol\":5843:5851  keyIndex */\n      dup3\n        /* \"contracts/utils/EnumerableMap.sol\":5843:5855  keyIndex - 1 */\n      sub\n        /* \"contracts/utils/EnumerableMap.sol\":5830:5856  map._entries[keyIndex - 1] */\n      dup2\n      sload\n      dup2\n      lt\n      tag_301\n      jumpi\n      invalid\n    tag_301:\n      swap1\n      0x00\n      mstore\n      keccak256(0x00, 0x20)\n      swap1\n      0x02\n      mul\n      add\n        /* \"contracts/utils/EnumerableMap.sol\":5830:5863  map._entries[keyIndex - 1]._value */\n      0x01\n      add\n      sload\n        /* \"contracts/utils/EnumerableMap.sol\":5823:5863  return map._entries[keyIndex - 1]._value */\n      swap2\n      pop\n      pop\n        /* \"contracts/utils/EnumerableMap.sol\":5582:5897  function _get(Map storage map, bytes32 key, string memory errorMessage) private view returns (bytes32) {... */\n      swap4\n      swap3\n      pop\n      pop\n      pop\n      jump\t// out\n        /* \"contracts/utils/EnumerableSet.sol\":3951:4058  function _length(Set storage set) private view returns (uint256) {... */\n    tag_253:\n        /* \"contracts/utils/EnumerableSet.sol\":4007:4014  uint256 */\n      0x00\n        /* \"contracts/utils/EnumerableSet.sol\":4033:4036  set */\n      dup2\n        /* \"contracts/utils/EnumerableSet.sol\":4033:4044  set._values */\n      0x00\n      add\n        /* \"contracts/utils/EnumerableSet.sol\":4033:4051  set._values.length */\n      dup1\n      sload\n      swap1\n      pop\n        /* \"contracts/utils/EnumerableSet.sol\":4026:4051  return set._values.length */\n      swap1\n      pop\n        /* \"contracts/utils/EnumerableSet.sol\":3951:4058  function _length(Set storage set) private view returns (uint256) {... */\n      swap2\n      swap1\n      pop\n      jump\t// out\n        /* \"contracts/token/ERC721/ERC721.sol\":20301:21351  function _checkOnERC721Received(address from, address to, uint256 tokenId, bytes memory _data)... */\n    tag_257:\n        /* \"contracts/token/ERC721/ERC721.sol\":20421:20425  bool */\n      0x00\n        /* \"contracts/token/ERC721/ERC721.sol\":20446:20461  to.isContract() */\n      tag_305\n        /* \"contracts/token/ERC721/ERC721.sol\":20446:20448  to */\n      dup5\n        /* \"contracts/token/ERC721/ERC721.sol\":20446:20459  to.isContract */\n      0xffffffffffffffffffffffffffffffffffffffff\n      and\n      tag_306\n        /* \"contracts/token/ERC721/ERC721.sol\":20446:20461  to.isContract() */\n      jump\t// in\n    tag_305:\n        /* \"contracts/token/ERC721/ERC721.sol\":20441:20499  if (!to.isContract()) {... */\n      tag_307\n      jumpi\n        /* \"contracts/token/ERC721/ERC721.sol\":20484:20488  true */\n      0x01\n        /* \"contracts/token/ERC721/ERC721.sol\":20477:20488  return true */\n      swap1\n      pop\n      jump(tag_304)\n        /* \"contracts/token/ERC721/ERC721.sol\":20441:20499  if (!to.isContract()) {... */\n    tag_307:\n        /* \"contracts/token/ERC721/ERC721.sol\":20568:20580  bool success */\n      0x00\n        /* \"contracts/token/ERC721/ERC721.sol\":20582:20605  bytes memory returndata */\n      0x60\n        /* \"contracts/token/ERC721/ERC721.sol\":20609:20611  to */\n      dup6\n        /* \"contracts/token/ERC721/ERC721.sol\":20609:20616  to.call */\n      0xffffffffffffffffffffffffffffffffffffffff\n      and\n        /* \"contracts/token/ERC721/ERC721.sol\":20653:20698  IERC721Receiver(to).onERC721Received.selector */\n      shl(0xe0, 0x150b7a02)\n        /* \"contracts/token/ERC721/ERC721.sol\":20712:20724  _msgSender() */\n      tag_308\n        /* \"contracts/token/ERC721/ERC721.sol\":20712:20722  _msgSender */\n      tag_115\n        /* \"contracts/token/ERC721/ERC721.sol\":20712:20724  _msgSender() */\n      jump\t// in\n    tag_308:\n        /* \"contracts/token/ERC721/ERC721.sol\":20738:20742  from */\n      dup10\n        /* \"contracts/token/ERC721/ERC721.sol\":20756:20763  tokenId */\n      dup9\n        /* \"contracts/token/ERC721/ERC721.sol\":20777:20782  _data */\n      dup9\n        /* \"contracts/token/ERC721/ERC721.sol\":20617:20792  abi.encodeWithSelector(... */\n      add(0x24, mload(0x40))\n      tag_309\n      swap5\n      swap4\n      swap3\n      swap2\n      swap1\n      jump(tag_310)\n    tag_309:\n      mload(0x40)\n        /* \"--CODEGEN--\":49:53   */\n      0x20\n        /* \"--CODEGEN--\":39:46   */\n      dup2\n        /* \"--CODEGEN--\":30:37   */\n      dup4\n        /* \"--CODEGEN--\":26:47   */\n      sub\n        /* \"--CODEGEN--\":22:54   */\n      sub\n        /* \"--CODEGEN--\":13:20   */\n      dup2\n        /* \"--CODEGEN--\":6:55   */\n      mstore\n        /* \"contracts/token/ERC721/ERC721.sol\":20617:20792  abi.encodeWithSelector(... */\n      swap1\n      0x40\n      mstore\n      swap1\n      not(0xffffffffffffffffffffffffffffffffffffffffffffffffffffffff)\n      and\n        /* \"--CODEGEN--\":38:42   */\n      0x20\n        /* \"--CODEGEN--\":29:36   */\n      dup3\n        /* \"--CODEGEN--\":25:43   */\n      add\n        /* \"--CODEGEN--\":67:77   */\n      dup1\n        /* \"--CODEGEN--\":61:78   */\n      mload\n        /* \"--CODEGEN--\":96:154   */\n      0xffffffffffffffffffffffffffffffffffffffffffffffffffffffff\n        /* \"--CODEGEN--\":199:207   */\n      dup4\n        /* \"--CODEGEN--\":192:196   */\n      dup2\n        /* \"--CODEGEN--\":186:190   */\n      dup4\n        /* \"--CODEGEN--\":182:197   */\n      and\n        /* \"--CODEGEN--\":179:208   */\n      or\n        /* \"--CODEGEN--\":167:177   */\n      dup4\n        /* \"--CODEGEN--\":160:209   */\n      mstore\n        /* \"--CODEGEN--\":0:215   */\n      pop\n      pop\n      pop\n        /* \"contracts/token/ERC721/ERC721.sol\":20617:20792  abi.encodeWithSelector(... */\n      pop\n        /* \"contracts/token/ERC721/ERC721.sol\":20609:20793  to.call(abi.encodeWithSelector(... */\n      mload(0x40)\n      tag_311\n      swap2\n      swap1\n      jump(tag_312)\n    tag_311:\n      0x00\n      mload(0x40)\n      dup1\n      dup4\n      sub\n      dup2\n      0x00\n      dup7\n      gas\n      call\n      swap2\n      pop\n      pop\n      returndatasize\n        /* \"--CODEGEN--\":12:13   */\n      dup1\n        /* \"--CODEGEN--\":19:20   */\n      0x00\n        /* \"--CODEGEN--\":14:41   */\n      dup2\n      eq\n      tag_315\n      jumpi\n        /* \"--CODEGEN--\":67:71   */\n      0x40\n        /* \"--CODEGEN--\":61:72   */\n      mload\n        /* \"--CODEGEN--\":56:72   */\n      swap2\n      pop\n        /* \"--CODEGEN--\":134:138   */\n      0x1f\n        /* \"--CODEGEN--\":130:139   */\n      not\n        /* \"--CODEGEN--\":123:127   */\n      0x3f\n        /* \"--CODEGEN--\":105:121   */\n      returndatasize\n        /* \"--CODEGEN--\":101:128   */\n      add\n        /* \"--CODEGEN--\":97:140   */\n      and\n        /* \"--CODEGEN--\":94:95   */\n      dup3\n        /* \"--CODEGEN--\":90:141   */\n      add\n        /* \"--CODEGEN--\":84:88   */\n      0x40\n        /* \"--CODEGEN--\":77:142   */\n      mstore\n        /* \"--CODEGEN--\":157:173   */\n      returndatasize\n        /* \"--CODEGEN--\":154:155   */\n      dup3\n        /* \"--CODEGEN--\":147:174   */\n      mstore\n        /* \"--CODEGEN--\":211:227   */\n      returndatasize\n        /* \"--CODEGEN--\":208:209   */\n      0x00\n        /* \"--CODEGEN--\":201:205   */\n      0x20\n        /* \"--CODEGEN--\":198:199   */\n      dup5\n        /* \"--CODEGEN--\":194:206   */\n      add\n        /* \"--CODEGEN--\":179:228   */\n      returndatacopy\n        /* \"--CODEGEN--\":5:233   */\n      jump(tag_314)\n        /* \"--CODEGEN--\":14:41   */\n    tag_315:\n        /* \"--CODEGEN--\":32:36   */\n      0x60\n        /* \"--CODEGEN--\":27:36   */\n      swap2\n      pop\n        /* \"--CODEGEN--\":5:233   */\n    tag_314:\n      pop\n        /* \"contracts/token/ERC721/ERC721.sol\":20567:20793  (bool success, bytes memory returndata) = to.call(abi.encodeWithSelector(... */\n      swap2\n      pop\n      swap2\n      pop\n        /* \"contracts/token/ERC721/ERC721.sol\":20808:20815  success */\n      dup2\n        /* \"contracts/token/ERC721/ERC721.sol\":20803:21345  if (!success) {... */\n      tag_316\n      jumpi\n        /* \"contracts/token/ERC721/ERC721.sol\":20855:20856  0 */\n      0x00\n        /* \"contracts/token/ERC721/ERC721.sol\":20835:20845  returndata */\n      dup2\n        /* \"contracts/token/ERC721/ERC721.sol\":20835:20852  returndata.length */\n      mload\n        /* \"contracts/token/ERC721/ERC721.sol\":20835:20856  returndata.length > 0 */\n      gt\n        /* \"contracts/token/ERC721/ERC721.sol\":20831:21207  if (returndata.length > 0) {... */\n      iszero\n      tag_317\n      jumpi\n        /* \"contracts/token/ERC721/ERC721.sol\":21000:21010  returndata */\n      dup1\n        /* \"contracts/token/ERC721/ERC721.sol\":20994:21011  mload(returndata) */\n      mload\n        /* \"contracts/token/ERC721/ERC721.sol\":21060:21075  returndata_size */\n      dup1\n        /* \"contracts/token/ERC721/ERC721.sol\":21047:21057  returndata */\n      dup3\n        /* \"contracts/token/ERC721/ERC721.sol\":21043:21045  32 */\n      0x20\n        /* \"contracts/token/ERC721/ERC721.sol\":21039:21058  add(32, returndata) */\n      add\n        /* \"contracts/token/ERC721/ERC721.sol\":21032:21076  revert(add(32, returndata), returndata_size) */\n      revert\n        /* \"contracts/token/ERC721/ERC721.sol\":20949:21094  {... */\n    tag_317:\n        /* \"contracts/token/ERC721/ERC721.sol\":21132:21192  revert(\"ERC721: transfer to non ERC721Receiver implementer\") */\n      mload(0x40)\n      0x08c379a000000000000000000000000000000000000000000000000000000000\n      dup2\n      mstore\n      0x04\n      add\n      tag_319\n      swap1\n      jump(tag_260)\n    tag_319:\n      mload(0x40)\n      dup1\n      swap2\n      sub\n      swap1\n      revert\n        /* \"contracts/token/ERC721/ERC721.sol\":20803:21345  if (!success) {... */\n    tag_316:\n        /* \"contracts/token/ERC721/ERC721.sol\":21237:21250  bytes4 retval */\n      0x00\n        /* \"contracts/token/ERC721/ERC721.sol\":21264:21274  returndata */\n      dup2\n        /* \"contracts/token/ERC721/ERC721.sol\":21253:21285  abi.decode(returndata, (bytes4)) */\n      dup1\n      0x20\n      add\n      swap1\n      mload\n      dup2\n      add\n      swap1\n      tag_321\n      swap2\n      swap1\n      jump(tag_322)\n    tag_321:\n        /* \"contracts/token/ERC721/ERC721.sol\":21237:21285  bytes4 retval = abi.decode(returndata, (bytes4)) */\n      swap1\n      pop\n        /* \"contracts/token/ERC721/ERC721.sol\":1035:1045  0x150b7a02 */\n      0x150b7a02\n        /* \"contracts/token/ERC721/ERC721.sol\":21317:21333  _ERC721_RECEIVED */\n      0xe0\n      shl\n        /* \"contracts/token/ERC721/ERC721.sol\":21307:21333  retval == _ERC721_RECEIVED */\n      not(0xffffffffffffffffffffffffffffffffffffffffffffffffffffffff)\n      and\n        /* \"contracts/token/ERC721/ERC721.sol\":21307:21313  retval */\n      dup2\n        /* \"contracts/token/ERC721/ERC721.sol\":21307:21333  retval == _ERC721_RECEIVED */\n      not(0xffffffffffffffffffffffffffffffffffffffffffffffffffffffff)\n      and\n      eq\n        /* \"contracts/token/ERC721/ERC721.sol\":21299:21334  return (retval == _ERC721_RECEIVED) */\n      swap4\n      pop\n      pop\n      pop\n      pop\n        /* \"contracts/token/ERC721/ERC721.sol\":20301:21351  function _checkOnERC721Received(address from, address to, uint256 tokenId, bytes memory _data)... */\n    tag_304:\n      swap5\n      swap4\n      pop\n      pop\n      pop\n      pop\n      jump\t// out\n        /* \"contracts/utils/EnumerableMap.sol\":4237:4360  function _contains(Map storage map, bytes32 key) private view returns (bool) {... */\n    tag_274:\n        /* \"contracts/utils/EnumerableMap.sol\":4308:4312  bool */\n      0x00\n        /* \"contracts/utils/EnumerableMap.sol\":4352:4353  0 */\n      dup1\n        /* \"contracts/utils/EnumerableMap.sol\":4331:4334  map */\n      dup4\n        /* \"contracts/utils/EnumerableMap.sol\":4331:4343  map._indexes */\n      0x01\n      add\n        /* \"contracts/utils/EnumerableMap.sol\":4331:4348  map._indexes[key] */\n      0x00\n        /* \"contracts/utils/EnumerableMap.sol\":4344:4347  key */\n      dup5\n        /* \"contracts/utils/EnumerableMap.sol\":4331:4348  map._indexes[key] */\n      dup2\n      mstore\n      0x20\n      add\n      swap1\n      dup2\n      mstore\n      0x20\n      add\n      0x00\n      keccak256\n      sload\n        /* \"contracts/utils/EnumerableMap.sol\":4331:4353  map._indexes[key] != 0 */\n      eq\n      iszero\n        /* \"contracts/utils/EnumerableMap.sol\":4324:4353  return map._indexes[key] != 0 */\n      swap1\n      pop\n        /* \"contracts/utils/EnumerableMap.sol\":4237:4360  function _contains(Map storage map, bytes32 key) private view returns (bool) {... */\n      swap3\n      swap2\n      pop\n      pop\n      jump\t// out\n        /* \"contracts/utils/EnumerableSet.sol\":2150:3662  function _remove(Set storage set, bytes32 value) private returns (bool) {... */\n    tag_279:\n        /* \"contracts/utils/EnumerableSet.sol\":2216:2220  bool */\n      0x00\n        /* \"contracts/utils/EnumerableSet.sol\":2332:2350  uint256 valueIndex */\n      dup1\n        /* \"contracts/utils/EnumerableSet.sol\":2353:2356  set */\n      dup4\n        /* \"contracts/utils/EnumerableSet.sol\":2353:2365  set._indexes */\n      0x01\n      add\n        /* \"contracts/utils/EnumerableSet.sol\":2353:2372  set._indexes[value] */\n      0x00\n        /* \"contracts/utils/EnumerableSet.sol\":2366:2371  value */\n      dup5\n        /* \"contracts/utils/EnumerableSet.sol\":2353:2372  set._indexes[value] */\n      dup2\n      mstore\n      0x20\n      add\n      swap1\n      dup2\n      mstore\n      0x20\n      add\n      0x00\n      keccak256\n      sload\n        /* \"contracts/utils/EnumerableSet.sol\":2332:2372  uint256 valueIndex = set._indexes[value] */\n      swap1\n      pop\n        /* \"contracts/utils/EnumerableSet.sol\":2401:2402  0 */\n      0x00\n        /* \"contracts/utils/EnumerableSet.sol\":2387:2397  valueIndex */\n      dup2\n        /* \"contracts/utils/EnumerableSet.sol\":2387:2402  valueIndex != 0 */\n      eq\n        /* \"contracts/utils/EnumerableSet.sol\":2383:3656  if (valueIndex != 0) { // Equivalent to contains(set, value)... */\n      tag_325\n      jumpi\n        /* \"contracts/utils/EnumerableSet.sol\":2744:2765  uint256 toDeleteIndex */\n      0x00\n        /* \"contracts/utils/EnumerableSet.sol\":2781:2782  1 */\n      0x01\n        /* \"contracts/utils/EnumerableSet.sol\":2768:2778  valueIndex */\n      dup3\n        /* \"contracts/utils/EnumerableSet.sol\":2768:2782  valueIndex - 1 */\n      sub\n        /* \"contracts/utils/EnumerableSet.sol\":2744:2782  uint256 toDeleteIndex = valueIndex - 1 */\n      swap1\n      pop\n        /* \"contracts/utils/EnumerableSet.sol\":2796:2813  uint256 lastIndex */\n      0x00\n        /* \"contracts/utils/EnumerableSet.sol\":2837:2838  1 */\n      0x01\n        /* \"contracts/utils/EnumerableSet.sol\":2816:2819  set */\n      dup7\n        /* \"contracts/utils/EnumerableSet.sol\":2816:2827  set._values */\n      0x00\n      add\n        /* \"contracts/utils/EnumerableSet.sol\":2816:2834  set._values.length */\n      dup1\n      sload\n      swap1\n      pop\n        /* \"contracts/utils/EnumerableSet.sol\":2816:2838  set._values.length - 1 */\n      sub\n        /* \"contracts/utils/EnumerableSet.sol\":2796:2838  uint256 lastIndex = set._values.length - 1 */\n      swap1\n      pop\n        /* \"contracts/utils/EnumerableSet.sol\":3078:3095  bytes32 lastvalue */\n      0x00\n        /* \"contracts/utils/EnumerableSet.sol\":3098:3101  set */\n      dup7\n        /* \"contracts/utils/EnumerableSet.sol\":3098:3109  set._values */\n      0x00\n      add\n        /* \"contracts/utils/EnumerableSet.sol\":3110:3119  lastIndex */\n      dup3\n        /* \"contracts/utils/EnumerableSet.sol\":3098:3120  set._values[lastIndex] */\n      dup2\n      sload\n      dup2\n      lt\n      tag_326\n      jumpi\n      invalid\n    tag_326:\n      swap1\n      0x00\n      mstore\n      keccak256(0x00, 0x20)\n      add\n      sload\n        /* \"contracts/utils/EnumerableSet.sol\":3078:3120  bytes32 lastvalue = set._values[lastIndex] */\n      swap1\n      pop\n        /* \"contracts/utils/EnumerableSet.sol\":3241:3250  lastvalue */\n      dup1\n        /* \"contracts/utils/EnumerableSet.sol\":3212:3215  set */\n      dup8\n        /* \"contracts/utils/EnumerableSet.sol\":3212:3223  set._values */\n      0x00\n      add\n        /* \"contracts/utils/EnumerableSet.sol\":3224:3237  toDeleteIndex */\n      dup5\n        /* \"contracts/utils/EnumerableSet.sol\":3212:3238  set._values[toDeleteIndex] */\n      dup2\n      sload\n      dup2\n      lt\n      tag_328\n      jumpi\n      invalid\n    tag_328:\n      swap1\n      0x00\n      mstore\n      keccak256(0x00, 0x20)\n      add\n        /* \"contracts/utils/EnumerableSet.sol\":3212:3250  set._values[toDeleteIndex] = lastvalue */\n      dup2\n      swap1\n      sstore\n      pop\n        /* \"contracts/utils/EnumerableSet.sol\":3358:3359  1 */\n      0x01\n        /* \"contracts/utils/EnumerableSet.sol\":3342:3355  toDeleteIndex */\n      dup4\n        /* \"contracts/utils/EnumerableSet.sol\":3342:3359  toDeleteIndex + 1 */\n      add\n        /* \"contracts/utils/EnumerableSet.sol\":3316:3319  set */\n      dup8\n        /* \"contracts/utils/EnumerableSet.sol\":3316:3328  set._indexes */\n      0x01\n      add\n        /* \"contracts/utils/EnumerableSet.sol\":3316:3339  set._indexes[lastvalue] */\n      0x00\n        /* \"contracts/utils/EnumerableSet.sol\":3329:3338  lastvalue */\n      dup4\n        /* \"contracts/utils/EnumerableSet.sol\":3316:3339  set._indexes[lastvalue] */\n      dup2\n      mstore\n      0x20\n      add\n      swap1\n      dup2\n      mstore\n      0x20\n      add\n      0x00\n      keccak256\n        /* \"contracts/utils/EnumerableSet.sol\":3316:3359  set._indexes[lastvalue] = toDeleteIndex + 1 */\n      dup2\n      swap1\n      sstore\n      pop\n        /* \"contracts/utils/EnumerableSet.sol\":3465:3468  set */\n      dup7\n        /* \"contracts/utils/EnumerableSet.sol\":3465:3476  set._values */\n      0x00\n      add\n        /* \"contracts/utils/EnumerableSet.sol\":3465:3482  set._values.pop() */\n      dup1\n      sload\n      dup1\n      tag_330\n      jumpi\n      invalid\n    tag_330:\n      0x01\n      swap1\n      sub\n      dup2\n      dup2\n      swap1\n      0x00\n      mstore\n      keccak256(0x00, 0x20)\n      add\n      0x00\n      swap1\n      sstore\n      swap1\n      sstore\n        /* \"contracts/utils/EnumerableSet.sol\":3557:3560  set */\n      dup7\n        /* \"contracts/utils/EnumerableSet.sol\":3557:3569  set._indexes */\n      0x01\n      add\n        /* \"contracts/utils/EnumerableSet.sol\":3557:3576  set._indexes[value] */\n      0x00\n        /* \"contracts/utils/EnumerableSet.sol\":3570:3575  value */\n      dup8\n        /* \"contracts/utils/EnumerableSet.sol\":3557:3576  set._indexes[value] */\n      dup2\n      mstore\n      0x20\n      add\n      swap1\n      dup2\n      mstore\n      0x20\n      add\n      0x00\n      keccak256\n        /* \"contracts/utils/EnumerableSet.sol\":3550:3576  delete set._indexes[value] */\n      0x00\n      swap1\n      sstore\n        /* \"contracts/utils/EnumerableSet.sol\":3598:3602  true */\n      0x01\n        /* \"contracts/utils/EnumerableSet.sol\":3591:3602  return true */\n      swap5\n      pop\n      pop\n      pop\n      pop\n      pop\n      jump(tag_324)\n        /* \"contracts/utils/EnumerableSet.sol\":2383:3656  if (valueIndex != 0) { // Equivalent to contains(set, value)... */\n    tag_325:\n        /* \"contracts/utils/EnumerableSet.sol\":3640:3645  false */\n      0x00\n        /* \"contracts/utils/EnumerableSet.sol\":3633:3645  return false */\n      swap2\n      pop\n      pop\n        /* \"contracts/utils/EnumerableSet.sol\":2150:3662  function _remove(Set storage set, bytes32 value) private returns (bool) {... */\n    tag_324:\n      swap3\n      swap2\n      pop\n      pop\n      jump\t// out\n        /* \"contracts/utils/EnumerableSet.sol\":1578:1982  function _add(Set storage set, bytes32 value) private returns (bool) {... */\n    tag_282:\n        /* \"contracts/utils/EnumerableSet.sol\":1641:1645  bool */\n      0x00\n        /* \"contracts/utils/EnumerableSet.sol\":1662:1683  _contains(set, value) */\n      tag_334\n        /* \"contracts/utils/EnumerableSet.sol\":1672:1675  set */\n      dup4\n        /* \"contracts/utils/EnumerableSet.sol\":1677:1682  value */\n      dup4\n        /* \"contracts/utils/EnumerableSet.sol\":1662:1671  _contains */\n      tag_335\n        /* \"contracts/utils/EnumerableSet.sol\":1662:1683  _contains(set, value) */\n      jump\t// in\n    tag_334:\n        /* \"contracts/utils/EnumerableSet.sol\":1657:1976  if (!_contains(set, value)) {... */\n      tag_336\n      jumpi\n        /* \"contracts/utils/EnumerableSet.sol\":1699:1702  set */\n      dup3\n        /* \"contracts/utils/EnumerableSet.sol\":1699:1710  set._values */\n      0x00\n      add\n        /* \"contracts/utils/EnumerableSet.sol\":1716:1721  value */\n      dup3\n        /* \"contracts/utils/EnumerableSet.sol\":1699:1722  set._values.push(value) */\n      swap1\n      dup1\n        /* \"--CODEGEN--\":39:40   */\n      0x01\n        /* \"--CODEGEN--\":33:36   */\n      dup2\n        /* \"--CODEGEN--\":27:37   */\n      sload\n        /* \"--CODEGEN--\":23:41   */\n      add\n        /* \"--CODEGEN--\":57:67   */\n      dup1\n        /* \"--CODEGEN--\":52:55   */\n      dup3\n        /* \"--CODEGEN--\":45:68   */\n      sstore\n        /* \"--CODEGEN--\":79:89   */\n      dup1\n        /* \"--CODEGEN--\":72:89   */\n      swap2\n      pop\n        /* \"--CODEGEN--\":0:93   */\n      pop\n        /* \"contracts/utils/EnumerableSet.sol\":1699:1722  set._values.push(value) */\n      0x01\n      swap1\n      sub\n      swap1\n      0x00\n      mstore\n      keccak256(0x00, 0x20)\n      add\n      0x00\n      swap1\n      swap2\n      swap1\n      swap2\n      swap1\n      swap2\n      pop\n      sstore\n        /* \"contracts/utils/EnumerableSet.sol\":1879:1882  set */\n      dup3\n        /* \"contracts/utils/EnumerableSet.sol\":1879:1890  set._values */\n      0x00\n      add\n        /* \"contracts/utils/EnumerableSet.sol\":1879:1897  set._values.length */\n      dup1\n      sload\n      swap1\n      pop\n        /* \"contracts/utils/EnumerableSet.sol\":1857:1860  set */\n      dup4\n        /* \"contracts/utils/EnumerableSet.sol\":1857:1869  set._indexes */\n      0x01\n      add\n        /* \"contracts/utils/EnumerableSet.sol\":1857:1876  set._indexes[value] */\n      0x00\n        /* \"contracts/utils/EnumerableSet.sol\":1870:1875  value */\n      dup5\n        /* \"contracts/utils/EnumerableSet.sol\":1857:1876  set._indexes[value] */\n      dup2\n      mstore\n      0x20\n      add\n      swap1\n      dup2\n      mstore\n      0x20\n      add\n      0x00\n      keccak256\n        /* \"contracts/utils/EnumerableSet.sol\":1857:1897  set._indexes[value] = set._values.length */\n      dup2\n      swap1\n      sstore\n      pop\n        /* \"contracts/utils/EnumerableSet.sol\":1918:1922  true */\n      0x01\n        /* \"contracts/utils/EnumerableSet.sol\":1911:1922  return true */\n      swap1\n      pop\n      jump(tag_333)\n        /* \"contracts/utils/EnumerableSet.sol\":1657:1976  if (!_contains(set, value)) {... */\n    tag_336:\n        /* \"contracts/utils/EnumerableSet.sol\":1960:1965  false */\n      0x00\n        /* \"contracts/utils/EnumerableSet.sol\":1953:1965  return false */\n      swap1\n      pop\n        /* \"contracts/utils/EnumerableSet.sol\":1578:1982  function _add(Set storage set, bytes32 value) private returns (bool) {... */\n    tag_333:\n      swap3\n      swap2\n      pop\n      pop\n      jump\t// out\n        /* \"contracts/utils/EnumerableMap.sol\":1795:2473  function _set(Map storage map, bytes32 key, bytes32 value) private returns (bool) {... */\n    tag_285:\n        /* \"contracts/utils/EnumerableMap.sol\":1871:1875  bool */\n      0x00\n        /* \"contracts/utils/EnumerableMap.sol\":1985:2001  uint256 keyIndex */\n      dup1\n        /* \"contracts/utils/EnumerableMap.sol\":2004:2007  map */\n      dup5\n        /* \"contracts/utils/EnumerableMap.sol\":2004:2016  map._indexes */\n      0x01\n      add\n        /* \"contracts/utils/EnumerableMap.sol\":2004:2021  map._indexes[key] */\n      0x00\n        /* \"contracts/utils/EnumerableMap.sol\":2017:2020  key */\n      dup6\n        /* \"contracts/utils/EnumerableMap.sol\":2004:2021  map._indexes[key] */\n      dup2\n      mstore\n      0x20\n      add\n      swap1\n      dup2\n      mstore\n      0x20\n      add\n      0x00\n      keccak256\n      sload\n        /* \"contracts/utils/EnumerableMap.sol\":1985:2021  uint256 keyIndex = map._indexes[key] */\n      swap1\n      pop\n        /* \"contracts/utils/EnumerableMap.sol\":2048:2049  0 */\n      0x00\n        /* \"contracts/utils/EnumerableMap.sol\":2036:2044  keyIndex */\n      dup2\n        /* \"contracts/utils/EnumerableMap.sol\":2036:2049  keyIndex == 0 */\n      eq\n        /* \"contracts/utils/EnumerableMap.sol\":2032:2467  if (keyIndex == 0) { // Equivalent to !contains(map, key)... */\n      iszero\n      tag_340\n      jumpi\n        /* \"contracts/utils/EnumerableMap.sol\":2102:2105  map */\n      dup5\n        /* \"contracts/utils/EnumerableMap.sol\":2102:2114  map._entries */\n      0x00\n      add\n        /* \"contracts/utils/EnumerableMap.sol\":2120:2158  MapEntry({ _key: key, _value: value }) */\n      mload(0x40)\n      dup1\n      0x40\n      add\n      0x40\n      mstore\n      dup1\n        /* \"contracts/utils/EnumerableMap.sol\":2137:2140  key */\n      dup7\n        /* \"contracts/utils/EnumerableMap.sol\":2120:2158  MapEntry({ _key: key, _value: value }) */\n      dup2\n      mstore\n      0x20\n      add\n        /* \"contracts/utils/EnumerableMap.sol\":2150:2155  value */\n      dup6\n        /* \"contracts/utils/EnumerableMap.sol\":2120:2158  MapEntry({ _key: key, _value: value }) */\n      dup2\n      mstore\n      pop\n        /* \"contracts/utils/EnumerableMap.sol\":2102:2159  map._entries.push(MapEntry({ _key: key, _value: value })) */\n      swap1\n      dup1\n        /* \"--CODEGEN--\":39:40   */\n      0x01\n        /* \"--CODEGEN--\":33:36   */\n      dup2\n        /* \"--CODEGEN--\":27:37   */\n      sload\n        /* \"--CODEGEN--\":23:41   */\n      add\n        /* \"--CODEGEN--\":57:67   */\n      dup1\n        /* \"--CODEGEN--\":52:55   */\n      dup3\n        /* \"--CODEGEN--\":45:68   */\n      sstore\n        /* \"--CODEGEN--\":79:89   */\n      dup1\n        /* \"--CODEGEN--\":72:89   */\n      swap2\n      pop\n        /* \"--CODEGEN--\":0:93   */\n      pop\n        /* \"contracts/utils/EnumerableMap.sol\":2102:2159  map._entries.push(MapEntry({ _key: key, _value: value })) */\n      0x01\n      swap1\n      sub\n      swap1\n      0x00\n      mstore\n      keccak256(0x00, 0x20)\n      swap1\n      0x02\n      mul\n      add\n      0x00\n      swap1\n      swap2\n      swap1\n      swap2\n      swap1\n      swap2\n      pop\n      0x00\n      dup3\n      add\n      mload\n      dup2\n      0x00\n      add\n      sstore\n      0x20\n      dup3\n      add\n      mload\n      dup2\n      0x01\n      add\n      sstore\n      pop\n      pop\n        /* \"contracts/utils/EnumerableMap.sol\":2314:2317  map */\n      dup5\n        /* \"contracts/utils/EnumerableMap.sol\":2314:2326  map._entries */\n      0x00\n      add\n        /* \"contracts/utils/EnumerableMap.sol\":2314:2333  map._entries.length */\n      dup1\n      sload\n      swap1\n      pop\n        /* \"contracts/utils/EnumerableMap.sol\":2294:2297  map */\n      dup6\n        /* \"contracts/utils/EnumerableMap.sol\":2294:2306  map._indexes */\n      0x01\n      add\n        /* \"contracts/utils/EnumerableMap.sol\":2294:2311  map._indexes[key] */\n      0x00\n        /* \"contracts/utils/EnumerableMap.sol\":2307:2310  key */\n      dup7\n        /* \"contracts/utils/EnumerableMap.sol\":2294:2311  map._indexes[key] */\n      dup2\n      mstore\n      0x20\n      add\n      swap1\n      dup2\n      mstore\n      0x20\n      add\n      0x00\n      keccak256\n        /* \"contracts/utils/EnumerableMap.sol\":2294:2333  map._indexes[key] = map._entries.length */\n      dup2\n      swap1\n      sstore\n      pop\n        /* \"contracts/utils/EnumerableMap.sol\":2354:2358  true */\n      0x01\n        /* \"contracts/utils/EnumerableMap.sol\":2347:2358  return true */\n      swap2\n      pop\n      pop\n      jump(tag_339)\n        /* \"contracts/utils/EnumerableMap.sol\":2032:2467  if (keyIndex == 0) { // Equivalent to !contains(map, key)... */\n    tag_340:\n        /* \"contracts/utils/EnumerableMap.sol\":2425:2430  value */\n      dup3\n        /* \"contracts/utils/EnumerableMap.sol\":2389:2392  map */\n      dup6\n        /* \"contracts/utils/EnumerableMap.sol\":2389:2401  map._entries */\n      0x00\n      add\n        /* \"contracts/utils/EnumerableMap.sol\":2413:2414  1 */\n      0x01\n        /* \"contracts/utils/EnumerableMap.sol\":2402:2410  keyIndex */\n      dup4\n        /* \"contracts/utils/EnumerableMap.sol\":2402:2414  keyIndex - 1 */\n      sub\n        /* \"contracts/utils/EnumerableMap.sol\":2389:2415  map._entries[keyIndex - 1] */\n      dup2\n      sload\n      dup2\n      lt\n      tag_343\n      jumpi\n      invalid\n    tag_343:\n      swap1\n      0x00\n      mstore\n      keccak256(0x00, 0x20)\n      swap1\n      0x02\n      mul\n      add\n        /* \"contracts/utils/EnumerableMap.sol\":2389:2422  map._entries[keyIndex - 1]._value */\n      0x01\n      add\n        /* \"contracts/utils/EnumerableMap.sol\":2389:2430  map._entries[keyIndex - 1]._value = value */\n      dup2\n      swap1\n      sstore\n      pop\n        /* \"contracts/utils/EnumerableMap.sol\":2451:2456  false */\n      0x00\n        /* \"contracts/utils/EnumerableMap.sol\":2444:2456  return false */\n      swap2\n      pop\n      pop\n        /* \"contracts/utils/EnumerableMap.sol\":1795:2473  function _set(Map storage map, bytes32 key, bytes32 value) private returns (bool) {... */\n    tag_339:\n      swap4\n      swap3\n      pop\n      pop\n      pop\n      jump\t// out\n        /* \"contracts/utils/Address.sol\":685:1295  function isContract(address account) internal view returns (bool) {... */\n    tag_306:\n        /* \"contracts/utils/Address.sol\":745:749  bool */\n      0x00\n        /* \"contracts/utils/Address.sol\":1003:1019  bytes32 codehash */\n      dup1\n        /* \"contracts/utils/Address.sol\":1029:1048  bytes32 accountHash */\n      0x00\n        /* \"contracts/utils/Address.sol\":1051:1117  0xc5d2460186f7233c927e7db2dcc703c0e500b653ca82273b7bfad8045d85a470 */\n      0xc5d2460186f7233c927e7db2dcc703c0e500b653ca82273b7bfad8045d85a470\n        /* \"contracts/utils/Address.sol\":1029:1117  bytes32 accountHash = 0xc5d2460186f7233c927e7db2dcc703c0e500b653ca82273b7bfad8045d85a470 */\n      0x00\n      shl\n      swap1\n      pop\n        /* \"contracts/utils/Address.sol\":1218:1225  account */\n      dup4\n        /* \"contracts/utils/Address.sol\":1206:1226  extcodehash(account) */\n      extcodehash\n        /* \"contracts/utils/Address.sol\":1194:1226  codehash := extcodehash(account) */\n      swap2\n      pop\n        /* \"contracts/utils/Address.sol\":1257:1268  accountHash */\n      dup1\n        /* \"contracts/utils/Address.sol\":1245:1253  codehash */\n      dup3\n        /* \"contracts/utils/Address.sol\":1245:1268  codehash != accountHash */\n      eq\n      iszero\n        /* \"contracts/utils/Address.sol\":1245:1287  codehash != accountHash && codehash != 0x0 */\n      dup1\n      iszero\n      tag_346\n      jumpi\n      pop\n        /* \"contracts/utils/Address.sol\":1284:1287  0x0 */\n      0x00\n        /* \"contracts/utils/Address.sol\":1272:1287  codehash != 0x0 */\n      dup1\n      shl\n        /* \"contracts/utils/Address.sol\":1272:1280  codehash */\n      dup3\n        /* \"contracts/utils/Address.sol\":1272:1287  codehash != 0x0 */\n      eq\n      iszero\n        /* \"contracts/utils/Address.sol\":1245:1287  codehash != accountHash && codehash != 0x0 */\n    tag_346:\n        /* \"contracts/utils/Address.sol\":1237:1288  return (codehash != accountHash && codehash != 0x0) */\n      swap3\n      pop\n      pop\n      pop\n        /* \"contracts/utils/Address.sol\":685:1295  function isContract(address account) internal view returns (bool) {... */\n      swap2\n      swap1\n      pop\n      jump\t// out\n        /* \"contracts/utils/EnumerableSet.sol\":3743:3870  function _contains(Set storage set, bytes32 value) private view returns (bool) {... */\n    tag_335:\n        /* \"contracts/utils/EnumerableSet.sol\":3816:3820  bool */\n      0x00\n        /* \"contracts/utils/EnumerableSet.sol\":3862:3863  0 */\n      dup1\n        /* \"contracts/utils/EnumerableSet.sol\":3839:3842  set */\n      dup4\n        /* \"contracts/utils/EnumerableSet.sol\":3839:3851  set._indexes */\n      0x01\n      add\n        /* \"contracts/utils/EnumerableSet.sol\":3839:3858  set._indexes[value] */\n      0x00\n        /* \"contracts/utils/EnumerableSet.sol\":3852:3857  value */\n      dup5\n        /* \"contracts/utils/EnumerableSet.sol\":3839:3858  set._indexes[value] */\n      dup2\n      mstore\n      0x20\n      add\n      swap1\n      dup2\n      mstore\n      0x20\n      add\n      0x00\n      keccak256\n      sload\n        /* \"contracts/utils/EnumerableSet.sol\":3839:3863  set._indexes[value] != 0 */\n      eq\n      iszero\n        /* \"contracts/utils/EnumerableSet.sol\":3832:3863  return set._indexes[value] != 0 */\n      swap1\n      pop\n        /* \"contracts/utils/EnumerableSet.sol\":3743:3870  function _contains(Set storage set, bytes32 value) private view returns (bool) {... */\n      swap3\n      swap2\n      pop\n      pop\n      jump\t// out\n        /* \"--CODEGEN--\":5:135   */\n    tag_349:\n      0x00\n        /* \"--CODEGEN--\":85:91   */\n      dup2\n        /* \"--CODEGEN--\":72:92   */\n      calldataload\n        /* \"--CODEGEN--\":63:92   */\n      swap1\n      pop\n        /* \"--CODEGEN--\":97:130   */\n      tag_351\n        /* \"--CODEGEN--\":124:129   */\n      dup2\n        /* \"--CODEGEN--\":97:130   */\n      jump(tag_352)\n    tag_351:\n        /* \"--CODEGEN--\":57:135   */\n      swap3\n      swap2\n      pop\n      pop\n      jump\n        /* \"--CODEGEN--\":142:266   */\n    tag_353:\n      0x00\n        /* \"--CODEGEN--\":219:225   */\n      dup2\n        /* \"--CODEGEN--\":206:226   */\n      calldataload\n        /* \"--CODEGEN--\":197:226   */\n      swap1\n      pop\n        /* \"--CODEGEN--\":231:261   */\n      tag_355\n        /* \"--CODEGEN--\":255:260   */\n      dup2\n        /* \"--CODEGEN--\":231:261   */\n      jump(tag_356)\n    tag_355:\n        /* \"--CODEGEN--\":191:266   */\n      swap3\n      swap2\n      pop\n      pop\n      jump\n        /* \"--CODEGEN--\":273:401   */\n    tag_357:\n      0x00\n        /* \"--CODEGEN--\":352:358   */\n      dup2\n        /* \"--CODEGEN--\":339:359   */\n      calldataload\n        /* \"--CODEGEN--\":330:359   */\n      swap1\n      pop\n        /* \"--CODEGEN--\":364:396   */\n      tag_359\n        /* \"--CODEGEN--\":390:395   */\n      dup2\n        /* \"--CODEGEN--\":364:396   */\n      jump(tag_360)\n    tag_359:\n        /* \"--CODEGEN--\":324:401   */\n      swap3\n      swap2\n      pop\n      pop\n      jump\n        /* \"--CODEGEN--\":408:540   */\n    tag_361:\n      0x00\n        /* \"--CODEGEN--\":491:497   */\n      dup2\n        /* \"--CODEGEN--\":485:498   */\n      mload\n        /* \"--CODEGEN--\":476:498   */\n      swap1\n      pop\n        /* \"--CODEGEN--\":503:535   */\n      tag_363\n        /* \"--CODEGEN--\":529:534   */\n      dup2\n        /* \"--CODEGEN--\":503:535   */\n      jump(tag_360)\n    tag_363:\n        /* \"--CODEGEN--\":470:540   */\n      swap3\n      swap2\n      pop\n      pop\n      jump\n        /* \"--CODEGEN--\":548:988   */\n    tag_364:\n      0x00\n        /* \"--CODEGEN--\":649:652   */\n      dup3\n        /* \"--CODEGEN--\":642:646   */\n      0x1f\n        /* \"--CODEGEN--\":634:640   */\n      dup4\n        /* \"--CODEGEN--\":630:647   */\n      add\n        /* \"--CODEGEN--\":626:653   */\n      slt\n        /* \"--CODEGEN--\":616:618   */\n      tag_366\n      jumpi\n        /* \"--CODEGEN--\":667:668   */\n      0x00\n        /* \"--CODEGEN--\":664:665   */\n      dup1\n        /* \"--CODEGEN--\":657:669   */\n      revert\n        /* \"--CODEGEN--\":616:618   */\n    tag_366:\n        /* \"--CODEGEN--\":704:710   */\n      dup2\n        /* \"--CODEGEN--\":691:711   */\n      calldataload\n        /* \"--CODEGEN--\":726:790   */\n      tag_367\n        /* \"--CODEGEN--\":741:789   */\n      tag_368\n        /* \"--CODEGEN--\":782:788   */\n      dup3\n        /* \"--CODEGEN--\":741:789   */\n      jump(tag_369)\n    tag_368:\n        /* \"--CODEGEN--\":726:790   */\n      jump(tag_370)\n    tag_367:\n        /* \"--CODEGEN--\":717:790   */\n      swap2\n      pop\n        /* \"--CODEGEN--\":810:816   */\n      dup1\n        /* \"--CODEGEN--\":803:808   */\n      dup3\n        /* \"--CODEGEN--\":796:817   */\n      mstore\n        /* \"--CODEGEN--\":846:850   */\n      0x20\n        /* \"--CODEGEN--\":838:844   */\n      dup4\n        /* \"--CODEGEN--\":834:851   */\n      add\n        /* \"--CODEGEN--\":879:883   */\n      0x20\n        /* \"--CODEGEN--\":872:877   */\n      dup4\n        /* \"--CODEGEN--\":868:884   */\n      add\n        /* \"--CODEGEN--\":914:917   */\n      dup6\n        /* \"--CODEGEN--\":905:911   */\n      dup4\n        /* \"--CODEGEN--\":900:903   */\n      dup4\n        /* \"--CODEGEN--\":896:912   */\n      add\n        /* \"--CODEGEN--\":893:918   */\n      gt\n        /* \"--CODEGEN--\":890:892   */\n      iszero\n      tag_371\n      jumpi\n        /* \"--CODEGEN--\":931:932   */\n      0x00\n        /* \"--CODEGEN--\":928:929   */\n      dup1\n        /* \"--CODEGEN--\":921:933   */\n      revert\n        /* \"--CODEGEN--\":890:892   */\n    tag_371:\n        /* \"--CODEGEN--\":941:982   */\n      tag_372\n        /* \"--CODEGEN--\":975:981   */\n      dup4\n        /* \"--CODEGEN--\":970:973   */\n      dup3\n        /* \"--CODEGEN--\":965:968   */\n      dup5\n        /* \"--CODEGEN--\":941:982   */\n      jump(tag_373)\n    tag_372:\n        /* \"--CODEGEN--\":609:988   */\n      pop\n      pop\n      pop\n      swap3\n      swap2\n      pop\n      pop\n      jump\n        /* \"--CODEGEN--\":996:1126   */\n    tag_374:\n      0x00\n        /* \"--CODEGEN--\":1076:1082   */\n      dup2\n        /* \"--CODEGEN--\":1063:1083   */\n      calldataload\n        /* \"--CODEGEN--\":1054:1083   */\n      swap1\n      pop\n        /* \"--CODEGEN--\":1088:1121   */\n      tag_376\n        /* \"--CODEGEN--\":1115:1120   */\n      dup2\n        /* \"--CODEGEN--\":1088:1121   */\n      jump(tag_377)\n    tag_376:\n        /* \"--CODEGEN--\":1048:1126   */\n      swap3\n      swap2\n      pop\n      pop\n      jump\n        /* \"--CODEGEN--\":1133:1374   */\n    tag_75:\n      0x00\n        /* \"--CODEGEN--\":1237:1239   */\n      0x20\n        /* \"--CODEGEN--\":1225:1234   */\n      dup3\n        /* \"--CODEGEN--\":1216:1223   */\n      dup5\n        /* \"--CODEGEN--\":1212:1235   */\n      sub\n        /* \"--CODEGEN--\":1208:1240   */\n      slt\n        /* \"--CODEGEN--\":1205:1207   */\n      iszero\n      tag_379\n      jumpi\n        /* \"--CODEGEN--\":1253:1254   */\n      0x00\n        /* \"--CODEGEN--\":1250:1251   */\n      dup1\n        /* \"--CODEGEN--\":1243:1255   */\n      revert\n        /* \"--CODEGEN--\":1205:1207   */\n    tag_379:\n        /* \"--CODEGEN--\":1288:1289   */\n      0x00\n        /* \"--CODEGEN--\":1305:1358   */\n      tag_380\n        /* \"--CODEGEN--\":1350:1357   */\n      dup5\n        /* \"--CODEGEN--\":1341:1347   */\n      dup3\n        /* \"--CODEGEN--\":1330:1339   */\n      dup6\n        /* \"--CODEGEN--\":1326:1348   */\n      add\n        /* \"--CODEGEN--\":1305:1358   */\n      jump(tag_349)\n    tag_380:\n        /* \"--CODEGEN--\":1295:1358   */\n      swap2\n      pop\n        /* \"--CODEGEN--\":1267:1364   */\n      pop\n        /* \"--CODEGEN--\":1199:1374   */\n      swap3\n      swap2\n      pop\n      pop\n      jump\n        /* \"--CODEGEN--\":1381:1747   */\n    tag_95:\n      0x00\n      dup1\n        /* \"--CODEGEN--\":1502:1504   */\n      0x40\n        /* \"--CODEGEN--\":1490:1499   */\n      dup4\n        /* \"--CODEGEN--\":1481:1488   */\n      dup6\n        /* \"--CODEGEN--\":1477:1500   */\n      sub\n        /* \"--CODEGEN--\":1473:1505   */\n      slt\n        /* \"--CODEGEN--\":1470:1472   */\n      iszero\n      tag_382\n      jumpi\n        /* \"--CODEGEN--\":1518:1519   */\n      0x00\n        /* \"--CODEGEN--\":1515:1516   */\n      dup1\n        /* \"--CODEGEN--\":1508:1520   */\n      revert\n        /* \"--CODEGEN--\":1470:1472   */\n    tag_382:\n        /* \"--CODEGEN--\":1553:1554   */\n      0x00\n        /* \"--CODEGEN--\":1570:1623   */\n      tag_383\n        /* \"--CODEGEN--\":1615:1622   */\n      dup6\n        /* \"--CODEGEN--\":1606:1612   */\n      dup3\n        /* \"--CODEGEN--\":1595:1604   */\n      dup7\n        /* \"--CODEGEN--\":1591:1613   */\n      add\n        /* \"--CODEGEN--\":1570:1623   */\n      jump(tag_349)\n    tag_383:\n        /* \"--CODEGEN--\":1560:1623   */\n      swap3\n      pop\n        /* \"--CODEGEN--\":1532:1629   */\n      pop\n        /* \"--CODEGEN--\":1660:1662   */\n      0x20\n        /* \"--CODEGEN--\":1678:1731   */\n      tag_384\n        /* \"--CODEGEN--\":1723:1730   */\n      dup6\n        /* \"--CODEGEN--\":1714:1720   */\n      dup3\n        /* \"--CODEGEN--\":1703:1712   */\n      dup7\n        /* \"--CODEGEN--\":1699:1721   */\n      add\n        /* \"--CODEGEN--\":1678:1731   */\n      jump(tag_349)\n    tag_384:\n        /* \"--CODEGEN--\":1668:1731   */\n      swap2\n      pop\n        /* \"--CODEGEN--\":1639:1737   */\n      pop\n        /* \"--CODEGEN--\":1464:1747   */\n      swap3\n      pop\n      swap3\n      swap1\n      pop\n      jump\n        /* \"--CODEGEN--\":1754:2245   */\n    tag_50:\n      0x00\n      dup1\n      0x00\n        /* \"--CODEGEN--\":1892:1894   */\n      0x60\n        /* \"--CODEGEN--\":1880:1889   */\n      dup5\n        /* \"--CODEGEN--\":1871:1878   */\n      dup7\n        /* \"--CODEGEN--\":1867:1890   */\n      sub\n        /* \"--CODEGEN--\":1863:1895   */\n      slt\n        /* \"--CODEGEN--\":1860:1862   */\n      iszero\n      tag_386\n      jumpi\n        /* \"--CODEGEN--\":1908:1909   */\n      0x00\n        /* \"--CODEGEN--\":1905:1906   */\n      dup1\n        /* \"--CODEGEN--\":1898:1910   */\n      revert\n        /* \"--CODEGEN--\":1860:1862   */\n    tag_386:\n        /* \"--CODEGEN--\":1943:1944   */\n      0x00\n        /* \"--CODEGEN--\":1960:2013   */\n      tag_387\n        /* \"--CODEGEN--\":2005:2012   */\n      dup7\n        /* \"--CODEGEN--\":1996:2002   */\n      dup3\n        /* \"--CODEGEN--\":1985:1994   */\n      dup8\n        /* \"--CODEGEN--\":1981:2003   */\n      add\n        /* \"--CODEGEN--\":1960:2013   */\n      jump(tag_349)\n    tag_387:\n        /* \"--CODEGEN--\":1950:2013   */\n      swap4\n      pop\n        /* \"--CODEGEN--\":1922:2019   */\n      pop\n        /* \"--CODEGEN--\":2050:2052   */\n      0x20\n        /* \"--CODEGEN--\":2068:2121   */\n      tag_388\n        /* \"--CODEGEN--\":2113:2120   */\n      dup7\n        /* \"--CODEGEN--\":2104:2110   */\n      dup3\n        /* \"--CODEGEN--\":2093:2102   */\n      dup8\n        /* \"--CODEGEN--\":2089:2111   */\n      add\n        /* \"--CODEGEN--\":2068:2121   */\n      jump(tag_349)\n    tag_388:\n        /* \"--CODEGEN--\":2058:2121   */\n      swap3\n      pop\n        /* \"--CODEGEN--\":2029:2127   */\n      pop\n        /* \"--CODEGEN--\":2158:2160   */\n      0x40\n        /* \"--CODEGEN--\":2176:2229   */\n      tag_389\n        /* \"--CODEGEN--\":2221:2228   */\n      dup7\n        /* \"--CODEGEN--\":2212:2218   */\n      dup3\n        /* \"--CODEGEN--\":2201:2210   */\n      dup8\n        /* \"--CODEGEN--\":2197:2219   */\n      add\n        /* \"--CODEGEN--\":2176:2229   */\n      jump(tag_374)\n    tag_389:\n        /* \"--CODEGEN--\":2166:2229   */\n      swap2\n      pop\n        /* \"--CODEGEN--\":2137:2235   */\n      pop\n        /* \"--CODEGEN--\":1854:2245   */\n      swap3\n      pop\n      swap3\n      pop\n      swap3\n      jump\n        /* \"--CODEGEN--\":2252:2973   */\n    tag_87:\n      0x00\n      dup1\n      0x00\n      dup1\n        /* \"--CODEGEN--\":2416:2419   */\n      0x80\n        /* \"--CODEGEN--\":2404:2413   */\n      dup6\n        /* \"--CODEGEN--\":2395:2402   */\n      dup8\n        /* \"--CODEGEN--\":2391:2414   */\n      sub\n        /* \"--CODEGEN--\":2387:2420   */\n      slt\n        /* \"--CODEGEN--\":2384:2386   */\n      iszero\n      tag_391\n      jumpi\n        /* \"--CODEGEN--\":2433:2434   */\n      0x00\n        /* \"--CODEGEN--\":2430:2431   */\n      dup1\n        /* \"--CODEGEN--\":2423:2435   */\n      revert\n        /* \"--CODEGEN--\":2384:2386   */\n    tag_391:\n        /* \"--CODEGEN--\":2468:2469   */\n      0x00\n        /* \"--CODEGEN--\":2485:2538   */\n      tag_392\n        /* \"--CODEGEN--\":2530:2537   */\n      dup8\n        /* \"--CODEGEN--\":2521:2527   */\n      dup3\n        /* \"--CODEGEN--\":2510:2519   */\n      dup9\n        /* \"--CODEGEN--\":2506:2528   */\n      add\n        /* \"--CODEGEN--\":2485:2538   */\n      jump(tag_349)\n    tag_392:\n        /* \"--CODEGEN--\":2475:2538   */\n      swap5\n      pop\n        /* \"--CODEGEN--\":2447:2544   */\n      pop\n        /* \"--CODEGEN--\":2575:2577   */\n      0x20\n        /* \"--CODEGEN--\":2593:2646   */\n      tag_393\n        /* \"--CODEGEN--\":2638:2645   */\n      dup8\n        /* \"--CODEGEN--\":2629:2635   */\n      dup3\n        /* \"--CODEGEN--\":2618:2627   */\n      dup9\n        /* \"--CODEGEN--\":2614:2636   */\n      add\n        /* \"--CODEGEN--\":2593:2646   */\n      jump(tag_349)\n    tag_393:\n        /* \"--CODEGEN--\":2583:2646   */\n      swap4\n      pop\n        /* \"--CODEGEN--\":2554:2652   */\n      pop\n        /* \"--CODEGEN--\":2683:2685   */\n      0x40\n        /* \"--CODEGEN--\":2701:2754   */\n      tag_394\n        /* \"--CODEGEN--\":2746:2753   */\n      dup8\n        /* \"--CODEGEN--\":2737:2743   */\n      dup3\n        /* \"--CODEGEN--\":2726:2735   */\n      dup9\n        /* \"--CODEGEN--\":2722:2744   */\n      add\n        /* \"--CODEGEN--\":2701:2754   */\n      jump(tag_374)\n    tag_394:\n        /* \"--CODEGEN--\":2691:2754   */\n      swap3\n      pop\n        /* \"--CODEGEN--\":2662:2760   */\n      pop\n        /* \"--CODEGEN--\":2819:2821   */\n      0x60\n        /* \"--CODEGEN--\":2808:2817   */\n      dup6\n        /* \"--CODEGEN--\":2804:2822   */\n      add\n        /* \"--CODEGEN--\":2791:2823   */\n      calldataload\n        /* \"--CODEGEN--\":2843:2861   */\n      0xffffffffffffffff\n        /* \"--CODEGEN--\":2835:2841   */\n      dup2\n        /* \"--CODEGEN--\":2832:2862   */\n      gt\n        /* \"--CODEGEN--\":2829:2831   */\n      iszero\n      tag_395\n      jumpi\n        /* \"--CODEGEN--\":2875:2876   */\n      0x00\n        /* \"--CODEGEN--\":2872:2873   */\n      dup1\n        /* \"--CODEGEN--\":2865:2877   */\n      revert\n        /* \"--CODEGEN--\":2829:2831   */\n    tag_395:\n        /* \"--CODEGEN--\":2895:2957   */\n      tag_396\n        /* \"--CODEGEN--\":2949:2956   */\n      dup8\n        /* \"--CODEGEN--\":2940:2946   */\n      dup3\n        /* \"--CODEGEN--\":2929:2938   */\n      dup9\n        /* \"--CODEGEN--\":2925:2947   */\n      add\n        /* \"--CODEGEN--\":2895:2957   */\n      jump(tag_364)\n    tag_396:\n        /* \"--CODEGEN--\":2885:2957   */\n      swap2\n      pop\n        /* \"--CODEGEN--\":2770:2963   */\n      pop\n        /* \"--CODEGEN--\":2378:2973   */\n      swap3\n      swap6\n      swap2\n      swap5\n      pop\n      swap3\n      pop\n      jump\n        /* \"--CODEGEN--\":2980:3340   */\n    tag_83:\n      0x00\n      dup1\n        /* \"--CODEGEN--\":3098:3100   */\n      0x40\n        /* \"--CODEGEN--\":3086:3095   */\n      dup4\n        /* \"--CODEGEN--\":3077:3084   */\n      dup6\n        /* \"--CODEGEN--\":3073:3096   */\n      sub\n        /* \"--CODEGEN--\":3069:3101   */\n      slt\n        /* \"--CODEGEN--\":3066:3068   */\n      iszero\n      tag_398\n      jumpi\n        /* \"--CODEGEN--\":3114:3115   */\n      0x00\n        /* \"--CODEGEN--\":3111:3112   */\n      dup1\n        /* \"--CODEGEN--\":3104:3116   */\n      revert\n        /* \"--CODEGEN--\":3066:3068   */\n    tag_398:\n        /* \"--CODEGEN--\":3149:3150   */\n      0x00\n        /* \"--CODEGEN--\":3166:3219   */\n      tag_399\n        /* \"--CODEGEN--\":3211:3218   */\n      dup6\n        /* \"--CODEGEN--\":3202:3208   */\n      dup3\n        /* \"--CODEGEN--\":3191:3200   */\n      dup7\n        /* \"--CODEGEN--\":3187:3209   */\n      add\n        /* \"--CODEGEN--\":3166:3219   */\n      jump(tag_349)\n    tag_399:\n        /* \"--CODEGEN--\":3156:3219   */\n      swap3\n      pop\n        /* \"--CODEGEN--\":3128:3225   */\n      pop\n        /* \"--CODEGEN--\":3256:3258   */\n      0x20\n        /* \"--CODEGEN--\":3274:3324   */\n      tag_400\n        /* \"--CODEGEN--\":3316:3323   */\n      dup6\n        /* \"--CODEGEN--\":3307:3313   */\n      dup3\n        /* \"--CODEGEN--\":3296:3305   */\n      dup7\n        /* \"--CODEGEN--\":3292:3314   */\n      add\n        /* \"--CODEGEN--\":3274:3324   */\n      jump(tag_353)\n    tag_400:\n        /* \"--CODEGEN--\":3264:3324   */\n      swap2\n      pop\n        /* \"--CODEGEN--\":3235:3330   */\n      pop\n        /* \"--CODEGEN--\":3060:3340   */\n      swap3\n      pop\n      swap3\n      swap1\n      pop\n      jump\n        /* \"--CODEGEN--\":3347:3713   */\n    tag_42:\n      0x00\n      dup1\n        /* \"--CODEGEN--\":3468:3470   */\n      0x40\n        /* \"--CODEGEN--\":3456:3465   */\n      dup4\n        /* \"--CODEGEN--\":3447:3454   */\n      dup6\n        /* \"--CODEGEN--\":3443:3466   */\n      sub\n        /* \"--CODEGEN--\":3439:3471   */\n      slt\n        /* \"--CODEGEN--\":3436:3438   */\n      iszero\n      tag_402\n      jumpi\n        /* \"--CODEGEN--\":3484:3485   */\n      0x00\n        /* \"--CODEGEN--\":3481:3482   */\n      dup1\n        /* \"--CODEGEN--\":3474:3486   */\n      revert\n        /* \"--CODEGEN--\":3436:3438   */\n    tag_402:\n        /* \"--CODEGEN--\":3519:3520   */\n      0x00\n        /* \"--CODEGEN--\":3536:3589   */\n      tag_403\n        /* \"--CODEGEN--\":3581:3588   */\n      dup6\n        /* \"--CODEGEN--\":3572:3578   */\n      dup3\n        /* \"--CODEGEN--\":3561:3570   */\n      dup7\n        /* \"--CODEGEN--\":3557:3579   */\n      add\n        /* \"--CODEGEN--\":3536:3589   */\n      jump(tag_349)\n    tag_403:\n        /* \"--CODEGEN--\":3526:3589   */\n      swap3\n      pop\n        /* \"--CODEGEN--\":3498:3595   */\n      pop\n        /* \"--CODEGEN--\":3626:3628   */\n      0x20\n        /* \"--CODEGEN--\":3644:3697   */\n      tag_404\n        /* \"--CODEGEN--\":3689:3696   */\n      dup6\n        /* \"--CODEGEN--\":3680:3686   */\n      dup3\n        /* \"--CODEGEN--\":3669:3678   */\n      dup7\n        /* \"--CODEGEN--\":3665:3687   */\n      add\n        /* \"--CODEGEN--\":3644:3697   */\n      jump(tag_374)\n    tag_404:\n        /* \"--CODEGEN--\":3634:3697   */\n      swap2\n      pop\n        /* \"--CODEGEN--\":3605:3703   */\n      pop\n        /* \"--CODEGEN--\":3430:3713   */\n      swap3\n      pop\n      swap3\n      swap1\n      pop\n      jump\n        /* \"--CODEGEN--\":3720:3959   */\n    tag_26:\n      0x00\n        /* \"--CODEGEN--\":3823:3825   */\n      0x20\n        /* \"--CODEGEN--\":3811:3820   */\n      dup3\n        /* \"--CODEGEN--\":3802:3809   */\n      dup5\n        /* \"--CODEGEN--\":3798:3821   */\n      sub\n        /* \"--CODEGEN--\":3794:3826   */\n      slt\n        /* \"--CODEGEN--\":3791:3793   */\n      iszero\n      tag_406\n      jumpi\n        /* \"--CODEGEN--\":3839:3840   */\n      0x00\n        /* \"--CODEGEN--\":3836:3837   */\n      dup1\n        /* \"--CODEGEN--\":3829:3841   */\n      revert\n        /* \"--CODEGEN--\":3791:3793   */\n    tag_406:\n        /* \"--CODEGEN--\":3874:3875   */\n      0x00\n        /* \"--CODEGEN--\":3891:3943   */\n      tag_407\n        /* \"--CODEGEN--\":3935:3942   */\n      dup5\n        /* \"--CODEGEN--\":3926:3932   */\n      dup3\n        /* \"--CODEGEN--\":3915:3924   */\n      dup6\n        /* \"--CODEGEN--\":3911:3933   */\n      add\n        /* \"--CODEGEN--\":3891:3943   */\n      jump(tag_357)\n    tag_407:\n        /* \"--CODEGEN--\":3881:3943   */\n      swap2\n      pop\n        /* \"--CODEGEN--\":3853:3949   */\n      pop\n        /* \"--CODEGEN--\":3785:3959   */\n      swap3\n      swap2\n      pop\n      pop\n      jump\n        /* \"--CODEGEN--\":3966:4227   */\n    tag_322:\n      0x00\n        /* \"--CODEGEN--\":4080:4082   */\n      0x20\n        /* \"--CODEGEN--\":4068:4077   */\n      dup3\n        /* \"--CODEGEN--\":4059:4066   */\n      dup5\n        /* \"--CODEGEN--\":4055:4078   */\n      sub\n        /* \"--CODEGEN--\":4051:4083   */\n      slt\n        /* \"--CODEGEN--\":4048:4050   */\n      iszero\n      tag_409\n      jumpi\n        /* \"--CODEGEN--\":4096:4097   */\n      0x00\n        /* \"--CODEGEN--\":4093:4094   */\n      dup1\n        /* \"--CODEGEN--\":4086:4098   */\n      revert\n        /* \"--CODEGEN--\":4048:4050   */\n    tag_409:\n        /* \"--CODEGEN--\":4131:4132   */\n      0x00\n        /* \"--CODEGEN--\":4148:4211   */\n      tag_410\n        /* \"--CODEGEN--\":4203:4210   */\n      dup5\n        /* \"--CODEGEN--\":4194:4200   */\n      dup3\n        /* \"--CODEGEN--\":4183:4192   */\n      dup6\n        /* \"--CODEGEN--\":4179:4201   */\n      add\n        /* \"--CODEGEN--\":4148:4211   */\n      jump(tag_361)\n    tag_410:\n        /* \"--CODEGEN--\":4138:4211   */\n      swap2\n      pop\n        /* \"--CODEGEN--\":4110:4217   */\n      pop\n        /* \"--CODEGEN--\":4042:4227   */\n      swap3\n      swap2\n      pop\n      pop\n      jump\n        /* \"--CODEGEN--\":4234:4475   */\n    tag_36:\n      0x00\n        /* \"--CODEGEN--\":4338:4340   */\n      0x20\n        /* \"--CODEGEN--\":4326:4335   */\n      dup3\n        /* \"--CODEGEN--\":4317:4324   */\n      dup5\n        /* \"--CODEGEN--\":4313:4336   */\n      sub\n        /* \"--CODEGEN--\":4309:4341   */\n      slt\n        /* \"--CODEGEN--\":4306:4308   */\n      iszero\n      tag_412\n      jumpi\n        /* \"--CODEGEN--\":4354:4355   */\n      0x00\n        /* \"--CODEGEN--\":4351:4352   */\n      dup1\n        /* \"--CODEGEN--\":4344:4356   */\n      revert\n        /* \"--CODEGEN--\":4306:4308   */\n    tag_412:\n        /* \"--CODEGEN--\":4389:4390   */\n      0x00\n        /* \"--CODEGEN--\":4406:4459   */\n      tag_413\n        /* \"--CODEGEN--\":4451:4458   */\n      dup5\n        /* \"--CODEGEN--\":4442:4448   */\n      dup3\n        /* \"--CODEGEN--\":4431:4440   */\n      dup6\n        /* \"--CODEGEN--\":4427:4449   */\n      add\n        /* \"--CODEGEN--\":4406:4459   */\n      jump(tag_374)\n    tag_413:\n        /* \"--CODEGEN--\":4396:4459   */\n      swap2\n      pop\n        /* \"--CODEGEN--\":4368:4465   */\n      pop\n        /* \"--CODEGEN--\":4300:4475   */\n      swap3\n      swap2\n      pop\n      pop\n      jump\n        /* \"--CODEGEN--\":4482:4619   */\n    tag_414:\n        /* \"--CODEGEN--\":4581:4613   */\n      tag_416\n        /* \"--CODEGEN--\":4607:4612   */\n      dup2\n        /* \"--CODEGEN--\":4581:4613   */\n      jump(tag_417)\n    tag_416:\n        /* \"--CODEGEN--\":4576:4579   */\n      dup3\n        /* \"--CODEGEN--\":4569:4614   */\n      mstore\n        /* \"--CODEGEN--\":4563:4619   */\n      pop\n      pop\n      jump\n        /* \"--CODEGEN--\":4626:4739   */\n    tag_418:\n        /* \"--CODEGEN--\":4709:4733   */\n      tag_420\n        /* \"--CODEGEN--\":4727:4732   */\n      dup2\n        /* \"--CODEGEN--\":4709:4733   */\n      jump(tag_421)\n    tag_420:\n        /* \"--CODEGEN--\":4704:4707   */\n      dup3\n        /* \"--CODEGEN--\":4697:4734   */\n      mstore\n        /* \"--CODEGEN--\":4691:4739   */\n      pop\n      pop\n      jump\n        /* \"--CODEGEN--\":4746:4850   */\n    tag_422:\n        /* \"--CODEGEN--\":4823:4844   */\n      tag_424\n        /* \"--CODEGEN--\":4838:4843   */\n      dup2\n        /* \"--CODEGEN--\":4823:4844   */\n      jump(tag_425)\n    tag_424:\n        /* \"--CODEGEN--\":4818:4821   */\n      dup3\n        /* \"--CODEGEN--\":4811:4845   */\n      mstore\n        /* \"--CODEGEN--\":4805:4850   */\n      pop\n      pop\n      jump\n        /* \"--CODEGEN--\":4857:5200   */\n    tag_426:\n      0x00\n        /* \"--CODEGEN--\":4967:5005   */\n      tag_428\n        /* \"--CODEGEN--\":4999:5004   */\n      dup3\n        /* \"--CODEGEN--\":4967:5005   */\n      jump(tag_429)\n    tag_428:\n        /* \"--CODEGEN--\":5017:5087   */\n      tag_430\n        /* \"--CODEGEN--\":5080:5086   */\n      dup2\n        /* \"--CODEGEN--\":5075:5078   */\n      dup6\n        /* \"--CODEGEN--\":5017:5087   */\n      jump(tag_431)\n    tag_430:\n        /* \"--CODEGEN--\":5010:5087   */\n      swap4\n      pop\n        /* \"--CODEGEN--\":5092:5144   */\n      tag_432\n        /* \"--CODEGEN--\":5137:5143   */\n      dup2\n        /* \"--CODEGEN--\":5132:5135   */\n      dup6\n        /* \"--CODEGEN--\":5125:5129   */\n      0x20\n        /* \"--CODEGEN--\":5118:5123   */\n      dup7\n        /* \"--CODEGEN--\":5114:5130   */\n      add\n        /* \"--CODEGEN--\":5092:5144   */\n      jump(tag_433)\n    tag_432:\n        /* \"--CODEGEN--\":5165:5194   */\n      tag_434\n        /* \"--CODEGEN--\":5187:5193   */\n      dup2\n        /* \"--CODEGEN--\":5165:5194   */\n      jump(tag_435)\n    tag_434:\n        /* \"--CODEGEN--\":5160:5163   */\n      dup5\n        /* \"--CODEGEN--\":5156:5195   */\n      add\n        /* \"--CODEGEN--\":5149:5195   */\n      swap2\n      pop\n        /* \"--CODEGEN--\":4947:5200   */\n      pop\n      swap3\n      swap2\n      pop\n      pop\n      jump\n        /* \"--CODEGEN--\":5207:5563   */\n    tag_436:\n      0x00\n        /* \"--CODEGEN--\":5335:5373   */\n      tag_438\n        /* \"--CODEGEN--\":5367:5372   */\n      dup3\n        /* \"--CODEGEN--\":5335:5373   */\n      jump(tag_429)\n    tag_438:\n        /* \"--CODEGEN--\":5385:5473   */\n      tag_439\n        /* \"--CODEGEN--\":5466:5472   */\n      dup2\n        /* \"--CODEGEN--\":5461:5464   */\n      dup6\n        /* \"--CODEGEN--\":5385:5473   */\n      jump(tag_440)\n    tag_439:\n        /* \"--CODEGEN--\":5378:5473   */\n      swap4\n      pop\n        /* \"--CODEGEN--\":5478:5530   */\n      tag_441\n        /* \"--CODEGEN--\":5523:5529   */\n      dup2\n        /* \"--CODEGEN--\":5518:5521   */\n      dup6\n        /* \"--CODEGEN--\":5511:5515   */\n      0x20\n        /* \"--CODEGEN--\":5504:5509   */\n      dup7\n        /* \"--CODEGEN--\":5500:5516   */\n      add\n        /* \"--CODEGEN--\":5478:5530   */\n      jump(tag_433)\n    tag_441:\n        /* \"--CODEGEN--\":5551:5557   */\n      dup1\n        /* \"--CODEGEN--\":5546:5549   */\n      dup5\n        /* \"--CODEGEN--\":5542:5558   */\n      add\n        /* \"--CODEGEN--\":5535:5558   */\n      swap2\n      pop\n        /* \"--CODEGEN--\":5315:5563   */\n      pop\n      swap3\n      swap2\n      pop\n      pop\n      jump\n        /* \"--CODEGEN--\":5570:5917   */\n    tag_442:\n      0x00\n        /* \"--CODEGEN--\":5682:5721   */\n      tag_444\n        /* \"--CODEGEN--\":5715:5720   */\n      dup3\n        /* \"--CODEGEN--\":5682:5721   */\n      jump(tag_445)\n    tag_444:\n        /* \"--CODEGEN--\":5733:5804   */\n      tag_446\n        /* \"--CODEGEN--\":5797:5803   */\n      dup2\n        /* \"--CODEGEN--\":5792:5795   */\n      dup6\n        /* \"--CODEGEN--\":5733:5804   */\n      jump(tag_447)\n    tag_446:\n        /* \"--CODEGEN--\":5726:5804   */\n      swap4\n      pop\n        /* \"--CODEGEN--\":5809:5861   */\n      tag_448\n        /* \"--CODEGEN--\":5854:5860   */\n      dup2\n        /* \"--CODEGEN--\":5849:5852   */\n      dup6\n        /* \"--CODEGEN--\":5842:5846   */\n      0x20\n        /* \"--CODEGEN--\":5835:5840   */\n      dup7\n        /* \"--CODEGEN--\":5831:5847   */\n      add\n        /* \"--CODEGEN--\":5809:5861   */\n      jump(tag_433)\n    tag_448:\n        /* \"--CODEGEN--\":5882:5911   */\n      tag_449\n        /* \"--CODEGEN--\":5904:5910   */\n      dup2\n        /* \"--CODEGEN--\":5882:5911   */\n      jump(tag_435)\n    tag_449:\n        /* \"--CODEGEN--\":5877:5880   */\n      dup5\n        /* \"--CODEGEN--\":5873:5912   */\n      add\n        /* \"--CODEGEN--\":5866:5912   */\n      swap2\n      pop\n        /* \"--CODEGEN--\":5662:5917   */\n      pop\n      swap3\n      swap2\n      pop\n      pop\n      jump\n        /* \"--CODEGEN--\":5924:6284   */\n    tag_450:\n      0x00\n        /* \"--CODEGEN--\":6054:6093   */\n      tag_452\n        /* \"--CODEGEN--\":6087:6092   */\n      dup3\n        /* \"--CODEGEN--\":6054:6093   */\n      jump(tag_445)\n    tag_452:\n        /* \"--CODEGEN--\":6105:6194   */\n      tag_453\n        /* \"--CODEGEN--\":6187:6193   */\n      dup2\n        /* \"--CODEGEN--\":6182:6185   */\n      dup6\n        /* \"--CODEGEN--\":6105:6194   */\n      jump(tag_454)\n    tag_453:\n        /* \"--CODEGEN--\":6098:6194   */\n      swap4\n      pop\n        /* \"--CODEGEN--\":6199:6251   */\n      tag_455\n        /* \"--CODEGEN--\":6244:6250   */\n      dup2\n        /* \"--CODEGEN--\":6239:6242   */\n      dup6\n        /* \"--CODEGEN--\":6232:6236   */\n      0x20\n        /* \"--CODEGEN--\":6225:6230   */\n      dup7\n        /* \"--CODEGEN--\":6221:6237   */\n      add\n        /* \"--CODEGEN--\":6199:6251   */\n      jump(tag_433)\n    tag_455:\n        /* \"--CODEGEN--\":6272:6278   */\n      dup1\n        /* \"--CODEGEN--\":6267:6270   */\n      dup5\n        /* \"--CODEGEN--\":6263:6279   */\n      add\n        /* \"--CODEGEN--\":6256:6279   */\n      swap2\n      pop\n        /* \"--CODEGEN--\":6034:6284   */\n      pop\n      swap3\n      swap2\n      pop\n      pop\n      jump\n        /* \"--CODEGEN--\":6316:7200   */\n    tag_456:\n      0x00\n        /* \"--CODEGEN--\":6453:6458   */\n      dup2\n        /* \"--CODEGEN--\":6447:6459   */\n      sload\n        /* \"--CODEGEN--\":6487:6488   */\n      0x01\n        /* \"--CODEGEN--\":6476:6485   */\n      dup2\n        /* \"--CODEGEN--\":6472:6489   */\n      and\n        /* \"--CODEGEN--\":6500:6501   */\n      0x00\n        /* \"--CODEGEN--\":6495:6763   */\n      dup2\n      eq\n      tag_459\n      jumpi\n        /* \"--CODEGEN--\":6774:6775   */\n      0x01\n        /* \"--CODEGEN--\":6769:7194   */\n      dup2\n      eq\n      tag_460\n      jumpi\n        /* \"--CODEGEN--\":6465:7194   */\n      jump(tag_458)\n        /* \"--CODEGEN--\":6495:6763   */\n    tag_459:\n        /* \"--CODEGEN--\":6573:6577   */\n      0x7f\n        /* \"--CODEGEN--\":6569:6570   */\n      0x02\n        /* \"--CODEGEN--\":6558:6567   */\n      dup4\n        /* \"--CODEGEN--\":6554:6571   */\n      div\n        /* \"--CODEGEN--\":6550:6578   */\n      and\n        /* \"--CODEGEN--\":6592:6681   */\n      tag_461\n        /* \"--CODEGEN--\":6674:6680   */\n      dup2\n        /* \"--CODEGEN--\":6669:6672   */\n      dup8\n        /* \"--CODEGEN--\":6592:6681   */\n      jump(tag_454)\n    tag_461:\n        /* \"--CODEGEN--\":6585:6681   */\n      swap6\n      pop\n        /* \"--CODEGEN--\":6719:6723   */\n      0xff\n        /* \"--CODEGEN--\":6715:6724   */\n      not\n        /* \"--CODEGEN--\":6704:6713   */\n      dup4\n        /* \"--CODEGEN--\":6700:6725   */\n      and\n        /* \"--CODEGEN--\":6695:6698   */\n      dup7\n        /* \"--CODEGEN--\":6688:6726   */\n      mstore\n        /* \"--CODEGEN--\":6749:6755   */\n      dup1\n        /* \"--CODEGEN--\":6744:6747   */\n      dup7\n        /* \"--CODEGEN--\":6740:6756   */\n      add\n        /* \"--CODEGEN--\":6733:6756   */\n      swap4\n      pop\n        /* \"--CODEGEN--\":6502:6763   */\n      pop\n        /* \"--CODEGEN--\":6495:6763   */\n      jump(tag_458)\n        /* \"--CODEGEN--\":6769:7194   */\n    tag_460:\n        /* \"--CODEGEN--\":6838:6839   */\n      0x02\n        /* \"--CODEGEN--\":6827:6836   */\n      dup3\n        /* \"--CODEGEN--\":6823:6840   */\n      div\n        /* \"--CODEGEN--\":6854:6943   */\n      tag_462\n        /* \"--CODEGEN--\":6936:6942   */\n      dup2\n        /* \"--CODEGEN--\":6931:6934   */\n      dup8\n        /* \"--CODEGEN--\":6854:6943   */\n      jump(tag_454)\n    tag_462:\n        /* \"--CODEGEN--\":6847:6943   */\n      swap6\n      pop\n        /* \"--CODEGEN--\":6965:7003   */\n      tag_463\n        /* \"--CODEGEN--\":6997:7002   */\n      dup6\n        /* \"--CODEGEN--\":6965:7003   */\n      jump(tag_464)\n    tag_463:\n        /* \"--CODEGEN--\":7019:7020   */\n      0x00\n        /* \"--CODEGEN--\":7027:7157   */\n    tag_465:\n        /* \"--CODEGEN--\":7041:7047   */\n      dup3\n        /* \"--CODEGEN--\":7038:7039   */\n      dup2\n        /* \"--CODEGEN--\":7035:7048   */\n      lt\n        /* \"--CODEGEN--\":7027:7157   */\n      iszero\n      tag_467\n      jumpi\n        /* \"--CODEGEN--\":7106:7113   */\n      dup2\n        /* \"--CODEGEN--\":7100:7114   */\n      sload\n        /* \"--CODEGEN--\":7096:7097   */\n      dup2\n        /* \"--CODEGEN--\":7091:7094   */\n      dup10\n        /* \"--CODEGEN--\":7087:7098   */\n      add\n        /* \"--CODEGEN--\":7080:7115   */\n      mstore\n        /* \"--CODEGEN--\":7147:7148   */\n      0x01\n        /* \"--CODEGEN--\":7138:7145   */\n      dup3\n        /* \"--CODEGEN--\":7134:7149   */\n      add\n        /* \"--CODEGEN--\":7123:7149   */\n      swap2\n      pop\n        /* \"--CODEGEN--\":7063:7067   */\n      0x20\n        /* \"--CODEGEN--\":7060:7061   */\n      dup2\n        /* \"--CODEGEN--\":7056:7068   */\n      add\n        /* \"--CODEGEN--\":7051:7068   */\n      swap1\n      pop\n        /* \"--CODEGEN--\":7027:7157   */\n      jump(tag_465)\n    tag_467:\n        /* \"--CODEGEN--\":7180:7186   */\n      dup3\n        /* \"--CODEGEN--\":7175:7178   */\n      dup9\n        /* \"--CODEGEN--\":7171:7187   */\n      add\n        /* \"--CODEGEN--\":7164:7187   */\n      swap6\n      pop\n        /* \"--CODEGEN--\":6776:7194   */\n      pop\n      pop\n      pop\n        /* \"--CODEGEN--\":6465:7194   */\n    tag_458:\n      pop\n        /* \"--CODEGEN--\":6423:7200   */\n      pop\n      swap3\n      swap2\n      pop\n      pop\n      jump\n        /* \"--CODEGEN--\":7209:7580   */\n    tag_468:\n      0x00\n        /* \"--CODEGEN--\":7369:7436   */\n      tag_470\n        /* \"--CODEGEN--\":7433:7435   */\n      0x22\n        /* \"--CODEGEN--\":7428:7431   */\n      dup4\n        /* \"--CODEGEN--\":7369:7436   */\n      jump(tag_447)\n    tag_470:\n        /* \"--CODEGEN--\":7362:7436   */\n      swap2\n      pop\n        /* \"--CODEGEN--\":7469:7503   */\n      0x456e756d657261626c655365743a20696e646578206f7574206f6620626f756e\n        /* \"--CODEGEN--\":7465:7466   */\n      0x00\n        /* \"--CODEGEN--\":7460:7463   */\n      dup4\n        /* \"--CODEGEN--\":7456:7467   */\n      add\n        /* \"--CODEGEN--\":7449:7504   */\n      mstore\n        /* \"--CODEGEN--\":7538:7542   */\n      0x6473000000000000000000000000000000000000000000000000000000000000\n        /* \"--CODEGEN--\":7533:7535   */\n      0x20\n        /* \"--CODEGEN--\":7528:7531   */\n      dup4\n        /* \"--CODEGEN--\":7524:7536   */\n      add\n        /* \"--CODEGEN--\":7517:7543   */\n      mstore\n        /* \"--CODEGEN--\":7571:7573   */\n      0x40\n        /* \"--CODEGEN--\":7566:7569   */\n      dup3\n        /* \"--CODEGEN--\":7562:7574   */\n      add\n        /* \"--CODEGEN--\":7555:7574   */\n      swap1\n      pop\n        /* \"--CODEGEN--\":7355:7580   */\n      swap2\n      swap1\n      pop\n      jump\n        /* \"--CODEGEN--\":7589:7976   */\n    tag_471:\n      0x00\n        /* \"--CODEGEN--\":7749:7816   */\n      tag_473\n        /* \"--CODEGEN--\":7813:7815   */\n      0x32\n        /* \"--CODEGEN--\":7808:7811   */\n      dup4\n        /* \"--CODEGEN--\":7749:7816   */\n      jump(tag_447)\n    tag_473:\n        /* \"--CODEGEN--\":7742:7816   */\n      swap2\n      pop\n        /* \"--CODEGEN--\":7849:7883   */\n      0x4552433732313a207472616e7366657220746f206e6f6e204552433732315265\n        /* \"--CODEGEN--\":7845:7846   */\n      0x00\n        /* \"--CODEGEN--\":7840:7843   */\n      dup4\n        /* \"--CODEGEN--\":7836:7847   */\n      add\n        /* \"--CODEGEN--\":7829:7884   */\n      mstore\n        /* \"--CODEGEN--\":7918:7938   */\n      0x63656976657220696d706c656d656e7465720000000000000000000000000000\n        /* \"--CODEGEN--\":7913:7915   */\n      0x20\n        /* \"--CODEGEN--\":7908:7911   */\n      dup4\n        /* \"--CODEGEN--\":7904:7916   */\n      add\n        /* \"--CODEGEN--\":7897:7939   */\n      mstore\n        /* \"--CODEGEN--\":7967:7969   */\n      0x40\n        /* \"--CODEGEN--\":7962:7965   */\n      dup3\n        /* \"--CODEGEN--\":7958:7970   */\n      add\n        /* \"--CODEGEN--\":7951:7970   */\n      swap1\n      pop\n        /* \"--CODEGEN--\":7735:7976   */\n      swap2\n      swap1\n      pop\n      jump\n        /* \"--CODEGEN--\":7985:8313   */\n    tag_474:\n      0x00\n        /* \"--CODEGEN--\":8145:8212   */\n      tag_476\n        /* \"--CODEGEN--\":8209:8211   */\n      0x1c\n        /* \"--CODEGEN--\":8204:8207   */\n      dup4\n        /* \"--CODEGEN--\":8145:8212   */\n      jump(tag_447)\n    tag_476:\n        /* \"--CODEGEN--\":8138:8212   */\n      swap2\n      pop\n        /* \"--CODEGEN--\":8245:8275   */\n      0x4552433732313a20746f6b656e20616c7265616479206d696e74656400000000\n        /* \"--CODEGEN--\":8241:8242   */\n      0x00\n        /* \"--CODEGEN--\":8236:8239   */\n      dup4\n        /* \"--CODEGEN--\":8232:8243   */\n      add\n        /* \"--CODEGEN--\":8225:8276   */\n      mstore\n        /* \"--CODEGEN--\":8304:8306   */\n      0x20\n        /* \"--CODEGEN--\":8299:8302   */\n      dup3\n        /* \"--CODEGEN--\":8295:8307   */\n      add\n        /* \"--CODEGEN--\":8288:8307   */\n      swap1\n      pop\n        /* \"--CODEGEN--\":8131:8313   */\n      swap2\n      swap1\n      pop\n      jump\n        /* \"--CODEGEN--\":8322:8695   */\n    tag_477:\n      0x00\n        /* \"--CODEGEN--\":8482:8549   */\n      tag_479\n        /* \"--CODEGEN--\":8546:8548   */\n      0x24\n        /* \"--CODEGEN--\":8541:8544   */\n      dup4\n        /* \"--CODEGEN--\":8482:8549   */\n      jump(tag_447)\n    tag_479:\n        /* \"--CODEGEN--\":8475:8549   */\n      swap2\n      pop\n        /* \"--CODEGEN--\":8582:8616   */\n      0x4552433732313a207472616e7366657220746f20746865207a65726f20616464\n        /* \"--CODEGEN--\":8578:8579   */\n      0x00\n        /* \"--CODEGEN--\":8573:8576   */\n      dup4\n        /* \"--CODEGEN--\":8569:8580   */\n      add\n        /* \"--CODEGEN--\":8562:8617   */\n      mstore\n        /* \"--CODEGEN--\":8651:8657   */\n      0x7265737300000000000000000000000000000000000000000000000000000000\n        /* \"--CODEGEN--\":8646:8648   */\n      0x20\n        /* \"--CODEGEN--\":8641:8644   */\n      dup4\n        /* \"--CODEGEN--\":8637:8649   */\n      add\n        /* \"--CODEGEN--\":8630:8658   */\n      mstore\n        /* \"--CODEGEN--\":8686:8688   */\n      0x40\n        /* \"--CODEGEN--\":8681:8684   */\n      dup3\n        /* \"--CODEGEN--\":8677:8689   */\n      add\n        /* \"--CODEGEN--\":8670:8689   */\n      swap1\n      pop\n        /* \"--CODEGEN--\":8468:8695   */\n      swap2\n      swap1\n      pop\n      jump\n        /* \"--CODEGEN--\":8704:9029   */\n    tag_480:\n      0x00\n        /* \"--CODEGEN--\":8864:8931   */\n      tag_482\n        /* \"--CODEGEN--\":8928:8930   */\n      0x19\n        /* \"--CODEGEN--\":8923:8926   */\n      dup4\n        /* \"--CODEGEN--\":8864:8931   */\n      jump(tag_447)\n    tag_482:\n        /* \"--CODEGEN--\":8857:8931   */\n      swap2\n      pop\n        /* \"--CODEGEN--\":8964:8991   */\n      0x4552433732313a20617070726f766520746f2063616c6c657200000000000000\n        /* \"--CODEGEN--\":8960:8961   */\n      0x00\n        /* \"--CODEGEN--\":8955:8958   */\n      dup4\n        /* \"--CODEGEN--\":8951:8962   */\n      add\n        /* \"--CODEGEN--\":8944:8992   */\n      mstore\n        /* \"--CODEGEN--\":9020:9022   */\n      0x20\n        /* \"--CODEGEN--\":9015:9018   */\n      dup3\n        /* \"--CODEGEN--\":9011:9023   */\n      add\n        /* \"--CODEGEN--\":9004:9023   */\n      swap1\n      pop\n        /* \"--CODEGEN--\":8850:9029   */\n      swap2\n      swap1\n      pop\n      jump\n        /* \"--CODEGEN--\":9038:9419   */\n    tag_483:\n      0x00\n        /* \"--CODEGEN--\":9198:9265   */\n      tag_485\n        /* \"--CODEGEN--\":9262:9264   */\n      0x2c\n        /* \"--CODEGEN--\":9257:9260   */\n      dup4\n        /* \"--CODEGEN--\":9198:9265   */\n      jump(tag_447)\n    tag_485:\n        /* \"--CODEGEN--\":9191:9265   */\n      swap2\n      pop\n        /* \"--CODEGEN--\":9298:9332   */\n      0x4552433732313a206f70657261746f7220717565727920666f72206e6f6e6578\n        /* \"--CODEGEN--\":9294:9295   */\n      0x00\n        /* \"--CODEGEN--\":9289:9292   */\n      dup4\n        /* \"--CODEGEN--\":9285:9296   */\n      add\n        /* \"--CODEGEN--\":9278:9333   */\n      mstore\n        /* \"--CODEGEN--\":9367:9381   */\n      0x697374656e7420746f6b656e0000000000000000000000000000000000000000\n        /* \"--CODEGEN--\":9362:9364   */\n      0x20\n        /* \"--CODEGEN--\":9357:9360   */\n      dup4\n        /* \"--CODEGEN--\":9353:9365   */\n      add\n        /* \"--CODEGEN--\":9346:9382   */\n      mstore\n        /* \"--CODEGEN--\":9410:9412   */\n      0x40\n        /* \"--CODEGEN--\":9405:9408   */\n      dup3\n        /* \"--CODEGEN--\":9401:9413   */\n      add\n        /* \"--CODEGEN--\":9394:9413   */\n      swap1\n      pop\n        /* \"--CODEGEN--\":9184:9419   */\n      swap2\n      swap1\n      pop\n      jump\n        /* \"--CODEGEN--\":9428:9821   */\n    tag_486:\n      0x00\n        /* \"--CODEGEN--\":9588:9655   */\n      tag_488\n        /* \"--CODEGEN--\":9652:9654   */\n      0x38\n        /* \"--CODEGEN--\":9647:9650   */\n      dup4\n        /* \"--CODEGEN--\":9588:9655   */\n      jump(tag_447)\n    tag_488:\n        /* \"--CODEGEN--\":9581:9655   */\n      swap2\n      pop\n        /* \"--CODEGEN--\":9688:9722   */\n      0x4552433732313a20617070726f76652063616c6c6572206973206e6f74206f77\n        /* \"--CODEGEN--\":9684:9685   */\n      0x00\n        /* \"--CODEGEN--\":9679:9682   */\n      dup4\n        /* \"--CODEGEN--\":9675:9686   */\n      add\n        /* \"--CODEGEN--\":9668:9723   */\n      mstore\n        /* \"--CODEGEN--\":9757:9783   */\n      0x6e6572206e6f7220617070726f76656420666f7220616c6c0000000000000000\n        /* \"--CODEGEN--\":9752:9754   */\n      0x20\n        /* \"--CODEGEN--\":9747:9750   */\n      dup4\n        /* \"--CODEGEN--\":9743:9755   */\n      add\n        /* \"--CODEGEN--\":9736:9784   */\n      mstore\n        /* \"--CODEGEN--\":9812:9814   */\n      0x40\n        /* \"--CODEGEN--\":9807:9810   */\n      dup3\n        /* \"--CODEGEN--\":9803:9815   */\n      add\n        /* \"--CODEGEN--\":9796:9815   */\n      swap1\n      pop\n        /* \"--CODEGEN--\":9574:9821   */\n      swap2\n      swap1\n      pop\n      jump\n        /* \"--CODEGEN--\":9830:10209   */\n    tag_489:\n      0x00\n        /* \"--CODEGEN--\":9990:10057   */\n      tag_491\n        /* \"--CODEGEN--\":10054:10056   */\n      0x2a\n        /* \"--CODEGEN--\":10049:10052   */\n      dup4\n        /* \"--CODEGEN--\":9990:10057   */\n      jump(tag_447)\n    tag_491:\n        /* \"--CODEGEN--\":9983:10057   */\n      swap2\n      pop\n        /* \"--CODEGEN--\":10090:10124   */\n      0x4552433732313a2062616c616e636520717565727920666f7220746865207a65\n        /* \"--CODEGEN--\":10086:10087   */\n      0x00\n        /* \"--CODEGEN--\":10081:10084   */\n      dup4\n        /* \"--CODEGEN--\":10077:10088   */\n      add\n        /* \"--CODEGEN--\":10070:10125   */\n      mstore\n        /* \"--CODEGEN--\":10159:10171   */\n      0x726f206164647265737300000000000000000000000000000000000000000000\n        /* \"--CODEGEN--\":10154:10156   */\n      0x20\n        /* \"--CODEGEN--\":10149:10152   */\n      dup4\n        /* \"--CODEGEN--\":10145:10157   */\n      add\n        /* \"--CODEGEN--\":10138:10172   */\n      mstore\n        /* \"--CODEGEN--\":10200:10202   */\n      0x40\n        /* \"--CODEGEN--\":10195:10198   */\n      dup3\n        /* \"--CODEGEN--\":10191:10203   */\n      add\n        /* \"--CODEGEN--\":10184:10203   */\n      swap1\n      pop\n        /* \"--CODEGEN--\":9976:10209   */\n      swap2\n      swap1\n      pop\n      jump\n        /* \"--CODEGEN--\":10218:10589   */\n    tag_492:\n      0x00\n        /* \"--CODEGEN--\":10378:10445   */\n      tag_494\n        /* \"--CODEGEN--\":10442:10444   */\n      0x22\n        /* \"--CODEGEN--\":10437:10440   */\n      dup4\n        /* \"--CODEGEN--\":10378:10445   */\n      jump(tag_447)\n    tag_494:\n        /* \"--CODEGEN--\":10371:10445   */\n      swap2\n      pop\n        /* \"--CODEGEN--\":10478:10512   */\n      0x456e756d657261626c654d61703a20696e646578206f7574206f6620626f756e\n        /* \"--CODEGEN--\":10474:10475   */\n      0x00\n        /* \"--CODEGEN--\":10469:10472   */\n      dup4\n        /* \"--CODEGEN--\":10465:10476   */\n      add\n        /* \"--CODEGEN--\":10458:10513   */\n      mstore\n        /* \"--CODEGEN--\":10547:10551   */\n      0x6473000000000000000000000000000000000000000000000000000000000000\n        /* \"--CODEGEN--\":10542:10544   */\n      0x20\n        /* \"--CODEGEN--\":10537:10540   */\n      dup4\n        /* \"--CODEGEN--\":10533:10545   */\n      add\n        /* \"--CODEGEN--\":10526:10552   */\n      mstore\n        /* \"--CODEGEN--\":10580:10582   */\n      0x40\n        /* \"--CODEGEN--\":10575:10578   */\n      dup3\n        /* \"--CODEGEN--\":10571:10583   */\n      add\n        /* \"--CODEGEN--\":10564:10583   */\n      swap1\n      pop\n        /* \"--CODEGEN--\":10364:10589   */\n      swap2\n      swap1\n      pop\n      jump\n        /* \"--CODEGEN--\":10598:10930   */\n    tag_495:\n      0x00\n        /* \"--CODEGEN--\":10758:10825   */\n      tag_497\n        /* \"--CODEGEN--\":10822:10824   */\n      0x20\n        /* \"--CODEGEN--\":10817:10820   */\n      dup4\n        /* \"--CODEGEN--\":10758:10825   */\n      jump(tag_447)\n    tag_497:\n        /* \"--CODEGEN--\":10751:10825   */\n      swap2\n      pop\n        /* \"--CODEGEN--\":10858:10892   */\n      0x4552433732313a206d696e7420746f20746865207a65726f2061646472657373\n        /* \"--CODEGEN--\":10854:10855   */\n      0x00\n        /* \"--CODEGEN--\":10849:10852   */\n      dup4\n        /* \"--CODEGEN--\":10845:10856   */\n      add\n        /* \"--CODEGEN--\":10838:10893   */\n      mstore\n        /* \"--CODEGEN--\":10921:10923   */\n      0x20\n        /* \"--CODEGEN--\":10916:10919   */\n      dup3\n        /* \"--CODEGEN--\":10912:10924   */\n      add\n        /* \"--CODEGEN--\":10905:10924   */\n      swap1\n      pop\n        /* \"--CODEGEN--\":10744:10930   */\n      swap2\n      swap1\n      pop\n      jump\n        /* \"--CODEGEN--\":10939:11320   */\n    tag_498:\n      0x00\n        /* \"--CODEGEN--\":11099:11166   */\n      tag_500\n        /* \"--CODEGEN--\":11163:11165   */\n      0x2c\n        /* \"--CODEGEN--\":11158:11161   */\n      dup4\n        /* \"--CODEGEN--\":11099:11166   */\n      jump(tag_447)\n    tag_500:\n        /* \"--CODEGEN--\":11092:11166   */\n      swap2\n      pop\n        /* \"--CODEGEN--\":11199:11233   */\n      0x4552433732313a20617070726f76656420717565727920666f72206e6f6e6578\n        /* \"--CODEGEN--\":11195:11196   */\n      0x00\n        /* \"--CODEGEN--\":11190:11193   */\n      dup4\n        /* \"--CODEGEN--\":11186:11197   */\n      add\n        /* \"--CODEGEN--\":11179:11234   */\n      mstore\n        /* \"--CODEGEN--\":11268:11282   */\n      0x697374656e7420746f6b656e0000000000000000000000000000000000000000\n        /* \"--CODEGEN--\":11263:11265   */\n      0x20\n        /* \"--CODEGEN--\":11258:11261   */\n      dup4\n        /* \"--CODEGEN--\":11254:11266   */\n      add\n        /* \"--CODEGEN--\":11247:11283   */\n      mstore\n        /* \"--CODEGEN--\":11311:11313   */\n      0x40\n        /* \"--CODEGEN--\":11306:11309   */\n      dup3\n        /* \"--CODEGEN--\":11302:11314   */\n      add\n        /* \"--CODEGEN--\":11295:11314   */\n      swap1\n      pop\n        /* \"--CODEGEN--\":11085:11320   */\n      swap2\n      swap1\n      pop\n      jump\n        /* \"--CODEGEN--\":11329:11707   */\n    tag_501:\n      0x00\n        /* \"--CODEGEN--\":11489:11556   */\n      tag_503\n        /* \"--CODEGEN--\":11553:11555   */\n      0x29\n        /* \"--CODEGEN--\":11548:11551   */\n      dup4\n        /* \"--CODEGEN--\":11489:11556   */\n      jump(tag_447)\n    tag_503:\n        /* \"--CODEGEN--\":11482:11556   */\n      swap2\n      pop\n        /* \"--CODEGEN--\":11589:11623   */\n      0x4552433732313a207472616e73666572206f6620746f6b656e20746861742069\n        /* \"--CODEGEN--\":11585:11586   */\n      0x00\n        /* \"--CODEGEN--\":11580:11583   */\n      dup4\n        /* \"--CODEGEN--\":11576:11587   */\n      add\n        /* \"--CODEGEN--\":11569:11624   */\n      mstore\n        /* \"--CODEGEN--\":11658:11669   */\n      0x73206e6f74206f776e0000000000000000000000000000000000000000000000\n        /* \"--CODEGEN--\":11653:11655   */\n      0x20\n        /* \"--CODEGEN--\":11648:11651   */\n      dup4\n        /* \"--CODEGEN--\":11644:11656   */\n      add\n        /* \"--CODEGEN--\":11637:11670   */\n      mstore\n        /* \"--CODEGEN--\":11698:11700   */\n      0x40\n        /* \"--CODEGEN--\":11693:11696   */\n      dup3\n        /* \"--CODEGEN--\":11689:11701   */\n      add\n        /* \"--CODEGEN--\":11682:11701   */\n      swap1\n      pop\n        /* \"--CODEGEN--\":11475:11707   */\n      swap2\n      swap1\n      pop\n      jump\n        /* \"--CODEGEN--\":11716:12100   */\n    tag_504:\n      0x00\n        /* \"--CODEGEN--\":11876:11943   */\n      tag_506\n        /* \"--CODEGEN--\":11940:11942   */\n      0x2f\n        /* \"--CODEGEN--\":11935:11938   */\n      dup4\n        /* \"--CODEGEN--\":11876:11943   */\n      jump(tag_447)\n    tag_506:\n        /* \"--CODEGEN--\":11869:11943   */\n      swap2\n      pop\n        /* \"--CODEGEN--\":11976:12010   */\n      0x4552433732314d657461646174613a2055524920717565727920666f72206e6f\n        /* \"--CODEGEN--\":11972:11973   */\n      0x00\n        /* \"--CODEGEN--\":11967:11970   */\n      dup4\n        /* \"--CODEGEN--\":11963:11974   */\n      add\n        /* \"--CODEGEN--\":11956:12011   */\n      mstore\n        /* \"--CODEGEN--\":12045:12062   */\n      0x6e6578697374656e7420746f6b656e0000000000000000000000000000000000\n        /* \"--CODEGEN--\":12040:12042   */\n      0x20\n        /* \"--CODEGEN--\":12035:12038   */\n      dup4\n        /* \"--CODEGEN--\":12031:12043   */\n      add\n        /* \"--CODEGEN--\":12024:12063   */\n      mstore\n        /* \"--CODEGEN--\":12091:12093   */\n      0x40\n        /* \"--CODEGEN--\":12086:12089   */\n      dup3\n        /* \"--CODEGEN--\":12082:12094   */\n      add\n        /* \"--CODEGEN--\":12075:12094   */\n      swap1\n      pop\n        /* \"--CODEGEN--\":11862:12100   */\n      swap2\n      swap1\n      pop\n      jump\n        /* \"--CODEGEN--\":12109:12479   */\n    tag_507:\n      0x00\n        /* \"--CODEGEN--\":12269:12336   */\n      tag_509\n        /* \"--CODEGEN--\":12333:12335   */\n      0x21\n        /* \"--CODEGEN--\":12328:12331   */\n      dup4\n        /* \"--CODEGEN--\":12269:12336   */\n      jump(tag_447)\n    tag_509:\n        /* \"--CODEGEN--\":12262:12336   */\n      swap2\n      pop\n        /* \"--CODEGEN--\":12369:12403   */\n      0x4552433732313a20617070726f76616c20746f2063757272656e74206f776e65\n        /* \"--CODEGEN--\":12365:12366   */\n      0x00\n        /* \"--CODEGEN--\":12360:12363   */\n      dup4\n        /* \"--CODEGEN--\":12356:12367   */\n      add\n        /* \"--CODEGEN--\":12349:12404   */\n      mstore\n        /* \"--CODEGEN--\":12438:12441   */\n      0x7200000000000000000000000000000000000000000000000000000000000000\n        /* \"--CODEGEN--\":12433:12435   */\n      0x20\n        /* \"--CODEGEN--\":12428:12431   */\n      dup4\n        /* \"--CODEGEN--\":12424:12436   */\n      add\n        /* \"--CODEGEN--\":12417:12442   */\n      mstore\n        /* \"--CODEGEN--\":12470:12472   */\n      0x40\n        /* \"--CODEGEN--\":12465:12468   */\n      dup3\n        /* \"--CODEGEN--\":12461:12473   */\n      add\n        /* \"--CODEGEN--\":12454:12473   */\n      swap1\n      pop\n        /* \"--CODEGEN--\":12255:12479   */\n      swap2\n      swap1\n      pop\n      jump\n        /* \"--CODEGEN--\":12488:12874   */\n    tag_510:\n      0x00\n        /* \"--CODEGEN--\":12648:12715   */\n      tag_512\n        /* \"--CODEGEN--\":12712:12714   */\n      0x31\n        /* \"--CODEGEN--\":12707:12710   */\n      dup4\n        /* \"--CODEGEN--\":12648:12715   */\n      jump(tag_447)\n    tag_512:\n        /* \"--CODEGEN--\":12641:12715   */\n      swap2\n      pop\n        /* \"--CODEGEN--\":12748:12782   */\n      0x4552433732313a207472616e736665722063616c6c6572206973206e6f74206f\n        /* \"--CODEGEN--\":12744:12745   */\n      0x00\n        /* \"--CODEGEN--\":12739:12742   */\n      dup4\n        /* \"--CODEGEN--\":12735:12746   */\n      add\n        /* \"--CODEGEN--\":12728:12783   */\n      mstore\n        /* \"--CODEGEN--\":12817:12836   */\n      0x776e6572206e6f7220617070726f766564000000000000000000000000000000\n        /* \"--CODEGEN--\":12812:12814   */\n      0x20\n        /* \"--CODEGEN--\":12807:12810   */\n      dup4\n        /* \"--CODEGEN--\":12803:12815   */\n      add\n        /* \"--CODEGEN--\":12796:12837   */\n      mstore\n        /* \"--CODEGEN--\":12865:12867   */\n      0x40\n        /* \"--CODEGEN--\":12860:12863   */\n      dup3\n        /* \"--CODEGEN--\":12856:12868   */\n      add\n        /* \"--CODEGEN--\":12849:12868   */\n      swap1\n      pop\n        /* \"--CODEGEN--\":12634:12874   */\n      swap2\n      swap1\n      pop\n      jump\n        /* \"--CODEGEN--\":12882:12995   */\n    tag_513:\n        /* \"--CODEGEN--\":12965:12989   */\n      tag_515\n        /* \"--CODEGEN--\":12983:12988   */\n      dup2\n        /* \"--CODEGEN--\":12965:12989   */\n      jump(tag_516)\n    tag_515:\n        /* \"--CODEGEN--\":12960:12963   */\n      dup3\n        /* \"--CODEGEN--\":12953:12990   */\n      mstore\n        /* \"--CODEGEN--\":12947:12995   */\n      pop\n      pop\n      jump\n        /* \"--CODEGEN--\":13002:13264   */\n    tag_312:\n      0x00\n        /* \"--CODEGEN--\":13146:13239   */\n      tag_518\n        /* \"--CODEGEN--\":13235:13238   */\n      dup3\n        /* \"--CODEGEN--\":13226:13232   */\n      dup5\n        /* \"--CODEGEN--\":13146:13239   */\n      jump(tag_436)\n    tag_518:\n        /* \"--CODEGEN--\":13139:13239   */\n      swap2\n      pop\n        /* \"--CODEGEN--\":13256:13259   */\n      dup2\n        /* \"--CODEGEN--\":13249:13259   */\n      swap1\n      pop\n        /* \"--CODEGEN--\":13127:13264   */\n      swap3\n      swap2\n      pop\n      pop\n      jump\n        /* \"--CODEGEN--\":13271:13692   */\n    tag_190:\n      0x00\n        /* \"--CODEGEN--\":13462:13554   */\n      tag_520\n        /* \"--CODEGEN--\":13550:13553   */\n      dup3\n        /* \"--CODEGEN--\":13541:13547   */\n      dup6\n        /* \"--CODEGEN--\":13462:13554   */\n      jump(tag_456)\n    tag_520:\n        /* \"--CODEGEN--\":13455:13554   */\n      swap2\n      pop\n        /* \"--CODEGEN--\":13572:13667   */\n      tag_521\n        /* \"--CODEGEN--\":13663:13666   */\n      dup3\n        /* \"--CODEGEN--\":13654:13660   */\n      dup5\n        /* \"--CODEGEN--\":13572:13667   */\n      jump(tag_450)\n    tag_521:\n        /* \"--CODEGEN--\":13565:13667   */\n      swap2\n      pop\n        /* \"--CODEGEN--\":13684:13687   */\n      dup2\n        /* \"--CODEGEN--\":13677:13687   */\n      swap1\n      pop\n        /* \"--CODEGEN--\":13443:13692   */\n      swap4\n      swap3\n      pop\n      pop\n      pop\n      jump\n        /* \"--CODEGEN--\":13699:13912   */\n    tag_39:\n      0x00\n        /* \"--CODEGEN--\":13817:13819   */\n      0x20\n        /* \"--CODEGEN--\":13806:13815   */\n      dup3\n        /* \"--CODEGEN--\":13802:13820   */\n      add\n        /* \"--CODEGEN--\":13794:13820   */\n      swap1\n      pop\n        /* \"--CODEGEN--\":13831:13902   */\n      tag_523\n        /* \"--CODEGEN--\":13899:13900   */\n      0x00\n        /* \"--CODEGEN--\":13888:13897   */\n      dup4\n        /* \"--CODEGEN--\":13884:13901   */\n      add\n        /* \"--CODEGEN--\":13875:13881   */\n      dup5\n        /* \"--CODEGEN--\":13831:13902   */\n      jump(tag_418)\n    tag_523:\n        /* \"--CODEGEN--\":13788:13912   */\n      swap3\n      swap2\n      pop\n      pop\n      jump\n        /* \"--CODEGEN--\":13919:14582   */\n    tag_310:\n      0x00\n        /* \"--CODEGEN--\":14155:14158   */\n      0x80\n        /* \"--CODEGEN--\":14144:14153   */\n      dup3\n        /* \"--CODEGEN--\":14140:14159   */\n      add\n        /* \"--CODEGEN--\":14132:14159   */\n      swap1\n      pop\n        /* \"--CODEGEN--\":14170:14257   */\n      tag_525\n        /* \"--CODEGEN--\":14254:14255   */\n      0x00\n        /* \"--CODEGEN--\":14243:14252   */\n      dup4\n        /* \"--CODEGEN--\":14239:14256   */\n      add\n        /* \"--CODEGEN--\":14230:14236   */\n      dup8\n        /* \"--CODEGEN--\":14170:14257   */\n      jump(tag_414)\n    tag_525:\n        /* \"--CODEGEN--\":14268:14340   */\n      tag_526\n        /* \"--CODEGEN--\":14336:14338   */\n      0x20\n        /* \"--CODEGEN--\":14325:14334   */\n      dup4\n        /* \"--CODEGEN--\":14321:14339   */\n      add\n        /* \"--CODEGEN--\":14312:14318   */\n      dup7\n        /* \"--CODEGEN--\":14268:14340   */\n      jump(tag_418)\n    tag_526:\n        /* \"--CODEGEN--\":14351:14423   */\n      tag_527\n        /* \"--CODEGEN--\":14419:14421   */\n      0x40\n        /* \"--CODEGEN--\":14408:14417   */\n      dup4\n        /* \"--CODEGEN--\":14404:14422   */\n      add\n        /* \"--CODEGEN--\":14395:14401   */\n      dup6\n        /* \"--CODEGEN--\":14351:14423   */\n      jump(tag_513)\n    tag_527:\n        /* \"--CODEGEN--\":14471:14480   */\n      dup2\n        /* \"--CODEGEN--\":14465:14469   */\n      dup2\n        /* \"--CODEGEN--\":14461:14481   */\n      sub\n        /* \"--CODEGEN--\":14456:14458   */\n      0x60\n        /* \"--CODEGEN--\":14445:14454   */\n      dup4\n        /* \"--CODEGEN--\":14441:14459   */\n      add\n        /* \"--CODEGEN--\":14434:14482   */\n      mstore\n        /* \"--CODEGEN--\":14496:14572   */\n      tag_528\n        /* \"--CODEGEN--\":14567:14571   */\n      dup2\n        /* \"--CODEGEN--\":14558:14564   */\n      dup5\n        /* \"--CODEGEN--\":14496:14572   */\n      jump(tag_426)\n    tag_528:\n        /* \"--CODEGEN--\":14488:14572   */\n      swap1\n      pop\n        /* \"--CODEGEN--\":14126:14582   */\n      swap6\n      swap5\n      pop\n      pop\n      pop\n      pop\n      pop\n      jump\n        /* \"--CODEGEN--\":14589:14790   */\n    tag_29:\n      0x00\n        /* \"--CODEGEN--\":14701:14703   */\n      0x20\n        /* \"--CODEGEN--\":14690:14699   */\n      dup3\n        /* \"--CODEGEN--\":14686:14704   */\n      add\n        /* \"--CODEGEN--\":14678:14704   */\n      swap1\n      pop\n        /* \"--CODEGEN--\":14715:14780   */\n      tag_530\n        /* \"--CODEGEN--\":14777:14778   */\n      0x00\n        /* \"--CODEGEN--\":14766:14775   */\n      dup4\n        /* \"--CODEGEN--\":14762:14779   */\n      add\n        /* \"--CODEGEN--\":14753:14759   */\n      dup5\n        /* \"--CODEGEN--\":14715:14780   */\n      jump(tag_422)\n    tag_530:\n        /* \"--CODEGEN--\":14672:14790   */\n      swap3\n      swap2\n      pop\n      pop\n      jump\n        /* \"--CODEGEN--\":14797:15098   */\n    tag_33:\n      0x00\n        /* \"--CODEGEN--\":14935:14937   */\n      0x20\n        /* \"--CODEGEN--\":14924:14933   */\n      dup3\n        /* \"--CODEGEN--\":14920:14938   */\n      add\n        /* \"--CODEGEN--\":14912:14938   */\n      swap1\n      pop\n        /* \"--CODEGEN--\":14985:14994   */\n      dup2\n        /* \"--CODEGEN--\":14979:14983   */\n      dup2\n        /* \"--CODEGEN--\":14975:14995   */\n      sub\n        /* \"--CODEGEN--\":14971:14972   */\n      0x00\n        /* \"--CODEGEN--\":14960:14969   */\n      dup4\n        /* \"--CODEGEN--\":14956:14973   */\n      add\n        /* \"--CODEGEN--\":14949:14996   */\n      mstore\n        /* \"--CODEGEN--\":15010:15088   */\n      tag_532\n        /* \"--CODEGEN--\":15083:15087   */\n      dup2\n        /* \"--CODEGEN--\":15074:15080   */\n      dup5\n        /* \"--CODEGEN--\":15010:15088   */\n      jump(tag_442)\n    tag_532:\n        /* \"--CODEGEN--\":15002:15088   */\n      swap1\n      pop\n        /* \"--CODEGEN--\":14906:15098   */\n      swap3\n      swap2\n      pop\n      pop\n      jump\n        /* \"--CODEGEN--\":15105:15512   */\n    tag_289:\n      0x00\n        /* \"--CODEGEN--\":15296:15298   */\n      0x20\n        /* \"--CODEGEN--\":15285:15294   */\n      dup3\n        /* \"--CODEGEN--\":15281:15299   */\n      add\n        /* \"--CODEGEN--\":15273:15299   */\n      swap1\n      pop\n        /* \"--CODEGEN--\":15346:15355   */\n      dup2\n        /* \"--CODEGEN--\":15340:15344   */\n      dup2\n        /* \"--CODEGEN--\":15336:15356   */\n      sub\n        /* \"--CODEGEN--\":15332:15333   */\n      0x00\n        /* \"--CODEGEN--\":15321:15330   */\n      dup4\n        /* \"--CODEGEN--\":15317:15334   */\n      add\n        /* \"--CODEGEN--\":15310:15357   */\n      mstore\n        /* \"--CODEGEN--\":15371:15502   */\n      tag_534\n        /* \"--CODEGEN--\":15497:15501   */\n      dup2\n        /* \"--CODEGEN--\":15371:15502   */\n      jump(tag_468)\n    tag_534:\n        /* \"--CODEGEN--\":15363:15502   */\n      swap1\n      pop\n        /* \"--CODEGEN--\":15267:15512   */\n      swap2\n      swap1\n      pop\n      jump\n        /* \"--CODEGEN--\":15519:15926   */\n    tag_260:\n      0x00\n        /* \"--CODEGEN--\":15710:15712   */\n      0x20\n        /* \"--CODEGEN--\":15699:15708   */\n      dup3\n        /* \"--CODEGEN--\":15695:15713   */\n      add\n        /* \"--CODEGEN--\":15687:15713   */\n      swap1\n      pop\n        /* \"--CODEGEN--\":15760:15769   */\n      dup2\n        /* \"--CODEGEN--\":15754:15758   */\n      dup2\n        /* \"--CODEGEN--\":15750:15770   */\n      sub\n        /* \"--CODEGEN--\":15746:15747   */\n      0x00\n        /* \"--CODEGEN--\":15735:15744   */\n      dup4\n        /* \"--CODEGEN--\":15731:15748   */\n      add\n        /* \"--CODEGEN--\":15724:15771   */\n      mstore\n        /* \"--CODEGEN--\":15785:15916   */\n      tag_536\n        /* \"--CODEGEN--\":15911:15915   */\n      dup2\n        /* \"--CODEGEN--\":15785:15916   */\n      jump(tag_471)\n    tag_536:\n        /* \"--CODEGEN--\":15777:15916   */\n      swap1\n      pop\n        /* \"--CODEGEN--\":15681:15926   */\n      swap2\n      swap1\n      pop\n      jump\n        /* \"--CODEGEN--\":15933:16340   */\n    tag_241:\n      0x00\n        /* \"--CODEGEN--\":16124:16126   */\n      0x20\n        /* \"--CODEGEN--\":16113:16122   */\n      dup3\n        /* \"--CODEGEN--\":16109:16127   */\n      add\n        /* \"--CODEGEN--\":16101:16127   */\n      swap1\n      pop\n        /* \"--CODEGEN--\":16174:16183   */\n      dup2\n        /* \"--CODEGEN--\":16168:16172   */\n      dup2\n        /* \"--CODEGEN--\":16164:16184   */\n      sub\n        /* \"--CODEGEN--\":16160:16161   */\n      0x00\n        /* \"--CODEGEN--\":16149:16158   */\n      dup4\n        /* \"--CODEGEN--\":16145:16162   */\n      add\n        /* \"--CODEGEN--\":16138:16185   */\n      mstore\n        /* \"--CODEGEN--\":16199:16330   */\n      tag_538\n        /* \"--CODEGEN--\":16325:16329   */\n      dup2\n        /* \"--CODEGEN--\":16199:16330   */\n      jump(tag_474)\n    tag_538:\n        /* \"--CODEGEN--\":16191:16330   */\n      swap1\n      pop\n        /* \"--CODEGEN--\":16095:16340   */\n      swap2\n      swap1\n      pop\n      jump\n        /* \"--CODEGEN--\":16347:16754   */\n    tag_221:\n      0x00\n        /* \"--CODEGEN--\":16538:16540   */\n      0x20\n        /* \"--CODEGEN--\":16527:16536   */\n      dup3\n        /* \"--CODEGEN--\":16523:16541   */\n      add\n        /* \"--CODEGEN--\":16515:16541   */\n      swap1\n      pop\n        /* \"--CODEGEN--\":16588:16597   */\n      dup2\n        /* \"--CODEGEN--\":16582:16586   */\n      dup2\n        /* \"--CODEGEN--\":16578:16598   */\n      sub\n        /* \"--CODEGEN--\":16574:16575   */\n      0x00\n        /* \"--CODEGEN--\":16563:16572   */\n      dup4\n        /* \"--CODEGEN--\":16559:16576   */\n      add\n        /* \"--CODEGEN--\":16552:16599   */\n      mstore\n        /* \"--CODEGEN--\":16613:16744   */\n      tag_540\n        /* \"--CODEGEN--\":16739:16743   */\n      dup2\n        /* \"--CODEGEN--\":16613:16744   */\n      jump(tag_477)\n    tag_540:\n        /* \"--CODEGEN--\":16605:16744   */\n      swap1\n      pop\n        /* \"--CODEGEN--\":16509:16754   */\n      swap2\n      swap1\n      pop\n      jump\n        /* \"--CODEGEN--\":16761:17168   */\n    tag_168:\n      0x00\n        /* \"--CODEGEN--\":16952:16954   */\n      0x20\n        /* \"--CODEGEN--\":16941:16950   */\n      dup3\n        /* \"--CODEGEN--\":16937:16955   */\n      add\n        /* \"--CODEGEN--\":16929:16955   */\n      swap1\n      pop\n        /* \"--CODEGEN--\":17002:17011   */\n      dup2\n        /* \"--CODEGEN--\":16996:17000   */\n      dup2\n        /* \"--CODEGEN--\":16992:17012   */\n      sub\n        /* \"--CODEGEN--\":16988:16989   */\n      0x00\n        /* \"--CODEGEN--\":16977:16986   */\n      dup4\n        /* \"--CODEGEN--\":16973:16990   */\n      add\n        /* \"--CODEGEN--\":16966:17013   */\n      mstore\n        /* \"--CODEGEN--\":17027:17158   */\n      tag_542\n        /* \"--CODEGEN--\":17153:17157   */\n      dup2\n        /* \"--CODEGEN--\":17027:17158   */\n      jump(tag_480)\n    tag_542:\n        /* \"--CODEGEN--\":17019:17158   */\n      swap1\n      pop\n        /* \"--CODEGEN--\":16923:17168   */\n      swap2\n      swap1\n      pop\n      jump\n        /* \"--CODEGEN--\":17175:17582   */\n    tag_208:\n      0x00\n        /* \"--CODEGEN--\":17366:17368   */\n      0x20\n        /* \"--CODEGEN--\":17355:17364   */\n      dup3\n        /* \"--CODEGEN--\":17351:17369   */\n      add\n        /* \"--CODEGEN--\":17343:17369   */\n      swap1\n      pop\n        /* \"--CODEGEN--\":17416:17425   */\n      dup2\n        /* \"--CODEGEN--\":17410:17414   */\n      dup2\n        /* \"--CODEGEN--\":17406:17426   */\n      sub\n        /* \"--CODEGEN--\":17402:17403   */\n      0x00\n        /* \"--CODEGEN--\":17391:17400   */\n      dup4\n        /* \"--CODEGEN--\":17387:17404   */\n      add\n        /* \"--CODEGEN--\":17380:17427   */\n      mstore\n        /* \"--CODEGEN--\":17441:17572   */\n      tag_544\n        /* \"--CODEGEN--\":17567:17571   */\n      dup2\n        /* \"--CODEGEN--\":17441:17572   */\n      jump(tag_483)\n    tag_544:\n        /* \"--CODEGEN--\":17433:17572   */\n      swap1\n      pop\n        /* \"--CODEGEN--\":17337:17582   */\n      swap2\n      swap1\n      pop\n      jump\n        /* \"--CODEGEN--\":17589:17996   */\n    tag_121:\n      0x00\n        /* \"--CODEGEN--\":17780:17782   */\n      0x20\n        /* \"--CODEGEN--\":17769:17778   */\n      dup3\n        /* \"--CODEGEN--\":17765:17783   */\n      add\n        /* \"--CODEGEN--\":17757:17783   */\n      swap1\n      pop\n        /* \"--CODEGEN--\":17830:17839   */\n      dup2\n        /* \"--CODEGEN--\":17824:17828   */\n      dup2\n        /* \"--CODEGEN--\":17820:17840   */\n      sub\n        /* \"--CODEGEN--\":17816:17817   */\n      0x00\n        /* \"--CODEGEN--\":17805:17814   */\n      dup4\n        /* \"--CODEGEN--\":17801:17818   */\n      add\n        /* \"--CODEGEN--\":17794:17841   */\n      mstore\n        /* \"--CODEGEN--\":17855:17986   */\n      tag_546\n        /* \"--CODEGEN--\":17981:17985   */\n      dup2\n        /* \"--CODEGEN--\":17855:17986   */\n      jump(tag_486)\n    tag_546:\n        /* \"--CODEGEN--\":17847:17986   */\n      swap1\n      pop\n        /* \"--CODEGEN--\":17751:17996   */\n      swap2\n      swap1\n      pop\n      jump\n        /* \"--CODEGEN--\":18003:18410   */\n    tag_157:\n      0x00\n        /* \"--CODEGEN--\":18194:18196   */\n      0x20\n        /* \"--CODEGEN--\":18183:18192   */\n      dup3\n        /* \"--CODEGEN--\":18179:18197   */\n      add\n        /* \"--CODEGEN--\":18171:18197   */\n      swap1\n      pop\n        /* \"--CODEGEN--\":18244:18253   */\n      dup2\n        /* \"--CODEGEN--\":18238:18242   */\n      dup2\n        /* \"--CODEGEN--\":18234:18254   */\n      sub\n        /* \"--CODEGEN--\":18230:18231   */\n      0x00\n        /* \"--CODEGEN--\":18219:18228   */\n      dup4\n        /* \"--CODEGEN--\":18215:18232   */\n      add\n        /* \"--CODEGEN--\":18208:18255   */\n      mstore\n        /* \"--CODEGEN--\":18269:18400   */\n      tag_548\n        /* \"--CODEGEN--\":18395:18399   */\n      dup2\n        /* \"--CODEGEN--\":18269:18400   */\n      jump(tag_489)\n    tag_548:\n        /* \"--CODEGEN--\":18261:18400   */\n      swap1\n      pop\n        /* \"--CODEGEN--\":18165:18410   */\n      swap2\n      swap1\n      pop\n      jump\n        /* \"--CODEGEN--\":18417:18824   */\n    tag_295:\n      0x00\n        /* \"--CODEGEN--\":18608:18610   */\n      0x20\n        /* \"--CODEGEN--\":18597:18606   */\n      dup3\n        /* \"--CODEGEN--\":18593:18611   */\n      add\n        /* \"--CODEGEN--\":18585:18611   */\n      swap1\n      pop\n        /* \"--CODEGEN--\":18658:18667   */\n      dup2\n        /* \"--CODEGEN--\":18652:18656   */\n      dup2\n        /* \"--CODEGEN--\":18648:18668   */\n      sub\n        /* \"--CODEGEN--\":18644:18645   */\n      0x00\n        /* \"--CODEGEN--\":18633:18642   */\n      dup4\n        /* \"--CODEGEN--\":18629:18646   */\n      add\n        /* \"--CODEGEN--\":18622:18669   */\n      mstore\n        /* \"--CODEGEN--\":18683:18814   */\n      tag_550\n        /* \"--CODEGEN--\":18809:18813   */\n      dup2\n        /* \"--CODEGEN--\":18683:18814   */\n      jump(tag_492)\n    tag_550:\n        /* \"--CODEGEN--\":18675:18814   */\n      swap1\n      pop\n        /* \"--CODEGEN--\":18579:18824   */\n      swap2\n      swap1\n      pop\n      jump\n        /* \"--CODEGEN--\":18831:19238   */\n    tag_237:\n      0x00\n        /* \"--CODEGEN--\":19022:19024   */\n      0x20\n        /* \"--CODEGEN--\":19011:19020   */\n      dup3\n        /* \"--CODEGEN--\":19007:19025   */\n      add\n        /* \"--CODEGEN--\":18999:19025   */\n      swap1\n      pop\n        /* \"--CODEGEN--\":19072:19081   */\n      dup2\n        /* \"--CODEGEN--\":19066:19070   */\n      dup2\n        /* \"--CODEGEN--\":19062:19082   */\n      sub\n        /* \"--CODEGEN--\":19058:19059   */\n      0x00\n        /* \"--CODEGEN--\":19047:19056   */\n      dup4\n        /* \"--CODEGEN--\":19043:19060   */\n      add\n        /* \"--CODEGEN--\":19036:19083   */\n      mstore\n        /* \"--CODEGEN--\":19097:19228   */\n      tag_552\n        /* \"--CODEGEN--\":19223:19227   */\n      dup2\n        /* \"--CODEGEN--\":19097:19228   */\n      jump(tag_495)\n    tag_552:\n        /* \"--CODEGEN--\":19089:19228   */\n      swap1\n      pop\n        /* \"--CODEGEN--\":18993:19238   */\n      swap2\n      swap1\n      pop\n      jump\n        /* \"--CODEGEN--\":19245:19652   */\n    tag_108:\n      0x00\n        /* \"--CODEGEN--\":19436:19438   */\n      0x20\n        /* \"--CODEGEN--\":19425:19434   */\n      dup3\n        /* \"--CODEGEN--\":19421:19439   */\n      add\n        /* \"--CODEGEN--\":19413:19439   */\n      swap1\n      pop\n        /* \"--CODEGEN--\":19486:19495   */\n      dup2\n        /* \"--CODEGEN--\":19480:19484   */\n      dup2\n        /* \"--CODEGEN--\":19476:19496   */\n      sub\n        /* \"--CODEGEN--\":19472:19473   */\n      0x00\n        /* \"--CODEGEN--\":19461:19470   */\n      dup4\n        /* \"--CODEGEN--\":19457:19474   */\n      add\n        /* \"--CODEGEN--\":19450:19497   */\n      mstore\n        /* \"--CODEGEN--\":19511:19642   */\n      tag_554\n        /* \"--CODEGEN--\":19637:19641   */\n      dup2\n        /* \"--CODEGEN--\":19511:19642   */\n      jump(tag_498)\n    tag_554:\n        /* \"--CODEGEN--\":19503:19642   */\n      swap1\n      pop\n        /* \"--CODEGEN--\":19407:19652   */\n      swap2\n      swap1\n      pop\n      jump\n        /* \"--CODEGEN--\":19659:20066   */\n    tag_218:\n      0x00\n        /* \"--CODEGEN--\":19850:19852   */\n      0x20\n        /* \"--CODEGEN--\":19839:19848   */\n      dup3\n        /* \"--CODEGEN--\":19835:19853   */\n      add\n        /* \"--CODEGEN--\":19827:19853   */\n      swap1\n      pop\n        /* \"--CODEGEN--\":19900:19909   */\n      dup2\n        /* \"--CODEGEN--\":19894:19898   */\n      dup2\n        /* \"--CODEGEN--\":19890:19910   */\n      sub\n        /* \"--CODEGEN--\":19886:19887   */\n      0x00\n        /* \"--CODEGEN--\":19875:19884   */\n      dup4\n        /* \"--CODEGEN--\":19871:19888   */\n      add\n        /* \"--CODEGEN--\":19864:19911   */\n      mstore\n        /* \"--CODEGEN--\":19925:20056   */\n      tag_556\n        /* \"--CODEGEN--\":20051:20055   */\n      dup2\n        /* \"--CODEGEN--\":19925:20056   */\n      jump(tag_501)\n    tag_556:\n        /* \"--CODEGEN--\":19917:20056   */\n      swap1\n      pop\n        /* \"--CODEGEN--\":19821:20066   */\n      swap2\n      swap1\n      pop\n      jump\n        /* \"--CODEGEN--\":20073:20480   */\n    tag_183:\n      0x00\n        /* \"--CODEGEN--\":20264:20266   */\n      0x20\n        /* \"--CODEGEN--\":20253:20262   */\n      dup3\n        /* \"--CODEGEN--\":20249:20267   */\n      add\n        /* \"--CODEGEN--\":20241:20267   */\n      swap1\n      pop\n        /* \"--CODEGEN--\":20314:20323   */\n      dup2\n        /* \"--CODEGEN--\":20308:20312   */\n      dup2\n        /* \"--CODEGEN--\":20304:20324   */\n      sub\n        /* \"--CODEGEN--\":20300:20301   */\n      0x00\n        /* \"--CODEGEN--\":20289:20298   */\n      dup4\n        /* \"--CODEGEN--\":20285:20302   */\n      add\n        /* \"--CODEGEN--\":20278:20325   */\n      mstore\n        /* \"--CODEGEN--\":20339:20470   */\n      tag_558\n        /* \"--CODEGEN--\":20465:20469   */\n      dup2\n        /* \"--CODEGEN--\":20339:20470   */\n      jump(tag_504)\n    tag_558:\n        /* \"--CODEGEN--\":20331:20470   */\n      swap1\n      pop\n        /* \"--CODEGEN--\":20235:20480   */\n      swap2\n      swap1\n      pop\n      jump\n        /* \"--CODEGEN--\":20487:20894   */\n    tag_113:\n      0x00\n        /* \"--CODEGEN--\":20678:20680   */\n      0x20\n        /* \"--CODEGEN--\":20667:20676   */\n      dup3\n        /* \"--CODEGEN--\":20663:20681   */\n      add\n        /* \"--CODEGEN--\":20655:20681   */\n      swap1\n      pop\n        /* \"--CODEGEN--\":20728:20737   */\n      dup2\n        /* \"--CODEGEN--\":20722:20726   */\n      dup2\n        /* \"--CODEGEN--\":20718:20738   */\n      sub\n        /* \"--CODEGEN--\":20714:20715   */\n      0x00\n        /* \"--CODEGEN--\":20703:20712   */\n      dup4\n        /* \"--CODEGEN--\":20699:20716   */\n      add\n        /* \"--CODEGEN--\":20692:20739   */\n      mstore\n        /* \"--CODEGEN--\":20753:20884   */\n      tag_560\n        /* \"--CODEGEN--\":20879:20883   */\n      dup2\n        /* \"--CODEGEN--\":20753:20884   */\n      jump(tag_507)\n    tag_560:\n        /* \"--CODEGEN--\":20745:20884   */\n      swap1\n      pop\n        /* \"--CODEGEN--\":20649:20894   */\n      swap2\n      swap1\n      pop\n      jump\n        /* \"--CODEGEN--\":20901:21308   */\n    tag_133:\n      0x00\n        /* \"--CODEGEN--\":21092:21094   */\n      0x20\n        /* \"--CODEGEN--\":21081:21090   */\n      dup3\n        /* \"--CODEGEN--\":21077:21095   */\n      add\n        /* \"--CODEGEN--\":21069:21095   */\n      swap1\n      pop\n        /* \"--CODEGEN--\":21142:21151   */\n      dup2\n        /* \"--CODEGEN--\":21136:21140   */\n      dup2\n        /* \"--CODEGEN--\":21132:21152   */\n      sub\n        /* \"--CODEGEN--\":21128:21129   */\n      0x00\n        /* \"--CODEGEN--\":21117:21126   */\n      dup4\n        /* \"--CODEGEN--\":21113:21130   */\n      add\n        /* \"--CODEGEN--\":21106:21153   */\n      mstore\n        /* \"--CODEGEN--\":21167:21298   */\n      tag_562\n        /* \"--CODEGEN--\":21293:21297   */\n      dup2\n        /* \"--CODEGEN--\":21167:21298   */\n      jump(tag_510)\n    tag_562:\n        /* \"--CODEGEN--\":21159:21298   */\n      swap1\n      pop\n        /* \"--CODEGEN--\":21063:21308   */\n      swap2\n      swap1\n      pop\n      jump\n        /* \"--CODEGEN--\":21315:21528   */\n    tag_47:\n      0x00\n        /* \"--CODEGEN--\":21433:21435   */\n      0x20\n        /* \"--CODEGEN--\":21422:21431   */\n      dup3\n        /* \"--CODEGEN--\":21418:21436   */\n      add\n        /* \"--CODEGEN--\":21410:21436   */\n      swap1\n      pop\n        /* \"--CODEGEN--\":21447:21518   */\n      tag_564\n        /* \"--CODEGEN--\":21515:21516   */\n      0x00\n        /* \"--CODEGEN--\":21504:21513   */\n      dup4\n        /* \"--CODEGEN--\":21500:21517   */\n      add\n        /* \"--CODEGEN--\":21491:21497   */\n      dup5\n        /* \"--CODEGEN--\":21447:21518   */\n      jump(tag_513)\n    tag_564:\n        /* \"--CODEGEN--\":21404:21528   */\n      swap3\n      swap2\n      pop\n      pop\n      jump\n        /* \"--CODEGEN--\":21535:21791   */\n    tag_370:\n      0x00\n        /* \"--CODEGEN--\":21597:21599   */\n      0x40\n        /* \"--CODEGEN--\":21591:21600   */\n      mload\n        /* \"--CODEGEN--\":21581:21600   */\n      swap1\n      pop\n        /* \"--CODEGEN--\":21635:21639   */\n      dup2\n        /* \"--CODEGEN--\":21627:21633   */\n      dup2\n        /* \"--CODEGEN--\":21623:21640   */\n      add\n        /* \"--CODEGEN--\":21734:21740   */\n      dup2\n        /* \"--CODEGEN--\":21722:21732   */\n      dup2\n        /* \"--CODEGEN--\":21719:21741   */\n      lt\n        /* \"--CODEGEN--\":21698:21716   */\n      0xffffffffffffffff\n        /* \"--CODEGEN--\":21686:21696   */\n      dup3\n        /* \"--CODEGEN--\":21683:21717   */\n      gt\n        /* \"--CODEGEN--\":21680:21742   */\n      or\n        /* \"--CODEGEN--\":21677:21679   */\n      iszero\n      tag_566\n      jumpi\n        /* \"--CODEGEN--\":21755:21756   */\n      0x00\n        /* \"--CODEGEN--\":21752:21753   */\n      dup1\n        /* \"--CODEGEN--\":21745:21757   */\n      revert\n        /* \"--CODEGEN--\":21677:21679   */\n    tag_566:\n        /* \"--CODEGEN--\":21775:21785   */\n      dup1\n        /* \"--CODEGEN--\":21771:21773   */\n      0x40\n        /* \"--CODEGEN--\":21764:21786   */\n      mstore\n        /* \"--CODEGEN--\":21575:21791   */\n      pop\n      swap2\n      swap1\n      pop\n      jump\n        /* \"--CODEGEN--\":21798:22119   */\n    tag_369:\n      0x00\n        /* \"--CODEGEN--\":21941:21959   */\n      0xffffffffffffffff\n        /* \"--CODEGEN--\":21933:21939   */\n      dup3\n        /* \"--CODEGEN--\":21930:21960   */\n      gt\n        /* \"--CODEGEN--\":21927:21929   */\n      iszero\n      tag_568\n      jumpi\n        /* \"--CODEGEN--\":21973:21974   */\n      0x00\n        /* \"--CODEGEN--\":21970:21971   */\n      dup1\n        /* \"--CODEGEN--\":21963:21975   */\n      revert\n        /* \"--CODEGEN--\":21927:21929   */\n    tag_568:\n        /* \"--CODEGEN--\":22040:22044   */\n      0x1f\n        /* \"--CODEGEN--\":22036:22045   */\n      not\n        /* \"--CODEGEN--\":22029:22033   */\n      0x1f\n        /* \"--CODEGEN--\":22021:22027   */\n      dup4\n        /* \"--CODEGEN--\":22017:22034   */\n      add\n        /* \"--CODEGEN--\":22013:22046   */\n      and\n        /* \"--CODEGEN--\":22005:22046   */\n      swap1\n      pop\n        /* \"--CODEGEN--\":22104:22108   */\n      0x20\n        /* \"--CODEGEN--\":22098:22102   */\n      dup2\n        /* \"--CODEGEN--\":22094:22109   */\n      add\n        /* \"--CODEGEN--\":22086:22109   */\n      swap1\n      pop\n        /* \"--CODEGEN--\":21864:22119   */\n      swap2\n      swap1\n      pop\n      jump\n        /* \"--CODEGEN--\":22126:22284   */\n    tag_464:\n      0x00\n        /* \"--CODEGEN--\":22194:22197   */\n      dup2\n        /* \"--CODEGEN--\":22186:22197   */\n      swap1\n      pop\n        /* \"--CODEGEN--\":22231:22234   */\n      dup2\n        /* \"--CODEGEN--\":22228:22229   */\n      0x00\n        /* \"--CODEGEN--\":22221:22235   */\n      mstore\n        /* \"--CODEGEN--\":22263:22267   */\n      0x20\n        /* \"--CODEGEN--\":22260:22261   */\n      0x00\n        /* \"--CODEGEN--\":22250:22268   */\n      keccak256\n        /* \"--CODEGEN--\":22242:22268   */\n      swap1\n      pop\n        /* \"--CODEGEN--\":22180:22284   */\n      swap2\n      swap1\n      pop\n      jump\n        /* \"--CODEGEN--\":22291:22412   */\n    tag_429:\n      0x00\n        /* \"--CODEGEN--\":22384:22389   */\n      dup2\n        /* \"--CODEGEN--\":22378:22390   */\n      mload\n        /* \"--CODEGEN--\":22368:22390   */\n      swap1\n      pop\n        /* \"--CODEGEN--\":22349:22412   */\n      swap2\n      swap1\n      pop\n      jump\n        /* \"--CODEGEN--\":22419:22541   */\n    tag_445:\n      0x00\n        /* \"--CODEGEN--\":22513:22518   */\n      dup2\n        /* \"--CODEGEN--\":22507:22519   */\n      mload\n        /* \"--CODEGEN--\":22497:22519   */\n      swap1\n      pop\n        /* \"--CODEGEN--\":22478:22541   */\n      swap2\n      swap1\n      pop\n      jump\n        /* \"--CODEGEN--\":22549:22711   */\n    tag_431:\n      0x00\n        /* \"--CODEGEN--\":22663:22669   */\n      dup3\n        /* \"--CODEGEN--\":22658:22661   */\n      dup3\n        /* \"--CODEGEN--\":22651:22670   */\n      mstore\n        /* \"--CODEGEN--\":22700:22704   */\n      0x20\n        /* \"--CODEGEN--\":22695:22698   */\n      dup3\n        /* \"--CODEGEN--\":22691:22705   */\n      add\n        /* \"--CODEGEN--\":22676:22705   */\n      swap1\n      pop\n        /* \"--CODEGEN--\":22644:22711   */\n      swap3\n      swap2\n      pop\n      pop\n      jump\n        /* \"--CODEGEN--\":22720:22864   */\n    tag_440:\n      0x00\n        /* \"--CODEGEN--\":22855:22858   */\n      dup2\n        /* \"--CODEGEN--\":22840:22858   */\n      swap1\n      pop\n        /* \"--CODEGEN--\":22833:22864   */\n      swap3\n      swap2\n      pop\n      pop\n      jump\n        /* \"--CODEGEN--\":22873:23036   */\n    tag_447:\n      0x00\n        /* \"--CODEGEN--\":22988:22994   */\n      dup3\n        /* \"--CODEGEN--\":22983:22986   */\n      dup3\n        /* \"--CODEGEN--\":22976:22995   */\n      mstore\n        /* \"--CODEGEN--\":23025:23029   */\n      0x20\n        /* \"--CODEGEN--\":23020:23023   */\n      dup3\n        /* \"--CODEGEN--\":23016:23030   */\n      add\n        /* \"--CODEGEN--\":23001:23030   */\n      swap1\n      pop\n        /* \"--CODEGEN--\":22969:23036   */\n      swap3\n      swap2\n      pop\n      pop\n      jump\n        /* \"--CODEGEN--\":23045:23190   */\n    tag_454:\n      0x00\n        /* \"--CODEGEN--\":23181:23184   */\n      dup2\n        /* \"--CODEGEN--\":23166:23184   */\n      swap1\n      pop\n        /* \"--CODEGEN--\":23159:23190   */\n      swap3\n      swap2\n      pop\n      pop\n      jump\n        /* \"--CODEGEN--\":23198:23289   */\n    tag_421:\n      0x00\n        /* \"--CODEGEN--\":23260:23284   */\n      tag_577\n        /* \"--CODEGEN--\":23278:23283   */\n      dup3\n        /* \"--CODEGEN--\":23260:23284   */\n      jump(tag_578)\n    tag_577:\n        /* \"--CODEGEN--\":23249:23284   */\n      swap1\n      pop\n        /* \"--CODEGEN--\":23243:23289   */\n      swap2\n      swap1\n      pop\n      jump\n        /* \"--CODEGEN--\":23296:23395   */\n    tag_417:\n      0x00\n        /* \"--CODEGEN--\":23366:23390   */\n      tag_580\n        /* \"--CODEGEN--\":23384:23389   */\n      dup3\n        /* \"--CODEGEN--\":23366:23390   */\n      jump(tag_578)\n    tag_580:\n        /* \"--CODEGEN--\":23355:23390   */\n      swap1\n      pop\n        /* \"--CODEGEN--\":23349:23395   */\n      swap2\n      swap1\n      pop\n      jump\n        /* \"--CODEGEN--\":23402:23487   */\n    tag_425:\n      0x00\n        /* \"--CODEGEN--\":23475:23480   */\n      dup2\n        /* \"--CODEGEN--\":23468:23481   */\n      iszero\n        /* \"--CODEGEN--\":23461:23482   */\n      iszero\n        /* \"--CODEGEN--\":23450:23482   */\n      swap1\n      pop\n        /* \"--CODEGEN--\":23444:23487   */\n      swap2\n      swap1\n      pop\n      jump\n        /* \"--CODEGEN--\":23494:23638   */\n    tag_582:\n      0x00\n        /* \"--CODEGEN--\":23566:23632   */\n      0xffffffff00000000000000000000000000000000000000000000000000000000\n        /* \"--CODEGEN--\":23559:23564   */\n      dup3\n        /* \"--CODEGEN--\":23555:23633   */\n      and\n        /* \"--CODEGEN--\":23544:23633   */\n      swap1\n      pop\n        /* \"--CODEGEN--\":23538:23638   */\n      swap2\n      swap1\n      pop\n      jump\n        /* \"--CODEGEN--\":23645:23766   */\n    tag_578:\n      0x00\n        /* \"--CODEGEN--\":23718:23760   */\n      0xffffffffffffffffffffffffffffffffffffffff\n        /* \"--CODEGEN--\":23711:23716   */\n      dup3\n        /* \"--CODEGEN--\":23707:23761   */\n      and\n        /* \"--CODEGEN--\":23696:23761   */\n      swap1\n      pop\n        /* \"--CODEGEN--\":23690:23766   */\n      swap2\n      swap1\n      pop\n      jump\n        /* \"--CODEGEN--\":23773:23845   */\n    tag_516:\n      0x00\n        /* \"--CODEGEN--\":23835:23840   */\n      dup2\n        /* \"--CODEGEN--\":23824:23840   */\n      swap1\n      pop\n        /* \"--CODEGEN--\":23818:23845   */\n      swap2\n      swap1\n      pop\n      jump\n        /* \"--CODEGEN--\":23853:23998   */\n    tag_373:\n        /* \"--CODEGEN--\":23934:23940   */\n      dup3\n        /* \"--CODEGEN--\":23929:23932   */\n      dup2\n        /* \"--CODEGEN--\":23924:23927   */\n      dup4\n        /* \"--CODEGEN--\":23911:23941   */\n      calldatacopy\n        /* \"--CODEGEN--\":23990:23991   */\n      0x00\n        /* \"--CODEGEN--\":23981:23987   */\n      dup4\n        /* \"--CODEGEN--\":23976:23979   */\n      dup4\n        /* \"--CODEGEN--\":23972:23988   */\n      add\n        /* \"--CODEGEN--\":23965:23992   */\n      mstore\n        /* \"--CODEGEN--\":23904:23998   */\n      pop\n      pop\n      pop\n      jump\n        /* \"--CODEGEN--\":24007:24275   */\n    tag_433:\n        /* \"--CODEGEN--\":24072:24073   */\n      0x00\n        /* \"--CODEGEN--\":24079:24180   */\n    tag_588:\n        /* \"--CODEGEN--\":24093:24099   */\n      dup4\n        /* \"--CODEGEN--\":24090:24091   */\n      dup2\n        /* \"--CODEGEN--\":24087:24100   */\n      lt\n        /* \"--CODEGEN--\":24079:24180   */\n      iszero\n      tag_590\n      jumpi\n        /* \"--CODEGEN--\":24169:24170   */\n      dup1\n        /* \"--CODEGEN--\":24164:24167   */\n      dup3\n        /* \"--CODEGEN--\":24160:24171   */\n      add\n        /* \"--CODEGEN--\":24154:24172   */\n      mload\n        /* \"--CODEGEN--\":24150:24151   */\n      dup2\n        /* \"--CODEGEN--\":24145:24148   */\n      dup5\n        /* \"--CODEGEN--\":24141:24152   */\n      add\n        /* \"--CODEGEN--\":24134:24173   */\n      mstore\n        /* \"--CODEGEN--\":24115:24117   */\n      0x20\n        /* \"--CODEGEN--\":24112:24113   */\n      dup2\n        /* \"--CODEGEN--\":24108:24118   */\n      add\n        /* \"--CODEGEN--\":24103:24118   */\n      swap1\n      pop\n        /* \"--CODEGEN--\":24079:24180   */\n      jump(tag_588)\n    tag_590:\n        /* \"--CODEGEN--\":24195:24201   */\n      dup4\n        /* \"--CODEGEN--\":24192:24193   */\n      dup2\n        /* \"--CODEGEN--\":24189:24202   */\n      gt\n        /* \"--CODEGEN--\":24186:24188   */\n      iszero\n      tag_591\n      jumpi\n        /* \"--CODEGEN--\":24260:24261   */\n      0x00\n        /* \"--CODEGEN--\":24251:24257   */\n      dup5\n        /* \"--CODEGEN--\":24246:24249   */\n      dup5\n        /* \"--CODEGEN--\":24242:24258   */\n      add\n        /* \"--CODEGEN--\":24235:24262   */\n      mstore\n        /* \"--CODEGEN--\":24186:24188   */\n    tag_591:\n        /* \"--CODEGEN--\":24056:24275   */\n      pop\n      pop\n      pop\n      pop\n      jump\n        /* \"--CODEGEN--\":24283:24380   */\n    tag_435:\n      0x00\n        /* \"--CODEGEN--\":24371:24373   */\n      0x1f\n        /* \"--CODEGEN--\":24367:24374   */\n      not\n        /* \"--CODEGEN--\":24362:24364   */\n      0x1f\n        /* \"--CODEGEN--\":24355:24360   */\n      dup4\n        /* \"--CODEGEN--\":24351:24365   */\n      add\n        /* \"--CODEGEN--\":24347:24375   */\n      and\n        /* \"--CODEGEN--\":24337:24375   */\n      swap1\n      pop\n        /* \"--CODEGEN--\":24331:24380   */\n      swap2\n      swap1\n      pop\n      jump\n        /* \"--CODEGEN--\":24388:24505   */\n    tag_352:\n        /* \"--CODEGEN--\":24457:24481   */\n      tag_594\n        /* \"--CODEGEN--\":24475:24480   */\n      dup2\n        /* \"--CODEGEN--\":24457:24481   */\n      jump(tag_421)\n    tag_594:\n        /* \"--CODEGEN--\":24450:24455   */\n      dup2\n        /* \"--CODEGEN--\":24447:24482   */\n      eq\n        /* \"--CODEGEN--\":24437:24439   */\n      tag_595\n      jumpi\n        /* \"--CODEGEN--\":24496:24497   */\n      0x00\n        /* \"--CODEGEN--\":24493:24494   */\n      dup1\n        /* \"--CODEGEN--\":24486:24498   */\n      revert\n        /* \"--CODEGEN--\":24437:24439   */\n    tag_595:\n        /* \"--CODEGEN--\":24431:24505   */\n      pop\n      jump\n        /* \"--CODEGEN--\":24512:24623   */\n    tag_356:\n        /* \"--CODEGEN--\":24578:24599   */\n      tag_597\n        /* \"--CODEGEN--\":24593:24598   */\n      dup2\n        /* \"--CODEGEN--\":24578:24599   */\n      jump(tag_425)\n    tag_597:\n        /* \"--CODEGEN--\":24571:24576   */\n      dup2\n        /* \"--CODEGEN--\":24568:24600   */\n      eq\n        /* \"--CODEGEN--\":24558:24560   */\n      tag_598\n      jumpi\n        /* \"--CODEGEN--\":24614:24615   */\n      0x00\n        /* \"--CODEGEN--\":24611:24612   */\n      dup1\n        /* \"--CODEGEN--\":24604:24616   */\n      revert\n        /* \"--CODEGEN--\":24558:24560   */\n    tag_598:\n        /* \"--CODEGEN--\":24552:24623   */\n      pop\n      jump\n        /* \"--CODEGEN--\":24630:24745   */\n    tag_360:\n        /* \"--CODEGEN--\":24698:24721   */\n      tag_600\n        /* \"--CODEGEN--\":24715:24720   */\n      dup2\n        /* \"--CODEGEN--\":24698:24721   */\n      jump(tag_582)\n    tag_600:\n        /* \"--CODEGEN--\":24691:24696   */\n      dup2\n        /* \"--CODEGEN--\":24688:24722   */\n      eq\n        /* \"--CODEGEN--\":24678:24680   */\n      tag_601\n      jumpi\n        /* \"--CODEGEN--\":24736:24737   */\n      0x00\n        /* \"--CODEGEN--\":24733:24734   */\n      dup1\n        /* \"--CODEGEN--\":24726:24738   */\n      revert\n        /* \"--CODEGEN--\":24678:24680   */\n    tag_601:\n        /* \"--CODEGEN--\":24672:24745   */\n      pop\n      jump\n        /* \"--CODEGEN--\":24752:24869   */\n    tag_377:\n        /* \"--CODEGEN--\":24821:24845   */\n      tag_603\n        /* \"--CODEGEN--\":24839:24844   */\n      dup2\n        /* \"--CODEGEN--\":24821:24845   */\n      jump(tag_516)\n    tag_603:\n        /* \"--CODEGEN--\":24814:24819   */\n      dup2\n        /* \"--CODEGEN--\":24811:24846   */\n      eq\n        /* \"--CODEGEN--\":24801:24803   */\n      tag_604\n      jumpi\n        /* \"--CODEGEN--\":24860:24861   */\n      0x00\n        /* \"--CODEGEN--\":24857:24858   */\n      dup1\n        /* \"--CODEGEN--\":24850:24862   */\n      revert\n        /* \"--CODEGEN--\":24801:24803   */\n    tag_604:\n        /* \"--CODEGEN--\":24795:24869   */\n      pop\n      jump\n    stop\n    data_7481f3df2a424c0755a1ad2356614e9a5a358d461ea2eae1f89cb21cbad00397 4552433732313a206f776e657220717565727920666f72206e6f6e6578697374656e7420746f6b656e\n\n    auxdata: 0xa26469706673582212206b6b49f5ffc3ccfc731253485174729c6ca3cca5edd824dfcceb0c15f0f84e1364736f6c63430006040033\n}\n",
				"bytecode": {
					"linkReferences": {},
					"object": "60806040523480156200001157600080fd5b5060405162002f7a38038062002f7a8339818101604052810190620000379190620002b8565b8181620000516301ffc9a760e01b620000d560201b60201c565b816006908051906020019062000069929190620001ad565b50806007908051906020019062000082929190620001ad565b506200009b6380ac58cd60e01b620000d560201b60201c565b620000b3635b5e139f60e01b620000d560201b60201c565b620000cb63780e9d6360e01b620000d560201b60201c565b5050505062000431565b63ffffffff60e01b817bffffffffffffffffffffffffffffffffffffffffffffffffffffffff1916141562000141576040517f08c379a000000000000000000000000000000000000000000000000000000000815260040162000138906200036d565b60405180910390fd5b6001600080837bffffffffffffffffffffffffffffffffffffffffffffffffffffffff19167bffffffffffffffffffffffffffffffffffffffffffffffffffffffff1916815260200190815260200160002060006101000a81548160ff02191690831515021790555050565b828054600181600116156101000203166002900490600052602060002090601f016020900481019282601f10620001f057805160ff191683800117855562000221565b8280016001018555821562000221579182015b828111156200022057825182559160200191906001019062000203565b5b50905062000230919062000234565b5090565b6200025991905b80821115620002555760008160009055506001016200023b565b5090565b90565b600082601f8301126200026e57600080fd5b8151620002856200027f82620003bd565b6200038f565b91508082526020830160208301858383011115620002a257600080fd5b620002af838284620003fb565b50505092915050565b60008060408385031215620002cc57600080fd5b600083015167ffffffffffffffff811115620002e757600080fd5b620002f5858286016200025c565b925050602083015167ffffffffffffffff8111156200031357600080fd5b62000321858286016200025c565b9150509250929050565b60006200033a601c83620003ea565b91507f4552433136353a20696e76616c696420696e74657266616365206964000000006000830152602082019050919050565b6000602082019050818103600083015262000388816200032b565b9050919050565b6000604051905081810181811067ffffffffffffffff82111715620003b357600080fd5b8060405250919050565b600067ffffffffffffffff821115620003d557600080fd5b601f19601f8301169050602081019050919050565b600082825260208201905092915050565b60005b838110156200041b578082015181840152602081019050620003fe565b838111156200042b576000848401525b50505050565b612b3980620004416000396000f3fe608060405234801561001057600080fd5b50600436106101165760003560e01c80634f6ccce7116100a257806395d89b411161007157806395d89b4114610305578063a22cb46514610323578063b88d4fde1461033f578063c87b56dd1461035b578063e985e9c51461038b57610116565b80634f6ccce7146102575780636352211e146102875780636c0360eb146102b757806370a08231146102d557610116565b806318160ddd116100e957806318160ddd146101b557806323b872dd146101d35780632f745c59146101ef57806340c10f191461021f57806342842e0e1461023b57610116565b806301ffc9a71461011b57806306fdde031461014b578063081812fc14610169578063095ea7b314610199575b600080fd5b61013560048036038101906101309190611e6e565b6103bb565b60405161014291906126b1565b60405180910390f35b610153610422565b60405161016091906126cc565b60405180910390f35b610183600480360381019061017e9190611ec0565b6104c4565b604051610190919061264a565b60405180910390f35b6101b360048036038101906101ae9190611e32565b610549565b005b6101bd610661565b6040516101ca91906128ce565b60405180910390f35b6101ed60048036038101906101e89190611d2c565b610672565b005b61020960048036038101906102049190611e32565b6106d2565b60405161021691906128ce565b60405180910390f35b61023960048036038101906102349190611e32565b61072d565b005b61025560048036038101906102509190611d2c565b61073b565b005b610271600480360381019061026c9190611ec0565b61075b565b60405161027e91906128ce565b60405180910390f35b6102a1600480360381019061029c9190611ec0565b61077e565b6040516102ae919061264a565b60405180910390f35b6102bf6107b5565b6040516102cc91906126cc565b60405180910390f35b6102ef60048036038101906102ea9190611cc7565b610857565b6040516102fc91906128ce565b60405180910390f35b61030d610916565b60405161031a91906126cc565b60405180910390f35b61033d60048036038101906103389190611df6565b6109b8565b005b61035960048036038101906103549190611d7b565b610b39565b005b61037560048036038101906103709190611ec0565b610b9b565b60405161038291906126cc565b60405180910390f35b6103a560048036038101906103a09190611cf0565b610d26565b6040516103b291906126b1565b60405180910390f35b6000806000837bffffffffffffffffffffffffffffffffffffffffffffffffffffffff19167bffffffffffffffffffffffffffffffffffffffffffffffffffffffff1916815260200190815260200160002060009054906101000a900460ff169050919050565b606060068054600181600116156101000203166002900480601f0160208091040260200160405190810160405280929190818152602001828054600181600116156101000203166002900480156104ba5780601f1061048f576101008083540402835291602001916104ba565b820191906000526020600020905b81548152906001019060200180831161049d57829003601f168201915b5050505050905090565b60006104cf82610dba565b61050e576040517f08c379a00000000000000000000000000000000000000000000000000000000081526004016105059061282e565b60405180910390fd5b6004600083815260200190815260200160002060009054906101000a900473ffffffffffffffffffffffffffffffffffffffff169050919050565b60006105548261077e565b90508073ffffffffffffffffffffffffffffffffffffffff168373ffffffffffffffffffffffffffffffffffffffff1614156105c5576040517f08c379a00000000000000000000000000000000000000000000000000000000081526004016105bc9061288e565b60405180910390fd5b8073ffffffffffffffffffffffffffffffffffffffff166105e4610dd7565b73ffffffffffffffffffffffffffffffffffffffff16148061061357506106128161060d610dd7565b610d26565b5b610652576040517f08c379a0000000000000000000000000000000000000000000000000000000008152600401610649906127ae565b60405180910390fd5b61065c8383610ddf565b505050565b600061066d6002610e98565b905090565b61068361067d610dd7565b82610ead565b6106c2576040517f08c379a00000000000000000000000000000000000000000000000000000000081526004016106b9906128ae565b60405180910390fd5b6106cd838383610f8b565b505050565b600061072582600160008673ffffffffffffffffffffffffffffffffffffffff1673ffffffffffffffffffffffffffffffffffffffff1681526020019081526020016000206111a290919063ffffffff16565b905092915050565b61073782826111bc565b5050565b61075683838360405180602001604052806000815250610b39565b505050565b60008061077283600261134a90919063ffffffff16565b50905080915050919050565b60006107ae82604051806060016040528060298152602001612adb6029913960026113799092919063ffffffff16565b9050919050565b606060098054600181600116156101000203166002900480601f01602080910402602001604051908101604052809291908181526020018280546001816001161561010002031660029004801561084d5780601f106108225761010080835404028352916020019161084d565b820191906000526020600020905b81548152906001019060200180831161083057829003601f168201915b5050505050905090565b60008073ffffffffffffffffffffffffffffffffffffffff168273ffffffffffffffffffffffffffffffffffffffff1614156108c8576040517f08c379a00000000000000000000000000000000000000000000000000000000081526004016108bf906127ce565b60405180910390fd5b61090f600160008473ffffffffffffffffffffffffffffffffffffffff1673ffffffffffffffffffffffffffffffffffffffff168152602001908152602001600020611398565b9050919050565b606060078054600181600116156101000203166002900480601f0160208091040260200160405190810160405280929190818152602001828054600181600116156101000203166002900480156109ae5780601f10610983576101008083540402835291602001916109ae565b820191906000526020600020905b81548152906001019060200180831161099157829003601f168201915b5050505050905090565b6109c0610dd7565b73ffffffffffffffffffffffffffffffffffffffff168273ffffffffffffffffffffffffffffffffffffffff161415610a2e576040517f08c379a0000000000000000000000000000000000000000000000000000000008152600401610a259061276e565b60405180910390fd5b8060056000610a3b610dd7565b73ffffffffffffffffffffffffffffffffffffffff1673ffffffffffffffffffffffffffffffffffffffff16815260200190815260200160002060008473ffffffffffffffffffffffffffffffffffffffff1673ffffffffffffffffffffffffffffffffffffffff16815260200190815260200160002060006101000a81548160ff0219169083151502179055508173ffffffffffffffffffffffffffffffffffffffff16610ae8610dd7565b73ffffffffffffffffffffffffffffffffffffffff167f17307eab39ab6107e8899845ad3d59bd9653f200f220920489ca2b5937696c3183604051610b2d91906126b1565b60405180910390a35050565b610b4a610b44610dd7565b83610ead565b610b89576040517f08c379a0000000000000000000000000000000000000000000000000000000008152600401610b80906128ae565b60405180910390fd5b610b95848484846113ad565b50505050565b6060610ba682610dba565b610be5576040517f08c379a0000000000000000000000000000000000000000000000000000000008152600401610bdc9061286e565b60405180910390fd5b6060600860008481526020019081526020016000208054600181600116156101000203166002900480601f016020809104026020016040519081016040528092919081815260200182805460018160011615610100020316600290048015610c8e5780601f10610c6357610100808354040283529160200191610c8e565b820191906000526020600020905b815481529060010190602001808311610c7157829003601f168201915b50505050509050600060098054600181600116156101000203166002900490501415610cbd5780915050610d21565b600081511115610cf257600981604051602001610cdb929190612626565b604051602081830303815290604052915050610d21565b6009610cfd84611409565b604051602001610d0e929190612626565b6040516020818303038152906040529150505b919050565b6000600560008473ffffffffffffffffffffffffffffffffffffffff1673ffffffffffffffffffffffffffffffffffffffff16815260200190815260200160002060008373ffffffffffffffffffffffffffffffffffffffff1673ffffffffffffffffffffffffffffffffffffffff16815260200190815260200160002060009054906101000a900460ff16905092915050565b6000610dd082600261153990919063ffffffff16565b9050919050565b600033905090565b816004600083815260200190815260200160002060006101000a81548173ffffffffffffffffffffffffffffffffffffffff021916908373ffffffffffffffffffffffffffffffffffffffff160217905550808273ffffffffffffffffffffffffffffffffffffffff16610e528361077e565b73ffffffffffffffffffffffffffffffffffffffff167f8c5be1e5ebec7d5bd14f71427d1e84f3dd0314c0f7b2291e5b200ac8c7c3b92560405160405180910390a45050565b6000610ea682600001611553565b9050919050565b6000610eb882610dba565b610ef7576040517f08c379a0000000000000000000000000000000000000000000000000000000008152600401610eee9061278e565b60405180910390fd5b6000610f028361077e565b90508073ffffffffffffffffffffffffffffffffffffffff168473ffffffffffffffffffffffffffffffffffffffff161480610f7157508373ffffffffffffffffffffffffffffffffffffffff16610f59846104c4565b73ffffffffffffffffffffffffffffffffffffffff16145b80610f825750610f818185610d26565b5b91505092915050565b8273ffffffffffffffffffffffffffffffffffffffff16610fab8261077e565b73ffffffffffffffffffffffffffffffffffffffff1614611001576040517f08c379a0000000000000000000000000000000000000000000000000000000008152600401610ff89061284e565b60405180910390fd5b600073ffffffffffffffffffffffffffffffffffffffff168273ffffffffffffffffffffffffffffffffffffffff161415611071576040517f08c379a00000000000000000000000000000000000000000000000000000000081526004016110689061274e565b60405180910390fd5b61107c838383611564565b611087600082610ddf565b6110d881600160008673ffffffffffffffffffffffffffffffffffffffff1673ffffffffffffffffffffffffffffffffffffffff16815260200190815260200160002061156990919063ffffffff16565b5061112a81600160008573ffffffffffffffffffffffffffffffffffffffff1673ffffffffffffffffffffffffffffffffffffffff16815260200190815260200160002061158390919063ffffffff16565b506111418183600261159d9092919063ffffffff16565b50808273ffffffffffffffffffffffffffffffffffffffff168473ffffffffffffffffffffffffffffffffffffffff167fddf252ad1be2c89b69c2b068fc378daa952ba7f163c4a11628f55a4df523b3ef60405160405180910390a4505050565b60006111b183600001836115d2565b60001c905092915050565b600073ffffffffffffffffffffffffffffffffffffffff168273ffffffffffffffffffffffffffffffffffffffff16141561122c576040517f08c379a00000000000000000000000000000000000000000000000000000000081526004016112239061280e565b60405180910390fd5b61123581610dba565b15611275576040517f08c379a000000000000000000000000000000000000000000000000000000000815260040161126c9061272e565b60405180910390fd5b61128160008383611564565b6112d281600160008573ffffffffffffffffffffffffffffffffffffffff1673ffffffffffffffffffffffffffffffffffffffff16815260200190815260200160002061158390919063ffffffff16565b506112e98183600261159d9092919063ffffffff16565b50808273ffffffffffffffffffffffffffffffffffffffff16600073ffffffffffffffffffffffffffffffffffffffff167fddf252ad1be2c89b69c2b068fc378daa952ba7f163c4a11628f55a4df523b3ef60405160405180910390a45050565b60008060008061135d866000018661163f565b915091508160001c8160001c8090509350935050509250929050565b600061138c846000018460001b846116c2565b60001c90509392505050565b60006113a682600001611753565b9050919050565b6113b8848484610f8b565b6113c484848484611764565b611403576040517f08c379a00000000000000000000000000000000000000000000000000000000081526004016113fa9061270e565b60405180910390fd5b50505050565b60606000821415611451576040518060400160405280600181526020017f30000000000000000000000000000000000000000000000000000000000000008152509050611534565b600082905060005b6000821461147b578080600101915050600a828161147357fe5b049150611459565b6060816040519080825280601f01601f1916602001820160405280156114b05781602001600182028036833780820191505090505b50905060006001830390508593505b6000841461152c57600a84816114d157fe5b0660300160f81b828280600190039350815181106114eb57fe5b60200101907effffffffffffffffffffffffffffffffffffffffffffffffffffffffffffff1916908160001a905350600a848161152457fe5b0493506114bf565b819450505050505b919050565b600061154b836000018360001b611945565b905092915050565b600081600001805490509050919050565b505050565b600061157b836000018360001b611968565b905092915050565b6000611595836000018360001b611a50565b905092915050565b60006115c9846000018460001b8473ffffffffffffffffffffffffffffffffffffffff1660001b611ac0565b90509392505050565b60008183600001805490501161161d576040517f08c379a0000000000000000000000000000000000000000000000000000000008152600401611614906126ee565b60405180910390fd5b82600001828154811061162c57fe5b9060005260206000200154905092915050565b6000808284600001805490501161168b576040517f08c379a0000000000000000000000000000000000000000000000000000000008152600401611682906127ee565b60405180910390fd5b600084600001848154811061169c57fe5b906000526020600020906002020190508060000154816001015492509250509250929050565b60008084600101600085815260200190815260200160002054905060008114158390611724576040517f08c379a000000000000000000000000000000000000000000000000000000000815260040161171b91906126cc565b60405180910390fd5b5084600001600182038154811061173757fe5b9060005260206000209060020201600101549150509392505050565b600081600001805490509050919050565b60006117858473ffffffffffffffffffffffffffffffffffffffff16611b9c565b611792576001905061193d565b600060608573ffffffffffffffffffffffffffffffffffffffff1663150b7a0260e01b6117bd610dd7565b8988886040516024016117d39493929190612665565b604051602081830303815290604052907bffffffffffffffffffffffffffffffffffffffffffffffffffffffff19166020820180517bffffffffffffffffffffffffffffffffffffffffffffffffffffffff838183161783525050505060405161183d919061260f565b6000604051808303816000865af19150503d806000811461187a576040519150601f19603f3d011682016040523d82523d6000602084013e61187f565b606091505b5091509150816118d75760008151111561189c5780518082602001fd5b6040517f08c379a00000000000000000000000000000000000000000000000000000000081526004016118ce9061270e565b60405180910390fd5b6000818060200190518101906118ed9190611e97565b905063150b7a0260e01b7bffffffffffffffffffffffffffffffffffffffffffffffffffffffff1916817bffffffffffffffffffffffffffffffffffffffffffffffffffffffff19161493505050505b949350505050565b600080836001016000848152602001908152602001600020541415905092915050565b60008083600101600084815260200190815260200160002054905060008114611a4457600060018203905060006001866000018054905003905060008660000182815481106119b357fe5b90600052602060002001549050808760000184815481106119d057fe5b9060005260206000200181905550600183018760010160008381526020019081526020016000208190555086600001805480611a0857fe5b60019003818190600052602060002001600090559055866001016000878152602001908152602001600020600090556001945050505050611a4a565b60009150505b92915050565b6000611a5c8383611be7565b611ab5578260000182908060018154018082558091505060019003906000526020600020016000909190919091505582600001805490508360010160008481526020019081526020016000208190555060019050611aba565b600090505b92915050565b6000808460010160008581526020019081526020016000205490506000811415611b6757846000016040518060400160405280868152602001858152509080600181540180825580915050600190039060005260206000209060020201600090919091909150600082015181600001556020820151816001015550508460000180549050856001016000868152602001908152602001600020819055506001915050611b95565b82856000016001830381548110611b7a57fe5b90600052602060002090600202016001018190555060009150505b9392505050565b60008060007fc5d2460186f7233c927e7db2dcc703c0e500b653ca82273b7bfad8045d85a47060001b9050833f9150808214158015611bde57506000801b8214155b92505050919050565b600080836001016000848152602001908152602001600020541415905092915050565b600081359050611c1981612a7e565b92915050565b600081359050611c2e81612a95565b92915050565b600081359050611c4381612aac565b92915050565b600081519050611c5881612aac565b92915050565b600082601f830112611c6f57600080fd5b8135611c82611c7d82612916565b6128e9565b91508082526020830160208301858383011115611c9e57600080fd5b611ca9838284612a2b565b50505092915050565b600081359050611cc181612ac3565b92915050565b600060208284031215611cd957600080fd5b6000611ce784828501611c0a565b91505092915050565b60008060408385031215611d0357600080fd5b6000611d1185828601611c0a565b9250506020611d2285828601611c0a565b9150509250929050565b600080600060608486031215611d4157600080fd5b6000611d4f86828701611c0a565b9350506020611d6086828701611c0a565b9250506040611d7186828701611cb2565b9150509250925092565b60008060008060808587031215611d9157600080fd5b6000611d9f87828801611c0a565b9450506020611db087828801611c0a565b9350506040611dc187828801611cb2565b925050606085013567ffffffffffffffff811115611dde57600080fd5b611dea87828801611c5e565b91505092959194509250565b60008060408385031215611e0957600080fd5b6000611e1785828601611c0a565b9250506020611e2885828601611c1f565b9150509250929050565b60008060408385031215611e4557600080fd5b6000611e5385828601611c0a565b9250506020611e6485828601611cb2565b9150509250929050565b600060208284031215611e8057600080fd5b6000611e8e84828501611c34565b91505092915050565b600060208284031215611ea957600080fd5b6000611eb784828501611c49565b91505092915050565b600060208284031215611ed257600080fd5b6000611ee084828501611cb2565b91505092915050565b611ef2816129b7565b82525050565b611f01816129a5565b82525050565b611f10816129c9565b82525050565b6000611f2182612957565b611f2b818561296d565b9350611f3b818560208601612a3a565b611f4481612a6d565b840191505092915050565b6000611f5a82612957565b611f64818561297e565b9350611f74818560208601612a3a565b80840191505092915050565b6000611f8b82612962565b611f958185612989565b9350611fa5818560208601612a3a565b611fae81612a6d565b840191505092915050565b6000611fc482612962565b611fce818561299a565b9350611fde818560208601612a3a565b80840191505092915050565b600081546001811660008114612007576001811461202c57612070565b607f6002830416612018818761299a565b955060ff1983168652808601935050612070565b6002820461203a818761299a565b955061204585612942565b60005b8281101561206757815481890152600182019150602081019050612048565b82880195505050505b505092915050565b6000612085602283612989565b91507f456e756d657261626c655365743a20696e646578206f7574206f6620626f756e60008301527f64730000000000000000000000000000000000000000000000000000000000006020830152604082019050919050565b60006120eb603283612989565b91507f4552433732313a207472616e7366657220746f206e6f6e20455243373231526560008301527f63656976657220696d706c656d656e74657200000000000000000000000000006020830152604082019050919050565b6000612151601c83612989565b91507f4552433732313a20746f6b656e20616c7265616479206d696e746564000000006000830152602082019050919050565b6000612191602483612989565b91507f4552433732313a207472616e7366657220746f20746865207a65726f2061646460008301527f72657373000000000000000000000000000000000000000000000000000000006020830152604082019050919050565b60006121f7601983612989565b91507f4552433732313a20617070726f766520746f2063616c6c6572000000000000006000830152602082019050919050565b6000612237602c83612989565b91507f4552433732313a206f70657261746f7220717565727920666f72206e6f6e657860008301527f697374656e7420746f6b656e00000000000000000000000000000000000000006020830152604082019050919050565b600061229d603883612989565b91507f4552433732313a20617070726f76652063616c6c6572206973206e6f74206f7760008301527f6e6572206e6f7220617070726f76656420666f7220616c6c00000000000000006020830152604082019050919050565b6000612303602a83612989565b91507f4552433732313a2062616c616e636520717565727920666f7220746865207a6560008301527f726f2061646472657373000000000000000000000000000000000000000000006020830152604082019050919050565b6000612369602283612989565b91507f456e756d657261626c654d61703a20696e646578206f7574206f6620626f756e60008301527f64730000000000000000000000000000000000000000000000000000000000006020830152604082019050919050565b60006123cf602083612989565b91507f4552433732313a206d696e7420746f20746865207a65726f20616464726573736000830152602082019050919050565b600061240f602c83612989565b91507f4552433732313a20617070726f76656420717565727920666f72206e6f6e657860008301527f697374656e7420746f6b656e00000000000000000000000000000000000000006020830152604082019050919050565b6000612475602983612989565b91507f4552433732313a207472616e73666572206f6620746f6b656e2074686174206960008301527f73206e6f74206f776e00000000000000000000000000000000000000000000006020830152604082019050919050565b60006124db602f83612989565b91507f4552433732314d657461646174613a2055524920717565727920666f72206e6f60008301527f6e6578697374656e7420746f6b656e00000000000000000000000000000000006020830152604082019050919050565b6000612541602183612989565b91507f4552433732313a20617070726f76616c20746f2063757272656e74206f776e6560008301527f72000000000000000000000000000000000000000000000000000000000000006020830152604082019050919050565b60006125a7603183612989565b91507f4552433732313a207472616e736665722063616c6c6572206973206e6f74206f60008301527f776e6572206e6f7220617070726f7665640000000000000000000000000000006020830152604082019050919050565b61260981612a21565b82525050565b600061261b8284611f4f565b915081905092915050565b60006126328285611fea565b915061263e8284611fb9565b91508190509392505050565b600060208201905061265f6000830184611ef8565b92915050565b600060808201905061267a6000830187611ee9565b6126876020830186611ef8565b6126946040830185612600565b81810360608301526126a68184611f16565b905095945050505050565b60006020820190506126c66000830184611f07565b92915050565b600060208201905081810360008301526126e68184611f80565b905092915050565b6000602082019050818103600083015261270781612078565b9050919050565b60006020820190508181036000830152612727816120de565b9050919050565b6000602082019050818103600083015261274781612144565b9050919050565b6000602082019050818103600083015261276781612184565b9050919050565b60006020820190508181036000830152612787816121ea565b9050919050565b600060208201905081810360008301526127a78161222a565b9050919050565b600060208201905081810360008301526127c781612290565b9050919050565b600060208201905081810360008301526127e7816122f6565b9050919050565b600060208201905081810360008301526128078161235c565b9050919050565b60006020820190508181036000830152612827816123c2565b9050919050565b6000602082019050818103600083015261284781612402565b9050919050565b6000602082019050818103600083015261286781612468565b9050919050565b60006020820190508181036000830152612887816124ce565b9050919050565b600060208201905081810360008301526128a781612534565b9050919050565b600060208201905081810360008301526128c78161259a565b9050919050565b60006020820190506128e36000830184612600565b92915050565b6000604051905081810181811067ffffffffffffffff8211171561290c57600080fd5b8060405250919050565b600067ffffffffffffffff82111561292d57600080fd5b601f19601f8301169050602081019050919050565b60008190508160005260206000209050919050565b600081519050919050565b600081519050919050565b600082825260208201905092915050565b600081905092915050565b600082825260208201905092915050565b600081905092915050565b60006129b082612a01565b9050919050565b60006129c282612a01565b9050919050565b60008115159050919050565b60007fffffffff0000000000000000000000000000000000000000000000000000000082169050919050565b600073ffffffffffffffffffffffffffffffffffffffff82169050919050565b6000819050919050565b82818337600083830152505050565b60005b83811015612a58578082015181840152602081019050612a3d565b83811115612a67576000848401525b50505050565b6000601f19601f8301169050919050565b612a87816129a5565b8114612a9257600080fd5b50565b612a9e816129c9565b8114612aa957600080fd5b50565b612ab5816129d5565b8114612ac057600080fd5b50565b612acc81612a21565b8114612ad757600080fd5b5056fe4552433732313a206f776e657220717565727920666f72206e6f6e6578697374656e7420746f6b656ea26469706673582212206b6b49f5ffc3ccfc731253485174729c6ca3cca5edd824dfcceb0c15f0f84e1364736f6c63430006040033",
					"opcodes": "PUSH1 0x80 PUSH1 0x40 MSTORE CALLVALUE DUP1 ISZERO PUSH3 0x11 JUMPI PUSH1 0x0 DUP1 REVERT JUMPDEST POP PUSH1 0x40 MLOAD PUSH3 0x2F7A CODESIZE SUB DUP1 PUSH3 0x2F7A DUP4 CODECOPY DUP2 DUP2 ADD PUSH1 0x40 MSTORE DUP2 ADD SWAP1 PUSH3 0x37 SWAP2 SWAP1 PUSH3 0x2B8 JUMP JUMPDEST DUP2 DUP2 PUSH3 0x51 PUSH4 0x1FFC9A7 PUSH1 0xE0 SHL PUSH3 0xD5 PUSH1 0x20 SHL PUSH1 0x20 SHR JUMP JUMPDEST DUP2 PUSH1 0x6 SWAP1 DUP1 MLOAD SWAP1 PUSH1 0x20 ADD SWAP1 PUSH3 0x69 SWAP3 SWAP2 SWAP1 PUSH3 0x1AD JUMP JUMPDEST POP DUP1 PUSH1 0x7 SWAP1 DUP1 MLOAD SWAP1 PUSH1 0x20 ADD SWAP1 PUSH3 0x82 SWAP3 SWAP2 SWAP1 PUSH3 0x1AD JUMP JUMPDEST POP PUSH3 0x9B PUSH4 0x80AC58CD PUSH1 0xE0 SHL PUSH3 0xD5 PUSH1 0x20 SHL PUSH1 0x20 SHR JUMP JUMPDEST PUSH3 0xB3 PUSH4 0x5B5E139F PUSH1 0xE0 SHL PUSH3 0xD5 PUSH1 0x20 SHL PUSH1 0x20 SHR JUMP JUMPDEST PUSH3 0xCB PUSH4 0x780E9D63 PUSH1 0xE0 SHL PUSH3 0xD5 PUSH1 0x20 SHL PUSH1 0x20 SHR JUMP JUMPDEST POP POP POP POP PUSH3 0x431 JUMP JUMPDEST PUSH4 0xFFFFFFFF PUSH1 0xE0 SHL DUP2 PUSH28 0xFFFFFFFFFFFFFFFFFFFFFFFFFFFFFFFFFFFFFFFFFFFFFFFFFFFFFFFF NOT AND EQ ISZERO PUSH3 0x141 JUMPI PUSH1 0x40 MLOAD PUSH32 0x8C379A000000000000000000000000000000000000000000000000000000000 DUP2 MSTORE PUSH1 0x4 ADD PUSH3 0x138 SWAP1 PUSH3 0x36D JUMP JUMPDEST PUSH1 0x40 MLOAD DUP1 SWAP2 SUB SWAP1 REVERT JUMPDEST PUSH1 0x1 PUSH1 0x0 DUP1 DUP4 PUSH28 0xFFFFFFFFFFFFFFFFFFFFFFFFFFFFFFFFFFFFFFFFFFFFFFFFFFFFFFFF NOT AND PUSH28 0xFFFFFFFFFFFFFFFFFFFFFFFFFFFFFFFFFFFFFFFFFFFFFFFFFFFFFFFF NOT AND DUP2 MSTORE PUSH1 0x20 ADD SWAP1 DUP2 MSTORE PUSH1 0x20 ADD PUSH1 0x0 KECCAK256 PUSH1 0x0 PUSH2 0x100 EXP DUP2 SLOAD DUP2 PUSH1 0xFF MUL NOT AND SWAP1 DUP4 ISZERO ISZERO MUL OR SWAP1 SSTORE POP POP JUMP JUMPDEST DUP3 DUP1 SLOAD PUSH1 0x1 DUP2 PUSH1 0x1 AND ISZERO PUSH2 0x100 MUL SUB AND PUSH1 0x2 SWAP1 DIV SWAP1 PUSH1 0x0 MSTORE PUSH1 0x20 PUSH1 0x0 KECCAK256 SWAP1 PUSH1 0x1F ADD PUSH1 0x20 SWAP1 DIV DUP2 ADD SWAP3 DUP3 PUSH1 0x1F LT PUSH3 0x1F0 JUMPI DUP1 MLOAD PUSH1 0xFF NOT AND DUP4 DUP1 ADD OR DUP6 SSTORE PUSH3 0x221 JUMP JUMPDEST DUP3 DUP1 ADD PUSH1 0x1 ADD DUP6 SSTORE DUP3 ISZERO PUSH3 0x221 JUMPI SWAP2 DUP3 ADD JUMPDEST DUP3 DUP2 GT ISZERO PUSH3 0x220 JUMPI DUP3 MLOAD DUP3 SSTORE SWAP2 PUSH1 0x20 ADD SWAP2 SWAP1 PUSH1 0x1 ADD SWAP1 PUSH3 0x203 JUMP JUMPDEST JUMPDEST POP SWAP1 POP PUSH3 0x230 SWAP2 SWAP1 PUSH3 0x234 JUMP JUMPDEST POP SWAP1 JUMP JUMPDEST PUSH3 0x259 SWAP2 SWAP1 JUMPDEST DUP1 DUP3 GT ISZERO PUSH3 0x255 JUMPI PUSH1 0x0 DUP2 PUSH1 0x0 SWAP1 SSTORE POP PUSH1 0x1 ADD PUSH3 0x23B JUMP JUMPDEST POP SWAP1 JUMP JUMPDEST SWAP1 JUMP JUMPDEST PUSH1 0x0 DUP3 PUSH1 0x1F DUP4 ADD SLT PUSH3 0x26E JUMPI PUSH1 0x0 DUP1 REVERT JUMPDEST DUP2 MLOAD PUSH3 0x285 PUSH3 0x27F DUP3 PUSH3 0x3BD JUMP JUMPDEST PUSH3 0x38F JUMP JUMPDEST SWAP2 POP DUP1 DUP3 MSTORE PUSH1 0x20 DUP4 ADD PUSH1 0x20 DUP4 ADD DUP6 DUP4 DUP4 ADD GT ISZERO PUSH3 0x2A2 JUMPI PUSH1 0x0 DUP1 REVERT JUMPDEST PUSH3 0x2AF DUP4 DUP3 DUP5 PUSH3 0x3FB JUMP JUMPDEST POP POP POP SWAP3 SWAP2 POP POP JUMP JUMPDEST PUSH1 0x0 DUP1 PUSH1 0x40 DUP4 DUP6 SUB SLT ISZERO PUSH3 0x2CC JUMPI PUSH1 0x0 DUP1 REVERT JUMPDEST PUSH1 0x0 DUP4 ADD MLOAD PUSH8 0xFFFFFFFFFFFFFFFF DUP2 GT ISZERO PUSH3 0x2E7 JUMPI PUSH1 0x0 DUP1 REVERT JUMPDEST PUSH3 0x2F5 DUP6 DUP3 DUP7 ADD PUSH3 0x25C JUMP JUMPDEST SWAP3 POP POP PUSH1 0x20 DUP4 ADD MLOAD PUSH8 0xFFFFFFFFFFFFFFFF DUP2 GT ISZERO PUSH3 0x313 JUMPI PUSH1 0x0 DUP1 REVERT JUMPDEST PUSH3 0x321 DUP6 DUP3 DUP7 ADD PUSH3 0x25C JUMP JUMPDEST SWAP2 POP POP SWAP3 POP SWAP3 SWAP1 POP JUMP JUMPDEST PUSH1 0x0 PUSH3 0x33A PUSH1 0x1C DUP4 PUSH3 0x3EA JUMP JUMPDEST SWAP2 POP PUSH32 0x4552433136353A20696E76616C696420696E7465726661636520696400000000 PUSH1 0x0 DUP4 ADD MSTORE PUSH1 0x20 DUP3 ADD SWAP1 POP SWAP2 SWAP1 POP JUMP JUMPDEST PUSH1 0x0 PUSH1 0x20 DUP3 ADD SWAP1 POP DUP2 DUP2 SUB PUSH1 0x0 DUP4 ADD MSTORE PUSH3 0x388 DUP2 PUSH3 0x32B JUMP JUMPDEST SWAP1 POP SWAP2 SWAP1 POP JUMP JUMPDEST PUSH1 0x0 PUSH1 0x40 MLOAD SWAP1 POP DUP2 DUP2 ADD DUP2 DUP2 LT PUSH8 0xFFFFFFFFFFFFFFFF DUP3 GT OR ISZERO PUSH3 0x3B3 JUMPI PUSH1 0x0 DUP1 REVERT JUMPDEST DUP1 PUSH1 0x40 MSTORE POP SWAP2 SWAP1 POP JUMP JUMPDEST PUSH1 0x0 PUSH8 0xFFFFFFFFFFFFFFFF DUP3 GT ISZERO PUSH3 0x3D5 JUMPI PUSH1 0x0 DUP1 REVERT JUMPDEST PUSH1 0x1F NOT PUSH1 0x1F DUP4 ADD AND SWAP1 POP PUSH1 0x20 DUP2 ADD SWAP1 POP SWAP2 SWAP1 POP JUMP JUMPDEST PUSH1 0x0 DUP3 DUP3 MSTORE PUSH1 0x20 DUP3 ADD SWAP1 POP SWAP3 SWAP2 POP POP JUMP JUMPDEST PUSH1 0x0 JUMPDEST DUP4 DUP2 LT ISZERO PUSH3 0x41B JUMPI DUP1 DUP3 ADD MLOAD DUP2 DUP5 ADD MSTORE PUSH1 0x20 DUP2 ADD SWAP1 POP PUSH3 0x3FE JUMP JUMPDEST DUP4 DUP2 GT ISZERO PUSH3 0x42B JUMPI PUSH1 0x0 DUP5 DUP5 ADD MSTORE JUMPDEST POP POP POP POP JUMP JUMPDEST PUSH2 0x2B39 DUP1 PUSH3 0x441 PUSH1 0x0 CODECOPY PUSH1 0x0 RETURN INVALID PUSH1 0x80 PUSH1 0x40 MSTORE CALLVALUE DUP1 ISZERO PUSH2 0x10 JUMPI PUSH1 0x0 DUP1 REVERT JUMPDEST POP PUSH1 0x4 CALLDATASIZE LT PUSH2 0x116 JUMPI PUSH1 0x0 CALLDATALOAD PUSH1 0xE0 SHR DUP1 PUSH4 0x4F6CCCE7 GT PUSH2 0xA2 JUMPI DUP1 PUSH4 0x95D89B41 GT PUSH2 0x71 JUMPI DUP1 PUSH4 0x95D89B41 EQ PUSH2 0x305 JUMPI DUP1 PUSH4 0xA22CB465 EQ PUSH2 0x323 JUMPI DUP1 PUSH4 0xB88D4FDE EQ PUSH2 0x33F JUMPI DUP1 PUSH4 0xC87B56DD EQ PUSH2 0x35B JUMPI DUP1 PUSH4 0xE985E9C5 EQ PUSH2 0x38B JUMPI PUSH2 0x116 JUMP JUMPDEST DUP1 PUSH4 0x4F6CCCE7 EQ PUSH2 0x257 JUMPI DUP1 PUSH4 0x6352211E EQ PUSH2 0x287 JUMPI DUP1 PUSH4 0x6C0360EB EQ PUSH2 0x2B7 JUMPI DUP1 PUSH4 0x70A08231 EQ PUSH2 0x2D5 JUMPI PUSH2 0x116 JUMP JUMPDEST DUP1 PUSH4 0x18160DDD GT PUSH2 0xE9 JUMPI DUP1 PUSH4 0x18160DDD EQ PUSH2 0x1B5 JUMPI DUP1 PUSH4 0x23B872DD EQ PUSH2 0x1D3 JUMPI DUP1 PUSH4 0x2F745C59 EQ PUSH2 0x1EF JUMPI DUP1 PUSH4 0x40C10F19 EQ PUSH2 0x21F JUMPI DUP1 PUSH4 0x42842E0E EQ PUSH2 0x23B JUMPI PUSH2 0x116 JUMP JUMPDEST DUP1 PUSH4 0x1FFC9A7 EQ PUSH2 0x11B JUMPI DUP1 PUSH4 0x6FDDE03 EQ PUSH2 0x14B JUMPI DUP1 PUSH4 0x81812FC EQ PUSH2 0x169 JUMPI DUP1 PUSH4 0x95EA7B3 EQ PUSH2 0x199 JUMPI JUMPDEST PUSH1 0x0 DUP1 REVERT JUMPDEST PUSH2 0x135 PUSH1 0x4 DUP1 CALLDATASIZE SUB DUP2 ADD SWAP1 PUSH2 0x130 SWAP2 SWAP1 PUSH2 0x1E6E JUMP JUMPDEST PUSH2 0x3BB JUMP JUMPDEST PUSH1 0x40 MLOAD PUSH2 0x142 SWAP2 SWAP1 PUSH2 0x26B1 JUMP JUMPDEST PUSH1 0x40 MLOAD DUP1 SWAP2 SUB SWAP1 RETURN JUMPDEST PUSH2 0x153 PUSH2 0x422 JUMP JUMPDEST PUSH1 0x40 MLOAD PUSH2 0x160 SWAP2 SWAP1 PUSH2 0x26CC JUMP JUMPDEST PUSH1 0x40 MLOAD DUP1 SWAP2 SUB SWAP1 RETURN JUMPDEST PUSH2 0x183 PUSH1 0x4 DUP1 CALLDATASIZE SUB DUP2 ADD SWAP1 PUSH2 0x17E SWAP2 SWAP1 PUSH2 0x1EC0 JUMP JUMPDEST PUSH2 0x4C4 JUMP JUMPDEST PUSH1 0x40 MLOAD PUSH2 0x190 SWAP2 SWAP1 PUSH2 0x264A JUMP JUMPDEST PUSH1 0x40 MLOAD DUP1 SWAP2 SUB SWAP1 RETURN JUMPDEST PUSH2 0x1B3 PUSH1 0x4 DUP1 CALLDATASIZE SUB DUP2 ADD SWAP1 PUSH2 0x1AE SWAP2 SWAP1 PUSH2 0x1E32 JUMP JUMPDEST PUSH2 0x549 JUMP JUMPDEST STOP JUMPDEST PUSH2 0x1BD PUSH2 0x661 JUMP JUMPDEST PUSH1 0x40 MLOAD PUSH2 0x1CA SWAP2 SWAP1 PUSH2 0x28CE JUMP JUMPDEST PUSH1 0x40 MLOAD DUP1 SWAP2 SUB SWAP1 RETURN JUMPDEST PUSH2 0x1ED PUSH1 0x4 DUP1 CALLDATASIZE SUB DUP2 ADD SWAP1 PUSH2 0x1E8 SWAP2 SWAP1 PUSH2 0x1D2C JUMP JUMPDEST PUSH2 0x672 JUMP JUMPDEST STOP JUMPDEST PUSH2 0x209 PUSH1 0x4 DUP1 CALLDATASIZE SUB DUP2 ADD SWAP1 PUSH2 0x204 SWAP2 SWAP1 PUSH2 0x1E32 JUMP JUMPDEST PUSH2 0x6D2 JUMP JUMPDEST PUSH1 0x40 MLOAD PUSH2 0x216 SWAP2 SWAP1 PUSH2 0x28CE JUMP JUMPDEST PUSH1 0x40 MLOAD DUP1 SWAP2 SUB SWAP1 RETURN JUMPDEST PUSH2 0x239 PUSH1 0x4 DUP1 CALLDATASIZE SUB DUP2 ADD SWAP1 PUSH2 0x234 SWAP2 SWAP1 PUSH2 0x1E32 JUMP JUMPDEST PUSH2 0x72D JUMP JUMPDEST STOP JUMPDEST PUSH2 0x255 PUSH1 0x4 DUP1 CALLDATASIZE SUB DUP2 ADD SWAP1 PUSH2 0x250 SWAP2 SWAP1 PUSH2 0x1D2C JUMP JUMPDEST PUSH2 0x73B JUMP JUMPDEST STOP JUMPDEST PUSH2 0x271 PUSH1 0x4 DUP1 CALLDATASIZE SUB DUP2 ADD SWAP1 PUSH2 0x26C SWAP2 SWAP1 PUSH2 0x1EC0 JUMP JUMPDEST PUSH2 0x75B JUMP JUMPDEST PUSH1 0x40 MLOAD PUSH2 0x27E SWAP2 SWAP1 PUSH2 0x28CE JUMP JUMPDEST PUSH1 0x40 MLOAD DUP1 SWAP2 SUB SWAP1 RETURN JUMPDEST PUSH2 0x2A1 PUSH1 0x4 DUP1 CALLDATASIZE SUB DUP2 ADD SWAP1 PUSH2 0x29C SWAP2 SWAP1 PUSH2 0x1EC0 JUMP JUMPDEST PUSH2 0x77E JUMP JUMPDEST PUSH1 0x40 MLOAD PUSH2 0x2AE SWAP2 SWAP1 PUSH2 0x264A JUMP JUMPDEST PUSH1 0x40 MLOAD DUP1 SWAP2 SUB SWAP1 RETURN JUMPDEST PUSH2 0x2BF PUSH2 0x7B5 JUMP JUMPDEST PUSH1 0x40 MLOAD PUSH2 0x2CC SWAP2 SWAP1 PUSH2 0x26CC JUMP JUMPDEST PUSH1 0x40 MLOAD DUP1 SWAP2 SUB SWAP1 RETURN JUMPDEST PUSH2 0x2EF PUSH1 0x4 DUP1 CALLDATASIZE SUB DUP2 ADD SWAP1 PUSH2 0x2EA SWAP2 SWAP1 PUSH2 0x1CC7 JUMP JUMPDEST PUSH2 0x857 JUMP JUMPDEST PUSH1 0x40 MLOAD PUSH2 0x2FC SWAP2 SWAP1 PUSH2 0x28CE JUMP JUMPDEST PUSH1 0x40 MLOAD DUP1 SWAP2 SUB SWAP1 RETURN JUMPDEST PUSH2 0x30D PUSH2 0x916 JUMP JUMPDEST PUSH1 0x40 MLOAD PUSH2 0x31A SWAP2 SWAP1 PUSH2 0x26CC JUMP JUMPDEST PUSH1 0x40 MLOAD DUP1 SWAP2 SUB SWAP1 RETURN JUMPDEST PUSH2 0x33D PUSH1 0x4 DUP1 CALLDATASIZE SUB DUP2 ADD SWAP1 PUSH2 0x338 SWAP2 SWAP1 PUSH2 0x1DF6 JUMP JUMPDEST PUSH2 0x9B8 JUMP JUMPDEST STOP JUMPDEST PUSH2 0x359 PUSH1 0x4 DUP1 CALLDATASIZE SUB DUP2 ADD SWAP1 PUSH2 0x354 SWAP2 SWAP1 PUSH2 0x1D7B JUMP JUMPDEST PUSH2 0xB39 JUMP JUMPDEST STOP JUMPDEST PUSH2 0x375 PUSH1 0x4 DUP1 CALLDATASIZE SUB DUP2 ADD SWAP1 PUSH2 0x370 SWAP2 SWAP1 PUSH2 0x1EC0 JUMP JUMPDEST PUSH2 0xB9B JUMP JUMPDEST PUSH1 0x40 MLOAD PUSH2 0x382 SWAP2 SWAP1 PUSH2 0x26CC JUMP JUMPDEST PUSH1 0x40 MLOAD DUP1 SWAP2 SUB SWAP1 RETURN JUMPDEST PUSH2 0x3A5 PUSH1 0x4 DUP1 CALLDATASIZE SUB DUP2 ADD SWAP1 PUSH2 0x3A0 SWAP2 SWAP1 PUSH2 0x1CF0 JUMP JUMPDEST PUSH2 0xD26 JUMP JUMPDEST PUSH1 0x40 MLOAD PUSH2 0x3B2 SWAP2 SWAP1 PUSH2 0x26B1 JUMP JUMPDEST PUSH1 0x40 MLOAD DUP1 SWAP2 SUB SWAP1 RETURN JUMPDEST PUSH1 0x0 DUP1 PUSH1 0x0 DUP4 PUSH28 0xFFFFFFFFFFFFFFFFFFFFFFFFFFFFFFFFFFFFFFFFFFFFFFFFFFFFFFFF NOT AND PUSH28 0xFFFFFFFFFFFFFFFFFFFFFFFFFFFFFFFFFFFFFFFFFFFFFFFFFFFFFFFF NOT AND DUP2 MSTORE PUSH1 0x20 ADD SWAP1 DUP2 MSTORE PUSH1 0x20 ADD PUSH1 0x0 KECCAK256 PUSH1 0x0 SWAP1 SLOAD SWAP1 PUSH2 0x100 EXP SWAP1 DIV PUSH1 0xFF AND SWAP1 POP SWAP2 SWAP1 POP JUMP JUMPDEST PUSH1 0x60 PUSH1 0x6 DUP1 SLOAD PUSH1 0x1 DUP2 PUSH1 0x1 AND ISZERO PUSH2 0x100 MUL SUB AND PUSH1 0x2 SWAP1 DIV DUP1 PUSH1 0x1F ADD PUSH1 0x20 DUP1 SWAP2 DIV MUL PUSH1 0x20 ADD PUSH1 0x40 MLOAD SWAP1 DUP2 ADD PUSH1 0x40 MSTORE DUP1 SWAP3 SWAP2 SWAP1 DUP2 DUP2 MSTORE PUSH1 0x20 ADD DUP3 DUP1 SLOAD PUSH1 0x1 DUP2 PUSH1 0x1 AND ISZERO PUSH2 0x100 MUL SUB AND PUSH1 0x2 SWAP1 DIV DUP1 ISZERO PUSH2 0x4BA JUMPI DUP1 PUSH1 0x1F LT PUSH2 0x48F JUMPI PUSH2 0x100 DUP1 DUP4 SLOAD DIV MUL DUP4 MSTORE SWAP2 PUSH1 0x20 ADD SWAP2 PUSH2 0x4BA JUMP JUMPDEST DUP3 ADD SWAP2 SWAP1 PUSH1 0x0 MSTORE PUSH1 0x20 PUSH1 0x0 KECCAK256 SWAP1 JUMPDEST DUP2 SLOAD DUP2 MSTORE SWAP1 PUSH1 0x1 ADD SWAP1 PUSH1 0x20 ADD DUP1 DUP4 GT PUSH2 0x49D JUMPI DUP3 SWAP1 SUB PUSH1 0x1F AND DUP3 ADD SWAP2 JUMPDEST POP POP POP POP POP SWAP1 POP SWAP1 JUMP JUMPDEST PUSH1 0x0 PUSH2 0x4CF DUP3 PUSH2 0xDBA JUMP JUMPDEST PUSH2 0x50E JUMPI PUSH1 0x40 MLOAD PUSH32 0x8C379A000000000000000000000000000000000000000000000000000000000 DUP2 MSTORE PUSH1 0x4 ADD PUSH2 0x505 SWAP1 PUSH2 0x282E JUMP JUMPDEST PUSH1 0x40 MLOAD DUP1 SWAP2 SUB SWAP1 REVERT JUMPDEST PUSH1 0x4 PUSH1 0x0 DUP4 DUP2 MSTORE PUSH1 0x20 ADD SWAP1 DUP2 MSTORE PUSH1 0x20 ADD PUSH1 0x0 KECCAK256 PUSH1 0x0 SWAP1 SLOAD SWAP1 PUSH2 0x100 EXP SWAP1 DIV PUSH20 0xFFFFFFFFFFFFFFFFFFFFFFFFFFFFFFFFFFFFFFFF AND SWAP1 POP SWAP2 SWAP1 POP JUMP JUMPDEST PUSH1 0x0 PUSH2 0x554 DUP3 PUSH2 0x77E JUMP JUMPDEST SWAP1 POP DUP1 PUSH20 0xFFFFFFFFFFFFFFFFFFFFFFFFFFFFFFFFFFFFFFFF AND DUP4 PUSH20 0xFFFFFFFFFFFFFFFFFFFFFFFFFFFFFFFFFFFFFFFF AND EQ ISZERO PUSH2 0x5C5 JUMPI PUSH1 0x40 MLOAD PUSH32 0x8C379A000000000000000000000000000000000000000000000000000000000 DUP2 MSTORE PUSH1 0x4 ADD PUSH2 0x5BC SWAP1 PUSH2 0x288E JUMP JUMPDEST PUSH1 0x40 MLOAD DUP1 SWAP2 SUB SWAP1 REVERT JUMPDEST DUP1 PUSH20 0xFFFFFFFFFFFFFFFFFFFFFFFFFFFFFFFFFFFFFFFF AND PUSH2 0x5E4 PUSH2 0xDD7 JUMP JUMPDEST PUSH20 0xFFFFFFFFFFFFFFFFFFFFFFFFFFFFFFFFFFFFFFFF AND EQ DUP1 PUSH2 0x613 JUMPI POP PUSH2 0x612 DUP2 PUSH2 0x60D PUSH2 0xDD7 JUMP JUMPDEST PUSH2 0xD26 JUMP JUMPDEST JUMPDEST PUSH2 0x652 JUMPI PUSH1 0x40 MLOAD PUSH32 0x8C379A000000000000000000000000000000000000000000000000000000000 DUP2 MSTORE PUSH1 0x4 ADD PUSH2 0x649 SWAP1 PUSH2 0x27AE JUMP JUMPDEST PUSH1 0x40 MLOAD DUP1 SWAP2 SUB SWAP1 REVERT JUMPDEST PUSH2 0x65C DUP4 DUP4 PUSH2 0xDDF JUMP JUMPDEST POP POP POP JUMP JUMPDEST PUSH1 0x0 PUSH2 0x66D PUSH1 0x2 PUSH2 0xE98 JUMP JUMPDEST SWAP1 POP SWAP1 JUMP JUMPDEST PUSH2 0x683 PUSH2 0x67D PUSH2 0xDD7 JUMP JUMPDEST DUP3 PUSH2 0xEAD JUMP JUMPDEST PUSH2 0x6C2 JUMPI PUSH1 0x40 MLOAD PUSH32 0x8C379A000000000000000000000000000000000000000000000000000000000 DUP2 MSTORE PUSH1 0x4 ADD PUSH2 0x6B9 SWAP1 PUSH2 0x28AE JUMP JUMPDEST PUSH1 0x40 MLOAD DUP1 SWAP2 SUB SWAP1 REVERT JUMPDEST PUSH2 0x6CD DUP4 DUP4 DUP4 PUSH2 0xF8B JUMP JUMPDEST POP POP POP JUMP JUMPDEST PUSH1 0x0 PUSH2 0x725 DUP3 PUSH1 0x1 PUSH1 0x0 DUP7 PUSH20 0xFFFFFFFFFFFFFFFFFFFFFFFFFFFFFFFFFFFFFFFF AND PUSH20 0xFFFFFFFFFFFFFFFFFFFFFFFFFFFFFFFFFFFFFFFF AND DUP2 MSTORE PUSH1 0x20 ADD SWAP1 DUP2 MSTORE PUSH1 0x20 ADD PUSH1 0x0 KECCAK256 PUSH2 0x11A2 SWAP1 SWAP2 SWAP1 PUSH4 0xFFFFFFFF AND JUMP JUMPDEST SWAP1 POP SWAP3 SWAP2 POP POP JUMP JUMPDEST PUSH2 0x737 DUP3 DUP3 PUSH2 0x11BC JUMP JUMPDEST POP POP JUMP JUMPDEST PUSH2 0x756 DUP4 DUP4 DUP4 PUSH1 0x40 MLOAD DUP1 PUSH1 0x20 ADD PUSH1 0x40 MSTORE DUP1 PUSH1 0x0 DUP2 MSTORE POP PUSH2 0xB39 JUMP JUMPDEST POP POP POP JUMP JUMPDEST PUSH1 0x0 DUP1 PUSH2 0x772 DUP4 PUSH1 0x2 PUSH2 0x134A SWAP1 SWAP2 SWAP1 PUSH4 0xFFFFFFFF AND JUMP JUMPDEST POP SWAP1 POP DUP1 SWAP2 POP POP SWAP2 SWAP1 POP JUMP JUMPDEST PUSH1 0x0 PUSH2 0x7AE DUP3 PUSH1 0x40 MLOAD DUP1 PUSH1 0x60 ADD PUSH1 0x40 MSTORE DUP1 PUSH1 0x29 DUP2 MSTORE PUSH1 0x20 ADD PUSH2 0x2ADB PUSH1 0x29 SWAP2 CODECOPY PUSH1 0x2 PUSH2 0x1379 SWAP1 SWAP3 SWAP2 SWAP1 PUSH4 0xFFFFFFFF AND JUMP JUMPDEST SWAP1 POP SWAP2 SWAP1 POP JUMP JUMPDEST PUSH1 0x60 PUSH1 0x9 DUP1 SLOAD PUSH1 0x1 DUP2 PUSH1 0x1 AND ISZERO PUSH2 0x100 MUL SUB AND PUSH1 0x2 SWAP1 DIV DUP1 PUSH1 0x1F ADD PUSH1 0x20 DUP1 SWAP2 DIV MUL PUSH1 0x20 ADD PUSH1 0x40 MLOAD SWAP1 DUP2 ADD PUSH1 0x40 MSTORE DUP1 SWAP3 SWAP2 SWAP1 DUP2 DUP2 MSTORE PUSH1 0x20 ADD DUP3 DUP1 SLOAD PUSH1 0x1 DUP2 PUSH1 0x1 AND ISZERO PUSH2 0x100 MUL SUB AND PUSH1 0x2 SWAP1 DIV DUP1 ISZERO PUSH2 0x84D JUMPI DUP1 PUSH1 0x1F LT PUSH2 0x822 JUMPI PUSH2 0x100 DUP1 DUP4 SLOAD DIV MUL DUP4 MSTORE SWAP2 PUSH1 0x20 ADD SWAP2 PUSH2 0x84D JUMP JUMPDEST DUP3 ADD SWAP2 SWAP1 PUSH1 0x0 MSTORE PUSH1 0x20 PUSH1 0x0 KECCAK256 SWAP1 JUMPDEST DUP2 SLOAD DUP2 MSTORE SWAP1 PUSH1 0x1 ADD SWAP1 PUSH1 0x20 ADD DUP1 DUP4 GT PUSH2 0x830 JUMPI DUP3 SWAP1 SUB PUSH1 0x1F AND DUP3 ADD SWAP2 JUMPDEST POP POP POP POP POP SWAP1 POP SWAP1 JUMP JUMPDEST PUSH1 0x0 DUP1 PUSH20 0xFFFFFFFFFFFFFFFFFFFFFFFFFFFFFFFFFFFFFFFF AND DUP3 PUSH20 0xFFFFFFFFFFFFFFFFFFFFFFFFFFFFFFFFFFFFFFFF AND EQ ISZERO PUSH2 0x8C8 JUMPI PUSH1 0x40 MLOAD PUSH32 0x8C379A000000000000000000000000000000000000000000000000000000000 DUP2 MSTORE PUSH1 0x4 ADD PUSH2 0x8BF SWAP1 PUSH2 0x27CE JUMP JUMPDEST PUSH1 0x40 MLOAD DUP1 SWAP2 SUB SWAP1 REVERT JUMPDEST PUSH2 0x90F PUSH1 0x1 PUSH1 0x0 DUP5 PUSH20 0xFFFFFFFFFFFFFFFFFFFFFFFFFFFFFFFFFFFFFFFF AND PUSH20 0xFFFFFFFFFFFFFFFFFFFFFFFFFFFFFFFFFFFFFFFF AND DUP2 MSTORE PUSH1 0x20 ADD SWAP1 DUP2 MSTORE PUSH1 0x20 ADD PUSH1 0x0 KECCAK256 PUSH2 0x1398 JUMP JUMPDEST SWAP1 POP SWAP2 SWAP1 POP JUMP JUMPDEST PUSH1 0x60 PUSH1 0x7 DUP1 SLOAD PUSH1 0x1 DUP2 PUSH1 0x1 AND ISZERO PUSH2 0x100 MUL SUB AND PUSH1 0x2 SWAP1 DIV DUP1 PUSH1 0x1F ADD PUSH1 0x20 DUP1 SWAP2 DIV MUL PUSH1 0x20 ADD PUSH1 0x40 MLOAD SWAP1 DUP2 ADD PUSH1 0x40 MSTORE DUP1 SWAP3 SWAP2 SWAP1 DUP2 DUP2 MSTORE PUSH1 0x20 ADD DUP3 DUP1 SLOAD PUSH1 0x1 DUP2 PUSH1 0x1 AND ISZERO PUSH2 0x100 MUL SUB AND PUSH1 0x2 SWAP1 DIV DUP1 ISZERO PUSH2 0x9AE JUMPI DUP1 PUSH1 0x1F LT PUSH2 0x983 JUMPI PUSH2 0x100 DUP1 DUP4 SLOAD DIV MUL DUP4 MSTORE SWAP2 PUSH1 0x20 ADD SWAP2 PUSH2 0x9AE JUMP JUMPDEST DUP3 ADD SWAP2 SWAP1 PUSH1 0x0 MSTORE PUSH1 0x20 PUSH1 0x0 KECCAK256 SWAP1 JUMPDEST DUP2 SLOAD DUP2 MSTORE SWAP1 PUSH1 0x1 ADD SWAP1 PUSH1 0x20 ADD DUP1 DUP4 GT PUSH2 0x991 JUMPI DUP3 SWAP1 SUB PUSH1 0x1F AND DUP3 ADD SWAP2 JUMPDEST POP POP POP POP POP SWAP1 POP SWAP1 JUMP JUMPDEST PUSH2 0x9C0 PUSH2 0xDD7 JUMP JUMPDEST PUSH20 0xFFFFFFFFFFFFFFFFFFFFFFFFFFFFFFFFFFFFFFFF AND DUP3 PUSH20 0xFFFFFFFFFFFFFFFFFFFFFFFFFFFFFFFFFFFFFFFF AND EQ ISZERO PUSH2 0xA2E JUMPI PUSH1 0x40 MLOAD PUSH32 0x8C379A000000000000000000000000000000000000000000000000000000000 DUP2 MSTORE PUSH1 0x4 ADD PUSH2 0xA25 SWAP1 PUSH2 0x276E JUMP JUMPDEST PUSH1 0x40 MLOAD DUP1 SWAP2 SUB SWAP1 REVERT JUMPDEST DUP1 PUSH1 0x5 PUSH1 0x0 PUSH2 0xA3B PUSH2 0xDD7 JUMP JUMPDEST PUSH20 0xFFFFFFFFFFFFFFFFFFFFFFFFFFFFFFFFFFFFFFFF AND PUSH20 0xFFFFFFFFFFFFFFFFFFFFFFFFFFFFFFFFFFFFFFFF AND DUP2 MSTORE PUSH1 0x20 ADD SWAP1 DUP2 MSTORE PUSH1 0x20 ADD PUSH1 0x0 KECCAK256 PUSH1 0x0 DUP5 PUSH20 0xFFFFFFFFFFFFFFFFFFFFFFFFFFFFFFFFFFFFFFFF AND PUSH20 0xFFFFFFFFFFFFFFFFFFFFFFFFFFFFFFFFFFFFFFFF AND DUP2 MSTORE PUSH1 0x20 ADD SWAP1 DUP2 MSTORE PUSH1 0x20 ADD PUSH1 0x0 KECCAK256 PUSH1 0x0 PUSH2 0x100 EXP DUP2 SLOAD DUP2 PUSH1 0xFF MUL NOT AND SWAP1 DUP4 ISZERO ISZERO MUL OR SWAP1 SSTORE POP DUP2 PUSH20 0xFFFFFFFFFFFFFFFFFFFFFFFFFFFFFFFFFFFFFFFF AND PUSH2 0xAE8 PUSH2 0xDD7 JUMP JUMPDEST PUSH20 0xFFFFFFFFFFFFFFFFFFFFFFFFFFFFFFFFFFFFFFFF AND PUSH32 0x17307EAB39AB6107E8899845AD3D59BD9653F200F220920489CA2B5937696C31 DUP4 PUSH1 0x40 MLOAD PUSH2 0xB2D SWAP2 SWAP1 PUSH2 0x26B1 JUMP JUMPDEST PUSH1 0x40 MLOAD DUP1 SWAP2 SUB SWAP1 LOG3 POP POP JUMP JUMPDEST PUSH2 0xB4A PUSH2 0xB44 PUSH2 0xDD7 JUMP JUMPDEST DUP4 PUSH2 0xEAD JUMP JUMPDEST PUSH2 0xB89 JUMPI PUSH1 0x40 MLOAD PUSH32 0x8C379A000000000000000000000000000000000000000000000000000000000 DUP2 MSTORE PUSH1 0x4 ADD PUSH2 0xB80 SWAP1 PUSH2 0x28AE JUMP JUMPDEST PUSH1 0x40 MLOAD DUP1 SWAP2 SUB SWAP1 REVERT JUMPDEST PUSH2 0xB95 DUP5 DUP5 DUP5 DUP5 PUSH2 0x13AD JUMP JUMPDEST POP POP POP POP JUMP JUMPDEST PUSH1 0x60 PUSH2 0xBA6 DUP3 PUSH2 0xDBA JUMP JUMPDEST PUSH2 0xBE5 JUMPI PUSH1 0x40 MLOAD PUSH32 0x8C379A000000000000000000000000000000000000000000000000000000000 DUP2 MSTORE PUSH1 0x4 ADD PUSH2 0xBDC SWAP1 PUSH2 0x286E JUMP JUMPDEST PUSH1 0x40 MLOAD DUP1 SWAP2 SUB SWAP1 REVERT JUMPDEST PUSH1 0x60 PUSH1 0x8 PUSH1 0x0 DUP5 DUP2 MSTORE PUSH1 0x20 ADD SWAP1 DUP2 MSTORE PUSH1 0x20 ADD PUSH1 0x0 KECCAK256 DUP1 SLOAD PUSH1 0x1 DUP2 PUSH1 0x1 AND ISZERO PUSH2 0x100 MUL SUB AND PUSH1 0x2 SWAP1 DIV DUP1 PUSH1 0x1F ADD PUSH1 0x20 DUP1 SWAP2 DIV MUL PUSH1 0x20 ADD PUSH1 0x40 MLOAD SWAP1 DUP2 ADD PUSH1 0x40 MSTORE DUP1 SWAP3 SWAP2 SWAP1 DUP2 DUP2 MSTORE PUSH1 0x20 ADD DUP3 DUP1 SLOAD PUSH1 0x1 DUP2 PUSH1 0x1 AND ISZERO PUSH2 0x100 MUL SUB AND PUSH1 0x2 SWAP1 DIV DUP1 ISZERO PUSH2 0xC8E JUMPI DUP1 PUSH1 0x1F LT PUSH2 0xC63 JUMPI PUSH2 0x100 DUP1 DUP4 SLOAD DIV MUL DUP4 MSTORE SWAP2 PUSH1 0x20 ADD SWAP2 PUSH2 0xC8E JUMP JUMPDEST DUP3 ADD SWAP2 SWAP1 PUSH1 0x0 MSTORE PUSH1 0x20 PUSH1 0x0 KECCAK256 SWAP1 JUMPDEST DUP2 SLOAD DUP2 MSTORE SWAP1 PUSH1 0x1 ADD SWAP1 PUSH1 0x20 ADD DUP1 DUP4 GT PUSH2 0xC71 JUMPI DUP3 SWAP1 SUB PUSH1 0x1F AND DUP3 ADD SWAP2 JUMPDEST POP POP POP POP POP SWAP1 POP PUSH1 0x0 PUSH1 0x9 DUP1 SLOAD PUSH1 0x1 DUP2 PUSH1 0x1 AND ISZERO PUSH2 0x100 MUL SUB AND PUSH1 0x2 SWAP1 DIV SWAP1 POP EQ ISZERO PUSH2 0xCBD JUMPI DUP1 SWAP2 POP POP PUSH2 0xD21 JUMP JUMPDEST PUSH1 0x0 DUP2 MLOAD GT ISZERO PUSH2 0xCF2 JUMPI PUSH1 0x9 DUP2 PUSH1 0x40 MLOAD PUSH1 0x20 ADD PUSH2 0xCDB SWAP3 SWAP2 SWAP1 PUSH2 0x2626 JUMP JUMPDEST PUSH1 0x40 MLOAD PUSH1 0x20 DUP2 DUP4 SUB SUB DUP2 MSTORE SWAP1 PUSH1 0x40 MSTORE SWAP2 POP POP PUSH2 0xD21 JUMP JUMPDEST PUSH1 0x9 PUSH2 0xCFD DUP5 PUSH2 0x1409 JUMP JUMPDEST PUSH1 0x40 MLOAD PUSH1 0x20 ADD PUSH2 0xD0E SWAP3 SWAP2 SWAP1 PUSH2 0x2626 JUMP JUMPDEST PUSH1 0x40 MLOAD PUSH1 0x20 DUP2 DUP4 SUB SUB DUP2 MSTORE SWAP1 PUSH1 0x40 MSTORE SWAP2 POP POP JUMPDEST SWAP2 SWAP1 POP JUMP JUMPDEST PUSH1 0x0 PUSH1 0x5 PUSH1 0x0 DUP5 PUSH20 0xFFFFFFFFFFFFFFFFFFFFFFFFFFFFFFFFFFFFFFFF AND PUSH20 0xFFFFFFFFFFFFFFFFFFFFFFFFFFFFFFFFFFFFFFFF AND DUP2 MSTORE PUSH1 0x20 ADD SWAP1 DUP2 MSTORE PUSH1 0x20 ADD PUSH1 0x0 KECCAK256 PUSH1 0x0 DUP4 PUSH20 0xFFFFFFFFFFFFFFFFFFFFFFFFFFFFFFFFFFFFFFFF AND PUSH20 0xFFFFFFFFFFFFFFFFFFFFFFFFFFFFFFFFFFFFFFFF AND DUP2 MSTORE PUSH1 0x20 ADD SWAP1 DUP2 MSTORE PUSH1 0x20 ADD PUSH1 0x0 KECCAK256 PUSH1 0x0 SWAP1 SLOAD SWAP1 PUSH2 0x100 EXP SWAP1 DIV PUSH1 0xFF AND SWAP1 POP SWAP3 SWAP2 POP POP JUMP JUMPDEST PUSH1 0x0 PUSH2 0xDD0 DUP3 PUSH1 0x2 PUSH2 0x1539 SWAP1 SWAP2 SWAP1 PUSH4 0xFFFFFFFF AND JUMP JUMPDEST SWAP1 POP SWAP2 SWAP1 POP JUMP JUMPDEST PUSH1 0x0 CALLER SWAP1 POP SWAP1 JUMP JUMPDEST DUP2 PUSH1 0x4 PUSH1 0x0 DUP4 DUP2 MSTORE PUSH1 0x20 ADD SWAP1 DUP2 MSTORE PUSH1 0x20 ADD PUSH1 0x0 KECCAK256 PUSH1 0x0 PUSH2 0x100 EXP DUP2 SLOAD DUP2 PUSH20 0xFFFFFFFFFFFFFFFFFFFFFFFFFFFFFFFFFFFFFFFF MUL NOT AND SWAP1 DUP4 PUSH20 0xFFFFFFFFFFFFFFFFFFFFFFFFFFFFFFFFFFFFFFFF AND MUL OR SWAP1 SSTORE POP DUP1 DUP3 PUSH20 0xFFFFFFFFFFFFFFFFFFFFFFFFFFFFFFFFFFFFFFFF AND PUSH2 0xE52 DUP4 PUSH2 0x77E JUMP JUMPDEST PUSH20 0xFFFFFFFFFFFFFFFFFFFFFFFFFFFFFFFFFFFFFFFF AND PUSH32 0x8C5BE1E5EBEC7D5BD14F71427D1E84F3DD0314C0F7B2291E5B200AC8C7C3B925 PUSH1 0x40 MLOAD PUSH1 0x40 MLOAD DUP1 SWAP2 SUB SWAP1 LOG4 POP POP JUMP JUMPDEST PUSH1 0x0 PUSH2 0xEA6 DUP3 PUSH1 0x0 ADD PUSH2 0x1553 JUMP JUMPDEST SWAP1 POP SWAP2 SWAP1 POP JUMP JUMPDEST PUSH1 0x0 PUSH2 0xEB8 DUP3 PUSH2 0xDBA JUMP JUMPDEST PUSH2 0xEF7 JUMPI PUSH1 0x40 MLOAD PUSH32 0x8C379A000000000000000000000000000000000000000000000000000000000 DUP2 MSTORE PUSH1 0x4 ADD PUSH2 0xEEE SWAP1 PUSH2 0x278E JUMP JUMPDEST PUSH1 0x40 MLOAD DUP1 SWAP2 SUB SWAP1 REVERT JUMPDEST PUSH1 0x0 PUSH2 0xF02 DUP4 PUSH2 0x77E JUMP JUMPDEST SWAP1 POP DUP1 PUSH20 0xFFFFFFFFFFFFFFFFFFFFFFFFFFFFFFFFFFFFFFFF AND DUP5 PUSH20 0xFFFFFFFFFFFFFFFFFFFFFFFFFFFFFFFFFFFFFFFF AND EQ DUP1 PUSH2 0xF71 JUMPI POP DUP4 PUSH20 0xFFFFFFFFFFFFFFFFFFFFFFFFFFFFFFFFFFFFFFFF AND PUSH2 0xF59 DUP5 PUSH2 0x4C4 JUMP JUMPDEST PUSH20 0xFFFFFFFFFFFFFFFFFFFFFFFFFFFFFFFFFFFFFFFF AND EQ JUMPDEST DUP1 PUSH2 0xF82 JUMPI POP PUSH2 0xF81 DUP2 DUP6 PUSH2 0xD26 JUMP JUMPDEST JUMPDEST SWAP2 POP POP SWAP3 SWAP2 POP POP JUMP JUMPDEST DUP3 PUSH20 0xFFFFFFFFFFFFFFFFFFFFFFFFFFFFFFFFFFFFFFFF AND PUSH2 0xFAB DUP3 PUSH2 0x77E JUMP JUMPDEST PUSH20 0xFFFFFFFFFFFFFFFFFFFFFFFFFFFFFFFFFFFFFFFF AND EQ PUSH2 0x1001 JUMPI PUSH1 0x40 MLOAD PUSH32 0x8C379A000000000000000000000000000000000000000000000000000000000 DUP2 MSTORE PUSH1 0x4 ADD PUSH2 0xFF8 SWAP1 PUSH2 0x284E JUMP JUMPDEST PUSH1 0x40 MLOAD DUP1 SWAP2 SUB SWAP1 REVERT JUMPDEST PUSH1 0x0 PUSH20 0xFFFFFFFFFFFFFFFFFFFFFFFFFFFFFFFFFFFFFFFF AND DUP3 PUSH20 0xFFFFFFFFFFFFFFFFFFFFFFFFFFFFFFFFFFFFFFFF AND EQ ISZERO PUSH2 0x1071 JUMPI PUSH1 0x40 MLOAD PUSH32 0x8C379A000000000000000000000000000000000000000000000000000000000 DUP2 MSTORE PUSH1 0x4 ADD PUSH2 0x1068 SWAP1 PUSH2 0x274E JUMP JUMPDEST PUSH1 0x40 MLOAD DUP1 SWAP2 SUB SWAP1 REVERT JUMPDEST PUSH2 0x107C DUP4 DUP4 DUP4 PUSH2 0x1564 JUMP JUMPDEST PUSH2 0x1087 PUSH1 0x0 DUP3 PUSH2 0xDDF JUMP JUMPDEST PUSH2 0x10D8 DUP2 PUSH1 0x1 PUSH1 0x0 DUP7 PUSH20 0xFFFFFFFFFFFFFFFFFFFFFFFFFFFFFFFFFFFFFFFF AND PUSH20 0xFFFFFFFFFFFFFFFFFFFFFFFFFFFFFFFFFFFFFFFF AND DUP2 MSTORE PUSH1 0x20 ADD SWAP1 DUP2 MSTORE PUSH1 0x20 ADD PUSH1 0x0 KECCAK256 PUSH2 0x1569 SWAP1 SWAP2 SWAP1 PUSH4 0xFFFFFFFF AND JUMP JUMPDEST POP PUSH2 0x112A DUP2 PUSH1 0x1 PUSH1 0x0 DUP6 PUSH20 0xFFFFFFFFFFFFFFFFFFFFFFFFFFFFFFFFFFFFFFFF AND PUSH20 0xFFFFFFFFFFFFFFFFFFFFFFFFFFFFFFFFFFFFFFFF AND DUP2 MSTORE PUSH1 0x20 ADD SWAP1 DUP2 MSTORE PUSH1 0x20 ADD PUSH1 0x0 KECCAK256 PUSH2 0x1583 SWAP1 SWAP2 SWAP1 PUSH4 0xFFFFFFFF AND JUMP JUMPDEST POP PUSH2 0x1141 DUP2 DUP4 PUSH1 0x2 PUSH2 0x159D SWAP1 SWAP3 SWAP2 SWAP1 PUSH4 0xFFFFFFFF AND JUMP JUMPDEST POP DUP1 DUP3 PUSH20 0xFFFFFFFFFFFFFFFFFFFFFFFFFFFFFFFFFFFFFFFF AND DUP5 PUSH20 0xFFFFFFFFFFFFFFFFFFFFFFFFFFFFFFFFFFFFFFFF AND PUSH32 0xDDF252AD1BE2C89B69C2B068FC378DAA952BA7F163C4A11628F55A4DF523B3EF PUSH1 0x40 MLOAD PUSH1 0x40 MLOAD DUP1 SWAP2 SUB SWAP1 LOG4 POP POP POP JUMP JUMPDEST PUSH1 0x0 PUSH2 0x11B1 DUP4 PUSH1 0x0 ADD DUP4 PUSH2 0x15D2 JUMP JUMPDEST PUSH1 0x0 SHR SWAP1 POP SWAP3 SWAP2 POP POP JUMP JUMPDEST PUSH1 0x0 PUSH20 0xFFFFFFFFFFFFFFFFFFFFFFFFFFFFFFFFFFFFFFFF AND DUP3 PUSH20 0xFFFFFFFFFFFFFFFFFFFFFFFFFFFFFFFFFFFFFFFF AND EQ ISZERO PUSH2 0x122C JUMPI PUSH1 0x40 MLOAD PUSH32 0x8C379A000000000000000000000000000000000000000000000000000000000 DUP2 MSTORE PUSH1 0x4 ADD PUSH2 0x1223 SWAP1 PUSH2 0x280E JUMP JUMPDEST PUSH1 0x40 MLOAD DUP1 SWAP2 SUB SWAP1 REVERT JUMPDEST PUSH2 0x1235 DUP2 PUSH2 0xDBA JUMP JUMPDEST ISZERO PUSH2 0x1275 JUMPI PUSH1 0x40 MLOAD PUSH32 0x8C379A000000000000000000000000000000000000000000000000000000000 DUP2 MSTORE PUSH1 0x4 ADD PUSH2 0x126C SWAP1 PUSH2 0x272E JUMP JUMPDEST PUSH1 0x40 MLOAD DUP1 SWAP2 SUB SWAP1 REVERT JUMPDEST PUSH2 0x1281 PUSH1 0x0 DUP4 DUP4 PUSH2 0x1564 JUMP JUMPDEST PUSH2 0x12D2 DUP2 PUSH1 0x1 PUSH1 0x0 DUP6 PUSH20 0xFFFFFFFFFFFFFFFFFFFFFFFFFFFFFFFFFFFFFFFF AND PUSH20 0xFFFFFFFFFFFFFFFFFFFFFFFFFFFFFFFFFFFFFFFF AND DUP2 MSTORE PUSH1 0x20 ADD SWAP1 DUP2 MSTORE PUSH1 0x20 ADD PUSH1 0x0 KECCAK256 PUSH2 0x1583 SWAP1 SWAP2 SWAP1 PUSH4 0xFFFFFFFF AND JUMP JUMPDEST POP PUSH2 0x12E9 DUP2 DUP4 PUSH1 0x2 PUSH2 0x159D SWAP1 SWAP3 SWAP2 SWAP1 PUSH4 0xFFFFFFFF AND JUMP JUMPDEST POP DUP1 DUP3 PUSH20 0xFFFFFFFFFFFFFFFFFFFFFFFFFFFFFFFFFFFFFFFF AND PUSH1 0x0 PUSH20 0xFFFFFFFFFFFFFFFFFFFFFFFFFFFFFFFFFFFFFFFF AND PUSH32 0xDDF252AD1BE2C89B69C2B068FC378DAA952BA7F163C4A11628F55A4DF523B3EF PUSH1 0x40 MLOAD PUSH1 0x40 MLOAD DUP1 SWAP2 SUB SWAP1 LOG4 POP POP JUMP JUMPDEST PUSH1 0x0 DUP1 PUSH1 0x0 DUP1 PUSH2 0x135D DUP7 PUSH1 0x0 ADD DUP7 PUSH2 0x163F JUMP JUMPDEST SWAP2 POP SWAP2 POP DUP2 PUSH1 0x0 SHR DUP2 PUSH1 0x0 SHR DUP1 SWAP1 POP SWAP4 POP SWAP4 POP POP POP SWAP3 POP SWAP3 SWAP1 POP JUMP JUMPDEST PUSH1 0x0 PUSH2 0x138C DUP5 PUSH1 0x0 ADD DUP5 PUSH1 0x0 SHL DUP5 PUSH2 0x16C2 JUMP JUMPDEST PUSH1 0x0 SHR SWAP1 POP SWAP4 SWAP3 POP POP POP JUMP JUMPDEST PUSH1 0x0 PUSH2 0x13A6 DUP3 PUSH1 0x0 ADD PUSH2 0x1753 JUMP JUMPDEST SWAP1 POP SWAP2 SWAP1 POP JUMP JUMPDEST PUSH2 0x13B8 DUP5 DUP5 DUP5 PUSH2 0xF8B JUMP JUMPDEST PUSH2 0x13C4 DUP5 DUP5 DUP5 DUP5 PUSH2 0x1764 JUMP JUMPDEST PUSH2 0x1403 JUMPI PUSH1 0x40 MLOAD PUSH32 0x8C379A000000000000000000000000000000000000000000000000000000000 DUP2 MSTORE PUSH1 0x4 ADD PUSH2 0x13FA SWAP1 PUSH2 0x270E JUMP JUMPDEST PUSH1 0x40 MLOAD DUP1 SWAP2 SUB SWAP1 REVERT JUMPDEST POP POP POP POP JUMP JUMPDEST PUSH1 0x60 PUSH1 0x0 DUP3 EQ ISZERO PUSH2 0x1451 JUMPI PUSH1 0x40 MLOAD DUP1 PUSH1 0x40 ADD PUSH1 0x40 MSTORE DUP1 PUSH1 0x1 DUP2 MSTORE PUSH1 0x20 ADD PUSH32 0x3000000000000000000000000000000000000000000000000000000000000000 DUP2 MSTORE POP SWAP1 POP PUSH2 0x1534 JUMP JUMPDEST PUSH1 0x0 DUP3 SWAP1 POP PUSH1 0x0 JUMPDEST PUSH1 0x0 DUP3 EQ PUSH2 0x147B JUMPI DUP1 DUP1 PUSH1 0x1 ADD SWAP2 POP POP PUSH1 0xA DUP3 DUP2 PUSH2 0x1473 JUMPI INVALID JUMPDEST DIV SWAP2 POP PUSH2 0x1459 JUMP JUMPDEST PUSH1 0x60 DUP2 PUSH1 0x40 MLOAD SWAP1 DUP1 DUP3 MSTORE DUP1 PUSH1 0x1F ADD PUSH1 0x1F NOT AND PUSH1 0x20 ADD DUP3 ADD PUSH1 0x40 MSTORE DUP1 ISZERO PUSH2 0x14B0 JUMPI DUP2 PUSH1 0x20 ADD PUSH1 0x1 DUP3 MUL DUP1 CALLDATASIZE DUP4 CALLDATACOPY DUP1 DUP3 ADD SWAP2 POP POP SWAP1 POP JUMPDEST POP SWAP1 POP PUSH1 0x0 PUSH1 0x1 DUP4 SUB SWAP1 POP DUP6 SWAP4 POP JUMPDEST PUSH1 0x0 DUP5 EQ PUSH2 0x152C JUMPI PUSH1 0xA DUP5 DUP2 PUSH2 0x14D1 JUMPI INVALID JUMPDEST MOD PUSH1 0x30 ADD PUSH1 0xF8 SHL DUP3 DUP3 DUP1 PUSH1 0x1 SWAP1 SUB SWAP4 POP DUP2 MLOAD DUP2 LT PUSH2 0x14EB JUMPI INVALID JUMPDEST PUSH1 0x20 ADD ADD SWAP1 PUSH31 0xFFFFFFFFFFFFFFFFFFFFFFFFFFFFFFFFFFFFFFFFFFFFFFFFFFFFFFFFFFFFFF NOT AND SWAP1 DUP2 PUSH1 0x0 BYTE SWAP1 MSTORE8 POP PUSH1 0xA DUP5 DUP2 PUSH2 0x1524 JUMPI INVALID JUMPDEST DIV SWAP4 POP PUSH2 0x14BF JUMP JUMPDEST DUP2 SWAP5 POP POP POP POP POP JUMPDEST SWAP2 SWAP1 POP JUMP JUMPDEST PUSH1 0x0 PUSH2 0x154B DUP4 PUSH1 0x0 ADD DUP4 PUSH1 0x0 SHL PUSH2 0x1945 JUMP JUMPDEST SWAP1 POP SWAP3 SWAP2 POP POP JUMP JUMPDEST PUSH1 0x0 DUP2 PUSH1 0x0 ADD DUP1 SLOAD SWAP1 POP SWAP1 POP SWAP2 SWAP1 POP JUMP JUMPDEST POP POP POP JUMP JUMPDEST PUSH1 0x0 PUSH2 0x157B DUP4 PUSH1 0x0 ADD DUP4 PUSH1 0x0 SHL PUSH2 0x1968 JUMP JUMPDEST SWAP1 POP SWAP3 SWAP2 POP POP JUMP JUMPDEST PUSH1 0x0 PUSH2 0x1595 DUP4 PUSH1 0x0 ADD DUP4 PUSH1 0x0 SHL PUSH2 0x1A50 JUMP JUMPDEST SWAP1 POP SWAP3 SWAP2 POP POP JUMP JUMPDEST PUSH1 0x0 PUSH2 0x15C9 DUP5 PUSH1 0x0 ADD DUP5 PUSH1 0x0 SHL DUP5 PUSH20 0xFFFFFFFFFFFFFFFFFFFFFFFFFFFFFFFFFFFFFFFF AND PUSH1 0x0 SHL PUSH2 0x1AC0 JUMP JUMPDEST SWAP1 POP SWAP4 SWAP3 POP POP POP JUMP JUMPDEST PUSH1 0x0 DUP2 DUP4 PUSH1 0x0 ADD DUP1 SLOAD SWAP1 POP GT PUSH2 0x161D JUMPI PUSH1 0x40 MLOAD PUSH32 0x8C379A000000000000000000000000000000000000000000000000000000000 DUP2 MSTORE PUSH1 0x4 ADD PUSH2 0x1614 SWAP1 PUSH2 0x26EE JUMP JUMPDEST PUSH1 0x40 MLOAD DUP1 SWAP2 SUB SWAP1 REVERT JUMPDEST DUP3 PUSH1 0x0 ADD DUP3 DUP2 SLOAD DUP2 LT PUSH2 0x162C JUMPI INVALID JUMPDEST SWAP1 PUSH1 0x0 MSTORE PUSH1 0x20 PUSH1 0x0 KECCAK256 ADD SLOAD SWAP1 POP SWAP3 SWAP2 POP POP JUMP JUMPDEST PUSH1 0x0 DUP1 DUP3 DUP5 PUSH1 0x0 ADD DUP1 SLOAD SWAP1 POP GT PUSH2 0x168B JUMPI PUSH1 0x40 MLOAD PUSH32 0x8C379A000000000000000000000000000000000000000000000000000000000 DUP2 MSTORE PUSH1 0x4 ADD PUSH2 0x1682 SWAP1 PUSH2 0x27EE JUMP JUMPDEST PUSH1 0x40 MLOAD DUP1 SWAP2 SUB SWAP1 REVERT JUMPDEST PUSH1 0x0 DUP5 PUSH1 0x0 ADD DUP5 DUP2 SLOAD DUP2 LT PUSH2 0x169C JUMPI INVALID JUMPDEST SWAP1 PUSH1 0x0 MSTORE PUSH1 0x20 PUSH1 0x0 KECCAK256 SWAP1 PUSH1 0x2 MUL ADD SWAP1 POP DUP1 PUSH1 0x0 ADD SLOAD DUP2 PUSH1 0x1 ADD SLOAD SWAP3 POP SWAP3 POP POP SWAP3 POP SWAP3 SWAP1 POP JUMP JUMPDEST PUSH1 0x0 DUP1 DUP5 PUSH1 0x1 ADD PUSH1 0x0 DUP6 DUP2 MSTORE PUSH1 0x20 ADD SWAP1 DUP2 MSTORE PUSH1 0x20 ADD PUSH1 0x0 KECCAK256 SLOAD SWAP1 POP PUSH1 0x0 DUP2 EQ ISZERO DUP4 SWAP1 PUSH2 0x1724 JUMPI PUSH1 0x40 MLOAD PUSH32 0x8C379A000000000000000000000000000000000000000000000000000000000 DUP2 MSTORE PUSH1 0x4 ADD PUSH2 0x171B SWAP2 SWAP1 PUSH2 0x26CC JUMP JUMPDEST PUSH1 0x40 MLOAD DUP1 SWAP2 SUB SWAP1 REVERT JUMPDEST POP DUP5 PUSH1 0x0 ADD PUSH1 0x1 DUP3 SUB DUP2 SLOAD DUP2 LT PUSH2 0x1737 JUMPI INVALID JUMPDEST SWAP1 PUSH1 0x0 MSTORE PUSH1 0x20 PUSH1 0x0 KECCAK256 SWAP1 PUSH1 0x2 MUL ADD PUSH1 0x1 ADD SLOAD SWAP2 POP POP SWAP4 SWAP3 POP POP POP JUMP JUMPDEST PUSH1 0x0 DUP2 PUSH1 0x0 ADD DUP1 SLOAD SWAP1 POP SWAP1 POP SWAP2 SWAP1 POP JUMP JUMPDEST PUSH1 0x0 PUSH2 0x1785 DUP5 PUSH20 0xFFFFFFFFFFFFFFFFFFFFFFFFFFFFFFFFFFFFFFFF AND PUSH2 0x1B9C JUMP JUMPDEST PUSH2 0x1792 JUMPI PUSH1 0x1 SWAP1 POP PUSH2 0x193D JUMP JUMPDEST PUSH1 0x0 PUSH1 0x60 DUP6 PUSH20 0xFFFFFFFFFFFFFFFFFFFFFFFFFFFFFFFFFFFFFFFF AND PUSH4 0x150B7A02 PUSH1 0xE0 SHL PUSH2 0x17BD PUSH2 0xDD7 JUMP JUMPDEST DUP10 DUP9 DUP9 PUSH1 0x40 MLOAD PUSH1 0x24 ADD PUSH2 0x17D3 SWAP5 SWAP4 SWAP3 SWAP2 SWAP1 PUSH2 0x2665 JUMP JUMPDEST PUSH1 0x40 MLOAD PUSH1 0x20 DUP2 DUP4 SUB SUB DUP2 MSTORE SWAP1 PUSH1 0x40 MSTORE SWAP1 PUSH28 0xFFFFFFFFFFFFFFFFFFFFFFFFFFFFFFFFFFFFFFFFFFFFFFFFFFFFFFFF NOT AND PUSH1 0x20 DUP3 ADD DUP1 MLOAD PUSH28 0xFFFFFFFFFFFFFFFFFFFFFFFFFFFFFFFFFFFFFFFFFFFFFFFFFFFFFFFF DUP4 DUP2 DUP4 AND OR DUP4 MSTORE POP POP POP POP PUSH1 0x40 MLOAD PUSH2 0x183D SWAP2 SWAP1 PUSH2 0x260F JUMP JUMPDEST PUSH1 0x0 PUSH1 0x40 MLOAD DUP1 DUP4 SUB DUP2 PUSH1 0x0 DUP7 GAS CALL SWAP2 POP POP RETURNDATASIZE DUP1 PUSH1 0x0 DUP2 EQ PUSH2 0x187A JUMPI PUSH1 0x40 MLOAD SWAP2 POP PUSH1 0x1F NOT PUSH1 0x3F RETURNDATASIZE ADD AND DUP3 ADD PUSH1 0x40 MSTORE RETURNDATASIZE DUP3 MSTORE RETURNDATASIZE PUSH1 0x0 PUSH1 0x20 DUP5 ADD RETURNDATACOPY PUSH2 0x187F JUMP JUMPDEST PUSH1 0x60 SWAP2 POP JUMPDEST POP SWAP2 POP SWAP2 POP DUP2 PUSH2 0x18D7 JUMPI PUSH1 0x0 DUP2 MLOAD GT ISZERO PUSH2 0x189C JUMPI DUP1 MLOAD DUP1 DUP3 PUSH1 0x20 ADD REVERT JUMPDEST PUSH1 0x40 MLOAD PUSH32 0x8C379A000000000000000000000000000000000000000000000000000000000 DUP2 MSTORE PUSH1 0x4 ADD PUSH2 0x18CE SWAP1 PUSH2 0x270E JUMP JUMPDEST PUSH1 0x40 MLOAD DUP1 SWAP2 SUB SWAP1 REVERT JUMPDEST PUSH1 0x0 DUP2 DUP1 PUSH1 0x20 ADD SWAP1 MLOAD DUP2 ADD SWAP1 PUSH2 0x18ED SWAP2 SWAP1 PUSH2 0x1E97 JUMP JUMPDEST SWAP1 POP PUSH4 0x150B7A02 PUSH1 0xE0 SHL PUSH28 0xFFFFFFFFFFFFFFFFFFFFFFFFFFFFFFFFFFFFFFFFFFFFFFFFFFFFFFFF NOT AND DUP2 PUSH28 0xFFFFFFFFFFFFFFFFFFFFFFFFFFFFFFFFFFFFFFFFFFFFFFFFFFFFFFFF NOT AND EQ SWAP4 POP POP POP POP JUMPDEST SWAP5 SWAP4 POP POP POP POP JUMP JUMPDEST PUSH1 0x0 DUP1 DUP4 PUSH1 0x1 ADD PUSH1 0x0 DUP5 DUP2 MSTORE PUSH1 0x20 ADD SWAP1 DUP2 MSTORE PUSH1 0x20 ADD PUSH1 0x0 KECCAK256 SLOAD EQ ISZERO SWAP1 POP SWAP3 SWAP2 POP POP JUMP JUMPDEST PUSH1 0x0 DUP1 DUP4 PUSH1 0x1 ADD PUSH1 0x0 DUP5 DUP2 MSTORE PUSH1 0x20 ADD SWAP1 DUP2 MSTORE PUSH1 0x20 ADD PUSH1 0x0 KECCAK256 SLOAD SWAP1 POP PUSH1 0x0 DUP2 EQ PUSH2 0x1A44 JUMPI PUSH1 0x0 PUSH1 0x1 DUP3 SUB SWAP1 POP PUSH1 0x0 PUSH1 0x1 DUP7 PUSH1 0x0 ADD DUP1 SLOAD SWAP1 POP SUB SWAP1 POP PUSH1 0x0 DUP7 PUSH1 0x0 ADD DUP3 DUP2 SLOAD DUP2 LT PUSH2 0x19B3 JUMPI INVALID JUMPDEST SWAP1 PUSH1 0x0 MSTORE PUSH1 0x20 PUSH1 0x0 KECCAK256 ADD SLOAD SWAP1 POP DUP1 DUP8 PUSH1 0x0 ADD DUP5 DUP2 SLOAD DUP2 LT PUSH2 0x19D0 JUMPI INVALID JUMPDEST SWAP1 PUSH1 0x0 MSTORE PUSH1 0x20 PUSH1 0x0 KECCAK256 ADD DUP2 SWAP1 SSTORE POP PUSH1 0x1 DUP4 ADD DUP8 PUSH1 0x1 ADD PUSH1 0x0 DUP4 DUP2 MSTORE PUSH1 0x20 ADD SWAP1 DUP2 MSTORE PUSH1 0x20 ADD PUSH1 0x0 KECCAK256 DUP2 SWAP1 SSTORE POP DUP7 PUSH1 0x0 ADD DUP1 SLOAD DUP1 PUSH2 0x1A08 JUMPI INVALID JUMPDEST PUSH1 0x1 SWAP1 SUB DUP2 DUP2 SWAP1 PUSH1 0x0 MSTORE PUSH1 0x20 PUSH1 0x0 KECCAK256 ADD PUSH1 0x0 SWAP1 SSTORE SWAP1 SSTORE DUP7 PUSH1 0x1 ADD PUSH1 0x0 DUP8 DUP2 MSTORE PUSH1 0x20 ADD SWAP1 DUP2 MSTORE PUSH1 0x20 ADD PUSH1 0x0 KECCAK256 PUSH1 0x0 SWAP1 SSTORE PUSH1 0x1 SWAP5 POP POP POP POP POP PUSH2 0x1A4A JUMP JUMPDEST PUSH1 0x0 SWAP2 POP POP JUMPDEST SWAP3 SWAP2 POP POP JUMP JUMPDEST PUSH1 0x0 PUSH2 0x1A5C DUP4 DUP4 PUSH2 0x1BE7 JUMP JUMPDEST PUSH2 0x1AB5 JUMPI DUP3 PUSH1 0x0 ADD DUP3 SWAP1 DUP1 PUSH1 0x1 DUP2 SLOAD ADD DUP1 DUP3 SSTORE DUP1 SWAP2 POP POP PUSH1 0x1 SWAP1 SUB SWAP1 PUSH1 0x0 MSTORE PUSH1 0x20 PUSH1 0x0 KECCAK256 ADD PUSH1 0x0 SWAP1 SWAP2 SWAP1 SWAP2 SWAP1 SWAP2 POP SSTORE DUP3 PUSH1 0x0 ADD DUP1 SLOAD SWAP1 POP DUP4 PUSH1 0x1 ADD PUSH1 0x0 DUP5 DUP2 MSTORE PUSH1 0x20 ADD SWAP1 DUP2 MSTORE PUSH1 0x20 ADD PUSH1 0x0 KECCAK256 DUP2 SWAP1 SSTORE POP PUSH1 0x1 SWAP1 POP PUSH2 0x1ABA JUMP JUMPDEST PUSH1 0x0 SWAP1 POP JUMPDEST SWAP3 SWAP2 POP POP JUMP JUMPDEST PUSH1 0x0 DUP1 DUP5 PUSH1 0x1 ADD PUSH1 0x0 DUP6 DUP2 MSTORE PUSH1 0x20 ADD SWAP1 DUP2 MSTORE PUSH1 0x20 ADD PUSH1 0x0 KECCAK256 SLOAD SWAP1 POP PUSH1 0x0 DUP2 EQ ISZERO PUSH2 0x1B67 JUMPI DUP5 PUSH1 0x0 ADD PUSH1 0x40 MLOAD DUP1 PUSH1 0x40 ADD PUSH1 0x40 MSTORE DUP1 DUP7 DUP2 MSTORE PUSH1 0x20 ADD DUP6 DUP2 MSTORE POP SWAP1 DUP1 PUSH1 0x1 DUP2 SLOAD ADD DUP1 DUP3 SSTORE DUP1 SWAP2 POP POP PUSH1 0x1 SWAP1 SUB SWAP1 PUSH1 0x0 MSTORE PUSH1 0x20 PUSH1 0x0 KECCAK256 SWAP1 PUSH1 0x2 MUL ADD PUSH1 0x0 SWAP1 SWAP2 SWAP1 SWAP2 SWAP1 SWAP2 POP PUSH1 0x0 DUP3 ADD MLOAD DUP2 PUSH1 0x0 ADD SSTORE PUSH1 0x20 DUP3 ADD MLOAD DUP2 PUSH1 0x1 ADD SSTORE POP POP DUP5 PUSH1 0x0 ADD DUP1 SLOAD SWAP1 POP DUP6 PUSH1 0x1 ADD PUSH1 0x0 DUP7 DUP2 MSTORE PUSH1 0x20 ADD SWAP1 DUP2 MSTORE PUSH1 0x20 ADD PUSH1 0x0 KECCAK256 DUP2 SWAP1 SSTORE POP PUSH1 0x1 SWAP2 POP POP PUSH2 0x1B95 JUMP JUMPDEST DUP3 DUP6 PUSH1 0x0 ADD PUSH1 0x1 DUP4 SUB DUP2 SLOAD DUP2 LT PUSH2 0x1B7A JUMPI INVALID JUMPDEST SWAP1 PUSH1 0x0 MSTORE PUSH1 0x20 PUSH1 0x0 KECCAK256 SWAP1 PUSH1 0x2 MUL ADD PUSH1 0x1 ADD DUP2 SWAP1 SSTORE POP PUSH1 0x0 SWAP2 POP POP JUMPDEST SWAP4 SWAP3 POP POP POP JUMP JUMPDEST PUSH1 0x0 DUP1 PUSH1 0x0 PUSH32 0xC5D2460186F7233C927E7DB2DCC703C0E500B653CA82273B7BFAD8045D85A470 PUSH1 0x0 SHL SWAP1 POP DUP4 EXTCODEHASH SWAP2 POP DUP1 DUP3 EQ ISZERO DUP1 ISZERO PUSH2 0x1BDE JUMPI POP PUSH1 0x0 DUP1 SHL DUP3 EQ ISZERO JUMPDEST SWAP3 POP POP POP SWAP2 SWAP1 POP JUMP JUMPDEST PUSH1 0x0 DUP1 DUP4 PUSH1 0x1 ADD PUSH1 0x0 DUP5 DUP2 MSTORE PUSH1 0x20 ADD SWAP1 DUP2 MSTORE PUSH1 0x20 ADD PUSH1 0x0 KECCAK256 SLOAD EQ ISZERO SWAP1 POP SWAP3 SWAP2 POP POP JUMP JUMPDEST PUSH1 0x0 DUP2 CALLDATALOAD SWAP1 POP PUSH2 0x1C19 DUP2 PUSH2 0x2A7E JUMP JUMPDEST SWAP3 SWAP2 POP POP JUMP JUMPDEST PUSH1 0x0 DUP2 CALLDATALOAD SWAP1 POP PUSH2 0x1C2E DUP2 PUSH2 0x2A95 JUMP JUMPDEST SWAP3 SWAP2 POP POP JUMP JUMPDEST PUSH1 0x0 DUP2 CALLDATALOAD SWAP1 POP PUSH2 0x1C43 DUP2 PUSH2 0x2AAC JUMP JUMPDEST SWAP3 SWAP2 POP POP JUMP JUMPDEST PUSH1 0x0 DUP2 MLOAD SWAP1 POP PUSH2 0x1C58 DUP2 PUSH2 0x2AAC JUMP JUMPDEST SWAP3 SWAP2 POP POP JUMP JUMPDEST PUSH1 0x0 DUP3 PUSH1 0x1F DUP4 ADD SLT PUSH2 0x1C6F JUMPI PUSH1 0x0 DUP1 REVERT JUMPDEST DUP2 CALLDATALOAD PUSH2 0x1C82 PUSH2 0x1C7D DUP3 PUSH2 0x2916 JUMP JUMPDEST PUSH2 0x28E9 JUMP JUMPDEST SWAP2 POP DUP1 DUP3 MSTORE PUSH1 0x20 DUP4 ADD PUSH1 0x20 DUP4 ADD DUP6 DUP4 DUP4 ADD GT ISZERO PUSH2 0x1C9E JUMPI PUSH1 0x0 DUP1 REVERT JUMPDEST PUSH2 0x1CA9 DUP4 DUP3 DUP5 PUSH2 0x2A2B JUMP JUMPDEST POP POP POP SWAP3 SWAP2 POP POP JUMP JUMPDEST PUSH1 0x0 DUP2 CALLDATALOAD SWAP1 POP PUSH2 0x1CC1 DUP2 PUSH2 0x2AC3 JUMP JUMPDEST SWAP3 SWAP2 POP POP JUMP JUMPDEST PUSH1 0x0 PUSH1 0x20 DUP3 DUP5 SUB SLT ISZERO PUSH2 0x1CD9 JUMPI PUSH1 0x0 DUP1 REVERT JUMPDEST PUSH1 0x0 PUSH2 0x1CE7 DUP5 DUP3 DUP6 ADD PUSH2 0x1C0A JUMP JUMPDEST SWAP2 POP POP SWAP3 SWAP2 POP POP JUMP JUMPDEST PUSH1 0x0 DUP1 PUSH1 0x40 DUP4 DUP6 SUB SLT ISZERO PUSH2 0x1D03 JUMPI PUSH1 0x0 DUP1 REVERT JUMPDEST PUSH1 0x0 PUSH2 0x1D11 DUP6 DUP3 DUP7 ADD PUSH2 0x1C0A JUMP JUMPDEST SWAP3 POP POP PUSH1 0x20 PUSH2 0x1D22 DUP6 DUP3 DUP7 ADD PUSH2 0x1C0A JUMP JUMPDEST SWAP2 POP POP SWAP3 POP SWAP3 SWAP1 POP JUMP JUMPDEST PUSH1 0x0 DUP1 PUSH1 0x0 PUSH1 0x60 DUP5 DUP7 SUB SLT ISZERO PUSH2 0x1D41 JUMPI PUSH1 0x0 DUP1 REVERT JUMPDEST PUSH1 0x0 PUSH2 0x1D4F DUP7 DUP3 DUP8 ADD PUSH2 0x1C0A JUMP JUMPDEST SWAP4 POP POP PUSH1 0x20 PUSH2 0x1D60 DUP7 DUP3 DUP8 ADD PUSH2 0x1C0A JUMP JUMPDEST SWAP3 POP POP PUSH1 0x40 PUSH2 0x1D71 DUP7 DUP3 DUP8 ADD PUSH2 0x1CB2 JUMP JUMPDEST SWAP2 POP POP SWAP3 POP SWAP3 POP SWAP3 JUMP JUMPDEST PUSH1 0x0 DUP1 PUSH1 0x0 DUP1 PUSH1 0x80 DUP6 DUP8 SUB SLT ISZERO PUSH2 0x1D91 JUMPI PUSH1 0x0 DUP1 REVERT JUMPDEST PUSH1 0x0 PUSH2 0x1D9F DUP8 DUP3 DUP9 ADD PUSH2 0x1C0A JUMP JUMPDEST SWAP5 POP POP PUSH1 0x20 PUSH2 0x1DB0 DUP8 DUP3 DUP9 ADD PUSH2 0x1C0A JUMP JUMPDEST SWAP4 POP POP PUSH1 0x40 PUSH2 0x1DC1 DUP8 DUP3 DUP9 ADD PUSH2 0x1CB2 JUMP JUMPDEST SWAP3 POP POP PUSH1 0x60 DUP6 ADD CALLDATALOAD PUSH8 0xFFFFFFFFFFFFFFFF DUP2 GT ISZERO PUSH2 0x1DDE JUMPI PUSH1 0x0 DUP1 REVERT JUMPDEST PUSH2 0x1DEA DUP8 DUP3 DUP9 ADD PUSH2 0x1C5E JUMP JUMPDEST SWAP2 POP POP SWAP3 SWAP6 SWAP2 SWAP5 POP SWAP3 POP JUMP JUMPDEST PUSH1 0x0 DUP1 PUSH1 0x40 DUP4 DUP6 SUB SLT ISZERO PUSH2 0x1E09 JUMPI PUSH1 0x0 DUP1 REVERT JUMPDEST PUSH1 0x0 PUSH2 0x1E17 DUP6 DUP3 DUP7 ADD PUSH2 0x1C0A JUMP JUMPDEST SWAP3 POP POP PUSH1 0x20 PUSH2 0x1E28 DUP6 DUP3 DUP7 ADD PUSH2 0x1C1F JUMP JUMPDEST SWAP2 POP POP SWAP3 POP SWAP3 SWAP1 POP JUMP JUMPDEST PUSH1 0x0 DUP1 PUSH1 0x40 DUP4 DUP6 SUB SLT ISZERO PUSH2 0x1E45 JUMPI PUSH1 0x0 DUP1 REVERT JUMPDEST PUSH1 0x0 PUSH2 0x1E53 DUP6 DUP3 DUP7 ADD PUSH2 0x1C0A JUMP JUMPDEST SWAP3 POP POP PUSH1 0x20 PUSH2 0x1E64 DUP6 DUP3 DUP7 ADD PUSH2 0x1CB2 JUMP JUMPDEST SWAP2 POP POP SWAP3 POP SWAP3 SWAP1 POP JUMP JUMPDEST PUSH1 0x0 PUSH1 0x20 DUP3 DUP5 SUB SLT ISZERO PUSH2 0x1E80 JUMPI PUSH1 0x0 DUP1 REVERT JUMPDEST PUSH1 0x0 PUSH2 0x1E8E DUP5 DUP3 DUP6 ADD PUSH2 0x1C34 JUMP JUMPDEST SWAP2 POP POP SWAP3 SWAP2 POP POP JUMP JUMPDEST PUSH1 0x0 PUSH1 0x20 DUP3 DUP5 SUB SLT ISZERO PUSH2 0x1EA9 JUMPI PUSH1 0x0 DUP1 REVERT JUMPDEST PUSH1 0x0 PUSH2 0x1EB7 DUP5 DUP3 DUP6 ADD PUSH2 0x1C49 JUMP JUMPDEST SWAP2 POP POP SWAP3 SWAP2 POP POP JUMP JUMPDEST PUSH1 0x0 PUSH1 0x20 DUP3 DUP5 SUB SLT ISZERO PUSH2 0x1ED2 JUMPI PUSH1 0x0 DUP1 REVERT JUMPDEST PUSH1 0x0 PUSH2 0x1EE0 DUP5 DUP3 DUP6 ADD PUSH2 0x1CB2 JUMP JUMPDEST SWAP2 POP POP SWAP3 SWAP2 POP POP JUMP JUMPDEST PUSH2 0x1EF2 DUP2 PUSH2 0x29B7 JUMP JUMPDEST DUP3 MSTORE POP POP JUMP JUMPDEST PUSH2 0x1F01 DUP2 PUSH2 0x29A5 JUMP JUMPDEST DUP3 MSTORE POP POP JUMP JUMPDEST PUSH2 0x1F10 DUP2 PUSH2 0x29C9 JUMP JUMPDEST DUP3 MSTORE POP POP JUMP JUMPDEST PUSH1 0x0 PUSH2 0x1F21 DUP3 PUSH2 0x2957 JUMP JUMPDEST PUSH2 0x1F2B DUP2 DUP6 PUSH2 0x296D JUMP JUMPDEST SWAP4 POP PUSH2 0x1F3B DUP2 DUP6 PUSH1 0x20 DUP7 ADD PUSH2 0x2A3A JUMP JUMPDEST PUSH2 0x1F44 DUP2 PUSH2 0x2A6D JUMP JUMPDEST DUP5 ADD SWAP2 POP POP SWAP3 SWAP2 POP POP JUMP JUMPDEST PUSH1 0x0 PUSH2 0x1F5A DUP3 PUSH2 0x2957 JUMP JUMPDEST PUSH2 0x1F64 DUP2 DUP6 PUSH2 0x297E JUMP JUMPDEST SWAP4 POP PUSH2 0x1F74 DUP2 DUP6 PUSH1 0x20 DUP7 ADD PUSH2 0x2A3A JUMP JUMPDEST DUP1 DUP5 ADD SWAP2 POP POP SWAP3 SWAP2 POP POP JUMP JUMPDEST PUSH1 0x0 PUSH2 0x1F8B DUP3 PUSH2 0x2962 JUMP JUMPDEST PUSH2 0x1F95 DUP2 DUP6 PUSH2 0x2989 JUMP JUMPDEST SWAP4 POP PUSH2 0x1FA5 DUP2 DUP6 PUSH1 0x20 DUP7 ADD PUSH2 0x2A3A JUMP JUMPDEST PUSH2 0x1FAE DUP2 PUSH2 0x2A6D JUMP JUMPDEST DUP5 ADD SWAP2 POP POP SWAP3 SWAP2 POP POP JUMP JUMPDEST PUSH1 0x0 PUSH2 0x1FC4 DUP3 PUSH2 0x2962 JUMP JUMPDEST PUSH2 0x1FCE DUP2 DUP6 PUSH2 0x299A JUMP JUMPDEST SWAP4 POP PUSH2 0x1FDE DUP2 DUP6 PUSH1 0x20 DUP7 ADD PUSH2 0x2A3A JUMP JUMPDEST DUP1 DUP5 ADD SWAP2 POP POP SWAP3 SWAP2 POP POP JUMP JUMPDEST PUSH1 0x0 DUP2 SLOAD PUSH1 0x1 DUP2 AND PUSH1 0x0 DUP2 EQ PUSH2 0x2007 JUMPI PUSH1 0x1 DUP2 EQ PUSH2 0x202C JUMPI PUSH2 0x2070 JUMP JUMPDEST PUSH1 0x7F PUSH1 0x2 DUP4 DIV AND PUSH2 0x2018 DUP2 DUP8 PUSH2 0x299A JUMP JUMPDEST SWAP6 POP PUSH1 0xFF NOT DUP4 AND DUP7 MSTORE DUP1 DUP7 ADD SWAP4 POP POP PUSH2 0x2070 JUMP JUMPDEST PUSH1 0x2 DUP3 DIV PUSH2 0x203A DUP2 DUP8 PUSH2 0x299A JUMP JUMPDEST SWAP6 POP PUSH2 0x2045 DUP6 PUSH2 0x2942 JUMP JUMPDEST PUSH1 0x0 JUMPDEST DUP3 DUP2 LT ISZERO PUSH2 0x2067 JUMPI DUP2 SLOAD DUP2 DUP10 ADD MSTORE PUSH1 0x1 DUP3 ADD SWAP2 POP PUSH1 0x20 DUP2 ADD SWAP1 POP PUSH2 0x2048 JUMP JUMPDEST DUP3 DUP9 ADD SWAP6 POP POP POP POP JUMPDEST POP POP SWAP3 SWAP2 POP POP JUMP JUMPDEST PUSH1 0x0 PUSH2 0x2085 PUSH1 0x22 DUP4 PUSH2 0x2989 JUMP JUMPDEST SWAP2 POP PUSH32 0x456E756D657261626C655365743A20696E646578206F7574206F6620626F756E PUSH1 0x0 DUP4 ADD MSTORE PUSH32 0x6473000000000000000000000000000000000000000000000000000000000000 PUSH1 0x20 DUP4 ADD MSTORE PUSH1 0x40 DUP3 ADD SWAP1 POP SWAP2 SWAP1 POP JUMP JUMPDEST PUSH1 0x0 PUSH2 0x20EB PUSH1 0x32 DUP4 PUSH2 0x2989 JUMP JUMPDEST SWAP2 POP PUSH32 0x4552433732313A207472616E7366657220746F206E6F6E204552433732315265 PUSH1 0x0 DUP4 ADD MSTORE PUSH32 0x63656976657220696D706C656D656E7465720000000000000000000000000000 PUSH1 0x20 DUP4 ADD MSTORE PUSH1 0x40 DUP3 ADD SWAP1 POP SWAP2 SWAP1 POP JUMP JUMPDEST PUSH1 0x0 PUSH2 0x2151 PUSH1 0x1C DUP4 PUSH2 0x2989 JUMP JUMPDEST SWAP2 POP PUSH32 0x4552433732313A20746F6B656E20616C7265616479206D696E74656400000000 PUSH1 0x0 DUP4 ADD MSTORE PUSH1 0x20 DUP3 ADD SWAP1 POP SWAP2 SWAP1 POP JUMP JUMPDEST PUSH1 0x0 PUSH2 0x2191 PUSH1 0x24 DUP4 PUSH2 0x2989 JUMP JUMPDEST SWAP2 POP PUSH32 0x4552433732313A207472616E7366657220746F20746865207A65726F20616464 PUSH1 0x0 DUP4 ADD MSTORE PUSH32 0x7265737300000000000000000000000000000000000000000000000000000000 PUSH1 0x20 DUP4 ADD MSTORE PUSH1 0x40 DUP3 ADD SWAP1 POP SWAP2 SWAP1 POP JUMP JUMPDEST PUSH1 0x0 PUSH2 0x21F7 PUSH1 0x19 DUP4 PUSH2 0x2989 JUMP JUMPDEST SWAP2 POP PUSH32 0x4552433732313A20617070726F766520746F2063616C6C657200000000000000 PUSH1 0x0 DUP4 ADD MSTORE PUSH1 0x20 DUP3 ADD SWAP1 POP SWAP2 SWAP1 POP JUMP JUMPDEST PUSH1 0x0 PUSH2 0x2237 PUSH1 0x2C DUP4 PUSH2 0x2989 JUMP JUMPDEST SWAP2 POP PUSH32 0x4552433732313A206F70657261746F7220717565727920666F72206E6F6E6578 PUSH1 0x0 DUP4 ADD MSTORE PUSH32 0x697374656E7420746F6B656E0000000000000000000000000000000000000000 PUSH1 0x20 DUP4 ADD MSTORE PUSH1 0x40 DUP3 ADD SWAP1 POP SWAP2 SWAP1 POP JUMP JUMPDEST PUSH1 0x0 PUSH2 0x229D PUSH1 0x38 DUP4 PUSH2 0x2989 JUMP JUMPDEST SWAP2 POP PUSH32 0x4552433732313A20617070726F76652063616C6C6572206973206E6F74206F77 PUSH1 0x0 DUP4 ADD MSTORE PUSH32 0x6E6572206E6F7220617070726F76656420666F7220616C6C0000000000000000 PUSH1 0x20 DUP4 ADD MSTORE PUSH1 0x40 DUP3 ADD SWAP1 POP SWAP2 SWAP1 POP JUMP JUMPDEST PUSH1 0x0 PUSH2 0x2303 PUSH1 0x2A DUP4 PUSH2 0x2989 JUMP JUMPDEST SWAP2 POP PUSH32 0x4552433732313A2062616C616E636520717565727920666F7220746865207A65 PUSH1 0x0 DUP4 ADD MSTORE PUSH32 0x726F206164647265737300000000000000000000000000000000000000000000 PUSH1 0x20 DUP4 ADD MSTORE PUSH1 0x40 DUP3 ADD SWAP1 POP SWAP2 SWAP1 POP JUMP JUMPDEST PUSH1 0x0 PUSH2 0x2369 PUSH1 0x22 DUP4 PUSH2 0x2989 JUMP JUMPDEST SWAP2 POP PUSH32 0x456E756D657261626C654D61703A20696E646578206F7574206F6620626F756E PUSH1 0x0 DUP4 ADD MSTORE PUSH32 0x6473000000000000000000000000000000000000000000000000000000000000 PUSH1 0x20 DUP4 ADD MSTORE PUSH1 0x40 DUP3 ADD SWAP1 POP SWAP2 SWAP1 POP JUMP JUMPDEST PUSH1 0x0 PUSH2 0x23CF PUSH1 0x20 DUP4 PUSH2 0x2989 JUMP JUMPDEST SWAP2 POP PUSH32 0x4552433732313A206D696E7420746F20746865207A65726F2061646472657373 PUSH1 0x0 DUP4 ADD MSTORE PUSH1 0x20 DUP3 ADD SWAP1 POP SWAP2 SWAP1 POP JUMP JUMPDEST PUSH1 0x0 PUSH2 0x240F PUSH1 0x2C DUP4 PUSH2 0x2989 JUMP JUMPDEST SWAP2 POP PUSH32 0x4552433732313A20617070726F76656420717565727920666F72206E6F6E6578 PUSH1 0x0 DUP4 ADD MSTORE PUSH32 0x697374656E7420746F6B656E0000000000000000000000000000000000000000 PUSH1 0x20 DUP4 ADD MSTORE PUSH1 0x40 DUP3 ADD SWAP1 POP SWAP2 SWAP1 POP JUMP JUMPDEST PUSH1 0x0 PUSH2 0x2475 PUSH1 0x29 DUP4 PUSH2 0x2989 JUMP JUMPDEST SWAP2 POP PUSH32 0x4552433732313A207472616E73666572206F6620746F6B656E20746861742069 PUSH1 0x0 DUP4 ADD MSTORE PUSH32 0x73206E6F74206F776E0000000000000000000000000000000000000000000000 PUSH1 0x20 DUP4 ADD MSTORE PUSH1 0x40 DUP3 ADD SWAP1 POP SWAP2 SWAP1 POP JUMP JUMPDEST PUSH1 0x0 PUSH2 0x24DB PUSH1 0x2F DUP4 PUSH2 0x2989 JUMP JUMPDEST SWAP2 POP PUSH32 0x4552433732314D657461646174613A2055524920717565727920666F72206E6F PUSH1 0x0 DUP4 ADD MSTORE PUSH32 0x6E6578697374656E7420746F6B656E0000000000000000000000000000000000 PUSH1 0x20 DUP4 ADD MSTORE PUSH1 0x40 DUP3 ADD SWAP1 POP SWAP2 SWAP1 POP JUMP JUMPDEST PUSH1 0x0 PUSH2 0x2541 PUSH1 0x21 DUP4 PUSH2 0x2989 JUMP JUMPDEST SWAP2 POP PUSH32 0x4552433732313A20617070726F76616C20746F2063757272656E74206F776E65 PUSH1 0x0 DUP4 ADD MSTORE PUSH32 0x7200000000000000000000000000000000000000000000000000000000000000 PUSH1 0x20 DUP4 ADD MSTORE PUSH1 0x40 DUP3 ADD SWAP1 POP SWAP2 SWAP1 POP JUMP JUMPDEST PUSH1 0x0 PUSH2 0x25A7 PUSH1 0x31 DUP4 PUSH2 0x2989 JUMP JUMPDEST SWAP2 POP PUSH32 0x4552433732313A207472616E736665722063616C6C6572206973206E6F74206F PUSH1 0x0 DUP4 ADD MSTORE PUSH32 0x776E6572206E6F7220617070726F766564000000000000000000000000000000 PUSH1 0x20 DUP4 ADD MSTORE PUSH1 0x40 DUP3 ADD SWAP1 POP SWAP2 SWAP1 POP JUMP JUMPDEST PUSH2 0x2609 DUP2 PUSH2 0x2A21 JUMP JUMPDEST DUP3 MSTORE POP POP JUMP JUMPDEST PUSH1 0x0 PUSH2 0x261B DUP3 DUP5 PUSH2 0x1F4F JUMP JUMPDEST SWAP2 POP DUP2 SWAP1 POP SWAP3 SWAP2 POP POP JUMP JUMPDEST PUSH1 0x0 PUSH2 0x2632 DUP3 DUP6 PUSH2 0x1FEA JUMP JUMPDEST SWAP2 POP PUSH2 0x263E DUP3 DUP5 PUSH2 0x1FB9 JUMP JUMPDEST SWAP2 POP DUP2 SWAP1 POP SWAP4 SWAP3 POP POP POP JUMP JUMPDEST PUSH1 0x0 PUSH1 0x20 DUP3 ADD SWAP1 POP PUSH2 0x265F PUSH1 0x0 DUP4 ADD DUP5 PUSH2 0x1EF8 JUMP JUMPDEST SWAP3 SWAP2 POP POP JUMP JUMPDEST PUSH1 0x0 PUSH1 0x80 DUP3 ADD SWAP1 POP PUSH2 0x267A PUSH1 0x0 DUP4 ADD DUP8 PUSH2 0x1EE9 JUMP JUMPDEST PUSH2 0x2687 PUSH1 0x20 DUP4 ADD DUP7 PUSH2 0x1EF8 JUMP JUMPDEST PUSH2 0x2694 PUSH1 0x40 DUP4 ADD DUP6 PUSH2 0x2600 JUMP JUMPDEST DUP2 DUP2 SUB PUSH1 0x60 DUP4 ADD MSTORE PUSH2 0x26A6 DUP2 DUP5 PUSH2 0x1F16 JUMP JUMPDEST SWAP1 POP SWAP6 SWAP5 POP POP POP POP POP JUMP JUMPDEST PUSH1 0x0 PUSH1 0x20 DUP3 ADD SWAP1 POP PUSH2 0x26C6 PUSH1 0x0 DUP4 ADD DUP5 PUSH2 0x1F07 JUMP JUMPDEST SWAP3 SWAP2 POP POP JUMP JUMPDEST PUSH1 0x0 PUSH1 0x20 DUP3 ADD SWAP1 POP DUP2 DUP2 SUB PUSH1 0x0 DUP4 ADD MSTORE PUSH2 0x26E6 DUP2 DUP5 PUSH2 0x1F80 JUMP JUMPDEST SWAP1 POP SWAP3 SWAP2 POP POP JUMP JUMPDEST PUSH1 0x0 PUSH1 0x20 DUP3 ADD SWAP1 POP DUP2 DUP2 SUB PUSH1 0x0 DUP4 ADD MSTORE PUSH2 0x2707 DUP2 PUSH2 0x2078 JUMP JUMPDEST SWAP1 POP SWAP2 SWAP1 POP JUMP JUMPDEST PUSH1 0x0 PUSH1 0x20 DUP3 ADD SWAP1 POP DUP2 DUP2 SUB PUSH1 0x0 DUP4 ADD MSTORE PUSH2 0x2727 DUP2 PUSH2 0x20DE JUMP JUMPDEST SWAP1 POP SWAP2 SWAP1 POP JUMP JUMPDEST PUSH1 0x0 PUSH1 0x20 DUP3 ADD SWAP1 POP DUP2 DUP2 SUB PUSH1 0x0 DUP4 ADD MSTORE PUSH2 0x2747 DUP2 PUSH2 0x2144 JUMP JUMPDEST SWAP1 POP SWAP2 SWAP1 POP JUMP JUMPDEST PUSH1 0x0 PUSH1 0x20 DUP3 ADD SWAP1 POP DUP2 DUP2 SUB PUSH1 0x0 DUP4 ADD MSTORE PUSH2 0x2767 DUP2 PUSH2 0x2184 JUMP JUMPDEST SWAP1 POP SWAP2 SWAP1 POP JUMP JUMPDEST PUSH1 0x0 PUSH1 0x20 DUP3 ADD SWAP1 POP DUP2 DUP2 SUB PUSH1 0x0 DUP4 ADD MSTORE PUSH2 0x2787 DUP2 PUSH2 0x21EA JUMP JUMPDEST SWAP1 POP SWAP2 SWAP1 POP JUMP JUMPDEST PUSH1 0x0 PUSH1 0x20 DUP3 ADD SWAP1 POP DUP2 DUP2 SUB PUSH1 0x0 DUP4 ADD MSTORE PUSH2 0x27A7 DUP2 PUSH2 0x222A JUMP JUMPDEST SWAP1 POP SWAP2 SWAP1 POP JUMP JUMPDEST PUSH1 0x0 PUSH1 0x20 DUP3 ADD SWAP1 POP DUP2 DUP2 SUB PUSH1 0x0 DUP4 ADD MSTORE PUSH2 0x27C7 DUP2 PUSH2 0x2290 JUMP JUMPDEST SWAP1 POP SWAP2 SWAP1 POP JUMP JUMPDEST PUSH1 0x0 PUSH1 0x20 DUP3 ADD SWAP1 POP DUP2 DUP2 SUB PUSH1 0x0 DUP4 ADD MSTORE PUSH2 0x27E7 DUP2 PUSH2 0x22F6 JUMP JUMPDEST SWAP1 POP SWAP2 SWAP1 POP JUMP JUMPDEST PUSH1 0x0 PUSH1 0x20 DUP3 ADD SWAP1 POP DUP2 DUP2 SUB PUSH1 0x0 DUP4 ADD MSTORE PUSH2 0x2807 DUP2 PUSH2 0x235C JUMP JUMPDEST SWAP1 POP SWAP2 SWAP1 POP JUMP JUMPDEST PUSH1 0x0 PUSH1 0x20 DUP3 ADD SWAP1 POP DUP2 DUP2 SUB PUSH1 0x0 DUP4 ADD MSTORE PUSH2 0x2827 DUP2 PUSH2 0x23C2 JUMP JUMPDEST SWAP1 POP SWAP2 SWAP1 POP JUMP JUMPDEST PUSH1 0x0 PUSH1 0x20 DUP3 ADD SWAP1 POP DUP2 DUP2 SUB PUSH1 0x0 DUP4 ADD MSTORE PUSH2 0x2847 DUP2 PUSH2 0x2402 JUMP JUMPDEST SWAP1 POP SWAP2 SWAP1 POP JUMP JUMPDEST PUSH1 0x0 PUSH1 0x20 DUP3 ADD SWAP1 POP DUP2 DUP2 SUB PUSH1 0x0 DUP4 ADD MSTORE PUSH2 0x2867 DUP2 PUSH2 0x2468 JUMP JUMPDEST SWAP1 POP SWAP2 SWAP1 POP JUMP JUMPDEST PUSH1 0x0 PUSH1 0x20 DUP3 ADD SWAP1 POP DUP2 DUP2 SUB PUSH1 0x0 DUP4 ADD MSTORE PUSH2 0x2887 DUP2 PUSH2 0x24CE JUMP JUMPDEST SWAP1 POP SWAP2 SWAP1 POP JUMP JUMPDEST PUSH1 0x0 PUSH1 0x20 DUP3 ADD SWAP1 POP DUP2 DUP2 SUB PUSH1 0x0 DUP4 ADD MSTORE PUSH2 0x28A7 DUP2 PUSH2 0x2534 JUMP JUMPDEST SWAP1 POP SWAP2 SWAP1 POP JUMP JUMPDEST PUSH1 0x0 PUSH1 0x20 DUP3 ADD SWAP1 POP DUP2 DUP2 SUB PUSH1 0x0 DUP4 ADD MSTORE PUSH2 0x28C7 DUP2 PUSH2 0x259A JUMP JUMPDEST SWAP1 POP SWAP2 SWAP1 POP JUMP JUMPDEST PUSH1 0x0 PUSH1 0x20 DUP3 ADD SWAP1 POP PUSH2 0x28E3 PUSH1 0x0 DUP4 ADD DUP5 PUSH2 0x2600 JUMP JUMPDEST SWAP3 SWAP2 POP POP JUMP JUMPDEST PUSH1 0x0 PUSH1 0x40 MLOAD SWAP1 POP DUP2 DUP2 ADD DUP2 DUP2 LT PUSH8 0xFFFFFFFFFFFFFFFF DUP3 GT OR ISZERO PUSH2 0x290C JUMPI PUSH1 0x0 DUP1 REVERT JUMPDEST DUP1 PUSH1 0x40 MSTORE POP SWAP2 SWAP1 POP JUMP JUMPDEST PUSH1 0x0 PUSH8 0xFFFFFFFFFFFFFFFF DUP3 GT ISZERO PUSH2 0x292D JUMPI PUSH1 0x0 DUP1 REVERT JUMPDEST PUSH1 0x1F NOT PUSH1 0x1F DUP4 ADD AND SWAP1 POP PUSH1 0x20 DUP2 ADD SWAP1 POP SWAP2 SWAP1 POP JUMP JUMPDEST PUSH1 0x0 DUP2 SWAP1 POP DUP2 PUSH1 0x0 MSTORE PUSH1 0x20 PUSH1 0x0 KECCAK256 SWAP1 POP SWAP2 SWAP1 POP JUMP JUMPDEST PUSH1 0x0 DUP2 MLOAD SWAP1 POP SWAP2 SWAP1 POP JUMP JUMPDEST PUSH1 0x0 DUP2 MLOAD SWAP1 POP SWAP2 SWAP1 POP JUMP JUMPDEST PUSH1 0x0 DUP3 DUP3 MSTORE PUSH1 0x20 DUP3 ADD SWAP1 POP SWAP3 SWAP2 POP POP JUMP JUMPDEST PUSH1 0x0 DUP2 SWAP1 POP SWAP3 SWAP2 POP POP JUMP JUMPDEST PUSH1 0x0 DUP3 DUP3 MSTORE PUSH1 0x20 DUP3 ADD SWAP1 POP SWAP3 SWAP2 POP POP JUMP JUMPDEST PUSH1 0x0 DUP2 SWAP1 POP SWAP3 SWAP2 POP POP JUMP JUMPDEST PUSH1 0x0 PUSH2 0x29B0 DUP3 PUSH2 0x2A01 JUMP JUMPDEST SWAP1 POP SWAP2 SWAP1 POP JUMP JUMPDEST PUSH1 0x0 PUSH2 0x29C2 DUP3 PUSH2 0x2A01 JUMP JUMPDEST SWAP1 POP SWAP2 SWAP1 POP JUMP JUMPDEST PUSH1 0x0 DUP2 ISZERO ISZERO SWAP1 POP SWAP2 SWAP1 POP JUMP JUMPDEST PUSH1 0x0 PUSH32 0xFFFFFFFF00000000000000000000000000000000000000000000000000000000 DUP3 AND SWAP1 POP SWAP2 SWAP1 POP JUMP JUMPDEST PUSH1 0x0 PUSH20 0xFFFFFFFFFFFFFFFFFFFFFFFFFFFFFFFFFFFFFFFF DUP3 AND SWAP1 POP SWAP2 SWAP1 POP JUMP JUMPDEST PUSH1 0x0 DUP2 SWAP1 POP SWAP2 SWAP1 POP JUMP JUMPDEST DUP3 DUP2 DUP4 CALLDATACOPY PUSH1 0x0 DUP4 DUP4 ADD MSTORE POP POP POP JUMP JUMPDEST PUSH1 0x0 JUMPDEST DUP4 DUP2 LT ISZERO PUSH2 0x2A58 JUMPI DUP1 DUP3 ADD MLOAD DUP2 DUP5 ADD MSTORE PUSH1 0x20 DUP2 ADD SWAP1 POP PUSH2 0x2A3D JUMP JUMPDEST DUP4 DUP2 GT ISZERO PUSH2 0x2A67 JUMPI PUSH1 0x0 DUP5 DUP5 ADD MSTORE JUMPDEST POP POP POP POP JUMP JUMPDEST PUSH1 0x0 PUSH1 0x1F NOT PUSH1 0x1F DUP4 ADD AND SWAP1 POP SWAP2 SWAP1 POP JUMP JUMPDEST PUSH2 0x2A87 DUP2 PUSH2 0x29A5 JUMP JUMPDEST DUP2 EQ PUSH2 0x2A92 JUMPI PUSH1 0x0 DUP1 REVERT JUMPDEST POP JUMP JUMPDEST PUSH2 0x2A9E DUP2 PUSH2 0x29C9 JUMP JUMPDEST DUP2 EQ PUSH2 0x2AA9 JUMPI PUSH1 0x0 DUP1 REVERT JUMPDEST POP JUMP JUMPDEST PUSH2 0x2AB5 DUP2 PUSH2 0x29D5 JUMP JUMPDEST DUP2 EQ PUSH2 0x2AC0 JUMPI PUSH1 0x0 DUP1 REVERT JUMPDEST POP JUMP JUMPDEST PUSH2 0x2ACC DUP2 PUSH2 0x2A21 JUMP JUMPDEST DUP2 EQ PUSH2 0x2AD7 JUMPI PUSH1 0x0 DUP1 REVERT JUMPDEST POP JUMP INVALID GASLIMIT MSTORE NUMBER CALLDATACOPY ORIGIN BALANCE GASPRICE KECCAK256 PUSH16 0x776E657220717565727920666F72206E PUSH16 0x6E6578697374656E7420746F6B656EA2 PUSH5 0x6970667358 0x22 SLT KECCAK256 PUSH12 0x6B49F5FFC3CCFC7312534851 PUSH21 0x729C6CA3CCA5EDD824DFCCEB0C15F0F84E1364736F PUSH13 0x63430006040033000000000000 "
				},
				"gasEstimates": {
					"creation": {
						"codeDepositCost": "2213000",
						"executionCost": "infinite",
						"totalCost": "infinite"
					},
					"external": {
						"approve(address,uint256)": "infinite",
						"balanceOf(address)": "1774",
						"baseURI()": "infinite",
						"getApproved(uint256)": "infinite",
						"isApprovedForAll(address,address)": "infinite",
						"mint(address,uint256)": "infinite",
						"name()": "infinite",
						"ownerOf(uint256)": "infinite",
						"safeTransferFrom(address,address,uint256)": "infinite",
						"safeTransferFrom(address,address,uint256,bytes)": "infinite",
						"setApprovalForAll(address,bool)": "infinite",
						"supportsInterface(bytes4)": "1570",
						"symbol()": "infinite",
						"tokenByIndex(uint256)": "infinite",
						"tokenOfOwnerByIndex(address,uint256)": "infinite",
						"tokenURI(uint256)": "infinite",
						"totalSupply()": "1266",
						"transferFrom(address,address,uint256)": "infinite"
					}
				},
				"methodIdentifiers": {
					"approve(address,uint256)": "095ea7b3",
					"balanceOf(address)": "70a08231",
					"baseURI()": "6c0360eb",
					"getApproved(uint256)": "081812fc",
					"isApprovedForAll(address,address)": "e985e9c5",
					"mint(address,uint256)": "40c10f19",
					"name()": "06fdde03",
					"ownerOf(uint256)": "6352211e",
					"safeTransferFrom(address,address,uint256)": "42842e0e",
					"safeTransferFrom(address,address,uint256,bytes)": "b88d4fde",
					"setApprovalForAll(address,bool)": "a22cb465",
					"supportsInterface(bytes4)": "01ffc9a7",
					"symbol()": "95d89b41",
					"tokenByIndex(uint256)": "4f6ccce7",
					"tokenOfOwnerByIndex(address,uint256)": "2f745c59",
					"tokenURI(uint256)": "c87b56dd",
					"totalSupply()": "18160ddd",
					"transferFrom(address,address,uint256)": "23b872dd"
				}
			},
			"storageLayout": {
				"storage": [
					{
						"astId": 72,
						"contract": "contracts/MonkeyNft.sol:MonkeyNft",
						"label": "_supportedInterfaces",
						"offset": 0,
						"slot": "0",
						"type": "t_mapping(t_bytes4,t_bool)"
					},
					{
						"astId": 369,
						"contract": "contracts/MonkeyNft.sol:MonkeyNft",
						"label": "_holderTokens",
						"offset": 0,
						"slot": "1",
						"type": "t_mapping(t_address,t_struct(UintSet)2282_storage)"
					},
					{
						"astId": 371,
						"contract": "contracts/MonkeyNft.sol:MonkeyNft",
						"label": "_tokenOwners",
						"offset": 0,
						"slot": "2",
						"type": "t_struct(UintToAddressMap)1807_storage"
					},
					{
						"astId": 375,
						"contract": "contracts/MonkeyNft.sol:MonkeyNft",
						"label": "_tokenApprovals",
						"offset": 0,
						"slot": "4",
						"type": "t_mapping(t_uint256,t_address)"
					},
					{
						"astId": 381,
						"contract": "contracts/MonkeyNft.sol:MonkeyNft",
						"label": "_operatorApprovals",
						"offset": 0,
						"slot": "5",
						"type": "t_mapping(t_address,t_mapping(t_address,t_bool))"
					},
					{
						"astId": 383,
						"contract": "contracts/MonkeyNft.sol:MonkeyNft",
						"label": "_name",
						"offset": 0,
						"slot": "6",
						"type": "t_string_storage"
					},
					{
						"astId": 385,
						"contract": "contracts/MonkeyNft.sol:MonkeyNft",
						"label": "_symbol",
						"offset": 0,
						"slot": "7",
						"type": "t_string_storage"
					},
					{
						"astId": 389,
						"contract": "contracts/MonkeyNft.sol:MonkeyNft",
						"label": "_tokenURIs",
						"offset": 0,
						"slot": "8",
						"type": "t_mapping(t_uint256,t_string_storage)"
					},
					{
						"astId": 391,
						"contract": "contracts/MonkeyNft.sol:MonkeyNft",
						"label": "_baseURI",
						"offset": 0,
						"slot": "9",
						"type": "t_string_storage"
					}
				],
				"types": {
					"t_address": {
						"encoding": "inplace",
						"label": "address",
						"numberOfBytes": "20"
					},
					"t_array(t_bytes32)dyn_storage": {
						"base": "t_bytes32",
						"encoding": "dynamic_array",
						"label": "bytes32[]",
						"numberOfBytes": "32"
					},
					"t_array(t_struct(MapEntry)1535_storage)dyn_storage": {
						"base": "t_struct(MapEntry)1535_storage",
						"encoding": "dynamic_array",
						"label": "struct EnumerableMap.MapEntry[]",
						"numberOfBytes": "32"
					},
					"t_bool": {
						"encoding": "inplace",
						"label": "bool",
						"numberOfBytes": "1"
					},
					"t_bytes32": {
						"encoding": "inplace",
						"label": "bytes32",
						"numberOfBytes": "32"
					},
					"t_bytes4": {
						"encoding": "inplace",
						"label": "bytes4",
						"numberOfBytes": "4"
					},
					"t_mapping(t_address,t_bool)": {
						"encoding": "mapping",
						"key": "t_address",
						"label": "mapping(address => bool)",
						"numberOfBytes": "32",
						"value": "t_bool"
					},
					"t_mapping(t_address,t_mapping(t_address,t_bool))": {
						"encoding": "mapping",
						"key": "t_address",
						"label": "mapping(address => mapping(address => bool))",
						"numberOfBytes": "32",
						"value": "t_mapping(t_address,t_bool)"
					},
					"t_mapping(t_address,t_struct(UintSet)2282_storage)": {
						"encoding": "mapping",
						"key": "t_address",
						"label": "mapping(address => struct EnumerableSet.UintSet)",
						"numberOfBytes": "32",
						"value": "t_struct(UintSet)2282_storage"
					},
					"t_mapping(t_bytes32,t_uint256)": {
						"encoding": "mapping",
						"key": "t_bytes32",
						"label": "mapping(bytes32 => uint256)",
						"numberOfBytes": "32",
						"value": "t_uint256"
					},
					"t_mapping(t_bytes4,t_bool)": {
						"encoding": "mapping",
						"key": "t_bytes4",
						"label": "mapping(bytes4 => bool)",
						"numberOfBytes": "32",
						"value": "t_bool"
					},
					"t_mapping(t_uint256,t_address)": {
						"encoding": "mapping",
						"key": "t_uint256",
						"label": "mapping(uint256 => address)",
						"numberOfBytes": "32",
						"value": "t_address"
					},
					"t_mapping(t_uint256,t_string_storage)": {
						"encoding": "mapping",
						"key": "t_uint256",
						"label": "mapping(uint256 => string)",
						"numberOfBytes": "32",
						"value": "t_string_storage"
					},
					"t_string_storage": {
						"encoding": "bytes",
						"label": "string",
						"numberOfBytes": "32"
					},
					"t_struct(Map)1543_storage": {
						"encoding": "inplace",
						"label": "struct EnumerableMap.Map",
						"members": [
							{
								"astId": 1538,
								"contract": "contracts/MonkeyNft.sol:MonkeyNft",
								"label": "_entries",
								"offset": 0,
								"slot": "0",
								"type": "t_array(t_struct(MapEntry)1535_storage)dyn_storage"
							},
							{
								"astId": 1542,
								"contract": "contracts/MonkeyNft.sol:MonkeyNft",
								"label": "_indexes",
								"offset": 0,
								"slot": "1",
								"type": "t_mapping(t_bytes32,t_uint256)"
							}
						],
						"numberOfBytes": "64"
					},
					"t_struct(MapEntry)1535_storage": {
						"encoding": "inplace",
						"label": "struct EnumerableMap.MapEntry",
						"members": [
							{
								"astId": 1532,
								"contract": "contracts/MonkeyNft.sol:MonkeyNft",
								"label": "_key",
								"offset": 0,
								"slot": "0",
								"type": "t_bytes32"
							},
							{
								"astId": 1534,
								"contract": "contracts/MonkeyNft.sol:MonkeyNft",
								"label": "_value",
								"offset": 0,
								"slot": "1",
								"type": "t_bytes32"
							}
						],
						"numberOfBytes": "64"
					},
					"t_struct(Set)1993_storage": {
						"encoding": "inplace",
						"label": "struct EnumerableSet.Set",
						"members": [
							{
								"astId": 1988,
								"contract": "contracts/MonkeyNft.sol:MonkeyNft",
								"label": "_values",
								"offset": 0,
								"slot": "0",
								"type": "t_array(t_bytes32)dyn_storage"
							},
							{
								"astId": 1992,
								"contract": "contracts/MonkeyNft.sol:MonkeyNft",
								"label": "_indexes",
								"offset": 0,
								"slot": "1",
								"type": "t_mapping(t_bytes32,t_uint256)"
							}
						],
						"numberOfBytes": "64"
					},
					"t_struct(UintSet)2282_storage": {
						"encoding": "inplace",
						"label": "struct EnumerableSet.UintSet",
						"members": [
							{
								"astId": 2281,
								"contract": "contracts/MonkeyNft.sol:MonkeyNft",
								"label": "_inner",
								"offset": 0,
								"slot": "0",
								"type": "t_struct(Set)1993_storage"
							}
						],
						"numberOfBytes": "64"
					},
					"t_struct(UintToAddressMap)1807_storage": {
						"encoding": "inplace",
						"label": "struct EnumerableMap.UintToAddressMap",
						"members": [
							{
								"astId": 1806,
								"contract": "contracts/MonkeyNft.sol:MonkeyNft",
								"label": "_inner",
								"offset": 0,
								"slot": "0",
								"type": "t_struct(Map)1543_storage"
							}
						],
						"numberOfBytes": "64"
					},
					"t_uint256": {
						"encoding": "inplace",
						"label": "uint256",
						"numberOfBytes": "32"
					}
				}
			},
			"userdoc": {
				"methods": {}
			}
		}
	}
}