{
	"contracts/MonkeyNft.sol": {
		"Bridge": {
			"abi": [
				{
					"anonymous": false,
					"inputs": [
						{
							"indexed": false,
							"internalType": "address",
							"name": "account",
							"type": "address"
						}
					],
					"name": "Paused",
					"type": "event"
				},
				{
					"anonymous": false,
					"inputs": [
						{
							"indexed": true,
							"internalType": "bytes32",
							"name": "role",
							"type": "bytes32"
						},
						{
							"indexed": true,
							"internalType": "address",
							"name": "account",
							"type": "address"
						},
						{
							"indexed": true,
							"internalType": "address",
							"name": "sender",
							"type": "address"
						}
					],
					"name": "RoleGranted",
					"type": "event"
				},
				{
					"anonymous": false,
					"inputs": [
						{
							"indexed": true,
							"internalType": "bytes32",
							"name": "role",
							"type": "bytes32"
						},
						{
							"indexed": true,
							"internalType": "address",
							"name": "account",
							"type": "address"
						},
						{
							"indexed": true,
							"internalType": "address",
							"name": "sender",
							"type": "address"
						}
					],
					"name": "RoleRevoked",
					"type": "event"
				},
				{
					"anonymous": false,
					"inputs": [
						{
							"indexed": false,
							"internalType": "address",
							"name": "account",
							"type": "address"
						}
					],
					"name": "Unpaused",
					"type": "event"
				},
				{
					"inputs": [],
					"name": "DEFAULT_ADMIN_ROLE",
					"outputs": [
						{
							"internalType": "bytes32",
							"name": "",
							"type": "bytes32"
						}
					],
					"stateMutability": "view",
					"type": "function"
				},
				{
					"inputs": [
						{
							"internalType": "bytes32",
							"name": "role",
							"type": "bytes32"
						}
					],
					"name": "getRoleAdmin",
					"outputs": [
						{
							"internalType": "bytes32",
							"name": "",
							"type": "bytes32"
						}
					],
					"stateMutability": "view",
					"type": "function"
				},
				{
					"inputs": [
						{
							"internalType": "bytes32",
							"name": "role",
							"type": "bytes32"
						},
						{
							"internalType": "uint256",
							"name": "index",
							"type": "uint256"
						}
					],
					"name": "getRoleMember",
					"outputs": [
						{
							"internalType": "address",
							"name": "",
							"type": "address"
						}
					],
					"stateMutability": "view",
					"type": "function"
				},
				{
					"inputs": [
						{
							"internalType": "bytes32",
							"name": "role",
							"type": "bytes32"
						}
					],
					"name": "getRoleMemberCount",
					"outputs": [
						{
							"internalType": "uint256",
							"name": "",
							"type": "uint256"
						}
					],
					"stateMutability": "view",
					"type": "function"
				},
				{
					"inputs": [
						{
							"internalType": "bytes32",
							"name": "role",
							"type": "bytes32"
						},
						{
							"internalType": "address",
							"name": "account",
							"type": "address"
						}
					],
					"name": "grantRole",
					"outputs": [],
					"stateMutability": "nonpayable",
					"type": "function"
				},
				{
					"inputs": [
						{
							"internalType": "bytes32",
							"name": "role",
							"type": "bytes32"
						},
						{
							"internalType": "address",
							"name": "account",
							"type": "address"
						}
					],
					"name": "hasRole",
					"outputs": [
						{
							"internalType": "bool",
							"name": "",
							"type": "bool"
						}
					],
					"stateMutability": "view",
					"type": "function"
				},
				{
					"inputs": [],
					"name": "paused",
					"outputs": [
						{
							"internalType": "bool",
							"name": "",
							"type": "bool"
						}
					],
					"stateMutability": "view",
					"type": "function"
				},
				{
					"inputs": [
						{
							"internalType": "bytes32",
							"name": "role",
							"type": "bytes32"
						},
						{
							"internalType": "address",
							"name": "account",
							"type": "address"
						}
					],
					"name": "renounceRole",
					"outputs": [],
					"stateMutability": "nonpayable",
					"type": "function"
				},
				{
					"inputs": [
						{
							"internalType": "bytes32",
							"name": "role",
							"type": "bytes32"
						},
						{
							"internalType": "address",
							"name": "account",
							"type": "address"
						}
					],
					"name": "revokeRole",
					"outputs": [],
					"stateMutability": "nonpayable",
					"type": "function"
				}
			],
			"devdoc": {
				"author": "ChainSafe Systems.",
				"methods": {
					"getRoleAdmin(bytes32)": {
						"details": "Returns the admin role that controls `role`. See {grantRole} and {revokeRole}.     * To change a role's admin, use {_setRoleAdmin}."
					},
					"getRoleMember(bytes32,uint256)": {
						"details": "Returns one of the accounts that have `role`. `index` must be a value between 0 and {getRoleMemberCount}, non-inclusive.     * Role bearers are not sorted in any particular way, and their ordering may change at any point.     * WARNING: When using {getRoleMember} and {getRoleMemberCount}, make sure you perform all queries on the same block. See the following https://forum.openzeppelin.com/t/iterating-over-elements-on-enumerableset-in-openzeppelin-contracts/2296[forum post] for more information."
					},
					"getRoleMemberCount(bytes32)": {
						"details": "Returns the number of accounts that have `role`. Can be used together with {getRoleMember} to enumerate all bearers of a role."
					},
					"grantRole(bytes32,address)": {
						"details": "Grants `role` to `account`.     * If `account` had not been already granted `role`, emits a {RoleGranted} event.     * Requirements:     * - the caller must have ``role``'s admin role."
					},
					"hasRole(bytes32,address)": {
						"details": "Returns `true` if `account` has been granted `role`."
					},
					"paused()": {
						"details": "Returns true if the contract is paused, and false otherwise."
					},
					"renounceRole(bytes32,address)": {
						"details": "Revokes `role` from the calling account.     * Roles are often managed via {grantRole} and {revokeRole}: this function's purpose is to provide a mechanism for accounts to lose their privileges if they are compromised (such as when a trusted device is misplaced).     * If the calling account had been granted `role`, emits a {RoleRevoked} event.     * Requirements:     * - the caller must be `account`."
					},
					"revokeRole(bytes32,address)": {
						"details": "Revokes `role` from `account`.     * If `account` had been granted `role`, emits a {RoleRevoked} event.     * Requirements:     * - the caller must have ``role``'s admin role."
					}
				},
				"title": "Facilitates deposits, creation and votiing of deposit proposals, and deposit executions."
			},
			"evm": {
				"assembly": "    /* \"contracts/MonkeyNft.sol\":457:514  contract Bridge is Pausable, AccessControl, SafeMath {... */\n  mstore(0x40, 0x80)\n    /* \"contracts/utils/Pausable.sol\":782:787  false */\n  0x00\n    /* \"contracts/utils/Pausable.sol\":772:779  _paused */\n  dup1\n  0x00\n    /* \"contracts/utils/Pausable.sol\":772:787  _paused = false */\n  0x0100\n  exp\n  dup2\n  sload\n  dup2\n  0xff\n  mul\n  not\n  and\n  swap1\n  dup4\n  iszero\n  iszero\n  mul\n  or\n  swap1\n  sstore\n  pop\n    /* \"contracts/MonkeyNft.sol\":457:514  contract Bridge is Pausable, AccessControl, SafeMath {... */\n  dataSize(sub_0)\n  dup1\n  dataOffset(sub_0)\n  0x00\n  codecopy\n  0x00\n  return\nstop\n\nsub_0: assembly {\n        /* \"contracts/MonkeyNft.sol\":457:514  contract Bridge is Pausable, AccessControl, SafeMath {... */\n      mstore(0x40, 0x80)\n      callvalue\n        /* \"--CODEGEN--\":5:14   */\n      dup1\n        /* \"--CODEGEN--\":2:4   */\n      iszero\n      tag_1\n      jumpi\n        /* \"--CODEGEN--\":27:28   */\n      0x00\n        /* \"--CODEGEN--\":24:25   */\n      dup1\n        /* \"--CODEGEN--\":17:29   */\n      revert\n        /* \"--CODEGEN--\":2:4   */\n    tag_1:\n        /* \"contracts/MonkeyNft.sol\":457:514  contract Bridge is Pausable, AccessControl, SafeMath {... */\n      pop\n      jumpi(tag_2, lt(calldatasize, 0x04))\n      shr(0xe0, calldataload(0x00))\n      dup1\n      0x9010d07c\n      gt\n      tag_12\n      jumpi\n      dup1\n      0x9010d07c\n      eq\n      tag_7\n      jumpi\n      dup1\n      0x91d14854\n      eq\n      tag_8\n      jumpi\n      dup1\n      0xa217fddf\n      eq\n      tag_9\n      jumpi\n      dup1\n      0xca15c873\n      eq\n      tag_10\n      jumpi\n      dup1\n      0xd547741f\n      eq\n      tag_11\n      jumpi\n      jump(tag_2)\n    tag_12:\n      dup1\n      0x248a9ca3\n      eq\n      tag_3\n      jumpi\n      dup1\n      0x2f2ff15d\n      eq\n      tag_4\n      jumpi\n      dup1\n      0x36568abe\n      eq\n      tag_5\n      jumpi\n      dup1\n      0x5c975abb\n      eq\n      tag_6\n      jumpi\n    tag_2:\n        /* \"--CODEGEN--\":12:13   */\n      0x00\n        /* \"--CODEGEN--\":9:10   */\n      dup1\n        /* \"--CODEGEN--\":2:14   */\n      revert\n        /* \"contracts/access/AccessControl.sol\":3826:3938  function getRoleAdmin(bytes32 role) public view returns (bytes32) {... */\n    tag_3:\n      tag_13\n      0x04\n      dup1\n      calldatasize\n      sub\n      dup2\n      add\n      swap1\n      tag_14\n      swap2\n      swap1\n      jump(tag_15)\n    tag_14:\n      tag_16\n      jump\t// in\n    tag_13:\n      mload(0x40)\n      tag_17\n      swap2\n      swap1\n      jump(tag_18)\n    tag_17:\n      mload(0x40)\n      dup1\n      swap2\n      sub\n      swap1\n      return\n        /* \"contracts/access/AccessControl.sol\":4188:4411  function grantRole(bytes32 role, address account) public virtual {... */\n    tag_4:\n      tag_19\n      0x04\n      dup1\n      calldatasize\n      sub\n      dup2\n      add\n      swap1\n      tag_20\n      swap2\n      swap1\n      jump(tag_21)\n    tag_20:\n      tag_22\n      jump\t// in\n    tag_19:\n      stop\n        /* \"contracts/access/AccessControl.sol\":5362:5567  function renounceRole(bytes32 role, address account) public virtual {... */\n    tag_5:\n      tag_23\n      0x04\n      dup1\n      calldatasize\n      sub\n      dup2\n      add\n      swap1\n      tag_24\n      swap2\n      swap1\n      jump(tag_21)\n    tag_24:\n      tag_25\n      jump\t// in\n    tag_23:\n      stop\n        /* \"contracts/utils/Pausable.sol\":889:965  function paused() public view returns (bool) {... */\n    tag_6:\n      tag_26\n      tag_27\n      jump\t// in\n    tag_26:\n      mload(0x40)\n      tag_28\n      swap2\n      swap1\n      jump(tag_29)\n    tag_28:\n      mload(0x40)\n      dup1\n      swap2\n      sub\n      swap1\n      return\n        /* \"contracts/access/AccessControl.sol\":3509:3645  function getRoleMember(bytes32 role, uint256 index) public view returns (address) {... */\n    tag_7:\n      tag_30\n      0x04\n      dup1\n      calldatasize\n      sub\n      dup2\n      add\n      swap1\n      tag_31\n      swap2\n      swap1\n      jump(tag_32)\n    tag_31:\n      tag_33\n      jump\t// in\n    tag_30:\n      mload(0x40)\n      tag_34\n      swap2\n      swap1\n      jump(tag_35)\n    tag_34:\n      mload(0x40)\n      dup1\n      swap2\n      sub\n      swap1\n      return\n        /* \"contracts/access/AccessControl.sol\":2494:2631  function hasRole(bytes32 role, address account) public view returns (bool) {... */\n    tag_8:\n      tag_36\n      0x04\n      dup1\n      calldatasize\n      sub\n      dup2\n      add\n      swap1\n      tag_37\n      swap2\n      swap1\n      jump(tag_21)\n    tag_37:\n      tag_38\n      jump\t// in\n    tag_36:\n      mload(0x40)\n      tag_39\n      swap2\n      swap1\n      jump(tag_29)\n    tag_39:\n      mload(0x40)\n      dup1\n      swap2\n      sub\n      swap1\n      return\n        /* \"contracts/access/AccessControl.sol\":1684:1733  bytes32 public constant DEFAULT_ADMIN_ROLE = 0x00 */\n    tag_9:\n      tag_40\n      tag_41\n      jump\t// in\n    tag_40:\n      mload(0x40)\n      tag_42\n      swap2\n      swap1\n      jump(tag_18)\n    tag_42:\n      mload(0x40)\n      dup1\n      swap2\n      sub\n      swap1\n      return\n        /* \"contracts/access/AccessControl.sol\":2799:2924  function getRoleMemberCount(bytes32 role) public view returns (uint256) {... */\n    tag_10:\n      tag_43\n      0x04\n      dup1\n      calldatasize\n      sub\n      dup2\n      add\n      swap1\n      tag_44\n      swap2\n      swap1\n      jump(tag_15)\n    tag_44:\n      tag_45\n      jump\t// in\n    tag_43:\n      mload(0x40)\n      tag_46\n      swap2\n      swap1\n      jump(tag_47)\n    tag_46:\n      mload(0x40)\n      dup1\n      swap2\n      sub\n      swap1\n      return\n        /* \"contracts/access/AccessControl.sol\":4645:4871  function revokeRole(bytes32 role, address account) public virtual {... */\n    tag_11:\n      tag_48\n      0x04\n      dup1\n      calldatasize\n      sub\n      dup2\n      add\n      swap1\n      tag_49\n      swap2\n      swap1\n      jump(tag_21)\n    tag_49:\n      tag_50\n      jump\t// in\n    tag_48:\n      stop\n        /* \"contracts/access/AccessControl.sol\":3826:3938  function getRoleAdmin(bytes32 role) public view returns (bytes32) {... */\n    tag_16:\n        /* \"contracts/access/AccessControl.sol\":3883:3890  bytes32 */\n      0x00\n        /* \"contracts/access/AccessControl.sol\":3909:3915  _roles */\n      0x01\n        /* \"contracts/access/AccessControl.sol\":3909:3921  _roles[role] */\n      0x00\n        /* \"contracts/access/AccessControl.sol\":3916:3920  role */\n      dup4\n        /* \"contracts/access/AccessControl.sol\":3909:3921  _roles[role] */\n      dup2\n      mstore\n      0x20\n      add\n      swap1\n      dup2\n      mstore\n      0x20\n      add\n      0x00\n      keccak256\n        /* \"contracts/access/AccessControl.sol\":3909:3931  _roles[role].adminRole */\n      0x02\n      add\n      sload\n        /* \"contracts/access/AccessControl.sol\":3902:3931  return _roles[role].adminRole */\n      swap1\n      pop\n        /* \"contracts/access/AccessControl.sol\":3826:3938  function getRoleAdmin(bytes32 role) public view returns (bytes32) {... */\n      swap2\n      swap1\n      pop\n      jump\t// out\n        /* \"contracts/access/AccessControl.sol\":4188:4411  function grantRole(bytes32 role, address account) public virtual {... */\n    tag_22:\n        /* \"contracts/access/AccessControl.sol\":4271:4316  hasRole(_roles[role].adminRole, _msgSender()) */\n      tag_53\n        /* \"contracts/access/AccessControl.sol\":4279:4285  _roles */\n      0x01\n        /* \"contracts/access/AccessControl.sol\":4279:4291  _roles[role] */\n      0x00\n        /* \"contracts/access/AccessControl.sol\":4286:4290  role */\n      dup5\n        /* \"contracts/access/AccessControl.sol\":4279:4291  _roles[role] */\n      dup2\n      mstore\n      0x20\n      add\n      swap1\n      dup2\n      mstore\n      0x20\n      add\n      0x00\n      keccak256\n        /* \"contracts/access/AccessControl.sol\":4279:4301  _roles[role].adminRole */\n      0x02\n      add\n      sload\n        /* \"contracts/access/AccessControl.sol\":4303:4315  _msgSender() */\n      tag_54\n        /* \"contracts/access/AccessControl.sol\":4303:4313  _msgSender */\n      tag_55\n        /* \"contracts/access/AccessControl.sol\":4303:4315  _msgSender() */\n      jump\t// in\n    tag_54:\n        /* \"contracts/access/AccessControl.sol\":4271:4278  hasRole */\n      tag_38\n        /* \"contracts/access/AccessControl.sol\":4271:4316  hasRole(_roles[role].adminRole, _msgSender()) */\n      jump\t// in\n    tag_53:\n        /* \"contracts/access/AccessControl.sol\":4263:4368  require(hasRole(_roles[role].adminRole, _msgSender()), \"AccessControl: sender must be an admin to grant\") */\n      tag_56\n      jumpi\n      mload(0x40)\n      0x08c379a000000000000000000000000000000000000000000000000000000000\n      dup2\n      mstore\n      0x04\n      add\n      tag_57\n      swap1\n      jump(tag_58)\n    tag_57:\n      mload(0x40)\n      dup1\n      swap2\n      sub\n      swap1\n      revert\n    tag_56:\n        /* \"contracts/access/AccessControl.sol\":4379:4404  _grantRole(role, account) */\n      tag_59\n        /* \"contracts/access/AccessControl.sol\":4390:4394  role */\n      dup3\n        /* \"contracts/access/AccessControl.sol\":4396:4403  account */\n      dup3\n        /* \"contracts/access/AccessControl.sol\":4379:4389  _grantRole */\n      tag_60\n        /* \"contracts/access/AccessControl.sol\":4379:4404  _grantRole(role, account) */\n      jump\t// in\n    tag_59:\n        /* \"contracts/access/AccessControl.sol\":4188:4411  function grantRole(bytes32 role, address account) public virtual {... */\n      pop\n      pop\n      jump\t// out\n        /* \"contracts/access/AccessControl.sol\":5362:5567  function renounceRole(bytes32 role, address account) public virtual {... */\n    tag_25:\n        /* \"contracts/access/AccessControl.sol\":5459:5471  _msgSender() */\n      tag_62\n        /* \"contracts/access/AccessControl.sol\":5459:5469  _msgSender */\n      tag_55\n        /* \"contracts/access/AccessControl.sol\":5459:5471  _msgSender() */\n      jump\t// in\n    tag_62:\n        /* \"contracts/access/AccessControl.sol\":5448:5471  account == _msgSender() */\n      0xffffffffffffffffffffffffffffffffffffffff\n      and\n        /* \"contracts/access/AccessControl.sol\":5448:5455  account */\n      dup2\n        /* \"contracts/access/AccessControl.sol\":5448:5471  account == _msgSender() */\n      0xffffffffffffffffffffffffffffffffffffffff\n      and\n      eq\n        /* \"contracts/access/AccessControl.sol\":5440:5523  require(account == _msgSender(), \"AccessControl: can only renounce roles for self\") */\n      tag_63\n      jumpi\n      mload(0x40)\n      0x08c379a000000000000000000000000000000000000000000000000000000000\n      dup2\n      mstore\n      0x04\n      add\n      tag_64\n      swap1\n      jump(tag_65)\n    tag_64:\n      mload(0x40)\n      dup1\n      swap2\n      sub\n      swap1\n      revert\n    tag_63:\n        /* \"contracts/access/AccessControl.sol\":5534:5560  _revokeRole(role, account) */\n      tag_66\n        /* \"contracts/access/AccessControl.sol\":5546:5550  role */\n      dup3\n        /* \"contracts/access/AccessControl.sol\":5552:5559  account */\n      dup3\n        /* \"contracts/access/AccessControl.sol\":5534:5545  _revokeRole */\n      tag_67\n        /* \"contracts/access/AccessControl.sol\":5534:5560  _revokeRole(role, account) */\n      jump\t// in\n    tag_66:\n        /* \"contracts/access/AccessControl.sol\":5362:5567  function renounceRole(bytes32 role, address account) public virtual {... */\n      pop\n      pop\n      jump\t// out\n        /* \"contracts/utils/Pausable.sol\":889:965  function paused() public view returns (bool) {... */\n    tag_27:\n        /* \"contracts/utils/Pausable.sol\":928:932  bool */\n      0x00\n        /* \"contracts/utils/Pausable.sol\":951:958  _paused */\n      dup1\n      0x00\n      swap1\n      sload\n      swap1\n      0x0100\n      exp\n      swap1\n      div\n      0xff\n      and\n        /* \"contracts/utils/Pausable.sol\":944:958  return _paused */\n      swap1\n      pop\n        /* \"contracts/utils/Pausable.sol\":889:965  function paused() public view returns (bool) {... */\n      swap1\n      jump\t// out\n        /* \"contracts/access/AccessControl.sol\":3509:3645  function getRoleMember(bytes32 role, uint256 index) public view returns (address) {... */\n    tag_33:\n        /* \"contracts/access/AccessControl.sol\":3582:3589  address */\n      0x00\n        /* \"contracts/access/AccessControl.sol\":3608:3638  _roles[role].members.at(index) */\n      tag_70\n        /* \"contracts/access/AccessControl.sol\":3632:3637  index */\n      dup3\n        /* \"contracts/access/AccessControl.sol\":3608:3614  _roles */\n      0x01\n        /* \"contracts/access/AccessControl.sol\":3608:3620  _roles[role] */\n      0x00\n        /* \"contracts/access/AccessControl.sol\":3615:3619  role */\n      dup7\n        /* \"contracts/access/AccessControl.sol\":3608:3620  _roles[role] */\n      dup2\n      mstore\n      0x20\n      add\n      swap1\n      dup2\n      mstore\n      0x20\n      add\n      0x00\n      keccak256\n        /* \"contracts/access/AccessControl.sol\":3608:3628  _roles[role].members */\n      0x00\n      add\n        /* \"contracts/access/AccessControl.sol\":3608:3631  _roles[role].members.at */\n      tag_71\n      swap1\n        /* \"contracts/access/AccessControl.sol\":3608:3638  _roles[role].members.at(index) */\n      swap2\n      swap1\n      0xffffffff\n      and\n      jump\t// in\n    tag_70:\n        /* \"contracts/access/AccessControl.sol\":3601:3638  return _roles[role].members.at(index) */\n      swap1\n      pop\n        /* \"contracts/access/AccessControl.sol\":3509:3645  function getRoleMember(bytes32 role, uint256 index) public view returns (address) {... */\n      swap3\n      swap2\n      pop\n      pop\n      jump\t// out\n        /* \"contracts/access/AccessControl.sol\":2494:2631  function hasRole(bytes32 role, address account) public view returns (bool) {... */\n    tag_38:\n        /* \"contracts/access/AccessControl.sol\":2563:2567  bool */\n      0x00\n        /* \"contracts/access/AccessControl.sol\":2586:2624  _roles[role].members.contains(account) */\n      tag_73\n        /* \"contracts/access/AccessControl.sol\":2616:2623  account */\n      dup3\n        /* \"contracts/access/AccessControl.sol\":2586:2592  _roles */\n      0x01\n        /* \"contracts/access/AccessControl.sol\":2586:2598  _roles[role] */\n      0x00\n        /* \"contracts/access/AccessControl.sol\":2593:2597  role */\n      dup7\n        /* \"contracts/access/AccessControl.sol\":2586:2598  _roles[role] */\n      dup2\n      mstore\n      0x20\n      add\n      swap1\n      dup2\n      mstore\n      0x20\n      add\n      0x00\n      keccak256\n        /* \"contracts/access/AccessControl.sol\":2586:2606  _roles[role].members */\n      0x00\n      add\n        /* \"contracts/access/AccessControl.sol\":2586:2615  _roles[role].members.contains */\n      tag_74\n      swap1\n        /* \"contracts/access/AccessControl.sol\":2586:2624  _roles[role].members.contains(account) */\n      swap2\n      swap1\n      0xffffffff\n      and\n      jump\t// in\n    tag_73:\n        /* \"contracts/access/AccessControl.sol\":2579:2624  return _roles[role].members.contains(account) */\n      swap1\n      pop\n        /* \"contracts/access/AccessControl.sol\":2494:2631  function hasRole(bytes32 role, address account) public view returns (bool) {... */\n      swap3\n      swap2\n      pop\n      pop\n      jump\t// out\n        /* \"contracts/access/AccessControl.sol\":1684:1733  bytes32 public constant DEFAULT_ADMIN_ROLE = 0x00 */\n    tag_41:\n        /* \"contracts/access/AccessControl.sol\":1729:1733  0x00 */\n      0x00\n        /* \"contracts/access/AccessControl.sol\":1684:1733  bytes32 public constant DEFAULT_ADMIN_ROLE = 0x00 */\n      dup1\n      shl\n      dup2\n      jump\t// out\n        /* \"contracts/access/AccessControl.sol\":2799:2924  function getRoleMemberCount(bytes32 role) public view returns (uint256) {... */\n    tag_45:\n        /* \"contracts/access/AccessControl.sol\":2862:2869  uint256 */\n      0x00\n        /* \"contracts/access/AccessControl.sol\":2888:2917  _roles[role].members.length() */\n      tag_76\n        /* \"contracts/access/AccessControl.sol\":2888:2894  _roles */\n      0x01\n        /* \"contracts/access/AccessControl.sol\":2888:2900  _roles[role] */\n      0x00\n        /* \"contracts/access/AccessControl.sol\":2895:2899  role */\n      dup5\n        /* \"contracts/access/AccessControl.sol\":2888:2900  _roles[role] */\n      dup2\n      mstore\n      0x20\n      add\n      swap1\n      dup2\n      mstore\n      0x20\n      add\n      0x00\n      keccak256\n        /* \"contracts/access/AccessControl.sol\":2888:2908  _roles[role].members */\n      0x00\n      add\n        /* \"contracts/access/AccessControl.sol\":2888:2915  _roles[role].members.length */\n      tag_77\n        /* \"contracts/access/AccessControl.sol\":2888:2917  _roles[role].members.length() */\n      jump\t// in\n    tag_76:\n        /* \"contracts/access/AccessControl.sol\":2881:2917  return _roles[role].members.length() */\n      swap1\n      pop\n        /* \"contracts/access/AccessControl.sol\":2799:2924  function getRoleMemberCount(bytes32 role) public view returns (uint256) {... */\n      swap2\n      swap1\n      pop\n      jump\t// out\n        /* \"contracts/access/AccessControl.sol\":4645:4871  function revokeRole(bytes32 role, address account) public virtual {... */\n    tag_50:\n        /* \"contracts/access/AccessControl.sol\":4729:4774  hasRole(_roles[role].adminRole, _msgSender()) */\n      tag_79\n        /* \"contracts/access/AccessControl.sol\":4737:4743  _roles */\n      0x01\n        /* \"contracts/access/AccessControl.sol\":4737:4749  _roles[role] */\n      0x00\n        /* \"contracts/access/AccessControl.sol\":4744:4748  role */\n      dup5\n        /* \"contracts/access/AccessControl.sol\":4737:4749  _roles[role] */\n      dup2\n      mstore\n      0x20\n      add\n      swap1\n      dup2\n      mstore\n      0x20\n      add\n      0x00\n      keccak256\n        /* \"contracts/access/AccessControl.sol\":4737:4759  _roles[role].adminRole */\n      0x02\n      add\n      sload\n        /* \"contracts/access/AccessControl.sol\":4761:4773  _msgSender() */\n      tag_80\n        /* \"contracts/access/AccessControl.sol\":4761:4771  _msgSender */\n      tag_55\n        /* \"contracts/access/AccessControl.sol\":4761:4773  _msgSender() */\n      jump\t// in\n    tag_80:\n        /* \"contracts/access/AccessControl.sol\":4729:4736  hasRole */\n      tag_38\n        /* \"contracts/access/AccessControl.sol\":4729:4774  hasRole(_roles[role].adminRole, _msgSender()) */\n      jump\t// in\n    tag_79:\n        /* \"contracts/access/AccessControl.sol\":4721:4827  require(hasRole(_roles[role].adminRole, _msgSender()), \"AccessControl: sender must be an admin to revoke\") */\n      tag_81\n      jumpi\n      mload(0x40)\n      0x08c379a000000000000000000000000000000000000000000000000000000000\n      dup2\n      mstore\n      0x04\n      add\n      tag_82\n      swap1\n      jump(tag_83)\n    tag_82:\n      mload(0x40)\n      dup1\n      swap2\n      sub\n      swap1\n      revert\n    tag_81:\n        /* \"contracts/access/AccessControl.sol\":4838:4864  _revokeRole(role, account) */\n      tag_84\n        /* \"contracts/access/AccessControl.sol\":4850:4854  role */\n      dup3\n        /* \"contracts/access/AccessControl.sol\":4856:4863  account */\n      dup3\n        /* \"contracts/access/AccessControl.sol\":4838:4849  _revokeRole */\n      tag_67\n        /* \"contracts/access/AccessControl.sol\":4838:4864  _revokeRole(role, account) */\n      jump\t// in\n    tag_84:\n        /* \"contracts/access/AccessControl.sol\":4645:4871  function revokeRole(bytes32 role, address account) public virtual {... */\n      pop\n      pop\n      jump\t// out\n        /* \"contracts/GSN/Context.sol\":735:839  function _msgSender() internal view virtual returns (address payable) {... */\n    tag_55:\n        /* \"contracts/GSN/Context.sol\":788:803  address payable */\n      0x00\n        /* \"contracts/GSN/Context.sol\":822:832  msg.sender */\n      caller\n        /* \"contracts/GSN/Context.sol\":815:832  return msg.sender */\n      swap1\n      pop\n        /* \"contracts/GSN/Context.sol\":735:839  function _msgSender() internal view virtual returns (address payable) {... */\n      swap1\n      jump\t// out\n        /* \"contracts/access/AccessControl.sol\":6449:6633  function _grantRole(bytes32 role, address account) private {... */\n    tag_60:\n        /* \"contracts/access/AccessControl.sol\":6522:6555  _roles[role].members.add(account) */\n      tag_87\n        /* \"contracts/access/AccessControl.sol\":6547:6554  account */\n      dup2\n        /* \"contracts/access/AccessControl.sol\":6522:6528  _roles */\n      0x01\n        /* \"contracts/access/AccessControl.sol\":6522:6534  _roles[role] */\n      0x00\n        /* \"contracts/access/AccessControl.sol\":6529:6533  role */\n      dup6\n        /* \"contracts/access/AccessControl.sol\":6522:6534  _roles[role] */\n      dup2\n      mstore\n      0x20\n      add\n      swap1\n      dup2\n      mstore\n      0x20\n      add\n      0x00\n      keccak256\n        /* \"contracts/access/AccessControl.sol\":6522:6542  _roles[role].members */\n      0x00\n      add\n        /* \"contracts/access/AccessControl.sol\":6522:6546  _roles[role].members.add */\n      tag_88\n      swap1\n        /* \"contracts/access/AccessControl.sol\":6522:6555  _roles[role].members.add(account) */\n      swap2\n      swap1\n      0xffffffff\n      and\n      jump\t// in\n    tag_87:\n        /* \"contracts/access/AccessControl.sol\":6518:6627  if (_roles[role].members.add(account)) {... */\n      iszero\n      tag_89\n      jumpi\n        /* \"contracts/access/AccessControl.sol\":6603:6615  _msgSender() */\n      tag_90\n        /* \"contracts/access/AccessControl.sol\":6603:6613  _msgSender */\n      tag_55\n        /* \"contracts/access/AccessControl.sol\":6603:6615  _msgSender() */\n      jump\t// in\n    tag_90:\n        /* \"contracts/access/AccessControl.sol\":6576:6616  RoleGranted(role, account, _msgSender()) */\n      0xffffffffffffffffffffffffffffffffffffffff\n      and\n        /* \"contracts/access/AccessControl.sol\":6594:6601  account */\n      dup2\n        /* \"contracts/access/AccessControl.sol\":6576:6616  RoleGranted(role, account, _msgSender()) */\n      0xffffffffffffffffffffffffffffffffffffffff\n      and\n        /* \"contracts/access/AccessControl.sol\":6588:6592  role */\n      dup4\n        /* \"contracts/access/AccessControl.sol\":6576:6616  RoleGranted(role, account, _msgSender()) */\n      0x2f8788117e7eff1d82e926ec794901d17c78024a50270940304540a733656f0d\n      mload(0x40)\n      mload(0x40)\n      dup1\n      swap2\n      sub\n      swap1\n      log4\n        /* \"contracts/access/AccessControl.sol\":6518:6627  if (_roles[role].members.add(account)) {... */\n    tag_89:\n        /* \"contracts/access/AccessControl.sol\":6449:6633  function _grantRole(bytes32 role, address account) private {... */\n      pop\n      pop\n      jump\t// out\n        /* \"contracts/access/AccessControl.sol\":6639:6827  function _revokeRole(bytes32 role, address account) private {... */\n    tag_67:\n        /* \"contracts/access/AccessControl.sol\":6713:6749  _roles[role].members.remove(account) */\n      tag_92\n        /* \"contracts/access/AccessControl.sol\":6741:6748  account */\n      dup2\n        /* \"contracts/access/AccessControl.sol\":6713:6719  _roles */\n      0x01\n        /* \"contracts/access/AccessControl.sol\":6713:6725  _roles[role] */\n      0x00\n        /* \"contracts/access/AccessControl.sol\":6720:6724  role */\n      dup6\n        /* \"contracts/access/AccessControl.sol\":6713:6725  _roles[role] */\n      dup2\n      mstore\n      0x20\n      add\n      swap1\n      dup2\n      mstore\n      0x20\n      add\n      0x00\n      keccak256\n        /* \"contracts/access/AccessControl.sol\":6713:6733  _roles[role].members */\n      0x00\n      add\n        /* \"contracts/access/AccessControl.sol\":6713:6740  _roles[role].members.remove */\n      tag_93\n      swap1\n        /* \"contracts/access/AccessControl.sol\":6713:6749  _roles[role].members.remove(account) */\n      swap2\n      swap1\n      0xffffffff\n      and\n      jump\t// in\n    tag_92:\n        /* \"contracts/access/AccessControl.sol\":6709:6821  if (_roles[role].members.remove(account)) {... */\n      iszero\n      tag_94\n      jumpi\n        /* \"contracts/access/AccessControl.sol\":6797:6809  _msgSender() */\n      tag_95\n        /* \"contracts/access/AccessControl.sol\":6797:6807  _msgSender */\n      tag_55\n        /* \"contracts/access/AccessControl.sol\":6797:6809  _msgSender() */\n      jump\t// in\n    tag_95:\n        /* \"contracts/access/AccessControl.sol\":6770:6810  RoleRevoked(role, account, _msgSender()) */\n      0xffffffffffffffffffffffffffffffffffffffff\n      and\n        /* \"contracts/access/AccessControl.sol\":6788:6795  account */\n      dup2\n        /* \"contracts/access/AccessControl.sol\":6770:6810  RoleRevoked(role, account, _msgSender()) */\n      0xffffffffffffffffffffffffffffffffffffffff\n      and\n        /* \"contracts/access/AccessControl.sol\":6782:6786  role */\n      dup4\n        /* \"contracts/access/AccessControl.sol\":6770:6810  RoleRevoked(role, account, _msgSender()) */\n      0xf6391f5c32d9c69d2a47ea670b442974b53935d1edc7fd64eb21e047a839171b\n      mload(0x40)\n      mload(0x40)\n      dup1\n      swap2\n      sub\n      swap1\n      log4\n        /* \"contracts/access/AccessControl.sol\":6709:6821  if (_roles[role].members.remove(account)) {... */\n    tag_94:\n        /* \"contracts/access/AccessControl.sol\":6639:6827  function _revokeRole(bytes32 role, address account) private {... */\n      pop\n      pop\n      jump\t// out\n        /* \"contracts/utils/EnumerableSet.sol\":6052:6199  function at(AddressSet storage set, uint256 index) internal view returns (address) {... */\n    tag_71:\n        /* \"contracts/utils/EnumerableSet.sol\":6126:6133  address */\n      0x00\n        /* \"contracts/utils/EnumerableSet.sol\":6168:6190  _at(set._inner, index) */\n      tag_97\n        /* \"contracts/utils/EnumerableSet.sol\":6172:6175  set */\n      dup4\n        /* \"contracts/utils/EnumerableSet.sol\":6172:6182  set._inner */\n      0x00\n      add\n        /* \"contracts/utils/EnumerableSet.sol\":6184:6189  index */\n      dup4\n        /* \"contracts/utils/EnumerableSet.sol\":6168:6171  _at */\n      tag_98\n        /* \"contracts/utils/EnumerableSet.sol\":6168:6190  _at(set._inner, index) */\n      jump\t// in\n    tag_97:\n        /* \"contracts/utils/EnumerableSet.sol\":6160:6191  uint256(_at(set._inner, index)) */\n      0x00\n      shr\n        /* \"contracts/utils/EnumerableSet.sol\":6145:6192  return address(uint256(_at(set._inner, index))) */\n      swap1\n      pop\n        /* \"contracts/utils/EnumerableSet.sol\":6052:6199  function at(AddressSet storage set, uint256 index) internal view returns (address) {... */\n      swap3\n      swap2\n      pop\n      pop\n      jump\t// out\n        /* \"contracts/utils/EnumerableSet.sol\":5368:5524  function contains(AddressSet storage set, address value) internal view returns (bool) {... */\n    tag_74:\n        /* \"contracts/utils/EnumerableSet.sol\":5448:5452  bool */\n      0x00\n        /* \"contracts/utils/EnumerableSet.sol\":5471:5517  _contains(set._inner, bytes32(uint256(value))) */\n      tag_100\n        /* \"contracts/utils/EnumerableSet.sol\":5481:5484  set */\n      dup4\n        /* \"contracts/utils/EnumerableSet.sol\":5481:5491  set._inner */\n      0x00\n      add\n        /* \"contracts/utils/EnumerableSet.sol\":5509:5514  value */\n      dup4\n        /* \"contracts/utils/EnumerableSet.sol\":5501:5515  uint256(value) */\n      0xffffffffffffffffffffffffffffffffffffffff\n      and\n        /* \"contracts/utils/EnumerableSet.sol\":5493:5516  bytes32(uint256(value)) */\n      0x00\n      shl\n        /* \"contracts/utils/EnumerableSet.sol\":5471:5480  _contains */\n      tag_101\n        /* \"contracts/utils/EnumerableSet.sol\":5471:5517  _contains(set._inner, bytes32(uint256(value))) */\n      jump\t// in\n    tag_100:\n        /* \"contracts/utils/EnumerableSet.sol\":5464:5517  return _contains(set._inner, bytes32(uint256(value))) */\n      swap1\n      pop\n        /* \"contracts/utils/EnumerableSet.sol\":5368:5524  function contains(AddressSet storage set, address value) internal view returns (bool) {... */\n      swap3\n      swap2\n      pop\n      pop\n      jump\t// out\n        /* \"contracts/utils/EnumerableSet.sol\":5605:5720  function length(AddressSet storage set) internal view returns (uint256) {... */\n    tag_77:\n        /* \"contracts/utils/EnumerableSet.sol\":5668:5675  uint256 */\n      0x00\n        /* \"contracts/utils/EnumerableSet.sol\":5694:5713  _length(set._inner) */\n      tag_103\n        /* \"contracts/utils/EnumerableSet.sol\":5702:5705  set */\n      dup3\n        /* \"contracts/utils/EnumerableSet.sol\":5702:5712  set._inner */\n      0x00\n      add\n        /* \"contracts/utils/EnumerableSet.sol\":5694:5701  _length */\n      tag_104\n        /* \"contracts/utils/EnumerableSet.sol\":5694:5713  _length(set._inner) */\n      jump\t// in\n    tag_103:\n        /* \"contracts/utils/EnumerableSet.sol\":5687:5713  return _length(set._inner) */\n      swap1\n      pop\n        /* \"contracts/utils/EnumerableSet.sol\":5605:5720  function length(AddressSet storage set) internal view returns (uint256) {... */\n      swap2\n      swap1\n      pop\n      jump\t// out\n        /* \"contracts/utils/EnumerableSet.sol\":4831:4972  function add(AddressSet storage set, address value) internal returns (bool) {... */\n    tag_88:\n        /* \"contracts/utils/EnumerableSet.sol\":4901:4905  bool */\n      0x00\n        /* \"contracts/utils/EnumerableSet.sol\":4924:4965  _add(set._inner, bytes32(uint256(value))) */\n      tag_106\n        /* \"contracts/utils/EnumerableSet.sol\":4929:4932  set */\n      dup4\n        /* \"contracts/utils/EnumerableSet.sol\":4929:4939  set._inner */\n      0x00\n      add\n        /* \"contracts/utils/EnumerableSet.sol\":4957:4962  value */\n      dup4\n        /* \"contracts/utils/EnumerableSet.sol\":4949:4963  uint256(value) */\n      0xffffffffffffffffffffffffffffffffffffffff\n      and\n        /* \"contracts/utils/EnumerableSet.sol\":4941:4964  bytes32(uint256(value)) */\n      0x00\n      shl\n        /* \"contracts/utils/EnumerableSet.sol\":4924:4928  _add */\n      tag_107\n        /* \"contracts/utils/EnumerableSet.sol\":4924:4965  _add(set._inner, bytes32(uint256(value))) */\n      jump\t// in\n    tag_106:\n        /* \"contracts/utils/EnumerableSet.sol\":4917:4965  return _add(set._inner, bytes32(uint256(value))) */\n      swap1\n      pop\n        /* \"contracts/utils/EnumerableSet.sol\":4831:4972  function add(AddressSet storage set, address value) internal returns (bool) {... */\n      swap3\n      swap2\n      pop\n      pop\n      jump\t// out\n        /* \"contracts/utils/EnumerableSet.sol\":5140:5287  function remove(AddressSet storage set, address value) internal returns (bool) {... */\n    tag_93:\n        /* \"contracts/utils/EnumerableSet.sol\":5213:5217  bool */\n      0x00\n        /* \"contracts/utils/EnumerableSet.sol\":5236:5280  _remove(set._inner, bytes32(uint256(value))) */\n      tag_109\n        /* \"contracts/utils/EnumerableSet.sol\":5244:5247  set */\n      dup4\n        /* \"contracts/utils/EnumerableSet.sol\":5244:5254  set._inner */\n      0x00\n      add\n        /* \"contracts/utils/EnumerableSet.sol\":5272:5277  value */\n      dup4\n        /* \"contracts/utils/EnumerableSet.sol\":5264:5278  uint256(value) */\n      0xffffffffffffffffffffffffffffffffffffffff\n      and\n        /* \"contracts/utils/EnumerableSet.sol\":5256:5279  bytes32(uint256(value)) */\n      0x00\n      shl\n        /* \"contracts/utils/EnumerableSet.sol\":5236:5243  _remove */\n      tag_110\n        /* \"contracts/utils/EnumerableSet.sol\":5236:5280  _remove(set._inner, bytes32(uint256(value))) */\n      jump\t// in\n    tag_109:\n        /* \"contracts/utils/EnumerableSet.sol\":5229:5280  return _remove(set._inner, bytes32(uint256(value))) */\n      swap1\n      pop\n        /* \"contracts/utils/EnumerableSet.sol\":5140:5287  function remove(AddressSet storage set, address value) internal returns (bool) {... */\n      swap3\n      swap2\n      pop\n      pop\n      jump\t// out\n        /* \"contracts/utils/EnumerableSet.sol\":4390:4591  function _at(Set storage set, uint256 index) private view returns (bytes32) {... */\n    tag_98:\n        /* \"contracts/utils/EnumerableSet.sol\":4457:4464  bytes32 */\n      0x00\n        /* \"contracts/utils/EnumerableSet.sol\":4505:4510  index */\n      dup2\n        /* \"contracts/utils/EnumerableSet.sol\":4484:4487  set */\n      dup4\n        /* \"contracts/utils/EnumerableSet.sol\":4484:4495  set._values */\n      0x00\n      add\n        /* \"contracts/utils/EnumerableSet.sol\":4484:4502  set._values.length */\n      dup1\n      sload\n      swap1\n      pop\n        /* \"contracts/utils/EnumerableSet.sol\":4484:4510  set._values.length > index */\n      gt\n        /* \"contracts/utils/EnumerableSet.sol\":4476:4549  require(set._values.length > index, \"EnumerableSet: index out of bounds\") */\n      tag_112\n      jumpi\n      mload(0x40)\n      0x08c379a000000000000000000000000000000000000000000000000000000000\n      dup2\n      mstore\n      0x04\n      add\n      tag_113\n      swap1\n      jump(tag_114)\n    tag_113:\n      mload(0x40)\n      dup1\n      swap2\n      sub\n      swap1\n      revert\n    tag_112:\n        /* \"contracts/utils/EnumerableSet.sol\":4566:4569  set */\n      dup3\n        /* \"contracts/utils/EnumerableSet.sol\":4566:4577  set._values */\n      0x00\n      add\n        /* \"contracts/utils/EnumerableSet.sol\":4578:4583  index */\n      dup3\n        /* \"contracts/utils/EnumerableSet.sol\":4566:4584  set._values[index] */\n      dup2\n      sload\n      dup2\n      lt\n      tag_115\n      jumpi\n      invalid\n    tag_115:\n      swap1\n      0x00\n      mstore\n      keccak256(0x00, 0x20)\n      add\n      sload\n        /* \"contracts/utils/EnumerableSet.sol\":4559:4584  return set._values[index] */\n      swap1\n      pop\n        /* \"contracts/utils/EnumerableSet.sol\":4390:4591  function _at(Set storage set, uint256 index) private view returns (bytes32) {... */\n      swap3\n      swap2\n      pop\n      pop\n      jump\t// out\n        /* \"contracts/utils/EnumerableSet.sol\":3743:3870  function _contains(Set storage set, bytes32 value) private view returns (bool) {... */\n    tag_101:\n        /* \"contracts/utils/EnumerableSet.sol\":3816:3820  bool */\n      0x00\n        /* \"contracts/utils/EnumerableSet.sol\":3862:3863  0 */\n      dup1\n        /* \"contracts/utils/EnumerableSet.sol\":3839:3842  set */\n      dup4\n        /* \"contracts/utils/EnumerableSet.sol\":3839:3851  set._indexes */\n      0x01\n      add\n        /* \"contracts/utils/EnumerableSet.sol\":3839:3858  set._indexes[value] */\n      0x00\n        /* \"contracts/utils/EnumerableSet.sol\":3852:3857  value */\n      dup5\n        /* \"contracts/utils/EnumerableSet.sol\":3839:3858  set._indexes[value] */\n      dup2\n      mstore\n      0x20\n      add\n      swap1\n      dup2\n      mstore\n      0x20\n      add\n      0x00\n      keccak256\n      sload\n        /* \"contracts/utils/EnumerableSet.sol\":3839:3863  set._indexes[value] != 0 */\n      eq\n      iszero\n        /* \"contracts/utils/EnumerableSet.sol\":3832:3863  return set._indexes[value] != 0 */\n      swap1\n      pop\n        /* \"contracts/utils/EnumerableSet.sol\":3743:3870  function _contains(Set storage set, bytes32 value) private view returns (bool) {... */\n      swap3\n      swap2\n      pop\n      pop\n      jump\t// out\n        /* \"contracts/utils/EnumerableSet.sol\":3951:4058  function _length(Set storage set) private view returns (uint256) {... */\n    tag_104:\n        /* \"contracts/utils/EnumerableSet.sol\":4007:4014  uint256 */\n      0x00\n        /* \"contracts/utils/EnumerableSet.sol\":4033:4036  set */\n      dup2\n        /* \"contracts/utils/EnumerableSet.sol\":4033:4044  set._values */\n      0x00\n      add\n        /* \"contracts/utils/EnumerableSet.sol\":4033:4051  set._values.length */\n      dup1\n      sload\n      swap1\n      pop\n        /* \"contracts/utils/EnumerableSet.sol\":4026:4051  return set._values.length */\n      swap1\n      pop\n        /* \"contracts/utils/EnumerableSet.sol\":3951:4058  function _length(Set storage set) private view returns (uint256) {... */\n      swap2\n      swap1\n      pop\n      jump\t// out\n        /* \"contracts/utils/EnumerableSet.sol\":1578:1982  function _add(Set storage set, bytes32 value) private returns (bool) {... */\n    tag_107:\n        /* \"contracts/utils/EnumerableSet.sol\":1641:1645  bool */\n      0x00\n        /* \"contracts/utils/EnumerableSet.sol\":1662:1683  _contains(set, value) */\n      tag_120\n        /* \"contracts/utils/EnumerableSet.sol\":1672:1675  set */\n      dup4\n        /* \"contracts/utils/EnumerableSet.sol\":1677:1682  value */\n      dup4\n        /* \"contracts/utils/EnumerableSet.sol\":1662:1671  _contains */\n      tag_101\n        /* \"contracts/utils/EnumerableSet.sol\":1662:1683  _contains(set, value) */\n      jump\t// in\n    tag_120:\n        /* \"contracts/utils/EnumerableSet.sol\":1657:1976  if (!_contains(set, value)) {... */\n      tag_121\n      jumpi\n        /* \"contracts/utils/EnumerableSet.sol\":1699:1702  set */\n      dup3\n        /* \"contracts/utils/EnumerableSet.sol\":1699:1710  set._values */\n      0x00\n      add\n        /* \"contracts/utils/EnumerableSet.sol\":1716:1721  value */\n      dup3\n        /* \"contracts/utils/EnumerableSet.sol\":1699:1722  set._values.push(value) */\n      swap1\n      dup1\n        /* \"--CODEGEN--\":39:40   */\n      0x01\n        /* \"--CODEGEN--\":33:36   */\n      dup2\n        /* \"--CODEGEN--\":27:37   */\n      sload\n        /* \"--CODEGEN--\":23:41   */\n      add\n        /* \"--CODEGEN--\":57:67   */\n      dup1\n        /* \"--CODEGEN--\":52:55   */\n      dup3\n        /* \"--CODEGEN--\":45:68   */\n      sstore\n        /* \"--CODEGEN--\":79:89   */\n      dup1\n        /* \"--CODEGEN--\":72:89   */\n      swap2\n      pop\n        /* \"--CODEGEN--\":0:93   */\n      pop\n        /* \"contracts/utils/EnumerableSet.sol\":1699:1722  set._values.push(value) */\n      0x01\n      swap1\n      sub\n      swap1\n      0x00\n      mstore\n      keccak256(0x00, 0x20)\n      add\n      0x00\n      swap1\n      swap2\n      swap1\n      swap2\n      swap1\n      swap2\n      pop\n      sstore\n        /* \"contracts/utils/EnumerableSet.sol\":1879:1882  set */\n      dup3\n        /* \"contracts/utils/EnumerableSet.sol\":1879:1890  set._values */\n      0x00\n      add\n        /* \"contracts/utils/EnumerableSet.sol\":1879:1897  set._values.length */\n      dup1\n      sload\n      swap1\n      pop\n        /* \"contracts/utils/EnumerableSet.sol\":1857:1860  set */\n      dup4\n        /* \"contracts/utils/EnumerableSet.sol\":1857:1869  set._indexes */\n      0x01\n      add\n        /* \"contracts/utils/EnumerableSet.sol\":1857:1876  set._indexes[value] */\n      0x00\n        /* \"contracts/utils/EnumerableSet.sol\":1870:1875  value */\n      dup5\n        /* \"contracts/utils/EnumerableSet.sol\":1857:1876  set._indexes[value] */\n      dup2\n      mstore\n      0x20\n      add\n      swap1\n      dup2\n      mstore\n      0x20\n      add\n      0x00\n      keccak256\n        /* \"contracts/utils/EnumerableSet.sol\":1857:1897  set._indexes[value] = set._values.length */\n      dup2\n      swap1\n      sstore\n      pop\n        /* \"contracts/utils/EnumerableSet.sol\":1918:1922  true */\n      0x01\n        /* \"contracts/utils/EnumerableSet.sol\":1911:1922  return true */\n      swap1\n      pop\n      jump(tag_119)\n        /* \"contracts/utils/EnumerableSet.sol\":1657:1976  if (!_contains(set, value)) {... */\n    tag_121:\n        /* \"contracts/utils/EnumerableSet.sol\":1960:1965  false */\n      0x00\n        /* \"contracts/utils/EnumerableSet.sol\":1953:1965  return false */\n      swap1\n      pop\n        /* \"contracts/utils/EnumerableSet.sol\":1578:1982  function _add(Set storage set, bytes32 value) private returns (bool) {... */\n    tag_119:\n      swap3\n      swap2\n      pop\n      pop\n      jump\t// out\n        /* \"contracts/utils/EnumerableSet.sol\":2150:3662  function _remove(Set storage set, bytes32 value) private returns (bool) {... */\n    tag_110:\n        /* \"contracts/utils/EnumerableSet.sol\":2216:2220  bool */\n      0x00\n        /* \"contracts/utils/EnumerableSet.sol\":2332:2350  uint256 valueIndex */\n      dup1\n        /* \"contracts/utils/EnumerableSet.sol\":2353:2356  set */\n      dup4\n        /* \"contracts/utils/EnumerableSet.sol\":2353:2365  set._indexes */\n      0x01\n      add\n        /* \"contracts/utils/EnumerableSet.sol\":2353:2372  set._indexes[value] */\n      0x00\n        /* \"contracts/utils/EnumerableSet.sol\":2366:2371  value */\n      dup5\n        /* \"contracts/utils/EnumerableSet.sol\":2353:2372  set._indexes[value] */\n      dup2\n      mstore\n      0x20\n      add\n      swap1\n      dup2\n      mstore\n      0x20\n      add\n      0x00\n      keccak256\n      sload\n        /* \"contracts/utils/EnumerableSet.sol\":2332:2372  uint256 valueIndex = set._indexes[value] */\n      swap1\n      pop\n        /* \"contracts/utils/EnumerableSet.sol\":2401:2402  0 */\n      0x00\n        /* \"contracts/utils/EnumerableSet.sol\":2387:2397  valueIndex */\n      dup2\n        /* \"contracts/utils/EnumerableSet.sol\":2387:2402  valueIndex != 0 */\n      eq\n        /* \"contracts/utils/EnumerableSet.sol\":2383:3656  if (valueIndex != 0) { // Equivalent to contains(set, value)... */\n      tag_125\n      jumpi\n        /* \"contracts/utils/EnumerableSet.sol\":2744:2765  uint256 toDeleteIndex */\n      0x00\n        /* \"contracts/utils/EnumerableSet.sol\":2781:2782  1 */\n      0x01\n        /* \"contracts/utils/EnumerableSet.sol\":2768:2778  valueIndex */\n      dup3\n        /* \"contracts/utils/EnumerableSet.sol\":2768:2782  valueIndex - 1 */\n      sub\n        /* \"contracts/utils/EnumerableSet.sol\":2744:2782  uint256 toDeleteIndex = valueIndex - 1 */\n      swap1\n      pop\n        /* \"contracts/utils/EnumerableSet.sol\":2796:2813  uint256 lastIndex */\n      0x00\n        /* \"contracts/utils/EnumerableSet.sol\":2837:2838  1 */\n      0x01\n        /* \"contracts/utils/EnumerableSet.sol\":2816:2819  set */\n      dup7\n        /* \"contracts/utils/EnumerableSet.sol\":2816:2827  set._values */\n      0x00\n      add\n        /* \"contracts/utils/EnumerableSet.sol\":2816:2834  set._values.length */\n      dup1\n      sload\n      swap1\n      pop\n        /* \"contracts/utils/EnumerableSet.sol\":2816:2838  set._values.length - 1 */\n      sub\n        /* \"contracts/utils/EnumerableSet.sol\":2796:2838  uint256 lastIndex = set._values.length - 1 */\n      swap1\n      pop\n        /* \"contracts/utils/EnumerableSet.sol\":3078:3095  bytes32 lastvalue */\n      0x00\n        /* \"contracts/utils/EnumerableSet.sol\":3098:3101  set */\n      dup7\n        /* \"contracts/utils/EnumerableSet.sol\":3098:3109  set._values */\n      0x00\n      add\n        /* \"contracts/utils/EnumerableSet.sol\":3110:3119  lastIndex */\n      dup3\n        /* \"contracts/utils/EnumerableSet.sol\":3098:3120  set._values[lastIndex] */\n      dup2\n      sload\n      dup2\n      lt\n      tag_126\n      jumpi\n      invalid\n    tag_126:\n      swap1\n      0x00\n      mstore\n      keccak256(0x00, 0x20)\n      add\n      sload\n        /* \"contracts/utils/EnumerableSet.sol\":3078:3120  bytes32 lastvalue = set._values[lastIndex] */\n      swap1\n      pop\n        /* \"contracts/utils/EnumerableSet.sol\":3241:3250  lastvalue */\n      dup1\n        /* \"contracts/utils/EnumerableSet.sol\":3212:3215  set */\n      dup8\n        /* \"contracts/utils/EnumerableSet.sol\":3212:3223  set._values */\n      0x00\n      add\n        /* \"contracts/utils/EnumerableSet.sol\":3224:3237  toDeleteIndex */\n      dup5\n        /* \"contracts/utils/EnumerableSet.sol\":3212:3238  set._values[toDeleteIndex] */\n      dup2\n      sload\n      dup2\n      lt\n      tag_128\n      jumpi\n      invalid\n    tag_128:\n      swap1\n      0x00\n      mstore\n      keccak256(0x00, 0x20)\n      add\n        /* \"contracts/utils/EnumerableSet.sol\":3212:3250  set._values[toDeleteIndex] = lastvalue */\n      dup2\n      swap1\n      sstore\n      pop\n        /* \"contracts/utils/EnumerableSet.sol\":3358:3359  1 */\n      0x01\n        /* \"contracts/utils/EnumerableSet.sol\":3342:3355  toDeleteIndex */\n      dup4\n        /* \"contracts/utils/EnumerableSet.sol\":3342:3359  toDeleteIndex + 1 */\n      add\n        /* \"contracts/utils/EnumerableSet.sol\":3316:3319  set */\n      dup8\n        /* \"contracts/utils/EnumerableSet.sol\":3316:3328  set._indexes */\n      0x01\n      add\n        /* \"contracts/utils/EnumerableSet.sol\":3316:3339  set._indexes[lastvalue] */\n      0x00\n        /* \"contracts/utils/EnumerableSet.sol\":3329:3338  lastvalue */\n      dup4\n        /* \"contracts/utils/EnumerableSet.sol\":3316:3339  set._indexes[lastvalue] */\n      dup2\n      mstore\n      0x20\n      add\n      swap1\n      dup2\n      mstore\n      0x20\n      add\n      0x00\n      keccak256\n        /* \"contracts/utils/EnumerableSet.sol\":3316:3359  set._indexes[lastvalue] = toDeleteIndex + 1 */\n      dup2\n      swap1\n      sstore\n      pop\n        /* \"contracts/utils/EnumerableSet.sol\":3465:3468  set */\n      dup7\n        /* \"contracts/utils/EnumerableSet.sol\":3465:3476  set._values */\n      0x00\n      add\n        /* \"contracts/utils/EnumerableSet.sol\":3465:3482  set._values.pop() */\n      dup1\n      sload\n      dup1\n      tag_130\n      jumpi\n      invalid\n    tag_130:\n      0x01\n      swap1\n      sub\n      dup2\n      dup2\n      swap1\n      0x00\n      mstore\n      keccak256(0x00, 0x20)\n      add\n      0x00\n      swap1\n      sstore\n      swap1\n      sstore\n        /* \"contracts/utils/EnumerableSet.sol\":3557:3560  set */\n      dup7\n        /* \"contracts/utils/EnumerableSet.sol\":3557:3569  set._indexes */\n      0x01\n      add\n        /* \"contracts/utils/EnumerableSet.sol\":3557:3576  set._indexes[value] */\n      0x00\n        /* \"contracts/utils/EnumerableSet.sol\":3570:3575  value */\n      dup8\n        /* \"contracts/utils/EnumerableSet.sol\":3557:3576  set._indexes[value] */\n      dup2\n      mstore\n      0x20\n      add\n      swap1\n      dup2\n      mstore\n      0x20\n      add\n      0x00\n      keccak256\n        /* \"contracts/utils/EnumerableSet.sol\":3550:3576  delete set._indexes[value] */\n      0x00\n      swap1\n      sstore\n        /* \"contracts/utils/EnumerableSet.sol\":3598:3602  true */\n      0x01\n        /* \"contracts/utils/EnumerableSet.sol\":3591:3602  return true */\n      swap5\n      pop\n      pop\n      pop\n      pop\n      pop\n      jump(tag_124)\n        /* \"contracts/utils/EnumerableSet.sol\":2383:3656  if (valueIndex != 0) { // Equivalent to contains(set, value)... */\n    tag_125:\n        /* \"contracts/utils/EnumerableSet.sol\":3640:3645  false */\n      0x00\n        /* \"contracts/utils/EnumerableSet.sol\":3633:3645  return false */\n      swap2\n      pop\n      pop\n        /* \"contracts/utils/EnumerableSet.sol\":2150:3662  function _remove(Set storage set, bytes32 value) private returns (bool) {... */\n    tag_124:\n      swap3\n      swap2\n      pop\n      pop\n      jump\t// out\n        /* \"--CODEGEN--\":5:135   */\n    tag_134:\n      0x00\n        /* \"--CODEGEN--\":85:91   */\n      dup2\n        /* \"--CODEGEN--\":72:92   */\n      calldataload\n        /* \"--CODEGEN--\":63:92   */\n      swap1\n      pop\n        /* \"--CODEGEN--\":97:130   */\n      tag_136\n        /* \"--CODEGEN--\":124:129   */\n      dup2\n        /* \"--CODEGEN--\":97:130   */\n      jump(tag_137)\n    tag_136:\n        /* \"--CODEGEN--\":57:135   */\n      swap3\n      swap2\n      pop\n      pop\n      jump\n        /* \"--CODEGEN--\":142:272   */\n    tag_138:\n      0x00\n        /* \"--CODEGEN--\":222:228   */\n      dup2\n        /* \"--CODEGEN--\":209:229   */\n      calldataload\n        /* \"--CODEGEN--\":200:229   */\n      swap1\n      pop\n        /* \"--CODEGEN--\":234:267   */\n      tag_140\n        /* \"--CODEGEN--\":261:266   */\n      dup2\n        /* \"--CODEGEN--\":234:267   */\n      jump(tag_141)\n    tag_140:\n        /* \"--CODEGEN--\":194:272   */\n      swap3\n      swap2\n      pop\n      pop\n      jump\n        /* \"--CODEGEN--\":279:409   */\n    tag_142:\n      0x00\n        /* \"--CODEGEN--\":359:365   */\n      dup2\n        /* \"--CODEGEN--\":346:366   */\n      calldataload\n        /* \"--CODEGEN--\":337:366   */\n      swap1\n      pop\n        /* \"--CODEGEN--\":371:404   */\n      tag_144\n        /* \"--CODEGEN--\":398:403   */\n      dup2\n        /* \"--CODEGEN--\":371:404   */\n      jump(tag_145)\n    tag_144:\n        /* \"--CODEGEN--\":331:409   */\n      swap3\n      swap2\n      pop\n      pop\n      jump\n        /* \"--CODEGEN--\":416:657   */\n    tag_15:\n      0x00\n        /* \"--CODEGEN--\":520:522   */\n      0x20\n        /* \"--CODEGEN--\":508:517   */\n      dup3\n        /* \"--CODEGEN--\":499:506   */\n      dup5\n        /* \"--CODEGEN--\":495:518   */\n      sub\n        /* \"--CODEGEN--\":491:523   */\n      slt\n        /* \"--CODEGEN--\":488:490   */\n      iszero\n      tag_147\n      jumpi\n        /* \"--CODEGEN--\":536:537   */\n      0x00\n        /* \"--CODEGEN--\":533:534   */\n      dup1\n        /* \"--CODEGEN--\":526:538   */\n      revert\n        /* \"--CODEGEN--\":488:490   */\n    tag_147:\n        /* \"--CODEGEN--\":571:572   */\n      0x00\n        /* \"--CODEGEN--\":588:641   */\n      tag_148\n        /* \"--CODEGEN--\":633:640   */\n      dup5\n        /* \"--CODEGEN--\":624:630   */\n      dup3\n        /* \"--CODEGEN--\":613:622   */\n      dup6\n        /* \"--CODEGEN--\":609:631   */\n      add\n        /* \"--CODEGEN--\":588:641   */\n      jump(tag_138)\n    tag_148:\n        /* \"--CODEGEN--\":578:641   */\n      swap2\n      pop\n        /* \"--CODEGEN--\":550:647   */\n      pop\n        /* \"--CODEGEN--\":482:657   */\n      swap3\n      swap2\n      pop\n      pop\n      jump\n        /* \"--CODEGEN--\":664:1030   */\n    tag_21:\n      0x00\n      dup1\n        /* \"--CODEGEN--\":785:787   */\n      0x40\n        /* \"--CODEGEN--\":773:782   */\n      dup4\n        /* \"--CODEGEN--\":764:771   */\n      dup6\n        /* \"--CODEGEN--\":760:783   */\n      sub\n        /* \"--CODEGEN--\":756:788   */\n      slt\n        /* \"--CODEGEN--\":753:755   */\n      iszero\n      tag_150\n      jumpi\n        /* \"--CODEGEN--\":801:802   */\n      0x00\n        /* \"--CODEGEN--\":798:799   */\n      dup1\n        /* \"--CODEGEN--\":791:803   */\n      revert\n        /* \"--CODEGEN--\":753:755   */\n    tag_150:\n        /* \"--CODEGEN--\":836:837   */\n      0x00\n        /* \"--CODEGEN--\":853:906   */\n      tag_151\n        /* \"--CODEGEN--\":898:905   */\n      dup6\n        /* \"--CODEGEN--\":889:895   */\n      dup3\n        /* \"--CODEGEN--\":878:887   */\n      dup7\n        /* \"--CODEGEN--\":874:896   */\n      add\n        /* \"--CODEGEN--\":853:906   */\n      jump(tag_138)\n    tag_151:\n        /* \"--CODEGEN--\":843:906   */\n      swap3\n      pop\n        /* \"--CODEGEN--\":815:912   */\n      pop\n        /* \"--CODEGEN--\":943:945   */\n      0x20\n        /* \"--CODEGEN--\":961:1014   */\n      tag_152\n        /* \"--CODEGEN--\":1006:1013   */\n      dup6\n        /* \"--CODEGEN--\":997:1003   */\n      dup3\n        /* \"--CODEGEN--\":986:995   */\n      dup7\n        /* \"--CODEGEN--\":982:1004   */\n      add\n        /* \"--CODEGEN--\":961:1014   */\n      jump(tag_134)\n    tag_152:\n        /* \"--CODEGEN--\":951:1014   */\n      swap2\n      pop\n        /* \"--CODEGEN--\":922:1020   */\n      pop\n        /* \"--CODEGEN--\":747:1030   */\n      swap3\n      pop\n      swap3\n      swap1\n      pop\n      jump\n        /* \"--CODEGEN--\":1037:1403   */\n    tag_32:\n      0x00\n      dup1\n        /* \"--CODEGEN--\":1158:1160   */\n      0x40\n        /* \"--CODEGEN--\":1146:1155   */\n      dup4\n        /* \"--CODEGEN--\":1137:1144   */\n      dup6\n        /* \"--CODEGEN--\":1133:1156   */\n      sub\n        /* \"--CODEGEN--\":1129:1161   */\n      slt\n        /* \"--CODEGEN--\":1126:1128   */\n      iszero\n      tag_154\n      jumpi\n        /* \"--CODEGEN--\":1174:1175   */\n      0x00\n        /* \"--CODEGEN--\":1171:1172   */\n      dup1\n        /* \"--CODEGEN--\":1164:1176   */\n      revert\n        /* \"--CODEGEN--\":1126:1128   */\n    tag_154:\n        /* \"--CODEGEN--\":1209:1210   */\n      0x00\n        /* \"--CODEGEN--\":1226:1279   */\n      tag_155\n        /* \"--CODEGEN--\":1271:1278   */\n      dup6\n        /* \"--CODEGEN--\":1262:1268   */\n      dup3\n        /* \"--CODEGEN--\":1251:1260   */\n      dup7\n        /* \"--CODEGEN--\":1247:1269   */\n      add\n        /* \"--CODEGEN--\":1226:1279   */\n      jump(tag_138)\n    tag_155:\n        /* \"--CODEGEN--\":1216:1279   */\n      swap3\n      pop\n        /* \"--CODEGEN--\":1188:1285   */\n      pop\n        /* \"--CODEGEN--\":1316:1318   */\n      0x20\n        /* \"--CODEGEN--\":1334:1387   */\n      tag_156\n        /* \"--CODEGEN--\":1379:1386   */\n      dup6\n        /* \"--CODEGEN--\":1370:1376   */\n      dup3\n        /* \"--CODEGEN--\":1359:1368   */\n      dup7\n        /* \"--CODEGEN--\":1355:1377   */\n      add\n        /* \"--CODEGEN--\":1334:1387   */\n      jump(tag_142)\n    tag_156:\n        /* \"--CODEGEN--\":1324:1387   */\n      swap2\n      pop\n        /* \"--CODEGEN--\":1295:1393   */\n      pop\n        /* \"--CODEGEN--\":1120:1403   */\n      swap3\n      pop\n      swap3\n      swap1\n      pop\n      jump\n        /* \"--CODEGEN--\":1410:1523   */\n    tag_157:\n        /* \"--CODEGEN--\":1493:1517   */\n      tag_159\n        /* \"--CODEGEN--\":1511:1516   */\n      dup2\n        /* \"--CODEGEN--\":1493:1517   */\n      jump(tag_160)\n    tag_159:\n        /* \"--CODEGEN--\":1488:1491   */\n      dup3\n        /* \"--CODEGEN--\":1481:1518   */\n      mstore\n        /* \"--CODEGEN--\":1475:1523   */\n      pop\n      pop\n      jump\n        /* \"--CODEGEN--\":1530:1634   */\n    tag_161:\n        /* \"--CODEGEN--\":1607:1628   */\n      tag_163\n        /* \"--CODEGEN--\":1622:1627   */\n      dup2\n        /* \"--CODEGEN--\":1607:1628   */\n      jump(tag_164)\n    tag_163:\n        /* \"--CODEGEN--\":1602:1605   */\n      dup3\n        /* \"--CODEGEN--\":1595:1629   */\n      mstore\n        /* \"--CODEGEN--\":1589:1634   */\n      pop\n      pop\n      jump\n        /* \"--CODEGEN--\":1641:1754   */\n    tag_165:\n        /* \"--CODEGEN--\":1724:1748   */\n      tag_167\n        /* \"--CODEGEN--\":1742:1747   */\n      dup2\n        /* \"--CODEGEN--\":1724:1748   */\n      jump(tag_168)\n    tag_167:\n        /* \"--CODEGEN--\":1719:1722   */\n      dup3\n        /* \"--CODEGEN--\":1712:1749   */\n      mstore\n        /* \"--CODEGEN--\":1706:1754   */\n      pop\n      pop\n      jump\n        /* \"--CODEGEN--\":1762:2133   */\n    tag_169:\n      0x00\n        /* \"--CODEGEN--\":1922:1989   */\n      tag_171\n        /* \"--CODEGEN--\":1986:1988   */\n      0x22\n        /* \"--CODEGEN--\":1981:1984   */\n      dup4\n        /* \"--CODEGEN--\":1922:1989   */\n      jump(tag_172)\n    tag_171:\n        /* \"--CODEGEN--\":1915:1989   */\n      swap2\n      pop\n        /* \"--CODEGEN--\":2022:2056   */\n      0x456e756d657261626c655365743a20696e646578206f7574206f6620626f756e\n        /* \"--CODEGEN--\":2018:2019   */\n      0x00\n        /* \"--CODEGEN--\":2013:2016   */\n      dup4\n        /* \"--CODEGEN--\":2009:2020   */\n      add\n        /* \"--CODEGEN--\":2002:2057   */\n      mstore\n        /* \"--CODEGEN--\":2091:2095   */\n      0x6473000000000000000000000000000000000000000000000000000000000000\n        /* \"--CODEGEN--\":2086:2088   */\n      0x20\n        /* \"--CODEGEN--\":2081:2084   */\n      dup4\n        /* \"--CODEGEN--\":2077:2089   */\n      add\n        /* \"--CODEGEN--\":2070:2096   */\n      mstore\n        /* \"--CODEGEN--\":2124:2126   */\n      0x40\n        /* \"--CODEGEN--\":2119:2122   */\n      dup3\n        /* \"--CODEGEN--\":2115:2127   */\n      add\n        /* \"--CODEGEN--\":2108:2127   */\n      swap1\n      pop\n        /* \"--CODEGEN--\":1908:2133   */\n      swap2\n      swap1\n      pop\n      jump\n        /* \"--CODEGEN--\":2142:2526   */\n    tag_173:\n      0x00\n        /* \"--CODEGEN--\":2302:2369   */\n      tag_175\n        /* \"--CODEGEN--\":2366:2368   */\n      0x2f\n        /* \"--CODEGEN--\":2361:2364   */\n      dup4\n        /* \"--CODEGEN--\":2302:2369   */\n      jump(tag_172)\n    tag_175:\n        /* \"--CODEGEN--\":2295:2369   */\n      swap2\n      pop\n        /* \"--CODEGEN--\":2402:2436   */\n      0x416363657373436f6e74726f6c3a2073656e646572206d75737420626520616e\n        /* \"--CODEGEN--\":2398:2399   */\n      0x00\n        /* \"--CODEGEN--\":2393:2396   */\n      dup4\n        /* \"--CODEGEN--\":2389:2400   */\n      add\n        /* \"--CODEGEN--\":2382:2437   */\n      mstore\n        /* \"--CODEGEN--\":2471:2488   */\n      0x2061646d696e20746f206772616e740000000000000000000000000000000000\n        /* \"--CODEGEN--\":2466:2468   */\n      0x20\n        /* \"--CODEGEN--\":2461:2464   */\n      dup4\n        /* \"--CODEGEN--\":2457:2469   */\n      add\n        /* \"--CODEGEN--\":2450:2489   */\n      mstore\n        /* \"--CODEGEN--\":2517:2519   */\n      0x40\n        /* \"--CODEGEN--\":2512:2515   */\n      dup3\n        /* \"--CODEGEN--\":2508:2520   */\n      add\n        /* \"--CODEGEN--\":2501:2520   */\n      swap1\n      pop\n        /* \"--CODEGEN--\":2288:2526   */\n      swap2\n      swap1\n      pop\n      jump\n        /* \"--CODEGEN--\":2535:2920   */\n    tag_176:\n      0x00\n        /* \"--CODEGEN--\":2695:2762   */\n      tag_178\n        /* \"--CODEGEN--\":2759:2761   */\n      0x30\n        /* \"--CODEGEN--\":2754:2757   */\n      dup4\n        /* \"--CODEGEN--\":2695:2762   */\n      jump(tag_172)\n    tag_178:\n        /* \"--CODEGEN--\":2688:2762   */\n      swap2\n      pop\n        /* \"--CODEGEN--\":2795:2829   */\n      0x416363657373436f6e74726f6c3a2073656e646572206d75737420626520616e\n        /* \"--CODEGEN--\":2791:2792   */\n      0x00\n        /* \"--CODEGEN--\":2786:2789   */\n      dup4\n        /* \"--CODEGEN--\":2782:2793   */\n      add\n        /* \"--CODEGEN--\":2775:2830   */\n      mstore\n        /* \"--CODEGEN--\":2864:2882   */\n      0x2061646d696e20746f207265766f6b6500000000000000000000000000000000\n        /* \"--CODEGEN--\":2859:2861   */\n      0x20\n        /* \"--CODEGEN--\":2854:2857   */\n      dup4\n        /* \"--CODEGEN--\":2850:2862   */\n      add\n        /* \"--CODEGEN--\":2843:2883   */\n      mstore\n        /* \"--CODEGEN--\":2911:2913   */\n      0x40\n        /* \"--CODEGEN--\":2906:2909   */\n      dup3\n        /* \"--CODEGEN--\":2902:2914   */\n      add\n        /* \"--CODEGEN--\":2895:2914   */\n      swap1\n      pop\n        /* \"--CODEGEN--\":2681:2920   */\n      swap2\n      swap1\n      pop\n      jump\n        /* \"--CODEGEN--\":2929:3313   */\n    tag_179:\n      0x00\n        /* \"--CODEGEN--\":3089:3156   */\n      tag_181\n        /* \"--CODEGEN--\":3153:3155   */\n      0x2f\n        /* \"--CODEGEN--\":3148:3151   */\n      dup4\n        /* \"--CODEGEN--\":3089:3156   */\n      jump(tag_172)\n    tag_181:\n        /* \"--CODEGEN--\":3082:3156   */\n      swap2\n      pop\n        /* \"--CODEGEN--\":3189:3223   */\n      0x416363657373436f6e74726f6c3a2063616e206f6e6c792072656e6f756e6365\n        /* \"--CODEGEN--\":3185:3186   */\n      0x00\n        /* \"--CODEGEN--\":3180:3183   */\n      dup4\n        /* \"--CODEGEN--\":3176:3187   */\n      add\n        /* \"--CODEGEN--\":3169:3224   */\n      mstore\n        /* \"--CODEGEN--\":3258:3275   */\n      0x20726f6c657320666f722073656c660000000000000000000000000000000000\n        /* \"--CODEGEN--\":3253:3255   */\n      0x20\n        /* \"--CODEGEN--\":3248:3251   */\n      dup4\n        /* \"--CODEGEN--\":3244:3256   */\n      add\n        /* \"--CODEGEN--\":3237:3276   */\n      mstore\n        /* \"--CODEGEN--\":3304:3306   */\n      0x40\n        /* \"--CODEGEN--\":3299:3302   */\n      dup3\n        /* \"--CODEGEN--\":3295:3307   */\n      add\n        /* \"--CODEGEN--\":3288:3307   */\n      swap1\n      pop\n        /* \"--CODEGEN--\":3075:3313   */\n      swap2\n      swap1\n      pop\n      jump\n        /* \"--CODEGEN--\":3321:3434   */\n    tag_182:\n        /* \"--CODEGEN--\":3404:3428   */\n      tag_184\n        /* \"--CODEGEN--\":3422:3427   */\n      dup2\n        /* \"--CODEGEN--\":3404:3428   */\n      jump(tag_185)\n    tag_184:\n        /* \"--CODEGEN--\":3399:3402   */\n      dup3\n        /* \"--CODEGEN--\":3392:3429   */\n      mstore\n        /* \"--CODEGEN--\":3386:3434   */\n      pop\n      pop\n      jump\n        /* \"--CODEGEN--\":3441:3654   */\n    tag_35:\n      0x00\n        /* \"--CODEGEN--\":3559:3561   */\n      0x20\n        /* \"--CODEGEN--\":3548:3557   */\n      dup3\n        /* \"--CODEGEN--\":3544:3562   */\n      add\n        /* \"--CODEGEN--\":3536:3562   */\n      swap1\n      pop\n        /* \"--CODEGEN--\":3573:3644   */\n      tag_187\n        /* \"--CODEGEN--\":3641:3642   */\n      0x00\n        /* \"--CODEGEN--\":3630:3639   */\n      dup4\n        /* \"--CODEGEN--\":3626:3643   */\n      add\n        /* \"--CODEGEN--\":3617:3623   */\n      dup5\n        /* \"--CODEGEN--\":3573:3644   */\n      jump(tag_157)\n    tag_187:\n        /* \"--CODEGEN--\":3530:3654   */\n      swap3\n      swap2\n      pop\n      pop\n      jump\n        /* \"--CODEGEN--\":3661:3862   */\n    tag_29:\n      0x00\n        /* \"--CODEGEN--\":3773:3775   */\n      0x20\n        /* \"--CODEGEN--\":3762:3771   */\n      dup3\n        /* \"--CODEGEN--\":3758:3776   */\n      add\n        /* \"--CODEGEN--\":3750:3776   */\n      swap1\n      pop\n        /* \"--CODEGEN--\":3787:3852   */\n      tag_189\n        /* \"--CODEGEN--\":3849:3850   */\n      0x00\n        /* \"--CODEGEN--\":3838:3847   */\n      dup4\n        /* \"--CODEGEN--\":3834:3851   */\n      add\n        /* \"--CODEGEN--\":3825:3831   */\n      dup5\n        /* \"--CODEGEN--\":3787:3852   */\n      jump(tag_161)\n    tag_189:\n        /* \"--CODEGEN--\":3744:3862   */\n      swap3\n      swap2\n      pop\n      pop\n      jump\n        /* \"--CODEGEN--\":3869:4082   */\n    tag_18:\n      0x00\n        /* \"--CODEGEN--\":3987:3989   */\n      0x20\n        /* \"--CODEGEN--\":3976:3985   */\n      dup3\n        /* \"--CODEGEN--\":3972:3990   */\n      add\n        /* \"--CODEGEN--\":3964:3990   */\n      swap1\n      pop\n        /* \"--CODEGEN--\":4001:4072   */\n      tag_191\n        /* \"--CODEGEN--\":4069:4070   */\n      0x00\n        /* \"--CODEGEN--\":4058:4067   */\n      dup4\n        /* \"--CODEGEN--\":4054:4071   */\n      add\n        /* \"--CODEGEN--\":4045:4051   */\n      dup5\n        /* \"--CODEGEN--\":4001:4072   */\n      jump(tag_165)\n    tag_191:\n        /* \"--CODEGEN--\":3958:4082   */\n      swap3\n      swap2\n      pop\n      pop\n      jump\n        /* \"--CODEGEN--\":4089:4496   */\n    tag_114:\n      0x00\n        /* \"--CODEGEN--\":4280:4282   */\n      0x20\n        /* \"--CODEGEN--\":4269:4278   */\n      dup3\n        /* \"--CODEGEN--\":4265:4283   */\n      add\n        /* \"--CODEGEN--\":4257:4283   */\n      swap1\n      pop\n        /* \"--CODEGEN--\":4330:4339   */\n      dup2\n        /* \"--CODEGEN--\":4324:4328   */\n      dup2\n        /* \"--CODEGEN--\":4320:4340   */\n      sub\n        /* \"--CODEGEN--\":4316:4317   */\n      0x00\n        /* \"--CODEGEN--\":4305:4314   */\n      dup4\n        /* \"--CODEGEN--\":4301:4318   */\n      add\n        /* \"--CODEGEN--\":4294:4341   */\n      mstore\n        /* \"--CODEGEN--\":4355:4486   */\n      tag_193\n        /* \"--CODEGEN--\":4481:4485   */\n      dup2\n        /* \"--CODEGEN--\":4355:4486   */\n      jump(tag_169)\n    tag_193:\n        /* \"--CODEGEN--\":4347:4486   */\n      swap1\n      pop\n        /* \"--CODEGEN--\":4251:4496   */\n      swap2\n      swap1\n      pop\n      jump\n        /* \"--CODEGEN--\":4503:4910   */\n    tag_58:\n      0x00\n        /* \"--CODEGEN--\":4694:4696   */\n      0x20\n        /* \"--CODEGEN--\":4683:4692   */\n      dup3\n        /* \"--CODEGEN--\":4679:4697   */\n      add\n        /* \"--CODEGEN--\":4671:4697   */\n      swap1\n      pop\n        /* \"--CODEGEN--\":4744:4753   */\n      dup2\n        /* \"--CODEGEN--\":4738:4742   */\n      dup2\n        /* \"--CODEGEN--\":4734:4754   */\n      sub\n        /* \"--CODEGEN--\":4730:4731   */\n      0x00\n        /* \"--CODEGEN--\":4719:4728   */\n      dup4\n        /* \"--CODEGEN--\":4715:4732   */\n      add\n        /* \"--CODEGEN--\":4708:4755   */\n      mstore\n        /* \"--CODEGEN--\":4769:4900   */\n      tag_195\n        /* \"--CODEGEN--\":4895:4899   */\n      dup2\n        /* \"--CODEGEN--\":4769:4900   */\n      jump(tag_173)\n    tag_195:\n        /* \"--CODEGEN--\":4761:4900   */\n      swap1\n      pop\n        /* \"--CODEGEN--\":4665:4910   */\n      swap2\n      swap1\n      pop\n      jump\n        /* \"--CODEGEN--\":4917:5324   */\n    tag_83:\n      0x00\n        /* \"--CODEGEN--\":5108:5110   */\n      0x20\n        /* \"--CODEGEN--\":5097:5106   */\n      dup3\n        /* \"--CODEGEN--\":5093:5111   */\n      add\n        /* \"--CODEGEN--\":5085:5111   */\n      swap1\n      pop\n        /* \"--CODEGEN--\":5158:5167   */\n      dup2\n        /* \"--CODEGEN--\":5152:5156   */\n      dup2\n        /* \"--CODEGEN--\":5148:5168   */\n      sub\n        /* \"--CODEGEN--\":5144:5145   */\n      0x00\n        /* \"--CODEGEN--\":5133:5142   */\n      dup4\n        /* \"--CODEGEN--\":5129:5146   */\n      add\n        /* \"--CODEGEN--\":5122:5169   */\n      mstore\n        /* \"--CODEGEN--\":5183:5314   */\n      tag_197\n        /* \"--CODEGEN--\":5309:5313   */\n      dup2\n        /* \"--CODEGEN--\":5183:5314   */\n      jump(tag_176)\n    tag_197:\n        /* \"--CODEGEN--\":5175:5314   */\n      swap1\n      pop\n        /* \"--CODEGEN--\":5079:5324   */\n      swap2\n      swap1\n      pop\n      jump\n        /* \"--CODEGEN--\":5331:5738   */\n    tag_65:\n      0x00\n        /* \"--CODEGEN--\":5522:5524   */\n      0x20\n        /* \"--CODEGEN--\":5511:5520   */\n      dup3\n        /* \"--CODEGEN--\":5507:5525   */\n      add\n        /* \"--CODEGEN--\":5499:5525   */\n      swap1\n      pop\n        /* \"--CODEGEN--\":5572:5581   */\n      dup2\n        /* \"--CODEGEN--\":5566:5570   */\n      dup2\n        /* \"--CODEGEN--\":5562:5582   */\n      sub\n        /* \"--CODEGEN--\":5558:5559   */\n      0x00\n        /* \"--CODEGEN--\":5547:5556   */\n      dup4\n        /* \"--CODEGEN--\":5543:5560   */\n      add\n        /* \"--CODEGEN--\":5536:5583   */\n      mstore\n        /* \"--CODEGEN--\":5597:5728   */\n      tag_199\n        /* \"--CODEGEN--\":5723:5727   */\n      dup2\n        /* \"--CODEGEN--\":5597:5728   */\n      jump(tag_179)\n    tag_199:\n        /* \"--CODEGEN--\":5589:5728   */\n      swap1\n      pop\n        /* \"--CODEGEN--\":5493:5738   */\n      swap2\n      swap1\n      pop\n      jump\n        /* \"--CODEGEN--\":5745:5958   */\n    tag_47:\n      0x00\n        /* \"--CODEGEN--\":5863:5865   */\n      0x20\n        /* \"--CODEGEN--\":5852:5861   */\n      dup3\n        /* \"--CODEGEN--\":5848:5866   */\n      add\n        /* \"--CODEGEN--\":5840:5866   */\n      swap1\n      pop\n        /* \"--CODEGEN--\":5877:5948   */\n      tag_201\n        /* \"--CODEGEN--\":5945:5946   */\n      0x00\n        /* \"--CODEGEN--\":5934:5943   */\n      dup4\n        /* \"--CODEGEN--\":5930:5947   */\n      add\n        /* \"--CODEGEN--\":5921:5927   */\n      dup5\n        /* \"--CODEGEN--\":5877:5948   */\n      jump(tag_182)\n    tag_201:\n        /* \"--CODEGEN--\":5834:5958   */\n      swap3\n      swap2\n      pop\n      pop\n      jump\n        /* \"--CODEGEN--\":5966:6129   */\n    tag_172:\n      0x00\n        /* \"--CODEGEN--\":6081:6087   */\n      dup3\n        /* \"--CODEGEN--\":6076:6079   */\n      dup3\n        /* \"--CODEGEN--\":6069:6088   */\n      mstore\n        /* \"--CODEGEN--\":6118:6122   */\n      0x20\n        /* \"--CODEGEN--\":6113:6116   */\n      dup3\n        /* \"--CODEGEN--\":6109:6123   */\n      add\n        /* \"--CODEGEN--\":6094:6123   */\n      swap1\n      pop\n        /* \"--CODEGEN--\":6062:6129   */\n      swap3\n      swap2\n      pop\n      pop\n      jump\n        /* \"--CODEGEN--\":6137:6228   */\n    tag_160:\n      0x00\n        /* \"--CODEGEN--\":6199:6223   */\n      tag_204\n        /* \"--CODEGEN--\":6217:6222   */\n      dup3\n        /* \"--CODEGEN--\":6199:6223   */\n      jump(tag_205)\n    tag_204:\n        /* \"--CODEGEN--\":6188:6223   */\n      swap1\n      pop\n        /* \"--CODEGEN--\":6182:6228   */\n      swap2\n      swap1\n      pop\n      jump\n        /* \"--CODEGEN--\":6235:6320   */\n    tag_164:\n      0x00\n        /* \"--CODEGEN--\":6308:6313   */\n      dup2\n        /* \"--CODEGEN--\":6301:6314   */\n      iszero\n        /* \"--CODEGEN--\":6294:6315   */\n      iszero\n        /* \"--CODEGEN--\":6283:6315   */\n      swap1\n      pop\n        /* \"--CODEGEN--\":6277:6320   */\n      swap2\n      swap1\n      pop\n      jump\n        /* \"--CODEGEN--\":6327:6399   */\n    tag_168:\n      0x00\n        /* \"--CODEGEN--\":6389:6394   */\n      dup2\n        /* \"--CODEGEN--\":6378:6394   */\n      swap1\n      pop\n        /* \"--CODEGEN--\":6372:6399   */\n      swap2\n      swap1\n      pop\n      jump\n        /* \"--CODEGEN--\":6406:6527   */\n    tag_205:\n      0x00\n        /* \"--CODEGEN--\":6479:6521   */\n      0xffffffffffffffffffffffffffffffffffffffff\n        /* \"--CODEGEN--\":6472:6477   */\n      dup3\n        /* \"--CODEGEN--\":6468:6522   */\n      and\n        /* \"--CODEGEN--\":6457:6522   */\n      swap1\n      pop\n        /* \"--CODEGEN--\":6451:6527   */\n      swap2\n      swap1\n      pop\n      jump\n        /* \"--CODEGEN--\":6534:6606   */\n    tag_185:\n      0x00\n        /* \"--CODEGEN--\":6596:6601   */\n      dup2\n        /* \"--CODEGEN--\":6585:6601   */\n      swap1\n      pop\n        /* \"--CODEGEN--\":6579:6606   */\n      swap2\n      swap1\n      pop\n      jump\n        /* \"--CODEGEN--\":6613:6730   */\n    tag_137:\n        /* \"--CODEGEN--\":6682:6706   */\n      tag_211\n        /* \"--CODEGEN--\":6700:6705   */\n      dup2\n        /* \"--CODEGEN--\":6682:6706   */\n      jump(tag_160)\n    tag_211:\n        /* \"--CODEGEN--\":6675:6680   */\n      dup2\n        /* \"--CODEGEN--\":6672:6707   */\n      eq\n        /* \"--CODEGEN--\":6662:6664   */\n      tag_212\n      jumpi\n        /* \"--CODEGEN--\":6721:6722   */\n      0x00\n        /* \"--CODEGEN--\":6718:6719   */\n      dup1\n        /* \"--CODEGEN--\":6711:6723   */\n      revert\n        /* \"--CODEGEN--\":6662:6664   */\n    tag_212:\n        /* \"--CODEGEN--\":6656:6730   */\n      pop\n      jump\n        /* \"--CODEGEN--\":6737:6854   */\n    tag_141:\n        /* \"--CODEGEN--\":6806:6830   */\n      tag_214\n        /* \"--CODEGEN--\":6824:6829   */\n      dup2\n        /* \"--CODEGEN--\":6806:6830   */\n      jump(tag_168)\n    tag_214:\n        /* \"--CODEGEN--\":6799:6804   */\n      dup2\n        /* \"--CODEGEN--\":6796:6831   */\n      eq\n        /* \"--CODEGEN--\":6786:6788   */\n      tag_215\n      jumpi\n        /* \"--CODEGEN--\":6845:6846   */\n      0x00\n        /* \"--CODEGEN--\":6842:6843   */\n      dup1\n        /* \"--CODEGEN--\":6835:6847   */\n      revert\n        /* \"--CODEGEN--\":6786:6788   */\n    tag_215:\n        /* \"--CODEGEN--\":6780:6854   */\n      pop\n      jump\n        /* \"--CODEGEN--\":6861:6978   */\n    tag_145:\n        /* \"--CODEGEN--\":6930:6954   */\n      tag_217\n        /* \"--CODEGEN--\":6948:6953   */\n      dup2\n        /* \"--CODEGEN--\":6930:6954   */\n      jump(tag_185)\n    tag_217:\n        /* \"--CODEGEN--\":6923:6928   */\n      dup2\n        /* \"--CODEGEN--\":6920:6955   */\n      eq\n        /* \"--CODEGEN--\":6910:6912   */\n      tag_218\n      jumpi\n        /* \"--CODEGEN--\":6969:6970   */\n      0x00\n        /* \"--CODEGEN--\":6966:6967   */\n      dup1\n        /* \"--CODEGEN--\":6959:6971   */\n      revert\n        /* \"--CODEGEN--\":6910:6912   */\n    tag_218:\n        /* \"--CODEGEN--\":6904:6978   */\n      pop\n      jump\n\n    auxdata: 0xa2646970667358221220dc8b5be6c8094df1edb98c54cb9087a9caf85de6f6040e642863c432ac64824364736f6c63430006040033\n}\n",
				"bytecode": {
					"linkReferences": {},
					"object": "608060405260008060006101000a81548160ff021916908315150217905550610c818061002d6000396000f3fe608060405234801561001057600080fd5b50600436106100935760003560e01c80639010d07c116100665780639010d07c1461011e57806391d148541461014e578063a217fddf1461017e578063ca15c8731461019c578063d547741f146101cc57610093565b8063248a9ca3146100985780632f2ff15d146100c857806336568abe146100e45780635c975abb14610100575b600080fd5b6100b260048036038101906100ad9190610842565b6101e8565b6040516100bf9190610aed565b60405180910390f35b6100e260048036038101906100dd919061086b565b610208565b005b6100fe60048036038101906100f9919061086b565b61027c565b005b6101086102ff565b6040516101159190610ad2565b60405180910390f35b610138600480360381019061013391906108a7565b610315565b6040516101459190610ab7565b60405180910390f35b6101686004803603810190610163919061086b565b610347565b6040516101759190610ad2565b60405180910390f35b610186610379565b6040516101939190610aed565b60405180910390f35b6101b660048036038101906101b19190610842565b610380565b6040516101c39190610b88565b60405180910390f35b6101e660048036038101906101e1919061086b565b6103a7565b005b600060016000838152602001908152602001600020600201549050919050565b61022f600160008481526020019081526020016000206002015461022a61041b565b610347565b61026e576040517f08c379a000000000000000000000000000000000000000000000000000000000815260040161026590610b28565b60405180910390fd5b6102788282610423565b5050565b61028461041b565b73ffffffffffffffffffffffffffffffffffffffff168173ffffffffffffffffffffffffffffffffffffffff16146102f1576040517f08c379a00000000000000000000000000000000000000000000000000000000081526004016102e890610b68565b60405180910390fd5b6102fb82826104b7565b5050565b60008060009054906101000a900460ff16905090565b600061033f826001600086815260200190815260200160002060000161054b90919063ffffffff16565b905092915050565b6000610371826001600086815260200190815260200160002060000161056590919063ffffffff16565b905092915050565b6000801b81565b60006103a060016000848152602001908152602001600020600001610595565b9050919050565b6103ce60016000848152602001908152602001600020600201546103c961041b565b610347565b61040d576040517f08c379a000000000000000000000000000000000000000000000000000000000815260040161040490610b48565b60405180910390fd5b61041782826104b7565b5050565b600033905090565b61044b81600160008581526020019081526020016000206000016105aa90919063ffffffff16565b156104b35761045861041b565b73ffffffffffffffffffffffffffffffffffffffff168173ffffffffffffffffffffffffffffffffffffffff16837f2f8788117e7eff1d82e926ec794901d17c78024a50270940304540a733656f0d60405160405180910390a45b5050565b6104df81600160008581526020019081526020016000206000016105da90919063ffffffff16565b15610547576104ec61041b565b73ffffffffffffffffffffffffffffffffffffffff168173ffffffffffffffffffffffffffffffffffffffff16837ff6391f5c32d9c69d2a47ea670b442974b53935d1edc7fd64eb21e047a839171b60405160405180910390a45b5050565b600061055a836000018361060a565b60001c905092915050565b600061058d836000018373ffffffffffffffffffffffffffffffffffffffff1660001b610677565b905092915050565b60006105a38260000161069a565b9050919050565b60006105d2836000018373ffffffffffffffffffffffffffffffffffffffff1660001b6106ab565b905092915050565b6000610602836000018373ffffffffffffffffffffffffffffffffffffffff1660001b61071b565b905092915050565b600081836000018054905011610655576040517f08c379a000000000000000000000000000000000000000000000000000000000815260040161064c90610b08565b60405180910390fd5b82600001828154811061066457fe5b9060005260206000200154905092915050565b600080836001016000848152602001908152602001600020541415905092915050565b600081600001805490509050919050565b60006106b78383610677565b610710578260000182908060018154018082558091505060019003906000526020600020016000909190919091505582600001805490508360010160008481526020019081526020016000208190555060019050610715565b600090505b92915050565b600080836001016000848152602001908152602001600020549050600081146107f7576000600182039050600060018660000180549050039050600086600001828154811061076657fe5b906000526020600020015490508087600001848154811061078357fe5b90600052602060002001819055506001830187600101600083815260200190815260200160002081905550866000018054806107bb57fe5b600190038181906000526020600020016000905590558660010160008781526020019081526020016000206000905560019450505050506107fd565b60009150505b92915050565b60008135905061081281610c06565b92915050565b60008135905061082781610c1d565b92915050565b60008135905061083c81610c34565b92915050565b60006020828403121561085457600080fd5b600061086284828501610818565b91505092915050565b6000806040838503121561087e57600080fd5b600061088c85828601610818565b925050602061089d85828601610803565b9150509250929050565b600080604083850312156108ba57600080fd5b60006108c885828601610818565b92505060206108d98582860161082d565b9150509250929050565b6108ec81610bb4565b82525050565b6108fb81610bc6565b82525050565b61090a81610bd2565b82525050565b600061091d602283610ba3565b91507f456e756d657261626c655365743a20696e646578206f7574206f6620626f756e60008301527f64730000000000000000000000000000000000000000000000000000000000006020830152604082019050919050565b6000610983602f83610ba3565b91507f416363657373436f6e74726f6c3a2073656e646572206d75737420626520616e60008301527f2061646d696e20746f206772616e7400000000000000000000000000000000006020830152604082019050919050565b60006109e9603083610ba3565b91507f416363657373436f6e74726f6c3a2073656e646572206d75737420626520616e60008301527f2061646d696e20746f207265766f6b65000000000000000000000000000000006020830152604082019050919050565b6000610a4f602f83610ba3565b91507f416363657373436f6e74726f6c3a2063616e206f6e6c792072656e6f756e636560008301527f20726f6c657320666f722073656c6600000000000000000000000000000000006020830152604082019050919050565b610ab181610bfc565b82525050565b6000602082019050610acc60008301846108e3565b92915050565b6000602082019050610ae760008301846108f2565b92915050565b6000602082019050610b026000830184610901565b92915050565b60006020820190508181036000830152610b2181610910565b9050919050565b60006020820190508181036000830152610b4181610976565b9050919050565b60006020820190508181036000830152610b61816109dc565b9050919050565b60006020820190508181036000830152610b8181610a42565b9050919050565b6000602082019050610b9d6000830184610aa8565b92915050565b600082825260208201905092915050565b6000610bbf82610bdc565b9050919050565b60008115159050919050565b6000819050919050565b600073ffffffffffffffffffffffffffffffffffffffff82169050919050565b6000819050919050565b610c0f81610bb4565b8114610c1a57600080fd5b50565b610c2681610bd2565b8114610c3157600080fd5b50565b610c3d81610bfc565b8114610c4857600080fd5b5056fea2646970667358221220dc8b5be6c8094df1edb98c54cb9087a9caf85de6f6040e642863c432ac64824364736f6c63430006040033",
					"opcodes": "PUSH1 0x80 PUSH1 0x40 MSTORE PUSH1 0x0 DUP1 PUSH1 0x0 PUSH2 0x100 EXP DUP2 SLOAD DUP2 PUSH1 0xFF MUL NOT AND SWAP1 DUP4 ISZERO ISZERO MUL OR SWAP1 SSTORE POP PUSH2 0xC81 DUP1 PUSH2 0x2D PUSH1 0x0 CODECOPY PUSH1 0x0 RETURN INVALID PUSH1 0x80 PUSH1 0x40 MSTORE CALLVALUE DUP1 ISZERO PUSH2 0x10 JUMPI PUSH1 0x0 DUP1 REVERT JUMPDEST POP PUSH1 0x4 CALLDATASIZE LT PUSH2 0x93 JUMPI PUSH1 0x0 CALLDATALOAD PUSH1 0xE0 SHR DUP1 PUSH4 0x9010D07C GT PUSH2 0x66 JUMPI DUP1 PUSH4 0x9010D07C EQ PUSH2 0x11E JUMPI DUP1 PUSH4 0x91D14854 EQ PUSH2 0x14E JUMPI DUP1 PUSH4 0xA217FDDF EQ PUSH2 0x17E JUMPI DUP1 PUSH4 0xCA15C873 EQ PUSH2 0x19C JUMPI DUP1 PUSH4 0xD547741F EQ PUSH2 0x1CC JUMPI PUSH2 0x93 JUMP JUMPDEST DUP1 PUSH4 0x248A9CA3 EQ PUSH2 0x98 JUMPI DUP1 PUSH4 0x2F2FF15D EQ PUSH2 0xC8 JUMPI DUP1 PUSH4 0x36568ABE EQ PUSH2 0xE4 JUMPI DUP1 PUSH4 0x5C975ABB EQ PUSH2 0x100 JUMPI JUMPDEST PUSH1 0x0 DUP1 REVERT JUMPDEST PUSH2 0xB2 PUSH1 0x4 DUP1 CALLDATASIZE SUB DUP2 ADD SWAP1 PUSH2 0xAD SWAP2 SWAP1 PUSH2 0x842 JUMP JUMPDEST PUSH2 0x1E8 JUMP JUMPDEST PUSH1 0x40 MLOAD PUSH2 0xBF SWAP2 SWAP1 PUSH2 0xAED JUMP JUMPDEST PUSH1 0x40 MLOAD DUP1 SWAP2 SUB SWAP1 RETURN JUMPDEST PUSH2 0xE2 PUSH1 0x4 DUP1 CALLDATASIZE SUB DUP2 ADD SWAP1 PUSH2 0xDD SWAP2 SWAP1 PUSH2 0x86B JUMP JUMPDEST PUSH2 0x208 JUMP JUMPDEST STOP JUMPDEST PUSH2 0xFE PUSH1 0x4 DUP1 CALLDATASIZE SUB DUP2 ADD SWAP1 PUSH2 0xF9 SWAP2 SWAP1 PUSH2 0x86B JUMP JUMPDEST PUSH2 0x27C JUMP JUMPDEST STOP JUMPDEST PUSH2 0x108 PUSH2 0x2FF JUMP JUMPDEST PUSH1 0x40 MLOAD PUSH2 0x115 SWAP2 SWAP1 PUSH2 0xAD2 JUMP JUMPDEST PUSH1 0x40 MLOAD DUP1 SWAP2 SUB SWAP1 RETURN JUMPDEST PUSH2 0x138 PUSH1 0x4 DUP1 CALLDATASIZE SUB DUP2 ADD SWAP1 PUSH2 0x133 SWAP2 SWAP1 PUSH2 0x8A7 JUMP JUMPDEST PUSH2 0x315 JUMP JUMPDEST PUSH1 0x40 MLOAD PUSH2 0x145 SWAP2 SWAP1 PUSH2 0xAB7 JUMP JUMPDEST PUSH1 0x40 MLOAD DUP1 SWAP2 SUB SWAP1 RETURN JUMPDEST PUSH2 0x168 PUSH1 0x4 DUP1 CALLDATASIZE SUB DUP2 ADD SWAP1 PUSH2 0x163 SWAP2 SWAP1 PUSH2 0x86B JUMP JUMPDEST PUSH2 0x347 JUMP JUMPDEST PUSH1 0x40 MLOAD PUSH2 0x175 SWAP2 SWAP1 PUSH2 0xAD2 JUMP JUMPDEST PUSH1 0x40 MLOAD DUP1 SWAP2 SUB SWAP1 RETURN JUMPDEST PUSH2 0x186 PUSH2 0x379 JUMP JUMPDEST PUSH1 0x40 MLOAD PUSH2 0x193 SWAP2 SWAP1 PUSH2 0xAED JUMP JUMPDEST PUSH1 0x40 MLOAD DUP1 SWAP2 SUB SWAP1 RETURN JUMPDEST PUSH2 0x1B6 PUSH1 0x4 DUP1 CALLDATASIZE SUB DUP2 ADD SWAP1 PUSH2 0x1B1 SWAP2 SWAP1 PUSH2 0x842 JUMP JUMPDEST PUSH2 0x380 JUMP JUMPDEST PUSH1 0x40 MLOAD PUSH2 0x1C3 SWAP2 SWAP1 PUSH2 0xB88 JUMP JUMPDEST PUSH1 0x40 MLOAD DUP1 SWAP2 SUB SWAP1 RETURN JUMPDEST PUSH2 0x1E6 PUSH1 0x4 DUP1 CALLDATASIZE SUB DUP2 ADD SWAP1 PUSH2 0x1E1 SWAP2 SWAP1 PUSH2 0x86B JUMP JUMPDEST PUSH2 0x3A7 JUMP JUMPDEST STOP JUMPDEST PUSH1 0x0 PUSH1 0x1 PUSH1 0x0 DUP4 DUP2 MSTORE PUSH1 0x20 ADD SWAP1 DUP2 MSTORE PUSH1 0x20 ADD PUSH1 0x0 KECCAK256 PUSH1 0x2 ADD SLOAD SWAP1 POP SWAP2 SWAP1 POP JUMP JUMPDEST PUSH2 0x22F PUSH1 0x1 PUSH1 0x0 DUP5 DUP2 MSTORE PUSH1 0x20 ADD SWAP1 DUP2 MSTORE PUSH1 0x20 ADD PUSH1 0x0 KECCAK256 PUSH1 0x2 ADD SLOAD PUSH2 0x22A PUSH2 0x41B JUMP JUMPDEST PUSH2 0x347 JUMP JUMPDEST PUSH2 0x26E JUMPI PUSH1 0x40 MLOAD PUSH32 0x8C379A000000000000000000000000000000000000000000000000000000000 DUP2 MSTORE PUSH1 0x4 ADD PUSH2 0x265 SWAP1 PUSH2 0xB28 JUMP JUMPDEST PUSH1 0x40 MLOAD DUP1 SWAP2 SUB SWAP1 REVERT JUMPDEST PUSH2 0x278 DUP3 DUP3 PUSH2 0x423 JUMP JUMPDEST POP POP JUMP JUMPDEST PUSH2 0x284 PUSH2 0x41B JUMP JUMPDEST PUSH20 0xFFFFFFFFFFFFFFFFFFFFFFFFFFFFFFFFFFFFFFFF AND DUP2 PUSH20 0xFFFFFFFFFFFFFFFFFFFFFFFFFFFFFFFFFFFFFFFF AND EQ PUSH2 0x2F1 JUMPI PUSH1 0x40 MLOAD PUSH32 0x8C379A000000000000000000000000000000000000000000000000000000000 DUP2 MSTORE PUSH1 0x4 ADD PUSH2 0x2E8 SWAP1 PUSH2 0xB68 JUMP JUMPDEST PUSH1 0x40 MLOAD DUP1 SWAP2 SUB SWAP1 REVERT JUMPDEST PUSH2 0x2FB DUP3 DUP3 PUSH2 0x4B7 JUMP JUMPDEST POP POP JUMP JUMPDEST PUSH1 0x0 DUP1 PUSH1 0x0 SWAP1 SLOAD SWAP1 PUSH2 0x100 EXP SWAP1 DIV PUSH1 0xFF AND SWAP1 POP SWAP1 JUMP JUMPDEST PUSH1 0x0 PUSH2 0x33F DUP3 PUSH1 0x1 PUSH1 0x0 DUP7 DUP2 MSTORE PUSH1 0x20 ADD SWAP1 DUP2 MSTORE PUSH1 0x20 ADD PUSH1 0x0 KECCAK256 PUSH1 0x0 ADD PUSH2 0x54B SWAP1 SWAP2 SWAP1 PUSH4 0xFFFFFFFF AND JUMP JUMPDEST SWAP1 POP SWAP3 SWAP2 POP POP JUMP JUMPDEST PUSH1 0x0 PUSH2 0x371 DUP3 PUSH1 0x1 PUSH1 0x0 DUP7 DUP2 MSTORE PUSH1 0x20 ADD SWAP1 DUP2 MSTORE PUSH1 0x20 ADD PUSH1 0x0 KECCAK256 PUSH1 0x0 ADD PUSH2 0x565 SWAP1 SWAP2 SWAP1 PUSH4 0xFFFFFFFF AND JUMP JUMPDEST SWAP1 POP SWAP3 SWAP2 POP POP JUMP JUMPDEST PUSH1 0x0 DUP1 SHL DUP2 JUMP JUMPDEST PUSH1 0x0 PUSH2 0x3A0 PUSH1 0x1 PUSH1 0x0 DUP5 DUP2 MSTORE PUSH1 0x20 ADD SWAP1 DUP2 MSTORE PUSH1 0x20 ADD PUSH1 0x0 KECCAK256 PUSH1 0x0 ADD PUSH2 0x595 JUMP JUMPDEST SWAP1 POP SWAP2 SWAP1 POP JUMP JUMPDEST PUSH2 0x3CE PUSH1 0x1 PUSH1 0x0 DUP5 DUP2 MSTORE PUSH1 0x20 ADD SWAP1 DUP2 MSTORE PUSH1 0x20 ADD PUSH1 0x0 KECCAK256 PUSH1 0x2 ADD SLOAD PUSH2 0x3C9 PUSH2 0x41B JUMP JUMPDEST PUSH2 0x347 JUMP JUMPDEST PUSH2 0x40D JUMPI PUSH1 0x40 MLOAD PUSH32 0x8C379A000000000000000000000000000000000000000000000000000000000 DUP2 MSTORE PUSH1 0x4 ADD PUSH2 0x404 SWAP1 PUSH2 0xB48 JUMP JUMPDEST PUSH1 0x40 MLOAD DUP1 SWAP2 SUB SWAP1 REVERT JUMPDEST PUSH2 0x417 DUP3 DUP3 PUSH2 0x4B7 JUMP JUMPDEST POP POP JUMP JUMPDEST PUSH1 0x0 CALLER SWAP1 POP SWAP1 JUMP JUMPDEST PUSH2 0x44B DUP2 PUSH1 0x1 PUSH1 0x0 DUP6 DUP2 MSTORE PUSH1 0x20 ADD SWAP1 DUP2 MSTORE PUSH1 0x20 ADD PUSH1 0x0 KECCAK256 PUSH1 0x0 ADD PUSH2 0x5AA SWAP1 SWAP2 SWAP1 PUSH4 0xFFFFFFFF AND JUMP JUMPDEST ISZERO PUSH2 0x4B3 JUMPI PUSH2 0x458 PUSH2 0x41B JUMP JUMPDEST PUSH20 0xFFFFFFFFFFFFFFFFFFFFFFFFFFFFFFFFFFFFFFFF AND DUP2 PUSH20 0xFFFFFFFFFFFFFFFFFFFFFFFFFFFFFFFFFFFFFFFF AND DUP4 PUSH32 0x2F8788117E7EFF1D82E926EC794901D17C78024A50270940304540A733656F0D PUSH1 0x40 MLOAD PUSH1 0x40 MLOAD DUP1 SWAP2 SUB SWAP1 LOG4 JUMPDEST POP POP JUMP JUMPDEST PUSH2 0x4DF DUP2 PUSH1 0x1 PUSH1 0x0 DUP6 DUP2 MSTORE PUSH1 0x20 ADD SWAP1 DUP2 MSTORE PUSH1 0x20 ADD PUSH1 0x0 KECCAK256 PUSH1 0x0 ADD PUSH2 0x5DA SWAP1 SWAP2 SWAP1 PUSH4 0xFFFFFFFF AND JUMP JUMPDEST ISZERO PUSH2 0x547 JUMPI PUSH2 0x4EC PUSH2 0x41B JUMP JUMPDEST PUSH20 0xFFFFFFFFFFFFFFFFFFFFFFFFFFFFFFFFFFFFFFFF AND DUP2 PUSH20 0xFFFFFFFFFFFFFFFFFFFFFFFFFFFFFFFFFFFFFFFF AND DUP4 PUSH32 0xF6391F5C32D9C69D2A47EA670B442974B53935D1EDC7FD64EB21E047A839171B PUSH1 0x40 MLOAD PUSH1 0x40 MLOAD DUP1 SWAP2 SUB SWAP1 LOG4 JUMPDEST POP POP JUMP JUMPDEST PUSH1 0x0 PUSH2 0x55A DUP4 PUSH1 0x0 ADD DUP4 PUSH2 0x60A JUMP JUMPDEST PUSH1 0x0 SHR SWAP1 POP SWAP3 SWAP2 POP POP JUMP JUMPDEST PUSH1 0x0 PUSH2 0x58D DUP4 PUSH1 0x0 ADD DUP4 PUSH20 0xFFFFFFFFFFFFFFFFFFFFFFFFFFFFFFFFFFFFFFFF AND PUSH1 0x0 SHL PUSH2 0x677 JUMP JUMPDEST SWAP1 POP SWAP3 SWAP2 POP POP JUMP JUMPDEST PUSH1 0x0 PUSH2 0x5A3 DUP3 PUSH1 0x0 ADD PUSH2 0x69A JUMP JUMPDEST SWAP1 POP SWAP2 SWAP1 POP JUMP JUMPDEST PUSH1 0x0 PUSH2 0x5D2 DUP4 PUSH1 0x0 ADD DUP4 PUSH20 0xFFFFFFFFFFFFFFFFFFFFFFFFFFFFFFFFFFFFFFFF AND PUSH1 0x0 SHL PUSH2 0x6AB JUMP JUMPDEST SWAP1 POP SWAP3 SWAP2 POP POP JUMP JUMPDEST PUSH1 0x0 PUSH2 0x602 DUP4 PUSH1 0x0 ADD DUP4 PUSH20 0xFFFFFFFFFFFFFFFFFFFFFFFFFFFFFFFFFFFFFFFF AND PUSH1 0x0 SHL PUSH2 0x71B JUMP JUMPDEST SWAP1 POP SWAP3 SWAP2 POP POP JUMP JUMPDEST PUSH1 0x0 DUP2 DUP4 PUSH1 0x0 ADD DUP1 SLOAD SWAP1 POP GT PUSH2 0x655 JUMPI PUSH1 0x40 MLOAD PUSH32 0x8C379A000000000000000000000000000000000000000000000000000000000 DUP2 MSTORE PUSH1 0x4 ADD PUSH2 0x64C SWAP1 PUSH2 0xB08 JUMP JUMPDEST PUSH1 0x40 MLOAD DUP1 SWAP2 SUB SWAP1 REVERT JUMPDEST DUP3 PUSH1 0x0 ADD DUP3 DUP2 SLOAD DUP2 LT PUSH2 0x664 JUMPI INVALID JUMPDEST SWAP1 PUSH1 0x0 MSTORE PUSH1 0x20 PUSH1 0x0 KECCAK256 ADD SLOAD SWAP1 POP SWAP3 SWAP2 POP POP JUMP JUMPDEST PUSH1 0x0 DUP1 DUP4 PUSH1 0x1 ADD PUSH1 0x0 DUP5 DUP2 MSTORE PUSH1 0x20 ADD SWAP1 DUP2 MSTORE PUSH1 0x20 ADD PUSH1 0x0 KECCAK256 SLOAD EQ ISZERO SWAP1 POP SWAP3 SWAP2 POP POP JUMP JUMPDEST PUSH1 0x0 DUP2 PUSH1 0x0 ADD DUP1 SLOAD SWAP1 POP SWAP1 POP SWAP2 SWAP1 POP JUMP JUMPDEST PUSH1 0x0 PUSH2 0x6B7 DUP4 DUP4 PUSH2 0x677 JUMP JUMPDEST PUSH2 0x710 JUMPI DUP3 PUSH1 0x0 ADD DUP3 SWAP1 DUP1 PUSH1 0x1 DUP2 SLOAD ADD DUP1 DUP3 SSTORE DUP1 SWAP2 POP POP PUSH1 0x1 SWAP1 SUB SWAP1 PUSH1 0x0 MSTORE PUSH1 0x20 PUSH1 0x0 KECCAK256 ADD PUSH1 0x0 SWAP1 SWAP2 SWAP1 SWAP2 SWAP1 SWAP2 POP SSTORE DUP3 PUSH1 0x0 ADD DUP1 SLOAD SWAP1 POP DUP4 PUSH1 0x1 ADD PUSH1 0x0 DUP5 DUP2 MSTORE PUSH1 0x20 ADD SWAP1 DUP2 MSTORE PUSH1 0x20 ADD PUSH1 0x0 KECCAK256 DUP2 SWAP1 SSTORE POP PUSH1 0x1 SWAP1 POP PUSH2 0x715 JUMP JUMPDEST PUSH1 0x0 SWAP1 POP JUMPDEST SWAP3 SWAP2 POP POP JUMP JUMPDEST PUSH1 0x0 DUP1 DUP4 PUSH1 0x1 ADD PUSH1 0x0 DUP5 DUP2 MSTORE PUSH1 0x20 ADD SWAP1 DUP2 MSTORE PUSH1 0x20 ADD PUSH1 0x0 KECCAK256 SLOAD SWAP1 POP PUSH1 0x0 DUP2 EQ PUSH2 0x7F7 JUMPI PUSH1 0x0 PUSH1 0x1 DUP3 SUB SWAP1 POP PUSH1 0x0 PUSH1 0x1 DUP7 PUSH1 0x0 ADD DUP1 SLOAD SWAP1 POP SUB SWAP1 POP PUSH1 0x0 DUP7 PUSH1 0x0 ADD DUP3 DUP2 SLOAD DUP2 LT PUSH2 0x766 JUMPI INVALID JUMPDEST SWAP1 PUSH1 0x0 MSTORE PUSH1 0x20 PUSH1 0x0 KECCAK256 ADD SLOAD SWAP1 POP DUP1 DUP8 PUSH1 0x0 ADD DUP5 DUP2 SLOAD DUP2 LT PUSH2 0x783 JUMPI INVALID JUMPDEST SWAP1 PUSH1 0x0 MSTORE PUSH1 0x20 PUSH1 0x0 KECCAK256 ADD DUP2 SWAP1 SSTORE POP PUSH1 0x1 DUP4 ADD DUP8 PUSH1 0x1 ADD PUSH1 0x0 DUP4 DUP2 MSTORE PUSH1 0x20 ADD SWAP1 DUP2 MSTORE PUSH1 0x20 ADD PUSH1 0x0 KECCAK256 DUP2 SWAP1 SSTORE POP DUP7 PUSH1 0x0 ADD DUP1 SLOAD DUP1 PUSH2 0x7BB JUMPI INVALID JUMPDEST PUSH1 0x1 SWAP1 SUB DUP2 DUP2 SWAP1 PUSH1 0x0 MSTORE PUSH1 0x20 PUSH1 0x0 KECCAK256 ADD PUSH1 0x0 SWAP1 SSTORE SWAP1 SSTORE DUP7 PUSH1 0x1 ADD PUSH1 0x0 DUP8 DUP2 MSTORE PUSH1 0x20 ADD SWAP1 DUP2 MSTORE PUSH1 0x20 ADD PUSH1 0x0 KECCAK256 PUSH1 0x0 SWAP1 SSTORE PUSH1 0x1 SWAP5 POP POP POP POP POP PUSH2 0x7FD JUMP JUMPDEST PUSH1 0x0 SWAP2 POP POP JUMPDEST SWAP3 SWAP2 POP POP JUMP JUMPDEST PUSH1 0x0 DUP2 CALLDATALOAD SWAP1 POP PUSH2 0x812 DUP2 PUSH2 0xC06 JUMP JUMPDEST SWAP3 SWAP2 POP POP JUMP JUMPDEST PUSH1 0x0 DUP2 CALLDATALOAD SWAP1 POP PUSH2 0x827 DUP2 PUSH2 0xC1D JUMP JUMPDEST SWAP3 SWAP2 POP POP JUMP JUMPDEST PUSH1 0x0 DUP2 CALLDATALOAD SWAP1 POP PUSH2 0x83C DUP2 PUSH2 0xC34 JUMP JUMPDEST SWAP3 SWAP2 POP POP JUMP JUMPDEST PUSH1 0x0 PUSH1 0x20 DUP3 DUP5 SUB SLT ISZERO PUSH2 0x854 JUMPI PUSH1 0x0 DUP1 REVERT JUMPDEST PUSH1 0x0 PUSH2 0x862 DUP5 DUP3 DUP6 ADD PUSH2 0x818 JUMP JUMPDEST SWAP2 POP POP SWAP3 SWAP2 POP POP JUMP JUMPDEST PUSH1 0x0 DUP1 PUSH1 0x40 DUP4 DUP6 SUB SLT ISZERO PUSH2 0x87E JUMPI PUSH1 0x0 DUP1 REVERT JUMPDEST PUSH1 0x0 PUSH2 0x88C DUP6 DUP3 DUP7 ADD PUSH2 0x818 JUMP JUMPDEST SWAP3 POP POP PUSH1 0x20 PUSH2 0x89D DUP6 DUP3 DUP7 ADD PUSH2 0x803 JUMP JUMPDEST SWAP2 POP POP SWAP3 POP SWAP3 SWAP1 POP JUMP JUMPDEST PUSH1 0x0 DUP1 PUSH1 0x40 DUP4 DUP6 SUB SLT ISZERO PUSH2 0x8BA JUMPI PUSH1 0x0 DUP1 REVERT JUMPDEST PUSH1 0x0 PUSH2 0x8C8 DUP6 DUP3 DUP7 ADD PUSH2 0x818 JUMP JUMPDEST SWAP3 POP POP PUSH1 0x20 PUSH2 0x8D9 DUP6 DUP3 DUP7 ADD PUSH2 0x82D JUMP JUMPDEST SWAP2 POP POP SWAP3 POP SWAP3 SWAP1 POP JUMP JUMPDEST PUSH2 0x8EC DUP2 PUSH2 0xBB4 JUMP JUMPDEST DUP3 MSTORE POP POP JUMP JUMPDEST PUSH2 0x8FB DUP2 PUSH2 0xBC6 JUMP JUMPDEST DUP3 MSTORE POP POP JUMP JUMPDEST PUSH2 0x90A DUP2 PUSH2 0xBD2 JUMP JUMPDEST DUP3 MSTORE POP POP JUMP JUMPDEST PUSH1 0x0 PUSH2 0x91D PUSH1 0x22 DUP4 PUSH2 0xBA3 JUMP JUMPDEST SWAP2 POP PUSH32 0x456E756D657261626C655365743A20696E646578206F7574206F6620626F756E PUSH1 0x0 DUP4 ADD MSTORE PUSH32 0x6473000000000000000000000000000000000000000000000000000000000000 PUSH1 0x20 DUP4 ADD MSTORE PUSH1 0x40 DUP3 ADD SWAP1 POP SWAP2 SWAP1 POP JUMP JUMPDEST PUSH1 0x0 PUSH2 0x983 PUSH1 0x2F DUP4 PUSH2 0xBA3 JUMP JUMPDEST SWAP2 POP PUSH32 0x416363657373436F6E74726F6C3A2073656E646572206D75737420626520616E PUSH1 0x0 DUP4 ADD MSTORE PUSH32 0x2061646D696E20746F206772616E740000000000000000000000000000000000 PUSH1 0x20 DUP4 ADD MSTORE PUSH1 0x40 DUP3 ADD SWAP1 POP SWAP2 SWAP1 POP JUMP JUMPDEST PUSH1 0x0 PUSH2 0x9E9 PUSH1 0x30 DUP4 PUSH2 0xBA3 JUMP JUMPDEST SWAP2 POP PUSH32 0x416363657373436F6E74726F6C3A2073656E646572206D75737420626520616E PUSH1 0x0 DUP4 ADD MSTORE PUSH32 0x2061646D696E20746F207265766F6B6500000000000000000000000000000000 PUSH1 0x20 DUP4 ADD MSTORE PUSH1 0x40 DUP3 ADD SWAP1 POP SWAP2 SWAP1 POP JUMP JUMPDEST PUSH1 0x0 PUSH2 0xA4F PUSH1 0x2F DUP4 PUSH2 0xBA3 JUMP JUMPDEST SWAP2 POP PUSH32 0x416363657373436F6E74726F6C3A2063616E206F6E6C792072656E6F756E6365 PUSH1 0x0 DUP4 ADD MSTORE PUSH32 0x20726F6C657320666F722073656C660000000000000000000000000000000000 PUSH1 0x20 DUP4 ADD MSTORE PUSH1 0x40 DUP3 ADD SWAP1 POP SWAP2 SWAP1 POP JUMP JUMPDEST PUSH2 0xAB1 DUP2 PUSH2 0xBFC JUMP JUMPDEST DUP3 MSTORE POP POP JUMP JUMPDEST PUSH1 0x0 PUSH1 0x20 DUP3 ADD SWAP1 POP PUSH2 0xACC PUSH1 0x0 DUP4 ADD DUP5 PUSH2 0x8E3 JUMP JUMPDEST SWAP3 SWAP2 POP POP JUMP JUMPDEST PUSH1 0x0 PUSH1 0x20 DUP3 ADD SWAP1 POP PUSH2 0xAE7 PUSH1 0x0 DUP4 ADD DUP5 PUSH2 0x8F2 JUMP JUMPDEST SWAP3 SWAP2 POP POP JUMP JUMPDEST PUSH1 0x0 PUSH1 0x20 DUP3 ADD SWAP1 POP PUSH2 0xB02 PUSH1 0x0 DUP4 ADD DUP5 PUSH2 0x901 JUMP JUMPDEST SWAP3 SWAP2 POP POP JUMP JUMPDEST PUSH1 0x0 PUSH1 0x20 DUP3 ADD SWAP1 POP DUP2 DUP2 SUB PUSH1 0x0 DUP4 ADD MSTORE PUSH2 0xB21 DUP2 PUSH2 0x910 JUMP JUMPDEST SWAP1 POP SWAP2 SWAP1 POP JUMP JUMPDEST PUSH1 0x0 PUSH1 0x20 DUP3 ADD SWAP1 POP DUP2 DUP2 SUB PUSH1 0x0 DUP4 ADD MSTORE PUSH2 0xB41 DUP2 PUSH2 0x976 JUMP JUMPDEST SWAP1 POP SWAP2 SWAP1 POP JUMP JUMPDEST PUSH1 0x0 PUSH1 0x20 DUP3 ADD SWAP1 POP DUP2 DUP2 SUB PUSH1 0x0 DUP4 ADD MSTORE PUSH2 0xB61 DUP2 PUSH2 0x9DC JUMP JUMPDEST SWAP1 POP SWAP2 SWAP1 POP JUMP JUMPDEST PUSH1 0x0 PUSH1 0x20 DUP3 ADD SWAP1 POP DUP2 DUP2 SUB PUSH1 0x0 DUP4 ADD MSTORE PUSH2 0xB81 DUP2 PUSH2 0xA42 JUMP JUMPDEST SWAP1 POP SWAP2 SWAP1 POP JUMP JUMPDEST PUSH1 0x0 PUSH1 0x20 DUP3 ADD SWAP1 POP PUSH2 0xB9D PUSH1 0x0 DUP4 ADD DUP5 PUSH2 0xAA8 JUMP JUMPDEST SWAP3 SWAP2 POP POP JUMP JUMPDEST PUSH1 0x0 DUP3 DUP3 MSTORE PUSH1 0x20 DUP3 ADD SWAP1 POP SWAP3 SWAP2 POP POP JUMP JUMPDEST PUSH1 0x0 PUSH2 0xBBF DUP3 PUSH2 0xBDC JUMP JUMPDEST SWAP1 POP SWAP2 SWAP1 POP JUMP JUMPDEST PUSH1 0x0 DUP2 ISZERO ISZERO SWAP1 POP SWAP2 SWAP1 POP JUMP JUMPDEST PUSH1 0x0 DUP2 SWAP1 POP SWAP2 SWAP1 POP JUMP JUMPDEST PUSH1 0x0 PUSH20 0xFFFFFFFFFFFFFFFFFFFFFFFFFFFFFFFFFFFFFFFF DUP3 AND SWAP1 POP SWAP2 SWAP1 POP JUMP JUMPDEST PUSH1 0x0 DUP2 SWAP1 POP SWAP2 SWAP1 POP JUMP JUMPDEST PUSH2 0xC0F DUP2 PUSH2 0xBB4 JUMP JUMPDEST DUP2 EQ PUSH2 0xC1A JUMPI PUSH1 0x0 DUP1 REVERT JUMPDEST POP JUMP JUMPDEST PUSH2 0xC26 DUP2 PUSH2 0xBD2 JUMP JUMPDEST DUP2 EQ PUSH2 0xC31 JUMPI PUSH1 0x0 DUP1 REVERT JUMPDEST POP JUMP JUMPDEST PUSH2 0xC3D DUP2 PUSH2 0xBFC JUMP JUMPDEST DUP2 EQ PUSH2 0xC48 JUMPI PUSH1 0x0 DUP1 REVERT JUMPDEST POP JUMP INVALID LOG2 PUSH5 0x6970667358 0x22 SLT KECCAK256 0xDC DUP12 JUMPDEST 0xE6 0xC8 MULMOD 0x4D CALL 0xED 0xB9 DUP13 SLOAD 0xCB SWAP1 DUP8 0xA9 0xCA 0xF8 0x5D 0xE6 0xF6 DIV 0xE PUSH5 0x2863C432AC PUSH5 0x824364736F PUSH13 0x63430006040033000000000000 "
				},
				"gasEstimates": {
					"creation": {
						"codeDepositCost": "640200",
						"executionCost": "21519",
						"totalCost": "661719"
					},
					"external": {
						"DEFAULT_ADMIN_ROLE()": "379",
						"getRoleAdmin(bytes32)": "infinite",
						"getRoleMember(bytes32,uint256)": "infinite",
						"getRoleMemberCount(bytes32)": "1658",
						"grantRole(bytes32,address)": "infinite",
						"hasRole(bytes32,address)": "infinite",
						"paused()": "1246",
						"renounceRole(bytes32,address)": "infinite",
						"revokeRole(bytes32,address)": "infinite"
					}
				},
				"methodIdentifiers": {
					"DEFAULT_ADMIN_ROLE()": "a217fddf",
					"getRoleAdmin(bytes32)": "248a9ca3",
					"getRoleMember(bytes32,uint256)": "9010d07c",
					"getRoleMemberCount(bytes32)": "ca15c873",
					"grantRole(bytes32,address)": "2f2ff15d",
					"hasRole(bytes32,address)": "91d14854",
					"paused()": "5c975abb",
					"renounceRole(bytes32,address)": "36568abe",
					"revokeRole(bytes32,address)": "d547741f"
				}
			},
			"storageLayout": {
				"storage": [
					{
						"astId": 863,
						"contract": "contracts/MonkeyNft.sol:Bridge",
						"label": "_paused",
						"offset": 0,
						"slot": "0",
						"type": "t_bool"
					},
					{
						"astId": 67,
						"contract": "contracts/MonkeyNft.sol:Bridge",
						"label": "_roles",
						"offset": 0,
						"slot": "1",
						"type": "t_mapping(t_bytes32,t_struct(RoleData)63_storage)"
					}
				],
				"types": {
					"t_array(t_bytes32)dyn_storage": {
						"base": "t_bytes32",
						"encoding": "dynamic_array",
						"label": "bytes32[]",
						"numberOfBytes": "32"
					},
					"t_bool": {
						"encoding": "inplace",
						"label": "bool",
						"numberOfBytes": "1"
					},
					"t_bytes32": {
						"encoding": "inplace",
						"label": "bytes32",
						"numberOfBytes": "32"
					},
					"t_mapping(t_bytes32,t_struct(RoleData)63_storage)": {
						"encoding": "mapping",
						"key": "t_bytes32",
						"label": "mapping(bytes32 => struct AccessControl.RoleData)",
						"numberOfBytes": "32",
						"value": "t_struct(RoleData)63_storage"
					},
					"t_mapping(t_bytes32,t_uint256)": {
						"encoding": "mapping",
						"key": "t_bytes32",
						"label": "mapping(bytes32 => uint256)",
						"numberOfBytes": "32",
						"value": "t_uint256"
					},
					"t_struct(AddressSet)644_storage": {
						"encoding": "inplace",
						"label": "struct EnumerableSet.AddressSet",
						"members": [
							{
								"astId": 643,
								"contract": "contracts/MonkeyNft.sol:Bridge",
								"label": "_inner",
								"offset": 0,
								"slot": "0",
								"type": "t_struct(Set)464_storage"
							}
						],
						"numberOfBytes": "64"
					},
					"t_struct(RoleData)63_storage": {
						"encoding": "inplace",
						"label": "struct AccessControl.RoleData",
						"members": [
							{
								"astId": 60,
								"contract": "contracts/MonkeyNft.sol:Bridge",
								"label": "members",
								"offset": 0,
								"slot": "0",
								"type": "t_struct(AddressSet)644_storage"
							},
							{
								"astId": 62,
								"contract": "contracts/MonkeyNft.sol:Bridge",
								"label": "adminRole",
								"offset": 0,
								"slot": "2",
								"type": "t_bytes32"
							}
						],
						"numberOfBytes": "96"
					},
					"t_struct(Set)464_storage": {
						"encoding": "inplace",
						"label": "struct EnumerableSet.Set",
						"members": [
							{
								"astId": 459,
								"contract": "contracts/MonkeyNft.sol:Bridge",
								"label": "_values",
								"offset": 0,
								"slot": "0",
								"type": "t_array(t_bytes32)dyn_storage"
							},
							{
								"astId": 463,
								"contract": "contracts/MonkeyNft.sol:Bridge",
								"label": "_indexes",
								"offset": 0,
								"slot": "1",
								"type": "t_mapping(t_bytes32,t_uint256)"
							}
						],
						"numberOfBytes": "64"
					},
					"t_uint256": {
						"encoding": "inplace",
						"label": "uint256",
						"numberOfBytes": "32"
					}
				}
			},
			"userdoc": {
				"methods": {}
			}
		}
	}
}