{
	"contracts/TestContracts.sol": {
		"ThreeArguments": {
			"abi": [
				{
					"anonymous": false,
					"inputs": [
						{
							"indexed": false,
							"internalType": "string",
							"name": "argumentOne",
							"type": "string"
						},
						{
							"indexed": false,
							"internalType": "int8",
							"name": "argumentTwo",
							"type": "int8"
						},
						{
							"indexed": false,
							"internalType": "bool",
							"name": "argumentThree",
							"type": "bool"
						}
					],
					"name": "ThreeArgumentsCalled",
					"type": "event"
				},
				{
					"inputs": [
						{
							"internalType": "string",
							"name": "argumentOne",
							"type": "string"
						},
						{
							"internalType": "int8",
							"name": "argumentTwo",
							"type": "int8"
						},
						{
							"internalType": "bool",
							"name": "argumentThree",
							"type": "bool"
						}
					],
					"name": "threeArguments",
					"outputs": [],
					"stateMutability": "nonpayable",
					"type": "function"
				}
			],
			"devdoc": {
				"methods": {}
			},
			"evm": {
				"assembly": "    /* \"contracts/TestContracts.sol\":604:910  contract ThreeArguments {... */\n  mstore(0x40, 0x80)\n  callvalue\n    /* \"--CODEGEN--\":5:14   */\n  dup1\n    /* \"--CODEGEN--\":2:4   */\n  iszero\n  tag_1\n  jumpi\n    /* \"--CODEGEN--\":27:28   */\n  0x00\n    /* \"--CODEGEN--\":24:25   */\n  dup1\n    /* \"--CODEGEN--\":17:29   */\n  revert\n    /* \"--CODEGEN--\":2:4   */\ntag_1:\n    /* \"contracts/TestContracts.sol\":604:910  contract ThreeArguments {... */\n  pop\n  dataSize(sub_0)\n  dup1\n  dataOffset(sub_0)\n  0x00\n  codecopy\n  0x00\n  return\nstop\n\nsub_0: assembly {\n        /* \"contracts/TestContracts.sol\":604:910  contract ThreeArguments {... */\n      mstore(0x40, 0x80)\n      callvalue\n        /* \"--CODEGEN--\":5:14   */\n      dup1\n        /* \"--CODEGEN--\":2:4   */\n      iszero\n      tag_1\n      jumpi\n        /* \"--CODEGEN--\":27:28   */\n      0x00\n        /* \"--CODEGEN--\":24:25   */\n      dup1\n        /* \"--CODEGEN--\":17:29   */\n      revert\n        /* \"--CODEGEN--\":2:4   */\n    tag_1:\n        /* \"contracts/TestContracts.sol\":604:910  contract ThreeArguments {... */\n      pop\n      jumpi(tag_2, lt(calldatasize, 0x04))\n      shr(0xe0, calldataload(0x00))\n      dup1\n      0x9280b905\n      eq\n      tag_3\n      jumpi\n    tag_2:\n        /* \"--CODEGEN--\":12:13   */\n      0x00\n        /* \"--CODEGEN--\":9:10   */\n      dup1\n        /* \"--CODEGEN--\":2:14   */\n      revert\n        /* \"contracts/TestContracts.sol\":725:908  function threeArguments(string calldata argumentOne, int8 argumentTwo, bool argumentThree) external {... */\n    tag_3:\n      tag_4\n      0x04\n      dup1\n      calldatasize\n      sub\n        /* \"--CODEGEN--\":15:17   */\n      0x60\n        /* \"--CODEGEN--\":10:13   */\n      dup2\n        /* \"--CODEGEN--\":7:18   */\n      lt\n        /* \"--CODEGEN--\":4:6   */\n      iszero\n      tag_5\n      jumpi\n        /* \"--CODEGEN--\":31:32   */\n      0x00\n        /* \"--CODEGEN--\":28:29   */\n      dup1\n        /* \"--CODEGEN--\":21:33   */\n      revert\n        /* \"--CODEGEN--\":4:6   */\n    tag_5:\n        /* \"contracts/TestContracts.sol\":725:908  function threeArguments(string calldata argumentOne, int8 argumentTwo, bool argumentThree) external {... */\n      dup2\n      add\n      swap1\n      dup1\n      dup1\n      calldataload\n      swap1\n      0x20\n      add\n      swap1\n        /* \"--CODEGEN--\":27:38   */\n      0x0100000000\n        /* \"--CODEGEN--\":14:25   */\n      dup2\n        /* \"--CODEGEN--\":11:39   */\n      gt\n        /* \"--CODEGEN--\":8:10   */\n      iszero\n      tag_6\n      jumpi\n        /* \"--CODEGEN--\":52:53   */\n      0x00\n        /* \"--CODEGEN--\":49:50   */\n      dup1\n        /* \"--CODEGEN--\":42:54   */\n      revert\n        /* \"--CODEGEN--\":8:10   */\n    tag_6:\n        /* \"contracts/TestContracts.sol\":725:908  function threeArguments(string calldata argumentOne, int8 argumentTwo, bool argumentThree) external {... */\n      dup3\n      add\n        /* \"--CODEGEN--\":41:50   */\n      dup4\n        /* \"--CODEGEN--\":34:38   */\n      0x20\n        /* \"--CODEGEN--\":18:32   */\n      dup3\n        /* \"--CODEGEN--\":14:39   */\n      add\n        /* \"--CODEGEN--\":11:51   */\n      gt\n        /* \"--CODEGEN--\":8:10   */\n      iszero\n      tag_7\n      jumpi\n        /* \"--CODEGEN--\":64:65   */\n      0x00\n        /* \"--CODEGEN--\":61:62   */\n      dup1\n        /* \"--CODEGEN--\":54:66   */\n      revert\n        /* \"--CODEGEN--\":8:10   */\n    tag_7:\n        /* \"contracts/TestContracts.sol\":725:908  function threeArguments(string calldata argumentOne, int8 argumentTwo, bool argumentThree) external {... */\n      dup1\n      calldataload\n      swap1\n      0x20\n      add\n      swap2\n        /* \"--CODEGEN--\":100:109   */\n      dup5\n        /* \"--CODEGEN--\":95:96   */\n      0x01\n        /* \"--CODEGEN--\":81:93   */\n      dup4\n        /* \"--CODEGEN--\":77:97   */\n      mul\n        /* \"--CODEGEN--\":67:75   */\n      dup5\n        /* \"--CODEGEN--\":63:98   */\n      add\n        /* \"--CODEGEN--\":60:110   */\n      gt\n        /* \"--CODEGEN--\":39:50   */\n      0x0100000000\n        /* \"--CODEGEN--\":25:37   */\n      dup4\n        /* \"--CODEGEN--\":22:51   */\n      gt\n        /* \"--CODEGEN--\":11:118   */\n      or\n        /* \"--CODEGEN--\":8:10   */\n      iszero\n      tag_8\n      jumpi\n        /* \"--CODEGEN--\":131:132   */\n      0x00\n        /* \"--CODEGEN--\":128:129   */\n      dup1\n        /* \"--CODEGEN--\":121:133   */\n      revert\n        /* \"--CODEGEN--\":8:10   */\n    tag_8:\n        /* \"contracts/TestContracts.sol\":725:908  function threeArguments(string calldata argumentOne, int8 argumentTwo, bool argumentThree) external {... */\n      swap1\n      swap2\n      swap3\n      swap4\n      swap2\n      swap3\n      swap4\n      swap1\n      dup1\n      calldataload\n      0x00\n      signextend\n      swap1\n      0x20\n      add\n      swap1\n      swap3\n      swap2\n      swap1\n      dup1\n      calldataload\n      iszero\n      iszero\n      swap1\n      0x20\n      add\n      swap1\n      swap3\n      swap2\n      swap1\n      pop\n      pop\n      pop\n      tag_9\n      jump\t// in\n    tag_4:\n      stop\n    tag_9:\n        /* \"contracts/TestContracts.sol\":840:901  ThreeArgumentsCalled(argumentOne, argumentTwo, argumentThree) */\n      0xd589183661fa75f94e2db32f4eb7ebb50f4154c160e15eb43f772a46f360a3a8\n        /* \"contracts/TestContracts.sol\":861:872  argumentOne */\n      dup5\n      dup5\n        /* \"contracts/TestContracts.sol\":874:885  argumentTwo */\n      dup5\n        /* \"contracts/TestContracts.sol\":887:900  argumentThree */\n      dup5\n        /* \"contracts/TestContracts.sol\":840:901  ThreeArgumentsCalled(argumentOne, argumentTwo, argumentThree) */\n      mload(0x40)\n      dup1\n      dup1\n      0x20\n      add\n      dup5\n      0x00\n      signextend\n      0x00\n      signextend\n      dup2\n      mstore\n      0x20\n      add\n      dup4\n      iszero\n      iszero\n      iszero\n      iszero\n      dup2\n      mstore\n      0x20\n      add\n      dup3\n      dup2\n      sub\n      dup3\n      mstore\n      dup7\n      dup7\n      dup3\n      dup2\n      dup2\n      mstore\n      0x20\n      add\n      swap3\n      pop\n        /* \"--CODEGEN--\":30:33   */\n      dup1\n        /* \"--CODEGEN--\":22:28   */\n      dup3\n        /* \"--CODEGEN--\":14:20   */\n      dup5\n        /* \"--CODEGEN--\":1:34   */\n      calldatacopy\n        /* \"--CODEGEN--\":99:100   */\n      0x00\n        /* \"--CODEGEN--\":93:96   */\n      dup2\n        /* \"--CODEGEN--\":85:91   */\n      dup5\n        /* \"--CODEGEN--\":81:97   */\n      add\n        /* \"--CODEGEN--\":74:101   */\n      mstore\n        /* \"--CODEGEN--\":137:141   */\n      0x1f\n        /* \"--CODEGEN--\":133:142   */\n      not\n        /* \"--CODEGEN--\":126:130   */\n      0x1f\n        /* \"--CODEGEN--\":121:124   */\n      dup3\n        /* \"--CODEGEN--\":117:131   */\n      add\n        /* \"--CODEGEN--\":113:143   */\n      and\n        /* \"--CODEGEN--\":106:143   */\n      swap1\n      pop\n        /* \"--CODEGEN--\":169:172   */\n      dup1\n        /* \"--CODEGEN--\":161:167   */\n      dup4\n        /* \"--CODEGEN--\":157:173   */\n      add\n        /* \"--CODEGEN--\":147:173   */\n      swap3\n      pop\n        /* \"contracts/TestContracts.sol\":840:901  ThreeArgumentsCalled(argumentOne, argumentTwo, argumentThree) */\n      pop\n      pop\n      swap6\n      pop\n      pop\n      pop\n      pop\n      pop\n      pop\n      mload(0x40)\n      dup1\n      swap2\n      sub\n      swap1\n      log1\n        /* \"contracts/TestContracts.sol\":725:908  function threeArguments(string calldata argumentOne, int8 argumentTwo, bool argumentThree) external {... */\n      pop\n      pop\n      pop\n      pop\n      jump\t// out\n\n    auxdata: 0xa2646970667358221220b338e440936e6c94d3e2143f546e22b498d8e8edbe5f2b155cf31102c8f19e0764736f6c63430006040033\n}\n",
				"bytecode": {
					"linkReferences": {},
					"object": "608060405234801561001057600080fd5b5061017b806100206000396000f3fe608060405234801561001057600080fd5b506004361061002b5760003560e01c80639280b90514610030575b600080fd5b6100c06004803603606081101561004657600080fd5b810190808035906020019064010000000081111561006357600080fd5b82018360208201111561007557600080fd5b8035906020019184600183028401116401000000008311171561009757600080fd5b9091929391929390803560000b90602001909291908035151590602001909291905050506100c2565b005b7fd589183661fa75f94e2db32f4eb7ebb50f4154c160e15eb43f772a46f360a3a88484848460405180806020018460000b60000b8152602001831515151581526020018281038252868682818152602001925080828437600081840152601f19601f8201169050808301925050509550505050505060405180910390a15050505056fea2646970667358221220b338e440936e6c94d3e2143f546e22b498d8e8edbe5f2b155cf31102c8f19e0764736f6c63430006040033",
					"opcodes": "PUSH1 0x80 PUSH1 0x40 MSTORE CALLVALUE DUP1 ISZERO PUSH2 0x10 JUMPI PUSH1 0x0 DUP1 REVERT JUMPDEST POP PUSH2 0x17B DUP1 PUSH2 0x20 PUSH1 0x0 CODECOPY PUSH1 0x0 RETURN INVALID PUSH1 0x80 PUSH1 0x40 MSTORE CALLVALUE DUP1 ISZERO PUSH2 0x10 JUMPI PUSH1 0x0 DUP1 REVERT JUMPDEST POP PUSH1 0x4 CALLDATASIZE LT PUSH2 0x2B JUMPI PUSH1 0x0 CALLDATALOAD PUSH1 0xE0 SHR DUP1 PUSH4 0x9280B905 EQ PUSH2 0x30 JUMPI JUMPDEST PUSH1 0x0 DUP1 REVERT JUMPDEST PUSH2 0xC0 PUSH1 0x4 DUP1 CALLDATASIZE SUB PUSH1 0x60 DUP2 LT ISZERO PUSH2 0x46 JUMPI PUSH1 0x0 DUP1 REVERT JUMPDEST DUP2 ADD SWAP1 DUP1 DUP1 CALLDATALOAD SWAP1 PUSH1 0x20 ADD SWAP1 PUSH5 0x100000000 DUP2 GT ISZERO PUSH2 0x63 JUMPI PUSH1 0x0 DUP1 REVERT JUMPDEST DUP3 ADD DUP4 PUSH1 0x20 DUP3 ADD GT ISZERO PUSH2 0x75 JUMPI PUSH1 0x0 DUP1 REVERT JUMPDEST DUP1 CALLDATALOAD SWAP1 PUSH1 0x20 ADD SWAP2 DUP5 PUSH1 0x1 DUP4 MUL DUP5 ADD GT PUSH5 0x100000000 DUP4 GT OR ISZERO PUSH2 0x97 JUMPI PUSH1 0x0 DUP1 REVERT JUMPDEST SWAP1 SWAP2 SWAP3 SWAP4 SWAP2 SWAP3 SWAP4 SWAP1 DUP1 CALLDATALOAD PUSH1 0x0 SIGNEXTEND SWAP1 PUSH1 0x20 ADD SWAP1 SWAP3 SWAP2 SWAP1 DUP1 CALLDATALOAD ISZERO ISZERO SWAP1 PUSH1 0x20 ADD SWAP1 SWAP3 SWAP2 SWAP1 POP POP POP PUSH2 0xC2 JUMP JUMPDEST STOP JUMPDEST PUSH32 0xD589183661FA75F94E2DB32F4EB7EBB50F4154C160E15EB43F772A46F360A3A8 DUP5 DUP5 DUP5 DUP5 PUSH1 0x40 MLOAD DUP1 DUP1 PUSH1 0x20 ADD DUP5 PUSH1 0x0 SIGNEXTEND PUSH1 0x0 SIGNEXTEND DUP2 MSTORE PUSH1 0x20 ADD DUP4 ISZERO ISZERO ISZERO ISZERO DUP2 MSTORE PUSH1 0x20 ADD DUP3 DUP2 SUB DUP3 MSTORE DUP7 DUP7 DUP3 DUP2 DUP2 MSTORE PUSH1 0x20 ADD SWAP3 POP DUP1 DUP3 DUP5 CALLDATACOPY PUSH1 0x0 DUP2 DUP5 ADD MSTORE PUSH1 0x1F NOT PUSH1 0x1F DUP3 ADD AND SWAP1 POP DUP1 DUP4 ADD SWAP3 POP POP POP SWAP6 POP POP POP POP POP POP PUSH1 0x40 MLOAD DUP1 SWAP2 SUB SWAP1 LOG1 POP POP POP POP JUMP INVALID LOG2 PUSH5 0x6970667358 0x22 SLT KECCAK256 0xB3 CODESIZE 0xE4 BLOCKHASH SWAP4 PUSH15 0x6C94D3E2143F546E22B498D8E8EDBE 0x5F 0x2B ISZERO 0x5C RETURN GT MUL 0xC8 CALL SWAP15 SMOD PUSH5 0x736F6C6343 STOP MOD DIV STOP CALLER "
				},
				"gasEstimates": {
					"creation": {
						"codeDepositCost": "75800",
						"executionCost": "123",
						"totalCost": "75923"
					},
					"external": {
						"threeArguments(string,int8,bool)": "infinite"
					}
				},
				"methodIdentifiers": {
					"threeArguments(string,int8,bool)": "9280b905"
				}
			},
			"storageLayout": {
				"storage": [],
				"types": null
			},
			"userdoc": {
				"methods": {}
			}
		}
	}
}