{
	"contracts/TestContracts.sol": {
		"NoArgument": {
			"abi": [
				{
					"anonymous": false,
					"inputs": [],
					"name": "NoArgumentCalled",
					"type": "event"
				},
				{
					"inputs": [],
					"name": "noArgument",
					"outputs": [],
					"stateMutability": "nonpayable",
					"type": "function"
				}
			],
			"devdoc": {
				"methods": {}
			},
			"evm": {
				"assembly": "    /* \"contracts/TestContracts.sol\":24:154  contract NoArgument {... */\n  mstore(0x40, 0x80)\n  callvalue\n    /* \"--CODEGEN--\":5:14   */\n  dup1\n    /* \"--CODEGEN--\":2:4   */\n  iszero\n  tag_1\n  jumpi\n    /* \"--CODEGEN--\":27:28   */\n  0x00\n    /* \"--CODEGEN--\":24:25   */\n  dup1\n    /* \"--CODEGEN--\":17:29   */\n  revert\n    /* \"--CODEGEN--\":2:4   */\ntag_1:\n    /* \"contracts/TestContracts.sol\":24:154  contract NoArgument {... */\n  pop\n  dataSize(sub_0)\n  dup1\n  dataOffset(sub_0)\n  0x00\n  codecopy\n  0x00\n  return\nstop\n\nsub_0: assembly {\n        /* \"contracts/TestContracts.sol\":24:154  contract NoArgument {... */\n      mstore(0x40, 0x80)\n      callvalue\n        /* \"--CODEGEN--\":5:14   */\n      dup1\n        /* \"--CODEGEN--\":2:4   */\n      iszero\n      tag_1\n      jumpi\n        /* \"--CODEGEN--\":27:28   */\n      0x00\n        /* \"--CODEGEN--\":24:25   */\n      dup1\n        /* \"--CODEGEN--\":17:29   */\n      revert\n        /* \"--CODEGEN--\":2:4   */\n    tag_1:\n        /* \"contracts/TestContracts.sol\":24:154  contract NoArgument {... */\n      pop\n      jumpi(tag_2, lt(calldatasize, 0x04))\n      shr(0xe0, calldataload(0x00))\n      dup1\n      0x568959ca\n      eq\n      tag_3\n      jumpi\n    tag_2:\n        /* \"--CODEGEN--\":12:13   */\n      0x00\n        /* \"--CODEGEN--\":9:10   */\n      dup1\n        /* \"--CODEGEN--\":2:14   */\n      revert\n        /* \"contracts/TestContracts.sol\":81:152  function noArgument() external {... */\n    tag_3:\n      tag_4\n      tag_5\n      jump\t// in\n    tag_4:\n      stop\n    tag_5:\n        /* \"contracts/TestContracts.sol\":127:145  NoArgumentCalled() */\n      0xc582abe1670c5a7f7cad8f171e4af03c793dd9f59fee6714179f56b6e9aea26f\n      mload(0x40)\n      mload(0x40)\n      dup1\n      swap2\n      sub\n      swap1\n      log1\n        /* \"contracts/TestContracts.sol\":81:152  function noArgument() external {... */\n      jump\t// out\n\n    auxdata: 0xa2646970667358221220c75a75e4d2aac9a6bf40f0ddc1a1c16a39526535c3f9d99fb01042b273dbff0564736f6c63430006040033\n}\n",
				"bytecode": {
					"linkReferences": {},
					"object": "6080604052348015600f57600080fd5b5060998061001e6000396000f3fe6080604052348015600f57600080fd5b506004361060285760003560e01c8063568959ca14602d575b600080fd5b60336035565b005b7fc582abe1670c5a7f7cad8f171e4af03c793dd9f59fee6714179f56b6e9aea26f60405160405180910390a156fea2646970667358221220c75a75e4d2aac9a6bf40f0ddc1a1c16a39526535c3f9d99fb01042b273dbff0564736f6c63430006040033",
					"opcodes": "PUSH1 0x80 PUSH1 0x40 MSTORE CALLVALUE DUP1 ISZERO PUSH1 0xF JUMPI PUSH1 0x0 DUP1 REVERT JUMPDEST POP PUSH1 0x99 DUP1 PUSH2 0x1E PUSH1 0x0 CODECOPY PUSH1 0x0 RETURN INVALID PUSH1 0x80 PUSH1 0x40 MSTORE CALLVALUE DUP1 ISZERO PUSH1 0xF JUMPI PUSH1 0x0 DUP1 REVERT JUMPDEST POP PUSH1 0x4 CALLDATASIZE LT PUSH1 0x28 JUMPI PUSH1 0x0 CALLDATALOAD PUSH1 0xE0 SHR DUP1 PUSH4 0x568959CA EQ PUSH1 0x2D JUMPI JUMPDEST PUSH1 0x0 DUP1 REVERT JUMPDEST PUSH1 0x33 PUSH1 0x35 JUMP JUMPDEST STOP JUMPDEST PUSH32 0xC582ABE1670C5A7F7CAD8F171E4AF03C793DD9F59FEE6714179F56B6E9AEA26F PUSH1 0x40 MLOAD PUSH1 0x40 MLOAD DUP1 SWAP2 SUB SWAP1 LOG1 JUMP INVALID LOG2 PUSH5 0x6970667358 0x22 SLT KECCAK256 0xC7 GAS PUSH22 0xE4D2AAC9A6BF40F0DDC1A1C16A39526535C3F9D99FB0 LT TIMESTAMP 0xB2 PUSH20 0xDBFF0564736F6C63430006040033000000000000 "
				},
				"gasEstimates": {
					"creation": {
						"codeDepositCost": "30600",
						"executionCost": "81",
						"totalCost": "30681"
					},
					"external": {
						"noArgument()": "899"
					}
				},
				"methodIdentifiers": {
					"noArgument()": "568959ca"
				}
			},
			"storageLayout": {
				"storage": [],
				"types": null
			},
			"userdoc": {
				"methods": {}
			}
		}
	}
}