{
	"contracts/Bridge.sol": {
		"Bridge": {
			"abi": [
				{
					"inputs": [
						{
							"internalType": "uint8",
							"name": "chainID",
							"type": "uint8"
						},
						{
							"internalType": "address[]",
							"name": "initialRelayers",
							"type": "address[]"
						},
						{
							"internalType": "uint256",
							"name": "initialRelayerThreshold",
							"type": "uint256"
						},
						{
							"internalType": "uint256",
							"name": "fee",
							"type": "uint256"
						},
						{
							"internalType": "uint256",
							"name": "expiry",
							"type": "uint256"
						}
					],
					"stateMutability": "nonpayable",
					"type": "constructor"
				},
				{
					"anonymous": false,
					"inputs": [
						{
							"indexed": true,
							"internalType": "uint8",
							"name": "destinationChainID",
							"type": "uint8"
						},
						{
							"indexed": true,
							"internalType": "bytes32",
							"name": "resourceID",
							"type": "bytes32"
						},
						{
							"indexed": true,
							"internalType": "uint64",
							"name": "depositNonce",
							"type": "uint64"
						}
					],
					"name": "Deposit",
					"type": "event"
				},
				{
					"anonymous": false,
					"inputs": [
						{
							"indexed": false,
							"internalType": "address",
							"name": "account",
							"type": "address"
						}
					],
					"name": "Paused",
					"type": "event"
				},
				{
					"anonymous": false,
					"inputs": [
						{
							"indexed": true,
							"internalType": "uint8",
							"name": "originChainID",
							"type": "uint8"
						},
						{
							"indexed": true,
							"internalType": "uint64",
							"name": "depositNonce",
							"type": "uint64"
						},
						{
							"indexed": true,
							"internalType": "enum Bridge.ProposalStatus",
							"name": "status",
							"type": "uint8"
						},
						{
							"indexed": false,
							"internalType": "bytes32",
							"name": "resourceID",
							"type": "bytes32"
						},
						{
							"indexed": false,
							"internalType": "bytes32",
							"name": "dataHash",
							"type": "bytes32"
						}
					],
					"name": "ProposalEvent",
					"type": "event"
				},
				{
					"anonymous": false,
					"inputs": [
						{
							"indexed": true,
							"internalType": "uint8",
							"name": "originChainID",
							"type": "uint8"
						},
						{
							"indexed": true,
							"internalType": "uint64",
							"name": "depositNonce",
							"type": "uint64"
						},
						{
							"indexed": true,
							"internalType": "enum Bridge.ProposalStatus",
							"name": "status",
							"type": "uint8"
						},
						{
							"indexed": false,
							"internalType": "bytes32",
							"name": "resourceID",
							"type": "bytes32"
						}
					],
					"name": "ProposalVote",
					"type": "event"
				},
				{
					"anonymous": false,
					"inputs": [
						{
							"indexed": true,
							"internalType": "address",
							"name": "relayer",
							"type": "address"
						}
					],
					"name": "RelayerAdded",
					"type": "event"
				},
				{
					"anonymous": false,
					"inputs": [
						{
							"indexed": true,
							"internalType": "address",
							"name": "relayer",
							"type": "address"
						}
					],
					"name": "RelayerRemoved",
					"type": "event"
				},
				{
					"anonymous": false,
					"inputs": [
						{
							"indexed": true,
							"internalType": "uint256",
							"name": "newThreshold",
							"type": "uint256"
						}
					],
					"name": "RelayerThresholdChanged",
					"type": "event"
				},
				{
					"anonymous": false,
					"inputs": [
						{
							"indexed": true,
							"internalType": "bytes32",
							"name": "role",
							"type": "bytes32"
						},
						{
							"indexed": true,
							"internalType": "address",
							"name": "account",
							"type": "address"
						},
						{
							"indexed": true,
							"internalType": "address",
							"name": "sender",
							"type": "address"
						}
					],
					"name": "RoleGranted",
					"type": "event"
				},
				{
					"anonymous": false,
					"inputs": [
						{
							"indexed": true,
							"internalType": "bytes32",
							"name": "role",
							"type": "bytes32"
						},
						{
							"indexed": true,
							"internalType": "address",
							"name": "account",
							"type": "address"
						},
						{
							"indexed": true,
							"internalType": "address",
							"name": "sender",
							"type": "address"
						}
					],
					"name": "RoleRevoked",
					"type": "event"
				},
				{
					"anonymous": false,
					"inputs": [
						{
							"indexed": false,
							"internalType": "address",
							"name": "account",
							"type": "address"
						}
					],
					"name": "Unpaused",
					"type": "event"
				},
				{
					"inputs": [],
					"name": "DEFAULT_ADMIN_ROLE",
					"outputs": [
						{
							"internalType": "bytes32",
							"name": "",
							"type": "bytes32"
						}
					],
					"stateMutability": "view",
					"type": "function"
				},
				{
					"inputs": [],
					"name": "RELAYER_ROLE",
					"outputs": [
						{
							"internalType": "bytes32",
							"name": "",
							"type": "bytes32"
						}
					],
					"stateMutability": "view",
					"type": "function"
				},
				{
					"inputs": [],
					"name": "_chainID",
					"outputs": [
						{
							"internalType": "uint8",
							"name": "",
							"type": "uint8"
						}
					],
					"stateMutability": "view",
					"type": "function"
				},
				{
					"inputs": [
						{
							"internalType": "uint8",
							"name": "",
							"type": "uint8"
						}
					],
					"name": "_depositCounts",
					"outputs": [
						{
							"internalType": "uint64",
							"name": "",
							"type": "uint64"
						}
					],
					"stateMutability": "view",
					"type": "function"
				},
				{
					"inputs": [
						{
							"internalType": "uint64",
							"name": "",
							"type": "uint64"
						},
						{
							"internalType": "uint8",
							"name": "",
							"type": "uint8"
						}
					],
					"name": "_depositRecords",
					"outputs": [
						{
							"internalType": "bytes",
							"name": "",
							"type": "bytes"
						}
					],
					"stateMutability": "view",
					"type": "function"
				},
				{
					"inputs": [],
					"name": "_expiry",
					"outputs": [
						{
							"internalType": "uint256",
							"name": "",
							"type": "uint256"
						}
					],
					"stateMutability": "view",
					"type": "function"
				},
				{
					"inputs": [],
					"name": "_fee",
					"outputs": [
						{
							"internalType": "uint256",
							"name": "",
							"type": "uint256"
						}
					],
					"stateMutability": "view",
					"type": "function"
				},
				{
					"inputs": [
						{
							"internalType": "uint72",
							"name": "",
							"type": "uint72"
						},
						{
							"internalType": "bytes32",
							"name": "",
							"type": "bytes32"
						},
						{
							"internalType": "address",
							"name": "",
							"type": "address"
						}
					],
					"name": "_hasVotedOnProposal",
					"outputs": [
						{
							"internalType": "bool",
							"name": "",
							"type": "bool"
						}
					],
					"stateMutability": "view",
					"type": "function"
				},
				{
					"inputs": [
						{
							"internalType": "uint72",
							"name": "",
							"type": "uint72"
						},
						{
							"internalType": "bytes32",
							"name": "",
							"type": "bytes32"
						}
					],
					"name": "_proposals",
					"outputs": [
						{
							"internalType": "bytes32",
							"name": "_resourceID",
							"type": "bytes32"
						},
						{
							"internalType": "bytes32",
							"name": "_dataHash",
							"type": "bytes32"
						},
						{
							"internalType": "enum Bridge.ProposalStatus",
							"name": "_status",
							"type": "uint8"
						},
						{
							"internalType": "uint256",
							"name": "_proposedBlock",
							"type": "uint256"
						}
					],
					"stateMutability": "view",
					"type": "function"
				},
				{
					"inputs": [],
					"name": "_relayerThreshold",
					"outputs": [
						{
							"internalType": "uint256",
							"name": "",
							"type": "uint256"
						}
					],
					"stateMutability": "view",
					"type": "function"
				},
				{
					"inputs": [
						{
							"internalType": "bytes32",
							"name": "",
							"type": "bytes32"
						}
					],
					"name": "_resourceIDToHandlerAddress",
					"outputs": [
						{
							"internalType": "address",
							"name": "",
							"type": "address"
						}
					],
					"stateMutability": "view",
					"type": "function"
				},
				{
					"inputs": [],
					"name": "_totalProposals",
					"outputs": [
						{
							"internalType": "uint256",
							"name": "",
							"type": "uint256"
						}
					],
					"stateMutability": "view",
					"type": "function"
				},
				{
					"inputs": [],
					"name": "_totalRelayers",
					"outputs": [
						{
							"internalType": "uint256",
							"name": "",
							"type": "uint256"
						}
					],
					"stateMutability": "view",
					"type": "function"
				},
				{
					"inputs": [
						{
							"internalType": "address",
							"name": "relayerAddress",
							"type": "address"
						}
					],
					"name": "adminAddRelayer",
					"outputs": [],
					"stateMutability": "nonpayable",
					"type": "function"
				},
				{
					"inputs": [
						{
							"internalType": "uint256",
							"name": "newFee",
							"type": "uint256"
						}
					],
					"name": "adminChangeFee",
					"outputs": [],
					"stateMutability": "nonpayable",
					"type": "function"
				},
				{
					"inputs": [
						{
							"internalType": "uint256",
							"name": "newThreshold",
							"type": "uint256"
						}
					],
					"name": "adminChangeRelayerThreshold",
					"outputs": [],
					"stateMutability": "nonpayable",
					"type": "function"
				},
				{
					"inputs": [],
					"name": "adminPauseTransfers",
					"outputs": [],
					"stateMutability": "nonpayable",
					"type": "function"
				},
				{
					"inputs": [
						{
							"internalType": "address",
							"name": "relayerAddress",
							"type": "address"
						}
					],
					"name": "adminRemoveRelayer",
					"outputs": [],
					"stateMutability": "nonpayable",
					"type": "function"
				},
				{
					"inputs": [
						{
							"internalType": "address",
							"name": "handlerAddress",
							"type": "address"
						},
						{
							"internalType": "address",
							"name": "tokenAddress",
							"type": "address"
						}
					],
					"name": "adminSetBurnable",
					"outputs": [],
					"stateMutability": "nonpayable",
					"type": "function"
				},
				{
					"inputs": [
						{
							"internalType": "address",
							"name": "handlerAddress",
							"type": "address"
						},
						{
							"internalType": "bytes32",
							"name": "resourceID",
							"type": "bytes32"
						},
						{
							"internalType": "address",
							"name": "contractAddress",
							"type": "address"
						},
						{
							"internalType": "bytes4",
							"name": "depositFunctionSig",
							"type": "bytes4"
						},
						{
							"internalType": "bytes4",
							"name": "executeFunctionSig",
							"type": "bytes4"
						}
					],
					"name": "adminSetGenericResource",
					"outputs": [],
					"stateMutability": "nonpayable",
					"type": "function"
				},
				{
					"inputs": [
						{
							"internalType": "address",
							"name": "handlerAddress",
							"type": "address"
						},
						{
							"internalType": "bytes32",
							"name": "resourceID",
							"type": "bytes32"
						},
						{
							"internalType": "address",
							"name": "tokenAddress",
							"type": "address"
						}
					],
					"name": "adminSetResource",
					"outputs": [],
					"stateMutability": "nonpayable",
					"type": "function"
				},
				{
					"inputs": [],
					"name": "adminUnpauseTransfers",
					"outputs": [],
					"stateMutability": "nonpayable",
					"type": "function"
				},
				{
					"inputs": [
						{
							"internalType": "address",
							"name": "handlerAddress",
							"type": "address"
						},
						{
							"internalType": "address",
							"name": "tokenAddress",
							"type": "address"
						},
						{
							"internalType": "address",
							"name": "recipient",
							"type": "address"
						},
						{
							"internalType": "uint256",
							"name": "amountOrTokenID",
							"type": "uint256"
						}
					],
					"name": "adminWithdraw",
					"outputs": [],
					"stateMutability": "nonpayable",
					"type": "function"
				},
				{
					"inputs": [
						{
							"internalType": "uint8",
							"name": "chainID",
							"type": "uint8"
						},
						{
							"internalType": "uint64",
							"name": "depositNonce",
							"type": "uint64"
						},
						{
							"internalType": "bytes32",
							"name": "dataHash",
							"type": "bytes32"
						}
					],
					"name": "cancelProposal",
					"outputs": [],
					"stateMutability": "nonpayable",
					"type": "function"
				},
				{
					"inputs": [
						{
							"internalType": "uint8",
							"name": "destinationChainID",
							"type": "uint8"
						},
						{
							"internalType": "bytes32",
							"name": "resourceID",
							"type": "bytes32"
						},
						{
							"internalType": "bytes",
							"name": "data",
							"type": "bytes"
						}
					],
					"name": "deposit",
					"outputs": [],
					"stateMutability": "payable",
					"type": "function"
				},
				{
					"inputs": [
						{
							"internalType": "uint8",
							"name": "chainID",
							"type": "uint8"
						},
						{
							"internalType": "uint64",
							"name": "depositNonce",
							"type": "uint64"
						},
						{
							"internalType": "bytes",
							"name": "data",
							"type": "bytes"
						},
						{
							"internalType": "bytes32",
							"name": "resourceID",
							"type": "bytes32"
						}
					],
					"name": "executeProposal",
					"outputs": [],
					"stateMutability": "nonpayable",
					"type": "function"
				},
				{
					"inputs": [
						{
							"internalType": "uint8",
							"name": "originChainID",
							"type": "uint8"
						},
						{
							"internalType": "uint64",
							"name": "depositNonce",
							"type": "uint64"
						},
						{
							"internalType": "bytes32",
							"name": "dataHash",
							"type": "bytes32"
						}
					],
					"name": "getProposal",
					"outputs": [
						{
							"components": [
								{
									"internalType": "bytes32",
									"name": "_resourceID",
									"type": "bytes32"
								},
								{
									"internalType": "bytes32",
									"name": "_dataHash",
									"type": "bytes32"
								},
								{
									"internalType": "address[]",
									"name": "_yesVotes",
									"type": "address[]"
								},
								{
									"internalType": "address[]",
									"name": "_noVotes",
									"type": "address[]"
								},
								{
									"internalType": "enum Bridge.ProposalStatus",
									"name": "_status",
									"type": "uint8"
								},
								{
									"internalType": "uint256",
									"name": "_proposedBlock",
									"type": "uint256"
								}
							],
							"internalType": "struct Bridge.Proposal",
							"name": "",
							"type": "tuple"
						}
					],
					"stateMutability": "view",
					"type": "function"
				},
				{
					"inputs": [
						{
							"internalType": "bytes32",
							"name": "role",
							"type": "bytes32"
						}
					],
					"name": "getRoleAdmin",
					"outputs": [
						{
							"internalType": "bytes32",
							"name": "",
							"type": "bytes32"
						}
					],
					"stateMutability": "view",
					"type": "function"
				},
				{
					"inputs": [
						{
							"internalType": "bytes32",
							"name": "role",
							"type": "bytes32"
						},
						{
							"internalType": "uint256",
							"name": "index",
							"type": "uint256"
						}
					],
					"name": "getRoleMember",
					"outputs": [
						{
							"internalType": "address",
							"name": "",
							"type": "address"
						}
					],
					"stateMutability": "view",
					"type": "function"
				},
				{
					"inputs": [
						{
							"internalType": "bytes32",
							"name": "role",
							"type": "bytes32"
						}
					],
					"name": "getRoleMemberCount",
					"outputs": [
						{
							"internalType": "uint256",
							"name": "",
							"type": "uint256"
						}
					],
					"stateMutability": "view",
					"type": "function"
				},
				{
					"inputs": [
						{
							"internalType": "bytes32",
							"name": "role",
							"type": "bytes32"
						},
						{
							"internalType": "address",
							"name": "account",
							"type": "address"
						}
					],
					"name": "grantRole",
					"outputs": [],
					"stateMutability": "nonpayable",
					"type": "function"
				},
				{
					"inputs": [
						{
							"internalType": "bytes32",
							"name": "role",
							"type": "bytes32"
						},
						{
							"internalType": "address",
							"name": "account",
							"type": "address"
						}
					],
					"name": "hasRole",
					"outputs": [
						{
							"internalType": "bool",
							"name": "",
							"type": "bool"
						}
					],
					"stateMutability": "view",
					"type": "function"
				},
				{
					"inputs": [
						{
							"internalType": "address",
							"name": "relayer",
							"type": "address"
						}
					],
					"name": "isRelayer",
					"outputs": [
						{
							"internalType": "bool",
							"name": "",
							"type": "bool"
						}
					],
					"stateMutability": "view",
					"type": "function"
				},
				{
					"inputs": [],
					"name": "paused",
					"outputs": [
						{
							"internalType": "bool",
							"name": "",
							"type": "bool"
						}
					],
					"stateMutability": "view",
					"type": "function"
				},
				{
					"inputs": [
						{
							"internalType": "address",
							"name": "newAdmin",
							"type": "address"
						}
					],
					"name": "renounceAdmin",
					"outputs": [],
					"stateMutability": "nonpayable",
					"type": "function"
				},
				{
					"inputs": [
						{
							"internalType": "bytes32",
							"name": "role",
							"type": "bytes32"
						},
						{
							"internalType": "address",
							"name": "account",
							"type": "address"
						}
					],
					"name": "renounceRole",
					"outputs": [],
					"stateMutability": "nonpayable",
					"type": "function"
				},
				{
					"inputs": [
						{
							"internalType": "bytes32",
							"name": "role",
							"type": "bytes32"
						},
						{
							"internalType": "address",
							"name": "account",
							"type": "address"
						}
					],
					"name": "revokeRole",
					"outputs": [],
					"stateMutability": "nonpayable",
					"type": "function"
				},
				{
					"inputs": [
						{
							"internalType": "address payable[]",
							"name": "addrs",
							"type": "address[]"
						},
						{
							"internalType": "uint256[]",
							"name": "amounts",
							"type": "uint256[]"
						}
					],
					"name": "transferFunds",
					"outputs": [],
					"stateMutability": "nonpayable",
					"type": "function"
				},
				{
					"inputs": [
						{
							"internalType": "uint8",
							"name": "chainID",
							"type": "uint8"
						},
						{
							"internalType": "uint64",
							"name": "depositNonce",
							"type": "uint64"
						},
						{
							"internalType": "bytes32",
							"name": "resourceID",
							"type": "bytes32"
						},
						{
							"internalType": "bytes32",
							"name": "dataHash",
							"type": "bytes32"
						}
					],
					"name": "voteProposal",
					"outputs": [],
					"stateMutability": "nonpayable",
					"type": "function"
				}
			],
			"devdoc": {
				"methods": {
					"adminAddRelayer(address)": {
						"params": {
							"relayerAddress": "Address of relayer to be added."
						}
					},
					"adminChangeFee(uint256)": {
						"params": {
							"newFee": "Value {_fee} will be updated to."
						}
					},
					"adminChangeRelayerThreshold(uint256)": {
						"params": {
							"newThreshold": "Value {_relayerThreshold} will be changed to."
						}
					},
					"adminRemoveRelayer(address)": {
						"params": {
							"relayerAddress": "Address of relayer to be removed."
						}
					},
					"adminSetBurnable(address,address)": {
						"params": {
							"handlerAddress": "Address of handler resource will be set for.",
							"tokenAddress": "Address of contract to be called when a deposit is made and a deposited is executed."
						}
					},
					"adminSetGenericResource(address,bytes32,address,bytes4,bytes4)": {
						"params": {
							"contractAddress": "Address of contract to be called when a deposit is made and a deposited is executed.",
							"handlerAddress": "Address of handler resource will be set for.",
							"resourceID": "ResourceID to be used when making deposits."
						}
					},
					"adminSetResource(address,bytes32,address)": {
						"params": {
							"handlerAddress": "Address of handler resource will be set for.",
							"resourceID": "ResourceID to be used when making deposits.",
							"tokenAddress": "Address of contract to be called when a deposit is made and a deposited is executed."
						}
					},
					"adminWithdraw(address,address,address,uint256)": {
						"params": {
							"amountOrTokenID": "Either the amount of ERC20 tokens or the ERC721 token ID to withdraw.",
							"handlerAddress": "Address of handler to withdraw from.",
							"recipient": "Address to withdraw tokens to.",
							"tokenAddress": "Address of token to withdraw."
						}
					},
					"cancelProposal(uint8,uint64,bytes32)": {
						"params": {
							"chainID": "ID of chain deposit originated from.",
							"dataHash": "Hash of data originally provided when deposit was made.",
							"depositNonce": "ID of deposited generated by origin Bridge contract."
						}
					},
					"deposit(uint8,bytes32,bytes)": {
						"params": {
							"data": "Additional data to be passed to specified handler.",
							"destinationChainID": "ID of chain deposit will be bridged to.",
							"resourceID": "ResourceID used to find address of handler to be used for deposit."
						}
					},
					"executeProposal(uint8,uint64,bytes,bytes32)": {
						"params": {
							"chainID": "ID of chain deposit originated from.",
							"data": "Data originally provided when deposit was made.",
							"depositNonce": "ID of deposited generated by origin Bridge contract.",
							"resourceID": "ResourceID to be used when making deposits."
						}
					},
					"getProposal(uint8,uint64,bytes32)": {
						"params": {
							"dataHash": "Hash of data to be provided when deposit proposal is executed.",
							"depositNonce": "ID of proposal generated by proposal's origin Bridge contract.",
							"originChainID": "Chain ID deposit originated from."
						},
						"returns": {
							"_0": "Proposal which consists of: - _dataHash Hash of data to be provided when deposit proposal is executed. - _yesVotes Number of votes in favor of proposal. - _noVotes Number of votes against proposal. - _status Current status of proposal."
						}
					},
					"getRoleAdmin(bytes32)": {
						"details": "Returns the admin role that controls `role`. See {grantRole} and {revokeRole}.     * To change a role's admin, use {_setRoleAdmin}."
					},
					"getRoleMember(bytes32,uint256)": {
						"details": "Returns one of the accounts that have `role`. `index` must be a value between 0 and {getRoleMemberCount}, non-inclusive.     * Role bearers are not sorted in any particular way, and their ordering may change at any point.     * WARNING: When using {getRoleMember} and {getRoleMemberCount}, make sure you perform all queries on the same block. See the following https://forum.openzeppelin.com/t/iterating-over-elements-on-enumerableset-in-openzeppelin-contracts/2296[forum post] for more information."
					},
					"getRoleMemberCount(bytes32)": {
						"details": "Returns the number of accounts that have `role`. Can be used together with {getRoleMember} to enumerate all bearers of a role."
					},
					"grantRole(bytes32,address)": {
						"details": "Grants `role` to `account`.     * If `account` had not been already granted `role`, emits a {RoleGranted} event.     * Requirements:     * - the caller must have ``role``'s admin role."
					},
					"hasRole(bytes32,address)": {
						"details": "Returns `true` if `account` has been granted `role`."
					},
					"paused()": {
						"details": "Returns true if the contract is paused, and false otherwise."
					},
					"renounceRole(bytes32,address)": {
						"details": "Revokes `role` from the calling account.     * Roles are often managed via {grantRole} and {revokeRole}: this function's purpose is to provide a mechanism for accounts to lose their privileges if they are compromised (such as when a trusted device is misplaced).     * If the calling account had been granted `role`, emits a {RoleRevoked} event.     * Requirements:     * - the caller must be `account`."
					},
					"revokeRole(bytes32,address)": {
						"details": "Revokes `role` from `account`.     * If `account` had been granted `role`, emits a {RoleRevoked} event.     * Requirements:     * - the caller must have ``role``'s admin role."
					},
					"transferFunds(address[],uint256[])": {
						"params": {
							"addrs": "Array of addresses to transfer {amounts} to.",
							"amounts": "Array of amonuts to transfer to {addrs}."
						}
					},
					"voteProposal(uint8,uint64,bytes32,bytes32)": {
						"params": {
							"chainID": "ID of chain deposit originated from.",
							"dataHash": "Hash of data provided when deposit was made.",
							"depositNonce": "ID of deposited generated by origin Bridge contract."
						}
					}
				}
			},
			"evm": {
				"assembly": "    /* \"contracts/Bridge.sol\":318:17532  contract Bridge is Pausable, AccessControl, SafeMath {... */\n  mstore(0x40, 0x80)\n    /* \"contracts/Bridge.sol\":2970:3497  constructor (uint8 chainID, address[] memory initialRelayers, uint initialRelayerThreshold, uint256 fee, uint256 expiry) public {... */\n  callvalue\n    /* \"--CODEGEN--\":5:14   */\n  dup1\n    /* \"--CODEGEN--\":2:4   */\n  iszero\n  tag_1\n  jumpi\n    /* \"--CODEGEN--\":27:28   */\n  0x00\n    /* \"--CODEGEN--\":24:25   */\n  dup1\n    /* \"--CODEGEN--\":17:29   */\n  revert\n    /* \"--CODEGEN--\":2:4   */\ntag_1:\n    /* \"contracts/Bridge.sol\":2970:3497  constructor (uint8 chainID, address[] memory initialRelayers, uint initialRelayerThreshold, uint256 fee, uint256 expiry) public {... */\n  pop\n  mload(0x40)\n  sub(codesize, bytecodeSize)\n  dup1\n  bytecodeSize\n  dup4\n  codecopy\n  dup2\n  dup2\n  add\n  0x40\n  mstore\n  dup2\n  add\n  swap1\n  tag_2\n  swap2\n  swap1\n  jump(tag_3)\ntag_2:\n    /* \"contracts/utils/Pausable.sol\":782:787  false */\n  0x00\n    /* \"contracts/utils/Pausable.sol\":772:779  _paused */\n  dup1\n  0x00\n    /* \"contracts/utils/Pausable.sol\":772:787  _paused = false */\n  0x0100\n  exp\n  dup2\n  sload\n  dup2\n  0xff\n  mul\n  not\n  and\n  swap1\n  dup4\n  iszero\n  iszero\n  mul\n  or\n  swap1\n  sstore\n  pop\n    /* \"contracts/Bridge.sol\":3119:3126  chainID */\n  dup5\n    /* \"contracts/Bridge.sol\":3108:3116  _chainID */\n  0x02\n  0x00\n    /* \"contracts/Bridge.sol\":3108:3126  _chainID = chainID */\n  0x0100\n  exp\n  dup2\n  sload\n  dup2\n  0xff\n  mul\n  not\n  and\n  swap1\n  dup4\n  0xff\n  and\n  mul\n  or\n  swap1\n  sstore\n  pop\n    /* \"contracts/Bridge.sol\":3156:3179  initialRelayerThreshold */\n  dup3\n    /* \"contracts/Bridge.sol\":3136:3153  _relayerThreshold */\n  0x03\n    /* \"contracts/Bridge.sol\":3136:3179  _relayerThreshold = initialRelayerThreshold */\n  dup2\n  swap1\n  sstore\n  pop\n    /* \"contracts/Bridge.sol\":3196:3199  fee */\n  dup2\n    /* \"contracts/Bridge.sol\":3189:3193  _fee */\n  0x06\n    /* \"contracts/Bridge.sol\":3189:3199  _fee = fee */\n  dup2\n  swap1\n  sstore\n  pop\n    /* \"contracts/Bridge.sol\":3219:3225  expiry */\n  dup1\n    /* \"contracts/Bridge.sol\":3209:3216  _expiry */\n  0x07\n    /* \"contracts/Bridge.sol\":3209:3225  _expiry = expiry */\n  dup2\n  swap1\n  sstore\n  pop\n    /* \"contracts/Bridge.sol\":3236:3278  _setupRole(DEFAULT_ADMIN_ROLE, msg.sender) */\n  tag_10\n    /* \"contracts/access/AccessControl.sol\":1729:1733  0x00 */\n  0x00\n    /* \"contracts/Bridge.sol\":3247:3265  DEFAULT_ADMIN_ROLE */\n  dup1\n  shl\n    /* \"contracts/Bridge.sol\":3267:3277  msg.sender */\n  caller\n    /* \"contracts/Bridge.sol\":3236:3246  _setupRole */\n  shl(0x20, tag_11)\n    /* \"contracts/Bridge.sol\":3236:3278  _setupRole(DEFAULT_ADMIN_ROLE, msg.sender) */\n  0x20\n  shr\n  jump\t// in\ntag_10:\n    /* \"contracts/Bridge.sol\":3288:3335  _setRoleAdmin(RELAYER_ROLE, DEFAULT_ADMIN_ROLE) */\n  tag_12\n    /* \"contracts/Bridge.sol\":2251:2276  keccak256(\"RELAYER_ROLE\") */\n  mload(0x40)\n  tag_13\n  swap1\n  jump(tag_14)\ntag_13:\n  mload(0x40)\n  dup1\n  swap2\n  sub\n  swap1\n  keccak256\n    /* \"contracts/access/AccessControl.sol\":1729:1733  0x00 */\n  0x00\n    /* \"contracts/Bridge.sol\":3316:3334  DEFAULT_ADMIN_ROLE */\n  dup1\n  shl\n    /* \"contracts/Bridge.sol\":3288:3301  _setRoleAdmin */\n  shl(0x20, tag_15)\n    /* \"contracts/Bridge.sol\":3288:3335  _setRoleAdmin(RELAYER_ROLE, DEFAULT_ADMIN_ROLE) */\n  0x20\n  shr\n  jump\t// in\ntag_12:\n    /* \"contracts/Bridge.sol\":3351:3357  uint i */\n  0x00\n    /* \"contracts/Bridge.sol\":3346:3490  for (uint i; i < initialRelayers.length; i++) {... */\ntag_16:\n    /* \"contracts/Bridge.sol\":3363:3378  initialRelayers */\n  dup5\n    /* \"contracts/Bridge.sol\":3363:3385  initialRelayers.length */\n  mload\n    /* \"contracts/Bridge.sol\":3359:3360  i */\n  dup2\n    /* \"contracts/Bridge.sol\":3359:3385  i < initialRelayers.length */\n  lt\n    /* \"contracts/Bridge.sol\":3346:3490  for (uint i; i < initialRelayers.length; i++) {... */\n  iszero\n  tag_17\n  jumpi\n    /* \"contracts/Bridge.sol\":3406:3449  grantRole(RELAYER_ROLE, initialRelayers[i]) */\n  tag_19\n    /* \"contracts/Bridge.sol\":2251:2276  keccak256(\"RELAYER_ROLE\") */\n  mload(0x40)\n  tag_20\n  swap1\n  jump(tag_14)\ntag_20:\n  mload(0x40)\n  dup1\n  swap2\n  sub\n  swap1\n  keccak256\n    /* \"contracts/Bridge.sol\":3430:3445  initialRelayers */\n  dup7\n    /* \"contracts/Bridge.sol\":3446:3447  i */\n  dup4\n    /* \"contracts/Bridge.sol\":3430:3448  initialRelayers[i] */\n  dup2\n  mload\n  dup2\n  lt\n  tag_21\n  jumpi\n  invalid\ntag_21:\n  0x20\n  mul\n  0x20\n  add\n  add\n  mload\n    /* \"contracts/Bridge.sol\":3406:3415  grantRole */\n  shl(0x20, tag_22)\n    /* \"contracts/Bridge.sol\":3406:3449  grantRole(RELAYER_ROLE, initialRelayers[i]) */\n  0x20\n  shr\n  jump\t// in\ntag_19:\n    /* \"contracts/Bridge.sol\":3463:3477  _totalRelayers */\n  0x04\n  0x00\n    /* \"contracts/Bridge.sol\":3463:3479  _totalRelayers++ */\n  dup2\n  sload\n  dup1\n  swap3\n  swap2\n  swap1\n  0x01\n  add\n  swap2\n  swap1\n  pop\n  sstore\n  pop\n    /* \"contracts/Bridge.sol\":3387:3390  i++ */\n  dup1\n  dup1\n  0x01\n  add\n  swap2\n  pop\n  pop\n    /* \"contracts/Bridge.sol\":3346:3490  for (uint i; i < initialRelayers.length; i++) {... */\n  jump(tag_16)\ntag_17:\n  pop\n    /* \"contracts/Bridge.sol\":2970:3497  constructor (uint8 chainID, address[] memory initialRelayers, uint initialRelayerThreshold, uint256 fee, uint256 expiry) public {... */\n  pop\n  pop\n  pop\n  pop\n  pop\n    /* \"contracts/Bridge.sol\":318:17532  contract Bridge is Pausable, AccessControl, SafeMath {... */\n  jump(tag_23)\n    /* \"contracts/access/AccessControl.sol\":6132:6242  function _setupRole(bytes32 role, address account) internal virtual {... */\ntag_11:\n    /* \"contracts/access/AccessControl.sol\":6210:6235  _grantRole(role, account) */\n  tag_25\n    /* \"contracts/access/AccessControl.sol\":6221:6225  role */\n  dup3\n    /* \"contracts/access/AccessControl.sol\":6227:6234  account */\n  dup3\n    /* \"contracts/access/AccessControl.sol\":6210:6220  _grantRole */\n  shl(0x20, tag_26)\n    /* \"contracts/access/AccessControl.sol\":6210:6235  _grantRole(role, account) */\n  0x20\n  shr\n  jump\t// in\ntag_25:\n    /* \"contracts/access/AccessControl.sol\":6132:6242  function _setupRole(bytes32 role, address account) internal virtual {... */\n  pop\n  pop\n  jump\t// out\n    /* \"contracts/access/AccessControl.sol\":6319:6443  function _setRoleAdmin(bytes32 role, bytes32 adminRole) internal virtual {... */\ntag_15:\n    /* \"contracts/access/AccessControl.sol\":6427:6436  adminRole */\n  dup1\n    /* \"contracts/access/AccessControl.sol\":6402:6408  _roles */\n  0x01\n    /* \"contracts/access/AccessControl.sol\":6402:6414  _roles[role] */\n  0x00\n    /* \"contracts/access/AccessControl.sol\":6409:6413  role */\n  dup5\n    /* \"contracts/access/AccessControl.sol\":6402:6414  _roles[role] */\n  dup2\n  mstore\n  0x20\n  add\n  swap1\n  dup2\n  mstore\n  0x20\n  add\n  0x00\n  keccak256\n    /* \"contracts/access/AccessControl.sol\":6402:6424  _roles[role].adminRole */\n  0x02\n  add\n    /* \"contracts/access/AccessControl.sol\":6402:6436  _roles[role].adminRole = adminRole */\n  dup2\n  swap1\n  sstore\n  pop\n    /* \"contracts/access/AccessControl.sol\":6319:6443  function _setRoleAdmin(bytes32 role, bytes32 adminRole) internal virtual {... */\n  pop\n  pop\n  jump\t// out\n    /* \"contracts/access/AccessControl.sol\":4188:4411  function grantRole(bytes32 role, address account) public virtual {... */\ntag_22:\n    /* \"contracts/access/AccessControl.sol\":4271:4316  hasRole(_roles[role].adminRole, _msgSender()) */\n  tag_29\n    /* \"contracts/access/AccessControl.sol\":4279:4285  _roles */\n  0x01\n    /* \"contracts/access/AccessControl.sol\":4279:4291  _roles[role] */\n  0x00\n    /* \"contracts/access/AccessControl.sol\":4286:4290  role */\n  dup5\n    /* \"contracts/access/AccessControl.sol\":4279:4291  _roles[role] */\n  dup2\n  mstore\n  0x20\n  add\n  swap1\n  dup2\n  mstore\n  0x20\n  add\n  0x00\n  keccak256\n    /* \"contracts/access/AccessControl.sol\":4279:4301  _roles[role].adminRole */\n  0x02\n  add\n  sload\n    /* \"contracts/access/AccessControl.sol\":4303:4315  _msgSender() */\n  tag_30\n    /* \"contracts/access/AccessControl.sol\":4303:4313  _msgSender */\n  shl(0x20, tag_31)\n    /* \"contracts/access/AccessControl.sol\":4303:4315  _msgSender() */\n  0x20\n  shr\n  jump\t// in\ntag_30:\n    /* \"contracts/access/AccessControl.sol\":4271:4278  hasRole */\n  shl(0x20, tag_32)\n    /* \"contracts/access/AccessControl.sol\":4271:4316  hasRole(_roles[role].adminRole, _msgSender()) */\n  0x20\n  shr\n  jump\t// in\ntag_29:\n    /* \"contracts/access/AccessControl.sol\":4263:4368  require(hasRole(_roles[role].adminRole, _msgSender()), \"AccessControl: sender must be an admin to grant\") */\n  tag_33\n  jumpi\n  mload(0x40)\n  0x08c379a000000000000000000000000000000000000000000000000000000000\n  dup2\n  mstore\n  0x04\n  add\n  tag_34\n  swap1\n  jump(tag_35)\ntag_34:\n  mload(0x40)\n  dup1\n  swap2\n  sub\n  swap1\n  revert\ntag_33:\n    /* \"contracts/access/AccessControl.sol\":4379:4404  _grantRole(role, account) */\n  tag_36\n    /* \"contracts/access/AccessControl.sol\":4390:4394  role */\n  dup3\n    /* \"contracts/access/AccessControl.sol\":4396:4403  account */\n  dup3\n    /* \"contracts/access/AccessControl.sol\":4379:4389  _grantRole */\n  shl(0x20, tag_26)\n    /* \"contracts/access/AccessControl.sol\":4379:4404  _grantRole(role, account) */\n  0x20\n  shr\n  jump\t// in\ntag_36:\n    /* \"contracts/access/AccessControl.sol\":4188:4411  function grantRole(bytes32 role, address account) public virtual {... */\n  pop\n  pop\n  jump\t// out\n    /* \"contracts/access/AccessControl.sol\":6449:6633  function _grantRole(bytes32 role, address account) private {... */\ntag_26:\n    /* \"contracts/access/AccessControl.sol\":6522:6555  _roles[role].members.add(account) */\n  tag_38\n    /* \"contracts/access/AccessControl.sol\":6547:6554  account */\n  dup2\n    /* \"contracts/access/AccessControl.sol\":6522:6528  _roles */\n  0x01\n    /* \"contracts/access/AccessControl.sol\":6522:6534  _roles[role] */\n  0x00\n    /* \"contracts/access/AccessControl.sol\":6529:6533  role */\n  dup6\n    /* \"contracts/access/AccessControl.sol\":6522:6534  _roles[role] */\n  dup2\n  mstore\n  0x20\n  add\n  swap1\n  dup2\n  mstore\n  0x20\n  add\n  0x00\n  keccak256\n    /* \"contracts/access/AccessControl.sol\":6522:6542  _roles[role].members */\n  0x00\n  add\n    /* \"contracts/access/AccessControl.sol\":6522:6546  _roles[role].members.add */\n  or(tag_0_515, shl(0x20, tag_39))\n  swap1\n    /* \"contracts/access/AccessControl.sol\":6522:6555  _roles[role].members.add(account) */\n  swap2\n  swap1\n  0x20\n  shr\n  jump\t// in\ntag_38:\n    /* \"contracts/access/AccessControl.sol\":6518:6627  if (_roles[role].members.add(account)) {... */\n  iszero\n  tag_40\n  jumpi\n    /* \"contracts/access/AccessControl.sol\":6603:6615  _msgSender() */\n  tag_41\n    /* \"contracts/access/AccessControl.sol\":6603:6613  _msgSender */\n  shl(0x20, tag_31)\n    /* \"contracts/access/AccessControl.sol\":6603:6615  _msgSender() */\n  0x20\n  shr\n  jump\t// in\ntag_41:\n    /* \"contracts/access/AccessControl.sol\":6576:6616  RoleGranted(role, account, _msgSender()) */\n  0xffffffffffffffffffffffffffffffffffffffff\n  and\n    /* \"contracts/access/AccessControl.sol\":6594:6601  account */\n  dup2\n    /* \"contracts/access/AccessControl.sol\":6576:6616  RoleGranted(role, account, _msgSender()) */\n  0xffffffffffffffffffffffffffffffffffffffff\n  and\n    /* \"contracts/access/AccessControl.sol\":6588:6592  role */\n  dup4\n    /* \"contracts/access/AccessControl.sol\":6576:6616  RoleGranted(role, account, _msgSender()) */\n  0x2f8788117e7eff1d82e926ec794901d17c78024a50270940304540a733656f0d\n  mload(0x40)\n  mload(0x40)\n  dup1\n  swap2\n  sub\n  swap1\n  log4\n    /* \"contracts/access/AccessControl.sol\":6518:6627  if (_roles[role].members.add(account)) {... */\ntag_40:\n    /* \"contracts/access/AccessControl.sol\":6449:6633  function _grantRole(bytes32 role, address account) private {... */\n  pop\n  pop\n  jump\t// out\n    /* \"contracts/GSN/Context.sol\":735:839  function _msgSender() internal view virtual returns (address payable) {... */\ntag_31:\n    /* \"contracts/GSN/Context.sol\":788:803  address payable */\n  0x00\n    /* \"contracts/GSN/Context.sol\":822:832  msg.sender */\n  caller\n    /* \"contracts/GSN/Context.sol\":815:832  return msg.sender */\n  swap1\n  pop\n    /* \"contracts/GSN/Context.sol\":735:839  function _msgSender() internal view virtual returns (address payable) {... */\n  swap1\n  jump\t// out\n    /* \"contracts/access/AccessControl.sol\":2494:2631  function hasRole(bytes32 role, address account) public view returns (bool) {... */\ntag_32:\n    /* \"contracts/access/AccessControl.sol\":2563:2567  bool */\n  0x00\n    /* \"contracts/access/AccessControl.sol\":2586:2624  _roles[role].members.contains(account) */\n  tag_44\n    /* \"contracts/access/AccessControl.sol\":2616:2623  account */\n  dup3\n    /* \"contracts/access/AccessControl.sol\":2586:2592  _roles */\n  0x01\n    /* \"contracts/access/AccessControl.sol\":2586:2598  _roles[role] */\n  0x00\n    /* \"contracts/access/AccessControl.sol\":2593:2597  role */\n  dup7\n    /* \"contracts/access/AccessControl.sol\":2586:2598  _roles[role] */\n  dup2\n  mstore\n  0x20\n  add\n  swap1\n  dup2\n  mstore\n  0x20\n  add\n  0x00\n  keccak256\n    /* \"contracts/access/AccessControl.sol\":2586:2606  _roles[role].members */\n  0x00\n  add\n    /* \"contracts/access/AccessControl.sol\":2586:2615  _roles[role].members.contains */\n  or(tag_0_429, shl(0x20, tag_45))\n  swap1\n    /* \"contracts/access/AccessControl.sol\":2586:2624  _roles[role].members.contains(account) */\n  swap2\n  swap1\n  0x20\n  shr\n  jump\t// in\ntag_44:\n    /* \"contracts/access/AccessControl.sol\":2579:2624  return _roles[role].members.contains(account) */\n  swap1\n  pop\n    /* \"contracts/access/AccessControl.sol\":2494:2631  function hasRole(bytes32 role, address account) public view returns (bool) {... */\n  swap3\n  swap2\n  pop\n  pop\n  jump\t// out\n    /* \"contracts/utils/EnumerableSet.sol\":4831:4972  function add(AddressSet storage set, address value) internal returns (bool) {... */\ntag_39:\n    /* \"contracts/utils/EnumerableSet.sol\":4901:4905  bool */\n  0x00\n    /* \"contracts/utils/EnumerableSet.sol\":4924:4965  _add(set._inner, bytes32(uint256(value))) */\n  tag_47\n    /* \"contracts/utils/EnumerableSet.sol\":4929:4932  set */\n  dup4\n    /* \"contracts/utils/EnumerableSet.sol\":4929:4939  set._inner */\n  0x00\n  add\n    /* \"contracts/utils/EnumerableSet.sol\":4957:4962  value */\n  dup4\n    /* \"contracts/utils/EnumerableSet.sol\":4949:4963  uint256(value) */\n  0xffffffffffffffffffffffffffffffffffffffff\n  and\n    /* \"contracts/utils/EnumerableSet.sol\":4941:4964  bytes32(uint256(value)) */\n  0x00\n  shl\n    /* \"contracts/utils/EnumerableSet.sol\":4924:4928  _add */\n  shl(0x20, tag_48)\n    /* \"contracts/utils/EnumerableSet.sol\":4924:4965  _add(set._inner, bytes32(uint256(value))) */\n  0x20\n  shr\n  jump\t// in\ntag_47:\n    /* \"contracts/utils/EnumerableSet.sol\":4917:4965  return _add(set._inner, bytes32(uint256(value))) */\n  swap1\n  pop\n    /* \"contracts/utils/EnumerableSet.sol\":4831:4972  function add(AddressSet storage set, address value) internal returns (bool) {... */\n  swap3\n  swap2\n  pop\n  pop\n  jump\t// out\n    /* \"contracts/utils/EnumerableSet.sol\":5368:5524  function contains(AddressSet storage set, address value) internal view returns (bool) {... */\ntag_45:\n    /* \"contracts/utils/EnumerableSet.sol\":5448:5452  bool */\n  0x00\n    /* \"contracts/utils/EnumerableSet.sol\":5471:5517  _contains(set._inner, bytes32(uint256(value))) */\n  tag_50\n    /* \"contracts/utils/EnumerableSet.sol\":5481:5484  set */\n  dup4\n    /* \"contracts/utils/EnumerableSet.sol\":5481:5491  set._inner */\n  0x00\n  add\n    /* \"contracts/utils/EnumerableSet.sol\":5509:5514  value */\n  dup4\n    /* \"contracts/utils/EnumerableSet.sol\":5501:5515  uint256(value) */\n  0xffffffffffffffffffffffffffffffffffffffff\n  and\n    /* \"contracts/utils/EnumerableSet.sol\":5493:5516  bytes32(uint256(value)) */\n  0x00\n  shl\n    /* \"contracts/utils/EnumerableSet.sol\":5471:5480  _contains */\n  shl(0x20, tag_51)\n    /* \"contracts/utils/EnumerableSet.sol\":5471:5517  _contains(set._inner, bytes32(uint256(value))) */\n  0x20\n  shr\n  jump\t// in\ntag_50:\n    /* \"contracts/utils/EnumerableSet.sol\":5464:5517  return _contains(set._inner, bytes32(uint256(value))) */\n  swap1\n  pop\n    /* \"contracts/utils/EnumerableSet.sol\":5368:5524  function contains(AddressSet storage set, address value) internal view returns (bool) {... */\n  swap3\n  swap2\n  pop\n  pop\n  jump\t// out\n    /* \"contracts/utils/EnumerableSet.sol\":1578:1982  function _add(Set storage set, bytes32 value) private returns (bool) {... */\ntag_48:\n    /* \"contracts/utils/EnumerableSet.sol\":1641:1645  bool */\n  0x00\n    /* \"contracts/utils/EnumerableSet.sol\":1662:1683  _contains(set, value) */\n  tag_53\n    /* \"contracts/utils/EnumerableSet.sol\":1672:1675  set */\n  dup4\n    /* \"contracts/utils/EnumerableSet.sol\":1677:1682  value */\n  dup4\n    /* \"contracts/utils/EnumerableSet.sol\":1662:1671  _contains */\n  shl(0x20, tag_51)\n    /* \"contracts/utils/EnumerableSet.sol\":1662:1683  _contains(set, value) */\n  0x20\n  shr\n  jump\t// in\ntag_53:\n    /* \"contracts/utils/EnumerableSet.sol\":1657:1976  if (!_contains(set, value)) {... */\n  tag_54\n  jumpi\n    /* \"contracts/utils/EnumerableSet.sol\":1699:1702  set */\n  dup3\n    /* \"contracts/utils/EnumerableSet.sol\":1699:1710  set._values */\n  0x00\n  add\n    /* \"contracts/utils/EnumerableSet.sol\":1716:1721  value */\n  dup3\n    /* \"contracts/utils/EnumerableSet.sol\":1699:1722  set._values.push(value) */\n  swap1\n  dup1\n    /* \"--CODEGEN--\":39:40   */\n  0x01\n    /* \"--CODEGEN--\":33:36   */\n  dup2\n    /* \"--CODEGEN--\":27:37   */\n  sload\n    /* \"--CODEGEN--\":23:41   */\n  add\n    /* \"--CODEGEN--\":57:67   */\n  dup1\n    /* \"--CODEGEN--\":52:55   */\n  dup3\n    /* \"--CODEGEN--\":45:68   */\n  sstore\n    /* \"--CODEGEN--\":79:89   */\n  dup1\n    /* \"--CODEGEN--\":72:89   */\n  swap2\n  pop\n    /* \"--CODEGEN--\":0:93   */\n  pop\n    /* \"contracts/utils/EnumerableSet.sol\":1699:1722  set._values.push(value) */\n  0x01\n  swap1\n  sub\n  swap1\n  0x00\n  mstore\n  keccak256(0x00, 0x20)\n  add\n  0x00\n  swap1\n  swap2\n  swap1\n  swap2\n  swap1\n  swap2\n  pop\n  sstore\n    /* \"contracts/utils/EnumerableSet.sol\":1879:1882  set */\n  dup3\n    /* \"contracts/utils/EnumerableSet.sol\":1879:1890  set._values */\n  0x00\n  add\n    /* \"contracts/utils/EnumerableSet.sol\":1879:1897  set._values.length */\n  dup1\n  sload\n  swap1\n  pop\n    /* \"contracts/utils/EnumerableSet.sol\":1857:1860  set */\n  dup4\n    /* \"contracts/utils/EnumerableSet.sol\":1857:1869  set._indexes */\n  0x01\n  add\n    /* \"contracts/utils/EnumerableSet.sol\":1857:1876  set._indexes[value] */\n  0x00\n    /* \"contracts/utils/EnumerableSet.sol\":1870:1875  value */\n  dup5\n    /* \"contracts/utils/EnumerableSet.sol\":1857:1876  set._indexes[value] */\n  dup2\n  mstore\n  0x20\n  add\n  swap1\n  dup2\n  mstore\n  0x20\n  add\n  0x00\n  keccak256\n    /* \"contracts/utils/EnumerableSet.sol\":1857:1897  set._indexes[value] = set._values.length */\n  dup2\n  swap1\n  sstore\n  pop\n    /* \"contracts/utils/EnumerableSet.sol\":1918:1922  true */\n  0x01\n    /* \"contracts/utils/EnumerableSet.sol\":1911:1922  return true */\n  swap1\n  pop\n  jump(tag_52)\n    /* \"contracts/utils/EnumerableSet.sol\":1657:1976  if (!_contains(set, value)) {... */\ntag_54:\n    /* \"contracts/utils/EnumerableSet.sol\":1960:1965  false */\n  0x00\n    /* \"contracts/utils/EnumerableSet.sol\":1953:1965  return false */\n  swap1\n  pop\n    /* \"contracts/utils/EnumerableSet.sol\":1578:1982  function _add(Set storage set, bytes32 value) private returns (bool) {... */\ntag_52:\n  swap3\n  swap2\n  pop\n  pop\n  jump\t// out\n    /* \"contracts/utils/EnumerableSet.sol\":3743:3870  function _contains(Set storage set, bytes32 value) private view returns (bool) {... */\ntag_51:\n    /* \"contracts/utils/EnumerableSet.sol\":3816:3820  bool */\n  0x00\n    /* \"contracts/utils/EnumerableSet.sol\":3862:3863  0 */\n  dup1\n    /* \"contracts/utils/EnumerableSet.sol\":3839:3842  set */\n  dup4\n    /* \"contracts/utils/EnumerableSet.sol\":3839:3851  set._indexes */\n  0x01\n  add\n    /* \"contracts/utils/EnumerableSet.sol\":3839:3858  set._indexes[value] */\n  0x00\n    /* \"contracts/utils/EnumerableSet.sol\":3852:3857  value */\n  dup5\n    /* \"contracts/utils/EnumerableSet.sol\":3839:3858  set._indexes[value] */\n  dup2\n  mstore\n  0x20\n  add\n  swap1\n  dup2\n  mstore\n  0x20\n  add\n  0x00\n  keccak256\n  sload\n    /* \"contracts/utils/EnumerableSet.sol\":3839:3863  set._indexes[value] != 0 */\n  eq\n  iszero\n    /* \"contracts/utils/EnumerableSet.sol\":3832:3863  return set._indexes[value] != 0 */\n  swap1\n  pop\n    /* \"contracts/utils/EnumerableSet.sol\":3743:3870  function _contains(Set storage set, bytes32 value) private view returns (bool) {... */\n  swap3\n  swap2\n  pop\n  pop\n  jump\t// out\n    /* \"--CODEGEN--\":5:139   */\ntag_59:\n  0x00\n    /* \"--CODEGEN--\":89:95   */\n  dup2\n    /* \"--CODEGEN--\":83:96   */\n  mload\n    /* \"--CODEGEN--\":74:96   */\n  swap1\n  pop\n    /* \"--CODEGEN--\":101:134   */\n  tag_61\n    /* \"--CODEGEN--\":128:133   */\n  dup2\n    /* \"--CODEGEN--\":101:134   */\n  jump(tag_62)\ntag_61:\n    /* \"--CODEGEN--\":68:139   */\n  swap3\n  swap2\n  pop\n  pop\n  jump\n    /* \"--CODEGEN--\":164:886   */\ntag_63:\n  0x00\n    /* \"--CODEGEN--\":292:295   */\n  dup3\n    /* \"--CODEGEN--\":285:289   */\n  0x1f\n    /* \"--CODEGEN--\":277:283   */\n  dup4\n    /* \"--CODEGEN--\":273:290   */\n  add\n    /* \"--CODEGEN--\":269:296   */\n  slt\n    /* \"--CODEGEN--\":259:261   */\n  tag_65\n  jumpi\n    /* \"--CODEGEN--\":310:311   */\n  0x00\n    /* \"--CODEGEN--\":307:308   */\n  dup1\n    /* \"--CODEGEN--\":300:312   */\n  revert\n    /* \"--CODEGEN--\":259:261   */\ntag_65:\n    /* \"--CODEGEN--\":340:346   */\n  dup2\n    /* \"--CODEGEN--\":334:347   */\n  mload\n    /* \"--CODEGEN--\":362:442   */\n  tag_66\n    /* \"--CODEGEN--\":377:441   */\n  tag_67\n    /* \"--CODEGEN--\":434:440   */\n  dup3\n    /* \"--CODEGEN--\":377:441   */\n  jump(tag_68)\ntag_67:\n    /* \"--CODEGEN--\":362:442   */\n  jump(tag_69)\ntag_66:\n    /* \"--CODEGEN--\":353:442   */\n  swap2\n  pop\n    /* \"--CODEGEN--\":459:464   */\n  dup2\n    /* \"--CODEGEN--\":484:490   */\n  dup2\n    /* \"--CODEGEN--\":477:482   */\n  dup4\n    /* \"--CODEGEN--\":470:491   */\n  mstore\n    /* \"--CODEGEN--\":514:518   */\n  0x20\n    /* \"--CODEGEN--\":506:512   */\n  dup5\n    /* \"--CODEGEN--\":502:519   */\n  add\n    /* \"--CODEGEN--\":492:519   */\n  swap4\n  pop\n    /* \"--CODEGEN--\":536:540   */\n  0x20\n    /* \"--CODEGEN--\":531:534   */\n  dup2\n    /* \"--CODEGEN--\":527:541   */\n  add\n    /* \"--CODEGEN--\":520:541   */\n  swap1\n  pop\n    /* \"--CODEGEN--\":589:595   */\n  dup4\n    /* \"--CODEGEN--\":636:639   */\n  dup6\n    /* \"--CODEGEN--\":628:632   */\n  0x20\n    /* \"--CODEGEN--\":620:626   */\n  dup5\n    /* \"--CODEGEN--\":616:633   */\n  mul\n    /* \"--CODEGEN--\":611:614   */\n  dup3\n    /* \"--CODEGEN--\":607:634   */\n  add\n    /* \"--CODEGEN--\":604:640   */\n  gt\n    /* \"--CODEGEN--\":601:603   */\n  iszero\n  tag_70\n  jumpi\n    /* \"--CODEGEN--\":653:654   */\n  0x00\n    /* \"--CODEGEN--\":650:651   */\n  dup1\n    /* \"--CODEGEN--\":643:655   */\n  revert\n    /* \"--CODEGEN--\":601:603   */\ntag_70:\n    /* \"--CODEGEN--\":678:679   */\n  0x00\n    /* \"--CODEGEN--\":663:880   */\ntag_71:\n    /* \"--CODEGEN--\":688:694   */\n  dup4\n    /* \"--CODEGEN--\":685:686   */\n  dup2\n    /* \"--CODEGEN--\":682:695   */\n  lt\n    /* \"--CODEGEN--\":663:880   */\n  iszero\n  tag_73\n  jumpi\n    /* \"--CODEGEN--\":746:749   */\n  dup2\n    /* \"--CODEGEN--\":768:816   */\n  tag_74\n    /* \"--CODEGEN--\":812:815   */\n  dup9\n    /* \"--CODEGEN--\":800:810   */\n  dup3\n    /* \"--CODEGEN--\":768:816   */\n  jump(tag_59)\ntag_74:\n    /* \"--CODEGEN--\":763:766   */\n  dup5\n    /* \"--CODEGEN--\":756:817   */\n  mstore\n    /* \"--CODEGEN--\":840:844   */\n  0x20\n    /* \"--CODEGEN--\":835:838   */\n  dup5\n    /* \"--CODEGEN--\":831:845   */\n  add\n    /* \"--CODEGEN--\":824:845   */\n  swap4\n  pop\n    /* \"--CODEGEN--\":868:872   */\n  0x20\n    /* \"--CODEGEN--\":863:866   */\n  dup4\n    /* \"--CODEGEN--\":859:873   */\n  add\n    /* \"--CODEGEN--\":852:873   */\n  swap3\n  pop\n    /* \"--CODEGEN--\":720:880   */\n  pop\n    /* \"--CODEGEN--\":710:711   */\n  0x01\n    /* \"--CODEGEN--\":707:708   */\n  dup2\n    /* \"--CODEGEN--\":703:712   */\n  add\n    /* \"--CODEGEN--\":698:712   */\n  swap1\n  pop\n    /* \"--CODEGEN--\":663:880   */\n  jump(tag_71)\ntag_73:\n    /* \"--CODEGEN--\":667:681   */\n  pop\n    /* \"--CODEGEN--\":252:886   */\n  pop\n  pop\n  pop\n  swap3\n  swap2\n  pop\n  pop\n  jump\n    /* \"--CODEGEN--\":894:1028   */\ntag_75:\n  0x00\n    /* \"--CODEGEN--\":978:984   */\n  dup2\n    /* \"--CODEGEN--\":972:985   */\n  mload\n    /* \"--CODEGEN--\":963:985   */\n  swap1\n  pop\n    /* \"--CODEGEN--\":990:1023   */\n  tag_77\n    /* \"--CODEGEN--\":1017:1022   */\n  dup2\n    /* \"--CODEGEN--\":990:1023   */\n  jump(tag_78)\ntag_77:\n    /* \"--CODEGEN--\":957:1028   */\n  swap3\n  swap2\n  pop\n  pop\n  jump\n    /* \"--CODEGEN--\":1035:1165   */\ntag_79:\n  0x00\n    /* \"--CODEGEN--\":1117:1123   */\n  dup2\n    /* \"--CODEGEN--\":1111:1124   */\n  mload\n    /* \"--CODEGEN--\":1102:1124   */\n  swap1\n  pop\n    /* \"--CODEGEN--\":1129:1160   */\n  tag_81\n    /* \"--CODEGEN--\":1154:1159   */\n  dup2\n    /* \"--CODEGEN--\":1129:1160   */\n  jump(tag_82)\ntag_81:\n    /* \"--CODEGEN--\":1096:1165   */\n  swap3\n  swap2\n  pop\n  pop\n  jump\n    /* \"--CODEGEN--\":1172:2106   */\ntag_3:\n  0x00\n  dup1\n  0x00\n  dup1\n  0x00\n    /* \"--CODEGEN--\":1378:1381   */\n  0xa0\n    /* \"--CODEGEN--\":1366:1375   */\n  dup7\n    /* \"--CODEGEN--\":1357:1364   */\n  dup9\n    /* \"--CODEGEN--\":1353:1376   */\n  sub\n    /* \"--CODEGEN--\":1349:1382   */\n  slt\n    /* \"--CODEGEN--\":1346:1348   */\n  iszero\n  tag_84\n  jumpi\n    /* \"--CODEGEN--\":1395:1396   */\n  0x00\n    /* \"--CODEGEN--\":1392:1393   */\n  dup1\n    /* \"--CODEGEN--\":1385:1397   */\n  revert\n    /* \"--CODEGEN--\":1346:1348   */\ntag_84:\n    /* \"--CODEGEN--\":1430:1431   */\n  0x00\n    /* \"--CODEGEN--\":1447:1509   */\n  tag_85\n    /* \"--CODEGEN--\":1501:1508   */\n  dup9\n    /* \"--CODEGEN--\":1492:1498   */\n  dup3\n    /* \"--CODEGEN--\":1481:1490   */\n  dup10\n    /* \"--CODEGEN--\":1477:1499   */\n  add\n    /* \"--CODEGEN--\":1447:1509   */\n  jump(tag_79)\ntag_85:\n    /* \"--CODEGEN--\":1437:1509   */\n  swap6\n  pop\n    /* \"--CODEGEN--\":1409:1515   */\n  pop\n    /* \"--CODEGEN--\":1567:1569   */\n  0x20\n    /* \"--CODEGEN--\":1556:1565   */\n  dup7\n    /* \"--CODEGEN--\":1552:1570   */\n  add\n    /* \"--CODEGEN--\":1546:1571   */\n  mload\n    /* \"--CODEGEN--\":1591:1609   */\n  0xffffffffffffffff\n    /* \"--CODEGEN--\":1583:1589   */\n  dup2\n    /* \"--CODEGEN--\":1580:1610   */\n  gt\n    /* \"--CODEGEN--\":1577:1579   */\n  iszero\n  tag_86\n  jumpi\n    /* \"--CODEGEN--\":1623:1624   */\n  0x00\n    /* \"--CODEGEN--\":1620:1621   */\n  dup1\n    /* \"--CODEGEN--\":1613:1625   */\n  revert\n    /* \"--CODEGEN--\":1577:1579   */\ntag_86:\n    /* \"--CODEGEN--\":1643:1732   */\n  tag_87\n    /* \"--CODEGEN--\":1724:1731   */\n  dup9\n    /* \"--CODEGEN--\":1715:1721   */\n  dup3\n    /* \"--CODEGEN--\":1704:1713   */\n  dup10\n    /* \"--CODEGEN--\":1700:1722   */\n  add\n    /* \"--CODEGEN--\":1643:1732   */\n  jump(tag_63)\ntag_87:\n    /* \"--CODEGEN--\":1633:1732   */\n  swap5\n  pop\n    /* \"--CODEGEN--\":1525:1738   */\n  pop\n    /* \"--CODEGEN--\":1769:1771   */\n  0x40\n    /* \"--CODEGEN--\":1787:1851   */\n  tag_88\n    /* \"--CODEGEN--\":1843:1850   */\n  dup9\n    /* \"--CODEGEN--\":1834:1840   */\n  dup3\n    /* \"--CODEGEN--\":1823:1832   */\n  dup10\n    /* \"--CODEGEN--\":1819:1841   */\n  add\n    /* \"--CODEGEN--\":1787:1851   */\n  jump(tag_75)\ntag_88:\n    /* \"--CODEGEN--\":1777:1851   */\n  swap4\n  pop\n    /* \"--CODEGEN--\":1748:1857   */\n  pop\n    /* \"--CODEGEN--\":1888:1890   */\n  0x60\n    /* \"--CODEGEN--\":1906:1970   */\n  tag_89\n    /* \"--CODEGEN--\":1962:1969   */\n  dup9\n    /* \"--CODEGEN--\":1953:1959   */\n  dup3\n    /* \"--CODEGEN--\":1942:1951   */\n  dup10\n    /* \"--CODEGEN--\":1938:1960   */\n  add\n    /* \"--CODEGEN--\":1906:1970   */\n  jump(tag_75)\ntag_89:\n    /* \"--CODEGEN--\":1896:1970   */\n  swap3\n  pop\n    /* \"--CODEGEN--\":1867:1976   */\n  pop\n    /* \"--CODEGEN--\":2007:2010   */\n  0x80\n    /* \"--CODEGEN--\":2026:2090   */\n  tag_90\n    /* \"--CODEGEN--\":2082:2089   */\n  dup9\n    /* \"--CODEGEN--\":2073:2079   */\n  dup3\n    /* \"--CODEGEN--\":2062:2071   */\n  dup10\n    /* \"--CODEGEN--\":2058:2080   */\n  add\n    /* \"--CODEGEN--\":2026:2090   */\n  jump(tag_75)\ntag_90:\n    /* \"--CODEGEN--\":2016:2090   */\n  swap2\n  pop\n    /* \"--CODEGEN--\":1986:2096   */\n  pop\n    /* \"--CODEGEN--\":1340:2106   */\n  swap3\n  swap6\n  pop\n  swap3\n  swap6\n  swap1\n  swap4\n  pop\n  jump\n    /* \"--CODEGEN--\":2114:2498   */\ntag_91:\n  0x00\n    /* \"--CODEGEN--\":2274:2341   */\n  tag_93\n    /* \"--CODEGEN--\":2338:2340   */\n  0x2f\n    /* \"--CODEGEN--\":2333:2336   */\n  dup4\n    /* \"--CODEGEN--\":2274:2341   */\n  jump(tag_94)\ntag_93:\n    /* \"--CODEGEN--\":2267:2341   */\n  swap2\n  pop\n    /* \"--CODEGEN--\":2374:2408   */\n  0x416363657373436f6e74726f6c3a2073656e646572206d75737420626520616e\n    /* \"--CODEGEN--\":2370:2371   */\n  0x00\n    /* \"--CODEGEN--\":2365:2368   */\n  dup4\n    /* \"--CODEGEN--\":2361:2372   */\n  add\n    /* \"--CODEGEN--\":2354:2409   */\n  mstore\n    /* \"--CODEGEN--\":2443:2460   */\n  0x2061646d696e20746f206772616e740000000000000000000000000000000000\n    /* \"--CODEGEN--\":2438:2440   */\n  0x20\n    /* \"--CODEGEN--\":2433:2436   */\n  dup4\n    /* \"--CODEGEN--\":2429:2441   */\n  add\n    /* \"--CODEGEN--\":2422:2461   */\n  mstore\n    /* \"--CODEGEN--\":2489:2491   */\n  0x40\n    /* \"--CODEGEN--\":2484:2487   */\n  dup3\n    /* \"--CODEGEN--\":2480:2492   */\n  add\n    /* \"--CODEGEN--\":2473:2492   */\n  swap1\n  pop\n    /* \"--CODEGEN--\":2260:2498   */\n  swap2\n  swap1\n  pop\n  jump\n    /* \"--CODEGEN--\":2507:2855   */\ntag_95:\n  0x00\n    /* \"--CODEGEN--\":2685:2770   */\n  tag_97\n    /* \"--CODEGEN--\":2767:2769   */\n  0x0c\n    /* \"--CODEGEN--\":2762:2765   */\n  dup4\n    /* \"--CODEGEN--\":2685:2770   */\n  jump(tag_98)\ntag_97:\n    /* \"--CODEGEN--\":2678:2770   */\n  swap2\n  pop\n    /* \"--CODEGEN--\":2803:2817   */\n  0x52454c415945525f524f4c450000000000000000000000000000000000000000\n    /* \"--CODEGEN--\":2799:2800   */\n  0x00\n    /* \"--CODEGEN--\":2794:2797   */\n  dup4\n    /* \"--CODEGEN--\":2790:2801   */\n  add\n    /* \"--CODEGEN--\":2783:2818   */\n  mstore\n    /* \"--CODEGEN--\":2846:2848   */\n  0x0c\n    /* \"--CODEGEN--\":2841:2844   */\n  dup3\n    /* \"--CODEGEN--\":2837:2849   */\n  add\n    /* \"--CODEGEN--\":2830:2849   */\n  swap1\n  pop\n    /* \"--CODEGEN--\":2671:2855   */\n  swap2\n  swap1\n  pop\n  jump\n    /* \"--CODEGEN--\":2863:3235   */\ntag_14:\n  0x00\n    /* \"--CODEGEN--\":3062:3210   */\n  tag_100\n    /* \"--CODEGEN--\":3206:3209   */\n  dup3\n    /* \"--CODEGEN--\":3062:3210   */\n  jump(tag_95)\ntag_100:\n    /* \"--CODEGEN--\":3055:3210   */\n  swap2\n  pop\n    /* \"--CODEGEN--\":3227:3230   */\n  dup2\n    /* \"--CODEGEN--\":3220:3230   */\n  swap1\n  pop\n    /* \"--CODEGEN--\":3043:3235   */\n  swap2\n  swap1\n  pop\n  jump\n    /* \"--CODEGEN--\":3242:3649   */\ntag_35:\n  0x00\n    /* \"--CODEGEN--\":3433:3435   */\n  0x20\n    /* \"--CODEGEN--\":3422:3431   */\n  dup3\n    /* \"--CODEGEN--\":3418:3436   */\n  add\n    /* \"--CODEGEN--\":3410:3436   */\n  swap1\n  pop\n    /* \"--CODEGEN--\":3483:3492   */\n  dup2\n    /* \"--CODEGEN--\":3477:3481   */\n  dup2\n    /* \"--CODEGEN--\":3473:3493   */\n  sub\n    /* \"--CODEGEN--\":3469:3470   */\n  0x00\n    /* \"--CODEGEN--\":3458:3467   */\n  dup4\n    /* \"--CODEGEN--\":3454:3471   */\n  add\n    /* \"--CODEGEN--\":3447:3494   */\n  mstore\n    /* \"--CODEGEN--\":3508:3639   */\n  tag_102\n    /* \"--CODEGEN--\":3634:3638   */\n  dup2\n    /* \"--CODEGEN--\":3508:3639   */\n  jump(tag_91)\ntag_102:\n    /* \"--CODEGEN--\":3500:3639   */\n  swap1\n  pop\n    /* \"--CODEGEN--\":3404:3649   */\n  swap2\n  swap1\n  pop\n  jump\n    /* \"--CODEGEN--\":3656:3912   */\ntag_69:\n  0x00\n    /* \"--CODEGEN--\":3718:3720   */\n  0x40\n    /* \"--CODEGEN--\":3712:3721   */\n  mload\n    /* \"--CODEGEN--\":3702:3721   */\n  swap1\n  pop\n    /* \"--CODEGEN--\":3756:3760   */\n  dup2\n    /* \"--CODEGEN--\":3748:3754   */\n  dup2\n    /* \"--CODEGEN--\":3744:3761   */\n  add\n    /* \"--CODEGEN--\":3855:3861   */\n  dup2\n    /* \"--CODEGEN--\":3843:3853   */\n  dup2\n    /* \"--CODEGEN--\":3840:3862   */\n  lt\n    /* \"--CODEGEN--\":3819:3837   */\n  0xffffffffffffffff\n    /* \"--CODEGEN--\":3807:3817   */\n  dup3\n    /* \"--CODEGEN--\":3804:3838   */\n  gt\n    /* \"--CODEGEN--\":3801:3863   */\n  or\n    /* \"--CODEGEN--\":3798:3800   */\n  iszero\n  tag_104\n  jumpi\n    /* \"--CODEGEN--\":3876:3877   */\n  0x00\n    /* \"--CODEGEN--\":3873:3874   */\n  dup1\n    /* \"--CODEGEN--\":3866:3878   */\n  revert\n    /* \"--CODEGEN--\":3798:3800   */\ntag_104:\n    /* \"--CODEGEN--\":3896:3906   */\n  dup1\n    /* \"--CODEGEN--\":3892:3894   */\n  0x40\n    /* \"--CODEGEN--\":3885:3907   */\n  mstore\n    /* \"--CODEGEN--\":3696:3912   */\n  pop\n  swap2\n  swap1\n  pop\n  jump\n    /* \"--CODEGEN--\":3919:4223   */\ntag_68:\n  0x00\n    /* \"--CODEGEN--\":4078:4096   */\n  0xffffffffffffffff\n    /* \"--CODEGEN--\":4070:4076   */\n  dup3\n    /* \"--CODEGEN--\":4067:4097   */\n  gt\n    /* \"--CODEGEN--\":4064:4066   */\n  iszero\n  tag_106\n  jumpi\n    /* \"--CODEGEN--\":4110:4111   */\n  0x00\n    /* \"--CODEGEN--\":4107:4108   */\n  dup1\n    /* \"--CODEGEN--\":4100:4112   */\n  revert\n    /* \"--CODEGEN--\":4064:4066   */\ntag_106:\n    /* \"--CODEGEN--\":4145:4149   */\n  0x20\n    /* \"--CODEGEN--\":4137:4143   */\n  dup3\n    /* \"--CODEGEN--\":4133:4150   */\n  mul\n    /* \"--CODEGEN--\":4125:4150   */\n  swap1\n  pop\n    /* \"--CODEGEN--\":4208:4212   */\n  0x20\n    /* \"--CODEGEN--\":4202:4206   */\n  dup2\n    /* \"--CODEGEN--\":4198:4213   */\n  add\n    /* \"--CODEGEN--\":4190:4213   */\n  swap1\n  pop\n    /* \"--CODEGEN--\":4001:4223   */\n  swap2\n  swap1\n  pop\n  jump\n    /* \"--CODEGEN--\":4231:4394   */\ntag_94:\n  0x00\n    /* \"--CODEGEN--\":4346:4352   */\n  dup3\n    /* \"--CODEGEN--\":4341:4344   */\n  dup3\n    /* \"--CODEGEN--\":4334:4353   */\n  mstore\n    /* \"--CODEGEN--\":4383:4387   */\n  0x20\n    /* \"--CODEGEN--\":4378:4381   */\n  dup3\n    /* \"--CODEGEN--\":4374:4388   */\n  add\n    /* \"--CODEGEN--\":4359:4388   */\n  swap1\n  pop\n    /* \"--CODEGEN--\":4327:4394   */\n  swap3\n  swap2\n  pop\n  pop\n  jump\n    /* \"--CODEGEN--\":4403:4548   */\ntag_98:\n  0x00\n    /* \"--CODEGEN--\":4539:4542   */\n  dup2\n    /* \"--CODEGEN--\":4524:4542   */\n  swap1\n  pop\n    /* \"--CODEGEN--\":4517:4548   */\n  swap3\n  swap2\n  pop\n  pop\n  jump\n    /* \"--CODEGEN--\":4556:4647   */\ntag_109:\n  0x00\n    /* \"--CODEGEN--\":4618:4642   */\n  tag_111\n    /* \"--CODEGEN--\":4636:4641   */\n  dup3\n    /* \"--CODEGEN--\":4618:4642   */\n  jump(tag_112)\ntag_111:\n    /* \"--CODEGEN--\":4607:4642   */\n  swap1\n  pop\n    /* \"--CODEGEN--\":4601:4647   */\n  swap2\n  swap1\n  pop\n  jump\n    /* \"--CODEGEN--\":4654:4775   */\ntag_112:\n  0x00\n    /* \"--CODEGEN--\":4727:4769   */\n  0xffffffffffffffffffffffffffffffffffffffff\n    /* \"--CODEGEN--\":4720:4725   */\n  dup3\n    /* \"--CODEGEN--\":4716:4770   */\n  and\n    /* \"--CODEGEN--\":4705:4770   */\n  swap1\n  pop\n    /* \"--CODEGEN--\":4699:4775   */\n  swap2\n  swap1\n  pop\n  jump\n    /* \"--CODEGEN--\":4782:4854   */\ntag_114:\n  0x00\n    /* \"--CODEGEN--\":4844:4849   */\n  dup2\n    /* \"--CODEGEN--\":4833:4849   */\n  swap1\n  pop\n    /* \"--CODEGEN--\":4827:4854   */\n  swap2\n  swap1\n  pop\n  jump\n    /* \"--CODEGEN--\":4861:4942   */\ntag_116:\n  0x00\n    /* \"--CODEGEN--\":4932:4936   */\n  0xff\n    /* \"--CODEGEN--\":4925:4930   */\n  dup3\n    /* \"--CODEGEN--\":4921:4937   */\n  and\n    /* \"--CODEGEN--\":4910:4937   */\n  swap1\n  pop\n    /* \"--CODEGEN--\":4904:4942   */\n  swap2\n  swap1\n  pop\n  jump\n    /* \"--CODEGEN--\":4949:5066   */\ntag_62:\n    /* \"--CODEGEN--\":5018:5042   */\n  tag_119\n    /* \"--CODEGEN--\":5036:5041   */\n  dup2\n    /* \"--CODEGEN--\":5018:5042   */\n  jump(tag_109)\ntag_119:\n    /* \"--CODEGEN--\":5011:5016   */\n  dup2\n    /* \"--CODEGEN--\":5008:5043   */\n  eq\n    /* \"--CODEGEN--\":4998:5000   */\n  tag_120\n  jumpi\n    /* \"--CODEGEN--\":5057:5058   */\n  0x00\n    /* \"--CODEGEN--\":5054:5055   */\n  dup1\n    /* \"--CODEGEN--\":5047:5059   */\n  revert\n    /* \"--CODEGEN--\":4998:5000   */\ntag_120:\n    /* \"--CODEGEN--\":4992:5066   */\n  pop\n  jump\n    /* \"--CODEGEN--\":5073:5190   */\ntag_78:\n    /* \"--CODEGEN--\":5142:5166   */\n  tag_122\n    /* \"--CODEGEN--\":5160:5165   */\n  dup2\n    /* \"--CODEGEN--\":5142:5166   */\n  jump(tag_114)\ntag_122:\n    /* \"--CODEGEN--\":5135:5140   */\n  dup2\n    /* \"--CODEGEN--\":5132:5167   */\n  eq\n    /* \"--CODEGEN--\":5122:5124   */\n  tag_123\n  jumpi\n    /* \"--CODEGEN--\":5181:5182   */\n  0x00\n    /* \"--CODEGEN--\":5178:5179   */\n  dup1\n    /* \"--CODEGEN--\":5171:5183   */\n  revert\n    /* \"--CODEGEN--\":5122:5124   */\ntag_123:\n    /* \"--CODEGEN--\":5116:5190   */\n  pop\n  jump\n    /* \"--CODEGEN--\":5197:5310   */\ntag_82:\n    /* \"--CODEGEN--\":5264:5286   */\n  tag_125\n    /* \"--CODEGEN--\":5280:5285   */\n  dup2\n    /* \"--CODEGEN--\":5264:5286   */\n  jump(tag_116)\ntag_125:\n    /* \"--CODEGEN--\":5257:5262   */\n  dup2\n    /* \"--CODEGEN--\":5254:5287   */\n  eq\n    /* \"--CODEGEN--\":5244:5246   */\n  tag_126\n  jumpi\n    /* \"--CODEGEN--\":5301:5302   */\n  0x00\n    /* \"--CODEGEN--\":5298:5299   */\n  dup1\n    /* \"--CODEGEN--\":5291:5303   */\n  revert\n    /* \"--CODEGEN--\":5244:5246   */\ntag_126:\n    /* \"--CODEGEN--\":5238:5310   */\n  pop\n  jump\n    /* \"contracts/Bridge.sol\":318:17532  contract Bridge is Pausable, AccessControl, SafeMath {... */\ntag_23:\n  dataSize(sub_0)\n  dup1\n  dataOffset(sub_0)\n  0x00\n  codecopy\n  0x00\n  return\nstop\n\nsub_0: assembly {\n        /* \"contracts/Bridge.sol\":318:17532  contract Bridge is Pausable, AccessControl, SafeMath {... */\n      mstore(0x40, 0x80)\n      jumpi(tag_1, lt(calldatasize, 0x04))\n      shr(0xe0, calldataload(0x00))\n      dup1\n      0x84db809f\n      gt\n      tag_41\n      jumpi\n      dup1\n      0xbeab7131\n      gt\n      tag_42\n      jumpi\n      dup1\n      0xcdb0f73a\n      gt\n      tag_43\n      jumpi\n      dup1\n      0xcdb0f73a\n      eq\n      tag_36\n      jumpi\n      dup1\n      0xd547741f\n      eq\n      tag_37\n      jumpi\n      dup1\n      0xd7a9cd79\n      eq\n      tag_38\n      jumpi\n      dup1\n      0xe8437ee7\n      eq\n      tag_39\n      jumpi\n      dup1\n      0xffaac0eb\n      eq\n      tag_40\n      jumpi\n      jump(tag_1)\n    tag_43:\n      dup1\n      0xbeab7131\n      eq\n      tag_31\n      jumpi\n      dup1\n      0xc5b37c22\n      eq\n      tag_32\n      jumpi\n      dup1\n      0xc5ec8970\n      eq\n      tag_33\n      jumpi\n      dup1\n      0xca15c873\n      eq\n      tag_34\n      jumpi\n      dup1\n      0xcb10f215\n      eq\n      tag_35\n      jumpi\n      jump(tag_1)\n    tag_42:\n      dup1\n      0x926d7d7f\n      gt\n      tag_44\n      jumpi\n      dup1\n      0x926d7d7f\n      eq\n      tag_26\n      jumpi\n      dup1\n      0x9d5773e0\n      eq\n      tag_27\n      jumpi\n      dup1\n      0x9d82dd63\n      eq\n      tag_28\n      jumpi\n      dup1\n      0xa217fddf\n      eq\n      tag_29\n      jumpi\n      dup1\n      0xa9cf69fa\n      eq\n      tag_30\n      jumpi\n      jump(tag_1)\n    tag_44:\n      dup1\n      0x84db809f\n      eq\n      tag_21\n      jumpi\n      dup1\n      0x8c0c2631\n      eq\n      tag_22\n      jumpi\n      dup1\n      0x9010d07c\n      eq\n      tag_23\n      jumpi\n      dup1\n      0x91c404ac\n      eq\n      tag_24\n      jumpi\n      dup1\n      0x91d14854\n      eq\n      tag_25\n      jumpi\n      jump(tag_1)\n    tag_41:\n      dup1\n      0x4b0b919d\n      gt\n      tag_45\n      jumpi\n      dup1\n      0x5e1fab0f\n      gt\n      tag_46\n      jumpi\n      dup1\n      0x5e1fab0f\n      eq\n      tag_16\n      jumpi\n      dup1\n      0x780cf004\n      eq\n      tag_17\n      jumpi\n      dup1\n      0x7febe63f\n      eq\n      tag_18\n      jumpi\n      dup1\n      0x802aabe8\n      eq\n      tag_19\n      jumpi\n      dup1\n      0x80ae1c28\n      eq\n      tag_20\n      jumpi\n      jump(tag_1)\n    tag_46:\n      dup1\n      0x4b0b919d\n      eq\n      tag_11\n      jumpi\n      dup1\n      0x4e056005\n      eq\n      tag_12\n      jumpi\n      dup1\n      0x50598719\n      eq\n      tag_13\n      jumpi\n      dup1\n      0x541d5548\n      eq\n      tag_14\n      jumpi\n      dup1\n      0x5c975abb\n      eq\n      tag_15\n      jumpi\n      jump(tag_1)\n    tag_45:\n      dup1\n      0x2f2ff15d\n      gt\n      tag_47\n      jumpi\n      dup1\n      0x2f2ff15d\n      eq\n      tag_6\n      jumpi\n      dup1\n      0x36568abe\n      eq\n      tag_7\n      jumpi\n      dup1\n      0x3ee7094a\n      eq\n      tag_8\n      jumpi\n      dup1\n      0x4454b20d\n      eq\n      tag_9\n      jumpi\n      dup1\n      0x4603ae38\n      eq\n      tag_10\n      jumpi\n      jump(tag_1)\n    tag_47:\n      dup1\n      0x05e2ca17\n      eq\n      tag_2\n      jumpi\n      dup1\n      0x17f03ce5\n      eq\n      tag_3\n      jumpi\n      dup1\n      0x1ff013f1\n      eq\n      tag_4\n      jumpi\n      dup1\n      0x248a9ca3\n      eq\n      tag_5\n      jumpi\n    tag_1:\n        /* \"--CODEGEN--\":12:13   */\n      0x00\n        /* \"--CODEGEN--\":9:10   */\n      dup1\n        /* \"--CODEGEN--\":2:14   */\n      revert\n        /* \"contracts/Bridge.sol\":10332:11028  function deposit(uint8 destinationChainID, bytes32 resourceID, bytes calldata data) external payable whenNotPaused {... */\n    tag_2:\n      tag_48\n      0x04\n      dup1\n      calldatasize\n      sub\n      dup2\n      add\n      swap1\n      tag_49\n      swap2\n      swap1\n      jump(tag_50)\n    tag_49:\n      tag_51\n      jump\t// in\n    tag_48:\n      stop\n        /* \"contracts/Bridge.sol\":14606:15237  function cancelProposal(uint8 chainID, uint64 depositNonce, bytes32 dataHash) public onlyAdminOrRelayer {... */\n    tag_3:\n      callvalue\n        /* \"--CODEGEN--\":5:14   */\n      dup1\n        /* \"--CODEGEN--\":2:4   */\n      iszero\n      tag_52\n      jumpi\n        /* \"--CODEGEN--\":27:28   */\n      0x00\n        /* \"--CODEGEN--\":24:25   */\n      dup1\n        /* \"--CODEGEN--\":17:29   */\n      revert\n        /* \"--CODEGEN--\":2:4   */\n    tag_52:\n        /* \"contracts/Bridge.sol\":14606:15237  function cancelProposal(uint8 chainID, uint64 depositNonce, bytes32 dataHash) public onlyAdminOrRelayer {... */\n      pop\n      tag_53\n      0x04\n      dup1\n      calldatasize\n      sub\n      dup2\n      add\n      swap1\n      tag_54\n      swap2\n      swap1\n      jump(tag_55)\n    tag_54:\n      tag_56\n      jump\t// in\n    tag_53:\n      stop\n        /* \"contracts/Bridge.sol\":11692:14063  function voteProposal(uint8 chainID, uint64 depositNonce, bytes32 resourceID, bytes32 dataHash) external onlyRelayers whenNotPaused {... */\n    tag_4:\n      callvalue\n        /* \"--CODEGEN--\":5:14   */\n      dup1\n        /* \"--CODEGEN--\":2:4   */\n      iszero\n      tag_57\n      jumpi\n        /* \"--CODEGEN--\":27:28   */\n      0x00\n        /* \"--CODEGEN--\":24:25   */\n      dup1\n        /* \"--CODEGEN--\":17:29   */\n      revert\n        /* \"--CODEGEN--\":2:4   */\n    tag_57:\n        /* \"contracts/Bridge.sol\":11692:14063  function voteProposal(uint8 chainID, uint64 depositNonce, bytes32 resourceID, bytes32 dataHash) external onlyRelayers whenNotPaused {... */\n      pop\n      tag_58\n      0x04\n      dup1\n      calldatasize\n      sub\n      dup2\n      add\n      swap1\n      tag_59\n      swap2\n      swap1\n      jump(tag_60)\n    tag_59:\n      tag_61\n      jump\t// in\n    tag_58:\n      stop\n        /* \"contracts/access/AccessControl.sol\":3826:3938  function getRoleAdmin(bytes32 role) public view returns (bytes32) {... */\n    tag_5:\n      callvalue\n        /* \"--CODEGEN--\":5:14   */\n      dup1\n        /* \"--CODEGEN--\":2:4   */\n      iszero\n      tag_62\n      jumpi\n        /* \"--CODEGEN--\":27:28   */\n      0x00\n        /* \"--CODEGEN--\":24:25   */\n      dup1\n        /* \"--CODEGEN--\":17:29   */\n      revert\n        /* \"--CODEGEN--\":2:4   */\n    tag_62:\n        /* \"contracts/access/AccessControl.sol\":3826:3938  function getRoleAdmin(bytes32 role) public view returns (bytes32) {... */\n      pop\n      tag_63\n      0x04\n      dup1\n      calldatasize\n      sub\n      dup2\n      add\n      swap1\n      tag_64\n      swap2\n      swap1\n      jump(tag_65)\n    tag_64:\n      tag_66\n      jump\t// in\n    tag_63:\n      mload(0x40)\n      tag_67\n      swap2\n      swap1\n      jump(tag_68)\n    tag_67:\n      mload(0x40)\n      dup1\n      swap2\n      sub\n      swap1\n      return\n        /* \"contracts/access/AccessControl.sol\":4188:4411  function grantRole(bytes32 role, address account) public virtual {... */\n    tag_6:\n      callvalue\n        /* \"--CODEGEN--\":5:14   */\n      dup1\n        /* \"--CODEGEN--\":2:4   */\n      iszero\n      tag_69\n      jumpi\n        /* \"--CODEGEN--\":27:28   */\n      0x00\n        /* \"--CODEGEN--\":24:25   */\n      dup1\n        /* \"--CODEGEN--\":17:29   */\n      revert\n        /* \"--CODEGEN--\":2:4   */\n    tag_69:\n        /* \"contracts/access/AccessControl.sol\":4188:4411  function grantRole(bytes32 role, address account) public virtual {... */\n      pop\n      tag_70\n      0x04\n      dup1\n      calldatasize\n      sub\n      dup2\n      add\n      swap1\n      tag_71\n      swap2\n      swap1\n      jump(tag_72)\n    tag_71:\n      tag_73\n      jump\t// in\n    tag_70:\n      stop\n        /* \"contracts/access/AccessControl.sol\":5362:5567  function renounceRole(bytes32 role, address account) public virtual {... */\n    tag_7:\n      callvalue\n        /* \"--CODEGEN--\":5:14   */\n      dup1\n        /* \"--CODEGEN--\":2:4   */\n      iszero\n      tag_74\n      jumpi\n        /* \"--CODEGEN--\":27:28   */\n      0x00\n        /* \"--CODEGEN--\":24:25   */\n      dup1\n        /* \"--CODEGEN--\":17:29   */\n      revert\n        /* \"--CODEGEN--\":2:4   */\n    tag_74:\n        /* \"contracts/access/AccessControl.sol\":5362:5567  function renounceRole(bytes32 role, address account) public virtual {... */\n      pop\n      tag_75\n      0x04\n      dup1\n      calldatasize\n      sub\n      dup2\n      add\n      swap1\n      tag_76\n      swap2\n      swap1\n      jump(tag_72)\n    tag_76:\n      tag_77\n      jump\t// in\n    tag_75:\n      stop\n        /* \"contracts/Bridge.sol\":1130:1195  mapping(uint64 => mapping(uint8 => bytes)) public _depositRecords */\n    tag_8:\n      callvalue\n        /* \"--CODEGEN--\":5:14   */\n      dup1\n        /* \"--CODEGEN--\":2:4   */\n      iszero\n      tag_78\n      jumpi\n        /* \"--CODEGEN--\":27:28   */\n      0x00\n        /* \"--CODEGEN--\":24:25   */\n      dup1\n        /* \"--CODEGEN--\":17:29   */\n      revert\n        /* \"--CODEGEN--\":2:4   */\n    tag_78:\n        /* \"contracts/Bridge.sol\":1130:1195  mapping(uint64 => mapping(uint8 => bytes)) public _depositRecords */\n      pop\n      tag_79\n      0x04\n      dup1\n      calldatasize\n      sub\n      dup2\n      add\n      swap1\n      tag_80\n      swap2\n      swap1\n      jump(tag_81)\n    tag_80:\n      tag_82\n      jump\t// in\n    tag_79:\n      mload(0x40)\n      tag_83\n      swap2\n      swap1\n      jump(tag_84)\n    tag_83:\n      mload(0x40)\n      dup1\n      swap2\n      sub\n      swap1\n      return\n        /* \"contracts/Bridge.sol\":15896:16928  function executeProposal(uint8 chainID, uint64 depositNonce, bytes calldata data, bytes32 resourceID) external onlyRelayers whenNotPaused {... */\n    tag_9:\n      callvalue\n        /* \"--CODEGEN--\":5:14   */\n      dup1\n        /* \"--CODEGEN--\":2:4   */\n      iszero\n      tag_85\n      jumpi\n        /* \"--CODEGEN--\":27:28   */\n      0x00\n        /* \"--CODEGEN--\":24:25   */\n      dup1\n        /* \"--CODEGEN--\":17:29   */\n      revert\n        /* \"--CODEGEN--\":2:4   */\n    tag_85:\n        /* \"contracts/Bridge.sol\":15896:16928  function executeProposal(uint8 chainID, uint64 depositNonce, bytes calldata data, bytes32 resourceID) external onlyRelayers whenNotPaused {... */\n      pop\n      tag_86\n      0x04\n      dup1\n      calldatasize\n      sub\n      dup2\n      add\n      swap1\n      tag_87\n      swap2\n      swap1\n      jump(tag_88)\n    tag_87:\n      tag_89\n      jump\t// in\n    tag_86:\n      stop\n        /* \"contracts/Bridge.sol\":17318:17529  function transferFunds(address payable[] calldata addrs, uint[] calldata amounts) external onlyAdmin {... */\n    tag_10:\n      callvalue\n        /* \"--CODEGEN--\":5:14   */\n      dup1\n        /* \"--CODEGEN--\":2:4   */\n      iszero\n      tag_90\n      jumpi\n        /* \"--CODEGEN--\":27:28   */\n      0x00\n        /* \"--CODEGEN--\":24:25   */\n      dup1\n        /* \"--CODEGEN--\":17:29   */\n      revert\n        /* \"--CODEGEN--\":2:4   */\n    tag_90:\n        /* \"contracts/Bridge.sol\":17318:17529  function transferFunds(address payable[] calldata addrs, uint[] calldata amounts) external onlyAdmin {... */\n      pop\n      tag_91\n      0x04\n      dup1\n      calldatasize\n      sub\n      dup2\n      add\n      swap1\n      tag_92\n      swap2\n      swap1\n      jump(tag_93)\n    tag_92:\n      tag_94\n      jump\t// in\n    tag_91:\n      stop\n        /* \"contracts/Bridge.sol\":922:968  mapping(uint8 => uint64) public _depositCounts */\n    tag_11:\n      callvalue\n        /* \"--CODEGEN--\":5:14   */\n      dup1\n        /* \"--CODEGEN--\":2:4   */\n      iszero\n      tag_95\n      jumpi\n        /* \"--CODEGEN--\":27:28   */\n      0x00\n        /* \"--CODEGEN--\":24:25   */\n      dup1\n        /* \"--CODEGEN--\":17:29   */\n      revert\n        /* \"--CODEGEN--\":2:4   */\n    tag_95:\n        /* \"contracts/Bridge.sol\":922:968  mapping(uint8 => uint64) public _depositCounts */\n      pop\n      tag_96\n      0x04\n      dup1\n      calldatasize\n      sub\n      dup2\n      add\n      swap1\n      tag_97\n      swap2\n      swap1\n      jump(tag_98)\n    tag_97:\n      tag_99\n      jump\t// in\n    tag_96:\n      mload(0x40)\n      tag_100\n      swap2\n      swap1\n      jump(tag_101)\n    tag_100:\n      mload(0x40)\n      dup1\n      swap2\n      sub\n      swap1\n      return\n        /* \"contracts/Bridge.sol\":4288:4464  function adminChangeRelayerThreshold(uint newThreshold) external onlyAdmin {... */\n    tag_12:\n      callvalue\n        /* \"--CODEGEN--\":5:14   */\n      dup1\n        /* \"--CODEGEN--\":2:4   */\n      iszero\n      tag_102\n      jumpi\n        /* \"--CODEGEN--\":27:28   */\n      0x00\n        /* \"--CODEGEN--\":24:25   */\n      dup1\n        /* \"--CODEGEN--\":17:29   */\n      revert\n        /* \"--CODEGEN--\":2:4   */\n    tag_102:\n        /* \"contracts/Bridge.sol\":4288:4464  function adminChangeRelayerThreshold(uint newThreshold) external onlyAdmin {... */\n      pop\n      tag_103\n      0x04\n      dup1\n      calldatasize\n      sub\n      dup2\n      add\n      swap1\n      tag_104\n      swap2\n      swap1\n      jump(tag_105)\n    tag_104:\n      tag_106\n      jump\t// in\n    tag_103:\n      stop\n        /* \"contracts/Bridge.sol\":1266:1331  mapping(uint72 => mapping(bytes32 => Proposal)) public _proposals */\n    tag_13:\n      callvalue\n        /* \"--CODEGEN--\":5:14   */\n      dup1\n        /* \"--CODEGEN--\":2:4   */\n      iszero\n      tag_107\n      jumpi\n        /* \"--CODEGEN--\":27:28   */\n      0x00\n        /* \"--CODEGEN--\":24:25   */\n      dup1\n        /* \"--CODEGEN--\":17:29   */\n      revert\n        /* \"--CODEGEN--\":2:4   */\n    tag_107:\n        /* \"contracts/Bridge.sol\":1266:1331  mapping(uint72 => mapping(bytes32 => Proposal)) public _proposals */\n      pop\n      tag_108\n      0x04\n      dup1\n      calldatasize\n      sub\n      dup2\n      add\n      swap1\n      tag_109\n      swap2\n      swap1\n      jump(tag_110)\n    tag_109:\n      tag_111\n      jump\t// in\n    tag_108:\n      mload(0x40)\n      tag_112\n      swap5\n      swap4\n      swap3\n      swap2\n      swap1\n      jump(tag_113)\n    tag_112:\n      mload(0x40)\n      dup1\n      swap2\n      sub\n      swap1\n      return\n        /* \"contracts/Bridge.sol\":3503:3622  function isRelayer(address relayer) external view returns (bool) {... */\n    tag_14:\n      callvalue\n        /* \"--CODEGEN--\":5:14   */\n      dup1\n        /* \"--CODEGEN--\":2:4   */\n      iszero\n      tag_114\n      jumpi\n        /* \"--CODEGEN--\":27:28   */\n      0x00\n        /* \"--CODEGEN--\":24:25   */\n      dup1\n        /* \"--CODEGEN--\":17:29   */\n      revert\n        /* \"--CODEGEN--\":2:4   */\n    tag_114:\n        /* \"contracts/Bridge.sol\":3503:3622  function isRelayer(address relayer) external view returns (bool) {... */\n      pop\n      tag_115\n      0x04\n      dup1\n      calldatasize\n      sub\n      dup2\n      add\n      swap1\n      tag_116\n      swap2\n      swap1\n      jump(tag_117)\n    tag_116:\n      tag_118\n      jump\t// in\n    tag_115:\n      mload(0x40)\n      tag_119\n      swap2\n      swap1\n      jump(tag_120)\n    tag_119:\n      mload(0x40)\n      dup1\n      swap2\n      sub\n      swap1\n      return\n        /* \"contracts/utils/Pausable.sol\":889:965  function paused() public view returns (bool) {... */\n    tag_15:\n      callvalue\n        /* \"--CODEGEN--\":5:14   */\n      dup1\n        /* \"--CODEGEN--\":2:4   */\n      iszero\n      tag_121\n      jumpi\n        /* \"--CODEGEN--\":27:28   */\n      0x00\n        /* \"--CODEGEN--\":24:25   */\n      dup1\n        /* \"--CODEGEN--\":17:29   */\n      revert\n        /* \"--CODEGEN--\":2:4   */\n    tag_121:\n        /* \"contracts/utils/Pausable.sol\":889:965  function paused() public view returns (bool) {... */\n      pop\n      tag_122\n      tag_123\n      jump\t// in\n    tag_122:\n      mload(0x40)\n      tag_124\n      swap2\n      swap1\n      jump(tag_120)\n    tag_124:\n      mload(0x40)\n      dup1\n      swap2\n      sub\n      swap1\n      return\n        /* \"contracts/Bridge.sol\":3628:3798  function renounceAdmin(address newAdmin) external onlyAdmin {... */\n    tag_16:\n      callvalue\n        /* \"--CODEGEN--\":5:14   */\n      dup1\n        /* \"--CODEGEN--\":2:4   */\n      iszero\n      tag_125\n      jumpi\n        /* \"--CODEGEN--\":27:28   */\n      0x00\n        /* \"--CODEGEN--\":24:25   */\n      dup1\n        /* \"--CODEGEN--\":17:29   */\n      revert\n        /* \"--CODEGEN--\":2:4   */\n    tag_125:\n        /* \"contracts/Bridge.sol\":3628:3798  function renounceAdmin(address newAdmin) external onlyAdmin {... */\n      pop\n      tag_126\n      0x04\n      dup1\n      calldatasize\n      sub\n      dup2\n      add\n      swap1\n      tag_127\n      swap2\n      swap1\n      jump(tag_117)\n    tag_127:\n      tag_128\n      jump\t// in\n    tag_126:\n      stop\n        /* \"contracts/Bridge.sol\":9599:9903  function adminWithdraw(... */\n    tag_17:\n      callvalue\n        /* \"--CODEGEN--\":5:14   */\n      dup1\n        /* \"--CODEGEN--\":2:4   */\n      iszero\n      tag_129\n      jumpi\n        /* \"--CODEGEN--\":27:28   */\n      0x00\n        /* \"--CODEGEN--\":24:25   */\n      dup1\n        /* \"--CODEGEN--\":17:29   */\n      revert\n        /* \"--CODEGEN--\":2:4   */\n    tag_129:\n        /* \"contracts/Bridge.sol\":9599:9903  function adminWithdraw(... */\n      pop\n      tag_130\n      0x04\n      dup1\n      calldatasize\n      sub\n      dup2\n      add\n      swap1\n      tag_131\n      swap2\n      swap1\n      jump(tag_132)\n    tag_131:\n      tag_133\n      jump\t// in\n    tag_130:\n      stop\n        /* \"contracts/Bridge.sol\":1416:1506  mapping(uint72 => mapping(bytes32 => mapping(address => bool))) public _hasVotedOnProposal */\n    tag_18:\n      callvalue\n        /* \"--CODEGEN--\":5:14   */\n      dup1\n        /* \"--CODEGEN--\":2:4   */\n      iszero\n      tag_134\n      jumpi\n        /* \"--CODEGEN--\":27:28   */\n      0x00\n        /* \"--CODEGEN--\":24:25   */\n      dup1\n        /* \"--CODEGEN--\":17:29   */\n      revert\n        /* \"--CODEGEN--\":2:4   */\n    tag_134:\n        /* \"contracts/Bridge.sol\":1416:1506  mapping(uint72 => mapping(bytes32 => mapping(address => bool))) public _hasVotedOnProposal */\n      pop\n      tag_135\n      0x04\n      dup1\n      calldatasize\n      sub\n      dup2\n      add\n      swap1\n      tag_136\n      swap2\n      swap1\n      jump(tag_137)\n    tag_136:\n      tag_138\n      jump\t// in\n    tag_135:\n      mload(0x40)\n      tag_139\n      swap2\n      swap1\n      jump(tag_120)\n    tag_139:\n      mload(0x40)\n      dup1\n      swap2\n      sub\n      swap1\n      return\n        /* \"contracts/Bridge.sol\":445:474  uint256 public _totalRelayers */\n    tag_19:\n      callvalue\n        /* \"--CODEGEN--\":5:14   */\n      dup1\n        /* \"--CODEGEN--\":2:4   */\n      iszero\n      tag_140\n      jumpi\n        /* \"--CODEGEN--\":27:28   */\n      0x00\n        /* \"--CODEGEN--\":24:25   */\n      dup1\n        /* \"--CODEGEN--\":17:29   */\n      revert\n        /* \"--CODEGEN--\":2:4   */\n    tag_140:\n        /* \"contracts/Bridge.sol\":445:474  uint256 public _totalRelayers */\n      pop\n      tag_141\n      tag_142\n      jump\t// in\n    tag_141:\n      mload(0x40)\n      tag_143\n      swap2\n      swap1\n      jump(tag_144)\n    tag_143:\n      mload(0x40)\n      dup1\n      swap2\n      sub\n      swap1\n      return\n        /* \"contracts/Bridge.sol\":3804:3879  function adminPauseTransfers() external onlyAdmin {... */\n    tag_20:\n      callvalue\n        /* \"--CODEGEN--\":5:14   */\n      dup1\n        /* \"--CODEGEN--\":2:4   */\n      iszero\n      tag_145\n      jumpi\n        /* \"--CODEGEN--\":27:28   */\n      0x00\n        /* \"--CODEGEN--\":24:25   */\n      dup1\n        /* \"--CODEGEN--\":17:29   */\n      revert\n        /* \"--CODEGEN--\":2:4   */\n    tag_145:\n        /* \"contracts/Bridge.sol\":3804:3879  function adminPauseTransfers() external onlyAdmin {... */\n      pop\n      tag_146\n      tag_147\n      jump\t// in\n    tag_146:\n      stop\n        /* \"contracts/Bridge.sol\":1011:1073  mapping(bytes32 => address) public _resourceIDToHandlerAddress */\n    tag_21:\n      callvalue\n        /* \"--CODEGEN--\":5:14   */\n      dup1\n        /* \"--CODEGEN--\":2:4   */\n      iszero\n      tag_148\n      jumpi\n        /* \"--CODEGEN--\":27:28   */\n      0x00\n        /* \"--CODEGEN--\":24:25   */\n      dup1\n        /* \"--CODEGEN--\":17:29   */\n      revert\n        /* \"--CODEGEN--\":2:4   */\n    tag_148:\n        /* \"contracts/Bridge.sol\":1011:1073  mapping(bytes32 => address) public _resourceIDToHandlerAddress */\n      pop\n      tag_149\n      0x04\n      dup1\n      calldatasize\n      sub\n      dup2\n      add\n      swap1\n      tag_150\n      swap2\n      swap1\n      jump(tag_65)\n    tag_150:\n      tag_151\n      jump\t// in\n    tag_149:\n      mload(0x40)\n      tag_152\n      swap2\n      swap1\n      jump(tag_153)\n    tag_152:\n      mload(0x40)\n      dup1\n      swap2\n      sub\n      swap1\n      return\n        /* \"contracts/Bridge.sol\":7882:8082  function adminSetBurnable(address handlerAddress, address tokenAddress) external onlyAdmin {... */\n    tag_22:\n      callvalue\n        /* \"--CODEGEN--\":5:14   */\n      dup1\n        /* \"--CODEGEN--\":2:4   */\n      iszero\n      tag_154\n      jumpi\n        /* \"--CODEGEN--\":27:28   */\n      0x00\n        /* \"--CODEGEN--\":24:25   */\n      dup1\n        /* \"--CODEGEN--\":17:29   */\n      revert\n        /* \"--CODEGEN--\":2:4   */\n    tag_154:\n        /* \"contracts/Bridge.sol\":7882:8082  function adminSetBurnable(address handlerAddress, address tokenAddress) external onlyAdmin {... */\n      pop\n      tag_155\n      0x04\n      dup1\n      calldatasize\n      sub\n      dup2\n      add\n      swap1\n      tag_156\n      swap2\n      swap1\n      jump(tag_157)\n    tag_156:\n      tag_158\n      jump\t// in\n    tag_155:\n      stop\n        /* \"contracts/access/AccessControl.sol\":3509:3645  function getRoleMember(bytes32 role, uint256 index) public view returns (address) {... */\n    tag_23:\n      callvalue\n        /* \"--CODEGEN--\":5:14   */\n      dup1\n        /* \"--CODEGEN--\":2:4   */\n      iszero\n      tag_159\n      jumpi\n        /* \"--CODEGEN--\":27:28   */\n      0x00\n        /* \"--CODEGEN--\":24:25   */\n      dup1\n        /* \"--CODEGEN--\":17:29   */\n      revert\n        /* \"--CODEGEN--\":2:4   */\n    tag_159:\n        /* \"contracts/access/AccessControl.sol\":3509:3645  function getRoleMember(bytes32 role, uint256 index) public view returns (address) {... */\n      pop\n      tag_160\n      0x04\n      dup1\n      calldatasize\n      sub\n      dup2\n      add\n      swap1\n      tag_161\n      swap2\n      swap1\n      jump(tag_162)\n    tag_161:\n      tag_163\n      jump\t// in\n    tag_160:\n      mload(0x40)\n      tag_164\n      swap2\n      swap1\n      jump(tag_153)\n    tag_164:\n      mload(0x40)\n      dup1\n      swap2\n      sub\n      swap1\n      return\n        /* \"contracts/Bridge.sol\":9077:9231  function adminChangeFee(uint newFee) external onlyAdmin {... */\n    tag_24:\n      callvalue\n        /* \"--CODEGEN--\":5:14   */\n      dup1\n        /* \"--CODEGEN--\":2:4   */\n      iszero\n      tag_165\n      jumpi\n        /* \"--CODEGEN--\":27:28   */\n      0x00\n        /* \"--CODEGEN--\":24:25   */\n      dup1\n        /* \"--CODEGEN--\":17:29   */\n      revert\n        /* \"--CODEGEN--\":2:4   */\n    tag_165:\n        /* \"contracts/Bridge.sol\":9077:9231  function adminChangeFee(uint newFee) external onlyAdmin {... */\n      pop\n      tag_166\n      0x04\n      dup1\n      calldatasize\n      sub\n      dup2\n      add\n      swap1\n      tag_167\n      swap2\n      swap1\n      jump(tag_105)\n    tag_167:\n      tag_168\n      jump\t// in\n    tag_166:\n      stop\n        /* \"contracts/access/AccessControl.sol\":2494:2631  function hasRole(bytes32 role, address account) public view returns (bool) {... */\n    tag_25:\n      callvalue\n        /* \"--CODEGEN--\":5:14   */\n      dup1\n        /* \"--CODEGEN--\":2:4   */\n      iszero\n      tag_169\n      jumpi\n        /* \"--CODEGEN--\":27:28   */\n      0x00\n        /* \"--CODEGEN--\":24:25   */\n      dup1\n        /* \"--CODEGEN--\":17:29   */\n      revert\n        /* \"--CODEGEN--\":2:4   */\n    tag_169:\n        /* \"contracts/access/AccessControl.sol\":2494:2631  function hasRole(bytes32 role, address account) public view returns (bool) {... */\n      pop\n      tag_170\n      0x04\n      dup1\n      calldatasize\n      sub\n      dup2\n      add\n      swap1\n      tag_171\n      swap2\n      swap1\n      jump(tag_72)\n    tag_171:\n      tag_172\n      jump\t// in\n    tag_170:\n      mload(0x40)\n      tag_173\n      swap2\n      swap1\n      jump(tag_120)\n    tag_173:\n      mload(0x40)\n      dup1\n      swap2\n      sub\n      swap1\n      return\n        /* \"contracts/Bridge.sol\":2212:2276  bytes32 public constant RELAYER_ROLE = keccak256(\"RELAYER_ROLE\") */\n    tag_26:\n      callvalue\n        /* \"--CODEGEN--\":5:14   */\n      dup1\n        /* \"--CODEGEN--\":2:4   */\n      iszero\n      tag_174\n      jumpi\n        /* \"--CODEGEN--\":27:28   */\n      0x00\n        /* \"--CODEGEN--\":24:25   */\n      dup1\n        /* \"--CODEGEN--\":17:29   */\n      revert\n        /* \"--CODEGEN--\":2:4   */\n    tag_174:\n        /* \"contracts/Bridge.sol\":2212:2276  bytes32 public constant RELAYER_ROLE = keccak256(\"RELAYER_ROLE\") */\n      pop\n      tag_175\n      tag_176\n      jump\t// in\n    tag_175:\n      mload(0x40)\n      tag_177\n      swap2\n      swap1\n      jump(tag_68)\n    tag_177:\n      mload(0x40)\n      dup1\n      swap2\n      sub\n      swap1\n      return\n        /* \"contracts/Bridge.sol\":480:510  uint256 public _totalProposals */\n    tag_27:\n      callvalue\n        /* \"--CODEGEN--\":5:14   */\n      dup1\n        /* \"--CODEGEN--\":2:4   */\n      iszero\n      tag_178\n      jumpi\n        /* \"--CODEGEN--\":27:28   */\n      0x00\n        /* \"--CODEGEN--\":24:25   */\n      dup1\n        /* \"--CODEGEN--\":17:29   */\n      revert\n        /* \"--CODEGEN--\":2:4   */\n    tag_178:\n        /* \"contracts/Bridge.sol\":480:510  uint256 public _totalProposals */\n      pop\n      tag_179\n      tag_180\n      jump\t// in\n    tag_179:\n      mload(0x40)\n      tag_181\n      swap2\n      swap1\n      jump(tag_144)\n    tag_181:\n      mload(0x40)\n      dup1\n      swap2\n      sub\n      swap1\n      return\n        /* \"contracts/Bridge.sol\":5355:5645  function adminRemoveRelayer(address relayerAddress) external onlyAdmin {... */\n    tag_28:\n      callvalue\n        /* \"--CODEGEN--\":5:14   */\n      dup1\n        /* \"--CODEGEN--\":2:4   */\n      iszero\n      tag_182\n      jumpi\n        /* \"--CODEGEN--\":27:28   */\n      0x00\n        /* \"--CODEGEN--\":24:25   */\n      dup1\n        /* \"--CODEGEN--\":17:29   */\n      revert\n        /* \"--CODEGEN--\":2:4   */\n    tag_182:\n        /* \"contracts/Bridge.sol\":5355:5645  function adminRemoveRelayer(address relayerAddress) external onlyAdmin {... */\n      pop\n      tag_183\n      0x04\n      dup1\n      calldatasize\n      sub\n      dup2\n      add\n      swap1\n      tag_184\n      swap2\n      swap1\n      jump(tag_117)\n    tag_184:\n      tag_185\n      jump\t// in\n    tag_183:\n      stop\n        /* \"contracts/access/AccessControl.sol\":1684:1733  bytes32 public constant DEFAULT_ADMIN_ROLE = 0x00 */\n    tag_29:\n      callvalue\n        /* \"--CODEGEN--\":5:14   */\n      dup1\n        /* \"--CODEGEN--\":2:4   */\n      iszero\n      tag_186\n      jumpi\n        /* \"--CODEGEN--\":27:28   */\n      0x00\n        /* \"--CODEGEN--\":24:25   */\n      dup1\n        /* \"--CODEGEN--\":17:29   */\n      revert\n        /* \"--CODEGEN--\":2:4   */\n    tag_186:\n        /* \"contracts/access/AccessControl.sol\":1684:1733  bytes32 public constant DEFAULT_ADMIN_ROLE = 0x00 */\n      pop\n      tag_187\n      tag_188\n      jump\t// in\n    tag_187:\n      mload(0x40)\n      tag_189\n      swap2\n      swap1\n      jump(tag_68)\n    tag_189:\n      mload(0x40)\n      dup1\n      swap2\n      sub\n      swap1\n      return\n        /* \"contracts/Bridge.sol\":8665:8923  function getProposal(uint8 originChainID, uint64 depositNonce, bytes32 dataHash) external view returns (Proposal memory) {... */\n    tag_30:\n      callvalue\n        /* \"--CODEGEN--\":5:14   */\n      dup1\n        /* \"--CODEGEN--\":2:4   */\n      iszero\n      tag_190\n      jumpi\n        /* \"--CODEGEN--\":27:28   */\n      0x00\n        /* \"--CODEGEN--\":24:25   */\n      dup1\n        /* \"--CODEGEN--\":17:29   */\n      revert\n        /* \"--CODEGEN--\":2:4   */\n    tag_190:\n        /* \"contracts/Bridge.sol\":8665:8923  function getProposal(uint8 originChainID, uint64 depositNonce, bytes32 dataHash) external view returns (Proposal memory) {... */\n      pop\n      tag_191\n      0x04\n      dup1\n      calldatasize\n      sub\n      dup2\n      add\n      swap1\n      tag_192\n      swap2\n      swap1\n      jump(tag_55)\n    tag_192:\n      tag_193\n      jump\t// in\n    tag_191:\n      mload(0x40)\n      tag_194\n      swap2\n      swap1\n      jump(tag_195)\n    tag_194:\n      mload(0x40)\n      dup1\n      swap2\n      sub\n      swap1\n      return\n        /* \"contracts/Bridge.sol\":378:401  uint8   public _chainID */\n    tag_31:\n      callvalue\n        /* \"--CODEGEN--\":5:14   */\n      dup1\n        /* \"--CODEGEN--\":2:4   */\n      iszero\n      tag_196\n      jumpi\n        /* \"--CODEGEN--\":27:28   */\n      0x00\n        /* \"--CODEGEN--\":24:25   */\n      dup1\n        /* \"--CODEGEN--\":17:29   */\n      revert\n        /* \"--CODEGEN--\":2:4   */\n    tag_196:\n        /* \"contracts/Bridge.sol\":378:401  uint8   public _chainID */\n      pop\n      tag_197\n      tag_198\n      jump\t// in\n    tag_197:\n      mload(0x40)\n      tag_199\n      swap2\n      swap1\n      jump(tag_200)\n    tag_199:\n      mload(0x40)\n      dup1\n      swap2\n      sub\n      swap1\n      return\n        /* \"contracts/Bridge.sol\":516:535  uint256 public _fee */\n    tag_32:\n      callvalue\n        /* \"--CODEGEN--\":5:14   */\n      dup1\n        /* \"--CODEGEN--\":2:4   */\n      iszero\n      tag_201\n      jumpi\n        /* \"--CODEGEN--\":27:28   */\n      0x00\n        /* \"--CODEGEN--\":24:25   */\n      dup1\n        /* \"--CODEGEN--\":17:29   */\n      revert\n        /* \"--CODEGEN--\":2:4   */\n    tag_201:\n        /* \"contracts/Bridge.sol\":516:535  uint256 public _fee */\n      pop\n      tag_202\n      tag_203\n      jump\t// in\n    tag_202:\n      mload(0x40)\n      tag_204\n      swap2\n      swap1\n      jump(tag_144)\n    tag_204:\n      mload(0x40)\n      dup1\n      swap2\n      sub\n      swap1\n      return\n        /* \"contracts/Bridge.sol\":541:563  uint256 public _expiry */\n    tag_33:\n      callvalue\n        /* \"--CODEGEN--\":5:14   */\n      dup1\n        /* \"--CODEGEN--\":2:4   */\n      iszero\n      tag_205\n      jumpi\n        /* \"--CODEGEN--\":27:28   */\n      0x00\n        /* \"--CODEGEN--\":24:25   */\n      dup1\n        /* \"--CODEGEN--\":17:29   */\n      revert\n        /* \"--CODEGEN--\":2:4   */\n    tag_205:\n        /* \"contracts/Bridge.sol\":541:563  uint256 public _expiry */\n      pop\n      tag_206\n      tag_207\n      jump\t// in\n    tag_206:\n      mload(0x40)\n      tag_208\n      swap2\n      swap1\n      jump(tag_144)\n    tag_208:\n      mload(0x40)\n      dup1\n      swap2\n      sub\n      swap1\n      return\n        /* \"contracts/access/AccessControl.sol\":2799:2924  function getRoleMemberCount(bytes32 role) public view returns (uint256) {... */\n    tag_34:\n      callvalue\n        /* \"--CODEGEN--\":5:14   */\n      dup1\n        /* \"--CODEGEN--\":2:4   */\n      iszero\n      tag_209\n      jumpi\n        /* \"--CODEGEN--\":27:28   */\n      0x00\n        /* \"--CODEGEN--\":24:25   */\n      dup1\n        /* \"--CODEGEN--\":17:29   */\n      revert\n        /* \"--CODEGEN--\":2:4   */\n    tag_209:\n        /* \"contracts/access/AccessControl.sol\":2799:2924  function getRoleMemberCount(bytes32 role) public view returns (uint256) {... */\n      pop\n      tag_210\n      0x04\n      dup1\n      calldatasize\n      sub\n      dup2\n      add\n      swap1\n      tag_211\n      swap2\n      swap1\n      jump(tag_65)\n    tag_211:\n      tag_212\n      jump\t// in\n    tag_210:\n      mload(0x40)\n      tag_213\n      swap2\n      swap1\n      jump(tag_144)\n    tag_213:\n      mload(0x40)\n      dup1\n      swap2\n      sub\n      swap1\n      return\n        /* \"contracts/Bridge.sol\":6186:6484  function adminSetResource(address handlerAddress, bytes32 resourceID, address tokenAddress) external onlyAdmin {... */\n    tag_35:\n      callvalue\n        /* \"--CODEGEN--\":5:14   */\n      dup1\n        /* \"--CODEGEN--\":2:4   */\n      iszero\n      tag_214\n      jumpi\n        /* \"--CODEGEN--\":27:28   */\n      0x00\n        /* \"--CODEGEN--\":24:25   */\n      dup1\n        /* \"--CODEGEN--\":17:29   */\n      revert\n        /* \"--CODEGEN--\":2:4   */\n    tag_214:\n        /* \"contracts/Bridge.sol\":6186:6484  function adminSetResource(address handlerAddress, bytes32 resourceID, address tokenAddress) external onlyAdmin {... */\n      pop\n      tag_215\n      0x04\n      dup1\n      calldatasize\n      sub\n      dup2\n      add\n      swap1\n      tag_216\n      swap2\n      swap1\n      jump(tag_217)\n    tag_216:\n      tag_218\n      jump\t// in\n    tag_215:\n      stop\n        /* \"contracts/Bridge.sol\":4765:5049  function adminAddRelayer(address relayerAddress) external onlyAdmin {... */\n    tag_36:\n      callvalue\n        /* \"--CODEGEN--\":5:14   */\n      dup1\n        /* \"--CODEGEN--\":2:4   */\n      iszero\n      tag_219\n      jumpi\n        /* \"--CODEGEN--\":27:28   */\n      0x00\n        /* \"--CODEGEN--\":24:25   */\n      dup1\n        /* \"--CODEGEN--\":17:29   */\n      revert\n        /* \"--CODEGEN--\":2:4   */\n    tag_219:\n        /* \"contracts/Bridge.sol\":4765:5049  function adminAddRelayer(address relayerAddress) external onlyAdmin {... */\n      pop\n      tag_220\n      0x04\n      dup1\n      calldatasize\n      sub\n      dup2\n      add\n      swap1\n      tag_221\n      swap2\n      swap1\n      jump(tag_117)\n    tag_221:\n      tag_222\n      jump\t// in\n    tag_220:\n      stop\n        /* \"contracts/access/AccessControl.sol\":4645:4871  function revokeRole(bytes32 role, address account) public virtual {... */\n    tag_37:\n      callvalue\n        /* \"--CODEGEN--\":5:14   */\n      dup1\n        /* \"--CODEGEN--\":2:4   */\n      iszero\n      tag_223\n      jumpi\n        /* \"--CODEGEN--\":27:28   */\n      0x00\n        /* \"--CODEGEN--\":24:25   */\n      dup1\n        /* \"--CODEGEN--\":17:29   */\n      revert\n        /* \"--CODEGEN--\":2:4   */\n    tag_223:\n        /* \"contracts/access/AccessControl.sol\":4645:4871  function revokeRole(bytes32 role, address account) public virtual {... */\n      pop\n      tag_224\n      0x04\n      dup1\n      calldatasize\n      sub\n      dup2\n      add\n      swap1\n      tag_225\n      swap2\n      swap1\n      jump(tag_72)\n    tag_225:\n      tag_226\n      jump\t// in\n    tag_224:\n      stop\n        /* \"contracts/Bridge.sol\":407:439  uint256 public _relayerThreshold */\n    tag_38:\n      callvalue\n        /* \"--CODEGEN--\":5:14   */\n      dup1\n        /* \"--CODEGEN--\":2:4   */\n      iszero\n      tag_227\n      jumpi\n        /* \"--CODEGEN--\":27:28   */\n      0x00\n        /* \"--CODEGEN--\":24:25   */\n      dup1\n        /* \"--CODEGEN--\":17:29   */\n      revert\n        /* \"--CODEGEN--\":2:4   */\n    tag_227:\n        /* \"contracts/Bridge.sol\":407:439  uint256 public _relayerThreshold */\n      pop\n      tag_228\n      tag_229\n      jump\t// in\n    tag_228:\n      mload(0x40)\n      tag_230\n      swap2\n      swap1\n      jump(tag_144)\n    tag_230:\n      mload(0x40)\n      dup1\n      swap2\n      sub\n      swap1\n      return\n        /* \"contracts/Bridge.sol\":7032:7491  function adminSetGenericResource(... */\n    tag_39:\n      callvalue\n        /* \"--CODEGEN--\":5:14   */\n      dup1\n        /* \"--CODEGEN--\":2:4   */\n      iszero\n      tag_231\n      jumpi\n        /* \"--CODEGEN--\":27:28   */\n      0x00\n        /* \"--CODEGEN--\":24:25   */\n      dup1\n        /* \"--CODEGEN--\":17:29   */\n      revert\n        /* \"--CODEGEN--\":2:4   */\n    tag_231:\n        /* \"contracts/Bridge.sol\":7032:7491  function adminSetGenericResource(... */\n      pop\n      tag_232\n      0x04\n      dup1\n      calldatasize\n      sub\n      dup2\n      add\n      swap1\n      tag_233\n      swap2\n      swap1\n      jump(tag_234)\n    tag_233:\n      tag_235\n      jump\t// in\n    tag_232:\n      stop\n        /* \"contracts/Bridge.sol\":3885:3964  function adminUnpauseTransfers() external onlyAdmin {... */\n    tag_40:\n      callvalue\n        /* \"--CODEGEN--\":5:14   */\n      dup1\n        /* \"--CODEGEN--\":2:4   */\n      iszero\n      tag_236\n      jumpi\n        /* \"--CODEGEN--\":27:28   */\n      0x00\n        /* \"--CODEGEN--\":24:25   */\n      dup1\n        /* \"--CODEGEN--\":17:29   */\n      revert\n        /* \"--CODEGEN--\":2:4   */\n    tag_236:\n        /* \"contracts/Bridge.sol\":3885:3964  function adminUnpauseTransfers() external onlyAdmin {... */\n      pop\n      tag_237\n      tag_238\n      jump\t// in\n    tag_237:\n      stop\n        /* \"contracts/Bridge.sol\":10332:11028  function deposit(uint8 destinationChainID, bytes32 resourceID, bytes calldata data) external payable whenNotPaused {... */\n    tag_51:\n        /* \"contracts/utils/Pausable.sol\":1186:1202  _whenNotPaused() */\n      tag_240\n        /* \"contracts/utils/Pausable.sol\":1186:1200  _whenNotPaused */\n      tag_241\n        /* \"contracts/utils/Pausable.sol\":1186:1202  _whenNotPaused() */\n      jump\t// in\n    tag_240:\n        /* \"contracts/Bridge.sol\":10478:10482  _fee */\n      sload(0x06)\n        /* \"contracts/Bridge.sol\":10465:10474  msg.value */\n      callvalue\n        /* \"contracts/Bridge.sol\":10465:10482  msg.value == _fee */\n      eq\n        /* \"contracts/Bridge.sol\":10457:10509  require(msg.value == _fee, \"Incorrect fee supplied\") */\n      tag_243\n      jumpi\n      mload(0x40)\n      0x08c379a000000000000000000000000000000000000000000000000000000000\n      dup2\n      mstore\n      0x04\n      add\n      tag_244\n      swap1\n      jump(tag_245)\n    tag_244:\n      mload(0x40)\n      dup1\n      swap2\n      sub\n      swap1\n      revert\n    tag_243:\n        /* \"contracts/Bridge.sol\":10520:10535  address handler */\n      0x00\n        /* \"contracts/Bridge.sol\":10538:10565  _resourceIDToHandlerAddress */\n      0x09\n        /* \"contracts/Bridge.sol\":10538:10577  _resourceIDToHandlerAddress[resourceID] */\n      0x00\n        /* \"contracts/Bridge.sol\":10566:10576  resourceID */\n      dup6\n        /* \"contracts/Bridge.sol\":10538:10577  _resourceIDToHandlerAddress[resourceID] */\n      dup2\n      mstore\n      0x20\n      add\n      swap1\n      dup2\n      mstore\n      0x20\n      add\n      0x00\n      keccak256\n      0x00\n      swap1\n      sload\n      swap1\n      0x0100\n      exp\n      swap1\n      div\n      0xffffffffffffffffffffffffffffffffffffffff\n      and\n        /* \"contracts/Bridge.sol\":10520:10577  address handler = _resourceIDToHandlerAddress[resourceID] */\n      swap1\n      pop\n        /* \"contracts/Bridge.sol\":10614:10615  0 */\n      0x00\n        /* \"contracts/Bridge.sol\":10595:10616  handler != address(0) */\n      0xffffffffffffffffffffffffffffffffffffffff\n      and\n        /* \"contracts/Bridge.sol\":10595:10602  handler */\n      dup2\n        /* \"contracts/Bridge.sol\":10595:10616  handler != address(0) */\n      0xffffffffffffffffffffffffffffffffffffffff\n      and\n      eq\n      iszero\n        /* \"contracts/Bridge.sol\":10587:10653  require(handler != address(0), \"resourceID not mapped to handler\") */\n      tag_246\n      jumpi\n      mload(0x40)\n      0x08c379a000000000000000000000000000000000000000000000000000000000\n      dup2\n      mstore\n      0x04\n      add\n      tag_247\n      swap1\n      jump(tag_248)\n    tag_247:\n      mload(0x40)\n      dup1\n      swap2\n      sub\n      swap1\n      revert\n    tag_246:\n        /* \"contracts/Bridge.sol\":10664:10683  uint64 depositNonce */\n      0x00\n        /* \"contracts/Bridge.sol\":10688:10702  _depositCounts */\n      0x08\n        /* \"contracts/Bridge.sol\":10688:10722  _depositCounts[destinationChainID] */\n      0x00\n        /* \"contracts/Bridge.sol\":10703:10721  destinationChainID */\n      dup8\n        /* \"contracts/Bridge.sol\":10688:10722  _depositCounts[destinationChainID] */\n      0xff\n      and\n      0xff\n      and\n      dup2\n      mstore\n      0x20\n      add\n      swap1\n      dup2\n      mstore\n      0x20\n      add\n      0x00\n      keccak256\n      0x00\n        /* \"contracts/Bridge.sol\":10686:10722  ++_depositCounts[destinationChainID] */\n      dup2\n      dup2\n      swap1\n      sload\n      swap1\n      0x0100\n      exp\n      swap1\n      div\n      0xffffffffffffffff\n      and\n      0x01\n      add\n      swap2\n      swap1\n      0x0100\n      exp\n      dup2\n      sload\n      dup2\n      0xffffffffffffffff\n      mul\n      not\n      and\n      swap1\n      dup4\n      0xffffffffffffffff\n      and\n      mul\n      or\n      swap1\n      sstore\n        /* \"contracts/Bridge.sol\":10664:10722  uint64 depositNonce = ++_depositCounts[destinationChainID] */\n      swap1\n      pop\n        /* \"contracts/Bridge.sol\":10784:10788  data */\n      dup4\n      dup4\n        /* \"contracts/Bridge.sol\":10732:10747  _depositRecords */\n      0x0a\n        /* \"contracts/Bridge.sol\":10732:10761  _depositRecords[depositNonce] */\n      0x00\n        /* \"contracts/Bridge.sol\":10748:10760  depositNonce */\n      dup5\n        /* \"contracts/Bridge.sol\":10732:10761  _depositRecords[depositNonce] */\n      0xffffffffffffffff\n      and\n      0xffffffffffffffff\n      and\n      dup2\n      mstore\n      0x20\n      add\n      swap1\n      dup2\n      mstore\n      0x20\n      add\n      0x00\n      keccak256\n        /* \"contracts/Bridge.sol\":10732:10781  _depositRecords[depositNonce][destinationChainID] */\n      0x00\n        /* \"contracts/Bridge.sol\":10762:10780  destinationChainID */\n      dup10\n        /* \"contracts/Bridge.sol\":10732:10781  _depositRecords[depositNonce][destinationChainID] */\n      0xff\n      and\n      0xff\n      and\n      dup2\n      mstore\n      0x20\n      add\n      swap1\n      dup2\n      mstore\n      0x20\n      add\n      0x00\n      keccak256\n        /* \"contracts/Bridge.sol\":10732:10788  _depositRecords[depositNonce][destinationChainID] = data */\n      swap2\n      swap1\n      tag_249\n      swap3\n      swap2\n      swap1\n      tag_250\n      jump\t// in\n    tag_249:\n      pop\n        /* \"contracts/Bridge.sol\":10799:10829  IDepositExecute depositHandler */\n      0x00\n        /* \"contracts/Bridge.sol\":10848:10855  handler */\n      dup3\n        /* \"contracts/Bridge.sol\":10799:10856  IDepositExecute depositHandler = IDepositExecute(handler) */\n      swap1\n      pop\n        /* \"contracts/Bridge.sol\":10866:10880  depositHandler */\n      dup1\n        /* \"contracts/Bridge.sol\":10866:10888  depositHandler.deposit */\n      0xffffffffffffffffffffffffffffffffffffffff\n      and\n      0x38995da9\n        /* \"contracts/Bridge.sol\":10889:10899  resourceID */\n      dup8\n        /* \"contracts/Bridge.sol\":10901:10919  destinationChainID */\n      dup10\n        /* \"contracts/Bridge.sol\":10921:10933  depositNonce */\n      dup6\n        /* \"contracts/Bridge.sol\":10935:10945  msg.sender */\n      caller\n        /* \"contracts/Bridge.sol\":10947:10951  data */\n      dup11\n      dup11\n        /* \"contracts/Bridge.sol\":10866:10952  depositHandler.deposit(resourceID, destinationChainID, depositNonce, msg.sender, data) */\n      mload(0x40)\n      dup8\n      0xffffffff\n      and\n      0xe0\n      shl\n      dup2\n      mstore\n      0x04\n      add\n      tag_251\n      swap7\n      swap6\n      swap5\n      swap4\n      swap3\n      swap2\n      swap1\n      jump(tag_252)\n    tag_251:\n      0x00\n      mload(0x40)\n      dup1\n      dup4\n      sub\n      dup2\n      0x00\n      dup8\n      dup1\n      extcodesize\n      iszero\n        /* \"--CODEGEN--\":5:14   */\n      dup1\n        /* \"--CODEGEN--\":2:4   */\n      iszero\n      tag_253\n      jumpi\n        /* \"--CODEGEN--\":27:28   */\n      0x00\n        /* \"--CODEGEN--\":24:25   */\n      dup1\n        /* \"--CODEGEN--\":17:29   */\n      revert\n        /* \"--CODEGEN--\":2:4   */\n    tag_253:\n        /* \"contracts/Bridge.sol\":10866:10952  depositHandler.deposit(resourceID, destinationChainID, depositNonce, msg.sender, data) */\n      pop\n      gas\n      call\n      iszero\n        /* \"--CODEGEN--\":8:17   */\n      dup1\n        /* \"--CODEGEN--\":5:7   */\n      iszero\n      tag_255\n      jumpi\n        /* \"--CODEGEN--\":45:61   */\n      returndatasize\n        /* \"--CODEGEN--\":42:43   */\n      0x00\n        /* \"--CODEGEN--\":39:40   */\n      dup1\n        /* \"--CODEGEN--\":24:62   */\n      returndatacopy\n        /* \"--CODEGEN--\":77:93   */\n      returndatasize\n        /* \"--CODEGEN--\":74:75   */\n      0x00\n        /* \"--CODEGEN--\":67:94   */\n      revert\n        /* \"--CODEGEN--\":5:7   */\n    tag_255:\n        /* \"contracts/Bridge.sol\":10866:10952  depositHandler.deposit(resourceID, destinationChainID, depositNonce, msg.sender, data) */\n      pop\n      pop\n      pop\n      pop\n        /* \"contracts/Bridge.sol\":11008:11020  depositNonce */\n      dup2\n        /* \"contracts/Bridge.sol\":10968:11021  Deposit(destinationChainID, resourceID, depositNonce) */\n      0xffffffffffffffff\n      and\n        /* \"contracts/Bridge.sol\":10996:11006  resourceID */\n      dup7\n        /* \"contracts/Bridge.sol\":10976:10994  destinationChainID */\n      dup9\n        /* \"contracts/Bridge.sol\":10968:11021  Deposit(destinationChainID, resourceID, depositNonce) */\n      0xff\n      and\n      0xdbb69440df8433824a026ef190652f29929eb64b4d1d5d2a69be8afe3e6eaed8\n      mload(0x40)\n      mload(0x40)\n      dup1\n      swap2\n      sub\n      swap1\n      log4\n        /* \"contracts/utils/Pausable.sol\":1212:1213  _ */\n      pop\n      pop\n      pop\n        /* \"contracts/Bridge.sol\":10332:11028  function deposit(uint8 destinationChainID, bytes32 resourceID, bytes calldata data) external payable whenNotPaused {... */\n      pop\n      pop\n      pop\n      pop\n      jump\t// out\n        /* \"contracts/Bridge.sol\":14606:15237  function cancelProposal(uint8 chainID, uint64 depositNonce, bytes32 dataHash) public onlyAdminOrRelayer {... */\n    tag_56:\n        /* \"contracts/Bridge.sol\":2390:2411  _onlyAdminOrRelayer() */\n      tag_257\n        /* \"contracts/Bridge.sol\":2390:2409  _onlyAdminOrRelayer */\n      tag_258\n        /* \"contracts/Bridge.sol\":2390:2411  _onlyAdminOrRelayer() */\n      jump\t// in\n    tag_257:\n        /* \"contracts/Bridge.sol\":14720:14737  uint72 nonceAndID */\n      0x00\n        /* \"contracts/Bridge.sol\":14777:14784  chainID */\n      dup4\n        /* \"contracts/Bridge.sol\":14770:14785  uint72(chainID) */\n      0xff\n      and\n        /* \"contracts/Bridge.sol\":14765:14766  8 */\n      0x08\n        /* \"contracts/Bridge.sol\":14748:14760  depositNonce */\n      dup5\n        /* \"contracts/Bridge.sol\":14741:14761  uint72(depositNonce) */\n      0xffffffffffffffff\n      and\n        /* \"contracts/Bridge.sol\":14741:14766  uint72(depositNonce) << 8 */\n      0xffffffffffffffffff\n      and\n      swap1\n      shl\n        /* \"contracts/Bridge.sol\":14740:14785  (uint72(depositNonce) << 8) | uint72(chainID) */\n      or\n        /* \"contracts/Bridge.sol\":14720:14785  uint72 nonceAndID = (uint72(depositNonce) << 8) | uint72(chainID) */\n      swap1\n      pop\n        /* \"contracts/Bridge.sol\":14795:14820  Proposal storage proposal */\n      0x00\n        /* \"contracts/Bridge.sol\":14823:14833  _proposals */\n      0x0b\n        /* \"contracts/Bridge.sol\":14823:14845  _proposals[nonceAndID] */\n      0x00\n        /* \"contracts/Bridge.sol\":14834:14844  nonceAndID */\n      dup4\n        /* \"contracts/Bridge.sol\":14823:14845  _proposals[nonceAndID] */\n      0xffffffffffffffffff\n      and\n      0xffffffffffffffffff\n      and\n      dup2\n      mstore\n      0x20\n      add\n      swap1\n      dup2\n      mstore\n      0x20\n      add\n      0x00\n      keccak256\n        /* \"contracts/Bridge.sol\":14823:14855  _proposals[nonceAndID][dataHash] */\n      0x00\n        /* \"contracts/Bridge.sol\":14846:14854  dataHash */\n      dup5\n        /* \"contracts/Bridge.sol\":14823:14855  _proposals[nonceAndID][dataHash] */\n      dup2\n      mstore\n      0x20\n      add\n      swap1\n      dup2\n      mstore\n      0x20\n      add\n      0x00\n      keccak256\n        /* \"contracts/Bridge.sol\":14795:14855  Proposal storage proposal = _proposals[nonceAndID][dataHash] */\n      swap1\n      pop\n        /* \"contracts/Bridge.sol\":14894:14918  ProposalStatus.Cancelled */\n      0x04\n        /* \"contracts/Bridge.sol\":14874:14918  proposal._status != ProposalStatus.Cancelled */\n      dup1\n      dup2\n      gt\n      iszero\n      tag_260\n      jumpi\n      invalid\n    tag_260:\n        /* \"contracts/Bridge.sol\":14874:14882  proposal */\n      dup2\n        /* \"contracts/Bridge.sol\":14874:14890  proposal._status */\n      0x04\n      add\n      0x00\n      swap1\n      sload\n      swap1\n      0x0100\n      exp\n      swap1\n      div\n      0xff\n      and\n        /* \"contracts/Bridge.sol\":14874:14918  proposal._status != ProposalStatus.Cancelled */\n      0x04\n      dup2\n      gt\n      iszero\n      tag_261\n      jumpi\n      invalid\n    tag_261:\n      eq\n      iszero\n        /* \"contracts/Bridge.sol\":14866:14949  require(proposal._status != ProposalStatus.Cancelled, \"Proposal already cancelled\") */\n      tag_262\n      jumpi\n      mload(0x40)\n      0x08c379a000000000000000000000000000000000000000000000000000000000\n      dup2\n      mstore\n      0x04\n      add\n      tag_263\n      swap1\n      jump(tag_264)\n    tag_263:\n      mload(0x40)\n      dup1\n      swap2\n      sub\n      swap1\n      revert\n    tag_262:\n        /* \"contracts/Bridge.sol\":15012:15019  _expiry */\n      sload(0x07)\n        /* \"contracts/Bridge.sol\":14967:15009  sub(block.number, proposal._proposedBlock) */\n      tag_265\n        /* \"contracts/Bridge.sol\":14971:14983  block.number */\n      number\n        /* \"contracts/Bridge.sol\":14985:14993  proposal */\n      dup4\n        /* \"contracts/Bridge.sol\":14985:15008  proposal._proposedBlock */\n      0x05\n      add\n      sload\n        /* \"contracts/Bridge.sol\":14967:14970  sub */\n      tag_266\n        /* \"contracts/Bridge.sol\":14967:15009  sub(block.number, proposal._proposedBlock) */\n      jump\t// in\n    tag_265:\n        /* \"contracts/Bridge.sol\":14967:15019  sub(block.number, proposal._proposedBlock) > _expiry */\n      gt\n        /* \"contracts/Bridge.sol\":14959:15056  require(sub(block.number, proposal._proposedBlock) > _expiry, \"Proposal not at expiry threshold\") */\n      tag_267\n      jumpi\n      mload(0x40)\n      0x08c379a000000000000000000000000000000000000000000000000000000000\n      dup2\n      mstore\n      0x04\n      add\n      tag_268\n      swap1\n      jump(tag_269)\n    tag_268:\n      mload(0x40)\n      dup1\n      swap2\n      sub\n      swap1\n      revert\n    tag_267:\n        /* \"contracts/Bridge.sol\":15086:15110  ProposalStatus.Cancelled */\n      0x04\n        /* \"contracts/Bridge.sol\":15067:15075  proposal */\n      dup2\n        /* \"contracts/Bridge.sol\":15067:15083  proposal._status */\n      0x04\n      add\n      0x00\n        /* \"contracts/Bridge.sol\":15067:15110  proposal._status = ProposalStatus.Cancelled */\n      0x0100\n      exp\n      dup2\n      sload\n      dup2\n      0xff\n      mul\n      not\n      and\n      swap1\n      dup4\n      0x04\n      dup2\n      gt\n      iszero\n      tag_270\n      jumpi\n      invalid\n    tag_270:\n      mul\n      or\n      swap1\n      sstore\n      pop\n        /* \"contracts/Bridge.sol\":15162:15186  ProposalStatus.Cancelled */\n      0x04\n        /* \"contracts/Bridge.sol\":15125:15229  ProposalEvent(chainID, depositNonce, ProposalStatus.Cancelled, proposal._resourceID, proposal._dataHash) */\n      dup1\n      dup2\n      gt\n      iszero\n      tag_271\n      jumpi\n      invalid\n    tag_271:\n        /* \"contracts/Bridge.sol\":15148:15160  depositNonce */\n      dup5\n        /* \"contracts/Bridge.sol\":15125:15229  ProposalEvent(chainID, depositNonce, ProposalStatus.Cancelled, proposal._resourceID, proposal._dataHash) */\n      0xffffffffffffffff\n      and\n        /* \"contracts/Bridge.sol\":15139:15146  chainID */\n      dup7\n        /* \"contracts/Bridge.sol\":15125:15229  ProposalEvent(chainID, depositNonce, ProposalStatus.Cancelled, proposal._resourceID, proposal._dataHash) */\n      0xff\n      and\n      0x803c5a12f6bde629cea32e63d4b92d1b560816a6fb72e939d3c89e1cab650417\n        /* \"contracts/Bridge.sol\":15188:15196  proposal */\n      dup5\n        /* \"contracts/Bridge.sol\":15188:15208  proposal._resourceID */\n      0x00\n      add\n      sload\n        /* \"contracts/Bridge.sol\":15210:15218  proposal */\n      dup6\n        /* \"contracts/Bridge.sol\":15210:15228  proposal._dataHash */\n      0x01\n      add\n      sload\n        /* \"contracts/Bridge.sol\":15125:15229  ProposalEvent(chainID, depositNonce, ProposalStatus.Cancelled, proposal._resourceID, proposal._dataHash) */\n      mload(0x40)\n      tag_272\n      swap3\n      swap2\n      swap1\n      jump(tag_273)\n    tag_272:\n      mload(0x40)\n      dup1\n      swap2\n      sub\n      swap1\n      log4\n        /* \"contracts/Bridge.sol\":2421:2422  _ */\n      pop\n      pop\n        /* \"contracts/Bridge.sol\":14606:15237  function cancelProposal(uint8 chainID, uint64 depositNonce, bytes32 dataHash) public onlyAdminOrRelayer {... */\n      pop\n      pop\n      pop\n      jump\t// out\n        /* \"contracts/Bridge.sol\":11692:14063  function voteProposal(uint8 chainID, uint64 depositNonce, bytes32 resourceID, bytes32 dataHash) external onlyRelayers whenNotPaused {... */\n    tag_61:\n        /* \"contracts/Bridge.sol\":2469:2484  _onlyRelayers() */\n      tag_275\n        /* \"contracts/Bridge.sol\":2469:2482  _onlyRelayers */\n      tag_276\n        /* \"contracts/Bridge.sol\":2469:2484  _onlyRelayers() */\n      jump\t// in\n    tag_275:\n        /* \"contracts/utils/Pausable.sol\":1186:1202  _whenNotPaused() */\n      tag_278\n        /* \"contracts/utils/Pausable.sol\":1186:1200  _whenNotPaused */\n      tag_241\n        /* \"contracts/utils/Pausable.sol\":1186:1202  _whenNotPaused() */\n      jump\t// in\n    tag_278:\n        /* \"contracts/Bridge.sol\":11835:11852  uint72 nonceAndID */\n      0x00\n        /* \"contracts/Bridge.sol\":11892:11899  chainID */\n      dup5\n        /* \"contracts/Bridge.sol\":11885:11900  uint72(chainID) */\n      0xff\n      and\n        /* \"contracts/Bridge.sol\":11880:11881  8 */\n      0x08\n        /* \"contracts/Bridge.sol\":11863:11875  depositNonce */\n      dup6\n        /* \"contracts/Bridge.sol\":11856:11876  uint72(depositNonce) */\n      0xffffffffffffffff\n      and\n        /* \"contracts/Bridge.sol\":11856:11881  uint72(depositNonce) << 8 */\n      0xffffffffffffffffff\n      and\n      swap1\n      shl\n        /* \"contracts/Bridge.sol\":11855:11900  (uint72(depositNonce) << 8) | uint72(chainID) */\n      or\n        /* \"contracts/Bridge.sol\":11835:11900  uint72 nonceAndID = (uint72(depositNonce) << 8) | uint72(chainID) */\n      swap1\n      pop\n        /* \"contracts/Bridge.sol\":11910:11935  Proposal storage proposal */\n      0x00\n        /* \"contracts/Bridge.sol\":11938:11948  _proposals */\n      0x0b\n        /* \"contracts/Bridge.sol\":11938:11960  _proposals[nonceAndID] */\n      0x00\n        /* \"contracts/Bridge.sol\":11949:11959  nonceAndID */\n      dup4\n        /* \"contracts/Bridge.sol\":11938:11960  _proposals[nonceAndID] */\n      0xffffffffffffffffff\n      and\n      0xffffffffffffffffff\n      and\n      dup2\n      mstore\n      0x20\n      add\n      swap1\n      dup2\n      mstore\n      0x20\n      add\n      0x00\n      keccak256\n        /* \"contracts/Bridge.sol\":11938:11970  _proposals[nonceAndID][dataHash] */\n      0x00\n        /* \"contracts/Bridge.sol\":11961:11969  dataHash */\n      dup5\n        /* \"contracts/Bridge.sol\":11938:11970  _proposals[nonceAndID][dataHash] */\n      dup2\n      mstore\n      0x20\n      add\n      swap1\n      dup2\n      mstore\n      0x20\n      add\n      0x00\n      keccak256\n        /* \"contracts/Bridge.sol\":11910:11970  Proposal storage proposal = _proposals[nonceAndID][dataHash] */\n      swap1\n      pop\n        /* \"contracts/Bridge.sol\":12040:12041  0 */\n      0x00\n        /* \"contracts/Bridge.sol\":11989:12042  _resourceIDToHandlerAddress[resourceID] != address(0) */\n      0xffffffffffffffffffffffffffffffffffffffff\n      and\n        /* \"contracts/Bridge.sol\":11989:12016  _resourceIDToHandlerAddress */\n      0x09\n        /* \"contracts/Bridge.sol\":11989:12028  _resourceIDToHandlerAddress[resourceID] */\n      0x00\n        /* \"contracts/Bridge.sol\":12017:12027  resourceID */\n      dup7\n        /* \"contracts/Bridge.sol\":11989:12028  _resourceIDToHandlerAddress[resourceID] */\n      dup2\n      mstore\n      0x20\n      add\n      swap1\n      dup2\n      mstore\n      0x20\n      add\n      0x00\n      keccak256\n      0x00\n      swap1\n      sload\n      swap1\n      0x0100\n      exp\n      swap1\n      div\n      0xffffffffffffffffffffffffffffffffffffffff\n      and\n        /* \"contracts/Bridge.sol\":11989:12042  _resourceIDToHandlerAddress[resourceID] != address(0) */\n      0xffffffffffffffffffffffffffffffffffffffff\n      and\n      eq\n      iszero\n        /* \"contracts/Bridge.sol\":11981:12072  require(_resourceIDToHandlerAddress[resourceID] != address(0), \"no handler for resourceID\") */\n      tag_280\n      jumpi\n      mload(0x40)\n      0x08c379a000000000000000000000000000000000000000000000000000000000\n      dup2\n      mstore\n      0x04\n      add\n      tag_281\n      swap1\n      jump(tag_282)\n    tag_281:\n      mload(0x40)\n      dup1\n      swap2\n      sub\n      swap1\n      revert\n    tag_280:\n        /* \"contracts/Bridge.sol\":12116:12117  1 */\n      0x01\n        /* \"contracts/Bridge.sol\":12095:12103  proposal */\n      dup2\n        /* \"contracts/Bridge.sol\":12095:12111  proposal._status */\n      0x04\n      add\n      0x00\n      swap1\n      sload\n      swap1\n      0x0100\n      exp\n      swap1\n      div\n      0xff\n      and\n        /* \"contracts/Bridge.sol\":12090:12112  uint(proposal._status) */\n      0x04\n      dup2\n      gt\n      iszero\n      tag_283\n      jumpi\n      invalid\n    tag_283:\n        /* \"contracts/Bridge.sol\":12090:12117  uint(proposal._status) <= 1 */\n      gt\n      iszero\n        /* \"contracts/Bridge.sol\":12082:12164  require(uint(proposal._status) <= 1, \"proposal already passed/executed/cancelled\") */\n      tag_284\n      jumpi\n      mload(0x40)\n      0x08c379a000000000000000000000000000000000000000000000000000000000\n      dup2\n      mstore\n      0x04\n      add\n      tag_285\n      swap1\n      jump(tag_286)\n    tag_285:\n      mload(0x40)\n      dup1\n      swap2\n      sub\n      swap1\n      revert\n    tag_284:\n        /* \"contracts/Bridge.sol\":12183:12202  _hasVotedOnProposal */\n      0x0c\n        /* \"contracts/Bridge.sol\":12183:12214  _hasVotedOnProposal[nonceAndID] */\n      0x00\n        /* \"contracts/Bridge.sol\":12203:12213  nonceAndID */\n      dup4\n        /* \"contracts/Bridge.sol\":12183:12214  _hasVotedOnProposal[nonceAndID] */\n      0xffffffffffffffffff\n      and\n      0xffffffffffffffffff\n      and\n      dup2\n      mstore\n      0x20\n      add\n      swap1\n      dup2\n      mstore\n      0x20\n      add\n      0x00\n      keccak256\n        /* \"contracts/Bridge.sol\":12183:12224  _hasVotedOnProposal[nonceAndID][dataHash] */\n      0x00\n        /* \"contracts/Bridge.sol\":12215:12223  dataHash */\n      dup5\n        /* \"contracts/Bridge.sol\":12183:12224  _hasVotedOnProposal[nonceAndID][dataHash] */\n      dup2\n      mstore\n      0x20\n      add\n      swap1\n      dup2\n      mstore\n      0x20\n      add\n      0x00\n      keccak256\n        /* \"contracts/Bridge.sol\":12183:12236  _hasVotedOnProposal[nonceAndID][dataHash][msg.sender] */\n      0x00\n        /* \"contracts/Bridge.sol\":12225:12235  msg.sender */\n      caller\n        /* \"contracts/Bridge.sol\":12183:12236  _hasVotedOnProposal[nonceAndID][dataHash][msg.sender] */\n      0xffffffffffffffffffffffffffffffffffffffff\n      and\n      0xffffffffffffffffffffffffffffffffffffffff\n      and\n      dup2\n      mstore\n      0x20\n      add\n      swap1\n      dup2\n      mstore\n      0x20\n      add\n      0x00\n      keccak256\n      0x00\n      swap1\n      sload\n      swap1\n      0x0100\n      exp\n      swap1\n      div\n      0xff\n      and\n        /* \"contracts/Bridge.sol\":12182:12236  !_hasVotedOnProposal[nonceAndID][dataHash][msg.sender] */\n      iszero\n        /* \"contracts/Bridge.sol\":12174:12262  require(!_hasVotedOnProposal[nonceAndID][dataHash][msg.sender], \"relayer already voted\") */\n      tag_287\n      jumpi\n      mload(0x40)\n      0x08c379a000000000000000000000000000000000000000000000000000000000\n      dup2\n      mstore\n      0x04\n      add\n      tag_288\n      swap1\n      jump(tag_289)\n    tag_288:\n      mload(0x40)\n      dup1\n      swap2\n      sub\n      swap1\n      revert\n    tag_287:\n        /* \"contracts/Bridge.sol\":12303:12304  0 */\n      0x00\n        /* \"contracts/Bridge.sol\":12282:12290  proposal */\n      dup2\n        /* \"contracts/Bridge.sol\":12282:12298  proposal._status */\n      0x04\n      add\n      0x00\n      swap1\n      sload\n      swap1\n      0x0100\n      exp\n      swap1\n      div\n      0xff\n      and\n        /* \"contracts/Bridge.sol\":12277:12299  uint(proposal._status) */\n      0x04\n      dup2\n      gt\n      iszero\n      tag_290\n      jumpi\n      invalid\n    tag_290:\n        /* \"contracts/Bridge.sol\":12277:12304  uint(proposal._status) == 0 */\n      eq\n        /* \"contracts/Bridge.sol\":12273:13433  if (uint(proposal._status) == 0) {... */\n      iszero\n      tag_291\n      jumpi\n        /* \"contracts/Bridge.sol\":12322:12337  _totalProposals */\n      0x05\n      0x00\n        /* \"contracts/Bridge.sol\":12320:12337  ++_totalProposals */\n      dup2\n      sload\n      0x01\n      add\n      swap2\n      swap1\n      pop\n      dup2\n      swap1\n      sstore\n      pop\n        /* \"contracts/Bridge.sol\":12386:12681  Proposal({... */\n      mload(0x40)\n      dup1\n      0xc0\n      add\n      0x40\n      mstore\n      dup1\n        /* \"contracts/Bridge.sol\":12427:12437  resourceID */\n      dup6\n        /* \"contracts/Bridge.sol\":12386:12681  Proposal({... */\n      dup2\n      mstore\n      0x20\n      add\n        /* \"contracts/Bridge.sol\":12467:12475  dataHash */\n      dup5\n        /* \"contracts/Bridge.sol\":12386:12681  Proposal({... */\n      dup2\n      mstore\n      0x20\n      add\n        /* \"contracts/Bridge.sol\":12519:12520  1 */\n      0x01\n        /* \"contracts/Bridge.sol\":12505:12521  new address[](1) */\n      mload(0x40)\n      swap1\n      dup1\n      dup3\n      mstore\n      dup1\n      0x20\n      mul\n      0x20\n      add\n      dup3\n      add\n      0x40\n      mstore\n      dup1\n      iszero\n      tag_292\n      jumpi\n      dup2\n      0x20\n      add\n        /* \"--CODEGEN--\":29:31   */\n      0x20\n        /* \"--CODEGEN--\":21:27   */\n      dup3\n        /* \"--CODEGEN--\":17:32   */\n      mul\n        /* \"--CODEGEN--\":125:129   */\n      dup1\n        /* \"--CODEGEN--\":109:123   */\n      calldatasize\n        /* \"--CODEGEN--\":101:107   */\n      dup4\n        /* \"--CODEGEN--\":88:130   */\n      calldatacopy\n        /* \"--CODEGEN--\":156:160   */\n      dup1\n        /* \"--CODEGEN--\":148:154   */\n      dup3\n        /* \"--CODEGEN--\":144:161   */\n      add\n        /* \"--CODEGEN--\":134:161   */\n      swap2\n      pop\n        /* \"--CODEGEN--\":0:165   */\n      pop\n        /* \"contracts/Bridge.sol\":12505:12521  new address[](1) */\n      swap1\n      pop\n    tag_292:\n      pop\n        /* \"contracts/Bridge.sol\":12386:12681  Proposal({... */\n      dup2\n      mstore\n      0x20\n      add\n        /* \"contracts/Bridge.sol\":12564:12565  0 */\n      0x00\n        /* \"contracts/Bridge.sol\":12550:12566  new address[](0) */\n      mload(0x40)\n      swap1\n      dup1\n      dup3\n      mstore\n      dup1\n      0x20\n      mul\n      0x20\n      add\n      dup3\n      add\n      0x40\n      mstore\n      dup1\n      iszero\n      tag_293\n      jumpi\n      dup2\n      0x20\n      add\n        /* \"--CODEGEN--\":29:31   */\n      0x20\n        /* \"--CODEGEN--\":21:27   */\n      dup3\n        /* \"--CODEGEN--\":17:32   */\n      mul\n        /* \"--CODEGEN--\":125:129   */\n      dup1\n        /* \"--CODEGEN--\":109:123   */\n      calldatasize\n        /* \"--CODEGEN--\":101:107   */\n      dup4\n        /* \"--CODEGEN--\":88:130   */\n      calldatacopy\n        /* \"--CODEGEN--\":156:160   */\n      dup1\n        /* \"--CODEGEN--\":148:154   */\n      dup3\n        /* \"--CODEGEN--\":144:161   */\n      add\n        /* \"--CODEGEN--\":134:161   */\n      swap2\n      pop\n        /* \"--CODEGEN--\":0:165   */\n      pop\n        /* \"contracts/Bridge.sol\":12550:12566  new address[](0) */\n      swap1\n      pop\n    tag_293:\n      pop\n        /* \"contracts/Bridge.sol\":12386:12681  Proposal({... */\n      dup2\n      mstore\n      0x20\n      add\n        /* \"contracts/Bridge.sol\":12594:12615  ProposalStatus.Active */\n      0x01\n        /* \"contracts/Bridge.sol\":12386:12681  Proposal({... */\n      0x04\n      dup2\n      gt\n      iszero\n      tag_294\n      jumpi\n      invalid\n    tag_294:\n      dup2\n      mstore\n      0x20\n      add\n        /* \"contracts/Bridge.sol\":12650:12662  block.number */\n      number\n        /* \"contracts/Bridge.sol\":12386:12681  Proposal({... */\n      dup2\n      mstore\n      pop\n        /* \"contracts/Bridge.sol\":12351:12361  _proposals */\n      0x0b\n        /* \"contracts/Bridge.sol\":12351:12373  _proposals[nonceAndID] */\n      0x00\n        /* \"contracts/Bridge.sol\":12362:12372  nonceAndID */\n      dup5\n        /* \"contracts/Bridge.sol\":12351:12373  _proposals[nonceAndID] */\n      0xffffffffffffffffff\n      and\n      0xffffffffffffffffff\n      and\n      dup2\n      mstore\n      0x20\n      add\n      swap1\n      dup2\n      mstore\n      0x20\n      add\n      0x00\n      keccak256\n        /* \"contracts/Bridge.sol\":12351:12383  _proposals[nonceAndID][dataHash] */\n      0x00\n        /* \"contracts/Bridge.sol\":12374:12382  dataHash */\n      dup6\n        /* \"contracts/Bridge.sol\":12351:12383  _proposals[nonceAndID][dataHash] */\n      dup2\n      mstore\n      0x20\n      add\n      swap1\n      dup2\n      mstore\n      0x20\n      add\n      0x00\n      keccak256\n        /* \"contracts/Bridge.sol\":12351:12681  _proposals[nonceAndID][dataHash] = Proposal({... */\n      0x00\n      dup3\n      add\n      mload\n      dup2\n      0x00\n      add\n      sstore\n      0x20\n      dup3\n      add\n      mload\n      dup2\n      0x01\n      add\n      sstore\n      0x40\n      dup3\n      add\n      mload\n      dup2\n      0x02\n      add\n      swap1\n      dup1\n      mload\n      swap1\n      0x20\n      add\n      swap1\n      tag_295\n      swap3\n      swap2\n      swap1\n      tag_296\n      jump\t// in\n    tag_295:\n      pop\n      0x60\n      dup3\n      add\n      mload\n      dup2\n      0x03\n      add\n      swap1\n      dup1\n      mload\n      swap1\n      0x20\n      add\n      swap1\n      tag_297\n      swap3\n      swap2\n      swap1\n      tag_296\n      jump\t// in\n    tag_297:\n      pop\n      0x80\n      dup3\n      add\n      mload\n      dup2\n      0x04\n      add\n      exp(0x0100, 0x00)\n      dup2\n      sload\n      dup2\n      0xff\n      mul\n      not\n      and\n      swap1\n      dup4\n      0x04\n      dup2\n      gt\n      iszero\n      tag_298\n      jumpi\n      invalid\n    tag_298:\n      mul\n      or\n      swap1\n      sstore\n      pop\n      0xa0\n      dup3\n      add\n      mload\n      dup2\n      0x05\n      add\n      sstore\n      swap1\n      pop\n      pop\n        /* \"contracts/Bridge.sol\":12720:12730  msg.sender */\n      caller\n        /* \"contracts/Bridge.sol\":12696:12704  proposal */\n      dup2\n        /* \"contracts/Bridge.sol\":12696:12714  proposal._yesVotes */\n      0x02\n      add\n        /* \"contracts/Bridge.sol\":12715:12716  0 */\n      0x00\n        /* \"contracts/Bridge.sol\":12696:12717  proposal._yesVotes[0] */\n      dup2\n      sload\n      dup2\n      lt\n      tag_299\n      jumpi\n      invalid\n    tag_299:\n      swap1\n      0x00\n      mstore\n      keccak256(0x00, 0x20)\n      add\n      0x00\n        /* \"contracts/Bridge.sol\":12696:12730  proposal._yesVotes[0] = msg.sender */\n      0x0100\n      exp\n      dup2\n      sload\n      dup2\n      0xffffffffffffffffffffffffffffffffffffffff\n      mul\n      not\n      and\n      swap1\n      dup4\n      0xffffffffffffffffffffffffffffffffffffffff\n      and\n      mul\n      or\n      swap1\n      sstore\n      pop\n        /* \"contracts/Bridge.sol\":12786:12807  ProposalStatus.Active */\n      0x01\n        /* \"contracts/Bridge.sol\":12749:12830  ProposalEvent(chainID, depositNonce, ProposalStatus.Active, resourceID, dataHash) */\n      0x04\n      dup2\n      gt\n      iszero\n      tag_301\n      jumpi\n      invalid\n    tag_301:\n        /* \"contracts/Bridge.sol\":12772:12784  depositNonce */\n      dup6\n        /* \"contracts/Bridge.sol\":12749:12830  ProposalEvent(chainID, depositNonce, ProposalStatus.Active, resourceID, dataHash) */\n      0xffffffffffffffff\n      and\n        /* \"contracts/Bridge.sol\":12763:12770  chainID */\n      dup8\n        /* \"contracts/Bridge.sol\":12749:12830  ProposalEvent(chainID, depositNonce, ProposalStatus.Active, resourceID, dataHash) */\n      0xff\n      and\n      0x803c5a12f6bde629cea32e63d4b92d1b560816a6fb72e939d3c89e1cab650417\n        /* \"contracts/Bridge.sol\":12809:12819  resourceID */\n      dup8\n        /* \"contracts/Bridge.sol\":12821:12829  dataHash */\n      dup8\n        /* \"contracts/Bridge.sol\":12749:12830  ProposalEvent(chainID, depositNonce, ProposalStatus.Active, resourceID, dataHash) */\n      mload(0x40)\n      tag_302\n      swap3\n      swap2\n      swap1\n      jump(tag_273)\n    tag_302:\n      mload(0x40)\n      dup1\n      swap2\n      sub\n      swap1\n      log4\n        /* \"contracts/Bridge.sol\":12273:13433  if (uint(proposal._status) == 0) {... */\n      jump(tag_303)\n    tag_291:\n        /* \"contracts/Bridge.sol\":12910:12917  _expiry */\n      sload(0x07)\n        /* \"contracts/Bridge.sol\":12865:12907  sub(block.number, proposal._proposedBlock) */\n      tag_304\n        /* \"contracts/Bridge.sol\":12869:12881  block.number */\n      number\n        /* \"contracts/Bridge.sol\":12883:12891  proposal */\n      dup4\n        /* \"contracts/Bridge.sol\":12883:12906  proposal._proposedBlock */\n      0x05\n      add\n      sload\n        /* \"contracts/Bridge.sol\":12865:12868  sub */\n      tag_266\n        /* \"contracts/Bridge.sol\":12865:12907  sub(block.number, proposal._proposedBlock) */\n      jump\t// in\n    tag_304:\n        /* \"contracts/Bridge.sol\":12865:12917  sub(block.number, proposal._proposedBlock) > _expiry */\n      gt\n        /* \"contracts/Bridge.sol\":12861:13422  if (sub(block.number, proposal._proposedBlock) > _expiry) {... */\n      iszero\n      tag_305\n      jumpi\n        /* \"contracts/Bridge.sol\":13122:13146  ProposalStatus.Cancelled */\n      0x04\n        /* \"contracts/Bridge.sol\":13103:13111  proposal */\n      dup2\n        /* \"contracts/Bridge.sol\":13103:13119  proposal._status */\n      0x04\n      add\n      0x00\n        /* \"contracts/Bridge.sol\":13103:13146  proposal._status = ProposalStatus.Cancelled */\n      0x0100\n      exp\n      dup2\n      sload\n      dup2\n      0xff\n      mul\n      not\n      and\n      swap1\n      dup4\n      0x04\n      dup2\n      gt\n      iszero\n      tag_306\n      jumpi\n      invalid\n    tag_306:\n      mul\n      or\n      swap1\n      sstore\n      pop\n        /* \"contracts/Bridge.sol\":13206:13230  ProposalStatus.Cancelled */\n      0x04\n        /* \"contracts/Bridge.sol\":13169:13253  ProposalEvent(chainID, depositNonce, ProposalStatus.Cancelled, resourceID, dataHash) */\n      dup1\n      dup2\n      gt\n      iszero\n      tag_307\n      jumpi\n      invalid\n    tag_307:\n        /* \"contracts/Bridge.sol\":13192:13204  depositNonce */\n      dup6\n        /* \"contracts/Bridge.sol\":13169:13253  ProposalEvent(chainID, depositNonce, ProposalStatus.Cancelled, resourceID, dataHash) */\n      0xffffffffffffffff\n      and\n        /* \"contracts/Bridge.sol\":13183:13190  chainID */\n      dup8\n        /* \"contracts/Bridge.sol\":13169:13253  ProposalEvent(chainID, depositNonce, ProposalStatus.Cancelled, resourceID, dataHash) */\n      0xff\n      and\n      0x803c5a12f6bde629cea32e63d4b92d1b560816a6fb72e939d3c89e1cab650417\n        /* \"contracts/Bridge.sol\":13232:13242  resourceID */\n      dup8\n        /* \"contracts/Bridge.sol\":13244:13252  dataHash */\n      dup8\n        /* \"contracts/Bridge.sol\":13169:13253  ProposalEvent(chainID, depositNonce, ProposalStatus.Cancelled, resourceID, dataHash) */\n      mload(0x40)\n      tag_308\n      swap3\n      swap2\n      swap1\n      jump(tag_273)\n    tag_308:\n      mload(0x40)\n      dup1\n      swap2\n      sub\n      swap1\n      log4\n        /* \"contracts/Bridge.sol\":12861:13422  if (sub(block.number, proposal._proposedBlock) > _expiry) {... */\n      jump(tag_309)\n    tag_305:\n        /* \"contracts/Bridge.sol\":13312:13320  proposal */\n      dup1\n        /* \"contracts/Bridge.sol\":13312:13330  proposal._dataHash */\n      0x01\n      add\n      sload\n        /* \"contracts/Bridge.sol\":13300:13308  dataHash */\n      dup4\n        /* \"contracts/Bridge.sol\":13300:13330  dataHash == proposal._dataHash */\n      eq\n        /* \"contracts/Bridge.sol\":13292:13352  require(dataHash == proposal._dataHash, \"datahash mismatch\") */\n      tag_310\n      jumpi\n      mload(0x40)\n      0x08c379a000000000000000000000000000000000000000000000000000000000\n      dup2\n      mstore\n      0x04\n      add\n      tag_311\n      swap1\n      jump(tag_312)\n    tag_311:\n      mload(0x40)\n      dup1\n      swap2\n      sub\n      swap1\n      revert\n    tag_310:\n        /* \"contracts/Bridge.sol\":13370:13378  proposal */\n      dup1\n        /* \"contracts/Bridge.sol\":13370:13388  proposal._yesVotes */\n      0x02\n      add\n        /* \"contracts/Bridge.sol\":13394:13404  msg.sender */\n      caller\n        /* \"contracts/Bridge.sol\":13370:13405  proposal._yesVotes.push(msg.sender) */\n      swap1\n      dup1\n        /* \"--CODEGEN--\":39:40   */\n      0x01\n        /* \"--CODEGEN--\":33:36   */\n      dup2\n        /* \"--CODEGEN--\":27:37   */\n      sload\n        /* \"--CODEGEN--\":23:41   */\n      add\n        /* \"--CODEGEN--\":57:67   */\n      dup1\n        /* \"--CODEGEN--\":52:55   */\n      dup3\n        /* \"--CODEGEN--\":45:68   */\n      sstore\n        /* \"--CODEGEN--\":79:89   */\n      dup1\n        /* \"--CODEGEN--\":72:89   */\n      swap2\n      pop\n        /* \"--CODEGEN--\":0:93   */\n      pop\n        /* \"contracts/Bridge.sol\":13370:13405  proposal._yesVotes.push(msg.sender) */\n      0x01\n      swap1\n      sub\n      swap1\n      0x00\n      mstore\n      keccak256(0x00, 0x20)\n      add\n      0x00\n      swap1\n      swap2\n      swap1\n      swap2\n      swap1\n      swap2\n      0x0100\n      exp\n      dup2\n      sload\n      dup2\n      0xffffffffffffffffffffffffffffffffffffffff\n      mul\n      not\n      and\n      swap1\n      dup4\n      0xffffffffffffffffffffffffffffffffffffffff\n      and\n      mul\n      or\n      swap1\n      sstore\n      pop\n        /* \"contracts/Bridge.sol\":12861:13422  if (sub(block.number, proposal._proposedBlock) > _expiry) {... */\n    tag_309:\n        /* \"contracts/Bridge.sol\":12273:13433  if (uint(proposal._status) == 0) {... */\n    tag_303:\n        /* \"contracts/Bridge.sol\":13466:13490  ProposalStatus.Cancelled */\n      0x04\n        /* \"contracts/Bridge.sol\":13446:13490  proposal._status != ProposalStatus.Cancelled */\n      dup1\n      dup2\n      gt\n      iszero\n      tag_314\n      jumpi\n      invalid\n    tag_314:\n        /* \"contracts/Bridge.sol\":13446:13454  proposal */\n      dup2\n        /* \"contracts/Bridge.sol\":13446:13462  proposal._status */\n      0x04\n      add\n      0x00\n      swap1\n      sload\n      swap1\n      0x0100\n      exp\n      swap1\n      div\n      0xff\n      and\n        /* \"contracts/Bridge.sol\":13446:13490  proposal._status != ProposalStatus.Cancelled */\n      0x04\n      dup2\n      gt\n      iszero\n      tag_315\n      jumpi\n      invalid\n    tag_315:\n      eq\n        /* \"contracts/Bridge.sol\":13442:14056  if (proposal._status != ProposalStatus.Cancelled) {... */\n      tag_316\n      jumpi\n        /* \"contracts/Bridge.sol\":13562:13566  true */\n      0x01\n        /* \"contracts/Bridge.sol\":13506:13525  _hasVotedOnProposal */\n      0x0c\n        /* \"contracts/Bridge.sol\":13506:13537  _hasVotedOnProposal[nonceAndID] */\n      0x00\n        /* \"contracts/Bridge.sol\":13526:13536  nonceAndID */\n      dup5\n        /* \"contracts/Bridge.sol\":13506:13537  _hasVotedOnProposal[nonceAndID] */\n      0xffffffffffffffffff\n      and\n      0xffffffffffffffffff\n      and\n      dup2\n      mstore\n      0x20\n      add\n      swap1\n      dup2\n      mstore\n      0x20\n      add\n      0x00\n      keccak256\n        /* \"contracts/Bridge.sol\":13506:13547  _hasVotedOnProposal[nonceAndID][dataHash] */\n      0x00\n        /* \"contracts/Bridge.sol\":13538:13546  dataHash */\n      dup6\n        /* \"contracts/Bridge.sol\":13506:13547  _hasVotedOnProposal[nonceAndID][dataHash] */\n      dup2\n      mstore\n      0x20\n      add\n      swap1\n      dup2\n      mstore\n      0x20\n      add\n      0x00\n      keccak256\n        /* \"contracts/Bridge.sol\":13506:13559  _hasVotedOnProposal[nonceAndID][dataHash][msg.sender] */\n      0x00\n        /* \"contracts/Bridge.sol\":13548:13558  msg.sender */\n      caller\n        /* \"contracts/Bridge.sol\":13506:13559  _hasVotedOnProposal[nonceAndID][dataHash][msg.sender] */\n      0xffffffffffffffffffffffffffffffffffffffff\n      and\n      0xffffffffffffffffffffffffffffffffffffffff\n      and\n      dup2\n      mstore\n      0x20\n      add\n      swap1\n      dup2\n      mstore\n      0x20\n      add\n      0x00\n      keccak256\n      0x00\n        /* \"contracts/Bridge.sol\":13506:13566  _hasVotedOnProposal[nonceAndID][dataHash][msg.sender] = true */\n      0x0100\n      exp\n      dup2\n      sload\n      dup2\n      0xff\n      mul\n      not\n      and\n      swap1\n      dup4\n      iszero\n      iszero\n      mul\n      or\n      swap1\n      sstore\n      pop\n        /* \"contracts/Bridge.sol\":13621:13629  proposal */\n      dup1\n        /* \"contracts/Bridge.sol\":13621:13637  proposal._status */\n      0x04\n      add\n      0x00\n      swap1\n      sload\n      swap1\n      0x0100\n      exp\n      swap1\n      div\n      0xff\n      and\n        /* \"contracts/Bridge.sol\":13585:13650  ProposalVote(chainID, depositNonce, proposal._status, resourceID) */\n      0x04\n      dup2\n      gt\n      iszero\n      tag_317\n      jumpi\n      invalid\n    tag_317:\n        /* \"contracts/Bridge.sol\":13607:13619  depositNonce */\n      dup6\n        /* \"contracts/Bridge.sol\":13585:13650  ProposalVote(chainID, depositNonce, proposal._status, resourceID) */\n      0xffffffffffffffff\n      and\n        /* \"contracts/Bridge.sol\":13598:13605  chainID */\n      dup8\n        /* \"contracts/Bridge.sol\":13585:13650  ProposalVote(chainID, depositNonce, proposal._status, resourceID) */\n      0xff\n      and\n      0x25f8daaa4635a7729927ba3f5b3d59cc3320aca7c32c9db4e7ca7b9574343640\n        /* \"contracts/Bridge.sol\":13639:13649  resourceID */\n      dup8\n        /* \"contracts/Bridge.sol\":13585:13650  ProposalVote(chainID, depositNonce, proposal._status, resourceID) */\n      mload(0x40)\n      tag_318\n      swap2\n      swap1\n      jump(tag_68)\n    tag_318:\n      mload(0x40)\n      dup1\n      swap2\n      sub\n      swap1\n      log4\n        /* \"contracts/Bridge.sol\":13815:13816  1 */\n      0x01\n        /* \"contracts/Bridge.sol\":13794:13811  _relayerThreshold */\n      sload(0x03)\n        /* \"contracts/Bridge.sol\":13794:13816  _relayerThreshold <= 1 */\n      gt\n      iszero\n        /* \"contracts/Bridge.sol\":13794:13866  _relayerThreshold <= 1 || proposal._yesVotes.length >= _relayerThreshold */\n      dup1\n      tag_319\n      jumpi\n      pop\n        /* \"contracts/Bridge.sol\":13849:13866  _relayerThreshold */\n      sload(0x03)\n        /* \"contracts/Bridge.sol\":13820:13828  proposal */\n      dup2\n        /* \"contracts/Bridge.sol\":13820:13838  proposal._yesVotes */\n      0x02\n      add\n        /* \"contracts/Bridge.sol\":13820:13845  proposal._yesVotes.length */\n      dup1\n      sload\n      swap1\n      pop\n        /* \"contracts/Bridge.sol\":13820:13866  proposal._yesVotes.length >= _relayerThreshold */\n      lt\n      iszero\n        /* \"contracts/Bridge.sol\":13794:13866  _relayerThreshold <= 1 || proposal._yesVotes.length >= _relayerThreshold */\n    tag_319:\n        /* \"contracts/Bridge.sol\":13790:14046  if (_relayerThreshold <= 1 || proposal._yesVotes.length >= _relayerThreshold) {... */\n      iszero\n      tag_320\n      jumpi\n        /* \"contracts/Bridge.sol\":13905:13926  ProposalStatus.Passed */\n      0x02\n        /* \"contracts/Bridge.sol\":13886:13894  proposal */\n      dup2\n        /* \"contracts/Bridge.sol\":13886:13902  proposal._status */\n      0x04\n      add\n      0x00\n        /* \"contracts/Bridge.sol\":13886:13926  proposal._status = ProposalStatus.Passed */\n      0x0100\n      exp\n      dup2\n      sload\n      dup2\n      0xff\n      mul\n      not\n      and\n      swap1\n      dup4\n      0x04\n      dup2\n      gt\n      iszero\n      tag_321\n      jumpi\n      invalid\n    tag_321:\n      mul\n      or\n      swap1\n      sstore\n      pop\n        /* \"contracts/Bridge.sol\":13987:14008  ProposalStatus.Passed */\n      0x02\n        /* \"contracts/Bridge.sol\":13950:14031  ProposalEvent(chainID, depositNonce, ProposalStatus.Passed, resourceID, dataHash) */\n      0x04\n      dup2\n      gt\n      iszero\n      tag_322\n      jumpi\n      invalid\n    tag_322:\n        /* \"contracts/Bridge.sol\":13973:13985  depositNonce */\n      dup6\n        /* \"contracts/Bridge.sol\":13950:14031  ProposalEvent(chainID, depositNonce, ProposalStatus.Passed, resourceID, dataHash) */\n      0xffffffffffffffff\n      and\n        /* \"contracts/Bridge.sol\":13964:13971  chainID */\n      dup8\n        /* \"contracts/Bridge.sol\":13950:14031  ProposalEvent(chainID, depositNonce, ProposalStatus.Passed, resourceID, dataHash) */\n      0xff\n      and\n      0x803c5a12f6bde629cea32e63d4b92d1b560816a6fb72e939d3c89e1cab650417\n        /* \"contracts/Bridge.sol\":14010:14020  resourceID */\n      dup8\n        /* \"contracts/Bridge.sol\":14022:14030  dataHash */\n      dup8\n        /* \"contracts/Bridge.sol\":13950:14031  ProposalEvent(chainID, depositNonce, ProposalStatus.Passed, resourceID, dataHash) */\n      mload(0x40)\n      tag_323\n      swap3\n      swap2\n      swap1\n      jump(tag_273)\n    tag_323:\n      mload(0x40)\n      dup1\n      swap2\n      sub\n      swap1\n      log4\n        /* \"contracts/Bridge.sol\":13790:14046  if (_relayerThreshold <= 1 || proposal._yesVotes.length >= _relayerThreshold) {... */\n    tag_320:\n        /* \"contracts/Bridge.sol\":13442:14056  if (proposal._status != ProposalStatus.Cancelled) {... */\n    tag_316:\n        /* \"contracts/utils/Pausable.sol\":1212:1213  _ */\n      pop\n      pop\n        /* \"contracts/Bridge.sol\":11692:14063  function voteProposal(uint8 chainID, uint64 depositNonce, bytes32 resourceID, bytes32 dataHash) external onlyRelayers whenNotPaused {... */\n      pop\n      pop\n      pop\n      pop\n      jump\t// out\n        /* \"contracts/access/AccessControl.sol\":3826:3938  function getRoleAdmin(bytes32 role) public view returns (bytes32) {... */\n    tag_66:\n        /* \"contracts/access/AccessControl.sol\":3883:3890  bytes32 */\n      0x00\n        /* \"contracts/access/AccessControl.sol\":3909:3915  _roles */\n      0x01\n        /* \"contracts/access/AccessControl.sol\":3909:3921  _roles[role] */\n      0x00\n        /* \"contracts/access/AccessControl.sol\":3916:3920  role */\n      dup4\n        /* \"contracts/access/AccessControl.sol\":3909:3921  _roles[role] */\n      dup2\n      mstore\n      0x20\n      add\n      swap1\n      dup2\n      mstore\n      0x20\n      add\n      0x00\n      keccak256\n        /* \"contracts/access/AccessControl.sol\":3909:3931  _roles[role].adminRole */\n      0x02\n      add\n      sload\n        /* \"contracts/access/AccessControl.sol\":3902:3931  return _roles[role].adminRole */\n      swap1\n      pop\n        /* \"contracts/access/AccessControl.sol\":3826:3938  function getRoleAdmin(bytes32 role) public view returns (bytes32) {... */\n      swap2\n      swap1\n      pop\n      jump\t// out\n        /* \"contracts/access/AccessControl.sol\":4188:4411  function grantRole(bytes32 role, address account) public virtual {... */\n    tag_73:\n        /* \"contracts/access/AccessControl.sol\":4271:4316  hasRole(_roles[role].adminRole, _msgSender()) */\n      tag_326\n        /* \"contracts/access/AccessControl.sol\":4279:4285  _roles */\n      0x01\n        /* \"contracts/access/AccessControl.sol\":4279:4291  _roles[role] */\n      0x00\n        /* \"contracts/access/AccessControl.sol\":4286:4290  role */\n      dup5\n        /* \"contracts/access/AccessControl.sol\":4279:4291  _roles[role] */\n      dup2\n      mstore\n      0x20\n      add\n      swap1\n      dup2\n      mstore\n      0x20\n      add\n      0x00\n      keccak256\n        /* \"contracts/access/AccessControl.sol\":4279:4301  _roles[role].adminRole */\n      0x02\n      add\n      sload\n        /* \"contracts/access/AccessControl.sol\":4303:4315  _msgSender() */\n      tag_327\n        /* \"contracts/access/AccessControl.sol\":4303:4313  _msgSender */\n      tag_328\n        /* \"contracts/access/AccessControl.sol\":4303:4315  _msgSender() */\n      jump\t// in\n    tag_327:\n        /* \"contracts/access/AccessControl.sol\":4271:4278  hasRole */\n      tag_172\n        /* \"contracts/access/AccessControl.sol\":4271:4316  hasRole(_roles[role].adminRole, _msgSender()) */\n      jump\t// in\n    tag_326:\n        /* \"contracts/access/AccessControl.sol\":4263:4368  require(hasRole(_roles[role].adminRole, _msgSender()), \"AccessControl: sender must be an admin to grant\") */\n      tag_329\n      jumpi\n      mload(0x40)\n      0x08c379a000000000000000000000000000000000000000000000000000000000\n      dup2\n      mstore\n      0x04\n      add\n      tag_330\n      swap1\n      jump(tag_331)\n    tag_330:\n      mload(0x40)\n      dup1\n      swap2\n      sub\n      swap1\n      revert\n    tag_329:\n        /* \"contracts/access/AccessControl.sol\":4379:4404  _grantRole(role, account) */\n      tag_332\n        /* \"contracts/access/AccessControl.sol\":4390:4394  role */\n      dup3\n        /* \"contracts/access/AccessControl.sol\":4396:4403  account */\n      dup3\n        /* \"contracts/access/AccessControl.sol\":4379:4389  _grantRole */\n      tag_333\n        /* \"contracts/access/AccessControl.sol\":4379:4404  _grantRole(role, account) */\n      jump\t// in\n    tag_332:\n        /* \"contracts/access/AccessControl.sol\":4188:4411  function grantRole(bytes32 role, address account) public virtual {... */\n      pop\n      pop\n      jump\t// out\n        /* \"contracts/access/AccessControl.sol\":5362:5567  function renounceRole(bytes32 role, address account) public virtual {... */\n    tag_77:\n        /* \"contracts/access/AccessControl.sol\":5459:5471  _msgSender() */\n      tag_335\n        /* \"contracts/access/AccessControl.sol\":5459:5469  _msgSender */\n      tag_328\n        /* \"contracts/access/AccessControl.sol\":5459:5471  _msgSender() */\n      jump\t// in\n    tag_335:\n        /* \"contracts/access/AccessControl.sol\":5448:5471  account == _msgSender() */\n      0xffffffffffffffffffffffffffffffffffffffff\n      and\n        /* \"contracts/access/AccessControl.sol\":5448:5455  account */\n      dup2\n        /* \"contracts/access/AccessControl.sol\":5448:5471  account == _msgSender() */\n      0xffffffffffffffffffffffffffffffffffffffff\n      and\n      eq\n        /* \"contracts/access/AccessControl.sol\":5440:5523  require(account == _msgSender(), \"AccessControl: can only renounce roles for self\") */\n      tag_336\n      jumpi\n      mload(0x40)\n      0x08c379a000000000000000000000000000000000000000000000000000000000\n      dup2\n      mstore\n      0x04\n      add\n      tag_337\n      swap1\n      jump(tag_338)\n    tag_337:\n      mload(0x40)\n      dup1\n      swap2\n      sub\n      swap1\n      revert\n    tag_336:\n        /* \"contracts/access/AccessControl.sol\":5534:5560  _revokeRole(role, account) */\n      tag_339\n        /* \"contracts/access/AccessControl.sol\":5546:5550  role */\n      dup3\n        /* \"contracts/access/AccessControl.sol\":5552:5559  account */\n      dup3\n        /* \"contracts/access/AccessControl.sol\":5534:5545  _revokeRole */\n      tag_340\n        /* \"contracts/access/AccessControl.sol\":5534:5560  _revokeRole(role, account) */\n      jump\t// in\n    tag_339:\n        /* \"contracts/access/AccessControl.sol\":5362:5567  function renounceRole(bytes32 role, address account) public virtual {... */\n      pop\n      pop\n      jump\t// out\n        /* \"contracts/Bridge.sol\":1130:1195  mapping(uint64 => mapping(uint8 => bytes)) public _depositRecords */\n    tag_82:\n      mstore(0x20, 0x0a)\n      dup2\n      0x00\n      mstore\n      mstore(0x20, keccak256(0x00, 0x40))\n      dup1\n      0x00\n      mstore\n      keccak256(0x00, 0x40)\n      0x00\n      swap2\n      pop\n      swap2\n      pop\n      pop\n      dup1\n      sload\n      0x01\n      dup2\n      0x01\n      and\n      iszero\n      0x0100\n      mul\n      sub\n      and\n      0x02\n      swap1\n      div\n      dup1\n      0x1f\n      add\n      0x20\n      dup1\n      swap2\n      div\n      mul\n      0x20\n      add\n      mload(0x40)\n      swap1\n      dup2\n      add\n      0x40\n      mstore\n      dup1\n      swap3\n      swap2\n      swap1\n      dup2\n      dup2\n      mstore\n      0x20\n      add\n      dup3\n      dup1\n      sload\n      0x01\n      dup2\n      0x01\n      and\n      iszero\n      0x0100\n      mul\n      sub\n      and\n      0x02\n      swap1\n      div\n      dup1\n      iszero\n      tag_341\n      jumpi\n      dup1\n      0x1f\n      lt\n      tag_342\n      jumpi\n      0x0100\n      dup1\n      dup4\n      sload\n      div\n      mul\n      dup4\n      mstore\n      swap2\n      0x20\n      add\n      swap2\n      jump(tag_341)\n    tag_342:\n      dup3\n      add\n      swap2\n      swap1\n      0x00\n      mstore\n      keccak256(0x00, 0x20)\n      swap1\n    tag_343:\n      dup2\n      sload\n      dup2\n      mstore\n      swap1\n      0x01\n      add\n      swap1\n      0x20\n      add\n      dup1\n      dup4\n      gt\n      tag_343\n      jumpi\n      dup3\n      swap1\n      sub\n      0x1f\n      and\n      dup3\n      add\n      swap2\n    tag_341:\n      pop\n      pop\n      pop\n      pop\n      pop\n      dup2\n      jump\t// out\n        /* \"contracts/Bridge.sol\":15896:16928  function executeProposal(uint8 chainID, uint64 depositNonce, bytes calldata data, bytes32 resourceID) external onlyRelayers whenNotPaused {... */\n    tag_89:\n        /* \"contracts/Bridge.sol\":2469:2484  _onlyRelayers() */\n      tag_345\n        /* \"contracts/Bridge.sol\":2469:2482  _onlyRelayers */\n      tag_276\n        /* \"contracts/Bridge.sol\":2469:2484  _onlyRelayers() */\n      jump\t// in\n    tag_345:\n        /* \"contracts/utils/Pausable.sol\":1186:1202  _whenNotPaused() */\n      tag_347\n        /* \"contracts/utils/Pausable.sol\":1186:1200  _whenNotPaused */\n      tag_241\n        /* \"contracts/utils/Pausable.sol\":1186:1202  _whenNotPaused() */\n      jump\t// in\n    tag_347:\n        /* \"contracts/Bridge.sol\":16044:16059  address handler */\n      0x00\n        /* \"contracts/Bridge.sol\":16062:16089  _resourceIDToHandlerAddress */\n      0x09\n        /* \"contracts/Bridge.sol\":16062:16101  _resourceIDToHandlerAddress[resourceID] */\n      0x00\n        /* \"contracts/Bridge.sol\":16090:16100  resourceID */\n      dup4\n        /* \"contracts/Bridge.sol\":16062:16101  _resourceIDToHandlerAddress[resourceID] */\n      dup2\n      mstore\n      0x20\n      add\n      swap1\n      dup2\n      mstore\n      0x20\n      add\n      0x00\n      keccak256\n      0x00\n      swap1\n      sload\n      swap1\n      0x0100\n      exp\n      swap1\n      div\n      0xffffffffffffffffffffffffffffffffffffffff\n      and\n        /* \"contracts/Bridge.sol\":16044:16101  address handler = _resourceIDToHandlerAddress[resourceID] */\n      swap1\n      pop\n        /* \"contracts/Bridge.sol\":16111:16128  uint72 nonceAndID */\n      0x00\n        /* \"contracts/Bridge.sol\":16168:16175  chainID */\n      dup7\n        /* \"contracts/Bridge.sol\":16161:16176  uint72(chainID) */\n      0xff\n      and\n        /* \"contracts/Bridge.sol\":16156:16157  8 */\n      0x08\n        /* \"contracts/Bridge.sol\":16139:16151  depositNonce */\n      dup8\n        /* \"contracts/Bridge.sol\":16132:16152  uint72(depositNonce) */\n      0xffffffffffffffff\n      and\n        /* \"contracts/Bridge.sol\":16132:16157  uint72(depositNonce) << 8 */\n      0xffffffffffffffffff\n      and\n      swap1\n      shl\n        /* \"contracts/Bridge.sol\":16131:16176  (uint72(depositNonce) << 8) | uint72(chainID) */\n      or\n        /* \"contracts/Bridge.sol\":16111:16176  uint72 nonceAndID = (uint72(depositNonce) << 8) | uint72(chainID) */\n      swap1\n      pop\n        /* \"contracts/Bridge.sol\":16186:16202  bytes32 dataHash */\n      0x00\n        /* \"contracts/Bridge.sol\":16232:16239  handler */\n      dup3\n        /* \"contracts/Bridge.sol\":16241:16245  data */\n      dup7\n      dup7\n        /* \"contracts/Bridge.sol\":16215:16246  abi.encodePacked(handler, data) */\n      add(0x20, mload(0x40))\n      tag_349\n      swap4\n      swap3\n      swap2\n      swap1\n      jump(tag_350)\n    tag_349:\n      mload(0x40)\n        /* \"--CODEGEN--\":49:53   */\n      0x20\n        /* \"--CODEGEN--\":39:46   */\n      dup2\n        /* \"--CODEGEN--\":30:37   */\n      dup4\n        /* \"--CODEGEN--\":26:47   */\n      sub\n        /* \"--CODEGEN--\":22:54   */\n      sub\n        /* \"--CODEGEN--\":13:20   */\n      dup2\n        /* \"--CODEGEN--\":6:55   */\n      mstore\n        /* \"contracts/Bridge.sol\":16215:16246  abi.encodePacked(handler, data) */\n      swap1\n      0x40\n      mstore\n        /* \"contracts/Bridge.sol\":16205:16247  keccak256(abi.encodePacked(handler, data)) */\n      dup1\n      mload\n      swap1\n      0x20\n      add\n      keccak256\n        /* \"contracts/Bridge.sol\":16186:16247  bytes32 dataHash = keccak256(abi.encodePacked(handler, data)) */\n      swap1\n      pop\n        /* \"contracts/Bridge.sol\":16257:16282  Proposal storage proposal */\n      0x00\n        /* \"contracts/Bridge.sol\":16285:16295  _proposals */\n      0x0b\n        /* \"contracts/Bridge.sol\":16285:16307  _proposals[nonceAndID] */\n      0x00\n        /* \"contracts/Bridge.sol\":16296:16306  nonceAndID */\n      dup5\n        /* \"contracts/Bridge.sol\":16285:16307  _proposals[nonceAndID] */\n      0xffffffffffffffffff\n      and\n      0xffffffffffffffffff\n      and\n      dup2\n      mstore\n      0x20\n      add\n      swap1\n      dup2\n      mstore\n      0x20\n      add\n      0x00\n      keccak256\n        /* \"contracts/Bridge.sol\":16285:16317  _proposals[nonceAndID][dataHash] */\n      0x00\n        /* \"contracts/Bridge.sol\":16308:16316  dataHash */\n      dup4\n        /* \"contracts/Bridge.sol\":16285:16317  _proposals[nonceAndID][dataHash] */\n      dup2\n      mstore\n      0x20\n      add\n      swap1\n      dup2\n      mstore\n      0x20\n      add\n      0x00\n      keccak256\n        /* \"contracts/Bridge.sol\":16257:16317  Proposal storage proposal = _proposals[nonceAndID][dataHash] */\n      swap1\n      pop\n        /* \"contracts/Bridge.sol\":16356:16379  ProposalStatus.Inactive */\n      0x00\n        /* \"contracts/Bridge.sol\":16336:16379  proposal._status != ProposalStatus.Inactive */\n      0x04\n      dup2\n      gt\n      iszero\n      tag_351\n      jumpi\n      invalid\n    tag_351:\n        /* \"contracts/Bridge.sol\":16336:16344  proposal */\n      dup2\n        /* \"contracts/Bridge.sol\":16336:16352  proposal._status */\n      0x04\n      add\n      0x00\n      swap1\n      sload\n      swap1\n      0x0100\n      exp\n      swap1\n      div\n      0xff\n      and\n        /* \"contracts/Bridge.sol\":16336:16379  proposal._status != ProposalStatus.Inactive */\n      0x04\n      dup2\n      gt\n      iszero\n      tag_352\n      jumpi\n      invalid\n    tag_352:\n      eq\n      iszero\n        /* \"contracts/Bridge.sol\":16328:16406  require(proposal._status != ProposalStatus.Inactive, \"proposal is not active\") */\n      tag_353\n      jumpi\n      mload(0x40)\n      0x08c379a000000000000000000000000000000000000000000000000000000000\n      dup2\n      mstore\n      0x04\n      add\n      tag_354\n      swap1\n      jump(tag_355)\n    tag_354:\n      mload(0x40)\n      dup1\n      swap2\n      sub\n      swap1\n      revert\n    tag_353:\n        /* \"contracts/Bridge.sol\":16444:16465  ProposalStatus.Passed */\n      0x02\n        /* \"contracts/Bridge.sol\":16424:16465  proposal._status == ProposalStatus.Passed */\n      0x04\n      dup2\n      gt\n      iszero\n      tag_356\n      jumpi\n      invalid\n    tag_356:\n        /* \"contracts/Bridge.sol\":16424:16432  proposal */\n      dup2\n        /* \"contracts/Bridge.sol\":16424:16440  proposal._status */\n      0x04\n      add\n      0x00\n      swap1\n      sload\n      swap1\n      0x0100\n      exp\n      swap1\n      div\n      0xff\n      and\n        /* \"contracts/Bridge.sol\":16424:16465  proposal._status == ProposalStatus.Passed */\n      0x04\n      dup2\n      gt\n      iszero\n      tag_357\n      jumpi\n      invalid\n    tag_357:\n      eq\n        /* \"contracts/Bridge.sol\":16416:16498  require(proposal._status == ProposalStatus.Passed, \"proposal already transferred\") */\n      tag_358\n      jumpi\n      mload(0x40)\n      0x08c379a000000000000000000000000000000000000000000000000000000000\n      dup2\n      mstore\n      0x04\n      add\n      tag_359\n      swap1\n      jump(tag_360)\n    tag_359:\n      mload(0x40)\n      dup1\n      swap2\n      sub\n      swap1\n      revert\n    tag_358:\n        /* \"contracts/Bridge.sol\":16528:16536  proposal */\n      dup1\n        /* \"contracts/Bridge.sol\":16528:16546  proposal._dataHash */\n      0x01\n      add\n      sload\n        /* \"contracts/Bridge.sol\":16516:16524  dataHash */\n      dup3\n        /* \"contracts/Bridge.sol\":16516:16546  dataHash == proposal._dataHash */\n      eq\n        /* \"contracts/Bridge.sol\":16508:16578  require(dataHash == proposal._dataHash, \"data doesn't match datahash\") */\n      tag_361\n      jumpi\n      mload(0x40)\n      0x08c379a000000000000000000000000000000000000000000000000000000000\n      dup2\n      mstore\n      0x04\n      add\n      tag_362\n      swap1\n      jump(tag_363)\n    tag_362:\n      mload(0x40)\n      dup1\n      swap2\n      sub\n      swap1\n      revert\n    tag_361:\n        /* \"contracts/Bridge.sol\":16608:16631  ProposalStatus.Executed */\n      0x03\n        /* \"contracts/Bridge.sol\":16589:16597  proposal */\n      dup2\n        /* \"contracts/Bridge.sol\":16589:16605  proposal._status */\n      0x04\n      add\n      0x00\n        /* \"contracts/Bridge.sol\":16589:16631  proposal._status = ProposalStatus.Executed */\n      0x0100\n      exp\n      dup2\n      sload\n      dup2\n      0xff\n      mul\n      not\n      and\n      swap1\n      dup4\n      0x04\n      dup2\n      gt\n      iszero\n      tag_364\n      jumpi\n      invalid\n    tag_364:\n      mul\n      or\n      swap1\n      sstore\n      pop\n        /* \"contracts/Bridge.sol\":16642:16672  IDepositExecute depositHandler */\n      0x00\n        /* \"contracts/Bridge.sol\":16691:16718  _resourceIDToHandlerAddress */\n      0x09\n        /* \"contracts/Bridge.sol\":16691:16740  _resourceIDToHandlerAddress[proposal._resourceID] */\n      0x00\n        /* \"contracts/Bridge.sol\":16719:16727  proposal */\n      dup4\n        /* \"contracts/Bridge.sol\":16719:16739  proposal._resourceID */\n      0x00\n      add\n      sload\n        /* \"contracts/Bridge.sol\":16691:16740  _resourceIDToHandlerAddress[proposal._resourceID] */\n      dup2\n      mstore\n      0x20\n      add\n      swap1\n      dup2\n      mstore\n      0x20\n      add\n      0x00\n      keccak256\n      0x00\n      swap1\n      sload\n      swap1\n      0x0100\n      exp\n      swap1\n      div\n      0xffffffffffffffffffffffffffffffffffffffff\n      and\n        /* \"contracts/Bridge.sol\":16642:16741  IDepositExecute depositHandler = IDepositExecute(_resourceIDToHandlerAddress[proposal._resourceID]) */\n      swap1\n      pop\n        /* \"contracts/Bridge.sol\":16751:16765  depositHandler */\n      dup1\n        /* \"contracts/Bridge.sol\":16751:16781  depositHandler.executeProposal */\n      0xffffffffffffffffffffffffffffffffffffffff\n      and\n      0xe248cff2\n        /* \"contracts/Bridge.sol\":16782:16790  proposal */\n      dup4\n        /* \"contracts/Bridge.sol\":16782:16802  proposal._resourceID */\n      0x00\n      add\n      sload\n        /* \"contracts/Bridge.sol\":16804:16808  data */\n      dup11\n      dup11\n        /* \"contracts/Bridge.sol\":16751:16809  depositHandler.executeProposal(proposal._resourceID, data) */\n      mload(0x40)\n      dup5\n      0xffffffff\n      and\n      0xe0\n      shl\n      dup2\n      mstore\n      0x04\n      add\n      tag_365\n      swap4\n      swap3\n      swap2\n      swap1\n      jump(tag_366)\n    tag_365:\n      0x00\n      mload(0x40)\n      dup1\n      dup4\n      sub\n      dup2\n      0x00\n      dup8\n      dup1\n      extcodesize\n      iszero\n        /* \"--CODEGEN--\":5:14   */\n      dup1\n        /* \"--CODEGEN--\":2:4   */\n      iszero\n      tag_367\n      jumpi\n        /* \"--CODEGEN--\":27:28   */\n      0x00\n        /* \"--CODEGEN--\":24:25   */\n      dup1\n        /* \"--CODEGEN--\":17:29   */\n      revert\n        /* \"--CODEGEN--\":2:4   */\n    tag_367:\n        /* \"contracts/Bridge.sol\":16751:16809  depositHandler.executeProposal(proposal._resourceID, data) */\n      pop\n      gas\n      call\n      iszero\n        /* \"--CODEGEN--\":8:17   */\n      dup1\n        /* \"--CODEGEN--\":5:7   */\n      iszero\n      tag_369\n      jumpi\n        /* \"--CODEGEN--\":45:61   */\n      returndatasize\n        /* \"--CODEGEN--\":42:43   */\n      0x00\n        /* \"--CODEGEN--\":39:40   */\n      dup1\n        /* \"--CODEGEN--\":24:62   */\n      returndatacopy\n        /* \"--CODEGEN--\":77:93   */\n      returndatasize\n        /* \"--CODEGEN--\":74:75   */\n      0x00\n        /* \"--CODEGEN--\":67:94   */\n      revert\n        /* \"--CODEGEN--\":5:7   */\n    tag_369:\n        /* \"contracts/Bridge.sol\":16751:16809  depositHandler.executeProposal(proposal._resourceID, data) */\n      pop\n      pop\n      pop\n      pop\n        /* \"contracts/Bridge.sol\":16862:16870  proposal */\n      dup2\n        /* \"contracts/Bridge.sol\":16862:16878  proposal._status */\n      0x04\n      add\n      0x00\n      swap1\n      sload\n      swap1\n      0x0100\n      exp\n      swap1\n      div\n      0xff\n      and\n        /* \"contracts/Bridge.sol\":16825:16921  ProposalEvent(chainID, depositNonce, proposal._status, proposal._resourceID, proposal._dataHash) */\n      0x04\n      dup2\n      gt\n      iszero\n      tag_370\n      jumpi\n      invalid\n    tag_370:\n        /* \"contracts/Bridge.sol\":16848:16860  depositNonce */\n      dup10\n        /* \"contracts/Bridge.sol\":16825:16921  ProposalEvent(chainID, depositNonce, proposal._status, proposal._resourceID, proposal._dataHash) */\n      0xffffffffffffffff\n      and\n        /* \"contracts/Bridge.sol\":16839:16846  chainID */\n      dup12\n        /* \"contracts/Bridge.sol\":16825:16921  ProposalEvent(chainID, depositNonce, proposal._status, proposal._resourceID, proposal._dataHash) */\n      0xff\n      and\n      0x803c5a12f6bde629cea32e63d4b92d1b560816a6fb72e939d3c89e1cab650417\n        /* \"contracts/Bridge.sol\":16880:16888  proposal */\n      dup6\n        /* \"contracts/Bridge.sol\":16880:16900  proposal._resourceID */\n      0x00\n      add\n      sload\n        /* \"contracts/Bridge.sol\":16902:16910  proposal */\n      dup7\n        /* \"contracts/Bridge.sol\":16902:16920  proposal._dataHash */\n      0x01\n      add\n      sload\n        /* \"contracts/Bridge.sol\":16825:16921  ProposalEvent(chainID, depositNonce, proposal._status, proposal._resourceID, proposal._dataHash) */\n      mload(0x40)\n      tag_371\n      swap3\n      swap2\n      swap1\n      jump(tag_273)\n    tag_371:\n      mload(0x40)\n      dup1\n      swap2\n      sub\n      swap1\n      log4\n        /* \"contracts/utils/Pausable.sol\":1212:1213  _ */\n      pop\n      pop\n      pop\n      pop\n      pop\n        /* \"contracts/Bridge.sol\":15896:16928  function executeProposal(uint8 chainID, uint64 depositNonce, bytes calldata data, bytes32 resourceID) external onlyRelayers whenNotPaused {... */\n      pop\n      pop\n      pop\n      pop\n      pop\n      jump\t// out\n        /* \"contracts/Bridge.sol\":17318:17529  function transferFunds(address payable[] calldata addrs, uint[] calldata amounts) external onlyAdmin {... */\n    tag_94:\n        /* \"contracts/Bridge.sol\":2314:2326  _onlyAdmin() */\n      tag_373\n        /* \"contracts/Bridge.sol\":2314:2324  _onlyAdmin */\n      tag_374\n        /* \"contracts/Bridge.sol\":2314:2326  _onlyAdmin() */\n      jump\t// in\n    tag_373:\n        /* \"contracts/Bridge.sol\":17434:17440  uint i */\n      0x00\n        /* \"contracts/Bridge.sol\":17443:17444  0 */\n      dup1\n        /* \"contracts/Bridge.sol\":17434:17444  uint i = 0 */\n      swap1\n      pop\n        /* \"contracts/Bridge.sol\":17429:17523  for (uint i = 0; i < addrs.length; i++) {... */\n    tag_376:\n        /* \"contracts/Bridge.sol\":17450:17455  addrs */\n      dup5\n      dup5\n        /* \"contracts/Bridge.sol\":17450:17462  addrs.length */\n      swap1\n      pop\n        /* \"contracts/Bridge.sol\":17446:17447  i */\n      dup2\n        /* \"contracts/Bridge.sol\":17446:17462  i < addrs.length */\n      lt\n        /* \"contracts/Bridge.sol\":17429:17523  for (uint i = 0; i < addrs.length; i++) {... */\n      iszero\n      tag_377\n      jumpi\n        /* \"contracts/Bridge.sol\":17483:17488  addrs */\n      dup5\n      dup5\n        /* \"contracts/Bridge.sol\":17489:17490  i */\n      dup3\n        /* \"contracts/Bridge.sol\":17483:17491  addrs[i] */\n      dup2\n      dup2\n      lt\n      tag_379\n      jumpi\n      invalid\n    tag_379:\n      swap1\n      pop\n      0x20\n      mul\n      add\n      0x20\n      dup2\n      add\n      swap1\n      tag_380\n      swap2\n      swap1\n      jump(tag_381)\n    tag_380:\n        /* \"contracts/Bridge.sol\":17483:17500  addrs[i].transfer */\n      0xffffffffffffffffffffffffffffffffffffffff\n      and\n        /* \"contracts/Bridge.sol\":17483:17512  addrs[i].transfer(amounts[i]) */\n      0x08fc\n        /* \"contracts/Bridge.sol\":17501:17508  amounts */\n      dup5\n      dup5\n        /* \"contracts/Bridge.sol\":17509:17510  i */\n      dup5\n        /* \"contracts/Bridge.sol\":17501:17511  amounts[i] */\n      dup2\n      dup2\n      lt\n      tag_382\n      jumpi\n      invalid\n    tag_382:\n      swap1\n      pop\n      0x20\n      mul\n      add\n      calldataload\n        /* \"contracts/Bridge.sol\":17483:17512  addrs[i].transfer(amounts[i]) */\n      swap1\n      dup2\n      iszero\n      mul\n      swap1\n      mload(0x40)\n      0x00\n      mload(0x40)\n      dup1\n      dup4\n      sub\n      dup2\n      dup6\n      dup9\n      dup9\n      call\n      swap4\n      pop\n      pop\n      pop\n      pop\n      iszero\n        /* \"--CODEGEN--\":8:17   */\n      dup1\n        /* \"--CODEGEN--\":5:7   */\n      iszero\n      tag_384\n      jumpi\n        /* \"--CODEGEN--\":45:61   */\n      returndatasize\n        /* \"--CODEGEN--\":42:43   */\n      0x00\n        /* \"--CODEGEN--\":39:40   */\n      dup1\n        /* \"--CODEGEN--\":24:62   */\n      returndatacopy\n        /* \"--CODEGEN--\":77:93   */\n      returndatasize\n        /* \"--CODEGEN--\":74:75   */\n      0x00\n        /* \"--CODEGEN--\":67:94   */\n      revert\n        /* \"--CODEGEN--\":5:7   */\n    tag_384:\n        /* \"contracts/Bridge.sol\":17483:17512  addrs[i].transfer(amounts[i]) */\n      pop\n        /* \"contracts/Bridge.sol\":17464:17467  i++ */\n      dup1\n      dup1\n      0x01\n      add\n      swap2\n      pop\n      pop\n        /* \"contracts/Bridge.sol\":17429:17523  for (uint i = 0; i < addrs.length; i++) {... */\n      jump(tag_376)\n    tag_377:\n      pop\n        /* \"contracts/Bridge.sol\":17318:17529  function transferFunds(address payable[] calldata addrs, uint[] calldata amounts) external onlyAdmin {... */\n      pop\n      pop\n      pop\n      pop\n      jump\t// out\n        /* \"contracts/Bridge.sol\":922:968  mapping(uint8 => uint64) public _depositCounts */\n    tag_99:\n      mstore(0x20, 0x08)\n      dup1\n      0x00\n      mstore\n      keccak256(0x00, 0x40)\n      0x00\n      swap2\n      pop\n      sload\n      swap1\n      0x0100\n      exp\n      swap1\n      div\n      0xffffffffffffffff\n      and\n      dup2\n      jump\t// out\n        /* \"contracts/Bridge.sol\":4288:4464  function adminChangeRelayerThreshold(uint newThreshold) external onlyAdmin {... */\n    tag_106:\n        /* \"contracts/Bridge.sol\":2314:2326  _onlyAdmin() */\n      tag_386\n        /* \"contracts/Bridge.sol\":2314:2324  _onlyAdmin */\n      tag_374\n        /* \"contracts/Bridge.sol\":2314:2326  _onlyAdmin() */\n      jump\t// in\n    tag_386:\n        /* \"contracts/Bridge.sol\":4393:4405  newThreshold */\n      dup1\n        /* \"contracts/Bridge.sol\":4373:4390  _relayerThreshold */\n      0x03\n        /* \"contracts/Bridge.sol\":4373:4405  _relayerThreshold = newThreshold */\n      dup2\n      swap1\n      sstore\n      pop\n        /* \"contracts/Bridge.sol\":4444:4456  newThreshold */\n      dup1\n        /* \"contracts/Bridge.sol\":4420:4457  RelayerThresholdChanged(newThreshold) */\n      0xa20d6b84cd798a24038be305eff8a45ca82ef54a2aa2082005d8e14c0a4746c8\n      mload(0x40)\n      mload(0x40)\n      dup1\n      swap2\n      sub\n      swap1\n      log2\n        /* \"contracts/Bridge.sol\":4288:4464  function adminChangeRelayerThreshold(uint newThreshold) external onlyAdmin {... */\n      pop\n      jump\t// out\n        /* \"contracts/Bridge.sol\":1266:1331  mapping(uint72 => mapping(bytes32 => Proposal)) public _proposals */\n    tag_111:\n      mstore(0x20, 0x0b)\n      dup2\n      0x00\n      mstore\n      mstore(0x20, keccak256(0x00, 0x40))\n      dup1\n      0x00\n      mstore\n      keccak256(0x00, 0x40)\n      0x00\n      swap2\n      pop\n      swap2\n      pop\n      pop\n      dup1\n      0x00\n      add\n      sload\n      swap1\n      dup1\n      0x01\n      add\n      sload\n      swap1\n      dup1\n      0x04\n      add\n      0x00\n      swap1\n      sload\n      swap1\n      0x0100\n      exp\n      swap1\n      div\n      0xff\n      and\n      swap1\n      dup1\n      0x05\n      add\n      sload\n      swap1\n      pop\n      dup5\n      jump\t// out\n        /* \"contracts/Bridge.sol\":3503:3622  function isRelayer(address relayer) external view returns (bool) {... */\n    tag_118:\n        /* \"contracts/Bridge.sol\":3562:3566  bool */\n      0x00\n        /* \"contracts/Bridge.sol\":3585:3615  hasRole(RELAYER_ROLE, relayer) */\n      tag_389\n        /* \"contracts/Bridge.sol\":2251:2276  keccak256(\"RELAYER_ROLE\") */\n      mload(0x40)\n      tag_390\n      swap1\n      jump(tag_391)\n    tag_390:\n      mload(0x40)\n      dup1\n      swap2\n      sub\n      swap1\n      keccak256\n        /* \"contracts/Bridge.sol\":3607:3614  relayer */\n      dup4\n        /* \"contracts/Bridge.sol\":3585:3592  hasRole */\n      tag_172\n        /* \"contracts/Bridge.sol\":3585:3615  hasRole(RELAYER_ROLE, relayer) */\n      jump\t// in\n    tag_389:\n        /* \"contracts/Bridge.sol\":3578:3615  return hasRole(RELAYER_ROLE, relayer) */\n      swap1\n      pop\n        /* \"contracts/Bridge.sol\":3503:3622  function isRelayer(address relayer) external view returns (bool) {... */\n      swap2\n      swap1\n      pop\n      jump\t// out\n        /* \"contracts/utils/Pausable.sol\":889:965  function paused() public view returns (bool) {... */\n    tag_123:\n        /* \"contracts/utils/Pausable.sol\":928:932  bool */\n      0x00\n        /* \"contracts/utils/Pausable.sol\":951:958  _paused */\n      dup1\n      0x00\n      swap1\n      sload\n      swap1\n      0x0100\n      exp\n      swap1\n      div\n      0xff\n      and\n        /* \"contracts/utils/Pausable.sol\":944:958  return _paused */\n      swap1\n      pop\n        /* \"contracts/utils/Pausable.sol\":889:965  function paused() public view returns (bool) {... */\n      swap1\n      jump\t// out\n        /* \"contracts/Bridge.sol\":3628:3798  function renounceAdmin(address newAdmin) external onlyAdmin {... */\n    tag_128:\n        /* \"contracts/Bridge.sol\":2314:2326  _onlyAdmin() */\n      tag_394\n        /* \"contracts/Bridge.sol\":2314:2324  _onlyAdmin */\n      tag_374\n        /* \"contracts/Bridge.sol\":2314:2326  _onlyAdmin() */\n      jump\t// in\n    tag_394:\n        /* \"contracts/Bridge.sol\":3698:3737  grantRole(DEFAULT_ADMIN_ROLE, newAdmin) */\n      tag_396\n        /* \"contracts/access/AccessControl.sol\":1729:1733  0x00 */\n      0x00\n        /* \"contracts/Bridge.sol\":3708:3726  DEFAULT_ADMIN_ROLE */\n      dup1\n      shl\n        /* \"contracts/Bridge.sol\":3728:3736  newAdmin */\n      dup3\n        /* \"contracts/Bridge.sol\":3698:3707  grantRole */\n      tag_73\n        /* \"contracts/Bridge.sol\":3698:3737  grantRole(DEFAULT_ADMIN_ROLE, newAdmin) */\n      jump\t// in\n    tag_396:\n        /* \"contracts/Bridge.sol\":3747:3791  renounceRole(DEFAULT_ADMIN_ROLE, msg.sender) */\n      tag_397\n        /* \"contracts/access/AccessControl.sol\":1729:1733  0x00 */\n      0x00\n        /* \"contracts/Bridge.sol\":3760:3778  DEFAULT_ADMIN_ROLE */\n      dup1\n      shl\n        /* \"contracts/Bridge.sol\":3780:3790  msg.sender */\n      caller\n        /* \"contracts/Bridge.sol\":3747:3759  renounceRole */\n      tag_77\n        /* \"contracts/Bridge.sol\":3747:3791  renounceRole(DEFAULT_ADMIN_ROLE, msg.sender) */\n      jump\t// in\n    tag_397:\n        /* \"contracts/Bridge.sol\":3628:3798  function renounceAdmin(address newAdmin) external onlyAdmin {... */\n      pop\n      jump\t// out\n        /* \"contracts/Bridge.sol\":9599:9903  function adminWithdraw(... */\n    tag_133:\n        /* \"contracts/Bridge.sol\":2314:2326  _onlyAdmin() */\n      tag_399\n        /* \"contracts/Bridge.sol\":2314:2324  _onlyAdmin */\n      tag_374\n        /* \"contracts/Bridge.sol\":2314:2326  _onlyAdmin() */\n      jump\t// in\n    tag_399:\n        /* \"contracts/Bridge.sol\":9779:9798  IERCHandler handler */\n      0x00\n        /* \"contracts/Bridge.sol\":9813:9827  handlerAddress */\n      dup5\n        /* \"contracts/Bridge.sol\":9779:9828  IERCHandler handler = IERCHandler(handlerAddress) */\n      swap1\n      pop\n        /* \"contracts/Bridge.sol\":9838:9845  handler */\n      dup1\n        /* \"contracts/Bridge.sol\":9838:9854  handler.withdraw */\n      0xffffffffffffffffffffffffffffffffffffffff\n      and\n      0xd9caed12\n        /* \"contracts/Bridge.sol\":9855:9867  tokenAddress */\n      dup6\n        /* \"contracts/Bridge.sol\":9869:9878  recipient */\n      dup6\n        /* \"contracts/Bridge.sol\":9880:9895  amountOrTokenID */\n      dup6\n        /* \"contracts/Bridge.sol\":9838:9896  handler.withdraw(tokenAddress, recipient, amountOrTokenID) */\n      mload(0x40)\n      dup5\n      0xffffffff\n      and\n      0xe0\n      shl\n      dup2\n      mstore\n      0x04\n      add\n      tag_401\n      swap4\n      swap3\n      swap2\n      swap1\n      jump(tag_402)\n    tag_401:\n      0x00\n      mload(0x40)\n      dup1\n      dup4\n      sub\n      dup2\n      0x00\n      dup8\n      dup1\n      extcodesize\n      iszero\n        /* \"--CODEGEN--\":5:14   */\n      dup1\n        /* \"--CODEGEN--\":2:4   */\n      iszero\n      tag_403\n      jumpi\n        /* \"--CODEGEN--\":27:28   */\n      0x00\n        /* \"--CODEGEN--\":24:25   */\n      dup1\n        /* \"--CODEGEN--\":17:29   */\n      revert\n        /* \"--CODEGEN--\":2:4   */\n    tag_403:\n        /* \"contracts/Bridge.sol\":9838:9896  handler.withdraw(tokenAddress, recipient, amountOrTokenID) */\n      pop\n      gas\n      call\n      iszero\n        /* \"--CODEGEN--\":8:17   */\n      dup1\n        /* \"--CODEGEN--\":5:7   */\n      iszero\n      tag_405\n      jumpi\n        /* \"--CODEGEN--\":45:61   */\n      returndatasize\n        /* \"--CODEGEN--\":42:43   */\n      0x00\n        /* \"--CODEGEN--\":39:40   */\n      dup1\n        /* \"--CODEGEN--\":24:62   */\n      returndatacopy\n        /* \"--CODEGEN--\":77:93   */\n      returndatasize\n        /* \"--CODEGEN--\":74:75   */\n      0x00\n        /* \"--CODEGEN--\":67:94   */\n      revert\n        /* \"--CODEGEN--\":5:7   */\n    tag_405:\n        /* \"contracts/Bridge.sol\":9838:9896  handler.withdraw(tokenAddress, recipient, amountOrTokenID) */\n      pop\n      pop\n      pop\n      pop\n        /* \"contracts/Bridge.sol\":2336:2337  _ */\n      pop\n        /* \"contracts/Bridge.sol\":9599:9903  function adminWithdraw(... */\n      pop\n      pop\n      pop\n      pop\n      jump\t// out\n        /* \"contracts/Bridge.sol\":1416:1506  mapping(uint72 => mapping(bytes32 => mapping(address => bool))) public _hasVotedOnProposal */\n    tag_138:\n      mstore(0x20, 0x0c)\n      dup3\n      0x00\n      mstore\n      mstore(0x20, keccak256(0x00, 0x40))\n      dup2\n      0x00\n      mstore\n      mstore(0x20, keccak256(0x00, 0x40))\n      dup1\n      0x00\n      mstore\n      keccak256(0x00, 0x40)\n      0x00\n      swap3\n      pop\n      swap3\n      pop\n      pop\n      swap1\n      sload\n      swap1\n      0x0100\n      exp\n      swap1\n      div\n      0xff\n      and\n      dup2\n      jump\t// out\n        /* \"contracts/Bridge.sol\":445:474  uint256 public _totalRelayers */\n    tag_142:\n      sload(0x04)\n      dup2\n      jump\t// out\n        /* \"contracts/Bridge.sol\":3804:3879  function adminPauseTransfers() external onlyAdmin {... */\n    tag_147:\n        /* \"contracts/Bridge.sol\":2314:2326  _onlyAdmin() */\n      tag_407\n        /* \"contracts/Bridge.sol\":2314:2324  _onlyAdmin */\n      tag_374\n        /* \"contracts/Bridge.sol\":2314:2326  _onlyAdmin() */\n      jump\t// in\n    tag_407:\n        /* \"contracts/Bridge.sol\":3864:3872  _pause() */\n      tag_409\n        /* \"contracts/Bridge.sol\":3864:3870  _pause */\n      tag_410\n        /* \"contracts/Bridge.sol\":3864:3872  _pause() */\n      jump\t// in\n    tag_409:\n        /* \"contracts/Bridge.sol\":3804:3879  function adminPauseTransfers() external onlyAdmin {... */\n      jump\t// out\n        /* \"contracts/Bridge.sol\":1011:1073  mapping(bytes32 => address) public _resourceIDToHandlerAddress */\n    tag_151:\n      mstore(0x20, 0x09)\n      dup1\n      0x00\n      mstore\n      keccak256(0x00, 0x40)\n      0x00\n      swap2\n      pop\n      sload\n      swap1\n      0x0100\n      exp\n      swap1\n      div\n      0xffffffffffffffffffffffffffffffffffffffff\n      and\n      dup2\n      jump\t// out\n        /* \"contracts/Bridge.sol\":7882:8082  function adminSetBurnable(address handlerAddress, address tokenAddress) external onlyAdmin {... */\n    tag_158:\n        /* \"contracts/Bridge.sol\":2314:2326  _onlyAdmin() */\n      tag_412\n        /* \"contracts/Bridge.sol\":2314:2324  _onlyAdmin */\n      tag_374\n        /* \"contracts/Bridge.sol\":2314:2326  _onlyAdmin() */\n      jump\t// in\n    tag_412:\n        /* \"contracts/Bridge.sol\":7983:8002  IERCHandler handler */\n      0x00\n        /* \"contracts/Bridge.sol\":8017:8031  handlerAddress */\n      dup3\n        /* \"contracts/Bridge.sol\":7983:8032  IERCHandler handler = IERCHandler(handlerAddress) */\n      swap1\n      pop\n        /* \"contracts/Bridge.sol\":8042:8049  handler */\n      dup1\n        /* \"contracts/Bridge.sol\":8042:8061  handler.setBurnable */\n      0xffffffffffffffffffffffffffffffffffffffff\n      and\n      0x07b7ed99\n        /* \"contracts/Bridge.sol\":8062:8074  tokenAddress */\n      dup4\n        /* \"contracts/Bridge.sol\":8042:8075  handler.setBurnable(tokenAddress) */\n      mload(0x40)\n      dup3\n      0xffffffff\n      and\n      0xe0\n      shl\n      dup2\n      mstore\n      0x04\n      add\n      tag_414\n      swap2\n      swap1\n      jump(tag_153)\n    tag_414:\n      0x00\n      mload(0x40)\n      dup1\n      dup4\n      sub\n      dup2\n      0x00\n      dup8\n      dup1\n      extcodesize\n      iszero\n        /* \"--CODEGEN--\":5:14   */\n      dup1\n        /* \"--CODEGEN--\":2:4   */\n      iszero\n      tag_415\n      jumpi\n        /* \"--CODEGEN--\":27:28   */\n      0x00\n        /* \"--CODEGEN--\":24:25   */\n      dup1\n        /* \"--CODEGEN--\":17:29   */\n      revert\n        /* \"--CODEGEN--\":2:4   */\n    tag_415:\n        /* \"contracts/Bridge.sol\":8042:8075  handler.setBurnable(tokenAddress) */\n      pop\n      gas\n      call\n      iszero\n        /* \"--CODEGEN--\":8:17   */\n      dup1\n        /* \"--CODEGEN--\":5:7   */\n      iszero\n      tag_417\n      jumpi\n        /* \"--CODEGEN--\":45:61   */\n      returndatasize\n        /* \"--CODEGEN--\":42:43   */\n      0x00\n        /* \"--CODEGEN--\":39:40   */\n      dup1\n        /* \"--CODEGEN--\":24:62   */\n      returndatacopy\n        /* \"--CODEGEN--\":77:93   */\n      returndatasize\n        /* \"--CODEGEN--\":74:75   */\n      0x00\n        /* \"--CODEGEN--\":67:94   */\n      revert\n        /* \"--CODEGEN--\":5:7   */\n    tag_417:\n        /* \"contracts/Bridge.sol\":8042:8075  handler.setBurnable(tokenAddress) */\n      pop\n      pop\n      pop\n      pop\n        /* \"contracts/Bridge.sol\":2336:2337  _ */\n      pop\n        /* \"contracts/Bridge.sol\":7882:8082  function adminSetBurnable(address handlerAddress, address tokenAddress) external onlyAdmin {... */\n      pop\n      pop\n      jump\t// out\n        /* \"contracts/access/AccessControl.sol\":3509:3645  function getRoleMember(bytes32 role, uint256 index) public view returns (address) {... */\n    tag_163:\n        /* \"contracts/access/AccessControl.sol\":3582:3589  address */\n      0x00\n        /* \"contracts/access/AccessControl.sol\":3608:3638  _roles[role].members.at(index) */\n      tag_419\n        /* \"contracts/access/AccessControl.sol\":3632:3637  index */\n      dup3\n        /* \"contracts/access/AccessControl.sol\":3608:3614  _roles */\n      0x01\n        /* \"contracts/access/AccessControl.sol\":3608:3620  _roles[role] */\n      0x00\n        /* \"contracts/access/AccessControl.sol\":3615:3619  role */\n      dup7\n        /* \"contracts/access/AccessControl.sol\":3608:3620  _roles[role] */\n      dup2\n      mstore\n      0x20\n      add\n      swap1\n      dup2\n      mstore\n      0x20\n      add\n      0x00\n      keccak256\n        /* \"contracts/access/AccessControl.sol\":3608:3628  _roles[role].members */\n      0x00\n      add\n        /* \"contracts/access/AccessControl.sol\":3608:3631  _roles[role].members.at */\n      tag_420\n      swap1\n        /* \"contracts/access/AccessControl.sol\":3608:3638  _roles[role].members.at(index) */\n      swap2\n      swap1\n      0xffffffff\n      and\n      jump\t// in\n    tag_419:\n        /* \"contracts/access/AccessControl.sol\":3601:3638  return _roles[role].members.at(index) */\n      swap1\n      pop\n        /* \"contracts/access/AccessControl.sol\":3509:3645  function getRoleMember(bytes32 role, uint256 index) public view returns (address) {... */\n      swap3\n      swap2\n      pop\n      pop\n      jump\t// out\n        /* \"contracts/Bridge.sol\":9077:9231  function adminChangeFee(uint newFee) external onlyAdmin {... */\n    tag_168:\n        /* \"contracts/Bridge.sol\":2314:2326  _onlyAdmin() */\n      tag_422\n        /* \"contracts/Bridge.sol\":2314:2324  _onlyAdmin */\n      tag_374\n        /* \"contracts/Bridge.sol\":2314:2326  _onlyAdmin() */\n      jump\t// in\n    tag_422:\n        /* \"contracts/Bridge.sol\":9159:9165  newFee */\n      dup1\n        /* \"contracts/Bridge.sol\":9151:9155  _fee */\n      sload(0x06)\n        /* \"contracts/Bridge.sol\":9151:9165  _fee != newFee */\n      eq\n      iszero\n        /* \"contracts/Bridge.sol\":9143:9201  require(_fee != newFee, \"Current fee is equal to new fee\") */\n      tag_424\n      jumpi\n      mload(0x40)\n      0x08c379a000000000000000000000000000000000000000000000000000000000\n      dup2\n      mstore\n      0x04\n      add\n      tag_425\n      swap1\n      jump(tag_426)\n    tag_425:\n      mload(0x40)\n      dup1\n      swap2\n      sub\n      swap1\n      revert\n    tag_424:\n        /* \"contracts/Bridge.sol\":9218:9224  newFee */\n      dup1\n        /* \"contracts/Bridge.sol\":9211:9215  _fee */\n      0x06\n        /* \"contracts/Bridge.sol\":9211:9224  _fee = newFee */\n      dup2\n      swap1\n      sstore\n      pop\n        /* \"contracts/Bridge.sol\":9077:9231  function adminChangeFee(uint newFee) external onlyAdmin {... */\n      pop\n      jump\t// out\n        /* \"contracts/access/AccessControl.sol\":2494:2631  function hasRole(bytes32 role, address account) public view returns (bool) {... */\n    tag_172:\n        /* \"contracts/access/AccessControl.sol\":2563:2567  bool */\n      0x00\n        /* \"contracts/access/AccessControl.sol\":2586:2624  _roles[role].members.contains(account) */\n      tag_428\n        /* \"contracts/access/AccessControl.sol\":2616:2623  account */\n      dup3\n        /* \"contracts/access/AccessControl.sol\":2586:2592  _roles */\n      0x01\n        /* \"contracts/access/AccessControl.sol\":2586:2598  _roles[role] */\n      0x00\n        /* \"contracts/access/AccessControl.sol\":2593:2597  role */\n      dup7\n        /* \"contracts/access/AccessControl.sol\":2586:2598  _roles[role] */\n      dup2\n      mstore\n      0x20\n      add\n      swap1\n      dup2\n      mstore\n      0x20\n      add\n      0x00\n      keccak256\n        /* \"contracts/access/AccessControl.sol\":2586:2606  _roles[role].members */\n      0x00\n      add\n        /* \"contracts/access/AccessControl.sol\":2586:2615  _roles[role].members.contains */\n      tag_429\n      swap1\n        /* \"contracts/access/AccessControl.sol\":2586:2624  _roles[role].members.contains(account) */\n      swap2\n      swap1\n      0xffffffff\n      and\n      jump\t// in\n    tag_428:\n        /* \"contracts/access/AccessControl.sol\":2579:2624  return _roles[role].members.contains(account) */\n      swap1\n      pop\n        /* \"contracts/access/AccessControl.sol\":2494:2631  function hasRole(bytes32 role, address account) public view returns (bool) {... */\n      swap3\n      swap2\n      pop\n      pop\n      jump\t// out\n        /* \"contracts/Bridge.sol\":2212:2276  bytes32 public constant RELAYER_ROLE = keccak256(\"RELAYER_ROLE\") */\n    tag_176:\n        /* \"contracts/Bridge.sol\":2251:2276  keccak256(\"RELAYER_ROLE\") */\n      mload(0x40)\n      tag_430\n      swap1\n      jump(tag_391)\n    tag_430:\n      mload(0x40)\n      dup1\n      swap2\n      sub\n      swap1\n      keccak256\n        /* \"contracts/Bridge.sol\":2212:2276  bytes32 public constant RELAYER_ROLE = keccak256(\"RELAYER_ROLE\") */\n      dup2\n      jump\t// out\n        /* \"contracts/Bridge.sol\":480:510  uint256 public _totalProposals */\n    tag_180:\n      sload(0x05)\n      dup2\n      jump\t// out\n        /* \"contracts/Bridge.sol\":5355:5645  function adminRemoveRelayer(address relayerAddress) external onlyAdmin {... */\n    tag_185:\n        /* \"contracts/Bridge.sol\":2314:2326  _onlyAdmin() */\n      tag_432\n        /* \"contracts/Bridge.sol\":2314:2324  _onlyAdmin */\n      tag_374\n        /* \"contracts/Bridge.sol\":2314:2326  _onlyAdmin() */\n      jump\t// in\n    tag_432:\n        /* \"contracts/Bridge.sol\":5444:5481  hasRole(RELAYER_ROLE, relayerAddress) */\n      tag_434\n        /* \"contracts/Bridge.sol\":2251:2276  keccak256(\"RELAYER_ROLE\") */\n      mload(0x40)\n      tag_435\n      swap1\n      jump(tag_391)\n    tag_435:\n      mload(0x40)\n      dup1\n      swap2\n      sub\n      swap1\n      keccak256\n        /* \"contracts/Bridge.sol\":5466:5480  relayerAddress */\n      dup3\n        /* \"contracts/Bridge.sol\":5444:5451  hasRole */\n      tag_172\n        /* \"contracts/Bridge.sol\":5444:5481  hasRole(RELAYER_ROLE, relayerAddress) */\n      jump\t// in\n    tag_434:\n        /* \"contracts/Bridge.sol\":5436:5517  require(hasRole(RELAYER_ROLE, relayerAddress), \"addr doesn't have relayer role!\") */\n      tag_436\n      jumpi\n      mload(0x40)\n      0x08c379a000000000000000000000000000000000000000000000000000000000\n      dup2\n      mstore\n      0x04\n      add\n      tag_437\n      swap1\n      jump(tag_438)\n    tag_437:\n      mload(0x40)\n      dup1\n      swap2\n      sub\n      swap1\n      revert\n    tag_436:\n        /* \"contracts/Bridge.sol\":5527:5567  revokeRole(RELAYER_ROLE, relayerAddress) */\n      tag_439\n        /* \"contracts/Bridge.sol\":2251:2276  keccak256(\"RELAYER_ROLE\") */\n      mload(0x40)\n      tag_440\n      swap1\n      jump(tag_391)\n    tag_440:\n      mload(0x40)\n      dup1\n      swap2\n      sub\n      swap1\n      keccak256\n        /* \"contracts/Bridge.sol\":5552:5566  relayerAddress */\n      dup3\n        /* \"contracts/Bridge.sol\":5527:5537  revokeRole */\n      tag_226\n        /* \"contracts/Bridge.sol\":5527:5567  revokeRole(RELAYER_ROLE, relayerAddress) */\n      jump\t// in\n    tag_439:\n        /* \"contracts/Bridge.sol\":5597:5611  relayerAddress */\n      dup1\n        /* \"contracts/Bridge.sol\":5582:5612  RelayerRemoved(relayerAddress) */\n      0xffffffffffffffffffffffffffffffffffffffff\n      and\n      0x10e1f7ce9fd7d1b90a66d13a2ab3cb8dd7f29f3f8d520b143b063ccfbab6906b\n      mload(0x40)\n      mload(0x40)\n      dup1\n      swap2\n      sub\n      swap1\n      log2\n        /* \"contracts/Bridge.sol\":5622:5636  _totalRelayers */\n      0x04\n      0x00\n        /* \"contracts/Bridge.sol\":5622:5638  _totalRelayers-- */\n      dup2\n      sload\n      dup1\n      swap3\n      swap2\n      swap1\n      0x01\n      swap1\n      sub\n      swap2\n      swap1\n      pop\n      sstore\n      pop\n        /* \"contracts/Bridge.sol\":5355:5645  function adminRemoveRelayer(address relayerAddress) external onlyAdmin {... */\n      pop\n      jump\t// out\n        /* \"contracts/access/AccessControl.sol\":1684:1733  bytes32 public constant DEFAULT_ADMIN_ROLE = 0x00 */\n    tag_188:\n        /* \"contracts/access/AccessControl.sol\":1729:1733  0x00 */\n      0x00\n        /* \"contracts/access/AccessControl.sol\":1684:1733  bytes32 public constant DEFAULT_ADMIN_ROLE = 0x00 */\n      dup1\n      shl\n      dup2\n      jump\t// out\n        /* \"contracts/Bridge.sol\":8665:8923  function getProposal(uint8 originChainID, uint64 depositNonce, bytes32 dataHash) external view returns (Proposal memory) {... */\n    tag_193:\n        /* \"contracts/Bridge.sol\":8769:8784  Proposal memory */\n      tag_441\n      tag_442\n      jump\t// in\n    tag_441:\n        /* \"contracts/Bridge.sol\":8796:8813  uint72 nonceAndID */\n      0x00\n        /* \"contracts/Bridge.sol\":8853:8866  originChainID */\n      dup5\n        /* \"contracts/Bridge.sol\":8846:8867  uint72(originChainID) */\n      0xff\n      and\n        /* \"contracts/Bridge.sol\":8841:8842  8 */\n      0x08\n        /* \"contracts/Bridge.sol\":8824:8836  depositNonce */\n      dup6\n        /* \"contracts/Bridge.sol\":8817:8837  uint72(depositNonce) */\n      0xffffffffffffffff\n      and\n        /* \"contracts/Bridge.sol\":8817:8842  uint72(depositNonce) << 8 */\n      0xffffffffffffffffff\n      and\n      swap1\n      shl\n        /* \"contracts/Bridge.sol\":8816:8867  (uint72(depositNonce) << 8) | uint72(originChainID) */\n      or\n        /* \"contracts/Bridge.sol\":8796:8867  uint72 nonceAndID = (uint72(depositNonce) << 8) | uint72(originChainID) */\n      swap1\n      pop\n        /* \"contracts/Bridge.sol\":8884:8894  _proposals */\n      0x0b\n        /* \"contracts/Bridge.sol\":8884:8906  _proposals[nonceAndID] */\n      0x00\n        /* \"contracts/Bridge.sol\":8895:8905  nonceAndID */\n      dup3\n        /* \"contracts/Bridge.sol\":8884:8906  _proposals[nonceAndID] */\n      0xffffffffffffffffff\n      and\n      0xffffffffffffffffff\n      and\n      dup2\n      mstore\n      0x20\n      add\n      swap1\n      dup2\n      mstore\n      0x20\n      add\n      0x00\n      keccak256\n        /* \"contracts/Bridge.sol\":8884:8916  _proposals[nonceAndID][dataHash] */\n      0x00\n        /* \"contracts/Bridge.sol\":8907:8915  dataHash */\n      dup5\n        /* \"contracts/Bridge.sol\":8884:8916  _proposals[nonceAndID][dataHash] */\n      dup2\n      mstore\n      0x20\n      add\n      swap1\n      dup2\n      mstore\n      0x20\n      add\n      0x00\n      keccak256\n        /* \"contracts/Bridge.sol\":8877:8916  return _proposals[nonceAndID][dataHash] */\n      mload(0x40)\n      dup1\n      0xc0\n      add\n      0x40\n      mstore\n      swap1\n      dup2\n      0x00\n      dup3\n      add\n      sload\n      dup2\n      mstore\n      0x20\n      add\n      0x01\n      dup3\n      add\n      sload\n      dup2\n      mstore\n      0x20\n      add\n      0x02\n      dup3\n      add\n      dup1\n      sload\n      dup1\n      0x20\n      mul\n      0x20\n      add\n      mload(0x40)\n      swap1\n      dup2\n      add\n      0x40\n      mstore\n      dup1\n      swap3\n      swap2\n      swap1\n      dup2\n      dup2\n      mstore\n      0x20\n      add\n      dup3\n      dup1\n      sload\n      dup1\n      iszero\n      tag_444\n      jumpi\n      0x20\n      mul\n      dup3\n      add\n      swap2\n      swap1\n      0x00\n      mstore\n      keccak256(0x00, 0x20)\n      swap1\n    tag_445:\n      dup2\n      0x00\n      swap1\n      sload\n      swap1\n      0x0100\n      exp\n      swap1\n      div\n      0xffffffffffffffffffffffffffffffffffffffff\n      and\n      0xffffffffffffffffffffffffffffffffffffffff\n      and\n      dup2\n      mstore\n      0x20\n      add\n      swap1\n      0x01\n      add\n      swap1\n      dup1\n      dup4\n      gt\n      tag_445\n      jumpi\n    tag_444:\n      pop\n      pop\n      pop\n      pop\n      pop\n      dup2\n      mstore\n      0x20\n      add\n      0x03\n      dup3\n      add\n      dup1\n      sload\n      dup1\n      0x20\n      mul\n      0x20\n      add\n      mload(0x40)\n      swap1\n      dup2\n      add\n      0x40\n      mstore\n      dup1\n      swap3\n      swap2\n      swap1\n      dup2\n      dup2\n      mstore\n      0x20\n      add\n      dup3\n      dup1\n      sload\n      dup1\n      iszero\n      tag_446\n      jumpi\n      0x20\n      mul\n      dup3\n      add\n      swap2\n      swap1\n      0x00\n      mstore\n      keccak256(0x00, 0x20)\n      swap1\n    tag_447:\n      dup2\n      0x00\n      swap1\n      sload\n      swap1\n      0x0100\n      exp\n      swap1\n      div\n      0xffffffffffffffffffffffffffffffffffffffff\n      and\n      0xffffffffffffffffffffffffffffffffffffffff\n      and\n      dup2\n      mstore\n      0x20\n      add\n      swap1\n      0x01\n      add\n      swap1\n      dup1\n      dup4\n      gt\n      tag_447\n      jumpi\n    tag_446:\n      pop\n      pop\n      pop\n      pop\n      pop\n      dup2\n      mstore\n      0x20\n      add\n      0x04\n      dup3\n      add\n      0x00\n      swap1\n      sload\n      swap1\n      0x0100\n      exp\n      swap1\n      div\n      0xff\n      and\n      0x04\n      dup2\n      gt\n      iszero\n      tag_448\n      jumpi\n      invalid\n    tag_448:\n      0x04\n      dup2\n      gt\n      iszero\n      tag_449\n      jumpi\n      invalid\n    tag_449:\n      dup2\n      mstore\n      0x20\n      add\n      0x05\n      dup3\n      add\n      sload\n      dup2\n      mstore\n      pop\n      pop\n      swap2\n      pop\n      pop\n        /* \"contracts/Bridge.sol\":8665:8923  function getProposal(uint8 originChainID, uint64 depositNonce, bytes32 dataHash) external view returns (Proposal memory) {... */\n      swap4\n      swap3\n      pop\n      pop\n      pop\n      jump\t// out\n        /* \"contracts/Bridge.sol\":378:401  uint8   public _chainID */\n    tag_198:\n      0x02\n      0x00\n      swap1\n      sload\n      swap1\n      0x0100\n      exp\n      swap1\n      div\n      0xff\n      and\n      dup2\n      jump\t// out\n        /* \"contracts/Bridge.sol\":516:535  uint256 public _fee */\n    tag_203:\n      sload(0x06)\n      dup2\n      jump\t// out\n        /* \"contracts/Bridge.sol\":541:563  uint256 public _expiry */\n    tag_207:\n      sload(0x07)\n      dup2\n      jump\t// out\n        /* \"contracts/access/AccessControl.sol\":2799:2924  function getRoleMemberCount(bytes32 role) public view returns (uint256) {... */\n    tag_212:\n        /* \"contracts/access/AccessControl.sol\":2862:2869  uint256 */\n      0x00\n        /* \"contracts/access/AccessControl.sol\":2888:2917  _roles[role].members.length() */\n      tag_451\n        /* \"contracts/access/AccessControl.sol\":2888:2894  _roles */\n      0x01\n        /* \"contracts/access/AccessControl.sol\":2888:2900  _roles[role] */\n      0x00\n        /* \"contracts/access/AccessControl.sol\":2895:2899  role */\n      dup5\n        /* \"contracts/access/AccessControl.sol\":2888:2900  _roles[role] */\n      dup2\n      mstore\n      0x20\n      add\n      swap1\n      dup2\n      mstore\n      0x20\n      add\n      0x00\n      keccak256\n        /* \"contracts/access/AccessControl.sol\":2888:2908  _roles[role].members */\n      0x00\n      add\n        /* \"contracts/access/AccessControl.sol\":2888:2915  _roles[role].members.length */\n      tag_452\n        /* \"contracts/access/AccessControl.sol\":2888:2917  _roles[role].members.length() */\n      jump\t// in\n    tag_451:\n        /* \"contracts/access/AccessControl.sol\":2881:2917  return _roles[role].members.length() */\n      swap1\n      pop\n        /* \"contracts/access/AccessControl.sol\":2799:2924  function getRoleMemberCount(bytes32 role) public view returns (uint256) {... */\n      swap2\n      swap1\n      pop\n      jump\t// out\n        /* \"contracts/Bridge.sol\":6186:6484  function adminSetResource(address handlerAddress, bytes32 resourceID, address tokenAddress) external onlyAdmin {... */\n    tag_218:\n        /* \"contracts/Bridge.sol\":2314:2326  _onlyAdmin() */\n      tag_454\n        /* \"contracts/Bridge.sol\":2314:2324  _onlyAdmin */\n      tag_374\n        /* \"contracts/Bridge.sol\":2314:2326  _onlyAdmin() */\n      jump\t// in\n    tag_454:\n        /* \"contracts/Bridge.sol\":6349:6363  handlerAddress */\n      dup3\n        /* \"contracts/Bridge.sol\":6307:6334  _resourceIDToHandlerAddress */\n      0x09\n        /* \"contracts/Bridge.sol\":6307:6346  _resourceIDToHandlerAddress[resourceID] */\n      0x00\n        /* \"contracts/Bridge.sol\":6335:6345  resourceID */\n      dup5\n        /* \"contracts/Bridge.sol\":6307:6346  _resourceIDToHandlerAddress[resourceID] */\n      dup2\n      mstore\n      0x20\n      add\n      swap1\n      dup2\n      mstore\n      0x20\n      add\n      0x00\n      keccak256\n      0x00\n        /* \"contracts/Bridge.sol\":6307:6363  _resourceIDToHandlerAddress[resourceID] = handlerAddress */\n      0x0100\n      exp\n      dup2\n      sload\n      dup2\n      0xffffffffffffffffffffffffffffffffffffffff\n      mul\n      not\n      and\n      swap1\n      dup4\n      0xffffffffffffffffffffffffffffffffffffffff\n      and\n      mul\n      or\n      swap1\n      sstore\n      pop\n        /* \"contracts/Bridge.sol\":6373:6392  IERCHandler handler */\n      0x00\n        /* \"contracts/Bridge.sol\":6407:6421  handlerAddress */\n      dup4\n        /* \"contracts/Bridge.sol\":6373:6422  IERCHandler handler = IERCHandler(handlerAddress) */\n      swap1\n      pop\n        /* \"contracts/Bridge.sol\":6432:6439  handler */\n      dup1\n        /* \"contracts/Bridge.sol\":6432:6451  handler.setResource */\n      0xffffffffffffffffffffffffffffffffffffffff\n      and\n      0xb8fa3736\n        /* \"contracts/Bridge.sol\":6452:6462  resourceID */\n      dup5\n        /* \"contracts/Bridge.sol\":6464:6476  tokenAddress */\n      dup5\n        /* \"contracts/Bridge.sol\":6432:6477  handler.setResource(resourceID, tokenAddress) */\n      mload(0x40)\n      dup4\n      0xffffffff\n      and\n      0xe0\n      shl\n      dup2\n      mstore\n      0x04\n      add\n      tag_456\n      swap3\n      swap2\n      swap1\n      jump(tag_457)\n    tag_456:\n      0x00\n      mload(0x40)\n      dup1\n      dup4\n      sub\n      dup2\n      0x00\n      dup8\n      dup1\n      extcodesize\n      iszero\n        /* \"--CODEGEN--\":5:14   */\n      dup1\n        /* \"--CODEGEN--\":2:4   */\n      iszero\n      tag_458\n      jumpi\n        /* \"--CODEGEN--\":27:28   */\n      0x00\n        /* \"--CODEGEN--\":24:25   */\n      dup1\n        /* \"--CODEGEN--\":17:29   */\n      revert\n        /* \"--CODEGEN--\":2:4   */\n    tag_458:\n        /* \"contracts/Bridge.sol\":6432:6477  handler.setResource(resourceID, tokenAddress) */\n      pop\n      gas\n      call\n      iszero\n        /* \"--CODEGEN--\":8:17   */\n      dup1\n        /* \"--CODEGEN--\":5:7   */\n      iszero\n      tag_460\n      jumpi\n        /* \"--CODEGEN--\":45:61   */\n      returndatasize\n        /* \"--CODEGEN--\":42:43   */\n      0x00\n        /* \"--CODEGEN--\":39:40   */\n      dup1\n        /* \"--CODEGEN--\":24:62   */\n      returndatacopy\n        /* \"--CODEGEN--\":77:93   */\n      returndatasize\n        /* \"--CODEGEN--\":74:75   */\n      0x00\n        /* \"--CODEGEN--\":67:94   */\n      revert\n        /* \"--CODEGEN--\":5:7   */\n    tag_460:\n        /* \"contracts/Bridge.sol\":6432:6477  handler.setResource(resourceID, tokenAddress) */\n      pop\n      pop\n      pop\n      pop\n        /* \"contracts/Bridge.sol\":2336:2337  _ */\n      pop\n        /* \"contracts/Bridge.sol\":6186:6484  function adminSetResource(address handlerAddress, bytes32 resourceID, address tokenAddress) external onlyAdmin {... */\n      pop\n      pop\n      pop\n      jump\t// out\n        /* \"contracts/Bridge.sol\":4765:5049  function adminAddRelayer(address relayerAddress) external onlyAdmin {... */\n    tag_222:\n        /* \"contracts/Bridge.sol\":2314:2326  _onlyAdmin() */\n      tag_462\n        /* \"contracts/Bridge.sol\":2314:2324  _onlyAdmin */\n      tag_374\n        /* \"contracts/Bridge.sol\":2314:2326  _onlyAdmin() */\n      jump\t// in\n    tag_462:\n        /* \"contracts/Bridge.sol\":4852:4889  hasRole(RELAYER_ROLE, relayerAddress) */\n      tag_464\n        /* \"contracts/Bridge.sol\":2251:2276  keccak256(\"RELAYER_ROLE\") */\n      mload(0x40)\n      tag_465\n      swap1\n      jump(tag_391)\n    tag_465:\n      mload(0x40)\n      dup1\n      swap2\n      sub\n      swap1\n      keccak256\n        /* \"contracts/Bridge.sol\":4874:4888  relayerAddress */\n      dup3\n        /* \"contracts/Bridge.sol\":4852:4859  hasRole */\n      tag_172\n        /* \"contracts/Bridge.sol\":4852:4889  hasRole(RELAYER_ROLE, relayerAddress) */\n      jump\t// in\n    tag_464:\n        /* \"contracts/Bridge.sol\":4851:4889  !hasRole(RELAYER_ROLE, relayerAddress) */\n      iszero\n        /* \"contracts/Bridge.sol\":4843:4924  require(!hasRole(RELAYER_ROLE, relayerAddress), \"addr already has relayer role!\") */\n      tag_466\n      jumpi\n      mload(0x40)\n      0x08c379a000000000000000000000000000000000000000000000000000000000\n      dup2\n      mstore\n      0x04\n      add\n      tag_467\n      swap1\n      jump(tag_468)\n    tag_467:\n      mload(0x40)\n      dup1\n      swap2\n      sub\n      swap1\n      revert\n    tag_466:\n        /* \"contracts/Bridge.sol\":4934:4973  grantRole(RELAYER_ROLE, relayerAddress) */\n      tag_469\n        /* \"contracts/Bridge.sol\":2251:2276  keccak256(\"RELAYER_ROLE\") */\n      mload(0x40)\n      tag_470\n      swap1\n      jump(tag_391)\n    tag_470:\n      mload(0x40)\n      dup1\n      swap2\n      sub\n      swap1\n      keccak256\n        /* \"contracts/Bridge.sol\":4958:4972  relayerAddress */\n      dup3\n        /* \"contracts/Bridge.sol\":4934:4943  grantRole */\n      tag_73\n        /* \"contracts/Bridge.sol\":4934:4973  grantRole(RELAYER_ROLE, relayerAddress) */\n      jump\t// in\n    tag_469:\n        /* \"contracts/Bridge.sol\":5001:5015  relayerAddress */\n      dup1\n        /* \"contracts/Bridge.sol\":4988:5016  RelayerAdded(relayerAddress) */\n      0xffffffffffffffffffffffffffffffffffffffff\n      and\n      0x03580ee9f53a62b7cb409a2cb56f9be87747dd15017afc5cef6eef321e4fb2c5\n      mload(0x40)\n      mload(0x40)\n      dup1\n      swap2\n      sub\n      swap1\n      log2\n        /* \"contracts/Bridge.sol\":5026:5040  _totalRelayers */\n      0x04\n      0x00\n        /* \"contracts/Bridge.sol\":5026:5042  _totalRelayers++ */\n      dup2\n      sload\n      dup1\n      swap3\n      swap2\n      swap1\n      0x01\n      add\n      swap2\n      swap1\n      pop\n      sstore\n      pop\n        /* \"contracts/Bridge.sol\":4765:5049  function adminAddRelayer(address relayerAddress) external onlyAdmin {... */\n      pop\n      jump\t// out\n        /* \"contracts/access/AccessControl.sol\":4645:4871  function revokeRole(bytes32 role, address account) public virtual {... */\n    tag_226:\n        /* \"contracts/access/AccessControl.sol\":4729:4774  hasRole(_roles[role].adminRole, _msgSender()) */\n      tag_472\n        /* \"contracts/access/AccessControl.sol\":4737:4743  _roles */\n      0x01\n        /* \"contracts/access/AccessControl.sol\":4737:4749  _roles[role] */\n      0x00\n        /* \"contracts/access/AccessControl.sol\":4744:4748  role */\n      dup5\n        /* \"contracts/access/AccessControl.sol\":4737:4749  _roles[role] */\n      dup2\n      mstore\n      0x20\n      add\n      swap1\n      dup2\n      mstore\n      0x20\n      add\n      0x00\n      keccak256\n        /* \"contracts/access/AccessControl.sol\":4737:4759  _roles[role].adminRole */\n      0x02\n      add\n      sload\n        /* \"contracts/access/AccessControl.sol\":4761:4773  _msgSender() */\n      tag_473\n        /* \"contracts/access/AccessControl.sol\":4761:4771  _msgSender */\n      tag_328\n        /* \"contracts/access/AccessControl.sol\":4761:4773  _msgSender() */\n      jump\t// in\n    tag_473:\n        /* \"contracts/access/AccessControl.sol\":4729:4736  hasRole */\n      tag_172\n        /* \"contracts/access/AccessControl.sol\":4729:4774  hasRole(_roles[role].adminRole, _msgSender()) */\n      jump\t// in\n    tag_472:\n        /* \"contracts/access/AccessControl.sol\":4721:4827  require(hasRole(_roles[role].adminRole, _msgSender()), \"AccessControl: sender must be an admin to revoke\") */\n      tag_474\n      jumpi\n      mload(0x40)\n      0x08c379a000000000000000000000000000000000000000000000000000000000\n      dup2\n      mstore\n      0x04\n      add\n      tag_475\n      swap1\n      jump(tag_476)\n    tag_475:\n      mload(0x40)\n      dup1\n      swap2\n      sub\n      swap1\n      revert\n    tag_474:\n        /* \"contracts/access/AccessControl.sol\":4838:4864  _revokeRole(role, account) */\n      tag_477\n        /* \"contracts/access/AccessControl.sol\":4850:4854  role */\n      dup3\n        /* \"contracts/access/AccessControl.sol\":4856:4863  account */\n      dup3\n        /* \"contracts/access/AccessControl.sol\":4838:4849  _revokeRole */\n      tag_340\n        /* \"contracts/access/AccessControl.sol\":4838:4864  _revokeRole(role, account) */\n      jump\t// in\n    tag_477:\n        /* \"contracts/access/AccessControl.sol\":4645:4871  function revokeRole(bytes32 role, address account) public virtual {... */\n      pop\n      pop\n      jump\t// out\n        /* \"contracts/Bridge.sol\":407:439  uint256 public _relayerThreshold */\n    tag_229:\n      sload(0x03)\n      dup2\n      jump\t// out\n        /* \"contracts/Bridge.sol\":7032:7491  function adminSetGenericResource(... */\n    tag_235:\n        /* \"contracts/Bridge.sol\":2314:2326  _onlyAdmin() */\n      tag_479\n        /* \"contracts/Bridge.sol\":2314:2324  _onlyAdmin */\n      tag_374\n        /* \"contracts/Bridge.sol\":2314:2326  _onlyAdmin() */\n      jump\t// in\n    tag_479:\n        /* \"contracts/Bridge.sol\":7305:7319  handlerAddress */\n      dup5\n        /* \"contracts/Bridge.sol\":7263:7290  _resourceIDToHandlerAddress */\n      0x09\n        /* \"contracts/Bridge.sol\":7263:7302  _resourceIDToHandlerAddress[resourceID] */\n      0x00\n        /* \"contracts/Bridge.sol\":7291:7301  resourceID */\n      dup7\n        /* \"contracts/Bridge.sol\":7263:7302  _resourceIDToHandlerAddress[resourceID] */\n      dup2\n      mstore\n      0x20\n      add\n      swap1\n      dup2\n      mstore\n      0x20\n      add\n      0x00\n      keccak256\n      0x00\n        /* \"contracts/Bridge.sol\":7263:7319  _resourceIDToHandlerAddress[resourceID] = handlerAddress */\n      0x0100\n      exp\n      dup2\n      sload\n      dup2\n      0xffffffffffffffffffffffffffffffffffffffff\n      mul\n      not\n      and\n      swap1\n      dup4\n      0xffffffffffffffffffffffffffffffffffffffff\n      and\n      mul\n      or\n      swap1\n      sstore\n      pop\n        /* \"contracts/Bridge.sol\":7329:7352  IGenericHandler handler */\n      0x00\n        /* \"contracts/Bridge.sol\":7371:7385  handlerAddress */\n      dup6\n        /* \"contracts/Bridge.sol\":7329:7386  IGenericHandler handler = IGenericHandler(handlerAddress) */\n      swap1\n      pop\n        /* \"contracts/Bridge.sol\":7396:7403  handler */\n      dup1\n        /* \"contracts/Bridge.sol\":7396:7415  handler.setResource */\n      0xffffffffffffffffffffffffffffffffffffffff\n      and\n      0xbba8185a\n        /* \"contracts/Bridge.sol\":7416:7426  resourceID */\n      dup7\n        /* \"contracts/Bridge.sol\":7428:7443  contractAddress */\n      dup7\n        /* \"contracts/Bridge.sol\":7445:7463  depositFunctionSig */\n      dup7\n        /* \"contracts/Bridge.sol\":7465:7483  executeFunctionSig */\n      dup7\n        /* \"contracts/Bridge.sol\":7396:7484  handler.setResource(resourceID, contractAddress, depositFunctionSig, executeFunctionSig) */\n      mload(0x40)\n      dup6\n      0xffffffff\n      and\n      0xe0\n      shl\n      dup2\n      mstore\n      0x04\n      add\n      tag_481\n      swap5\n      swap4\n      swap3\n      swap2\n      swap1\n      jump(tag_482)\n    tag_481:\n      0x00\n      mload(0x40)\n      dup1\n      dup4\n      sub\n      dup2\n      0x00\n      dup8\n      dup1\n      extcodesize\n      iszero\n        /* \"--CODEGEN--\":5:14   */\n      dup1\n        /* \"--CODEGEN--\":2:4   */\n      iszero\n      tag_483\n      jumpi\n        /* \"--CODEGEN--\":27:28   */\n      0x00\n        /* \"--CODEGEN--\":24:25   */\n      dup1\n        /* \"--CODEGEN--\":17:29   */\n      revert\n        /* \"--CODEGEN--\":2:4   */\n    tag_483:\n        /* \"contracts/Bridge.sol\":7396:7484  handler.setResource(resourceID, contractAddress, depositFunctionSig, executeFunctionSig) */\n      pop\n      gas\n      call\n      iszero\n        /* \"--CODEGEN--\":8:17   */\n      dup1\n        /* \"--CODEGEN--\":5:7   */\n      iszero\n      tag_485\n      jumpi\n        /* \"--CODEGEN--\":45:61   */\n      returndatasize\n        /* \"--CODEGEN--\":42:43   */\n      0x00\n        /* \"--CODEGEN--\":39:40   */\n      dup1\n        /* \"--CODEGEN--\":24:62   */\n      returndatacopy\n        /* \"--CODEGEN--\":77:93   */\n      returndatasize\n        /* \"--CODEGEN--\":74:75   */\n      0x00\n        /* \"--CODEGEN--\":67:94   */\n      revert\n        /* \"--CODEGEN--\":5:7   */\n    tag_485:\n        /* \"contracts/Bridge.sol\":7396:7484  handler.setResource(resourceID, contractAddress, depositFunctionSig, executeFunctionSig) */\n      pop\n      pop\n      pop\n      pop\n        /* \"contracts/Bridge.sol\":2336:2337  _ */\n      pop\n        /* \"contracts/Bridge.sol\":7032:7491  function adminSetGenericResource(... */\n      pop\n      pop\n      pop\n      pop\n      pop\n      jump\t// out\n        /* \"contracts/Bridge.sol\":3885:3964  function adminUnpauseTransfers() external onlyAdmin {... */\n    tag_238:\n        /* \"contracts/Bridge.sol\":2314:2326  _onlyAdmin() */\n      tag_487\n        /* \"contracts/Bridge.sol\":2314:2324  _onlyAdmin */\n      tag_374\n        /* \"contracts/Bridge.sol\":2314:2326  _onlyAdmin() */\n      jump\t// in\n    tag_487:\n        /* \"contracts/Bridge.sol\":3947:3957  _unpause() */\n      tag_489\n        /* \"contracts/Bridge.sol\":3947:3955  _unpause */\n      tag_490\n        /* \"contracts/Bridge.sol\":3947:3957  _unpause() */\n      jump\t// in\n    tag_489:\n        /* \"contracts/Bridge.sol\":3885:3964  function adminUnpauseTransfers() external onlyAdmin {... */\n      jump\t// out\n        /* \"contracts/utils/Pausable.sol\":1226:1319  function _whenNotPaused() private view {... */\n    tag_241:\n        /* \"contracts/utils/Pausable.sol\":1284:1291  _paused */\n      0x00\n      dup1\n      swap1\n      sload\n      swap1\n      0x0100\n      exp\n      swap1\n      div\n      0xff\n      and\n        /* \"contracts/utils/Pausable.sol\":1283:1291  !_paused */\n      iszero\n        /* \"contracts/utils/Pausable.sol\":1275:1312  require(!_paused, \"Pausable: paused\") */\n      tag_492\n      jumpi\n      mload(0x40)\n      0x08c379a000000000000000000000000000000000000000000000000000000000\n      dup2\n      mstore\n      0x04\n      add\n      tag_493\n      swap1\n      jump(tag_494)\n    tag_493:\n      mload(0x40)\n      dup1\n      swap2\n      sub\n      swap1\n      revert\n    tag_492:\n        /* \"contracts/utils/Pausable.sol\":1226:1319  function _whenNotPaused() private view {... */\n      jump\t// out\n        /* \"contracts/Bridge.sol\":2508:2695  function _onlyAdminOrRelayer() private {... */\n    tag_258:\n        /* \"contracts/Bridge.sol\":2565:2604  hasRole(DEFAULT_ADMIN_ROLE, msg.sender) */\n      tag_496\n        /* \"contracts/access/AccessControl.sol\":1729:1733  0x00 */\n      0x00\n        /* \"contracts/Bridge.sol\":2573:2591  DEFAULT_ADMIN_ROLE */\n      dup1\n      shl\n        /* \"contracts/Bridge.sol\":2593:2603  msg.sender */\n      caller\n        /* \"contracts/Bridge.sol\":2565:2572  hasRole */\n      tag_172\n        /* \"contracts/Bridge.sol\":2565:2604  hasRole(DEFAULT_ADMIN_ROLE, msg.sender) */\n      jump\t// in\n    tag_496:\n        /* \"contracts/Bridge.sol\":2565:2641  hasRole(DEFAULT_ADMIN_ROLE, msg.sender) || hasRole(RELAYER_ROLE, msg.sender) */\n      dup1\n      tag_497\n      jumpi\n      pop\n        /* \"contracts/Bridge.sol\":2608:2641  hasRole(RELAYER_ROLE, msg.sender) */\n      tag_498\n        /* \"contracts/Bridge.sol\":2251:2276  keccak256(\"RELAYER_ROLE\") */\n      mload(0x40)\n      tag_499\n      swap1\n      jump(tag_391)\n    tag_499:\n      mload(0x40)\n      dup1\n      swap2\n      sub\n      swap1\n      keccak256\n        /* \"contracts/Bridge.sol\":2630:2640  msg.sender */\n      caller\n        /* \"contracts/Bridge.sol\":2608:2615  hasRole */\n      tag_172\n        /* \"contracts/Bridge.sol\":2608:2641  hasRole(RELAYER_ROLE, msg.sender) */\n      jump\t// in\n    tag_498:\n        /* \"contracts/Bridge.sol\":2565:2641  hasRole(DEFAULT_ADMIN_ROLE, msg.sender) || hasRole(RELAYER_ROLE, msg.sender) */\n    tag_497:\n        /* \"contracts/Bridge.sol\":2557:2688  require(hasRole(DEFAULT_ADMIN_ROLE, msg.sender) || hasRole(RELAYER_ROLE, msg.sender),... */\n      tag_500\n      jumpi\n      mload(0x40)\n      0x08c379a000000000000000000000000000000000000000000000000000000000\n      dup2\n      mstore\n      0x04\n      add\n      tag_501\n      swap1\n      jump(tag_502)\n    tag_501:\n      mload(0x40)\n      dup1\n      swap2\n      sub\n      swap1\n      revert\n    tag_500:\n        /* \"contracts/Bridge.sol\":2508:2695  function _onlyAdminOrRelayer() private {... */\n      jump\t// out\n        /* \"contracts/utils/SafeMath.sol\":610:745  function sub(uint256 a, uint256 b) internal pure returns (uint256) {... */\n    tag_266:\n        /* \"contracts/utils/SafeMath.sol\":668:675  uint256 */\n      0x00\n        /* \"contracts/utils/SafeMath.sol\":694:738  _sub(a, b, \"SafeMath: subtraction overflow\") */\n      tag_504\n        /* \"contracts/utils/SafeMath.sol\":699:700  a */\n      dup4\n        /* \"contracts/utils/SafeMath.sol\":702:703  b */\n      dup4\n        /* \"contracts/utils/SafeMath.sol\":694:738  _sub(a, b, \"SafeMath: subtraction overflow\") */\n      mload(0x40)\n      dup1\n      0x40\n      add\n      0x40\n      mstore\n      dup1\n      0x1e\n      dup2\n      mstore\n      0x20\n      add\n      0x536166654d6174683a207375627472616374696f6e206f766572666c6f770000\n      dup2\n      mstore\n      pop\n        /* \"contracts/utils/SafeMath.sol\":694:698  _sub */\n      tag_505\n        /* \"contracts/utils/SafeMath.sol\":694:738  _sub(a, b, \"SafeMath: subtraction overflow\") */\n      jump\t// in\n    tag_504:\n        /* \"contracts/utils/SafeMath.sol\":687:738  return _sub(a, b, \"SafeMath: subtraction overflow\") */\n      swap1\n      pop\n        /* \"contracts/utils/SafeMath.sol\":610:745  function sub(uint256 a, uint256 b) internal pure returns (uint256) {... */\n      swap3\n      swap2\n      pop\n      pop\n      jump\t// out\n        /* \"contracts/Bridge.sol\":2836:2964  function _onlyRelayers() private {... */\n    tag_276:\n        /* \"contracts/Bridge.sol\":2887:2920  hasRole(RELAYER_ROLE, msg.sender) */\n      tag_507\n        /* \"contracts/Bridge.sol\":2251:2276  keccak256(\"RELAYER_ROLE\") */\n      mload(0x40)\n      tag_508\n      swap1\n      jump(tag_391)\n    tag_508:\n      mload(0x40)\n      dup1\n      swap2\n      sub\n      swap1\n      keccak256\n        /* \"contracts/Bridge.sol\":2909:2919  msg.sender */\n      caller\n        /* \"contracts/Bridge.sol\":2887:2894  hasRole */\n      tag_172\n        /* \"contracts/Bridge.sol\":2887:2920  hasRole(RELAYER_ROLE, msg.sender) */\n      jump\t// in\n    tag_507:\n        /* \"contracts/Bridge.sol\":2879:2957  require(hasRole(RELAYER_ROLE, msg.sender), \"sender doesn't have relayer role\") */\n      tag_509\n      jumpi\n      mload(0x40)\n      0x08c379a000000000000000000000000000000000000000000000000000000000\n      dup2\n      mstore\n      0x04\n      add\n      tag_510\n      swap1\n      jump(tag_511)\n    tag_510:\n      mload(0x40)\n      dup1\n      swap2\n      sub\n      swap1\n      revert\n    tag_509:\n        /* \"contracts/Bridge.sol\":2836:2964  function _onlyRelayers() private {... */\n      jump\t// out\n        /* \"contracts/GSN/Context.sol\":735:839  function _msgSender() internal view virtual returns (address payable) {... */\n    tag_328:\n        /* \"contracts/GSN/Context.sol\":788:803  address payable */\n      0x00\n        /* \"contracts/GSN/Context.sol\":822:832  msg.sender */\n      caller\n        /* \"contracts/GSN/Context.sol\":815:832  return msg.sender */\n      swap1\n      pop\n        /* \"contracts/GSN/Context.sol\":735:839  function _msgSender() internal view virtual returns (address payable) {... */\n      swap1\n      jump\t// out\n        /* \"contracts/access/AccessControl.sol\":6449:6633  function _grantRole(bytes32 role, address account) private {... */\n    tag_333:\n        /* \"contracts/access/AccessControl.sol\":6522:6555  _roles[role].members.add(account) */\n      tag_514\n        /* \"contracts/access/AccessControl.sol\":6547:6554  account */\n      dup2\n        /* \"contracts/access/AccessControl.sol\":6522:6528  _roles */\n      0x01\n        /* \"contracts/access/AccessControl.sol\":6522:6534  _roles[role] */\n      0x00\n        /* \"contracts/access/AccessControl.sol\":6529:6533  role */\n      dup6\n        /* \"contracts/access/AccessControl.sol\":6522:6534  _roles[role] */\n      dup2\n      mstore\n      0x20\n      add\n      swap1\n      dup2\n      mstore\n      0x20\n      add\n      0x00\n      keccak256\n        /* \"contracts/access/AccessControl.sol\":6522:6542  _roles[role].members */\n      0x00\n      add\n        /* \"contracts/access/AccessControl.sol\":6522:6546  _roles[role].members.add */\n      tag_515\n      swap1\n        /* \"contracts/access/AccessControl.sol\":6522:6555  _roles[role].members.add(account) */\n      swap2\n      swap1\n      0xffffffff\n      and\n      jump\t// in\n    tag_514:\n        /* \"contracts/access/AccessControl.sol\":6518:6627  if (_roles[role].members.add(account)) {... */\n      iszero\n      tag_516\n      jumpi\n        /* \"contracts/access/AccessControl.sol\":6603:6615  _msgSender() */\n      tag_517\n        /* \"contracts/access/AccessControl.sol\":6603:6613  _msgSender */\n      tag_328\n        /* \"contracts/access/AccessControl.sol\":6603:6615  _msgSender() */\n      jump\t// in\n    tag_517:\n        /* \"contracts/access/AccessControl.sol\":6576:6616  RoleGranted(role, account, _msgSender()) */\n      0xffffffffffffffffffffffffffffffffffffffff\n      and\n        /* \"contracts/access/AccessControl.sol\":6594:6601  account */\n      dup2\n        /* \"contracts/access/AccessControl.sol\":6576:6616  RoleGranted(role, account, _msgSender()) */\n      0xffffffffffffffffffffffffffffffffffffffff\n      and\n        /* \"contracts/access/AccessControl.sol\":6588:6592  role */\n      dup4\n        /* \"contracts/access/AccessControl.sol\":6576:6616  RoleGranted(role, account, _msgSender()) */\n      0x2f8788117e7eff1d82e926ec794901d17c78024a50270940304540a733656f0d\n      mload(0x40)\n      mload(0x40)\n      dup1\n      swap2\n      sub\n      swap1\n      log4\n        /* \"contracts/access/AccessControl.sol\":6518:6627  if (_roles[role].members.add(account)) {... */\n    tag_516:\n        /* \"contracts/access/AccessControl.sol\":6449:6633  function _grantRole(bytes32 role, address account) private {... */\n      pop\n      pop\n      jump\t// out\n        /* \"contracts/access/AccessControl.sol\":6639:6827  function _revokeRole(bytes32 role, address account) private {... */\n    tag_340:\n        /* \"contracts/access/AccessControl.sol\":6713:6749  _roles[role].members.remove(account) */\n      tag_519\n        /* \"contracts/access/AccessControl.sol\":6741:6748  account */\n      dup2\n        /* \"contracts/access/AccessControl.sol\":6713:6719  _roles */\n      0x01\n        /* \"contracts/access/AccessControl.sol\":6713:6725  _roles[role] */\n      0x00\n        /* \"contracts/access/AccessControl.sol\":6720:6724  role */\n      dup6\n        /* \"contracts/access/AccessControl.sol\":6713:6725  _roles[role] */\n      dup2\n      mstore\n      0x20\n      add\n      swap1\n      dup2\n      mstore\n      0x20\n      add\n      0x00\n      keccak256\n        /* \"contracts/access/AccessControl.sol\":6713:6733  _roles[role].members */\n      0x00\n      add\n        /* \"contracts/access/AccessControl.sol\":6713:6740  _roles[role].members.remove */\n      tag_520\n      swap1\n        /* \"contracts/access/AccessControl.sol\":6713:6749  _roles[role].members.remove(account) */\n      swap2\n      swap1\n      0xffffffff\n      and\n      jump\t// in\n    tag_519:\n        /* \"contracts/access/AccessControl.sol\":6709:6821  if (_roles[role].members.remove(account)) {... */\n      iszero\n      tag_521\n      jumpi\n        /* \"contracts/access/AccessControl.sol\":6797:6809  _msgSender() */\n      tag_522\n        /* \"contracts/access/AccessControl.sol\":6797:6807  _msgSender */\n      tag_328\n        /* \"contracts/access/AccessControl.sol\":6797:6809  _msgSender() */\n      jump\t// in\n    tag_522:\n        /* \"contracts/access/AccessControl.sol\":6770:6810  RoleRevoked(role, account, _msgSender()) */\n      0xffffffffffffffffffffffffffffffffffffffff\n      and\n        /* \"contracts/access/AccessControl.sol\":6788:6795  account */\n      dup2\n        /* \"contracts/access/AccessControl.sol\":6770:6810  RoleRevoked(role, account, _msgSender()) */\n      0xffffffffffffffffffffffffffffffffffffffff\n      and\n        /* \"contracts/access/AccessControl.sol\":6782:6786  role */\n      dup4\n        /* \"contracts/access/AccessControl.sol\":6770:6810  RoleRevoked(role, account, _msgSender()) */\n      0xf6391f5c32d9c69d2a47ea670b442974b53935d1edc7fd64eb21e047a839171b\n      mload(0x40)\n      mload(0x40)\n      dup1\n      swap2\n      sub\n      swap1\n      log4\n        /* \"contracts/access/AccessControl.sol\":6709:6821  if (_roles[role].members.remove(account)) {... */\n    tag_521:\n        /* \"contracts/access/AccessControl.sol\":6639:6827  function _revokeRole(bytes32 role, address account) private {... */\n      pop\n      pop\n      jump\t// out\n        /* \"contracts/Bridge.sol\":2701:2830  function _onlyAdmin() private {... */\n    tag_374:\n        /* \"contracts/Bridge.sol\":2749:2788  hasRole(DEFAULT_ADMIN_ROLE, msg.sender) */\n      tag_524\n        /* \"contracts/access/AccessControl.sol\":1729:1733  0x00 */\n      0x00\n        /* \"contracts/Bridge.sol\":2757:2775  DEFAULT_ADMIN_ROLE */\n      dup1\n      shl\n        /* \"contracts/Bridge.sol\":2777:2787  msg.sender */\n      caller\n        /* \"contracts/Bridge.sol\":2749:2756  hasRole */\n      tag_172\n        /* \"contracts/Bridge.sol\":2749:2788  hasRole(DEFAULT_ADMIN_ROLE, msg.sender) */\n      jump\t// in\n    tag_524:\n        /* \"contracts/Bridge.sol\":2741:2823  require(hasRole(DEFAULT_ADMIN_ROLE, msg.sender), \"sender doesn't have admin role\") */\n      tag_525\n      jumpi\n      mload(0x40)\n      0x08c379a000000000000000000000000000000000000000000000000000000000\n      dup2\n      mstore\n      0x04\n      add\n      tag_526\n      swap1\n      jump(tag_527)\n    tag_526:\n      mload(0x40)\n      dup1\n      swap2\n      sub\n      swap1\n      revert\n    tag_525:\n        /* \"contracts/Bridge.sol\":2701:2830  function _onlyAdmin() private {... */\n      jump\t// out\n        /* \"contracts/utils/Pausable.sol\":1802:1915  function _pause() internal virtual whenNotPaused {... */\n    tag_410:\n        /* \"contracts/utils/Pausable.sol\":1186:1202  _whenNotPaused() */\n      tag_529\n        /* \"contracts/utils/Pausable.sol\":1186:1200  _whenNotPaused */\n      tag_241\n        /* \"contracts/utils/Pausable.sol\":1186:1202  _whenNotPaused() */\n      jump\t// in\n    tag_529:\n        /* \"contracts/utils/Pausable.sol\":1871:1875  true */\n      0x01\n        /* \"contracts/utils/Pausable.sol\":1861:1868  _paused */\n      0x00\n      dup1\n        /* \"contracts/utils/Pausable.sol\":1861:1875  _paused = true */\n      0x0100\n      exp\n      dup2\n      sload\n      dup2\n      0xff\n      mul\n      not\n      and\n      swap1\n      dup4\n      iszero\n      iszero\n      mul\n      or\n      swap1\n      sstore\n      pop\n        /* \"contracts/utils/Pausable.sol\":1890:1908  Paused(msg.sender) */\n      0x62e78cea01bee320cd4e420270b5ea74000d11b0c9f74754ebdbfc544b05a258\n        /* \"contracts/utils/Pausable.sol\":1897:1907  msg.sender */\n      caller\n        /* \"contracts/utils/Pausable.sol\":1890:1908  Paused(msg.sender) */\n      mload(0x40)\n      tag_531\n      swap2\n      swap1\n      jump(tag_532)\n    tag_531:\n      mload(0x40)\n      dup1\n      swap2\n      sub\n      swap1\n      log1\n        /* \"contracts/utils/Pausable.sol\":1802:1915  function _pause() internal virtual whenNotPaused {... */\n      jump\t// out\n        /* \"contracts/utils/EnumerableSet.sol\":6052:6199  function at(AddressSet storage set, uint256 index) internal view returns (address) {... */\n    tag_420:\n        /* \"contracts/utils/EnumerableSet.sol\":6126:6133  address */\n      0x00\n        /* \"contracts/utils/EnumerableSet.sol\":6168:6190  _at(set._inner, index) */\n      tag_534\n        /* \"contracts/utils/EnumerableSet.sol\":6172:6175  set */\n      dup4\n        /* \"contracts/utils/EnumerableSet.sol\":6172:6182  set._inner */\n      0x00\n      add\n        /* \"contracts/utils/EnumerableSet.sol\":6184:6189  index */\n      dup4\n        /* \"contracts/utils/EnumerableSet.sol\":6168:6171  _at */\n      tag_535\n        /* \"contracts/utils/EnumerableSet.sol\":6168:6190  _at(set._inner, index) */\n      jump\t// in\n    tag_534:\n        /* \"contracts/utils/EnumerableSet.sol\":6160:6191  uint256(_at(set._inner, index)) */\n      0x00\n      shr\n        /* \"contracts/utils/EnumerableSet.sol\":6145:6192  return address(uint256(_at(set._inner, index))) */\n      swap1\n      pop\n        /* \"contracts/utils/EnumerableSet.sol\":6052:6199  function at(AddressSet storage set, uint256 index) internal view returns (address) {... */\n      swap3\n      swap2\n      pop\n      pop\n      jump\t// out\n        /* \"contracts/utils/EnumerableSet.sol\":5368:5524  function contains(AddressSet storage set, address value) internal view returns (bool) {... */\n    tag_429:\n        /* \"contracts/utils/EnumerableSet.sol\":5448:5452  bool */\n      0x00\n        /* \"contracts/utils/EnumerableSet.sol\":5471:5517  _contains(set._inner, bytes32(uint256(value))) */\n      tag_537\n        /* \"contracts/utils/EnumerableSet.sol\":5481:5484  set */\n      dup4\n        /* \"contracts/utils/EnumerableSet.sol\":5481:5491  set._inner */\n      0x00\n      add\n        /* \"contracts/utils/EnumerableSet.sol\":5509:5514  value */\n      dup4\n        /* \"contracts/utils/EnumerableSet.sol\":5501:5515  uint256(value) */\n      0xffffffffffffffffffffffffffffffffffffffff\n      and\n        /* \"contracts/utils/EnumerableSet.sol\":5493:5516  bytes32(uint256(value)) */\n      0x00\n      shl\n        /* \"contracts/utils/EnumerableSet.sol\":5471:5480  _contains */\n      tag_538\n        /* \"contracts/utils/EnumerableSet.sol\":5471:5517  _contains(set._inner, bytes32(uint256(value))) */\n      jump\t// in\n    tag_537:\n        /* \"contracts/utils/EnumerableSet.sol\":5464:5517  return _contains(set._inner, bytes32(uint256(value))) */\n      swap1\n      pop\n        /* \"contracts/utils/EnumerableSet.sol\":5368:5524  function contains(AddressSet storage set, address value) internal view returns (bool) {... */\n      swap3\n      swap2\n      pop\n      pop\n      jump\t// out\n        /* \"contracts/utils/EnumerableSet.sol\":5605:5720  function length(AddressSet storage set) internal view returns (uint256) {... */\n    tag_452:\n        /* \"contracts/utils/EnumerableSet.sol\":5668:5675  uint256 */\n      0x00\n        /* \"contracts/utils/EnumerableSet.sol\":5694:5713  _length(set._inner) */\n      tag_540\n        /* \"contracts/utils/EnumerableSet.sol\":5702:5705  set */\n      dup3\n        /* \"contracts/utils/EnumerableSet.sol\":5702:5712  set._inner */\n      0x00\n      add\n        /* \"contracts/utils/EnumerableSet.sol\":5694:5701  _length */\n      tag_541\n        /* \"contracts/utils/EnumerableSet.sol\":5694:5713  _length(set._inner) */\n      jump\t// in\n    tag_540:\n        /* \"contracts/utils/EnumerableSet.sol\":5687:5713  return _length(set._inner) */\n      swap1\n      pop\n        /* \"contracts/utils/EnumerableSet.sol\":5605:5720  function length(AddressSet storage set) internal view returns (uint256) {... */\n      swap2\n      swap1\n      pop\n      jump\t// out\n        /* \"contracts/utils/Pausable.sol\":2047:2162  function _unpause() internal virtual whenPaused {... */\n    tag_490:\n        /* \"contracts/utils/Pausable.sol\":1537:1550  _whenPaused() */\n      tag_543\n        /* \"contracts/utils/Pausable.sol\":1537:1548  _whenPaused */\n      tag_544\n        /* \"contracts/utils/Pausable.sol\":1537:1550  _whenPaused() */\n      jump\t// in\n    tag_543:\n        /* \"contracts/utils/Pausable.sol\":2115:2120  false */\n      0x00\n        /* \"contracts/utils/Pausable.sol\":2105:2112  _paused */\n      dup1\n      0x00\n        /* \"contracts/utils/Pausable.sol\":2105:2120  _paused = false */\n      0x0100\n      exp\n      dup2\n      sload\n      dup2\n      0xff\n      mul\n      not\n      and\n      swap1\n      dup4\n      iszero\n      iszero\n      mul\n      or\n      swap1\n      sstore\n      pop\n        /* \"contracts/utils/Pausable.sol\":2135:2155  Unpaused(msg.sender) */\n      0x5db9ee0a495bf2e6ff9c91a7834c1ba4fdd244a5e8aa4e537bd38aeae4b073aa\n        /* \"contracts/utils/Pausable.sol\":2144:2154  msg.sender */\n      caller\n        /* \"contracts/utils/Pausable.sol\":2135:2155  Unpaused(msg.sender) */\n      mload(0x40)\n      tag_546\n      swap2\n      swap1\n      jump(tag_532)\n    tag_546:\n      mload(0x40)\n      dup1\n      swap2\n      sub\n      swap1\n      log1\n        /* \"contracts/utils/Pausable.sol\":2047:2162  function _unpause() internal virtual whenPaused {... */\n      jump\t// out\n        /* \"contracts/utils/SafeMath.sol\":1029:1217  function _sub(uint256 a, uint256 b, string memory errorMessage) internal pure returns (uint256) {... */\n    tag_505:\n        /* \"contracts/utils/SafeMath.sol\":1116:1123  uint256 */\n      0x00\n        /* \"contracts/utils/SafeMath.sol\":1148:1149  a */\n      dup4\n        /* \"contracts/utils/SafeMath.sol\":1143:1144  b */\n      dup4\n        /* \"contracts/utils/SafeMath.sol\":1143:1149  b <= a */\n      gt\n      iszero\n        /* \"contracts/utils/SafeMath.sol\":1151:1163  errorMessage */\n      dup3\n        /* \"contracts/utils/SafeMath.sol\":1135:1164  require(b <= a, errorMessage) */\n      swap1\n      tag_548\n      jumpi\n      mload(0x40)\n      0x08c379a000000000000000000000000000000000000000000000000000000000\n      dup2\n      mstore\n      0x04\n      add\n      tag_549\n      swap2\n      swap1\n      jump(tag_550)\n    tag_549:\n      mload(0x40)\n      dup1\n      swap2\n      sub\n      swap1\n      revert\n    tag_548:\n      pop\n        /* \"contracts/utils/SafeMath.sol\":1174:1183  uint256 c */\n      0x00\n        /* \"contracts/utils/SafeMath.sol\":1190:1191  b */\n      dup4\n        /* \"contracts/utils/SafeMath.sol\":1186:1187  a */\n      dup6\n        /* \"contracts/utils/SafeMath.sol\":1186:1191  a - b */\n      sub\n        /* \"contracts/utils/SafeMath.sol\":1174:1191  uint256 c = a - b */\n      swap1\n      pop\n        /* \"contracts/utils/SafeMath.sol\":1209:1210  c */\n      dup1\n        /* \"contracts/utils/SafeMath.sol\":1202:1210  return c */\n      swap2\n      pop\n      pop\n        /* \"contracts/utils/SafeMath.sol\":1029:1217  function _sub(uint256 a, uint256 b, string memory errorMessage) internal pure returns (uint256) {... */\n      swap4\n      swap3\n      pop\n      pop\n      pop\n      jump\t// out\n        /* \"contracts/utils/EnumerableSet.sol\":4831:4972  function add(AddressSet storage set, address value) internal returns (bool) {... */\n    tag_515:\n        /* \"contracts/utils/EnumerableSet.sol\":4901:4905  bool */\n      0x00\n        /* \"contracts/utils/EnumerableSet.sol\":4924:4965  _add(set._inner, bytes32(uint256(value))) */\n      tag_552\n        /* \"contracts/utils/EnumerableSet.sol\":4929:4932  set */\n      dup4\n        /* \"contracts/utils/EnumerableSet.sol\":4929:4939  set._inner */\n      0x00\n      add\n        /* \"contracts/utils/EnumerableSet.sol\":4957:4962  value */\n      dup4\n        /* \"contracts/utils/EnumerableSet.sol\":4949:4963  uint256(value) */\n      0xffffffffffffffffffffffffffffffffffffffff\n      and\n        /* \"contracts/utils/EnumerableSet.sol\":4941:4964  bytes32(uint256(value)) */\n      0x00\n      shl\n        /* \"contracts/utils/EnumerableSet.sol\":4924:4928  _add */\n      tag_553\n        /* \"contracts/utils/EnumerableSet.sol\":4924:4965  _add(set._inner, bytes32(uint256(value))) */\n      jump\t// in\n    tag_552:\n        /* \"contracts/utils/EnumerableSet.sol\":4917:4965  return _add(set._inner, bytes32(uint256(value))) */\n      swap1\n      pop\n        /* \"contracts/utils/EnumerableSet.sol\":4831:4972  function add(AddressSet storage set, address value) internal returns (bool) {... */\n      swap3\n      swap2\n      pop\n      pop\n      jump\t// out\n        /* \"contracts/utils/EnumerableSet.sol\":5140:5287  function remove(AddressSet storage set, address value) internal returns (bool) {... */\n    tag_520:\n        /* \"contracts/utils/EnumerableSet.sol\":5213:5217  bool */\n      0x00\n        /* \"contracts/utils/EnumerableSet.sol\":5236:5280  _remove(set._inner, bytes32(uint256(value))) */\n      tag_555\n        /* \"contracts/utils/EnumerableSet.sol\":5244:5247  set */\n      dup4\n        /* \"contracts/utils/EnumerableSet.sol\":5244:5254  set._inner */\n      0x00\n      add\n        /* \"contracts/utils/EnumerableSet.sol\":5272:5277  value */\n      dup4\n        /* \"contracts/utils/EnumerableSet.sol\":5264:5278  uint256(value) */\n      0xffffffffffffffffffffffffffffffffffffffff\n      and\n        /* \"contracts/utils/EnumerableSet.sol\":5256:5279  bytes32(uint256(value)) */\n      0x00\n      shl\n        /* \"contracts/utils/EnumerableSet.sol\":5236:5243  _remove */\n      tag_556\n        /* \"contracts/utils/EnumerableSet.sol\":5236:5280  _remove(set._inner, bytes32(uint256(value))) */\n      jump\t// in\n    tag_555:\n        /* \"contracts/utils/EnumerableSet.sol\":5229:5280  return _remove(set._inner, bytes32(uint256(value))) */\n      swap1\n      pop\n        /* \"contracts/utils/EnumerableSet.sol\":5140:5287  function remove(AddressSet storage set, address value) internal returns (bool) {... */\n      swap3\n      swap2\n      pop\n      pop\n      jump\t// out\n        /* \"contracts/utils/EnumerableSet.sol\":4390:4591  function _at(Set storage set, uint256 index) private view returns (bytes32) {... */\n    tag_535:\n        /* \"contracts/utils/EnumerableSet.sol\":4457:4464  bytes32 */\n      0x00\n        /* \"contracts/utils/EnumerableSet.sol\":4505:4510  index */\n      dup2\n        /* \"contracts/utils/EnumerableSet.sol\":4484:4487  set */\n      dup4\n        /* \"contracts/utils/EnumerableSet.sol\":4484:4495  set._values */\n      0x00\n      add\n        /* \"contracts/utils/EnumerableSet.sol\":4484:4502  set._values.length */\n      dup1\n      sload\n      swap1\n      pop\n        /* \"contracts/utils/EnumerableSet.sol\":4484:4510  set._values.length > index */\n      gt\n        /* \"contracts/utils/EnumerableSet.sol\":4476:4549  require(set._values.length > index, \"EnumerableSet: index out of bounds\") */\n      tag_558\n      jumpi\n      mload(0x40)\n      0x08c379a000000000000000000000000000000000000000000000000000000000\n      dup2\n      mstore\n      0x04\n      add\n      tag_559\n      swap1\n      jump(tag_560)\n    tag_559:\n      mload(0x40)\n      dup1\n      swap2\n      sub\n      swap1\n      revert\n    tag_558:\n        /* \"contracts/utils/EnumerableSet.sol\":4566:4569  set */\n      dup3\n        /* \"contracts/utils/EnumerableSet.sol\":4566:4577  set._values */\n      0x00\n      add\n        /* \"contracts/utils/EnumerableSet.sol\":4578:4583  index */\n      dup3\n        /* \"contracts/utils/EnumerableSet.sol\":4566:4584  set._values[index] */\n      dup2\n      sload\n      dup2\n      lt\n      tag_561\n      jumpi\n      invalid\n    tag_561:\n      swap1\n      0x00\n      mstore\n      keccak256(0x00, 0x20)\n      add\n      sload\n        /* \"contracts/utils/EnumerableSet.sol\":4559:4584  return set._values[index] */\n      swap1\n      pop\n        /* \"contracts/utils/EnumerableSet.sol\":4390:4591  function _at(Set storage set, uint256 index) private view returns (bytes32) {... */\n      swap3\n      swap2\n      pop\n      pop\n      jump\t// out\n        /* \"contracts/utils/EnumerableSet.sol\":3743:3870  function _contains(Set storage set, bytes32 value) private view returns (bool) {... */\n    tag_538:\n        /* \"contracts/utils/EnumerableSet.sol\":3816:3820  bool */\n      0x00\n        /* \"contracts/utils/EnumerableSet.sol\":3862:3863  0 */\n      dup1\n        /* \"contracts/utils/EnumerableSet.sol\":3839:3842  set */\n      dup4\n        /* \"contracts/utils/EnumerableSet.sol\":3839:3851  set._indexes */\n      0x01\n      add\n        /* \"contracts/utils/EnumerableSet.sol\":3839:3858  set._indexes[value] */\n      0x00\n        /* \"contracts/utils/EnumerableSet.sol\":3852:3857  value */\n      dup5\n        /* \"contracts/utils/EnumerableSet.sol\":3839:3858  set._indexes[value] */\n      dup2\n      mstore\n      0x20\n      add\n      swap1\n      dup2\n      mstore\n      0x20\n      add\n      0x00\n      keccak256\n      sload\n        /* \"contracts/utils/EnumerableSet.sol\":3839:3863  set._indexes[value] != 0 */\n      eq\n      iszero\n        /* \"contracts/utils/EnumerableSet.sol\":3832:3863  return set._indexes[value] != 0 */\n      swap1\n      pop\n        /* \"contracts/utils/EnumerableSet.sol\":3743:3870  function _contains(Set storage set, bytes32 value) private view returns (bool) {... */\n      swap3\n      swap2\n      pop\n      pop\n      jump\t// out\n        /* \"contracts/utils/EnumerableSet.sol\":3951:4058  function _length(Set storage set) private view returns (uint256) {... */\n    tag_541:\n        /* \"contracts/utils/EnumerableSet.sol\":4007:4014  uint256 */\n      0x00\n        /* \"contracts/utils/EnumerableSet.sol\":4033:4036  set */\n      dup2\n        /* \"contracts/utils/EnumerableSet.sol\":4033:4044  set._values */\n      0x00\n      add\n        /* \"contracts/utils/EnumerableSet.sol\":4033:4051  set._values.length */\n      dup1\n      sload\n      swap1\n      pop\n        /* \"contracts/utils/EnumerableSet.sol\":4026:4051  return set._values.length */\n      swap1\n      pop\n        /* \"contracts/utils/EnumerableSet.sol\":3951:4058  function _length(Set storage set) private view returns (uint256) {... */\n      swap2\n      swap1\n      pop\n      jump\t// out\n        /* \"contracts/utils/Pausable.sol\":1574:1667  function _whenPaused() private view {... */\n    tag_544:\n        /* \"contracts/utils/Pausable.sol\":1628:1635  _paused */\n      0x00\n      dup1\n      swap1\n      sload\n      swap1\n      0x0100\n      exp\n      swap1\n      div\n      0xff\n      and\n        /* \"contracts/utils/Pausable.sol\":1620:1660  require(_paused, \"Pausable: not paused\") */\n      tag_566\n      jumpi\n      mload(0x40)\n      0x08c379a000000000000000000000000000000000000000000000000000000000\n      dup2\n      mstore\n      0x04\n      add\n      tag_567\n      swap1\n      jump(tag_568)\n    tag_567:\n      mload(0x40)\n      dup1\n      swap2\n      sub\n      swap1\n      revert\n    tag_566:\n        /* \"contracts/utils/Pausable.sol\":1574:1667  function _whenPaused() private view {... */\n      jump\t// out\n        /* \"contracts/utils/EnumerableSet.sol\":1578:1982  function _add(Set storage set, bytes32 value) private returns (bool) {... */\n    tag_553:\n        /* \"contracts/utils/EnumerableSet.sol\":1641:1645  bool */\n      0x00\n        /* \"contracts/utils/EnumerableSet.sol\":1662:1683  _contains(set, value) */\n      tag_570\n        /* \"contracts/utils/EnumerableSet.sol\":1672:1675  set */\n      dup4\n        /* \"contracts/utils/EnumerableSet.sol\":1677:1682  value */\n      dup4\n        /* \"contracts/utils/EnumerableSet.sol\":1662:1671  _contains */\n      tag_538\n        /* \"contracts/utils/EnumerableSet.sol\":1662:1683  _contains(set, value) */\n      jump\t// in\n    tag_570:\n        /* \"contracts/utils/EnumerableSet.sol\":1657:1976  if (!_contains(set, value)) {... */\n      tag_571\n      jumpi\n        /* \"contracts/utils/EnumerableSet.sol\":1699:1702  set */\n      dup3\n        /* \"contracts/utils/EnumerableSet.sol\":1699:1710  set._values */\n      0x00\n      add\n        /* \"contracts/utils/EnumerableSet.sol\":1716:1721  value */\n      dup3\n        /* \"contracts/utils/EnumerableSet.sol\":1699:1722  set._values.push(value) */\n      swap1\n      dup1\n        /* \"--CODEGEN--\":39:40   */\n      0x01\n        /* \"--CODEGEN--\":33:36   */\n      dup2\n        /* \"--CODEGEN--\":27:37   */\n      sload\n        /* \"--CODEGEN--\":23:41   */\n      add\n        /* \"--CODEGEN--\":57:67   */\n      dup1\n        /* \"--CODEGEN--\":52:55   */\n      dup3\n        /* \"--CODEGEN--\":45:68   */\n      sstore\n        /* \"--CODEGEN--\":79:89   */\n      dup1\n        /* \"--CODEGEN--\":72:89   */\n      swap2\n      pop\n        /* \"--CODEGEN--\":0:93   */\n      pop\n        /* \"contracts/utils/EnumerableSet.sol\":1699:1722  set._values.push(value) */\n      0x01\n      swap1\n      sub\n      swap1\n      0x00\n      mstore\n      keccak256(0x00, 0x20)\n      add\n      0x00\n      swap1\n      swap2\n      swap1\n      swap2\n      swap1\n      swap2\n      pop\n      sstore\n        /* \"contracts/utils/EnumerableSet.sol\":1879:1882  set */\n      dup3\n        /* \"contracts/utils/EnumerableSet.sol\":1879:1890  set._values */\n      0x00\n      add\n        /* \"contracts/utils/EnumerableSet.sol\":1879:1897  set._values.length */\n      dup1\n      sload\n      swap1\n      pop\n        /* \"contracts/utils/EnumerableSet.sol\":1857:1860  set */\n      dup4\n        /* \"contracts/utils/EnumerableSet.sol\":1857:1869  set._indexes */\n      0x01\n      add\n        /* \"contracts/utils/EnumerableSet.sol\":1857:1876  set._indexes[value] */\n      0x00\n        /* \"contracts/utils/EnumerableSet.sol\":1870:1875  value */\n      dup5\n        /* \"contracts/utils/EnumerableSet.sol\":1857:1876  set._indexes[value] */\n      dup2\n      mstore\n      0x20\n      add\n      swap1\n      dup2\n      mstore\n      0x20\n      add\n      0x00\n      keccak256\n        /* \"contracts/utils/EnumerableSet.sol\":1857:1897  set._indexes[value] = set._values.length */\n      dup2\n      swap1\n      sstore\n      pop\n        /* \"contracts/utils/EnumerableSet.sol\":1918:1922  true */\n      0x01\n        /* \"contracts/utils/EnumerableSet.sol\":1911:1922  return true */\n      swap1\n      pop\n      jump(tag_569)\n        /* \"contracts/utils/EnumerableSet.sol\":1657:1976  if (!_contains(set, value)) {... */\n    tag_571:\n        /* \"contracts/utils/EnumerableSet.sol\":1960:1965  false */\n      0x00\n        /* \"contracts/utils/EnumerableSet.sol\":1953:1965  return false */\n      swap1\n      pop\n        /* \"contracts/utils/EnumerableSet.sol\":1578:1982  function _add(Set storage set, bytes32 value) private returns (bool) {... */\n    tag_569:\n      swap3\n      swap2\n      pop\n      pop\n      jump\t// out\n        /* \"contracts/utils/EnumerableSet.sol\":2150:3662  function _remove(Set storage set, bytes32 value) private returns (bool) {... */\n    tag_556:\n        /* \"contracts/utils/EnumerableSet.sol\":2216:2220  bool */\n      0x00\n        /* \"contracts/utils/EnumerableSet.sol\":2332:2350  uint256 valueIndex */\n      dup1\n        /* \"contracts/utils/EnumerableSet.sol\":2353:2356  set */\n      dup4\n        /* \"contracts/utils/EnumerableSet.sol\":2353:2365  set._indexes */\n      0x01\n      add\n        /* \"contracts/utils/EnumerableSet.sol\":2353:2372  set._indexes[value] */\n      0x00\n        /* \"contracts/utils/EnumerableSet.sol\":2366:2371  value */\n      dup5\n        /* \"contracts/utils/EnumerableSet.sol\":2353:2372  set._indexes[value] */\n      dup2\n      mstore\n      0x20\n      add\n      swap1\n      dup2\n      mstore\n      0x20\n      add\n      0x00\n      keccak256\n      sload\n        /* \"contracts/utils/EnumerableSet.sol\":2332:2372  uint256 valueIndex = set._indexes[value] */\n      swap1\n      pop\n        /* \"contracts/utils/EnumerableSet.sol\":2401:2402  0 */\n      0x00\n        /* \"contracts/utils/EnumerableSet.sol\":2387:2397  valueIndex */\n      dup2\n        /* \"contracts/utils/EnumerableSet.sol\":2387:2402  valueIndex != 0 */\n      eq\n        /* \"contracts/utils/EnumerableSet.sol\":2383:3656  if (valueIndex != 0) { // Equivalent to contains(set, value)... */\n      tag_575\n      jumpi\n        /* \"contracts/utils/EnumerableSet.sol\":2744:2765  uint256 toDeleteIndex */\n      0x00\n        /* \"contracts/utils/EnumerableSet.sol\":2781:2782  1 */\n      0x01\n        /* \"contracts/utils/EnumerableSet.sol\":2768:2778  valueIndex */\n      dup3\n        /* \"contracts/utils/EnumerableSet.sol\":2768:2782  valueIndex - 1 */\n      sub\n        /* \"contracts/utils/EnumerableSet.sol\":2744:2782  uint256 toDeleteIndex = valueIndex - 1 */\n      swap1\n      pop\n        /* \"contracts/utils/EnumerableSet.sol\":2796:2813  uint256 lastIndex */\n      0x00\n        /* \"contracts/utils/EnumerableSet.sol\":2837:2838  1 */\n      0x01\n        /* \"contracts/utils/EnumerableSet.sol\":2816:2819  set */\n      dup7\n        /* \"contracts/utils/EnumerableSet.sol\":2816:2827  set._values */\n      0x00\n      add\n        /* \"contracts/utils/EnumerableSet.sol\":2816:2834  set._values.length */\n      dup1\n      sload\n      swap1\n      pop\n        /* \"contracts/utils/EnumerableSet.sol\":2816:2838  set._values.length - 1 */\n      sub\n        /* \"contracts/utils/EnumerableSet.sol\":2796:2838  uint256 lastIndex = set._values.length - 1 */\n      swap1\n      pop\n        /* \"contracts/utils/EnumerableSet.sol\":3078:3095  bytes32 lastvalue */\n      0x00\n        /* \"contracts/utils/EnumerableSet.sol\":3098:3101  set */\n      dup7\n        /* \"contracts/utils/EnumerableSet.sol\":3098:3109  set._values */\n      0x00\n      add\n        /* \"contracts/utils/EnumerableSet.sol\":3110:3119  lastIndex */\n      dup3\n        /* \"contracts/utils/EnumerableSet.sol\":3098:3120  set._values[lastIndex] */\n      dup2\n      sload\n      dup2\n      lt\n      tag_576\n      jumpi\n      invalid\n    tag_576:\n      swap1\n      0x00\n      mstore\n      keccak256(0x00, 0x20)\n      add\n      sload\n        /* \"contracts/utils/EnumerableSet.sol\":3078:3120  bytes32 lastvalue = set._values[lastIndex] */\n      swap1\n      pop\n        /* \"contracts/utils/EnumerableSet.sol\":3241:3250  lastvalue */\n      dup1\n        /* \"contracts/utils/EnumerableSet.sol\":3212:3215  set */\n      dup8\n        /* \"contracts/utils/EnumerableSet.sol\":3212:3223  set._values */\n      0x00\n      add\n        /* \"contracts/utils/EnumerableSet.sol\":3224:3237  toDeleteIndex */\n      dup5\n        /* \"contracts/utils/EnumerableSet.sol\":3212:3238  set._values[toDeleteIndex] */\n      dup2\n      sload\n      dup2\n      lt\n      tag_578\n      jumpi\n      invalid\n    tag_578:\n      swap1\n      0x00\n      mstore\n      keccak256(0x00, 0x20)\n      add\n        /* \"contracts/utils/EnumerableSet.sol\":3212:3250  set._values[toDeleteIndex] = lastvalue */\n      dup2\n      swap1\n      sstore\n      pop\n        /* \"contracts/utils/EnumerableSet.sol\":3358:3359  1 */\n      0x01\n        /* \"contracts/utils/EnumerableSet.sol\":3342:3355  toDeleteIndex */\n      dup4\n        /* \"contracts/utils/EnumerableSet.sol\":3342:3359  toDeleteIndex + 1 */\n      add\n        /* \"contracts/utils/EnumerableSet.sol\":3316:3319  set */\n      dup8\n        /* \"contracts/utils/EnumerableSet.sol\":3316:3328  set._indexes */\n      0x01\n      add\n        /* \"contracts/utils/EnumerableSet.sol\":3316:3339  set._indexes[lastvalue] */\n      0x00\n        /* \"contracts/utils/EnumerableSet.sol\":3329:3338  lastvalue */\n      dup4\n        /* \"contracts/utils/EnumerableSet.sol\":3316:3339  set._indexes[lastvalue] */\n      dup2\n      mstore\n      0x20\n      add\n      swap1\n      dup2\n      mstore\n      0x20\n      add\n      0x00\n      keccak256\n        /* \"contracts/utils/EnumerableSet.sol\":3316:3359  set._indexes[lastvalue] = toDeleteIndex + 1 */\n      dup2\n      swap1\n      sstore\n      pop\n        /* \"contracts/utils/EnumerableSet.sol\":3465:3468  set */\n      dup7\n        /* \"contracts/utils/EnumerableSet.sol\":3465:3476  set._values */\n      0x00\n      add\n        /* \"contracts/utils/EnumerableSet.sol\":3465:3482  set._values.pop() */\n      dup1\n      sload\n      dup1\n      tag_580\n      jumpi\n      invalid\n    tag_580:\n      0x01\n      swap1\n      sub\n      dup2\n      dup2\n      swap1\n      0x00\n      mstore\n      keccak256(0x00, 0x20)\n      add\n      0x00\n      swap1\n      sstore\n      swap1\n      sstore\n        /* \"contracts/utils/EnumerableSet.sol\":3557:3560  set */\n      dup7\n        /* \"contracts/utils/EnumerableSet.sol\":3557:3569  set._indexes */\n      0x01\n      add\n        /* \"contracts/utils/EnumerableSet.sol\":3557:3576  set._indexes[value] */\n      0x00\n        /* \"contracts/utils/EnumerableSet.sol\":3570:3575  value */\n      dup8\n        /* \"contracts/utils/EnumerableSet.sol\":3557:3576  set._indexes[value] */\n      dup2\n      mstore\n      0x20\n      add\n      swap1\n      dup2\n      mstore\n      0x20\n      add\n      0x00\n      keccak256\n        /* \"contracts/utils/EnumerableSet.sol\":3550:3576  delete set._indexes[value] */\n      0x00\n      swap1\n      sstore\n        /* \"contracts/utils/EnumerableSet.sol\":3598:3602  true */\n      0x01\n        /* \"contracts/utils/EnumerableSet.sol\":3591:3602  return true */\n      swap5\n      pop\n      pop\n      pop\n      pop\n      pop\n      jump(tag_574)\n        /* \"contracts/utils/EnumerableSet.sol\":2383:3656  if (valueIndex != 0) { // Equivalent to contains(set, value)... */\n    tag_575:\n        /* \"contracts/utils/EnumerableSet.sol\":3640:3645  false */\n      0x00\n        /* \"contracts/utils/EnumerableSet.sol\":3633:3645  return false */\n      swap2\n      pop\n      pop\n        /* \"contracts/utils/EnumerableSet.sol\":2150:3662  function _remove(Set storage set, bytes32 value) private returns (bool) {... */\n    tag_574:\n      swap3\n      swap2\n      pop\n      pop\n      jump\t// out\n        /* \"contracts/Bridge.sol\":318:17532  contract Bridge is Pausable, AccessControl, SafeMath {... */\n    tag_250:\n      dup3\n      dup1\n      sload\n      0x01\n      dup2\n      0x01\n      and\n      iszero\n      0x0100\n      mul\n      sub\n      and\n      0x02\n      swap1\n      div\n      swap1\n      0x00\n      mstore\n      keccak256(0x00, 0x20)\n      swap1\n      0x1f\n      add\n      0x20\n      swap1\n      div\n      dup2\n      add\n      swap3\n      dup3\n      0x1f\n      lt\n      tag_584\n      jumpi\n      dup1\n      calldataload\n      not(0xff)\n      and\n      dup4\n      dup1\n      add\n      or\n      dup6\n      sstore\n      jump(tag_583)\n    tag_584:\n      dup3\n      dup1\n      add\n      0x01\n      add\n      dup6\n      sstore\n      dup3\n      iszero\n      tag_583\n      jumpi\n      swap2\n      dup3\n      add\n    tag_585:\n      dup3\n      dup2\n      gt\n      iszero\n      tag_586\n      jumpi\n      dup3\n      calldataload\n      dup3\n      sstore\n      swap2\n      0x20\n      add\n      swap2\n      swap1\n      0x01\n      add\n      swap1\n      jump(tag_585)\n    tag_586:\n    tag_583:\n      pop\n      swap1\n      pop\n      tag_587\n      swap2\n      swap1\n      tag_588\n      jump\t// in\n    tag_587:\n      pop\n      swap1\n      jump\t// out\n    tag_296:\n      dup3\n      dup1\n      sload\n      dup3\n      dup3\n      sstore\n      swap1\n      0x00\n      mstore\n      keccak256(0x00, 0x20)\n      swap1\n      dup2\n      add\n      swap3\n      dup3\n      iszero\n      tag_589\n      jumpi\n      swap2\n      0x20\n      mul\n      dup3\n      add\n    tag_590:\n      dup3\n      dup2\n      gt\n      iszero\n      tag_591\n      jumpi\n      dup3\n      mload\n      dup3\n      exp(0x0100, 0x00)\n      dup2\n      sload\n      dup2\n      0xffffffffffffffffffffffffffffffffffffffff\n      mul\n      not\n      and\n      swap1\n      dup4\n      0xffffffffffffffffffffffffffffffffffffffff\n      and\n      mul\n      or\n      swap1\n      sstore\n      pop\n      swap2\n      0x20\n      add\n      swap2\n      swap1\n      0x01\n      add\n      swap1\n      jump(tag_590)\n    tag_591:\n    tag_589:\n      pop\n      swap1\n      pop\n      tag_592\n      swap2\n      swap1\n      tag_593\n      jump\t// in\n    tag_592:\n      pop\n      swap1\n      jump\t// out\n    tag_442:\n      mload(0x40)\n      dup1\n      0xc0\n      add\n      0x40\n      mstore\n      dup1\n      0x00\n      dup1\n      not\n      and\n      dup2\n      mstore\n      0x20\n      add\n      0x00\n      dup1\n      not\n      and\n      dup2\n      mstore\n      0x20\n      add\n      0x60\n      dup2\n      mstore\n      0x20\n      add\n      0x60\n      dup2\n      mstore\n      0x20\n      add\n      0x00\n      0x04\n      dup2\n      gt\n      iszero\n      tag_594\n      jumpi\n      invalid\n    tag_594:\n      dup2\n      mstore\n      0x20\n      add\n      0x00\n      dup2\n      mstore\n      pop\n      swap1\n      jump\t// out\n    tag_588:\n      tag_595\n      swap2\n      swap1\n    tag_596:\n      dup1\n      dup3\n      gt\n      iszero\n      tag_597\n      jumpi\n      0x00\n      dup2\n      0x00\n      swap1\n      sstore\n      pop\n      0x01\n      add\n      jump(tag_596)\n    tag_597:\n      pop\n      swap1\n      jump\n    tag_595:\n      swap1\n      jump\t// out\n    tag_593:\n      tag_598\n      swap2\n      swap1\n    tag_599:\n      dup1\n      dup3\n      gt\n      iszero\n      tag_600\n      jumpi\n      0x00\n      dup2\n      dup2\n      0x0100\n      exp\n      dup2\n      sload\n      swap1\n      0xffffffffffffffffffffffffffffffffffffffff\n      mul\n      not\n      and\n      swap1\n      sstore\n      pop\n      0x01\n      add\n      jump(tag_599)\n    tag_600:\n      pop\n      swap1\n      jump\n    tag_598:\n      swap1\n      jump\t// out\n        /* \"--CODEGEN--\":5:135   */\n    tag_602:\n      0x00\n        /* \"--CODEGEN--\":85:91   */\n      dup2\n        /* \"--CODEGEN--\":72:92   */\n      calldataload\n        /* \"--CODEGEN--\":63:92   */\n      swap1\n      pop\n        /* \"--CODEGEN--\":97:130   */\n      tag_604\n        /* \"--CODEGEN--\":124:129   */\n      dup2\n        /* \"--CODEGEN--\":97:130   */\n      jump(tag_605)\n    tag_604:\n        /* \"--CODEGEN--\":57:135   */\n      swap3\n      swap2\n      pop\n      pop\n      jump\n        /* \"--CODEGEN--\":142:288   */\n    tag_606:\n      0x00\n        /* \"--CODEGEN--\":230:236   */\n      dup2\n        /* \"--CODEGEN--\":217:237   */\n      calldataload\n        /* \"--CODEGEN--\":208:237   */\n      swap1\n      pop\n        /* \"--CODEGEN--\":242:283   */\n      tag_608\n        /* \"--CODEGEN--\":277:282   */\n      dup2\n        /* \"--CODEGEN--\":242:283   */\n      jump(tag_609)\n    tag_608:\n        /* \"--CODEGEN--\":202:288   */\n      swap3\n      swap2\n      pop\n      pop\n      jump\n        /* \"--CODEGEN--\":321:681   */\n    tag_610:\n      0x00\n      dup1\n        /* \"--CODEGEN--\":459:462   */\n      dup4\n        /* \"--CODEGEN--\":452:456   */\n      0x1f\n        /* \"--CODEGEN--\":444:450   */\n      dup5\n        /* \"--CODEGEN--\":440:457   */\n      add\n        /* \"--CODEGEN--\":436:463   */\n      slt\n        /* \"--CODEGEN--\":426:428   */\n      tag_612\n      jumpi\n        /* \"--CODEGEN--\":477:478   */\n      0x00\n        /* \"--CODEGEN--\":474:475   */\n      dup1\n        /* \"--CODEGEN--\":467:479   */\n      revert\n        /* \"--CODEGEN--\":426:428   */\n    tag_612:\n        /* \"--CODEGEN--\":510:516   */\n      dup3\n        /* \"--CODEGEN--\":497:517   */\n      calldataload\n        /* \"--CODEGEN--\":487:517   */\n      swap1\n      pop\n        /* \"--CODEGEN--\":537:555   */\n      0xffffffffffffffff\n        /* \"--CODEGEN--\":529:535   */\n      dup2\n        /* \"--CODEGEN--\":526:556   */\n      gt\n        /* \"--CODEGEN--\":523:525   */\n      iszero\n      tag_613\n      jumpi\n        /* \"--CODEGEN--\":569:570   */\n      0x00\n        /* \"--CODEGEN--\":566:567   */\n      dup1\n        /* \"--CODEGEN--\":559:571   */\n      revert\n        /* \"--CODEGEN--\":523:525   */\n    tag_613:\n        /* \"--CODEGEN--\":603:607   */\n      0x20\n        /* \"--CODEGEN--\":595:601   */\n      dup4\n        /* \"--CODEGEN--\":591:608   */\n      add\n        /* \"--CODEGEN--\":579:608   */\n      swap2\n      pop\n        /* \"--CODEGEN--\":654:657   */\n      dup4\n        /* \"--CODEGEN--\":646:650   */\n      0x20\n        /* \"--CODEGEN--\":638:644   */\n      dup3\n        /* \"--CODEGEN--\":634:651   */\n      mul\n        /* \"--CODEGEN--\":624:632   */\n      dup4\n        /* \"--CODEGEN--\":620:652   */\n      add\n        /* \"--CODEGEN--\":617:658   */\n      gt\n        /* \"--CODEGEN--\":614:616   */\n      iszero\n      tag_614\n      jumpi\n        /* \"--CODEGEN--\":671:672   */\n      0x00\n        /* \"--CODEGEN--\":668:669   */\n      dup1\n        /* \"--CODEGEN--\":661:673   */\n      revert\n        /* \"--CODEGEN--\":614:616   */\n    tag_614:\n        /* \"--CODEGEN--\":419:681   */\n      swap3\n      pop\n      swap3\n      swap1\n      pop\n      jump\n        /* \"--CODEGEN--\":707:1059   */\n    tag_615:\n      0x00\n      dup1\n        /* \"--CODEGEN--\":837:840   */\n      dup4\n        /* \"--CODEGEN--\":830:834   */\n      0x1f\n        /* \"--CODEGEN--\":822:828   */\n      dup5\n        /* \"--CODEGEN--\":818:835   */\n      add\n        /* \"--CODEGEN--\":814:841   */\n      slt\n        /* \"--CODEGEN--\":804:806   */\n      tag_617\n      jumpi\n        /* \"--CODEGEN--\":855:856   */\n      0x00\n        /* \"--CODEGEN--\":852:853   */\n      dup1\n        /* \"--CODEGEN--\":845:857   */\n      revert\n        /* \"--CODEGEN--\":804:806   */\n    tag_617:\n        /* \"--CODEGEN--\":888:894   */\n      dup3\n        /* \"--CODEGEN--\":875:895   */\n      calldataload\n        /* \"--CODEGEN--\":865:895   */\n      swap1\n      pop\n        /* \"--CODEGEN--\":915:933   */\n      0xffffffffffffffff\n        /* \"--CODEGEN--\":907:913   */\n      dup2\n        /* \"--CODEGEN--\":904:934   */\n      gt\n        /* \"--CODEGEN--\":901:903   */\n      iszero\n      tag_618\n      jumpi\n        /* \"--CODEGEN--\":947:948   */\n      0x00\n        /* \"--CODEGEN--\":944:945   */\n      dup1\n        /* \"--CODEGEN--\":937:949   */\n      revert\n        /* \"--CODEGEN--\":901:903   */\n    tag_618:\n        /* \"--CODEGEN--\":981:985   */\n      0x20\n        /* \"--CODEGEN--\":973:979   */\n      dup4\n        /* \"--CODEGEN--\":969:986   */\n      add\n        /* \"--CODEGEN--\":957:986   */\n      swap2\n      pop\n        /* \"--CODEGEN--\":1032:1035   */\n      dup4\n        /* \"--CODEGEN--\":1024:1028   */\n      0x20\n        /* \"--CODEGEN--\":1016:1022   */\n      dup3\n        /* \"--CODEGEN--\":1012:1029   */\n      mul\n        /* \"--CODEGEN--\":1002:1010   */\n      dup4\n        /* \"--CODEGEN--\":998:1030   */\n      add\n        /* \"--CODEGEN--\":995:1036   */\n      gt\n        /* \"--CODEGEN--\":992:994   */\n      iszero\n      tag_619\n      jumpi\n        /* \"--CODEGEN--\":1049:1050   */\n      0x00\n        /* \"--CODEGEN--\":1046:1047   */\n      dup1\n        /* \"--CODEGEN--\":1039:1051   */\n      revert\n        /* \"--CODEGEN--\":992:994   */\n    tag_619:\n        /* \"--CODEGEN--\":797:1059   */\n      swap3\n      pop\n      swap3\n      swap1\n      pop\n      jump\n        /* \"--CODEGEN--\":1067:1197   */\n    tag_620:\n      0x00\n        /* \"--CODEGEN--\":1147:1153   */\n      dup2\n        /* \"--CODEGEN--\":1134:1154   */\n      calldataload\n        /* \"--CODEGEN--\":1125:1154   */\n      swap1\n      pop\n        /* \"--CODEGEN--\":1159:1192   */\n      tag_622\n        /* \"--CODEGEN--\":1186:1191   */\n      dup2\n        /* \"--CODEGEN--\":1159:1192   */\n      jump(tag_623)\n    tag_622:\n        /* \"--CODEGEN--\":1119:1197   */\n      swap3\n      swap2\n      pop\n      pop\n      jump\n        /* \"--CODEGEN--\":1204:1332   */\n    tag_624:\n      0x00\n        /* \"--CODEGEN--\":1283:1289   */\n      dup2\n        /* \"--CODEGEN--\":1270:1290   */\n      calldataload\n        /* \"--CODEGEN--\":1261:1290   */\n      swap1\n      pop\n        /* \"--CODEGEN--\":1295:1327   */\n      tag_626\n        /* \"--CODEGEN--\":1321:1326   */\n      dup2\n        /* \"--CODEGEN--\":1295:1327   */\n      jump(tag_627)\n    tag_626:\n        /* \"--CODEGEN--\":1255:1332   */\n      swap3\n      swap2\n      pop\n      pop\n      jump\n        /* \"--CODEGEN--\":1353:1689   */\n    tag_628:\n      0x00\n      dup1\n        /* \"--CODEGEN--\":1467:1470   */\n      dup4\n        /* \"--CODEGEN--\":1460:1464   */\n      0x1f\n        /* \"--CODEGEN--\":1452:1458   */\n      dup5\n        /* \"--CODEGEN--\":1448:1465   */\n      add\n        /* \"--CODEGEN--\":1444:1471   */\n      slt\n        /* \"--CODEGEN--\":1434:1436   */\n      tag_630\n      jumpi\n        /* \"--CODEGEN--\":1485:1486   */\n      0x00\n        /* \"--CODEGEN--\":1482:1483   */\n      dup1\n        /* \"--CODEGEN--\":1475:1487   */\n      revert\n        /* \"--CODEGEN--\":1434:1436   */\n    tag_630:\n        /* \"--CODEGEN--\":1518:1524   */\n      dup3\n        /* \"--CODEGEN--\":1505:1525   */\n      calldataload\n        /* \"--CODEGEN--\":1495:1525   */\n      swap1\n      pop\n        /* \"--CODEGEN--\":1545:1563   */\n      0xffffffffffffffff\n        /* \"--CODEGEN--\":1537:1543   */\n      dup2\n        /* \"--CODEGEN--\":1534:1564   */\n      gt\n        /* \"--CODEGEN--\":1531:1533   */\n      iszero\n      tag_631\n      jumpi\n        /* \"--CODEGEN--\":1577:1578   */\n      0x00\n        /* \"--CODEGEN--\":1574:1575   */\n      dup1\n        /* \"--CODEGEN--\":1567:1579   */\n      revert\n        /* \"--CODEGEN--\":1531:1533   */\n    tag_631:\n        /* \"--CODEGEN--\":1611:1615   */\n      0x20\n        /* \"--CODEGEN--\":1603:1609   */\n      dup4\n        /* \"--CODEGEN--\":1599:1616   */\n      add\n        /* \"--CODEGEN--\":1587:1616   */\n      swap2\n      pop\n        /* \"--CODEGEN--\":1662:1665   */\n      dup4\n        /* \"--CODEGEN--\":1654:1658   */\n      0x01\n        /* \"--CODEGEN--\":1646:1652   */\n      dup3\n        /* \"--CODEGEN--\":1642:1659   */\n      mul\n        /* \"--CODEGEN--\":1632:1640   */\n      dup4\n        /* \"--CODEGEN--\":1628:1660   */\n      add\n        /* \"--CODEGEN--\":1625:1666   */\n      gt\n        /* \"--CODEGEN--\":1622:1624   */\n      iszero\n      tag_632\n      jumpi\n        /* \"--CODEGEN--\":1679:1680   */\n      0x00\n        /* \"--CODEGEN--\":1676:1677   */\n      dup1\n        /* \"--CODEGEN--\":1669:1681   */\n      revert\n        /* \"--CODEGEN--\":1622:1624   */\n    tag_632:\n        /* \"--CODEGEN--\":1427:1689   */\n      swap3\n      pop\n      swap3\n      swap1\n      pop\n      jump\n        /* \"--CODEGEN--\":1697:1827   */\n    tag_633:\n      0x00\n        /* \"--CODEGEN--\":1777:1783   */\n      dup2\n        /* \"--CODEGEN--\":1764:1784   */\n      calldataload\n        /* \"--CODEGEN--\":1755:1784   */\n      swap1\n      pop\n        /* \"--CODEGEN--\":1789:1822   */\n      tag_635\n        /* \"--CODEGEN--\":1816:1821   */\n      dup2\n        /* \"--CODEGEN--\":1789:1822   */\n      jump(tag_636)\n    tag_635:\n        /* \"--CODEGEN--\":1749:1827   */\n      swap3\n      swap2\n      pop\n      pop\n      jump\n        /* \"--CODEGEN--\":1834:1962   */\n    tag_637:\n      0x00\n        /* \"--CODEGEN--\":1913:1919   */\n      dup2\n        /* \"--CODEGEN--\":1900:1920   */\n      calldataload\n        /* \"--CODEGEN--\":1891:1920   */\n      swap1\n      pop\n        /* \"--CODEGEN--\":1925:1957   */\n      tag_639\n        /* \"--CODEGEN--\":1951:1956   */\n      dup2\n        /* \"--CODEGEN--\":1925:1957   */\n      jump(tag_640)\n    tag_639:\n        /* \"--CODEGEN--\":1885:1962   */\n      swap3\n      swap2\n      pop\n      pop\n      jump\n        /* \"--CODEGEN--\":1969:2097   */\n    tag_641:\n      0x00\n        /* \"--CODEGEN--\":2048:2054   */\n      dup2\n        /* \"--CODEGEN--\":2035:2055   */\n      calldataload\n        /* \"--CODEGEN--\":2026:2055   */\n      swap1\n      pop\n        /* \"--CODEGEN--\":2060:2092   */\n      tag_643\n        /* \"--CODEGEN--\":2086:2091   */\n      dup2\n        /* \"--CODEGEN--\":2060:2092   */\n      jump(tag_644)\n    tag_643:\n        /* \"--CODEGEN--\":2020:2097   */\n      swap3\n      swap2\n      pop\n      pop\n      jump\n        /* \"--CODEGEN--\":2104:2230   */\n    tag_645:\n      0x00\n        /* \"--CODEGEN--\":2182:2188   */\n      dup2\n        /* \"--CODEGEN--\":2169:2189   */\n      calldataload\n        /* \"--CODEGEN--\":2160:2189   */\n      swap1\n      pop\n        /* \"--CODEGEN--\":2194:2225   */\n      tag_647\n        /* \"--CODEGEN--\":2219:2224   */\n      dup2\n        /* \"--CODEGEN--\":2194:2225   */\n      jump(tag_648)\n    tag_647:\n        /* \"--CODEGEN--\":2154:2230   */\n      swap3\n      swap2\n      pop\n      pop\n      jump\n        /* \"--CODEGEN--\":2237:2478   */\n    tag_117:\n      0x00\n        /* \"--CODEGEN--\":2341:2343   */\n      0x20\n        /* \"--CODEGEN--\":2329:2338   */\n      dup3\n        /* \"--CODEGEN--\":2320:2327   */\n      dup5\n        /* \"--CODEGEN--\":2316:2339   */\n      sub\n        /* \"--CODEGEN--\":2312:2344   */\n      slt\n        /* \"--CODEGEN--\":2309:2311   */\n      iszero\n      tag_650\n      jumpi\n        /* \"--CODEGEN--\":2357:2358   */\n      0x00\n        /* \"--CODEGEN--\":2354:2355   */\n      dup1\n        /* \"--CODEGEN--\":2347:2359   */\n      revert\n        /* \"--CODEGEN--\":2309:2311   */\n    tag_650:\n        /* \"--CODEGEN--\":2392:2393   */\n      0x00\n        /* \"--CODEGEN--\":2409:2462   */\n      tag_651\n        /* \"--CODEGEN--\":2454:2461   */\n      dup5\n        /* \"--CODEGEN--\":2445:2451   */\n      dup3\n        /* \"--CODEGEN--\":2434:2443   */\n      dup6\n        /* \"--CODEGEN--\":2430:2452   */\n      add\n        /* \"--CODEGEN--\":2409:2462   */\n      jump(tag_602)\n    tag_651:\n        /* \"--CODEGEN--\":2399:2462   */\n      swap2\n      pop\n        /* \"--CODEGEN--\":2371:2468   */\n      pop\n        /* \"--CODEGEN--\":2303:2478   */\n      swap3\n      swap2\n      pop\n      pop\n      jump\n        /* \"--CODEGEN--\":2485:2742   */\n    tag_381:\n      0x00\n        /* \"--CODEGEN--\":2597:2599   */\n      0x20\n        /* \"--CODEGEN--\":2585:2594   */\n      dup3\n        /* \"--CODEGEN--\":2576:2583   */\n      dup5\n        /* \"--CODEGEN--\":2572:2595   */\n      sub\n        /* \"--CODEGEN--\":2568:2600   */\n      slt\n        /* \"--CODEGEN--\":2565:2567   */\n      iszero\n      tag_653\n      jumpi\n        /* \"--CODEGEN--\":2613:2614   */\n      0x00\n        /* \"--CODEGEN--\":2610:2611   */\n      dup1\n        /* \"--CODEGEN--\":2603:2615   */\n      revert\n        /* \"--CODEGEN--\":2565:2567   */\n    tag_653:\n        /* \"--CODEGEN--\":2648:2649   */\n      0x00\n        /* \"--CODEGEN--\":2665:2726   */\n      tag_654\n        /* \"--CODEGEN--\":2718:2725   */\n      dup5\n        /* \"--CODEGEN--\":2709:2715   */\n      dup3\n        /* \"--CODEGEN--\":2698:2707   */\n      dup6\n        /* \"--CODEGEN--\":2694:2716   */\n      add\n        /* \"--CODEGEN--\":2665:2726   */\n      jump(tag_606)\n    tag_654:\n        /* \"--CODEGEN--\":2655:2726   */\n      swap2\n      pop\n        /* \"--CODEGEN--\":2627:2732   */\n      pop\n        /* \"--CODEGEN--\":2559:2742   */\n      swap3\n      swap2\n      pop\n      pop\n      jump\n        /* \"--CODEGEN--\":2749:3115   */\n    tag_157:\n      0x00\n      dup1\n        /* \"--CODEGEN--\":2870:2872   */\n      0x40\n        /* \"--CODEGEN--\":2858:2867   */\n      dup4\n        /* \"--CODEGEN--\":2849:2856   */\n      dup6\n        /* \"--CODEGEN--\":2845:2868   */\n      sub\n        /* \"--CODEGEN--\":2841:2873   */\n      slt\n        /* \"--CODEGEN--\":2838:2840   */\n      iszero\n      tag_656\n      jumpi\n        /* \"--CODEGEN--\":2886:2887   */\n      0x00\n        /* \"--CODEGEN--\":2883:2884   */\n      dup1\n        /* \"--CODEGEN--\":2876:2888   */\n      revert\n        /* \"--CODEGEN--\":2838:2840   */\n    tag_656:\n        /* \"--CODEGEN--\":2921:2922   */\n      0x00\n        /* \"--CODEGEN--\":2938:2991   */\n      tag_657\n        /* \"--CODEGEN--\":2983:2990   */\n      dup6\n        /* \"--CODEGEN--\":2974:2980   */\n      dup3\n        /* \"--CODEGEN--\":2963:2972   */\n      dup7\n        /* \"--CODEGEN--\":2959:2981   */\n      add\n        /* \"--CODEGEN--\":2938:2991   */\n      jump(tag_602)\n    tag_657:\n        /* \"--CODEGEN--\":2928:2991   */\n      swap3\n      pop\n        /* \"--CODEGEN--\":2900:2997   */\n      pop\n        /* \"--CODEGEN--\":3028:3030   */\n      0x20\n        /* \"--CODEGEN--\":3046:3099   */\n      tag_658\n        /* \"--CODEGEN--\":3091:3098   */\n      dup6\n        /* \"--CODEGEN--\":3082:3088   */\n      dup3\n        /* \"--CODEGEN--\":3071:3080   */\n      dup7\n        /* \"--CODEGEN--\":3067:3089   */\n      add\n        /* \"--CODEGEN--\":3046:3099   */\n      jump(tag_602)\n    tag_658:\n        /* \"--CODEGEN--\":3036:3099   */\n      swap2\n      pop\n        /* \"--CODEGEN--\":3007:3105   */\n      pop\n        /* \"--CODEGEN--\":2832:3115   */\n      swap3\n      pop\n      swap3\n      swap1\n      pop\n      jump\n        /* \"--CODEGEN--\":3122:3739   */\n    tag_132:\n      0x00\n      dup1\n      0x00\n      dup1\n        /* \"--CODEGEN--\":3277:3280   */\n      0x80\n        /* \"--CODEGEN--\":3265:3274   */\n      dup6\n        /* \"--CODEGEN--\":3256:3263   */\n      dup8\n        /* \"--CODEGEN--\":3252:3275   */\n      sub\n        /* \"--CODEGEN--\":3248:3281   */\n      slt\n        /* \"--CODEGEN--\":3245:3247   */\n      iszero\n      tag_660\n      jumpi\n        /* \"--CODEGEN--\":3294:3295   */\n      0x00\n        /* \"--CODEGEN--\":3291:3292   */\n      dup1\n        /* \"--CODEGEN--\":3284:3296   */\n      revert\n        /* \"--CODEGEN--\":3245:3247   */\n    tag_660:\n        /* \"--CODEGEN--\":3329:3330   */\n      0x00\n        /* \"--CODEGEN--\":3346:3399   */\n      tag_661\n        /* \"--CODEGEN--\":3391:3398   */\n      dup8\n        /* \"--CODEGEN--\":3382:3388   */\n      dup3\n        /* \"--CODEGEN--\":3371:3380   */\n      dup9\n        /* \"--CODEGEN--\":3367:3389   */\n      add\n        /* \"--CODEGEN--\":3346:3399   */\n      jump(tag_602)\n    tag_661:\n        /* \"--CODEGEN--\":3336:3399   */\n      swap5\n      pop\n        /* \"--CODEGEN--\":3308:3405   */\n      pop\n        /* \"--CODEGEN--\":3436:3438   */\n      0x20\n        /* \"--CODEGEN--\":3454:3507   */\n      tag_662\n        /* \"--CODEGEN--\":3499:3506   */\n      dup8\n        /* \"--CODEGEN--\":3490:3496   */\n      dup3\n        /* \"--CODEGEN--\":3479:3488   */\n      dup9\n        /* \"--CODEGEN--\":3475:3497   */\n      add\n        /* \"--CODEGEN--\":3454:3507   */\n      jump(tag_602)\n    tag_662:\n        /* \"--CODEGEN--\":3444:3507   */\n      swap4\n      pop\n        /* \"--CODEGEN--\":3415:3513   */\n      pop\n        /* \"--CODEGEN--\":3544:3546   */\n      0x40\n        /* \"--CODEGEN--\":3562:3615   */\n      tag_663\n        /* \"--CODEGEN--\":3607:3614   */\n      dup8\n        /* \"--CODEGEN--\":3598:3604   */\n      dup3\n        /* \"--CODEGEN--\":3587:3596   */\n      dup9\n        /* \"--CODEGEN--\":3583:3605   */\n      add\n        /* \"--CODEGEN--\":3562:3615   */\n      jump(tag_602)\n    tag_663:\n        /* \"--CODEGEN--\":3552:3615   */\n      swap3\n      pop\n        /* \"--CODEGEN--\":3523:3621   */\n      pop\n        /* \"--CODEGEN--\":3652:3654   */\n      0x60\n        /* \"--CODEGEN--\":3670:3723   */\n      tag_664\n        /* \"--CODEGEN--\":3715:3722   */\n      dup8\n        /* \"--CODEGEN--\":3706:3712   */\n      dup3\n        /* \"--CODEGEN--\":3695:3704   */\n      dup9\n        /* \"--CODEGEN--\":3691:3713   */\n      add\n        /* \"--CODEGEN--\":3670:3723   */\n      jump(tag_633)\n    tag_664:\n        /* \"--CODEGEN--\":3660:3723   */\n      swap2\n      pop\n        /* \"--CODEGEN--\":3631:3729   */\n      pop\n        /* \"--CODEGEN--\":3239:3739   */\n      swap3\n      swap6\n      swap2\n      swap5\n      pop\n      swap3\n      pop\n      jump\n        /* \"--CODEGEN--\":3746:4237   */\n    tag_217:\n      0x00\n      dup1\n      0x00\n        /* \"--CODEGEN--\":3884:3886   */\n      0x60\n        /* \"--CODEGEN--\":3872:3881   */\n      dup5\n        /* \"--CODEGEN--\":3863:3870   */\n      dup7\n        /* \"--CODEGEN--\":3859:3882   */\n      sub\n        /* \"--CODEGEN--\":3855:3887   */\n      slt\n        /* \"--CODEGEN--\":3852:3854   */\n      iszero\n      tag_666\n      jumpi\n        /* \"--CODEGEN--\":3900:3901   */\n      0x00\n        /* \"--CODEGEN--\":3897:3898   */\n      dup1\n        /* \"--CODEGEN--\":3890:3902   */\n      revert\n        /* \"--CODEGEN--\":3852:3854   */\n    tag_666:\n        /* \"--CODEGEN--\":3935:3936   */\n      0x00\n        /* \"--CODEGEN--\":3952:4005   */\n      tag_667\n        /* \"--CODEGEN--\":3997:4004   */\n      dup7\n        /* \"--CODEGEN--\":3988:3994   */\n      dup3\n        /* \"--CODEGEN--\":3977:3986   */\n      dup8\n        /* \"--CODEGEN--\":3973:3995   */\n      add\n        /* \"--CODEGEN--\":3952:4005   */\n      jump(tag_602)\n    tag_667:\n        /* \"--CODEGEN--\":3942:4005   */\n      swap4\n      pop\n        /* \"--CODEGEN--\":3914:4011   */\n      pop\n        /* \"--CODEGEN--\":4042:4044   */\n      0x20\n        /* \"--CODEGEN--\":4060:4113   */\n      tag_668\n        /* \"--CODEGEN--\":4105:4112   */\n      dup7\n        /* \"--CODEGEN--\":4096:4102   */\n      dup3\n        /* \"--CODEGEN--\":4085:4094   */\n      dup8\n        /* \"--CODEGEN--\":4081:4103   */\n      add\n        /* \"--CODEGEN--\":4060:4113   */\n      jump(tag_620)\n    tag_668:\n        /* \"--CODEGEN--\":4050:4113   */\n      swap3\n      pop\n        /* \"--CODEGEN--\":4021:4119   */\n      pop\n        /* \"--CODEGEN--\":4150:4152   */\n      0x40\n        /* \"--CODEGEN--\":4168:4221   */\n      tag_669\n        /* \"--CODEGEN--\":4213:4220   */\n      dup7\n        /* \"--CODEGEN--\":4204:4210   */\n      dup3\n        /* \"--CODEGEN--\":4193:4202   */\n      dup8\n        /* \"--CODEGEN--\":4189:4211   */\n      add\n        /* \"--CODEGEN--\":4168:4221   */\n      jump(tag_602)\n    tag_669:\n        /* \"--CODEGEN--\":4158:4221   */\n      swap2\n      pop\n        /* \"--CODEGEN--\":4129:4227   */\n      pop\n        /* \"--CODEGEN--\":3846:4237   */\n      swap3\n      pop\n      swap3\n      pop\n      swap3\n      jump\n        /* \"--CODEGEN--\":4244:4983   */\n    tag_234:\n      0x00\n      dup1\n      0x00\n      dup1\n      0x00\n        /* \"--CODEGEN--\":4414:4417   */\n      0xa0\n        /* \"--CODEGEN--\":4402:4411   */\n      dup7\n        /* \"--CODEGEN--\":4393:4400   */\n      dup9\n        /* \"--CODEGEN--\":4389:4412   */\n      sub\n        /* \"--CODEGEN--\":4385:4418   */\n      slt\n        /* \"--CODEGEN--\":4382:4384   */\n      iszero\n      tag_671\n      jumpi\n        /* \"--CODEGEN--\":4431:4432   */\n      0x00\n        /* \"--CODEGEN--\":4428:4429   */\n      dup1\n        /* \"--CODEGEN--\":4421:4433   */\n      revert\n        /* \"--CODEGEN--\":4382:4384   */\n    tag_671:\n        /* \"--CODEGEN--\":4466:4467   */\n      0x00\n        /* \"--CODEGEN--\":4483:4536   */\n      tag_672\n        /* \"--CODEGEN--\":4528:4535   */\n      dup9\n        /* \"--CODEGEN--\":4519:4525   */\n      dup3\n        /* \"--CODEGEN--\":4508:4517   */\n      dup10\n        /* \"--CODEGEN--\":4504:4526   */\n      add\n        /* \"--CODEGEN--\":4483:4536   */\n      jump(tag_602)\n    tag_672:\n        /* \"--CODEGEN--\":4473:4536   */\n      swap6\n      pop\n        /* \"--CODEGEN--\":4445:4542   */\n      pop\n        /* \"--CODEGEN--\":4573:4575   */\n      0x20\n        /* \"--CODEGEN--\":4591:4644   */\n      tag_673\n        /* \"--CODEGEN--\":4636:4643   */\n      dup9\n        /* \"--CODEGEN--\":4627:4633   */\n      dup3\n        /* \"--CODEGEN--\":4616:4625   */\n      dup10\n        /* \"--CODEGEN--\":4612:4634   */\n      add\n        /* \"--CODEGEN--\":4591:4644   */\n      jump(tag_620)\n    tag_673:\n        /* \"--CODEGEN--\":4581:4644   */\n      swap5\n      pop\n        /* \"--CODEGEN--\":4552:4650   */\n      pop\n        /* \"--CODEGEN--\":4681:4683   */\n      0x40\n        /* \"--CODEGEN--\":4699:4752   */\n      tag_674\n        /* \"--CODEGEN--\":4744:4751   */\n      dup9\n        /* \"--CODEGEN--\":4735:4741   */\n      dup3\n        /* \"--CODEGEN--\":4724:4733   */\n      dup10\n        /* \"--CODEGEN--\":4720:4742   */\n      add\n        /* \"--CODEGEN--\":4699:4752   */\n      jump(tag_602)\n    tag_674:\n        /* \"--CODEGEN--\":4689:4752   */\n      swap4\n      pop\n        /* \"--CODEGEN--\":4660:4758   */\n      pop\n        /* \"--CODEGEN--\":4789:4791   */\n      0x60\n        /* \"--CODEGEN--\":4807:4859   */\n      tag_675\n        /* \"--CODEGEN--\":4851:4858   */\n      dup9\n        /* \"--CODEGEN--\":4842:4848   */\n      dup3\n        /* \"--CODEGEN--\":4831:4840   */\n      dup10\n        /* \"--CODEGEN--\":4827:4849   */\n      add\n        /* \"--CODEGEN--\":4807:4859   */\n      jump(tag_624)\n    tag_675:\n        /* \"--CODEGEN--\":4797:4859   */\n      swap3\n      pop\n        /* \"--CODEGEN--\":4768:4865   */\n      pop\n        /* \"--CODEGEN--\":4896:4899   */\n      0x80\n        /* \"--CODEGEN--\":4915:4967   */\n      tag_676\n        /* \"--CODEGEN--\":4959:4966   */\n      dup9\n        /* \"--CODEGEN--\":4950:4956   */\n      dup3\n        /* \"--CODEGEN--\":4939:4948   */\n      dup10\n        /* \"--CODEGEN--\":4935:4957   */\n      add\n        /* \"--CODEGEN--\":4915:4967   */\n      jump(tag_624)\n    tag_676:\n        /* \"--CODEGEN--\":4905:4967   */\n      swap2\n      pop\n        /* \"--CODEGEN--\":4875:4973   */\n      pop\n        /* \"--CODEGEN--\":4376:4983   */\n      swap3\n      swap6\n      pop\n      swap3\n      swap6\n      swap1\n      swap4\n      pop\n      jump\n        /* \"--CODEGEN--\":4990:5684   */\n    tag_93:\n      0x00\n      dup1\n      0x00\n      dup1\n        /* \"--CODEGEN--\":5189:5191   */\n      0x40\n        /* \"--CODEGEN--\":5177:5186   */\n      dup6\n        /* \"--CODEGEN--\":5168:5175   */\n      dup8\n        /* \"--CODEGEN--\":5164:5187   */\n      sub\n        /* \"--CODEGEN--\":5160:5192   */\n      slt\n        /* \"--CODEGEN--\":5157:5159   */\n      iszero\n      tag_678\n      jumpi\n        /* \"--CODEGEN--\":5205:5206   */\n      0x00\n        /* \"--CODEGEN--\":5202:5203   */\n      dup1\n        /* \"--CODEGEN--\":5195:5207   */\n      revert\n        /* \"--CODEGEN--\":5157:5159   */\n    tag_678:\n        /* \"--CODEGEN--\":5268:5269   */\n      0x00\n        /* \"--CODEGEN--\":5257:5266   */\n      dup6\n        /* \"--CODEGEN--\":5253:5270   */\n      add\n        /* \"--CODEGEN--\":5240:5271   */\n      calldataload\n        /* \"--CODEGEN--\":5291:5309   */\n      0xffffffffffffffff\n        /* \"--CODEGEN--\":5283:5289   */\n      dup2\n        /* \"--CODEGEN--\":5280:5310   */\n      gt\n        /* \"--CODEGEN--\":5277:5279   */\n      iszero\n      tag_679\n      jumpi\n        /* \"--CODEGEN--\":5323:5324   */\n      0x00\n        /* \"--CODEGEN--\":5320:5321   */\n      dup1\n        /* \"--CODEGEN--\":5313:5325   */\n      revert\n        /* \"--CODEGEN--\":5277:5279   */\n    tag_679:\n        /* \"--CODEGEN--\":5351:5439   */\n      tag_680\n        /* \"--CODEGEN--\":5431:5438   */\n      dup8\n        /* \"--CODEGEN--\":5422:5428   */\n      dup3\n        /* \"--CODEGEN--\":5411:5420   */\n      dup9\n        /* \"--CODEGEN--\":5407:5429   */\n      add\n        /* \"--CODEGEN--\":5351:5439   */\n      jump(tag_610)\n    tag_680:\n        /* \"--CODEGEN--\":5341:5439   */\n      swap5\n      pop\n      swap5\n      pop\n        /* \"--CODEGEN--\":5219:5445   */\n      pop\n        /* \"--CODEGEN--\":5504:5506   */\n      0x20\n        /* \"--CODEGEN--\":5493:5502   */\n      dup6\n        /* \"--CODEGEN--\":5489:5507   */\n      add\n        /* \"--CODEGEN--\":5476:5508   */\n      calldataload\n        /* \"--CODEGEN--\":5528:5546   */\n      0xffffffffffffffff\n        /* \"--CODEGEN--\":5520:5526   */\n      dup2\n        /* \"--CODEGEN--\":5517:5547   */\n      gt\n        /* \"--CODEGEN--\":5514:5516   */\n      iszero\n      tag_681\n      jumpi\n        /* \"--CODEGEN--\":5560:5561   */\n      0x00\n        /* \"--CODEGEN--\":5557:5558   */\n      dup1\n        /* \"--CODEGEN--\":5550:5562   */\n      revert\n        /* \"--CODEGEN--\":5514:5516   */\n    tag_681:\n        /* \"--CODEGEN--\":5588:5668   */\n      tag_682\n        /* \"--CODEGEN--\":5660:5667   */\n      dup8\n        /* \"--CODEGEN--\":5651:5657   */\n      dup3\n        /* \"--CODEGEN--\":5640:5649   */\n      dup9\n        /* \"--CODEGEN--\":5636:5658   */\n      add\n        /* \"--CODEGEN--\":5588:5668   */\n      jump(tag_615)\n    tag_682:\n        /* \"--CODEGEN--\":5578:5668   */\n      swap3\n      pop\n      swap3\n      pop\n        /* \"--CODEGEN--\":5455:5674   */\n      pop\n        /* \"--CODEGEN--\":5151:5684   */\n      swap3\n      swap6\n      swap2\n      swap5\n      pop\n      swap3\n      pop\n      jump\n        /* \"--CODEGEN--\":5691:5932   */\n    tag_65:\n      0x00\n        /* \"--CODEGEN--\":5795:5797   */\n      0x20\n        /* \"--CODEGEN--\":5783:5792   */\n      dup3\n        /* \"--CODEGEN--\":5774:5781   */\n      dup5\n        /* \"--CODEGEN--\":5770:5793   */\n      sub\n        /* \"--CODEGEN--\":5766:5798   */\n      slt\n        /* \"--CODEGEN--\":5763:5765   */\n      iszero\n      tag_684\n      jumpi\n        /* \"--CODEGEN--\":5811:5812   */\n      0x00\n        /* \"--CODEGEN--\":5808:5809   */\n      dup1\n        /* \"--CODEGEN--\":5801:5813   */\n      revert\n        /* \"--CODEGEN--\":5763:5765   */\n    tag_684:\n        /* \"--CODEGEN--\":5846:5847   */\n      0x00\n        /* \"--CODEGEN--\":5863:5916   */\n      tag_685\n        /* \"--CODEGEN--\":5908:5915   */\n      dup5\n        /* \"--CODEGEN--\":5899:5905   */\n      dup3\n        /* \"--CODEGEN--\":5888:5897   */\n      dup6\n        /* \"--CODEGEN--\":5884:5906   */\n      add\n        /* \"--CODEGEN--\":5863:5916   */\n      jump(tag_620)\n    tag_685:\n        /* \"--CODEGEN--\":5853:5916   */\n      swap2\n      pop\n        /* \"--CODEGEN--\":5825:5922   */\n      pop\n        /* \"--CODEGEN--\":5757:5932   */\n      swap3\n      swap2\n      pop\n      pop\n      jump\n        /* \"--CODEGEN--\":5939:6305   */\n    tag_72:\n      0x00\n      dup1\n        /* \"--CODEGEN--\":6060:6062   */\n      0x40\n        /* \"--CODEGEN--\":6048:6057   */\n      dup4\n        /* \"--CODEGEN--\":6039:6046   */\n      dup6\n        /* \"--CODEGEN--\":6035:6058   */\n      sub\n        /* \"--CODEGEN--\":6031:6063   */\n      slt\n        /* \"--CODEGEN--\":6028:6030   */\n      iszero\n      tag_687\n      jumpi\n        /* \"--CODEGEN--\":6076:6077   */\n      0x00\n        /* \"--CODEGEN--\":6073:6074   */\n      dup1\n        /* \"--CODEGEN--\":6066:6078   */\n      revert\n        /* \"--CODEGEN--\":6028:6030   */\n    tag_687:\n        /* \"--CODEGEN--\":6111:6112   */\n      0x00\n        /* \"--CODEGEN--\":6128:6181   */\n      tag_688\n        /* \"--CODEGEN--\":6173:6180   */\n      dup6\n        /* \"--CODEGEN--\":6164:6170   */\n      dup3\n        /* \"--CODEGEN--\":6153:6162   */\n      dup7\n        /* \"--CODEGEN--\":6149:6171   */\n      add\n        /* \"--CODEGEN--\":6128:6181   */\n      jump(tag_620)\n    tag_688:\n        /* \"--CODEGEN--\":6118:6181   */\n      swap3\n      pop\n        /* \"--CODEGEN--\":6090:6187   */\n      pop\n        /* \"--CODEGEN--\":6218:6220   */\n      0x20\n        /* \"--CODEGEN--\":6236:6289   */\n      tag_689\n        /* \"--CODEGEN--\":6281:6288   */\n      dup6\n        /* \"--CODEGEN--\":6272:6278   */\n      dup3\n        /* \"--CODEGEN--\":6261:6270   */\n      dup7\n        /* \"--CODEGEN--\":6257:6279   */\n      add\n        /* \"--CODEGEN--\":6236:6289   */\n      jump(tag_602)\n    tag_689:\n        /* \"--CODEGEN--\":6226:6289   */\n      swap2\n      pop\n        /* \"--CODEGEN--\":6197:6295   */\n      pop\n        /* \"--CODEGEN--\":6022:6305   */\n      swap3\n      pop\n      swap3\n      swap1\n      pop\n      jump\n        /* \"--CODEGEN--\":6312:6678   */\n    tag_162:\n      0x00\n      dup1\n        /* \"--CODEGEN--\":6433:6435   */\n      0x40\n        /* \"--CODEGEN--\":6421:6430   */\n      dup4\n        /* \"--CODEGEN--\":6412:6419   */\n      dup6\n        /* \"--CODEGEN--\":6408:6431   */\n      sub\n        /* \"--CODEGEN--\":6404:6436   */\n      slt\n        /* \"--CODEGEN--\":6401:6403   */\n      iszero\n      tag_691\n      jumpi\n        /* \"--CODEGEN--\":6449:6450   */\n      0x00\n        /* \"--CODEGEN--\":6446:6447   */\n      dup1\n        /* \"--CODEGEN--\":6439:6451   */\n      revert\n        /* \"--CODEGEN--\":6401:6403   */\n    tag_691:\n        /* \"--CODEGEN--\":6484:6485   */\n      0x00\n        /* \"--CODEGEN--\":6501:6554   */\n      tag_692\n        /* \"--CODEGEN--\":6546:6553   */\n      dup6\n        /* \"--CODEGEN--\":6537:6543   */\n      dup3\n        /* \"--CODEGEN--\":6526:6535   */\n      dup7\n        /* \"--CODEGEN--\":6522:6544   */\n      add\n        /* \"--CODEGEN--\":6501:6554   */\n      jump(tag_620)\n    tag_692:\n        /* \"--CODEGEN--\":6491:6554   */\n      swap3\n      pop\n        /* \"--CODEGEN--\":6463:6560   */\n      pop\n        /* \"--CODEGEN--\":6591:6593   */\n      0x20\n        /* \"--CODEGEN--\":6609:6662   */\n      tag_693\n        /* \"--CODEGEN--\":6654:6661   */\n      dup6\n        /* \"--CODEGEN--\":6645:6651   */\n      dup3\n        /* \"--CODEGEN--\":6634:6643   */\n      dup7\n        /* \"--CODEGEN--\":6630:6652   */\n      add\n        /* \"--CODEGEN--\":6609:6662   */\n      jump(tag_633)\n    tag_693:\n        /* \"--CODEGEN--\":6599:6662   */\n      swap2\n      pop\n        /* \"--CODEGEN--\":6570:6668   */\n      pop\n        /* \"--CODEGEN--\":6395:6678   */\n      swap3\n      pop\n      swap3\n      swap1\n      pop\n      jump\n        /* \"--CODEGEN--\":6685:6926   */\n    tag_105:\n      0x00\n        /* \"--CODEGEN--\":6789:6791   */\n      0x20\n        /* \"--CODEGEN--\":6777:6786   */\n      dup3\n        /* \"--CODEGEN--\":6768:6775   */\n      dup5\n        /* \"--CODEGEN--\":6764:6787   */\n      sub\n        /* \"--CODEGEN--\":6760:6792   */\n      slt\n        /* \"--CODEGEN--\":6757:6759   */\n      iszero\n      tag_695\n      jumpi\n        /* \"--CODEGEN--\":6805:6806   */\n      0x00\n        /* \"--CODEGEN--\":6802:6803   */\n      dup1\n        /* \"--CODEGEN--\":6795:6807   */\n      revert\n        /* \"--CODEGEN--\":6757:6759   */\n    tag_695:\n        /* \"--CODEGEN--\":6840:6841   */\n      0x00\n        /* \"--CODEGEN--\":6857:6910   */\n      tag_696\n        /* \"--CODEGEN--\":6902:6909   */\n      dup5\n        /* \"--CODEGEN--\":6893:6899   */\n      dup3\n        /* \"--CODEGEN--\":6882:6891   */\n      dup6\n        /* \"--CODEGEN--\":6878:6900   */\n      add\n        /* \"--CODEGEN--\":6857:6910   */\n      jump(tag_633)\n    tag_696:\n        /* \"--CODEGEN--\":6847:6910   */\n      swap2\n      pop\n        /* \"--CODEGEN--\":6819:6916   */\n      pop\n        /* \"--CODEGEN--\":6751:6926   */\n      swap3\n      swap2\n      pop\n      pop\n      jump\n        /* \"--CODEGEN--\":6933:7293   */\n    tag_81:\n      0x00\n      dup1\n        /* \"--CODEGEN--\":7051:7053   */\n      0x40\n        /* \"--CODEGEN--\":7039:7048   */\n      dup4\n        /* \"--CODEGEN--\":7030:7037   */\n      dup6\n        /* \"--CODEGEN--\":7026:7049   */\n      sub\n        /* \"--CODEGEN--\":7022:7054   */\n      slt\n        /* \"--CODEGEN--\":7019:7021   */\n      iszero\n      tag_698\n      jumpi\n        /* \"--CODEGEN--\":7067:7068   */\n      0x00\n        /* \"--CODEGEN--\":7064:7065   */\n      dup1\n        /* \"--CODEGEN--\":7057:7069   */\n      revert\n        /* \"--CODEGEN--\":7019:7021   */\n    tag_698:\n        /* \"--CODEGEN--\":7102:7103   */\n      0x00\n        /* \"--CODEGEN--\":7119:7171   */\n      tag_699\n        /* \"--CODEGEN--\":7163:7170   */\n      dup6\n        /* \"--CODEGEN--\":7154:7160   */\n      dup3\n        /* \"--CODEGEN--\":7143:7152   */\n      dup7\n        /* \"--CODEGEN--\":7139:7161   */\n      add\n        /* \"--CODEGEN--\":7119:7171   */\n      jump(tag_637)\n    tag_699:\n        /* \"--CODEGEN--\":7109:7171   */\n      swap3\n      pop\n        /* \"--CODEGEN--\":7081:7177   */\n      pop\n        /* \"--CODEGEN--\":7208:7210   */\n      0x20\n        /* \"--CODEGEN--\":7226:7277   */\n      tag_700\n        /* \"--CODEGEN--\":7269:7276   */\n      dup6\n        /* \"--CODEGEN--\":7260:7266   */\n      dup3\n        /* \"--CODEGEN--\":7249:7258   */\n      dup7\n        /* \"--CODEGEN--\":7245:7267   */\n      add\n        /* \"--CODEGEN--\":7226:7277   */\n      jump(tag_645)\n    tag_700:\n        /* \"--CODEGEN--\":7216:7277   */\n      swap2\n      pop\n        /* \"--CODEGEN--\":7187:7283   */\n      pop\n        /* \"--CODEGEN--\":7013:7293   */\n      swap3\n      pop\n      swap3\n      swap1\n      pop\n      jump\n        /* \"--CODEGEN--\":7300:7664   */\n    tag_110:\n      0x00\n      dup1\n        /* \"--CODEGEN--\":7420:7422   */\n      0x40\n        /* \"--CODEGEN--\":7408:7417   */\n      dup4\n        /* \"--CODEGEN--\":7399:7406   */\n      dup6\n        /* \"--CODEGEN--\":7395:7418   */\n      sub\n        /* \"--CODEGEN--\":7391:7423   */\n      slt\n        /* \"--CODEGEN--\":7388:7390   */\n      iszero\n      tag_702\n      jumpi\n        /* \"--CODEGEN--\":7436:7437   */\n      0x00\n        /* \"--CODEGEN--\":7433:7434   */\n      dup1\n        /* \"--CODEGEN--\":7426:7438   */\n      revert\n        /* \"--CODEGEN--\":7388:7390   */\n    tag_702:\n        /* \"--CODEGEN--\":7471:7472   */\n      0x00\n        /* \"--CODEGEN--\":7488:7540   */\n      tag_703\n        /* \"--CODEGEN--\":7532:7539   */\n      dup6\n        /* \"--CODEGEN--\":7523:7529   */\n      dup3\n        /* \"--CODEGEN--\":7512:7521   */\n      dup7\n        /* \"--CODEGEN--\":7508:7530   */\n      add\n        /* \"--CODEGEN--\":7488:7540   */\n      jump(tag_641)\n    tag_703:\n        /* \"--CODEGEN--\":7478:7540   */\n      swap3\n      pop\n        /* \"--CODEGEN--\":7450:7546   */\n      pop\n        /* \"--CODEGEN--\":7577:7579   */\n      0x20\n        /* \"--CODEGEN--\":7595:7648   */\n      tag_704\n        /* \"--CODEGEN--\":7640:7647   */\n      dup6\n        /* \"--CODEGEN--\":7631:7637   */\n      dup3\n        /* \"--CODEGEN--\":7620:7629   */\n      dup7\n        /* \"--CODEGEN--\":7616:7638   */\n      add\n        /* \"--CODEGEN--\":7595:7648   */\n      jump(tag_620)\n    tag_704:\n        /* \"--CODEGEN--\":7585:7648   */\n      swap2\n      pop\n        /* \"--CODEGEN--\":7556:7654   */\n      pop\n        /* \"--CODEGEN--\":7382:7664   */\n      swap3\n      pop\n      swap3\n      swap1\n      pop\n      jump\n        /* \"--CODEGEN--\":7671:8160   */\n    tag_137:\n      0x00\n      dup1\n      0x00\n        /* \"--CODEGEN--\":7808:7810   */\n      0x60\n        /* \"--CODEGEN--\":7796:7805   */\n      dup5\n        /* \"--CODEGEN--\":7787:7794   */\n      dup7\n        /* \"--CODEGEN--\":7783:7806   */\n      sub\n        /* \"--CODEGEN--\":7779:7811   */\n      slt\n        /* \"--CODEGEN--\":7776:7778   */\n      iszero\n      tag_706\n      jumpi\n        /* \"--CODEGEN--\":7824:7825   */\n      0x00\n        /* \"--CODEGEN--\":7821:7822   */\n      dup1\n        /* \"--CODEGEN--\":7814:7826   */\n      revert\n        /* \"--CODEGEN--\":7776:7778   */\n    tag_706:\n        /* \"--CODEGEN--\":7859:7860   */\n      0x00\n        /* \"--CODEGEN--\":7876:7928   */\n      tag_707\n        /* \"--CODEGEN--\":7920:7927   */\n      dup7\n        /* \"--CODEGEN--\":7911:7917   */\n      dup3\n        /* \"--CODEGEN--\":7900:7909   */\n      dup8\n        /* \"--CODEGEN--\":7896:7918   */\n      add\n        /* \"--CODEGEN--\":7876:7928   */\n      jump(tag_641)\n    tag_707:\n        /* \"--CODEGEN--\":7866:7928   */\n      swap4\n      pop\n        /* \"--CODEGEN--\":7838:7934   */\n      pop\n        /* \"--CODEGEN--\":7965:7967   */\n      0x20\n        /* \"--CODEGEN--\":7983:8036   */\n      tag_708\n        /* \"--CODEGEN--\":8028:8035   */\n      dup7\n        /* \"--CODEGEN--\":8019:8025   */\n      dup3\n        /* \"--CODEGEN--\":8008:8017   */\n      dup8\n        /* \"--CODEGEN--\":8004:8026   */\n      add\n        /* \"--CODEGEN--\":7983:8036   */\n      jump(tag_620)\n    tag_708:\n        /* \"--CODEGEN--\":7973:8036   */\n      swap3\n      pop\n        /* \"--CODEGEN--\":7944:8042   */\n      pop\n        /* \"--CODEGEN--\":8073:8075   */\n      0x40\n        /* \"--CODEGEN--\":8091:8144   */\n      tag_709\n        /* \"--CODEGEN--\":8136:8143   */\n      dup7\n        /* \"--CODEGEN--\":8127:8133   */\n      dup3\n        /* \"--CODEGEN--\":8116:8125   */\n      dup8\n        /* \"--CODEGEN--\":8112:8134   */\n      add\n        /* \"--CODEGEN--\":8091:8144   */\n      jump(tag_602)\n    tag_709:\n        /* \"--CODEGEN--\":8081:8144   */\n      swap2\n      pop\n        /* \"--CODEGEN--\":8052:8150   */\n      pop\n        /* \"--CODEGEN--\":7770:8160   */\n      swap3\n      pop\n      swap3\n      pop\n      swap3\n      jump\n        /* \"--CODEGEN--\":8167:8404   */\n    tag_98:\n      0x00\n        /* \"--CODEGEN--\":8269:8271   */\n      0x20\n        /* \"--CODEGEN--\":8257:8266   */\n      dup3\n        /* \"--CODEGEN--\":8248:8255   */\n      dup5\n        /* \"--CODEGEN--\":8244:8267   */\n      sub\n        /* \"--CODEGEN--\":8240:8272   */\n      slt\n        /* \"--CODEGEN--\":8237:8239   */\n      iszero\n      tag_711\n      jumpi\n        /* \"--CODEGEN--\":8285:8286   */\n      0x00\n        /* \"--CODEGEN--\":8282:8283   */\n      dup1\n        /* \"--CODEGEN--\":8275:8287   */\n      revert\n        /* \"--CODEGEN--\":8237:8239   */\n    tag_711:\n        /* \"--CODEGEN--\":8320:8321   */\n      0x00\n        /* \"--CODEGEN--\":8337:8388   */\n      tag_712\n        /* \"--CODEGEN--\":8380:8387   */\n      dup5\n        /* \"--CODEGEN--\":8371:8377   */\n      dup3\n        /* \"--CODEGEN--\":8360:8369   */\n      dup6\n        /* \"--CODEGEN--\":8356:8378   */\n      add\n        /* \"--CODEGEN--\":8337:8388   */\n      jump(tag_645)\n    tag_712:\n        /* \"--CODEGEN--\":8327:8388   */\n      swap2\n      pop\n        /* \"--CODEGEN--\":8299:8394   */\n      pop\n        /* \"--CODEGEN--\":8231:8404   */\n      swap3\n      swap2\n      pop\n      pop\n      jump\n        /* \"--CODEGEN--\":8411:9022   */\n    tag_50:\n      0x00\n      dup1\n      0x00\n      dup1\n        /* \"--CODEGEN--\":8566:8568   */\n      0x60\n        /* \"--CODEGEN--\":8554:8563   */\n      dup6\n        /* \"--CODEGEN--\":8545:8552   */\n      dup8\n        /* \"--CODEGEN--\":8541:8564   */\n      sub\n        /* \"--CODEGEN--\":8537:8569   */\n      slt\n        /* \"--CODEGEN--\":8534:8536   */\n      iszero\n      tag_714\n      jumpi\n        /* \"--CODEGEN--\":8582:8583   */\n      0x00\n        /* \"--CODEGEN--\":8579:8580   */\n      dup1\n        /* \"--CODEGEN--\":8572:8584   */\n      revert\n        /* \"--CODEGEN--\":8534:8536   */\n    tag_714:\n        /* \"--CODEGEN--\":8617:8618   */\n      0x00\n        /* \"--CODEGEN--\":8634:8685   */\n      tag_715\n        /* \"--CODEGEN--\":8677:8684   */\n      dup8\n        /* \"--CODEGEN--\":8668:8674   */\n      dup3\n        /* \"--CODEGEN--\":8657:8666   */\n      dup9\n        /* \"--CODEGEN--\":8653:8675   */\n      add\n        /* \"--CODEGEN--\":8634:8685   */\n      jump(tag_645)\n    tag_715:\n        /* \"--CODEGEN--\":8624:8685   */\n      swap5\n      pop\n        /* \"--CODEGEN--\":8596:8691   */\n      pop\n        /* \"--CODEGEN--\":8722:8724   */\n      0x20\n        /* \"--CODEGEN--\":8740:8793   */\n      tag_716\n        /* \"--CODEGEN--\":8785:8792   */\n      dup8\n        /* \"--CODEGEN--\":8776:8782   */\n      dup3\n        /* \"--CODEGEN--\":8765:8774   */\n      dup9\n        /* \"--CODEGEN--\":8761:8783   */\n      add\n        /* \"--CODEGEN--\":8740:8793   */\n      jump(tag_620)\n    tag_716:\n        /* \"--CODEGEN--\":8730:8793   */\n      swap4\n      pop\n        /* \"--CODEGEN--\":8701:8799   */\n      pop\n        /* \"--CODEGEN--\":8858:8860   */\n      0x40\n        /* \"--CODEGEN--\":8847:8856   */\n      dup6\n        /* \"--CODEGEN--\":8843:8861   */\n      add\n        /* \"--CODEGEN--\":8830:8862   */\n      calldataload\n        /* \"--CODEGEN--\":8882:8900   */\n      0xffffffffffffffff\n        /* \"--CODEGEN--\":8874:8880   */\n      dup2\n        /* \"--CODEGEN--\":8871:8901   */\n      gt\n        /* \"--CODEGEN--\":8868:8870   */\n      iszero\n      tag_717\n      jumpi\n        /* \"--CODEGEN--\":8914:8915   */\n      0x00\n        /* \"--CODEGEN--\":8911:8912   */\n      dup1\n        /* \"--CODEGEN--\":8904:8916   */\n      revert\n        /* \"--CODEGEN--\":8868:8870   */\n    tag_717:\n        /* \"--CODEGEN--\":8942:9006   */\n      tag_718\n        /* \"--CODEGEN--\":8998:9005   */\n      dup8\n        /* \"--CODEGEN--\":8989:8995   */\n      dup3\n        /* \"--CODEGEN--\":8978:8987   */\n      dup9\n        /* \"--CODEGEN--\":8974:8996   */\n      add\n        /* \"--CODEGEN--\":8942:9006   */\n      jump(tag_628)\n    tag_718:\n        /* \"--CODEGEN--\":8932:9006   */\n      swap3\n      pop\n      swap3\n      pop\n        /* \"--CODEGEN--\":8809:9012   */\n      pop\n        /* \"--CODEGEN--\":8528:9022   */\n      swap3\n      swap6\n      swap2\n      swap5\n      pop\n      swap3\n      pop\n      jump\n        /* \"--CODEGEN--\":9029:9514   */\n    tag_55:\n      0x00\n      dup1\n      0x00\n        /* \"--CODEGEN--\":9164:9166   */\n      0x60\n        /* \"--CODEGEN--\":9152:9161   */\n      dup5\n        /* \"--CODEGEN--\":9143:9150   */\n      dup7\n        /* \"--CODEGEN--\":9139:9162   */\n      sub\n        /* \"--CODEGEN--\":9135:9167   */\n      slt\n        /* \"--CODEGEN--\":9132:9134   */\n      iszero\n      tag_720\n      jumpi\n        /* \"--CODEGEN--\":9180:9181   */\n      0x00\n        /* \"--CODEGEN--\":9177:9178   */\n      dup1\n        /* \"--CODEGEN--\":9170:9182   */\n      revert\n        /* \"--CODEGEN--\":9132:9134   */\n    tag_720:\n        /* \"--CODEGEN--\":9215:9216   */\n      0x00\n        /* \"--CODEGEN--\":9232:9283   */\n      tag_721\n        /* \"--CODEGEN--\":9275:9282   */\n      dup7\n        /* \"--CODEGEN--\":9266:9272   */\n      dup3\n        /* \"--CODEGEN--\":9255:9264   */\n      dup8\n        /* \"--CODEGEN--\":9251:9273   */\n      add\n        /* \"--CODEGEN--\":9232:9283   */\n      jump(tag_645)\n    tag_721:\n        /* \"--CODEGEN--\":9222:9283   */\n      swap4\n      pop\n        /* \"--CODEGEN--\":9194:9289   */\n      pop\n        /* \"--CODEGEN--\":9320:9322   */\n      0x20\n        /* \"--CODEGEN--\":9338:9390   */\n      tag_722\n        /* \"--CODEGEN--\":9382:9389   */\n      dup7\n        /* \"--CODEGEN--\":9373:9379   */\n      dup3\n        /* \"--CODEGEN--\":9362:9371   */\n      dup8\n        /* \"--CODEGEN--\":9358:9380   */\n      add\n        /* \"--CODEGEN--\":9338:9390   */\n      jump(tag_637)\n    tag_722:\n        /* \"--CODEGEN--\":9328:9390   */\n      swap3\n      pop\n        /* \"--CODEGEN--\":9299:9396   */\n      pop\n        /* \"--CODEGEN--\":9427:9429   */\n      0x40\n        /* \"--CODEGEN--\":9445:9498   */\n      tag_723\n        /* \"--CODEGEN--\":9490:9497   */\n      dup7\n        /* \"--CODEGEN--\":9481:9487   */\n      dup3\n        /* \"--CODEGEN--\":9470:9479   */\n      dup8\n        /* \"--CODEGEN--\":9466:9488   */\n      add\n        /* \"--CODEGEN--\":9445:9498   */\n      jump(tag_620)\n    tag_723:\n        /* \"--CODEGEN--\":9435:9498   */\n      swap2\n      pop\n        /* \"--CODEGEN--\":9406:9504   */\n      pop\n        /* \"--CODEGEN--\":9126:9514   */\n      swap3\n      pop\n      swap3\n      pop\n      swap3\n      jump\n        /* \"--CODEGEN--\":9521:10132   */\n    tag_60:\n      0x00\n      dup1\n      0x00\n      dup1\n        /* \"--CODEGEN--\":9673:9676   */\n      0x80\n        /* \"--CODEGEN--\":9661:9670   */\n      dup6\n        /* \"--CODEGEN--\":9652:9659   */\n      dup8\n        /* \"--CODEGEN--\":9648:9671   */\n      sub\n        /* \"--CODEGEN--\":9644:9677   */\n      slt\n        /* \"--CODEGEN--\":9641:9643   */\n      iszero\n      tag_725\n      jumpi\n        /* \"--CODEGEN--\":9690:9691   */\n      0x00\n        /* \"--CODEGEN--\":9687:9688   */\n      dup1\n        /* \"--CODEGEN--\":9680:9692   */\n      revert\n        /* \"--CODEGEN--\":9641:9643   */\n    tag_725:\n        /* \"--CODEGEN--\":9725:9726   */\n      0x00\n        /* \"--CODEGEN--\":9742:9793   */\n      tag_726\n        /* \"--CODEGEN--\":9785:9792   */\n      dup8\n        /* \"--CODEGEN--\":9776:9782   */\n      dup3\n        /* \"--CODEGEN--\":9765:9774   */\n      dup9\n        /* \"--CODEGEN--\":9761:9783   */\n      add\n        /* \"--CODEGEN--\":9742:9793   */\n      jump(tag_645)\n    tag_726:\n        /* \"--CODEGEN--\":9732:9793   */\n      swap5\n      pop\n        /* \"--CODEGEN--\":9704:9799   */\n      pop\n        /* \"--CODEGEN--\":9830:9832   */\n      0x20\n        /* \"--CODEGEN--\":9848:9900   */\n      tag_727\n        /* \"--CODEGEN--\":9892:9899   */\n      dup8\n        /* \"--CODEGEN--\":9883:9889   */\n      dup3\n        /* \"--CODEGEN--\":9872:9881   */\n      dup9\n        /* \"--CODEGEN--\":9868:9890   */\n      add\n        /* \"--CODEGEN--\":9848:9900   */\n      jump(tag_637)\n    tag_727:\n        /* \"--CODEGEN--\":9838:9900   */\n      swap4\n      pop\n        /* \"--CODEGEN--\":9809:9906   */\n      pop\n        /* \"--CODEGEN--\":9937:9939   */\n      0x40\n        /* \"--CODEGEN--\":9955:10008   */\n      tag_728\n        /* \"--CODEGEN--\":10000:10007   */\n      dup8\n        /* \"--CODEGEN--\":9991:9997   */\n      dup3\n        /* \"--CODEGEN--\":9980:9989   */\n      dup9\n        /* \"--CODEGEN--\":9976:9998   */\n      add\n        /* \"--CODEGEN--\":9955:10008   */\n      jump(tag_620)\n    tag_728:\n        /* \"--CODEGEN--\":9945:10008   */\n      swap3\n      pop\n        /* \"--CODEGEN--\":9916:10014   */\n      pop\n        /* \"--CODEGEN--\":10045:10047   */\n      0x60\n        /* \"--CODEGEN--\":10063:10116   */\n      tag_729\n        /* \"--CODEGEN--\":10108:10115   */\n      dup8\n        /* \"--CODEGEN--\":10099:10105   */\n      dup3\n        /* \"--CODEGEN--\":10088:10097   */\n      dup9\n        /* \"--CODEGEN--\":10084:10106   */\n      add\n        /* \"--CODEGEN--\":10063:10116   */\n      jump(tag_620)\n    tag_729:\n        /* \"--CODEGEN--\":10053:10116   */\n      swap2\n      pop\n        /* \"--CODEGEN--\":10024:10122   */\n      pop\n        /* \"--CODEGEN--\":9635:10132   */\n      swap3\n      swap6\n      swap2\n      swap5\n      pop\n      swap3\n      pop\n      jump\n        /* \"--CODEGEN--\":10139:10874   */\n    tag_88:\n      0x00\n      dup1\n      0x00\n      dup1\n      0x00\n        /* \"--CODEGEN--\":10310:10313   */\n      0x80\n        /* \"--CODEGEN--\":10298:10307   */\n      dup7\n        /* \"--CODEGEN--\":10289:10296   */\n      dup9\n        /* \"--CODEGEN--\":10285:10308   */\n      sub\n        /* \"--CODEGEN--\":10281:10314   */\n      slt\n        /* \"--CODEGEN--\":10278:10280   */\n      iszero\n      tag_731\n      jumpi\n        /* \"--CODEGEN--\":10327:10328   */\n      0x00\n        /* \"--CODEGEN--\":10324:10325   */\n      dup1\n        /* \"--CODEGEN--\":10317:10329   */\n      revert\n        /* \"--CODEGEN--\":10278:10280   */\n    tag_731:\n        /* \"--CODEGEN--\":10362:10363   */\n      0x00\n        /* \"--CODEGEN--\":10379:10430   */\n      tag_732\n        /* \"--CODEGEN--\":10422:10429   */\n      dup9\n        /* \"--CODEGEN--\":10413:10419   */\n      dup3\n        /* \"--CODEGEN--\":10402:10411   */\n      dup10\n        /* \"--CODEGEN--\":10398:10420   */\n      add\n        /* \"--CODEGEN--\":10379:10430   */\n      jump(tag_645)\n    tag_732:\n        /* \"--CODEGEN--\":10369:10430   */\n      swap6\n      pop\n        /* \"--CODEGEN--\":10341:10436   */\n      pop\n        /* \"--CODEGEN--\":10467:10469   */\n      0x20\n        /* \"--CODEGEN--\":10485:10537   */\n      tag_733\n        /* \"--CODEGEN--\":10529:10536   */\n      dup9\n        /* \"--CODEGEN--\":10520:10526   */\n      dup3\n        /* \"--CODEGEN--\":10509:10518   */\n      dup10\n        /* \"--CODEGEN--\":10505:10527   */\n      add\n        /* \"--CODEGEN--\":10485:10537   */\n      jump(tag_637)\n    tag_733:\n        /* \"--CODEGEN--\":10475:10537   */\n      swap5\n      pop\n        /* \"--CODEGEN--\":10446:10543   */\n      pop\n        /* \"--CODEGEN--\":10602:10604   */\n      0x40\n        /* \"--CODEGEN--\":10591:10600   */\n      dup7\n        /* \"--CODEGEN--\":10587:10605   */\n      add\n        /* \"--CODEGEN--\":10574:10606   */\n      calldataload\n        /* \"--CODEGEN--\":10626:10644   */\n      0xffffffffffffffff\n        /* \"--CODEGEN--\":10618:10624   */\n      dup2\n        /* \"--CODEGEN--\":10615:10645   */\n      gt\n        /* \"--CODEGEN--\":10612:10614   */\n      iszero\n      tag_734\n      jumpi\n        /* \"--CODEGEN--\":10658:10659   */\n      0x00\n        /* \"--CODEGEN--\":10655:10656   */\n      dup1\n        /* \"--CODEGEN--\":10648:10660   */\n      revert\n        /* \"--CODEGEN--\":10612:10614   */\n    tag_734:\n        /* \"--CODEGEN--\":10686:10750   */\n      tag_735\n        /* \"--CODEGEN--\":10742:10749   */\n      dup9\n        /* \"--CODEGEN--\":10733:10739   */\n      dup3\n        /* \"--CODEGEN--\":10722:10731   */\n      dup10\n        /* \"--CODEGEN--\":10718:10740   */\n      add\n        /* \"--CODEGEN--\":10686:10750   */\n      jump(tag_628)\n    tag_735:\n        /* \"--CODEGEN--\":10676:10750   */\n      swap4\n      pop\n      swap4\n      pop\n        /* \"--CODEGEN--\":10553:10756   */\n      pop\n        /* \"--CODEGEN--\":10787:10789   */\n      0x60\n        /* \"--CODEGEN--\":10805:10858   */\n      tag_736\n        /* \"--CODEGEN--\":10850:10857   */\n      dup9\n        /* \"--CODEGEN--\":10841:10847   */\n      dup3\n        /* \"--CODEGEN--\":10830:10839   */\n      dup10\n        /* \"--CODEGEN--\":10826:10848   */\n      add\n        /* \"--CODEGEN--\":10805:10858   */\n      jump(tag_620)\n    tag_736:\n        /* \"--CODEGEN--\":10795:10858   */\n      swap2\n      pop\n        /* \"--CODEGEN--\":10766:10864   */\n      pop\n        /* \"--CODEGEN--\":10272:10874   */\n      swap3\n      swap6\n      pop\n      swap3\n      swap6\n      swap1\n      swap4\n      pop\n      jump\n        /* \"--CODEGEN--\":10882:11055   */\n    tag_737:\n      0x00\n        /* \"--CODEGEN--\":10969:11015   */\n      tag_739\n        /* \"--CODEGEN--\":11011:11014   */\n      dup4\n        /* \"--CODEGEN--\":11003:11009   */\n      dup4\n        /* \"--CODEGEN--\":10969:11015   */\n      jump(tag_740)\n    tag_739:\n        /* \"--CODEGEN--\":11044:11048   */\n      0x20\n        /* \"--CODEGEN--\":11039:11042   */\n      dup4\n        /* \"--CODEGEN--\":11035:11049   */\n      add\n        /* \"--CODEGEN--\":11021:11049   */\n      swap1\n      pop\n        /* \"--CODEGEN--\":10962:11055   */\n      swap3\n      swap2\n      pop\n      pop\n      jump\n        /* \"--CODEGEN--\":11063:11205   */\n    tag_741:\n        /* \"--CODEGEN--\":11154:11199   */\n      tag_743\n        /* \"--CODEGEN--\":11193:11198   */\n      dup2\n        /* \"--CODEGEN--\":11154:11199   */\n      jump(tag_744)\n    tag_743:\n        /* \"--CODEGEN--\":11149:11152   */\n      dup3\n        /* \"--CODEGEN--\":11142:11200   */\n      mstore\n        /* \"--CODEGEN--\":11136:11205   */\n      pop\n      pop\n      jump\n        /* \"--CODEGEN--\":11212:11315   */\n    tag_740:\n        /* \"--CODEGEN--\":11285:11309   */\n      tag_746\n        /* \"--CODEGEN--\":11303:11308   */\n      dup2\n        /* \"--CODEGEN--\":11285:11309   */\n      jump(tag_747)\n    tag_746:\n        /* \"--CODEGEN--\":11280:11283   */\n      dup3\n        /* \"--CODEGEN--\":11273:11310   */\n      mstore\n        /* \"--CODEGEN--\":11267:11315   */\n      pop\n      pop\n      jump\n        /* \"--CODEGEN--\":11322:11435   */\n    tag_748:\n        /* \"--CODEGEN--\":11405:11429   */\n      tag_750\n        /* \"--CODEGEN--\":11423:11428   */\n      dup2\n        /* \"--CODEGEN--\":11405:11429   */\n      jump(tag_747)\n    tag_750:\n        /* \"--CODEGEN--\":11400:11403   */\n      dup3\n        /* \"--CODEGEN--\":11393:11430   */\n      mstore\n        /* \"--CODEGEN--\":11387:11435   */\n      pop\n      pop\n      jump\n        /* \"--CODEGEN--\":11442:11594   */\n    tag_751:\n        /* \"--CODEGEN--\":11543:11588   */\n      tag_753\n        /* \"--CODEGEN--\":11563:11587   */\n      tag_754\n        /* \"--CODEGEN--\":11581:11586   */\n      dup3\n        /* \"--CODEGEN--\":11563:11587   */\n      jump(tag_747)\n    tag_754:\n        /* \"--CODEGEN--\":11543:11588   */\n      jump(tag_755)\n    tag_753:\n        /* \"--CODEGEN--\":11538:11541   */\n      dup3\n        /* \"--CODEGEN--\":11531:11589   */\n      mstore\n        /* \"--CODEGEN--\":11525:11594   */\n      pop\n      pop\n      jump\n        /* \"--CODEGEN--\":11632:12286   */\n    tag_756:\n      0x00\n        /* \"--CODEGEN--\":11763:11813   */\n      tag_758\n        /* \"--CODEGEN--\":11807:11812   */\n      dup3\n        /* \"--CODEGEN--\":11763:11813   */\n      jump(tag_759)\n    tag_758:\n        /* \"--CODEGEN--\":11826:11902   */\n      tag_760\n        /* \"--CODEGEN--\":11895:11901   */\n      dup2\n        /* \"--CODEGEN--\":11890:11893   */\n      dup6\n        /* \"--CODEGEN--\":11826:11902   */\n      jump(tag_761)\n    tag_760:\n        /* \"--CODEGEN--\":11819:11902   */\n      swap4\n      pop\n        /* \"--CODEGEN--\":11923:11975   */\n      tag_762\n        /* \"--CODEGEN--\":11969:11974   */\n      dup4\n        /* \"--CODEGEN--\":11923:11975   */\n      jump(tag_763)\n    tag_762:\n        /* \"--CODEGEN--\":11995:12002   */\n      dup1\n        /* \"--CODEGEN--\":12023:12024   */\n      0x00\n        /* \"--CODEGEN--\":12008:12264   */\n    tag_764:\n        /* \"--CODEGEN--\":12033:12039   */\n      dup4\n        /* \"--CODEGEN--\":12030:12031   */\n      dup2\n        /* \"--CODEGEN--\":12027:12040   */\n      lt\n        /* \"--CODEGEN--\":12008:12264   */\n      iszero\n      tag_766\n      jumpi\n        /* \"--CODEGEN--\":12100:12106   */\n      dup2\n        /* \"--CODEGEN--\":12094:12107   */\n      mload\n        /* \"--CODEGEN--\":12121:12184   */\n      tag_767\n        /* \"--CODEGEN--\":12180:12183   */\n      dup9\n        /* \"--CODEGEN--\":12165:12178   */\n      dup3\n        /* \"--CODEGEN--\":12121:12184   */\n      jump(tag_737)\n    tag_767:\n        /* \"--CODEGEN--\":12114:12184   */\n      swap8\n      pop\n        /* \"--CODEGEN--\":12201:12257   */\n      tag_768\n        /* \"--CODEGEN--\":12250:12256   */\n      dup4\n        /* \"--CODEGEN--\":12201:12257   */\n      jump(tag_769)\n    tag_768:\n        /* \"--CODEGEN--\":12191:12257   */\n      swap3\n      pop\n        /* \"--CODEGEN--\":12065:12264   */\n      pop\n        /* \"--CODEGEN--\":12055:12056   */\n      0x01\n        /* \"--CODEGEN--\":12052:12053   */\n      dup2\n        /* \"--CODEGEN--\":12048:12057   */\n      add\n        /* \"--CODEGEN--\":12043:12057   */\n      swap1\n      pop\n        /* \"--CODEGEN--\":12008:12264   */\n      jump(tag_764)\n    tag_766:\n        /* \"--CODEGEN--\":12012:12026   */\n      pop\n        /* \"--CODEGEN--\":12277:12280   */\n      dup6\n        /* \"--CODEGEN--\":12270:12280   */\n      swap4\n      pop\n        /* \"--CODEGEN--\":11742:12286   */\n      pop\n      pop\n      pop\n      swap3\n      swap2\n      pop\n      pop\n      jump\n        /* \"--CODEGEN--\":12294:12398   */\n    tag_770:\n        /* \"--CODEGEN--\":12371:12392   */\n      tag_772\n        /* \"--CODEGEN--\":12386:12391   */\n      dup2\n        /* \"--CODEGEN--\":12371:12392   */\n      jump(tag_773)\n    tag_772:\n        /* \"--CODEGEN--\":12366:12369   */\n      dup3\n        /* \"--CODEGEN--\":12359:12393   */\n      mstore\n        /* \"--CODEGEN--\":12353:12398   */\n      pop\n      pop\n      jump\n        /* \"--CODEGEN--\":12405:12508   */\n    tag_774:\n        /* \"--CODEGEN--\":12478:12502   */\n      tag_776\n        /* \"--CODEGEN--\":12496:12501   */\n      dup2\n        /* \"--CODEGEN--\":12478:12502   */\n      jump(tag_777)\n    tag_776:\n        /* \"--CODEGEN--\":12473:12476   */\n      dup3\n        /* \"--CODEGEN--\":12466:12503   */\n      mstore\n        /* \"--CODEGEN--\":12460:12508   */\n      pop\n      pop\n      jump\n        /* \"--CODEGEN--\":12515:12628   */\n    tag_778:\n        /* \"--CODEGEN--\":12598:12622   */\n      tag_780\n        /* \"--CODEGEN--\":12616:12621   */\n      dup2\n        /* \"--CODEGEN--\":12598:12622   */\n      jump(tag_777)\n    tag_780:\n        /* \"--CODEGEN--\":12593:12596   */\n      dup3\n        /* \"--CODEGEN--\":12586:12623   */\n      mstore\n        /* \"--CODEGEN--\":12580:12628   */\n      pop\n      pop\n      jump\n        /* \"--CODEGEN--\":12635:12745   */\n    tag_781:\n        /* \"--CODEGEN--\":12716:12739   */\n      tag_783\n        /* \"--CODEGEN--\":12733:12738   */\n      dup2\n        /* \"--CODEGEN--\":12716:12739   */\n      jump(tag_784)\n    tag_783:\n        /* \"--CODEGEN--\":12711:12714   */\n      dup3\n        /* \"--CODEGEN--\":12704:12740   */\n      mstore\n        /* \"--CODEGEN--\":12698:12745   */\n      pop\n      pop\n      jump\n        /* \"--CODEGEN--\":12775:13072   */\n    tag_785:\n      0x00\n        /* \"--CODEGEN--\":12889:12959   */\n      tag_787\n        /* \"--CODEGEN--\":12952:12958   */\n      dup4\n        /* \"--CODEGEN--\":12947:12950   */\n      dup6\n        /* \"--CODEGEN--\":12889:12959   */\n      jump(tag_788)\n    tag_787:\n        /* \"--CODEGEN--\":12882:12959   */\n      swap4\n      pop\n        /* \"--CODEGEN--\":12971:13014   */\n      tag_789\n        /* \"--CODEGEN--\":13007:13013   */\n      dup4\n        /* \"--CODEGEN--\":13002:13005   */\n      dup6\n        /* \"--CODEGEN--\":12995:13000   */\n      dup5\n        /* \"--CODEGEN--\":12971:13014   */\n      jump(tag_790)\n    tag_789:\n        /* \"--CODEGEN--\":13036:13065   */\n      tag_791\n        /* \"--CODEGEN--\":13058:13064   */\n      dup4\n        /* \"--CODEGEN--\":13036:13065   */\n      jump(tag_792)\n    tag_791:\n        /* \"--CODEGEN--\":13031:13034   */\n      dup5\n        /* \"--CODEGEN--\":13027:13066   */\n      add\n        /* \"--CODEGEN--\":13020:13066   */\n      swap1\n      pop\n        /* \"--CODEGEN--\":12875:13072   */\n      swap4\n      swap3\n      pop\n      pop\n      pop\n      jump\n        /* \"--CODEGEN--\":13103:13413   */\n    tag_793:\n      0x00\n        /* \"--CODEGEN--\":13235:13323   */\n      tag_795\n        /* \"--CODEGEN--\":13316:13322   */\n      dup4\n        /* \"--CODEGEN--\":13311:13314   */\n      dup6\n        /* \"--CODEGEN--\":13235:13323   */\n      jump(tag_796)\n    tag_795:\n        /* \"--CODEGEN--\":13228:13323   */\n      swap4\n      pop\n        /* \"--CODEGEN--\":13335:13378   */\n      tag_797\n        /* \"--CODEGEN--\":13371:13377   */\n      dup4\n        /* \"--CODEGEN--\":13366:13369   */\n      dup6\n        /* \"--CODEGEN--\":13359:13364   */\n      dup5\n        /* \"--CODEGEN--\":13335:13378   */\n      jump(tag_790)\n    tag_797:\n        /* \"--CODEGEN--\":13400:13406   */\n      dup3\n        /* \"--CODEGEN--\":13395:13398   */\n      dup5\n        /* \"--CODEGEN--\":13391:13407   */\n      add\n        /* \"--CODEGEN--\":13384:13407   */\n      swap1\n      pop\n        /* \"--CODEGEN--\":13221:13413   */\n      swap4\n      swap3\n      pop\n      pop\n      pop\n      jump\n        /* \"--CODEGEN--\":13421:13756   */\n    tag_798:\n      0x00\n        /* \"--CODEGEN--\":13527:13561   */\n      tag_800\n        /* \"--CODEGEN--\":13555:13560   */\n      dup3\n        /* \"--CODEGEN--\":13527:13561   */\n      jump(tag_801)\n    tag_800:\n        /* \"--CODEGEN--\":13573:13643   */\n      tag_802\n        /* \"--CODEGEN--\":13636:13642   */\n      dup2\n        /* \"--CODEGEN--\":13631:13634   */\n      dup6\n        /* \"--CODEGEN--\":13573:13643   */\n      jump(tag_788)\n    tag_802:\n        /* \"--CODEGEN--\":13566:13643   */\n      swap4\n      pop\n        /* \"--CODEGEN--\":13648:13700   */\n      tag_803\n        /* \"--CODEGEN--\":13693:13699   */\n      dup2\n        /* \"--CODEGEN--\":13688:13691   */\n      dup6\n        /* \"--CODEGEN--\":13681:13685   */\n      0x20\n        /* \"--CODEGEN--\":13674:13679   */\n      dup7\n        /* \"--CODEGEN--\":13670:13686   */\n      add\n        /* \"--CODEGEN--\":13648:13700   */\n      jump(tag_804)\n    tag_803:\n        /* \"--CODEGEN--\":13721:13750   */\n      tag_805\n        /* \"--CODEGEN--\":13743:13749   */\n      dup2\n        /* \"--CODEGEN--\":13721:13750   */\n      jump(tag_792)\n    tag_805:\n        /* \"--CODEGEN--\":13716:13719   */\n      dup5\n        /* \"--CODEGEN--\":13712:13751   */\n      add\n        /* \"--CODEGEN--\":13705:13751   */\n      swap2\n      pop\n        /* \"--CODEGEN--\":13507:13756   */\n      pop\n      swap3\n      swap2\n      pop\n      pop\n      jump\n        /* \"--CODEGEN--\":13763:13909   */\n    tag_806:\n        /* \"--CODEGEN--\":13851:13903   */\n      tag_808\n        /* \"--CODEGEN--\":13897:13902   */\n      dup2\n        /* \"--CODEGEN--\":13851:13903   */\n      jump(tag_809)\n    tag_808:\n        /* \"--CODEGEN--\":13846:13849   */\n      dup3\n        /* \"--CODEGEN--\":13839:13904   */\n      mstore\n        /* \"--CODEGEN--\":13833:13909   */\n      pop\n      pop\n      jump\n        /* \"--CODEGEN--\":13916:14072   */\n    tag_810:\n        /* \"--CODEGEN--\":14014:14066   */\n      tag_812\n        /* \"--CODEGEN--\":14060:14065   */\n      dup2\n        /* \"--CODEGEN--\":14014:14066   */\n      jump(tag_809)\n    tag_812:\n        /* \"--CODEGEN--\":14009:14012   */\n      dup3\n        /* \"--CODEGEN--\":14002:14067   */\n      mstore\n        /* \"--CODEGEN--\":13996:14072   */\n      pop\n      pop\n      jump\n        /* \"--CODEGEN--\":14079:14426   */\n    tag_813:\n      0x00\n        /* \"--CODEGEN--\":14191:14230   */\n      tag_815\n        /* \"--CODEGEN--\":14224:14229   */\n      dup3\n        /* \"--CODEGEN--\":14191:14230   */\n      jump(tag_816)\n    tag_815:\n        /* \"--CODEGEN--\":14242:14313   */\n      tag_817\n        /* \"--CODEGEN--\":14306:14312   */\n      dup2\n        /* \"--CODEGEN--\":14301:14304   */\n      dup6\n        /* \"--CODEGEN--\":14242:14313   */\n      jump(tag_818)\n    tag_817:\n        /* \"--CODEGEN--\":14235:14313   */\n      swap4\n      pop\n        /* \"--CODEGEN--\":14318:14370   */\n      tag_819\n        /* \"--CODEGEN--\":14363:14369   */\n      dup2\n        /* \"--CODEGEN--\":14358:14361   */\n      dup6\n        /* \"--CODEGEN--\":14351:14355   */\n      0x20\n        /* \"--CODEGEN--\":14344:14349   */\n      dup7\n        /* \"--CODEGEN--\":14340:14356   */\n      add\n        /* \"--CODEGEN--\":14318:14370   */\n      jump(tag_804)\n    tag_819:\n        /* \"--CODEGEN--\":14391:14420   */\n      tag_820\n        /* \"--CODEGEN--\":14413:14419   */\n      dup2\n        /* \"--CODEGEN--\":14391:14420   */\n      jump(tag_792)\n    tag_820:\n        /* \"--CODEGEN--\":14386:14389   */\n      dup5\n        /* \"--CODEGEN--\":14382:14421   */\n      add\n        /* \"--CODEGEN--\":14375:14421   */\n      swap2\n      pop\n        /* \"--CODEGEN--\":14171:14426   */\n      pop\n      swap3\n      swap2\n      pop\n      pop\n      jump\n        /* \"--CODEGEN--\":14434:14762   */\n    tag_821:\n      0x00\n        /* \"--CODEGEN--\":14594:14661   */\n      tag_823\n        /* \"--CODEGEN--\":14658:14660   */\n      0x1c\n        /* \"--CODEGEN--\":14653:14656   */\n      dup4\n        /* \"--CODEGEN--\":14594:14661   */\n      jump(tag_818)\n    tag_823:\n        /* \"--CODEGEN--\":14587:14661   */\n      swap2\n      pop\n        /* \"--CODEGEN--\":14694:14724   */\n      0x70726f706f73616c20616c7265616479207472616e7366657272656400000000\n        /* \"--CODEGEN--\":14690:14691   */\n      0x00\n        /* \"--CODEGEN--\":14685:14688   */\n      dup4\n        /* \"--CODEGEN--\":14681:14692   */\n      add\n        /* \"--CODEGEN--\":14674:14725   */\n      mstore\n        /* \"--CODEGEN--\":14753:14755   */\n      0x20\n        /* \"--CODEGEN--\":14748:14751   */\n      dup3\n        /* \"--CODEGEN--\":14744:14756   */\n      add\n        /* \"--CODEGEN--\":14737:14756   */\n      swap1\n      pop\n        /* \"--CODEGEN--\":14580:14762   */\n      swap2\n      swap1\n      pop\n      jump\n        /* \"--CODEGEN--\":14771:15093   */\n    tag_824:\n      0x00\n        /* \"--CODEGEN--\":14931:14998   */\n      tag_826\n        /* \"--CODEGEN--\":14995:14997   */\n      0x16\n        /* \"--CODEGEN--\":14990:14993   */\n      dup4\n        /* \"--CODEGEN--\":14931:14998   */\n      jump(tag_818)\n    tag_826:\n        /* \"--CODEGEN--\":14924:14998   */\n      swap2\n      pop\n        /* \"--CODEGEN--\":15031:15055   */\n      0x70726f706f73616c206973206e6f742061637469766500000000000000000000\n        /* \"--CODEGEN--\":15027:15028   */\n      0x00\n        /* \"--CODEGEN--\":15022:15025   */\n      dup4\n        /* \"--CODEGEN--\":15018:15029   */\n      add\n        /* \"--CODEGEN--\":15011:15056   */\n      mstore\n        /* \"--CODEGEN--\":15084:15086   */\n      0x20\n        /* \"--CODEGEN--\":15079:15082   */\n      dup3\n        /* \"--CODEGEN--\":15075:15087   */\n      add\n        /* \"--CODEGEN--\":15068:15087   */\n      swap1\n      pop\n        /* \"--CODEGEN--\":14917:15093   */\n      swap2\n      swap1\n      pop\n      jump\n        /* \"--CODEGEN--\":15102:15473   */\n    tag_827:\n      0x00\n        /* \"--CODEGEN--\":15262:15329   */\n      tag_829\n        /* \"--CODEGEN--\":15326:15328   */\n      0x22\n        /* \"--CODEGEN--\":15321:15324   */\n      dup4\n        /* \"--CODEGEN--\":15262:15329   */\n      jump(tag_818)\n    tag_829:\n        /* \"--CODEGEN--\":15255:15329   */\n      swap2\n      pop\n        /* \"--CODEGEN--\":15362:15396   */\n      0x456e756d657261626c655365743a20696e646578206f7574206f6620626f756e\n        /* \"--CODEGEN--\":15358:15359   */\n      0x00\n        /* \"--CODEGEN--\":15353:15356   */\n      dup4\n        /* \"--CODEGEN--\":15349:15360   */\n      add\n        /* \"--CODEGEN--\":15342:15397   */\n      mstore\n        /* \"--CODEGEN--\":15431:15435   */\n      0x6473000000000000000000000000000000000000000000000000000000000000\n        /* \"--CODEGEN--\":15426:15428   */\n      0x20\n        /* \"--CODEGEN--\":15421:15424   */\n      dup4\n        /* \"--CODEGEN--\":15417:15429   */\n      add\n        /* \"--CODEGEN--\":15410:15436   */\n      mstore\n        /* \"--CODEGEN--\":15464:15466   */\n      0x40\n        /* \"--CODEGEN--\":15459:15462   */\n      dup3\n        /* \"--CODEGEN--\":15455:15467   */\n      add\n        /* \"--CODEGEN--\":15448:15467   */\n      swap1\n      pop\n        /* \"--CODEGEN--\":15248:15473   */\n      swap2\n      swap1\n      pop\n      jump\n        /* \"--CODEGEN--\":15482:15812   */\n    tag_830:\n      0x00\n        /* \"--CODEGEN--\":15642:15709   */\n      tag_832\n        /* \"--CODEGEN--\":15706:15708   */\n      0x1e\n        /* \"--CODEGEN--\":15701:15704   */\n      dup4\n        /* \"--CODEGEN--\":15642:15709   */\n      jump(tag_818)\n    tag_832:\n        /* \"--CODEGEN--\":15635:15709   */\n      swap2\n      pop\n        /* \"--CODEGEN--\":15742:15774   */\n      0x73656e646572206973206e6f742072656c61796572206f722061646d696e0000\n        /* \"--CODEGEN--\":15738:15739   */\n      0x00\n        /* \"--CODEGEN--\":15733:15736   */\n      dup4\n        /* \"--CODEGEN--\":15729:15740   */\n      add\n        /* \"--CODEGEN--\":15722:15775   */\n      mstore\n        /* \"--CODEGEN--\":15803:15805   */\n      0x20\n        /* \"--CODEGEN--\":15798:15801   */\n      dup3\n        /* \"--CODEGEN--\":15794:15806   */\n      add\n        /* \"--CODEGEN--\":15787:15806   */\n      swap1\n      pop\n        /* \"--CODEGEN--\":15628:15812   */\n      swap2\n      swap1\n      pop\n      jump\n        /* \"--CODEGEN--\":15821:16205   */\n    tag_833:\n      0x00\n        /* \"--CODEGEN--\":15981:16048   */\n      tag_835\n        /* \"--CODEGEN--\":16045:16047   */\n      0x2f\n        /* \"--CODEGEN--\":16040:16043   */\n      dup4\n        /* \"--CODEGEN--\":15981:16048   */\n      jump(tag_818)\n    tag_835:\n        /* \"--CODEGEN--\":15974:16048   */\n      swap2\n      pop\n        /* \"--CODEGEN--\":16081:16115   */\n      0x416363657373436f6e74726f6c3a2073656e646572206d75737420626520616e\n        /* \"--CODEGEN--\":16077:16078   */\n      0x00\n        /* \"--CODEGEN--\":16072:16075   */\n      dup4\n        /* \"--CODEGEN--\":16068:16079   */\n      add\n        /* \"--CODEGEN--\":16061:16116   */\n      mstore\n        /* \"--CODEGEN--\":16150:16167   */\n      0x2061646d696e20746f206772616e740000000000000000000000000000000000\n        /* \"--CODEGEN--\":16145:16147   */\n      0x20\n        /* \"--CODEGEN--\":16140:16143   */\n      dup4\n        /* \"--CODEGEN--\":16136:16148   */\n      add\n        /* \"--CODEGEN--\":16129:16168   */\n      mstore\n        /* \"--CODEGEN--\":16196:16198   */\n      0x40\n        /* \"--CODEGEN--\":16191:16194   */\n      dup3\n        /* \"--CODEGEN--\":16187:16199   */\n      add\n        /* \"--CODEGEN--\":16180:16199   */\n      swap1\n      pop\n        /* \"--CODEGEN--\":15967:16205   */\n      swap2\n      swap1\n      pop\n      jump\n        /* \"--CODEGEN--\":16214:16535   */\n    tag_836:\n      0x00\n        /* \"--CODEGEN--\":16374:16441   */\n      tag_838\n        /* \"--CODEGEN--\":16438:16440   */\n      0x15\n        /* \"--CODEGEN--\":16433:16436   */\n      dup4\n        /* \"--CODEGEN--\":16374:16441   */\n      jump(tag_818)\n    tag_838:\n        /* \"--CODEGEN--\":16367:16441   */\n      swap2\n      pop\n        /* \"--CODEGEN--\":16474:16497   */\n      0x72656c6179657220616c726561647920766f7465640000000000000000000000\n        /* \"--CODEGEN--\":16470:16471   */\n      0x00\n        /* \"--CODEGEN--\":16465:16468   */\n      dup4\n        /* \"--CODEGEN--\":16461:16472   */\n      add\n        /* \"--CODEGEN--\":16454:16498   */\n      mstore\n        /* \"--CODEGEN--\":16526:16528   */\n      0x20\n        /* \"--CODEGEN--\":16521:16524   */\n      dup3\n        /* \"--CODEGEN--\":16517:16529   */\n      add\n        /* \"--CODEGEN--\":16510:16529   */\n      swap1\n      pop\n        /* \"--CODEGEN--\":16360:16535   */\n      swap2\n      swap1\n      pop\n      jump\n        /* \"--CODEGEN--\":16544:16864   */\n    tag_839:\n      0x00\n        /* \"--CODEGEN--\":16704:16771   */\n      tag_841\n        /* \"--CODEGEN--\":16768:16770   */\n      0x14\n        /* \"--CODEGEN--\":16763:16766   */\n      dup4\n        /* \"--CODEGEN--\":16704:16771   */\n      jump(tag_818)\n    tag_841:\n        /* \"--CODEGEN--\":16697:16771   */\n      swap2\n      pop\n        /* \"--CODEGEN--\":16804:16826   */\n      0x5061757361626c653a206e6f7420706175736564000000000000000000000000\n        /* \"--CODEGEN--\":16800:16801   */\n      0x00\n        /* \"--CODEGEN--\":16795:16798   */\n      dup4\n        /* \"--CODEGEN--\":16791:16802   */\n      add\n        /* \"--CODEGEN--\":16784:16827   */\n      mstore\n        /* \"--CODEGEN--\":16855:16857   */\n      0x20\n        /* \"--CODEGEN--\":16850:16853   */\n      dup3\n        /* \"--CODEGEN--\":16846:16858   */\n      add\n        /* \"--CODEGEN--\":16839:16858   */\n      swap1\n      pop\n        /* \"--CODEGEN--\":16690:16864   */\n      swap2\n      swap1\n      pop\n      jump\n        /* \"--CODEGEN--\":16873:17204   */\n    tag_842:\n      0x00\n        /* \"--CODEGEN--\":17033:17100   */\n      tag_844\n        /* \"--CODEGEN--\":17097:17099   */\n      0x1f\n        /* \"--CODEGEN--\":17092:17095   */\n      dup4\n        /* \"--CODEGEN--\":17033:17100   */\n      jump(tag_818)\n    tag_844:\n        /* \"--CODEGEN--\":17026:17100   */\n      swap2\n      pop\n        /* \"--CODEGEN--\":17133:17166   */\n      0x6164647220646f65736e277420686176652072656c6179657220726f6c652100\n        /* \"--CODEGEN--\":17129:17130   */\n      0x00\n        /* \"--CODEGEN--\":17124:17127   */\n      dup4\n        /* \"--CODEGEN--\":17120:17131   */\n      add\n        /* \"--CODEGEN--\":17113:17167   */\n      mstore\n        /* \"--CODEGEN--\":17195:17197   */\n      0x20\n        /* \"--CODEGEN--\":17190:17193   */\n      dup3\n        /* \"--CODEGEN--\":17186:17198   */\n      add\n        /* \"--CODEGEN--\":17179:17198   */\n      swap1\n      pop\n        /* \"--CODEGEN--\":17019:17204   */\n      swap2\n      swap1\n      pop\n      jump\n        /* \"--CODEGEN--\":17213:17535   */\n    tag_845:\n      0x00\n        /* \"--CODEGEN--\":17373:17440   */\n      tag_847\n        /* \"--CODEGEN--\":17437:17439   */\n      0x16\n        /* \"--CODEGEN--\":17432:17435   */\n      dup4\n        /* \"--CODEGEN--\":17373:17440   */\n      jump(tag_818)\n    tag_847:\n        /* \"--CODEGEN--\":17366:17440   */\n      swap2\n      pop\n        /* \"--CODEGEN--\":17473:17497   */\n      0x496e636f72726563742066656520737570706c69656400000000000000000000\n        /* \"--CODEGEN--\":17469:17470   */\n      0x00\n        /* \"--CODEGEN--\":17464:17467   */\n      dup4\n        /* \"--CODEGEN--\":17460:17471   */\n      add\n        /* \"--CODEGEN--\":17453:17498   */\n      mstore\n        /* \"--CODEGEN--\":17526:17528   */\n      0x20\n        /* \"--CODEGEN--\":17521:17524   */\n      dup3\n        /* \"--CODEGEN--\":17517:17529   */\n      add\n        /* \"--CODEGEN--\":17510:17529   */\n      swap1\n      pop\n        /* \"--CODEGEN--\":17359:17535   */\n      swap2\n      swap1\n      pop\n      jump\n        /* \"--CODEGEN--\":17544:17871   */\n    tag_848:\n      0x00\n        /* \"--CODEGEN--\":17704:17771   */\n      tag_850\n        /* \"--CODEGEN--\":17768:17770   */\n      0x1b\n        /* \"--CODEGEN--\":17763:17766   */\n      dup4\n        /* \"--CODEGEN--\":17704:17771   */\n      jump(tag_818)\n    tag_850:\n        /* \"--CODEGEN--\":17697:17771   */\n      swap2\n      pop\n        /* \"--CODEGEN--\":17804:17833   */\n      0x6461746120646f65736e2774206d617463682064617461686173680000000000\n        /* \"--CODEGEN--\":17800:17801   */\n      0x00\n        /* \"--CODEGEN--\":17795:17798   */\n      dup4\n        /* \"--CODEGEN--\":17791:17802   */\n      add\n        /* \"--CODEGEN--\":17784:17834   */\n      mstore\n        /* \"--CODEGEN--\":17862:17864   */\n      0x20\n        /* \"--CODEGEN--\":17857:17860   */\n      dup3\n        /* \"--CODEGEN--\":17853:17865   */\n      add\n        /* \"--CODEGEN--\":17846:17865   */\n      swap1\n      pop\n        /* \"--CODEGEN--\":17690:17871   */\n      swap2\n      swap1\n      pop\n      jump\n        /* \"--CODEGEN--\":17880:18206   */\n    tag_851:\n      0x00\n        /* \"--CODEGEN--\":18040:18107   */\n      tag_853\n        /* \"--CODEGEN--\":18104:18106   */\n      0x1a\n        /* \"--CODEGEN--\":18099:18102   */\n      dup4\n        /* \"--CODEGEN--\":18040:18107   */\n      jump(tag_818)\n    tag_853:\n        /* \"--CODEGEN--\":18033:18107   */\n      swap2\n      pop\n        /* \"--CODEGEN--\":18140:18168   */\n      0x50726f706f73616c20616c72656164792063616e63656c6c6564000000000000\n        /* \"--CODEGEN--\":18136:18137   */\n      0x00\n        /* \"--CODEGEN--\":18131:18134   */\n      dup4\n        /* \"--CODEGEN--\":18127:18138   */\n      add\n        /* \"--CODEGEN--\":18120:18169   */\n      mstore\n        /* \"--CODEGEN--\":18197:18199   */\n      0x20\n        /* \"--CODEGEN--\":18192:18195   */\n      dup3\n        /* \"--CODEGEN--\":18188:18200   */\n      add\n        /* \"--CODEGEN--\":18181:18200   */\n      swap1\n      pop\n        /* \"--CODEGEN--\":18026:18206   */\n      swap2\n      swap1\n      pop\n      jump\n        /* \"--CODEGEN--\":18215:18547   */\n    tag_854:\n      0x00\n        /* \"--CODEGEN--\":18375:18442   */\n      tag_856\n        /* \"--CODEGEN--\":18439:18441   */\n      0x20\n        /* \"--CODEGEN--\":18434:18437   */\n      dup4\n        /* \"--CODEGEN--\":18375:18442   */\n      jump(tag_818)\n    tag_856:\n        /* \"--CODEGEN--\":18368:18442   */\n      swap2\n      pop\n        /* \"--CODEGEN--\":18475:18509   */\n      0x7265736f757263654944206e6f74206d617070656420746f2068616e646c6572\n        /* \"--CODEGEN--\":18471:18472   */\n      0x00\n        /* \"--CODEGEN--\":18466:18469   */\n      dup4\n        /* \"--CODEGEN--\":18462:18473   */\n      add\n        /* \"--CODEGEN--\":18455:18510   */\n      mstore\n        /* \"--CODEGEN--\":18538:18540   */\n      0x20\n        /* \"--CODEGEN--\":18533:18536   */\n      dup3\n        /* \"--CODEGEN--\":18529:18541   */\n      add\n        /* \"--CODEGEN--\":18522:18541   */\n      swap1\n      pop\n        /* \"--CODEGEN--\":18361:18547   */\n      swap2\n      swap1\n      pop\n      jump\n        /* \"--CODEGEN--\":18556:18941   */\n    tag_857:\n      0x00\n        /* \"--CODEGEN--\":18716:18783   */\n      tag_859\n        /* \"--CODEGEN--\":18780:18782   */\n      0x30\n        /* \"--CODEGEN--\":18775:18778   */\n      dup4\n        /* \"--CODEGEN--\":18716:18783   */\n      jump(tag_818)\n    tag_859:\n        /* \"--CODEGEN--\":18709:18783   */\n      swap2\n      pop\n        /* \"--CODEGEN--\":18816:18850   */\n      0x416363657373436f6e74726f6c3a2073656e646572206d75737420626520616e\n        /* \"--CODEGEN--\":18812:18813   */\n      0x00\n        /* \"--CODEGEN--\":18807:18810   */\n      dup4\n        /* \"--CODEGEN--\":18803:18814   */\n      add\n        /* \"--CODEGEN--\":18796:18851   */\n      mstore\n        /* \"--CODEGEN--\":18885:18903   */\n      0x2061646d696e20746f207265766f6b6500000000000000000000000000000000\n        /* \"--CODEGEN--\":18880:18882   */\n      0x20\n        /* \"--CODEGEN--\":18875:18878   */\n      dup4\n        /* \"--CODEGEN--\":18871:18883   */\n      add\n        /* \"--CODEGEN--\":18864:18904   */\n      mstore\n        /* \"--CODEGEN--\":18932:18934   */\n      0x40\n        /* \"--CODEGEN--\":18927:18930   */\n      dup3\n        /* \"--CODEGEN--\":18923:18935   */\n      add\n        /* \"--CODEGEN--\":18916:18935   */\n      swap1\n      pop\n        /* \"--CODEGEN--\":18702:18941   */\n      swap2\n      swap1\n      pop\n      jump\n        /* \"--CODEGEN--\":18950:19282   */\n    tag_860:\n      0x00\n        /* \"--CODEGEN--\":19110:19177   */\n      tag_862\n        /* \"--CODEGEN--\":19174:19176   */\n      0x20\n        /* \"--CODEGEN--\":19169:19172   */\n      dup4\n        /* \"--CODEGEN--\":19110:19177   */\n      jump(tag_818)\n    tag_862:\n        /* \"--CODEGEN--\":19103:19177   */\n      swap2\n      pop\n        /* \"--CODEGEN--\":19210:19244   */\n      0x50726f706f73616c206e6f7420617420657870697279207468726573686f6c64\n        /* \"--CODEGEN--\":19206:19207   */\n      0x00\n        /* \"--CODEGEN--\":19201:19204   */\n      dup4\n        /* \"--CODEGEN--\":19197:19208   */\n      add\n        /* \"--CODEGEN--\":19190:19245   */\n      mstore\n        /* \"--CODEGEN--\":19273:19275   */\n      0x20\n        /* \"--CODEGEN--\":19268:19271   */\n      dup3\n        /* \"--CODEGEN--\":19264:19276   */\n      add\n        /* \"--CODEGEN--\":19257:19276   */\n      swap1\n      pop\n        /* \"--CODEGEN--\":19096:19282   */\n      swap2\n      swap1\n      pop\n      jump\n        /* \"--CODEGEN--\":19291:19607   */\n    tag_863:\n      0x00\n        /* \"--CODEGEN--\":19451:19518   */\n      tag_865\n        /* \"--CODEGEN--\":19515:19517   */\n      0x10\n        /* \"--CODEGEN--\":19510:19513   */\n      dup4\n        /* \"--CODEGEN--\":19451:19518   */\n      jump(tag_818)\n    tag_865:\n        /* \"--CODEGEN--\":19444:19518   */\n      swap2\n      pop\n        /* \"--CODEGEN--\":19551:19569   */\n      0x5061757361626c653a2070617573656400000000000000000000000000000000\n        /* \"--CODEGEN--\":19547:19548   */\n      0x00\n        /* \"--CODEGEN--\":19542:19545   */\n      dup4\n        /* \"--CODEGEN--\":19538:19549   */\n      add\n        /* \"--CODEGEN--\":19531:19570   */\n      mstore\n        /* \"--CODEGEN--\":19598:19600   */\n      0x20\n        /* \"--CODEGEN--\":19593:19596   */\n      dup3\n        /* \"--CODEGEN--\":19589:19601   */\n      add\n        /* \"--CODEGEN--\":19582:19601   */\n      swap1\n      pop\n        /* \"--CODEGEN--\":19437:19607   */\n      swap2\n      swap1\n      pop\n      jump\n        /* \"--CODEGEN--\":19616:19946   */\n    tag_866:\n      0x00\n        /* \"--CODEGEN--\":19776:19843   */\n      tag_868\n        /* \"--CODEGEN--\":19840:19842   */\n      0x1e\n        /* \"--CODEGEN--\":19835:19838   */\n      dup4\n        /* \"--CODEGEN--\":19776:19843   */\n      jump(tag_818)\n    tag_868:\n        /* \"--CODEGEN--\":19769:19843   */\n      swap2\n      pop\n        /* \"--CODEGEN--\":19876:19908   */\n      0x6164647220616c7265616479206861732072656c6179657220726f6c65210000\n        /* \"--CODEGEN--\":19872:19873   */\n      0x00\n        /* \"--CODEGEN--\":19867:19870   */\n      dup4\n        /* \"--CODEGEN--\":19863:19874   */\n      add\n        /* \"--CODEGEN--\":19856:19909   */\n      mstore\n        /* \"--CODEGEN--\":19937:19939   */\n      0x20\n        /* \"--CODEGEN--\":19932:19935   */\n      dup3\n        /* \"--CODEGEN--\":19928:19940   */\n      add\n        /* \"--CODEGEN--\":19921:19940   */\n      swap1\n      pop\n        /* \"--CODEGEN--\":19762:19946   */\n      swap2\n      swap1\n      pop\n      jump\n        /* \"--CODEGEN--\":19955:20334   */\n    tag_869:\n      0x00\n        /* \"--CODEGEN--\":20115:20182   */\n      tag_871\n        /* \"--CODEGEN--\":20179:20181   */\n      0x2a\n        /* \"--CODEGEN--\":20174:20177   */\n      dup4\n        /* \"--CODEGEN--\":20115:20182   */\n      jump(tag_818)\n    tag_871:\n        /* \"--CODEGEN--\":20108:20182   */\n      swap2\n      pop\n        /* \"--CODEGEN--\":20215:20249   */\n      0x70726f706f73616c20616c7265616479207061737365642f6578656375746564\n        /* \"--CODEGEN--\":20211:20212   */\n      0x00\n        /* \"--CODEGEN--\":20206:20209   */\n      dup4\n        /* \"--CODEGEN--\":20202:20213   */\n      add\n        /* \"--CODEGEN--\":20195:20250   */\n      mstore\n        /* \"--CODEGEN--\":20284:20296   */\n      0x2f63616e63656c6c656400000000000000000000000000000000000000000000\n        /* \"--CODEGEN--\":20279:20281   */\n      0x20\n        /* \"--CODEGEN--\":20274:20277   */\n      dup4\n        /* \"--CODEGEN--\":20270:20282   */\n      add\n        /* \"--CODEGEN--\":20263:20297   */\n      mstore\n        /* \"--CODEGEN--\":20325:20327   */\n      0x40\n        /* \"--CODEGEN--\":20320:20323   */\n      dup3\n        /* \"--CODEGEN--\":20316:20328   */\n      add\n        /* \"--CODEGEN--\":20309:20328   */\n      swap1\n      pop\n        /* \"--CODEGEN--\":20101:20334   */\n      swap2\n      swap1\n      pop\n      jump\n        /* \"--CODEGEN--\":20343:20675   */\n    tag_872:\n      0x00\n        /* \"--CODEGEN--\":20503:20570   */\n      tag_874\n        /* \"--CODEGEN--\":20567:20569   */\n      0x20\n        /* \"--CODEGEN--\":20562:20565   */\n      dup4\n        /* \"--CODEGEN--\":20503:20570   */\n      jump(tag_818)\n    tag_874:\n        /* \"--CODEGEN--\":20496:20570   */\n      swap2\n      pop\n        /* \"--CODEGEN--\":20603:20637   */\n      0x73656e64657220646f65736e277420686176652072656c6179657220726f6c65\n        /* \"--CODEGEN--\":20599:20600   */\n      0x00\n        /* \"--CODEGEN--\":20594:20597   */\n      dup4\n        /* \"--CODEGEN--\":20590:20601   */\n      add\n        /* \"--CODEGEN--\":20583:20638   */\n      mstore\n        /* \"--CODEGEN--\":20666:20668   */\n      0x20\n        /* \"--CODEGEN--\":20661:20664   */\n      dup3\n        /* \"--CODEGEN--\":20657:20669   */\n      add\n        /* \"--CODEGEN--\":20650:20669   */\n      swap1\n      pop\n        /* \"--CODEGEN--\":20489:20675   */\n      swap2\n      swap1\n      pop\n      jump\n        /* \"--CODEGEN--\":20684:21014   */\n    tag_875:\n      0x00\n        /* \"--CODEGEN--\":20844:20911   */\n      tag_877\n        /* \"--CODEGEN--\":20908:20910   */\n      0x1e\n        /* \"--CODEGEN--\":20903:20906   */\n      dup4\n        /* \"--CODEGEN--\":20844:20911   */\n      jump(tag_818)\n    tag_877:\n        /* \"--CODEGEN--\":20837:20911   */\n      swap2\n      pop\n        /* \"--CODEGEN--\":20944:20976   */\n      0x73656e64657220646f65736e277420686176652061646d696e20726f6c650000\n        /* \"--CODEGEN--\":20940:20941   */\n      0x00\n        /* \"--CODEGEN--\":20935:20938   */\n      dup4\n        /* \"--CODEGEN--\":20931:20942   */\n      add\n        /* \"--CODEGEN--\":20924:20977   */\n      mstore\n        /* \"--CODEGEN--\":21005:21007   */\n      0x20\n        /* \"--CODEGEN--\":21000:21003   */\n      dup3\n        /* \"--CODEGEN--\":20996:21008   */\n      add\n        /* \"--CODEGEN--\":20989:21008   */\n      swap1\n      pop\n        /* \"--CODEGEN--\":20830:21014   */\n      swap2\n      swap1\n      pop\n      jump\n        /* \"--CODEGEN--\":21023:21354   */\n    tag_878:\n      0x00\n        /* \"--CODEGEN--\":21183:21250   */\n      tag_880\n        /* \"--CODEGEN--\":21247:21249   */\n      0x1f\n        /* \"--CODEGEN--\":21242:21245   */\n      dup4\n        /* \"--CODEGEN--\":21183:21250   */\n      jump(tag_818)\n    tag_880:\n        /* \"--CODEGEN--\":21176:21250   */\n      swap2\n      pop\n        /* \"--CODEGEN--\":21283:21316   */\n      0x43757272656e742066656520697320657175616c20746f206e65772066656500\n        /* \"--CODEGEN--\":21279:21280   */\n      0x00\n        /* \"--CODEGEN--\":21274:21277   */\n      dup4\n        /* \"--CODEGEN--\":21270:21281   */\n      add\n        /* \"--CODEGEN--\":21263:21317   */\n      mstore\n        /* \"--CODEGEN--\":21345:21347   */\n      0x20\n        /* \"--CODEGEN--\":21340:21343   */\n      dup3\n        /* \"--CODEGEN--\":21336:21348   */\n      add\n        /* \"--CODEGEN--\":21329:21348   */\n      swap1\n      pop\n        /* \"--CODEGEN--\":21169:21354   */\n      swap2\n      swap1\n      pop\n      jump\n        /* \"--CODEGEN--\":21363:21711   */\n    tag_881:\n      0x00\n        /* \"--CODEGEN--\":21541:21626   */\n      tag_883\n        /* \"--CODEGEN--\":21623:21625   */\n      0x0c\n        /* \"--CODEGEN--\":21618:21621   */\n      dup4\n        /* \"--CODEGEN--\":21541:21626   */\n      jump(tag_884)\n    tag_883:\n        /* \"--CODEGEN--\":21534:21626   */\n      swap2\n      pop\n        /* \"--CODEGEN--\":21659:21673   */\n      0x52454c415945525f524f4c450000000000000000000000000000000000000000\n        /* \"--CODEGEN--\":21655:21656   */\n      0x00\n        /* \"--CODEGEN--\":21650:21653   */\n      dup4\n        /* \"--CODEGEN--\":21646:21657   */\n      add\n        /* \"--CODEGEN--\":21639:21674   */\n      mstore\n        /* \"--CODEGEN--\":21702:21704   */\n      0x0c\n        /* \"--CODEGEN--\":21697:21700   */\n      dup3\n        /* \"--CODEGEN--\":21693:21705   */\n      add\n        /* \"--CODEGEN--\":21686:21705   */\n      swap1\n      pop\n        /* \"--CODEGEN--\":21527:21711   */\n      swap2\n      swap1\n      pop\n      jump\n        /* \"--CODEGEN--\":21720:22037   */\n    tag_885:\n      0x00\n        /* \"--CODEGEN--\":21880:21947   */\n      tag_887\n        /* \"--CODEGEN--\":21944:21946   */\n      0x11\n        /* \"--CODEGEN--\":21939:21942   */\n      dup4\n        /* \"--CODEGEN--\":21880:21947   */\n      jump(tag_818)\n    tag_887:\n        /* \"--CODEGEN--\":21873:21947   */\n      swap2\n      pop\n        /* \"--CODEGEN--\":21980:21999   */\n      0x6461746168617368206d69736d61746368000000000000000000000000000000\n        /* \"--CODEGEN--\":21976:21977   */\n      0x00\n        /* \"--CODEGEN--\":21971:21974   */\n      dup4\n        /* \"--CODEGEN--\":21967:21978   */\n      add\n        /* \"--CODEGEN--\":21960:22000   */\n      mstore\n        /* \"--CODEGEN--\":22028:22030   */\n      0x20\n        /* \"--CODEGEN--\":22023:22026   */\n      dup3\n        /* \"--CODEGEN--\":22019:22031   */\n      add\n        /* \"--CODEGEN--\":22012:22031   */\n      swap1\n      pop\n        /* \"--CODEGEN--\":21866:22037   */\n      swap2\n      swap1\n      pop\n      jump\n        /* \"--CODEGEN--\":22046:22371   */\n    tag_888:\n      0x00\n        /* \"--CODEGEN--\":22206:22273   */\n      tag_890\n        /* \"--CODEGEN--\":22270:22272   */\n      0x19\n        /* \"--CODEGEN--\":22265:22268   */\n      dup4\n        /* \"--CODEGEN--\":22206:22273   */\n      jump(tag_818)\n    tag_890:\n        /* \"--CODEGEN--\":22199:22273   */\n      swap2\n      pop\n        /* \"--CODEGEN--\":22306:22333   */\n      0x6e6f2068616e646c657220666f72207265736f75726365494400000000000000\n        /* \"--CODEGEN--\":22302:22303   */\n      0x00\n        /* \"--CODEGEN--\":22297:22300   */\n      dup4\n        /* \"--CODEGEN--\":22293:22304   */\n      add\n        /* \"--CODEGEN--\":22286:22334   */\n      mstore\n        /* \"--CODEGEN--\":22362:22364   */\n      0x20\n        /* \"--CODEGEN--\":22357:22360   */\n      dup3\n        /* \"--CODEGEN--\":22353:22365   */\n      add\n        /* \"--CODEGEN--\":22346:22365   */\n      swap1\n      pop\n        /* \"--CODEGEN--\":22192:22371   */\n      swap2\n      swap1\n      pop\n      jump\n        /* \"--CODEGEN--\":22380:22764   */\n    tag_891:\n      0x00\n        /* \"--CODEGEN--\":22540:22607   */\n      tag_893\n        /* \"--CODEGEN--\":22604:22606   */\n      0x2f\n        /* \"--CODEGEN--\":22599:22602   */\n      dup4\n        /* \"--CODEGEN--\":22540:22607   */\n      jump(tag_818)\n    tag_893:\n        /* \"--CODEGEN--\":22533:22607   */\n      swap2\n      pop\n        /* \"--CODEGEN--\":22640:22674   */\n      0x416363657373436f6e74726f6c3a2063616e206f6e6c792072656e6f756e6365\n        /* \"--CODEGEN--\":22636:22637   */\n      0x00\n        /* \"--CODEGEN--\":22631:22634   */\n      dup4\n        /* \"--CODEGEN--\":22627:22638   */\n      add\n        /* \"--CODEGEN--\":22620:22675   */\n      mstore\n        /* \"--CODEGEN--\":22709:22726   */\n      0x20726f6c657320666f722073656c660000000000000000000000000000000000\n        /* \"--CODEGEN--\":22704:22706   */\n      0x20\n        /* \"--CODEGEN--\":22699:22702   */\n      dup4\n        /* \"--CODEGEN--\":22695:22707   */\n      add\n        /* \"--CODEGEN--\":22688:22727   */\n      mstore\n        /* \"--CODEGEN--\":22755:22757   */\n      0x40\n        /* \"--CODEGEN--\":22750:22753   */\n      dup3\n        /* \"--CODEGEN--\":22746:22758   */\n      add\n        /* \"--CODEGEN--\":22739:22758   */\n      swap1\n      pop\n        /* \"--CODEGEN--\":22526:22764   */\n      swap2\n      swap1\n      pop\n      jump\n        /* \"--CODEGEN--\":22827:24189   */\n    tag_894:\n      0x00\n        /* \"--CODEGEN--\":22976:22980   */\n      0xc0\n        /* \"--CODEGEN--\":22971:22974   */\n      dup4\n        /* \"--CODEGEN--\":22967:22981   */\n      add\n        /* \"--CODEGEN--\":23066:23070   */\n      0x00\n        /* \"--CODEGEN--\":23059:23064   */\n      dup4\n        /* \"--CODEGEN--\":23055:23071   */\n      add\n        /* \"--CODEGEN--\":23049:23072   */\n      mload\n        /* \"--CODEGEN--\":23078:23141   */\n      tag_896\n        /* \"--CODEGEN--\":23135:23139   */\n      0x00\n        /* \"--CODEGEN--\":23130:23133   */\n      dup7\n        /* \"--CODEGEN--\":23126:23140   */\n      add\n        /* \"--CODEGEN--\":23112:23124   */\n      dup3\n        /* \"--CODEGEN--\":23078:23141   */\n      jump(tag_774)\n    tag_896:\n        /* \"--CODEGEN--\":22996:23147   */\n      pop\n        /* \"--CODEGEN--\":23225:23229   */\n      0x20\n        /* \"--CODEGEN--\":23218:23223   */\n      dup4\n        /* \"--CODEGEN--\":23214:23230   */\n      add\n        /* \"--CODEGEN--\":23208:23231   */\n      mload\n        /* \"--CODEGEN--\":23237:23300   */\n      tag_897\n        /* \"--CODEGEN--\":23294:23298   */\n      0x20\n        /* \"--CODEGEN--\":23289:23292   */\n      dup7\n        /* \"--CODEGEN--\":23285:23299   */\n      add\n        /* \"--CODEGEN--\":23271:23283   */\n      dup3\n        /* \"--CODEGEN--\":23237:23300   */\n      jump(tag_774)\n    tag_897:\n        /* \"--CODEGEN--\":23157:23306   */\n      pop\n        /* \"--CODEGEN--\":23384:23388   */\n      0x40\n        /* \"--CODEGEN--\":23377:23382   */\n      dup4\n        /* \"--CODEGEN--\":23373:23389   */\n      add\n        /* \"--CODEGEN--\":23367:23390   */\n      mload\n        /* \"--CODEGEN--\":23436:23439   */\n      dup5\n        /* \"--CODEGEN--\":23430:23434   */\n      dup3\n        /* \"--CODEGEN--\":23426:23440   */\n      sub\n        /* \"--CODEGEN--\":23419:23423   */\n      0x40\n        /* \"--CODEGEN--\":23414:23417   */\n      dup7\n        /* \"--CODEGEN--\":23410:23424   */\n      add\n        /* \"--CODEGEN--\":23403:23441   */\n      mstore\n        /* \"--CODEGEN--\":23456:23555   */\n      tag_898\n        /* \"--CODEGEN--\":23550:23554   */\n      dup3\n        /* \"--CODEGEN--\":23536:23548   */\n      dup3\n        /* \"--CODEGEN--\":23456:23555   */\n      jump(tag_756)\n    tag_898:\n        /* \"--CODEGEN--\":23448:23555   */\n      swap2\n      pop\n        /* \"--CODEGEN--\":23316:23567   */\n      pop\n        /* \"--CODEGEN--\":23644:23648   */\n      0x60\n        /* \"--CODEGEN--\":23637:23642   */\n      dup4\n        /* \"--CODEGEN--\":23633:23649   */\n      add\n        /* \"--CODEGEN--\":23627:23650   */\n      mload\n        /* \"--CODEGEN--\":23696:23699   */\n      dup5\n        /* \"--CODEGEN--\":23690:23694   */\n      dup3\n        /* \"--CODEGEN--\":23686:23700   */\n      sub\n        /* \"--CODEGEN--\":23679:23683   */\n      0x60\n        /* \"--CODEGEN--\":23674:23677   */\n      dup7\n        /* \"--CODEGEN--\":23670:23684   */\n      add\n        /* \"--CODEGEN--\":23663:23701   */\n      mstore\n        /* \"--CODEGEN--\":23716:23815   */\n      tag_899\n        /* \"--CODEGEN--\":23810:23814   */\n      dup3\n        /* \"--CODEGEN--\":23796:23808   */\n      dup3\n        /* \"--CODEGEN--\":23716:23815   */\n      jump(tag_756)\n    tag_899:\n        /* \"--CODEGEN--\":23708:23815   */\n      swap2\n      pop\n        /* \"--CODEGEN--\":23577:23827   */\n      pop\n        /* \"--CODEGEN--\":23903:23907   */\n      0x80\n        /* \"--CODEGEN--\":23896:23901   */\n      dup4\n        /* \"--CODEGEN--\":23892:23908   */\n      add\n        /* \"--CODEGEN--\":23886:23909   */\n      mload\n        /* \"--CODEGEN--\":23915:23993   */\n      tag_900\n        /* \"--CODEGEN--\":23987:23991   */\n      0x80\n        /* \"--CODEGEN--\":23982:23985   */\n      dup7\n        /* \"--CODEGEN--\":23978:23992   */\n      add\n        /* \"--CODEGEN--\":23964:23976   */\n      dup3\n        /* \"--CODEGEN--\":23915:23993   */\n      jump(tag_806)\n    tag_900:\n        /* \"--CODEGEN--\":23837:23999   */\n      pop\n        /* \"--CODEGEN--\":24082:24086   */\n      0xa0\n        /* \"--CODEGEN--\":24075:24080   */\n      dup4\n        /* \"--CODEGEN--\":24071:24087   */\n      add\n        /* \"--CODEGEN--\":24065:24088   */\n      mload\n        /* \"--CODEGEN--\":24094:24157   */\n      tag_901\n        /* \"--CODEGEN--\":24151:24155   */\n      0xa0\n        /* \"--CODEGEN--\":24146:24149   */\n      dup7\n        /* \"--CODEGEN--\":24142:24156   */\n      add\n        /* \"--CODEGEN--\":24128:24140   */\n      dup3\n        /* \"--CODEGEN--\":24094:24157   */\n      jump(tag_902)\n    tag_901:\n        /* \"--CODEGEN--\":24009:24163   */\n      pop\n        /* \"--CODEGEN--\":24180:24184   */\n      dup1\n        /* \"--CODEGEN--\":24173:24184   */\n      swap2\n      pop\n        /* \"--CODEGEN--\":22949:24189   */\n      pop\n      swap3\n      swap2\n      pop\n      pop\n      jump\n        /* \"--CODEGEN--\":24196:24299   */\n    tag_902:\n        /* \"--CODEGEN--\":24269:24293   */\n      tag_904\n        /* \"--CODEGEN--\":24287:24292   */\n      dup2\n        /* \"--CODEGEN--\":24269:24293   */\n      jump(tag_905)\n    tag_904:\n        /* \"--CODEGEN--\":24264:24267   */\n      dup3\n        /* \"--CODEGEN--\":24257:24294   */\n      mstore\n        /* \"--CODEGEN--\":24251:24299   */\n      pop\n      pop\n      jump\n        /* \"--CODEGEN--\":24306:24419   */\n    tag_906:\n        /* \"--CODEGEN--\":24389:24413   */\n      tag_908\n        /* \"--CODEGEN--\":24407:24412   */\n      dup2\n        /* \"--CODEGEN--\":24389:24413   */\n      jump(tag_905)\n    tag_908:\n        /* \"--CODEGEN--\":24384:24387   */\n      dup3\n        /* \"--CODEGEN--\":24377:24414   */\n      mstore\n        /* \"--CODEGEN--\":24371:24419   */\n      pop\n      pop\n      jump\n        /* \"--CODEGEN--\":24426:24536   */\n    tag_909:\n        /* \"--CODEGEN--\":24507:24530   */\n      tag_911\n        /* \"--CODEGEN--\":24524:24529   */\n      dup2\n        /* \"--CODEGEN--\":24507:24530   */\n      jump(tag_912)\n    tag_911:\n        /* \"--CODEGEN--\":24502:24505   */\n      dup3\n        /* \"--CODEGEN--\":24495:24531   */\n      mstore\n        /* \"--CODEGEN--\":24489:24536   */\n      pop\n      pop\n      jump\n        /* \"--CODEGEN--\":24543:24650   */\n    tag_913:\n        /* \"--CODEGEN--\":24622:24644   */\n      tag_915\n        /* \"--CODEGEN--\":24638:24643   */\n      dup2\n        /* \"--CODEGEN--\":24622:24644   */\n      jump(tag_916)\n    tag_915:\n        /* \"--CODEGEN--\":24617:24620   */\n      dup3\n        /* \"--CODEGEN--\":24610:24645   */\n      mstore\n        /* \"--CODEGEN--\":24604:24650   */\n      pop\n      pop\n      jump\n        /* \"--CODEGEN--\":24657:25078   */\n    tag_350:\n      0x00\n        /* \"--CODEGEN--\":24832:24907   */\n      tag_918\n        /* \"--CODEGEN--\":24903:24906   */\n      dup3\n        /* \"--CODEGEN--\":24894:24900   */\n      dup7\n        /* \"--CODEGEN--\":24832:24907   */\n      jump(tag_751)\n    tag_918:\n        /* \"--CODEGEN--\":24929:24931   */\n      0x14\n        /* \"--CODEGEN--\":24924:24927   */\n      dup3\n        /* \"--CODEGEN--\":24920:24932   */\n      add\n        /* \"--CODEGEN--\":24913:24932   */\n      swap2\n      pop\n        /* \"--CODEGEN--\":24950:25053   */\n      tag_919\n        /* \"--CODEGEN--\":25049:25052   */\n      dup3\n        /* \"--CODEGEN--\":25040:25046   */\n      dup5\n        /* \"--CODEGEN--\":25032:25038   */\n      dup7\n        /* \"--CODEGEN--\":24950:25053   */\n      jump(tag_793)\n    tag_919:\n        /* \"--CODEGEN--\":24943:25053   */\n      swap2\n      pop\n        /* \"--CODEGEN--\":25070:25073   */\n      dup2\n        /* \"--CODEGEN--\":25063:25073   */\n      swap1\n      pop\n        /* \"--CODEGEN--\":24820:25078   */\n      swap5\n      swap4\n      pop\n      pop\n      pop\n      pop\n      jump\n        /* \"--CODEGEN--\":25085:25457   */\n    tag_391:\n      0x00\n        /* \"--CODEGEN--\":25284:25432   */\n      tag_921\n        /* \"--CODEGEN--\":25428:25431   */\n      dup3\n        /* \"--CODEGEN--\":25284:25432   */\n      jump(tag_881)\n    tag_921:\n        /* \"--CODEGEN--\":25277:25432   */\n      swap2\n      pop\n        /* \"--CODEGEN--\":25449:25452   */\n      dup2\n        /* \"--CODEGEN--\":25442:25452   */\n      swap1\n      pop\n        /* \"--CODEGEN--\":25265:25457   */\n      swap2\n      swap1\n      pop\n      jump\n        /* \"--CODEGEN--\":25464:25677   */\n    tag_153:\n      0x00\n        /* \"--CODEGEN--\":25582:25584   */\n      0x20\n        /* \"--CODEGEN--\":25571:25580   */\n      dup3\n        /* \"--CODEGEN--\":25567:25585   */\n      add\n        /* \"--CODEGEN--\":25559:25585   */\n      swap1\n      pop\n        /* \"--CODEGEN--\":25596:25667   */\n      tag_923\n        /* \"--CODEGEN--\":25664:25665   */\n      0x00\n        /* \"--CODEGEN--\":25653:25662   */\n      dup4\n        /* \"--CODEGEN--\":25649:25666   */\n      add\n        /* \"--CODEGEN--\":25640:25646   */\n      dup5\n        /* \"--CODEGEN--\":25596:25667   */\n      jump(tag_748)\n    tag_923:\n        /* \"--CODEGEN--\":25553:25677   */\n      swap3\n      swap2\n      pop\n      pop\n      jump\n        /* \"--CODEGEN--\":25684:25913   */\n    tag_532:\n      0x00\n        /* \"--CODEGEN--\":25810:25812   */\n      0x20\n        /* \"--CODEGEN--\":25799:25808   */\n      dup3\n        /* \"--CODEGEN--\":25795:25813   */\n      add\n        /* \"--CODEGEN--\":25787:25813   */\n      swap1\n      pop\n        /* \"--CODEGEN--\":25824:25903   */\n      tag_925\n        /* \"--CODEGEN--\":25900:25901   */\n      0x00\n        /* \"--CODEGEN--\":25889:25898   */\n      dup4\n        /* \"--CODEGEN--\":25885:25902   */\n      add\n        /* \"--CODEGEN--\":25876:25882   */\n      dup5\n        /* \"--CODEGEN--\":25824:25903   */\n      jump(tag_741)\n    tag_925:\n        /* \"--CODEGEN--\":25781:25913   */\n      swap3\n      swap2\n      pop\n      pop\n      jump\n        /* \"--CODEGEN--\":25920:26355   */\n    tag_402:\n      0x00\n        /* \"--CODEGEN--\":26094:26096   */\n      0x60\n        /* \"--CODEGEN--\":26083:26092   */\n      dup3\n        /* \"--CODEGEN--\":26079:26097   */\n      add\n        /* \"--CODEGEN--\":26071:26097   */\n      swap1\n      pop\n        /* \"--CODEGEN--\":26108:26179   */\n      tag_927\n        /* \"--CODEGEN--\":26176:26177   */\n      0x00\n        /* \"--CODEGEN--\":26165:26174   */\n      dup4\n        /* \"--CODEGEN--\":26161:26178   */\n      add\n        /* \"--CODEGEN--\":26152:26158   */\n      dup7\n        /* \"--CODEGEN--\":26108:26179   */\n      jump(tag_748)\n    tag_927:\n        /* \"--CODEGEN--\":26190:26262   */\n      tag_928\n        /* \"--CODEGEN--\":26258:26260   */\n      0x20\n        /* \"--CODEGEN--\":26247:26256   */\n      dup4\n        /* \"--CODEGEN--\":26243:26261   */\n      add\n        /* \"--CODEGEN--\":26234:26240   */\n      dup6\n        /* \"--CODEGEN--\":26190:26262   */\n      jump(tag_748)\n    tag_928:\n        /* \"--CODEGEN--\":26273:26345   */\n      tag_929\n        /* \"--CODEGEN--\":26341:26343   */\n      0x40\n        /* \"--CODEGEN--\":26330:26339   */\n      dup4\n        /* \"--CODEGEN--\":26326:26344   */\n      add\n        /* \"--CODEGEN--\":26317:26323   */\n      dup5\n        /* \"--CODEGEN--\":26273:26345   */\n      jump(tag_906)\n    tag_929:\n        /* \"--CODEGEN--\":26065:26355   */\n      swap5\n      swap4\n      pop\n      pop\n      pop\n      pop\n      jump\n        /* \"--CODEGEN--\":26362:26563   */\n    tag_120:\n      0x00\n        /* \"--CODEGEN--\":26474:26476   */\n      0x20\n        /* \"--CODEGEN--\":26463:26472   */\n      dup3\n        /* \"--CODEGEN--\":26459:26477   */\n      add\n        /* \"--CODEGEN--\":26451:26477   */\n      swap1\n      pop\n        /* \"--CODEGEN--\":26488:26553   */\n      tag_931\n        /* \"--CODEGEN--\":26550:26551   */\n      0x00\n        /* \"--CODEGEN--\":26539:26548   */\n      dup4\n        /* \"--CODEGEN--\":26535:26552   */\n      add\n        /* \"--CODEGEN--\":26526:26532   */\n      dup5\n        /* \"--CODEGEN--\":26488:26553   */\n      jump(tag_770)\n    tag_931:\n        /* \"--CODEGEN--\":26445:26563   */\n      swap3\n      swap2\n      pop\n      pop\n      jump\n        /* \"--CODEGEN--\":26570:26783   */\n    tag_68:\n      0x00\n        /* \"--CODEGEN--\":26688:26690   */\n      0x20\n        /* \"--CODEGEN--\":26677:26686   */\n      dup3\n        /* \"--CODEGEN--\":26673:26691   */\n      add\n        /* \"--CODEGEN--\":26665:26691   */\n      swap1\n      pop\n        /* \"--CODEGEN--\":26702:26773   */\n      tag_933\n        /* \"--CODEGEN--\":26770:26771   */\n      0x00\n        /* \"--CODEGEN--\":26759:26768   */\n      dup4\n        /* \"--CODEGEN--\":26755:26772   */\n      add\n        /* \"--CODEGEN--\":26746:26752   */\n      dup5\n        /* \"--CODEGEN--\":26702:26773   */\n      jump(tag_778)\n    tag_933:\n        /* \"--CODEGEN--\":26659:26783   */\n      swap3\n      swap2\n      pop\n      pop\n      jump\n        /* \"--CODEGEN--\":26790:27114   */\n    tag_457:\n      0x00\n        /* \"--CODEGEN--\":26936:26938   */\n      0x40\n        /* \"--CODEGEN--\":26925:26934   */\n      dup3\n        /* \"--CODEGEN--\":26921:26939   */\n      add\n        /* \"--CODEGEN--\":26913:26939   */\n      swap1\n      pop\n        /* \"--CODEGEN--\":26950:27021   */\n      tag_935\n        /* \"--CODEGEN--\":27018:27019   */\n      0x00\n        /* \"--CODEGEN--\":27007:27016   */\n      dup4\n        /* \"--CODEGEN--\":27003:27020   */\n      add\n        /* \"--CODEGEN--\":26994:27000   */\n      dup6\n        /* \"--CODEGEN--\":26950:27021   */\n      jump(tag_778)\n    tag_935:\n        /* \"--CODEGEN--\":27032:27104   */\n      tag_936\n        /* \"--CODEGEN--\":27100:27102   */\n      0x20\n        /* \"--CODEGEN--\":27089:27098   */\n      dup4\n        /* \"--CODEGEN--\":27085:27103   */\n      add\n        /* \"--CODEGEN--\":27076:27082   */\n      dup5\n        /* \"--CODEGEN--\":27032:27104   */\n      jump(tag_748)\n    tag_936:\n        /* \"--CODEGEN--\":26907:27114   */\n      swap4\n      swap3\n      pop\n      pop\n      pop\n      jump\n        /* \"--CODEGEN--\":27121:27660   */\n    tag_482:\n      0x00\n        /* \"--CODEGEN--\":27319:27322   */\n      0x80\n        /* \"--CODEGEN--\":27308:27317   */\n      dup3\n        /* \"--CODEGEN--\":27304:27323   */\n      add\n        /* \"--CODEGEN--\":27296:27323   */\n      swap1\n      pop\n        /* \"--CODEGEN--\":27334:27405   */\n      tag_938\n        /* \"--CODEGEN--\":27402:27403   */\n      0x00\n        /* \"--CODEGEN--\":27391:27400   */\n      dup4\n        /* \"--CODEGEN--\":27387:27404   */\n      add\n        /* \"--CODEGEN--\":27378:27384   */\n      dup8\n        /* \"--CODEGEN--\":27334:27405   */\n      jump(tag_778)\n    tag_938:\n        /* \"--CODEGEN--\":27416:27488   */\n      tag_939\n        /* \"--CODEGEN--\":27484:27486   */\n      0x20\n        /* \"--CODEGEN--\":27473:27482   */\n      dup4\n        /* \"--CODEGEN--\":27469:27487   */\n      add\n        /* \"--CODEGEN--\":27460:27466   */\n      dup7\n        /* \"--CODEGEN--\":27416:27488   */\n      jump(tag_748)\n    tag_939:\n        /* \"--CODEGEN--\":27499:27569   */\n      tag_940\n        /* \"--CODEGEN--\":27565:27567   */\n      0x40\n        /* \"--CODEGEN--\":27554:27563   */\n      dup4\n        /* \"--CODEGEN--\":27550:27568   */\n      add\n        /* \"--CODEGEN--\":27541:27547   */\n      dup6\n        /* \"--CODEGEN--\":27499:27569   */\n      jump(tag_781)\n    tag_940:\n        /* \"--CODEGEN--\":27580:27650   */\n      tag_941\n        /* \"--CODEGEN--\":27646:27648   */\n      0x60\n        /* \"--CODEGEN--\":27635:27644   */\n      dup4\n        /* \"--CODEGEN--\":27631:27649   */\n      add\n        /* \"--CODEGEN--\":27622:27628   */\n      dup5\n        /* \"--CODEGEN--\":27580:27650   */\n      jump(tag_781)\n    tag_941:\n        /* \"--CODEGEN--\":27290:27660   */\n      swap6\n      swap5\n      pop\n      pop\n      pop\n      pop\n      pop\n      jump\n        /* \"--CODEGEN--\":27667:27991   */\n    tag_273:\n      0x00\n        /* \"--CODEGEN--\":27813:27815   */\n      0x40\n        /* \"--CODEGEN--\":27802:27811   */\n      dup3\n        /* \"--CODEGEN--\":27798:27816   */\n      add\n        /* \"--CODEGEN--\":27790:27816   */\n      swap1\n      pop\n        /* \"--CODEGEN--\":27827:27898   */\n      tag_943\n        /* \"--CODEGEN--\":27895:27896   */\n      0x00\n        /* \"--CODEGEN--\":27884:27893   */\n      dup4\n        /* \"--CODEGEN--\":27880:27897   */\n      add\n        /* \"--CODEGEN--\":27871:27877   */\n      dup6\n        /* \"--CODEGEN--\":27827:27898   */\n      jump(tag_778)\n    tag_943:\n        /* \"--CODEGEN--\":27909:27981   */\n      tag_944\n        /* \"--CODEGEN--\":27977:27979   */\n      0x20\n        /* \"--CODEGEN--\":27966:27975   */\n      dup4\n        /* \"--CODEGEN--\":27962:27980   */\n      add\n        /* \"--CODEGEN--\":27953:27959   */\n      dup5\n        /* \"--CODEGEN--\":27909:27981   */\n      jump(tag_778)\n    tag_944:\n        /* \"--CODEGEN--\":27784:27991   */\n      swap4\n      swap3\n      pop\n      pop\n      pop\n      jump\n        /* \"--CODEGEN--\":27998:28575   */\n    tag_113:\n      0x00\n        /* \"--CODEGEN--\":28215:28218   */\n      0x80\n        /* \"--CODEGEN--\":28204:28213   */\n      dup3\n        /* \"--CODEGEN--\":28200:28219   */\n      add\n        /* \"--CODEGEN--\":28192:28219   */\n      swap1\n      pop\n        /* \"--CODEGEN--\":28230:28301   */\n      tag_946\n        /* \"--CODEGEN--\":28298:28299   */\n      0x00\n        /* \"--CODEGEN--\":28287:28296   */\n      dup4\n        /* \"--CODEGEN--\":28283:28300   */\n      add\n        /* \"--CODEGEN--\":28274:28280   */\n      dup8\n        /* \"--CODEGEN--\":28230:28301   */\n      jump(tag_778)\n    tag_946:\n        /* \"--CODEGEN--\":28312:28384   */\n      tag_947\n        /* \"--CODEGEN--\":28380:28382   */\n      0x20\n        /* \"--CODEGEN--\":28369:28378   */\n      dup4\n        /* \"--CODEGEN--\":28365:28383   */\n      add\n        /* \"--CODEGEN--\":28356:28362   */\n      dup7\n        /* \"--CODEGEN--\":28312:28384   */\n      jump(tag_778)\n    tag_947:\n        /* \"--CODEGEN--\":28395:28482   */\n      tag_948\n        /* \"--CODEGEN--\":28478:28480   */\n      0x40\n        /* \"--CODEGEN--\":28467:28476   */\n      dup4\n        /* \"--CODEGEN--\":28463:28481   */\n      add\n        /* \"--CODEGEN--\":28454:28460   */\n      dup6\n        /* \"--CODEGEN--\":28395:28482   */\n      jump(tag_810)\n    tag_948:\n        /* \"--CODEGEN--\":28493:28565   */\n      tag_949\n        /* \"--CODEGEN--\":28561:28563   */\n      0x60\n        /* \"--CODEGEN--\":28550:28559   */\n      dup4\n        /* \"--CODEGEN--\":28546:28564   */\n      add\n        /* \"--CODEGEN--\":28537:28543   */\n      dup5\n        /* \"--CODEGEN--\":28493:28565   */\n      jump(tag_906)\n    tag_949:\n        /* \"--CODEGEN--\":28186:28575   */\n      swap6\n      swap5\n      pop\n      pop\n      pop\n      pop\n      pop\n      jump\n        /* \"--CODEGEN--\":28582:29010   */\n    tag_366:\n      0x00\n        /* \"--CODEGEN--\":28756:28758   */\n      0x40\n        /* \"--CODEGEN--\":28745:28754   */\n      dup3\n        /* \"--CODEGEN--\":28741:28759   */\n      add\n        /* \"--CODEGEN--\":28733:28759   */\n      swap1\n      pop\n        /* \"--CODEGEN--\":28770:28841   */\n      tag_951\n        /* \"--CODEGEN--\":28838:28839   */\n      0x00\n        /* \"--CODEGEN--\":28827:28836   */\n      dup4\n        /* \"--CODEGEN--\":28823:28840   */\n      add\n        /* \"--CODEGEN--\":28814:28820   */\n      dup7\n        /* \"--CODEGEN--\":28770:28841   */\n      jump(tag_778)\n    tag_951:\n        /* \"--CODEGEN--\":28889:28898   */\n      dup2\n        /* \"--CODEGEN--\":28883:28887   */\n      dup2\n        /* \"--CODEGEN--\":28879:28899   */\n      sub\n        /* \"--CODEGEN--\":28874:28876   */\n      0x20\n        /* \"--CODEGEN--\":28863:28872   */\n      dup4\n        /* \"--CODEGEN--\":28859:28877   */\n      add\n        /* \"--CODEGEN--\":28852:28900   */\n      mstore\n        /* \"--CODEGEN--\":28914:29000   */\n      tag_952\n        /* \"--CODEGEN--\":28995:28999   */\n      dup2\n        /* \"--CODEGEN--\":28986:28992   */\n      dup5\n        /* \"--CODEGEN--\":28978:28984   */\n      dup7\n        /* \"--CODEGEN--\":28914:29000   */\n      jump(tag_785)\n    tag_952:\n        /* \"--CODEGEN--\":28906:29000   */\n      swap1\n      pop\n        /* \"--CODEGEN--\":28727:29010   */\n      swap5\n      swap4\n      pop\n      pop\n      pop\n      pop\n      jump\n        /* \"--CODEGEN--\":29017:29784   */\n    tag_252:\n      0x00\n        /* \"--CODEGEN--\":29277:29280   */\n      0xa0\n        /* \"--CODEGEN--\":29266:29275   */\n      dup3\n        /* \"--CODEGEN--\":29262:29281   */\n      add\n        /* \"--CODEGEN--\":29254:29281   */\n      swap1\n      pop\n        /* \"--CODEGEN--\":29292:29363   */\n      tag_954\n        /* \"--CODEGEN--\":29360:29361   */\n      0x00\n        /* \"--CODEGEN--\":29349:29358   */\n      dup4\n        /* \"--CODEGEN--\":29345:29362   */\n      add\n        /* \"--CODEGEN--\":29336:29342   */\n      dup10\n        /* \"--CODEGEN--\":29292:29363   */\n      jump(tag_778)\n    tag_954:\n        /* \"--CODEGEN--\":29374:29442   */\n      tag_955\n        /* \"--CODEGEN--\":29438:29440   */\n      0x20\n        /* \"--CODEGEN--\":29427:29436   */\n      dup4\n        /* \"--CODEGEN--\":29423:29441   */\n      add\n        /* \"--CODEGEN--\":29414:29420   */\n      dup9\n        /* \"--CODEGEN--\":29374:29442   */\n      jump(tag_913)\n    tag_955:\n        /* \"--CODEGEN--\":29453:29523   */\n      tag_956\n        /* \"--CODEGEN--\":29519:29521   */\n      0x40\n        /* \"--CODEGEN--\":29508:29517   */\n      dup4\n        /* \"--CODEGEN--\":29504:29522   */\n      add\n        /* \"--CODEGEN--\":29495:29501   */\n      dup8\n        /* \"--CODEGEN--\":29453:29523   */\n      jump(tag_909)\n    tag_956:\n        /* \"--CODEGEN--\":29534:29614   */\n      tag_957\n        /* \"--CODEGEN--\":29610:29612   */\n      0x60\n        /* \"--CODEGEN--\":29599:29608   */\n      dup4\n        /* \"--CODEGEN--\":29595:29613   */\n      add\n        /* \"--CODEGEN--\":29586:29592   */\n      dup7\n        /* \"--CODEGEN--\":29534:29614   */\n      jump(tag_741)\n    tag_957:\n        /* \"--CODEGEN--\":29663:29672   */\n      dup2\n        /* \"--CODEGEN--\":29657:29661   */\n      dup2\n        /* \"--CODEGEN--\":29653:29673   */\n      sub\n        /* \"--CODEGEN--\":29647:29650   */\n      0x80\n        /* \"--CODEGEN--\":29636:29645   */\n      dup4\n        /* \"--CODEGEN--\":29632:29651   */\n      add\n        /* \"--CODEGEN--\":29625:29674   */\n      mstore\n        /* \"--CODEGEN--\":29688:29774   */\n      tag_958\n        /* \"--CODEGEN--\":29769:29773   */\n      dup2\n        /* \"--CODEGEN--\":29760:29766   */\n      dup5\n        /* \"--CODEGEN--\":29752:29758   */\n      dup7\n        /* \"--CODEGEN--\":29688:29774   */\n      jump(tag_785)\n    tag_958:\n        /* \"--CODEGEN--\":29680:29774   */\n      swap1\n      pop\n        /* \"--CODEGEN--\":29248:29784   */\n      swap8\n      swap7\n      pop\n      pop\n      pop\n      pop\n      pop\n      pop\n      pop\n      jump\n        /* \"--CODEGEN--\":29791:30080   */\n    tag_84:\n      0x00\n        /* \"--CODEGEN--\":29923:29925   */\n      0x20\n        /* \"--CODEGEN--\":29912:29921   */\n      dup3\n        /* \"--CODEGEN--\":29908:29926   */\n      add\n        /* \"--CODEGEN--\":29900:29926   */\n      swap1\n      pop\n        /* \"--CODEGEN--\":29973:29982   */\n      dup2\n        /* \"--CODEGEN--\":29967:29971   */\n      dup2\n        /* \"--CODEGEN--\":29963:29983   */\n      sub\n        /* \"--CODEGEN--\":29959:29960   */\n      0x00\n        /* \"--CODEGEN--\":29948:29957   */\n      dup4\n        /* \"--CODEGEN--\":29944:29961   */\n      add\n        /* \"--CODEGEN--\":29937:29984   */\n      mstore\n        /* \"--CODEGEN--\":29998:30070   */\n      tag_960\n        /* \"--CODEGEN--\":30065:30069   */\n      dup2\n        /* \"--CODEGEN--\":30056:30062   */\n      dup5\n        /* \"--CODEGEN--\":29998:30070   */\n      jump(tag_798)\n    tag_960:\n        /* \"--CODEGEN--\":29990:30070   */\n      swap1\n      pop\n        /* \"--CODEGEN--\":29894:30080   */\n      swap3\n      swap2\n      pop\n      pop\n      jump\n        /* \"--CODEGEN--\":30087:30388   */\n    tag_550:\n      0x00\n        /* \"--CODEGEN--\":30225:30227   */\n      0x20\n        /* \"--CODEGEN--\":30214:30223   */\n      dup3\n        /* \"--CODEGEN--\":30210:30228   */\n      add\n        /* \"--CODEGEN--\":30202:30228   */\n      swap1\n      pop\n        /* \"--CODEGEN--\":30275:30284   */\n      dup2\n        /* \"--CODEGEN--\":30269:30273   */\n      dup2\n        /* \"--CODEGEN--\":30265:30285   */\n      sub\n        /* \"--CODEGEN--\":30261:30262   */\n      0x00\n        /* \"--CODEGEN--\":30250:30259   */\n      dup4\n        /* \"--CODEGEN--\":30246:30263   */\n      add\n        /* \"--CODEGEN--\":30239:30286   */\n      mstore\n        /* \"--CODEGEN--\":30300:30378   */\n      tag_962\n        /* \"--CODEGEN--\":30373:30377   */\n      dup2\n        /* \"--CODEGEN--\":30364:30370   */\n      dup5\n        /* \"--CODEGEN--\":30300:30378   */\n      jump(tag_813)\n    tag_962:\n        /* \"--CODEGEN--\":30292:30378   */\n      swap1\n      pop\n        /* \"--CODEGEN--\":30196:30388   */\n      swap3\n      swap2\n      pop\n      pop\n      jump\n        /* \"--CODEGEN--\":30395:30802   */\n    tag_360:\n      0x00\n        /* \"--CODEGEN--\":30586:30588   */\n      0x20\n        /* \"--CODEGEN--\":30575:30584   */\n      dup3\n        /* \"--CODEGEN--\":30571:30589   */\n      add\n        /* \"--CODEGEN--\":30563:30589   */\n      swap1\n      pop\n        /* \"--CODEGEN--\":30636:30645   */\n      dup2\n        /* \"--CODEGEN--\":30630:30634   */\n      dup2\n        /* \"--CODEGEN--\":30626:30646   */\n      sub\n        /* \"--CODEGEN--\":30622:30623   */\n      0x00\n        /* \"--CODEGEN--\":30611:30620   */\n      dup4\n        /* \"--CODEGEN--\":30607:30624   */\n      add\n        /* \"--CODEGEN--\":30600:30647   */\n      mstore\n        /* \"--CODEGEN--\":30661:30792   */\n      tag_964\n        /* \"--CODEGEN--\":30787:30791   */\n      dup2\n        /* \"--CODEGEN--\":30661:30792   */\n      jump(tag_821)\n    tag_964:\n        /* \"--CODEGEN--\":30653:30792   */\n      swap1\n      pop\n        /* \"--CODEGEN--\":30557:30802   */\n      swap2\n      swap1\n      pop\n      jump\n        /* \"--CODEGEN--\":30809:31216   */\n    tag_355:\n      0x00\n        /* \"--CODEGEN--\":31000:31002   */\n      0x20\n        /* \"--CODEGEN--\":30989:30998   */\n      dup3\n        /* \"--CODEGEN--\":30985:31003   */\n      add\n        /* \"--CODEGEN--\":30977:31003   */\n      swap1\n      pop\n        /* \"--CODEGEN--\":31050:31059   */\n      dup2\n        /* \"--CODEGEN--\":31044:31048   */\n      dup2\n        /* \"--CODEGEN--\":31040:31060   */\n      sub\n        /* \"--CODEGEN--\":31036:31037   */\n      0x00\n        /* \"--CODEGEN--\":31025:31034   */\n      dup4\n        /* \"--CODEGEN--\":31021:31038   */\n      add\n        /* \"--CODEGEN--\":31014:31061   */\n      mstore\n        /* \"--CODEGEN--\":31075:31206   */\n      tag_966\n        /* \"--CODEGEN--\":31201:31205   */\n      dup2\n        /* \"--CODEGEN--\":31075:31206   */\n      jump(tag_824)\n    tag_966:\n        /* \"--CODEGEN--\":31067:31206   */\n      swap1\n      pop\n        /* \"--CODEGEN--\":30971:31216   */\n      swap2\n      swap1\n      pop\n      jump\n        /* \"--CODEGEN--\":31223:31630   */\n    tag_560:\n      0x00\n        /* \"--CODEGEN--\":31414:31416   */\n      0x20\n        /* \"--CODEGEN--\":31403:31412   */\n      dup3\n        /* \"--CODEGEN--\":31399:31417   */\n      add\n        /* \"--CODEGEN--\":31391:31417   */\n      swap1\n      pop\n        /* \"--CODEGEN--\":31464:31473   */\n      dup2\n        /* \"--CODEGEN--\":31458:31462   */\n      dup2\n        /* \"--CODEGEN--\":31454:31474   */\n      sub\n        /* \"--CODEGEN--\":31450:31451   */\n      0x00\n        /* \"--CODEGEN--\":31439:31448   */\n      dup4\n        /* \"--CODEGEN--\":31435:31452   */\n      add\n        /* \"--CODEGEN--\":31428:31475   */\n      mstore\n        /* \"--CODEGEN--\":31489:31620   */\n      tag_968\n        /* \"--CODEGEN--\":31615:31619   */\n      dup2\n        /* \"--CODEGEN--\":31489:31620   */\n      jump(tag_827)\n    tag_968:\n        /* \"--CODEGEN--\":31481:31620   */\n      swap1\n      pop\n        /* \"--CODEGEN--\":31385:31630   */\n      swap2\n      swap1\n      pop\n      jump\n        /* \"--CODEGEN--\":31637:32044   */\n    tag_502:\n      0x00\n        /* \"--CODEGEN--\":31828:31830   */\n      0x20\n        /* \"--CODEGEN--\":31817:31826   */\n      dup3\n        /* \"--CODEGEN--\":31813:31831   */\n      add\n        /* \"--CODEGEN--\":31805:31831   */\n      swap1\n      pop\n        /* \"--CODEGEN--\":31878:31887   */\n      dup2\n        /* \"--CODEGEN--\":31872:31876   */\n      dup2\n        /* \"--CODEGEN--\":31868:31888   */\n      sub\n        /* \"--CODEGEN--\":31864:31865   */\n      0x00\n        /* \"--CODEGEN--\":31853:31862   */\n      dup4\n        /* \"--CODEGEN--\":31849:31866   */\n      add\n        /* \"--CODEGEN--\":31842:31889   */\n      mstore\n        /* \"--CODEGEN--\":31903:32034   */\n      tag_970\n        /* \"--CODEGEN--\":32029:32033   */\n      dup2\n        /* \"--CODEGEN--\":31903:32034   */\n      jump(tag_830)\n    tag_970:\n        /* \"--CODEGEN--\":31895:32034   */\n      swap1\n      pop\n        /* \"--CODEGEN--\":31799:32044   */\n      swap2\n      swap1\n      pop\n      jump\n        /* \"--CODEGEN--\":32051:32458   */\n    tag_331:\n      0x00\n        /* \"--CODEGEN--\":32242:32244   */\n      0x20\n        /* \"--CODEGEN--\":32231:32240   */\n      dup3\n        /* \"--CODEGEN--\":32227:32245   */\n      add\n        /* \"--CODEGEN--\":32219:32245   */\n      swap1\n      pop\n        /* \"--CODEGEN--\":32292:32301   */\n      dup2\n        /* \"--CODEGEN--\":32286:32290   */\n      dup2\n        /* \"--CODEGEN--\":32282:32302   */\n      sub\n        /* \"--CODEGEN--\":32278:32279   */\n      0x00\n        /* \"--CODEGEN--\":32267:32276   */\n      dup4\n        /* \"--CODEGEN--\":32263:32280   */\n      add\n        /* \"--CODEGEN--\":32256:32303   */\n      mstore\n        /* \"--CODEGEN--\":32317:32448   */\n      tag_972\n        /* \"--CODEGEN--\":32443:32447   */\n      dup2\n        /* \"--CODEGEN--\":32317:32448   */\n      jump(tag_833)\n    tag_972:\n        /* \"--CODEGEN--\":32309:32448   */\n      swap1\n      pop\n        /* \"--CODEGEN--\":32213:32458   */\n      swap2\n      swap1\n      pop\n      jump\n        /* \"--CODEGEN--\":32465:32872   */\n    tag_289:\n      0x00\n        /* \"--CODEGEN--\":32656:32658   */\n      0x20\n        /* \"--CODEGEN--\":32645:32654   */\n      dup3\n        /* \"--CODEGEN--\":32641:32659   */\n      add\n        /* \"--CODEGEN--\":32633:32659   */\n      swap1\n      pop\n        /* \"--CODEGEN--\":32706:32715   */\n      dup2\n        /* \"--CODEGEN--\":32700:32704   */\n      dup2\n        /* \"--CODEGEN--\":32696:32716   */\n      sub\n        /* \"--CODEGEN--\":32692:32693   */\n      0x00\n        /* \"--CODEGEN--\":32681:32690   */\n      dup4\n        /* \"--CODEGEN--\":32677:32694   */\n      add\n        /* \"--CODEGEN--\":32670:32717   */\n      mstore\n        /* \"--CODEGEN--\":32731:32862   */\n      tag_974\n        /* \"--CODEGEN--\":32857:32861   */\n      dup2\n        /* \"--CODEGEN--\":32731:32862   */\n      jump(tag_836)\n    tag_974:\n        /* \"--CODEGEN--\":32723:32862   */\n      swap1\n      pop\n        /* \"--CODEGEN--\":32627:32872   */\n      swap2\n      swap1\n      pop\n      jump\n        /* \"--CODEGEN--\":32879:33286   */\n    tag_568:\n      0x00\n        /* \"--CODEGEN--\":33070:33072   */\n      0x20\n        /* \"--CODEGEN--\":33059:33068   */\n      dup3\n        /* \"--CODEGEN--\":33055:33073   */\n      add\n        /* \"--CODEGEN--\":33047:33073   */\n      swap1\n      pop\n        /* \"--CODEGEN--\":33120:33129   */\n      dup2\n        /* \"--CODEGEN--\":33114:33118   */\n      dup2\n        /* \"--CODEGEN--\":33110:33130   */\n      sub\n        /* \"--CODEGEN--\":33106:33107   */\n      0x00\n        /* \"--CODEGEN--\":33095:33104   */\n      dup4\n        /* \"--CODEGEN--\":33091:33108   */\n      add\n        /* \"--CODEGEN--\":33084:33131   */\n      mstore\n        /* \"--CODEGEN--\":33145:33276   */\n      tag_976\n        /* \"--CODEGEN--\":33271:33275   */\n      dup2\n        /* \"--CODEGEN--\":33145:33276   */\n      jump(tag_839)\n    tag_976:\n        /* \"--CODEGEN--\":33137:33276   */\n      swap1\n      pop\n        /* \"--CODEGEN--\":33041:33286   */\n      swap2\n      swap1\n      pop\n      jump\n        /* \"--CODEGEN--\":33293:33700   */\n    tag_438:\n      0x00\n        /* \"--CODEGEN--\":33484:33486   */\n      0x20\n        /* \"--CODEGEN--\":33473:33482   */\n      dup3\n        /* \"--CODEGEN--\":33469:33487   */\n      add\n        /* \"--CODEGEN--\":33461:33487   */\n      swap1\n      pop\n        /* \"--CODEGEN--\":33534:33543   */\n      dup2\n        /* \"--CODEGEN--\":33528:33532   */\n      dup2\n        /* \"--CODEGEN--\":33524:33544   */\n      sub\n        /* \"--CODEGEN--\":33520:33521   */\n      0x00\n        /* \"--CODEGEN--\":33509:33518   */\n      dup4\n        /* \"--CODEGEN--\":33505:33522   */\n      add\n        /* \"--CODEGEN--\":33498:33545   */\n      mstore\n        /* \"--CODEGEN--\":33559:33690   */\n      tag_978\n        /* \"--CODEGEN--\":33685:33689   */\n      dup2\n        /* \"--CODEGEN--\":33559:33690   */\n      jump(tag_842)\n    tag_978:\n        /* \"--CODEGEN--\":33551:33690   */\n      swap1\n      pop\n        /* \"--CODEGEN--\":33455:33700   */\n      swap2\n      swap1\n      pop\n      jump\n        /* \"--CODEGEN--\":33707:34114   */\n    tag_245:\n      0x00\n        /* \"--CODEGEN--\":33898:33900   */\n      0x20\n        /* \"--CODEGEN--\":33887:33896   */\n      dup3\n        /* \"--CODEGEN--\":33883:33901   */\n      add\n        /* \"--CODEGEN--\":33875:33901   */\n      swap1\n      pop\n        /* \"--CODEGEN--\":33948:33957   */\n      dup2\n        /* \"--CODEGEN--\":33942:33946   */\n      dup2\n        /* \"--CODEGEN--\":33938:33958   */\n      sub\n        /* \"--CODEGEN--\":33934:33935   */\n      0x00\n        /* \"--CODEGEN--\":33923:33932   */\n      dup4\n        /* \"--CODEGEN--\":33919:33936   */\n      add\n        /* \"--CODEGEN--\":33912:33959   */\n      mstore\n        /* \"--CODEGEN--\":33973:34104   */\n      tag_980\n        /* \"--CODEGEN--\":34099:34103   */\n      dup2\n        /* \"--CODEGEN--\":33973:34104   */\n      jump(tag_845)\n    tag_980:\n        /* \"--CODEGEN--\":33965:34104   */\n      swap1\n      pop\n        /* \"--CODEGEN--\":33869:34114   */\n      swap2\n      swap1\n      pop\n      jump\n        /* \"--CODEGEN--\":34121:34528   */\n    tag_363:\n      0x00\n        /* \"--CODEGEN--\":34312:34314   */\n      0x20\n        /* \"--CODEGEN--\":34301:34310   */\n      dup3\n        /* \"--CODEGEN--\":34297:34315   */\n      add\n        /* \"--CODEGEN--\":34289:34315   */\n      swap1\n      pop\n        /* \"--CODEGEN--\":34362:34371   */\n      dup2\n        /* \"--CODEGEN--\":34356:34360   */\n      dup2\n        /* \"--CODEGEN--\":34352:34372   */\n      sub\n        /* \"--CODEGEN--\":34348:34349   */\n      0x00\n        /* \"--CODEGEN--\":34337:34346   */\n      dup4\n        /* \"--CODEGEN--\":34333:34350   */\n      add\n        /* \"--CODEGEN--\":34326:34373   */\n      mstore\n        /* \"--CODEGEN--\":34387:34518   */\n      tag_982\n        /* \"--CODEGEN--\":34513:34517   */\n      dup2\n        /* \"--CODEGEN--\":34387:34518   */\n      jump(tag_848)\n    tag_982:\n        /* \"--CODEGEN--\":34379:34518   */\n      swap1\n      pop\n        /* \"--CODEGEN--\":34283:34528   */\n      swap2\n      swap1\n      pop\n      jump\n        /* \"--CODEGEN--\":34535:34942   */\n    tag_264:\n      0x00\n        /* \"--CODEGEN--\":34726:34728   */\n      0x20\n        /* \"--CODEGEN--\":34715:34724   */\n      dup3\n        /* \"--CODEGEN--\":34711:34729   */\n      add\n        /* \"--CODEGEN--\":34703:34729   */\n      swap1\n      pop\n        /* \"--CODEGEN--\":34776:34785   */\n      dup2\n        /* \"--CODEGEN--\":34770:34774   */\n      dup2\n        /* \"--CODEGEN--\":34766:34786   */\n      sub\n        /* \"--CODEGEN--\":34762:34763   */\n      0x00\n        /* \"--CODEGEN--\":34751:34760   */\n      dup4\n        /* \"--CODEGEN--\":34747:34764   */\n      add\n        /* \"--CODEGEN--\":34740:34787   */\n      mstore\n        /* \"--CODEGEN--\":34801:34932   */\n      tag_984\n        /* \"--CODEGEN--\":34927:34931   */\n      dup2\n        /* \"--CODEGEN--\":34801:34932   */\n      jump(tag_851)\n    tag_984:\n        /* \"--CODEGEN--\":34793:34932   */\n      swap1\n      pop\n        /* \"--CODEGEN--\":34697:34942   */\n      swap2\n      swap1\n      pop\n      jump\n        /* \"--CODEGEN--\":34949:35356   */\n    tag_248:\n      0x00\n        /* \"--CODEGEN--\":35140:35142   */\n      0x20\n        /* \"--CODEGEN--\":35129:35138   */\n      dup3\n        /* \"--CODEGEN--\":35125:35143   */\n      add\n        /* \"--CODEGEN--\":35117:35143   */\n      swap1\n      pop\n        /* \"--CODEGEN--\":35190:35199   */\n      dup2\n        /* \"--CODEGEN--\":35184:35188   */\n      dup2\n        /* \"--CODEGEN--\":35180:35200   */\n      sub\n        /* \"--CODEGEN--\":35176:35177   */\n      0x00\n        /* \"--CODEGEN--\":35165:35174   */\n      dup4\n        /* \"--CODEGEN--\":35161:35178   */\n      add\n        /* \"--CODEGEN--\":35154:35201   */\n      mstore\n        /* \"--CODEGEN--\":35215:35346   */\n      tag_986\n        /* \"--CODEGEN--\":35341:35345   */\n      dup2\n        /* \"--CODEGEN--\":35215:35346   */\n      jump(tag_854)\n    tag_986:\n        /* \"--CODEGEN--\":35207:35346   */\n      swap1\n      pop\n        /* \"--CODEGEN--\":35111:35356   */\n      swap2\n      swap1\n      pop\n      jump\n        /* \"--CODEGEN--\":35363:35770   */\n    tag_476:\n      0x00\n        /* \"--CODEGEN--\":35554:35556   */\n      0x20\n        /* \"--CODEGEN--\":35543:35552   */\n      dup3\n        /* \"--CODEGEN--\":35539:35557   */\n      add\n        /* \"--CODEGEN--\":35531:35557   */\n      swap1\n      pop\n        /* \"--CODEGEN--\":35604:35613   */\n      dup2\n        /* \"--CODEGEN--\":35598:35602   */\n      dup2\n        /* \"--CODEGEN--\":35594:35614   */\n      sub\n        /* \"--CODEGEN--\":35590:35591   */\n      0x00\n        /* \"--CODEGEN--\":35579:35588   */\n      dup4\n        /* \"--CODEGEN--\":35575:35592   */\n      add\n        /* \"--CODEGEN--\":35568:35615   */\n      mstore\n        /* \"--CODEGEN--\":35629:35760   */\n      tag_988\n        /* \"--CODEGEN--\":35755:35759   */\n      dup2\n        /* \"--CODEGEN--\":35629:35760   */\n      jump(tag_857)\n    tag_988:\n        /* \"--CODEGEN--\":35621:35760   */\n      swap1\n      pop\n        /* \"--CODEGEN--\":35525:35770   */\n      swap2\n      swap1\n      pop\n      jump\n        /* \"--CODEGEN--\":35777:36184   */\n    tag_269:\n      0x00\n        /* \"--CODEGEN--\":35968:35970   */\n      0x20\n        /* \"--CODEGEN--\":35957:35966   */\n      dup3\n        /* \"--CODEGEN--\":35953:35971   */\n      add\n        /* \"--CODEGEN--\":35945:35971   */\n      swap1\n      pop\n        /* \"--CODEGEN--\":36018:36027   */\n      dup2\n        /* \"--CODEGEN--\":36012:36016   */\n      dup2\n        /* \"--CODEGEN--\":36008:36028   */\n      sub\n        /* \"--CODEGEN--\":36004:36005   */\n      0x00\n        /* \"--CODEGEN--\":35993:36002   */\n      dup4\n        /* \"--CODEGEN--\":35989:36006   */\n      add\n        /* \"--CODEGEN--\":35982:36029   */\n      mstore\n        /* \"--CODEGEN--\":36043:36174   */\n      tag_990\n        /* \"--CODEGEN--\":36169:36173   */\n      dup2\n        /* \"--CODEGEN--\":36043:36174   */\n      jump(tag_860)\n    tag_990:\n        /* \"--CODEGEN--\":36035:36174   */\n      swap1\n      pop\n        /* \"--CODEGEN--\":35939:36184   */\n      swap2\n      swap1\n      pop\n      jump\n        /* \"--CODEGEN--\":36191:36598   */\n    tag_494:\n      0x00\n        /* \"--CODEGEN--\":36382:36384   */\n      0x20\n        /* \"--CODEGEN--\":36371:36380   */\n      dup3\n        /* \"--CODEGEN--\":36367:36385   */\n      add\n        /* \"--CODEGEN--\":36359:36385   */\n      swap1\n      pop\n        /* \"--CODEGEN--\":36432:36441   */\n      dup2\n        /* \"--CODEGEN--\":36426:36430   */\n      dup2\n        /* \"--CODEGEN--\":36422:36442   */\n      sub\n        /* \"--CODEGEN--\":36418:36419   */\n      0x00\n        /* \"--CODEGEN--\":36407:36416   */\n      dup4\n        /* \"--CODEGEN--\":36403:36420   */\n      add\n        /* \"--CODEGEN--\":36396:36443   */\n      mstore\n        /* \"--CODEGEN--\":36457:36588   */\n      tag_992\n        /* \"--CODEGEN--\":36583:36587   */\n      dup2\n        /* \"--CODEGEN--\":36457:36588   */\n      jump(tag_863)\n    tag_992:\n        /* \"--CODEGEN--\":36449:36588   */\n      swap1\n      pop\n        /* \"--CODEGEN--\":36353:36598   */\n      swap2\n      swap1\n      pop\n      jump\n        /* \"--CODEGEN--\":36605:37012   */\n    tag_468:\n      0x00\n        /* \"--CODEGEN--\":36796:36798   */\n      0x20\n        /* \"--CODEGEN--\":36785:36794   */\n      dup3\n        /* \"--CODEGEN--\":36781:36799   */\n      add\n        /* \"--CODEGEN--\":36773:36799   */\n      swap1\n      pop\n        /* \"--CODEGEN--\":36846:36855   */\n      dup2\n        /* \"--CODEGEN--\":36840:36844   */\n      dup2\n        /* \"--CODEGEN--\":36836:36856   */\n      sub\n        /* \"--CODEGEN--\":36832:36833   */\n      0x00\n        /* \"--CODEGEN--\":36821:36830   */\n      dup4\n        /* \"--CODEGEN--\":36817:36834   */\n      add\n        /* \"--CODEGEN--\":36810:36857   */\n      mstore\n        /* \"--CODEGEN--\":36871:37002   */\n      tag_994\n        /* \"--CODEGEN--\":36997:37001   */\n      dup2\n        /* \"--CODEGEN--\":36871:37002   */\n      jump(tag_866)\n    tag_994:\n        /* \"--CODEGEN--\":36863:37002   */\n      swap1\n      pop\n        /* \"--CODEGEN--\":36767:37012   */\n      swap2\n      swap1\n      pop\n      jump\n        /* \"--CODEGEN--\":37019:37426   */\n    tag_286:\n      0x00\n        /* \"--CODEGEN--\":37210:37212   */\n      0x20\n        /* \"--CODEGEN--\":37199:37208   */\n      dup3\n        /* \"--CODEGEN--\":37195:37213   */\n      add\n        /* \"--CODEGEN--\":37187:37213   */\n      swap1\n      pop\n        /* \"--CODEGEN--\":37260:37269   */\n      dup2\n        /* \"--CODEGEN--\":37254:37258   */\n      dup2\n        /* \"--CODEGEN--\":37250:37270   */\n      sub\n        /* \"--CODEGEN--\":37246:37247   */\n      0x00\n        /* \"--CODEGEN--\":37235:37244   */\n      dup4\n        /* \"--CODEGEN--\":37231:37248   */\n      add\n        /* \"--CODEGEN--\":37224:37271   */\n      mstore\n        /* \"--CODEGEN--\":37285:37416   */\n      tag_996\n        /* \"--CODEGEN--\":37411:37415   */\n      dup2\n        /* \"--CODEGEN--\":37285:37416   */\n      jump(tag_869)\n    tag_996:\n        /* \"--CODEGEN--\":37277:37416   */\n      swap1\n      pop\n        /* \"--CODEGEN--\":37181:37426   */\n      swap2\n      swap1\n      pop\n      jump\n        /* \"--CODEGEN--\":37433:37840   */\n    tag_511:\n      0x00\n        /* \"--CODEGEN--\":37624:37626   */\n      0x20\n        /* \"--CODEGEN--\":37613:37622   */\n      dup3\n        /* \"--CODEGEN--\":37609:37627   */\n      add\n        /* \"--CODEGEN--\":37601:37627   */\n      swap1\n      pop\n        /* \"--CODEGEN--\":37674:37683   */\n      dup2\n        /* \"--CODEGEN--\":37668:37672   */\n      dup2\n        /* \"--CODEGEN--\":37664:37684   */\n      sub\n        /* \"--CODEGEN--\":37660:37661   */\n      0x00\n        /* \"--CODEGEN--\":37649:37658   */\n      dup4\n        /* \"--CODEGEN--\":37645:37662   */\n      add\n        /* \"--CODEGEN--\":37638:37685   */\n      mstore\n        /* \"--CODEGEN--\":37699:37830   */\n      tag_998\n        /* \"--CODEGEN--\":37825:37829   */\n      dup2\n        /* \"--CODEGEN--\":37699:37830   */\n      jump(tag_872)\n    tag_998:\n        /* \"--CODEGEN--\":37691:37830   */\n      swap1\n      pop\n        /* \"--CODEGEN--\":37595:37840   */\n      swap2\n      swap1\n      pop\n      jump\n        /* \"--CODEGEN--\":37847:38254   */\n    tag_527:\n      0x00\n        /* \"--CODEGEN--\":38038:38040   */\n      0x20\n        /* \"--CODEGEN--\":38027:38036   */\n      dup3\n        /* \"--CODEGEN--\":38023:38041   */\n      add\n        /* \"--CODEGEN--\":38015:38041   */\n      swap1\n      pop\n        /* \"--CODEGEN--\":38088:38097   */\n      dup2\n        /* \"--CODEGEN--\":38082:38086   */\n      dup2\n        /* \"--CODEGEN--\":38078:38098   */\n      sub\n        /* \"--CODEGEN--\":38074:38075   */\n      0x00\n        /* \"--CODEGEN--\":38063:38072   */\n      dup4\n        /* \"--CODEGEN--\":38059:38076   */\n      add\n        /* \"--CODEGEN--\":38052:38099   */\n      mstore\n        /* \"--CODEGEN--\":38113:38244   */\n      tag_1000\n        /* \"--CODEGEN--\":38239:38243   */\n      dup2\n        /* \"--CODEGEN--\":38113:38244   */\n      jump(tag_875)\n    tag_1000:\n        /* \"--CODEGEN--\":38105:38244   */\n      swap1\n      pop\n        /* \"--CODEGEN--\":38009:38254   */\n      swap2\n      swap1\n      pop\n      jump\n        /* \"--CODEGEN--\":38261:38668   */\n    tag_426:\n      0x00\n        /* \"--CODEGEN--\":38452:38454   */\n      0x20\n        /* \"--CODEGEN--\":38441:38450   */\n      dup3\n        /* \"--CODEGEN--\":38437:38455   */\n      add\n        /* \"--CODEGEN--\":38429:38455   */\n      swap1\n      pop\n        /* \"--CODEGEN--\":38502:38511   */\n      dup2\n        /* \"--CODEGEN--\":38496:38500   */\n      dup2\n        /* \"--CODEGEN--\":38492:38512   */\n      sub\n        /* \"--CODEGEN--\":38488:38489   */\n      0x00\n        /* \"--CODEGEN--\":38477:38486   */\n      dup4\n        /* \"--CODEGEN--\":38473:38490   */\n      add\n        /* \"--CODEGEN--\":38466:38513   */\n      mstore\n        /* \"--CODEGEN--\":38527:38658   */\n      tag_1002\n        /* \"--CODEGEN--\":38653:38657   */\n      dup2\n        /* \"--CODEGEN--\":38527:38658   */\n      jump(tag_878)\n    tag_1002:\n        /* \"--CODEGEN--\":38519:38658   */\n      swap1\n      pop\n        /* \"--CODEGEN--\":38423:38668   */\n      swap2\n      swap1\n      pop\n      jump\n        /* \"--CODEGEN--\":38675:39082   */\n    tag_312:\n      0x00\n        /* \"--CODEGEN--\":38866:38868   */\n      0x20\n        /* \"--CODEGEN--\":38855:38864   */\n      dup3\n        /* \"--CODEGEN--\":38851:38869   */\n      add\n        /* \"--CODEGEN--\":38843:38869   */\n      swap1\n      pop\n        /* \"--CODEGEN--\":38916:38925   */\n      dup2\n        /* \"--CODEGEN--\":38910:38914   */\n      dup2\n        /* \"--CODEGEN--\":38906:38926   */\n      sub\n        /* \"--CODEGEN--\":38902:38903   */\n      0x00\n        /* \"--CODEGEN--\":38891:38900   */\n      dup4\n        /* \"--CODEGEN--\":38887:38904   */\n      add\n        /* \"--CODEGEN--\":38880:38927   */\n      mstore\n        /* \"--CODEGEN--\":38941:39072   */\n      tag_1004\n        /* \"--CODEGEN--\":39067:39071   */\n      dup2\n        /* \"--CODEGEN--\":38941:39072   */\n      jump(tag_885)\n    tag_1004:\n        /* \"--CODEGEN--\":38933:39072   */\n      swap1\n      pop\n        /* \"--CODEGEN--\":38837:39082   */\n      swap2\n      swap1\n      pop\n      jump\n        /* \"--CODEGEN--\":39089:39496   */\n    tag_282:\n      0x00\n        /* \"--CODEGEN--\":39280:39282   */\n      0x20\n        /* \"--CODEGEN--\":39269:39278   */\n      dup3\n        /* \"--CODEGEN--\":39265:39283   */\n      add\n        /* \"--CODEGEN--\":39257:39283   */\n      swap1\n      pop\n        /* \"--CODEGEN--\":39330:39339   */\n      dup2\n        /* \"--CODEGEN--\":39324:39328   */\n      dup2\n        /* \"--CODEGEN--\":39320:39340   */\n      sub\n        /* \"--CODEGEN--\":39316:39317   */\n      0x00\n        /* \"--CODEGEN--\":39305:39314   */\n      dup4\n        /* \"--CODEGEN--\":39301:39318   */\n      add\n        /* \"--CODEGEN--\":39294:39341   */\n      mstore\n        /* \"--CODEGEN--\":39355:39486   */\n      tag_1006\n        /* \"--CODEGEN--\":39481:39485   */\n      dup2\n        /* \"--CODEGEN--\":39355:39486   */\n      jump(tag_888)\n    tag_1006:\n        /* \"--CODEGEN--\":39347:39486   */\n      swap1\n      pop\n        /* \"--CODEGEN--\":39251:39496   */\n      swap2\n      swap1\n      pop\n      jump\n        /* \"--CODEGEN--\":39503:39910   */\n    tag_338:\n      0x00\n        /* \"--CODEGEN--\":39694:39696   */\n      0x20\n        /* \"--CODEGEN--\":39683:39692   */\n      dup3\n        /* \"--CODEGEN--\":39679:39697   */\n      add\n        /* \"--CODEGEN--\":39671:39697   */\n      swap1\n      pop\n        /* \"--CODEGEN--\":39744:39753   */\n      dup2\n        /* \"--CODEGEN--\":39738:39742   */\n      dup2\n        /* \"--CODEGEN--\":39734:39754   */\n      sub\n        /* \"--CODEGEN--\":39730:39731   */\n      0x00\n        /* \"--CODEGEN--\":39719:39728   */\n      dup4\n        /* \"--CODEGEN--\":39715:39732   */\n      add\n        /* \"--CODEGEN--\":39708:39755   */\n      mstore\n        /* \"--CODEGEN--\":39769:39900   */\n      tag_1008\n        /* \"--CODEGEN--\":39895:39899   */\n      dup2\n        /* \"--CODEGEN--\":39769:39900   */\n      jump(tag_891)\n    tag_1008:\n        /* \"--CODEGEN--\":39761:39900   */\n      swap1\n      pop\n        /* \"--CODEGEN--\":39665:39910   */\n      swap2\n      swap1\n      pop\n      jump\n        /* \"--CODEGEN--\":39917:40274   */\n    tag_195:\n      0x00\n        /* \"--CODEGEN--\":40083:40085   */\n      0x20\n        /* \"--CODEGEN--\":40072:40081   */\n      dup3\n        /* \"--CODEGEN--\":40068:40086   */\n      add\n        /* \"--CODEGEN--\":40060:40086   */\n      swap1\n      pop\n        /* \"--CODEGEN--\":40133:40142   */\n      dup2\n        /* \"--CODEGEN--\":40127:40131   */\n      dup2\n        /* \"--CODEGEN--\":40123:40143   */\n      sub\n        /* \"--CODEGEN--\":40119:40120   */\n      0x00\n        /* \"--CODEGEN--\":40108:40117   */\n      dup4\n        /* \"--CODEGEN--\":40104:40121   */\n      add\n        /* \"--CODEGEN--\":40097:40144   */\n      mstore\n        /* \"--CODEGEN--\":40158:40264   */\n      tag_1010\n        /* \"--CODEGEN--\":40259:40263   */\n      dup2\n        /* \"--CODEGEN--\":40250:40256   */\n      dup5\n        /* \"--CODEGEN--\":40158:40264   */\n      jump(tag_894)\n    tag_1010:\n        /* \"--CODEGEN--\":40150:40264   */\n      swap1\n      pop\n        /* \"--CODEGEN--\":40054:40274   */\n      swap3\n      swap2\n      pop\n      pop\n      jump\n        /* \"--CODEGEN--\":40281:40494   */\n    tag_144:\n      0x00\n        /* \"--CODEGEN--\":40399:40401   */\n      0x20\n        /* \"--CODEGEN--\":40388:40397   */\n      dup3\n        /* \"--CODEGEN--\":40384:40402   */\n      add\n        /* \"--CODEGEN--\":40376:40402   */\n      swap1\n      pop\n        /* \"--CODEGEN--\":40413:40484   */\n      tag_1012\n        /* \"--CODEGEN--\":40481:40482   */\n      0x00\n        /* \"--CODEGEN--\":40470:40479   */\n      dup4\n        /* \"--CODEGEN--\":40466:40483   */\n      add\n        /* \"--CODEGEN--\":40457:40463   */\n      dup5\n        /* \"--CODEGEN--\":40413:40484   */\n      jump(tag_906)\n    tag_1012:\n        /* \"--CODEGEN--\":40370:40494   */\n      swap3\n      swap2\n      pop\n      pop\n      jump\n        /* \"--CODEGEN--\":40501:40710   */\n    tag_101:\n      0x00\n        /* \"--CODEGEN--\":40617:40619   */\n      0x20\n        /* \"--CODEGEN--\":40606:40615   */\n      dup3\n        /* \"--CODEGEN--\":40602:40620   */\n      add\n        /* \"--CODEGEN--\":40594:40620   */\n      swap1\n      pop\n        /* \"--CODEGEN--\":40631:40700   */\n      tag_1014\n        /* \"--CODEGEN--\":40697:40698   */\n      0x00\n        /* \"--CODEGEN--\":40686:40695   */\n      dup4\n        /* \"--CODEGEN--\":40682:40699   */\n      add\n        /* \"--CODEGEN--\":40673:40679   */\n      dup5\n        /* \"--CODEGEN--\":40631:40700   */\n      jump(tag_909)\n    tag_1014:\n        /* \"--CODEGEN--\":40588:40710   */\n      swap3\n      swap2\n      pop\n      pop\n      jump\n        /* \"--CODEGEN--\":40717:40922   */\n    tag_200:\n      0x00\n        /* \"--CODEGEN--\":40831:40833   */\n      0x20\n        /* \"--CODEGEN--\":40820:40829   */\n      dup3\n        /* \"--CODEGEN--\":40816:40834   */\n      add\n        /* \"--CODEGEN--\":40808:40834   */\n      swap1\n      pop\n        /* \"--CODEGEN--\":40845:40912   */\n      tag_1016\n        /* \"--CODEGEN--\":40909:40910   */\n      0x00\n        /* \"--CODEGEN--\":40898:40907   */\n      dup4\n        /* \"--CODEGEN--\":40894:40911   */\n      add\n        /* \"--CODEGEN--\":40885:40891   */\n      dup5\n        /* \"--CODEGEN--\":40845:40912   */\n      jump(tag_913)\n    tag_1016:\n        /* \"--CODEGEN--\":40802:40922   */\n      swap3\n      swap2\n      pop\n      pop\n      jump\n        /* \"--CODEGEN--\":40929:41076   */\n    tag_763:\n      0x00\n        /* \"--CODEGEN--\":41011:41014   */\n      dup2\n        /* \"--CODEGEN--\":41003:41014   */\n      swap1\n      pop\n        /* \"--CODEGEN--\":41049:41053   */\n      0x20\n        /* \"--CODEGEN--\":41044:41047   */\n      dup3\n        /* \"--CODEGEN--\":41040:41054   */\n      add\n        /* \"--CODEGEN--\":41032:41054   */\n      swap1\n      pop\n        /* \"--CODEGEN--\":40997:41076   */\n      swap2\n      swap1\n      pop\n      jump\n        /* \"--CODEGEN--\":41083:41216   */\n    tag_759:\n      0x00\n        /* \"--CODEGEN--\":41188:41193   */\n      dup2\n        /* \"--CODEGEN--\":41182:41194   */\n      mload\n        /* \"--CODEGEN--\":41172:41194   */\n      swap1\n      pop\n        /* \"--CODEGEN--\":41153:41216   */\n      swap2\n      swap1\n      pop\n      jump\n        /* \"--CODEGEN--\":41223:41340   */\n    tag_801:\n      0x00\n        /* \"--CODEGEN--\":41312:41317   */\n      dup2\n        /* \"--CODEGEN--\":41306:41318   */\n      mload\n        /* \"--CODEGEN--\":41296:41318   */\n      swap1\n      pop\n        /* \"--CODEGEN--\":41277:41340   */\n      swap2\n      swap1\n      pop\n      jump\n        /* \"--CODEGEN--\":41347:41469   */\n    tag_816:\n      0x00\n        /* \"--CODEGEN--\":41441:41446   */\n      dup2\n        /* \"--CODEGEN--\":41435:41447   */\n      mload\n        /* \"--CODEGEN--\":41425:41447   */\n      swap1\n      pop\n        /* \"--CODEGEN--\":41406:41469   */\n      swap2\n      swap1\n      pop\n      jump\n        /* \"--CODEGEN--\":41476:41580   */\n    tag_769:\n      0x00\n        /* \"--CODEGEN--\":41570:41574   */\n      0x20\n        /* \"--CODEGEN--\":41565:41568   */\n      dup3\n        /* \"--CODEGEN--\":41561:41575   */\n      add\n        /* \"--CODEGEN--\":41553:41575   */\n      swap1\n      pop\n        /* \"--CODEGEN--\":41547:41580   */\n      swap2\n      swap1\n      pop\n      jump\n        /* \"--CODEGEN--\":41588:41756   */\n    tag_761:\n      0x00\n        /* \"--CODEGEN--\":41708:41714   */\n      dup3\n        /* \"--CODEGEN--\":41703:41706   */\n      dup3\n        /* \"--CODEGEN--\":41696:41715   */\n      mstore\n        /* \"--CODEGEN--\":41745:41749   */\n      0x20\n        /* \"--CODEGEN--\":41740:41743   */\n      dup3\n        /* \"--CODEGEN--\":41736:41750   */\n      add\n        /* \"--CODEGEN--\":41721:41750   */\n      swap1\n      pop\n        /* \"--CODEGEN--\":41689:41756   */\n      swap3\n      swap2\n      pop\n      pop\n      jump\n        /* \"--CODEGEN--\":41765:41927   */\n    tag_788:\n      0x00\n        /* \"--CODEGEN--\":41879:41885   */\n      dup3\n        /* \"--CODEGEN--\":41874:41877   */\n      dup3\n        /* \"--CODEGEN--\":41867:41886   */\n      mstore\n        /* \"--CODEGEN--\":41916:41920   */\n      0x20\n        /* \"--CODEGEN--\":41911:41914   */\n      dup3\n        /* \"--CODEGEN--\":41907:41921   */\n      add\n        /* \"--CODEGEN--\":41892:41921   */\n      swap1\n      pop\n        /* \"--CODEGEN--\":41860:41927   */\n      swap3\n      swap2\n      pop\n      pop\n      jump\n        /* \"--CODEGEN--\":41936:42080   */\n    tag_796:\n      0x00\n        /* \"--CODEGEN--\":42071:42074   */\n      dup2\n        /* \"--CODEGEN--\":42056:42074   */\n      swap1\n      pop\n        /* \"--CODEGEN--\":42049:42080   */\n      swap3\n      swap2\n      pop\n      pop\n      jump\n        /* \"--CODEGEN--\":42089:42252   */\n    tag_818:\n      0x00\n        /* \"--CODEGEN--\":42204:42210   */\n      dup3\n        /* \"--CODEGEN--\":42199:42202   */\n      dup3\n        /* \"--CODEGEN--\":42192:42211   */\n      mstore\n        /* \"--CODEGEN--\":42241:42245   */\n      0x20\n        /* \"--CODEGEN--\":42236:42239   */\n      dup3\n        /* \"--CODEGEN--\":42232:42246   */\n      add\n        /* \"--CODEGEN--\":42217:42246   */\n      swap1\n      pop\n        /* \"--CODEGEN--\":42185:42252   */\n      swap3\n      swap2\n      pop\n      pop\n      jump\n        /* \"--CODEGEN--\":42261:42406   */\n    tag_884:\n      0x00\n        /* \"--CODEGEN--\":42397:42400   */\n      dup2\n        /* \"--CODEGEN--\":42382:42400   */\n      swap1\n      pop\n        /* \"--CODEGEN--\":42375:42406   */\n      swap3\n      swap2\n      pop\n      pop\n      jump\n        /* \"--CODEGEN--\":42414:42505   */\n    tag_747:\n      0x00\n        /* \"--CODEGEN--\":42476:42500   */\n      tag_1028\n        /* \"--CODEGEN--\":42494:42499   */\n      dup3\n        /* \"--CODEGEN--\":42476:42500   */\n      jump(tag_1029)\n    tag_1028:\n        /* \"--CODEGEN--\":42465:42500   */\n      swap1\n      pop\n        /* \"--CODEGEN--\":42459:42505   */\n      swap2\n      swap1\n      pop\n      jump\n        /* \"--CODEGEN--\":42512:42611   */\n    tag_1030:\n      0x00\n        /* \"--CODEGEN--\":42582:42606   */\n      tag_1032\n        /* \"--CODEGEN--\":42600:42605   */\n      dup3\n        /* \"--CODEGEN--\":42582:42606   */\n      jump(tag_1029)\n    tag_1032:\n        /* \"--CODEGEN--\":42571:42606   */\n      swap1\n      pop\n        /* \"--CODEGEN--\":42565:42611   */\n      swap2\n      swap1\n      pop\n      jump\n        /* \"--CODEGEN--\":42618:42703   */\n    tag_773:\n      0x00\n        /* \"--CODEGEN--\":42691:42696   */\n      dup2\n        /* \"--CODEGEN--\":42684:42697   */\n      iszero\n        /* \"--CODEGEN--\":42677:42698   */\n      iszero\n        /* \"--CODEGEN--\":42666:42698   */\n      swap1\n      pop\n        /* \"--CODEGEN--\":42660:42703   */\n      swap2\n      swap1\n      pop\n      jump\n        /* \"--CODEGEN--\":42710:42782   */\n    tag_777:\n      0x00\n        /* \"--CODEGEN--\":42772:42777   */\n      dup2\n        /* \"--CODEGEN--\":42761:42777   */\n      swap1\n      pop\n        /* \"--CODEGEN--\":42755:42782   */\n      swap2\n      swap1\n      pop\n      jump\n        /* \"--CODEGEN--\":42789:42933   */\n    tag_784:\n      0x00\n        /* \"--CODEGEN--\":42861:42927   */\n      0xffffffff00000000000000000000000000000000000000000000000000000000\n        /* \"--CODEGEN--\":42854:42859   */\n      dup3\n        /* \"--CODEGEN--\":42850:42928   */\n      and\n        /* \"--CODEGEN--\":42839:42928   */\n      swap1\n      pop\n        /* \"--CODEGEN--\":42833:42933   */\n      swap2\n      swap1\n      pop\n      jump\n        /* \"--CODEGEN--\":42940:43080   */\n    tag_1036:\n      0x00\n        /* \"--CODEGEN--\":43019:43024   */\n      dup2\n        /* \"--CODEGEN--\":43008:43024   */\n      swap1\n      pop\n        /* \"--CODEGEN--\":43025:43075   */\n      tag_1038\n        /* \"--CODEGEN--\":43069:43074   */\n      dup3\n        /* \"--CODEGEN--\":43025:43075   */\n      jump(tag_1039)\n    tag_1038:\n        /* \"--CODEGEN--\":43002:43080   */\n      swap2\n      swap1\n      pop\n      jump\n        /* \"--CODEGEN--\":43087:43208   */\n    tag_1029:\n      0x00\n        /* \"--CODEGEN--\":43160:43202   */\n      0xffffffffffffffffffffffffffffffffffffffff\n        /* \"--CODEGEN--\":43153:43158   */\n      dup3\n        /* \"--CODEGEN--\":43149:43203   */\n      and\n        /* \"--CODEGEN--\":43138:43203   */\n      swap1\n      pop\n        /* \"--CODEGEN--\":43132:43208   */\n      swap2\n      swap1\n      pop\n      jump\n        /* \"--CODEGEN--\":43215:43287   */\n    tag_905:\n      0x00\n        /* \"--CODEGEN--\":43277:43282   */\n      dup2\n        /* \"--CODEGEN--\":43266:43282   */\n      swap1\n      pop\n        /* \"--CODEGEN--\":43260:43287   */\n      swap2\n      swap1\n      pop\n      jump\n        /* \"--CODEGEN--\":43294:43390   */\n    tag_912:\n      0x00\n        /* \"--CODEGEN--\":43366:43384   */\n      0xffffffffffffffff\n        /* \"--CODEGEN--\":43359:43364   */\n      dup3\n        /* \"--CODEGEN--\":43355:43385   */\n      and\n        /* \"--CODEGEN--\":43344:43385   */\n      swap1\n      pop\n        /* \"--CODEGEN--\":43338:43390   */\n      swap2\n      swap1\n      pop\n      jump\n        /* \"--CODEGEN--\":43397:43495   */\n    tag_1043:\n      0x00\n        /* \"--CODEGEN--\":43469:43489   */\n      0xffffffffffffffffff\n        /* \"--CODEGEN--\":43462:43467   */\n      dup3\n        /* \"--CODEGEN--\":43458:43490   */\n      and\n        /* \"--CODEGEN--\":43447:43490   */\n      swap1\n      pop\n        /* \"--CODEGEN--\":43441:43495   */\n      swap2\n      swap1\n      pop\n      jump\n        /* \"--CODEGEN--\":43502:43583   */\n    tag_916:\n      0x00\n        /* \"--CODEGEN--\":43573:43577   */\n      0xff\n        /* \"--CODEGEN--\":43566:43571   */\n      dup3\n        /* \"--CODEGEN--\":43562:43578   */\n      and\n        /* \"--CODEGEN--\":43551:43578   */\n      swap1\n      pop\n        /* \"--CODEGEN--\":43545:43583   */\n      swap2\n      swap1\n      pop\n      jump\n        /* \"--CODEGEN--\":43590:43719   */\n    tag_744:\n      0x00\n        /* \"--CODEGEN--\":43677:43714   */\n      tag_1047\n        /* \"--CODEGEN--\":43708:43713   */\n      dup3\n        /* \"--CODEGEN--\":43677:43714   */\n      jump(tag_1048)\n    tag_1047:\n        /* \"--CODEGEN--\":43664:43714   */\n      swap1\n      pop\n        /* \"--CODEGEN--\":43658:43719   */\n      swap2\n      swap1\n      pop\n      jump\n        /* \"--CODEGEN--\":43726:43866   */\n    tag_809:\n      0x00\n        /* \"--CODEGEN--\":43820:43861   */\n      tag_1050\n        /* \"--CODEGEN--\":43855:43860   */\n      dup3\n        /* \"--CODEGEN--\":43820:43861   */\n      jump(tag_1036)\n    tag_1050:\n        /* \"--CODEGEN--\":43807:43861   */\n      swap1\n      pop\n        /* \"--CODEGEN--\":43801:43866   */\n      swap2\n      swap1\n      pop\n      jump\n        /* \"--CODEGEN--\":43873:43994   */\n    tag_1048:\n      0x00\n        /* \"--CODEGEN--\":43952:43989   */\n      tag_1052\n        /* \"--CODEGEN--\":43983:43988   */\n      dup3\n        /* \"--CODEGEN--\":43952:43989   */\n      jump(tag_1053)\n    tag_1052:\n        /* \"--CODEGEN--\":43939:43989   */\n      swap1\n      pop\n        /* \"--CODEGEN--\":43933:43994   */\n      swap2\n      swap1\n      pop\n      jump\n        /* \"--CODEGEN--\":44001:44109   */\n    tag_1053:\n      0x00\n        /* \"--CODEGEN--\":44080:44104   */\n      tag_1055\n        /* \"--CODEGEN--\":44098:44103   */\n      dup3\n        /* \"--CODEGEN--\":44080:44104   */\n      jump(tag_1029)\n    tag_1055:\n        /* \"--CODEGEN--\":44067:44104   */\n      swap1\n      pop\n        /* \"--CODEGEN--\":44061:44109   */\n      swap2\n      swap1\n      pop\n      jump\n        /* \"--CODEGEN--\":44117:44262   */\n    tag_790:\n        /* \"--CODEGEN--\":44198:44204   */\n      dup3\n        /* \"--CODEGEN--\":44193:44196   */\n      dup2\n        /* \"--CODEGEN--\":44188:44191   */\n      dup4\n        /* \"--CODEGEN--\":44175:44205   */\n      calldatacopy\n        /* \"--CODEGEN--\":44254:44255   */\n      0x00\n        /* \"--CODEGEN--\":44245:44251   */\n      dup4\n        /* \"--CODEGEN--\":44240:44243   */\n      dup4\n        /* \"--CODEGEN--\":44236:44252   */\n      add\n        /* \"--CODEGEN--\":44229:44256   */\n      mstore\n        /* \"--CODEGEN--\":44168:44262   */\n      pop\n      pop\n      pop\n      jump\n        /* \"--CODEGEN--\":44271:44539   */\n    tag_804:\n        /* \"--CODEGEN--\":44336:44337   */\n      0x00\n        /* \"--CODEGEN--\":44343:44444   */\n    tag_1058:\n        /* \"--CODEGEN--\":44357:44363   */\n      dup4\n        /* \"--CODEGEN--\":44354:44355   */\n      dup2\n        /* \"--CODEGEN--\":44351:44364   */\n      lt\n        /* \"--CODEGEN--\":44343:44444   */\n      iszero\n      tag_1060\n      jumpi\n        /* \"--CODEGEN--\":44433:44434   */\n      dup1\n        /* \"--CODEGEN--\":44428:44431   */\n      dup3\n        /* \"--CODEGEN--\":44424:44435   */\n      add\n        /* \"--CODEGEN--\":44418:44436   */\n      mload\n        /* \"--CODEGEN--\":44414:44415   */\n      dup2\n        /* \"--CODEGEN--\":44409:44412   */\n      dup5\n        /* \"--CODEGEN--\":44405:44416   */\n      add\n        /* \"--CODEGEN--\":44398:44437   */\n      mstore\n        /* \"--CODEGEN--\":44379:44381   */\n      0x20\n        /* \"--CODEGEN--\":44376:44377   */\n      dup2\n        /* \"--CODEGEN--\":44372:44382   */\n      add\n        /* \"--CODEGEN--\":44367:44382   */\n      swap1\n      pop\n        /* \"--CODEGEN--\":44343:44444   */\n      jump(tag_1058)\n    tag_1060:\n        /* \"--CODEGEN--\":44459:44465   */\n      dup4\n        /* \"--CODEGEN--\":44456:44457   */\n      dup2\n        /* \"--CODEGEN--\":44453:44466   */\n      gt\n        /* \"--CODEGEN--\":44450:44452   */\n      iszero\n      tag_1061\n      jumpi\n        /* \"--CODEGEN--\":44524:44525   */\n      0x00\n        /* \"--CODEGEN--\":44515:44521   */\n      dup5\n        /* \"--CODEGEN--\":44510:44513   */\n      dup5\n        /* \"--CODEGEN--\":44506:44522   */\n      add\n        /* \"--CODEGEN--\":44499:44526   */\n      mstore\n        /* \"--CODEGEN--\":44450:44452   */\n    tag_1061:\n        /* \"--CODEGEN--\":44320:44539   */\n      pop\n      pop\n      pop\n      pop\n      jump\n        /* \"--CODEGEN--\":44547:44642   */\n    tag_755:\n      0x00\n        /* \"--CODEGEN--\":44611:44637   */\n      tag_1063\n        /* \"--CODEGEN--\":44631:44636   */\n      dup3\n        /* \"--CODEGEN--\":44611:44637   */\n      jump(tag_1064)\n    tag_1063:\n        /* \"--CODEGEN--\":44600:44637   */\n      swap1\n      pop\n        /* \"--CODEGEN--\":44594:44642   */\n      swap2\n      swap1\n      pop\n      jump\n        /* \"--CODEGEN--\":44649:44738   */\n    tag_1064:\n      0x00\n        /* \"--CODEGEN--\":44713:44733   */\n      tag_1066\n        /* \"--CODEGEN--\":44727:44732   */\n      dup3\n        /* \"--CODEGEN--\":44713:44733   */\n      jump(tag_1067)\n    tag_1066:\n        /* \"--CODEGEN--\":44702:44733   */\n      swap1\n      pop\n        /* \"--CODEGEN--\":44696:44738   */\n      swap2\n      swap1\n      pop\n      jump\n        /* \"--CODEGEN--\":44745:44842   */\n    tag_792:\n      0x00\n        /* \"--CODEGEN--\":44833:44835   */\n      0x1f\n        /* \"--CODEGEN--\":44829:44836   */\n      not\n        /* \"--CODEGEN--\":44824:44826   */\n      0x1f\n        /* \"--CODEGEN--\":44817:44822   */\n      dup4\n        /* \"--CODEGEN--\":44813:44827   */\n      add\n        /* \"--CODEGEN--\":44809:44837   */\n      and\n        /* \"--CODEGEN--\":44799:44837   */\n      swap1\n      pop\n        /* \"--CODEGEN--\":44793:44842   */\n      swap2\n      swap1\n      pop\n      jump\n        /* \"--CODEGEN--\":44850:44944   */\n    tag_1067:\n      0x00\n        /* \"--CODEGEN--\":44928:44933   */\n      dup2\n        /* \"--CODEGEN--\":44924:44926   */\n      0x60\n        /* \"--CODEGEN--\":44920:44934   */\n      shl\n        /* \"--CODEGEN--\":44898:44934   */\n      swap1\n      pop\n        /* \"--CODEGEN--\":44892:44944   */\n      swap2\n      swap1\n      pop\n      jump\n        /* \"--CODEGEN--\":44952:45060   */\n    tag_1039:\n        /* \"--CODEGEN--\":45038:45039   */\n      0x05\n        /* \"--CODEGEN--\":45031:45036   */\n      dup2\n        /* \"--CODEGEN--\":45028:45040   */\n      lt\n        /* \"--CODEGEN--\":45018:45020   */\n      tag_1071\n      jumpi\n        /* \"--CODEGEN--\":45044:45053   */\n      invalid\n        /* \"--CODEGEN--\":45018:45020   */\n    tag_1071:\n        /* \"--CODEGEN--\":45012:45060   */\n      pop\n      jump\n        /* \"--CODEGEN--\":45067:45184   */\n    tag_605:\n        /* \"--CODEGEN--\":45136:45160   */\n      tag_1073\n        /* \"--CODEGEN--\":45154:45159   */\n      dup2\n        /* \"--CODEGEN--\":45136:45160   */\n      jump(tag_747)\n    tag_1073:\n        /* \"--CODEGEN--\":45129:45134   */\n      dup2\n        /* \"--CODEGEN--\":45126:45161   */\n      eq\n        /* \"--CODEGEN--\":45116:45118   */\n      tag_1074\n      jumpi\n        /* \"--CODEGEN--\":45175:45176   */\n      0x00\n        /* \"--CODEGEN--\":45172:45173   */\n      dup1\n        /* \"--CODEGEN--\":45165:45177   */\n      revert\n        /* \"--CODEGEN--\":45116:45118   */\n    tag_1074:\n        /* \"--CODEGEN--\":45110:45184   */\n      pop\n      jump\n        /* \"--CODEGEN--\":45191:45324   */\n    tag_609:\n        /* \"--CODEGEN--\":45268:45300   */\n      tag_1076\n        /* \"--CODEGEN--\":45294:45299   */\n      dup2\n        /* \"--CODEGEN--\":45268:45300   */\n      jump(tag_1030)\n    tag_1076:\n        /* \"--CODEGEN--\":45261:45266   */\n      dup2\n        /* \"--CODEGEN--\":45258:45301   */\n      eq\n        /* \"--CODEGEN--\":45248:45250   */\n      tag_1077\n      jumpi\n        /* \"--CODEGEN--\":45315:45316   */\n      0x00\n        /* \"--CODEGEN--\":45312:45313   */\n      dup1\n        /* \"--CODEGEN--\":45305:45317   */\n      revert\n        /* \"--CODEGEN--\":45248:45250   */\n    tag_1077:\n        /* \"--CODEGEN--\":45242:45324   */\n      pop\n      jump\n        /* \"--CODEGEN--\":45331:45448   */\n    tag_623:\n        /* \"--CODEGEN--\":45400:45424   */\n      tag_1079\n        /* \"--CODEGEN--\":45418:45423   */\n      dup2\n        /* \"--CODEGEN--\":45400:45424   */\n      jump(tag_777)\n    tag_1079:\n        /* \"--CODEGEN--\":45393:45398   */\n      dup2\n        /* \"--CODEGEN--\":45390:45425   */\n      eq\n        /* \"--CODEGEN--\":45380:45382   */\n      tag_1080\n      jumpi\n        /* \"--CODEGEN--\":45439:45440   */\n      0x00\n        /* \"--CODEGEN--\":45436:45437   */\n      dup1\n        /* \"--CODEGEN--\":45429:45441   */\n      revert\n        /* \"--CODEGEN--\":45380:45382   */\n    tag_1080:\n        /* \"--CODEGEN--\":45374:45448   */\n      pop\n      jump\n        /* \"--CODEGEN--\":45455:45570   */\n    tag_627:\n        /* \"--CODEGEN--\":45523:45546   */\n      tag_1082\n        /* \"--CODEGEN--\":45540:45545   */\n      dup2\n        /* \"--CODEGEN--\":45523:45546   */\n      jump(tag_784)\n    tag_1082:\n        /* \"--CODEGEN--\":45516:45521   */\n      dup2\n        /* \"--CODEGEN--\":45513:45547   */\n      eq\n        /* \"--CODEGEN--\":45503:45505   */\n      tag_1083\n      jumpi\n        /* \"--CODEGEN--\":45561:45562   */\n      0x00\n        /* \"--CODEGEN--\":45558:45559   */\n      dup1\n        /* \"--CODEGEN--\":45551:45563   */\n      revert\n        /* \"--CODEGEN--\":45503:45505   */\n    tag_1083:\n        /* \"--CODEGEN--\":45497:45570   */\n      pop\n      jump\n        /* \"--CODEGEN--\":45577:45694   */\n    tag_636:\n        /* \"--CODEGEN--\":45646:45670   */\n      tag_1085\n        /* \"--CODEGEN--\":45664:45669   */\n      dup2\n        /* \"--CODEGEN--\":45646:45670   */\n      jump(tag_905)\n    tag_1085:\n        /* \"--CODEGEN--\":45639:45644   */\n      dup2\n        /* \"--CODEGEN--\":45636:45671   */\n      eq\n        /* \"--CODEGEN--\":45626:45628   */\n      tag_1086\n      jumpi\n        /* \"--CODEGEN--\":45685:45686   */\n      0x00\n        /* \"--CODEGEN--\":45682:45683   */\n      dup1\n        /* \"--CODEGEN--\":45675:45687   */\n      revert\n        /* \"--CODEGEN--\":45626:45628   */\n    tag_1086:\n        /* \"--CODEGEN--\":45620:45694   */\n      pop\n      jump\n        /* \"--CODEGEN--\":45701:45816   */\n    tag_640:\n        /* \"--CODEGEN--\":45769:45792   */\n      tag_1088\n        /* \"--CODEGEN--\":45786:45791   */\n      dup2\n        /* \"--CODEGEN--\":45769:45792   */\n      jump(tag_912)\n    tag_1088:\n        /* \"--CODEGEN--\":45762:45767   */\n      dup2\n        /* \"--CODEGEN--\":45759:45793   */\n      eq\n        /* \"--CODEGEN--\":45749:45751   */\n      tag_1089\n      jumpi\n        /* \"--CODEGEN--\":45807:45808   */\n      0x00\n        /* \"--CODEGEN--\":45804:45805   */\n      dup1\n        /* \"--CODEGEN--\":45797:45809   */\n      revert\n        /* \"--CODEGEN--\":45749:45751   */\n    tag_1089:\n        /* \"--CODEGEN--\":45743:45816   */\n      pop\n      jump\n        /* \"--CODEGEN--\":45823:45938   */\n    tag_644:\n        /* \"--CODEGEN--\":45891:45914   */\n      tag_1091\n        /* \"--CODEGEN--\":45908:45913   */\n      dup2\n        /* \"--CODEGEN--\":45891:45914   */\n      jump(tag_1043)\n    tag_1091:\n        /* \"--CODEGEN--\":45884:45889   */\n      dup2\n        /* \"--CODEGEN--\":45881:45915   */\n      eq\n        /* \"--CODEGEN--\":45871:45873   */\n      tag_1092\n      jumpi\n        /* \"--CODEGEN--\":45929:45930   */\n      0x00\n        /* \"--CODEGEN--\":45926:45927   */\n      dup1\n        /* \"--CODEGEN--\":45919:45931   */\n      revert\n        /* \"--CODEGEN--\":45871:45873   */\n    tag_1092:\n        /* \"--CODEGEN--\":45865:45938   */\n      pop\n      jump\n        /* \"--CODEGEN--\":45945:46058   */\n    tag_648:\n        /* \"--CODEGEN--\":46012:46034   */\n      tag_1094\n        /* \"--CODEGEN--\":46028:46033   */\n      dup2\n        /* \"--CODEGEN--\":46012:46034   */\n      jump(tag_916)\n    tag_1094:\n        /* \"--CODEGEN--\":46005:46010   */\n      dup2\n        /* \"--CODEGEN--\":46002:46035   */\n      eq\n        /* \"--CODEGEN--\":45992:45994   */\n      tag_1095\n      jumpi\n        /* \"--CODEGEN--\":46049:46050   */\n      0x00\n        /* \"--CODEGEN--\":46046:46047   */\n      dup1\n        /* \"--CODEGEN--\":46039:46051   */\n      revert\n        /* \"--CODEGEN--\":45992:45994   */\n    tag_1095:\n        /* \"--CODEGEN--\":45986:46058   */\n      pop\n      jump\n\n    auxdata: 0xa2646970667358221220bc7452332d409f541c31856451f666ae9d998f8aa8566508883d1310c26b6c9d64736f6c63430006040033\n}\n",
				"bytecode": {
					"linkReferences": {},
					"object": "60806040523480156200001157600080fd5b5060405162004d8938038062004d898339818101604052810190620000379190620004bc565b60008060006101000a81548160ff02191690831515021790555084600260006101000a81548160ff021916908360ff160217905550826003819055508160068190555080600781905550620000966000801b336200013460201b60201c565b620000c0604051620000a89062000601565b60405180910390206000801b6200014a60201b60201c565b60005b8451811015620001285762000108604051620000df9062000601565b6040518091039020868381518110620000f457fe5b60200260200101516200016960201b60201c565b6004600081548092919060010191905055508080600101915050620000c3565b50505050505062000746565b620001468282620001f860201b60201c565b5050565b8060016000848152602001908152602001600020600201819055505050565b620001a06001600084815260200190815260200160002060020154620001946200029c60201b60201c565b620002a460201b60201c565b620001e2576040517f08c379a0000000000000000000000000000000000000000000000000000000008152600401620001d99062000618565b60405180910390fd5b620001f48282620001f860201b60201c565b5050565b620002278160016000858152602001908152602001600020600001620002dd60201b6200285b1790919060201c565b1562000298576200023d6200029c60201b60201c565b73ffffffffffffffffffffffffffffffffffffffff168173ffffffffffffffffffffffffffffffffffffffff16837f2f8788117e7eff1d82e926ec794901d17c78024a50270940304540a733656f0d60405160405180910390a45b5050565b600033905090565b6000620002d582600160008681526020019081526020016000206000016200031560201b620027601790919060201c565b905092915050565b60006200030d836000018373ffffffffffffffffffffffffffffffffffffffff1660001b6200034d60201b60201c565b905092915050565b600062000345836000018373ffffffffffffffffffffffffffffffffffffffff1660001b620003c760201b60201c565b905092915050565b6000620003618383620003c760201b60201c565b620003bc578260000182908060018154018082558091505060019003906000526020600020016000909190919091505582600001805490508360010160008481526020019081526020016000208190555060019050620003c1565b600090505b92915050565b600080836001016000848152602001908152602001600020541415905092915050565b600081519050620003fb81620006f8565b92915050565b600082601f8301126200041357600080fd5b81516200042a620004248262000668565b6200063a565b915081818352602084019350602081019050838560208402820111156200045057600080fd5b60005b83811015620004845781620004698882620003ea565b84526020840193506020830192505060018101905062000453565b5050505092915050565b6000815190506200049f8162000712565b92915050565b600081519050620004b6816200072c565b92915050565b600080600080600060a08688031215620004d557600080fd5b6000620004e588828901620004a5565b955050602086015167ffffffffffffffff8111156200050357600080fd5b620005118882890162000401565b945050604062000524888289016200048e565b935050606062000537888289016200048e565b92505060806200054a888289016200048e565b9150509295509295909350565b600062000566602f8362000691565b91507f416363657373436f6e74726f6c3a2073656e646572206d75737420626520616e60008301527f2061646d696e20746f206772616e7400000000000000000000000000000000006020830152604082019050919050565b6000620005ce600c83620006a2565b91507f52454c415945525f524f4c4500000000000000000000000000000000000000006000830152600c82019050919050565b60006200060e82620005bf565b9150819050919050565b60006020820190508181036000830152620006338162000557565b9050919050565b6000604051905081810181811067ffffffffffffffff821117156200065e57600080fd5b8060405250919050565b600067ffffffffffffffff8211156200068057600080fd5b602082029050602081019050919050565b600082825260208201905092915050565b600081905092915050565b6000620006ba82620006c1565b9050919050565b600073ffffffffffffffffffffffffffffffffffffffff82169050919050565b6000819050919050565b600060ff82169050919050565b6200070381620006ad565b81146200070f57600080fd5b50565b6200071d81620006e1565b81146200072957600080fd5b50565b6200073781620006eb565b81146200074357600080fd5b50565b61463380620007566000396000f3fe6080604052600436106102305760003560e01c806384db809f1161012e578063beab7131116100ab578063cdb0f73a1161006f578063cdb0f73a14610877578063d547741f146108a0578063d7a9cd79146108c9578063e8437ee7146108f4578063ffaac0eb1461091d57610230565b8063beab713114610790578063c5b37c22146107bb578063c5ec8970146107e6578063ca15c87314610811578063cb10f2151461084e57610230565b8063926d7d7f116100f2578063926d7d7f146106a95780639d5773e0146106d45780639d82dd63146106ff578063a217fddf14610728578063a9cf69fa1461075357610230565b806384db809f146105a05780638c0c2631146105dd5780639010d07c1461060657806391c404ac1461064357806391d148541461066c57610230565b80634b0b919d116101bc5780635e1fab0f116101805780635e1fab0f146104cf578063780cf004146104f85780637febe63f14610521578063802aabe81461055e57806380ae1c281461058957610230565b80634b0b919d146103c15780634e056005146103fe5780635059871914610427578063541d5548146104675780635c975abb146104a457610230565b80632f2ff15d116102035780632f2ff15d146102e057806336568abe146103095780633ee7094a146103325780634454b20d1461036f5780634603ae381461039857610230565b806305e2ca171461023557806317f03ce5146102515780631ff013f11461027a578063248a9ca3146102a3575b600080fd5b61024f600480360381019061024a9190613229565b610934565b005b34801561025d57600080fd5b5061027860048036038101906102739190613295565b610b91565b005b34801561028657600080fd5b506102a1600480360381019061029c91906132e4565b610d3e565b005b3480156102af57600080fd5b506102ca60048036038101906102c5919061306f565b6114bf565b6040516102d79190613df0565b60405180910390f35b3480156102ec57600080fd5b5061030760048036038101906103029190613098565b6114df565b005b34801561031557600080fd5b50610330600480360381019061032b9190613098565b611553565b005b34801561033e57600080fd5b5061035960048036038101906103549190613139565b6115d6565b6040516103669190613f75565b60405180910390f35b34801561037b57600080fd5b5061039660048036038101906103919190613347565b611693565b005b3480156103a457600080fd5b506103bf60048036038101906103ba9190612ffa565b6119d4565b005b3480156103cd57600080fd5b506103e860048036038101906103e39190613200565b611a7a565b6040516103f591906142d6565b60405180910390f35b34801561040a57600080fd5b5061042560048036038101906104209190613110565b611aa1565b005b34801561043357600080fd5b5061044e60048036038101906104499190613175565b611ae0565b60405161045e9493929190613ea2565b60405180910390f35b34801561047357600080fd5b5061048e60048036038101906104899190612e43565b611b2a565b60405161049b9190613dd5565b60405180910390f35b3480156104b057600080fd5b506104b9611b50565b6040516104c69190613dd5565b60405180910390f35b3480156104db57600080fd5b506104f660048036038101906104f19190612e43565b611b66565b005b34801561050457600080fd5b5061051f600480360381019061051a9190612ed1565b611b8b565b005b34801561052d57600080fd5b50610548600480360381019061054391906131b1565b611c0e565b6040516105559190613dd5565b60405180910390f35b34801561056a57600080fd5b50610573611c4a565b60405161058091906142bb565b60405180910390f35b34801561059557600080fd5b5061059e611c50565b005b3480156105ac57600080fd5b506105c760048036038101906105c2919061306f565b611c62565b6040516105d49190613d68565b60405180910390f35b3480156105e957600080fd5b5061060460048036038101906105ff9190612e95565b611c95565b005b34801561061257600080fd5b5061062d600480360381019061062891906130d4565b611d12565b60405161063a9190613d68565b60405180910390f35b34801561064f57600080fd5b5061066a60048036038101906106659190613110565b611d44565b005b34801561067857600080fd5b50610693600480360381019061068e9190613098565b611d9b565b6040516106a09190613dd5565b60405180910390f35b3480156106b557600080fd5b506106be611dcd565b6040516106cb9190613df0565b60405180910390f35b3480156106e057600080fd5b506106e9611de4565b6040516106f691906142bb565b60405180910390f35b34801561070b57600080fd5b5061072660048036038101906107219190612e43565b611dea565b005b34801561073457600080fd5b5061073d611ec4565b60405161074a9190613df0565b60405180910390f35b34801561075f57600080fd5b5061077a60048036038101906107759190613295565b611ecb565b6040516107879190614299565b60405180910390f35b34801561079c57600080fd5b506107a56120ac565b6040516107b291906142f1565b60405180910390f35b3480156107c757600080fd5b506107d06120bf565b6040516107dd91906142bb565b60405180910390f35b3480156107f257600080fd5b506107fb6120c5565b60405161080891906142bb565b60405180910390f35b34801561081d57600080fd5b506108386004803603810190610833919061306f565b6120cb565b60405161084591906142bb565b60405180910390f35b34801561085a57600080fd5b5061087560048036038101906108709190612f34565b6120f2565b005b34801561088357600080fd5b5061089e60048036038101906108999190612e43565b6121c4565b005b3480156108ac57600080fd5b506108c760048036038101906108c29190613098565b61229e565b005b3480156108d557600080fd5b506108de612312565b6040516108eb91906142bb565b60405180910390f35b34801561090057600080fd5b5061091b60048036038101906109169190612f83565b612318565b005b34801561092957600080fd5b506109326123f0565b005b61093c612402565b6006543414610980576040517f08c379a0000000000000000000000000000000000000000000000000000000008152600401610977906140b9565b60405180910390fd5b60006009600085815260200190815260200160002060009054906101000a900473ffffffffffffffffffffffffffffffffffffffff169050600073ffffffffffffffffffffffffffffffffffffffff168173ffffffffffffffffffffffffffffffffffffffff161415610a28576040517f08c379a0000000000000000000000000000000000000000000000000000000008152600401610a1f90614119565b60405180910390fd5b6000600860008760ff1660ff168152602001908152602001600020600081819054906101000a900467ffffffffffffffff1660010191906101000a81548167ffffffffffffffff021916908367ffffffffffffffff160217905590508383600a60008467ffffffffffffffff1667ffffffffffffffff16815260200190815260200160002060008960ff1660ff1681526020019081526020016000209190610ad1929190612b04565b5060008290508073ffffffffffffffffffffffffffffffffffffffff166338995da9878985338a8a6040518763ffffffff1660e01b8152600401610b1a96959493929190613f19565b600060405180830381600087803b158015610b3457600080fd5b505af1158015610b48573d6000803e3d6000fd5b505050508167ffffffffffffffff16868860ff167fdbb69440df8433824a026ef190652f29929eb64b4d1d5d2a69be8afe3e6eaed860405160405180910390a450505050505050565b610b99612453565b60008360ff1660088467ffffffffffffffff1668ffffffffffffffffff16901b1790506000600b60008368ffffffffffffffffff1668ffffffffffffffffff16815260200190815260200160002060008481526020019081526020016000209050600480811115610c0657fe5b8160040160009054906101000a900460ff166004811115610c2357fe5b1415610c64576040517f08c379a0000000000000000000000000000000000000000000000000000000008152600401610c5b906140f9565b60405180910390fd5b600754610c754383600501546124c5565b11610cb5576040517f08c379a0000000000000000000000000000000000000000000000000000000008152600401610cac90614159565b60405180910390fd5b60048160040160006101000a81548160ff02191690836004811115610cd657fe5b0217905550600480811115610ce757fe5b8467ffffffffffffffff168660ff167f803c5a12f6bde629cea32e63d4b92d1b560816a6fb72e939d3c89e1cab65041784600001548560010154604051610d2f929190613e79565b60405180910390a45050505050565b610d4661250f565b610d4e612402565b60008460ff1660088567ffffffffffffffff1668ffffffffffffffffff16901b1790506000600b60008368ffffffffffffffffff1668ffffffffffffffffff16815260200190815260200160002060008481526020019081526020016000209050600073ffffffffffffffffffffffffffffffffffffffff166009600086815260200190815260200160002060009054906101000a900473ffffffffffffffffffffffffffffffffffffffff1673ffffffffffffffffffffffffffffffffffffffff161415610e52576040517f08c379a0000000000000000000000000000000000000000000000000000000008152600401610e4990614259565b60405180910390fd5b60018160040160009054906101000a900460ff166004811115610e7157fe5b1115610eb2576040517f08c379a0000000000000000000000000000000000000000000000000000000008152600401610ea9906141b9565b60405180910390fd5b600c60008368ffffffffffffffffff1668ffffffffffffffffff168152602001908152602001600020600084815260200190815260200160002060003373ffffffffffffffffffffffffffffffffffffffff1673ffffffffffffffffffffffffffffffffffffffff16815260200190815260200160002060009054906101000a900460ff1615610f77576040517f08c379a0000000000000000000000000000000000000000000000000000000008152600401610f6e90614059565b60405180910390fd5b60008160040160009054906101000a900460ff166004811115610f9657fe5b14156111b657600560008154600101919050819055506040518060c001604052808581526020018481526020016001604051908082528060200260200182016040528015610ff35781602001602082028036833780820191505090505b50815260200160006040519080825280602002602001820160405280156110295781602001602082028036833780820191505090505b5081526020016001600481111561103c57fe5b815260200143815250600b60008468ffffffffffffffffff1668ffffffffffffffffff1681526020019081526020016000206000858152602001908152602001600020600082015181600001556020820151816001015560408201518160020190805190602001906110af929190612b84565b5060608201518160030190805190602001906110cc929190612b84565b5060808201518160040160006101000a81548160ff021916908360048111156110f157fe5b021790555060a08201518160050155905050338160020160008154811061111457fe5b9060005260206000200160006101000a81548173ffffffffffffffffffffffffffffffffffffffff021916908373ffffffffffffffffffffffffffffffffffffffff1602179055506001600481111561116957fe5b8567ffffffffffffffff168760ff167f803c5a12f6bde629cea32e63d4b92d1b560816a6fb72e939d3c89e1cab65041787876040516111a9929190613e79565b60405180910390a46112f9565b6007546111c74383600501546124c5565b111561124c5760048160040160006101000a81548160ff021916908360048111156111ee57fe5b02179055506004808111156111ff57fe5b8567ffffffffffffffff168760ff167f803c5a12f6bde629cea32e63d4b92d1b560816a6fb72e939d3c89e1cab650417878760405161123f929190613e79565b60405180910390a46112f8565b80600101548314611292576040517f08c379a000000000000000000000000000000000000000000000000000000000815260040161128990614239565b60405180910390fd5b80600201339080600181540180825580915050600190039060005260206000200160009091909190916101000a81548173ffffffffffffffffffffffffffffffffffffffff021916908373ffffffffffffffffffffffffffffffffffffffff1602179055505b5b60048081111561130557fe5b8160040160009054906101000a900460ff16600481111561132257fe5b146114b7576001600c60008468ffffffffffffffffff1668ffffffffffffffffff168152602001908152602001600020600085815260200190815260200160002060003373ffffffffffffffffffffffffffffffffffffffff1673ffffffffffffffffffffffffffffffffffffffff16815260200190815260200160002060006101000a81548160ff0219169083151502179055508060040160009054906101000a900460ff1660048111156113d457fe5b8567ffffffffffffffff168760ff167f25f8daaa4635a7729927ba3f5b3d59cc3320aca7c32c9db4e7ca7b9574343640876040516114129190613df0565b60405180910390a460016003541115806114355750600354816002018054905010155b156114b65760028160040160006101000a81548160ff0219169083600481111561145b57fe5b02179055506002600481111561146d57fe5b8567ffffffffffffffff168760ff167f803c5a12f6bde629cea32e63d4b92d1b560816a6fb72e939d3c89e1cab65041787876040516114ad929190613e79565b60405180910390a45b5b505050505050565b600060016000838152602001908152602001600020600201549050919050565b611506600160008481526020019081526020016000206002015461150161256d565b611d9b565b611545576040517f08c379a000000000000000000000000000000000000000000000000000000000815260040161153c90614039565b60405180910390fd5b61154f8282612575565b5050565b61155b61256d565b73ffffffffffffffffffffffffffffffffffffffff168173ffffffffffffffffffffffffffffffffffffffff16146115c8576040517f08c379a00000000000000000000000000000000000000000000000000000000081526004016115bf90614279565b60405180910390fd5b6115d28282612609565b5050565b600a602052816000526040600020602052806000526040600020600091509150508054600181600116156101000203166002900480601f01602080910402602001604051908101604052809291908181526020018280546001816001161561010002031660029004801561168b5780601f106116605761010080835404028352916020019161168b565b820191906000526020600020905b81548152906001019060200180831161166e57829003601f168201915b505050505081565b61169b61250f565b6116a3612402565b60006009600083815260200190815260200160002060009054906101000a900473ffffffffffffffffffffffffffffffffffffffff16905060008660ff1660088767ffffffffffffffff1668ffffffffffffffffff16901b179050600082868660405160200161171593929190613d29565b6040516020818303038152906040528051906020012090506000600b60008468ffffffffffffffffff1668ffffffffffffffffff168152602001908152602001600020600083815260200190815260200160002090506000600481111561177857fe5b8160040160009054906101000a900460ff16600481111561179557fe5b14156117d6576040517f08c379a00000000000000000000000000000000000000000000000000000000081526004016117cd90613fd9565b60405180910390fd5b600260048111156117e357fe5b8160040160009054906101000a900460ff16600481111561180057fe5b14611840576040517f08c379a000000000000000000000000000000000000000000000000000000000815260040161183790613fb9565b60405180910390fd5b80600101548214611886576040517f08c379a000000000000000000000000000000000000000000000000000000000815260040161187d906140d9565b60405180910390fd5b60038160040160006101000a81548160ff021916908360048111156118a757fe5b02179055506000600960008360000154815260200190815260200160002060009054906101000a900473ffffffffffffffffffffffffffffffffffffffff1690508073ffffffffffffffffffffffffffffffffffffffff1663e248cff283600001548a8a6040518463ffffffff1660e01b815260040161192993929190613ee7565b600060405180830381600087803b15801561194357600080fd5b505af1158015611957573d6000803e3d6000fd5b505050508160040160009054906101000a900460ff16600481111561197857fe5b8967ffffffffffffffff168b60ff167f803c5a12f6bde629cea32e63d4b92d1b560816a6fb72e939d3c89e1cab650417856000015486600101546040516119c0929190613e79565b60405180910390a450505050505050505050565b6119dc61269d565b60008090505b84849050811015611a73578484828181106119f957fe5b9050602002016020810190611a0e9190612e6c565b73ffffffffffffffffffffffffffffffffffffffff166108fc848484818110611a3357fe5b905060200201359081150290604051600060405180830381858888f19350505050158015611a65573d6000803e3d6000fd5b5080806001019150506119e2565b5050505050565b60086020528060005260406000206000915054906101000a900467ffffffffffffffff1681565b611aa961269d565b80600381905550807fa20d6b84cd798a24038be305eff8a45ca82ef54a2aa2082005d8e14c0a4746c860405160405180910390a250565b600b602052816000526040600020602052806000526040600020600091509150508060000154908060010154908060040160009054906101000a900460ff16908060050154905084565b6000611b49604051611b3b90613d53565b604051809103902083611d9b565b9050919050565b60008060009054906101000a900460ff16905090565b611b6e61269d565b611b7b6000801b826114df565b611b886000801b33611553565b50565b611b9361269d565b60008490508073ffffffffffffffffffffffffffffffffffffffff1663d9caed128585856040518463ffffffff1660e01b8152600401611bd593929190613d9e565b600060405180830381600087803b158015611bef57600080fd5b505af1158015611c03573d6000803e3d6000fd5b505050505050505050565b600c602052826000526040600020602052816000526040600020602052806000526040600020600092509250509054906101000a900460ff1681565b60045481565b611c5861269d565b611c606126eb565b565b60096020528060005260406000206000915054906101000a900473ffffffffffffffffffffffffffffffffffffffff1681565b611c9d61269d565b60008290508073ffffffffffffffffffffffffffffffffffffffff166307b7ed99836040518263ffffffff1660e01b8152600401611cdb9190613d68565b600060405180830381600087803b158015611cf557600080fd5b505af1158015611d09573d6000803e3d6000fd5b50505050505050565b6000611d3c826001600086815260200190815260200160002060000161274690919063ffffffff16565b905092915050565b611d4c61269d565b806006541415611d91576040517f08c379a0000000000000000000000000000000000000000000000000000000008152600401611d8890614219565b60405180910390fd5b8060068190555050565b6000611dc5826001600086815260200190815260200160002060000161276090919063ffffffff16565b905092915050565b604051611dd990613d53565b604051809103902081565b60055481565b611df261269d565b611e0f604051611e0190613d53565b604051809103902082611d9b565b611e4e576040517f08c379a0000000000000000000000000000000000000000000000000000000008152600401611e4590614099565b60405180910390fd5b611e6b604051611e5d90613d53565b60405180910390208261229e565b8073ffffffffffffffffffffffffffffffffffffffff167f10e1f7ce9fd7d1b90a66d13a2ab3cb8dd7f29f3f8d520b143b063ccfbab6906b60405160405180910390a26004600081548092919060019003919050555050565b6000801b81565b611ed3612c0e565b60008460ff1660088567ffffffffffffffff1668ffffffffffffffffff16901b179050600b60008268ffffffffffffffffff1668ffffffffffffffffff16815260200190815260200160002060008481526020019081526020016000206040518060c0016040529081600082015481526020016001820154815260200160028201805480602002602001604051908101604052809291908181526020018280548015611fd457602002820191906000526020600020905b8160009054906101000a900473ffffffffffffffffffffffffffffffffffffffff1673ffffffffffffffffffffffffffffffffffffffff1681526020019060010190808311611f8a575b505050505081526020016003820180548060200260200160405190810160405280929190818152602001828054801561206257602002820191906000526020600020905b8160009054906101000a900473ffffffffffffffffffffffffffffffffffffffff1673ffffffffffffffffffffffffffffffffffffffff1681526020019060010190808311612018575b505050505081526020016004820160009054906101000a900460ff16600481111561208957fe5b600481111561209457fe5b81526020016005820154815250509150509392505050565b600260009054906101000a900460ff1681565b60065481565b60075481565b60006120eb60016000848152602001908152602001600020600001612790565b9050919050565b6120fa61269d565b826009600084815260200190815260200160002060006101000a81548173ffffffffffffffffffffffffffffffffffffffff021916908373ffffffffffffffffffffffffffffffffffffffff16021790555060008390508073ffffffffffffffffffffffffffffffffffffffff1663b8fa373684846040518363ffffffff1660e01b815260040161218c929190613e0b565b600060405180830381600087803b1580156121a657600080fd5b505af11580156121ba573d6000803e3d6000fd5b5050505050505050565b6121cc61269d565b6121e96040516121db90613d53565b604051809103902082611d9b565b15612229576040517f08c379a000000000000000000000000000000000000000000000000000000000815260040161222090614199565b60405180910390fd5b61224660405161223890613d53565b6040518091039020826114df565b8073ffffffffffffffffffffffffffffffffffffffff167f03580ee9f53a62b7cb409a2cb56f9be87747dd15017afc5cef6eef321e4fb2c560405160405180910390a260046000815480929190600101919050555050565b6122c560016000848152602001908152602001600020600201546122c061256d565b611d9b565b612304576040517f08c379a00000000000000000000000000000000000000000000000000000000081526004016122fb90614139565b60405180910390fd5b61230e8282612609565b5050565b60035481565b61232061269d565b846009600086815260200190815260200160002060006101000a81548173ffffffffffffffffffffffffffffffffffffffff021916908373ffffffffffffffffffffffffffffffffffffffff16021790555060008590508073ffffffffffffffffffffffffffffffffffffffff1663bba8185a868686866040518563ffffffff1660e01b81526004016123b69493929190613e34565b600060405180830381600087803b1580156123d057600080fd5b505af11580156123e4573d6000803e3d6000fd5b50505050505050505050565b6123f861269d565b6124006127a5565b565b6000809054906101000a900460ff1615612451576040517f08c379a000000000000000000000000000000000000000000000000000000000815260040161244890614179565b60405180910390fd5b565b6124606000801b33611d9b565b80612484575061248360405161247590613d53565b604051809103902033611d9b565b5b6124c3576040517f08c379a00000000000000000000000000000000000000000000000000000000081526004016124ba90614019565b60405180910390fd5b565b600061250783836040518060400160405280601e81526020017f536166654d6174683a207375627472616374696f6e206f766572666c6f770000815250612800565b905092915050565b61252c60405161251e90613d53565b604051809103902033611d9b565b61256b576040517f08c379a0000000000000000000000000000000000000000000000000000000008152600401612562906141d9565b60405180910390fd5b565b600033905090565b61259d816001600085815260200190815260200160002060000161285b90919063ffffffff16565b15612605576125aa61256d565b73ffffffffffffffffffffffffffffffffffffffff168173ffffffffffffffffffffffffffffffffffffffff16837f2f8788117e7eff1d82e926ec794901d17c78024a50270940304540a733656f0d60405160405180910390a45b5050565b612631816001600085815260200190815260200160002060000161288b90919063ffffffff16565b156126995761263e61256d565b73ffffffffffffffffffffffffffffffffffffffff168173ffffffffffffffffffffffffffffffffffffffff16837ff6391f5c32d9c69d2a47ea670b442974b53935d1edc7fd64eb21e047a839171b60405160405180910390a45b5050565b6126aa6000801b33611d9b565b6126e9576040517f08c379a00000000000000000000000000000000000000000000000000000000081526004016126e0906141f9565b60405180910390fd5b565b6126f3612402565b60016000806101000a81548160ff0219169083151502179055507f62e78cea01bee320cd4e420270b5ea74000d11b0c9f74754ebdbfc544b05a2583360405161273c9190613d83565b60405180910390a1565b600061275583600001836128bb565b60001c905092915050565b6000612788836000018373ffffffffffffffffffffffffffffffffffffffff1660001b612928565b905092915050565b600061279e8260000161294b565b9050919050565b6127ad61295c565b60008060006101000a81548160ff0219169083151502179055507f5db9ee0a495bf2e6ff9c91a7834c1ba4fdd244a5e8aa4e537bd38aeae4b073aa336040516127f69190613d83565b60405180910390a1565b6000838311158290612848576040517f08c379a000000000000000000000000000000000000000000000000000000000815260040161283f9190613f97565b60405180910390fd5b5060008385039050809150509392505050565b6000612883836000018373ffffffffffffffffffffffffffffffffffffffff1660001b6129ac565b905092915050565b60006128b3836000018373ffffffffffffffffffffffffffffffffffffffff1660001b612a1c565b905092915050565b600081836000018054905011612906576040517f08c379a00000000000000000000000000000000000000000000000000000000081526004016128fd90613ff9565b60405180910390fd5b82600001828154811061291557fe5b9060005260206000200154905092915050565b600080836001016000848152602001908152602001600020541415905092915050565b600081600001805490509050919050565b6000809054906101000a900460ff166129aa576040517f08c379a00000000000000000000000000000000000000000000000000000000081526004016129a190614079565b60405180910390fd5b565b60006129b88383612928565b612a11578260000182908060018154018082558091505060019003906000526020600020016000909190919091505582600001805490508360010160008481526020019081526020016000208190555060019050612a16565b600090505b92915050565b60008083600101600084815260200190815260200160002054905060008114612af85760006001820390506000600186600001805490500390506000866000018281548110612a6757fe5b9060005260206000200154905080876000018481548110612a8457fe5b9060005260206000200181905550600183018760010160008381526020019081526020016000208190555086600001805480612abc57fe5b60019003818190600052602060002001600090559055866001016000878152602001908152602001600020600090556001945050505050612afe565b60009150505b92915050565b828054600181600116156101000203166002900490600052602060002090601f016020900481019282601f10612b4557803560ff1916838001178555612b73565b82800160010185558215612b73579182015b82811115612b72578235825591602001919060010190612b57565b5b509050612b809190612c55565b5090565b828054828255906000526020600020908101928215612bfd579160200282015b82811115612bfc5782518260006101000a81548173ffffffffffffffffffffffffffffffffffffffff021916908373ffffffffffffffffffffffffffffffffffffffff16021790555091602001919060010190612ba4565b5b509050612c0a9190612c7a565b5090565b6040518060c001604052806000801916815260200160008019168152602001606081526020016060815260200160006004811115612c4857fe5b8152602001600081525090565b612c7791905b80821115612c73576000816000905550600101612c5b565b5090565b90565b612cba91905b80821115612cb657600081816101000a81549073ffffffffffffffffffffffffffffffffffffffff021916905550600101612c80565b5090565b90565b600081359050612ccc81614545565b92915050565b600081359050612ce18161455c565b92915050565b60008083601f840112612cf957600080fd5b8235905067ffffffffffffffff811115612d1257600080fd5b602083019150836020820283011115612d2a57600080fd5b9250929050565b60008083601f840112612d4357600080fd5b8235905067ffffffffffffffff811115612d5c57600080fd5b602083019150836020820283011115612d7457600080fd5b9250929050565b600081359050612d8a81614573565b92915050565b600081359050612d9f8161458a565b92915050565b60008083601f840112612db757600080fd5b8235905067ffffffffffffffff811115612dd057600080fd5b602083019150836001820283011115612de857600080fd5b9250929050565b600081359050612dfe816145a1565b92915050565b600081359050612e13816145b8565b92915050565b600081359050612e28816145cf565b92915050565b600081359050612e3d816145e6565b92915050565b600060208284031215612e5557600080fd5b6000612e6384828501612cbd565b91505092915050565b600060208284031215612e7e57600080fd5b6000612e8c84828501612cd2565b91505092915050565b60008060408385031215612ea857600080fd5b6000612eb685828601612cbd565b9250506020612ec785828601612cbd565b9150509250929050565b60008060008060808587031215612ee757600080fd5b6000612ef587828801612cbd565b9450506020612f0687828801612cbd565b9350506040612f1787828801612cbd565b9250506060612f2887828801612def565b91505092959194509250565b600080600060608486031215612f4957600080fd5b6000612f5786828701612cbd565b9350506020612f6886828701612d7b565b9250506040612f7986828701612cbd565b9150509250925092565b600080600080600060a08688031215612f9b57600080fd5b6000612fa988828901612cbd565b9550506020612fba88828901612d7b565b9450506040612fcb88828901612cbd565b9350506060612fdc88828901612d90565b9250506080612fed88828901612d90565b9150509295509295909350565b6000806000806040858703121561301057600080fd5b600085013567ffffffffffffffff81111561302a57600080fd5b61303687828801612ce7565b9450945050602085013567ffffffffffffffff81111561305557600080fd5b61306187828801612d31565b925092505092959194509250565b60006020828403121561308157600080fd5b600061308f84828501612d7b565b91505092915050565b600080604083850312156130ab57600080fd5b60006130b985828601612d7b565b92505060206130ca85828601612cbd565b9150509250929050565b600080604083850312156130e757600080fd5b60006130f585828601612d7b565b925050602061310685828601612def565b9150509250929050565b60006020828403121561312257600080fd5b600061313084828501612def565b91505092915050565b6000806040838503121561314c57600080fd5b600061315a85828601612e04565b925050602061316b85828601612e2e565b9150509250929050565b6000806040838503121561318857600080fd5b600061319685828601612e19565b92505060206131a785828601612d7b565b9150509250929050565b6000806000606084860312156131c657600080fd5b60006131d486828701612e19565b93505060206131e586828701612d7b565b92505060406131f686828701612cbd565b9150509250925092565b60006020828403121561321257600080fd5b600061322084828501612e2e565b91505092915050565b6000806000806060858703121561323f57600080fd5b600061324d87828801612e2e565b945050602061325e87828801612d7b565b935050604085013567ffffffffffffffff81111561327b57600080fd5b61328787828801612da5565b925092505092959194509250565b6000806000606084860312156132aa57600080fd5b60006132b886828701612e2e565b93505060206132c986828701612e04565b92505060406132da86828701612d7b565b9150509250925092565b600080600080608085870312156132fa57600080fd5b600061330887828801612e2e565b945050602061331987828801612e04565b935050604061332a87828801612d7b565b925050606061333b87828801612d7b565b91505092959194509250565b60008060008060006080868803121561335f57600080fd5b600061336d88828901612e2e565b955050602061337e88828901612e04565b945050604086013567ffffffffffffffff81111561339b57600080fd5b6133a788828901612da5565b935093505060606133ba88828901612d7b565b9150509295509295909350565b60006133d383836133ee565b60208301905092915050565b6133e88161446c565b82525050565b6133f781614393565b82525050565b61340681614393565b82525050565b61341d61341882614393565b6144f6565b82525050565b600061342e8261431c565b613438818561434a565b93506134438361430c565b8060005b8381101561347457815161345b88826133c7565b97506134668361433d565b925050600181019050613447565b5085935050505092915050565b61348a816143b7565b82525050565b613499816143c3565b82525050565b6134a8816143c3565b82525050565b6134b7816143cd565b82525050565b60006134c9838561435b565b93506134d68385846144b4565b6134df8361451a565b840190509392505050565b60006134f6838561436c565b93506135038385846144b4565b82840190509392505050565b600061351a82614327565b613524818561435b565b93506135348185602086016144c3565b61353d8161451a565b840191505092915050565b6135518161447e565b82525050565b6135608161447e565b82525050565b600061357182614332565b61357b8185614377565b935061358b8185602086016144c3565b6135948161451a565b840191505092915050565b60006135ac601c83614377565b91507f70726f706f73616c20616c7265616479207472616e73666572726564000000006000830152602082019050919050565b60006135ec601683614377565b91507f70726f706f73616c206973206e6f7420616374697665000000000000000000006000830152602082019050919050565b600061362c602283614377565b91507f456e756d657261626c655365743a20696e646578206f7574206f6620626f756e60008301527f64730000000000000000000000000000000000000000000000000000000000006020830152604082019050919050565b6000613692601e83614377565b91507f73656e646572206973206e6f742072656c61796572206f722061646d696e00006000830152602082019050919050565b60006136d2602f83614377565b91507f416363657373436f6e74726f6c3a2073656e646572206d75737420626520616e60008301527f2061646d696e20746f206772616e7400000000000000000000000000000000006020830152604082019050919050565b6000613738601583614377565b91507f72656c6179657220616c726561647920766f74656400000000000000000000006000830152602082019050919050565b6000613778601483614377565b91507f5061757361626c653a206e6f74207061757365640000000000000000000000006000830152602082019050919050565b60006137b8601f83614377565b91507f6164647220646f65736e277420686176652072656c6179657220726f6c6521006000830152602082019050919050565b60006137f8601683614377565b91507f496e636f72726563742066656520737570706c696564000000000000000000006000830152602082019050919050565b6000613838601b83614377565b91507f6461746120646f65736e2774206d6174636820646174616861736800000000006000830152602082019050919050565b6000613878601a83614377565b91507f50726f706f73616c20616c72656164792063616e63656c6c65640000000000006000830152602082019050919050565b60006138b8602083614377565b91507f7265736f757263654944206e6f74206d617070656420746f2068616e646c65726000830152602082019050919050565b60006138f8603083614377565b91507f416363657373436f6e74726f6c3a2073656e646572206d75737420626520616e60008301527f2061646d696e20746f207265766f6b65000000000000000000000000000000006020830152604082019050919050565b600061395e602083614377565b91507f50726f706f73616c206e6f7420617420657870697279207468726573686f6c646000830152602082019050919050565b600061399e601083614377565b91507f5061757361626c653a20706175736564000000000000000000000000000000006000830152602082019050919050565b60006139de601e83614377565b91507f6164647220616c7265616479206861732072656c6179657220726f6c652100006000830152602082019050919050565b6000613a1e602a83614377565b91507f70726f706f73616c20616c7265616479207061737365642f657865637574656460008301527f2f63616e63656c6c6564000000000000000000000000000000000000000000006020830152604082019050919050565b6000613a84602083614377565b91507f73656e64657220646f65736e277420686176652072656c6179657220726f6c656000830152602082019050919050565b6000613ac4601e83614377565b91507f73656e64657220646f65736e277420686176652061646d696e20726f6c6500006000830152602082019050919050565b6000613b04601f83614377565b91507f43757272656e742066656520697320657175616c20746f206e657720666565006000830152602082019050919050565b6000613b44600c83614388565b91507f52454c415945525f524f4c4500000000000000000000000000000000000000006000830152600c82019050919050565b6000613b84601183614377565b91507f6461746168617368206d69736d617463680000000000000000000000000000006000830152602082019050919050565b6000613bc4601983614377565b91507f6e6f2068616e646c657220666f72207265736f757263654944000000000000006000830152602082019050919050565b6000613c04602f83614377565b91507f416363657373436f6e74726f6c3a2063616e206f6e6c792072656e6f756e636560008301527f20726f6c657320666f722073656c6600000000000000000000000000000000006020830152604082019050919050565b600060c083016000830151613c756000860182613490565b506020830151613c886020860182613490565b5060408301518482036040860152613ca08282613423565b91505060608301518482036060860152613cba8282613423565b9150506080830151613ccf6080860182613548565b5060a0830151613ce260a0860182613ced565b508091505092915050565b613cf68161442c565b82525050565b613d058161442c565b82525050565b613d1481614436565b82525050565b613d238161445f565b82525050565b6000613d35828661340c565b601482019150613d468284866134ea565b9150819050949350505050565b6000613d5e82613b37565b9150819050919050565b6000602082019050613d7d60008301846133fd565b92915050565b6000602082019050613d9860008301846133df565b92915050565b6000606082019050613db360008301866133fd565b613dc060208301856133fd565b613dcd6040830184613cfc565b949350505050565b6000602082019050613dea6000830184613481565b92915050565b6000602082019050613e05600083018461349f565b92915050565b6000604082019050613e20600083018561349f565b613e2d60208301846133fd565b9392505050565b6000608082019050613e49600083018761349f565b613e5660208301866133fd565b613e6360408301856134ae565b613e7060608301846134ae565b95945050505050565b6000604082019050613e8e600083018561349f565b613e9b602083018461349f565b9392505050565b6000608082019050613eb7600083018761349f565b613ec4602083018661349f565b613ed16040830185613557565b613ede6060830184613cfc565b95945050505050565b6000604082019050613efc600083018661349f565b8181036020830152613f0f8184866134bd565b9050949350505050565b600060a082019050613f2e600083018961349f565b613f3b6020830188613d1a565b613f486040830187613d0b565b613f5560608301866133df565b8181036080830152613f688184866134bd565b9050979650505050505050565b60006020820190508181036000830152613f8f818461350f565b905092915050565b60006020820190508181036000830152613fb18184613566565b905092915050565b60006020820190508181036000830152613fd28161359f565b9050919050565b60006020820190508181036000830152613ff2816135df565b9050919050565b600060208201905081810360008301526140128161361f565b9050919050565b6000602082019050818103600083015261403281613685565b9050919050565b60006020820190508181036000830152614052816136c5565b9050919050565b600060208201905081810360008301526140728161372b565b9050919050565b600060208201905081810360008301526140928161376b565b9050919050565b600060208201905081810360008301526140b2816137ab565b9050919050565b600060208201905081810360008301526140d2816137eb565b9050919050565b600060208201905081810360008301526140f28161382b565b9050919050565b600060208201905081810360008301526141128161386b565b9050919050565b60006020820190508181036000830152614132816138ab565b9050919050565b60006020820190508181036000830152614152816138eb565b9050919050565b6000602082019050818103600083015261417281613951565b9050919050565b6000602082019050818103600083015261419281613991565b9050919050565b600060208201905081810360008301526141b2816139d1565b9050919050565b600060208201905081810360008301526141d281613a11565b9050919050565b600060208201905081810360008301526141f281613a77565b9050919050565b6000602082019050818103600083015261421281613ab7565b9050919050565b6000602082019050818103600083015261423281613af7565b9050919050565b6000602082019050818103600083015261425281613b77565b9050919050565b6000602082019050818103600083015261427281613bb7565b9050919050565b6000602082019050818103600083015261429281613bf7565b9050919050565b600060208201905081810360008301526142b38184613c5d565b905092915050565b60006020820190506142d06000830184613cfc565b92915050565b60006020820190506142eb6000830184613d0b565b92915050565b60006020820190506143066000830184613d1a565b92915050565b6000819050602082019050919050565b600081519050919050565b600081519050919050565b600081519050919050565b6000602082019050919050565b600082825260208201905092915050565b600082825260208201905092915050565b600081905092915050565b600082825260208201905092915050565b600081905092915050565b600061439e8261440c565b9050919050565b60006143b08261440c565b9050919050565b60008115159050919050565b6000819050919050565b60007fffffffff0000000000000000000000000000000000000000000000000000000082169050919050565b600081905061440782614538565b919050565b600073ffffffffffffffffffffffffffffffffffffffff82169050919050565b6000819050919050565b600067ffffffffffffffff82169050919050565b600068ffffffffffffffffff82169050919050565b600060ff82169050919050565b600061447782614490565b9050919050565b6000614489826143f9565b9050919050565b600061449b826144a2565b9050919050565b60006144ad8261440c565b9050919050565b82818337600083830152505050565b60005b838110156144e15780820151818401526020810190506144c6565b838111156144f0576000848401525b50505050565b600061450182614508565b9050919050565b60006145138261452b565b9050919050565b6000601f19601f8301169050919050565b60008160601b9050919050565b6005811061454257fe5b50565b61454e81614393565b811461455957600080fd5b50565b614565816143a5565b811461457057600080fd5b50565b61457c816143c3565b811461458757600080fd5b50565b614593816143cd565b811461459e57600080fd5b50565b6145aa8161442c565b81146145b557600080fd5b50565b6145c181614436565b81146145cc57600080fd5b50565b6145d88161444a565b81146145e357600080fd5b50565b6145ef8161445f565b81146145fa57600080fd5b5056fea2646970667358221220bc7452332d409f541c31856451f666ae9d998f8aa8566508883d1310c26b6c9d64736f6c63430006040033",
					"opcodes": "PUSH1 0x80 PUSH1 0x40 MSTORE CALLVALUE DUP1 ISZERO PUSH3 0x11 JUMPI PUSH1 0x0 DUP1 REVERT JUMPDEST POP PUSH1 0x40 MLOAD PUSH3 0x4D89 CODESIZE SUB DUP1 PUSH3 0x4D89 DUP4 CODECOPY DUP2 DUP2 ADD PUSH1 0x40 MSTORE DUP2 ADD SWAP1 PUSH3 0x37 SWAP2 SWAP1 PUSH3 0x4BC JUMP JUMPDEST PUSH1 0x0 DUP1 PUSH1 0x0 PUSH2 0x100 EXP DUP2 SLOAD DUP2 PUSH1 0xFF MUL NOT AND SWAP1 DUP4 ISZERO ISZERO MUL OR SWAP1 SSTORE POP DUP5 PUSH1 0x2 PUSH1 0x0 PUSH2 0x100 EXP DUP2 SLOAD DUP2 PUSH1 0xFF MUL NOT AND SWAP1 DUP4 PUSH1 0xFF AND MUL OR SWAP1 SSTORE POP DUP3 PUSH1 0x3 DUP2 SWAP1 SSTORE POP DUP2 PUSH1 0x6 DUP2 SWAP1 SSTORE POP DUP1 PUSH1 0x7 DUP2 SWAP1 SSTORE POP PUSH3 0x96 PUSH1 0x0 DUP1 SHL CALLER PUSH3 0x134 PUSH1 0x20 SHL PUSH1 0x20 SHR JUMP JUMPDEST PUSH3 0xC0 PUSH1 0x40 MLOAD PUSH3 0xA8 SWAP1 PUSH3 0x601 JUMP JUMPDEST PUSH1 0x40 MLOAD DUP1 SWAP2 SUB SWAP1 KECCAK256 PUSH1 0x0 DUP1 SHL PUSH3 0x14A PUSH1 0x20 SHL PUSH1 0x20 SHR JUMP JUMPDEST PUSH1 0x0 JUMPDEST DUP5 MLOAD DUP2 LT ISZERO PUSH3 0x128 JUMPI PUSH3 0x108 PUSH1 0x40 MLOAD PUSH3 0xDF SWAP1 PUSH3 0x601 JUMP JUMPDEST PUSH1 0x40 MLOAD DUP1 SWAP2 SUB SWAP1 KECCAK256 DUP7 DUP4 DUP2 MLOAD DUP2 LT PUSH3 0xF4 JUMPI INVALID JUMPDEST PUSH1 0x20 MUL PUSH1 0x20 ADD ADD MLOAD PUSH3 0x169 PUSH1 0x20 SHL PUSH1 0x20 SHR JUMP JUMPDEST PUSH1 0x4 PUSH1 0x0 DUP2 SLOAD DUP1 SWAP3 SWAP2 SWAP1 PUSH1 0x1 ADD SWAP2 SWAP1 POP SSTORE POP DUP1 DUP1 PUSH1 0x1 ADD SWAP2 POP POP PUSH3 0xC3 JUMP JUMPDEST POP POP POP POP POP POP PUSH3 0x746 JUMP JUMPDEST PUSH3 0x146 DUP3 DUP3 PUSH3 0x1F8 PUSH1 0x20 SHL PUSH1 0x20 SHR JUMP JUMPDEST POP POP JUMP JUMPDEST DUP1 PUSH1 0x1 PUSH1 0x0 DUP5 DUP2 MSTORE PUSH1 0x20 ADD SWAP1 DUP2 MSTORE PUSH1 0x20 ADD PUSH1 0x0 KECCAK256 PUSH1 0x2 ADD DUP2 SWAP1 SSTORE POP POP POP JUMP JUMPDEST PUSH3 0x1A0 PUSH1 0x1 PUSH1 0x0 DUP5 DUP2 MSTORE PUSH1 0x20 ADD SWAP1 DUP2 MSTORE PUSH1 0x20 ADD PUSH1 0x0 KECCAK256 PUSH1 0x2 ADD SLOAD PUSH3 0x194 PUSH3 0x29C PUSH1 0x20 SHL PUSH1 0x20 SHR JUMP JUMPDEST PUSH3 0x2A4 PUSH1 0x20 SHL PUSH1 0x20 SHR JUMP JUMPDEST PUSH3 0x1E2 JUMPI PUSH1 0x40 MLOAD PUSH32 0x8C379A000000000000000000000000000000000000000000000000000000000 DUP2 MSTORE PUSH1 0x4 ADD PUSH3 0x1D9 SWAP1 PUSH3 0x618 JUMP JUMPDEST PUSH1 0x40 MLOAD DUP1 SWAP2 SUB SWAP1 REVERT JUMPDEST PUSH3 0x1F4 DUP3 DUP3 PUSH3 0x1F8 PUSH1 0x20 SHL PUSH1 0x20 SHR JUMP JUMPDEST POP POP JUMP JUMPDEST PUSH3 0x227 DUP2 PUSH1 0x1 PUSH1 0x0 DUP6 DUP2 MSTORE PUSH1 0x20 ADD SWAP1 DUP2 MSTORE PUSH1 0x20 ADD PUSH1 0x0 KECCAK256 PUSH1 0x0 ADD PUSH3 0x2DD PUSH1 0x20 SHL PUSH3 0x285B OR SWAP1 SWAP2 SWAP1 PUSH1 0x20 SHR JUMP JUMPDEST ISZERO PUSH3 0x298 JUMPI PUSH3 0x23D PUSH3 0x29C PUSH1 0x20 SHL PUSH1 0x20 SHR JUMP JUMPDEST PUSH20 0xFFFFFFFFFFFFFFFFFFFFFFFFFFFFFFFFFFFFFFFF AND DUP2 PUSH20 0xFFFFFFFFFFFFFFFFFFFFFFFFFFFFFFFFFFFFFFFF AND DUP4 PUSH32 0x2F8788117E7EFF1D82E926EC794901D17C78024A50270940304540A733656F0D PUSH1 0x40 MLOAD PUSH1 0x40 MLOAD DUP1 SWAP2 SUB SWAP1 LOG4 JUMPDEST POP POP JUMP JUMPDEST PUSH1 0x0 CALLER SWAP1 POP SWAP1 JUMP JUMPDEST PUSH1 0x0 PUSH3 0x2D5 DUP3 PUSH1 0x1 PUSH1 0x0 DUP7 DUP2 MSTORE PUSH1 0x20 ADD SWAP1 DUP2 MSTORE PUSH1 0x20 ADD PUSH1 0x0 KECCAK256 PUSH1 0x0 ADD PUSH3 0x315 PUSH1 0x20 SHL PUSH3 0x2760 OR SWAP1 SWAP2 SWAP1 PUSH1 0x20 SHR JUMP JUMPDEST SWAP1 POP SWAP3 SWAP2 POP POP JUMP JUMPDEST PUSH1 0x0 PUSH3 0x30D DUP4 PUSH1 0x0 ADD DUP4 PUSH20 0xFFFFFFFFFFFFFFFFFFFFFFFFFFFFFFFFFFFFFFFF AND PUSH1 0x0 SHL PUSH3 0x34D PUSH1 0x20 SHL PUSH1 0x20 SHR JUMP JUMPDEST SWAP1 POP SWAP3 SWAP2 POP POP JUMP JUMPDEST PUSH1 0x0 PUSH3 0x345 DUP4 PUSH1 0x0 ADD DUP4 PUSH20 0xFFFFFFFFFFFFFFFFFFFFFFFFFFFFFFFFFFFFFFFF AND PUSH1 0x0 SHL PUSH3 0x3C7 PUSH1 0x20 SHL PUSH1 0x20 SHR JUMP JUMPDEST SWAP1 POP SWAP3 SWAP2 POP POP JUMP JUMPDEST PUSH1 0x0 PUSH3 0x361 DUP4 DUP4 PUSH3 0x3C7 PUSH1 0x20 SHL PUSH1 0x20 SHR JUMP JUMPDEST PUSH3 0x3BC JUMPI DUP3 PUSH1 0x0 ADD DUP3 SWAP1 DUP1 PUSH1 0x1 DUP2 SLOAD ADD DUP1 DUP3 SSTORE DUP1 SWAP2 POP POP PUSH1 0x1 SWAP1 SUB SWAP1 PUSH1 0x0 MSTORE PUSH1 0x20 PUSH1 0x0 KECCAK256 ADD PUSH1 0x0 SWAP1 SWAP2 SWAP1 SWAP2 SWAP1 SWAP2 POP SSTORE DUP3 PUSH1 0x0 ADD DUP1 SLOAD SWAP1 POP DUP4 PUSH1 0x1 ADD PUSH1 0x0 DUP5 DUP2 MSTORE PUSH1 0x20 ADD SWAP1 DUP2 MSTORE PUSH1 0x20 ADD PUSH1 0x0 KECCAK256 DUP2 SWAP1 SSTORE POP PUSH1 0x1 SWAP1 POP PUSH3 0x3C1 JUMP JUMPDEST PUSH1 0x0 SWAP1 POP JUMPDEST SWAP3 SWAP2 POP POP JUMP JUMPDEST PUSH1 0x0 DUP1 DUP4 PUSH1 0x1 ADD PUSH1 0x0 DUP5 DUP2 MSTORE PUSH1 0x20 ADD SWAP1 DUP2 MSTORE PUSH1 0x20 ADD PUSH1 0x0 KECCAK256 SLOAD EQ ISZERO SWAP1 POP SWAP3 SWAP2 POP POP JUMP JUMPDEST PUSH1 0x0 DUP2 MLOAD SWAP1 POP PUSH3 0x3FB DUP2 PUSH3 0x6F8 JUMP JUMPDEST SWAP3 SWAP2 POP POP JUMP JUMPDEST PUSH1 0x0 DUP3 PUSH1 0x1F DUP4 ADD SLT PUSH3 0x413 JUMPI PUSH1 0x0 DUP1 REVERT JUMPDEST DUP2 MLOAD PUSH3 0x42A PUSH3 0x424 DUP3 PUSH3 0x668 JUMP JUMPDEST PUSH3 0x63A JUMP JUMPDEST SWAP2 POP DUP2 DUP2 DUP4 MSTORE PUSH1 0x20 DUP5 ADD SWAP4 POP PUSH1 0x20 DUP2 ADD SWAP1 POP DUP4 DUP6 PUSH1 0x20 DUP5 MUL DUP3 ADD GT ISZERO PUSH3 0x450 JUMPI PUSH1 0x0 DUP1 REVERT JUMPDEST PUSH1 0x0 JUMPDEST DUP4 DUP2 LT ISZERO PUSH3 0x484 JUMPI DUP2 PUSH3 0x469 DUP9 DUP3 PUSH3 0x3EA JUMP JUMPDEST DUP5 MSTORE PUSH1 0x20 DUP5 ADD SWAP4 POP PUSH1 0x20 DUP4 ADD SWAP3 POP POP PUSH1 0x1 DUP2 ADD SWAP1 POP PUSH3 0x453 JUMP JUMPDEST POP POP POP POP SWAP3 SWAP2 POP POP JUMP JUMPDEST PUSH1 0x0 DUP2 MLOAD SWAP1 POP PUSH3 0x49F DUP2 PUSH3 0x712 JUMP JUMPDEST SWAP3 SWAP2 POP POP JUMP JUMPDEST PUSH1 0x0 DUP2 MLOAD SWAP1 POP PUSH3 0x4B6 DUP2 PUSH3 0x72C JUMP JUMPDEST SWAP3 SWAP2 POP POP JUMP JUMPDEST PUSH1 0x0 DUP1 PUSH1 0x0 DUP1 PUSH1 0x0 PUSH1 0xA0 DUP7 DUP9 SUB SLT ISZERO PUSH3 0x4D5 JUMPI PUSH1 0x0 DUP1 REVERT JUMPDEST PUSH1 0x0 PUSH3 0x4E5 DUP9 DUP3 DUP10 ADD PUSH3 0x4A5 JUMP JUMPDEST SWAP6 POP POP PUSH1 0x20 DUP7 ADD MLOAD PUSH8 0xFFFFFFFFFFFFFFFF DUP2 GT ISZERO PUSH3 0x503 JUMPI PUSH1 0x0 DUP1 REVERT JUMPDEST PUSH3 0x511 DUP9 DUP3 DUP10 ADD PUSH3 0x401 JUMP JUMPDEST SWAP5 POP POP PUSH1 0x40 PUSH3 0x524 DUP9 DUP3 DUP10 ADD PUSH3 0x48E JUMP JUMPDEST SWAP4 POP POP PUSH1 0x60 PUSH3 0x537 DUP9 DUP3 DUP10 ADD PUSH3 0x48E JUMP JUMPDEST SWAP3 POP POP PUSH1 0x80 PUSH3 0x54A DUP9 DUP3 DUP10 ADD PUSH3 0x48E JUMP JUMPDEST SWAP2 POP POP SWAP3 SWAP6 POP SWAP3 SWAP6 SWAP1 SWAP4 POP JUMP JUMPDEST PUSH1 0x0 PUSH3 0x566 PUSH1 0x2F DUP4 PUSH3 0x691 JUMP JUMPDEST SWAP2 POP PUSH32 0x416363657373436F6E74726F6C3A2073656E646572206D75737420626520616E PUSH1 0x0 DUP4 ADD MSTORE PUSH32 0x2061646D696E20746F206772616E740000000000000000000000000000000000 PUSH1 0x20 DUP4 ADD MSTORE PUSH1 0x40 DUP3 ADD SWAP1 POP SWAP2 SWAP1 POP JUMP JUMPDEST PUSH1 0x0 PUSH3 0x5CE PUSH1 0xC DUP4 PUSH3 0x6A2 JUMP JUMPDEST SWAP2 POP PUSH32 0x52454C415945525F524F4C450000000000000000000000000000000000000000 PUSH1 0x0 DUP4 ADD MSTORE PUSH1 0xC DUP3 ADD SWAP1 POP SWAP2 SWAP1 POP JUMP JUMPDEST PUSH1 0x0 PUSH3 0x60E DUP3 PUSH3 0x5BF JUMP JUMPDEST SWAP2 POP DUP2 SWAP1 POP SWAP2 SWAP1 POP JUMP JUMPDEST PUSH1 0x0 PUSH1 0x20 DUP3 ADD SWAP1 POP DUP2 DUP2 SUB PUSH1 0x0 DUP4 ADD MSTORE PUSH3 0x633 DUP2 PUSH3 0x557 JUMP JUMPDEST SWAP1 POP SWAP2 SWAP1 POP JUMP JUMPDEST PUSH1 0x0 PUSH1 0x40 MLOAD SWAP1 POP DUP2 DUP2 ADD DUP2 DUP2 LT PUSH8 0xFFFFFFFFFFFFFFFF DUP3 GT OR ISZERO PUSH3 0x65E JUMPI PUSH1 0x0 DUP1 REVERT JUMPDEST DUP1 PUSH1 0x40 MSTORE POP SWAP2 SWAP1 POP JUMP JUMPDEST PUSH1 0x0 PUSH8 0xFFFFFFFFFFFFFFFF DUP3 GT ISZERO PUSH3 0x680 JUMPI PUSH1 0x0 DUP1 REVERT JUMPDEST PUSH1 0x20 DUP3 MUL SWAP1 POP PUSH1 0x20 DUP2 ADD SWAP1 POP SWAP2 SWAP1 POP JUMP JUMPDEST PUSH1 0x0 DUP3 DUP3 MSTORE PUSH1 0x20 DUP3 ADD SWAP1 POP SWAP3 SWAP2 POP POP JUMP JUMPDEST PUSH1 0x0 DUP2 SWAP1 POP SWAP3 SWAP2 POP POP JUMP JUMPDEST PUSH1 0x0 PUSH3 0x6BA DUP3 PUSH3 0x6C1 JUMP JUMPDEST SWAP1 POP SWAP2 SWAP1 POP JUMP JUMPDEST PUSH1 0x0 PUSH20 0xFFFFFFFFFFFFFFFFFFFFFFFFFFFFFFFFFFFFFFFF DUP3 AND SWAP1 POP SWAP2 SWAP1 POP JUMP JUMPDEST PUSH1 0x0 DUP2 SWAP1 POP SWAP2 SWAP1 POP JUMP JUMPDEST PUSH1 0x0 PUSH1 0xFF DUP3 AND SWAP1 POP SWAP2 SWAP1 POP JUMP JUMPDEST PUSH3 0x703 DUP2 PUSH3 0x6AD JUMP JUMPDEST DUP2 EQ PUSH3 0x70F JUMPI PUSH1 0x0 DUP1 REVERT JUMPDEST POP JUMP JUMPDEST PUSH3 0x71D DUP2 PUSH3 0x6E1 JUMP JUMPDEST DUP2 EQ PUSH3 0x729 JUMPI PUSH1 0x0 DUP1 REVERT JUMPDEST POP JUMP JUMPDEST PUSH3 0x737 DUP2 PUSH3 0x6EB JUMP JUMPDEST DUP2 EQ PUSH3 0x743 JUMPI PUSH1 0x0 DUP1 REVERT JUMPDEST POP JUMP JUMPDEST PUSH2 0x4633 DUP1 PUSH3 0x756 PUSH1 0x0 CODECOPY PUSH1 0x0 RETURN INVALID PUSH1 0x80 PUSH1 0x40 MSTORE PUSH1 0x4 CALLDATASIZE LT PUSH2 0x230 JUMPI PUSH1 0x0 CALLDATALOAD PUSH1 0xE0 SHR DUP1 PUSH4 0x84DB809F GT PUSH2 0x12E JUMPI DUP1 PUSH4 0xBEAB7131 GT PUSH2 0xAB JUMPI DUP1 PUSH4 0xCDB0F73A GT PUSH2 0x6F JUMPI DUP1 PUSH4 0xCDB0F73A EQ PUSH2 0x877 JUMPI DUP1 PUSH4 0xD547741F EQ PUSH2 0x8A0 JUMPI DUP1 PUSH4 0xD7A9CD79 EQ PUSH2 0x8C9 JUMPI DUP1 PUSH4 0xE8437EE7 EQ PUSH2 0x8F4 JUMPI DUP1 PUSH4 0xFFAAC0EB EQ PUSH2 0x91D JUMPI PUSH2 0x230 JUMP JUMPDEST DUP1 PUSH4 0xBEAB7131 EQ PUSH2 0x790 JUMPI DUP1 PUSH4 0xC5B37C22 EQ PUSH2 0x7BB JUMPI DUP1 PUSH4 0xC5EC8970 EQ PUSH2 0x7E6 JUMPI DUP1 PUSH4 0xCA15C873 EQ PUSH2 0x811 JUMPI DUP1 PUSH4 0xCB10F215 EQ PUSH2 0x84E JUMPI PUSH2 0x230 JUMP JUMPDEST DUP1 PUSH4 0x926D7D7F GT PUSH2 0xF2 JUMPI DUP1 PUSH4 0x926D7D7F EQ PUSH2 0x6A9 JUMPI DUP1 PUSH4 0x9D5773E0 EQ PUSH2 0x6D4 JUMPI DUP1 PUSH4 0x9D82DD63 EQ PUSH2 0x6FF JUMPI DUP1 PUSH4 0xA217FDDF EQ PUSH2 0x728 JUMPI DUP1 PUSH4 0xA9CF69FA EQ PUSH2 0x753 JUMPI PUSH2 0x230 JUMP JUMPDEST DUP1 PUSH4 0x84DB809F EQ PUSH2 0x5A0 JUMPI DUP1 PUSH4 0x8C0C2631 EQ PUSH2 0x5DD JUMPI DUP1 PUSH4 0x9010D07C EQ PUSH2 0x606 JUMPI DUP1 PUSH4 0x91C404AC EQ PUSH2 0x643 JUMPI DUP1 PUSH4 0x91D14854 EQ PUSH2 0x66C JUMPI PUSH2 0x230 JUMP JUMPDEST DUP1 PUSH4 0x4B0B919D GT PUSH2 0x1BC JUMPI DUP1 PUSH4 0x5E1FAB0F GT PUSH2 0x180 JUMPI DUP1 PUSH4 0x5E1FAB0F EQ PUSH2 0x4CF JUMPI DUP1 PUSH4 0x780CF004 EQ PUSH2 0x4F8 JUMPI DUP1 PUSH4 0x7FEBE63F EQ PUSH2 0x521 JUMPI DUP1 PUSH4 0x802AABE8 EQ PUSH2 0x55E JUMPI DUP1 PUSH4 0x80AE1C28 EQ PUSH2 0x589 JUMPI PUSH2 0x230 JUMP JUMPDEST DUP1 PUSH4 0x4B0B919D EQ PUSH2 0x3C1 JUMPI DUP1 PUSH4 0x4E056005 EQ PUSH2 0x3FE JUMPI DUP1 PUSH4 0x50598719 EQ PUSH2 0x427 JUMPI DUP1 PUSH4 0x541D5548 EQ PUSH2 0x467 JUMPI DUP1 PUSH4 0x5C975ABB EQ PUSH2 0x4A4 JUMPI PUSH2 0x230 JUMP JUMPDEST DUP1 PUSH4 0x2F2FF15D GT PUSH2 0x203 JUMPI DUP1 PUSH4 0x2F2FF15D EQ PUSH2 0x2E0 JUMPI DUP1 PUSH4 0x36568ABE EQ PUSH2 0x309 JUMPI DUP1 PUSH4 0x3EE7094A EQ PUSH2 0x332 JUMPI DUP1 PUSH4 0x4454B20D EQ PUSH2 0x36F JUMPI DUP1 PUSH4 0x4603AE38 EQ PUSH2 0x398 JUMPI PUSH2 0x230 JUMP JUMPDEST DUP1 PUSH4 0x5E2CA17 EQ PUSH2 0x235 JUMPI DUP1 PUSH4 0x17F03CE5 EQ PUSH2 0x251 JUMPI DUP1 PUSH4 0x1FF013F1 EQ PUSH2 0x27A JUMPI DUP1 PUSH4 0x248A9CA3 EQ PUSH2 0x2A3 JUMPI JUMPDEST PUSH1 0x0 DUP1 REVERT JUMPDEST PUSH2 0x24F PUSH1 0x4 DUP1 CALLDATASIZE SUB DUP2 ADD SWAP1 PUSH2 0x24A SWAP2 SWAP1 PUSH2 0x3229 JUMP JUMPDEST PUSH2 0x934 JUMP JUMPDEST STOP JUMPDEST CALLVALUE DUP1 ISZERO PUSH2 0x25D JUMPI PUSH1 0x0 DUP1 REVERT JUMPDEST POP PUSH2 0x278 PUSH1 0x4 DUP1 CALLDATASIZE SUB DUP2 ADD SWAP1 PUSH2 0x273 SWAP2 SWAP1 PUSH2 0x3295 JUMP JUMPDEST PUSH2 0xB91 JUMP JUMPDEST STOP JUMPDEST CALLVALUE DUP1 ISZERO PUSH2 0x286 JUMPI PUSH1 0x0 DUP1 REVERT JUMPDEST POP PUSH2 0x2A1 PUSH1 0x4 DUP1 CALLDATASIZE SUB DUP2 ADD SWAP1 PUSH2 0x29C SWAP2 SWAP1 PUSH2 0x32E4 JUMP JUMPDEST PUSH2 0xD3E JUMP JUMPDEST STOP JUMPDEST CALLVALUE DUP1 ISZERO PUSH2 0x2AF JUMPI PUSH1 0x0 DUP1 REVERT JUMPDEST POP PUSH2 0x2CA PUSH1 0x4 DUP1 CALLDATASIZE SUB DUP2 ADD SWAP1 PUSH2 0x2C5 SWAP2 SWAP1 PUSH2 0x306F JUMP JUMPDEST PUSH2 0x14BF JUMP JUMPDEST PUSH1 0x40 MLOAD PUSH2 0x2D7 SWAP2 SWAP1 PUSH2 0x3DF0 JUMP JUMPDEST PUSH1 0x40 MLOAD DUP1 SWAP2 SUB SWAP1 RETURN JUMPDEST CALLVALUE DUP1 ISZERO PUSH2 0x2EC JUMPI PUSH1 0x0 DUP1 REVERT JUMPDEST POP PUSH2 0x307 PUSH1 0x4 DUP1 CALLDATASIZE SUB DUP2 ADD SWAP1 PUSH2 0x302 SWAP2 SWAP1 PUSH2 0x3098 JUMP JUMPDEST PUSH2 0x14DF JUMP JUMPDEST STOP JUMPDEST CALLVALUE DUP1 ISZERO PUSH2 0x315 JUMPI PUSH1 0x0 DUP1 REVERT JUMPDEST POP PUSH2 0x330 PUSH1 0x4 DUP1 CALLDATASIZE SUB DUP2 ADD SWAP1 PUSH2 0x32B SWAP2 SWAP1 PUSH2 0x3098 JUMP JUMPDEST PUSH2 0x1553 JUMP JUMPDEST STOP JUMPDEST CALLVALUE DUP1 ISZERO PUSH2 0x33E JUMPI PUSH1 0x0 DUP1 REVERT JUMPDEST POP PUSH2 0x359 PUSH1 0x4 DUP1 CALLDATASIZE SUB DUP2 ADD SWAP1 PUSH2 0x354 SWAP2 SWAP1 PUSH2 0x3139 JUMP JUMPDEST PUSH2 0x15D6 JUMP JUMPDEST PUSH1 0x40 MLOAD PUSH2 0x366 SWAP2 SWAP1 PUSH2 0x3F75 JUMP JUMPDEST PUSH1 0x40 MLOAD DUP1 SWAP2 SUB SWAP1 RETURN JUMPDEST CALLVALUE DUP1 ISZERO PUSH2 0x37B JUMPI PUSH1 0x0 DUP1 REVERT JUMPDEST POP PUSH2 0x396 PUSH1 0x4 DUP1 CALLDATASIZE SUB DUP2 ADD SWAP1 PUSH2 0x391 SWAP2 SWAP1 PUSH2 0x3347 JUMP JUMPDEST PUSH2 0x1693 JUMP JUMPDEST STOP JUMPDEST CALLVALUE DUP1 ISZERO PUSH2 0x3A4 JUMPI PUSH1 0x0 DUP1 REVERT JUMPDEST POP PUSH2 0x3BF PUSH1 0x4 DUP1 CALLDATASIZE SUB DUP2 ADD SWAP1 PUSH2 0x3BA SWAP2 SWAP1 PUSH2 0x2FFA JUMP JUMPDEST PUSH2 0x19D4 JUMP JUMPDEST STOP JUMPDEST CALLVALUE DUP1 ISZERO PUSH2 0x3CD JUMPI PUSH1 0x0 DUP1 REVERT JUMPDEST POP PUSH2 0x3E8 PUSH1 0x4 DUP1 CALLDATASIZE SUB DUP2 ADD SWAP1 PUSH2 0x3E3 SWAP2 SWAP1 PUSH2 0x3200 JUMP JUMPDEST PUSH2 0x1A7A JUMP JUMPDEST PUSH1 0x40 MLOAD PUSH2 0x3F5 SWAP2 SWAP1 PUSH2 0x42D6 JUMP JUMPDEST PUSH1 0x40 MLOAD DUP1 SWAP2 SUB SWAP1 RETURN JUMPDEST CALLVALUE DUP1 ISZERO PUSH2 0x40A JUMPI PUSH1 0x0 DUP1 REVERT JUMPDEST POP PUSH2 0x425 PUSH1 0x4 DUP1 CALLDATASIZE SUB DUP2 ADD SWAP1 PUSH2 0x420 SWAP2 SWAP1 PUSH2 0x3110 JUMP JUMPDEST PUSH2 0x1AA1 JUMP JUMPDEST STOP JUMPDEST CALLVALUE DUP1 ISZERO PUSH2 0x433 JUMPI PUSH1 0x0 DUP1 REVERT JUMPDEST POP PUSH2 0x44E PUSH1 0x4 DUP1 CALLDATASIZE SUB DUP2 ADD SWAP1 PUSH2 0x449 SWAP2 SWAP1 PUSH2 0x3175 JUMP JUMPDEST PUSH2 0x1AE0 JUMP JUMPDEST PUSH1 0x40 MLOAD PUSH2 0x45E SWAP5 SWAP4 SWAP3 SWAP2 SWAP1 PUSH2 0x3EA2 JUMP JUMPDEST PUSH1 0x40 MLOAD DUP1 SWAP2 SUB SWAP1 RETURN JUMPDEST CALLVALUE DUP1 ISZERO PUSH2 0x473 JUMPI PUSH1 0x0 DUP1 REVERT JUMPDEST POP PUSH2 0x48E PUSH1 0x4 DUP1 CALLDATASIZE SUB DUP2 ADD SWAP1 PUSH2 0x489 SWAP2 SWAP1 PUSH2 0x2E43 JUMP JUMPDEST PUSH2 0x1B2A JUMP JUMPDEST PUSH1 0x40 MLOAD PUSH2 0x49B SWAP2 SWAP1 PUSH2 0x3DD5 JUMP JUMPDEST PUSH1 0x40 MLOAD DUP1 SWAP2 SUB SWAP1 RETURN JUMPDEST CALLVALUE DUP1 ISZERO PUSH2 0x4B0 JUMPI PUSH1 0x0 DUP1 REVERT JUMPDEST POP PUSH2 0x4B9 PUSH2 0x1B50 JUMP JUMPDEST PUSH1 0x40 MLOAD PUSH2 0x4C6 SWAP2 SWAP1 PUSH2 0x3DD5 JUMP JUMPDEST PUSH1 0x40 MLOAD DUP1 SWAP2 SUB SWAP1 RETURN JUMPDEST CALLVALUE DUP1 ISZERO PUSH2 0x4DB JUMPI PUSH1 0x0 DUP1 REVERT JUMPDEST POP PUSH2 0x4F6 PUSH1 0x4 DUP1 CALLDATASIZE SUB DUP2 ADD SWAP1 PUSH2 0x4F1 SWAP2 SWAP1 PUSH2 0x2E43 JUMP JUMPDEST PUSH2 0x1B66 JUMP JUMPDEST STOP JUMPDEST CALLVALUE DUP1 ISZERO PUSH2 0x504 JUMPI PUSH1 0x0 DUP1 REVERT JUMPDEST POP PUSH2 0x51F PUSH1 0x4 DUP1 CALLDATASIZE SUB DUP2 ADD SWAP1 PUSH2 0x51A SWAP2 SWAP1 PUSH2 0x2ED1 JUMP JUMPDEST PUSH2 0x1B8B JUMP JUMPDEST STOP JUMPDEST CALLVALUE DUP1 ISZERO PUSH2 0x52D JUMPI PUSH1 0x0 DUP1 REVERT JUMPDEST POP PUSH2 0x548 PUSH1 0x4 DUP1 CALLDATASIZE SUB DUP2 ADD SWAP1 PUSH2 0x543 SWAP2 SWAP1 PUSH2 0x31B1 JUMP JUMPDEST PUSH2 0x1C0E JUMP JUMPDEST PUSH1 0x40 MLOAD PUSH2 0x555 SWAP2 SWAP1 PUSH2 0x3DD5 JUMP JUMPDEST PUSH1 0x40 MLOAD DUP1 SWAP2 SUB SWAP1 RETURN JUMPDEST CALLVALUE DUP1 ISZERO PUSH2 0x56A JUMPI PUSH1 0x0 DUP1 REVERT JUMPDEST POP PUSH2 0x573 PUSH2 0x1C4A JUMP JUMPDEST PUSH1 0x40 MLOAD PUSH2 0x580 SWAP2 SWAP1 PUSH2 0x42BB JUMP JUMPDEST PUSH1 0x40 MLOAD DUP1 SWAP2 SUB SWAP1 RETURN JUMPDEST CALLVALUE DUP1 ISZERO PUSH2 0x595 JUMPI PUSH1 0x0 DUP1 REVERT JUMPDEST POP PUSH2 0x59E PUSH2 0x1C50 JUMP JUMPDEST STOP JUMPDEST CALLVALUE DUP1 ISZERO PUSH2 0x5AC JUMPI PUSH1 0x0 DUP1 REVERT JUMPDEST POP PUSH2 0x5C7 PUSH1 0x4 DUP1 CALLDATASIZE SUB DUP2 ADD SWAP1 PUSH2 0x5C2 SWAP2 SWAP1 PUSH2 0x306F JUMP JUMPDEST PUSH2 0x1C62 JUMP JUMPDEST PUSH1 0x40 MLOAD PUSH2 0x5D4 SWAP2 SWAP1 PUSH2 0x3D68 JUMP JUMPDEST PUSH1 0x40 MLOAD DUP1 SWAP2 SUB SWAP1 RETURN JUMPDEST CALLVALUE DUP1 ISZERO PUSH2 0x5E9 JUMPI PUSH1 0x0 DUP1 REVERT JUMPDEST POP PUSH2 0x604 PUSH1 0x4 DUP1 CALLDATASIZE SUB DUP2 ADD SWAP1 PUSH2 0x5FF SWAP2 SWAP1 PUSH2 0x2E95 JUMP JUMPDEST PUSH2 0x1C95 JUMP JUMPDEST STOP JUMPDEST CALLVALUE DUP1 ISZERO PUSH2 0x612 JUMPI PUSH1 0x0 DUP1 REVERT JUMPDEST POP PUSH2 0x62D PUSH1 0x4 DUP1 CALLDATASIZE SUB DUP2 ADD SWAP1 PUSH2 0x628 SWAP2 SWAP1 PUSH2 0x30D4 JUMP JUMPDEST PUSH2 0x1D12 JUMP JUMPDEST PUSH1 0x40 MLOAD PUSH2 0x63A SWAP2 SWAP1 PUSH2 0x3D68 JUMP JUMPDEST PUSH1 0x40 MLOAD DUP1 SWAP2 SUB SWAP1 RETURN JUMPDEST CALLVALUE DUP1 ISZERO PUSH2 0x64F JUMPI PUSH1 0x0 DUP1 REVERT JUMPDEST POP PUSH2 0x66A PUSH1 0x4 DUP1 CALLDATASIZE SUB DUP2 ADD SWAP1 PUSH2 0x665 SWAP2 SWAP1 PUSH2 0x3110 JUMP JUMPDEST PUSH2 0x1D44 JUMP JUMPDEST STOP JUMPDEST CALLVALUE DUP1 ISZERO PUSH2 0x678 JUMPI PUSH1 0x0 DUP1 REVERT JUMPDEST POP PUSH2 0x693 PUSH1 0x4 DUP1 CALLDATASIZE SUB DUP2 ADD SWAP1 PUSH2 0x68E SWAP2 SWAP1 PUSH2 0x3098 JUMP JUMPDEST PUSH2 0x1D9B JUMP JUMPDEST PUSH1 0x40 MLOAD PUSH2 0x6A0 SWAP2 SWAP1 PUSH2 0x3DD5 JUMP JUMPDEST PUSH1 0x40 MLOAD DUP1 SWAP2 SUB SWAP1 RETURN JUMPDEST CALLVALUE DUP1 ISZERO PUSH2 0x6B5 JUMPI PUSH1 0x0 DUP1 REVERT JUMPDEST POP PUSH2 0x6BE PUSH2 0x1DCD JUMP JUMPDEST PUSH1 0x40 MLOAD PUSH2 0x6CB SWAP2 SWAP1 PUSH2 0x3DF0 JUMP JUMPDEST PUSH1 0x40 MLOAD DUP1 SWAP2 SUB SWAP1 RETURN JUMPDEST CALLVALUE DUP1 ISZERO PUSH2 0x6E0 JUMPI PUSH1 0x0 DUP1 REVERT JUMPDEST POP PUSH2 0x6E9 PUSH2 0x1DE4 JUMP JUMPDEST PUSH1 0x40 MLOAD PUSH2 0x6F6 SWAP2 SWAP1 PUSH2 0x42BB JUMP JUMPDEST PUSH1 0x40 MLOAD DUP1 SWAP2 SUB SWAP1 RETURN JUMPDEST CALLVALUE DUP1 ISZERO PUSH2 0x70B JUMPI PUSH1 0x0 DUP1 REVERT JUMPDEST POP PUSH2 0x726 PUSH1 0x4 DUP1 CALLDATASIZE SUB DUP2 ADD SWAP1 PUSH2 0x721 SWAP2 SWAP1 PUSH2 0x2E43 JUMP JUMPDEST PUSH2 0x1DEA JUMP JUMPDEST STOP JUMPDEST CALLVALUE DUP1 ISZERO PUSH2 0x734 JUMPI PUSH1 0x0 DUP1 REVERT JUMPDEST POP PUSH2 0x73D PUSH2 0x1EC4 JUMP JUMPDEST PUSH1 0x40 MLOAD PUSH2 0x74A SWAP2 SWAP1 PUSH2 0x3DF0 JUMP JUMPDEST PUSH1 0x40 MLOAD DUP1 SWAP2 SUB SWAP1 RETURN JUMPDEST CALLVALUE DUP1 ISZERO PUSH2 0x75F JUMPI PUSH1 0x0 DUP1 REVERT JUMPDEST POP PUSH2 0x77A PUSH1 0x4 DUP1 CALLDATASIZE SUB DUP2 ADD SWAP1 PUSH2 0x775 SWAP2 SWAP1 PUSH2 0x3295 JUMP JUMPDEST PUSH2 0x1ECB JUMP JUMPDEST PUSH1 0x40 MLOAD PUSH2 0x787 SWAP2 SWAP1 PUSH2 0x4299 JUMP JUMPDEST PUSH1 0x40 MLOAD DUP1 SWAP2 SUB SWAP1 RETURN JUMPDEST CALLVALUE DUP1 ISZERO PUSH2 0x79C JUMPI PUSH1 0x0 DUP1 REVERT JUMPDEST POP PUSH2 0x7A5 PUSH2 0x20AC JUMP JUMPDEST PUSH1 0x40 MLOAD PUSH2 0x7B2 SWAP2 SWAP1 PUSH2 0x42F1 JUMP JUMPDEST PUSH1 0x40 MLOAD DUP1 SWAP2 SUB SWAP1 RETURN JUMPDEST CALLVALUE DUP1 ISZERO PUSH2 0x7C7 JUMPI PUSH1 0x0 DUP1 REVERT JUMPDEST POP PUSH2 0x7D0 PUSH2 0x20BF JUMP JUMPDEST PUSH1 0x40 MLOAD PUSH2 0x7DD SWAP2 SWAP1 PUSH2 0x42BB JUMP JUMPDEST PUSH1 0x40 MLOAD DUP1 SWAP2 SUB SWAP1 RETURN JUMPDEST CALLVALUE DUP1 ISZERO PUSH2 0x7F2 JUMPI PUSH1 0x0 DUP1 REVERT JUMPDEST POP PUSH2 0x7FB PUSH2 0x20C5 JUMP JUMPDEST PUSH1 0x40 MLOAD PUSH2 0x808 SWAP2 SWAP1 PUSH2 0x42BB JUMP JUMPDEST PUSH1 0x40 MLOAD DUP1 SWAP2 SUB SWAP1 RETURN JUMPDEST CALLVALUE DUP1 ISZERO PUSH2 0x81D JUMPI PUSH1 0x0 DUP1 REVERT JUMPDEST POP PUSH2 0x838 PUSH1 0x4 DUP1 CALLDATASIZE SUB DUP2 ADD SWAP1 PUSH2 0x833 SWAP2 SWAP1 PUSH2 0x306F JUMP JUMPDEST PUSH2 0x20CB JUMP JUMPDEST PUSH1 0x40 MLOAD PUSH2 0x845 SWAP2 SWAP1 PUSH2 0x42BB JUMP JUMPDEST PUSH1 0x40 MLOAD DUP1 SWAP2 SUB SWAP1 RETURN JUMPDEST CALLVALUE DUP1 ISZERO PUSH2 0x85A JUMPI PUSH1 0x0 DUP1 REVERT JUMPDEST POP PUSH2 0x875 PUSH1 0x4 DUP1 CALLDATASIZE SUB DUP2 ADD SWAP1 PUSH2 0x870 SWAP2 SWAP1 PUSH2 0x2F34 JUMP JUMPDEST PUSH2 0x20F2 JUMP JUMPDEST STOP JUMPDEST CALLVALUE DUP1 ISZERO PUSH2 0x883 JUMPI PUSH1 0x0 DUP1 REVERT JUMPDEST POP PUSH2 0x89E PUSH1 0x4 DUP1 CALLDATASIZE SUB DUP2 ADD SWAP1 PUSH2 0x899 SWAP2 SWAP1 PUSH2 0x2E43 JUMP JUMPDEST PUSH2 0x21C4 JUMP JUMPDEST STOP JUMPDEST CALLVALUE DUP1 ISZERO PUSH2 0x8AC JUMPI PUSH1 0x0 DUP1 REVERT JUMPDEST POP PUSH2 0x8C7 PUSH1 0x4 DUP1 CALLDATASIZE SUB DUP2 ADD SWAP1 PUSH2 0x8C2 SWAP2 SWAP1 PUSH2 0x3098 JUMP JUMPDEST PUSH2 0x229E JUMP JUMPDEST STOP JUMPDEST CALLVALUE DUP1 ISZERO PUSH2 0x8D5 JUMPI PUSH1 0x0 DUP1 REVERT JUMPDEST POP PUSH2 0x8DE PUSH2 0x2312 JUMP JUMPDEST PUSH1 0x40 MLOAD PUSH2 0x8EB SWAP2 SWAP1 PUSH2 0x42BB JUMP JUMPDEST PUSH1 0x40 MLOAD DUP1 SWAP2 SUB SWAP1 RETURN JUMPDEST CALLVALUE DUP1 ISZERO PUSH2 0x900 JUMPI PUSH1 0x0 DUP1 REVERT JUMPDEST POP PUSH2 0x91B PUSH1 0x4 DUP1 CALLDATASIZE SUB DUP2 ADD SWAP1 PUSH2 0x916 SWAP2 SWAP1 PUSH2 0x2F83 JUMP JUMPDEST PUSH2 0x2318 JUMP JUMPDEST STOP JUMPDEST CALLVALUE DUP1 ISZERO PUSH2 0x929 JUMPI PUSH1 0x0 DUP1 REVERT JUMPDEST POP PUSH2 0x932 PUSH2 0x23F0 JUMP JUMPDEST STOP JUMPDEST PUSH2 0x93C PUSH2 0x2402 JUMP JUMPDEST PUSH1 0x6 SLOAD CALLVALUE EQ PUSH2 0x980 JUMPI PUSH1 0x40 MLOAD PUSH32 0x8C379A000000000000000000000000000000000000000000000000000000000 DUP2 MSTORE PUSH1 0x4 ADD PUSH2 0x977 SWAP1 PUSH2 0x40B9 JUMP JUMPDEST PUSH1 0x40 MLOAD DUP1 SWAP2 SUB SWAP1 REVERT JUMPDEST PUSH1 0x0 PUSH1 0x9 PUSH1 0x0 DUP6 DUP2 MSTORE PUSH1 0x20 ADD SWAP1 DUP2 MSTORE PUSH1 0x20 ADD PUSH1 0x0 KECCAK256 PUSH1 0x0 SWAP1 SLOAD SWAP1 PUSH2 0x100 EXP SWAP1 DIV PUSH20 0xFFFFFFFFFFFFFFFFFFFFFFFFFFFFFFFFFFFFFFFF AND SWAP1 POP PUSH1 0x0 PUSH20 0xFFFFFFFFFFFFFFFFFFFFFFFFFFFFFFFFFFFFFFFF AND DUP2 PUSH20 0xFFFFFFFFFFFFFFFFFFFFFFFFFFFFFFFFFFFFFFFF AND EQ ISZERO PUSH2 0xA28 JUMPI PUSH1 0x40 MLOAD PUSH32 0x8C379A000000000000000000000000000000000000000000000000000000000 DUP2 MSTORE PUSH1 0x4 ADD PUSH2 0xA1F SWAP1 PUSH2 0x4119 JUMP JUMPDEST PUSH1 0x40 MLOAD DUP1 SWAP2 SUB SWAP1 REVERT JUMPDEST PUSH1 0x0 PUSH1 0x8 PUSH1 0x0 DUP8 PUSH1 0xFF AND PUSH1 0xFF AND DUP2 MSTORE PUSH1 0x20 ADD SWAP1 DUP2 MSTORE PUSH1 0x20 ADD PUSH1 0x0 KECCAK256 PUSH1 0x0 DUP2 DUP2 SWAP1 SLOAD SWAP1 PUSH2 0x100 EXP SWAP1 DIV PUSH8 0xFFFFFFFFFFFFFFFF AND PUSH1 0x1 ADD SWAP2 SWAP1 PUSH2 0x100 EXP DUP2 SLOAD DUP2 PUSH8 0xFFFFFFFFFFFFFFFF MUL NOT AND SWAP1 DUP4 PUSH8 0xFFFFFFFFFFFFFFFF AND MUL OR SWAP1 SSTORE SWAP1 POP DUP4 DUP4 PUSH1 0xA PUSH1 0x0 DUP5 PUSH8 0xFFFFFFFFFFFFFFFF AND PUSH8 0xFFFFFFFFFFFFFFFF AND DUP2 MSTORE PUSH1 0x20 ADD SWAP1 DUP2 MSTORE PUSH1 0x20 ADD PUSH1 0x0 KECCAK256 PUSH1 0x0 DUP10 PUSH1 0xFF AND PUSH1 0xFF AND DUP2 MSTORE PUSH1 0x20 ADD SWAP1 DUP2 MSTORE PUSH1 0x20 ADD PUSH1 0x0 KECCAK256 SWAP2 SWAP1 PUSH2 0xAD1 SWAP3 SWAP2 SWAP1 PUSH2 0x2B04 JUMP JUMPDEST POP PUSH1 0x0 DUP3 SWAP1 POP DUP1 PUSH20 0xFFFFFFFFFFFFFFFFFFFFFFFFFFFFFFFFFFFFFFFF AND PUSH4 0x38995DA9 DUP8 DUP10 DUP6 CALLER DUP11 DUP11 PUSH1 0x40 MLOAD DUP8 PUSH4 0xFFFFFFFF AND PUSH1 0xE0 SHL DUP2 MSTORE PUSH1 0x4 ADD PUSH2 0xB1A SWAP7 SWAP6 SWAP5 SWAP4 SWAP3 SWAP2 SWAP1 PUSH2 0x3F19 JUMP JUMPDEST PUSH1 0x0 PUSH1 0x40 MLOAD DUP1 DUP4 SUB DUP2 PUSH1 0x0 DUP8 DUP1 EXTCODESIZE ISZERO DUP1 ISZERO PUSH2 0xB34 JUMPI PUSH1 0x0 DUP1 REVERT JUMPDEST POP GAS CALL ISZERO DUP1 ISZERO PUSH2 0xB48 JUMPI RETURNDATASIZE PUSH1 0x0 DUP1 RETURNDATACOPY RETURNDATASIZE PUSH1 0x0 REVERT JUMPDEST POP POP POP POP DUP2 PUSH8 0xFFFFFFFFFFFFFFFF AND DUP7 DUP9 PUSH1 0xFF AND PUSH32 0xDBB69440DF8433824A026EF190652F29929EB64B4D1D5D2A69BE8AFE3E6EAED8 PUSH1 0x40 MLOAD PUSH1 0x40 MLOAD DUP1 SWAP2 SUB SWAP1 LOG4 POP POP POP POP POP POP POP JUMP JUMPDEST PUSH2 0xB99 PUSH2 0x2453 JUMP JUMPDEST PUSH1 0x0 DUP4 PUSH1 0xFF AND PUSH1 0x8 DUP5 PUSH8 0xFFFFFFFFFFFFFFFF AND PUSH9 0xFFFFFFFFFFFFFFFFFF AND SWAP1 SHL OR SWAP1 POP PUSH1 0x0 PUSH1 0xB PUSH1 0x0 DUP4 PUSH9 0xFFFFFFFFFFFFFFFFFF AND PUSH9 0xFFFFFFFFFFFFFFFFFF AND DUP2 MSTORE PUSH1 0x20 ADD SWAP1 DUP2 MSTORE PUSH1 0x20 ADD PUSH1 0x0 KECCAK256 PUSH1 0x0 DUP5 DUP2 MSTORE PUSH1 0x20 ADD SWAP1 DUP2 MSTORE PUSH1 0x20 ADD PUSH1 0x0 KECCAK256 SWAP1 POP PUSH1 0x4 DUP1 DUP2 GT ISZERO PUSH2 0xC06 JUMPI INVALID JUMPDEST DUP2 PUSH1 0x4 ADD PUSH1 0x0 SWAP1 SLOAD SWAP1 PUSH2 0x100 EXP SWAP1 DIV PUSH1 0xFF AND PUSH1 0x4 DUP2 GT ISZERO PUSH2 0xC23 JUMPI INVALID JUMPDEST EQ ISZERO PUSH2 0xC64 JUMPI PUSH1 0x40 MLOAD PUSH32 0x8C379A000000000000000000000000000000000000000000000000000000000 DUP2 MSTORE PUSH1 0x4 ADD PUSH2 0xC5B SWAP1 PUSH2 0x40F9 JUMP JUMPDEST PUSH1 0x40 MLOAD DUP1 SWAP2 SUB SWAP1 REVERT JUMPDEST PUSH1 0x7 SLOAD PUSH2 0xC75 NUMBER DUP4 PUSH1 0x5 ADD SLOAD PUSH2 0x24C5 JUMP JUMPDEST GT PUSH2 0xCB5 JUMPI PUSH1 0x40 MLOAD PUSH32 0x8C379A000000000000000000000000000000000000000000000000000000000 DUP2 MSTORE PUSH1 0x4 ADD PUSH2 0xCAC SWAP1 PUSH2 0x4159 JUMP JUMPDEST PUSH1 0x40 MLOAD DUP1 SWAP2 SUB SWAP1 REVERT JUMPDEST PUSH1 0x4 DUP2 PUSH1 0x4 ADD PUSH1 0x0 PUSH2 0x100 EXP DUP2 SLOAD DUP2 PUSH1 0xFF MUL NOT AND SWAP1 DUP4 PUSH1 0x4 DUP2 GT ISZERO PUSH2 0xCD6 JUMPI INVALID JUMPDEST MUL OR SWAP1 SSTORE POP PUSH1 0x4 DUP1 DUP2 GT ISZERO PUSH2 0xCE7 JUMPI INVALID JUMPDEST DUP5 PUSH8 0xFFFFFFFFFFFFFFFF AND DUP7 PUSH1 0xFF AND PUSH32 0x803C5A12F6BDE629CEA32E63D4B92D1B560816A6FB72E939D3C89E1CAB650417 DUP5 PUSH1 0x0 ADD SLOAD DUP6 PUSH1 0x1 ADD SLOAD PUSH1 0x40 MLOAD PUSH2 0xD2F SWAP3 SWAP2 SWAP1 PUSH2 0x3E79 JUMP JUMPDEST PUSH1 0x40 MLOAD DUP1 SWAP2 SUB SWAP1 LOG4 POP POP POP POP POP JUMP JUMPDEST PUSH2 0xD46 PUSH2 0x250F JUMP JUMPDEST PUSH2 0xD4E PUSH2 0x2402 JUMP JUMPDEST PUSH1 0x0 DUP5 PUSH1 0xFF AND PUSH1 0x8 DUP6 PUSH8 0xFFFFFFFFFFFFFFFF AND PUSH9 0xFFFFFFFFFFFFFFFFFF AND SWAP1 SHL OR SWAP1 POP PUSH1 0x0 PUSH1 0xB PUSH1 0x0 DUP4 PUSH9 0xFFFFFFFFFFFFFFFFFF AND PUSH9 0xFFFFFFFFFFFFFFFFFF AND DUP2 MSTORE PUSH1 0x20 ADD SWAP1 DUP2 MSTORE PUSH1 0x20 ADD PUSH1 0x0 KECCAK256 PUSH1 0x0 DUP5 DUP2 MSTORE PUSH1 0x20 ADD SWAP1 DUP2 MSTORE PUSH1 0x20 ADD PUSH1 0x0 KECCAK256 SWAP1 POP PUSH1 0x0 PUSH20 0xFFFFFFFFFFFFFFFFFFFFFFFFFFFFFFFFFFFFFFFF AND PUSH1 0x9 PUSH1 0x0 DUP7 DUP2 MSTORE PUSH1 0x20 ADD SWAP1 DUP2 MSTORE PUSH1 0x20 ADD PUSH1 0x0 KECCAK256 PUSH1 0x0 SWAP1 SLOAD SWAP1 PUSH2 0x100 EXP SWAP1 DIV PUSH20 0xFFFFFFFFFFFFFFFFFFFFFFFFFFFFFFFFFFFFFFFF AND PUSH20 0xFFFFFFFFFFFFFFFFFFFFFFFFFFFFFFFFFFFFFFFF AND EQ ISZERO PUSH2 0xE52 JUMPI PUSH1 0x40 MLOAD PUSH32 0x8C379A000000000000000000000000000000000000000000000000000000000 DUP2 MSTORE PUSH1 0x4 ADD PUSH2 0xE49 SWAP1 PUSH2 0x4259 JUMP JUMPDEST PUSH1 0x40 MLOAD DUP1 SWAP2 SUB SWAP1 REVERT JUMPDEST PUSH1 0x1 DUP2 PUSH1 0x4 ADD PUSH1 0x0 SWAP1 SLOAD SWAP1 PUSH2 0x100 EXP SWAP1 DIV PUSH1 0xFF AND PUSH1 0x4 DUP2 GT ISZERO PUSH2 0xE71 JUMPI INVALID JUMPDEST GT ISZERO PUSH2 0xEB2 JUMPI PUSH1 0x40 MLOAD PUSH32 0x8C379A000000000000000000000000000000000000000000000000000000000 DUP2 MSTORE PUSH1 0x4 ADD PUSH2 0xEA9 SWAP1 PUSH2 0x41B9 JUMP JUMPDEST PUSH1 0x40 MLOAD DUP1 SWAP2 SUB SWAP1 REVERT JUMPDEST PUSH1 0xC PUSH1 0x0 DUP4 PUSH9 0xFFFFFFFFFFFFFFFFFF AND PUSH9 0xFFFFFFFFFFFFFFFFFF AND DUP2 MSTORE PUSH1 0x20 ADD SWAP1 DUP2 MSTORE PUSH1 0x20 ADD PUSH1 0x0 KECCAK256 PUSH1 0x0 DUP5 DUP2 MSTORE PUSH1 0x20 ADD SWAP1 DUP2 MSTORE PUSH1 0x20 ADD PUSH1 0x0 KECCAK256 PUSH1 0x0 CALLER PUSH20 0xFFFFFFFFFFFFFFFFFFFFFFFFFFFFFFFFFFFFFFFF AND PUSH20 0xFFFFFFFFFFFFFFFFFFFFFFFFFFFFFFFFFFFFFFFF AND DUP2 MSTORE PUSH1 0x20 ADD SWAP1 DUP2 MSTORE PUSH1 0x20 ADD PUSH1 0x0 KECCAK256 PUSH1 0x0 SWAP1 SLOAD SWAP1 PUSH2 0x100 EXP SWAP1 DIV PUSH1 0xFF AND ISZERO PUSH2 0xF77 JUMPI PUSH1 0x40 MLOAD PUSH32 0x8C379A000000000000000000000000000000000000000000000000000000000 DUP2 MSTORE PUSH1 0x4 ADD PUSH2 0xF6E SWAP1 PUSH2 0x4059 JUMP JUMPDEST PUSH1 0x40 MLOAD DUP1 SWAP2 SUB SWAP1 REVERT JUMPDEST PUSH1 0x0 DUP2 PUSH1 0x4 ADD PUSH1 0x0 SWAP1 SLOAD SWAP1 PUSH2 0x100 EXP SWAP1 DIV PUSH1 0xFF AND PUSH1 0x4 DUP2 GT ISZERO PUSH2 0xF96 JUMPI INVALID JUMPDEST EQ ISZERO PUSH2 0x11B6 JUMPI PUSH1 0x5 PUSH1 0x0 DUP2 SLOAD PUSH1 0x1 ADD SWAP2 SWAP1 POP DUP2 SWAP1 SSTORE POP PUSH1 0x40 MLOAD DUP1 PUSH1 0xC0 ADD PUSH1 0x40 MSTORE DUP1 DUP6 DUP2 MSTORE PUSH1 0x20 ADD DUP5 DUP2 MSTORE PUSH1 0x20 ADD PUSH1 0x1 PUSH1 0x40 MLOAD SWAP1 DUP1 DUP3 MSTORE DUP1 PUSH1 0x20 MUL PUSH1 0x20 ADD DUP3 ADD PUSH1 0x40 MSTORE DUP1 ISZERO PUSH2 0xFF3 JUMPI DUP2 PUSH1 0x20 ADD PUSH1 0x20 DUP3 MUL DUP1 CALLDATASIZE DUP4 CALLDATACOPY DUP1 DUP3 ADD SWAP2 POP POP SWAP1 POP JUMPDEST POP DUP2 MSTORE PUSH1 0x20 ADD PUSH1 0x0 PUSH1 0x40 MLOAD SWAP1 DUP1 DUP3 MSTORE DUP1 PUSH1 0x20 MUL PUSH1 0x20 ADD DUP3 ADD PUSH1 0x40 MSTORE DUP1 ISZERO PUSH2 0x1029 JUMPI DUP2 PUSH1 0x20 ADD PUSH1 0x20 DUP3 MUL DUP1 CALLDATASIZE DUP4 CALLDATACOPY DUP1 DUP3 ADD SWAP2 POP POP SWAP1 POP JUMPDEST POP DUP2 MSTORE PUSH1 0x20 ADD PUSH1 0x1 PUSH1 0x4 DUP2 GT ISZERO PUSH2 0x103C JUMPI INVALID JUMPDEST DUP2 MSTORE PUSH1 0x20 ADD NUMBER DUP2 MSTORE POP PUSH1 0xB PUSH1 0x0 DUP5 PUSH9 0xFFFFFFFFFFFFFFFFFF AND PUSH9 0xFFFFFFFFFFFFFFFFFF AND DUP2 MSTORE PUSH1 0x20 ADD SWAP1 DUP2 MSTORE PUSH1 0x20 ADD PUSH1 0x0 KECCAK256 PUSH1 0x0 DUP6 DUP2 MSTORE PUSH1 0x20 ADD SWAP1 DUP2 MSTORE PUSH1 0x20 ADD PUSH1 0x0 KECCAK256 PUSH1 0x0 DUP3 ADD MLOAD DUP2 PUSH1 0x0 ADD SSTORE PUSH1 0x20 DUP3 ADD MLOAD DUP2 PUSH1 0x1 ADD SSTORE PUSH1 0x40 DUP3 ADD MLOAD DUP2 PUSH1 0x2 ADD SWAP1 DUP1 MLOAD SWAP1 PUSH1 0x20 ADD SWAP1 PUSH2 0x10AF SWAP3 SWAP2 SWAP1 PUSH2 0x2B84 JUMP JUMPDEST POP PUSH1 0x60 DUP3 ADD MLOAD DUP2 PUSH1 0x3 ADD SWAP1 DUP1 MLOAD SWAP1 PUSH1 0x20 ADD SWAP1 PUSH2 0x10CC SWAP3 SWAP2 SWAP1 PUSH2 0x2B84 JUMP JUMPDEST POP PUSH1 0x80 DUP3 ADD MLOAD DUP2 PUSH1 0x4 ADD PUSH1 0x0 PUSH2 0x100 EXP DUP2 SLOAD DUP2 PUSH1 0xFF MUL NOT AND SWAP1 DUP4 PUSH1 0x4 DUP2 GT ISZERO PUSH2 0x10F1 JUMPI INVALID JUMPDEST MUL OR SWAP1 SSTORE POP PUSH1 0xA0 DUP3 ADD MLOAD DUP2 PUSH1 0x5 ADD SSTORE SWAP1 POP POP CALLER DUP2 PUSH1 0x2 ADD PUSH1 0x0 DUP2 SLOAD DUP2 LT PUSH2 0x1114 JUMPI INVALID JUMPDEST SWAP1 PUSH1 0x0 MSTORE PUSH1 0x20 PUSH1 0x0 KECCAK256 ADD PUSH1 0x0 PUSH2 0x100 EXP DUP2 SLOAD DUP2 PUSH20 0xFFFFFFFFFFFFFFFFFFFFFFFFFFFFFFFFFFFFFFFF MUL NOT AND SWAP1 DUP4 PUSH20 0xFFFFFFFFFFFFFFFFFFFFFFFFFFFFFFFFFFFFFFFF AND MUL OR SWAP1 SSTORE POP PUSH1 0x1 PUSH1 0x4 DUP2 GT ISZERO PUSH2 0x1169 JUMPI INVALID JUMPDEST DUP6 PUSH8 0xFFFFFFFFFFFFFFFF AND DUP8 PUSH1 0xFF AND PUSH32 0x803C5A12F6BDE629CEA32E63D4B92D1B560816A6FB72E939D3C89E1CAB650417 DUP8 DUP8 PUSH1 0x40 MLOAD PUSH2 0x11A9 SWAP3 SWAP2 SWAP1 PUSH2 0x3E79 JUMP JUMPDEST PUSH1 0x40 MLOAD DUP1 SWAP2 SUB SWAP1 LOG4 PUSH2 0x12F9 JUMP JUMPDEST PUSH1 0x7 SLOAD PUSH2 0x11C7 NUMBER DUP4 PUSH1 0x5 ADD SLOAD PUSH2 0x24C5 JUMP JUMPDEST GT ISZERO PUSH2 0x124C JUMPI PUSH1 0x4 DUP2 PUSH1 0x4 ADD PUSH1 0x0 PUSH2 0x100 EXP DUP2 SLOAD DUP2 PUSH1 0xFF MUL NOT AND SWAP1 DUP4 PUSH1 0x4 DUP2 GT ISZERO PUSH2 0x11EE JUMPI INVALID JUMPDEST MUL OR SWAP1 SSTORE POP PUSH1 0x4 DUP1 DUP2 GT ISZERO PUSH2 0x11FF JUMPI INVALID JUMPDEST DUP6 PUSH8 0xFFFFFFFFFFFFFFFF AND DUP8 PUSH1 0xFF AND PUSH32 0x803C5A12F6BDE629CEA32E63D4B92D1B560816A6FB72E939D3C89E1CAB650417 DUP8 DUP8 PUSH1 0x40 MLOAD PUSH2 0x123F SWAP3 SWAP2 SWAP1 PUSH2 0x3E79 JUMP JUMPDEST PUSH1 0x40 MLOAD DUP1 SWAP2 SUB SWAP1 LOG4 PUSH2 0x12F8 JUMP JUMPDEST DUP1 PUSH1 0x1 ADD SLOAD DUP4 EQ PUSH2 0x1292 JUMPI PUSH1 0x40 MLOAD PUSH32 0x8C379A000000000000000000000000000000000000000000000000000000000 DUP2 MSTORE PUSH1 0x4 ADD PUSH2 0x1289 SWAP1 PUSH2 0x4239 JUMP JUMPDEST PUSH1 0x40 MLOAD DUP1 SWAP2 SUB SWAP1 REVERT JUMPDEST DUP1 PUSH1 0x2 ADD CALLER SWAP1 DUP1 PUSH1 0x1 DUP2 SLOAD ADD DUP1 DUP3 SSTORE DUP1 SWAP2 POP POP PUSH1 0x1 SWAP1 SUB SWAP1 PUSH1 0x0 MSTORE PUSH1 0x20 PUSH1 0x0 KECCAK256 ADD PUSH1 0x0 SWAP1 SWAP2 SWAP1 SWAP2 SWAP1 SWAP2 PUSH2 0x100 EXP DUP2 SLOAD DUP2 PUSH20 0xFFFFFFFFFFFFFFFFFFFFFFFFFFFFFFFFFFFFFFFF MUL NOT AND SWAP1 DUP4 PUSH20 0xFFFFFFFFFFFFFFFFFFFFFFFFFFFFFFFFFFFFFFFF AND MUL OR SWAP1 SSTORE POP JUMPDEST JUMPDEST PUSH1 0x4 DUP1 DUP2 GT ISZERO PUSH2 0x1305 JUMPI INVALID JUMPDEST DUP2 PUSH1 0x4 ADD PUSH1 0x0 SWAP1 SLOAD SWAP1 PUSH2 0x100 EXP SWAP1 DIV PUSH1 0xFF AND PUSH1 0x4 DUP2 GT ISZERO PUSH2 0x1322 JUMPI INVALID JUMPDEST EQ PUSH2 0x14B7 JUMPI PUSH1 0x1 PUSH1 0xC PUSH1 0x0 DUP5 PUSH9 0xFFFFFFFFFFFFFFFFFF AND PUSH9 0xFFFFFFFFFFFFFFFFFF AND DUP2 MSTORE PUSH1 0x20 ADD SWAP1 DUP2 MSTORE PUSH1 0x20 ADD PUSH1 0x0 KECCAK256 PUSH1 0x0 DUP6 DUP2 MSTORE PUSH1 0x20 ADD SWAP1 DUP2 MSTORE PUSH1 0x20 ADD PUSH1 0x0 KECCAK256 PUSH1 0x0 CALLER PUSH20 0xFFFFFFFFFFFFFFFFFFFFFFFFFFFFFFFFFFFFFFFF AND PUSH20 0xFFFFFFFFFFFFFFFFFFFFFFFFFFFFFFFFFFFFFFFF AND DUP2 MSTORE PUSH1 0x20 ADD SWAP1 DUP2 MSTORE PUSH1 0x20 ADD PUSH1 0x0 KECCAK256 PUSH1 0x0 PUSH2 0x100 EXP DUP2 SLOAD DUP2 PUSH1 0xFF MUL NOT AND SWAP1 DUP4 ISZERO ISZERO MUL OR SWAP1 SSTORE POP DUP1 PUSH1 0x4 ADD PUSH1 0x0 SWAP1 SLOAD SWAP1 PUSH2 0x100 EXP SWAP1 DIV PUSH1 0xFF AND PUSH1 0x4 DUP2 GT ISZERO PUSH2 0x13D4 JUMPI INVALID JUMPDEST DUP6 PUSH8 0xFFFFFFFFFFFFFFFF AND DUP8 PUSH1 0xFF AND PUSH32 0x25F8DAAA4635A7729927BA3F5B3D59CC3320ACA7C32C9DB4E7CA7B9574343640 DUP8 PUSH1 0x40 MLOAD PUSH2 0x1412 SWAP2 SWAP1 PUSH2 0x3DF0 JUMP JUMPDEST PUSH1 0x40 MLOAD DUP1 SWAP2 SUB SWAP1 LOG4 PUSH1 0x1 PUSH1 0x3 SLOAD GT ISZERO DUP1 PUSH2 0x1435 JUMPI POP PUSH1 0x3 SLOAD DUP2 PUSH1 0x2 ADD DUP1 SLOAD SWAP1 POP LT ISZERO JUMPDEST ISZERO PUSH2 0x14B6 JUMPI PUSH1 0x2 DUP2 PUSH1 0x4 ADD PUSH1 0x0 PUSH2 0x100 EXP DUP2 SLOAD DUP2 PUSH1 0xFF MUL NOT AND SWAP1 DUP4 PUSH1 0x4 DUP2 GT ISZERO PUSH2 0x145B JUMPI INVALID JUMPDEST MUL OR SWAP1 SSTORE POP PUSH1 0x2 PUSH1 0x4 DUP2 GT ISZERO PUSH2 0x146D JUMPI INVALID JUMPDEST DUP6 PUSH8 0xFFFFFFFFFFFFFFFF AND DUP8 PUSH1 0xFF AND PUSH32 0x803C5A12F6BDE629CEA32E63D4B92D1B560816A6FB72E939D3C89E1CAB650417 DUP8 DUP8 PUSH1 0x40 MLOAD PUSH2 0x14AD SWAP3 SWAP2 SWAP1 PUSH2 0x3E79 JUMP JUMPDEST PUSH1 0x40 MLOAD DUP1 SWAP2 SUB SWAP1 LOG4 JUMPDEST JUMPDEST POP POP POP POP POP POP JUMP JUMPDEST PUSH1 0x0 PUSH1 0x1 PUSH1 0x0 DUP4 DUP2 MSTORE PUSH1 0x20 ADD SWAP1 DUP2 MSTORE PUSH1 0x20 ADD PUSH1 0x0 KECCAK256 PUSH1 0x2 ADD SLOAD SWAP1 POP SWAP2 SWAP1 POP JUMP JUMPDEST PUSH2 0x1506 PUSH1 0x1 PUSH1 0x0 DUP5 DUP2 MSTORE PUSH1 0x20 ADD SWAP1 DUP2 MSTORE PUSH1 0x20 ADD PUSH1 0x0 KECCAK256 PUSH1 0x2 ADD SLOAD PUSH2 0x1501 PUSH2 0x256D JUMP JUMPDEST PUSH2 0x1D9B JUMP JUMPDEST PUSH2 0x1545 JUMPI PUSH1 0x40 MLOAD PUSH32 0x8C379A000000000000000000000000000000000000000000000000000000000 DUP2 MSTORE PUSH1 0x4 ADD PUSH2 0x153C SWAP1 PUSH2 0x4039 JUMP JUMPDEST PUSH1 0x40 MLOAD DUP1 SWAP2 SUB SWAP1 REVERT JUMPDEST PUSH2 0x154F DUP3 DUP3 PUSH2 0x2575 JUMP JUMPDEST POP POP JUMP JUMPDEST PUSH2 0x155B PUSH2 0x256D JUMP JUMPDEST PUSH20 0xFFFFFFFFFFFFFFFFFFFFFFFFFFFFFFFFFFFFFFFF AND DUP2 PUSH20 0xFFFFFFFFFFFFFFFFFFFFFFFFFFFFFFFFFFFFFFFF AND EQ PUSH2 0x15C8 JUMPI PUSH1 0x40 MLOAD PUSH32 0x8C379A000000000000000000000000000000000000000000000000000000000 DUP2 MSTORE PUSH1 0x4 ADD PUSH2 0x15BF SWAP1 PUSH2 0x4279 JUMP JUMPDEST PUSH1 0x40 MLOAD DUP1 SWAP2 SUB SWAP1 REVERT JUMPDEST PUSH2 0x15D2 DUP3 DUP3 PUSH2 0x2609 JUMP JUMPDEST POP POP JUMP JUMPDEST PUSH1 0xA PUSH1 0x20 MSTORE DUP2 PUSH1 0x0 MSTORE PUSH1 0x40 PUSH1 0x0 KECCAK256 PUSH1 0x20 MSTORE DUP1 PUSH1 0x0 MSTORE PUSH1 0x40 PUSH1 0x0 KECCAK256 PUSH1 0x0 SWAP2 POP SWAP2 POP POP DUP1 SLOAD PUSH1 0x1 DUP2 PUSH1 0x1 AND ISZERO PUSH2 0x100 MUL SUB AND PUSH1 0x2 SWAP1 DIV DUP1 PUSH1 0x1F ADD PUSH1 0x20 DUP1 SWAP2 DIV MUL PUSH1 0x20 ADD PUSH1 0x40 MLOAD SWAP1 DUP2 ADD PUSH1 0x40 MSTORE DUP1 SWAP3 SWAP2 SWAP1 DUP2 DUP2 MSTORE PUSH1 0x20 ADD DUP3 DUP1 SLOAD PUSH1 0x1 DUP2 PUSH1 0x1 AND ISZERO PUSH2 0x100 MUL SUB AND PUSH1 0x2 SWAP1 DIV DUP1 ISZERO PUSH2 0x168B JUMPI DUP1 PUSH1 0x1F LT PUSH2 0x1660 JUMPI PUSH2 0x100 DUP1 DUP4 SLOAD DIV MUL DUP4 MSTORE SWAP2 PUSH1 0x20 ADD SWAP2 PUSH2 0x168B JUMP JUMPDEST DUP3 ADD SWAP2 SWAP1 PUSH1 0x0 MSTORE PUSH1 0x20 PUSH1 0x0 KECCAK256 SWAP1 JUMPDEST DUP2 SLOAD DUP2 MSTORE SWAP1 PUSH1 0x1 ADD SWAP1 PUSH1 0x20 ADD DUP1 DUP4 GT PUSH2 0x166E JUMPI DUP3 SWAP1 SUB PUSH1 0x1F AND DUP3 ADD SWAP2 JUMPDEST POP POP POP POP POP DUP2 JUMP JUMPDEST PUSH2 0x169B PUSH2 0x250F JUMP JUMPDEST PUSH2 0x16A3 PUSH2 0x2402 JUMP JUMPDEST PUSH1 0x0 PUSH1 0x9 PUSH1 0x0 DUP4 DUP2 MSTORE PUSH1 0x20 ADD SWAP1 DUP2 MSTORE PUSH1 0x20 ADD PUSH1 0x0 KECCAK256 PUSH1 0x0 SWAP1 SLOAD SWAP1 PUSH2 0x100 EXP SWAP1 DIV PUSH20 0xFFFFFFFFFFFFFFFFFFFFFFFFFFFFFFFFFFFFFFFF AND SWAP1 POP PUSH1 0x0 DUP7 PUSH1 0xFF AND PUSH1 0x8 DUP8 PUSH8 0xFFFFFFFFFFFFFFFF AND PUSH9 0xFFFFFFFFFFFFFFFFFF AND SWAP1 SHL OR SWAP1 POP PUSH1 0x0 DUP3 DUP7 DUP7 PUSH1 0x40 MLOAD PUSH1 0x20 ADD PUSH2 0x1715 SWAP4 SWAP3 SWAP2 SWAP1 PUSH2 0x3D29 JUMP JUMPDEST PUSH1 0x40 MLOAD PUSH1 0x20 DUP2 DUP4 SUB SUB DUP2 MSTORE SWAP1 PUSH1 0x40 MSTORE DUP1 MLOAD SWAP1 PUSH1 0x20 ADD KECCAK256 SWAP1 POP PUSH1 0x0 PUSH1 0xB PUSH1 0x0 DUP5 PUSH9 0xFFFFFFFFFFFFFFFFFF AND PUSH9 0xFFFFFFFFFFFFFFFFFF AND DUP2 MSTORE PUSH1 0x20 ADD SWAP1 DUP2 MSTORE PUSH1 0x20 ADD PUSH1 0x0 KECCAK256 PUSH1 0x0 DUP4 DUP2 MSTORE PUSH1 0x20 ADD SWAP1 DUP2 MSTORE PUSH1 0x20 ADD PUSH1 0x0 KECCAK256 SWAP1 POP PUSH1 0x0 PUSH1 0x4 DUP2 GT ISZERO PUSH2 0x1778 JUMPI INVALID JUMPDEST DUP2 PUSH1 0x4 ADD PUSH1 0x0 SWAP1 SLOAD SWAP1 PUSH2 0x100 EXP SWAP1 DIV PUSH1 0xFF AND PUSH1 0x4 DUP2 GT ISZERO PUSH2 0x1795 JUMPI INVALID JUMPDEST EQ ISZERO PUSH2 0x17D6 JUMPI PUSH1 0x40 MLOAD PUSH32 0x8C379A000000000000000000000000000000000000000000000000000000000 DUP2 MSTORE PUSH1 0x4 ADD PUSH2 0x17CD SWAP1 PUSH2 0x3FD9 JUMP JUMPDEST PUSH1 0x40 MLOAD DUP1 SWAP2 SUB SWAP1 REVERT JUMPDEST PUSH1 0x2 PUSH1 0x4 DUP2 GT ISZERO PUSH2 0x17E3 JUMPI INVALID JUMPDEST DUP2 PUSH1 0x4 ADD PUSH1 0x0 SWAP1 SLOAD SWAP1 PUSH2 0x100 EXP SWAP1 DIV PUSH1 0xFF AND PUSH1 0x4 DUP2 GT ISZERO PUSH2 0x1800 JUMPI INVALID JUMPDEST EQ PUSH2 0x1840 JUMPI PUSH1 0x40 MLOAD PUSH32 0x8C379A000000000000000000000000000000000000000000000000000000000 DUP2 MSTORE PUSH1 0x4 ADD PUSH2 0x1837 SWAP1 PUSH2 0x3FB9 JUMP JUMPDEST PUSH1 0x40 MLOAD DUP1 SWAP2 SUB SWAP1 REVERT JUMPDEST DUP1 PUSH1 0x1 ADD SLOAD DUP3 EQ PUSH2 0x1886 JUMPI PUSH1 0x40 MLOAD PUSH32 0x8C379A000000000000000000000000000000000000000000000000000000000 DUP2 MSTORE PUSH1 0x4 ADD PUSH2 0x187D SWAP1 PUSH2 0x40D9 JUMP JUMPDEST PUSH1 0x40 MLOAD DUP1 SWAP2 SUB SWAP1 REVERT JUMPDEST PUSH1 0x3 DUP2 PUSH1 0x4 ADD PUSH1 0x0 PUSH2 0x100 EXP DUP2 SLOAD DUP2 PUSH1 0xFF MUL NOT AND SWAP1 DUP4 PUSH1 0x4 DUP2 GT ISZERO PUSH2 0x18A7 JUMPI INVALID JUMPDEST MUL OR SWAP1 SSTORE POP PUSH1 0x0 PUSH1 0x9 PUSH1 0x0 DUP4 PUSH1 0x0 ADD SLOAD DUP2 MSTORE PUSH1 0x20 ADD SWAP1 DUP2 MSTORE PUSH1 0x20 ADD PUSH1 0x0 KECCAK256 PUSH1 0x0 SWAP1 SLOAD SWAP1 PUSH2 0x100 EXP SWAP1 DIV PUSH20 0xFFFFFFFFFFFFFFFFFFFFFFFFFFFFFFFFFFFFFFFF AND SWAP1 POP DUP1 PUSH20 0xFFFFFFFFFFFFFFFFFFFFFFFFFFFFFFFFFFFFFFFF AND PUSH4 0xE248CFF2 DUP4 PUSH1 0x0 ADD SLOAD DUP11 DUP11 PUSH1 0x40 MLOAD DUP5 PUSH4 0xFFFFFFFF AND PUSH1 0xE0 SHL DUP2 MSTORE PUSH1 0x4 ADD PUSH2 0x1929 SWAP4 SWAP3 SWAP2 SWAP1 PUSH2 0x3EE7 JUMP JUMPDEST PUSH1 0x0 PUSH1 0x40 MLOAD DUP1 DUP4 SUB DUP2 PUSH1 0x0 DUP8 DUP1 EXTCODESIZE ISZERO DUP1 ISZERO PUSH2 0x1943 JUMPI PUSH1 0x0 DUP1 REVERT JUMPDEST POP GAS CALL ISZERO DUP1 ISZERO PUSH2 0x1957 JUMPI RETURNDATASIZE PUSH1 0x0 DUP1 RETURNDATACOPY RETURNDATASIZE PUSH1 0x0 REVERT JUMPDEST POP POP POP POP DUP2 PUSH1 0x4 ADD PUSH1 0x0 SWAP1 SLOAD SWAP1 PUSH2 0x100 EXP SWAP1 DIV PUSH1 0xFF AND PUSH1 0x4 DUP2 GT ISZERO PUSH2 0x1978 JUMPI INVALID JUMPDEST DUP10 PUSH8 0xFFFFFFFFFFFFFFFF AND DUP12 PUSH1 0xFF AND PUSH32 0x803C5A12F6BDE629CEA32E63D4B92D1B560816A6FB72E939D3C89E1CAB650417 DUP6 PUSH1 0x0 ADD SLOAD DUP7 PUSH1 0x1 ADD SLOAD PUSH1 0x40 MLOAD PUSH2 0x19C0 SWAP3 SWAP2 SWAP1 PUSH2 0x3E79 JUMP JUMPDEST PUSH1 0x40 MLOAD DUP1 SWAP2 SUB SWAP1 LOG4 POP POP POP POP POP POP POP POP POP POP JUMP JUMPDEST PUSH2 0x19DC PUSH2 0x269D JUMP JUMPDEST PUSH1 0x0 DUP1 SWAP1 POP JUMPDEST DUP5 DUP5 SWAP1 POP DUP2 LT ISZERO PUSH2 0x1A73 JUMPI DUP5 DUP5 DUP3 DUP2 DUP2 LT PUSH2 0x19F9 JUMPI INVALID JUMPDEST SWAP1 POP PUSH1 0x20 MUL ADD PUSH1 0x20 DUP2 ADD SWAP1 PUSH2 0x1A0E SWAP2 SWAP1 PUSH2 0x2E6C JUMP JUMPDEST PUSH20 0xFFFFFFFFFFFFFFFFFFFFFFFFFFFFFFFFFFFFFFFF AND PUSH2 0x8FC DUP5 DUP5 DUP5 DUP2 DUP2 LT PUSH2 0x1A33 JUMPI INVALID JUMPDEST SWAP1 POP PUSH1 0x20 MUL ADD CALLDATALOAD SWAP1 DUP2 ISZERO MUL SWAP1 PUSH1 0x40 MLOAD PUSH1 0x0 PUSH1 0x40 MLOAD DUP1 DUP4 SUB DUP2 DUP6 DUP9 DUP9 CALL SWAP4 POP POP POP POP ISZERO DUP1 ISZERO PUSH2 0x1A65 JUMPI RETURNDATASIZE PUSH1 0x0 DUP1 RETURNDATACOPY RETURNDATASIZE PUSH1 0x0 REVERT JUMPDEST POP DUP1 DUP1 PUSH1 0x1 ADD SWAP2 POP POP PUSH2 0x19E2 JUMP JUMPDEST POP POP POP POP POP JUMP JUMPDEST PUSH1 0x8 PUSH1 0x20 MSTORE DUP1 PUSH1 0x0 MSTORE PUSH1 0x40 PUSH1 0x0 KECCAK256 PUSH1 0x0 SWAP2 POP SLOAD SWAP1 PUSH2 0x100 EXP SWAP1 DIV PUSH8 0xFFFFFFFFFFFFFFFF AND DUP2 JUMP JUMPDEST PUSH2 0x1AA9 PUSH2 0x269D JUMP JUMPDEST DUP1 PUSH1 0x3 DUP2 SWAP1 SSTORE POP DUP1 PUSH32 0xA20D6B84CD798A24038BE305EFF8A45CA82EF54A2AA2082005D8E14C0A4746C8 PUSH1 0x40 MLOAD PUSH1 0x40 MLOAD DUP1 SWAP2 SUB SWAP1 LOG2 POP JUMP JUMPDEST PUSH1 0xB PUSH1 0x20 MSTORE DUP2 PUSH1 0x0 MSTORE PUSH1 0x40 PUSH1 0x0 KECCAK256 PUSH1 0x20 MSTORE DUP1 PUSH1 0x0 MSTORE PUSH1 0x40 PUSH1 0x0 KECCAK256 PUSH1 0x0 SWAP2 POP SWAP2 POP POP DUP1 PUSH1 0x0 ADD SLOAD SWAP1 DUP1 PUSH1 0x1 ADD SLOAD SWAP1 DUP1 PUSH1 0x4 ADD PUSH1 0x0 SWAP1 SLOAD SWAP1 PUSH2 0x100 EXP SWAP1 DIV PUSH1 0xFF AND SWAP1 DUP1 PUSH1 0x5 ADD SLOAD SWAP1 POP DUP5 JUMP JUMPDEST PUSH1 0x0 PUSH2 0x1B49 PUSH1 0x40 MLOAD PUSH2 0x1B3B SWAP1 PUSH2 0x3D53 JUMP JUMPDEST PUSH1 0x40 MLOAD DUP1 SWAP2 SUB SWAP1 KECCAK256 DUP4 PUSH2 0x1D9B JUMP JUMPDEST SWAP1 POP SWAP2 SWAP1 POP JUMP JUMPDEST PUSH1 0x0 DUP1 PUSH1 0x0 SWAP1 SLOAD SWAP1 PUSH2 0x100 EXP SWAP1 DIV PUSH1 0xFF AND SWAP1 POP SWAP1 JUMP JUMPDEST PUSH2 0x1B6E PUSH2 0x269D JUMP JUMPDEST PUSH2 0x1B7B PUSH1 0x0 DUP1 SHL DUP3 PUSH2 0x14DF JUMP JUMPDEST PUSH2 0x1B88 PUSH1 0x0 DUP1 SHL CALLER PUSH2 0x1553 JUMP JUMPDEST POP JUMP JUMPDEST PUSH2 0x1B93 PUSH2 0x269D JUMP JUMPDEST PUSH1 0x0 DUP5 SWAP1 POP DUP1 PUSH20 0xFFFFFFFFFFFFFFFFFFFFFFFFFFFFFFFFFFFFFFFF AND PUSH4 0xD9CAED12 DUP6 DUP6 DUP6 PUSH1 0x40 MLOAD DUP5 PUSH4 0xFFFFFFFF AND PUSH1 0xE0 SHL DUP2 MSTORE PUSH1 0x4 ADD PUSH2 0x1BD5 SWAP4 SWAP3 SWAP2 SWAP1 PUSH2 0x3D9E JUMP JUMPDEST PUSH1 0x0 PUSH1 0x40 MLOAD DUP1 DUP4 SUB DUP2 PUSH1 0x0 DUP8 DUP1 EXTCODESIZE ISZERO DUP1 ISZERO PUSH2 0x1BEF JUMPI PUSH1 0x0 DUP1 REVERT JUMPDEST POP GAS CALL ISZERO DUP1 ISZERO PUSH2 0x1C03 JUMPI RETURNDATASIZE PUSH1 0x0 DUP1 RETURNDATACOPY RETURNDATASIZE PUSH1 0x0 REVERT JUMPDEST POP POP POP POP POP POP POP POP POP JUMP JUMPDEST PUSH1 0xC PUSH1 0x20 MSTORE DUP3 PUSH1 0x0 MSTORE PUSH1 0x40 PUSH1 0x0 KECCAK256 PUSH1 0x20 MSTORE DUP2 PUSH1 0x0 MSTORE PUSH1 0x40 PUSH1 0x0 KECCAK256 PUSH1 0x20 MSTORE DUP1 PUSH1 0x0 MSTORE PUSH1 0x40 PUSH1 0x0 KECCAK256 PUSH1 0x0 SWAP3 POP SWAP3 POP POP SWAP1 SLOAD SWAP1 PUSH2 0x100 EXP SWAP1 DIV PUSH1 0xFF AND DUP2 JUMP JUMPDEST PUSH1 0x4 SLOAD DUP2 JUMP JUMPDEST PUSH2 0x1C58 PUSH2 0x269D JUMP JUMPDEST PUSH2 0x1C60 PUSH2 0x26EB JUMP JUMPDEST JUMP JUMPDEST PUSH1 0x9 PUSH1 0x20 MSTORE DUP1 PUSH1 0x0 MSTORE PUSH1 0x40 PUSH1 0x0 KECCAK256 PUSH1 0x0 SWAP2 POP SLOAD SWAP1 PUSH2 0x100 EXP SWAP1 DIV PUSH20 0xFFFFFFFFFFFFFFFFFFFFFFFFFFFFFFFFFFFFFFFF AND DUP2 JUMP JUMPDEST PUSH2 0x1C9D PUSH2 0x269D JUMP JUMPDEST PUSH1 0x0 DUP3 SWAP1 POP DUP1 PUSH20 0xFFFFFFFFFFFFFFFFFFFFFFFFFFFFFFFFFFFFFFFF AND PUSH4 0x7B7ED99 DUP4 PUSH1 0x40 MLOAD DUP3 PUSH4 0xFFFFFFFF AND PUSH1 0xE0 SHL DUP2 MSTORE PUSH1 0x4 ADD PUSH2 0x1CDB SWAP2 SWAP1 PUSH2 0x3D68 JUMP JUMPDEST PUSH1 0x0 PUSH1 0x40 MLOAD DUP1 DUP4 SUB DUP2 PUSH1 0x0 DUP8 DUP1 EXTCODESIZE ISZERO DUP1 ISZERO PUSH2 0x1CF5 JUMPI PUSH1 0x0 DUP1 REVERT JUMPDEST POP GAS CALL ISZERO DUP1 ISZERO PUSH2 0x1D09 JUMPI RETURNDATASIZE PUSH1 0x0 DUP1 RETURNDATACOPY RETURNDATASIZE PUSH1 0x0 REVERT JUMPDEST POP POP POP POP POP POP POP JUMP JUMPDEST PUSH1 0x0 PUSH2 0x1D3C DUP3 PUSH1 0x1 PUSH1 0x0 DUP7 DUP2 MSTORE PUSH1 0x20 ADD SWAP1 DUP2 MSTORE PUSH1 0x20 ADD PUSH1 0x0 KECCAK256 PUSH1 0x0 ADD PUSH2 0x2746 SWAP1 SWAP2 SWAP1 PUSH4 0xFFFFFFFF AND JUMP JUMPDEST SWAP1 POP SWAP3 SWAP2 POP POP JUMP JUMPDEST PUSH2 0x1D4C PUSH2 0x269D JUMP JUMPDEST DUP1 PUSH1 0x6 SLOAD EQ ISZERO PUSH2 0x1D91 JUMPI PUSH1 0x40 MLOAD PUSH32 0x8C379A000000000000000000000000000000000000000000000000000000000 DUP2 MSTORE PUSH1 0x4 ADD PUSH2 0x1D88 SWAP1 PUSH2 0x4219 JUMP JUMPDEST PUSH1 0x40 MLOAD DUP1 SWAP2 SUB SWAP1 REVERT JUMPDEST DUP1 PUSH1 0x6 DUP2 SWAP1 SSTORE POP POP JUMP JUMPDEST PUSH1 0x0 PUSH2 0x1DC5 DUP3 PUSH1 0x1 PUSH1 0x0 DUP7 DUP2 MSTORE PUSH1 0x20 ADD SWAP1 DUP2 MSTORE PUSH1 0x20 ADD PUSH1 0x0 KECCAK256 PUSH1 0x0 ADD PUSH2 0x2760 SWAP1 SWAP2 SWAP1 PUSH4 0xFFFFFFFF AND JUMP JUMPDEST SWAP1 POP SWAP3 SWAP2 POP POP JUMP JUMPDEST PUSH1 0x40 MLOAD PUSH2 0x1DD9 SWAP1 PUSH2 0x3D53 JUMP JUMPDEST PUSH1 0x40 MLOAD DUP1 SWAP2 SUB SWAP1 KECCAK256 DUP2 JUMP JUMPDEST PUSH1 0x5 SLOAD DUP2 JUMP JUMPDEST PUSH2 0x1DF2 PUSH2 0x269D JUMP JUMPDEST PUSH2 0x1E0F PUSH1 0x40 MLOAD PUSH2 0x1E01 SWAP1 PUSH2 0x3D53 JUMP JUMPDEST PUSH1 0x40 MLOAD DUP1 SWAP2 SUB SWAP1 KECCAK256 DUP3 PUSH2 0x1D9B JUMP JUMPDEST PUSH2 0x1E4E JUMPI PUSH1 0x40 MLOAD PUSH32 0x8C379A000000000000000000000000000000000000000000000000000000000 DUP2 MSTORE PUSH1 0x4 ADD PUSH2 0x1E45 SWAP1 PUSH2 0x4099 JUMP JUMPDEST PUSH1 0x40 MLOAD DUP1 SWAP2 SUB SWAP1 REVERT JUMPDEST PUSH2 0x1E6B PUSH1 0x40 MLOAD PUSH2 0x1E5D SWAP1 PUSH2 0x3D53 JUMP JUMPDEST PUSH1 0x40 MLOAD DUP1 SWAP2 SUB SWAP1 KECCAK256 DUP3 PUSH2 0x229E JUMP JUMPDEST DUP1 PUSH20 0xFFFFFFFFFFFFFFFFFFFFFFFFFFFFFFFFFFFFFFFF AND PUSH32 0x10E1F7CE9FD7D1B90A66D13A2AB3CB8DD7F29F3F8D520B143B063CCFBAB6906B PUSH1 0x40 MLOAD PUSH1 0x40 MLOAD DUP1 SWAP2 SUB SWAP1 LOG2 PUSH1 0x4 PUSH1 0x0 DUP2 SLOAD DUP1 SWAP3 SWAP2 SWAP1 PUSH1 0x1 SWAP1 SUB SWAP2 SWAP1 POP SSTORE POP POP JUMP JUMPDEST PUSH1 0x0 DUP1 SHL DUP2 JUMP JUMPDEST PUSH2 0x1ED3 PUSH2 0x2C0E JUMP JUMPDEST PUSH1 0x0 DUP5 PUSH1 0xFF AND PUSH1 0x8 DUP6 PUSH8 0xFFFFFFFFFFFFFFFF AND PUSH9 0xFFFFFFFFFFFFFFFFFF AND SWAP1 SHL OR SWAP1 POP PUSH1 0xB PUSH1 0x0 DUP3 PUSH9 0xFFFFFFFFFFFFFFFFFF AND PUSH9 0xFFFFFFFFFFFFFFFFFF AND DUP2 MSTORE PUSH1 0x20 ADD SWAP1 DUP2 MSTORE PUSH1 0x20 ADD PUSH1 0x0 KECCAK256 PUSH1 0x0 DUP5 DUP2 MSTORE PUSH1 0x20 ADD SWAP1 DUP2 MSTORE PUSH1 0x20 ADD PUSH1 0x0 KECCAK256 PUSH1 0x40 MLOAD DUP1 PUSH1 0xC0 ADD PUSH1 0x40 MSTORE SWAP1 DUP2 PUSH1 0x0 DUP3 ADD SLOAD DUP2 MSTORE PUSH1 0x20 ADD PUSH1 0x1 DUP3 ADD SLOAD DUP2 MSTORE PUSH1 0x20 ADD PUSH1 0x2 DUP3 ADD DUP1 SLOAD DUP1 PUSH1 0x20 MUL PUSH1 0x20 ADD PUSH1 0x40 MLOAD SWAP1 DUP2 ADD PUSH1 0x40 MSTORE DUP1 SWAP3 SWAP2 SWAP1 DUP2 DUP2 MSTORE PUSH1 0x20 ADD DUP3 DUP1 SLOAD DUP1 ISZERO PUSH2 0x1FD4 JUMPI PUSH1 0x20 MUL DUP3 ADD SWAP2 SWAP1 PUSH1 0x0 MSTORE PUSH1 0x20 PUSH1 0x0 KECCAK256 SWAP1 JUMPDEST DUP2 PUSH1 0x0 SWAP1 SLOAD SWAP1 PUSH2 0x100 EXP SWAP1 DIV PUSH20 0xFFFFFFFFFFFFFFFFFFFFFFFFFFFFFFFFFFFFFFFF AND PUSH20 0xFFFFFFFFFFFFFFFFFFFFFFFFFFFFFFFFFFFFFFFF AND DUP2 MSTORE PUSH1 0x20 ADD SWAP1 PUSH1 0x1 ADD SWAP1 DUP1 DUP4 GT PUSH2 0x1F8A JUMPI JUMPDEST POP POP POP POP POP DUP2 MSTORE PUSH1 0x20 ADD PUSH1 0x3 DUP3 ADD DUP1 SLOAD DUP1 PUSH1 0x20 MUL PUSH1 0x20 ADD PUSH1 0x40 MLOAD SWAP1 DUP2 ADD PUSH1 0x40 MSTORE DUP1 SWAP3 SWAP2 SWAP1 DUP2 DUP2 MSTORE PUSH1 0x20 ADD DUP3 DUP1 SLOAD DUP1 ISZERO PUSH2 0x2062 JUMPI PUSH1 0x20 MUL DUP3 ADD SWAP2 SWAP1 PUSH1 0x0 MSTORE PUSH1 0x20 PUSH1 0x0 KECCAK256 SWAP1 JUMPDEST DUP2 PUSH1 0x0 SWAP1 SLOAD SWAP1 PUSH2 0x100 EXP SWAP1 DIV PUSH20 0xFFFFFFFFFFFFFFFFFFFFFFFFFFFFFFFFFFFFFFFF AND PUSH20 0xFFFFFFFFFFFFFFFFFFFFFFFFFFFFFFFFFFFFFFFF AND DUP2 MSTORE PUSH1 0x20 ADD SWAP1 PUSH1 0x1 ADD SWAP1 DUP1 DUP4 GT PUSH2 0x2018 JUMPI JUMPDEST POP POP POP POP POP DUP2 MSTORE PUSH1 0x20 ADD PUSH1 0x4 DUP3 ADD PUSH1 0x0 SWAP1 SLOAD SWAP1 PUSH2 0x100 EXP SWAP1 DIV PUSH1 0xFF AND PUSH1 0x4 DUP2 GT ISZERO PUSH2 0x2089 JUMPI INVALID JUMPDEST PUSH1 0x4 DUP2 GT ISZERO PUSH2 0x2094 JUMPI INVALID JUMPDEST DUP2 MSTORE PUSH1 0x20 ADD PUSH1 0x5 DUP3 ADD SLOAD DUP2 MSTORE POP POP SWAP2 POP POP SWAP4 SWAP3 POP POP POP JUMP JUMPDEST PUSH1 0x2 PUSH1 0x0 SWAP1 SLOAD SWAP1 PUSH2 0x100 EXP SWAP1 DIV PUSH1 0xFF AND DUP2 JUMP JUMPDEST PUSH1 0x6 SLOAD DUP2 JUMP JUMPDEST PUSH1 0x7 SLOAD DUP2 JUMP JUMPDEST PUSH1 0x0 PUSH2 0x20EB PUSH1 0x1 PUSH1 0x0 DUP5 DUP2 MSTORE PUSH1 0x20 ADD SWAP1 DUP2 MSTORE PUSH1 0x20 ADD PUSH1 0x0 KECCAK256 PUSH1 0x0 ADD PUSH2 0x2790 JUMP JUMPDEST SWAP1 POP SWAP2 SWAP1 POP JUMP JUMPDEST PUSH2 0x20FA PUSH2 0x269D JUMP JUMPDEST DUP3 PUSH1 0x9 PUSH1 0x0 DUP5 DUP2 MSTORE PUSH1 0x20 ADD SWAP1 DUP2 MSTORE PUSH1 0x20 ADD PUSH1 0x0 KECCAK256 PUSH1 0x0 PUSH2 0x100 EXP DUP2 SLOAD DUP2 PUSH20 0xFFFFFFFFFFFFFFFFFFFFFFFFFFFFFFFFFFFFFFFF MUL NOT AND SWAP1 DUP4 PUSH20 0xFFFFFFFFFFFFFFFFFFFFFFFFFFFFFFFFFFFFFFFF AND MUL OR SWAP1 SSTORE POP PUSH1 0x0 DUP4 SWAP1 POP DUP1 PUSH20 0xFFFFFFFFFFFFFFFFFFFFFFFFFFFFFFFFFFFFFFFF AND PUSH4 0xB8FA3736 DUP5 DUP5 PUSH1 0x40 MLOAD DUP4 PUSH4 0xFFFFFFFF AND PUSH1 0xE0 SHL DUP2 MSTORE PUSH1 0x4 ADD PUSH2 0x218C SWAP3 SWAP2 SWAP1 PUSH2 0x3E0B JUMP JUMPDEST PUSH1 0x0 PUSH1 0x40 MLOAD DUP1 DUP4 SUB DUP2 PUSH1 0x0 DUP8 DUP1 EXTCODESIZE ISZERO DUP1 ISZERO PUSH2 0x21A6 JUMPI PUSH1 0x0 DUP1 REVERT JUMPDEST POP GAS CALL ISZERO DUP1 ISZERO PUSH2 0x21BA JUMPI RETURNDATASIZE PUSH1 0x0 DUP1 RETURNDATACOPY RETURNDATASIZE PUSH1 0x0 REVERT JUMPDEST POP POP POP POP POP POP POP POP JUMP JUMPDEST PUSH2 0x21CC PUSH2 0x269D JUMP JUMPDEST PUSH2 0x21E9 PUSH1 0x40 MLOAD PUSH2 0x21DB SWAP1 PUSH2 0x3D53 JUMP JUMPDEST PUSH1 0x40 MLOAD DUP1 SWAP2 SUB SWAP1 KECCAK256 DUP3 PUSH2 0x1D9B JUMP JUMPDEST ISZERO PUSH2 0x2229 JUMPI PUSH1 0x40 MLOAD PUSH32 0x8C379A000000000000000000000000000000000000000000000000000000000 DUP2 MSTORE PUSH1 0x4 ADD PUSH2 0x2220 SWAP1 PUSH2 0x4199 JUMP JUMPDEST PUSH1 0x40 MLOAD DUP1 SWAP2 SUB SWAP1 REVERT JUMPDEST PUSH2 0x2246 PUSH1 0x40 MLOAD PUSH2 0x2238 SWAP1 PUSH2 0x3D53 JUMP JUMPDEST PUSH1 0x40 MLOAD DUP1 SWAP2 SUB SWAP1 KECCAK256 DUP3 PUSH2 0x14DF JUMP JUMPDEST DUP1 PUSH20 0xFFFFFFFFFFFFFFFFFFFFFFFFFFFFFFFFFFFFFFFF AND PUSH32 0x3580EE9F53A62B7CB409A2CB56F9BE87747DD15017AFC5CEF6EEF321E4FB2C5 PUSH1 0x40 MLOAD PUSH1 0x40 MLOAD DUP1 SWAP2 SUB SWAP1 LOG2 PUSH1 0x4 PUSH1 0x0 DUP2 SLOAD DUP1 SWAP3 SWAP2 SWAP1 PUSH1 0x1 ADD SWAP2 SWAP1 POP SSTORE POP POP JUMP JUMPDEST PUSH2 0x22C5 PUSH1 0x1 PUSH1 0x0 DUP5 DUP2 MSTORE PUSH1 0x20 ADD SWAP1 DUP2 MSTORE PUSH1 0x20 ADD PUSH1 0x0 KECCAK256 PUSH1 0x2 ADD SLOAD PUSH2 0x22C0 PUSH2 0x256D JUMP JUMPDEST PUSH2 0x1D9B JUMP JUMPDEST PUSH2 0x2304 JUMPI PUSH1 0x40 MLOAD PUSH32 0x8C379A000000000000000000000000000000000000000000000000000000000 DUP2 MSTORE PUSH1 0x4 ADD PUSH2 0x22FB SWAP1 PUSH2 0x4139 JUMP JUMPDEST PUSH1 0x40 MLOAD DUP1 SWAP2 SUB SWAP1 REVERT JUMPDEST PUSH2 0x230E DUP3 DUP3 PUSH2 0x2609 JUMP JUMPDEST POP POP JUMP JUMPDEST PUSH1 0x3 SLOAD DUP2 JUMP JUMPDEST PUSH2 0x2320 PUSH2 0x269D JUMP JUMPDEST DUP5 PUSH1 0x9 PUSH1 0x0 DUP7 DUP2 MSTORE PUSH1 0x20 ADD SWAP1 DUP2 MSTORE PUSH1 0x20 ADD PUSH1 0x0 KECCAK256 PUSH1 0x0 PUSH2 0x100 EXP DUP2 SLOAD DUP2 PUSH20 0xFFFFFFFFFFFFFFFFFFFFFFFFFFFFFFFFFFFFFFFF MUL NOT AND SWAP1 DUP4 PUSH20 0xFFFFFFFFFFFFFFFFFFFFFFFFFFFFFFFFFFFFFFFF AND MUL OR SWAP1 SSTORE POP PUSH1 0x0 DUP6 SWAP1 POP DUP1 PUSH20 0xFFFFFFFFFFFFFFFFFFFFFFFFFFFFFFFFFFFFFFFF AND PUSH4 0xBBA8185A DUP7 DUP7 DUP7 DUP7 PUSH1 0x40 MLOAD DUP6 PUSH4 0xFFFFFFFF AND PUSH1 0xE0 SHL DUP2 MSTORE PUSH1 0x4 ADD PUSH2 0x23B6 SWAP5 SWAP4 SWAP3 SWAP2 SWAP1 PUSH2 0x3E34 JUMP JUMPDEST PUSH1 0x0 PUSH1 0x40 MLOAD DUP1 DUP4 SUB DUP2 PUSH1 0x0 DUP8 DUP1 EXTCODESIZE ISZERO DUP1 ISZERO PUSH2 0x23D0 JUMPI PUSH1 0x0 DUP1 REVERT JUMPDEST POP GAS CALL ISZERO DUP1 ISZERO PUSH2 0x23E4 JUMPI RETURNDATASIZE PUSH1 0x0 DUP1 RETURNDATACOPY RETURNDATASIZE PUSH1 0x0 REVERT JUMPDEST POP POP POP POP POP POP POP POP POP POP JUMP JUMPDEST PUSH2 0x23F8 PUSH2 0x269D JUMP JUMPDEST PUSH2 0x2400 PUSH2 0x27A5 JUMP JUMPDEST JUMP JUMPDEST PUSH1 0x0 DUP1 SWAP1 SLOAD SWAP1 PUSH2 0x100 EXP SWAP1 DIV PUSH1 0xFF AND ISZERO PUSH2 0x2451 JUMPI PUSH1 0x40 MLOAD PUSH32 0x8C379A000000000000000000000000000000000000000000000000000000000 DUP2 MSTORE PUSH1 0x4 ADD PUSH2 0x2448 SWAP1 PUSH2 0x4179 JUMP JUMPDEST PUSH1 0x40 MLOAD DUP1 SWAP2 SUB SWAP1 REVERT JUMPDEST JUMP JUMPDEST PUSH2 0x2460 PUSH1 0x0 DUP1 SHL CALLER PUSH2 0x1D9B JUMP JUMPDEST DUP1 PUSH2 0x2484 JUMPI POP PUSH2 0x2483 PUSH1 0x40 MLOAD PUSH2 0x2475 SWAP1 PUSH2 0x3D53 JUMP JUMPDEST PUSH1 0x40 MLOAD DUP1 SWAP2 SUB SWAP1 KECCAK256 CALLER PUSH2 0x1D9B JUMP JUMPDEST JUMPDEST PUSH2 0x24C3 JUMPI PUSH1 0x40 MLOAD PUSH32 0x8C379A000000000000000000000000000000000000000000000000000000000 DUP2 MSTORE PUSH1 0x4 ADD PUSH2 0x24BA SWAP1 PUSH2 0x4019 JUMP JUMPDEST PUSH1 0x40 MLOAD DUP1 SWAP2 SUB SWAP1 REVERT JUMPDEST JUMP JUMPDEST PUSH1 0x0 PUSH2 0x2507 DUP4 DUP4 PUSH1 0x40 MLOAD DUP1 PUSH1 0x40 ADD PUSH1 0x40 MSTORE DUP1 PUSH1 0x1E DUP2 MSTORE PUSH1 0x20 ADD PUSH32 0x536166654D6174683A207375627472616374696F6E206F766572666C6F770000 DUP2 MSTORE POP PUSH2 0x2800 JUMP JUMPDEST SWAP1 POP SWAP3 SWAP2 POP POP JUMP JUMPDEST PUSH2 0x252C PUSH1 0x40 MLOAD PUSH2 0x251E SWAP1 PUSH2 0x3D53 JUMP JUMPDEST PUSH1 0x40 MLOAD DUP1 SWAP2 SUB SWAP1 KECCAK256 CALLER PUSH2 0x1D9B JUMP JUMPDEST PUSH2 0x256B JUMPI PUSH1 0x40 MLOAD PUSH32 0x8C379A000000000000000000000000000000000000000000000000000000000 DUP2 MSTORE PUSH1 0x4 ADD PUSH2 0x2562 SWAP1 PUSH2 0x41D9 JUMP JUMPDEST PUSH1 0x40 MLOAD DUP1 SWAP2 SUB SWAP1 REVERT JUMPDEST JUMP JUMPDEST PUSH1 0x0 CALLER SWAP1 POP SWAP1 JUMP JUMPDEST PUSH2 0x259D DUP2 PUSH1 0x1 PUSH1 0x0 DUP6 DUP2 MSTORE PUSH1 0x20 ADD SWAP1 DUP2 MSTORE PUSH1 0x20 ADD PUSH1 0x0 KECCAK256 PUSH1 0x0 ADD PUSH2 0x285B SWAP1 SWAP2 SWAP1 PUSH4 0xFFFFFFFF AND JUMP JUMPDEST ISZERO PUSH2 0x2605 JUMPI PUSH2 0x25AA PUSH2 0x256D JUMP JUMPDEST PUSH20 0xFFFFFFFFFFFFFFFFFFFFFFFFFFFFFFFFFFFFFFFF AND DUP2 PUSH20 0xFFFFFFFFFFFFFFFFFFFFFFFFFFFFFFFFFFFFFFFF AND DUP4 PUSH32 0x2F8788117E7EFF1D82E926EC794901D17C78024A50270940304540A733656F0D PUSH1 0x40 MLOAD PUSH1 0x40 MLOAD DUP1 SWAP2 SUB SWAP1 LOG4 JUMPDEST POP POP JUMP JUMPDEST PUSH2 0x2631 DUP2 PUSH1 0x1 PUSH1 0x0 DUP6 DUP2 MSTORE PUSH1 0x20 ADD SWAP1 DUP2 MSTORE PUSH1 0x20 ADD PUSH1 0x0 KECCAK256 PUSH1 0x0 ADD PUSH2 0x288B SWAP1 SWAP2 SWAP1 PUSH4 0xFFFFFFFF AND JUMP JUMPDEST ISZERO PUSH2 0x2699 JUMPI PUSH2 0x263E PUSH2 0x256D JUMP JUMPDEST PUSH20 0xFFFFFFFFFFFFFFFFFFFFFFFFFFFFFFFFFFFFFFFF AND DUP2 PUSH20 0xFFFFFFFFFFFFFFFFFFFFFFFFFFFFFFFFFFFFFFFF AND DUP4 PUSH32 0xF6391F5C32D9C69D2A47EA670B442974B53935D1EDC7FD64EB21E047A839171B PUSH1 0x40 MLOAD PUSH1 0x40 MLOAD DUP1 SWAP2 SUB SWAP1 LOG4 JUMPDEST POP POP JUMP JUMPDEST PUSH2 0x26AA PUSH1 0x0 DUP1 SHL CALLER PUSH2 0x1D9B JUMP JUMPDEST PUSH2 0x26E9 JUMPI PUSH1 0x40 MLOAD PUSH32 0x8C379A000000000000000000000000000000000000000000000000000000000 DUP2 MSTORE PUSH1 0x4 ADD PUSH2 0x26E0 SWAP1 PUSH2 0x41F9 JUMP JUMPDEST PUSH1 0x40 MLOAD DUP1 SWAP2 SUB SWAP1 REVERT JUMPDEST JUMP JUMPDEST PUSH2 0x26F3 PUSH2 0x2402 JUMP JUMPDEST PUSH1 0x1 PUSH1 0x0 DUP1 PUSH2 0x100 EXP DUP2 SLOAD DUP2 PUSH1 0xFF MUL NOT AND SWAP1 DUP4 ISZERO ISZERO MUL OR SWAP1 SSTORE POP PUSH32 0x62E78CEA01BEE320CD4E420270B5EA74000D11B0C9F74754EBDBFC544B05A258 CALLER PUSH1 0x40 MLOAD PUSH2 0x273C SWAP2 SWAP1 PUSH2 0x3D83 JUMP JUMPDEST PUSH1 0x40 MLOAD DUP1 SWAP2 SUB SWAP1 LOG1 JUMP JUMPDEST PUSH1 0x0 PUSH2 0x2755 DUP4 PUSH1 0x0 ADD DUP4 PUSH2 0x28BB JUMP JUMPDEST PUSH1 0x0 SHR SWAP1 POP SWAP3 SWAP2 POP POP JUMP JUMPDEST PUSH1 0x0 PUSH2 0x2788 DUP4 PUSH1 0x0 ADD DUP4 PUSH20 0xFFFFFFFFFFFFFFFFFFFFFFFFFFFFFFFFFFFFFFFF AND PUSH1 0x0 SHL PUSH2 0x2928 JUMP JUMPDEST SWAP1 POP SWAP3 SWAP2 POP POP JUMP JUMPDEST PUSH1 0x0 PUSH2 0x279E DUP3 PUSH1 0x0 ADD PUSH2 0x294B JUMP JUMPDEST SWAP1 POP SWAP2 SWAP1 POP JUMP JUMPDEST PUSH2 0x27AD PUSH2 0x295C JUMP JUMPDEST PUSH1 0x0 DUP1 PUSH1 0x0 PUSH2 0x100 EXP DUP2 SLOAD DUP2 PUSH1 0xFF MUL NOT AND SWAP1 DUP4 ISZERO ISZERO MUL OR SWAP1 SSTORE POP PUSH32 0x5DB9EE0A495BF2E6FF9C91A7834C1BA4FDD244A5E8AA4E537BD38AEAE4B073AA CALLER PUSH1 0x40 MLOAD PUSH2 0x27F6 SWAP2 SWAP1 PUSH2 0x3D83 JUMP JUMPDEST PUSH1 0x40 MLOAD DUP1 SWAP2 SUB SWAP1 LOG1 JUMP JUMPDEST PUSH1 0x0 DUP4 DUP4 GT ISZERO DUP3 SWAP1 PUSH2 0x2848 JUMPI PUSH1 0x40 MLOAD PUSH32 0x8C379A000000000000000000000000000000000000000000000000000000000 DUP2 MSTORE PUSH1 0x4 ADD PUSH2 0x283F SWAP2 SWAP1 PUSH2 0x3F97 JUMP JUMPDEST PUSH1 0x40 MLOAD DUP1 SWAP2 SUB SWAP1 REVERT JUMPDEST POP PUSH1 0x0 DUP4 DUP6 SUB SWAP1 POP DUP1 SWAP2 POP POP SWAP4 SWAP3 POP POP POP JUMP JUMPDEST PUSH1 0x0 PUSH2 0x2883 DUP4 PUSH1 0x0 ADD DUP4 PUSH20 0xFFFFFFFFFFFFFFFFFFFFFFFFFFFFFFFFFFFFFFFF AND PUSH1 0x0 SHL PUSH2 0x29AC JUMP JUMPDEST SWAP1 POP SWAP3 SWAP2 POP POP JUMP JUMPDEST PUSH1 0x0 PUSH2 0x28B3 DUP4 PUSH1 0x0 ADD DUP4 PUSH20 0xFFFFFFFFFFFFFFFFFFFFFFFFFFFFFFFFFFFFFFFF AND PUSH1 0x0 SHL PUSH2 0x2A1C JUMP JUMPDEST SWAP1 POP SWAP3 SWAP2 POP POP JUMP JUMPDEST PUSH1 0x0 DUP2 DUP4 PUSH1 0x0 ADD DUP1 SLOAD SWAP1 POP GT PUSH2 0x2906 JUMPI PUSH1 0x40 MLOAD PUSH32 0x8C379A000000000000000000000000000000000000000000000000000000000 DUP2 MSTORE PUSH1 0x4 ADD PUSH2 0x28FD SWAP1 PUSH2 0x3FF9 JUMP JUMPDEST PUSH1 0x40 MLOAD DUP1 SWAP2 SUB SWAP1 REVERT JUMPDEST DUP3 PUSH1 0x0 ADD DUP3 DUP2 SLOAD DUP2 LT PUSH2 0x2915 JUMPI INVALID JUMPDEST SWAP1 PUSH1 0x0 MSTORE PUSH1 0x20 PUSH1 0x0 KECCAK256 ADD SLOAD SWAP1 POP SWAP3 SWAP2 POP POP JUMP JUMPDEST PUSH1 0x0 DUP1 DUP4 PUSH1 0x1 ADD PUSH1 0x0 DUP5 DUP2 MSTORE PUSH1 0x20 ADD SWAP1 DUP2 MSTORE PUSH1 0x20 ADD PUSH1 0x0 KECCAK256 SLOAD EQ ISZERO SWAP1 POP SWAP3 SWAP2 POP POP JUMP JUMPDEST PUSH1 0x0 DUP2 PUSH1 0x0 ADD DUP1 SLOAD SWAP1 POP SWAP1 POP SWAP2 SWAP1 POP JUMP JUMPDEST PUSH1 0x0 DUP1 SWAP1 SLOAD SWAP1 PUSH2 0x100 EXP SWAP1 DIV PUSH1 0xFF AND PUSH2 0x29AA JUMPI PUSH1 0x40 MLOAD PUSH32 0x8C379A000000000000000000000000000000000000000000000000000000000 DUP2 MSTORE PUSH1 0x4 ADD PUSH2 0x29A1 SWAP1 PUSH2 0x4079 JUMP JUMPDEST PUSH1 0x40 MLOAD DUP1 SWAP2 SUB SWAP1 REVERT JUMPDEST JUMP JUMPDEST PUSH1 0x0 PUSH2 0x29B8 DUP4 DUP4 PUSH2 0x2928 JUMP JUMPDEST PUSH2 0x2A11 JUMPI DUP3 PUSH1 0x0 ADD DUP3 SWAP1 DUP1 PUSH1 0x1 DUP2 SLOAD ADD DUP1 DUP3 SSTORE DUP1 SWAP2 POP POP PUSH1 0x1 SWAP1 SUB SWAP1 PUSH1 0x0 MSTORE PUSH1 0x20 PUSH1 0x0 KECCAK256 ADD PUSH1 0x0 SWAP1 SWAP2 SWAP1 SWAP2 SWAP1 SWAP2 POP SSTORE DUP3 PUSH1 0x0 ADD DUP1 SLOAD SWAP1 POP DUP4 PUSH1 0x1 ADD PUSH1 0x0 DUP5 DUP2 MSTORE PUSH1 0x20 ADD SWAP1 DUP2 MSTORE PUSH1 0x20 ADD PUSH1 0x0 KECCAK256 DUP2 SWAP1 SSTORE POP PUSH1 0x1 SWAP1 POP PUSH2 0x2A16 JUMP JUMPDEST PUSH1 0x0 SWAP1 POP JUMPDEST SWAP3 SWAP2 POP POP JUMP JUMPDEST PUSH1 0x0 DUP1 DUP4 PUSH1 0x1 ADD PUSH1 0x0 DUP5 DUP2 MSTORE PUSH1 0x20 ADD SWAP1 DUP2 MSTORE PUSH1 0x20 ADD PUSH1 0x0 KECCAK256 SLOAD SWAP1 POP PUSH1 0x0 DUP2 EQ PUSH2 0x2AF8 JUMPI PUSH1 0x0 PUSH1 0x1 DUP3 SUB SWAP1 POP PUSH1 0x0 PUSH1 0x1 DUP7 PUSH1 0x0 ADD DUP1 SLOAD SWAP1 POP SUB SWAP1 POP PUSH1 0x0 DUP7 PUSH1 0x0 ADD DUP3 DUP2 SLOAD DUP2 LT PUSH2 0x2A67 JUMPI INVALID JUMPDEST SWAP1 PUSH1 0x0 MSTORE PUSH1 0x20 PUSH1 0x0 KECCAK256 ADD SLOAD SWAP1 POP DUP1 DUP8 PUSH1 0x0 ADD DUP5 DUP2 SLOAD DUP2 LT PUSH2 0x2A84 JUMPI INVALID JUMPDEST SWAP1 PUSH1 0x0 MSTORE PUSH1 0x20 PUSH1 0x0 KECCAK256 ADD DUP2 SWAP1 SSTORE POP PUSH1 0x1 DUP4 ADD DUP8 PUSH1 0x1 ADD PUSH1 0x0 DUP4 DUP2 MSTORE PUSH1 0x20 ADD SWAP1 DUP2 MSTORE PUSH1 0x20 ADD PUSH1 0x0 KECCAK256 DUP2 SWAP1 SSTORE POP DUP7 PUSH1 0x0 ADD DUP1 SLOAD DUP1 PUSH2 0x2ABC JUMPI INVALID JUMPDEST PUSH1 0x1 SWAP1 SUB DUP2 DUP2 SWAP1 PUSH1 0x0 MSTORE PUSH1 0x20 PUSH1 0x0 KECCAK256 ADD PUSH1 0x0 SWAP1 SSTORE SWAP1 SSTORE DUP7 PUSH1 0x1 ADD PUSH1 0x0 DUP8 DUP2 MSTORE PUSH1 0x20 ADD SWAP1 DUP2 MSTORE PUSH1 0x20 ADD PUSH1 0x0 KECCAK256 PUSH1 0x0 SWAP1 SSTORE PUSH1 0x1 SWAP5 POP POP POP POP POP PUSH2 0x2AFE JUMP JUMPDEST PUSH1 0x0 SWAP2 POP POP JUMPDEST SWAP3 SWAP2 POP POP JUMP JUMPDEST DUP3 DUP1 SLOAD PUSH1 0x1 DUP2 PUSH1 0x1 AND ISZERO PUSH2 0x100 MUL SUB AND PUSH1 0x2 SWAP1 DIV SWAP1 PUSH1 0x0 MSTORE PUSH1 0x20 PUSH1 0x0 KECCAK256 SWAP1 PUSH1 0x1F ADD PUSH1 0x20 SWAP1 DIV DUP2 ADD SWAP3 DUP3 PUSH1 0x1F LT PUSH2 0x2B45 JUMPI DUP1 CALLDATALOAD PUSH1 0xFF NOT AND DUP4 DUP1 ADD OR DUP6 SSTORE PUSH2 0x2B73 JUMP JUMPDEST DUP3 DUP1 ADD PUSH1 0x1 ADD DUP6 SSTORE DUP3 ISZERO PUSH2 0x2B73 JUMPI SWAP2 DUP3 ADD JUMPDEST DUP3 DUP2 GT ISZERO PUSH2 0x2B72 JUMPI DUP3 CALLDATALOAD DUP3 SSTORE SWAP2 PUSH1 0x20 ADD SWAP2 SWAP1 PUSH1 0x1 ADD SWAP1 PUSH2 0x2B57 JUMP JUMPDEST JUMPDEST POP SWAP1 POP PUSH2 0x2B80 SWAP2 SWAP1 PUSH2 0x2C55 JUMP JUMPDEST POP SWAP1 JUMP JUMPDEST DUP3 DUP1 SLOAD DUP3 DUP3 SSTORE SWAP1 PUSH1 0x0 MSTORE PUSH1 0x20 PUSH1 0x0 KECCAK256 SWAP1 DUP2 ADD SWAP3 DUP3 ISZERO PUSH2 0x2BFD JUMPI SWAP2 PUSH1 0x20 MUL DUP3 ADD JUMPDEST DUP3 DUP2 GT ISZERO PUSH2 0x2BFC JUMPI DUP3 MLOAD DUP3 PUSH1 0x0 PUSH2 0x100 EXP DUP2 SLOAD DUP2 PUSH20 0xFFFFFFFFFFFFFFFFFFFFFFFFFFFFFFFFFFFFFFFF MUL NOT AND SWAP1 DUP4 PUSH20 0xFFFFFFFFFFFFFFFFFFFFFFFFFFFFFFFFFFFFFFFF AND MUL OR SWAP1 SSTORE POP SWAP2 PUSH1 0x20 ADD SWAP2 SWAP1 PUSH1 0x1 ADD SWAP1 PUSH2 0x2BA4 JUMP JUMPDEST JUMPDEST POP SWAP1 POP PUSH2 0x2C0A SWAP2 SWAP1 PUSH2 0x2C7A JUMP JUMPDEST POP SWAP1 JUMP JUMPDEST PUSH1 0x40 MLOAD DUP1 PUSH1 0xC0 ADD PUSH1 0x40 MSTORE DUP1 PUSH1 0x0 DUP1 NOT AND DUP2 MSTORE PUSH1 0x20 ADD PUSH1 0x0 DUP1 NOT AND DUP2 MSTORE PUSH1 0x20 ADD PUSH1 0x60 DUP2 MSTORE PUSH1 0x20 ADD PUSH1 0x60 DUP2 MSTORE PUSH1 0x20 ADD PUSH1 0x0 PUSH1 0x4 DUP2 GT ISZERO PUSH2 0x2C48 JUMPI INVALID JUMPDEST DUP2 MSTORE PUSH1 0x20 ADD PUSH1 0x0 DUP2 MSTORE POP SWAP1 JUMP JUMPDEST PUSH2 0x2C77 SWAP2 SWAP1 JUMPDEST DUP1 DUP3 GT ISZERO PUSH2 0x2C73 JUMPI PUSH1 0x0 DUP2 PUSH1 0x0 SWAP1 SSTORE POP PUSH1 0x1 ADD PUSH2 0x2C5B JUMP JUMPDEST POP SWAP1 JUMP JUMPDEST SWAP1 JUMP JUMPDEST PUSH2 0x2CBA SWAP2 SWAP1 JUMPDEST DUP1 DUP3 GT ISZERO PUSH2 0x2CB6 JUMPI PUSH1 0x0 DUP2 DUP2 PUSH2 0x100 EXP DUP2 SLOAD SWAP1 PUSH20 0xFFFFFFFFFFFFFFFFFFFFFFFFFFFFFFFFFFFFFFFF MUL NOT AND SWAP1 SSTORE POP PUSH1 0x1 ADD PUSH2 0x2C80 JUMP JUMPDEST POP SWAP1 JUMP JUMPDEST SWAP1 JUMP JUMPDEST PUSH1 0x0 DUP2 CALLDATALOAD SWAP1 POP PUSH2 0x2CCC DUP2 PUSH2 0x4545 JUMP JUMPDEST SWAP3 SWAP2 POP POP JUMP JUMPDEST PUSH1 0x0 DUP2 CALLDATALOAD SWAP1 POP PUSH2 0x2CE1 DUP2 PUSH2 0x455C JUMP JUMPDEST SWAP3 SWAP2 POP POP JUMP JUMPDEST PUSH1 0x0 DUP1 DUP4 PUSH1 0x1F DUP5 ADD SLT PUSH2 0x2CF9 JUMPI PUSH1 0x0 DUP1 REVERT JUMPDEST DUP3 CALLDATALOAD SWAP1 POP PUSH8 0xFFFFFFFFFFFFFFFF DUP2 GT ISZERO PUSH2 0x2D12 JUMPI PUSH1 0x0 DUP1 REVERT JUMPDEST PUSH1 0x20 DUP4 ADD SWAP2 POP DUP4 PUSH1 0x20 DUP3 MUL DUP4 ADD GT ISZERO PUSH2 0x2D2A JUMPI PUSH1 0x0 DUP1 REVERT JUMPDEST SWAP3 POP SWAP3 SWAP1 POP JUMP JUMPDEST PUSH1 0x0 DUP1 DUP4 PUSH1 0x1F DUP5 ADD SLT PUSH2 0x2D43 JUMPI PUSH1 0x0 DUP1 REVERT JUMPDEST DUP3 CALLDATALOAD SWAP1 POP PUSH8 0xFFFFFFFFFFFFFFFF DUP2 GT ISZERO PUSH2 0x2D5C JUMPI PUSH1 0x0 DUP1 REVERT JUMPDEST PUSH1 0x20 DUP4 ADD SWAP2 POP DUP4 PUSH1 0x20 DUP3 MUL DUP4 ADD GT ISZERO PUSH2 0x2D74 JUMPI PUSH1 0x0 DUP1 REVERT JUMPDEST SWAP3 POP SWAP3 SWAP1 POP JUMP JUMPDEST PUSH1 0x0 DUP2 CALLDATALOAD SWAP1 POP PUSH2 0x2D8A DUP2 PUSH2 0x4573 JUMP JUMPDEST SWAP3 SWAP2 POP POP JUMP JUMPDEST PUSH1 0x0 DUP2 CALLDATALOAD SWAP1 POP PUSH2 0x2D9F DUP2 PUSH2 0x458A JUMP JUMPDEST SWAP3 SWAP2 POP POP JUMP JUMPDEST PUSH1 0x0 DUP1 DUP4 PUSH1 0x1F DUP5 ADD SLT PUSH2 0x2DB7 JUMPI PUSH1 0x0 DUP1 REVERT JUMPDEST DUP3 CALLDATALOAD SWAP1 POP PUSH8 0xFFFFFFFFFFFFFFFF DUP2 GT ISZERO PUSH2 0x2DD0 JUMPI PUSH1 0x0 DUP1 REVERT JUMPDEST PUSH1 0x20 DUP4 ADD SWAP2 POP DUP4 PUSH1 0x1 DUP3 MUL DUP4 ADD GT ISZERO PUSH2 0x2DE8 JUMPI PUSH1 0x0 DUP1 REVERT JUMPDEST SWAP3 POP SWAP3 SWAP1 POP JUMP JUMPDEST PUSH1 0x0 DUP2 CALLDATALOAD SWAP1 POP PUSH2 0x2DFE DUP2 PUSH2 0x45A1 JUMP JUMPDEST SWAP3 SWAP2 POP POP JUMP JUMPDEST PUSH1 0x0 DUP2 CALLDATALOAD SWAP1 POP PUSH2 0x2E13 DUP2 PUSH2 0x45B8 JUMP JUMPDEST SWAP3 SWAP2 POP POP JUMP JUMPDEST PUSH1 0x0 DUP2 CALLDATALOAD SWAP1 POP PUSH2 0x2E28 DUP2 PUSH2 0x45CF JUMP JUMPDEST SWAP3 SWAP2 POP POP JUMP JUMPDEST PUSH1 0x0 DUP2 CALLDATALOAD SWAP1 POP PUSH2 0x2E3D DUP2 PUSH2 0x45E6 JUMP JUMPDEST SWAP3 SWAP2 POP POP JUMP JUMPDEST PUSH1 0x0 PUSH1 0x20 DUP3 DUP5 SUB SLT ISZERO PUSH2 0x2E55 JUMPI PUSH1 0x0 DUP1 REVERT JUMPDEST PUSH1 0x0 PUSH2 0x2E63 DUP5 DUP3 DUP6 ADD PUSH2 0x2CBD JUMP JUMPDEST SWAP2 POP POP SWAP3 SWAP2 POP POP JUMP JUMPDEST PUSH1 0x0 PUSH1 0x20 DUP3 DUP5 SUB SLT ISZERO PUSH2 0x2E7E JUMPI PUSH1 0x0 DUP1 REVERT JUMPDEST PUSH1 0x0 PUSH2 0x2E8C DUP5 DUP3 DUP6 ADD PUSH2 0x2CD2 JUMP JUMPDEST SWAP2 POP POP SWAP3 SWAP2 POP POP JUMP JUMPDEST PUSH1 0x0 DUP1 PUSH1 0x40 DUP4 DUP6 SUB SLT ISZERO PUSH2 0x2EA8 JUMPI PUSH1 0x0 DUP1 REVERT JUMPDEST PUSH1 0x0 PUSH2 0x2EB6 DUP6 DUP3 DUP7 ADD PUSH2 0x2CBD JUMP JUMPDEST SWAP3 POP POP PUSH1 0x20 PUSH2 0x2EC7 DUP6 DUP3 DUP7 ADD PUSH2 0x2CBD JUMP JUMPDEST SWAP2 POP POP SWAP3 POP SWAP3 SWAP1 POP JUMP JUMPDEST PUSH1 0x0 DUP1 PUSH1 0x0 DUP1 PUSH1 0x80 DUP6 DUP8 SUB SLT ISZERO PUSH2 0x2EE7 JUMPI PUSH1 0x0 DUP1 REVERT JUMPDEST PUSH1 0x0 PUSH2 0x2EF5 DUP8 DUP3 DUP9 ADD PUSH2 0x2CBD JUMP JUMPDEST SWAP5 POP POP PUSH1 0x20 PUSH2 0x2F06 DUP8 DUP3 DUP9 ADD PUSH2 0x2CBD JUMP JUMPDEST SWAP4 POP POP PUSH1 0x40 PUSH2 0x2F17 DUP8 DUP3 DUP9 ADD PUSH2 0x2CBD JUMP JUMPDEST SWAP3 POP POP PUSH1 0x60 PUSH2 0x2F28 DUP8 DUP3 DUP9 ADD PUSH2 0x2DEF JUMP JUMPDEST SWAP2 POP POP SWAP3 SWAP6 SWAP2 SWAP5 POP SWAP3 POP JUMP JUMPDEST PUSH1 0x0 DUP1 PUSH1 0x0 PUSH1 0x60 DUP5 DUP7 SUB SLT ISZERO PUSH2 0x2F49 JUMPI PUSH1 0x0 DUP1 REVERT JUMPDEST PUSH1 0x0 PUSH2 0x2F57 DUP7 DUP3 DUP8 ADD PUSH2 0x2CBD JUMP JUMPDEST SWAP4 POP POP PUSH1 0x20 PUSH2 0x2F68 DUP7 DUP3 DUP8 ADD PUSH2 0x2D7B JUMP JUMPDEST SWAP3 POP POP PUSH1 0x40 PUSH2 0x2F79 DUP7 DUP3 DUP8 ADD PUSH2 0x2CBD JUMP JUMPDEST SWAP2 POP POP SWAP3 POP SWAP3 POP SWAP3 JUMP JUMPDEST PUSH1 0x0 DUP1 PUSH1 0x0 DUP1 PUSH1 0x0 PUSH1 0xA0 DUP7 DUP9 SUB SLT ISZERO PUSH2 0x2F9B JUMPI PUSH1 0x0 DUP1 REVERT JUMPDEST PUSH1 0x0 PUSH2 0x2FA9 DUP9 DUP3 DUP10 ADD PUSH2 0x2CBD JUMP JUMPDEST SWAP6 POP POP PUSH1 0x20 PUSH2 0x2FBA DUP9 DUP3 DUP10 ADD PUSH2 0x2D7B JUMP JUMPDEST SWAP5 POP POP PUSH1 0x40 PUSH2 0x2FCB DUP9 DUP3 DUP10 ADD PUSH2 0x2CBD JUMP JUMPDEST SWAP4 POP POP PUSH1 0x60 PUSH2 0x2FDC DUP9 DUP3 DUP10 ADD PUSH2 0x2D90 JUMP JUMPDEST SWAP3 POP POP PUSH1 0x80 PUSH2 0x2FED DUP9 DUP3 DUP10 ADD PUSH2 0x2D90 JUMP JUMPDEST SWAP2 POP POP SWAP3 SWAP6 POP SWAP3 SWAP6 SWAP1 SWAP4 POP JUMP JUMPDEST PUSH1 0x0 DUP1 PUSH1 0x0 DUP1 PUSH1 0x40 DUP6 DUP8 SUB SLT ISZERO PUSH2 0x3010 JUMPI PUSH1 0x0 DUP1 REVERT JUMPDEST PUSH1 0x0 DUP6 ADD CALLDATALOAD PUSH8 0xFFFFFFFFFFFFFFFF DUP2 GT ISZERO PUSH2 0x302A JUMPI PUSH1 0x0 DUP1 REVERT JUMPDEST PUSH2 0x3036 DUP8 DUP3 DUP9 ADD PUSH2 0x2CE7 JUMP JUMPDEST SWAP5 POP SWAP5 POP POP PUSH1 0x20 DUP6 ADD CALLDATALOAD PUSH8 0xFFFFFFFFFFFFFFFF DUP2 GT ISZERO PUSH2 0x3055 JUMPI PUSH1 0x0 DUP1 REVERT JUMPDEST PUSH2 0x3061 DUP8 DUP3 DUP9 ADD PUSH2 0x2D31 JUMP JUMPDEST SWAP3 POP SWAP3 POP POP SWAP3 SWAP6 SWAP2 SWAP5 POP SWAP3 POP JUMP JUMPDEST PUSH1 0x0 PUSH1 0x20 DUP3 DUP5 SUB SLT ISZERO PUSH2 0x3081 JUMPI PUSH1 0x0 DUP1 REVERT JUMPDEST PUSH1 0x0 PUSH2 0x308F DUP5 DUP3 DUP6 ADD PUSH2 0x2D7B JUMP JUMPDEST SWAP2 POP POP SWAP3 SWAP2 POP POP JUMP JUMPDEST PUSH1 0x0 DUP1 PUSH1 0x40 DUP4 DUP6 SUB SLT ISZERO PUSH2 0x30AB JUMPI PUSH1 0x0 DUP1 REVERT JUMPDEST PUSH1 0x0 PUSH2 0x30B9 DUP6 DUP3 DUP7 ADD PUSH2 0x2D7B JUMP JUMPDEST SWAP3 POP POP PUSH1 0x20 PUSH2 0x30CA DUP6 DUP3 DUP7 ADD PUSH2 0x2CBD JUMP JUMPDEST SWAP2 POP POP SWAP3 POP SWAP3 SWAP1 POP JUMP JUMPDEST PUSH1 0x0 DUP1 PUSH1 0x40 DUP4 DUP6 SUB SLT ISZERO PUSH2 0x30E7 JUMPI PUSH1 0x0 DUP1 REVERT JUMPDEST PUSH1 0x0 PUSH2 0x30F5 DUP6 DUP3 DUP7 ADD PUSH2 0x2D7B JUMP JUMPDEST SWAP3 POP POP PUSH1 0x20 PUSH2 0x3106 DUP6 DUP3 DUP7 ADD PUSH2 0x2DEF JUMP JUMPDEST SWAP2 POP POP SWAP3 POP SWAP3 SWAP1 POP JUMP JUMPDEST PUSH1 0x0 PUSH1 0x20 DUP3 DUP5 SUB SLT ISZERO PUSH2 0x3122 JUMPI PUSH1 0x0 DUP1 REVERT JUMPDEST PUSH1 0x0 PUSH2 0x3130 DUP5 DUP3 DUP6 ADD PUSH2 0x2DEF JUMP JUMPDEST SWAP2 POP POP SWAP3 SWAP2 POP POP JUMP JUMPDEST PUSH1 0x0 DUP1 PUSH1 0x40 DUP4 DUP6 SUB SLT ISZERO PUSH2 0x314C JUMPI PUSH1 0x0 DUP1 REVERT JUMPDEST PUSH1 0x0 PUSH2 0x315A DUP6 DUP3 DUP7 ADD PUSH2 0x2E04 JUMP JUMPDEST SWAP3 POP POP PUSH1 0x20 PUSH2 0x316B DUP6 DUP3 DUP7 ADD PUSH2 0x2E2E JUMP JUMPDEST SWAP2 POP POP SWAP3 POP SWAP3 SWAP1 POP JUMP JUMPDEST PUSH1 0x0 DUP1 PUSH1 0x40 DUP4 DUP6 SUB SLT ISZERO PUSH2 0x3188 JUMPI PUSH1 0x0 DUP1 REVERT JUMPDEST PUSH1 0x0 PUSH2 0x3196 DUP6 DUP3 DUP7 ADD PUSH2 0x2E19 JUMP JUMPDEST SWAP3 POP POP PUSH1 0x20 PUSH2 0x31A7 DUP6 DUP3 DUP7 ADD PUSH2 0x2D7B JUMP JUMPDEST SWAP2 POP POP SWAP3 POP SWAP3 SWAP1 POP JUMP JUMPDEST PUSH1 0x0 DUP1 PUSH1 0x0 PUSH1 0x60 DUP5 DUP7 SUB SLT ISZERO PUSH2 0x31C6 JUMPI PUSH1 0x0 DUP1 REVERT JUMPDEST PUSH1 0x0 PUSH2 0x31D4 DUP7 DUP3 DUP8 ADD PUSH2 0x2E19 JUMP JUMPDEST SWAP4 POP POP PUSH1 0x20 PUSH2 0x31E5 DUP7 DUP3 DUP8 ADD PUSH2 0x2D7B JUMP JUMPDEST SWAP3 POP POP PUSH1 0x40 PUSH2 0x31F6 DUP7 DUP3 DUP8 ADD PUSH2 0x2CBD JUMP JUMPDEST SWAP2 POP POP SWAP3 POP SWAP3 POP SWAP3 JUMP JUMPDEST PUSH1 0x0 PUSH1 0x20 DUP3 DUP5 SUB SLT ISZERO PUSH2 0x3212 JUMPI PUSH1 0x0 DUP1 REVERT JUMPDEST PUSH1 0x0 PUSH2 0x3220 DUP5 DUP3 DUP6 ADD PUSH2 0x2E2E JUMP JUMPDEST SWAP2 POP POP SWAP3 SWAP2 POP POP JUMP JUMPDEST PUSH1 0x0 DUP1 PUSH1 0x0 DUP1 PUSH1 0x60 DUP6 DUP8 SUB SLT ISZERO PUSH2 0x323F JUMPI PUSH1 0x0 DUP1 REVERT JUMPDEST PUSH1 0x0 PUSH2 0x324D DUP8 DUP3 DUP9 ADD PUSH2 0x2E2E JUMP JUMPDEST SWAP5 POP POP PUSH1 0x20 PUSH2 0x325E DUP8 DUP3 DUP9 ADD PUSH2 0x2D7B JUMP JUMPDEST SWAP4 POP POP PUSH1 0x40 DUP6 ADD CALLDATALOAD PUSH8 0xFFFFFFFFFFFFFFFF DUP2 GT ISZERO PUSH2 0x327B JUMPI PUSH1 0x0 DUP1 REVERT JUMPDEST PUSH2 0x3287 DUP8 DUP3 DUP9 ADD PUSH2 0x2DA5 JUMP JUMPDEST SWAP3 POP SWAP3 POP POP SWAP3 SWAP6 SWAP2 SWAP5 POP SWAP3 POP JUMP JUMPDEST PUSH1 0x0 DUP1 PUSH1 0x0 PUSH1 0x60 DUP5 DUP7 SUB SLT ISZERO PUSH2 0x32AA JUMPI PUSH1 0x0 DUP1 REVERT JUMPDEST PUSH1 0x0 PUSH2 0x32B8 DUP7 DUP3 DUP8 ADD PUSH2 0x2E2E JUMP JUMPDEST SWAP4 POP POP PUSH1 0x20 PUSH2 0x32C9 DUP7 DUP3 DUP8 ADD PUSH2 0x2E04 JUMP JUMPDEST SWAP3 POP POP PUSH1 0x40 PUSH2 0x32DA DUP7 DUP3 DUP8 ADD PUSH2 0x2D7B JUMP JUMPDEST SWAP2 POP POP SWAP3 POP SWAP3 POP SWAP3 JUMP JUMPDEST PUSH1 0x0 DUP1 PUSH1 0x0 DUP1 PUSH1 0x80 DUP6 DUP8 SUB SLT ISZERO PUSH2 0x32FA JUMPI PUSH1 0x0 DUP1 REVERT JUMPDEST PUSH1 0x0 PUSH2 0x3308 DUP8 DUP3 DUP9 ADD PUSH2 0x2E2E JUMP JUMPDEST SWAP5 POP POP PUSH1 0x20 PUSH2 0x3319 DUP8 DUP3 DUP9 ADD PUSH2 0x2E04 JUMP JUMPDEST SWAP4 POP POP PUSH1 0x40 PUSH2 0x332A DUP8 DUP3 DUP9 ADD PUSH2 0x2D7B JUMP JUMPDEST SWAP3 POP POP PUSH1 0x60 PUSH2 0x333B DUP8 DUP3 DUP9 ADD PUSH2 0x2D7B JUMP JUMPDEST SWAP2 POP POP SWAP3 SWAP6 SWAP2 SWAP5 POP SWAP3 POP JUMP JUMPDEST PUSH1 0x0 DUP1 PUSH1 0x0 DUP1 PUSH1 0x0 PUSH1 0x80 DUP7 DUP9 SUB SLT ISZERO PUSH2 0x335F JUMPI PUSH1 0x0 DUP1 REVERT JUMPDEST PUSH1 0x0 PUSH2 0x336D DUP9 DUP3 DUP10 ADD PUSH2 0x2E2E JUMP JUMPDEST SWAP6 POP POP PUSH1 0x20 PUSH2 0x337E DUP9 DUP3 DUP10 ADD PUSH2 0x2E04 JUMP JUMPDEST SWAP5 POP POP PUSH1 0x40 DUP7 ADD CALLDATALOAD PUSH8 0xFFFFFFFFFFFFFFFF DUP2 GT ISZERO PUSH2 0x339B JUMPI PUSH1 0x0 DUP1 REVERT JUMPDEST PUSH2 0x33A7 DUP9 DUP3 DUP10 ADD PUSH2 0x2DA5 JUMP JUMPDEST SWAP4 POP SWAP4 POP POP PUSH1 0x60 PUSH2 0x33BA DUP9 DUP3 DUP10 ADD PUSH2 0x2D7B JUMP JUMPDEST SWAP2 POP POP SWAP3 SWAP6 POP SWAP3 SWAP6 SWAP1 SWAP4 POP JUMP JUMPDEST PUSH1 0x0 PUSH2 0x33D3 DUP4 DUP4 PUSH2 0x33EE JUMP JUMPDEST PUSH1 0x20 DUP4 ADD SWAP1 POP SWAP3 SWAP2 POP POP JUMP JUMPDEST PUSH2 0x33E8 DUP2 PUSH2 0x446C JUMP JUMPDEST DUP3 MSTORE POP POP JUMP JUMPDEST PUSH2 0x33F7 DUP2 PUSH2 0x4393 JUMP JUMPDEST DUP3 MSTORE POP POP JUMP JUMPDEST PUSH2 0x3406 DUP2 PUSH2 0x4393 JUMP JUMPDEST DUP3 MSTORE POP POP JUMP JUMPDEST PUSH2 0x341D PUSH2 0x3418 DUP3 PUSH2 0x4393 JUMP JUMPDEST PUSH2 0x44F6 JUMP JUMPDEST DUP3 MSTORE POP POP JUMP JUMPDEST PUSH1 0x0 PUSH2 0x342E DUP3 PUSH2 0x431C JUMP JUMPDEST PUSH2 0x3438 DUP2 DUP6 PUSH2 0x434A JUMP JUMPDEST SWAP4 POP PUSH2 0x3443 DUP4 PUSH2 0x430C JUMP JUMPDEST DUP1 PUSH1 0x0 JUMPDEST DUP4 DUP2 LT ISZERO PUSH2 0x3474 JUMPI DUP2 MLOAD PUSH2 0x345B DUP9 DUP3 PUSH2 0x33C7 JUMP JUMPDEST SWAP8 POP PUSH2 0x3466 DUP4 PUSH2 0x433D JUMP JUMPDEST SWAP3 POP POP PUSH1 0x1 DUP2 ADD SWAP1 POP PUSH2 0x3447 JUMP JUMPDEST POP DUP6 SWAP4 POP POP POP POP SWAP3 SWAP2 POP POP JUMP JUMPDEST PUSH2 0x348A DUP2 PUSH2 0x43B7 JUMP JUMPDEST DUP3 MSTORE POP POP JUMP JUMPDEST PUSH2 0x3499 DUP2 PUSH2 0x43C3 JUMP JUMPDEST DUP3 MSTORE POP POP JUMP JUMPDEST PUSH2 0x34A8 DUP2 PUSH2 0x43C3 JUMP JUMPDEST DUP3 MSTORE POP POP JUMP JUMPDEST PUSH2 0x34B7 DUP2 PUSH2 0x43CD JUMP JUMPDEST DUP3 MSTORE POP POP JUMP JUMPDEST PUSH1 0x0 PUSH2 0x34C9 DUP4 DUP6 PUSH2 0x435B JUMP JUMPDEST SWAP4 POP PUSH2 0x34D6 DUP4 DUP6 DUP5 PUSH2 0x44B4 JUMP JUMPDEST PUSH2 0x34DF DUP4 PUSH2 0x451A JUMP JUMPDEST DUP5 ADD SWAP1 POP SWAP4 SWAP3 POP POP POP JUMP JUMPDEST PUSH1 0x0 PUSH2 0x34F6 DUP4 DUP6 PUSH2 0x436C JUMP JUMPDEST SWAP4 POP PUSH2 0x3503 DUP4 DUP6 DUP5 PUSH2 0x44B4 JUMP JUMPDEST DUP3 DUP5 ADD SWAP1 POP SWAP4 SWAP3 POP POP POP JUMP JUMPDEST PUSH1 0x0 PUSH2 0x351A DUP3 PUSH2 0x4327 JUMP JUMPDEST PUSH2 0x3524 DUP2 DUP6 PUSH2 0x435B JUMP JUMPDEST SWAP4 POP PUSH2 0x3534 DUP2 DUP6 PUSH1 0x20 DUP7 ADD PUSH2 0x44C3 JUMP JUMPDEST PUSH2 0x353D DUP2 PUSH2 0x451A JUMP JUMPDEST DUP5 ADD SWAP2 POP POP SWAP3 SWAP2 POP POP JUMP JUMPDEST PUSH2 0x3551 DUP2 PUSH2 0x447E JUMP JUMPDEST DUP3 MSTORE POP POP JUMP JUMPDEST PUSH2 0x3560 DUP2 PUSH2 0x447E JUMP JUMPDEST DUP3 MSTORE POP POP JUMP JUMPDEST PUSH1 0x0 PUSH2 0x3571 DUP3 PUSH2 0x4332 JUMP JUMPDEST PUSH2 0x357B DUP2 DUP6 PUSH2 0x4377 JUMP JUMPDEST SWAP4 POP PUSH2 0x358B DUP2 DUP6 PUSH1 0x20 DUP7 ADD PUSH2 0x44C3 JUMP JUMPDEST PUSH2 0x3594 DUP2 PUSH2 0x451A JUMP JUMPDEST DUP5 ADD SWAP2 POP POP SWAP3 SWAP2 POP POP JUMP JUMPDEST PUSH1 0x0 PUSH2 0x35AC PUSH1 0x1C DUP4 PUSH2 0x4377 JUMP JUMPDEST SWAP2 POP PUSH32 0x70726F706F73616C20616C7265616479207472616E7366657272656400000000 PUSH1 0x0 DUP4 ADD MSTORE PUSH1 0x20 DUP3 ADD SWAP1 POP SWAP2 SWAP1 POP JUMP JUMPDEST PUSH1 0x0 PUSH2 0x35EC PUSH1 0x16 DUP4 PUSH2 0x4377 JUMP JUMPDEST SWAP2 POP PUSH32 0x70726F706F73616C206973206E6F742061637469766500000000000000000000 PUSH1 0x0 DUP4 ADD MSTORE PUSH1 0x20 DUP3 ADD SWAP1 POP SWAP2 SWAP1 POP JUMP JUMPDEST PUSH1 0x0 PUSH2 0x362C PUSH1 0x22 DUP4 PUSH2 0x4377 JUMP JUMPDEST SWAP2 POP PUSH32 0x456E756D657261626C655365743A20696E646578206F7574206F6620626F756E PUSH1 0x0 DUP4 ADD MSTORE PUSH32 0x6473000000000000000000000000000000000000000000000000000000000000 PUSH1 0x20 DUP4 ADD MSTORE PUSH1 0x40 DUP3 ADD SWAP1 POP SWAP2 SWAP1 POP JUMP JUMPDEST PUSH1 0x0 PUSH2 0x3692 PUSH1 0x1E DUP4 PUSH2 0x4377 JUMP JUMPDEST SWAP2 POP PUSH32 0x73656E646572206973206E6F742072656C61796572206F722061646D696E0000 PUSH1 0x0 DUP4 ADD MSTORE PUSH1 0x20 DUP3 ADD SWAP1 POP SWAP2 SWAP1 POP JUMP JUMPDEST PUSH1 0x0 PUSH2 0x36D2 PUSH1 0x2F DUP4 PUSH2 0x4377 JUMP JUMPDEST SWAP2 POP PUSH32 0x416363657373436F6E74726F6C3A2073656E646572206D75737420626520616E PUSH1 0x0 DUP4 ADD MSTORE PUSH32 0x2061646D696E20746F206772616E740000000000000000000000000000000000 PUSH1 0x20 DUP4 ADD MSTORE PUSH1 0x40 DUP3 ADD SWAP1 POP SWAP2 SWAP1 POP JUMP JUMPDEST PUSH1 0x0 PUSH2 0x3738 PUSH1 0x15 DUP4 PUSH2 0x4377 JUMP JUMPDEST SWAP2 POP PUSH32 0x72656C6179657220616C726561647920766F7465640000000000000000000000 PUSH1 0x0 DUP4 ADD MSTORE PUSH1 0x20 DUP3 ADD SWAP1 POP SWAP2 SWAP1 POP JUMP JUMPDEST PUSH1 0x0 PUSH2 0x3778 PUSH1 0x14 DUP4 PUSH2 0x4377 JUMP JUMPDEST SWAP2 POP PUSH32 0x5061757361626C653A206E6F7420706175736564000000000000000000000000 PUSH1 0x0 DUP4 ADD MSTORE PUSH1 0x20 DUP3 ADD SWAP1 POP SWAP2 SWAP1 POP JUMP JUMPDEST PUSH1 0x0 PUSH2 0x37B8 PUSH1 0x1F DUP4 PUSH2 0x4377 JUMP JUMPDEST SWAP2 POP PUSH32 0x6164647220646F65736E277420686176652072656C6179657220726F6C652100 PUSH1 0x0 DUP4 ADD MSTORE PUSH1 0x20 DUP3 ADD SWAP1 POP SWAP2 SWAP1 POP JUMP JUMPDEST PUSH1 0x0 PUSH2 0x37F8 PUSH1 0x16 DUP4 PUSH2 0x4377 JUMP JUMPDEST SWAP2 POP PUSH32 0x496E636F72726563742066656520737570706C69656400000000000000000000 PUSH1 0x0 DUP4 ADD MSTORE PUSH1 0x20 DUP3 ADD SWAP1 POP SWAP2 SWAP1 POP JUMP JUMPDEST PUSH1 0x0 PUSH2 0x3838 PUSH1 0x1B DUP4 PUSH2 0x4377 JUMP JUMPDEST SWAP2 POP PUSH32 0x6461746120646F65736E2774206D617463682064617461686173680000000000 PUSH1 0x0 DUP4 ADD MSTORE PUSH1 0x20 DUP3 ADD SWAP1 POP SWAP2 SWAP1 POP JUMP JUMPDEST PUSH1 0x0 PUSH2 0x3878 PUSH1 0x1A DUP4 PUSH2 0x4377 JUMP JUMPDEST SWAP2 POP PUSH32 0x50726F706F73616C20616C72656164792063616E63656C6C6564000000000000 PUSH1 0x0 DUP4 ADD MSTORE PUSH1 0x20 DUP3 ADD SWAP1 POP SWAP2 SWAP1 POP JUMP JUMPDEST PUSH1 0x0 PUSH2 0x38B8 PUSH1 0x20 DUP4 PUSH2 0x4377 JUMP JUMPDEST SWAP2 POP PUSH32 0x7265736F757263654944206E6F74206D617070656420746F2068616E646C6572 PUSH1 0x0 DUP4 ADD MSTORE PUSH1 0x20 DUP3 ADD SWAP1 POP SWAP2 SWAP1 POP JUMP JUMPDEST PUSH1 0x0 PUSH2 0x38F8 PUSH1 0x30 DUP4 PUSH2 0x4377 JUMP JUMPDEST SWAP2 POP PUSH32 0x416363657373436F6E74726F6C3A2073656E646572206D75737420626520616E PUSH1 0x0 DUP4 ADD MSTORE PUSH32 0x2061646D696E20746F207265766F6B6500000000000000000000000000000000 PUSH1 0x20 DUP4 ADD MSTORE PUSH1 0x40 DUP3 ADD SWAP1 POP SWAP2 SWAP1 POP JUMP JUMPDEST PUSH1 0x0 PUSH2 0x395E PUSH1 0x20 DUP4 PUSH2 0x4377 JUMP JUMPDEST SWAP2 POP PUSH32 0x50726F706F73616C206E6F7420617420657870697279207468726573686F6C64 PUSH1 0x0 DUP4 ADD MSTORE PUSH1 0x20 DUP3 ADD SWAP1 POP SWAP2 SWAP1 POP JUMP JUMPDEST PUSH1 0x0 PUSH2 0x399E PUSH1 0x10 DUP4 PUSH2 0x4377 JUMP JUMPDEST SWAP2 POP PUSH32 0x5061757361626C653A2070617573656400000000000000000000000000000000 PUSH1 0x0 DUP4 ADD MSTORE PUSH1 0x20 DUP3 ADD SWAP1 POP SWAP2 SWAP1 POP JUMP JUMPDEST PUSH1 0x0 PUSH2 0x39DE PUSH1 0x1E DUP4 PUSH2 0x4377 JUMP JUMPDEST SWAP2 POP PUSH32 0x6164647220616C7265616479206861732072656C6179657220726F6C65210000 PUSH1 0x0 DUP4 ADD MSTORE PUSH1 0x20 DUP3 ADD SWAP1 POP SWAP2 SWAP1 POP JUMP JUMPDEST PUSH1 0x0 PUSH2 0x3A1E PUSH1 0x2A DUP4 PUSH2 0x4377 JUMP JUMPDEST SWAP2 POP PUSH32 0x70726F706F73616C20616C7265616479207061737365642F6578656375746564 PUSH1 0x0 DUP4 ADD MSTORE PUSH32 0x2F63616E63656C6C656400000000000000000000000000000000000000000000 PUSH1 0x20 DUP4 ADD MSTORE PUSH1 0x40 DUP3 ADD SWAP1 POP SWAP2 SWAP1 POP JUMP JUMPDEST PUSH1 0x0 PUSH2 0x3A84 PUSH1 0x20 DUP4 PUSH2 0x4377 JUMP JUMPDEST SWAP2 POP PUSH32 0x73656E64657220646F65736E277420686176652072656C6179657220726F6C65 PUSH1 0x0 DUP4 ADD MSTORE PUSH1 0x20 DUP3 ADD SWAP1 POP SWAP2 SWAP1 POP JUMP JUMPDEST PUSH1 0x0 PUSH2 0x3AC4 PUSH1 0x1E DUP4 PUSH2 0x4377 JUMP JUMPDEST SWAP2 POP PUSH32 0x73656E64657220646F65736E277420686176652061646D696E20726F6C650000 PUSH1 0x0 DUP4 ADD MSTORE PUSH1 0x20 DUP3 ADD SWAP1 POP SWAP2 SWAP1 POP JUMP JUMPDEST PUSH1 0x0 PUSH2 0x3B04 PUSH1 0x1F DUP4 PUSH2 0x4377 JUMP JUMPDEST SWAP2 POP PUSH32 0x43757272656E742066656520697320657175616C20746F206E65772066656500 PUSH1 0x0 DUP4 ADD MSTORE PUSH1 0x20 DUP3 ADD SWAP1 POP SWAP2 SWAP1 POP JUMP JUMPDEST PUSH1 0x0 PUSH2 0x3B44 PUSH1 0xC DUP4 PUSH2 0x4388 JUMP JUMPDEST SWAP2 POP PUSH32 0x52454C415945525F524F4C450000000000000000000000000000000000000000 PUSH1 0x0 DUP4 ADD MSTORE PUSH1 0xC DUP3 ADD SWAP1 POP SWAP2 SWAP1 POP JUMP JUMPDEST PUSH1 0x0 PUSH2 0x3B84 PUSH1 0x11 DUP4 PUSH2 0x4377 JUMP JUMPDEST SWAP2 POP PUSH32 0x6461746168617368206D69736D61746368000000000000000000000000000000 PUSH1 0x0 DUP4 ADD MSTORE PUSH1 0x20 DUP3 ADD SWAP1 POP SWAP2 SWAP1 POP JUMP JUMPDEST PUSH1 0x0 PUSH2 0x3BC4 PUSH1 0x19 DUP4 PUSH2 0x4377 JUMP JUMPDEST SWAP2 POP PUSH32 0x6E6F2068616E646C657220666F72207265736F75726365494400000000000000 PUSH1 0x0 DUP4 ADD MSTORE PUSH1 0x20 DUP3 ADD SWAP1 POP SWAP2 SWAP1 POP JUMP JUMPDEST PUSH1 0x0 PUSH2 0x3C04 PUSH1 0x2F DUP4 PUSH2 0x4377 JUMP JUMPDEST SWAP2 POP PUSH32 0x416363657373436F6E74726F6C3A2063616E206F6E6C792072656E6F756E6365 PUSH1 0x0 DUP4 ADD MSTORE PUSH32 0x20726F6C657320666F722073656C660000000000000000000000000000000000 PUSH1 0x20 DUP4 ADD MSTORE PUSH1 0x40 DUP3 ADD SWAP1 POP SWAP2 SWAP1 POP JUMP JUMPDEST PUSH1 0x0 PUSH1 0xC0 DUP4 ADD PUSH1 0x0 DUP4 ADD MLOAD PUSH2 0x3C75 PUSH1 0x0 DUP7 ADD DUP3 PUSH2 0x3490 JUMP JUMPDEST POP PUSH1 0x20 DUP4 ADD MLOAD PUSH2 0x3C88 PUSH1 0x20 DUP7 ADD DUP3 PUSH2 0x3490 JUMP JUMPDEST POP PUSH1 0x40 DUP4 ADD MLOAD DUP5 DUP3 SUB PUSH1 0x40 DUP7 ADD MSTORE PUSH2 0x3CA0 DUP3 DUP3 PUSH2 0x3423 JUMP JUMPDEST SWAP2 POP POP PUSH1 0x60 DUP4 ADD MLOAD DUP5 DUP3 SUB PUSH1 0x60 DUP7 ADD MSTORE PUSH2 0x3CBA DUP3 DUP3 PUSH2 0x3423 JUMP JUMPDEST SWAP2 POP POP PUSH1 0x80 DUP4 ADD MLOAD PUSH2 0x3CCF PUSH1 0x80 DUP7 ADD DUP3 PUSH2 0x3548 JUMP JUMPDEST POP PUSH1 0xA0 DUP4 ADD MLOAD PUSH2 0x3CE2 PUSH1 0xA0 DUP7 ADD DUP3 PUSH2 0x3CED JUMP JUMPDEST POP DUP1 SWAP2 POP POP SWAP3 SWAP2 POP POP JUMP JUMPDEST PUSH2 0x3CF6 DUP2 PUSH2 0x442C JUMP JUMPDEST DUP3 MSTORE POP POP JUMP JUMPDEST PUSH2 0x3D05 DUP2 PUSH2 0x442C JUMP JUMPDEST DUP3 MSTORE POP POP JUMP JUMPDEST PUSH2 0x3D14 DUP2 PUSH2 0x4436 JUMP JUMPDEST DUP3 MSTORE POP POP JUMP JUMPDEST PUSH2 0x3D23 DUP2 PUSH2 0x445F JUMP JUMPDEST DUP3 MSTORE POP POP JUMP JUMPDEST PUSH1 0x0 PUSH2 0x3D35 DUP3 DUP7 PUSH2 0x340C JUMP JUMPDEST PUSH1 0x14 DUP3 ADD SWAP2 POP PUSH2 0x3D46 DUP3 DUP5 DUP7 PUSH2 0x34EA JUMP JUMPDEST SWAP2 POP DUP2 SWAP1 POP SWAP5 SWAP4 POP POP POP POP JUMP JUMPDEST PUSH1 0x0 PUSH2 0x3D5E DUP3 PUSH2 0x3B37 JUMP JUMPDEST SWAP2 POP DUP2 SWAP1 POP SWAP2 SWAP1 POP JUMP JUMPDEST PUSH1 0x0 PUSH1 0x20 DUP3 ADD SWAP1 POP PUSH2 0x3D7D PUSH1 0x0 DUP4 ADD DUP5 PUSH2 0x33FD JUMP JUMPDEST SWAP3 SWAP2 POP POP JUMP JUMPDEST PUSH1 0x0 PUSH1 0x20 DUP3 ADD SWAP1 POP PUSH2 0x3D98 PUSH1 0x0 DUP4 ADD DUP5 PUSH2 0x33DF JUMP JUMPDEST SWAP3 SWAP2 POP POP JUMP JUMPDEST PUSH1 0x0 PUSH1 0x60 DUP3 ADD SWAP1 POP PUSH2 0x3DB3 PUSH1 0x0 DUP4 ADD DUP7 PUSH2 0x33FD JUMP JUMPDEST PUSH2 0x3DC0 PUSH1 0x20 DUP4 ADD DUP6 PUSH2 0x33FD JUMP JUMPDEST PUSH2 0x3DCD PUSH1 0x40 DUP4 ADD DUP5 PUSH2 0x3CFC JUMP JUMPDEST SWAP5 SWAP4 POP POP POP POP JUMP JUMPDEST PUSH1 0x0 PUSH1 0x20 DUP3 ADD SWAP1 POP PUSH2 0x3DEA PUSH1 0x0 DUP4 ADD DUP5 PUSH2 0x3481 JUMP JUMPDEST SWAP3 SWAP2 POP POP JUMP JUMPDEST PUSH1 0x0 PUSH1 0x20 DUP3 ADD SWAP1 POP PUSH2 0x3E05 PUSH1 0x0 DUP4 ADD DUP5 PUSH2 0x349F JUMP JUMPDEST SWAP3 SWAP2 POP POP JUMP JUMPDEST PUSH1 0x0 PUSH1 0x40 DUP3 ADD SWAP1 POP PUSH2 0x3E20 PUSH1 0x0 DUP4 ADD DUP6 PUSH2 0x349F JUMP JUMPDEST PUSH2 0x3E2D PUSH1 0x20 DUP4 ADD DUP5 PUSH2 0x33FD JUMP JUMPDEST SWAP4 SWAP3 POP POP POP JUMP JUMPDEST PUSH1 0x0 PUSH1 0x80 DUP3 ADD SWAP1 POP PUSH2 0x3E49 PUSH1 0x0 DUP4 ADD DUP8 PUSH2 0x349F JUMP JUMPDEST PUSH2 0x3E56 PUSH1 0x20 DUP4 ADD DUP7 PUSH2 0x33FD JUMP JUMPDEST PUSH2 0x3E63 PUSH1 0x40 DUP4 ADD DUP6 PUSH2 0x34AE JUMP JUMPDEST PUSH2 0x3E70 PUSH1 0x60 DUP4 ADD DUP5 PUSH2 0x34AE JUMP JUMPDEST SWAP6 SWAP5 POP POP POP POP POP JUMP JUMPDEST PUSH1 0x0 PUSH1 0x40 DUP3 ADD SWAP1 POP PUSH2 0x3E8E PUSH1 0x0 DUP4 ADD DUP6 PUSH2 0x349F JUMP JUMPDEST PUSH2 0x3E9B PUSH1 0x20 DUP4 ADD DUP5 PUSH2 0x349F JUMP JUMPDEST SWAP4 SWAP3 POP POP POP JUMP JUMPDEST PUSH1 0x0 PUSH1 0x80 DUP3 ADD SWAP1 POP PUSH2 0x3EB7 PUSH1 0x0 DUP4 ADD DUP8 PUSH2 0x349F JUMP JUMPDEST PUSH2 0x3EC4 PUSH1 0x20 DUP4 ADD DUP7 PUSH2 0x349F JUMP JUMPDEST PUSH2 0x3ED1 PUSH1 0x40 DUP4 ADD DUP6 PUSH2 0x3557 JUMP JUMPDEST PUSH2 0x3EDE PUSH1 0x60 DUP4 ADD DUP5 PUSH2 0x3CFC JUMP JUMPDEST SWAP6 SWAP5 POP POP POP POP POP JUMP JUMPDEST PUSH1 0x0 PUSH1 0x40 DUP3 ADD SWAP1 POP PUSH2 0x3EFC PUSH1 0x0 DUP4 ADD DUP7 PUSH2 0x349F JUMP JUMPDEST DUP2 DUP2 SUB PUSH1 0x20 DUP4 ADD MSTORE PUSH2 0x3F0F DUP2 DUP5 DUP7 PUSH2 0x34BD JUMP JUMPDEST SWAP1 POP SWAP5 SWAP4 POP POP POP POP JUMP JUMPDEST PUSH1 0x0 PUSH1 0xA0 DUP3 ADD SWAP1 POP PUSH2 0x3F2E PUSH1 0x0 DUP4 ADD DUP10 PUSH2 0x349F JUMP JUMPDEST PUSH2 0x3F3B PUSH1 0x20 DUP4 ADD DUP9 PUSH2 0x3D1A JUMP JUMPDEST PUSH2 0x3F48 PUSH1 0x40 DUP4 ADD DUP8 PUSH2 0x3D0B JUMP JUMPDEST PUSH2 0x3F55 PUSH1 0x60 DUP4 ADD DUP7 PUSH2 0x33DF JUMP JUMPDEST DUP2 DUP2 SUB PUSH1 0x80 DUP4 ADD MSTORE PUSH2 0x3F68 DUP2 DUP5 DUP7 PUSH2 0x34BD JUMP JUMPDEST SWAP1 POP SWAP8 SWAP7 POP POP POP POP POP POP POP JUMP JUMPDEST PUSH1 0x0 PUSH1 0x20 DUP3 ADD SWAP1 POP DUP2 DUP2 SUB PUSH1 0x0 DUP4 ADD MSTORE PUSH2 0x3F8F DUP2 DUP5 PUSH2 0x350F JUMP JUMPDEST SWAP1 POP SWAP3 SWAP2 POP POP JUMP JUMPDEST PUSH1 0x0 PUSH1 0x20 DUP3 ADD SWAP1 POP DUP2 DUP2 SUB PUSH1 0x0 DUP4 ADD MSTORE PUSH2 0x3FB1 DUP2 DUP5 PUSH2 0x3566 JUMP JUMPDEST SWAP1 POP SWAP3 SWAP2 POP POP JUMP JUMPDEST PUSH1 0x0 PUSH1 0x20 DUP3 ADD SWAP1 POP DUP2 DUP2 SUB PUSH1 0x0 DUP4 ADD MSTORE PUSH2 0x3FD2 DUP2 PUSH2 0x359F JUMP JUMPDEST SWAP1 POP SWAP2 SWAP1 POP JUMP JUMPDEST PUSH1 0x0 PUSH1 0x20 DUP3 ADD SWAP1 POP DUP2 DUP2 SUB PUSH1 0x0 DUP4 ADD MSTORE PUSH2 0x3FF2 DUP2 PUSH2 0x35DF JUMP JUMPDEST SWAP1 POP SWAP2 SWAP1 POP JUMP JUMPDEST PUSH1 0x0 PUSH1 0x20 DUP3 ADD SWAP1 POP DUP2 DUP2 SUB PUSH1 0x0 DUP4 ADD MSTORE PUSH2 0x4012 DUP2 PUSH2 0x361F JUMP JUMPDEST SWAP1 POP SWAP2 SWAP1 POP JUMP JUMPDEST PUSH1 0x0 PUSH1 0x20 DUP3 ADD SWAP1 POP DUP2 DUP2 SUB PUSH1 0x0 DUP4 ADD MSTORE PUSH2 0x4032 DUP2 PUSH2 0x3685 JUMP JUMPDEST SWAP1 POP SWAP2 SWAP1 POP JUMP JUMPDEST PUSH1 0x0 PUSH1 0x20 DUP3 ADD SWAP1 POP DUP2 DUP2 SUB PUSH1 0x0 DUP4 ADD MSTORE PUSH2 0x4052 DUP2 PUSH2 0x36C5 JUMP JUMPDEST SWAP1 POP SWAP2 SWAP1 POP JUMP JUMPDEST PUSH1 0x0 PUSH1 0x20 DUP3 ADD SWAP1 POP DUP2 DUP2 SUB PUSH1 0x0 DUP4 ADD MSTORE PUSH2 0x4072 DUP2 PUSH2 0x372B JUMP JUMPDEST SWAP1 POP SWAP2 SWAP1 POP JUMP JUMPDEST PUSH1 0x0 PUSH1 0x20 DUP3 ADD SWAP1 POP DUP2 DUP2 SUB PUSH1 0x0 DUP4 ADD MSTORE PUSH2 0x4092 DUP2 PUSH2 0x376B JUMP JUMPDEST SWAP1 POP SWAP2 SWAP1 POP JUMP JUMPDEST PUSH1 0x0 PUSH1 0x20 DUP3 ADD SWAP1 POP DUP2 DUP2 SUB PUSH1 0x0 DUP4 ADD MSTORE PUSH2 0x40B2 DUP2 PUSH2 0x37AB JUMP JUMPDEST SWAP1 POP SWAP2 SWAP1 POP JUMP JUMPDEST PUSH1 0x0 PUSH1 0x20 DUP3 ADD SWAP1 POP DUP2 DUP2 SUB PUSH1 0x0 DUP4 ADD MSTORE PUSH2 0x40D2 DUP2 PUSH2 0x37EB JUMP JUMPDEST SWAP1 POP SWAP2 SWAP1 POP JUMP JUMPDEST PUSH1 0x0 PUSH1 0x20 DUP3 ADD SWAP1 POP DUP2 DUP2 SUB PUSH1 0x0 DUP4 ADD MSTORE PUSH2 0x40F2 DUP2 PUSH2 0x382B JUMP JUMPDEST SWAP1 POP SWAP2 SWAP1 POP JUMP JUMPDEST PUSH1 0x0 PUSH1 0x20 DUP3 ADD SWAP1 POP DUP2 DUP2 SUB PUSH1 0x0 DUP4 ADD MSTORE PUSH2 0x4112 DUP2 PUSH2 0x386B JUMP JUMPDEST SWAP1 POP SWAP2 SWAP1 POP JUMP JUMPDEST PUSH1 0x0 PUSH1 0x20 DUP3 ADD SWAP1 POP DUP2 DUP2 SUB PUSH1 0x0 DUP4 ADD MSTORE PUSH2 0x4132 DUP2 PUSH2 0x38AB JUMP JUMPDEST SWAP1 POP SWAP2 SWAP1 POP JUMP JUMPDEST PUSH1 0x0 PUSH1 0x20 DUP3 ADD SWAP1 POP DUP2 DUP2 SUB PUSH1 0x0 DUP4 ADD MSTORE PUSH2 0x4152 DUP2 PUSH2 0x38EB JUMP JUMPDEST SWAP1 POP SWAP2 SWAP1 POP JUMP JUMPDEST PUSH1 0x0 PUSH1 0x20 DUP3 ADD SWAP1 POP DUP2 DUP2 SUB PUSH1 0x0 DUP4 ADD MSTORE PUSH2 0x4172 DUP2 PUSH2 0x3951 JUMP JUMPDEST SWAP1 POP SWAP2 SWAP1 POP JUMP JUMPDEST PUSH1 0x0 PUSH1 0x20 DUP3 ADD SWAP1 POP DUP2 DUP2 SUB PUSH1 0x0 DUP4 ADD MSTORE PUSH2 0x4192 DUP2 PUSH2 0x3991 JUMP JUMPDEST SWAP1 POP SWAP2 SWAP1 POP JUMP JUMPDEST PUSH1 0x0 PUSH1 0x20 DUP3 ADD SWAP1 POP DUP2 DUP2 SUB PUSH1 0x0 DUP4 ADD MSTORE PUSH2 0x41B2 DUP2 PUSH2 0x39D1 JUMP JUMPDEST SWAP1 POP SWAP2 SWAP1 POP JUMP JUMPDEST PUSH1 0x0 PUSH1 0x20 DUP3 ADD SWAP1 POP DUP2 DUP2 SUB PUSH1 0x0 DUP4 ADD MSTORE PUSH2 0x41D2 DUP2 PUSH2 0x3A11 JUMP JUMPDEST SWAP1 POP SWAP2 SWAP1 POP JUMP JUMPDEST PUSH1 0x0 PUSH1 0x20 DUP3 ADD SWAP1 POP DUP2 DUP2 SUB PUSH1 0x0 DUP4 ADD MSTORE PUSH2 0x41F2 DUP2 PUSH2 0x3A77 JUMP JUMPDEST SWAP1 POP SWAP2 SWAP1 POP JUMP JUMPDEST PUSH1 0x0 PUSH1 0x20 DUP3 ADD SWAP1 POP DUP2 DUP2 SUB PUSH1 0x0 DUP4 ADD MSTORE PUSH2 0x4212 DUP2 PUSH2 0x3AB7 JUMP JUMPDEST SWAP1 POP SWAP2 SWAP1 POP JUMP JUMPDEST PUSH1 0x0 PUSH1 0x20 DUP3 ADD SWAP1 POP DUP2 DUP2 SUB PUSH1 0x0 DUP4 ADD MSTORE PUSH2 0x4232 DUP2 PUSH2 0x3AF7 JUMP JUMPDEST SWAP1 POP SWAP2 SWAP1 POP JUMP JUMPDEST PUSH1 0x0 PUSH1 0x20 DUP3 ADD SWAP1 POP DUP2 DUP2 SUB PUSH1 0x0 DUP4 ADD MSTORE PUSH2 0x4252 DUP2 PUSH2 0x3B77 JUMP JUMPDEST SWAP1 POP SWAP2 SWAP1 POP JUMP JUMPDEST PUSH1 0x0 PUSH1 0x20 DUP3 ADD SWAP1 POP DUP2 DUP2 SUB PUSH1 0x0 DUP4 ADD MSTORE PUSH2 0x4272 DUP2 PUSH2 0x3BB7 JUMP JUMPDEST SWAP1 POP SWAP2 SWAP1 POP JUMP JUMPDEST PUSH1 0x0 PUSH1 0x20 DUP3 ADD SWAP1 POP DUP2 DUP2 SUB PUSH1 0x0 DUP4 ADD MSTORE PUSH2 0x4292 DUP2 PUSH2 0x3BF7 JUMP JUMPDEST SWAP1 POP SWAP2 SWAP1 POP JUMP JUMPDEST PUSH1 0x0 PUSH1 0x20 DUP3 ADD SWAP1 POP DUP2 DUP2 SUB PUSH1 0x0 DUP4 ADD MSTORE PUSH2 0x42B3 DUP2 DUP5 PUSH2 0x3C5D JUMP JUMPDEST SWAP1 POP SWAP3 SWAP2 POP POP JUMP JUMPDEST PUSH1 0x0 PUSH1 0x20 DUP3 ADD SWAP1 POP PUSH2 0x42D0 PUSH1 0x0 DUP4 ADD DUP5 PUSH2 0x3CFC JUMP JUMPDEST SWAP3 SWAP2 POP POP JUMP JUMPDEST PUSH1 0x0 PUSH1 0x20 DUP3 ADD SWAP1 POP PUSH2 0x42EB PUSH1 0x0 DUP4 ADD DUP5 PUSH2 0x3D0B JUMP JUMPDEST SWAP3 SWAP2 POP POP JUMP JUMPDEST PUSH1 0x0 PUSH1 0x20 DUP3 ADD SWAP1 POP PUSH2 0x4306 PUSH1 0x0 DUP4 ADD DUP5 PUSH2 0x3D1A JUMP JUMPDEST SWAP3 SWAP2 POP POP JUMP JUMPDEST PUSH1 0x0 DUP2 SWAP1 POP PUSH1 0x20 DUP3 ADD SWAP1 POP SWAP2 SWAP1 POP JUMP JUMPDEST PUSH1 0x0 DUP2 MLOAD SWAP1 POP SWAP2 SWAP1 POP JUMP JUMPDEST PUSH1 0x0 DUP2 MLOAD SWAP1 POP SWAP2 SWAP1 POP JUMP JUMPDEST PUSH1 0x0 DUP2 MLOAD SWAP1 POP SWAP2 SWAP1 POP JUMP JUMPDEST PUSH1 0x0 PUSH1 0x20 DUP3 ADD SWAP1 POP SWAP2 SWAP1 POP JUMP JUMPDEST PUSH1 0x0 DUP3 DUP3 MSTORE PUSH1 0x20 DUP3 ADD SWAP1 POP SWAP3 SWAP2 POP POP JUMP JUMPDEST PUSH1 0x0 DUP3 DUP3 MSTORE PUSH1 0x20 DUP3 ADD SWAP1 POP SWAP3 SWAP2 POP POP JUMP JUMPDEST PUSH1 0x0 DUP2 SWAP1 POP SWAP3 SWAP2 POP POP JUMP JUMPDEST PUSH1 0x0 DUP3 DUP3 MSTORE PUSH1 0x20 DUP3 ADD SWAP1 POP SWAP3 SWAP2 POP POP JUMP JUMPDEST PUSH1 0x0 DUP2 SWAP1 POP SWAP3 SWAP2 POP POP JUMP JUMPDEST PUSH1 0x0 PUSH2 0x439E DUP3 PUSH2 0x440C JUMP JUMPDEST SWAP1 POP SWAP2 SWAP1 POP JUMP JUMPDEST PUSH1 0x0 PUSH2 0x43B0 DUP3 PUSH2 0x440C JUMP JUMPDEST SWAP1 POP SWAP2 SWAP1 POP JUMP JUMPDEST PUSH1 0x0 DUP2 ISZERO ISZERO SWAP1 POP SWAP2 SWAP1 POP JUMP JUMPDEST PUSH1 0x0 DUP2 SWAP1 POP SWAP2 SWAP1 POP JUMP JUMPDEST PUSH1 0x0 PUSH32 0xFFFFFFFF00000000000000000000000000000000000000000000000000000000 DUP3 AND SWAP1 POP SWAP2 SWAP1 POP JUMP JUMPDEST PUSH1 0x0 DUP2 SWAP1 POP PUSH2 0x4407 DUP3 PUSH2 0x4538 JUMP JUMPDEST SWAP2 SWAP1 POP JUMP JUMPDEST PUSH1 0x0 PUSH20 0xFFFFFFFFFFFFFFFFFFFFFFFFFFFFFFFFFFFFFFFF DUP3 AND SWAP1 POP SWAP2 SWAP1 POP JUMP JUMPDEST PUSH1 0x0 DUP2 SWAP1 POP SWAP2 SWAP1 POP JUMP JUMPDEST PUSH1 0x0 PUSH8 0xFFFFFFFFFFFFFFFF DUP3 AND SWAP1 POP SWAP2 SWAP1 POP JUMP JUMPDEST PUSH1 0x0 PUSH9 0xFFFFFFFFFFFFFFFFFF DUP3 AND SWAP1 POP SWAP2 SWAP1 POP JUMP JUMPDEST PUSH1 0x0 PUSH1 0xFF DUP3 AND SWAP1 POP SWAP2 SWAP1 POP JUMP JUMPDEST PUSH1 0x0 PUSH2 0x4477 DUP3 PUSH2 0x4490 JUMP JUMPDEST SWAP1 POP SWAP2 SWAP1 POP JUMP JUMPDEST PUSH1 0x0 PUSH2 0x4489 DUP3 PUSH2 0x43F9 JUMP JUMPDEST SWAP1 POP SWAP2 SWAP1 POP JUMP JUMPDEST PUSH1 0x0 PUSH2 0x449B DUP3 PUSH2 0x44A2 JUMP JUMPDEST SWAP1 POP SWAP2 SWAP1 POP JUMP JUMPDEST PUSH1 0x0 PUSH2 0x44AD DUP3 PUSH2 0x440C JUMP JUMPDEST SWAP1 POP SWAP2 SWAP1 POP JUMP JUMPDEST DUP3 DUP2 DUP4 CALLDATACOPY PUSH1 0x0 DUP4 DUP4 ADD MSTORE POP POP POP JUMP JUMPDEST PUSH1 0x0 JUMPDEST DUP4 DUP2 LT ISZERO PUSH2 0x44E1 JUMPI DUP1 DUP3 ADD MLOAD DUP2 DUP5 ADD MSTORE PUSH1 0x20 DUP2 ADD SWAP1 POP PUSH2 0x44C6 JUMP JUMPDEST DUP4 DUP2 GT ISZERO PUSH2 0x44F0 JUMPI PUSH1 0x0 DUP5 DUP5 ADD MSTORE JUMPDEST POP POP POP POP JUMP JUMPDEST PUSH1 0x0 PUSH2 0x4501 DUP3 PUSH2 0x4508 JUMP JUMPDEST SWAP1 POP SWAP2 SWAP1 POP JUMP JUMPDEST PUSH1 0x0 PUSH2 0x4513 DUP3 PUSH2 0x452B JUMP JUMPDEST SWAP1 POP SWAP2 SWAP1 POP JUMP JUMPDEST PUSH1 0x0 PUSH1 0x1F NOT PUSH1 0x1F DUP4 ADD AND SWAP1 POP SWAP2 SWAP1 POP JUMP JUMPDEST PUSH1 0x0 DUP2 PUSH1 0x60 SHL SWAP1 POP SWAP2 SWAP1 POP JUMP JUMPDEST PUSH1 0x5 DUP2 LT PUSH2 0x4542 JUMPI INVALID JUMPDEST POP JUMP JUMPDEST PUSH2 0x454E DUP2 PUSH2 0x4393 JUMP JUMPDEST DUP2 EQ PUSH2 0x4559 JUMPI PUSH1 0x0 DUP1 REVERT JUMPDEST POP JUMP JUMPDEST PUSH2 0x4565 DUP2 PUSH2 0x43A5 JUMP JUMPDEST DUP2 EQ PUSH2 0x4570 JUMPI PUSH1 0x0 DUP1 REVERT JUMPDEST POP JUMP JUMPDEST PUSH2 0x457C DUP2 PUSH2 0x43C3 JUMP JUMPDEST DUP2 EQ PUSH2 0x4587 JUMPI PUSH1 0x0 DUP1 REVERT JUMPDEST POP JUMP JUMPDEST PUSH2 0x4593 DUP2 PUSH2 0x43CD JUMP JUMPDEST DUP2 EQ PUSH2 0x459E JUMPI PUSH1 0x0 DUP1 REVERT JUMPDEST POP JUMP JUMPDEST PUSH2 0x45AA DUP2 PUSH2 0x442C JUMP JUMPDEST DUP2 EQ PUSH2 0x45B5 JUMPI PUSH1 0x0 DUP1 REVERT JUMPDEST POP JUMP JUMPDEST PUSH2 0x45C1 DUP2 PUSH2 0x4436 JUMP JUMPDEST DUP2 EQ PUSH2 0x45CC JUMPI PUSH1 0x0 DUP1 REVERT JUMPDEST POP JUMP JUMPDEST PUSH2 0x45D8 DUP2 PUSH2 0x444A JUMP JUMPDEST DUP2 EQ PUSH2 0x45E3 JUMPI PUSH1 0x0 DUP1 REVERT JUMPDEST POP JUMP JUMPDEST PUSH2 0x45EF DUP2 PUSH2 0x445F JUMP JUMPDEST DUP2 EQ PUSH2 0x45FA JUMPI PUSH1 0x0 DUP1 REVERT JUMPDEST POP JUMP INVALID LOG2 PUSH5 0x6970667358 0x22 SLT KECCAK256 0xBC PUSH21 0x52332D409F541C31856451F666AE9D998F8AA85665 ADDMOD DUP9 RETURNDATASIZE SGT LT 0xC2 PUSH12 0x6C9D64736F6C634300060400 CALLER "
				},
				"gasEstimates": {
					"creation": {
						"codeDepositCost": "3594200",
						"executionCost": "infinite",
						"totalCost": "infinite"
					},
					"external": {
						"DEFAULT_ADMIN_ROLE()": "446",
						"RELAYER_ROLE()": "605",
						"_chainID()": "1216",
						"_depositCounts(uint8)": "1548",
						"_depositRecords(uint64,uint8)": "infinite",
						"_expiry()": "1218",
						"_fee()": "1196",
						"_hasVotedOnProposal(uint72,bytes32,address)": "2115",
						"_proposals(uint72,bytes32)": "infinite",
						"_relayerThreshold()": "1217",
						"_resourceIDToHandlerAddress(bytes32)": "1585",
						"_totalProposals()": "1196",
						"_totalRelayers()": "1240",
						"adminAddRelayer(address)": "infinite",
						"adminChangeFee(uint256)": "infinite",
						"adminChangeRelayerThreshold(uint256)": "infinite",
						"adminPauseTransfers()": "infinite",
						"adminRemoveRelayer(address)": "infinite",
						"adminSetBurnable(address,address)": "infinite",
						"adminSetGenericResource(address,bytes32,address,bytes4,bytes4)": "infinite",
						"adminSetResource(address,bytes32,address)": "infinite",
						"adminUnpauseTransfers()": "infinite",
						"adminWithdraw(address,address,address,uint256)": "infinite",
						"cancelProposal(uint8,uint64,bytes32)": "infinite",
						"deposit(uint8,bytes32,bytes)": "infinite",
						"executeProposal(uint8,uint64,bytes,bytes32)": "infinite",
						"getProposal(uint8,uint64,bytes32)": "infinite",
						"getRoleAdmin(bytes32)": "infinite",
						"getRoleMember(bytes32,uint256)": "infinite",
						"getRoleMemberCount(bytes32)": "1703",
						"grantRole(bytes32,address)": "infinite",
						"hasRole(bytes32,address)": "infinite",
						"isRelayer(address)": "infinite",
						"paused()": "1313",
						"renounceAdmin(address)": "infinite",
						"renounceRole(bytes32,address)": "infinite",
						"revokeRole(bytes32,address)": "infinite",
						"transferFunds(address[],uint256[])": "infinite",
						"voteProposal(uint8,uint64,bytes32,bytes32)": "infinite"
					},
					"internal": {
						"_onlyAdmin()": "infinite",
						"_onlyAdminOrRelayer()": "infinite",
						"_onlyRelayers()": "infinite"
					}
				},
				"methodIdentifiers": {
					"DEFAULT_ADMIN_ROLE()": "a217fddf",
					"RELAYER_ROLE()": "926d7d7f",
					"_chainID()": "beab7131",
					"_depositCounts(uint8)": "4b0b919d",
					"_depositRecords(uint64,uint8)": "3ee7094a",
					"_expiry()": "c5ec8970",
					"_fee()": "c5b37c22",
					"_hasVotedOnProposal(uint72,bytes32,address)": "7febe63f",
					"_proposals(uint72,bytes32)": "50598719",
					"_relayerThreshold()": "d7a9cd79",
					"_resourceIDToHandlerAddress(bytes32)": "84db809f",
					"_totalProposals()": "9d5773e0",
					"_totalRelayers()": "802aabe8",
					"adminAddRelayer(address)": "cdb0f73a",
					"adminChangeFee(uint256)": "91c404ac",
					"adminChangeRelayerThreshold(uint256)": "4e056005",
					"adminPauseTransfers()": "80ae1c28",
					"adminRemoveRelayer(address)": "9d82dd63",
					"adminSetBurnable(address,address)": "8c0c2631",
					"adminSetGenericResource(address,bytes32,address,bytes4,bytes4)": "e8437ee7",
					"adminSetResource(address,bytes32,address)": "cb10f215",
					"adminUnpauseTransfers()": "ffaac0eb",
					"adminWithdraw(address,address,address,uint256)": "780cf004",
					"cancelProposal(uint8,uint64,bytes32)": "17f03ce5",
					"deposit(uint8,bytes32,bytes)": "05e2ca17",
					"executeProposal(uint8,uint64,bytes,bytes32)": "4454b20d",
					"getProposal(uint8,uint64,bytes32)": "a9cf69fa",
					"getRoleAdmin(bytes32)": "248a9ca3",
					"getRoleMember(bytes32,uint256)": "9010d07c",
					"getRoleMemberCount(bytes32)": "ca15c873",
					"grantRole(bytes32,address)": "2f2ff15d",
					"hasRole(bytes32,address)": "91d14854",
					"isRelayer(address)": "541d5548",
					"paused()": "5c975abb",
					"renounceAdmin(address)": "5e1fab0f",
					"renounceRole(bytes32,address)": "36568abe",
					"revokeRole(bytes32,address)": "d547741f",
					"transferFunds(address[],uint256[])": "4603ae38",
					"voteProposal(uint8,uint64,bytes32,bytes32)": "1ff013f1"
				}
			},
			"storageLayout": {
				"storage": [
					{
						"astId": 1936,
						"contract": "contracts/Bridge.sol:Bridge",
						"label": "_paused",
						"offset": 0,
						"slot": "0",
						"type": "t_bool"
					},
					{
						"astId": 1140,
						"contract": "contracts/Bridge.sol:Bridge",
						"label": "_roles",
						"offset": 0,
						"slot": "1",
						"type": "t_mapping(t_bytes32,t_struct(RoleData)1136_storage)"
					},
					{
						"astId": 17,
						"contract": "contracts/Bridge.sol:Bridge",
						"label": "_chainID",
						"offset": 0,
						"slot": "2",
						"type": "t_uint8"
					},
					{
						"astId": 19,
						"contract": "contracts/Bridge.sol:Bridge",
						"label": "_relayerThreshold",
						"offset": 0,
						"slot": "3",
						"type": "t_uint256"
					},
					{
						"astId": 21,
						"contract": "contracts/Bridge.sol:Bridge",
						"label": "_totalRelayers",
						"offset": 0,
						"slot": "4",
						"type": "t_uint256"
					},
					{
						"astId": 23,
						"contract": "contracts/Bridge.sol:Bridge",
						"label": "_totalProposals",
						"offset": 0,
						"slot": "5",
						"type": "t_uint256"
					},
					{
						"astId": 25,
						"contract": "contracts/Bridge.sol:Bridge",
						"label": "_fee",
						"offset": 0,
						"slot": "6",
						"type": "t_uint256"
					},
					{
						"astId": 27,
						"contract": "contracts/Bridge.sol:Bridge",
						"label": "_expiry",
						"offset": 0,
						"slot": "7",
						"type": "t_uint256"
					},
					{
						"astId": 55,
						"contract": "contracts/Bridge.sol:Bridge",
						"label": "_depositCounts",
						"offset": 0,
						"slot": "8",
						"type": "t_mapping(t_uint8,t_uint64)"
					},
					{
						"astId": 59,
						"contract": "contracts/Bridge.sol:Bridge",
						"label": "_resourceIDToHandlerAddress",
						"offset": 0,
						"slot": "9",
						"type": "t_mapping(t_bytes32,t_address)"
					},
					{
						"astId": 65,
						"contract": "contracts/Bridge.sol:Bridge",
						"label": "_depositRecords",
						"offset": 0,
						"slot": "10",
						"type": "t_mapping(t_uint64,t_mapping(t_uint8,t_bytes_storage))"
					},
					{
						"astId": 71,
						"contract": "contracts/Bridge.sol:Bridge",
						"label": "_proposals",
						"offset": 0,
						"slot": "11",
						"type": "t_mapping(t_uint72,t_mapping(t_bytes32,t_struct(Proposal)51_storage))"
					},
					{
						"astId": 79,
						"contract": "contracts/Bridge.sol:Bridge",
						"label": "_hasVotedOnProposal",
						"offset": 0,
						"slot": "12",
						"type": "t_mapping(t_uint72,t_mapping(t_bytes32,t_mapping(t_address,t_bool)))"
					}
				],
				"types": {
					"t_address": {
						"encoding": "inplace",
						"label": "address",
						"numberOfBytes": "20"
					},
					"t_array(t_address)dyn_storage": {
						"base": "t_address",
						"encoding": "dynamic_array",
						"label": "address[]",
						"numberOfBytes": "32"
					},
					"t_array(t_bytes32)dyn_storage": {
						"base": "t_bytes32",
						"encoding": "dynamic_array",
						"label": "bytes32[]",
						"numberOfBytes": "32"
					},
					"t_bool": {
						"encoding": "inplace",
						"label": "bool",
						"numberOfBytes": "1"
					},
					"t_bytes32": {
						"encoding": "inplace",
						"label": "bytes32",
						"numberOfBytes": "32"
					},
					"t_bytes_storage": {
						"encoding": "bytes",
						"label": "bytes",
						"numberOfBytes": "32"
					},
					"t_enum(ProposalStatus)36": {
						"encoding": "inplace",
						"label": "enum Bridge.ProposalStatus",
						"numberOfBytes": "1"
					},
					"t_mapping(t_address,t_bool)": {
						"encoding": "mapping",
						"key": "t_address",
						"label": "mapping(address => bool)",
						"numberOfBytes": "32",
						"value": "t_bool"
					},
					"t_mapping(t_bytes32,t_address)": {
						"encoding": "mapping",
						"key": "t_bytes32",
						"label": "mapping(bytes32 => address)",
						"numberOfBytes": "32",
						"value": "t_address"
					},
					"t_mapping(t_bytes32,t_mapping(t_address,t_bool))": {
						"encoding": "mapping",
						"key": "t_bytes32",
						"label": "mapping(bytes32 => mapping(address => bool))",
						"numberOfBytes": "32",
						"value": "t_mapping(t_address,t_bool)"
					},
					"t_mapping(t_bytes32,t_struct(Proposal)51_storage)": {
						"encoding": "mapping",
						"key": "t_bytes32",
						"label": "mapping(bytes32 => struct Bridge.Proposal)",
						"numberOfBytes": "32",
						"value": "t_struct(Proposal)51_storage"
					},
					"t_mapping(t_bytes32,t_struct(RoleData)1136_storage)": {
						"encoding": "mapping",
						"key": "t_bytes32",
						"label": "mapping(bytes32 => struct AccessControl.RoleData)",
						"numberOfBytes": "32",
						"value": "t_struct(RoleData)1136_storage"
					},
					"t_mapping(t_bytes32,t_uint256)": {
						"encoding": "mapping",
						"key": "t_bytes32",
						"label": "mapping(bytes32 => uint256)",
						"numberOfBytes": "32",
						"value": "t_uint256"
					},
					"t_mapping(t_uint64,t_mapping(t_uint8,t_bytes_storage))": {
						"encoding": "mapping",
						"key": "t_uint64",
						"label": "mapping(uint64 => mapping(uint8 => bytes))",
						"numberOfBytes": "32",
						"value": "t_mapping(t_uint8,t_bytes_storage)"
					},
					"t_mapping(t_uint72,t_mapping(t_bytes32,t_mapping(t_address,t_bool)))": {
						"encoding": "mapping",
						"key": "t_uint72",
						"label": "mapping(uint72 => mapping(bytes32 => mapping(address => bool)))",
						"numberOfBytes": "32",
						"value": "t_mapping(t_bytes32,t_mapping(t_address,t_bool))"
					},
					"t_mapping(t_uint72,t_mapping(t_bytes32,t_struct(Proposal)51_storage))": {
						"encoding": "mapping",
						"key": "t_uint72",
						"label": "mapping(uint72 => mapping(bytes32 => struct Bridge.Proposal))",
						"numberOfBytes": "32",
						"value": "t_mapping(t_bytes32,t_struct(Proposal)51_storage)"
					},
					"t_mapping(t_uint8,t_bytes_storage)": {
						"encoding": "mapping",
						"key": "t_uint8",
						"label": "mapping(uint8 => bytes)",
						"numberOfBytes": "32",
						"value": "t_bytes_storage"
					},
					"t_mapping(t_uint8,t_uint64)": {
						"encoding": "mapping",
						"key": "t_uint8",
						"label": "mapping(uint8 => uint64)",
						"numberOfBytes": "32",
						"value": "t_uint64"
					},
					"t_struct(AddressSet)1717_storage": {
						"encoding": "inplace",
						"label": "struct EnumerableSet.AddressSet",
						"members": [
							{
								"astId": 1716,
								"contract": "contracts/Bridge.sol:Bridge",
								"label": "_inner",
								"offset": 0,
								"slot": "0",
								"type": "t_struct(Set)1537_storage"
							}
						],
						"numberOfBytes": "64"
					},
					"t_struct(Proposal)51_storage": {
						"encoding": "inplace",
						"label": "struct Bridge.Proposal",
						"members": [
							{
								"astId": 38,
								"contract": "contracts/Bridge.sol:Bridge",
								"label": "_resourceID",
								"offset": 0,
								"slot": "0",
								"type": "t_bytes32"
							},
							{
								"astId": 40,
								"contract": "contracts/Bridge.sol:Bridge",
								"label": "_dataHash",
								"offset": 0,
								"slot": "1",
								"type": "t_bytes32"
							},
							{
								"astId": 43,
								"contract": "contracts/Bridge.sol:Bridge",
								"label": "_yesVotes",
								"offset": 0,
								"slot": "2",
								"type": "t_array(t_address)dyn_storage"
							},
							{
								"astId": 46,
								"contract": "contracts/Bridge.sol:Bridge",
								"label": "_noVotes",
								"offset": 0,
								"slot": "3",
								"type": "t_array(t_address)dyn_storage"
							},
							{
								"astId": 48,
								"contract": "contracts/Bridge.sol:Bridge",
								"label": "_status",
								"offset": 0,
								"slot": "4",
								"type": "t_enum(ProposalStatus)36"
							},
							{
								"astId": 50,
								"contract": "contracts/Bridge.sol:Bridge",
								"label": "_proposedBlock",
								"offset": 0,
								"slot": "5",
								"type": "t_uint256"
							}
						],
						"numberOfBytes": "192"
					},
					"t_struct(RoleData)1136_storage": {
						"encoding": "inplace",
						"label": "struct AccessControl.RoleData",
						"members": [
							{
								"astId": 1133,
								"contract": "contracts/Bridge.sol:Bridge",
								"label": "members",
								"offset": 0,
								"slot": "0",
								"type": "t_struct(AddressSet)1717_storage"
							},
							{
								"astId": 1135,
								"contract": "contracts/Bridge.sol:Bridge",
								"label": "adminRole",
								"offset": 0,
								"slot": "2",
								"type": "t_bytes32"
							}
						],
						"numberOfBytes": "96"
					},
					"t_struct(Set)1537_storage": {
						"encoding": "inplace",
						"label": "struct EnumerableSet.Set",
						"members": [
							{
								"astId": 1532,
								"contract": "contracts/Bridge.sol:Bridge",
								"label": "_values",
								"offset": 0,
								"slot": "0",
								"type": "t_array(t_bytes32)dyn_storage"
							},
							{
								"astId": 1536,
								"contract": "contracts/Bridge.sol:Bridge",
								"label": "_indexes",
								"offset": 0,
								"slot": "1",
								"type": "t_mapping(t_bytes32,t_uint256)"
							}
						],
						"numberOfBytes": "64"
					},
					"t_uint256": {
						"encoding": "inplace",
						"label": "uint256",
						"numberOfBytes": "32"
					},
					"t_uint64": {
						"encoding": "inplace",
						"label": "uint64",
						"numberOfBytes": "8"
					},
					"t_uint72": {
						"encoding": "inplace",
						"label": "uint72",
						"numberOfBytes": "9"
					},
					"t_uint8": {
						"encoding": "inplace",
						"label": "uint8",
						"numberOfBytes": "1"
					}
				}
			},
			"userdoc": {
				"methods": {
					"adminAddRelayer(address)": {
						"notice": "Grants {relayerAddress} the relayer role and increases {_totalRelayer} count.Only callable by an address that currently has the admin role.Emits {RelayerAdded} event."
					},
					"adminChangeFee(uint256)": {
						"notice": "Changes deposit fee.Only callable by admin."
					},
					"adminChangeRelayerThreshold(uint256)": {
						"notice": "Modifies the number of votes required for a proposal to be considered passed.Only callable by an address that currently has the admin role.Emits {RelayerThresholdChanged} event."
					},
					"adminRemoveRelayer(address)": {
						"notice": "Removes relayer role for {relayerAddress} and decreases {_totalRelayer} count.Only callable by an address that currently has the admin role.Emits {RelayerRemoved} event."
					},
					"adminSetBurnable(address,address)": {
						"notice": "Sets a resource as burnable for handler contracts that use the IERCHandler interface.Only callable by an address that currently has the admin role."
					},
					"adminSetGenericResource(address,bytes32,address,bytes4,bytes4)": {
						"notice": "Sets a new resource for handler contracts that use the IGenericHandler interface, and maps the {handlerAddress} to {resourceID} in {_resourceIDToHandlerAddress}.Only callable by an address that currently has the admin role."
					},
					"adminSetResource(address,bytes32,address)": {
						"notice": "Sets a new resource for handler contracts that use the IERCHandler interface, and maps the {handlerAddress} to {resourceID} in {_resourceIDToHandlerAddress}.Only callable by an address that currently has the admin role."
					},
					"adminWithdraw(address,address,address,uint256)": {
						"notice": "Used to manually withdraw funds from ERC safes."
					},
					"cancelProposal(uint8,uint64,bytes32)": {
						"notice": "Executes a deposit proposal that is considered passed using a specified handler contract.Only callable by relayers when Bridge is not paused.Proposal must be past expiry threshold.Emits {ProposalEvent} event with status {Cancelled}."
					},
					"deposit(uint8,bytes32,bytes)": {
						"notice": "Initiates a transfer using a specified handler contract.Only callable when Bridge is not paused.Emits {Deposit} event."
					},
					"executeProposal(uint8,uint64,bytes,bytes32)": {
						"notice": "Executes a deposit proposal that is considered passed using a specified handler contract.Only callable by relayers when Bridge is not paused.Proposal must have Passed status.Hash of {data} must equal proposal's {dataHash}.Emits {ProposalEvent} event with status {Executed}."
					},
					"getProposal(uint8,uint64,bytes32)": {
						"notice": "Returns a proposal."
					},
					"transferFunds(address[],uint256[])": {
						"notice": "Transfers eth in the contract to the specified addresses. The parameters addrs and amounts are mapped 1-1. This means that the address at index 0 for addrs will receive the amount (in WEI) from amounts at index 0."
					},
					"voteProposal(uint8,uint64,bytes32,bytes32)": {
						"notice": "When called, {msg.sender} will be marked as voting in favor of proposal.Only callable by relayers when Bridge is not paused.Proposal must not have already been passed or executed.{msg.sender} must not have already voted on proposal.Emits {ProposalEvent} event with status indicating the proposal status.Emits {ProposalVote} event."
					}
				}
			}
		}
	}
}